{
  "address": "0x8288C43fA04F1619BBA0b70582aEaF9c6395d259",
  "abi": [
    {
      "inputs": [
        {
          "internalType": "address",
          "name": "_admin",
          "type": "address"
        }
      ],
      "stateMutability": "nonpayable",
      "type": "constructor"
    },
    {
      "anonymous": false,
      "inputs": [
        {
          "indexed": true,
          "internalType": "address",
          "name": "account",
          "type": "address"
        },
        {
          "indexed": true,
          "internalType": "address",
          "name": "operator",
          "type": "address"
        },
        {
          "indexed": false,
          "internalType": "bool",
          "name": "approved",
          "type": "bool"
        }
      ],
      "name": "ApprovalForAll",
      "type": "event"
    },
    {
      "anonymous": false,
      "inputs": [
        {
          "indexed": true,
          "internalType": "address",
          "name": "account",
          "type": "address"
        }
      ],
      "name": "RegisteredConsumer",
      "type": "event"
    },
    {
      "anonymous": false,
      "inputs": [
        {
          "indexed": true,
          "internalType": "address",
          "name": "account",
          "type": "address"
        }
      ],
      "name": "RegisteredDealer",
      "type": "event"
    },
    {
      "anonymous": false,
      "inputs": [
        {
          "indexed": true,
          "internalType": "address",
          "name": "account",
          "type": "address"
        }
      ],
      "name": "RegisteredIndustry",
      "type": "event"
    },
    {
      "anonymous": false,
      "inputs": [
        {
          "indexed": true,
          "internalType": "bytes32",
          "name": "role",
          "type": "bytes32"
        },
        {
          "indexed": true,
          "internalType": "bytes32",
          "name": "previousAdminRole",
          "type": "bytes32"
        },
        {
          "indexed": true,
          "internalType": "bytes32",
          "name": "newAdminRole",
          "type": "bytes32"
        }
      ],
      "name": "RoleAdminChanged",
      "type": "event"
    },
    {
      "anonymous": false,
      "inputs": [
        {
          "indexed": true,
          "internalType": "bytes32",
          "name": "role",
          "type": "bytes32"
        },
        {
          "indexed": true,
          "internalType": "address",
          "name": "account",
          "type": "address"
        },
        {
          "indexed": true,
          "internalType": "address",
          "name": "sender",
          "type": "address"
        }
      ],
      "name": "RoleGranted",
      "type": "event"
    },
    {
      "anonymous": false,
      "inputs": [
        {
          "indexed": true,
          "internalType": "bytes32",
          "name": "role",
          "type": "bytes32"
        },
        {
          "indexed": true,
          "internalType": "address",
          "name": "account",
          "type": "address"
        },
        {
          "indexed": true,
          "internalType": "address",
          "name": "sender",
          "type": "address"
        }
      ],
      "name": "RoleRevoked",
      "type": "event"
    },
    {
      "anonymous": false,
      "inputs": [
        {
          "indexed": false,
          "internalType": "uint256",
          "name": "availableBalance",
          "type": "uint256"
        },
        {
          "indexed": false,
          "internalType": "uint256",
          "name": "retiredBalance",
          "type": "uint256"
        },
        {
          "indexed": false,
          "internalType": "uint256",
          "name": "tokenId",
          "type": "uint256"
        },
        {
          "indexed": false,
          "internalType": "uint8",
          "name": "tokenTypeId",
          "type": "uint8"
        },
        {
          "indexed": true,
          "internalType": "address",
          "name": "issuedBy",
          "type": "address"
        },
        {
          "indexed": true,
          "internalType": "uint160",
          "name": "issuedFrom",
          "type": "uint160"
        },
        {
          "indexed": true,
          "internalType": "address",
          "name": "issuedTo",
          "type": "address"
        },
        {
          "indexed": false,
          "internalType": "uint256",
          "name": "fromDate",
          "type": "uint256"
        },
        {
          "indexed": false,
          "internalType": "uint256",
          "name": "thruDate",
          "type": "uint256"
        },
        {
          "indexed": false,
          "internalType": "uint256",
          "name": "dateCreated",
          "type": "uint256"
        },
        {
          "indexed": false,
          "internalType": "string",
          "name": "metadata",
          "type": "string"
        },
        {
          "indexed": false,
          "internalType": "string",
          "name": "manifest",
          "type": "string"
        },
        {
          "indexed": false,
          "internalType": "string",
          "name": "description",
          "type": "string"
        }
      ],
      "name": "TokenCreated",
      "type": "event"
    },
    {
      "anonymous": false,
      "inputs": [
        {
          "indexed": true,
          "internalType": "address",
          "name": "account",
          "type": "address"
        },
        {
          "indexed": false,
          "internalType": "uint256",
          "name": "tokenId",
          "type": "uint256"
        },
        {
          "indexed": false,
          "internalType": "uint256",
          "name": "amount",
          "type": "uint256"
        }
      ],
      "name": "TokenRetired",
      "type": "event"
    },
    {
      "anonymous": false,
      "inputs": [
        {
          "indexed": true,
          "internalType": "address",
          "name": "operator",
          "type": "address"
        },
        {
          "indexed": true,
          "internalType": "address",
          "name": "from",
          "type": "address"
        },
        {
          "indexed": true,
          "internalType": "address",
          "name": "to",
          "type": "address"
        },
        {
          "indexed": false,
          "internalType": "uint256[]",
          "name": "ids",
          "type": "uint256[]"
        },
        {
          "indexed": false,
          "internalType": "uint256[]",
          "name": "values",
          "type": "uint256[]"
        }
      ],
      "name": "TransferBatch",
      "type": "event"
    },
    {
      "anonymous": false,
      "inputs": [
        {
          "indexed": true,
          "internalType": "address",
          "name": "operator",
          "type": "address"
        },
        {
          "indexed": true,
          "internalType": "address",
          "name": "from",
          "type": "address"
        },
        {
          "indexed": true,
          "internalType": "address",
          "name": "to",
          "type": "address"
        },
        {
          "indexed": false,
          "internalType": "uint256",
          "name": "id",
          "type": "uint256"
        },
        {
          "indexed": false,
          "internalType": "uint256",
          "name": "value",
          "type": "uint256"
        }
      ],
      "name": "TransferSingle",
      "type": "event"
    },
    {
      "anonymous": false,
      "inputs": [
        {
          "indexed": false,
          "internalType": "string",
          "name": "value",
          "type": "string"
        },
        {
          "indexed": true,
          "internalType": "uint256",
          "name": "id",
          "type": "uint256"
        }
      ],
      "name": "URI",
      "type": "event"
    },
    {
      "anonymous": false,
      "inputs": [
        {
          "indexed": true,
          "internalType": "address",
          "name": "account",
          "type": "address"
        }
      ],
      "name": "UnregisteredConsumer",
      "type": "event"
    },
    {
      "anonymous": false,
      "inputs": [
        {
          "indexed": true,
          "internalType": "address",
          "name": "account",
          "type": "address"
        }
      ],
      "name": "UnregisteredDealer",
      "type": "event"
    },
    {
      "anonymous": false,
      "inputs": [
        {
          "indexed": true,
          "internalType": "address",
          "name": "account",
          "type": "address"
        }
      ],
      "name": "UnregisteredIndustry",
      "type": "event"
    },
    {
      "inputs": [],
      "name": "DEFAULT_ADMIN_ROLE",
      "outputs": [
        {
          "internalType": "bytes32",
          "name": "",
          "type": "bytes32"
        }
      ],
      "stateMutability": "view",
      "type": "function"
    },
    {
      "inputs": [],
      "name": "REGISTERED_CONSUMER",
      "outputs": [
        {
          "internalType": "bytes32",
          "name": "",
          "type": "bytes32"
        }
      ],
      "stateMutability": "view",
      "type": "function"
    },
    {
      "inputs": [],
      "name": "REGISTERED_DEALER",
      "outputs": [
        {
          "internalType": "bytes32",
          "name": "",
          "type": "bytes32"
        }
      ],
      "stateMutability": "view",
      "type": "function"
    },
    {
      "inputs": [],
      "name": "REGISTERED_EMISSIONS_AUDITOR",
      "outputs": [
        {
          "internalType": "bytes32",
          "name": "",
          "type": "bytes32"
        }
      ],
      "stateMutability": "view",
      "type": "function"
    },
    {
      "inputs": [],
      "name": "REGISTERED_INDUSTRY",
      "outputs": [
        {
          "internalType": "bytes32",
          "name": "",
          "type": "bytes32"
        }
      ],
      "stateMutability": "view",
      "type": "function"
    },
    {
      "inputs": [],
      "name": "REGISTERED_OFFSET_DEALER",
      "outputs": [
        {
          "internalType": "bytes32",
          "name": "",
          "type": "bytes32"
        }
      ],
      "stateMutability": "view",
      "type": "function"
    },
    {
      "inputs": [],
      "name": "REGISTERED_REC_DEALER",
      "outputs": [
        {
          "internalType": "bytes32",
          "name": "",
          "type": "bytes32"
        }
      ],
      "stateMutability": "view",
      "type": "function"
    },
    {
      "inputs": [
        {
          "internalType": "address",
          "name": "entity",
          "type": "address"
        }
      ],
      "name": "_consumerOrDealer",
      "outputs": [
        {
          "internalType": "bool",
          "name": "",
          "type": "bool"
        }
      ],
      "stateMutability": "view",
      "type": "function"
    },
    {
      "inputs": [
        {
          "internalType": "address",
          "name": "account",
          "type": "address"
        },
        {
          "internalType": "uint256",
          "name": "id",
          "type": "uint256"
        }
      ],
      "name": "balanceOf",
      "outputs": [
        {
          "internalType": "uint256",
          "name": "",
          "type": "uint256"
        }
      ],
      "stateMutability": "view",
      "type": "function"
    },
    {
      "inputs": [
        {
          "internalType": "address[]",
          "name": "accounts",
          "type": "address[]"
        },
        {
          "internalType": "uint256[]",
          "name": "ids",
          "type": "uint256[]"
        }
      ],
      "name": "balanceOfBatch",
      "outputs": [
        {
          "internalType": "uint256[]",
          "name": "",
          "type": "uint256[]"
        }
      ],
      "stateMutability": "view",
      "type": "function"
    },
    {
      "inputs": [
        {
          "internalType": "address",
          "name": "account",
          "type": "address"
        },
        {
          "internalType": "uint256",
          "name": "tokenId",
          "type": "uint256"
        }
      ],
      "name": "getAvailableAndRetired",
      "outputs": [
        {
          "internalType": "uint256",
          "name": "",
          "type": "uint256"
        },
        {
          "internalType": "uint256",
          "name": "",
          "type": "uint256"
        }
      ],
      "stateMutability": "view",
      "type": "function"
    },
    {
      "inputs": [
        {
          "internalType": "uint256",
          "name": "tokenId",
          "type": "uint256"
        }
      ],
      "name": "getIssuedBy",
      "outputs": [
        {
          "internalType": "address",
          "name": "",
          "type": "address"
        }
      ],
      "stateMutability": "view",
      "type": "function"
    },
    {
      "inputs": [
        {
          "internalType": "uint256",
          "name": "tokenId",
          "type": "uint256"
        }
      ],
      "name": "getIssuedFrom",
      "outputs": [
        {
          "internalType": "uint160",
          "name": "",
          "type": "uint160"
        }
      ],
      "stateMutability": "view",
      "type": "function"
    },
    {
      "inputs": [],
      "name": "getNumOfUniqueTokens",
      "outputs": [
        {
          "internalType": "uint256",
          "name": "",
          "type": "uint256"
        }
      ],
      "stateMutability": "view",
      "type": "function"
    },
    {
      "inputs": [
        {
          "internalType": "uint256",
          "name": "tokenId",
          "type": "uint256"
        },
        {
          "internalType": "address",
          "name": "account",
          "type": "address"
        }
      ],
      "name": "getRetiredBalances",
      "outputs": [
        {
          "internalType": "uint256",
          "name": "",
          "type": "uint256"
        }
      ],
      "stateMutability": "view",
      "type": "function"
    },
    {
      "inputs": [
        {
          "internalType": "bytes32",
          "name": "role",
          "type": "bytes32"
        }
      ],
      "name": "getRoleAdmin",
      "outputs": [
        {
          "internalType": "bytes32",
          "name": "",
          "type": "bytes32"
        }
      ],
      "stateMutability": "view",
      "type": "function"
    },
    {
      "inputs": [
        {
          "internalType": "address",
          "name": "account",
          "type": "address"
        }
      ],
      "name": "getRoles",
      "outputs": [
        {
          "components": [
            {
              "internalType": "bool",
              "name": "isAdmin",
              "type": "bool"
            },
            {
              "internalType": "bool",
              "name": "isConsumer",
              "type": "bool"
            },
            {
              "internalType": "bool",
              "name": "isRecDealer",
              "type": "bool"
            },
            {
              "internalType": "bool",
              "name": "isCeoDealer",
              "type": "bool"
            },
            {
              "internalType": "bool",
              "name": "isAeDealer",
              "type": "bool"
            },
            {
              "internalType": "bool",
              "name": "isIndustry",
              "type": "bool"
            }
          ],
          "internalType": "struct NetEmissionsTokenNetwork.RolesInfo",
          "name": "",
          "type": "tuple"
        }
      ],
      "stateMutability": "view",
      "type": "function"
    },
    {
      "inputs": [
        {
          "internalType": "uint256",
          "name": "tokenId",
          "type": "uint256"
        }
      ],
      "name": "getTokenDetails",
      "outputs": [
        {
          "components": [
            {
              "internalType": "uint256",
              "name": "tokenId",
              "type": "uint256"
            },
            {
              "internalType": "uint8",
              "name": "tokenTypeId",
              "type": "uint8"
            },
            {
              "internalType": "address",
              "name": "issuedBy",
              "type": "address"
            },
            {
              "internalType": "uint160",
              "name": "issuedFrom",
              "type": "uint160"
            },
            {
              "internalType": "address",
              "name": "issuedTo",
              "type": "address"
            },
            {
              "internalType": "uint256",
              "name": "fromDate",
              "type": "uint256"
            },
            {
              "internalType": "uint256",
              "name": "thruDate",
              "type": "uint256"
            },
            {
              "internalType": "uint256",
              "name": "dateCreated",
              "type": "uint256"
            },
            {
              "internalType": "string",
              "name": "metadata",
              "type": "string"
            },
            {
              "internalType": "string",
              "name": "manifest",
              "type": "string"
            },
            {
              "internalType": "string",
              "name": "description",
              "type": "string"
            },
            {
              "internalType": "uint256",
              "name": "totalIssued",
              "type": "uint256"
            },
            {
              "internalType": "uint256",
              "name": "totalRetired",
              "type": "uint256"
            }
          ],
          "internalType": "struct NetEmissionsTokenNetwork.CarbonTokenDetails",
          "name": "",
          "type": "tuple"
        }
      ],
      "stateMutability": "view",
      "type": "function"
    },
    {
      "inputs": [
        {
          "internalType": "address",
          "name": "account",
          "type": "address"
        },
        {
          "internalType": "uint256",
          "name": "tokenId",
          "type": "uint256"
        }
      ],
      "name": "getTokenRetiredAmount",
      "outputs": [
        {
          "internalType": "uint256",
          "name": "",
          "type": "uint256"
        }
      ],
      "stateMutability": "view",
      "type": "function"
    },
    {
      "inputs": [
        {
          "internalType": "uint256",
          "name": "tokenId",
          "type": "uint256"
        }
      ],
      "name": "getTokenType",
      "outputs": [
        {
          "internalType": "string",
          "name": "",
          "type": "string"
        }
      ],
      "stateMutability": "view",
      "type": "function"
    },
    {
      "inputs": [
        {
          "internalType": "uint256",
          "name": "tokenId",
          "type": "uint256"
        }
      ],
      "name": "getTokenTypeId",
      "outputs": [
        {
          "internalType": "uint8",
          "name": "",
          "type": "uint8"
        }
      ],
      "stateMutability": "view",
      "type": "function"
    },
    {
      "inputs": [
        {
          "internalType": "address",
          "name": "_from",
          "type": "address"
        },
        {
          "internalType": "address",
          "name": "_to",
          "type": "address"
        },
        {
          "internalType": "uint256[]",
          "name": "_ids",
          "type": "uint256[]"
        },
        {
          "internalType": "uint256[]",
          "name": "_amounts",
          "type": "uint256[]"
        }
      ],
      "name": "getTransferHash",
      "outputs": [
        {
          "internalType": "bytes32",
          "name": "",
          "type": "bytes32"
        }
      ],
      "stateMutability": "view",
      "type": "function"
    },
    {
      "inputs": [
        {
          "internalType": "bytes32",
          "name": "role",
          "type": "bytes32"
        },
        {
          "internalType": "address",
          "name": "account",
          "type": "address"
        }
      ],
      "name": "grantRole",
      "outputs": [],
      "stateMutability": "nonpayable",
      "type": "function"
    },
    {
      "inputs": [
        {
          "internalType": "bytes32",
          "name": "role",
          "type": "bytes32"
        },
        {
          "internalType": "address",
          "name": "account",
          "type": "address"
        }
      ],
      "name": "hasRole",
      "outputs": [
        {
          "internalType": "bool",
          "name": "",
          "type": "bool"
        }
      ],
      "stateMutability": "view",
      "type": "function"
    },
    {
      "inputs": [
        {
          "internalType": "address",
          "name": "account",
          "type": "address"
        },
        {
          "internalType": "address",
          "name": "operator",
          "type": "address"
        }
      ],
      "name": "isApprovedForAll",
      "outputs": [
        {
          "internalType": "bool",
          "name": "",
          "type": "bool"
        }
      ],
      "stateMutability": "view",
      "type": "function"
    },
    {
      "inputs": [
        {
          "internalType": "address",
          "name": "auditor",
          "type": "address"
        }
      ],
      "name": "isAuditor",
      "outputs": [
        {
          "internalType": "bool",
          "name": "",
          "type": "bool"
        }
      ],
      "stateMutability": "view",
      "type": "function"
    },
    {
      "inputs": [
        {
          "internalType": "address",
          "name": "account",
          "type": "address"
        }
      ],
      "name": "isConsumerRegistered",
      "outputs": [
        {
          "internalType": "bool",
          "name": "",
          "type": "bool"
        }
      ],
      "stateMutability": "view",
      "type": "function"
    },
    {
      "inputs": [
        {
          "internalType": "address",
          "name": "account",
          "type": "address"
        }
      ],
      "name": "isDealerRegistered",
      "outputs": [
        {
          "internalType": "bool",
          "name": "",
          "type": "bool"
        }
      ],
      "stateMutability": "view",
      "type": "function"
    },
    {
      "inputs": [
        {
          "internalType": "address",
          "name": "industry",
          "type": "address"
        }
      ],
      "name": "isIndustry",
      "outputs": [
        {
          "internalType": "bool",
          "name": "",
          "type": "bool"
        }
      ],
      "stateMutability": "view",
      "type": "function"
    },
    {
      "inputs": [
        {
          "internalType": "uint160",
          "name": "issuedFrom",
          "type": "uint160"
        },
        {
          "internalType": "address",
          "name": "issuedTo",
          "type": "address"
        },
        {
          "internalType": "uint8",
          "name": "tokenTypeId",
          "type": "uint8"
        },
        {
          "internalType": "uint256",
          "name": "quantity",
          "type": "uint256"
        },
        {
          "internalType": "uint256",
          "name": "fromDate",
          "type": "uint256"
        },
        {
          "internalType": "uint256",
          "name": "thruDate",
          "type": "uint256"
        },
        {
          "internalType": "string",
          "name": "metadata",
          "type": "string"
        },
        {
          "internalType": "string",
          "name": "manifest",
          "type": "string"
        },
        {
          "internalType": "string",
          "name": "description",
          "type": "string"
        }
      ],
      "name": "issue",
      "outputs": [],
      "stateMutability": "nonpayable",
      "type": "function"
    },
    {
      "inputs": [
        {
          "internalType": "uint160",
          "name": "issuedFrom",
          "type": "uint160"
        },
        {
          "internalType": "address",
          "name": "issuedTo",
          "type": "address"
        },
        {
          "internalType": "address",
          "name": "trackerAddress",
          "type": "address"
        },
        {
          "internalType": "uint256",
          "name": "trackerId",
          "type": "uint256"
        },
        {
          "internalType": "uint8",
          "name": "tokenTypeId",
          "type": "uint8"
        },
        {
          "internalType": "uint256",
          "name": "quantity",
          "type": "uint256"
        },
        {
          "internalType": "uint256",
          "name": "fromDate",
          "type": "uint256"
        },
        {
          "internalType": "uint256",
          "name": "thruDate",
          "type": "uint256"
        },
        {
          "internalType": "string",
          "name": "metadata",
          "type": "string"
        },
        {
          "internalType": "string",
          "name": "manifest",
          "type": "string"
        },
        {
          "internalType": "string",
          "name": "description",
          "type": "string"
        }
      ],
      "name": "issueAndTrack",
      "outputs": [],
      "stateMutability": "nonpayable",
      "type": "function"
    },
    {
      "inputs": [
        {
          "internalType": "address",
          "name": "issuedBy",
          "type": "address"
        },
        {
          "internalType": "uint160",
          "name": "issuedFrom",
          "type": "uint160"
        },
        {
          "internalType": "address",
          "name": "issuedTo",
          "type": "address"
        },
        {
          "internalType": "uint8",
          "name": "tokenTypeId",
          "type": "uint8"
        },
        {
          "internalType": "uint256",
          "name": "quantity",
          "type": "uint256"
        },
        {
          "internalType": "uint256",
          "name": "fromDate",
          "type": "uint256"
        },
        {
          "internalType": "uint256",
          "name": "thruDate",
          "type": "uint256"
        },
        {
          "internalType": "string",
          "name": "metadata",
          "type": "string"
        },
        {
          "internalType": "string",
          "name": "manifest",
          "type": "string"
        },
        {
          "internalType": "string",
          "name": "description",
          "type": "string"
        }
      ],
      "name": "issueOnBehalf",
      "outputs": [],
      "stateMutability": "nonpayable",
      "type": "function"
    },
    {
      "inputs": [],
      "name": "limitedMode",
      "outputs": [
        {
          "internalType": "bool",
          "name": "",
          "type": "bool"
        }
      ],
      "stateMutability": "view",
      "type": "function"
    },
    {
      "inputs": [
        {
          "internalType": "address",
          "name": "to",
          "type": "address"
        },
        {
          "internalType": "uint256",
          "name": "tokenId",
          "type": "uint256"
        },
        {
          "internalType": "uint256",
          "name": "quantity",
          "type": "uint256"
        }
      ],
      "name": "mint",
      "outputs": [],
      "stateMutability": "nonpayable",
      "type": "function"
    },
    {
      "inputs": [
        {
          "internalType": "address",
          "name": "account",
          "type": "address"
        }
      ],
      "name": "registerConsumer",
      "outputs": [],
      "stateMutability": "nonpayable",
      "type": "function"
    },
    {
      "inputs": [
        {
          "internalType": "address",
          "name": "account",
          "type": "address"
        },
        {
          "internalType": "uint8",
          "name": "tokenTypeId",
          "type": "uint8"
        }
      ],
      "name": "registerDealer",
      "outputs": [],
      "stateMutability": "nonpayable",
      "type": "function"
    },
    {
      "inputs": [
        {
          "internalType": "address",
          "name": "account",
          "type": "address"
        }
      ],
      "name": "registerIndustry",
      "outputs": [],
      "stateMutability": "nonpayable",
      "type": "function"
    },
    {
      "inputs": [
        {
          "internalType": "bytes32",
          "name": "role",
          "type": "bytes32"
        },
        {
          "internalType": "address",
          "name": "account",
          "type": "address"
        }
      ],
      "name": "renounceRole",
      "outputs": [],
      "stateMutability": "nonpayable",
      "type": "function"
    },
    {
      "inputs": [
        {
          "internalType": "uint256",
          "name": "tokenId",
          "type": "uint256"
        },
        {
          "internalType": "uint256",
          "name": "amount",
          "type": "uint256"
        }
      ],
      "name": "retire",
      "outputs": [],
      "stateMutability": "nonpayable",
      "type": "function"
    },
    {
      "inputs": [
        {
          "internalType": "bytes32",
          "name": "role",
          "type": "bytes32"
        },
        {
          "internalType": "address",
          "name": "account",
          "type": "address"
        }
      ],
      "name": "revokeRole",
      "outputs": [],
      "stateMutability": "nonpayable",
      "type": "function"
    },
    {
      "inputs": [
        {
          "internalType": "address",
          "name": "from",
          "type": "address"
        },
        {
          "internalType": "address",
          "name": "to",
          "type": "address"
        },
        {
          "internalType": "uint256[]",
          "name": "ids",
          "type": "uint256[]"
        },
        {
          "internalType": "uint256[]",
          "name": "amounts",
          "type": "uint256[]"
        },
        {
          "internalType": "bytes",
          "name": "data",
          "type": "bytes"
        }
      ],
      "name": "safeBatchTransferFrom",
      "outputs": [],
      "stateMutability": "nonpayable",
      "type": "function"
    },
    {
      "inputs": [
        {
          "internalType": "address",
          "name": "from",
          "type": "address"
        },
        {
          "internalType": "address",
          "name": "to",
          "type": "address"
        },
        {
          "internalType": "uint256",
          "name": "id",
          "type": "uint256"
        },
        {
          "internalType": "uint256",
          "name": "amount",
          "type": "uint256"
        },
        {
          "internalType": "bytes",
          "name": "data",
          "type": "bytes"
        }
      ],
      "name": "safeTransferFrom",
      "outputs": [],
      "stateMutability": "nonpayable",
      "type": "function"
    },
    {
      "inputs": [
        {
          "internalType": "address",
          "name": "operator",
          "type": "address"
        },
        {
          "internalType": "bool",
          "name": "approved",
          "type": "bool"
        }
      ],
      "name": "setApprovalForAll",
      "outputs": [],
      "stateMutability": "nonpayable",
      "type": "function"
    },
    {
      "inputs": [
        {
          "internalType": "bool",
          "name": "_limitedMode",
          "type": "bool"
        }
      ],
      "name": "setLimitedMode",
      "outputs": [],
      "stateMutability": "nonpayable",
      "type": "function"
    },
    {
      "inputs": [
        {
          "internalType": "address",
          "name": "_timelock",
          "type": "address"
        }
      ],
      "name": "setTimelock",
      "outputs": [],
      "stateMutability": "nonpayable",
      "type": "function"
    },
    {
      "inputs": [
        {
          "internalType": "bytes4",
          "name": "interfaceId",
          "type": "bytes4"
        }
      ],
      "name": "supportsInterface",
      "outputs": [
        {
          "internalType": "bool",
          "name": "",
          "type": "bool"
        }
      ],
      "stateMutability": "view",
      "type": "function"
    },
    {
      "inputs": [
        {
          "internalType": "address",
          "name": "to",
          "type": "address"
        },
        {
          "internalType": "uint256",
          "name": "tokenId",
          "type": "uint256"
        },
        {
          "internalType": "uint256",
          "name": "value",
          "type": "uint256"
        }
      ],
      "name": "transfer",
      "outputs": [],
      "stateMutability": "nonpayable",
      "type": "function"
    },
    {
      "inputs": [
        {
          "internalType": "address",
          "name": "account",
          "type": "address"
        }
      ],
      "name": "unregisterConsumer",
      "outputs": [],
      "stateMutability": "nonpayable",
      "type": "function"
    },
    {
      "inputs": [
        {
          "internalType": "address",
          "name": "account",
          "type": "address"
        },
        {
          "internalType": "uint8",
          "name": "tokenTypeId",
          "type": "uint8"
        }
      ],
      "name": "unregisterDealer",
      "outputs": [],
      "stateMutability": "nonpayable",
      "type": "function"
    },
    {
      "inputs": [
        {
          "internalType": "address",
          "name": "account",
          "type": "address"
        }
      ],
      "name": "unregisterIndustry",
      "outputs": [],
      "stateMutability": "nonpayable",
      "type": "function"
    },
    {
      "inputs": [
        {
          "internalType": "uint256",
          "name": "",
          "type": "uint256"
        }
      ],
      "name": "uri",
      "outputs": [
        {
          "internalType": "string",
          "name": "",
          "type": "string"
        }
      ],
      "stateMutability": "view",
      "type": "function"
    },
    {
      "inputs": [
        {
          "internalType": "bytes32",
          "name": "msgHash",
          "type": "bytes32"
        },
        {
          "internalType": "bytes",
          "name": "signature",
          "type": "bytes"
        },
        {
          "internalType": "address",
          "name": "signer",
          "type": "address"
        }
      ],
      "name": "verifySignature",
      "outputs": [
        {
          "internalType": "bool",
          "name": "",
          "type": "bool"
        }
      ],
      "stateMutability": "pure",
      "type": "function"
    }
  ],
  "transactionHash": "0xd0b895a7680497be4ef604dfa0b9d3c9d69a8f76db3fa23dd8c48fe7fe3d14e7",
  "args": [
    "0xf3AF07FdA6F11b55e60AB3574B3947e54DebADf7"
  ],
  "numDeployments": 2,
  "solcInputHash": "0eaf50bfef3d649dd8b9b6593fef1505",
  "bytecode": "0x60806040523480156200001157600080fd5b506040516200591538038062005915833981016040819052620000349162000301565b6040805160208101909152600081526200004e816200014d565b506200008a7f5e1aa547d3dade8c68b013a47ad41c2bcc9b9e4b0765b0fb616780e15786e76a600080516020620058f583398151915262000166565b62000097600082620001b1565b620000b2600080516020620058f583398151915282620001b1565b620000de7f2ab9f1da92e74aaa01eb75a871557505b11dd8d36832a34bb21bbee88b08d86082620001b1565b6200010a7fede6574deba8f02ada7888448a497b08844d62e044ed533343a673be3ffcde5f82620001b1565b620001367fe97dad3dbe5042e7384b1572cf966a15e089576a62b5126c5ef1d184ab18b12c82620001b1565b50600480546001600160a81b03191690556200036e565b8051620001629060029060208401906200025b565b5050565b600082815260036020526040808220600101805490849055905190918391839186917fbd79b86ffe0ab8e8776151514217cd7cacd52c909f66475c3af44e129f0b00ff9190a4505050565b62000162828260008281526003602090815260408083206001600160a01b038516845290915290205460ff16620001625760008281526003602090815260408083206001600160a01b03851684529091529020805460ff19166001179055620002173390565b6001600160a01b0316816001600160a01b0316837f2f8788117e7eff1d82e926ec794901d17c78024a50270940304540a733656f0d60405160405180910390a45050565b828054620002699062000331565b90600052602060002090601f0160209004810192826200028d5760008555620002d8565b82601f10620002a857805160ff1916838001178555620002d8565b82800160010185558215620002d8579182015b82811115620002d8578251825591602001919060010190620002bb565b50620002e6929150620002ea565b5090565b5b80821115620002e65760008155600101620002eb565b60006020828403121562000313578081fd5b81516001600160a01b03811681146200032a578182fd5b9392505050565b600181811c908216806200034657607f821691505b602082108114156200036857634e487b7160e01b600052602260045260246000fd5b50919050565b615577806200037e6000396000f3fe608060405234801561001057600080fd5b506004361061030b5760003560e01c80637aab1b881161019d578063ce6ccfaf116100e9578063e985e9c5116100a2578063f984b2341161007c578063f984b23414610815578063fbdf37ea14610828578063fc0bbce31461083d578063fcba7948146108505761030b565b8063e985e9c514610795578063ee042956146107d1578063f242432a146108025761030b565b8063ce6ccfaf146106ae578063d547741f14610719578063d75cfd581461072c578063dba851b014610762578063ddc3e6eb1461076f578063e2e564f2146107825761030b565b8063a0d975a711610156578063b5ff2c8811610130578063b5ff2c8814610624578063bdacb30314610668578063c03df9701461067b578063c1e037281461068e5761030b565b8063a0d975a7146105f6578063a217fddf14610609578063a22cb465146106115761030b565b80637aab1b881461056f5780637f157c9b146105825780638874cfcc146105aa5780638ef5eec3146105bd57806391d14854146105d05780639e99a453146105e35761030b565b806331aa4b201161025c5780634e1273f41161021557806369f7ef44116101ef57806369f7ef441461051f57806376aed2e11461053257806376ce47551461054557806378e5c5921461055a5761030b565b80634e1273f4146104e457806353dbe982146105045780635ddb368f146105175761030b565b806331aa4b201461047257806331cd41991461048557806333781a0e1461049857806336568abe146104ab57806344b22fdd146104be57806349b90557146104d15761030b565b8063156e29f6116102c9578063248a9ca3116102a3578063248a9ca314610416578063293a7f2e146104395780632eb2c2d61461044c5780632f2ff15d1461045f5761030b565b8063156e29f6146103d957806318a50d7e146103ec5780631ef68ef7146104015761030b565b8062fdd58e1461031057806301ffc9a714610336578063033fd91914610359578063095bcdb61461036e5780630e89341c14610381578063127d5ad0146103a1575b600080fd5b61032361031e36600461464e565b610865565b6040519081526020015b60405180910390f35b610349610344366004614852565b6108fb565b604051901515815260200161032d565b61036c610367366004614331565b610928565b005b61036c61037c366004614679565b610a18565b61039461038f3660046147be565b610aaa565b60405161032d9190614de6565b6103c76103af3660046147be565b60009081526006602052604090206001015460ff1690565b60405160ff909116815260200161032d565b61036c6103e7366004614679565b610b3e565b6103236000805160206154e283398151915281565b6103236000805160206154a283398151915281565b6103236104243660046147be565b60009081526003602052604090206001015490565b61036c610447366004614a6c565b610c4e565b61036c61045a366004614426565b610dd3565b61036c61046d3660046147d6565b610e1f565b61036c6104803660046146ad565b610e44565b6103496104933660046147fa565b610f9a565b6103496104a6366004614331565b61101d565b61036c6104b93660046147d6565b611037565b61036c6104cc366004614331565b6110b5565b6103496104df366004614331565b61119f565b6104f76104f23660046146d8565b6111b9565b60405161032d9190614da5565b61036c610512366004614331565b61131a565b610323611408565b61034961052d366004614331565b611419565b6103946105403660046147be565b611484565b61032360008051602061552283398151915281565b6103236000805160206154c283398151915281565b61032361057d3660046143a1565b611644565b61059561059036600461464e565b6116b9565b6040805192835260208301919091520161032d565b61036c6105b8366004614981565b61175b565b61036c6105cb36600461488a565b611780565b6103496105de3660046147d6565b611b9d565b61036c6105f1366004614569565b611bc8565b61032361060436600461464e565b611c74565b610323600081565b61036c61061f366004614535565b611d0f565b6106506106323660046147be565b6000908152600660205260409020600201546001600160a01b031690565b6040516001600160a01b03909116815260200161032d565b61036c610676366004614331565b611d1a565b61036c610689366004614331565b611d69565b6106a161069c3660046147be565b611e68565b60405161032d9190615031565b6106c16106bc366004614331565b612142565b60405161032d9190600060c08201905082511515825260208301511515602083015260408301511515604083015260608301511515606083015260808301511515608083015260a0830151151560a083015292915050565b61036c6107273660046147d6565b612256565b61032361073a3660046147d6565b60009182526007602090815260408084206001600160a01b0393909316845291905290205490565b6004546103499060ff1681565b61036c61077d3660046147a4565b61227b565b61036c6107903660046146ad565b6122b5565b6103496107a3366004614369565b6001600160a01b03918216600090815260016020908152604080832093909416825291909152205460ff1690565b6106506107df3660046147be565b60009081526006602052604090206001015461010090046001600160a01b031690565b61036c6108103660046144cf565b61241a565b610349610823366004614331565b61245f565b61032360008051602061548283398151915281565b61034961084b366004614331565b612479565b61032360008051602061550283398151915281565b60006001600160a01b0383166108d55760405162461bcd60e51b815260206004820152602a60248201527f455243313135353a2061646472657373207a65726f206973206e6f742061207660448201526930b634b21037bbb732b960b11b60648201526084015b60405180910390fd5b506000908152602081815260408083206001600160a01b03949094168352929052205490565b60006001600160e01b03198216637965db0b60e01b14806109205750610920826124cf565b90505b919050565b60045460ff16156109c15761093e600033611b9d565b6109bc5760405162461bcd60e51b815260206004820152604360248201527f434c4d383a3a7265676973746572496e647573747279286c696d69746564293a60448201527f206f6e6c792061646d696e2063616e20726567697374657220696e647573747260648201526269657360e81b608482015260a4016108cc565b6109c9565b6109c96124f4565b6109e16000805160206154828339815191528261256c565b6040516001600160a01b038216907f1230fb0cdc77da02d53e840f6f60d5e7f68646d7d1ccdd890860e05533b62f5390600090a250565b610a2182612576565b610a7c5760405162461bcd60e51b815260206004820152602660248201527f434c4d383a3a7472616e736665723a20746f6b656e496420646f6573206e6f7460448201526508195e1a5cdd60d21b60648201526084016108cc565b610aa533848484604051806040016040528060048152602001630307830360e41b81525061241a565b505050565b606060028054610ab9906152e2565b80601f0160208091040260200160405190810160405280929190818152602001828054610ae5906152e2565b8015610b325780601f10610b0757610100808354040283529160200191610b32565b820191906000526020600020905b815481529060010190602001808311610b1557829003601f168201915b50505050509050919050565b610b49600033611b9d565b610b655760405162461bcd60e51b81526004016108cc90614e90565b610b6e82612576565b610bc55760405162461bcd60e51b815260206004820152602260248201527f434c4d383a3a6d696e743a20746f6b656e496420646f6573206e6f74206578696044820152611cdd60f21b60648201526084016108cc565b60045460ff1615610c335760405162461bcd60e51b815260206004820152603260248201527f434c4d383a3a6d696e743a2063616e6e6f74206d696e74206e657720746f6b656044820152716e7320696e206c696d69746564206d6f646560701b60648201526084016108cc565b610aa58383836040518060200160405280600081525061258f565b3360008115610c7c57610c6082612479565b610c7c5760405162461bcd60e51b81526004016108cc90614fd4565b6001600160a01b03811615610cb057610c9481612479565b610cb05760405162461bcd60e51b81526004016108cc90614ed9565b610cb984612576565b610d115760405162461bcd60e51b8152602060048201526024808201527f434c4d383a3a7265746972653a20746f6b656e496420646f6573206e6f7420656044820152631e1a5cdd60e21b60648201526084016108cc565b610d1b3385610865565b831115610d875760405162461bcd60e51b815260206004820152603460248201527f434c4d383a3a7265746972653a206e6f7420656e6f75676820617661696c61626044820152736c652062616c616e636520746f2072657469726560601b60648201526084016108cc565b610d923385856126b2565b604080518581526020810185905233917f8f1b5ebb586d3d169e4ed07db9cd10ce0dd30c7b656171310eae7517c0b53cf9910160405180910390a250505050565b6001600160a01b038516331480610def5750610def85336107a3565b610e0b5760405162461bcd60e51b81526004016108cc90614df9565b610e18858585858561273e565b5050505050565b600082815260036020526040902060010154610e3a81612945565b610aa58383612952565b610e4f600033611b9d565b610e6b5760405162461bcd60e51b81526004016108cc90614e90565b610e74816129d8565b610ed95760405162461bcd60e51b815260206004820152603060248201527f434c4d383a3a72656769737465724465616c65723a20746f6b656e547970654960448201526f1908191bd95cc81b9bdd08195e1a5cdd60821b60648201526084016108cc565b8060ff1660011415610f0257610efd60008051602061550283398151915283610e1f565b610f4a565b8060ff1660021415610f2657610efd6000805160206154a283398151915283610e1f565b8060ff1660031415610f4a57610f4a60008051602061552283398151915283610e1f565b610f626000805160206154e283398151915283610e1f565b6040516001600160a01b038316907fa8377deee15954185683d55effd369508b4935978c8cb2bab790bf04c570181490600090a25050565b600080610ff4856040517f19457468657265756d205369676e6564204d6573736167653a0a3332000000006020820152603c8101829052600090605c01604051602081830303815290604052805190602001209050919050565b90506001600160a01b03831661100a82866129fa565b6001600160a01b03161495945050505050565b60006109206000805160206154c283398151915283611b9d565b6001600160a01b03811633146110a75760405162461bcd60e51b815260206004820152602f60248201527f416363657373436f6e74726f6c3a2063616e206f6e6c792072656e6f756e636560448201526e103937b632b9903337b91039b2b63360891b60648201526084016108cc565b6110b18282612a16565b5050565b6110bd6124f4565b60045460ff1615611150576110d3600033611b9d565b6111505760405162461bcd60e51b815260206004820152604260248201527f434c4d383a3a7265676973746572436f6e73756d6572286c696d69746564293a60448201527f206f6e6c792061646d696e2063616e20726567697374657220636f6e73756d65606482015261727360f01b608482015260a4016108cc565b6111686000805160206154c283398151915282610e1f565b6040516001600160a01b038216907f69a0adee259d26fe61f4776f7bea7f3a9737c7321256821b985f988545efd31990600090a250565b600061092060008051602061552283398151915283611b9d565b6060815183511461121e5760405162461bcd60e51b815260206004820152602960248201527f455243313135353a206163636f756e747320616e6420696473206c656e677468604482015268040dad2e6dac2e8c6d60bb1b60648201526084016108cc565b600083516001600160401b0381111561124757634e487b7160e01b600052604160045260246000fd5b604051908082528060200260200182016040528015611270578160200160208202803683370190505b50905060005b8451811015611312576112d78582815181106112a257634e487b7160e01b600052603260045260246000fd5b60200260200101518583815181106112ca57634e487b7160e01b600052603260045260246000fd5b6020026020010151610865565b8282815181106112f757634e487b7160e01b600052603260045260246000fd5b602090810291909101015261130b81615343565b9050611276565b509392505050565b6113226124f4565b60045460ff16156113b957611338600033611b9d565b6113b95760405162461bcd60e51b815260206004820152604660248201527f434c4d383a3a756e7265676973746572436f6e73756d6572286c696d6974656460448201527f293a206f6e6c792061646d696e2063616e20756e726567697374657220636f6e60648201526573756d65727360d01b608482015260a4016108cc565b6113d16000805160206154c283398151915282612256565b6040516001600160a01b038216907f03a38088da75ee2d80f6c753f55f8fd17602ae17d8bd0ef44d5e1f28ab5af11f90600090a250565b600061141360055490565b90505b90565b600061143360008051602061550283398151915283611b9d565b8061145157506114516000805160206154a283398151915283611b9d565b8061146f575061146f60008051602061552283398151915283611b9d565b1561147c57506001610923565b506000919050565b606061148f82612576565b6114ee5760405162461bcd60e51b815260206004820152602a60248201527f434c4d383a3a676574546f6b656e547970653a20746f6b656e496420646f6573604482015269081b9bdd08195e1a5cdd60b21b60648201526084016108cc565b600082815260066020526040902060018082015460ff16141561154657505060408051808201909152601c81527f52656e657761626c6520456e65726779204365727469666963617465000000006020820152610923565b600181015460ff166002141561159157505060408051808201909152601781527f436172626f6e20456d697373696f6e73204f66667365740000000000000000006020820152610923565b600181015460ff16600314156115d05750506040805180820190915260118152704175646974656420456d697373696f6e7360781b6020820152610923565b600181015460ff166004141561160c57505060408051808201909152600e81526d21b0b93137b7102a3930b1b5b2b960911b6020820152610923565b5050604080518082019091526014815273151bdad95b88191bd95cc81b9bdd08195e1a5cdd60621b6020820152610923565b50919050565b6001600160a01b03808516600090815260086020908152604080832093871683529290529081205485908590859085906116859063ffffffff166001615254565b604051602001611699959493929190614bb6565b604051602081830303815290604052805190602001209050949350505050565b60008060006116c88585610865565b60405163a0d975a760e01b81526001600160a01b038716600482015260248101869052909150600090309063a0d975a79060440160206040518083038186803b15801561171457600080fd5b505afa158015611728573d6000803e3d6000fd5b505050506040513d601f19601f8201168201806040525081019061174c9190614a54565b919350909150505b9250929050565b6117636124f4565b611775338a8a8a8a8a8a8a8a8a612a7d565b505050505050505050565b6117886124f4565b306001600160a01b0316896001600160a01b031663e54a96466040518163ffffffff1660e01b815260040160206040518083038186803b1580156117cb57600080fd5b505afa1580156117df573d6000803e3d6000fd5b505050506040513d601f19601f82011682018060405250810190611803919061434d565b6001600160a01b03161461188d5760405162461bcd60e51b8152602060048201526044602482018190527f434c4d383a3a6973737565416e64547261636b3a20747261636b657241646472908201527f65737320646f6573206e6f742062656c6f6e6720746f206164647265737328746064820152636869732960e01b608482015260a4016108cc565b87896001600160a01b03166340e6c9706040518163ffffffff1660e01b815260040160206040518083038186803b1580156118c757600080fd5b505afa1580156118db573d6000803e3d6000fd5b505050506040513d601f19601f820116820180604052508101906118ff9190614a54565b10156119635760405162461bcd60e51b815260206004820152602d60248201527f434c4d383a3a6973737565416e64547261636b3a20747261636b65724964206460448201526c1bd95cc81b9bdd08195e1a5cdd609a1b60648201526084016108cc565b61197b60008051602061552283398151915233611b9d565b6119ed5760405162461bcd60e51b815260206004820152603a60248201527f434c4d383a3a6973737565416e64547261636b3a206d73672e73656e6465722060448201527f6973206e6f7420616e20617070726f7665642061756469746f7200000000000060648201526084016108cc565b604080516001808252818301909252600091602080830190803683375050604080516001808252818301909252929350600092915060208083019080368337019050509050611a44338e8d8c8c8c8c8c8c8c612a7d565b60408051602081019091526000815260055483600081518110611a7757634e487b7160e01b600052603260045260246000fd5b6020026020010181815250508882600081518110611aa557634e487b7160e01b600052603260045260246000fd5b60209081029190910101528a611b24578b6001600160a01b0316630d20c4bc8e8f86868d8d886040518863ffffffff1660e01b8152600401611aed9796959493929190614ce2565b600060405180830381600087803b158015611b0757600080fd5b505af1158015611b1b573d6000803e3d6000fd5b50505050611b8d565b60405163129ec34360e21b81526001600160a01b038d1690634a7b0d0c90611b5a908e90879087908e908e908990600401615136565b600060405180830381600087803b158015611b7457600080fd5b505af1158015611b88573d6000803e3d6000fd5b505050505b5050505050505050505050505050565b60009182526003602090815260408084206001600160a01b0393909316845291905290205460ff1690565b60045461010090046001600160a01b0316331480611bec5750611bec600033611b9d565b611c565760405162461bcd60e51b815260206004820152603560248201527f434c4d383a3a69737375654f6e426568616c663a2063616c6c206d757374206360448201527437b6b290333937b6902220a79037b91030b236b4b760591b60648201526084016108cc565b611c688a8a8a8a8a8a8a8a8a8a612a7d565b50505050505050505050565b6000611c7f82612576565b611ce75760405162461bcd60e51b815260206004820152603360248201527f434c4d383a3a676574546f6b656e52657469726564416d6f756e743a20746f6b604482015272195b925908191bd95cc81b9bdd08195e1a5cdd606a1b60648201526084016108cc565b5060009081526007602090815260408083206001600160a01b03949094168352929052205490565b6110b1338383613164565b611d25600033611b9d565b611d415760405162461bcd60e51b81526004016108cc90614e90565b600480546001600160a01b0390921661010002610100600160a81b0319909216919091179055565b336001600160a01b03821614611d8157611d816124f4565b60045460ff1615611e1957611d97600033611b9d565b611e195760405162461bcd60e51b815260206004820152604760248201527f434c4d383a3a756e7265676973746572496e647573747279286c696d6974656460448201527f293a206f6e6c792061646d696e2063616e20756e726567697374657220696e646064820152667573747269657360c81b608482015260a4016108cc565b611e3160008051602061548283398151915282612256565b6040516001600160a01b038216907fe2fd90a75c6850a2aeaad25eb28a5176ac5166c6e3e6dfe0284e34a628e90ef290600090a250565b611ef1604051806101a0016040528060008152602001600060ff16815260200160006001600160a01b0316815260200160006001600160a01b0316815260200160006001600160a01b0316815260200160008152602001600081526020016000815260200160608152602001606081526020016060815260200160008152602001600081525090565b60008281526006602081815260409283902083516101a08101855281548152600182015460ff8116938201939093526001600160a01b036101009384900481169582019590955260028201548516606082015260038201549094166080850152600481015460a0850152600581015460c08501529182015460e084015260078201805491840191611f81906152e2565b80601f0160208091040260200160405190810160405280929190818152602001828054611fad906152e2565b8015611ffa5780601f10611fcf57610100808354040283529160200191611ffa565b820191906000526020600020905b815481529060010190602001808311611fdd57829003601f168201915b50505050508152602001600882018054612013906152e2565b80601f016020809104026020016040519081016040528092919081815260200182805461203f906152e2565b801561208c5780601f106120615761010080835404028352916020019161208c565b820191906000526020600020905b81548152906001019060200180831161206f57829003601f168201915b505050505081526020016009820180546120a5906152e2565b80601f01602080910402602001604051908101604052809291908181526020018280546120d1906152e2565b801561211e5780601f106120f35761010080835404028352916020019161211e565b820191906000526020600020905b81548152906001019060200180831161210157829003601f168201915b50505050508152602001600a8201548152602001600b820154815250509050919050565b6040805160c081018252600080825260208201819052918101829052606081018290526080810182905260a08101919091526040805160c081018252600080825260208201819052918101829052606081018290526080810182905260a08101919091526121b1600084611b9d565b151581526121cd60008051602061550283398151915284611b9d565b151560408201526121ec6000805160206154a283398151915284611b9d565b1515606082015261220b60008051602061552283398151915284611b9d565b1515608082015261222a60008051602061548283398151915284611b9d565b151560a08201526122496000805160206154c283398151915284611b9d565b1515602082015292915050565b60008281526003602052604090206001015461227181612945565b610aa58383612a16565b612286600033611b9d565b6122a25760405162461bcd60e51b81526004016108cc90614e90565b6004805460ff1916911515919091179055565b6122c0600033611b9d565b6122dc5760405162461bcd60e51b81526004016108cc90614e90565b6122e5816129d8565b61234c5760405162461bcd60e51b815260206004820152603260248201527f434c4d383a3a756e72656769737465724465616c65723a20746f6b656e54797060448201527119525908191bd95cc81b9bdd08195e1a5cdd60721b60648201526084016108cc565b8060ff16600114156123755761237060008051602061550283398151915283612256565b6123bd565b8060ff1660021415612399576123706000805160206154a283398151915283612256565b8060ff16600314156123bd576123bd60008051602061552283398151915283612256565b6123c682611419565b6123e2576123e26000805160206154e283398151915283612256565b6040516001600160a01b038316907f98552ded770f1d05a505572f3387c108dbc6b566ea3d49f83cff3d1f1c72a04290600090a25050565b6001600160a01b038516331480612436575061243685336107a3565b6124525760405162461bcd60e51b81526004016108cc90614df9565b610e188585858585613245565b600061092060008051602061548283398151915283611b9d565b60006124936000805160206154e283398151915283611b9d565b806124b157506124b16000805160206154c283398151915283611b9d565b8061146f575061146f60008051602061548283398151915283611b9d565b60006001600160e01b03198216637965db0b60e01b1480610920575061092082613372565b61250c6000805160206154e283398151915233611b9d565b61256a5760405162461bcd60e51b815260206004820152602960248201527f434c4d383a3a6f6e6c794465616c65723a206d73672e73656e646572206e6f746044820152681030903232b0b632b960b91b60648201526084016108cc565b565b6110b18282612952565b60008161258260055490565b1061147c57506001610923565b6001600160a01b0384166125ef5760405162461bcd60e51b815260206004820152602160248201527f455243313135353a206d696e7420746f20746865207a65726f206164647265736044820152607360f81b60648201526084016108cc565b3360006125fb856133c2565b90506000612608856133c2565b90506126198360008985858961341b565b6000868152602081815260408083206001600160a01b038b1684529091528120805487929061264990849061523c565b909155505060408051878152602081018790526001600160a01b03808a1692600092918716917fc3d58168c5ae7397731d063d5bbf3d657854427343f4c083240f7aacaa2d0f62910160405180910390a46126a98360008989898961383a565b50505050505050565b6126bd8383836139a5565b6000828152600660205260409020600b01546126d99082613b35565b6000838152600660209081526040808320600b0193909355600781528282206001600160a01b0387168352905220546127129082613b35565b60009283526007602090815260408085206001600160a01b039096168552949052929091209190915550565b81518351146127a05760405162461bcd60e51b815260206004820152602860248201527f455243313135353a2069647320616e6420616d6f756e7473206c656e677468206044820152670dad2e6dac2e8c6d60c31b60648201526084016108cc565b6001600160a01b0384166127c65760405162461bcd60e51b81526004016108cc90614f45565b336127d581878787878761341b565b60005b84518110156128d757600085828151811061280357634e487b7160e01b600052603260045260246000fd5b60200260200101519050600085838151811061282f57634e487b7160e01b600052603260045260246000fd5b602090810291909101810151600084815280835260408082206001600160a01b038e16835290935291909120549091508181101561287f5760405162461bcd60e51b81526004016108cc90614f8a565b6000838152602081815260408083206001600160a01b038e8116855292528083208585039055908b168252812080548492906128bc90849061523c565b92505081905550505050806128d090615343565b90506127d8565b50846001600160a01b0316866001600160a01b0316826001600160a01b03167f4a39dc06d4c0dbc64b70af90fd698a233a518aa5d07e595d983b8c0526c8f7fb8787604051612927929190614db8565b60405180910390a461293d818787878787613b48565b505050505050565b61294f8133613c12565b50565b61295c8282611b9d565b6110b15760008281526003602090815260408083206001600160a01b03851684529091529020805460ff191660011790556129943390565b6001600160a01b0316816001600160a01b0316837f2f8788117e7eff1d82e926ec794901d17c78024a50270940304540a733656f0d60405160405180910390a45050565b6000808260ff1611801561146f575060048260ff161161147c57506001610923565b6000806000612a098585613c76565b9150915061131281613cb9565b612a208282611b9d565b156110b15760008281526003602090815260408083206001600160a01b0385168085529252808320805460ff1916905551339285917ff6391f5c32d9c69d2a47ea670b442974b53935d1edc7fd64eb21e047a839171b9190a45050565b612a86876129d8565b612ade5760405162461bcd60e51b8152602060048201526024808201527f434c4d383a3a5f69737375653a20746f6b656e54797065496420697320696e76604482015263185b1a5960e21b60648201526084016108cc565b60045460ff1615612d38578660ff1660011480612afe57508660ff166002145b15612c8d5760045461010090046001600160a01b03163314612b795760405162461bcd60e51b815260206004820152602e60248201527f434c4d383a3a5f6973737565286c696d69746564293a206d73672e73656e646560448201526d72206e6f742074696d656c6f636b60901b60648201526084016108cc565b612b84600089611b9d565b612be05760405162461bcd60e51b815260206004820152602760248201527f434c4d383a3a5f6973737565286c696d69746564293a20697373756565206e6f6044820152663a1030b236b4b760c91b60648201526084016108cc565b612bf86000805160206155028339815191528b611b9d565b80612c165750612c166000805160206154a28339815191528b611b9d565b612c885760405162461bcd60e51b815260206004820152603760248201527f434c4d383a3a5f6973737565286c696d69746564293a2070726f706f7365722060448201527f6e6f7420612072656769737465726564206465616c657200000000000000000060648201526084016108cc565b612d33565b8660ff1660031480612ca257508660ff166004145b15612d3357612cbf6000805160206155228339815191528b611b9d565b612d33576040805162461bcd60e51b81526020600482015260248101919091527f434c4d383a3a5f6973737565286c696d69746564293a20697373756572206e6f60448201527f742061207265676973746572656420656d697373696f6e732061756469746f7260648201526084016108cc565b612ef1565b8660ff1660011415612dc157612d5c6000805160206155028339815191528b611b9d565b612d335760405162461bcd60e51b815260206004820152603060248201527f434c4d383a3a5f69737375653a20697373756572206e6f74206120726567697360448201526f3a32b932b2102922a1903232b0b632b960811b60648201526084016108cc565b8660ff1660021415612e4d57612de56000805160206154a28339815191528b611b9d565b612d335760405162461bcd60e51b815260206004820152603360248201527f434c4d383a3a5f69737375653a20697373756572206e6f7420612072656769736044820152723a32b932b21037b33339b2ba103232b0b632b960691b60648201526084016108cc565b8660ff1660031480612e6257508660ff166004145b15612ef157612e7f6000805160206155228339815191528b611b9d565b612ef15760405162461bcd60e51b815260206004820152603760248201527f434c4d383a3a5f69737375653a20697373756572206e6f74206120726567697360448201527f746572656420656d697373696f6e732061756469746f7200000000000000000060648201526084016108cc565b612eff600580546001019055565b600060066000612f0e60055490565b81526020019081526020016000209050612f2760055490565b81556001810180546001600160a01b03808e16610100026001600160a81b031990921660ff8c1617919091179091556002820180548c83166001600160a01b031991821617909155600383018054928c169290911691909117905560048101869055600581018590554260068201558351612fab906007830190602087019061418a565b508251612fc1906008830190602086019061418a565b508151612fd7906009830190602085019061418a565b50600a81018790556000600b82015561300989612ff360055490565b896040518060200160405280600081525061258f565b8760ff16600314156130305760038101548154613030916001600160a01b031690896126b2565b8060030160009054906101000a90046001600160a01b03166001600160a01b03168160020160009054906101000a90046001600160a01b03166001600160a01b03168260010160019054906101000a90046001600160a01b03166001600160a01b03167f277df7a34faa63a95e8df4966065d731b45aec92af9a3da4039d7a71fa529e838a600760008760000154815260200190815260200160002060008760030160009054906101000a90046001600160a01b03166001600160a01b03166001600160a01b031681526020019081526020016000205486600001548760010160009054906101000a900460ff16886004015489600501548a600601548b6007018c6008018d60090160405161314f9a9998979695949392919061519d565b60405180910390a45050505050505050505050565b816001600160a01b0316836001600160a01b031614156131d85760405162461bcd60e51b815260206004820152602960248201527f455243313135353a2073657474696e6720617070726f76616c20737461747573604482015268103337b91039b2b63360b91b60648201526084016108cc565b6001600160a01b03838116600081815260016020908152604080832094871680845294825291829020805460ff191686151590811790915591519182527f17307eab39ab6107e8899845ad3d59bd9653f200f220920489ca2b5937696c31910160405180910390a3505050565b6001600160a01b03841661326b5760405162461bcd60e51b81526004016108cc90614f45565b336000613277856133c2565b90506000613284856133c2565b905061329483898985858961341b565b6000868152602081815260408083206001600160a01b038c168452909152902054858110156132d55760405162461bcd60e51b81526004016108cc90614f8a565b6000878152602081815260408083206001600160a01b038d8116855292528083208985039055908a1682528120805488929061331290849061523c565b909155505060408051888152602081018890526001600160a01b03808b16928c821692918816917fc3d58168c5ae7397731d063d5bbf3d657854427343f4c083240f7aacaa2d0f62910160405180910390a4611775848a8a8a8a8a61383a565b60006001600160e01b03198216636cdb3d1360e11b14806133a357506001600160e01b031982166303a24d0760e21b145b8061092057506301ffc9a760e01b6001600160e01b0319831614610920565b6040805160018082528183019092526060916000919060208083019080368337019050509050828160008151811061340a57634e487b7160e01b600052603260045260246000fd5b602090810291909101015292915050565b84846001600160a01b038216156134515761343582612479565b6134515760405162461bcd60e51b81526004016108cc90614fd4565b6001600160a01b038116156134855761346981612479565b6134855760405162461bcd60e51b81526004016108cc90614ed9565b856001600160a01b0316876001600160a01b031614156135185760405162461bcd60e51b815260206004820152604260248201527f434c4d383a3a5f6265666f7265546f6b656e5472616e736665723a2073656e6460448201527f657220616e642072656365697665722063616e6e6f74206265207468652073616064820152616d6560f01b608482015260a4016108cc565b6000805b86518110156137335760006006600089848151811061354b57634e487b7160e01b600052603260045260246000fd5b602002602001015181526020019081526020016000209050600460009054906101000a900460ff161561371f576001600160a01b03891661358c5750613721565b60018082015460ff1614806135a85750600181015460ff166002145b1561365f576004546001600160a01b038c81166101009092041614806135d457506135d460008c611b9d565b61365a5760405162461bcd60e51b815260206004820152604b60248201527f434c4d383a3a5f6265666f7265546f6b656e5472616e73666572286c696d697460448201527f6564293a206f6e6c792061646d696e20616e642044414f2063616e207472616e60648201526a7366657220746f6b656e7360a81b608482015260a4016108cc565b61371f565b600181015460ff166003141561371f576136876000805160206155228339815191528c611b9d565b61371f5760405162461bcd60e51b815260206004820152605860248201527f434c4d383a3a5f6265666f7265546f6b656e5472616e73666572286c696d697460448201527f6564293a206f6e6c7920656d697373696f6e732061756469746f72732063616e60648201527f206973737565206175646974656420656d697373696f6e730000000000000000608482015260a4016108cc565b505b8061372b81615343565b91505061351c565b50801561177557600061374889898989611644565b905061375581868a610f9a565b6137d65760405162461bcd60e51b815260206004820152604660248201527f434c4d383a3a5f6265666f7265546f6b656e5472616e736665723a207265636560448201527f69766572277320617070726f76616c207369676e6174757265206973206e6f74606482015265081d985b1a5960d21b608482015260a4016108cc565b6001600160a01b03808a166000908152600860209081526040808320938c168352929052908120805463ffffffff169161380f8361535e565b91906101000a81548163ffffffff021916908363ffffffff1602179055505050505050505050505050565b6001600160a01b0384163b1561293d5760405163f23a6e6160e01b81526001600160a01b0385169063f23a6e619061387e9089908990889088908890600401614d60565b602060405180830381600087803b15801561389857600080fd5b505af19250505080156138c8575060408051601f3d908101601f191682019092526138c59181019061486e565b60015b613975576138d46153ae565b806308c379a0141561390e57506138e96153c5565b806138f45750613910565b8060405162461bcd60e51b81526004016108cc9190614de6565b505b60405162461bcd60e51b815260206004820152603460248201527f455243313135353a207472616e7366657220746f206e6f6e20455243313135356044820152732932b1b2b4bb32b91034b6b83632b6b2b73a32b960611b60648201526084016108cc565b6001600160e01b0319811663f23a6e6160e01b146126a95760405162461bcd60e51b81526004016108cc90614e48565b6001600160a01b038316613a075760405162461bcd60e51b815260206004820152602360248201527f455243313135353a206275726e2066726f6d20746865207a65726f206164647260448201526265737360e81b60648201526084016108cc565b336000613a13846133c2565b90506000613a20846133c2565b9050613a408387600085856040518060200160405280600081525061341b565b6000858152602081815260408083206001600160a01b038a16845290915290205484811015613abd5760405162461bcd60e51b8152602060048201526024808201527f455243313135353a206275726e20616d6f756e7420657863656564732062616c604482015263616e636560e01b60648201526084016108cc565b6000868152602081815260408083206001600160a01b038b81168086529184528285208a8703905582518b81529384018a90529092908816917fc3d58168c5ae7397731d063d5bbf3d657854427343f4c083240f7aacaa2d0f62910160405180910390a46040805160208101909152600090526126a9565b6000613b41828461523c565b9392505050565b6001600160a01b0384163b1561293d5760405163bc197c8160e01b81526001600160a01b0385169063bc197c8190613b8c9089908990889088908890600401614c84565b602060405180830381600087803b158015613ba657600080fd5b505af1925050508015613bd6575060408051601f3d908101601f19168201909252613bd39181019061486e565b60015b613be2576138d46153ae565b6001600160e01b0319811663bc197c8160e01b146126a95760405162461bcd60e51b81526004016108cc90614e48565b613c1c8282611b9d565b6110b157613c34816001600160a01b03166014613ebc565b613c3f836020613ebc565b604051602001613c50929190614c0f565b60408051601f198184030181529082905262461bcd60e51b82526108cc91600401614de6565b600080825160411415613cad5760208301516040840151606085015160001a613ca18782858561409d565b94509450505050611754565b50600090506002611754565b6000816004811115613cdb57634e487b7160e01b600052602160045260246000fd5b1415613ce65761294f565b6001816004811115613d0857634e487b7160e01b600052602160045260246000fd5b1415613d565760405162461bcd60e51b815260206004820152601860248201527f45434453413a20696e76616c6964207369676e6174757265000000000000000060448201526064016108cc565b6002816004811115613d7857634e487b7160e01b600052602160045260246000fd5b1415613dc65760405162461bcd60e51b815260206004820152601f60248201527f45434453413a20696e76616c6964207369676e6174757265206c656e6774680060448201526064016108cc565b6003816004811115613de857634e487b7160e01b600052602160045260246000fd5b1415613e415760405162461bcd60e51b815260206004820152602260248201527f45434453413a20696e76616c6964207369676e6174757265202773272076616c604482015261756560f01b60648201526084016108cc565b6004816004811115613e6357634e487b7160e01b600052602160045260246000fd5b141561294f5760405162461bcd60e51b815260206004820152602260248201527f45434453413a20696e76616c6964207369676e6174757265202776272076616c604482015261756560f01b60648201526084016108cc565b60606000613ecb83600261527c565b613ed690600261523c565b6001600160401b03811115613efb57634e487b7160e01b600052604160045260246000fd5b6040519080825280601f01601f191660200182016040528015613f25576020820181803683370190505b509050600360fc1b81600081518110613f4e57634e487b7160e01b600052603260045260246000fd5b60200101906001600160f81b031916908160001a905350600f60fb1b81600181518110613f8b57634e487b7160e01b600052603260045260246000fd5b60200101906001600160f81b031916908160001a9053506000613faf84600261527c565b613fba90600161523c565b90505b600181111561404e576f181899199a1a9b1b9c1cb0b131b232b360811b85600f1660108110613ffc57634e487b7160e01b600052603260045260246000fd5b1a60f81b82828151811061402057634e487b7160e01b600052603260045260246000fd5b60200101906001600160f81b031916908160001a90535060049490941c93614047816152cb565b9050613fbd565b508315613b415760405162461bcd60e51b815260206004820181905260248201527f537472696e67733a20686578206c656e67746820696e73756666696369656e7460448201526064016108cc565b6000807f7fffffffffffffffffffffffffffffff5d576e7357a4501ddfe92f46681b20a08311156140d45750600090506003614181565b8460ff16601b141580156140ec57508460ff16601c14155b156140fd5750600090506004614181565b6040805160008082526020820180845289905260ff881692820192909252606081018690526080810185905260019060a0016020604051602081039080840390855afa158015614151573d6000803e3d6000fd5b5050604051601f1901519150506001600160a01b03811661417a57600060019250925050614181565b9150600090505b94509492505050565b828054614196906152e2565b90600052602060002090601f0160209004810192826141b857600085556141fe565b82601f106141d157805160ff19168380011785556141fe565b828001600101855582156141fe579182015b828111156141fe5782518255916020019190600101906141e3565b5061420a92915061420e565b5090565b5b8082111561420a576000815560010161420f565b803561092381615456565b600082601f83011261423e578081fd5b8135602061424b82615219565b6040516142588282615317565b8381528281019150858301600585901b87018401881015614277578586fd5b855b8581101561429557813584529284019290840190600101614279565b5090979650505050505050565b8035801515811461092357600080fd5b600082601f8301126142c2578081fd5b81356001600160401b038111156142db576142db615398565b6040516142f2601f8301601f191660200182615317565b818152846020838601011115614306578283fd5b816020850160208301379081016020019190915292915050565b803560ff8116811461092357600080fd5b600060208284031215614342578081fd5b8135613b4181615456565b60006020828403121561435e578081fd5b8151613b4181615456565b6000806040838503121561437b578081fd5b823561438681615456565b9150602083013561439681615456565b809150509250929050565b600080600080608085870312156143b6578182fd5b84356143c181615456565b935060208501356143d181615456565b925060408501356001600160401b03808211156143ec578384fd5b6143f88883890161422e565b9350606087013591508082111561440d578283fd5b5061441a8782880161422e565b91505092959194509250565b600080600080600060a0868803121561443d578081fd5b853561444881615456565b9450602086013561445881615456565b935060408601356001600160401b0380821115614473578283fd5b61447f89838a0161422e565b94506060880135915080821115614494578283fd5b6144a089838a0161422e565b935060808801359150808211156144b5578283fd5b506144c2888289016142b2565b9150509295509295909350565b600080600080600060a086880312156144e6578081fd5b85356144f181615456565b9450602086013561450181615456565b9350604086013592506060860135915060808601356001600160401b03811115614529578182fd5b6144c2888289016142b2565b60008060408385031215614547578182fd5b823561455281615456565b9150614560602084016142a2565b90509250929050565b6000806000806000806000806000806101408b8d031215614588578788fd5b6145918b614223565b995061459f60208c01614223565b98506145ad60408c01614223565b97506145bb60608c01614320565b965060808b0135955060a08b0135945060c08b0135935060e08b01356001600160401b03808211156145eb578485fd5b6145f78e838f016142b2565b94506101008d013591508082111561460d578384fd5b6146198e838f016142b2565b93506101208d013591508082111561462f578283fd5b5061463c8d828e016142b2565b9150509295989b9194979a5092959850565b60008060408385031215614660578182fd5b823561466b81615456565b946020939093013593505050565b60008060006060848603121561468d578081fd5b833561469881615456565b95602085013595506040909401359392505050565b600080604083850312156146bf578182fd5b82356146ca81615456565b915061456060208401614320565b600080604083850312156146ea578182fd5b82356001600160401b0380821115614700578384fd5b818501915085601f830112614713578384fd5b8135602061472082615219565b60405161472d8282615317565b8381528281019150858301600585901b870184018b101561474c578889fd5b8896505b8487101561477757803561476381615456565b835260019690960195918301918301614750565b509650508601359250508082111561478d578283fd5b5061479a8582860161422e565b9150509250929050565b6000602082840312156147b5578081fd5b613b41826142a2565b6000602082840312156147cf578081fd5b5035919050565b600080604083850312156147e8578182fd5b82359150602083013561439681615456565b60008060006060848603121561480e578081fd5b8335925060208401356001600160401b0381111561482a578182fd5b614836868287016142b2565b925050604084013561484781615456565b809150509250925092565b600060208284031215614863578081fd5b8135613b418161546b565b60006020828403121561487f578081fd5b8151613b418161546b565b60008060008060008060008060008060006101608c8e0312156148ab578485fd5b6148b48c614223565b9a506148c260208d01614223565b99506148d060408d01614223565b985060608c013597506148e560808d01614320565b965060a08c0135955060c08c0135945060e08c013593506001600160401b03806101008e01351115614915578182fd5b6149268e6101008f01358f016142b2565b9350806101208e01351115614939578182fd5b61494a8e6101208f01358f016142b2565b9250806101408e0135111561495d578182fd5b5061496f8d6101408e01358e016142b2565b90509295989b509295989b9093969950565b60008060008060008060008060006101208a8c03121561499f578283fd5b6149a88a614223565b98506149b660208b01614223565b97506149c460408b01614320565b965060608a0135955060808a0135945060a08a0135935060c08a01356001600160401b03808211156149f4578485fd5b614a008d838e016142b2565b945060e08c0135915080821115614a15578384fd5b614a218d838e016142b2565b93506101008c0135915080821115614a37578283fd5b50614a448c828d016142b2565b9150509295985092959850929598565b600060208284031215614a65578081fd5b5051919050565b60008060408385031215614a7e578182fd5b50508035926020909101359150565b6000815180845260208085019450808401835b83811015614abc57815187529582019590820190600101614aa0565b509495945050505050565b80516000906020808401838315614abc57815187529582019590820190600101614aa0565b60008151808452614b0481602086016020860161529b565b601f01601f19169290920160200192915050565b8054600090600181811c9080831680614b3257607f831692505b6020808410821415614b5257634e487b7160e01b86526022600452602486fd5b83885260208801828015614b6d5760018114614b7e57614ba9565b60ff19871682528282019750614ba9565b60008981526020902060005b87811015614ba357815484820152908601908401614b8a565b83019850505b5050505050505092915050565b60006bffffffffffffffffffffffff19808860601b168352808760601b16601484015250614bf0614bea6028840187614ac7565b85614ac7565b60e09390931b6001600160e01b03191683525050600401949350505050565b60007f416363657373436f6e74726f6c3a206163636f756e742000000000000000000082528351614c4781601785016020880161529b565b7001034b99036b4b9b9b4b733903937b6329607d1b6017918401918201528351614c7881602884016020880161529b565b01602801949350505050565b6001600160a01b0386811682528516602082015260a060408201819052600090614cb090830186614a8d565b8281036060840152614cc28186614a8d565b90508281036080840152614cd68185614aec565b98975050505050505050565b6001600160a01b0388811682528716602082015261010060408201819052600090614d0f83820189614a8d565b90508281036060840152614d238188614a8d565b90508560808401528460a084015282810360c0840152614d438185614aec565b83810360e090940193909352508152602001979650505050505050565b6001600160a01b03868116825285166020820152604081018490526060810183905260a060808201819052600090614d9a90830184614aec565b979650505050505050565b600060208252613b416020830184614a8d565b600060408252614dcb6040830185614a8d565b8281036020840152614ddd8185614a8d565b95945050505050565b600060208252613b416020830184614aec565b6020808252602f908201527f455243313135353a2063616c6c6572206973206e6f7420746f6b656e206f776e60408201526e195c881b9bdc88185c1c1c9bdd9959608a1b606082015260800190565b60208082526028908201527f455243313135353a204552433131353552656365697665722072656a656374656040820152676420746f6b656e7360c01b606082015260800190565b60208082526029908201527f434c4d383a3a6f6e6c7941646d696e3a206d73672e73656e646572206e6f74206040820152683a34329030b236b4b760b91b606082015260800190565b60208082526046908201527f434c4d383a3a636f6e73756d65724f724465616c65723a20726563697069656e60408201527f74206d75737420626520636f6e73756d65722c206465616c6572206f7220696e60608201526564757374727960d01b608082015260a00190565b60208082526025908201527f455243313135353a207472616e7366657220746f20746865207a65726f206164604082015264647265737360d81b606082015260800190565b6020808252602a908201527f455243313135353a20696e73756666696369656e742062616c616e636520666f60408201526939103a3930b739b332b960b11b606082015260800190565b60208082526039908201527f434c4d383a3a636f6e73756d65724f724465616c65723a2073656e646572206e60408201527f6f74206120636f6e73756d6572206f722061206465616c657200000000000000606082015260800190565b600060208252825160208301526020830151615052604084018260ff169052565b5060408301516001600160a01b03811660608401525060608301516001600160a01b03811660808401525060808301516001600160a01b03811660a08401525060a083015160c083015260c083015160e083015260e08301516101008181850152808501519150506101a061012081818601526150d36101c0860184614aec565b9250808601519050601f196101408187860301818801526150f48584614aec565b9450808801519250506101608187860301818801526151138584614aec565b908801516101808881019190915290970151929095019190915250929392505050565b600087825260e0602083015261514f60e0830188614a8d565b82810360408401526151618188614a8d565b905085606084015284608084015282810360a08401526151818185614aec565b83810360c0909401939093525081526020019695505050505050565b60006101408c83528b60208401528a604084015260ff8a1660608401528860808401528760a08401528660c08401528060e08401526151de81840187614b18565b90508281036101008401526151f38186614b18565b90508281036101208401526152088185614b18565b9d9c50505050505050505050505050565b60006001600160401b0382111561523257615232615398565b5060051b60200190565b6000821982111561524f5761524f615382565b500190565b600063ffffffff80831681851680830382111561527357615273615382565b01949350505050565b600081600019048311821515161561529657615296615382565b500290565b60005b838110156152b657818101518382015260200161529e565b838111156152c5576000848401525b50505050565b6000816152da576152da615382565b506000190190565b600181811c908216806152f657607f821691505b6020821081141561163e57634e487b7160e01b600052602260045260246000fd5b601f8201601f191681016001600160401b038111828210171561533c5761533c615398565b6040525050565b600060001982141561535757615357615382565b5060010190565b600063ffffffff8083168181141561537857615378615382565b6001019392505050565b634e487b7160e01b600052601160045260246000fd5b634e487b7160e01b600052604160045260246000fd5b600060033d111561141657600481823e5160e01c90565b600060443d10156153d557611416565b6040516003193d81016004833e81513d6001600160401b038160248401118184111715615406575050505050611416565b828501915081518181111561542057505050505050611416565b843d870101602082850101111561543c57505050505050611416565b61544b60208286010187615317565b509094505050505090565b6001600160a01b038116811461294f57600080fd5b6001600160e01b03198116811461294f57600080fdfe8305613dd3dbc3e0773e56336f52890c75fc1219c6ed3f363339b8ada04df289ede6574deba8f02ada7888448a497b08844d62e044ed533343a673be3ffcde5f5e1aa547d3dade8c68b013a47ad41c2bcc9b9e4b0765b0fb616780e15786e76af8890eedd7900ad88da6192fd03dbb69dbeee963b1a0ed738abe49ab3331aaf32ab9f1da92e74aaa01eb75a871557505b11dd8d36832a34bb21bbee88b08d860e97dad3dbe5042e7384b1572cf966a15e089576a62b5126c5ef1d184ab18b12ca2646970667358221220924238a950f43e4921554c11c513acf30da5671a8538f2ea928a8bc36b324f7864736f6c63430008030033f8890eedd7900ad88da6192fd03dbb69dbeee963b1a0ed738abe49ab3331aaf3",
  "devdoc": {
    "kind": "dev",
    "methods": {
      "_consumerOrDealer(address)": {
        "details": "Returns `true` if hasRole of dealer, industry or consumer"
      },
      "balanceOf(address,uint256)": {
        "details": "See {IERC1155-balanceOf}. Requirements: - `account` cannot be the zero address."
      },
      "balanceOfBatch(address[],uint256[])": {
        "details": "See {IERC1155-balanceOfBatch}. Requirements: - `accounts` and `ids` must have the same length."
      },
      "getIssuedBy(uint256)": {
        "details": "returns issuer of a given tokenId"
      },
      "getIssuedFrom(uint256)": {
        "details": "returns issuer of a given tokenId"
      },
      "getNumOfUniqueTokens()": {
        "details": "returns number of unique tokens"
      },
      "getRoleAdmin(bytes32)": {
        "details": "Returns the admin role that controls `role`. See {grantRole} and {revokeRole}. To change a role's admin, use {_setRoleAdmin}."
      },
      "getRoles(address)": {
        "details": "Helper function for returning tuple of bools of role membership",
        "params": {
          "account": "address to check roles"
        }
      },
      "getTokenDetails(uint256)": {
        "details": "returns the details of a given tokenId, omitting holders",
        "params": {
          "tokenId": "token to check"
        }
      },
      "getTokenRetiredAmount(address,uint256)": {
        "details": "returns the retired amount on a token",
        "params": {
          "tokenId": "token to check"
        }
      },
      "getTokenType(uint256)": {
        "details": "returns the token name for the given token as a string value",
        "params": {
          "tokenId": "token to check"
        }
      },
      "getTransferHash(address,address,uint256[],uint256[])": {
        "details": "Returns keccak256 hash of transaction request including next available nonce for transfer from -> to addresses"
      },
      "grantRole(bytes32,address)": {
        "details": "Grants `role` to `account`. If `account` had not been already granted `role`, emits a {RoleGranted} event. Requirements: - the caller must have ``role``'s admin role. May emit a {RoleGranted} event."
      },
      "hasRole(bytes32,address)": {
        "details": "Returns `true` if `account` has been granted `role`."
      },
      "isApprovedForAll(address,address)": {
        "details": "See {IERC1155-isApprovedForAll}."
      },
      "isConsumerRegistered(address)": {
        "details": "returns true if Consumers's account is registered",
        "params": {
          "account": "address of the dealer"
        }
      },
      "isDealerRegistered(address)": {
        "details": "returns true if Dealer's account is registered",
        "params": {
          "account": "address of the dealer"
        }
      },
      "issue(uint160,address,uint8,uint256,uint256,uint256,string,string,string)": {
        "details": "External function to mint an amount of a token Only authorized dealer of associated token type can call this function",
        "params": {
          "quantity": "of the token to mint For ex: if one needs 100 full tokens, the caller should set the amount as (100 * 10^4) = 1,000,000 (assuming the token's decimals is set to 4)"
        }
      },
      "issueOnBehalf(address,uint160,address,uint8,uint256,uint256,uint256,string,string,string)": {
        "details": "Issue function for DAO (on limited mode) or admin to manually pass issuer Must be called from Timelock contract through a successful proposal or by admin if limited mode is set to false"
      },
      "mint(address,uint256,uint256)": {
        "details": "mints more of an existing token",
        "params": {
          "quantity": "amount to mint",
          "to": "reciepient of token",
          "tokenId": "token to mint more of"
        }
      },
      "registerConsumer(address)": {
        "details": "returns true if Consumer's account is registered for the given token",
        "params": {
          "account": "address of the consumer"
        }
      },
      "registerDealer(address,uint8)": {
        "details": "Only contract owner can register Dealers",
        "params": {
          "account": "address of the dealer to register"
        }
      },
      "registerIndustry(address)": {
        "details": "msg.sender can volunteer themselves as registered industry or other registered dealer can register Industry"
      },
      "renounceRole(bytes32,address)": {
        "details": "Revokes `role` from the calling account. Roles are often managed via {grantRole} and {revokeRole}: this function's purpose is to provide a mechanism for accounts to lose their privileges if they are compromised (such as when a trusted device is misplaced). If the calling account had been revoked `role`, emits a {RoleRevoked} event. Requirements: - the caller must be `account`. May emit a {RoleRevoked} event."
      },
      "retire(uint256,uint256)": {
        "details": "sets the token to the retire state to disable transfers, mints and burns",
        "params": {
          "tokenId": "token to set in pause state   Only contract owner can pause or resume tokens"
        }
      },
      "revokeRole(bytes32,address)": {
        "details": "Revokes `role` from `account`. If `account` had been granted `role`, emits a {RoleRevoked} event. Requirements: - the caller must have ``role``'s admin role. May emit a {RoleRevoked} event."
      },
      "safeBatchTransferFrom(address,address,uint256[],uint256[],bytes)": {
        "details": "See {IERC1155-safeBatchTransferFrom}."
      },
      "safeTransferFrom(address,address,uint256,uint256,bytes)": {
        "details": "See {IERC1155-safeTransferFrom}."
      },
      "setApprovalForAll(address,bool)": {
        "details": "See {IERC1155-setApprovalForAll}."
      },
      "setLimitedMode(bool)": {
        "details": "turns off or on limited mode",
        "params": {
          "_limitedMode": "boolean value"
        }
      },
      "transfer(address,uint256,uint256)": {
        "details": "transfers the value to the 'to' account for tokenId",
        "params": {
          "to": "recipient address",
          "tokenId": "tokenId for the transfer",
          "value": "amount of transfer Transfer can start only when both parties are registered and the token is not paused Note: Token holders can arbitrarily call safeTransferFrom() without these checks The requires commented out below have been moved to _beforeTokenTransfer hook so that they are always applied to safeTransferFrom (or safeBatch...)"
        }
      },
      "unregisterConsumer(address)": {
        "details": "Only contract owner can unregister Consumers TO-DO clarify the above - function allows any Dealer to unregister consumers. Why would we need to unregister consumers?",
        "params": {
          "account": "address to be unregistered"
        }
      },
      "unregisterDealer(address,uint8)": {
        "details": "Only contract owner can unregister Dealers",
        "params": {
          "account": "address to be unregistered"
        }
      },
      "unregisterIndustry(address)": {
        "details": "msg.sender can unvolunteer themselves as registered industry or other registered dealer can unregister Industry"
      },
      "uri(uint256)": {
        "details": "See {IERC1155MetadataURI-uri}. This implementation returns the same URI for *all* token types. It relies on the token type ID substitution mechanism https://eips.ethereum.org/EIPS/eip-1155#metadata[defined in the EIP]. Clients calling this function must replace the `\\{id\\}` substring with the actual token type ID."
      },
      "verifySignature(bytes32,bytes,address)": {
        "details": "Returns `true` if transfer has been approved by to address reconstruct transferHash and check that it matches the signature"
      }
    },
    "version": 1
  },
  "userdoc": {
    "kind": "user",
    "methods": {},
    "version": 1
  },
  "storageLayout": {
    "storage": [
      {
        "astId": 569,
        "contract": "solidity/NetEmissionsTokenNetwork.sol:NetEmissionsTokenNetwork",
        "label": "_balances",
        "offset": 0,
        "slot": "0",
        "type": "t_mapping(t_uint256,t_mapping(t_address,t_uint256))"
      },
      {
        "astId": 575,
        "contract": "solidity/NetEmissionsTokenNetwork.sol:NetEmissionsTokenNetwork",
        "label": "_operatorApprovals",
        "offset": 0,
        "slot": "1",
        "type": "t_mapping(t_address,t_mapping(t_address,t_bool))"
      },
      {
        "astId": 577,
        "contract": "solidity/NetEmissionsTokenNetwork.sol:NetEmissionsTokenNetwork",
        "label": "_uri",
        "offset": 0,
        "slot": "2",
        "type": "t_string_storage"
      },
      {
        "astId": 24,
        "contract": "solidity/NetEmissionsTokenNetwork.sol:NetEmissionsTokenNetwork",
        "label": "_roles",
        "offset": 0,
        "slot": "3",
        "type": "t_mapping(t_bytes32,t_struct(RoleData)19_storage)"
      },
      {
        "astId": 7315,
        "contract": "solidity/NetEmissionsTokenNetwork.sol:NetEmissionsTokenNetwork",
        "label": "limitedMode",
        "offset": 0,
        "slot": "4",
        "type": "t_bool"
      },
      {
        "astId": 7317,
        "contract": "solidity/NetEmissionsTokenNetwork.sol:NetEmissionsTokenNetwork",
        "label": "timelock",
        "offset": 1,
        "slot": "4",
        "type": "t_address"
      },
      {
        "astId": 7377,
        "contract": "solidity/NetEmissionsTokenNetwork.sol:NetEmissionsTokenNetwork",
        "label": "_numOfUniqueTokens",
        "offset": 0,
        "slot": "5",
        "type": "t_struct(Counter)3380_storage"
      },
      {
        "astId": 7382,
        "contract": "solidity/NetEmissionsTokenNetwork.sol:NetEmissionsTokenNetwork",
        "label": "_tokenDetails",
        "offset": 0,
        "slot": "6",
        "type": "t_mapping(t_uint256,t_struct(CarbonTokenDetails)7374_storage)"
      },
      {
        "astId": 7388,
        "contract": "solidity/NetEmissionsTokenNetwork.sol:NetEmissionsTokenNetwork",
        "label": "_retiredBalances",
        "offset": 0,
        "slot": "7",
        "type": "t_mapping(t_uint256,t_mapping(t_address,t_uint256))"
      },
      {
        "astId": 7394,
        "contract": "solidity/NetEmissionsTokenNetwork.sol:NetEmissionsTokenNetwork",
        "label": "carbonTransferNonce",
        "offset": 0,
        "slot": "8",
        "type": "t_mapping(t_address,t_mapping(t_address,t_uint32))"
      }
    ],
    "types": {
      "t_address": {
        "encoding": "inplace",
        "label": "address",
        "numberOfBytes": "20"
      },
      "t_bool": {
        "encoding": "inplace",
        "label": "bool",
        "numberOfBytes": "1"
      },
      "t_bytes32": {
        "encoding": "inplace",
        "label": "bytes32",
        "numberOfBytes": "32"
      },
      "t_mapping(t_address,t_bool)": {
        "encoding": "mapping",
        "key": "t_address",
        "label": "mapping(address => bool)",
        "numberOfBytes": "32",
        "value": "t_bool"
      },
      "t_mapping(t_address,t_mapping(t_address,t_bool))": {
        "encoding": "mapping",
        "key": "t_address",
        "label": "mapping(address => mapping(address => bool))",
        "numberOfBytes": "32",
        "value": "t_mapping(t_address,t_bool)"
      },
      "t_mapping(t_address,t_mapping(t_address,t_uint32))": {
        "encoding": "mapping",
        "key": "t_address",
        "label": "mapping(address => mapping(address => uint32))",
        "numberOfBytes": "32",
        "value": "t_mapping(t_address,t_uint32)"
      },
      "t_mapping(t_address,t_uint256)": {
        "encoding": "mapping",
        "key": "t_address",
        "label": "mapping(address => uint256)",
        "numberOfBytes": "32",
        "value": "t_uint256"
      },
      "t_mapping(t_address,t_uint32)": {
        "encoding": "mapping",
        "key": "t_address",
        "label": "mapping(address => uint32)",
        "numberOfBytes": "32",
        "value": "t_uint32"
      },
      "t_mapping(t_bytes32,t_struct(RoleData)19_storage)": {
        "encoding": "mapping",
        "key": "t_bytes32",
        "label": "mapping(bytes32 => struct AccessControl.RoleData)",
        "numberOfBytes": "32",
        "value": "t_struct(RoleData)19_storage"
      },
      "t_mapping(t_uint256,t_mapping(t_address,t_uint256))": {
        "encoding": "mapping",
        "key": "t_uint256",
        "label": "mapping(uint256 => mapping(address => uint256))",
        "numberOfBytes": "32",
        "value": "t_mapping(t_address,t_uint256)"
      },
      "t_mapping(t_uint256,t_struct(CarbonTokenDetails)7374_storage)": {
        "encoding": "mapping",
        "key": "t_uint256",
        "label": "mapping(uint256 => struct NetEmissionsTokenNetwork.CarbonTokenDetails)",
        "numberOfBytes": "32",
        "value": "t_struct(CarbonTokenDetails)7374_storage"
      },
      "t_string_storage": {
        "encoding": "bytes",
        "label": "string",
        "numberOfBytes": "32"
      },
      "t_struct(CarbonTokenDetails)7374_storage": {
        "encoding": "inplace",
        "label": "struct NetEmissionsTokenNetwork.CarbonTokenDetails",
        "members": [
          {
            "astId": 7349,
            "contract": "solidity/NetEmissionsTokenNetwork.sol:NetEmissionsTokenNetwork",
            "label": "tokenId",
            "offset": 0,
            "slot": "0",
            "type": "t_uint256"
          },
          {
            "astId": 7351,
            "contract": "solidity/NetEmissionsTokenNetwork.sol:NetEmissionsTokenNetwork",
            "label": "tokenTypeId",
            "offset": 0,
            "slot": "1",
            "type": "t_uint8"
          },
          {
            "astId": 7353,
            "contract": "solidity/NetEmissionsTokenNetwork.sol:NetEmissionsTokenNetwork",
            "label": "issuedBy",
            "offset": 1,
            "slot": "1",
            "type": "t_address"
          },
          {
            "astId": 7355,
            "contract": "solidity/NetEmissionsTokenNetwork.sol:NetEmissionsTokenNetwork",
            "label": "issuedFrom",
            "offset": 0,
            "slot": "2",
            "type": "t_uint160"
          },
          {
            "astId": 7357,
            "contract": "solidity/NetEmissionsTokenNetwork.sol:NetEmissionsTokenNetwork",
            "label": "issuedTo",
            "offset": 0,
            "slot": "3",
            "type": "t_address"
          },
          {
            "astId": 7359,
            "contract": "solidity/NetEmissionsTokenNetwork.sol:NetEmissionsTokenNetwork",
            "label": "fromDate",
            "offset": 0,
            "slot": "4",
            "type": "t_uint256"
          },
          {
            "astId": 7361,
            "contract": "solidity/NetEmissionsTokenNetwork.sol:NetEmissionsTokenNetwork",
            "label": "thruDate",
            "offset": 0,
            "slot": "5",
            "type": "t_uint256"
          },
          {
            "astId": 7363,
            "contract": "solidity/NetEmissionsTokenNetwork.sol:NetEmissionsTokenNetwork",
            "label": "dateCreated",
            "offset": 0,
            "slot": "6",
            "type": "t_uint256"
          },
          {
            "astId": 7365,
            "contract": "solidity/NetEmissionsTokenNetwork.sol:NetEmissionsTokenNetwork",
            "label": "metadata",
            "offset": 0,
            "slot": "7",
            "type": "t_string_storage"
          },
          {
            "astId": 7367,
            "contract": "solidity/NetEmissionsTokenNetwork.sol:NetEmissionsTokenNetwork",
            "label": "manifest",
            "offset": 0,
            "slot": "8",
            "type": "t_string_storage"
          },
          {
            "astId": 7369,
            "contract": "solidity/NetEmissionsTokenNetwork.sol:NetEmissionsTokenNetwork",
            "label": "description",
            "offset": 0,
            "slot": "9",
            "type": "t_string_storage"
          },
          {
            "astId": 7371,
            "contract": "solidity/NetEmissionsTokenNetwork.sol:NetEmissionsTokenNetwork",
            "label": "totalIssued",
            "offset": 0,
            "slot": "10",
            "type": "t_uint256"
          },
          {
            "astId": 7373,
            "contract": "solidity/NetEmissionsTokenNetwork.sol:NetEmissionsTokenNetwork",
            "label": "totalRetired",
            "offset": 0,
            "slot": "11",
            "type": "t_uint256"
          }
        ],
        "numberOfBytes": "384"
      },
      "t_struct(Counter)3380_storage": {
        "encoding": "inplace",
        "label": "struct Counters.Counter",
        "members": [
          {
            "astId": 3379,
            "contract": "solidity/NetEmissionsTokenNetwork.sol:NetEmissionsTokenNetwork",
            "label": "_value",
            "offset": 0,
            "slot": "0",
            "type": "t_uint256"
          }
        ],
        "numberOfBytes": "32"
      },
      "t_struct(RoleData)19_storage": {
        "encoding": "inplace",
        "label": "struct AccessControl.RoleData",
        "members": [
          {
            "astId": 16,
            "contract": "solidity/NetEmissionsTokenNetwork.sol:NetEmissionsTokenNetwork",
            "label": "members",
            "offset": 0,
            "slot": "0",
            "type": "t_mapping(t_address,t_bool)"
          },
          {
            "astId": 18,
            "contract": "solidity/NetEmissionsTokenNetwork.sol:NetEmissionsTokenNetwork",
            "label": "adminRole",
            "offset": 0,
            "slot": "1",
            "type": "t_bytes32"
          }
        ],
        "numberOfBytes": "64"
      },
      "t_uint160": {
        "encoding": "inplace",
        "label": "uint160",
        "numberOfBytes": "20"
      },
      "t_uint256": {
        "encoding": "inplace",
        "label": "uint256",
        "numberOfBytes": "32"
      },
      "t_uint32": {
        "encoding": "inplace",
        "label": "uint32",
        "numberOfBytes": "4"
      },
      "t_uint8": {
        "encoding": "inplace",
        "label": "uint8",
        "numberOfBytes": "1"
      }
    }
  }
}