{
  "address": "0x118938E52100df8FfE8793f8ec231f56d85e8E72",
  "abi": [
    {
      "inputs": [
        {
          "internalType": "address",
          "name": "_admin",
          "type": "address"
        }
      ],
      "stateMutability": "nonpayable",
      "type": "constructor"
    },
    {
      "anonymous": false,
      "inputs": [
        {
          "indexed": true,
          "internalType": "address",
          "name": "account",
          "type": "address"
        },
        {
          "indexed": true,
          "internalType": "address",
          "name": "operator",
          "type": "address"
        },
        {
          "indexed": false,
          "internalType": "bool",
          "name": "approved",
          "type": "bool"
        }
      ],
      "name": "ApprovalForAll",
      "type": "event"
    },
    {
      "anonymous": false,
      "inputs": [
        {
          "indexed": true,
          "internalType": "address",
          "name": "account",
          "type": "address"
        }
      ],
      "name": "RegisteredConsumer",
      "type": "event"
    },
    {
      "anonymous": false,
      "inputs": [
        {
          "indexed": true,
          "internalType": "address",
          "name": "account",
          "type": "address"
        }
      ],
      "name": "RegisteredDealer",
      "type": "event"
    },
    {
      "anonymous": false,
      "inputs": [
        {
          "indexed": true,
          "internalType": "address",
          "name": "account",
          "type": "address"
        }
      ],
      "name": "RegisteredIndustry",
      "type": "event"
    },
    {
      "anonymous": false,
      "inputs": [
        {
          "indexed": true,
          "internalType": "bytes32",
          "name": "role",
          "type": "bytes32"
        },
        {
          "indexed": true,
          "internalType": "bytes32",
          "name": "previousAdminRole",
          "type": "bytes32"
        },
        {
          "indexed": true,
          "internalType": "bytes32",
          "name": "newAdminRole",
          "type": "bytes32"
        }
      ],
      "name": "RoleAdminChanged",
      "type": "event"
    },
    {
      "anonymous": false,
      "inputs": [
        {
          "indexed": true,
          "internalType": "bytes32",
          "name": "role",
          "type": "bytes32"
        },
        {
          "indexed": true,
          "internalType": "address",
          "name": "account",
          "type": "address"
        },
        {
          "indexed": true,
          "internalType": "address",
          "name": "sender",
          "type": "address"
        }
      ],
      "name": "RoleGranted",
      "type": "event"
    },
    {
      "anonymous": false,
      "inputs": [
        {
          "indexed": true,
          "internalType": "bytes32",
          "name": "role",
          "type": "bytes32"
        },
        {
          "indexed": true,
          "internalType": "address",
          "name": "account",
          "type": "address"
        },
        {
          "indexed": true,
          "internalType": "address",
          "name": "sender",
          "type": "address"
        }
      ],
      "name": "RoleRevoked",
      "type": "event"
    },
    {
      "anonymous": false,
      "inputs": [
        {
          "indexed": false,
          "internalType": "uint256",
          "name": "availableBalance",
          "type": "uint256"
        },
        {
          "indexed": false,
          "internalType": "uint256",
          "name": "retiredBalance",
          "type": "uint256"
        },
        {
          "indexed": false,
          "internalType": "uint256",
          "name": "tokenId",
          "type": "uint256"
        },
        {
          "indexed": false,
          "internalType": "uint8",
          "name": "tokenTypeId",
          "type": "uint8"
        },
        {
          "indexed": true,
          "internalType": "address",
          "name": "issuedBy",
          "type": "address"
        },
        {
          "indexed": true,
          "internalType": "uint160",
          "name": "issuedFrom",
          "type": "uint160"
        },
        {
          "indexed": true,
          "internalType": "address",
          "name": "issuedTo",
          "type": "address"
        },
        {
          "indexed": false,
          "internalType": "uint256",
          "name": "fromDate",
          "type": "uint256"
        },
        {
          "indexed": false,
          "internalType": "uint256",
          "name": "thruDate",
          "type": "uint256"
        },
        {
          "indexed": false,
          "internalType": "uint256",
          "name": "dateCreated",
          "type": "uint256"
        },
        {
          "indexed": false,
          "internalType": "string",
          "name": "metadata",
          "type": "string"
        },
        {
          "indexed": false,
          "internalType": "string",
          "name": "manifest",
          "type": "string"
        },
        {
          "indexed": false,
          "internalType": "string",
          "name": "description",
          "type": "string"
        }
      ],
      "name": "TokenCreated",
      "type": "event"
    },
    {
      "anonymous": false,
      "inputs": [
        {
          "indexed": true,
          "internalType": "address",
          "name": "account",
          "type": "address"
        },
        {
          "indexed": false,
          "internalType": "uint256",
          "name": "tokenId",
          "type": "uint256"
        },
        {
          "indexed": false,
          "internalType": "uint256",
          "name": "amount",
          "type": "uint256"
        }
      ],
      "name": "TokenRetired",
      "type": "event"
    },
    {
      "anonymous": false,
      "inputs": [
        {
          "indexed": true,
          "internalType": "address",
          "name": "operator",
          "type": "address"
        },
        {
          "indexed": true,
          "internalType": "address",
          "name": "from",
          "type": "address"
        },
        {
          "indexed": true,
          "internalType": "address",
          "name": "to",
          "type": "address"
        },
        {
          "indexed": false,
          "internalType": "uint256[]",
          "name": "ids",
          "type": "uint256[]"
        },
        {
          "indexed": false,
          "internalType": "uint256[]",
          "name": "values",
          "type": "uint256[]"
        }
      ],
      "name": "TransferBatch",
      "type": "event"
    },
    {
      "anonymous": false,
      "inputs": [
        {
          "indexed": true,
          "internalType": "address",
          "name": "operator",
          "type": "address"
        },
        {
          "indexed": true,
          "internalType": "address",
          "name": "from",
          "type": "address"
        },
        {
          "indexed": true,
          "internalType": "address",
          "name": "to",
          "type": "address"
        },
        {
          "indexed": false,
          "internalType": "uint256",
          "name": "id",
          "type": "uint256"
        },
        {
          "indexed": false,
          "internalType": "uint256",
          "name": "value",
          "type": "uint256"
        }
      ],
      "name": "TransferSingle",
      "type": "event"
    },
    {
      "anonymous": false,
      "inputs": [
        {
          "indexed": false,
          "internalType": "string",
          "name": "value",
          "type": "string"
        },
        {
          "indexed": true,
          "internalType": "uint256",
          "name": "id",
          "type": "uint256"
        }
      ],
      "name": "URI",
      "type": "event"
    },
    {
      "anonymous": false,
      "inputs": [
        {
          "indexed": true,
          "internalType": "address",
          "name": "account",
          "type": "address"
        }
      ],
      "name": "UnregisteredConsumer",
      "type": "event"
    },
    {
      "anonymous": false,
      "inputs": [
        {
          "indexed": true,
          "internalType": "address",
          "name": "account",
          "type": "address"
        }
      ],
      "name": "UnregisteredDealer",
      "type": "event"
    },
    {
      "anonymous": false,
      "inputs": [
        {
          "indexed": true,
          "internalType": "address",
          "name": "account",
          "type": "address"
        }
      ],
      "name": "UnregisteredIndustry",
      "type": "event"
    },
    {
      "inputs": [],
      "name": "DEFAULT_ADMIN_ROLE",
      "outputs": [
        {
          "internalType": "bytes32",
          "name": "",
          "type": "bytes32"
        }
      ],
      "stateMutability": "view",
      "type": "function"
    },
    {
      "inputs": [],
      "name": "REGISTERED_CONSUMER",
      "outputs": [
        {
          "internalType": "bytes32",
          "name": "",
          "type": "bytes32"
        }
      ],
      "stateMutability": "view",
      "type": "function"
    },
    {
      "inputs": [],
      "name": "REGISTERED_DEALER",
      "outputs": [
        {
          "internalType": "bytes32",
          "name": "",
          "type": "bytes32"
        }
      ],
      "stateMutability": "view",
      "type": "function"
    },
    {
      "inputs": [],
      "name": "REGISTERED_EMISSIONS_AUDITOR",
      "outputs": [
        {
          "internalType": "bytes32",
          "name": "",
          "type": "bytes32"
        }
      ],
      "stateMutability": "view",
      "type": "function"
    },
    {
      "inputs": [],
      "name": "REGISTERED_INDUSTRY",
      "outputs": [
        {
          "internalType": "bytes32",
          "name": "",
          "type": "bytes32"
        }
      ],
      "stateMutability": "view",
      "type": "function"
    },
    {
      "inputs": [],
      "name": "REGISTERED_OFFSET_DEALER",
      "outputs": [
        {
          "internalType": "bytes32",
          "name": "",
          "type": "bytes32"
        }
      ],
      "stateMutability": "view",
      "type": "function"
    },
    {
      "inputs": [],
      "name": "REGISTERED_REC_DEALER",
      "outputs": [
        {
          "internalType": "bytes32",
          "name": "",
          "type": "bytes32"
        }
      ],
      "stateMutability": "view",
      "type": "function"
    },
    {
      "inputs": [
        {
          "internalType": "address",
          "name": "entity",
          "type": "address"
        }
      ],
      "name": "_consumerOrDealer",
      "outputs": [
        {
          "internalType": "bool",
          "name": "",
          "type": "bool"
        }
      ],
      "stateMutability": "view",
      "type": "function"
    },
    {
      "inputs": [
        {
          "internalType": "address",
          "name": "account",
          "type": "address"
        },
        {
          "internalType": "uint256",
          "name": "id",
          "type": "uint256"
        }
      ],
      "name": "balanceOf",
      "outputs": [
        {
          "internalType": "uint256",
          "name": "",
          "type": "uint256"
        }
      ],
      "stateMutability": "view",
      "type": "function"
    },
    {
      "inputs": [
        {
          "internalType": "address[]",
          "name": "accounts",
          "type": "address[]"
        },
        {
          "internalType": "uint256[]",
          "name": "ids",
          "type": "uint256[]"
        }
      ],
      "name": "balanceOfBatch",
      "outputs": [
        {
          "internalType": "uint256[]",
          "name": "",
          "type": "uint256[]"
        }
      ],
      "stateMutability": "view",
      "type": "function"
    },
    {
      "inputs": [
        {
          "internalType": "address",
          "name": "account",
          "type": "address"
        },
        {
          "internalType": "uint256",
          "name": "tokenId",
          "type": "uint256"
        }
      ],
      "name": "getAvailableAndRetired",
      "outputs": [
        {
          "internalType": "uint256",
          "name": "",
          "type": "uint256"
        },
        {
          "internalType": "uint256",
          "name": "",
          "type": "uint256"
        }
      ],
      "stateMutability": "view",
      "type": "function"
    },
    {
      "inputs": [
        {
          "internalType": "uint256",
          "name": "tokenId",
          "type": "uint256"
        }
      ],
      "name": "getIssuedBy",
      "outputs": [
        {
          "internalType": "address",
          "name": "",
          "type": "address"
        }
      ],
      "stateMutability": "view",
      "type": "function"
    },
    {
      "inputs": [
        {
          "internalType": "uint256",
          "name": "tokenId",
          "type": "uint256"
        }
      ],
      "name": "getIssuedFrom",
      "outputs": [
        {
          "internalType": "uint160",
          "name": "",
          "type": "uint160"
        }
      ],
      "stateMutability": "view",
      "type": "function"
    },
    {
      "inputs": [],
      "name": "getNumOfUniqueTokens",
      "outputs": [
        {
          "internalType": "uint256",
          "name": "",
          "type": "uint256"
        }
      ],
      "stateMutability": "view",
      "type": "function"
    },
    {
      "inputs": [
        {
          "internalType": "uint256",
          "name": "tokenId",
          "type": "uint256"
        },
        {
          "internalType": "address",
          "name": "account",
          "type": "address"
        }
      ],
      "name": "getRetiredBalances",
      "outputs": [
        {
          "internalType": "uint256",
          "name": "",
          "type": "uint256"
        }
      ],
      "stateMutability": "view",
      "type": "function"
    },
    {
      "inputs": [
        {
          "internalType": "bytes32",
          "name": "role",
          "type": "bytes32"
        }
      ],
      "name": "getRoleAdmin",
      "outputs": [
        {
          "internalType": "bytes32",
          "name": "",
          "type": "bytes32"
        }
      ],
      "stateMutability": "view",
      "type": "function"
    },
    {
      "inputs": [
        {
          "internalType": "address",
          "name": "account",
          "type": "address"
        }
      ],
      "name": "getRoles",
      "outputs": [
        {
          "components": [
            {
              "internalType": "bool",
              "name": "isAdmin",
              "type": "bool"
            },
            {
              "internalType": "bool",
              "name": "isConsumer",
              "type": "bool"
            },
            {
              "internalType": "bool",
              "name": "isRecDealer",
              "type": "bool"
            },
            {
              "internalType": "bool",
              "name": "isCeoDealer",
              "type": "bool"
            },
            {
              "internalType": "bool",
              "name": "isAeDealer",
              "type": "bool"
            },
            {
              "internalType": "bool",
              "name": "isIndustry",
              "type": "bool"
            }
          ],
          "internalType": "struct NetEmissionsTokenNetwork.RolesInfo",
          "name": "",
          "type": "tuple"
        }
      ],
      "stateMutability": "view",
      "type": "function"
    },
    {
      "inputs": [
        {
          "internalType": "uint256",
          "name": "tokenId",
          "type": "uint256"
        }
      ],
      "name": "getTokenDetails",
      "outputs": [
        {
          "components": [
            {
              "internalType": "uint256",
              "name": "tokenId",
              "type": "uint256"
            },
            {
              "internalType": "uint8",
              "name": "tokenTypeId",
              "type": "uint8"
            },
            {
              "internalType": "address",
              "name": "issuedBy",
              "type": "address"
            },
            {
              "internalType": "uint160",
              "name": "issuedFrom",
              "type": "uint160"
            },
            {
              "internalType": "address",
              "name": "issuedTo",
              "type": "address"
            },
            {
              "internalType": "uint256",
              "name": "fromDate",
              "type": "uint256"
            },
            {
              "internalType": "uint256",
              "name": "thruDate",
              "type": "uint256"
            },
            {
              "internalType": "uint256",
              "name": "dateCreated",
              "type": "uint256"
            },
            {
              "internalType": "string",
              "name": "metadata",
              "type": "string"
            },
            {
              "internalType": "string",
              "name": "manifest",
              "type": "string"
            },
            {
              "internalType": "string",
              "name": "description",
              "type": "string"
            },
            {
              "internalType": "uint256",
              "name": "totalIssued",
              "type": "uint256"
            },
            {
              "internalType": "uint256",
              "name": "totalRetired",
              "type": "uint256"
            }
          ],
          "internalType": "struct NetEmissionsTokenNetwork.CarbonTokenDetails",
          "name": "",
          "type": "tuple"
        }
      ],
      "stateMutability": "view",
      "type": "function"
    },
    {
      "inputs": [
        {
          "internalType": "address",
          "name": "account",
          "type": "address"
        },
        {
          "internalType": "uint256",
          "name": "tokenId",
          "type": "uint256"
        }
      ],
      "name": "getTokenRetiredAmount",
      "outputs": [
        {
          "internalType": "uint256",
          "name": "",
          "type": "uint256"
        }
      ],
      "stateMutability": "view",
      "type": "function"
    },
    {
      "inputs": [
        {
          "internalType": "uint256",
          "name": "tokenId",
          "type": "uint256"
        }
      ],
      "name": "getTokenType",
      "outputs": [
        {
          "internalType": "string",
          "name": "",
          "type": "string"
        }
      ],
      "stateMutability": "view",
      "type": "function"
    },
    {
      "inputs": [
        {
          "internalType": "uint256",
          "name": "tokenId",
          "type": "uint256"
        }
      ],
      "name": "getTokenTypeId",
      "outputs": [
        {
          "internalType": "uint8",
          "name": "",
          "type": "uint8"
        }
      ],
      "stateMutability": "view",
      "type": "function"
    },
    {
      "inputs": [
        {
          "internalType": "bytes32",
          "name": "role",
          "type": "bytes32"
        },
        {
          "internalType": "address",
          "name": "account",
          "type": "address"
        }
      ],
      "name": "grantRole",
      "outputs": [],
      "stateMutability": "nonpayable",
      "type": "function"
    },
    {
      "inputs": [
        {
          "internalType": "bytes32",
          "name": "role",
          "type": "bytes32"
        },
        {
          "internalType": "address",
          "name": "account",
          "type": "address"
        }
      ],
      "name": "hasRole",
      "outputs": [
        {
          "internalType": "bool",
          "name": "",
          "type": "bool"
        }
      ],
      "stateMutability": "view",
      "type": "function"
    },
    {
      "inputs": [
        {
          "internalType": "address",
          "name": "account",
          "type": "address"
        },
        {
          "internalType": "address",
          "name": "operator",
          "type": "address"
        }
      ],
      "name": "isApprovedForAll",
      "outputs": [
        {
          "internalType": "bool",
          "name": "",
          "type": "bool"
        }
      ],
      "stateMutability": "view",
      "type": "function"
    },
    {
      "inputs": [
        {
          "internalType": "address",
          "name": "auditor",
          "type": "address"
        }
      ],
      "name": "isAuditor",
      "outputs": [
        {
          "internalType": "bool",
          "name": "",
          "type": "bool"
        }
      ],
      "stateMutability": "view",
      "type": "function"
    },
    {
      "inputs": [
        {
          "internalType": "address",
          "name": "account",
          "type": "address"
        }
      ],
      "name": "isConsumerRegistered",
      "outputs": [
        {
          "internalType": "bool",
          "name": "",
          "type": "bool"
        }
      ],
      "stateMutability": "view",
      "type": "function"
    },
    {
      "inputs": [
        {
          "internalType": "address",
          "name": "account",
          "type": "address"
        }
      ],
      "name": "isDealerRegistered",
      "outputs": [
        {
          "internalType": "bool",
          "name": "",
          "type": "bool"
        }
      ],
      "stateMutability": "view",
      "type": "function"
    },
    {
      "inputs": [
        {
          "internalType": "address",
          "name": "industry",
          "type": "address"
        }
      ],
      "name": "isIndustry",
      "outputs": [
        {
          "internalType": "bool",
          "name": "",
          "type": "bool"
        }
      ],
      "stateMutability": "view",
      "type": "function"
    },
    {
      "inputs": [
        {
          "internalType": "uint160",
          "name": "issuedFrom",
          "type": "uint160"
        },
        {
          "internalType": "address",
          "name": "issuedTo",
          "type": "address"
        },
        {
          "internalType": "uint8",
          "name": "tokenTypeId",
          "type": "uint8"
        },
        {
          "internalType": "uint256",
          "name": "quantity",
          "type": "uint256"
        },
        {
          "internalType": "uint256",
          "name": "fromDate",
          "type": "uint256"
        },
        {
          "internalType": "uint256",
          "name": "thruDate",
          "type": "uint256"
        },
        {
          "internalType": "string",
          "name": "metadata",
          "type": "string"
        },
        {
          "internalType": "string",
          "name": "manifest",
          "type": "string"
        },
        {
          "internalType": "string",
          "name": "description",
          "type": "string"
        }
      ],
      "name": "issue",
      "outputs": [],
      "stateMutability": "nonpayable",
      "type": "function"
    },
    {
      "inputs": [
        {
          "internalType": "uint160",
          "name": "issuedFrom",
          "type": "uint160"
        },
        {
          "internalType": "address",
          "name": "issuedTo",
          "type": "address"
        },
        {
          "internalType": "address",
          "name": "trackerAddress",
          "type": "address"
        },
        {
          "internalType": "uint256",
          "name": "trackerId",
          "type": "uint256"
        },
        {
          "internalType": "uint8",
          "name": "tokenTypeId",
          "type": "uint8"
        },
        {
          "internalType": "uint256",
          "name": "quantity",
          "type": "uint256"
        },
        {
          "internalType": "uint256",
          "name": "fromDate",
          "type": "uint256"
        },
        {
          "internalType": "uint256",
          "name": "thruDate",
          "type": "uint256"
        },
        {
          "internalType": "string",
          "name": "metadata",
          "type": "string"
        },
        {
          "internalType": "string",
          "name": "manifest",
          "type": "string"
        },
        {
          "internalType": "string",
          "name": "description",
          "type": "string"
        }
      ],
      "name": "issueAndTrack",
      "outputs": [],
      "stateMutability": "nonpayable",
      "type": "function"
    },
    {
      "inputs": [
        {
          "internalType": "address",
          "name": "issuedBy",
          "type": "address"
        },
        {
          "internalType": "uint160",
          "name": "issuedFrom",
          "type": "uint160"
        },
        {
          "internalType": "address",
          "name": "issuedTo",
          "type": "address"
        },
        {
          "internalType": "uint8",
          "name": "tokenTypeId",
          "type": "uint8"
        },
        {
          "internalType": "uint256",
          "name": "quantity",
          "type": "uint256"
        },
        {
          "internalType": "uint256",
          "name": "fromDate",
          "type": "uint256"
        },
        {
          "internalType": "uint256",
          "name": "thruDate",
          "type": "uint256"
        },
        {
          "internalType": "string",
          "name": "metadata",
          "type": "string"
        },
        {
          "internalType": "string",
          "name": "manifest",
          "type": "string"
        },
        {
          "internalType": "string",
          "name": "description",
          "type": "string"
        }
      ],
      "name": "issueOnBehalf",
      "outputs": [],
      "stateMutability": "nonpayable",
      "type": "function"
    },
    {
      "inputs": [],
      "name": "limitedMode",
      "outputs": [
        {
          "internalType": "bool",
          "name": "",
          "type": "bool"
        }
      ],
      "stateMutability": "view",
      "type": "function"
    },
    {
      "inputs": [
        {
          "internalType": "address",
          "name": "to",
          "type": "address"
        },
        {
          "internalType": "uint256",
          "name": "tokenId",
          "type": "uint256"
        },
        {
          "internalType": "uint256",
          "name": "quantity",
          "type": "uint256"
        }
      ],
      "name": "mint",
      "outputs": [],
      "stateMutability": "nonpayable",
      "type": "function"
    },
    {
      "inputs": [
        {
          "internalType": "address",
          "name": "account",
          "type": "address"
        }
      ],
      "name": "registerConsumer",
      "outputs": [],
      "stateMutability": "nonpayable",
      "type": "function"
    },
    {
      "inputs": [
        {
          "internalType": "address",
          "name": "account",
          "type": "address"
        },
        {
          "internalType": "uint8",
          "name": "tokenTypeId",
          "type": "uint8"
        }
      ],
      "name": "registerDealer",
      "outputs": [],
      "stateMutability": "nonpayable",
      "type": "function"
    },
    {
      "inputs": [
        {
          "internalType": "address",
          "name": "account",
          "type": "address"
        }
      ],
      "name": "registerIndustry",
      "outputs": [],
      "stateMutability": "nonpayable",
      "type": "function"
    },
    {
      "inputs": [
        {
          "internalType": "bytes32",
          "name": "role",
          "type": "bytes32"
        },
        {
          "internalType": "address",
          "name": "account",
          "type": "address"
        }
      ],
      "name": "renounceRole",
      "outputs": [],
      "stateMutability": "nonpayable",
      "type": "function"
    },
    {
      "inputs": [
        {
          "internalType": "uint256",
          "name": "tokenId",
          "type": "uint256"
        },
        {
          "internalType": "uint256",
          "name": "amount",
          "type": "uint256"
        }
      ],
      "name": "retire",
      "outputs": [],
      "stateMutability": "nonpayable",
      "type": "function"
    },
    {
      "inputs": [
        {
          "internalType": "bytes32",
          "name": "role",
          "type": "bytes32"
        },
        {
          "internalType": "address",
          "name": "account",
          "type": "address"
        }
      ],
      "name": "revokeRole",
      "outputs": [],
      "stateMutability": "nonpayable",
      "type": "function"
    },
    {
      "inputs": [
        {
          "internalType": "address",
          "name": "from",
          "type": "address"
        },
        {
          "internalType": "address",
          "name": "to",
          "type": "address"
        },
        {
          "internalType": "uint256[]",
          "name": "ids",
          "type": "uint256[]"
        },
        {
          "internalType": "uint256[]",
          "name": "amounts",
          "type": "uint256[]"
        },
        {
          "internalType": "bytes",
          "name": "data",
          "type": "bytes"
        }
      ],
      "name": "safeBatchTransferFrom",
      "outputs": [],
      "stateMutability": "nonpayable",
      "type": "function"
    },
    {
      "inputs": [
        {
          "internalType": "address",
          "name": "from",
          "type": "address"
        },
        {
          "internalType": "address",
          "name": "to",
          "type": "address"
        },
        {
          "internalType": "uint256",
          "name": "id",
          "type": "uint256"
        },
        {
          "internalType": "uint256",
          "name": "amount",
          "type": "uint256"
        },
        {
          "internalType": "bytes",
          "name": "data",
          "type": "bytes"
        }
      ],
      "name": "safeTransferFrom",
      "outputs": [],
      "stateMutability": "nonpayable",
      "type": "function"
    },
    {
      "inputs": [
        {
          "internalType": "address",
          "name": "operator",
          "type": "address"
        },
        {
          "internalType": "bool",
          "name": "approved",
          "type": "bool"
        }
      ],
      "name": "setApprovalForAll",
      "outputs": [],
      "stateMutability": "nonpayable",
      "type": "function"
    },
    {
      "inputs": [
        {
          "internalType": "bool",
          "name": "_limitedMode",
          "type": "bool"
        }
      ],
      "name": "setLimitedMode",
      "outputs": [],
      "stateMutability": "nonpayable",
      "type": "function"
    },
    {
      "inputs": [
        {
          "internalType": "address",
          "name": "_timelock",
          "type": "address"
        }
      ],
      "name": "setTimelock",
      "outputs": [],
      "stateMutability": "nonpayable",
      "type": "function"
    },
    {
      "inputs": [
        {
          "internalType": "bytes4",
          "name": "interfaceId",
          "type": "bytes4"
        }
      ],
      "name": "supportsInterface",
      "outputs": [
        {
          "internalType": "bool",
          "name": "",
          "type": "bool"
        }
      ],
      "stateMutability": "view",
      "type": "function"
    },
    {
      "inputs": [
        {
          "internalType": "address",
          "name": "to",
          "type": "address"
        },
        {
          "internalType": "uint256",
          "name": "tokenId",
          "type": "uint256"
        },
        {
          "internalType": "uint256",
          "name": "value",
          "type": "uint256"
        }
      ],
      "name": "transfer",
      "outputs": [],
      "stateMutability": "nonpayable",
      "type": "function"
    },
    {
      "inputs": [
        {
          "internalType": "address",
          "name": "account",
          "type": "address"
        }
      ],
      "name": "unregisterConsumer",
      "outputs": [],
      "stateMutability": "nonpayable",
      "type": "function"
    },
    {
      "inputs": [
        {
          "internalType": "address",
          "name": "account",
          "type": "address"
        },
        {
          "internalType": "uint8",
          "name": "tokenTypeId",
          "type": "uint8"
        }
      ],
      "name": "unregisterDealer",
      "outputs": [],
      "stateMutability": "nonpayable",
      "type": "function"
    },
    {
      "inputs": [
        {
          "internalType": "address",
          "name": "account",
          "type": "address"
        }
      ],
      "name": "unregisterIndustry",
      "outputs": [],
      "stateMutability": "nonpayable",
      "type": "function"
    },
    {
      "inputs": [
        {
          "internalType": "uint256",
          "name": "",
          "type": "uint256"
        }
      ],
      "name": "uri",
      "outputs": [
        {
          "internalType": "string",
          "name": "",
          "type": "string"
        }
      ],
      "stateMutability": "view",
      "type": "function"
    }
  ],
  "transactionHash": "0x6d38e0ede58b1a8886731ec3359ce4b75630c6205a72c743b8acf8d784730d88",
  "args": [
    "0xf3AF07FdA6F11b55e60AB3574B3947e54DebADf7"
  ],
  "numDeployments": 3,
  "solcInputHash": "1c03290d454fbb5166f89ce3131e9579",
  "bytecode": "0x60806040523480156200001157600080fd5b5060405162004fd838038062004fd883398101604081905262000034916200032d565b6040805160208101909152600081526200004e8162000179565b506200008a7f5e1aa547d3dade8c68b013a47ad41c2bcc9b9e4b0765b0fb616780e15786e76a60008051602062004fb883398151915262000192565b62000097600082620001dd565b620000b260008051602062004fb883398151915282620001dd565b620000de7f2ab9f1da92e74aaa01eb75a871557505b11dd8d36832a34bb21bbee88b08d86082620001dd565b6200010a7fede6574deba8f02ada7888448a497b08844d62e044ed533343a673be3ffcde5f82620001dd565b620001367fe97dad3dbe5042e7384b1572cf966a15e089576a62b5126c5ef1d184ab18b12c82620001dd565b620001627f8305613dd3dbc3e0773e56336f52890c75fc1219c6ed3f363339b8ada04df28982620001dd565b50600480546001600160a81b03191690556200039a565b80516200018e90600290602084019062000287565b5050565b600082815260036020526040808220600101805490849055905190918391839186917fbd79b86ffe0ab8e8776151514217cd7cacd52c909f66475c3af44e129f0b00ff9190a4505050565b6200018e828260008281526003602090815260408083206001600160a01b038516845290915290205460ff166200018e5760008281526003602090815260408083206001600160a01b03851684529091529020805460ff19166001179055620002433390565b6001600160a01b0316816001600160a01b0316837f2f8788117e7eff1d82e926ec794901d17c78024a50270940304540a733656f0d60405160405180910390a45050565b82805462000295906200035d565b90600052602060002090601f016020900481019282620002b9576000855562000304565b82601f10620002d457805160ff191683800117855562000304565b8280016001018555821562000304579182015b8281111562000304578251825591602001919060010190620002e7565b506200031292915062000316565b5090565b5b8082111562000312576000815560010162000317565b6000602082840312156200033f578081fd5b81516001600160a01b038116811462000356578182fd5b9392505050565b600181811c908216806200037257607f821691505b602082108114156200039457634e487b7160e01b600052602260045260246000fd5b50919050565b614c0e80620003aa6000396000f3fe608060405234801561001057600080fd5b50600436106102d55760003560e01c80637f157c9b11610182578063ce6ccfaf116100e9578063e985e9c5116100a2578063f984b2341161007c578063f984b234146107b9578063fbdf37ea146107cc578063fc0bbce3146107e1578063fcba7948146107f4576102d5565b8063e985e9c514610739578063ee04295614610775578063f242432a146107a6576102d5565b8063ce6ccfaf14610652578063d547741f146106bd578063d75cfd58146106d0578063dba851b014610706578063ddc3e6eb14610713578063e2e564f214610726576102d5565b8063a217fddf1161013b578063a217fddf146105ad578063a22cb465146105b5578063b5ff2c88146105c8578063bdacb3031461060c578063c03df9701461061f578063c1e0372814610632576102d5565b80637f157c9b146105265780638874cfcc1461054e5780638ef5eec31461056157806391d14854146105745780639e99a45314610587578063a0d975a71461059a576102d5565b80632f2ff15d116102415780634e1273f4116101fa57806369f7ef44116101d457806369f7ef44146104d657806376aed2e1146104e957806376ce4755146104fc57806378e5c59214610511576102d5565b80634e1273f41461049b57806353dbe982146104bb5780635ddb368f146104ce576102d5565b80632f2ff15d1461042957806331aa4b201461043c57806333781a0e1461044f57806336568abe1461046257806344b22fdd1461047557806349b9055714610488576102d5565b8063156e29f611610293578063156e29f6146103a357806318a50d7e146103b65780631ef68ef7146103cb578063248a9ca3146103e0578063293a7f2e146104035780632eb2c2d614610416576102d5565b8062fdd58e146102da57806301ffc9a714610300578063033fd91914610323578063095bcdb6146103385780630e89341c1461034b578063127d5ad01461036b575b600080fd5b6102ed6102e8366004613e6a565b610809565b6040519081526020015b60405180910390f35b61031361030e366004614017565b61089f565b60405190151581526020016102f7565b610336610331366004613bcf565b6108cc565b005b610336610346366004613e95565b6109bc565b61035e610359366004613fdb565b610a4e565b6040516102f79190614514565b610391610379366004613fdb565b60009081526006602052604090206001015460ff1690565b60405160ff90911681526020016102f7565b6103366103b1366004613e95565b610ae2565b6102ed600080516020614b7983398151915281565b6102ed600080516020614b3983398151915281565b6102ed6103ee366004613fdb565b60009081526003602052604090206001015490565b610336610411366004614233565b610bf2565b610336610424366004613c3f565b610d77565b610336610437366004613ff3565b610dc3565b61033661044a366004613ec9565b610de8565b61031361045d366004613bcf565b610f3e565b610336610470366004613ff3565b610f58565b610336610483366004613bcf565b610fd6565b610313610496366004613bcf565b6110c0565b6104ae6104a9366004613ef4565b6110da565b6040516102f791906144d3565b6103366104c9366004613bcf565b61123c565b6102ed61132a565b6103136104e4366004613bcf565b61133b565b61035e6104f7366004613fdb565b6113a6565b6102ed600080516020614bb983398151915281565b6102ed600080516020614b5983398151915281565b610539610534366004613e6a565b61152a565b604080519283526020830191909152016102f7565b61033661055c366004614147565b6115ca565b61033661056f36600461404f565b6115ef565b610313610582366004613ff3565b611890565b610336610595366004613d84565b6118bb565b6102ed6105a8366004613e6a565b611967565b6102ed600081565b6103366105c3366004613d50565b611a02565b6105f46105d6366004613fdb565b6000908152600660205260409020600201546001600160a01b031690565b6040516001600160a01b0390911681526020016102f7565b61033661061a366004613bcf565b611a0d565b61033661062d366004613bcf565b611a5c565b610645610640366004613fdb565b611b5b565b6040516102f7919061475f565b610665610660366004613bcf565b611e35565b6040516102f79190600060c08201905082511515825260208301511515602083015260408301511515604083015260608301511515606083015260808301511515608083015260a0830151151560a083015292915050565b6103366106cb366004613ff3565b611f49565b6102ed6106de366004613ff3565b60009182526007602090815260408084206001600160a01b0393909316845291905290205490565b6004546103139060ff1681565b610336610721366004613fc1565b611f6e565b610336610734366004613ec9565b611fa8565b610313610747366004613c07565b6001600160a01b03918216600090815260016020908152604080832093909416825291909152205460ff1690565b6105f4610783366004613fdb565b60009081526006602052604090206001015461010090046001600160a01b031690565b6103366107b4366004613ce9565b61210d565b6103136107c7366004613bcf565b612152565b6102ed600080516020614b1983398151915281565b6103136107ef366004613bcf565b61216c565b6102ed600080516020614b9983398151915281565b60006001600160a01b0383166108795760405162461bcd60e51b815260206004820152602a60248201527f455243313135353a2061646472657373207a65726f206973206e6f742061207660448201526930b634b21037bbb732b960b11b60648201526084015b60405180910390fd5b506000908152602081815260408083206001600160a01b03949094168352929052205490565b60006001600160e01b03198216637965db0b60e01b14806108c457506108c4826121c2565b90505b919050565b60045460ff1615610965576108e2600033611890565b6109605760405162461bcd60e51b815260206004820152604360248201527f434c4d383a3a7265676973746572496e647573747279286c696d69746564293a60448201527f206f6e6c792061646d696e2063616e20726567697374657220696e647573747260648201526269657360e81b608482015260a401610870565b61096d565b61096d6121e7565b610985600080516020614b198339815191528261225f565b6040516001600160a01b038216907f1230fb0cdc77da02d53e840f6f60d5e7f68646d7d1ccdd890860e05533b62f5390600090a250565b6109c582612269565b610a205760405162461bcd60e51b815260206004820152602660248201527f434c4d383a3a7472616e736665723a20746f6b656e496420646f6573206e6f7460448201526508195e1a5cdd60d21b6064820152608401610870565b610a4933848484604051806040016040528060048152602001630307830360e41b81525061210d565b505050565b606060028054610a5d9061499b565b80601f0160208091040260200160405190810160405280929190818152602001828054610a899061499b565b8015610ad65780601f10610aab57610100808354040283529160200191610ad6565b820191906000526020600020905b815481529060010190602001808311610ab957829003601f168201915b50505050509050919050565b610aed600033611890565b610b095760405162461bcd60e51b8152600401610870906145be565b610b1282612269565b610b695760405162461bcd60e51b815260206004820152602260248201527f434c4d383a3a6d696e743a20746f6b656e496420646f6573206e6f74206578696044820152611cdd60f21b6064820152608401610870565b60045460ff1615610bd75760405162461bcd60e51b815260206004820152603260248201527f434c4d383a3a6d696e743a2063616e6e6f74206d696e74206e657720746f6b656044820152716e7320696e206c696d69746564206d6f646560701b6064820152608401610870565b610a4983838360405180602001604052806000815250612282565b3360008115610c2057610c048261216c565b610c205760405162461bcd60e51b815260040161087090614702565b6001600160a01b03811615610c5457610c388161216c565b610c545760405162461bcd60e51b815260040161087090614607565b610c5d84612269565b610cb55760405162461bcd60e51b8152602060048201526024808201527f434c4d383a3a7265746972653a20746f6b656e496420646f6573206e6f7420656044820152631e1a5cdd60e21b6064820152608401610870565b610cbf3385610809565b831115610d2b5760405162461bcd60e51b815260206004820152603460248201527f434c4d383a3a7265746972653a206e6f7420656e6f75676820617661696c61626044820152736c652062616c616e636520746f2072657469726560601b6064820152608401610870565b610d363385856123a5565b604080518581526020810185905233917f8f1b5ebb586d3d169e4ed07db9cd10ce0dd30c7b656171310eae7517c0b53cf9910160405180910390a250505050565b6001600160a01b038516331480610d935750610d938533610747565b610daf5760405162461bcd60e51b815260040161087090614527565b610dbc8585858585612431565b5050505050565b600082815260036020526040902060010154610dde81612638565b610a498383612645565b610df3600033611890565b610e0f5760405162461bcd60e51b8152600401610870906145be565b610e18816126cb565b610e7d5760405162461bcd60e51b815260206004820152603060248201527f434c4d383a3a72656769737465724465616c65723a20746f6b656e547970654960448201526f1908191bd95cc81b9bdd08195e1a5cdd60821b6064820152608401610870565b8060ff1660011415610ea657610ea1600080516020614b9983398151915283610dc3565b610eee565b8060ff1660021415610eca57610ea1600080516020614b3983398151915283610dc3565b8060ff1660031415610eee57610eee600080516020614bb983398151915283610dc3565b610f06600080516020614b7983398151915283610dc3565b6040516001600160a01b038316907fa8377deee15954185683d55effd369508b4935978c8cb2bab790bf04c570181490600090a25050565b60006108c4600080516020614b5983398151915283611890565b6001600160a01b0381163314610fc85760405162461bcd60e51b815260206004820152602f60248201527f416363657373436f6e74726f6c3a2063616e206f6e6c792072656e6f756e636560448201526e103937b632b9903337b91039b2b63360891b6064820152608401610870565b610fd282826126ed565b5050565b610fde6121e7565b60045460ff161561107157610ff4600033611890565b6110715760405162461bcd60e51b815260206004820152604260248201527f434c4d383a3a7265676973746572436f6e73756d6572286c696d69746564293a60448201527f206f6e6c792061646d696e2063616e20726567697374657220636f6e73756d65606482015261727360f01b608482015260a401610870565b611089600080516020614b5983398151915282610dc3565b6040516001600160a01b038216907f69a0adee259d26fe61f4776f7bea7f3a9737c7321256821b985f988545efd31990600090a250565b60006108c4600080516020614bb983398151915283611890565b6060815183511461113f5760405162461bcd60e51b815260206004820152602960248201527f455243313135353a206163636f756e747320616e6420696473206c656e677468604482015268040dad2e6dac2e8c6d60bb1b6064820152608401610870565b6000835167ffffffffffffffff81111561116957634e487b7160e01b600052604160045260246000fd5b604051908082528060200260200182016040528015611192578160200160208202803683370190505b50905060005b8451811015611234576111f98582815181106111c457634e487b7160e01b600052603260045260246000fd5b60200260200101518583815181106111ec57634e487b7160e01b600052603260045260246000fd5b6020026020010151610809565b82828151811061121957634e487b7160e01b600052603260045260246000fd5b602090810291909101015261122d816149fd565b9050611198565b509392505050565b6112446121e7565b60045460ff16156112db5761125a600033611890565b6112db5760405162461bcd60e51b815260206004820152604660248201527f434c4d383a3a756e7265676973746572436f6e73756d6572286c696d6974656460448201527f293a206f6e6c792061646d696e2063616e20756e726567697374657220636f6e60648201526573756d65727360d01b608482015260a401610870565b6112f3600080516020614b5983398151915282611f49565b6040516001600160a01b038216907f03a38088da75ee2d80f6c753f55f8fd17602ae17d8bd0ef44d5e1f28ab5af11f90600090a250565b600061133560055490565b90505b90565b6000611355600080516020614b9983398151915283611890565b806113735750611373600080516020614b3983398151915283611890565b806113915750611391600080516020614bb983398151915283611890565b1561139e575060016108c7565b506000919050565b60606113b182612269565b6114105760405162461bcd60e51b815260206004820152602a60248201527f434c4d383a3a676574546f6b656e547970653a20746f6b656e496420646f6573604482015269081b9bdd08195e1a5cdd60b21b6064820152608401610870565b600082815260066020526040902060018082015460ff16141561146857505060408051808201909152601c81527f52656e657761626c6520456e657267792043657274696669636174650000000060208201526108c7565b600181015460ff16600214156114b357505060408051808201909152601781527f436172626f6e20456d697373696f6e73204f666673657400000000000000000060208201526108c7565b600181015460ff16600314156114f25750506040805180820190915260118152704175646974656420456d697373696f6e7360781b60208201526108c7565b5050604080518082019091526014815273151bdad95b88191bd95cc81b9bdd08195e1a5cdd60621b60208201526108c7565b50919050565b60008060006115398585610809565b60405163a0d975a760e01b81526001600160a01b038716600482015260248101869052909150600090309063a0d975a79060440160206040518083038186803b15801561158557600080fd5b505afa158015611599573d6000803e3d6000fd5b505050506040513d601f19601f820116820180604052508101906115bd919061421b565b9196919550909350505050565b6115d26121e7565b6115e4338a8a8a8a8a8a8a8a8a612754565b505050505050505050565b6115f76121e7565b306001600160a01b0316896001600160a01b031663e54a96466040518163ffffffff1660e01b815260040160206040518083038186803b15801561163a57600080fd5b505afa15801561164e573d6000803e3d6000fd5b505050506040513d601f19601f820116820180604052508101906116729190613beb565b6001600160a01b0316146116fe5760405162461bcd60e51b815260206004820152604760248201527f434c4d383a3a6973737565416e64547261636b3a20747261636b65724164647260448201527f657373206973206e6f742061206368696c64206f662074686973204e455420636064820152661bdb9d1c9858dd60ca1b608482015260a401610870565b604080516001808252818301909252600091602080830190803683375050604080516001808252818301909252929350600092915060208083019080368337019050509050611755338e8d8c8c8c8c8c8c8c612754565b6005548260008151811061177957634e487b7160e01b600052603260045260246000fd5b60200260200101818152505087816000815181106117a757634e487b7160e01b600052603260045260246000fd5b60209081029190910101528961181e5760405163780da5f160e11b81526001600160a01b038c169063f01b4be2906117e7908f9086908690600401614470565b600060405180830381600087803b15801561180157600080fd5b505af1158015611815573d6000803e3d6000fd5b50505050611881565b604051633c81346f60e01b81526001600160a01b038c1690633c81346f9061184e908d9086908690600401614864565b600060405180830381600087803b15801561186857600080fd5b505af115801561187c573d6000803e3d6000fd5b505050505b50505050505050505050505050565b60009182526003602090815260408084206001600160a01b0393909316845291905290205460ff1690565b60045461010090046001600160a01b03163314806118df57506118df600033611890565b6119495760405162461bcd60e51b815260206004820152603560248201527f434c4d383a3a69737375654f6e426568616c663a2063616c6c206d757374206360448201527437b6b290333937b6902220a79037b91030b236b4b760591b6064820152608401610870565b61195b8a8a8a8a8a8a8a8a8a8a612754565b50505050505050505050565b600061197282612269565b6119da5760405162461bcd60e51b815260206004820152603360248201527f434c4d383a3a676574546f6b656e52657469726564416d6f756e743a20746f6b604482015272195b925908191bd95cc81b9bdd08195e1a5cdd606a1b6064820152608401610870565b5060009081526007602090815260408083206001600160a01b03949094168352929052205490565b610fd2338383612e3b565b611a18600033611890565b611a345760405162461bcd60e51b8152600401610870906145be565b600480546001600160a01b0390921661010002610100600160a81b0319909216919091179055565b336001600160a01b03821614611a7457611a746121e7565b60045460ff1615611b0c57611a8a600033611890565b611b0c5760405162461bcd60e51b815260206004820152604760248201527f434c4d383a3a756e7265676973746572496e647573747279286c696d6974656460448201527f293a206f6e6c792061646d696e2063616e20756e726567697374657220696e646064820152667573747269657360c81b608482015260a401610870565b611b24600080516020614b1983398151915282611f49565b6040516001600160a01b038216907fe2fd90a75c6850a2aeaad25eb28a5176ac5166c6e3e6dfe0284e34a628e90ef290600090a250565b611be4604051806101a0016040528060008152602001600060ff16815260200160006001600160a01b0316815260200160006001600160a01b0316815260200160006001600160a01b0316815260200160008152602001600081526020016000815260200160608152602001606081526020016060815260200160008152602001600081525090565b60008281526006602081815260409283902083516101a08101855281548152600182015460ff8116938201939093526001600160a01b036101009384900481169582019590955260028201548516606082015260038201549094166080850152600481015460a0850152600581015460c08501529182015460e084015260078201805491840191611c749061499b565b80601f0160208091040260200160405190810160405280929190818152602001828054611ca09061499b565b8015611ced5780601f10611cc257610100808354040283529160200191611ced565b820191906000526020600020905b815481529060010190602001808311611cd057829003601f168201915b50505050508152602001600882018054611d069061499b565b80601f0160208091040260200160405190810160405280929190818152602001828054611d329061499b565b8015611d7f5780601f10611d5457610100808354040283529160200191611d7f565b820191906000526020600020905b815481529060010190602001808311611d6257829003601f168201915b50505050508152602001600982018054611d989061499b565b80601f0160208091040260200160405190810160405280929190818152602001828054611dc49061499b565b8015611e115780601f10611de657610100808354040283529160200191611e11565b820191906000526020600020905b815481529060010190602001808311611df457829003601f168201915b50505050508152602001600a8201548152602001600b820154815250509050919050565b6040805160c081018252600080825260208201819052918101829052606081018290526080810182905260a08101919091526040805160c081018252600080825260208201819052918101829052606081018290526080810182905260a0810191909152611ea4600084611890565b15158152611ec0600080516020614b9983398151915284611890565b15156040820152611edf600080516020614b3983398151915284611890565b15156060820152611efe600080516020614bb983398151915284611890565b15156080820152611f1d600080516020614b1983398151915284611890565b151560a0820152611f3c600080516020614b5983398151915284611890565b1515602082015292915050565b600082815260036020526040902060010154611f6481612638565b610a4983836126ed565b611f79600033611890565b611f955760405162461bcd60e51b8152600401610870906145be565b6004805460ff1916911515919091179055565b611fb3600033611890565b611fcf5760405162461bcd60e51b8152600401610870906145be565b611fd8816126cb565b61203f5760405162461bcd60e51b815260206004820152603260248201527f434c4d383a3a756e72656769737465724465616c65723a20746f6b656e54797060448201527119525908191bd95cc81b9bdd08195e1a5cdd60721b6064820152608401610870565b8060ff166001141561206857612063600080516020614b9983398151915283611f49565b6120b0565b8060ff166002141561208c57612063600080516020614b3983398151915283611f49565b8060ff16600314156120b0576120b0600080516020614bb983398151915283611f49565b6120b98261133b565b6120d5576120d5600080516020614b7983398151915283611f49565b6040516001600160a01b038316907f98552ded770f1d05a505572f3387c108dbc6b566ea3d49f83cff3d1f1c72a04290600090a25050565b6001600160a01b03851633148061212957506121298533610747565b6121455760405162461bcd60e51b815260040161087090614527565b610dbc8585858585612f1c565b60006108c4600080516020614b1983398151915283611890565b6000612186600080516020614b7983398151915283611890565b806121a457506121a4600080516020614b5983398151915283611890565b806113915750611391600080516020614b1983398151915283611890565b60006001600160e01b03198216637965db0b60e01b14806108c457506108c482613049565b6121ff600080516020614b7983398151915233611890565b61225d5760405162461bcd60e51b815260206004820152602960248201527f434c4d383a3a6f6e6c794465616c65723a206d73672e73656e646572206e6f746044820152681030903232b0b632b960b91b6064820152608401610870565b565b610fd28282612645565b60008161227560055490565b1061139e575060016108c7565b6001600160a01b0384166122e25760405162461bcd60e51b815260206004820152602160248201527f455243313135353a206d696e7420746f20746865207a65726f206164647265736044820152607360f81b6064820152608401610870565b3360006122ee85613099565b905060006122fb85613099565b905061230c836000898585896130f2565b6000868152602081815260408083206001600160a01b038b1684529091528120805487929061233c90849061491d565b909155505060408051878152602081018790526001600160a01b03808a1692600092918716917fc3d58168c5ae7397731d063d5bbf3d657854427343f4c083240f7aacaa2d0f62910160405180910390a461239c83600089898989613409565b50505050505050565b6123b0838383613574565b6000828152600660205260409020600b01546123cc9082613704565b6000838152600660209081526040808320600b0193909355600781528282206001600160a01b0387168352905220546124059082613704565b60009283526007602090815260408085206001600160a01b039096168552949052929091209190915550565b81518351146124935760405162461bcd60e51b815260206004820152602860248201527f455243313135353a2069647320616e6420616d6f756e7473206c656e677468206044820152670dad2e6dac2e8c6d60c31b6064820152608401610870565b6001600160a01b0384166124b95760405162461bcd60e51b815260040161087090614673565b336124c88187878787876130f2565b60005b84518110156125ca5760008582815181106124f657634e487b7160e01b600052603260045260246000fd5b60200260200101519050600085838151811061252257634e487b7160e01b600052603260045260246000fd5b602090810291909101810151600084815280835260408082206001600160a01b038e1683529093529190912054909150818110156125725760405162461bcd60e51b8152600401610870906146b8565b6000838152602081815260408083206001600160a01b038e8116855292528083208585039055908b168252812080548492906125af90849061491d565b92505081905550505050806125c3906149fd565b90506124cb565b50846001600160a01b0316866001600160a01b0316826001600160a01b03167f4a39dc06d4c0dbc64b70af90fd698a233a518aa5d07e595d983b8c0526c8f7fb878760405161261a9291906144e6565b60405180910390a4612630818787878787613717565b505050505050565b61264281336137e1565b50565b61264f8282611890565b610fd25760008281526003602090815260408083206001600160a01b03851684529091529020805460ff191660011790556126873390565b6001600160a01b0316816001600160a01b0316837f2f8788117e7eff1d82e926ec794901d17c78024a50270940304540a733656f0d60405160405180910390a45050565b6000808260ff16118015611391575060038260ff161161139e575060016108c7565b6126f78282611890565b15610fd25760008281526003602090815260408083206001600160a01b0385168085529252808320805460ff1916905551339285917ff6391f5c32d9c69d2a47ea670b442974b53935d1edc7fd64eb21e047a839171b9190a45050565b61275d876126cb565b6127b55760405162461bcd60e51b8152602060048201526024808201527f434c4d383a3a5f69737375653a20746f6b656e54797065496420697320696e76604482015263185b1a5960e21b6064820152608401610870565b60045460ff1615612a0f578660ff16600114806127d557508660ff166002145b156129645760045461010090046001600160a01b031633146128505760405162461bcd60e51b815260206004820152602e60248201527f434c4d383a3a5f6973737565286c696d69746564293a206d73672e73656e646560448201526d72206e6f742074696d656c6f636b60901b6064820152608401610870565b61285b600089611890565b6128b75760405162461bcd60e51b815260206004820152602760248201527f434c4d383a3a5f6973737565286c696d69746564293a20697373756565206e6f6044820152663a1030b236b4b760c91b6064820152608401610870565b6128cf600080516020614b998339815191528b611890565b806128ed57506128ed600080516020614b398339815191528b611890565b61295f5760405162461bcd60e51b815260206004820152603760248201527f434c4d383a3a5f6973737565286c696d69746564293a2070726f706f7365722060448201527f6e6f7420612072656769737465726564206465616c65720000000000000000006064820152608401610870565b612a0a565b8660ff166003148061297957508660ff166004145b15612a0a57612996600080516020614bb98339815191528b611890565b612a0a576040805162461bcd60e51b81526020600482015260248101919091527f434c4d383a3a5f6973737565286c696d69746564293a20697373756572206e6f60448201527f742061207265676973746572656420656d697373696f6e732061756469746f726064820152608401610870565b612bc8565b8660ff1660011415612a9857612a33600080516020614b998339815191528b611890565b612a0a5760405162461bcd60e51b815260206004820152603060248201527f434c4d383a3a5f69737375653a20697373756572206e6f74206120726567697360448201526f3a32b932b2102922a1903232b0b632b960811b6064820152608401610870565b8660ff1660021415612b2457612abc600080516020614b398339815191528b611890565b612a0a5760405162461bcd60e51b815260206004820152603360248201527f434c4d383a3a5f69737375653a20697373756572206e6f7420612072656769736044820152723a32b932b21037b33339b2ba103232b0b632b960691b6064820152608401610870565b8660ff1660031480612b3957508660ff166004145b15612bc857612b56600080516020614bb98339815191528b611890565b612bc85760405162461bcd60e51b815260206004820152603760248201527f434c4d383a3a5f69737375653a20697373756572206e6f74206120726567697360448201527f746572656420656d697373696f6e732061756469746f720000000000000000006064820152608401610870565b612bd6600580546001019055565b600060066000612be560055490565b81526020019081526020016000209050612bfe60055490565b81556001810180546001600160a01b03808e16610100026001600160a81b031990921660ff8c1617919091179091556002820180548c83166001600160a01b031991821617909155600383018054928c169290911691909117905560048101869055600581018590554260068201558351612c829060078301906020870190613a27565b508251612c989060088301906020860190613a27565b508151612cae9060098301906020850190613a27565b50600a81018790556000600b820155612ce089612cca60055490565b8960405180602001604052806000815250612282565b8760ff1660031415612d075760038101548154612d07916001600160a01b031690896123a5565b8060030160009054906101000a90046001600160a01b03166001600160a01b03168160020160009054906101000a90046001600160a01b03166001600160a01b03168260010160019054906101000a90046001600160a01b03166001600160a01b03167f277df7a34faa63a95e8df4966065d731b45aec92af9a3da4039d7a71fa529e838a600760008760000154815260200190815260200160002060008760030160009054906101000a90046001600160a01b03166001600160a01b03166001600160a01b031681526020019081526020016000205486600001548760010160009054906101000a900460ff16886004015489600501548a600601548b6007018c6008018d600901604051612e269a9998979695949392919061487d565b60405180910390a45050505050505050505050565b816001600160a01b0316836001600160a01b03161415612eaf5760405162461bcd60e51b815260206004820152602960248201527f455243313135353a2073657474696e6720617070726f76616c20737461747573604482015268103337b91039b2b63360b91b6064820152608401610870565b6001600160a01b03838116600081815260016020908152604080832094871680845294825291829020805460ff191686151590811790915591519182527f17307eab39ab6107e8899845ad3d59bd9653f200f220920489ca2b5937696c31910160405180910390a3505050565b6001600160a01b038416612f425760405162461bcd60e51b815260040161087090614673565b336000612f4e85613099565b90506000612f5b85613099565b9050612f6b8389898585896130f2565b6000868152602081815260408083206001600160a01b038c16845290915290205485811015612fac5760405162461bcd60e51b8152600401610870906146b8565b6000878152602081815260408083206001600160a01b038d8116855292528083208985039055908a16825281208054889290612fe990849061491d565b909155505060408051888152602081018890526001600160a01b03808b16928c821692918816917fc3d58168c5ae7397731d063d5bbf3d657854427343f4c083240f7aacaa2d0f62910160405180910390a46115e4848a8a8a8a8a613409565b60006001600160e01b03198216636cdb3d1360e11b148061307a57506001600160e01b031982166303a24d0760e21b145b806108c457506301ffc9a760e01b6001600160e01b03198316146108c4565b604080516001808252818301909252606091600091906020808301908036833701905050905082816000815181106130e157634e487b7160e01b600052603260045260246000fd5b602090810291909101015292915050565b84846001600160a01b038216156131285761310c8261216c565b6131285760405162461bcd60e51b815260040161087090614702565b6001600160a01b0381161561315c576131408161216c565b61315c5760405162461bcd60e51b815260040161087090614607565b856001600160a01b0316876001600160a01b031614156131ef5760405162461bcd60e51b815260206004820152604260248201527f434c4d383a3a5f6265666f7265546f6b656e5472616e736665723a2073656e6460448201527f657220616e642072656365697665722063616e6e6f74206265207468652073616064820152616d6560f01b608482015260a401610870565b60005b85518110156115e45760006006600088848151811061322157634e487b7160e01b600052603260045260246000fd5b602002602001015181526020019081526020016000209050600460009054906101000a900460ff16156133f5576001600160a01b03881661326257506133f7565b60018082015460ff16148061327e5750600181015460ff166002145b15613335576004546001600160a01b038b81166101009092041614806132aa57506132aa60008b611890565b6133305760405162461bcd60e51b815260206004820152604b60248201527f434c4d383a3a5f6265666f7265546f6b656e5472616e73666572286c696d697460448201527f6564293a206f6e6c792061646d696e20616e642044414f2063616e207472616e60648201526a7366657220746f6b656e7360a81b608482015260a401610870565b6133f5565b600181015460ff16600314156133f55761335d600080516020614bb98339815191528b611890565b6133f55760405162461bcd60e51b815260206004820152605860248201527f434c4d383a3a5f6265666f7265546f6b656e5472616e73666572286c696d697460448201527f6564293a206f6e6c7920656d697373696f6e732061756469746f72732063616e60648201527f206973737565206175646974656420656d697373696f6e730000000000000000608482015260a401610870565b505b80613401816149fd565b9150506131f2565b6001600160a01b0384163b156126305760405163f23a6e6160e01b81526001600160a01b0385169063f23a6e619061344d908990899088908890889060040161442b565b602060405180830381600087803b15801561346757600080fd5b505af1925050508015613497575060408051601f3d908101601f1916820190925261349491810190614033565b60015b613544576134a3614a44565b806308c379a014156134dd57506134b8614a5b565b806134c357506134df565b8060405162461bcd60e51b81526004016108709190614514565b505b60405162461bcd60e51b815260206004820152603460248201527f455243313135353a207472616e7366657220746f206e6f6e20455243313135356044820152732932b1b2b4bb32b91034b6b83632b6b2b73a32b960611b6064820152608401610870565b6001600160e01b0319811663f23a6e6160e01b1461239c5760405162461bcd60e51b815260040161087090614576565b6001600160a01b0383166135d65760405162461bcd60e51b815260206004820152602360248201527f455243313135353a206275726e2066726f6d20746865207a65726f206164647260448201526265737360e81b6064820152608401610870565b3360006135e284613099565b905060006135ef84613099565b905061360f838760008585604051806020016040528060008152506130f2565b6000858152602081815260408083206001600160a01b038a1684529091529020548481101561368c5760405162461bcd60e51b8152602060048201526024808201527f455243313135353a206275726e20616d6f756e7420657863656564732062616c604482015263616e636560e01b6064820152608401610870565b6000868152602081815260408083206001600160a01b038b81168086529184528285208a8703905582518b81529384018a90529092908816917fc3d58168c5ae7397731d063d5bbf3d657854427343f4c083240f7aacaa2d0f62910160405180910390a460408051602081019091526000905261239c565b6000613710828461491d565b9392505050565b6001600160a01b0384163b156126305760405163bc197c8160e01b81526001600160a01b0385169063bc197c819061375b90899089908890889088906004016143cd565b602060405180830381600087803b15801561377557600080fd5b505af19250505080156137a5575060408051601f3d908101601f191682019092526137a291810190614033565b60015b6137b1576134a3614a44565b6001600160e01b0319811663bc197c8160e01b1461239c5760405162461bcd60e51b815260040161087090614576565b6137eb8282611890565b610fd257613803816001600160a01b03166014613845565b61380e836020613845565b60405160200161381f929190614358565b60408051601f198184030181529082905262461bcd60e51b825261087091600401614514565b60606000613854836002614935565b61385f90600261491d565b67ffffffffffffffff81111561388557634e487b7160e01b600052604160045260246000fd5b6040519080825280601f01601f1916602001820160405280156138af576020820181803683370190505b509050600360fc1b816000815181106138d857634e487b7160e01b600052603260045260246000fd5b60200101906001600160f81b031916908160001a905350600f60fb1b8160018151811061391557634e487b7160e01b600052603260045260246000fd5b60200101906001600160f81b031916908160001a9053506000613939846002614935565b61394490600161491d565b90505b60018111156139d8576f181899199a1a9b1b9c1cb0b131b232b360811b85600f166010811061398657634e487b7160e01b600052603260045260246000fd5b1a60f81b8282815181106139aa57634e487b7160e01b600052603260045260246000fd5b60200101906001600160f81b031916908160001a90535060049490941c936139d181614984565b9050613947565b5083156137105760405162461bcd60e51b815260206004820181905260248201527f537472696e67733a20686578206c656e67746820696e73756666696369656e746044820152606401610870565b828054613a339061499b565b90600052602060002090601f016020900481019282613a555760008555613a9b565b82601f10613a6e57805160ff1916838001178555613a9b565b82800160010185558215613a9b579182015b82811115613a9b578251825591602001919060010190613a80565b50613aa7929150613aab565b5090565b5b80821115613aa75760008155600101613aac565b80356108c781614aed565b600082601f830112613adb578081fd5b81356020613ae8826148f9565b604051613af582826149d0565b8381528281019150858301600585901b87018401881015613b14578586fd5b855b85811015613b3257813584529284019290840190600101613b16565b5090979650505050505050565b803580151581146108c757600080fd5b600082601f830112613b5f578081fd5b813567ffffffffffffffff811115613b7957613b79614a2e565b604051613b90601f8301601f1916602001826149d0565b818152846020838601011115613ba4578283fd5b816020850160208301379081016020019190915292915050565b803560ff811681146108c757600080fd5b600060208284031215613be0578081fd5b813561371081614aed565b600060208284031215613bfc578081fd5b815161371081614aed565b60008060408385031215613c19578081fd5b8235613c2481614aed565b91506020830135613c3481614aed565b809150509250929050565b600080600080600060a08688031215613c56578081fd5b8535613c6181614aed565b94506020860135613c7181614aed565b9350604086013567ffffffffffffffff80821115613c8d578283fd5b613c9989838a01613acb565b94506060880135915080821115613cae578283fd5b613cba89838a01613acb565b93506080880135915080821115613ccf578283fd5b50613cdc88828901613b4f565b9150509295509295909350565b600080600080600060a08688031215613d00578081fd5b8535613d0b81614aed565b94506020860135613d1b81614aed565b93506040860135925060608601359150608086013567ffffffffffffffff811115613d44578182fd5b613cdc88828901613b4f565b60008060408385031215613d62578182fd5b8235613d6d81614aed565b9150613d7b60208401613b3f565b90509250929050565b6000806000806000806000806000806101408b8d031215613da3578788fd5b613dac8b613ac0565b9950613dba60208c01613ac0565b9850613dc860408c01613ac0565b9750613dd660608c01613bbe565b965060808b0135955060a08b0135945060c08b0135935060e08b013567ffffffffffffffff80821115613e07578485fd5b613e138e838f01613b4f565b94506101008d0135915080821115613e29578384fd5b613e358e838f01613b4f565b93506101208d0135915080821115613e4b578283fd5b50613e588d828e01613b4f565b9150509295989b9194979a5092959850565b60008060408385031215613e7c578182fd5b8235613e8781614aed565b946020939093013593505050565b600080600060608486031215613ea9578081fd5b8335613eb481614aed565b95602085013595506040909401359392505050565b60008060408385031215613edb578182fd5b8235613ee681614aed565b9150613d7b60208401613bbe565b60008060408385031215613f06578182fd5b823567ffffffffffffffff80821115613f1d578384fd5b818501915085601f830112613f30578384fd5b81356020613f3d826148f9565b604051613f4a82826149d0565b8381528281019150858301600585901b870184018b1015613f69578889fd5b8896505b84871015613f94578035613f8081614aed565b835260019690960195918301918301613f6d565b5096505086013592505080821115613faa578283fd5b50613fb785828601613acb565b9150509250929050565b600060208284031215613fd2578081fd5b61371082613b3f565b600060208284031215613fec578081fd5b5035919050565b60008060408385031215614005578182fd5b823591506020830135613c3481614aed565b600060208284031215614028578081fd5b813561371081614b02565b600060208284031215614044578081fd5b815161371081614b02565b60008060008060008060008060008060006101608c8e031215614070578485fd5b6140798c613ac0565b9a5061408760208d01613ac0565b995061409560408d01613ac0565b985060608c013597506140aa60808d01613bbe565b965060a08c0135955060c08c0135945060e08c0135935067ffffffffffffffff806101008e013511156140db578182fd5b6140ec8e6101008f01358f01613b4f565b9350806101208e013511156140ff578182fd5b6141108e6101208f01358f01613b4f565b9250806101408e01351115614123578182fd5b506141358d6101408e01358e01613b4f565b90509295989b509295989b9093969950565b60008060008060008060008060006101208a8c031215614165578283fd5b61416e8a613ac0565b985061417c60208b01613ac0565b975061418a60408b01613bbe565b965060608a0135955060808a0135945060a08a0135935060c08a013567ffffffffffffffff808211156141bb578485fd5b6141c78d838e01613b4f565b945060e08c01359150808211156141dc578384fd5b6141e88d838e01613b4f565b93506101008c01359150808211156141fe578283fd5b5061420b8c828d01613b4f565b9150509295985092959850929598565b60006020828403121561422c578081fd5b5051919050565b60008060408385031215614245578182fd5b50508035926020909101359150565b6000815180845260208085019450808401835b8381101561428357815187529582019590820190600101614267565b509495945050505050565b600081518084526142a6816020860160208601614954565b601f01601f19169290920160200192915050565b8054600090600181811c90808316806142d457607f831692505b60208084108214156142f457634e487b7160e01b86526022600452602486fd5b8388526020880182801561430f57600181146143205761434b565b60ff1987168252828201975061434b565b60008981526020902060005b878110156143455781548482015290860190840161432c565b83019850505b5050505050505092915050565b60007f416363657373436f6e74726f6c3a206163636f756e742000000000000000000082528351614390816017850160208801614954565b7001034b99036b4b9b9b4b733903937b6329607d1b60179184019182015283516143c1816028840160208801614954565b01602801949350505050565b6001600160a01b0386811682528516602082015260a0604082018190526000906143f990830186614254565b828103606084015261440b8186614254565b9050828103608084015261441f818561428e565b98975050505050505050565b6001600160a01b03868116825285166020820152604081018490526060810183905260a0608082018190526000906144659083018461428e565b979650505050505050565b6001600160a01b038416815260a06020820181905260009061449490830185614254565b82810360408401526144a68185614254565b90508281038060608501528282526020810160808501525081602082015260408101915050949350505050565b6000602082526137106020830184614254565b6000604082526144f96040830185614254565b828103602084015261450b8185614254565b95945050505050565b600060208252613710602083018461428e565b6020808252602f908201527f455243313135353a2063616c6c6572206973206e6f7420746f6b656e206f776e60408201526e195c881b9bdc88185c1c1c9bdd9959608a1b606082015260800190565b60208082526028908201527f455243313135353a204552433131353552656365697665722072656a656374656040820152676420746f6b656e7360c01b606082015260800190565b60208082526029908201527f434c4d383a3a6f6e6c7941646d696e3a206d73672e73656e646572206e6f74206040820152683a34329030b236b4b760b91b606082015260800190565b60208082526046908201527f434c4d383a3a636f6e73756d65724f724465616c65723a20726563697069656e60408201527f74206d75737420626520636f6e73756d65722c206465616c6572206f7220696e60608201526564757374727960d01b608082015260a00190565b60208082526025908201527f455243313135353a207472616e7366657220746f20746865207a65726f206164604082015264647265737360d81b606082015260800190565b6020808252602a908201527f455243313135353a20696e73756666696369656e742062616c616e636520666f60408201526939103a3930b739b332b960b11b606082015260800190565b60208082526039908201527f434c4d383a3a636f6e73756d65724f724465616c65723a2073656e646572206e60408201527f6f74206120636f6e73756d6572206f722061206465616c657200000000000000606082015260800190565b600060208252825160208301526020830151614780604084018260ff169052565b5060408301516001600160a01b03811660608401525060608301516001600160a01b03811660808401525060808301516001600160a01b03811660a08401525060a083015160c083015260c083015160e083015260e08301516101008181850152808501519150506101a061012081818601526148016101c086018461428e565b9250808601519050601f19610140818786030181880152614822858461428e565b945080880151925050610160818786030181880152614841858461428e565b908801516101808881019190915290970151929095019190915250929392505050565b600084825260a0602083015261449460a0830185614254565b60006101408c83528b60208401528a604084015260ff8a1660608401528860808401528760a08401528660c08401528060e08401526148be818401876142ba565b90508281036101008401526148d381866142ba565b90508281036101208401526148e881856142ba565b9d9c50505050505050505050505050565b600067ffffffffffffffff82111561491357614913614a2e565b5060051b60200190565b6000821982111561493057614930614a18565b500190565b600081600019048311821515161561494f5761494f614a18565b500290565b60005b8381101561496f578181015183820152602001614957565b8381111561497e576000848401525b50505050565b60008161499357614993614a18565b506000190190565b600181811c908216806149af57607f821691505b6020821081141561152457634e487b7160e01b600052602260045260246000fd5b601f8201601f1916810167ffffffffffffffff811182821017156149f6576149f6614a2e565b6040525050565b6000600019821415614a1157614a11614a18565b5060010190565b634e487b7160e01b600052601160045260246000fd5b634e487b7160e01b600052604160045260246000fd5b600060033d111561133857600481823e5160e01c90565b600060443d1015614a6b57611338565b6040516003193d81016004833e81513d67ffffffffffffffff8160248401118184111715614a9d575050505050611338565b8285019150815181811115614ab757505050505050611338565b843d8701016020828501011115614ad357505050505050611338565b614ae2602082860101876149d0565b509094505050505090565b6001600160a01b038116811461264257600080fd5b6001600160e01b03198116811461264257600080fdfe8305613dd3dbc3e0773e56336f52890c75fc1219c6ed3f363339b8ada04df289ede6574deba8f02ada7888448a497b08844d62e044ed533343a673be3ffcde5f5e1aa547d3dade8c68b013a47ad41c2bcc9b9e4b0765b0fb616780e15786e76af8890eedd7900ad88da6192fd03dbb69dbeee963b1a0ed738abe49ab3331aaf32ab9f1da92e74aaa01eb75a871557505b11dd8d36832a34bb21bbee88b08d860e97dad3dbe5042e7384b1572cf966a15e089576a62b5126c5ef1d184ab18b12ca2646970667358221220bec4865d2bd427700735a9549d63ddcc74fb7049627d42bcf9803cd13e34913164736f6c63430008030033f8890eedd7900ad88da6192fd03dbb69dbeee963b1a0ed738abe49ab3331aaf3",
  "devdoc": {
    "kind": "dev",
    "methods": {
      "_consumerOrDealer(address)": {
        "details": "Returns `true` if hasRole of dealer, industry or consumer"
      },
      "balanceOf(address,uint256)": {
        "details": "See {IERC1155-balanceOf}. Requirements: - `account` cannot be the zero address."
      },
      "balanceOfBatch(address[],uint256[])": {
        "details": "See {IERC1155-balanceOfBatch}. Requirements: - `accounts` and `ids` must have the same length."
      },
      "getIssuedBy(uint256)": {
        "details": "returns issuer of a given tokenId"
      },
      "getIssuedFrom(uint256)": {
        "details": "returns issuer of a given tokenId"
      },
      "getNumOfUniqueTokens()": {
        "details": "returns number of unique tokens"
      },
      "getRoleAdmin(bytes32)": {
        "details": "Returns the admin role that controls `role`. See {grantRole} and {revokeRole}. To change a role's admin, use {_setRoleAdmin}."
      },
      "getRoles(address)": {
        "details": "Helper function for returning tuple of bools of role membership",
        "params": {
          "account": "address to check roles"
        }
      },
      "getTokenDetails(uint256)": {
        "details": "returns the details of a given tokenId, omitting holders",
        "params": {
          "tokenId": "token to check"
        }
      },
      "getTokenRetiredAmount(address,uint256)": {
        "details": "returns the retired amount on a token",
        "params": {
          "tokenId": "token to check"
        }
      },
      "getTokenType(uint256)": {
        "details": "returns the token name for the given token as a string value",
        "params": {
          "tokenId": "token to check"
        }
      },
      "grantRole(bytes32,address)": {
        "details": "Grants `role` to `account`. If `account` had not been already granted `role`, emits a {RoleGranted} event. Requirements: - the caller must have ``role``'s admin role. May emit a {RoleGranted} event."
      },
      "hasRole(bytes32,address)": {
        "details": "Returns `true` if `account` has been granted `role`."
      },
      "isApprovedForAll(address,address)": {
        "details": "See {IERC1155-isApprovedForAll}."
      },
      "isConsumerRegistered(address)": {
        "details": "returns true if Consumers's account is registered",
        "params": {
          "account": "address of the dealer"
        }
      },
      "isDealerRegistered(address)": {
        "details": "returns true if Dealer's account is registered",
        "params": {
          "account": "address of the dealer"
        }
      },
      "issue(uint160,address,uint8,uint256,uint256,uint256,string,string,string)": {
        "details": "External function to mint an amount of a token Only authorized dealer of associated token type can call this function",
        "params": {
          "quantity": "of the token to mint For ex: if one needs 100 full tokens, the caller should set the amount as (100 * 10^4) = 1,000,000 (assuming the token's decimals is set to 4)"
        }
      },
      "issueOnBehalf(address,uint160,address,uint8,uint256,uint256,uint256,string,string,string)": {
        "details": "Issue function for DAO (on limited mode) or admin to manually pass issuer Must be called from Timelock contract through a successful proposal or by admin if limited mode is set to false"
      },
      "mint(address,uint256,uint256)": {
        "details": "mints more of an existing token",
        "params": {
          "quantity": "amount to mint",
          "to": "reciepient of token",
          "tokenId": "token to mint more of"
        }
      },
      "registerConsumer(address)": {
        "details": "returns true if Consumer's account is registered for the given token",
        "params": {
          "account": "address of the consumer"
        }
      },
      "registerDealer(address,uint8)": {
        "details": "Only contract owner can register Dealers",
        "params": {
          "account": "address of the dealer to register"
        }
      },
      "registerIndustry(address)": {
        "details": "msg.sender can volunteer themselves as registered industry or other registered dealer can register Industry"
      },
      "renounceRole(bytes32,address)": {
        "details": "Revokes `role` from the calling account. Roles are often managed via {grantRole} and {revokeRole}: this function's purpose is to provide a mechanism for accounts to lose their privileges if they are compromised (such as when a trusted device is misplaced). If the calling account had been revoked `role`, emits a {RoleRevoked} event. Requirements: - the caller must be `account`. May emit a {RoleRevoked} event."
      },
      "retire(uint256,uint256)": {
        "details": "sets the token to the retire state to disable transfers, mints and burns",
        "params": {
          "tokenId": "token to set in pause state   Only contract owner can pause or resume tokens"
        }
      },
      "revokeRole(bytes32,address)": {
        "details": "Revokes `role` from `account`. If `account` had been granted `role`, emits a {RoleRevoked} event. Requirements: - the caller must have ``role``'s admin role. May emit a {RoleRevoked} event."
      },
      "safeBatchTransferFrom(address,address,uint256[],uint256[],bytes)": {
        "details": "See {IERC1155-safeBatchTransferFrom}."
      },
      "safeTransferFrom(address,address,uint256,uint256,bytes)": {
        "details": "See {IERC1155-safeTransferFrom}."
      },
      "setApprovalForAll(address,bool)": {
        "details": "See {IERC1155-setApprovalForAll}."
      },
      "setLimitedMode(bool)": {
        "details": "turns off or on limited mode",
        "params": {
          "_limitedMode": "boolean value"
        }
      },
      "transfer(address,uint256,uint256)": {
        "details": "transfers the value to the 'to' account for tokenId",
        "params": {
          "to": "recipient address",
          "tokenId": "tokenId for the transfer",
          "value": "amount of transfer Transfer can start only when both parties are registered and the token is not paused Note: Token holders can arbitrarily call safeTransferFrom() without these checks The requires commented out below have been moved to _beforeTokenTransfer hook so that they are always applied to safeTransferFrom (or safeBatch...)"
        }
      },
      "unregisterConsumer(address)": {
        "details": "Only contract owner can unregister Consumers TO-DO clarify the above - function allows any Dealer to unregister consumers. Why would we need to unregister consumers?",
        "params": {
          "account": "address to be unregistered"
        }
      },
      "unregisterDealer(address,uint8)": {
        "details": "Only contract owner can unregister Dealers",
        "params": {
          "account": "address to be unregistered"
        }
      },
      "unregisterIndustry(address)": {
        "details": "msg.sender can unvolunteer themselves as registered industry or other registered dealer can unregister Industry"
      },
      "uri(uint256)": {
        "details": "See {IERC1155MetadataURI-uri}. This implementation returns the same URI for *all* token types. It relies on the token type ID substitution mechanism https://eips.ethereum.org/EIPS/eip-1155#metadata[defined in the EIP]. Clients calling this function must replace the `\\{id\\}` substring with the actual token type ID."
      }
    },
    "version": 1
  },
  "userdoc": {
    "kind": "user",
    "methods": {},
    "version": 1
  },
  "storageLayout": {
    "storage": [
      {
        "astId": 418,
        "contract": "solidity/NetEmissionsTokenNetwork.sol:NetEmissionsTokenNetwork",
        "label": "_balances",
        "offset": 0,
        "slot": "0",
        "type": "t_mapping(t_uint256,t_mapping(t_address,t_uint256))"
      },
      {
        "astId": 424,
        "contract": "solidity/NetEmissionsTokenNetwork.sol:NetEmissionsTokenNetwork",
        "label": "_operatorApprovals",
        "offset": 0,
        "slot": "1",
        "type": "t_mapping(t_address,t_mapping(t_address,t_bool))"
      },
      {
        "astId": 426,
        "contract": "solidity/NetEmissionsTokenNetwork.sol:NetEmissionsTokenNetwork",
        "label": "_uri",
        "offset": 0,
        "slot": "2",
        "type": "t_string_storage"
      },
      {
        "astId": 24,
        "contract": "solidity/NetEmissionsTokenNetwork.sol:NetEmissionsTokenNetwork",
        "label": "_roles",
        "offset": 0,
        "slot": "3",
        "type": "t_mapping(t_bytes32,t_struct(RoleData)19_storage)"
      },
      {
        "astId": 6374,
        "contract": "solidity/NetEmissionsTokenNetwork.sol:NetEmissionsTokenNetwork",
        "label": "limitedMode",
        "offset": 0,
        "slot": "4",
        "type": "t_bool"
      },
      {
        "astId": 6376,
        "contract": "solidity/NetEmissionsTokenNetwork.sol:NetEmissionsTokenNetwork",
        "label": "timelock",
        "offset": 1,
        "slot": "4",
        "type": "t_address"
      },
      {
        "astId": 6436,
        "contract": "solidity/NetEmissionsTokenNetwork.sol:NetEmissionsTokenNetwork",
        "label": "_numOfUniqueTokens",
        "offset": 0,
        "slot": "5",
        "type": "t_struct(Counter)2201_storage"
      },
      {
        "astId": 6441,
        "contract": "solidity/NetEmissionsTokenNetwork.sol:NetEmissionsTokenNetwork",
        "label": "_tokenDetails",
        "offset": 0,
        "slot": "6",
        "type": "t_mapping(t_uint256,t_struct(CarbonTokenDetails)6433_storage)"
      },
      {
        "astId": 6447,
        "contract": "solidity/NetEmissionsTokenNetwork.sol:NetEmissionsTokenNetwork",
        "label": "_retiredBalances",
        "offset": 0,
        "slot": "7",
        "type": "t_mapping(t_uint256,t_mapping(t_address,t_uint256))"
      }
    ],
    "types": {
      "t_address": {
        "encoding": "inplace",
        "label": "address",
        "numberOfBytes": "20"
      },
      "t_bool": {
        "encoding": "inplace",
        "label": "bool",
        "numberOfBytes": "1"
      },
      "t_bytes32": {
        "encoding": "inplace",
        "label": "bytes32",
        "numberOfBytes": "32"
      },
      "t_mapping(t_address,t_bool)": {
        "encoding": "mapping",
        "key": "t_address",
        "label": "mapping(address => bool)",
        "numberOfBytes": "32",
        "value": "t_bool"
      },
      "t_mapping(t_address,t_mapping(t_address,t_bool))": {
        "encoding": "mapping",
        "key": "t_address",
        "label": "mapping(address => mapping(address => bool))",
        "numberOfBytes": "32",
        "value": "t_mapping(t_address,t_bool)"
      },
      "t_mapping(t_address,t_uint256)": {
        "encoding": "mapping",
        "key": "t_address",
        "label": "mapping(address => uint256)",
        "numberOfBytes": "32",
        "value": "t_uint256"
      },
      "t_mapping(t_bytes32,t_struct(RoleData)19_storage)": {
        "encoding": "mapping",
        "key": "t_bytes32",
        "label": "mapping(bytes32 => struct AccessControl.RoleData)",
        "numberOfBytes": "32",
        "value": "t_struct(RoleData)19_storage"
      },
      "t_mapping(t_uint256,t_mapping(t_address,t_uint256))": {
        "encoding": "mapping",
        "key": "t_uint256",
        "label": "mapping(uint256 => mapping(address => uint256))",
        "numberOfBytes": "32",
        "value": "t_mapping(t_address,t_uint256)"
      },
      "t_mapping(t_uint256,t_struct(CarbonTokenDetails)6433_storage)": {
        "encoding": "mapping",
        "key": "t_uint256",
        "label": "mapping(uint256 => struct NetEmissionsTokenNetwork.CarbonTokenDetails)",
        "numberOfBytes": "32",
        "value": "t_struct(CarbonTokenDetails)6433_storage"
      },
      "t_string_storage": {
        "encoding": "bytes",
        "label": "string",
        "numberOfBytes": "32"
      },
      "t_struct(CarbonTokenDetails)6433_storage": {
        "encoding": "inplace",
        "label": "struct NetEmissionsTokenNetwork.CarbonTokenDetails",
        "members": [
          {
            "astId": 6408,
            "contract": "solidity/NetEmissionsTokenNetwork.sol:NetEmissionsTokenNetwork",
            "label": "tokenId",
            "offset": 0,
            "slot": "0",
            "type": "t_uint256"
          },
          {
            "astId": 6410,
            "contract": "solidity/NetEmissionsTokenNetwork.sol:NetEmissionsTokenNetwork",
            "label": "tokenTypeId",
            "offset": 0,
            "slot": "1",
            "type": "t_uint8"
          },
          {
            "astId": 6412,
            "contract": "solidity/NetEmissionsTokenNetwork.sol:NetEmissionsTokenNetwork",
            "label": "issuedBy",
            "offset": 1,
            "slot": "1",
            "type": "t_address"
          },
          {
            "astId": 6414,
            "contract": "solidity/NetEmissionsTokenNetwork.sol:NetEmissionsTokenNetwork",
            "label": "issuedFrom",
            "offset": 0,
            "slot": "2",
            "type": "t_uint160"
          },
          {
            "astId": 6416,
            "contract": "solidity/NetEmissionsTokenNetwork.sol:NetEmissionsTokenNetwork",
            "label": "issuedTo",
            "offset": 0,
            "slot": "3",
            "type": "t_address"
          },
          {
            "astId": 6418,
            "contract": "solidity/NetEmissionsTokenNetwork.sol:NetEmissionsTokenNetwork",
            "label": "fromDate",
            "offset": 0,
            "slot": "4",
            "type": "t_uint256"
          },
          {
            "astId": 6420,
            "contract": "solidity/NetEmissionsTokenNetwork.sol:NetEmissionsTokenNetwork",
            "label": "thruDate",
            "offset": 0,
            "slot": "5",
            "type": "t_uint256"
          },
          {
            "astId": 6422,
            "contract": "solidity/NetEmissionsTokenNetwork.sol:NetEmissionsTokenNetwork",
            "label": "dateCreated",
            "offset": 0,
            "slot": "6",
            "type": "t_uint256"
          },
          {
            "astId": 6424,
            "contract": "solidity/NetEmissionsTokenNetwork.sol:NetEmissionsTokenNetwork",
            "label": "metadata",
            "offset": 0,
            "slot": "7",
            "type": "t_string_storage"
          },
          {
            "astId": 6426,
            "contract": "solidity/NetEmissionsTokenNetwork.sol:NetEmissionsTokenNetwork",
            "label": "manifest",
            "offset": 0,
            "slot": "8",
            "type": "t_string_storage"
          },
          {
            "astId": 6428,
            "contract": "solidity/NetEmissionsTokenNetwork.sol:NetEmissionsTokenNetwork",
            "label": "description",
            "offset": 0,
            "slot": "9",
            "type": "t_string_storage"
          },
          {
            "astId": 6430,
            "contract": "solidity/NetEmissionsTokenNetwork.sol:NetEmissionsTokenNetwork",
            "label": "totalIssued",
            "offset": 0,
            "slot": "10",
            "type": "t_uint256"
          },
          {
            "astId": 6432,
            "contract": "solidity/NetEmissionsTokenNetwork.sol:NetEmissionsTokenNetwork",
            "label": "totalRetired",
            "offset": 0,
            "slot": "11",
            "type": "t_uint256"
          }
        ],
        "numberOfBytes": "384"
      },
      "t_struct(Counter)2201_storage": {
        "encoding": "inplace",
        "label": "struct Counters.Counter",
        "members": [
          {
            "astId": 2200,
            "contract": "solidity/NetEmissionsTokenNetwork.sol:NetEmissionsTokenNetwork",
            "label": "_value",
            "offset": 0,
            "slot": "0",
            "type": "t_uint256"
          }
        ],
        "numberOfBytes": "32"
      },
      "t_struct(RoleData)19_storage": {
        "encoding": "inplace",
        "label": "struct AccessControl.RoleData",
        "members": [
          {
            "astId": 16,
            "contract": "solidity/NetEmissionsTokenNetwork.sol:NetEmissionsTokenNetwork",
            "label": "members",
            "offset": 0,
            "slot": "0",
            "type": "t_mapping(t_address,t_bool)"
          },
          {
            "astId": 18,
            "contract": "solidity/NetEmissionsTokenNetwork.sol:NetEmissionsTokenNetwork",
            "label": "adminRole",
            "offset": 0,
            "slot": "1",
            "type": "t_bytes32"
          }
        ],
        "numberOfBytes": "64"
      },
      "t_uint160": {
        "encoding": "inplace",
        "label": "uint160",
        "numberOfBytes": "20"
      },
      "t_uint256": {
        "encoding": "inplace",
        "label": "uint256",
        "numberOfBytes": "32"
      },
      "t_uint8": {
        "encoding": "inplace",
        "label": "uint8",
        "numberOfBytes": "1"
      }
    }
  }
}