{
  "_format": "hh-sol-artifact-1",
  "contractName": "CarbonTracker",
  "sourceName": "solidity/CarbonTracker.sol",
  "abi": [
    {
      "inputs": [
        {
          "internalType": "address",
          "name": "_net",
          "type": "address"
        },
        {
          "internalType": "address",
          "name": "_admin",
          "type": "address"
        }
      ],
      "stateMutability": "nonpayable",
      "type": "constructor"
    },
    {
      "anonymous": false,
      "inputs": [
        {
          "indexed": true,
          "internalType": "address",
          "name": "account",
          "type": "address"
        },
        {
          "indexed": true,
          "internalType": "address",
          "name": "operator",
          "type": "address"
        },
        {
          "indexed": false,
          "internalType": "bool",
          "name": "approved",
          "type": "bool"
        }
      ],
      "name": "ApprovalForAll",
      "type": "event"
    },
    {
      "anonymous": false,
      "inputs": [
        {
          "indexed": true,
          "internalType": "address",
          "name": "receiver",
          "type": "address"
        },
        {
          "indexed": false,
          "internalType": "bool",
          "name": "approve",
          "type": "bool"
        },
        {
          "indexed": false,
          "internalType": "uint256",
          "name": "date",
          "type": "uint256"
        }
      ],
      "name": "ApproveProductTransfer",
      "type": "event"
    },
    {
      "anonymous": false,
      "inputs": [
        {
          "indexed": true,
          "internalType": "bytes32",
          "name": "role",
          "type": "bytes32"
        },
        {
          "indexed": true,
          "internalType": "bytes32",
          "name": "previousAdminRole",
          "type": "bytes32"
        },
        {
          "indexed": true,
          "internalType": "bytes32",
          "name": "newAdminRole",
          "type": "bytes32"
        }
      ],
      "name": "RoleAdminChanged",
      "type": "event"
    },
    {
      "anonymous": false,
      "inputs": [
        {
          "indexed": true,
          "internalType": "bytes32",
          "name": "role",
          "type": "bytes32"
        },
        {
          "indexed": true,
          "internalType": "address",
          "name": "account",
          "type": "address"
        },
        {
          "indexed": true,
          "internalType": "address",
          "name": "sender",
          "type": "address"
        }
      ],
      "name": "RoleGranted",
      "type": "event"
    },
    {
      "anonymous": false,
      "inputs": [
        {
          "indexed": true,
          "internalType": "bytes32",
          "name": "role",
          "type": "bytes32"
        },
        {
          "indexed": true,
          "internalType": "address",
          "name": "account",
          "type": "address"
        },
        {
          "indexed": true,
          "internalType": "address",
          "name": "sender",
          "type": "address"
        }
      ],
      "name": "RoleRevoked",
      "type": "event"
    },
    {
      "anonymous": false,
      "inputs": [
        {
          "indexed": true,
          "internalType": "uint256",
          "name": "trackerId",
          "type": "uint256"
        },
        {
          "indexed": true,
          "internalType": "address",
          "name": "operator",
          "type": "address"
        },
        {
          "indexed": false,
          "internalType": "uint256[]",
          "name": "tokenIds",
          "type": "uint256[]"
        },
        {
          "indexed": false,
          "internalType": "uint256[]",
          "name": "tokenAmounts",
          "type": "uint256[]"
        }
      ],
      "name": "TrackerEvent",
      "type": "event"
    },
    {
      "anonymous": false,
      "inputs": [
        {
          "indexed": true,
          "internalType": "address",
          "name": "operator",
          "type": "address"
        },
        {
          "indexed": true,
          "internalType": "address",
          "name": "from",
          "type": "address"
        },
        {
          "indexed": true,
          "internalType": "address",
          "name": "to",
          "type": "address"
        },
        {
          "indexed": false,
          "internalType": "uint256[]",
          "name": "ids",
          "type": "uint256[]"
        },
        {
          "indexed": false,
          "internalType": "uint256[]",
          "name": "values",
          "type": "uint256[]"
        }
      ],
      "name": "TransferBatch",
      "type": "event"
    },
    {
      "anonymous": false,
      "inputs": [
        {
          "indexed": true,
          "internalType": "address",
          "name": "sender",
          "type": "address"
        },
        {
          "indexed": false,
          "internalType": "uint256[]",
          "name": "productIds",
          "type": "uint256[]"
        },
        {
          "indexed": false,
          "internalType": "uint256[]",
          "name": "productAmounts",
          "type": "uint256[]"
        }
      ],
      "name": "TransferProducts",
      "type": "event"
    },
    {
      "anonymous": false,
      "inputs": [
        {
          "indexed": true,
          "internalType": "address",
          "name": "operator",
          "type": "address"
        },
        {
          "indexed": true,
          "internalType": "address",
          "name": "from",
          "type": "address"
        },
        {
          "indexed": true,
          "internalType": "address",
          "name": "to",
          "type": "address"
        },
        {
          "indexed": false,
          "internalType": "uint256",
          "name": "id",
          "type": "uint256"
        },
        {
          "indexed": false,
          "internalType": "uint256",
          "name": "value",
          "type": "uint256"
        }
      ],
      "name": "TransferSingle",
      "type": "event"
    },
    {
      "anonymous": false,
      "inputs": [
        {
          "indexed": false,
          "internalType": "string",
          "name": "value",
          "type": "string"
        },
        {
          "indexed": true,
          "internalType": "uint256",
          "name": "id",
          "type": "uint256"
        }
      ],
      "name": "URI",
      "type": "event"
    },
    {
      "anonymous": false,
      "inputs": [
        {
          "indexed": true,
          "internalType": "address",
          "name": "auditor",
          "type": "address"
        },
        {
          "indexed": true,
          "internalType": "address",
          "name": "trackee",
          "type": "address"
        },
        {
          "indexed": false,
          "internalType": "bool",
          "name": "approve",
          "type": "bool"
        },
        {
          "indexed": false,
          "internalType": "uint256",
          "name": "date",
          "type": "uint256"
        }
      ],
      "name": "VerifierApproval",
      "type": "event"
    },
    {
      "inputs": [],
      "name": "DEFAULT_ADMIN_ROLE",
      "outputs": [
        {
          "internalType": "bytes32",
          "name": "",
          "type": "bytes32"
        }
      ],
      "stateMutability": "view",
      "type": "function"
    },
    {
      "inputs": [
        {
          "internalType": "uint256",
          "name": "",
          "type": "uint256"
        }
      ],
      "name": "_productData",
      "outputs": [
        {
          "internalType": "uint256",
          "name": "tokenId",
          "type": "uint256"
        },
        {
          "internalType": "uint256",
          "name": "productId",
          "type": "uint256"
        },
        {
          "internalType": "uint256",
          "name": "trackerId",
          "type": "uint256"
        },
        {
          "internalType": "uint256",
          "name": "issued",
          "type": "uint256"
        },
        {
          "internalType": "uint256",
          "name": "available",
          "type": "uint256"
        }
      ],
      "stateMutability": "view",
      "type": "function"
    },
    {
      "inputs": [
        {
          "internalType": "uint256",
          "name": "",
          "type": "uint256"
        },
        {
          "internalType": "address",
          "name": "",
          "type": "address"
        }
      ],
      "name": "_retiredBalances",
      "outputs": [
        {
          "internalType": "uint256",
          "name": "",
          "type": "uint256"
        }
      ],
      "stateMutability": "view",
      "type": "function"
    },
    {
      "inputs": [
        {
          "internalType": "uint256",
          "name": "",
          "type": "uint256"
        }
      ],
      "name": "_tokenDetails",
      "outputs": [
        {
          "internalType": "uint256",
          "name": "tokenId",
          "type": "uint256"
        },
        {
          "internalType": "uint8",
          "name": "tokenTypeId",
          "type": "uint8"
        },
        {
          "internalType": "uint256",
          "name": "sourceId",
          "type": "uint256"
        },
        {
          "internalType": "address",
          "name": "issuedBy",
          "type": "address"
        },
        {
          "internalType": "address",
          "name": "issuedFrom",
          "type": "address"
        },
        {
          "internalType": "uint256",
          "name": "totalRetired",
          "type": "uint256"
        },
        {
          "internalType": "string",
          "name": "metadata",
          "type": "string"
        },
        {
          "internalType": "string",
          "name": "manifest",
          "type": "string"
        }
      ],
      "stateMutability": "view",
      "type": "function"
    },
    {
      "inputs": [
        {
          "internalType": "address",
          "name": "",
          "type": "address"
        }
      ],
      "name": "approveProductTransfer",
      "outputs": [
        {
          "internalType": "bool",
          "name": "",
          "type": "bool"
        }
      ],
      "stateMutability": "view",
      "type": "function"
    },
    {
      "inputs": [
        {
          "internalType": "address",
          "name": "verifier",
          "type": "address"
        },
        {
          "internalType": "bool",
          "name": "approve",
          "type": "bool"
        }
      ],
      "name": "approveVerifier",
      "outputs": [],
      "stateMutability": "nonpayable",
      "type": "function"
    },
    {
      "inputs": [
        {
          "internalType": "address",
          "name": "account",
          "type": "address"
        },
        {
          "internalType": "uint256",
          "name": "id",
          "type": "uint256"
        }
      ],
      "name": "balanceOf",
      "outputs": [
        {
          "internalType": "uint256",
          "name": "",
          "type": "uint256"
        }
      ],
      "stateMutability": "view",
      "type": "function"
    },
    {
      "inputs": [
        {
          "internalType": "address[]",
          "name": "accounts",
          "type": "address[]"
        },
        {
          "internalType": "uint256[]",
          "name": "ids",
          "type": "uint256[]"
        }
      ],
      "name": "balanceOfBatch",
      "outputs": [
        {
          "internalType": "uint256[]",
          "name": "",
          "type": "uint256[]"
        }
      ],
      "stateMutability": "view",
      "type": "function"
    },
    {
      "inputs": [],
      "name": "decimalsCt",
      "outputs": [
        {
          "internalType": "uint256",
          "name": "",
          "type": "uint256"
        }
      ],
      "stateMutability": "view",
      "type": "function"
    },
    {
      "inputs": [],
      "name": "getNumOfUniqueProducts",
      "outputs": [
        {
          "internalType": "uint256",
          "name": "",
          "type": "uint256"
        }
      ],
      "stateMutability": "view",
      "type": "function"
    },
    {
      "inputs": [],
      "name": "getNumOfUniqueTokens",
      "outputs": [
        {
          "internalType": "uint256",
          "name": "",
          "type": "uint256"
        }
      ],
      "stateMutability": "view",
      "type": "function"
    },
    {
      "inputs": [],
      "name": "getNumOfUniqueTrackers",
      "outputs": [
        {
          "internalType": "uint256",
          "name": "",
          "type": "uint256"
        }
      ],
      "stateMutability": "view",
      "type": "function"
    },
    {
      "inputs": [
        {
          "internalType": "bytes32",
          "name": "role",
          "type": "bytes32"
        }
      ],
      "name": "getRoleAdmin",
      "outputs": [
        {
          "internalType": "bytes32",
          "name": "",
          "type": "bytes32"
        }
      ],
      "stateMutability": "view",
      "type": "function"
    },
    {
      "inputs": [
        {
          "internalType": "uint256",
          "name": "trackerId",
          "type": "uint256"
        }
      ],
      "name": "getTrackerDetails",
      "outputs": [
        {
          "components": [
            {
              "internalType": "uint256",
              "name": "tokenId",
              "type": "uint256"
            },
            {
              "internalType": "uint256",
              "name": "trackerId",
              "type": "uint256"
            },
            {
              "internalType": "address",
              "name": "trackee",
              "type": "address"
            },
            {
              "internalType": "uint256",
              "name": "totalProductAmounts",
              "type": "uint256"
            }
          ],
          "internalType": "struct Tracker.CarbonTrackerDetails",
          "name": "",
          "type": "tuple"
        },
        {
          "internalType": "uint256[]",
          "name": "",
          "type": "uint256[]"
        },
        {
          "internalType": "uint256[]",
          "name": "",
          "type": "uint256[]"
        },
        {
          "components": [
            {
              "internalType": "uint256",
              "name": "rec",
              "type": "uint256"
            },
            {
              "internalType": "uint256",
              "name": "offsets",
              "type": "uint256"
            },
            {
              "internalType": "uint256",
              "name": "emissions",
              "type": "uint256"
            }
          ],
          "internalType": "struct Tracker.NetTotals",
          "name": "",
          "type": "tuple"
        }
      ],
      "stateMutability": "view",
      "type": "function"
    },
    {
      "inputs": [
        {
          "internalType": "address",
          "name": "_from",
          "type": "address"
        },
        {
          "internalType": "address",
          "name": "_to",
          "type": "address"
        },
        {
          "internalType": "uint256[]",
          "name": "_ids",
          "type": "uint256[]"
        },
        {
          "internalType": "uint256[]",
          "name": "_amounts",
          "type": "uint256[]"
        }
      ],
      "name": "getTransferHash",
      "outputs": [
        {
          "internalType": "bytes32",
          "name": "",
          "type": "bytes32"
        }
      ],
      "stateMutability": "view",
      "type": "function"
    },
    {
      "inputs": [
        {
          "internalType": "bytes32",
          "name": "role",
          "type": "bytes32"
        },
        {
          "internalType": "address",
          "name": "account",
          "type": "address"
        }
      ],
      "name": "grantRole",
      "outputs": [],
      "stateMutability": "nonpayable",
      "type": "function"
    },
    {
      "inputs": [
        {
          "internalType": "bytes32",
          "name": "role",
          "type": "bytes32"
        },
        {
          "internalType": "address",
          "name": "account",
          "type": "address"
        }
      ],
      "name": "hasRole",
      "outputs": [
        {
          "internalType": "bool",
          "name": "",
          "type": "bool"
        }
      ],
      "stateMutability": "view",
      "type": "function"
    },
    {
      "inputs": [
        {
          "internalType": "address",
          "name": "account",
          "type": "address"
        },
        {
          "internalType": "address",
          "name": "operator",
          "type": "address"
        }
      ],
      "name": "isApprovedForAll",
      "outputs": [
        {
          "internalType": "bool",
          "name": "",
          "type": "bool"
        }
      ],
      "stateMutability": "view",
      "type": "function"
    },
    {
      "inputs": [
        {
          "internalType": "uint256",
          "name": "trackerId",
          "type": "uint256"
        }
      ],
      "name": "issue",
      "outputs": [],
      "stateMutability": "nonpayable",
      "type": "function"
    },
    {
      "inputs": [
        {
          "internalType": "uint256",
          "name": "trackerId",
          "type": "uint256"
        },
        {
          "internalType": "uint256[]",
          "name": "productIds",
          "type": "uint256[]"
        },
        {
          "internalType": "uint256[]",
          "name": "productAmounts",
          "type": "uint256[]"
        },
        {
          "internalType": "string[]",
          "name": "metadata",
          "type": "string[]"
        },
        {
          "internalType": "string[]",
          "name": "manifests",
          "type": "string[]"
        }
      ],
      "name": "issueProducts",
      "outputs": [],
      "stateMutability": "nonpayable",
      "type": "function"
    },
    {
      "inputs": [],
      "name": "net",
      "outputs": [
        {
          "internalType": "contract NetEmissionsTokenNetwork",
          "name": "",
          "type": "address"
        }
      ],
      "stateMutability": "view",
      "type": "function"
    },
    {
      "inputs": [],
      "name": "netAddress",
      "outputs": [
        {
          "internalType": "address",
          "name": "",
          "type": "address"
        }
      ],
      "stateMutability": "view",
      "type": "function"
    },
    {
      "inputs": [
        {
          "internalType": "address",
          "name": "",
          "type": "address"
        },
        {
          "internalType": "address",
          "name": "",
          "type": "address"
        },
        {
          "internalType": "uint256[]",
          "name": "",
          "type": "uint256[]"
        },
        {
          "internalType": "uint256[]",
          "name": "",
          "type": "uint256[]"
        },
        {
          "internalType": "bytes",
          "name": "",
          "type": "bytes"
        }
      ],
      "name": "onERC1155BatchReceived",
      "outputs": [
        {
          "internalType": "bytes4",
          "name": "",
          "type": "bytes4"
        }
      ],
      "stateMutability": "nonpayable",
      "type": "function"
    },
    {
      "inputs": [
        {
          "internalType": "address",
          "name": "",
          "type": "address"
        },
        {
          "internalType": "address",
          "name": "",
          "type": "address"
        },
        {
          "internalType": "uint256",
          "name": "",
          "type": "uint256"
        },
        {
          "internalType": "uint256",
          "name": "",
          "type": "uint256"
        },
        {
          "internalType": "bytes",
          "name": "",
          "type": "bytes"
        }
      ],
      "name": "onERC1155Received",
      "outputs": [
        {
          "internalType": "bytes4",
          "name": "",
          "type": "bytes4"
        }
      ],
      "stateMutability": "nonpayable",
      "type": "function"
    },
    {
      "inputs": [
        {
          "internalType": "bytes32",
          "name": "role",
          "type": "bytes32"
        },
        {
          "internalType": "address",
          "name": "account",
          "type": "address"
        }
      ],
      "name": "renounceRole",
      "outputs": [],
      "stateMutability": "nonpayable",
      "type": "function"
    },
    {
      "inputs": [
        {
          "internalType": "bytes32",
          "name": "role",
          "type": "bytes32"
        },
        {
          "internalType": "address",
          "name": "account",
          "type": "address"
        }
      ],
      "name": "revokeRole",
      "outputs": [],
      "stateMutability": "nonpayable",
      "type": "function"
    },
    {
      "inputs": [
        {
          "internalType": "address",
          "name": "from",
          "type": "address"
        },
        {
          "internalType": "address",
          "name": "to",
          "type": "address"
        },
        {
          "internalType": "uint256[]",
          "name": "ids",
          "type": "uint256[]"
        },
        {
          "internalType": "uint256[]",
          "name": "amounts",
          "type": "uint256[]"
        },
        {
          "internalType": "bytes",
          "name": "data",
          "type": "bytes"
        }
      ],
      "name": "safeBatchTransferFrom",
      "outputs": [],
      "stateMutability": "nonpayable",
      "type": "function"
    },
    {
      "inputs": [
        {
          "internalType": "address",
          "name": "from",
          "type": "address"
        },
        {
          "internalType": "address",
          "name": "to",
          "type": "address"
        },
        {
          "internalType": "uint256",
          "name": "id",
          "type": "uint256"
        },
        {
          "internalType": "uint256",
          "name": "amount",
          "type": "uint256"
        },
        {
          "internalType": "bytes",
          "name": "data",
          "type": "bytes"
        }
      ],
      "name": "safeTransferFrom",
      "outputs": [],
      "stateMutability": "nonpayable",
      "type": "function"
    },
    {
      "inputs": [
        {
          "internalType": "address",
          "name": "operator",
          "type": "address"
        },
        {
          "internalType": "bool",
          "name": "approved",
          "type": "bool"
        }
      ],
      "name": "setApprovalForAll",
      "outputs": [],
      "stateMutability": "nonpayable",
      "type": "function"
    },
    {
      "inputs": [
        {
          "internalType": "bool",
          "name": "approve",
          "type": "bool"
        }
      ],
      "name": "setApproveProductTransfer",
      "outputs": [],
      "stateMutability": "nonpayable",
      "type": "function"
    },
    {
      "inputs": [
        {
          "internalType": "bool",
          "name": "approve",
          "type": "bool"
        }
      ],
      "name": "setApprovedAuditorsOnly",
      "outputs": [],
      "stateMutability": "nonpayable",
      "type": "function"
    },
    {
      "inputs": [
        {
          "internalType": "bytes4",
          "name": "interfaceId",
          "type": "bytes4"
        }
      ],
      "name": "supportsInterface",
      "outputs": [
        {
          "internalType": "bool",
          "name": "",
          "type": "bool"
        }
      ],
      "stateMutability": "view",
      "type": "function"
    },
    {
      "inputs": [
        {
          "internalType": "address",
          "name": "trackee",
          "type": "address"
        },
        {
          "internalType": "uint256[]",
          "name": "netIds",
          "type": "uint256[]"
        },
        {
          "internalType": "uint256[]",
          "name": "netAmounts",
          "type": "uint256[]"
        },
        {
          "internalType": "string",
          "name": "metadata",
          "type": "string"
        },
        {
          "internalType": "string",
          "name": "manifest",
          "type": "string"
        }
      ],
      "name": "track",
      "outputs": [],
      "stateMutability": "nonpayable",
      "type": "function"
    },
    {
      "inputs": [
        {
          "internalType": "uint256",
          "name": "trackerId",
          "type": "uint256"
        },
        {
          "internalType": "uint256",
          "name": "productId",
          "type": "uint256"
        },
        {
          "internalType": "uint256",
          "name": "productAmount",
          "type": "uint256"
        }
      ],
      "name": "trackProduct",
      "outputs": [],
      "stateMutability": "nonpayable",
      "type": "function"
    },
    {
      "inputs": [
        {
          "internalType": "uint256",
          "name": "trackerId",
          "type": "uint256"
        },
        {
          "internalType": "uint256[]",
          "name": "netIds",
          "type": "uint256[]"
        },
        {
          "internalType": "uint256[]",
          "name": "netAmounts",
          "type": "uint256[]"
        },
        {
          "internalType": "string",
          "name": "metadata",
          "type": "string"
        },
        {
          "internalType": "string",
          "name": "manifest",
          "type": "string"
        }
      ],
      "name": "trackUpdate",
      "outputs": [],
      "stateMutability": "nonpayable",
      "type": "function"
    },
    {
      "inputs": [
        {
          "internalType": "uint256[]",
          "name": "ids",
          "type": "uint256[]"
        },
        {
          "internalType": "uint256[]",
          "name": "amounts",
          "type": "uint256[]"
        },
        {
          "internalType": "address",
          "name": "to",
          "type": "address"
        },
        {
          "internalType": "bytes",
          "name": "data",
          "type": "bytes"
        }
      ],
      "name": "transferProducts",
      "outputs": [],
      "stateMutability": "nonpayable",
      "type": "function"
    },
    {
      "inputs": [
        {
          "internalType": "uint256",
          "name": "",
          "type": "uint256"
        }
      ],
      "name": "uri",
      "outputs": [
        {
          "internalType": "string",
          "name": "",
          "type": "string"
        }
      ],
      "stateMutability": "view",
      "type": "function"
    }
  ],
  "bytecode": "0x60806040523480156200001157600080fd5b50604051620060743803806200607483398101604081905262000034916200021f565b6040805160208101909152600081526200004e8162000096565b50600580546001600160a01b0384166001600160a01b03199182168117909255600480549091169091179055620f42406013556200008e600082620000af565b505062000293565b8051620000ab9060029060208401906200015c565b5050565b60008281526003602090815260408083206001600160a01b0385168452909152902054620000ab908390839060ff16620000ab5760008281526003602090815260408083206001600160a01b03851684529091529020805460ff19166001179055620001183390565b6001600160a01b0316816001600160a01b0316837f2f8788117e7eff1d82e926ec794901d17c78024a50270940304540a733656f0d60405160405180910390a45050565b8280546200016a9062000256565b90600052602060002090601f0160209004810192826200018e5760008555620001d9565b82601f10620001a957805160ff1916838001178555620001d9565b82800160010185558215620001d9579182015b82811115620001d9578251825591602001919060010190620001bc565b50620001e7929150620001eb565b5090565b5b80821115620001e75760008155600101620001ec565b80516001600160a01b03811681146200021a57600080fd5b919050565b6000806040838503121562000232578182fd5b6200023d8362000202565b91506200024d6020840162000202565b90509250929050565b600181811c908216806200026b57607f821691505b602082108114156200028d57634e487b7160e01b600052602260045260246000fd5b50919050565b615dd180620002a36000396000f3fe608060405234801561001057600080fd5b50600436106102265760003560e01c80638a59a93511610130578063c2fff4a5116100b8578063e985e9c51161007c578063e985e9c514610567578063f01b4be2146105a3578063f23a6e61146105b6578063f242432a146105d5578063f455297e146105e857610226565b8063c2fff4a5146104fa578063cc872b6614610525578063d547741f14610538578063e54a96461461054b578063e8632d961461055e57610226565b8063a7a60de5116100ff578063a7a60de514610481578063a7d6619d14610489578063b78bcc3b1461049c578063bc197c81146104af578063c0e6f4f3146104e757610226565b80638a59a9351461043057806391d1485414610453578063a217fddf14610466578063a22cb4651461046e57610226565b80633abb340f116101b35780635ddb368f116101825780635ddb368f146103d35780637aab1b88146103db5780637c7768d6146103ee57806380d681e5146103f657806385f7229a1461040957610226565b80633abb340f146103285780633c81346f1461038d5780634bf83fa9146103a05780634e1273f4146103b357610226565b8063248a9ca3116101fa578063248a9ca3146102a95780632eb2c2d6146102cc5780632f2ff15d146102df57806332add611146102f257806336568abe1461031557610226565b8062fdd58e1461022b57806301ffc9a7146102515780630e89341c14610274578063135f044814610294575b600080fd5b61023e6102393660046151dc565b610613565b6040519081526020015b60405180910390f35b61026461025f3660046153c9565b6106a9565b6040519015158152602001610248565b61028761028236600461538f565b6106d6565b6040516102489190615755565b6102a76102a2366004615401565b61076a565b005b61023e6102b736600461538f565b60009081526003602052604090206001015490565b6102a76102da366004615016565b611219565b6102a76102ed3660046153a7565b611265565b610264610300366004614f49565b60126020526000908152604090205460ff1681565b6102a76103233660046153a7565b61128f565b61036561033636600461538f565b600a60205260009081526040902080546001820154600283015460038401546004909401549293919290919085565b604080519586526020860194909452928401919091526060830152608082015260a001610248565b6102a761039b3660046154a5565b61130d565b6102a76103ae366004615357565b6113ee565b6103c66103c1366004615205565b6114ec565b604051610248919061571d565b61023e61164d565b61023e6103e9366004614f95565b61165e565b61023e6116a9565b6102a76104043660046154fc565b6116b4565b61041c61041736600461538f565b611a1d565b604051610248989796959493929190615a9f565b61044361043e36600461538f565b611b84565b6040516102489493929190615a22565b6102646104613660046153a7565b611d58565b61023e600081565b6102a761047c3660046151a6565b611d83565b61023e611d8e565b6102a76104973660046151a6565b611d99565b6102a76104aa366004615357565b612022565b6104ce6104bd366004615016565b63bc197c8160e01b95945050505050565b6040516001600160e01b03199091168152602001610248565b6102a76104f53660046152cf565b6120db565b60055461050d906001600160a01b031681565b6040516001600160a01b039091168152602001610248565b6102a761053336600461538f565b61245f565b6102a76105463660046153a7565b61256b565b60045461050d906001600160a01b031681565b61023e60135481565b610264610575366004614f63565b6001600160a01b03918216600090815260016020908152604080832093909416825291909152205460ff1690565b6102a76105b136600461511d565b612590565b6104ce6105c43660046150bb565b63f23a6e6160e01b95945050505050565b6102a76105e33660046150bb565b612702565b61023e6105f63660046153a7565b600760209081526000928352604080842090915290825290205481565b60006001600160a01b0383166106835760405162461bcd60e51b815260206004820152602a60248201527f455243313135353a2061646472657373207a65726f206973206e6f742061207660448201526930b634b21037bbb732b960b11b60648201526084015b60405180910390fd5b506000908152602081815260408083206001600160a01b03949094168352929052205490565b60006001600160e01b03198216637965db0b60e01b14806106ce57506106ce82612747565b90505b919050565b6060600280546106e590615bfd565b80601f016020809104026020016040519081016040528092919081815260200182805461071190615bfd565b801561075e5780601f106107335761010080835404028352916020019161075e565b820191906000526020600020905b81548152906001019060200180831161074157829003601f168201915b50505050509050919050565b60008581526008602052604090205485906107849061276c565b600081815260086020908152604080832054835260069091529020600301546001600160a01b0316156107c95760405162461bcd60e51b815260040161067a906159d0565b60008681526008602052604090206002015486906107ef906001600160a01b03166127dd565b61080b5760405162461bcd60e51b815260040161067a90615961565b600087815260086020526040902086518651146108aa5760405162461bcd60e51b815260206004820152605160248201527f434c4d383a3a697373756550726f64756374733a2070726f647563744964732060448201527f616e642070726f64756374416d6f756e74732061727261797320617265206e6f6064820152700e840e8d0ca40e6c2daca40d8cadccee8d607b1b608482015260a40161067a565b84518651146109355760405162461bcd60e51b815260206004820152604b60248201527f434c4d383a3a697373756550726f64756374733a2070726f647563744964732060448201527f616e64206d657461646174612061727261797320617265206e6f74207468652060648201526a0e6c2daca40d8cadccee8d60ab1b608482015260a40161067a565b83518651146109c05760405162461bcd60e51b815260206004820152604b60248201527f434c4d383a3a697373756550726f64756374733a2070726f647563744964732060448201527f616e64206d616e69666573742061727261797320617265206e6f74207468652060648201526a0e6c2daca40d8cadccee8d60ab1b608482015260a40161067a565b60005b865181101561120e578781815181106109ec57634e487b7160e01b600052603260045260246000fd5b602002602001015160001415610bda57610a0a600d80546001019055565b600d54888281518110610a2d57634e487b7160e01b600052603260045260246000fd5b602002602001018181525050610ae633333060028b8681518110610a6157634e487b7160e01b600052603260045260246000fd5b60200260200101518d8781518110610a8957634e487b7160e01b600052603260045260246000fd5b60200260200101518c8881518110610ab157634e487b7160e01b600052603260045260246000fd5b60200260200101518c8981518110610ad957634e487b7160e01b600052603260045260246000fd5b6020026020010151612966565b600b54600a60008a8481518110610b0d57634e487b7160e01b600052603260045260246000fd5b6020026020010151815260200190815260200160002060000181905550878181518110610b4a57634e487b7160e01b600052603260045260246000fd5b6020026020010151600a60008a8481518110610b7657634e487b7160e01b600052603260045260246000fd5b602002602001015181526020019081526020016000206001018190555088600a60008a8481518110610bb857634e487b7160e01b600052603260045260246000fd5b60200260200101518152602001908152602001600020600201819055506110e7565b610c20600a60008a8481518110610c0157634e487b7160e01b600052603260045260246000fd5b602002602001015181526020019081526020016000206000015461276c565b336001600160a01b031660066000600a60008c8681518110610c5257634e487b7160e01b600052603260045260246000fd5b6020026020010151815260200190815260200160002060000154815260200190815260200160002060030160009054906101000a90046001600160a01b03166001600160a01b031614610d225760405162461bcd60e51b815260206004820152604c60248201527f434c4d383a3a697373756550726f64756374733a206d73672e73656e6465722060448201527f617474656d707420746f206d6f646966792070726f647563744964206974206460648201526b6964206e6f7420697373756560a01b608482015260a40161067a565b600a6000898381518110610d4657634e487b7160e01b600052603260045260246000fd5b6020026020010151815260200190815260200160002060030154878281518110610d8057634e487b7160e01b600052603260045260246000fd5b60200260200101511115610e6157610e5c30600a60008b8581518110610db657634e487b7160e01b600052603260045260246000fd5b6020026020010151815260200190815260200160002060000154610e47600a60008d8781518110610df757634e487b7160e01b600052603260045260246000fd5b60200260200101518152602001908152602001600020600301548b8681518110610e3157634e487b7160e01b600052603260045260246000fd5b6020026020010151612ace90919063ffffffff16565b60405180602001604052806000815250612ae1565b610f09565b610f0930898381518110610e8557634e487b7160e01b600052603260045260246000fd5b6020026020010151610f048a8581518110610eb057634e487b7160e01b600052603260045260246000fd5b6020026020010151600a60008e8881518110610edc57634e487b7160e01b600052603260045260246000fd5b6020026020010151815260200190815260200160002060030154612ace90919063ffffffff16565b612bfb565b610f5d600a60008a8481518110610f3057634e487b7160e01b600052603260045260246000fd5b60200260200101518152602001908152602001600020600301548360030154612ace90919063ffffffff16565b82600301819055506000868281518110610f8757634e487b7160e01b600052603260045260246000fd5b602002602001015151111561102657858181518110610fb657634e487b7160e01b600052603260045260246000fd5b602002602001015160066000600a60008c8681518110610fe657634e487b7160e01b600052603260045260246000fd5b602002602001015181526020019081526020016000206000015481526020019081526020016000206006019080519060200190611024929190614d3d565b505b600085828151811061104857634e487b7160e01b600052603260045260246000fd5b60200260200101515111156110e75784818151811061107757634e487b7160e01b600052603260045260246000fd5b602002602001015160066000600a60008c86815181106110a757634e487b7160e01b600052603260045260246000fd5b6020026020010151815260200190815260200160002060000154815260200190815260200160002060070190805190602001906110e5929190614d3d565b505b86818151811061110757634e487b7160e01b600052603260045260246000fd5b6020026020010151600a60008a848151811061113357634e487b7160e01b600052603260045260246000fd5b602002602001015181526020019081526020016000206003018190555086818151811061117057634e487b7160e01b600052603260045260246000fd5b6020026020010151600a60008a848151811061119c57634e487b7160e01b600052603260045260246000fd5b60200260200101518152602001908152602001600020600401819055506111f78782815181106111dc57634e487b7160e01b600052603260045260246000fd5b60200260200101518360030154612d8b90919063ffffffff16565b60038301558061120681615c64565b9150506109c3565b505050505050505050565b6001600160a01b03851633148061123557506112358533610575565b6112515760405162461bcd60e51b815260040161067a90615768565b61125e8585858585612d97565b5050505050565b60008281526003602052604090206001015461128081612f96565b61128a8383612fa0565b505050565b6001600160a01b03811633146112ff5760405162461bcd60e51b815260206004820152602f60248201527f416363657373436f6e74726f6c3a2063616e206f6e6c792072656e6f756e636560448201526e103937b632b9903337b91039b2b63360891b606482015260840161067a565b6113098282613026565b5050565b60008581526008602052604090205485906113279061276c565b600081815260086020908152604080832054835260069091529020600301546001600160a01b03161561136c5760405162461bcd60e51b815260040161067a906159d0565b8251156113a35760008681526008602090815260408083205483526006808352922085516113a1939190910191860190614d3d565b505b8151156113db5760008681526008602090815260408083205483526006825290912083516113d992600790920191850190614d3d565b505b6113e686868661308d565b505050505050565b33801561148e5760055460405163fc0bbce360e01b81526001600160a01b0383811660048301529091169063fc0bbce39060240160206040518083038186803b15801561143a57600080fd5b505afa15801561144e573d6000803e3d6000fd5b505050506040513d601f19601f820116820180604052508101906114729190615373565b61148e5760405162461bcd60e51b815260040161067a906158a1565b33600081815260126020908152604091829020805460ff1916861515908117909155825190815242918101919091527fa4d7ce08759be53fa5dd3b9b072396f6f5ce86b82fd167a48401efde1f456aa5910160405180910390a25050565b606081518351146115515760405162461bcd60e51b815260206004820152602960248201527f455243313135353a206163636f756e747320616e6420696473206c656e677468604482015268040dad2e6dac2e8c6d60bb1b606482015260840161067a565b600083516001600160401b0381111561157a57634e487b7160e01b600052604160045260246000fd5b6040519080825280602002602001820160405280156115a3578160200160208202803683370190505b50905060005b84518110156116455761160a8582815181106115d557634e487b7160e01b600052603260045260246000fd5b60200260200101518583815181106115fd57634e487b7160e01b600052603260045260246000fd5b6020026020010151610613565b82828151811061162a57634e487b7160e01b600052603260045260246000fd5b602090810291909101015261163e81615c64565b90506115a9565b509392505050565b6000611658600b5490565b90505b90565b6001600160a01b0380851660008181526011602090815260408083209488168352939052918220546116a0919086908690869063ffffffff908116906136a016565b95945050505050565b6000611658600c5490565b60008381526008602052604090205483906116ce9061276c565b600081815260086020908152604080832054835260069091529020600301546001600160a01b0316156117135760405162461bcd60e51b815260040161067a906159d0565b6000848152600860205260409020600201548490611739906001600160a01b03166127dd565b8061175d57506000818152600860205260409020600201546001600160a01b031633145b6118035760405162461bcd60e51b8152602060048201526064602482018190527f434c4d383a3a5f697341756469746f724f72547261636b65653a206d73672e7360448301527f656e646572206973206e6f74207468652061756469746f72206f72206973206e908201527f6f74207468652061737369676e656420747261636b6565206f6620747261636b608482015263195c925960e21b60a482015260c40161067a565b6000848152600a602052604090206002015485141561189f5760405162461bcd60e51b815260206004820152604c60248201527f434c4d383a3a747261636b50726f647563743a2070726f64756374277320747260448201527f61636b657249642063616e206e6f74206265207468652073616d65206173207460648201526b1a19481d1c9858dad95c925960a21b608482015260a40161067a565b6000858152600960209081526040808320878452600a8352818420600290810154855260059091018352818420888552019091529020546118e18686866136e6565b808411156119e05760008681526008602052604090206002015461190d906001600160a01b03166127dd565b1561193957600086815260086020526040902060020154611939906001600160a01b031633600161376d565b600086815260086020908152604080832060020154888452600a90925290912054611989916001600160a01b03169030906119748886612ace565b60405180602001604052806000815250612702565b6000868152600860205260409020600201546119ad906001600160a01b03166127dd565b156119db576000868152600860205260408120600201546119db916001600160a01b0390911690339061376d565b6113e6565b600086815260086020908152604080832060020154888452600a909252909120546113e69130916001600160a01b03909116906119748589612ace565b60066020819052600091825260409091208054600182015460028301546003840154600485015460058601549686018054959760ff9095169693956001600160a01b0393841695939092169391611a7390615bfd565b80601f0160208091040260200160405190810160405280929190818152602001828054611a9f90615bfd565b8015611aec5780601f10611ac157610100808354040283529160200191611aec565b820191906000526020600020905b815481529060010190602001808311611acf57829003601f168201915b505050505090806007018054611b0190615bfd565b80601f0160208091040260200160405190810160405280929190818152602001828054611b2d90615bfd565b8015611b7a5780601f10611b4f57610100808354040283529160200191611b7a565b820191906000526020600020905b815481529060010190602001808311611b5d57829003601f168201915b5050505050905088565b611bb86040518060800160405280600081526020016000815260200160006001600160a01b03168152602001600081525090565b606080611bdf60405180606001604052806000815260200160008152602001600081525090565b606060005b600087815260096020526040902054811015611c8657600087815260096020526040812080546002820192919084908110611c2f57634e487b7160e01b600052603260045260246000fd5b9060005260206000200154815260200190815260200160002054828281518110611c6957634e487b7160e01b600052603260045260246000fd5b602090810291909101015280611c7e81615c64565b915050611be4565b50601354600554600091611ca9918991906001600160a01b031660086009613846565b6000888152600860209081526040808320600983529281902081516080810183528454815260018501548185015260028501546001600160a01b03168184015260039094015460608501528054825181850281018501909352808352949550929386928692918591830182828015611d4057602002820191906000526020600020905b815481526020019060010190808311611d2c575b50505050509250955095509550955050509193509193565b60009182526003602090815260408084206001600160a01b0393909316845291905290205460ff1690565b61130933838361376d565b6000611658600d5490565b600554604051633e612c8d60e21b81523360048201819052916001600160a01b03169063f984b2349060240160206040518083038186803b158015611ddd57600080fd5b505afa158015611df1573d6000803e3d6000fd5b505050506040513d601f19601f82011682018060405250810190611e159190615373565b611e315760405162461bcd60e51b815260040161067a906157ff565b6005546040516349b9055760e01b81526001600160a01b038581166004830152909116906349b905579060240160206040518083038186803b158015611e7657600080fd5b505afa158015611e8a573d6000803e3d6000fd5b505050506040513d601f19601f82011682018060405250810190611eae9190615373565b80611eb7575081155b611f375760405162461bcd60e51b8152602060048201526044602482018190527f434c4d383a3a617070726f766556657269666965723a20616464726573732069908201527f73206e6f742061207265676973746572656420656d697373696f6e732061756460648201526334ba37b960e11b608482015260a40161067a565b6001600160a01b038316331415611fac5760405162461bcd60e51b815260206004820152603360248201527f434c4d383a3a617070726f766556657269666965723a2061756469746f72206360448201527230b73737ba1031329036b9b39739b2b73232b960691b606482015260840161067a565b6001600160a01b0383166000818152600f602090815260408083203380855290835292819020805460ff1916871515908117909155815190815242928101929092529192917fcd7b273ca5b5e968621470006223bdaeba55beb845846af0720d256d050b842491015b60405180910390a3505050565b600554604051633e612c8d60e21b81523360048201819052916001600160a01b03169063f984b2349060240160206040518083038186803b15801561206657600080fd5b505afa15801561207a573d6000803e3d6000fd5b505050506040513d601f19601f8201168201806040525081019061209e9190615373565b6120ba5760405162461bcd60e51b815260040161067a906157ff565b50336000908152601060205260409020805460ff1916911515919091179055565b6000805b8551811015612407576000600a6000600660008a868151811061211257634e487b7160e01b600052603260045260246000fd5b6020026020010151815260200190815260200160002060020154815260200190815260200160002060040154905085828151811061216057634e487b7160e01b600052603260045260246000fd5b60200260200101518110156121fa5760405162461bcd60e51b815260206004820152605460248201527f434c4d383a3a5f6265666f7265546f6b656e5472616e736665723a2070726f6460448201527f75637420616d6f756e742065786365656473207768617420697320617661696c60648201527318589b19481d1bc81d1a194818dbdb9d1c9858dd60621b608482015260a40161067a565b61223486838151811061221d57634e487b7160e01b600052603260045260246000fd5b602002602001015182612ace90919063ffffffff16565b600a6000600660008b878151811061225c57634e487b7160e01b600052603260045260246000fd5b6020026020010151815260200190815260200160002060020154815260200190815260200160002060040181905550600660008884815181106122af57634e487b7160e01b600052603260045260246000fd5b6020026020010151815260200190815260200160002060020154831461234957600660008884815181106122f357634e487b7160e01b600052603260045260246000fd5b6020026020010151815260200190815260200160002060020154925061232e600a600085815260200190815260200160002060020154613a94565b6000838152600a602052604090206002015461234990613b19565b6006600088848151811061236d57634e487b7160e01b600052603260045260246000fd5b60209081029190910181015182528101919091526040016000206001015460ff166002146123f45760405162461bcd60e51b815260206004820152602e60248201527f434c4d383a3a7472616e7366657250726f64756374733a20746f6b656e20697360448201526d081b9bdd0818481c1c9bd91d58dd60921b606482015260840161067a565b50806123ff81615c64565b9150506120df565b506124153084878786612d97565b336001600160a01b03167fbece1babc05dd3e25e5b7d7ae4dfdca422edfff069e8272a76d4f7528dd312f78686604051612450929190615730565b60405180910390a25050505050565b60008181526008602052604090205481906124799061276c565b600081815260086020908152604080832054835260069091529020600301546001600160a01b0316156124be5760405162461bcd60e51b815260040161067a906159d0565b60008281526008602052604090206002015482906124e4906001600160a01b03166127dd565b6125005760405162461bcd60e51b815260040161067a90615961565b6000838152600860209081526040808320600281015490548251938401909252928252612539926001600160a01b031691600190612ae1565b505060009081526008602090815260408083205483526006909152902060030180546001600160a01b03191633179055565b60008281526003602052604090206001015461258681612f96565b61128a8383613026565b600554604051633e612c8d60e21b81526001600160a01b0380881660048301528792169063f984b2349060240160206040518083038186803b1580156125d557600080fd5b505afa1580156125e9573d6000803e3d6000fd5b505050506040513d601f19601f8201168201806040525081019061260d9190615373565b6126295760405162461bcd60e51b815260040161067a906157ff565b612637600c80546001019055565b6000612642600c5490565b60008181526008602052604081206001808201849055600290910180546001600160a01b0319166001600160a01b038c1617905591925061268a9133908a9083868a8a612966565b600b546000828152600860205260409020558551156126b4576126ae81878761308d565b506113e6565b336001600160a01b0316817fcee74e8e464d0184ba490632b4f39c3c6d46f04871b2db81bf937bea97d975bd88886040516126f0929190615730565b60405180910390a35b50505050505050565b6001600160a01b03851633148061271e575061271e8533610575565b61273a5760405162461bcd60e51b815260040161067a90615768565b61125e8585858585613ba1565b60006001600160e01b03198216630271189760e51b14806106ce57506106ce82613cce565b6000818152600660205260409020546127da5760405162461bcd60e51b815260206004820152602a60248201527f434c4d383a3a5f746f6b656e4578697374733a20746f6b656e496420646f6573604482015269081b9bdd08195e1a5cdd60b21b606482015260840161067a565b50565b60006001600160a01b03821633141561285e5760405162461bcd60e51b815260206004820152603d60248201527f434c4d383a3a5f5f697341756469746f723a205f747261636b6565206164647260448201527f657373206973207468652073616d65206173206d73672e73656e646572000000606482015260840161067a565b6005546040516349b9055760e01b81523360048201526001600160a01b03909116906349b905579060240160206040518083038186803b1580156128a157600080fd5b505afa1580156128b5573d6000803e3d6000fd5b505050506040513d601f19601f820116820180604052508101906128d99190615373565b806128ee57506004546001600160a01b031633145b80156106ce57506001600160a01b03821660009081526010602052604090205460ff1680156129405750336000908152600f602090815260408083206001600160a01b038616845290915290205460ff165b806106ce5750506001600160a01b031660009081526010602052604090205460ff161590565b612974600b80546001019055565b600061297f600b5490565b9050806006600083815260200190815260200160002060000181905550836006600083815260200190815260200160002060020181905550856006600083815260200190815260200160002060010160006101000a81548160ff021916908360ff160217905550886006600083815260200190815260200160002060030160006101000a8154816001600160a01b0302191690836001600160a01b03160217905550876006600083815260200190815260200160002060040160006101000a8154816001600160a01b0302191690836001600160a01b0316021790555082600660008381526020019081526020016000206006019080519060200190612a86929190614d3d565b5060008181526006602090815260409091208351612aac92600790920191850190614d3d565b50841561120e5761120e87828760405180602001604052806000815250612ae1565b6000612ada8284615b9f565b9392505050565b6001600160a01b038416612b415760405162461bcd60e51b815260206004820152602160248201527f455243313135353a206d696e7420746f20746865207a65726f206164647265736044820152607360f81b606482015260840161067a565b336000612b4d85613cf3565b90506000612b5a85613cf3565b9050612b6b83600089858589613d4c565b6000868152602081815260408083206001600160a01b038b16845290915281208054879290612b9b908490615b20565b909155505060408051878152602081018790526001600160a01b03808a1692600092918716917fc3d58168c5ae7397731d063d5bbf3d657854427343f4c083240f7aacaa2d0f62910160405180910390a46126f98360008989898961401c565b6001600160a01b038316612c5d5760405162461bcd60e51b815260206004820152602360248201527f455243313135353a206275726e2066726f6d20746865207a65726f206164647260448201526265737360e81b606482015260840161067a565b336000612c6984613cf3565b90506000612c7684613cf3565b9050612c9683876000858560405180602001604052806000815250613d4c565b6000858152602081815260408083206001600160a01b038a16845290915290205484811015612d135760405162461bcd60e51b8152602060048201526024808201527f455243313135353a206275726e20616d6f756e7420657863656564732062616c604482015263616e636560e01b606482015260840161067a565b6000868152602081815260408083206001600160a01b038b81168086529184528285208a8703905582518b81529384018a90529092908816917fc3d58168c5ae7397731d063d5bbf3d657854427343f4c083240f7aacaa2d0f62910160405180910390a46040805160208101909152600090526126f9565b6000612ada8284615b20565b8151835114612df95760405162461bcd60e51b815260206004820152602860248201527f455243313135353a2069647320616e6420616d6f756e7473206c656e677468206044820152670dad2e6dac2e8c6d60c31b606482015260840161067a565b6001600160a01b038416612e1f5760405162461bcd60e51b815260040161067a9061585c565b33612e2e818787878787613d4c565b60005b8451811015612f30576000858281518110612e5c57634e487b7160e01b600052603260045260246000fd5b602002602001015190506000858381518110612e8857634e487b7160e01b600052603260045260246000fd5b602090810291909101810151600084815280835260408082206001600160a01b038e168352909352919091205490915081811015612ed85760405162461bcd60e51b815260040161067a90615917565b6000838152602081815260408083206001600160a01b038e8116855292528083208585039055908b16825281208054849290612f15908490615b20565b9250508190555050505080612f2990615c64565b9050612e31565b50846001600160a01b0316866001600160a01b0316826001600160a01b03167f4a39dc06d4c0dbc64b70af90fd698a233a518aa5d07e595d983b8c0526c8f7fb8787604051612f80929190615730565b60405180910390a46113e6818787878787614187565b6127da8133614251565b612faa8282611d58565b6113095760008281526003602090815260408083206001600160a01b03851684529091529020805460ff19166001179055612fe23390565b6001600160a01b0316816001600160a01b0316837f2f8788117e7eff1d82e926ec794901d17c78024a50270940304540a733656f0d60405160405180910390a45050565b6130308282611d58565b156113095760008281526003602090815260408083206001600160a01b0385168085529252808320805460ff1916905551339285917ff6391f5c32d9c69d2a47ea670b442974b53935d1edc7fd64eb21e047a839171b9190a45050565b600083815260086020526040808220600101548083529120600201546130bb906001600160a01b03166127dd565b6130d75760405162461bcd60e51b815260040161067a90615961565b825182511461315c5760405162461bcd60e51b815260206004820152604560248201527f434c4d383a3a5f747261636b546f6b656e733a20746f6b656e416d6f756e747360448201527f20616e6420746f6b656e49647320617265206e6f74207468652073616d65206c6064820152640cadccee8d60db1b608482015260a40161067a565b600084815260086020908152604080832060010154835260099091528120905b845181101561365457600080600560009054906101000a90046001600160a01b03166001600160a01b0316637f157c9b308986815181106131cd57634e487b7160e01b600052603260045260246000fd5b60200260200101516040518363ffffffff1660e01b81526004016132069291906001600160a01b03929092168252602082015260400190565b604080518083038186803b15801561321d57600080fd5b505afa158015613231573d6000803e3d6000fd5b505050506040513d601f19601f8201168201806040525081019061325591906154d9565b915091506000600560009054906101000a90046001600160a01b03166001600160a01b031663127d5ad089868151811061329f57634e487b7160e01b600052603260045260246000fd5b60200260200101516040518263ffffffff1660e01b81526004016132c591815260200190565b60206040518083038186803b1580156132dd57600080fd5b505afa1580156132f1573d6000803e3d6000fd5b505050506040513d601f19601f820116820180604052508101906133159190615527565b905060008160ff166003141561332c57508161332f565b50825b6133b88660020160008b888151811061335857634e487b7160e01b600052603260045260246000fd5b6020026020010151815260200190815260200160002054600e60008c898151811061339357634e487b7160e01b600052603260045260246000fd5b6020026020010151815260200190815260200160002054612ace90919063ffffffff16565b600e60008b88815181106133dc57634e487b7160e01b600052603260045260246000fd5b6020908102919091018101518252810191909152604001600020556004546001600160a01b0316331480613483575087858151811061342b57634e487b7160e01b600052603260045260246000fd5b6020026020010151613480600e60008c898151811061345a57634e487b7160e01b600052603260045260246000fd5b602002602001015181526020019081526020016000205483612ace90919063ffffffff16565b10155b61351b5760405162461bcd60e51b815260206004820152605f60248201527f434c4d383a3a5f747261636b546f6b656e733a206f6e65206f6620746865207460448201527f6f6b656e416d6f756e74732069732067726561746572207468616e207468652060648201527f62616c616e6365206f662074686520747261636b657220636f6e747261637400608482015260a40161067a565b61358f88868151811061353e57634e487b7160e01b600052603260045260246000fd5b6020026020010151600e60008c898151811061356a57634e487b7160e01b600052603260045260246000fd5b6020026020010151815260200190815260200160002054612d8b90919063ffffffff16565b600e60008b88815181106135b357634e487b7160e01b600052603260045260246000fd5b602002602001015181526020019081526020016000208190555061363d8886815181106135f057634e487b7160e01b600052603260045260246000fd5b60200260200101518760000188600101896002018d8a8151811061362457634e487b7160e01b600052603260045260246000fd5b60200260200101516142b590949392919063ffffffff16565b50505050808061364c90615c64565b91505061317c565b50336001600160a01b0316857fcee74e8e464d0184ba490632b4f39c3c6d46f04871b2db81bf937bea97d975bd8686604051613691929190615730565b60405180910390a35050505050565b6000858585856136b1866001615b38565b6040516020016136c5959493929190615681565b60405160208183030381529060405280519060200120905095945050505050565b6000828152600a60209081526040808320600290810154878552600984528285208186526005810190945291909320909261372d90869086908490600182019082016142b5565b805461374290849060038501600486016142f2565b80546113e65760008381526005830160205260408120906137638282614dc1565b5050505050505050565b816001600160a01b0316836001600160a01b031614156137e15760405162461bcd60e51b815260206004820152602960248201527f455243313135353a2073657474696e6720617070726f76616c20737461747573604482015268103337b91039b2b63360b91b606482015260840161067a565b6001600160a01b03838116600081815260016020908152604080832094871680845294825291829020805460ff191686151590811790915591519182527f17307eab39ab6107e8899845ad3d59bd9653f200f220920489ca2b5937696c319101612015565b61386a60405180606001604052806000815260200160008152602001600081525090565b60008681526020838152604080832080548251818502810185019093528083528894938301828280156138bc57602002820191906000526020600020905b8154815260200190600101908083116138a8575b505050505090506138e760405180606001604052806000815260200160008152602001600081525090565b60008060005b8451811015613a76576139568860008e8152602001908152602001600020600201600087848151811061393057634e487b7160e01b600052603260045260246000fd5b60200260200101518152602001908152602001600020548c61445890919063ffffffff16565b9250856001600160a01b031663127d5ad086838151811061398757634e487b7160e01b600052603260045260246000fd5b60200260200101516040518263ffffffff1660e01b81526004016139ad91815260200190565b60206040518083038186803b1580156139c557600080fd5b505afa1580156139d9573d6000803e3d6000fd5b505050506040513d601f19601f820116820180604052508101906139fd9190615527565b91508160ff1660031415613a24576040840151613a1a9084612d8b565b6040850152613a64565b8160ff1660021415613a49576020840151613a3f9084612d8b565b6020850152613a64565b8160ff1660011415613a64578351613a619084612d8b565b84525b80613a6e81615c64565b9150506138ed565b50613a85838c8c8c8c8c614464565b9b9a5050505050505050505050565b600081815260086020908152604080832054835260069091529020600301546001600160a01b03166127da5760405162461bcd60e51b815260206004820152602860248201527f434c4d383a3a5f69734973737565643a20747261636b65724964206973206e6f6044820152671d081a5cdcdd595960c21b606482015260840161067a565b600081815260086020526040902054613b33903390610613565b6001146127da5760405162461bcd60e51b815260206004820152603660248201527f434c4d383a3a5f69734f776e65723a206d73672e73656e64657220646f6573206044820152751b9bdd081bdddb881d1a1a5cc81d1c9858dad95c925960521b606482015260840161067a565b6001600160a01b038416613bc75760405162461bcd60e51b815260040161067a9061585c565b336000613bd385613cf3565b90506000613be085613cf3565b9050613bf0838989858589613d4c565b6000868152602081815260408083206001600160a01b038c16845290915290205485811015613c315760405162461bcd60e51b815260040161067a90615917565b6000878152602081815260408083206001600160a01b038d8116855292528083208985039055908a16825281208054889290613c6e908490615b20565b909155505060408051888152602081018890526001600160a01b03808b16928c821692918816917fc3d58168c5ae7397731d063d5bbf3d657854427343f4c083240f7aacaa2d0f62910160405180910390a461120e848a8a8a8a8a61401c565b60006001600160e01b03198216637965db0b60e01b14806106ce57506106ce8261472b565b60408051600180825281830190925260609160009190602080830190803683370190505090508281600081518110613d3b57634e487b7160e01b600052603260045260246000fd5b602090810291909101015292915050565b836001600160a01b03811615613df55760055460405163fc0bbce360e01b81526001600160a01b0383811660048301529091169063fc0bbce39060240160206040518083038186803b158015613da157600080fd5b505afa158015613db5573d6000803e3d6000fd5b505050506040513d601f19601f82011682018060405250810190613dd99190615373565b613df55760405162461bcd60e51b815260040161067a906158a1565b6000805b855181101561120e5760066000878381518110613e2657634e487b7160e01b600052603260045260246000fd5b60209081029190910181015182528101919091526040016000206001015460ff1660021415613f72576001600160a01b03871660009081526012602052604090205460ff168015613e75575081155b15613f72576000613e888989898961165e565b9050613e9581868a61477b565b925082613f185760405162461bcd60e51b815260206004820152604560248201527f434c4d383a3a5f6265666f7265546f6b656e5472616e736665723a207265636560448201527f6976657220686173206e6f7420617070726f76656420746865207472616e736160648201526431ba34b7b760d91b608482015260a40161067a565b6001600160a01b03808a166000908152601160209081526040808320938c168352929052908120805463ffffffff1691613f5183615c7f565b91906101000a81548163ffffffff021916908363ffffffff16021790555050505b6001600160a01b03871661400a57848181518110613fa057634e487b7160e01b600052603260045260246000fd5b602002602001015160076000888481518110613fcc57634e487b7160e01b600052603260045260246000fd5b6020026020010151815260200190815260200160002060008a6001600160a01b03166001600160a01b03168152602001908152602001600020819055505b8061401481615c64565b915050613df9565b6001600160a01b0384163b156113e65760405163f23a6e6160e01b81526001600160a01b0385169063f23a6e619061406090899089908890889088906004016156d8565b602060405180830381600087803b15801561407a57600080fd5b505af19250505080156140aa575060408051601f3d908101601f191682019092526140a7918101906153e5565b60015b614157576140b6615ccf565b806308c379a014156140f057506140cb615ce6565b806140d657506140f2565b8060405162461bcd60e51b815260040161067a9190615755565b505b60405162461bcd60e51b815260206004820152603460248201527f455243313135353a207472616e7366657220746f206e6f6e20455243313135356044820152732932b1b2b4bb32b91034b6b83632b6b2b73a32b960611b606482015260840161067a565b6001600160e01b0319811663f23a6e6160e01b146126f95760405162461bcd60e51b815260040161067a906157b7565b6001600160a01b0384163b156113e65760405163bc197c8160e01b81526001600160a01b0385169063bc197c81906141cb9089908990889088908890600401615623565b602060405180830381600087803b1580156141e557600080fd5b505af1925050508015614215575060408051601f3d908101601f19168201909252614212918101906153e5565b60015b614221576140b6615ccf565b6001600160e01b0319811663bc197c8160e01b146126f95760405162461bcd60e51b815260040161067a906157b7565b61425b8282611d58565b61130957614273816001600160a01b031660146147fe565b61427e8360206147fe565b60405160200161428f9291906155ae565b60408051601f198184030181529082905262461bcd60e51b825261067a91600401615755565b6142c1858585856142f2565b83156142dd57600085815260208290526040902084905561125e565b60009485526020525050604082209190915550565b600084815260208290526040902054831561433857806143335782546001810184556000848152602080822090920187905584548782529184905260409020555b61125e565b801561125e57825460011015614409578254839061435890600190615b9f565b8154811061437657634e487b7160e01b600052603260045260246000fd5b90600052602060002001548360018361438f9190615b9f565b815481106143ad57634e487b7160e01b600052603260045260246000fd5b906000526020600020018190555080826000856001856143cd9190615b9f565b815481106143eb57634e487b7160e01b600052603260045260246000fd5b90600052602060002001548152602001908152602001600020819055505b6000858152602083905260408120558254839061442890600190615b9f565b8154811061444657634e487b7160e01b600052603260045260246000fd5b60009182526020822001555050505050565b6000612ada8284615b80565b61448860405180606001604052806000815260200160008152602001600081525090565b600086815260208381526040808320600301805482518185028101850190935280835291929091908301828280156144df57602002820191906000526020600020905b8154815260200190600101908083116144cb575b5050505050905060008061450d60405180606001604052806000815260200160008152602001600081525090565b60005b845181101561471b578660008c8152602001908152602001600020600501600086838151811061455057634e487b7160e01b600052603260045260246000fd5b602002602001015181526020019081526020016000209350600088600087848151811061458d57634e487b7160e01b600052603260045260246000fd5b60200260200101518152602001908152602001600020600301541115614709576145e18582815181106145d057634e487b7160e01b600052603260045260246000fd5b60200260200101518b8b8b8b613846565b915060005b84548110156147075761468a89600088858151811061461557634e487b7160e01b600052603260045260246000fd5b602002602001015181526020019081526020016000206003015461468487600201600089600001868154811061465b57634e487b7160e01b600052603260045260246000fd5b90600052602060002001548152602001908152602001600020548e61445890919063ffffffff16565b906149df565b93506146b16146a684604001518661445890919063ffffffff16565b60408f015190612d8b565b60408e015260208301516146d5906146ca908690614458565b60208f015190612d8b565b60208e015282516146f3906146eb908690614458565b8e5190612d8b565b8d52806146ff81615c64565b9150506145e6565b505b8061471381615c64565b915050614510565b50999a9950505050505050505050565b60006001600160e01b03198216636cdb3d1360e11b148061475c57506001600160e01b031982166303a24d0760e21b145b806106ce57506301ffc9a760e01b6001600160e01b03198316146106ce565b6000806147d5856040517f19457468657265756d205369676e6564204d6573736167653a0a3332000000006020820152603c8101829052600090605c01604051602081830303815290604052805190602001209050919050565b90506001600160a01b0383166147eb82866149eb565b6001600160a01b03161495945050505050565b6060600061480d836002615b80565b614818906002615b20565b6001600160401b0381111561483d57634e487b7160e01b600052604160045260246000fd5b6040519080825280601f01601f191660200182016040528015614867576020820181803683370190505b509050600360fc1b8160008151811061489057634e487b7160e01b600052603260045260246000fd5b60200101906001600160f81b031916908160001a905350600f60fb1b816001815181106148cd57634e487b7160e01b600052603260045260246000fd5b60200101906001600160f81b031916908160001a90535060006148f1846002615b80565b6148fc906001615b20565b90505b6001811115614990576f181899199a1a9b1b9c1cb0b131b232b360811b85600f166010811061493e57634e487b7160e01b600052603260045260246000fd5b1a60f81b82828151811061496257634e487b7160e01b600052603260045260246000fd5b60200101906001600160f81b031916908160001a90535060049490941c9361498981615be6565b90506148ff565b508315612ada5760405162461bcd60e51b815260206004820181905260248201527f537472696e67733a20686578206c656e67746820696e73756666696369656e74604482015260640161067a565b6000612ada8284615b60565b60008060006149fa8585614a07565b9150915061164581614a4d565b600080825160411415614a3e5760208301516040840151606085015160001a614a3287828585614c50565b94509450505050614a46565b506000905060025b9250929050565b6000816004811115614a6f57634e487b7160e01b600052602160045260246000fd5b1415614a7a576127da565b6001816004811115614a9c57634e487b7160e01b600052602160045260246000fd5b1415614aea5760405162461bcd60e51b815260206004820152601860248201527f45434453413a20696e76616c6964207369676e61747572650000000000000000604482015260640161067a565b6002816004811115614b0c57634e487b7160e01b600052602160045260246000fd5b1415614b5a5760405162461bcd60e51b815260206004820152601f60248201527f45434453413a20696e76616c6964207369676e6174757265206c656e67746800604482015260640161067a565b6003816004811115614b7c57634e487b7160e01b600052602160045260246000fd5b1415614bd55760405162461bcd60e51b815260206004820152602260248201527f45434453413a20696e76616c6964207369676e6174757265202773272076616c604482015261756560f01b606482015260840161067a565b6004816004811115614bf757634e487b7160e01b600052602160045260246000fd5b14156127da5760405162461bcd60e51b815260206004820152602260248201527f45434453413a20696e76616c6964207369676e6174757265202776272076616c604482015261756560f01b606482015260840161067a565b6000807f7fffffffffffffffffffffffffffffff5d576e7357a4501ddfe92f46681b20a0831115614c875750600090506003614d34565b8460ff16601b14158015614c9f57508460ff16601c14155b15614cb05750600090506004614d34565b6040805160008082526020820180845289905260ff881692820192909252606081018690526080810185905260019060a0016020604051602081039080840390855afa158015614d04573d6000803e3d6000fd5b5050604051601f1901519150506001600160a01b038116614d2d57600060019250925050614d34565b9150600090505b94509492505050565b828054614d4990615bfd565b90600052602060002090601f016020900481019282614d6b5760008555614db1565b82601f10614d8457805160ff1916838001178555614db1565b82800160010185558215614db1579182015b82811115614db1578251825591602001919060010190614d96565b50614dbd929150614ddb565b5090565b50805460008255906000526020600020908101906127da91905b5b80821115614dbd5760008155600101614ddc565b80356001600160a01b03811681146106d157600080fd5b600082601f830112614e17578081fd5b81356020614e2482615afd565b604051614e318282615c38565b8381528281019150858301855b85811015614e6757614e55898684358b0101614edb565b84529284019290840190600101614e3e565b5090979650505050505050565b600082601f830112614e84578081fd5b81356020614e9182615afd565b604051614e9e8282615c38565b8381528281019150858301600585901b87018401881015614ebd578586fd5b855b85811015614e6757813584529284019290840190600101614ebf565b600082601f830112614eeb578081fd5b81356001600160401b03811115614f0457614f04615cb9565b604051614f1b601f8301601f191660200182615c38565b818152846020838601011115614f2f578283fd5b816020850160208301379081016020019190915292915050565b600060208284031215614f5a578081fd5b612ada82614df0565b60008060408385031215614f75578081fd5b614f7e83614df0565b9150614f8c60208401614df0565b90509250929050565b60008060008060808587031215614faa578182fd5b614fb385614df0565b9350614fc160208601614df0565b925060408501356001600160401b0380821115614fdc578384fd5b614fe888838901614e74565b93506060870135915080821115614ffd578283fd5b5061500a87828801614e74565b91505092959194509250565b600080600080600060a0868803121561502d578081fd5b61503686614df0565b945061504460208701614df0565b935060408601356001600160401b038082111561505f578283fd5b61506b89838a01614e74565b94506060880135915080821115615080578283fd5b61508c89838a01614e74565b935060808801359150808211156150a1578283fd5b506150ae88828901614edb565b9150509295509295909350565b600080600080600060a086880312156150d2578283fd5b6150db86614df0565b94506150e960208701614df0565b9350604086013592506060860135915060808601356001600160401b03811115615111578182fd5b6150ae88828901614edb565b600080600080600060a08688031215615134578283fd5b61513d86614df0565b945060208601356001600160401b0380821115615158578485fd5b61516489838a01614e74565b95506040880135915080821115615179578485fd5b61518589838a01614e74565b9450606088013591508082111561519a578283fd5b61508c89838a01614edb565b600080604083850312156151b8578182fd5b6151c183614df0565b915060208301356151d181615d77565b809150509250929050565b600080604083850312156151ee578182fd5b6151f783614df0565b946020939093013593505050565b60008060408385031215615217578182fd5b82356001600160401b038082111561522d578384fd5b818501915085601f830112615240578384fd5b8135602061524d82615afd565b60405161525a8282615c38565b8381528281019150858301600585901b870184018b1015615279578889fd5b8896505b848710156152a25761528e81614df0565b83526001969096019591830191830161527d565b50965050860135925050808211156152b8578283fd5b506152c585828601614e74565b9150509250929050565b600080600080608085870312156152e4578182fd5b84356001600160401b03808211156152fa578384fd5b61530688838901614e74565b9550602087013591508082111561531b578384fd5b61532788838901614e74565b945061533560408801614df0565b9350606087013591508082111561534a578283fd5b5061500a87828801614edb565b600060208284031215615368578081fd5b8135612ada81615d77565b600060208284031215615384578081fd5b8151612ada81615d77565b6000602082840312156153a0578081fd5b5035919050565b600080604083850312156153b9578182fd5b82359150614f8c60208401614df0565b6000602082840312156153da578081fd5b8135612ada81615d85565b6000602082840312156153f6578081fd5b8151612ada81615d85565b600080600080600060a08688031215615418578283fd5b8535945060208601356001600160401b0380821115615435578485fd5b61544189838a01614e74565b95506040880135915080821115615456578485fd5b61546289838a01614e74565b94506060880135915080821115615477578283fd5b61548389838a01614e07565b93506080880135915080821115615498578283fd5b506150ae88828901614e07565b600080600080600060a086880312156154bc578283fd5b8535945060208601356001600160401b0380821115615158578485fd5b600080604083850312156154eb578182fd5b505080516020909101519092909150565b600080600060608486031215615510578081fd5b505081359360208301359350604090920135919050565b600060208284031215615538578081fd5b815160ff81168114612ada578182fd5b6000815180845260208085019450808401835b838110156155775781518752958201959082019060010161555b565b509495945050505050565b6000815180845261559a816020860160208601615bb6565b601f01601f19169290920160200192915050565b60007f416363657373436f6e74726f6c3a206163636f756e7420000000000000000000825283516155e6816017850160208801615bb6565b7001034b99036b4b9b9b4b733903937b6329607d1b6017918401918201528351615617816028840160208801615bb6565b01602801949350505050565b6001600160a01b0386811682528516602082015260a06040820181905260009061564f90830186615548565b82810360608401526156618186615548565b905082810360808401526156758185615582565b98975050505050505050565b6001600160a01b0386811682528516602082015260a0604082018190526000906156ad90830186615548565b82810360608401526156bf8186615548565b91505063ffffffff831660808301529695505050505050565b6001600160a01b03868116825285166020820152604081018490526060810183905260a06080820181905260009061571290830184615582565b979650505050505050565b600060208252612ada6020830184615548565b6000604082526157436040830185615548565b82810360208401526116a08185615548565b600060208252612ada6020830184615582565b6020808252602f908201527f455243313135353a2063616c6c6572206973206e6f7420746f6b656e206f776e60408201526e195c881b9bdc88185c1c1c9bdd9959608a1b606082015260800190565b60208082526028908201527f455243313135353a204552433131353552656365697665722072656a656374656040820152676420746f6b656e7360c01b606082015260800190565b60208082526037908201527f434c4d383a3a6973496e6475737472793a2061646472657373206d757374206260408201527f652061207265676973746572656420696e647573747279000000000000000000606082015260800190565b60208082526025908201527f455243313135353a207472616e7366657220746f20746865207a65726f206164604082015264647265737360d81b606082015260800190565b60208082526050908201527f434c4d383a3a636f6e73756d65724f724465616c65723a20616464726573732060408201527f6973206e6f742061207265676973746572656420636f6e73756d65722c20696e60608201526f323ab9ba393c9037b9103232b0b632b960811b608082015260a00190565b6020808252602a908201527f455243313135353a20696e73756666696369656e742062616c616e636520666f60408201526939103a3930b739b332b960b11b606082015260800190565b60208082526049908201527f434c4d383a3a697341756469746f723a206d73672e73656e646572206973206e60408201527f6f7420616e20617070726f7665642061756469746f7220666f722074686973206060820152681d1c9858dad95c925960ba1b608082015260a00190565b60208082526032908201527f434c4d383a3a6e6f744973737565643a20747261636b657249642068617320616040820152711b1c9958591e481899595b881a5cdcdd595960721b606082015260800190565b6000610120865183526020870151602084015260018060a01b03604088015116604084015260608701516060840152806080840152615a6381840187615548565b905082810360a0840152615a778186615548565b915050825160c0830152602083015160e0830152604083015161010083015295945050505050565b88815260ff88166020820152604081018790526001600160a01b0386811660608301528516608082015260a0810184905261010060c08201819052600090615ae983820186615582565b905082810360e0840152613a858185615582565b60006001600160401b03821115615b1657615b16615cb9565b5060051b60200190565b60008219821115615b3357615b33615ca3565b500190565b600063ffffffff808316818516808303821115615b5757615b57615ca3565b01949350505050565b600082615b7b57634e487b7160e01b81526012600452602481fd5b500490565b6000816000190483118215151615615b9a57615b9a615ca3565b500290565b600082821015615bb157615bb1615ca3565b500390565b60005b83811015615bd1578181015183820152602001615bb9565b83811115615be0576000848401525b50505050565b600081615bf557615bf5615ca3565b506000190190565b600181811c90821680615c1157607f821691505b60208210811415615c3257634e487b7160e01b600052602260045260246000fd5b50919050565b601f8201601f191681016001600160401b0381118282101715615c5d57615c5d615cb9565b6040525050565b6000600019821415615c7857615c78615ca3565b5060010190565b600063ffffffff80831681811415615c9957615c99615ca3565b6001019392505050565b634e487b7160e01b600052601160045260246000fd5b634e487b7160e01b600052604160045260246000fd5b600060033d111561165b57600481823e5160e01c90565b600060443d1015615cf65761165b565b6040516003193d81016004833e81513d6001600160401b038160248401118184111715615d2757505050505061165b565b8285019150815181811115615d415750505050505061165b565b843d8701016020828501011115615d5d5750505050505061165b565b615d6c60208286010187615c38565b509094505050505090565b80151581146127da57600080fd5b6001600160e01b0319811681146127da57600080fdfea264697066735822122089384a45f9c48ece40794945df06aac4df456838da9f7c86b6fb72b233c46b2264736f6c63430008030033",
  "linkReferences": {},
  "deployedLinkReferences": {}
}