{
  "_format": "hh-sol-artifact-1",
  "contractName": "CarbonTracker",
  "sourceName": "solidity/CarbonTracker.sol",
  "abi": [
    {
      "inputs": [
        {
          "internalType": "address",
          "name": "_net",
          "type": "address"
        },
        {
          "internalType": "address",
          "name": "_admin",
          "type": "address"
        }
      ],
      "stateMutability": "nonpayable",
      "type": "constructor"
    },
    {
      "anonymous": false,
      "inputs": [
        {
          "indexed": true,
          "internalType": "address",
          "name": "owner",
          "type": "address"
        },
        {
          "indexed": true,
          "internalType": "address",
          "name": "approved",
          "type": "address"
        },
        {
          "indexed": true,
          "internalType": "uint256",
          "name": "tokenId",
          "type": "uint256"
        }
      ],
      "name": "Approval",
      "type": "event"
    },
    {
      "anonymous": false,
      "inputs": [
        {
          "indexed": true,
          "internalType": "address",
          "name": "owner",
          "type": "address"
        },
        {
          "indexed": true,
          "internalType": "address",
          "name": "operator",
          "type": "address"
        },
        {
          "indexed": false,
          "internalType": "bool",
          "name": "approved",
          "type": "bool"
        }
      ],
      "name": "ApprovalForAll",
      "type": "event"
    },
    {
      "anonymous": false,
      "inputs": [
        {
          "indexed": true,
          "internalType": "uint256",
          "name": "trackerId",
          "type": "uint256"
        },
        {
          "indexed": false,
          "internalType": "uint256[]",
          "name": "productIds",
          "type": "uint256[]"
        },
        {
          "indexed": false,
          "internalType": "uint256[]",
          "name": "productAmounts",
          "type": "uint256[]"
        }
      ],
      "name": "ProductsUpdated",
      "type": "event"
    },
    {
      "anonymous": false,
      "inputs": [
        {
          "indexed": true,
          "internalType": "address",
          "name": "account",
          "type": "address"
        }
      ],
      "name": "RegisteredTracker",
      "type": "event"
    },
    {
      "anonymous": false,
      "inputs": [
        {
          "indexed": true,
          "internalType": "bytes32",
          "name": "role",
          "type": "bytes32"
        },
        {
          "indexed": true,
          "internalType": "bytes32",
          "name": "previousAdminRole",
          "type": "bytes32"
        },
        {
          "indexed": true,
          "internalType": "bytes32",
          "name": "newAdminRole",
          "type": "bytes32"
        }
      ],
      "name": "RoleAdminChanged",
      "type": "event"
    },
    {
      "anonymous": false,
      "inputs": [
        {
          "indexed": true,
          "internalType": "bytes32",
          "name": "role",
          "type": "bytes32"
        },
        {
          "indexed": true,
          "internalType": "address",
          "name": "account",
          "type": "address"
        },
        {
          "indexed": true,
          "internalType": "address",
          "name": "sender",
          "type": "address"
        }
      ],
      "name": "RoleGranted",
      "type": "event"
    },
    {
      "anonymous": false,
      "inputs": [
        {
          "indexed": true,
          "internalType": "bytes32",
          "name": "role",
          "type": "bytes32"
        },
        {
          "indexed": true,
          "internalType": "address",
          "name": "account",
          "type": "address"
        },
        {
          "indexed": true,
          "internalType": "address",
          "name": "sender",
          "type": "address"
        }
      ],
      "name": "RoleRevoked",
      "type": "event"
    },
    {
      "anonymous": false,
      "inputs": [
        {
          "indexed": true,
          "internalType": "uint256",
          "name": "trackerId",
          "type": "uint256"
        },
        {
          "indexed": true,
          "internalType": "address",
          "name": "tracker",
          "type": "address"
        },
        {
          "indexed": false,
          "internalType": "uint256[]",
          "name": "tokenIds",
          "type": "uint256[]"
        },
        {
          "indexed": false,
          "internalType": "uint256[]",
          "name": "tokenAmounts",
          "type": "uint256[]"
        }
      ],
      "name": "TrackerUpdated",
      "type": "event"
    },
    {
      "anonymous": false,
      "inputs": [
        {
          "indexed": true,
          "internalType": "address",
          "name": "from",
          "type": "address"
        },
        {
          "indexed": true,
          "internalType": "address",
          "name": "to",
          "type": "address"
        },
        {
          "indexed": true,
          "internalType": "uint256",
          "name": "tokenId",
          "type": "uint256"
        }
      ],
      "name": "Transfer",
      "type": "event"
    },
    {
      "anonymous": false,
      "inputs": [
        {
          "indexed": true,
          "internalType": "address",
          "name": "auditor",
          "type": "address"
        },
        {
          "indexed": true,
          "internalType": "address",
          "name": "trackee",
          "type": "address"
        }
      ],
      "name": "VerifierApproved",
      "type": "event"
    },
    {
      "anonymous": false,
      "inputs": [
        {
          "indexed": true,
          "internalType": "address",
          "name": "auditor",
          "type": "address"
        },
        {
          "indexed": true,
          "internalType": "address",
          "name": "trackee",
          "type": "address"
        }
      ],
      "name": "VerifierRemoved",
      "type": "event"
    },
    {
      "inputs": [],
      "name": "DEFAULT_ADMIN_ROLE",
      "outputs": [
        {
          "internalType": "bytes32",
          "name": "",
          "type": "bytes32"
        }
      ],
      "stateMutability": "view",
      "type": "function"
    },
    {
      "inputs": [],
      "name": "REGISTERED_TRACKER",
      "outputs": [
        {
          "internalType": "bytes32",
          "name": "",
          "type": "bytes32"
        }
      ],
      "stateMutability": "view",
      "type": "function"
    },
    {
      "inputs": [
        {
          "internalType": "uint256",
          "name": "trackerId",
          "type": "uint256"
        },
        {
          "internalType": "uint256",
          "name": "productId",
          "type": "uint256"
        },
        {
          "internalType": "string",
          "name": "unit",
          "type": "string"
        },
        {
          "internalType": "string",
          "name": "unitAmount",
          "type": "string"
        }
      ],
      "name": "_getUnitHash",
      "outputs": [
        {
          "internalType": "bytes32",
          "name": "",
          "type": "bytes32"
        }
      ],
      "stateMutability": "view",
      "type": "function"
    },
    {
      "inputs": [],
      "name": "_numOfProducts",
      "outputs": [
        {
          "internalType": "uint256",
          "name": "_value",
          "type": "uint256"
        }
      ],
      "stateMutability": "view",
      "type": "function"
    },
    {
      "inputs": [],
      "name": "_numOfUniqueTrackers",
      "outputs": [
        {
          "internalType": "uint256",
          "name": "_value",
          "type": "uint256"
        }
      ],
      "stateMutability": "view",
      "type": "function"
    },
    {
      "inputs": [
        {
          "internalType": "uint256",
          "name": "",
          "type": "uint256"
        }
      ],
      "name": "_productData",
      "outputs": [
        {
          "internalType": "uint256",
          "name": "trackerId",
          "type": "uint256"
        },
        {
          "internalType": "address",
          "name": "auditor",
          "type": "address"
        },
        {
          "internalType": "uint256",
          "name": "amount",
          "type": "uint256"
        },
        {
          "internalType": "uint256",
          "name": "available",
          "type": "uint256"
        },
        {
          "internalType": "string",
          "name": "name",
          "type": "string"
        },
        {
          "internalType": "string",
          "name": "unit",
          "type": "string"
        },
        {
          "internalType": "string",
          "name": "unitAmount",
          "type": "string"
        }
      ],
      "stateMutability": "view",
      "type": "function"
    },
    {
      "inputs": [
        {
          "internalType": "uint256",
          "name": "outAmount",
          "type": "uint256"
        },
        {
          "internalType": "uint256",
          "name": "totalTracked",
          "type": "uint256"
        }
      ],
      "name": "_verifyTotalTracked",
      "outputs": [],
      "stateMutability": "pure",
      "type": "function"
    },
    {
      "inputs": [
        {
          "internalType": "address",
          "name": "to",
          "type": "address"
        },
        {
          "internalType": "uint256",
          "name": "tokenId",
          "type": "uint256"
        }
      ],
      "name": "approve",
      "outputs": [],
      "stateMutability": "nonpayable",
      "type": "function"
    },
    {
      "inputs": [
        {
          "internalType": "address",
          "name": "verifier",
          "type": "address"
        },
        {
          "internalType": "bool",
          "name": "approve",
          "type": "bool"
        }
      ],
      "name": "approveVerifier",
      "outputs": [],
      "stateMutability": "nonpayable",
      "type": "function"
    },
    {
      "inputs": [
        {
          "internalType": "uint256",
          "name": "trackerId",
          "type": "uint256"
        }
      ],
      "name": "audit",
      "outputs": [],
      "stateMutability": "nonpayable",
      "type": "function"
    },
    {
      "inputs": [
        {
          "internalType": "address",
          "name": "owner",
          "type": "address"
        }
      ],
      "name": "balanceOf",
      "outputs": [
        {
          "internalType": "uint256",
          "name": "",
          "type": "uint256"
        }
      ],
      "stateMutability": "view",
      "type": "function"
    },
    {
      "inputs": [],
      "name": "decimalsEf",
      "outputs": [
        {
          "internalType": "uint256",
          "name": "",
          "type": "uint256"
        }
      ],
      "stateMutability": "view",
      "type": "function"
    },
    {
      "inputs": [
        {
          "internalType": "uint256",
          "name": "trackerId",
          "type": "uint256"
        }
      ],
      "name": "emissionsFactor",
      "outputs": [
        {
          "internalType": "uint256",
          "name": "",
          "type": "uint256"
        }
      ],
      "stateMutability": "view",
      "type": "function"
    },
    {
      "inputs": [
        {
          "internalType": "uint256",
          "name": "tokenId",
          "type": "uint256"
        }
      ],
      "name": "getApproved",
      "outputs": [
        {
          "internalType": "address",
          "name": "",
          "type": "address"
        }
      ],
      "stateMutability": "view",
      "type": "function"
    },
    {
      "inputs": [],
      "name": "getNumOfProducts",
      "outputs": [
        {
          "internalType": "uint256",
          "name": "",
          "type": "uint256"
        }
      ],
      "stateMutability": "view",
      "type": "function"
    },
    {
      "inputs": [],
      "name": "getNumOfUniqueTrackers",
      "outputs": [
        {
          "internalType": "uint256",
          "name": "",
          "type": "uint256"
        }
      ],
      "stateMutability": "view",
      "type": "function"
    },
    {
      "inputs": [
        {
          "internalType": "uint256",
          "name": "productId",
          "type": "uint256"
        },
        {
          "internalType": "address",
          "name": "owner",
          "type": "address"
        }
      ],
      "name": "getProductBalance",
      "outputs": [
        {
          "internalType": "uint256",
          "name": "",
          "type": "uint256"
        }
      ],
      "stateMutability": "view",
      "type": "function"
    },
    {
      "inputs": [
        {
          "internalType": "uint256",
          "name": "productId",
          "type": "uint256"
        }
      ],
      "name": "getProductDetails",
      "outputs": [
        {
          "internalType": "uint256",
          "name": "",
          "type": "uint256"
        },
        {
          "internalType": "uint256",
          "name": "",
          "type": "uint256"
        },
        {
          "internalType": "uint256",
          "name": "",
          "type": "uint256"
        }
      ],
      "stateMutability": "view",
      "type": "function"
    },
    {
      "inputs": [
        {
          "internalType": "bytes32",
          "name": "role",
          "type": "bytes32"
        }
      ],
      "name": "getRoleAdmin",
      "outputs": [
        {
          "internalType": "bytes32",
          "name": "",
          "type": "bytes32"
        }
      ],
      "stateMutability": "view",
      "type": "function"
    },
    {
      "inputs": [
        {
          "internalType": "uint256",
          "name": "trackerId",
          "type": "uint256"
        }
      ],
      "name": "getTokenAmounts",
      "outputs": [
        {
          "internalType": "uint256[]",
          "name": "",
          "type": "uint256[]"
        },
        {
          "internalType": "uint256[]",
          "name": "",
          "type": "uint256[]"
        }
      ],
      "stateMutability": "view",
      "type": "function"
    },
    {
      "inputs": [
        {
          "internalType": "uint256",
          "name": "trackerId",
          "type": "uint256"
        }
      ],
      "name": "getTokenIds",
      "outputs": [
        {
          "internalType": "uint256[]",
          "name": "",
          "type": "uint256[]"
        }
      ],
      "stateMutability": "view",
      "type": "function"
    },
    {
      "inputs": [
        {
          "internalType": "uint256",
          "name": "trackerId",
          "type": "uint256"
        }
      ],
      "name": "getTotalEmissions",
      "outputs": [
        {
          "internalType": "uint256",
          "name": "",
          "type": "uint256"
        }
      ],
      "stateMutability": "view",
      "type": "function"
    },
    {
      "inputs": [
        {
          "internalType": "uint256",
          "name": "trackerId",
          "type": "uint256"
        }
      ],
      "name": "getTrackerDetails",
      "outputs": [
        {
          "components": [
            {
              "internalType": "uint256",
              "name": "trackerId",
              "type": "uint256"
            },
            {
              "internalType": "address",
              "name": "trackee",
              "type": "address"
            },
            {
              "internalType": "address",
              "name": "auditor",
              "type": "address"
            },
            {
              "internalType": "uint256",
              "name": "totalProductAmounts",
              "type": "uint256"
            },
            {
              "internalType": "uint256",
              "name": "fromDate",
              "type": "uint256"
            },
            {
              "internalType": "uint256",
              "name": "thruDate",
              "type": "uint256"
            },
            {
              "internalType": "address",
              "name": "createdBy",
              "type": "address"
            },
            {
              "internalType": "uint256",
              "name": "dateCreated",
              "type": "uint256"
            },
            {
              "internalType": "uint256",
              "name": "dateUpdated",
              "type": "uint256"
            },
            {
              "internalType": "string",
              "name": "metadata",
              "type": "string"
            },
            {
              "internalType": "string",
              "name": "description",
              "type": "string"
            }
          ],
          "internalType": "struct CarbonTracker.CarbonTrackerDetails",
          "name": "",
          "type": "tuple"
        },
        {
          "internalType": "uint256",
          "name": "",
          "type": "uint256"
        },
        {
          "internalType": "uint256[]",
          "name": "",
          "type": "uint256[]"
        }
      ],
      "stateMutability": "view",
      "type": "function"
    },
    {
      "inputs": [
        {
          "internalType": "uint256",
          "name": "trackerId",
          "type": "uint256"
        }
      ],
      "name": "getTrackerIds",
      "outputs": [
        {
          "internalType": "uint256[]",
          "name": "",
          "type": "uint256[]"
        }
      ],
      "stateMutability": "view",
      "type": "function"
    },
    {
      "inputs": [
        {
          "internalType": "uint256",
          "name": "trackerId",
          "type": "uint256"
        }
      ],
      "name": "getTrackerTokenDetails",
      "outputs": [
        {
          "internalType": "uint256[]",
          "name": "",
          "type": "uint256[]"
        },
        {
          "internalType": "uint256[]",
          "name": "",
          "type": "uint256[]"
        }
      ],
      "stateMutability": "view",
      "type": "function"
    },
    {
      "inputs": [
        {
          "internalType": "bytes32",
          "name": "role",
          "type": "bytes32"
        },
        {
          "internalType": "address",
          "name": "account",
          "type": "address"
        }
      ],
      "name": "grantRole",
      "outputs": [],
      "stateMutability": "nonpayable",
      "type": "function"
    },
    {
      "inputs": [
        {
          "internalType": "bytes32",
          "name": "role",
          "type": "bytes32"
        },
        {
          "internalType": "address",
          "name": "account",
          "type": "address"
        }
      ],
      "name": "hasRole",
      "outputs": [
        {
          "internalType": "bool",
          "name": "",
          "type": "bool"
        }
      ],
      "stateMutability": "view",
      "type": "function"
    },
    {
      "inputs": [
        {
          "internalType": "address",
          "name": "owner",
          "type": "address"
        },
        {
          "internalType": "address",
          "name": "operator",
          "type": "address"
        }
      ],
      "name": "isApprovedForAll",
      "outputs": [
        {
          "internalType": "bool",
          "name": "",
          "type": "bool"
        }
      ],
      "stateMutability": "view",
      "type": "function"
    },
    {
      "inputs": [],
      "name": "name",
      "outputs": [
        {
          "internalType": "string",
          "name": "",
          "type": "string"
        }
      ],
      "stateMutability": "view",
      "type": "function"
    },
    {
      "inputs": [],
      "name": "net",
      "outputs": [
        {
          "internalType": "contract NetEmissionsTokenNetwork",
          "name": "",
          "type": "address"
        }
      ],
      "stateMutability": "view",
      "type": "function"
    },
    {
      "inputs": [],
      "name": "netAddress",
      "outputs": [
        {
          "internalType": "address",
          "name": "",
          "type": "address"
        }
      ],
      "stateMutability": "view",
      "type": "function"
    },
    {
      "inputs": [
        {
          "internalType": "address",
          "name": "",
          "type": "address"
        },
        {
          "internalType": "address",
          "name": "",
          "type": "address"
        },
        {
          "internalType": "uint256[]",
          "name": "",
          "type": "uint256[]"
        },
        {
          "internalType": "uint256[]",
          "name": "",
          "type": "uint256[]"
        },
        {
          "internalType": "bytes",
          "name": "",
          "type": "bytes"
        }
      ],
      "name": "onERC1155BatchReceived",
      "outputs": [
        {
          "internalType": "bytes4",
          "name": "",
          "type": "bytes4"
        }
      ],
      "stateMutability": "nonpayable",
      "type": "function"
    },
    {
      "inputs": [
        {
          "internalType": "address",
          "name": "",
          "type": "address"
        },
        {
          "internalType": "address",
          "name": "",
          "type": "address"
        },
        {
          "internalType": "uint256",
          "name": "",
          "type": "uint256"
        },
        {
          "internalType": "uint256",
          "name": "",
          "type": "uint256"
        },
        {
          "internalType": "bytes",
          "name": "",
          "type": "bytes"
        }
      ],
      "name": "onERC1155Received",
      "outputs": [
        {
          "internalType": "bytes4",
          "name": "",
          "type": "bytes4"
        }
      ],
      "stateMutability": "nonpayable",
      "type": "function"
    },
    {
      "inputs": [
        {
          "internalType": "uint256",
          "name": "tokenId",
          "type": "uint256"
        }
      ],
      "name": "ownerOf",
      "outputs": [
        {
          "internalType": "address",
          "name": "",
          "type": "address"
        }
      ],
      "stateMutability": "view",
      "type": "function"
    },
    {
      "inputs": [
        {
          "internalType": "uint256",
          "name": "",
          "type": "uint256"
        },
        {
          "internalType": "address",
          "name": "",
          "type": "address"
        }
      ],
      "name": "productBalance",
      "outputs": [
        {
          "internalType": "uint256",
          "name": "",
          "type": "uint256"
        }
      ],
      "stateMutability": "view",
      "type": "function"
    },
    {
      "inputs": [
        {
          "internalType": "uint256",
          "name": "trackerId",
          "type": "uint256"
        },
        {
          "internalType": "uint256[]",
          "name": "productIds",
          "type": "uint256[]"
        },
        {
          "internalType": "uint256[]",
          "name": "productAmounts",
          "type": "uint256[]"
        },
        {
          "internalType": "string[]",
          "name": "productNames",
          "type": "string[]"
        },
        {
          "internalType": "string[]",
          "name": "productUnits",
          "type": "string[]"
        },
        {
          "internalType": "string[]",
          "name": "productUnitAmounts",
          "type": "string[]"
        }
      ],
      "name": "productsUpdate",
      "outputs": [],
      "stateMutability": "nonpayable",
      "type": "function"
    },
    {
      "inputs": [
        {
          "internalType": "address",
          "name": "tracker",
          "type": "address"
        }
      ],
      "name": "registerTracker",
      "outputs": [],
      "stateMutability": "nonpayable",
      "type": "function"
    },
    {
      "inputs": [
        {
          "internalType": "uint256",
          "name": "trackerId",
          "type": "uint256"
        }
      ],
      "name": "removeAudit",
      "outputs": [],
      "stateMutability": "nonpayable",
      "type": "function"
    },
    {
      "inputs": [
        {
          "internalType": "bytes32",
          "name": "role",
          "type": "bytes32"
        },
        {
          "internalType": "address",
          "name": "account",
          "type": "address"
        }
      ],
      "name": "renounceRole",
      "outputs": [],
      "stateMutability": "nonpayable",
      "type": "function"
    },
    {
      "inputs": [
        {
          "internalType": "bytes32",
          "name": "role",
          "type": "bytes32"
        },
        {
          "internalType": "address",
          "name": "account",
          "type": "address"
        }
      ],
      "name": "revokeRole",
      "outputs": [],
      "stateMutability": "nonpayable",
      "type": "function"
    },
    {
      "inputs": [
        {
          "internalType": "address",
          "name": "from",
          "type": "address"
        },
        {
          "internalType": "address",
          "name": "to",
          "type": "address"
        },
        {
          "internalType": "uint256",
          "name": "tokenId",
          "type": "uint256"
        }
      ],
      "name": "safeTransferFrom",
      "outputs": [],
      "stateMutability": "nonpayable",
      "type": "function"
    },
    {
      "inputs": [
        {
          "internalType": "address",
          "name": "from",
          "type": "address"
        },
        {
          "internalType": "address",
          "name": "to",
          "type": "address"
        },
        {
          "internalType": "uint256",
          "name": "tokenId",
          "type": "uint256"
        },
        {
          "internalType": "bytes",
          "name": "data",
          "type": "bytes"
        }
      ],
      "name": "safeTransferFrom",
      "outputs": [],
      "stateMutability": "nonpayable",
      "type": "function"
    },
    {
      "inputs": [
        {
          "internalType": "address",
          "name": "operator",
          "type": "address"
        },
        {
          "internalType": "bool",
          "name": "approved",
          "type": "bool"
        }
      ],
      "name": "setApprovalForAll",
      "outputs": [],
      "stateMutability": "nonpayable",
      "type": "function"
    },
    {
      "inputs": [
        {
          "internalType": "bytes4",
          "name": "interfaceId",
          "type": "bytes4"
        }
      ],
      "name": "supportsInterface",
      "outputs": [
        {
          "internalType": "bool",
          "name": "",
          "type": "bool"
        }
      ],
      "stateMutability": "view",
      "type": "function"
    },
    {
      "inputs": [],
      "name": "symbol",
      "outputs": [
        {
          "internalType": "string",
          "name": "",
          "type": "string"
        }
      ],
      "stateMutability": "view",
      "type": "function"
    },
    {
      "inputs": [
        {
          "internalType": "uint256",
          "name": "tokenId",
          "type": "uint256"
        }
      ],
      "name": "tokenURI",
      "outputs": [
        {
          "internalType": "string",
          "name": "",
          "type": "string"
        }
      ],
      "stateMutability": "view",
      "type": "function"
    },
    {
      "inputs": [
        {
          "internalType": "address",
          "name": "issuedTo",
          "type": "address"
        },
        {
          "internalType": "address",
          "name": "trackee",
          "type": "address"
        },
        {
          "internalType": "uint256[]",
          "name": "tokenIds",
          "type": "uint256[]"
        },
        {
          "internalType": "uint256[]",
          "name": "tokenAmounts",
          "type": "uint256[]"
        },
        {
          "internalType": "uint256",
          "name": "fromDate",
          "type": "uint256"
        },
        {
          "internalType": "uint256",
          "name": "thruDate",
          "type": "uint256"
        },
        {
          "internalType": "string",
          "name": "description",
          "type": "string"
        },
        {
          "internalType": "string",
          "name": "metadata",
          "type": "string"
        }
      ],
      "name": "track",
      "outputs": [],
      "stateMutability": "nonpayable",
      "type": "function"
    },
    {
      "inputs": [
        {
          "internalType": "uint256",
          "name": "trackerId",
          "type": "uint256"
        },
        {
          "internalType": "uint256",
          "name": "sourceTrackerId",
          "type": "uint256"
        },
        {
          "internalType": "uint256",
          "name": "productId",
          "type": "uint256"
        },
        {
          "internalType": "uint256",
          "name": "productAmount",
          "type": "uint256"
        }
      ],
      "name": "trackProduct",
      "outputs": [],
      "stateMutability": "nonpayable",
      "type": "function"
    },
    {
      "inputs": [
        {
          "internalType": "uint256",
          "name": "trackerId",
          "type": "uint256"
        },
        {
          "internalType": "uint256[]",
          "name": "tokenIds",
          "type": "uint256[]"
        },
        {
          "internalType": "uint256[]",
          "name": "tokenAmounts",
          "type": "uint256[]"
        },
        {
          "internalType": "uint256",
          "name": "fromDate",
          "type": "uint256"
        },
        {
          "internalType": "uint256",
          "name": "thruDate",
          "type": "uint256"
        },
        {
          "internalType": "string",
          "name": "description",
          "type": "string"
        },
        {
          "internalType": "string",
          "name": "metadata",
          "type": "string"
        }
      ],
      "name": "trackUpdate",
      "outputs": [],
      "stateMutability": "nonpayable",
      "type": "function"
    },
    {
      "inputs": [
        {
          "internalType": "address",
          "name": "from",
          "type": "address"
        },
        {
          "internalType": "address",
          "name": "to",
          "type": "address"
        },
        {
          "internalType": "uint256",
          "name": "tokenId",
          "type": "uint256"
        }
      ],
      "name": "transferFrom",
      "outputs": [],
      "stateMutability": "nonpayable",
      "type": "function"
    },
    {
      "inputs": [
        {
          "internalType": "uint256",
          "name": "productId",
          "type": "uint256"
        },
        {
          "internalType": "uint256",
          "name": "productAmount",
          "type": "uint256"
        },
        {
          "internalType": "address",
          "name": "trackee",
          "type": "address"
        }
      ],
      "name": "transferProduct",
      "outputs": [],
      "stateMutability": "nonpayable",
      "type": "function"
    },
    {
      "inputs": [
        {
          "internalType": "uint256",
          "name": "trackerId",
          "type": "uint256"
        },
        {
          "internalType": "uint256",
          "name": "productId",
          "type": "uint256"
        },
        {
          "internalType": "string",
          "name": "unit",
          "type": "string"
        },
        {
          "internalType": "string",
          "name": "unitAmount",
          "type": "string"
        },
        {
          "internalType": "bytes",
          "name": "signature",
          "type": "bytes"
        }
      ],
      "name": "verifyUnitSignature",
      "outputs": [
        {
          "internalType": "bool",
          "name": "",
          "type": "bool"
        }
      ],
      "stateMutability": "view",
      "type": "function"
    }
  ],
  "bytecode": "0x60806040523480156200001157600080fd5b5060405162005bdf38038062005bdf833981016040819052620000349162000266565b6040805160208082018084526000808452845192830190945283825282519293919262000063929190620001a3565b50805162000079906001906020840190620001a3565b5050600780546001600160a01b0385166001600160a01b0319918216811790925560088054909116909117905550620f4240601255620000bb600082620000ef565b620000e77f4f9730948b73761de8f37a0aea1760c5eef658d37d8c456767b81e17c01f30ed82620000ef565b5050620002da565b620000fb8282620000ff565b5050565b60008281526006602090815260408083206001600160a01b038516845290915290205460ff16620000fb5760008281526006602090815260408083206001600160a01b03851684529091529020805460ff191660011790556200015f3390565b6001600160a01b0316816001600160a01b0316837f2f8788117e7eff1d82e926ec794901d17c78024a50270940304540a733656f0d60405160405180910390a45050565b828054620001b1906200029d565b90600052602060002090601f016020900481019282620001d5576000855562000220565b82601f10620001f057805160ff191683800117855562000220565b8280016001018555821562000220579182015b828111156200022057825182559160200191906001019062000203565b506200022e92915062000232565b5090565b5b808211156200022e576000815560010162000233565b80516001600160a01b03811681146200026157600080fd5b919050565b6000806040838503121562000279578182fd5b620002848362000249565b9150620002946020840162000249565b90509250929050565b600181811c90821680620002b257607f821691505b60208210811415620002d457634e487b7160e01b600052602260045260246000fd5b50919050565b6158f580620002ea6000396000f3fe608060405234801561001057600080fd5b506004361061030c5760003560e01c80637c7768d61161019d578063b9531f21116100e9578063d547741f116100a2578063e985e9c51161007c578063e985e9c514610751578063ecc3356a1461078d578063f23a6e61146107a0578063f2600e4e146107bf5761030c565b8063d547741f14610718578063e28a148f1461072b578063e54a96461461073e5761030c565b8063b9531f2114610681578063bc197c8114610694578063c2fff4a5146106cc578063c87b56dd146106df578063cdec8358146106f2578063d0c9e6e2146107055761030c565b8063a22cb46511610156578063a7d6619d11610130578063a7d6619d14610635578063aa7acc7914610648578063b173e5701461065b578063b88d4fde1461066e5761030c565b8063a22cb46514610607578063a23ccfe81461061a578063a7787884146106225761030c565b80637c7768d61461059357806381d5f7f61461059b5780638a59a935146105c257806391d14854146105e457806395d89b41146105f7578063a217fddf146105ff5761030c565b806336568abe1161025c5780634a7b0d0c116102155780635e7231c3116101ef5780635e7231c31461052c5780636352211e1461053f5780636813b53b1461055257806370a08231146105805761030c565b80634a7b0d0c146104ef57806357991d3014610502578063594d4605146105225761030c565b806336568abe146104655780633abb340f146104785780633b4e06e61461049e5780633b8470b0146104bf57806340e6c970146104d257806342842e0e146104dc5761030c565b80630d20c4bc116102c957806323b872dd116102a357806323b872dd146103f1578063248a9ca3146104045780632f2ff15d14610427578063330dffec1461043a5761030c565b80630d20c4bc146103b8578063100d2cd2146103cb5780631856f262146103de5761030c565b806301ffc9a71461031157806306fdde03146103395780630709cf3a1461034e578063081812fc14610365578063095ea7b3146103905780630b71d18b146103a5575b600080fd5b61032461031f366004614ee2565b6107d2565b60405190151581526020015b60405180910390f35b6103416107ff565b604051610330919061542e565b61035760125481565b604051908152602001610330565b610378610373366004614e90565b610891565b6040516001600160a01b039091168152602001610330565b6103a361039e366004614e4b565b6108b8565b005b6103576103b3366004614e90565b6109d3565b6103a36103c6366004614c37565b6109f3565b6103246103d9366004615190565b610a8a565b6103a36103ec366004614b46565b610b4c565b6103a36103ff366004614d13565b610d44565b610357610412366004614e90565b60009081526006602052604090206001015490565b6103a3610435366004614ec0565b610d75565b610357610448366004614ec0565b600f60209081526000928352604080842090915290825290205481565b6103a3610473366004614ec0565b610d9a565b61048b610486366004614e90565b610e18565b6040516103309796959493929190615696565b6104b16104ac366004614e90565b610ff7565b604051610330929190615400565b6103a36104cd3660046151f8565b611143565b600c546103579081565b6103a36104ea366004614d13565b61131a565b6103a36104fd366004614fed565b611335565b610515610510366004614e90565b6113fc565b60405161033091906153ed565b600d546103579081565b6103a361053a3660046150b1565b61145e565b61037861054d366004614e90565b6114fa565b610565610560366004614e90565b61155a565b60408051938452602084019290925290820152606001610330565b61035761058e366004614b46565b611782565b610357611808565b6103577f4f9730948b73761de8f37a0aea1760c5eef658d37d8c456767b81e17c01f30ed81565b6105d56105d0366004614e90565b611818565b604051610330939291906155a4565b6103246105f2366004614ec0565b611ac7565b610341611af4565b610357600081565b6103a3610615366004614e15565b611b03565b610357611b0e565b610357610630366004615129565b611b19565b6103a3610643366004614e15565b611b54565b6103a3610656366004614f1a565b611e13565b6103a3610669366004614e90565b612478565b6103a361067c366004614d4e565b6124fd565b61051561068f366004614e90565b612535565b6106b36106a2366004614b92565b63bc197c8160e01b95945050505050565b6040516001600160e01b03199091168152602001610330565b600754610378906001600160a01b031681565b6103416106ed366004614e90565b612598565b610357610700366004614e90565b61260c565b610357610713366004614ec0565b61265f565b6103a3610726366004614ec0565b6126f8565b6103a36107393660046150f5565b61271d565b600854610378906001600160a01b031681565b61032461075f366004614b60565b6001600160a01b03918216600090815260056020908152604080832093909416825291909152205460ff1690565b6103a361079b366004614e90565b612900565b6106b36107ae366004614db3565b63f23a6e6160e01b95945050505050565b6104b16107cd366004614e90565b612948565b60006001600160e01b03198216637965db0b60e01b14806107f757506107f782612a88565b90505b919050565b60606000805461080e906157f5565b80601f016020809104026020016040519081016040528092919081815260200182805461083a906157f5565b80156108875780601f1061085c57610100808354040283529160200191610887565b820191906000526020600020905b81548152906001019060200180831161086a57829003601f168201915b5050505050905090565b600061089c82612aad565b506000908152600460205260409020546001600160a01b031690565b60006108c3826114fa565b9050806001600160a01b0316836001600160a01b031614156109365760405162461bcd60e51b815260206004820152602160248201527f4552433732313a20617070726f76616c20746f2063757272656e74206f776e656044820152603960f91b60648201526084015b60405180910390fd5b336001600160a01b03821614806109525750610952813361075f565b6109c45760405162461bcd60e51b815260206004820152603e60248201527f4552433732313a20617070726f76652063616c6c6572206973206e6f7420746f60448201527f6b656e206f776e6572206e6f7220617070726f76656420666f7220616c6c0000606482015260840161092d565b6109ce8383612b0f565b505050565b6000818152600a60205260408120816109eb82612b7d565b949350505050565b60006109fe88612dbf565b9050610a0e898260000154612e28565b8415610a1c57600481018590555b8315610a2a57600581018490555b825115610a48578251610a4690600a830190602086019061494e565b505b815115610a66578151610a64906009830190602085019061494e565b505b865115610a7e57610a78818888612f6b565b50610a80565b505b5050505050505050565b600085610a968161357b565b86610aa0816135f5565b6000878152600b60205260408120600101546001600160a01b031690610b1e610acb8b8b8b8b611b19565b6040517f19457468657265756d205369676e6564204d6573736167653a0a3332000000006020820152603c8101829052600090605c01604051602081830303815290604052805190602001209050919050565b90506001600160a01b038216610b34828861366b565b6001600160a01b0316149a9950505050505050505050565b806001600160a01b038116331480610c595750600754604080516376ce475560e01b815290516001600160a01b03909216916391d148549183916376ce475591600480820192602092909190829003018186803b158015610bac57600080fd5b505afa158015610bc0573d6000803e3d6000fd5b505050506040513d601f19601f82011682018060405250810190610be49190614ea8565b6040516001600160e01b031960e084901b168152600481019190915233602482015260440160206040518083038186803b158015610c2157600080fd5b505afa158015610c35573d6000803e3d6000fd5b505050506040513d601f19601f82011682018060405250810190610c599190614e74565b610ce25760405162461bcd60e51b815260206004820152604e60248201527f434c4d383a3a73656c664f7241756469746f723a206d73672e73656e6465722060448201527f646f6573206e6f74206f776e20746869732061646472657373206f722069732060648201526d3737ba1030b71030bab234ba37b960911b608482015260a40161092d565b610d0c7f4f9730948b73761de8f37a0aea1760c5eef658d37d8c456767b81e17c01f30ed8361368f565b6040516001600160a01b038316907fef8ce2b8e324ee947b09d9cf7f74e5589078af3a3e3f5266e9752c8284e4cd8790600090a25050565b610d4e3382613699565b610d6a5760405162461bcd60e51b815260040161092d90615508565b6109ce838383613717565b600082815260066020526040902060010154610d90816138b3565b6109ce83836138bd565b6001600160a01b0381163314610e0a5760405162461bcd60e51b815260206004820152602f60248201527f416363657373436f6e74726f6c3a2063616e206f6e6c792072656e6f756e636560448201526e103937b632b9903337b91039b2b63360891b606482015260840161092d565b610e148282613943565b5050565b600b602052600090815260409020805460018201546002830154600384015460048501805494956001600160a01b039094169492939192610e58906157f5565b80601f0160208091040260200160405190810160405280929190818152602001828054610e84906157f5565b8015610ed15780601f10610ea657610100808354040283529160200191610ed1565b820191906000526020600020905b815481529060010190602001808311610eb457829003601f168201915b505050505090806005018054610ee6906157f5565b80601f0160208091040260200160405190810160405280929190818152602001828054610f12906157f5565b8015610f5f5780601f10610f3457610100808354040283529160200191610f5f565b820191906000526020600020905b815481529060010190602001808311610f4257829003601f168201915b505050505090806006018054610f74906157f5565b80601f0160208091040260200160405190810160405280929190818152602001828054610fa0906157f5565b8015610fed5780601f10610fc257610100808354040283529160200191610fed565b820191906000526020600020905b815481529060010190602001808311610fd057829003601f168201915b5050505050905087565b6000818152600a6020908152604080832080548251818502810185019093528083526060948594929390929091849183018282801561105557602002820191906000526020600020905b815481526020019060010190808311611041575b50505050509050600081516001600160401b0381111561108557634e487b7160e01b600052604160045260246000fd5b6040519080825280602002602001820160405280156110ae578160200160208202803683370190505b50905060005b8251811015611137578360020160008483815181106110e357634e487b7160e01b600052603260045260246000fd5b602002602001015181526020019081526020016000205482828151811061111a57634e487b7160e01b600052603260045260246000fd5b60209081029190910101528061112f8161582a565b9150506110b4565b50909350915050915091565b60008481526009602052604090206002015484906001600160a01b03161561117d5760405162461bcd60e51b815260040161092d90615556565b611186856135f5565b61119085336139aa565b6000838152600b60205260409020548514156112295760405162461bcd60e51b815260206004820152604c60248201527f434c4d383a3a747261636b50726f647563743a2070726f64756374277320747260448201527f61636b657249642063616e206e6f74206265207468652073616d65206173207460648201526b1a19481d1c9858dad95c925960a21b608482015260a40161092d565b6000838152600f6020908152604080832033845290915290205482106112c95760405162461bcd60e51b815260206004820152604960248201527f434c4d383a3a747261636b50726f647563743a2070726f64756374416d6f756e60448201527f7420657863656564732070726f647563747320617661696c61626c6520666f72606482015268103a3930b739b332b960b91b608482015260a40161092d565b6000838152600f602090815260408083203384529091529020546112ed9083613a61565b6000848152600f6020908152604080832033845290915290205561131385858585613a6d565b5050505050565b6109ce838383604051806020016040528060008152506124fd565b60008781526009602052604090206002015487906001600160a01b03161561136f5760405162461bcd60e51b815260040161092d90615556565b87611379816135f5565b6000898152600960205260409020426008820155861561139b57600481018790555b85156113a957600581018690555b8451156113c75784516113c590600a830190602088019061494e565b505b8351156113e55783516113e3906009830190602087019061494e565b505b6113f0818a8a612f6b565b50505050505050505050565b6000818152600a602090815260409182902080548351818402810184019094528084526060939283018282801561145257602002820191906000526020600020905b81548152602001906001019080831161143e575b50505050509050919050565b80821015610e145760405162461bcd60e51b815260206004820152605860248201527f434c4d383a3a5f766572696679546f74616c547261636b65643a20746f74616c60448201527f20616d6f756e7420747261636b65642065786365656473206f7574707574206f60648201527f6620746f6b656e49642066726f6d20747261636b657249640000000000000000608482015260a40161092d565b6000818152600260205260408120546001600160a01b0316806107f75760405162461bcd60e51b8152602060048201526018602482015277115490cdcc8c4e881a5b9d985b1a59081d1bdad95b88125160421b604482015260640161092d565b6000818152600b60209081526040808320815160e0810183528154815260018201546001600160a01b031693810193909352600281015491830191909152600381015460608301526004810180548493849384939192909160808401916115c0906157f5565b80601f01602080910402602001604051908101604052809291908181526020018280546115ec906157f5565b80156116395780601f1061160e57610100808354040283529160200191611639565b820191906000526020600020905b81548152906001019060200180831161161c57829003601f168201915b50505050508152602001600582018054611652906157f5565b80601f016020809104026020016040519081016040528092919081815260200182805461167e906157f5565b80156116cb5780601f106116a0576101008083540402835291602001916116cb565b820191906000526020600020905b8154815290600101906020018083116116ae57829003601f168201915b505050505081526020016006820180546116e4906157f5565b80601f0160208091040260200160405190810160405280929190818152602001828054611710906157f5565b801561175d5780601f106117325761010080835404028352916020019161175d565b820191906000526020600020905b81548152906001019060200180831161174057829003601f168201915b5050509190925250508151604083015160609093015190989297509550909350505050565b60006001600160a01b0382166117ec5760405162461bcd60e51b815260206004820152602960248201527f4552433732313a2061646472657373207a65726f206973206e6f7420612076616044820152683634b21037bbb732b960b91b606482015260840161092d565b506001600160a01b031660009081526003602052604090205490565b6000611813600c5490565b905090565b6118906040518061016001604052806000815260200160006001600160a01b0316815260200160006001600160a01b0316815260200160008152602001600081526020016000815260200160006001600160a01b03168152602001600081526020016000815260200160608152602001606081525090565b6000828152600960209081526040808320600a90925282206060919060038101846118ba83612b7d565b60408051610160810182528654815260018701546001600160a01b03908116602083015260028801548116928201929092526003870154606082015260048701546080820152600587015460a0820152600687015490911660c0820152600786015460e082015260088601546101008201526009860180549293508692849286929091859161012084019161194e906157f5565b80601f016020809104026020016040519081016040528092919081815260200182805461197a906157f5565b80156119c75780601f1061199c576101008083540402835291602001916119c7565b820191906000526020600020905b8154815290600101906020018083116119aa57829003601f168201915b50505050508152602001600a820180546119e0906157f5565b80601f0160208091040260200160405190810160405280929190818152602001828054611a0c906157f5565b8015611a595780601f10611a2e57610100808354040283529160200191611a59565b820191906000526020600020905b815481529060010190602001808311611a3c57829003601f168201915b505050505081525050925080805480602002602001604051908101604052809291908181526020018280548015611aaf57602002820191906000526020600020905b815481526020019060010190808311611a9b575b50505050509050965096509650505050509193909250565b60008281526006602090815260408083206001600160a01b038516845290915290205460ff165b92915050565b60606001805461080e906157f5565b610e14338383613dca565b6000611813600d5490565b60003085858585604051602001611b349594939291906152b0565b604051602081830303815290604052805190602001209050949350505050565b33611b7f7f4f9730948b73761de8f37a0aea1760c5eef658d37d8c456767b81e17c01f30ed82611ac7565b611bea5760405162461bcd60e51b815260206004820152603660248201527f434c4d383a3a72656769737465726564547261636b65723a20746865206164646044820152751c995cdcc81a5cc81b9bdd081c9959da5cdd195c995960521b606482015260840161092d565b6007546040516349b9055760e01b81526001600160a01b038581166004830152909116906349b905579060240160206040518083038186803b158015611c2f57600080fd5b505afa158015611c43573d6000803e3d6000fd5b505050506040513d601f19601f82011682018060405250810190611c679190614e74565b80611c70575081155b611cf05760405162461bcd60e51b8152602060048201526044602482018190527f434c4d383a3a617070726f766556657269666965723a20616464726573732069908201527f73206e6f742061207265676973746572656420656d697373696f6e732061756460648201526334ba37b960e11b608482015260a40161092d565b6001600160a01b038316331415611d655760405162461bcd60e51b815260206004820152603360248201527f434c4d383a3a617070726f766556657269666965723a2061756469746f72206360448201527230b73737ba1031329036b9b39739b2b73232b960691b606482015260840161092d565b6001600160a01b03831660009081526010602090815260408083203384529091529020805460ff19168315801591909117909155611dd85760405133906001600160a01b038516907ff31635902a304a612155085cc8916b9ab86fc115155b10b33980f6cb8165c54e90600090a36109ce565b60405133906001600160a01b038516907f490861baee43b8ebd28f134f99c0aa7848888c4bde402256ad4cf455d147aed690600090a3505050565b60008681526009602052604090206002015486906001600160a01b031615611e4d5760405162461bcd60e51b815260040161092d90615556565b86611e57816135f5565b6000888152600960205260409020600101548890611e7d906001600160a01b0316613e99565b60008981526009602052604090208851885114611f165760405162461bcd60e51b815260206004820152604b60248201527f434c4d383a3a70726f64756374735570646174653a2070726f64756374416d6f60448201527f756e747320616e642070726f6475637449647320617265206e6f74207468652060648201526a0e6c2daca40d8cadccee8d60ab1b608482015260a40161092d565b8851875114611f9f5760405162461bcd60e51b815260206004820152604960248201527f434c4d383a3a70726f64756374735570646174653a2070726f647563744e616d60448201527f657320616e642070726f6475637449647320617265206e6f74207468652073616064820152680daca40d8cadccee8d60bb1b608482015260a40161092d565b8851855114611fc05760405162461bcd60e51b815260040161092d90615441565b8851865114611fe15760405162461bcd60e51b815260040161092d90615441565b6000805b8a5181101561242e5760008b828151811061201057634e487b7160e01b600052603260045260246000fd5b602002602001015111156121b8578a818151811061203e57634e487b7160e01b600052603260045260246000fd5b602002602001015191508b600b600084815260200190815260200160002060000154146120d5576040805162461bcd60e51b81526020600482015260248101919091527f434c4d383a3a70726f64756374735570646174653a2070726f6475637449647360448201527f5b695d20646f6573206e6f742062656c6f6e6720746f20747261636b65724964606482015260840161092d565b6121138a82815181106120f857634e487b7160e01b600052603260045260246000fd5b60200260200101518460030154613a6190919063ffffffff16565b60038401556000828152600b60205260409020600101546001600160a01b031633146121b35760405162461bcd60e51b815260206004820152604360248201527f434c4d383a3a70726f64756374735570646174653a206d73672e73656e64657260448201527f206973206e6f74207468652061756469746f72206f6620746869732070726f646064820152621d58dd60ea1b608482015260a40161092d565b61225f565b6121c6600d80546001019055565b600d5491508b600b60008481526020019081526020016000206000018190555033600b600084815260200190815260200160002060010160006101000a8154816001600160a01b0302191690836001600160a01b03160217905550600a60008d81526020019081526020016000206003018290806001815401808255809150506001900390600052602060002001600090919091909150555b88818151811061227f57634e487b7160e01b600052603260045260246000fd5b6020026020010151600b600084815260200190815260200160002060040190805190602001906122b092919061494e565b508681815181106122d157634e487b7160e01b600052603260045260246000fd5b6020026020010151600b6000848152602001908152602001600020600601908051906020019061230292919061494e565b5087818151811061232357634e487b7160e01b600052603260045260246000fd5b6020026020010151600b6000848152602001908152602001600020600501908051906020019061235492919061494e565b5089818151811061237557634e487b7160e01b600052603260045260246000fd5b6020026020010151600b6000848152602001908152602001600020600201819055508981815181106123b757634e487b7160e01b600052603260045260246000fd5b6020026020010151600b6000848152602001908152602001600020600301819055506124178a82815181106123fc57634e487b7160e01b600052603260045260246000fd5b60200260200101518460030154613f2290919063ffffffff16565b6003840155806124268161582a565b915050611fe5565b5081546040517fcae18be6040b3a94c418e2e09d130e25f25a0069beec7edc902c803cf7f61ebf90612463908d908d90615400565b60405180910390a25050505050505050505050565b60008181526009602052604090206002015481906001600160a01b0316156124b25760405162461bcd60e51b815260040161092d90615556565b60008281526009602052604090206001015482906124d8906001600160a01b0316613e99565b5050600090815260096020526040902060020180546001600160a01b03191633179055565b6125073383613699565b6125235760405162461bcd60e51b815260040161092d90615508565b61252f84848484613f2e565b50505050565b6000818152600a6020908152604091829020600501805483518184028101840190945280845260609392830182828015611452576020028201919060005260206000209081548152602001906001019080831161143e5750505050509050919050565b60606125a382612aad565b60006125ba60408051602081019091526000815290565b905060008151116125da5760405180602001604052806000815250612605565b806125e484613f61565b6040516020016125f592919061530c565b6040516020818303038152906040525b9392505050565b600081815260096020526040812060038101541561264f57612647816003015461264160125461263b876109d3565b9061407b565b90614087565b9150506107fa565b60009150506107fa565b50919050565b6000828152600b6020526040812054612677906114fa565b6001600160a01b0316826001600160a01b031614156126cf576000838152600b6020908152604080832060030154600f83528184206001600160a01b0387168552909252909120546126c891613f22565b9050611aee565b506000918252600f602090815260408084206001600160a01b0393909316845291905290205490565b600082815260066020526040902060010154612713816138b3565b6109ce8383613943565b6000838152600b602052604081208054909190612739906114fa565b6001600160a01b0316336001600160a01b0316141561276457815461275d9061357b565b5060038101545b6000858152600f602090815260408083203384529091528120546127889083613f22565b90508481116128195760405162461bcd60e51b815260206004820152605160248201527f434c4d383a3a7472616e7366657250726f647563743a2070726f64756374416d60448201527f6f756e7420657863656564732070726f6475637420617661696c61626c6520696064820152701b881cdbdd5c98d9551c9858dad95c9259607a1b608482015260a40161092d565b6000821561285b578286111561284157612833838761579b565b600060038601559050612856565b60038401546128509087613a61565b60038501555b61285e565b50845b80156128a3576000878152600f602090815260408083203384529091529020546128889082613a61565b6000888152600f602090815260408083203384529091529020555b6000878152600f602090815260408083206001600160a01b03891684529091529020546128d09087613f22565b6000978852600f60209081526040808a206001600160a01b039098168a5296905294909620939093555050505050565b6000818152600960205260409020600101548190612926906001600160a01b0316613e99565b50600090815260096020526040902060020180546001600160a01b0319169055565b6000818152600a602090815260408083208054825181850281018501909352808352606094859492939092909184918301828280156129a657602002820191906000526020600020905b815481526020019060010190808311612992575b50505050509050600081516001600160401b038111156129d657634e487b7160e01b600052604160045260246000fd5b6040519080825280602002602001820160405280156129ff578160200160208202803683370190505b50905060005b825181101561113757836002016000848381518110612a3457634e487b7160e01b600052603260045260246000fd5b6020026020010151815260200190815260200160002054828281518110612a6b57634e487b7160e01b600052603260045260246000fd5b602090810291909101015280612a808161582a565b915050612a05565b60006001600160e01b03198216630271189760e51b14806107f757506107f782614093565b6000818152600260205260409020546001600160a01b0316612b0c5760405162461bcd60e51b8152602060048201526018602482015277115490cdcc8c4e881a5b9d985b1a59081d1bdad95b88125160421b604482015260640161092d565b50565b600081815260046020526040902080546001600160a01b0319166001600160a01b0384169081179091558190612b44826114fa565b6001600160a01b03167f8c5be1e5ebec7d5bd14f71427d1e84f3dd0314c0f7b2291e5b200ac8c7c3b92560405160405180910390a45050565b60008181805b8254811015612bf257612bde856002016000858481548110612bb557634e487b7160e01b600052603260045260246000fd5b906000526020600020015481526020019081526020016000205483613f2290919063ffffffff16565b915080612bea8161582a565b915050612b83565b506060600085600501805480602002602001604051908101604052809291908181526020018280548015612c4557602002820191906000526020600020905b815481526020019060010190808311612c31575b50505050509050600080600090505b8251811015612db357876007016000848381518110612c8357634e487b7160e01b600052603260045260246000fd5b60200260200101518152602001908152602001600020915081600001805480602002602001604051908101604052809291908181526020018280548015612ce957602002820191906000526020600020905b815481526020019060010190808311612cd5575b50505050509350600080600090505b8551811015612d9e57836002016000878381518110612d2757634e487b7160e01b600052603260045260246000fd5b60200260200101518152602001908152602001600020549150612d8a612d83601254612641612d7c898881518110612d6f57634e487b7160e01b600052603260045260246000fd5b602002602001015161260c565b869061407b565b8890613f22565b965080612d968161582a565b915050612cf8565b50508080612dab9061582a565b915050612c54565b50929695505050505050565b6000612dcf600c80546001019055565b6000612dda600c5490565b60008181526009602052604090209081556006810180546001600160a01b031990811633179091556001820180546001600160a01b0387169216919091179055426007820155915050919050565b6001600160a01b038216612e7e5760405162461bcd60e51b815260206004820181905260248201527f4552433732313a206d696e7420746f20746865207a65726f2061646472657373604482015260640161092d565b6000818152600260205260409020546001600160a01b031615612ee35760405162461bcd60e51b815260206004820152601c60248201527f4552433732313a20746f6b656e20616c7265616479206d696e74656400000000604482015260640161092d565b6001600160a01b0382166000908152600360205260408120805460019290612f0c908490615750565b909155505060008181526002602052604080822080546001600160a01b0319166001600160a01b03861690811790915590518392907fddf252ad1be2c89b69c2b068fc378daa952ba7f163c4a11628f55a4df523b3ef908290a4610e14565b825460075460008281526009602052604090819020600101549051633e612c8d60e21b81526001600160a01b03918216600482015291169063f984b2349060240160206040518083038186803b158015612fc457600080fd5b505afa158015612fd8573d6000803e3d6000fd5b505050506040513d601f19601f82011682018060405250810190612ffc9190614e74565b61306e5760405162461bcd60e51b815260206004820152603760248201527f434c4d383a3a72656769737465726564496e6475737472793a2074686520616460448201527f6472657373206973206e6f742072656769737465726564000000000000000000606482015260840161092d565b6001840154613085906001600160a01b0316613e99565b825182511461310a5760405162461bcd60e51b815260206004820152604560248201527f434c4d383a3a5f747261636b546f6b656e733a20746f6b656e416d6f756e747360448201527f20616e6420746f6b656e49647320617265206e6f74207468652073616d65206c6064820152640cadccee8d60db1b608482015260a40161092d565b83546000908152600a60205260408120905b84518110156135345760075485516000916001600160a01b031690637f157c9b90309089908690811061315f57634e487b7160e01b600052603260045260246000fd5b60200260200101516040518363ffffffff1660e01b81526004016131989291906001600160a01b03929092168252602082015260400190565b604080518083038186803b1580156131af57600080fd5b505afa1580156131c3573d6000803e3d6000fd5b505050506040513d601f19601f820116820180604052508101906131e791906150d2565b506008549091506001600160a01b0316331480613277575084828151811061321f57634e487b7160e01b600052603260045260246000fd5b6020026020010151613274600e600089868151811061324e57634e487b7160e01b600052603260045260246000fd5b602002602001015181526020019081526020016000205483613a6190919063ffffffff16565b10155b61330f5760405162461bcd60e51b815260206004820152605d60248201527f434c4d383a3a5f747261636b546f6b656e733a20746f6b656e416d6f756e747360448201527f5b695d2069732067726561746572207468616e2077686174206973206176616960648201527f6c61626c6520746f2074686520747261636b657220636f6e7472616374000000608482015260a40161092d565b61338385838151811061333257634e487b7160e01b600052603260045260246000fd5b6020026020010151600e600089868151811061335e57634e487b7160e01b600052603260045260246000fd5b6020026020010151815260200190815260200160002054613f2290919063ffffffff16565b600e60008885815181106133a757634e487b7160e01b600052603260045260246000fd5b602002602001015181526020019081526020016000208190555060008360010160008885815181106133e957634e487b7160e01b600052603260045260246000fd5b602002602001015181526020019081526020016000205490506000600760009054906101000a90046001600160a01b03166001600160a01b031663127d5ad089868151811061344857634e487b7160e01b600052603260045260246000fd5b60200260200101516040518263ffffffff1660e01b815260040161346e91815260200190565b60206040518083038186803b15801561348657600080fd5b505afa15801561349a573d6000803e3d6000fd5b505050506040513d601f19601f820116820180604052508101906134be9190615229565b905061351e858986815181106134e457634e487b7160e01b600052603260045260246000fd5b602002602001015189878151811061350c57634e487b7160e01b600052603260045260246000fd5b6020026020010151858560ff166140b8565b505050808061352c9061582a565b91505061311c565b5084546040513391907f9e9551038641ee9a8a14b78336fb5255e8b0d04b8790a9855ac2bd8fa74957cf9061356c9088908890615400565b60405180910390a35050505050565b6000818152600960205260409020600201546001600160a01b0316612b0c5760405162461bcd60e51b815260206004820152602a60248201527f434c4d383a3a5f6973417564697465643a20747261636b65724964206973206e6044820152691bdd08185d591a5d195960b21b606482015260840161092d565b806135ff600c5490565b1015612b0c5760405162461bcd60e51b815260206004820152603560248201527f434c4d383a3a5f747261636b65724578697374733a20747261636b657220746f6044820152741ad95b88125108191bd95cc81b9bdd08195e1a5cdd605a1b606482015260840161092d565b600080600061367a8585614170565b91509150613687816141b6565b509392505050565b610e1482826138bd565b6000806136a5836114fa565b9050806001600160a01b0316846001600160a01b031614806136ec57506001600160a01b0380821660009081526005602090815260408083209388168352929052205460ff165b806109eb5750836001600160a01b031661370584610891565b6001600160a01b031614949350505050565b826001600160a01b031661372a826114fa565b6001600160a01b03161461378e5760405162461bcd60e51b815260206004820152602560248201527f4552433732313a207472616e736665722066726f6d20696e636f72726563742060448201526437bbb732b960d91b606482015260840161092d565b6001600160a01b0382166137f05760405162461bcd60e51b8152602060048201526024808201527f4552433732313a207472616e7366657220746f20746865207a65726f206164646044820152637265737360e01b606482015260840161092d565b6137fb600082612b0f565b6001600160a01b038316600090815260036020526040812080546001929061382490849061579b565b90915550506001600160a01b0382166000908152600360205260408120805460019290613852908490615750565b909155505060008181526002602052604080822080546001600160a01b0319166001600160a01b0386811691821790925591518493918716917fddf252ad1be2c89b69c2b068fc378daa952ba7f163c4a11628f55a4df523b3ef91a46109ce565b612b0c81336143b9565b6138c78282611ac7565b610e145760008281526006602090815260408083206001600160a01b03851684529091529020805460ff191660011790556138ff3390565b6001600160a01b0316816001600160a01b0316837f2f8788117e7eff1d82e926ec794901d17c78024a50270940304540a733656f0d60405160405180910390a45050565b61394d8282611ac7565b15610e145760008281526006602090815260408083206001600160a01b0385168085529252808320805460ff1916905551339285917ff6391f5c32d9c69d2a47ea670b442974b53935d1edc7fd64eb21e047a839171b9190a45050565b6139b38161441d565b806139d75750806001600160a01b03166139cc836114fa565b6001600160a01b0316145b610e145760405162461bcd60e51b815260206004820152604f60248201527f434c4d383a3a5f69734f776e65723a206d73672e73656e646572206973206e6f60448201527f74207468652061756469746f72206f66206f7220646f6573206e6f74206f776e60648201526e081d1a1a5cc81d1c9858dad95c9259608a1b608482015260a40161092d565b6000612605828461579b565b6000848152600a6020908152604080832086845260078101835281842086855260028101909352922054613aa19084613f22565b6000858152600283016020818152604080842085905589845260068701825280842054898552600187018352932054919052909115613b0f5780613b0a578254600181810185556000858152602080822090930189905585548982529186019092526040909120555b613c43565b8015613c3157825460011015613be55782548390613b2f9060019061579b565b81548110613b4d57634e487b7160e01b600052603260045260246000fd5b60009182526020909120015483613b6560018461579b565b81548110613b8357634e487b7160e01b600052603260045260246000fd5b90600052602060002001819055508083600101600085600001600185613ba9919061579b565b81548110613bc757634e487b7160e01b600052603260045260246000fd5b90600052602060002001548152602001908152602001600020819055505b60008681526001808501602052604082209190915583548491613c079161579b565b81548110613c2557634e487b7160e01b600052603260045260246000fd5b60009182526020822001555b60008681526002840160205260408120555b825415613c835781613c7e57600584018054600181018255600082815260208082209092018a90559154898352600687019091526040909120555b610a80565b8115613daf57600584015460011015613d6257600584018054613ca89060019061579b565b81548110613cc657634e487b7160e01b600052603260045260246000fd5b906000526020600020015484600501600184613ce2919061579b565b81548110613d0057634e487b7160e01b600052603260045260246000fd5b90600052602060002001819055508184600601600086600501600186613d26919061579b565b81548110613d4457634e487b7160e01b600052603260045260246000fd5b90600052602060002001548152602001908152602001600020819055505b6000878152600685016020526040812055600584018054613d859060019061579b565b81548110613da357634e487b7160e01b600052603260045260246000fd5b60009182526020822001555b60008781526007850160205260408120906113f082826149d2565b816001600160a01b0316836001600160a01b03161415613e2c5760405162461bcd60e51b815260206004820152601960248201527f4552433732313a20617070726f766520746f2063616c6c657200000000000000604482015260640161092d565b6001600160a01b03838116600081815260056020908152604080832094871680845294825291829020805460ff191686151590811790915591519182527f17307eab39ab6107e8899845ad3d59bd9653f200f220920489ca2b5937696c31910160405180910390a3505050565b613ea28161441d565b612b0c5760405162461bcd60e51b8152602060048201526044602482018190527f434c4d383a3a5f697341756469746f723a205f747261636b6565206973206e6f908201527f7420616e20617070726f7665642061756469746f72206f662074686520747261606482015263636b656560e01b608482015260a40161092d565b60006126058284615750565b613f39848484613717565b613f4584848484614526565b61252f5760405162461bcd60e51b815260040161092d906154b6565b606081613f8657506040805180820190915260018152600360fc1b60208201526107fa565b8160005b8115613fb05780613f9a8161582a565b9150613fa99050600a83615768565b9150613f8a565b6000816001600160401b03811115613fd857634e487b7160e01b600052604160045260246000fd5b6040519080825280601f01601f191660200182016040528015614002576020820181803683370190505b5090505b84156109eb5761401760018361579b565b9150614024600a86615845565b61402f906030615750565b60f81b81838151811061405257634e487b7160e01b600052603260045260246000fd5b60200101906001600160f81b031916908160001a905350614074600a86615768565b9450614006565b6000612605828461577c565b60006126058284615768565b60006001600160e01b03198216637965db0b60e01b14806107f757506107f782614630565b80600414156140f25760008481526002860160205260409020546140dc9084613f22565b6000858152600287016020526040902055614128565b80600214156141285760008481526002860160205260409020546141169084613a61565b60008581526002870160205260409020555b60008481526002860160205260409020541561131357816113135750508254600180820185556000858152602080822090930185905585549481529401905250604090912055565b6000808251604114156141a75760208301516040840151606085015160001a61419b87828585614680565b945094505050506141af565b506000905060025b9250929050565b60008160048111156141d857634e487b7160e01b600052602160045260246000fd5b14156141e357612b0c565b600181600481111561420557634e487b7160e01b600052602160045260246000fd5b14156142535760405162461bcd60e51b815260206004820152601860248201527f45434453413a20696e76616c6964207369676e61747572650000000000000000604482015260640161092d565b600281600481111561427557634e487b7160e01b600052602160045260246000fd5b14156142c35760405162461bcd60e51b815260206004820152601f60248201527f45434453413a20696e76616c6964207369676e6174757265206c656e67746800604482015260640161092d565b60038160048111156142e557634e487b7160e01b600052602160045260246000fd5b141561433e5760405162461bcd60e51b815260206004820152602260248201527f45434453413a20696e76616c6964207369676e6174757265202773272076616c604482015261756560f01b606482015260840161092d565b600481600481111561436057634e487b7160e01b600052602160045260246000fd5b1415612b0c5760405162461bcd60e51b815260206004820152602260248201527f45434453413a20696e76616c6964207369676e6174757265202776272076616c604482015261756560f01b606482015260840161092d565b6143c38282611ac7565b610e14576143db816001600160a01b0316601461476d565b6143e683602061476d565b6040516020016143f792919061533b565b60408051601f198184030181529082905262461bcd60e51b825261092d9160040161542e565b6007546040516349b9055760e01b81523360048201526000916001600160a01b0316906349b905579060240160206040518083038186803b15801561446157600080fd5b505afa158015614475573d6000803e3d6000fd5b505050506040513d601f19601f820116820180604052508101906144999190614e74565b806144ae57506008546001600160a01b031633145b80156107f757506001600160a01b03821660009081526011602052604090205460ff16801561450057503360009081526010602090815260408083206001600160a01b038616845290915290205460ff165b806107f75750506001600160a01b031660009081526011602052604090205460ff161590565b60006001600160a01b0384163b1561462857604051630a85bd0160e11b81526001600160a01b0385169063150b7a029061456a9033908990889088906004016153b0565b602060405180830381600087803b15801561458457600080fd5b505af19250505080156145b4575060408051601f3d908101601f191682019092526145b191810190614efe565b60015b61460e573d8080156145e2576040519150601f19603f3d011682016040523d82523d6000602084013e6145e7565b606091505b5080516146065760405162461bcd60e51b815260040161092d906154b6565b805181602001fd5b6001600160e01b031916630a85bd0160e11b1490506109eb565b5060016109eb565b60006001600160e01b031982166380ac58cd60e01b148061466157506001600160e01b03198216635b5e139f60e01b145b806107f757506301ffc9a760e01b6001600160e01b03198316146107f7565b6000807f7fffffffffffffffffffffffffffffff5d576e7357a4501ddfe92f46681b20a08311156146b75750600090506003614764565b8460ff16601b141580156146cf57508460ff16601c14155b156146e05750600090506004614764565b6040805160008082526020820180845289905260ff881692820192909252606081018690526080810185905260019060a0016020604051602081039080840390855afa158015614734573d6000803e3d6000fd5b5050604051601f1901519150506001600160a01b03811661475d57600060019250925050614764565b9150600090505b94509492505050565b6060600061477c83600261577c565b614787906002615750565b6001600160401b038111156147ac57634e487b7160e01b600052604160045260246000fd5b6040519080825280601f01601f1916602001820160405280156147d6576020820181803683370190505b509050600360fc1b816000815181106147ff57634e487b7160e01b600052603260045260246000fd5b60200101906001600160f81b031916908160001a905350600f60fb1b8160018151811061483c57634e487b7160e01b600052603260045260246000fd5b60200101906001600160f81b031916908160001a905350600061486084600261577c565b61486b906001615750565b90505b60018111156148ff576f181899199a1a9b1b9c1cb0b131b232b360811b85600f16601081106148ad57634e487b7160e01b600052603260045260246000fd5b1a60f81b8282815181106148d157634e487b7160e01b600052603260045260246000fd5b60200101906001600160f81b031916908160001a90535060049490941c936148f8816157de565b905061486e565b5083156126055760405162461bcd60e51b815260206004820181905260248201527f537472696e67733a20686578206c656e67746820696e73756666696369656e74604482015260640161092d565b82805461495a906157f5565b90600052602060002090601f01602090048101928261497c57600085556149c2565b82601f1061499557805160ff19168380011785556149c2565b828001600101855582156149c2579182015b828111156149c25782518255916020019190600101906149a7565b506149ce9291506149ec565b5090565b5080546000825590600052602060002090810190612b0c91905b5b808211156149ce57600081556001016149ed565b80356001600160a01b03811681146107fa57600080fd5b600082601f830112614a28578081fd5b81356020614a3d614a388361572d565b6156fd565b82815281810190858301855b85811015614a7257614a60898684358b0101614adc565b84529284019290840190600101614a49565b5090979650505050505050565b600082601f830112614a8f578081fd5b81356020614a9f614a388361572d565b80838252828201915082860187848660051b8901011115614abe578586fd5b855b85811015614a7257813584529284019290840190600101614ac0565b600082601f830112614aec578081fd5b81356001600160401b03811115614b0557614b05615885565b614b18601f8201601f19166020016156fd565b818152846020838601011115614b2c578283fd5b816020850160208301379081016020019190915292915050565b600060208284031215614b57578081fd5b61260582614a01565b60008060408385031215614b72578081fd5b614b7b83614a01565b9150614b8960208401614a01565b90509250929050565b600080600080600060a08688031215614ba9578081fd5b614bb286614a01565b9450614bc060208701614a01565b935060408601356001600160401b0380821115614bdb578283fd5b614be789838a01614a7f565b94506060880135915080821115614bfc578283fd5b614c0889838a01614a7f565b93506080880135915080821115614c1d578283fd5b50614c2a88828901614adc565b9150509295509295909350565b600080600080600080600080610100898b031215614c53578283fd5b614c5c89614a01565b9750614c6a60208a01614a01565b965060408901356001600160401b0380821115614c85578485fd5b614c918c838d01614a7f565b975060608b0135915080821115614ca6578485fd5b614cb28c838d01614a7f565b965060808b0135955060a08b0135945060c08b0135915080821115614cd5578384fd5b614ce18c838d01614adc565b935060e08b0135915080821115614cf6578283fd5b50614d038b828c01614adc565b9150509295985092959890939650565b600080600060608486031215614d27578283fd5b614d3084614a01565b9250614d3e60208501614a01565b9150604084013590509250925092565b60008060008060808587031215614d63578182fd5b614d6c85614a01565b9350614d7a60208601614a01565b92506040850135915060608501356001600160401b03811115614d9b578182fd5b614da787828801614adc565b91505092959194509250565b600080600080600060a08688031215614dca578283fd5b614dd386614a01565b9450614de160208701614a01565b9350604086013592506060860135915060808601356001600160401b03811115614e09578182fd5b614c2a88828901614adc565b60008060408385031215614e27578182fd5b614e3083614a01565b91506020830135614e408161589b565b809150509250929050565b60008060408385031215614e5d578182fd5b614e6683614a01565b946020939093013593505050565b600060208284031215614e85578081fd5b81516126058161589b565b600060208284031215614ea1578081fd5b5035919050565b600060208284031215614eb9578081fd5b5051919050565b60008060408385031215614ed2578182fd5b82359150614b8960208401614a01565b600060208284031215614ef3578081fd5b8135612605816158a9565b600060208284031215614f0f578081fd5b8151612605816158a9565b60008060008060008060c08789031215614f32578384fd5b8635955060208701356001600160401b0380821115614f4f578586fd5b614f5b8a838b01614a7f565b96506040890135915080821115614f70578586fd5b614f7c8a838b01614a7f565b95506060890135915080821115614f91578384fd5b614f9d8a838b01614a18565b94506080890135915080821115614fb2578384fd5b614fbe8a838b01614a18565b935060a0890135915080821115614fd3578283fd5b50614fe089828a01614a18565b9150509295509295509295565b600080600080600080600060e0888a031215615007578081fd5b8735965060208801356001600160401b0380821115615024578283fd5b6150308b838c01614a7f565b975060408a0135915080821115615045578283fd5b6150518b838c01614a7f565b965060608a0135955060808a0135945060a08a0135915080821115615074578283fd5b6150808b838c01614adc565b935060c08a0135915080821115615095578283fd5b506150a28a828b01614adc565b91505092959891949750929550565b600080604083850312156150c3578182fd5b50508035926020909101359150565b600080604083850312156150e4578182fd5b505080516020909101519092909150565b600080600060608486031215615109578081fd5b833592506020840135915061512060408501614a01565b90509250925092565b6000806000806080858703121561513e578182fd5b843593506020850135925060408501356001600160401b0380821115615162578384fd5b61516e88838901614adc565b93506060870135915080821115615183578283fd5b50614da787828801614adc565b600080600080600060a086880312156151a7578283fd5b853594506020860135935060408601356001600160401b03808211156151cb578485fd5b6151d789838a01614adc565b945060608801359150808211156151ec578283fd5b614c0889838a01614adc565b6000806000806080858703121561520d578182fd5b5050823594602084013594506040840135936060013592509050565b60006020828403121561523a578081fd5b815160ff81168114612605578182fd5b6000815180845260208085019450808401835b838110156152795781518752958201959082019060010161525d565b509495945050505050565b6000815180845261529c8160208601602086016157b2565b601f01601f19169290920160200192915050565b60006bffffffffffffffffffffffff198760601b16825285601483015284603483015283516152e68160548501602088016157b2565b8351908301906152fd8160548401602088016157b2565b01605401979650505050505050565b6000835161531e8184602088016157b2565b8351908301906153328183602088016157b2565b01949350505050565b60007f416363657373436f6e74726f6c3a206163636f756e7420000000000000000000825283516153738160178501602088016157b2565b7001034b99036b4b9b9b4b733903937b6329607d1b60179184019182015283516153a48160288401602088016157b2565b01602801949350505050565b6001600160a01b03858116825284166020820152604081018390526080606082018190526000906153e390830184615284565b9695505050505050565b600060208252612605602083018461524a565b600060408252615413604083018561524a565b8281036020840152615425818561524a565b95945050505050565b6000602082526126056020830184615284565b6020808252604f908201527f434c4d383a3a70726f64756374735570646174653a2070726f64756374556e6960408201527f74416d6f756e747320616e642070726f6475637449647320617265206e6f742060608201526e0e8d0ca40e6c2daca40d8cadccee8d608b1b608082015260a00190565b60208082526032908201527f4552433732313a207472616e7366657220746f206e6f6e20455243373231526560408201527131b2b4bb32b91034b6b83632b6b2b73a32b960711b606082015260800190565b6020808252602e908201527f4552433732313a2063616c6c6572206973206e6f7420746f6b656e206f776e6560408201526d1c881b9bdc88185c1c1c9bdd995960921b606082015260800190565b6020808252602e908201527f434c4d383a3a6e6f74417564697465643a20747261636b65724964206973206160408201526d1b1c9958591e48185d591a5d195960921b606082015260800190565b6000606082528451606083015260208501516155cb60808401826001600160a01b03169052565b5060408501516001600160a01b03811660a084015250606085015160c0830152608085015160e083015260a0850151610100818185015260c08701519150610120615620818601846001600160a01b03169052565b60e088015192506101408381870152828901519350610160925083838701528189015193508261018087015261565a6101c0870185615284565b93508089015192505050605f19848303016101a085015261567b8282615284565b91505084602084015282810360408401526153e3818561524a565b600088825260018060a01b038816602083015286604083015285606083015260e060808301526156c960e0830186615284565b82810360a08401526156db8186615284565b905082810360c08401526156ef8185615284565b9a9950505050505050505050565b604051601f8201601f191681016001600160401b038111828210171561572557615725615885565b604052919050565b60006001600160401b0382111561574657615746615885565b5060051b60200190565b6000821982111561576357615763615859565b500190565b6000826157775761577761586f565b500490565b600081600019048311821515161561579657615796615859565b500290565b6000828210156157ad576157ad615859565b500390565b60005b838110156157cd5781810151838201526020016157b5565b8381111561252f5750506000910152565b6000816157ed576157ed615859565b506000190190565b600181811c9082168061580957607f821691505b6020821081141561265957634e487b7160e01b600052602260045260246000fd5b600060001982141561583e5761583e615859565b5060010190565b6000826158545761585461586f565b500690565b634e487b7160e01b600052601160045260246000fd5b634e487b7160e01b600052601260045260246000fd5b634e487b7160e01b600052604160045260246000fd5b8015158114612b0c57600080fd5b6001600160e01b031981168114612b0c57600080fdfea2646970667358221220d6e8a9a2d3c2d3705b3ac08f5cacae131eccbeb65880a0ecac6da607d831e94f64736f6c63430008030033",
  "linkReferences": {},
  "deployedLinkReferences": {}
}