{
  "_format": "hh-sol-artifact-1",
  "contractName": "CarbonTracker",
  "sourceName": "solidity/CarbonTracker.sol",
  "abi": [
    {
      "inputs": [
        {
          "internalType": "address",
          "name": "_net",
          "type": "address"
        },
        {
          "internalType": "address",
          "name": "_admin",
          "type": "address"
        }
      ],
      "stateMutability": "nonpayable",
      "type": "constructor"
    },
    {
      "anonymous": false,
      "inputs": [
        {
          "indexed": true,
          "internalType": "address",
          "name": "owner",
          "type": "address"
        },
        {
          "indexed": true,
          "internalType": "address",
          "name": "approved",
          "type": "address"
        },
        {
          "indexed": true,
          "internalType": "uint256",
          "name": "tokenId",
          "type": "uint256"
        }
      ],
      "name": "Approval",
      "type": "event"
    },
    {
      "anonymous": false,
      "inputs": [
        {
          "indexed": true,
          "internalType": "address",
          "name": "owner",
          "type": "address"
        },
        {
          "indexed": true,
          "internalType": "address",
          "name": "operator",
          "type": "address"
        },
        {
          "indexed": false,
          "internalType": "bool",
          "name": "approved",
          "type": "bool"
        }
      ],
      "name": "ApprovalForAll",
      "type": "event"
    },
    {
      "anonymous": false,
      "inputs": [
        {
          "indexed": true,
          "internalType": "uint256",
          "name": "trackerId",
          "type": "uint256"
        },
        {
          "indexed": false,
          "internalType": "uint256[]",
          "name": "productIds",
          "type": "uint256[]"
        },
        {
          "indexed": false,
          "internalType": "uint256[]",
          "name": "productAmounts",
          "type": "uint256[]"
        }
      ],
      "name": "ProductsUpdated",
      "type": "event"
    },
    {
      "anonymous": false,
      "inputs": [
        {
          "indexed": true,
          "internalType": "address",
          "name": "account",
          "type": "address"
        }
      ],
      "name": "RegisteredTracker",
      "type": "event"
    },
    {
      "anonymous": false,
      "inputs": [
        {
          "indexed": true,
          "internalType": "bytes32",
          "name": "role",
          "type": "bytes32"
        },
        {
          "indexed": true,
          "internalType": "bytes32",
          "name": "previousAdminRole",
          "type": "bytes32"
        },
        {
          "indexed": true,
          "internalType": "bytes32",
          "name": "newAdminRole",
          "type": "bytes32"
        }
      ],
      "name": "RoleAdminChanged",
      "type": "event"
    },
    {
      "anonymous": false,
      "inputs": [
        {
          "indexed": true,
          "internalType": "bytes32",
          "name": "role",
          "type": "bytes32"
        },
        {
          "indexed": true,
          "internalType": "address",
          "name": "account",
          "type": "address"
        },
        {
          "indexed": true,
          "internalType": "address",
          "name": "sender",
          "type": "address"
        }
      ],
      "name": "RoleGranted",
      "type": "event"
    },
    {
      "anonymous": false,
      "inputs": [
        {
          "indexed": true,
          "internalType": "bytes32",
          "name": "role",
          "type": "bytes32"
        },
        {
          "indexed": true,
          "internalType": "address",
          "name": "account",
          "type": "address"
        },
        {
          "indexed": true,
          "internalType": "address",
          "name": "sender",
          "type": "address"
        }
      ],
      "name": "RoleRevoked",
      "type": "event"
    },
    {
      "anonymous": false,
      "inputs": [
        {
          "indexed": true,
          "internalType": "uint256",
          "name": "trackerId",
          "type": "uint256"
        },
        {
          "indexed": true,
          "internalType": "address",
          "name": "trackee",
          "type": "address"
        }
      ],
      "name": "TrackeeChanged",
      "type": "event"
    },
    {
      "anonymous": false,
      "inputs": [
        {
          "indexed": true,
          "internalType": "uint256",
          "name": "trackerId",
          "type": "uint256"
        },
        {
          "indexed": true,
          "internalType": "address",
          "name": "tracker",
          "type": "address"
        },
        {
          "indexed": false,
          "internalType": "uint256[]",
          "name": "tokenIds",
          "type": "uint256[]"
        },
        {
          "indexed": false,
          "internalType": "uint256[]",
          "name": "tokenAmounts",
          "type": "uint256[]"
        },
        {
          "indexed": false,
          "internalType": "uint256",
          "name": "fromDate",
          "type": "uint256"
        },
        {
          "indexed": false,
          "internalType": "uint256",
          "name": "thruDate",
          "type": "uint256"
        }
      ],
      "name": "TrackerUpdated",
      "type": "event"
    },
    {
      "anonymous": false,
      "inputs": [
        {
          "indexed": true,
          "internalType": "address",
          "name": "from",
          "type": "address"
        },
        {
          "indexed": true,
          "internalType": "address",
          "name": "to",
          "type": "address"
        },
        {
          "indexed": true,
          "internalType": "uint256",
          "name": "tokenId",
          "type": "uint256"
        }
      ],
      "name": "Transfer",
      "type": "event"
    },
    {
      "anonymous": false,
      "inputs": [
        {
          "indexed": true,
          "internalType": "uint256",
          "name": "tokenId",
          "type": "uint256"
        },
        {
          "indexed": true,
          "internalType": "address",
          "name": "trackee",
          "type": "address"
        },
        {
          "indexed": false,
          "internalType": "uint256",
          "name": "amount",
          "type": "uint256"
        }
      ],
      "name": "VerifiedOutput",
      "type": "event"
    },
    {
      "anonymous": false,
      "inputs": [
        {
          "indexed": true,
          "internalType": "address",
          "name": "auditor",
          "type": "address"
        },
        {
          "indexed": true,
          "internalType": "address",
          "name": "trackee",
          "type": "address"
        }
      ],
      "name": "VerifierApproved",
      "type": "event"
    },
    {
      "anonymous": false,
      "inputs": [
        {
          "indexed": true,
          "internalType": "address",
          "name": "auditor",
          "type": "address"
        },
        {
          "indexed": true,
          "internalType": "address",
          "name": "trackee",
          "type": "address"
        }
      ],
      "name": "VerifierRemoved",
      "type": "event"
    },
    {
      "inputs": [],
      "name": "DEFAULT_ADMIN_ROLE",
      "outputs": [
        {
          "internalType": "bytes32",
          "name": "",
          "type": "bytes32"
        }
      ],
      "stateMutability": "view",
      "type": "function"
    },
    {
      "inputs": [],
      "name": "REGISTERED_TRACKER",
      "outputs": [
        {
          "internalType": "bytes32",
          "name": "",
          "type": "bytes32"
        }
      ],
      "stateMutability": "view",
      "type": "function"
    },
    {
      "inputs": [
        {
          "internalType": "uint256",
          "name": "trackerId",
          "type": "uint256"
        },
        {
          "internalType": "uint256",
          "name": "productId",
          "type": "uint256"
        },
        {
          "internalType": "string",
          "name": "unit",
          "type": "string"
        },
        {
          "internalType": "uint256",
          "name": "unitAmount",
          "type": "uint256"
        }
      ],
      "name": "_getUnitHash",
      "outputs": [
        {
          "internalType": "bytes32",
          "name": "",
          "type": "bytes32"
        }
      ],
      "stateMutability": "view",
      "type": "function"
    },
    {
      "inputs": [],
      "name": "_numOfProducts",
      "outputs": [
        {
          "internalType": "uint256",
          "name": "_value",
          "type": "uint256"
        }
      ],
      "stateMutability": "view",
      "type": "function"
    },
    {
      "inputs": [],
      "name": "_numOfUniqueTrackers",
      "outputs": [
        {
          "internalType": "uint256",
          "name": "_value",
          "type": "uint256"
        }
      ],
      "stateMutability": "view",
      "type": "function"
    },
    {
      "inputs": [
        {
          "internalType": "uint256",
          "name": "",
          "type": "uint256"
        }
      ],
      "name": "_productData",
      "outputs": [
        {
          "internalType": "uint256",
          "name": "trackerId",
          "type": "uint256"
        },
        {
          "internalType": "address",
          "name": "auditor",
          "type": "address"
        },
        {
          "internalType": "uint256",
          "name": "amount",
          "type": "uint256"
        },
        {
          "internalType": "uint256",
          "name": "available",
          "type": "uint256"
        },
        {
          "internalType": "string",
          "name": "name",
          "type": "string"
        },
        {
          "internalType": "string",
          "name": "unit",
          "type": "string"
        },
        {
          "internalType": "uint256",
          "name": "unitAmount",
          "type": "uint256"
        }
      ],
      "stateMutability": "view",
      "type": "function"
    },
    {
      "inputs": [
        {
          "internalType": "uint256",
          "name": "outAmount",
          "type": "uint256"
        },
        {
          "internalType": "uint256",
          "name": "totalTracked",
          "type": "uint256"
        }
      ],
      "name": "_verifyTotalTracked",
      "outputs": [],
      "stateMutability": "pure",
      "type": "function"
    },
    {
      "inputs": [
        {
          "internalType": "address",
          "name": "to",
          "type": "address"
        },
        {
          "internalType": "uint256",
          "name": "tokenId",
          "type": "uint256"
        }
      ],
      "name": "approve",
      "outputs": [],
      "stateMutability": "nonpayable",
      "type": "function"
    },
    {
      "inputs": [
        {
          "internalType": "address",
          "name": "verifier",
          "type": "address"
        },
        {
          "internalType": "bool",
          "name": "approve",
          "type": "bool"
        }
      ],
      "name": "approveVerifier",
      "outputs": [],
      "stateMutability": "nonpayable",
      "type": "function"
    },
    {
      "inputs": [
        {
          "internalType": "uint256",
          "name": "trackerId",
          "type": "uint256"
        }
      ],
      "name": "audit",
      "outputs": [],
      "stateMutability": "nonpayable",
      "type": "function"
    },
    {
      "inputs": [
        {
          "internalType": "address",
          "name": "owner",
          "type": "address"
        }
      ],
      "name": "balanceOf",
      "outputs": [
        {
          "internalType": "uint256",
          "name": "",
          "type": "uint256"
        }
      ],
      "stateMutability": "view",
      "type": "function"
    },
    {
      "inputs": [],
      "name": "decimalsEf",
      "outputs": [
        {
          "internalType": "uint256",
          "name": "",
          "type": "uint256"
        }
      ],
      "stateMutability": "view",
      "type": "function"
    },
    {
      "inputs": [
        {
          "internalType": "uint256",
          "name": "trackerId",
          "type": "uint256"
        }
      ],
      "name": "emissionFactor",
      "outputs": [
        {
          "internalType": "uint256",
          "name": "",
          "type": "uint256"
        }
      ],
      "stateMutability": "view",
      "type": "function"
    },
    {
      "inputs": [
        {
          "internalType": "uint256",
          "name": "tokenId",
          "type": "uint256"
        }
      ],
      "name": "getApproved",
      "outputs": [
        {
          "internalType": "address",
          "name": "",
          "type": "address"
        }
      ],
      "stateMutability": "view",
      "type": "function"
    },
    {
      "inputs": [],
      "name": "getNumOfProducts",
      "outputs": [
        {
          "internalType": "uint256",
          "name": "",
          "type": "uint256"
        }
      ],
      "stateMutability": "view",
      "type": "function"
    },
    {
      "inputs": [],
      "name": "getNumOfUniqueTrackers",
      "outputs": [
        {
          "internalType": "uint256",
          "name": "",
          "type": "uint256"
        }
      ],
      "stateMutability": "view",
      "type": "function"
    },
    {
      "inputs": [
        {
          "internalType": "uint256",
          "name": "productId",
          "type": "uint256"
        },
        {
          "internalType": "address",
          "name": "owner",
          "type": "address"
        }
      ],
      "name": "getProductBalance",
      "outputs": [
        {
          "internalType": "uint256",
          "name": "",
          "type": "uint256"
        }
      ],
      "stateMutability": "view",
      "type": "function"
    },
    {
      "inputs": [
        {
          "internalType": "uint256",
          "name": "productId",
          "type": "uint256"
        }
      ],
      "name": "getProductDetails",
      "outputs": [
        {
          "internalType": "uint256",
          "name": "",
          "type": "uint256"
        },
        {
          "internalType": "uint256",
          "name": "",
          "type": "uint256"
        },
        {
          "internalType": "uint256",
          "name": "",
          "type": "uint256"
        }
      ],
      "stateMutability": "view",
      "type": "function"
    },
    {
      "inputs": [
        {
          "internalType": "uint256",
          "name": "productId",
          "type": "uint256"
        }
      ],
      "name": "getProductOptionalDetails",
      "outputs": [
        {
          "internalType": "string",
          "name": "",
          "type": "string"
        },
        {
          "internalType": "uint256",
          "name": "",
          "type": "uint256"
        },
        {
          "internalType": "string",
          "name": "",
          "type": "string"
        }
      ],
      "stateMutability": "view",
      "type": "function"
    },
    {
      "inputs": [
        {
          "internalType": "bytes32",
          "name": "role",
          "type": "bytes32"
        }
      ],
      "name": "getRoleAdmin",
      "outputs": [
        {
          "internalType": "bytes32",
          "name": "",
          "type": "bytes32"
        }
      ],
      "stateMutability": "view",
      "type": "function"
    },
    {
      "inputs": [
        {
          "internalType": "uint256",
          "name": "trackerId",
          "type": "uint256"
        }
      ],
      "name": "getTokenAmounts",
      "outputs": [
        {
          "internalType": "uint256[]",
          "name": "",
          "type": "uint256[]"
        },
        {
          "internalType": "uint256[]",
          "name": "",
          "type": "uint256[]"
        }
      ],
      "stateMutability": "view",
      "type": "function"
    },
    {
      "inputs": [
        {
          "internalType": "uint256",
          "name": "trackerId",
          "type": "uint256"
        }
      ],
      "name": "getTokenIds",
      "outputs": [
        {
          "internalType": "uint256[]",
          "name": "",
          "type": "uint256[]"
        }
      ],
      "stateMutability": "view",
      "type": "function"
    },
    {
      "inputs": [
        {
          "internalType": "uint256",
          "name": "trackerId",
          "type": "uint256"
        }
      ],
      "name": "getTotalEmissions",
      "outputs": [
        {
          "internalType": "uint256",
          "name": "",
          "type": "uint256"
        }
      ],
      "stateMutability": "view",
      "type": "function"
    },
    {
      "inputs": [
        {
          "internalType": "uint256",
          "name": "trackerId",
          "type": "uint256"
        }
      ],
      "name": "getTrackerDetails",
      "outputs": [
        {
          "components": [
            {
              "internalType": "uint256",
              "name": "trackerId",
              "type": "uint256"
            },
            {
              "internalType": "address",
              "name": "trackee",
              "type": "address"
            },
            {
              "internalType": "address",
              "name": "auditor",
              "type": "address"
            },
            {
              "internalType": "uint256",
              "name": "totalProductAmounts",
              "type": "uint256"
            },
            {
              "internalType": "uint256",
              "name": "fromDate",
              "type": "uint256"
            },
            {
              "internalType": "uint256",
              "name": "thruDate",
              "type": "uint256"
            },
            {
              "internalType": "uint256",
              "name": "dateCreated",
              "type": "uint256"
            },
            {
              "internalType": "string",
              "name": "metadata",
              "type": "string"
            },
            {
              "internalType": "string",
              "name": "description",
              "type": "string"
            }
          ],
          "internalType": "struct CarbonTracker.CarbonTrackerDetails",
          "name": "",
          "type": "tuple"
        },
        {
          "internalType": "uint256",
          "name": "",
          "type": "uint256"
        },
        {
          "internalType": "uint256[]",
          "name": "",
          "type": "uint256[]"
        }
      ],
      "stateMutability": "view",
      "type": "function"
    },
    {
      "inputs": [
        {
          "internalType": "uint256",
          "name": "trackerId",
          "type": "uint256"
        }
      ],
      "name": "getTrackerIds",
      "outputs": [
        {
          "internalType": "uint256[]",
          "name": "",
          "type": "uint256[]"
        }
      ],
      "stateMutability": "view",
      "type": "function"
    },
    {
      "inputs": [
        {
          "internalType": "uint256",
          "name": "trackerId",
          "type": "uint256"
        }
      ],
      "name": "getTrackerTokenDetails",
      "outputs": [
        {
          "internalType": "uint256[]",
          "name": "",
          "type": "uint256[]"
        },
        {
          "internalType": "uint256[]",
          "name": "",
          "type": "uint256[]"
        }
      ],
      "stateMutability": "view",
      "type": "function"
    },
    {
      "inputs": [
        {
          "internalType": "bytes32",
          "name": "role",
          "type": "bytes32"
        },
        {
          "internalType": "address",
          "name": "account",
          "type": "address"
        }
      ],
      "name": "grantRole",
      "outputs": [],
      "stateMutability": "nonpayable",
      "type": "function"
    },
    {
      "inputs": [
        {
          "internalType": "bytes32",
          "name": "role",
          "type": "bytes32"
        },
        {
          "internalType": "address",
          "name": "account",
          "type": "address"
        }
      ],
      "name": "hasRole",
      "outputs": [
        {
          "internalType": "bool",
          "name": "",
          "type": "bool"
        }
      ],
      "stateMutability": "view",
      "type": "function"
    },
    {
      "inputs": [
        {
          "internalType": "address",
          "name": "owner",
          "type": "address"
        },
        {
          "internalType": "address",
          "name": "operator",
          "type": "address"
        }
      ],
      "name": "isApprovedForAll",
      "outputs": [
        {
          "internalType": "bool",
          "name": "",
          "type": "bool"
        }
      ],
      "stateMutability": "view",
      "type": "function"
    },
    {
      "inputs": [],
      "name": "name",
      "outputs": [
        {
          "internalType": "string",
          "name": "",
          "type": "string"
        }
      ],
      "stateMutability": "view",
      "type": "function"
    },
    {
      "inputs": [],
      "name": "net",
      "outputs": [
        {
          "internalType": "contract NetEmissionsTokenNetwork",
          "name": "",
          "type": "address"
        }
      ],
      "stateMutability": "view",
      "type": "function"
    },
    {
      "inputs": [],
      "name": "netAddress",
      "outputs": [
        {
          "internalType": "address",
          "name": "",
          "type": "address"
        }
      ],
      "stateMutability": "view",
      "type": "function"
    },
    {
      "inputs": [
        {
          "internalType": "address",
          "name": "",
          "type": "address"
        },
        {
          "internalType": "address",
          "name": "",
          "type": "address"
        },
        {
          "internalType": "uint256[]",
          "name": "",
          "type": "uint256[]"
        },
        {
          "internalType": "uint256[]",
          "name": "",
          "type": "uint256[]"
        },
        {
          "internalType": "bytes",
          "name": "",
          "type": "bytes"
        }
      ],
      "name": "onERC1155BatchReceived",
      "outputs": [
        {
          "internalType": "bytes4",
          "name": "",
          "type": "bytes4"
        }
      ],
      "stateMutability": "nonpayable",
      "type": "function"
    },
    {
      "inputs": [
        {
          "internalType": "address",
          "name": "",
          "type": "address"
        },
        {
          "internalType": "address",
          "name": "",
          "type": "address"
        },
        {
          "internalType": "uint256",
          "name": "",
          "type": "uint256"
        },
        {
          "internalType": "uint256",
          "name": "",
          "type": "uint256"
        },
        {
          "internalType": "bytes",
          "name": "",
          "type": "bytes"
        }
      ],
      "name": "onERC1155Received",
      "outputs": [
        {
          "internalType": "bytes4",
          "name": "",
          "type": "bytes4"
        }
      ],
      "stateMutability": "nonpayable",
      "type": "function"
    },
    {
      "inputs": [
        {
          "internalType": "uint256",
          "name": "tokenId",
          "type": "uint256"
        }
      ],
      "name": "ownerOf",
      "outputs": [
        {
          "internalType": "address",
          "name": "",
          "type": "address"
        }
      ],
      "stateMutability": "view",
      "type": "function"
    },
    {
      "inputs": [
        {
          "internalType": "uint256",
          "name": "",
          "type": "uint256"
        },
        {
          "internalType": "address",
          "name": "",
          "type": "address"
        }
      ],
      "name": "productBalance",
      "outputs": [
        {
          "internalType": "uint256",
          "name": "",
          "type": "uint256"
        }
      ],
      "stateMutability": "view",
      "type": "function"
    },
    {
      "inputs": [
        {
          "internalType": "uint256",
          "name": "trackerId",
          "type": "uint256"
        },
        {
          "internalType": "uint256[]",
          "name": "productIds",
          "type": "uint256[]"
        },
        {
          "internalType": "uint256[]",
          "name": "productAmounts",
          "type": "uint256[]"
        },
        {
          "internalType": "string[]",
          "name": "productNames",
          "type": "string[]"
        },
        {
          "internalType": "string[]",
          "name": "productUnits",
          "type": "string[]"
        },
        {
          "internalType": "uint256[]",
          "name": "productUnitAmounts",
          "type": "uint256[]"
        }
      ],
      "name": "productsUpdate",
      "outputs": [],
      "stateMutability": "nonpayable",
      "type": "function"
    },
    {
      "inputs": [
        {
          "internalType": "address",
          "name": "tracker",
          "type": "address"
        }
      ],
      "name": "registerTracker",
      "outputs": [],
      "stateMutability": "nonpayable",
      "type": "function"
    },
    {
      "inputs": [
        {
          "internalType": "uint256",
          "name": "trackerId",
          "type": "uint256"
        }
      ],
      "name": "removeAudit",
      "outputs": [],
      "stateMutability": "nonpayable",
      "type": "function"
    },
    {
      "inputs": [
        {
          "internalType": "bytes32",
          "name": "role",
          "type": "bytes32"
        },
        {
          "internalType": "address",
          "name": "account",
          "type": "address"
        }
      ],
      "name": "renounceRole",
      "outputs": [],
      "stateMutability": "nonpayable",
      "type": "function"
    },
    {
      "inputs": [
        {
          "internalType": "bytes32",
          "name": "role",
          "type": "bytes32"
        },
        {
          "internalType": "address",
          "name": "account",
          "type": "address"
        }
      ],
      "name": "revokeRole",
      "outputs": [],
      "stateMutability": "nonpayable",
      "type": "function"
    },
    {
      "inputs": [
        {
          "internalType": "address",
          "name": "from",
          "type": "address"
        },
        {
          "internalType": "address",
          "name": "to",
          "type": "address"
        },
        {
          "internalType": "uint256",
          "name": "tokenId",
          "type": "uint256"
        }
      ],
      "name": "safeTransferFrom",
      "outputs": [],
      "stateMutability": "nonpayable",
      "type": "function"
    },
    {
      "inputs": [
        {
          "internalType": "address",
          "name": "from",
          "type": "address"
        },
        {
          "internalType": "address",
          "name": "to",
          "type": "address"
        },
        {
          "internalType": "uint256",
          "name": "tokenId",
          "type": "uint256"
        },
        {
          "internalType": "bytes",
          "name": "data",
          "type": "bytes"
        }
      ],
      "name": "safeTransferFrom",
      "outputs": [],
      "stateMutability": "nonpayable",
      "type": "function"
    },
    {
      "inputs": [
        {
          "internalType": "address",
          "name": "operator",
          "type": "address"
        },
        {
          "internalType": "bool",
          "name": "approved",
          "type": "bool"
        }
      ],
      "name": "setApprovalForAll",
      "outputs": [],
      "stateMutability": "nonpayable",
      "type": "function"
    },
    {
      "inputs": [
        {
          "internalType": "bytes4",
          "name": "interfaceId",
          "type": "bytes4"
        }
      ],
      "name": "supportsInterface",
      "outputs": [
        {
          "internalType": "bool",
          "name": "",
          "type": "bool"
        }
      ],
      "stateMutability": "view",
      "type": "function"
    },
    {
      "inputs": [],
      "name": "symbol",
      "outputs": [
        {
          "internalType": "string",
          "name": "",
          "type": "string"
        }
      ],
      "stateMutability": "view",
      "type": "function"
    },
    {
      "inputs": [
        {
          "internalType": "uint256",
          "name": "tokenId",
          "type": "uint256"
        }
      ],
      "name": "tokenURI",
      "outputs": [
        {
          "internalType": "string",
          "name": "",
          "type": "string"
        }
      ],
      "stateMutability": "view",
      "type": "function"
    },
    {
      "inputs": [
        {
          "internalType": "address",
          "name": "trackee",
          "type": "address"
        },
        {
          "internalType": "uint256[]",
          "name": "tokenIds",
          "type": "uint256[]"
        },
        {
          "internalType": "uint256[]",
          "name": "tokenAmounts",
          "type": "uint256[]"
        },
        {
          "internalType": "uint256",
          "name": "fromDate",
          "type": "uint256"
        },
        {
          "internalType": "uint256",
          "name": "thruDate",
          "type": "uint256"
        },
        {
          "internalType": "string",
          "name": "description",
          "type": "string"
        }
      ],
      "name": "track",
      "outputs": [],
      "stateMutability": "nonpayable",
      "type": "function"
    },
    {
      "inputs": [
        {
          "internalType": "uint256",
          "name": "trackerId",
          "type": "uint256"
        },
        {
          "internalType": "uint256",
          "name": "sourceTrackerId",
          "type": "uint256"
        },
        {
          "internalType": "uint256",
          "name": "productId",
          "type": "uint256"
        },
        {
          "internalType": "uint256",
          "name": "productAmount",
          "type": "uint256"
        }
      ],
      "name": "trackProduct",
      "outputs": [],
      "stateMutability": "nonpayable",
      "type": "function"
    },
    {
      "inputs": [
        {
          "internalType": "uint256",
          "name": "trackerId",
          "type": "uint256"
        },
        {
          "internalType": "uint256[]",
          "name": "tokenIds",
          "type": "uint256[]"
        },
        {
          "internalType": "uint256[]",
          "name": "tokenAmounts",
          "type": "uint256[]"
        },
        {
          "internalType": "uint256",
          "name": "fromDate",
          "type": "uint256"
        },
        {
          "internalType": "uint256",
          "name": "thruDate",
          "type": "uint256"
        },
        {
          "internalType": "string",
          "name": "description",
          "type": "string"
        }
      ],
      "name": "trackUpdate",
      "outputs": [],
      "stateMutability": "nonpayable",
      "type": "function"
    },
    {
      "inputs": [
        {
          "internalType": "address",
          "name": "from",
          "type": "address"
        },
        {
          "internalType": "address",
          "name": "to",
          "type": "address"
        },
        {
          "internalType": "uint256",
          "name": "tokenId",
          "type": "uint256"
        }
      ],
      "name": "transferFrom",
      "outputs": [],
      "stateMutability": "nonpayable",
      "type": "function"
    },
    {
      "inputs": [
        {
          "internalType": "uint256",
          "name": "productId",
          "type": "uint256"
        },
        {
          "internalType": "uint256",
          "name": "productAmount",
          "type": "uint256"
        },
        {
          "internalType": "address",
          "name": "trackee",
          "type": "address"
        }
      ],
      "name": "transferProduct",
      "outputs": [],
      "stateMutability": "nonpayable",
      "type": "function"
    },
    {
      "inputs": [
        {
          "internalType": "uint256",
          "name": "trackerId",
          "type": "uint256"
        },
        {
          "internalType": "uint256",
          "name": "productId",
          "type": "uint256"
        },
        {
          "internalType": "string",
          "name": "unit",
          "type": "string"
        },
        {
          "internalType": "uint256",
          "name": "unitAmount",
          "type": "uint256"
        },
        {
          "internalType": "bytes",
          "name": "signature",
          "type": "bytes"
        }
      ],
      "name": "verifyUnitSignature",
      "outputs": [
        {
          "internalType": "bool",
          "name": "",
          "type": "bool"
        }
      ],
      "stateMutability": "view",
      "type": "function"
    }
  ],
  "bytecode": "0x60806040523480156200001157600080fd5b5060405162005ae338038062005ae3833981016040819052620000349162000266565b6040805160208082018084526000808452845192830190945283825282519293919262000063929190620001a3565b50805162000079906001906020840190620001a3565b5050600780546001600160a01b0385166001600160a01b0319918216811790925560088054909116909117905550620f4240601155620000bb600082620000ef565b620000e77f4f9730948b73761de8f37a0aea1760c5eef658d37d8c456767b81e17c01f30ed82620000ef565b5050620002da565b620000fb8282620000ff565b5050565b60008281526006602090815260408083206001600160a01b038516845290915290205460ff16620000fb5760008281526006602090815260408083206001600160a01b03851684529091529020805460ff191660011790556200015f3390565b6001600160a01b0316816001600160a01b0316837f2f8788117e7eff1d82e926ec794901d17c78024a50270940304540a733656f0d60405160405180910390a45050565b828054620001b1906200029d565b90600052602060002090601f016020900481019282620001d5576000855562000220565b82601f10620001f057805160ff191683800117855562000220565b8280016001018555821562000220579182015b828111156200022057825182559160200191906001019062000203565b506200022e92915062000232565b5090565b5b808211156200022e576000815560010162000233565b80516001600160a01b03811681146200026157600080fd5b919050565b6000806040838503121562000279578182fd5b620002848362000249565b9150620002946020840162000249565b90509250929050565b600181811c90821680620002b257607f821691505b60208210811415620002d457634e487b7160e01b600052602260045260246000fd5b50919050565b6157f980620002ea6000396000f3fe608060405234801561001057600080fd5b50600436106103275760003560e01c80637c7768d6116101b8578063b9531f2111610104578063d547741f116100a2578063e985e9c51161007c578063e985e9c51461078e578063ecc3356a146107ca578063f23a6e61146107dd578063f2600e4e146107fc57610327565b8063d547741f14610755578063e28a148f14610768578063e54a96461461077b57610327565b8063c87b56dd116100de578063c87b56dd14610709578063cf2f46641461071c578063d0b124b61461072f578063d0c9e6e21461074257610327565b8063b9531f21146106ab578063bc197c81146106be578063c2fff4a5146106f657610327565b8063a217fddf11610171578063a2ce6a791161014b578063a2ce6a791461065f578063a7d6619d14610672578063b173e57014610685578063b88d4fde1461069857610327565b8063a217fddf1461063c578063a22cb46514610644578063a23ccfe81461065757610327565b80637c7768d6146105bd57806381d5f7f6146105c55780638a59a935146105ec57806391d148541461060e57806395d89b411461062157806399228cda1461062957610327565b80633b4e06e6116102775780635ad25ac81161023057806363a248571161020a57806363a24857146105565780636813b53b1461056957806370a082311461059757806379937342146105aa57610327565b80635ad25ac81461050e5780635e7231c3146105305780636352211e1461054357610327565b80633b4e06e6146104935780633b8470b0146104b457806340e6c970146104c757806342842e0e146104d157806357991d30146104e4578063594d46051461050457610327565b80631856f262116102e45780632f2ff15d116102be5780632f2ff15d1461041c578063330dffec1461042f57806336568abe1461045a5780633abb340f1461046d57610327565b80631856f262146103d357806323b872dd146103e6578063248a9ca3146103f957610327565b806301ffc9a71461032c57806306fdde03146103545780630709cf3a14610369578063081812fc14610380578063095ea7b3146103ab5780630b71d18b146103c0575b600080fd5b61033f61033a366004614e80565b61080f565b60405190151581526020015b60405180910390f35b61035c61083c565b60405161034b9190615343565b61037260115481565b60405190815260200161034b565b61039361038e366004614e2e565b6108ce565b6040516001600160a01b03909116815260200161034b565b6103be6103b9366004614de9565b6108f5565b005b6103726103ce366004614e2e565b610a10565b6103be6103e1366004614b1a565b610a30565b6103be6103f4366004614c0b565b610c28565b610372610407366004614e2e565b60009081526006602052604090206001015490565b6103be61042a366004614e5e565b610c59565b61037261043d366004614e5e565b600f60209081526000928352604080842090915290825290205481565b6103be610468366004614e5e565b610c7e565b61048061047b366004614e2e565b610cfc565b60405161034b97969594939291906155a7565b6104a66104a1366004614e2e565b610e53565b60405161034b9291906152dc565b6103be6104c23660046150e3565b610f9f565b600c546103729081565b6103be6104df366004614c0b565b611176565b6104f76104f2366004614e2e565b611191565b60405161034b91906152c9565b600d546103729081565b61052161051c366004614e2e565b6111f3565b60405161034b93929190615356565b6103be61053e366004614fb3565b6113d7565b610393610551366004614e2e565b611473565b6103be610564366004614f7e565b6114d3565b61057c610577366004614e2e565b61153f565b6040805193845260208401929092529082015260600161034b565b6103726105a5366004614b1a565b6116df565b6103726105b8366004614e2e565b611765565b6103726117b2565b6103727f4f9730948b73761de8f37a0aea1760c5eef658d37d8c456767b81e17c01f30ed81565b6105ff6105fa366004614e2e565b6117c2565b60405161034b939291906154e4565b61033f61061c366004614e5e565b611a40565b61035c611a6d565b6103be610637366004614d0d565b611a7c565b610372600081565b6103be610652366004614db3565b611aae565b610372611ab9565b61037261066d36600461502b565b611ac4565b6103be610680366004614db3565b611aff565b6103be610693366004614e2e565b611dbe565b6103be6106a6366004614c46565b611e43565b6104f76106b9366004614e2e565b611e7b565b6106dd6106cc366004614b66565b63bc197c8160e01b95945050505050565b6040516001600160e01b0319909116815260200161034b565b600754610393906001600160a01b031681565b61035c610717366004614e2e565b611ede565b6103be61072a366004614eb8565b611f52565b61033f61073d366004615080565b6125a7565b610372610750366004614e5e565b612669565b6103be610763366004614e5e565b612702565b6103be610776366004614ff7565b612727565b600854610393906001600160a01b031681565b61033f61079c366004614b34565b6001600160a01b03918216600090815260056020908152604080832093909416825291909152205460ff1690565b6103be6107d8366004614e2e565b61290a565b6106dd6107eb366004614cab565b63f23a6e6160e01b95945050505050565b6104a661080a366004614e2e565b612952565b60006001600160e01b03198216637965db0b60e01b1480610834575061083482612a92565b90505b919050565b60606000805461084b906156f9565b80601f0160208091040260200160405190810160405280929190818152602001828054610877906156f9565b80156108c45780601f10610899576101008083540402835291602001916108c4565b820191906000526020600020905b8154815290600101906020018083116108a757829003601f168201915b5050505050905090565b60006108d982612ab7565b506000908152600460205260409020546001600160a01b031690565b600061090082611473565b9050806001600160a01b0316836001600160a01b031614156109735760405162461bcd60e51b815260206004820152602160248201527f4552433732313a20617070726f76616c20746f2063757272656e74206f776e656044820152603960f91b60648201526084015b60405180910390fd5b336001600160a01b038216148061098f575061098f813361079c565b610a015760405162461bcd60e51b815260206004820152603e60248201527f4552433732313a20617070726f76652063616c6c6572206973206e6f7420746f60448201527f6b656e206f776e6572206e6f7220617070726f76656420666f7220616c6c0000606482015260840161096a565b610a0b8383612b19565b505050565b6000818152600a6020526040812081610a2882612b87565b949350505050565b806001600160a01b038116331480610b3d5750600754604080516376ce475560e01b815290516001600160a01b03909216916391d148549183916376ce475591600480820192602092909190829003018186803b158015610a9057600080fd5b505afa158015610aa4573d6000803e3d6000fd5b505050506040513d601f19601f82011682018060405250810190610ac89190614e46565b6040516001600160e01b031960e084901b168152600481019190915233602482015260440160206040518083038186803b158015610b0557600080fd5b505afa158015610b19573d6000803e3d6000fd5b505050506040513d601f19601f82011682018060405250810190610b3d9190614e12565b610bc65760405162461bcd60e51b815260206004820152604e60248201527f434c4d383a3a73656c664f7241756469746f723a206d73672e73656e6465722060448201527f646f6573206e6f74206f776e20746869732061646472657373206f722069732060648201526d3737ba1030b71030bab234ba37b960911b608482015260a40161096a565b610bf07f4f9730948b73761de8f37a0aea1760c5eef658d37d8c456767b81e17c01f30ed83612dc9565b6040516001600160a01b038316907fef8ce2b8e324ee947b09d9cf7f74e5589078af3a3e3f5266e9752c8284e4cd8790600090a25050565b610c323382612dd3565b610c4e5760405162461bcd60e51b815260040161096a90615448565b610a0b838383612e51565b600082815260066020526040902060010154610c7481612fed565b610a0b8383612ff7565b6001600160a01b0381163314610cee5760405162461bcd60e51b815260206004820152602f60248201527f416363657373436f6e74726f6c3a2063616e206f6e6c792072656e6f756e636560448201526e103937b632b9903337b91039b2b63360891b606482015260840161096a565b610cf8828261307d565b5050565b600b602052600090815260409020805460018201546002830154600384015460048501805494956001600160a01b039094169492939192610d3c906156f9565b80601f0160208091040260200160405190810160405280929190818152602001828054610d68906156f9565b8015610db55780601f10610d8a57610100808354040283529160200191610db5565b820191906000526020600020905b815481529060010190602001808311610d9857829003601f168201915b505050505090806005018054610dca906156f9565b80601f0160208091040260200160405190810160405280929190818152602001828054610df6906156f9565b8015610e435780601f10610e1857610100808354040283529160200191610e43565b820191906000526020600020905b815481529060010190602001808311610e2657829003601f168201915b5050505050908060060154905087565b6000818152600a60209081526040808320805482518185028101850190935280835260609485949293909290918491830182828015610eb157602002820191906000526020600020905b815481526020019060010190808311610e9d575b50505050509050600081516001600160401b03811115610ee157634e487b7160e01b600052604160045260246000fd5b604051908082528060200260200182016040528015610f0a578160200160208202803683370190505b50905060005b8251811015610f9357836002016000848381518110610f3f57634e487b7160e01b600052603260045260246000fd5b6020026020010151815260200190815260200160002054828281518110610f7657634e487b7160e01b600052603260045260246000fd5b602090810291909101015280610f8b8161572e565b915050610f10565b50909350915050915091565b60008481526009602052604090206002015484906001600160a01b031615610fd95760405162461bcd60e51b815260040161096a90615496565b610fe2856130e4565b610fec853361315a565b6000838152600b60205260409020548514156110855760405162461bcd60e51b815260206004820152604c60248201527f434c4d383a3a747261636b50726f647563743a2070726f64756374277320747260448201527f61636b657249642063616e206e6f74206265207468652073616d65206173207460648201526b1a19481d1c9858dad95c925960a21b608482015260a40161096a565b6000838152600f6020908152604080832033845290915290205482106111255760405162461bcd60e51b815260206004820152604960248201527f434c4d383a3a747261636b50726f647563743a2070726f64756374416d6f756e60448201527f7420657863656564732070726f647563747320617661696c61626c6520666f72606482015268103a3930b739b332b960b91b608482015260a40161096a565b6000838152600f602090815260408083203384529091529020546111499083613211565b6000848152600f6020908152604080832033845290915290205561116f8585858561321d565b5050505050565b610a0b83838360405180602001604052806000815250611e43565b6000818152600a60209081526040918290208054835181840281018401909452808452606093928301828280156111e757602002820191906000526020600020905b8154815260200190600101908083116111d3575b50505050509050919050565b606060006060600080600b60008781526020019081526020016000206040518060e0016040529081600082015481526020016001820160009054906101000a90046001600160a01b03166001600160a01b03166001600160a01b031681526020016002820154815260200160038201548152602001600482018054611277906156f9565b80601f01602080910402602001604051908101604052809291908181526020018280546112a3906156f9565b80156112f05780601f106112c5576101008083540402835291602001916112f0565b820191906000526020600020905b8154815290600101906020018083116112d357829003601f168201915b50505050508152602001600582018054611309906156f9565b80601f0160208091040260200160405190810160405280929190818152602001828054611335906156f9565b80156113825780601f1061135757610100808354040283529160200191611382565b820191906000526020600020905b81548152906001019060200180831161136557829003601f168201915b5050505050815260200160068201548152505090506113be81604001516113b86011548460c0015161358690919063ffffffff16565b90613592565b608082015160a090920151919790965090945092505050565b80821015610cf85760405162461bcd60e51b815260206004820152605860248201527f434c4d383a3a5f766572696679546f74616c547261636b65643a20746f74616c60448201527f20616d6f756e7420747261636b65642065786365656473206f7574707574206f60648201527f6620746f6b656e49642066726f6d20747261636b657249640000000000000000608482015260a40161096a565b6000818152600260205260408120546001600160a01b0316806108345760405162461bcd60e51b8152602060048201526018602482015277115490cdcc8c4e881a5b9d985b1a59081d1bdad95b88125160421b604482015260640161096a565b60008681526009602052604090206002015486906001600160a01b03161561150d5760405162461bcd60e51b815260040161096a90615496565b86611517816130e4565b600088815260096020526040902061153381898989898961359e565b505b5050505050505050565b6000818152600b60209081526040808320815160e0810183528154815260018201546001600160a01b031693810193909352600281015491830191909152600381015460608301526004810180548493849384939192909160808401916115a5906156f9565b80601f01602080910402602001604051908101604052809291908181526020018280546115d1906156f9565b801561161e5780601f106115f35761010080835404028352916020019161161e565b820191906000526020600020905b81548152906001019060200180831161160157829003601f168201915b50505050508152602001600582018054611637906156f9565b80601f0160208091040260200160405190810160405280929190818152602001828054611663906156f9565b80156116b05780601f10611685576101008083540402835291602001916116b0565b820191906000526020600020905b81548152906001019060200180831161169357829003601f168201915b505050918352505060069190910154602090910152805160408201516060909201519097919650945092505050565b60006001600160a01b0382166117495760405162461bcd60e51b815260206004820152602960248201527f4552433732313a2061646472657373207a65726f206973206e6f7420612076616044820152683634b21037bbb732b960b91b606482015260840161096a565b506001600160a01b031660009081526003602052604090205490565b60008181526009602052604081206003810154156117a25761179a81600301546113b860115461179487610a10565b90613586565b915050610837565b6000915050610837565b50919050565b60006117bd600c5490565b905090565b6118236040518061012001604052806000815260200160006001600160a01b0316815260200160006001600160a01b031681526020016000815260200160008152602001600081526020016000815260200160608152602001606081525090565b6000828152600960209081526040808320600a909252822060609190600381018461184d83612b87565b60408051610120810182528654815260018701546001600160a01b039081166020830152600288015416918101919091526003860154606082015260048601546080820152600586015460a0820152600686015460c08201526007860180549293508692849286929091859160e08401916118c7906156f9565b80601f01602080910402602001604051908101604052809291908181526020018280546118f3906156f9565b80156119405780601f1061191557610100808354040283529160200191611940565b820191906000526020600020905b81548152906001019060200180831161192357829003601f168201915b50505050508152602001600882018054611959906156f9565b80601f0160208091040260200160405190810160405280929190818152602001828054611985906156f9565b80156119d25780601f106119a7576101008083540402835291602001916119d2565b820191906000526020600020905b8154815290600101906020018083116119b557829003601f168201915b505050505081525050925080805480602002602001604051908101604052809291908181526020018280548015611a2857602002820191906000526020600020905b815481526020019060010190808311611a14575b50505050509050965096509650505050509193909250565b60008281526006602090815260408083206001600160a01b038516845290915290205460ff165b92915050565b60606001805461084b906156f9565b6000611a8787613aeb565b9050611a97878260000154613c36565b611aa581878787878761359e565b50505050505050565b610cf8338383613d79565b60006117bd600d5490565b60003085858585604051602001611adf95949392919061519b565b604051602081830303815290604052805190602001209050949350505050565b33611b2a7f4f9730948b73761de8f37a0aea1760c5eef658d37d8c456767b81e17c01f30ed82611a40565b611b955760405162461bcd60e51b815260206004820152603660248201527f434c4d383a3a72656769737465726564547261636b65723a20746865206164646044820152751c995cdcc81a5cc81b9bdd081c9959da5cdd195c995960521b606482015260840161096a565b6007546040516349b9055760e01b81526001600160a01b038581166004830152909116906349b905579060240160206040518083038186803b158015611bda57600080fd5b505afa158015611bee573d6000803e3d6000fd5b505050506040513d601f19601f82011682018060405250810190611c129190614e12565b80611c1b575081155b611c9b5760405162461bcd60e51b8152602060048201526044602482018190527f434c4d383a3a617070726f766556657269666965723a20616464726573732069908201527f73206e6f742061207265676973746572656420656d697373696f6e732061756460648201526334ba37b960e11b608482015260a40161096a565b6001600160a01b038316331415611d105760405162461bcd60e51b815260206004820152603360248201527f434c4d383a3a617070726f766556657269666965723a2061756469746f72206360448201527230b73737ba1031329036b9b39739b2b73232b960691b606482015260840161096a565b6001600160a01b03831660009081526010602090815260408083203384529091529020805460ff19168315801591909117909155611d835760405133906001600160a01b038516907ff31635902a304a612155085cc8916b9ab86fc115155b10b33980f6cb8165c54e90600090a3610a0b565b60405133906001600160a01b038516907f490861baee43b8ebd28f134f99c0aa7848888c4bde402256ad4cf455d147aed690600090a3505050565b60008181526009602052604090206002015481906001600160a01b031615611df85760405162461bcd60e51b815260040161096a90615496565b6000828152600960205260409020600101548290611e1e906001600160a01b0316613e48565b5050600090815260096020526040902060020180546001600160a01b03191633179055565b611e4d3383612dd3565b611e695760405162461bcd60e51b815260040161096a90615448565b611e7584848484613ed1565b50505050565b6000818152600a60209081526040918290206005018054835181840281018401909452808452606093928301828280156111e757602002820191906000526020600020908154815260200190600101908083116111d35750505050509050919050565b6060611ee982612ab7565b6000611f0060408051602081019091526000815290565b90506000815111611f205760405180602001604052806000815250611f4b565b80611f2a84613f04565b604051602001611f3b9291906151e8565b6040516020818303038152906040525b9392505050565b60008681526009602052604090206002015486906001600160a01b031615611f8c5760405162461bcd60e51b815260040161096a90615496565b86611f96816130e4565b6000888152600960205260409020600101548890611fbc906001600160a01b0316613e48565b600089815260096020526040902088518851146120555760405162461bcd60e51b815260206004820152604b60248201527f434c4d383a3a70726f64756374735570646174653a2070726f64756374416d6f60448201527f756e747320616e642070726f6475637449647320617265206e6f74207468652060648201526a0e6c2daca40d8cadccee8d60ab1b608482015260a40161096a565b88518751146120de5760405162461bcd60e51b815260206004820152604960248201527f434c4d383a3a70726f64756374735570646174653a2070726f647563744e616d60448201527f657320616e642070726f6475637449647320617265206e6f74207468652073616064820152680daca40d8cadccee8d60bb1b608482015260a40161096a565b88518551146120ff5760405162461bcd60e51b815260040161096a90615381565b88518651146121205760405162461bcd60e51b815260040161096a90615381565b6000805b8a5181101561255d5760008b828151811061214f57634e487b7160e01b600052603260045260246000fd5b602002602001015111156122f7578a818151811061217d57634e487b7160e01b600052603260045260246000fd5b602002602001015191508b600b60008481526020019081526020016000206000015414612214576040805162461bcd60e51b81526020600482015260248101919091527f434c4d383a3a70726f64756374735570646174653a2070726f6475637449647360448201527f5b695d20646f6573206e6f742062656c6f6e6720746f20747261636b65724964606482015260840161096a565b6122528a828151811061223757634e487b7160e01b600052603260045260246000fd5b6020026020010151846003015461321190919063ffffffff16565b60038401556000828152600b60205260409020600101546001600160a01b031633146122f25760405162461bcd60e51b815260206004820152604360248201527f434c4d383a3a70726f64756374735570646174653a206d73672e73656e64657260448201527f206973206e6f74207468652061756469746f72206f6620746869732070726f646064820152621d58dd60ea1b608482015260a40161096a565b61239e565b612305600d80546001019055565b600d5491508b600b60008481526020019081526020016000206000018190555033600b600084815260200190815260200160002060010160006101000a8154816001600160a01b0302191690836001600160a01b03160217905550600a60008d81526020019081526020016000206003018290806001815401808255809150506001900390600052602060002001600090919091909150555b8881815181106123be57634e487b7160e01b600052603260045260246000fd5b6020026020010151600b600084815260200190815260200160002060040190805190602001906123ef929190614922565b5086818151811061241057634e487b7160e01b600052603260045260246000fd5b6020026020010151600b60008481526020019081526020016000206006018190555087818151811061245257634e487b7160e01b600052603260045260246000fd5b6020026020010151600b60008481526020019081526020016000206005019080519060200190612483929190614922565b508981815181106124a457634e487b7160e01b600052603260045260246000fd5b6020026020010151600b6000848152602001908152602001600020600201819055508981815181106124e657634e487b7160e01b600052603260045260246000fd5b6020026020010151600b6000848152602001908152602001600020600301819055506125468a828151811061252b57634e487b7160e01b600052603260045260246000fd5b6020026020010151846003015461401e90919063ffffffff16565b6003840155806125558161572e565b915050612124565b5081546040517fcae18be6040b3a94c418e2e09d130e25f25a0069beec7edc902c803cf7f61ebf90612592908d908d906152dc565b60405180910390a25050505050505050505050565b6000856125b38161402a565b866125bd816130e4565b6000878152600b60205260408120600101546001600160a01b03169061263b6125e88b8b8b8b611ac4565b6040517f19457468657265756d205369676e6564204d6573736167653a0a3332000000006020820152603c8101829052600090605c01604051602081830303815290604052805190602001209050919050565b90506001600160a01b03821661265182886140a4565b6001600160a01b0316149a9950505050505050505050565b6000828152600b602052604081205461268190611473565b6001600160a01b0316826001600160a01b031614156126d9576000838152600b6020908152604080832060030154600f83528184206001600160a01b0387168552909252909120546126d29161401e565b9050611a67565b506000918252600f602090815260408084206001600160a01b0393909316845291905290205490565b60008281526006602052604090206001015461271d81612fed565b610a0b838361307d565b6000838152600b60205260408120805490919061274390611473565b6001600160a01b0316336001600160a01b0316141561276e5781546127679061402a565b5060038101545b6000858152600f60209081526040808320338452909152812054612792908361401e565b90508481116128235760405162461bcd60e51b815260206004820152605160248201527f434c4d383a3a7472616e7366657250726f647563743a2070726f64756374416d60448201527f6f756e7420657863656564732070726f6475637420617661696c61626c6520696064820152701b881cdbdd5c98d9551c9858dad95c9259607a1b608482015260a40161096a565b60008215612865578286111561284b5761283d838761569f565b600060038601559050612860565b600384015461285a9087613211565b60038501555b612868565b50845b80156128ad576000878152600f602090815260408083203384529091529020546128929082613211565b6000888152600f602090815260408083203384529091529020555b6000878152600f602090815260408083206001600160a01b03891684529091529020546128da908761401e565b6000978852600f60209081526040808a206001600160a01b039098168a5296905294909620939093555050505050565b6000818152600960205260409020600101548190612930906001600160a01b0316613e48565b50600090815260096020526040902060020180546001600160a01b0319169055565b6000818152600a602090815260408083208054825181850281018501909352808352606094859492939092909184918301828280156129b057602002820191906000526020600020905b81548152602001906001019080831161299c575b50505050509050600081516001600160401b038111156129e057634e487b7160e01b600052604160045260246000fd5b604051908082528060200260200182016040528015612a09578160200160208202803683370190505b50905060005b8251811015610f9357836002016000848381518110612a3e57634e487b7160e01b600052603260045260246000fd5b6020026020010151815260200190815260200160002054828281518110612a7557634e487b7160e01b600052603260045260246000fd5b602090810291909101015280612a8a8161572e565b915050612a0f565b60006001600160e01b03198216630271189760e51b14806108345750610834826140c8565b6000818152600260205260409020546001600160a01b0316612b165760405162461bcd60e51b8152602060048201526018602482015277115490cdcc8c4e881a5b9d985b1a59081d1bdad95b88125160421b604482015260640161096a565b50565b600081815260046020526040902080546001600160a01b0319166001600160a01b0384169081179091558190612b4e82611473565b6001600160a01b03167f8c5be1e5ebec7d5bd14f71427d1e84f3dd0314c0f7b2291e5b200ac8c7c3b92560405160405180910390a45050565b60008181805b8254811015612bfc57612be8856002016000858481548110612bbf57634e487b7160e01b600052603260045260246000fd5b90600052602060002001548152602001908152602001600020548361401e90919063ffffffff16565b915080612bf48161572e565b915050612b8d565b506060600085600501805480602002602001604051908101604052809291908181526020018280548015612c4f57602002820191906000526020600020905b815481526020019060010190808311612c3b575b50505050509050600080600090505b8251811015612dbd57876007016000848381518110612c8d57634e487b7160e01b600052603260045260246000fd5b60200260200101518152602001908152602001600020915081600001805480602002602001604051908101604052809291908181526020018280548015612cf357602002820191906000526020600020905b815481526020019060010190808311612cdf575b50505050509350600080600090505b8551811015612da857836002016000878381518110612d3157634e487b7160e01b600052603260045260246000fd5b60200260200101518152602001908152602001600020549150612d94612d8d6011546113b8612d86898881518110612d7957634e487b7160e01b600052603260045260246000fd5b6020026020010151611765565b8690613586565b889061401e565b965080612da08161572e565b915050612d02565b50508080612db59061572e565b915050612c5e565b50929695505050505050565b610cf88282612ff7565b600080612ddf83611473565b9050806001600160a01b0316846001600160a01b03161480612e2657506001600160a01b0380821660009081526005602090815260408083209388168352929052205460ff165b80610a285750836001600160a01b0316612e3f846108ce565b6001600160a01b031614949350505050565b826001600160a01b0316612e6482611473565b6001600160a01b031614612ec85760405162461bcd60e51b815260206004820152602560248201527f4552433732313a207472616e736665722066726f6d20696e636f72726563742060448201526437bbb732b960d91b606482015260840161096a565b6001600160a01b038216612f2a5760405162461bcd60e51b8152602060048201526024808201527f4552433732313a207472616e7366657220746f20746865207a65726f206164646044820152637265737360e01b606482015260840161096a565b612f35600082612b19565b6001600160a01b0383166000908152600360205260408120805460019290612f5e90849061569f565b90915550506001600160a01b0382166000908152600360205260408120805460019290612f8c908490615654565b909155505060008181526002602052604080822080546001600160a01b0319166001600160a01b0386811691821790925591518493918716917fddf252ad1be2c89b69c2b068fc378daa952ba7f163c4a11628f55a4df523b3ef91a4610a0b565b612b1681336140ed565b6130018282611a40565b610cf85760008281526006602090815260408083206001600160a01b03851684529091529020805460ff191660011790556130393390565b6001600160a01b0316816001600160a01b0316837f2f8788117e7eff1d82e926ec794901d17c78024a50270940304540a733656f0d60405160405180910390a45050565b6130878282611a40565b15610cf85760008281526006602090815260408083206001600160a01b0385168085529252808320805460ff1916905551339285917ff6391f5c32d9c69d2a47ea670b442974b53935d1edc7fd64eb21e047a839171b9190a45050565b806130ee600c5490565b1015612b165760405162461bcd60e51b815260206004820152603560248201527f434c4d383a3a5f747261636b65724578697374733a20747261636b657220746f6044820152741ad95b88125108191bd95cc81b9bdd08195e1a5cdd605a1b606482015260840161096a565b61316381614151565b806131875750806001600160a01b031661317c83611473565b6001600160a01b0316145b610cf85760405162461bcd60e51b815260206004820152604f60248201527f434c4d383a3a5f69734f776e65723a206d73672e73656e646572206973206e6f60448201527f74207468652061756469746f72206f66206f7220646f6573206e6f74206f776e60648201526e081d1a1a5cc81d1c9858dad95c9259608a1b608482015260a40161096a565b6000611f4b828461569f565b6000848152600a6020908152604080832086845260078101835281842086855260028101909352922054613251908461401e565b60008581526002830160208181526040808420859055898452600687018252808420548985526001870183529320549190529091156132bf57806132ba578254600181810185556000858152602080822090930189905585548982529186019092526040909120555b6133f3565b80156133e15782546001101561339557825483906132df9060019061569f565b815481106132fd57634e487b7160e01b600052603260045260246000fd5b6000918252602090912001548361331560018461569f565b8154811061333357634e487b7160e01b600052603260045260246000fd5b90600052602060002001819055508083600101600085600001600185613359919061569f565b8154811061337757634e487b7160e01b600052603260045260246000fd5b90600052602060002001548152602001908152602001600020819055505b600086815260018085016020526040822091909155835484916133b79161569f565b815481106133d557634e487b7160e01b600052603260045260246000fd5b60009182526020822001555b60008681526002840160205260408120555b825415613433578161342e57600584018054600181018255600082815260208082209092018a90559154898352600687019091526040909120555b611535565b811561355f57600584015460011015613512576005840180546134589060019061569f565b8154811061347657634e487b7160e01b600052603260045260246000fd5b906000526020600020015484600501600184613492919061569f565b815481106134b057634e487b7160e01b600052603260045260246000fd5b906000526020600020018190555081846006016000866005016001866134d6919061569f565b815481106134f457634e487b7160e01b600052603260045260246000fd5b90600052602060002001548152602001908152602001600020819055505b60008781526006850160205260408120556005840180546135359060019061569f565b8154811061355357634e487b7160e01b600052603260045260246000fd5b60009182526020822001555b600087815260078501602052604081209061357a82826149a6565b50505050505050505050565b6000611f4b8284615680565b6000611f4b828461566c565b60018601546135b5906001600160a01b0316613e48565b82156135c357600486018390555b81156135d157600586018290555b8051156135ef5780516135ed9060088801906020840190614922565b505b84518451146136745760405162461bcd60e51b815260206004820152604560248201527f434c4d383a3a5f747261636b546f6b656e733a20746f6b656e416d6f756e747360448201527f20616e6420746f6b656e49647320617265206e6f74207468652073616d65206c6064820152640cadccee8d60db1b608482015260a40161096a565b85546000908152600a60205260408120905b8651811015613a9e5760075487516000916001600160a01b031690637f157c9b9030908b90869081106136c957634e487b7160e01b600052603260045260246000fd5b60200260200101516040518363ffffffff1660e01b81526004016137029291906001600160a01b03929092168252602082015260400190565b604080518083038186803b15801561371957600080fd5b505afa15801561372d573d6000803e3d6000fd5b505050506040513d601f19601f820116820180604052508101906137519190614fd4565b506008549091506001600160a01b03163314806137e1575086828151811061378957634e487b7160e01b600052603260045260246000fd5b60200260200101516137de600e60008b86815181106137b857634e487b7160e01b600052603260045260246000fd5b60200260200101518152602001908152602001600020548361321190919063ffffffff16565b10155b6138795760405162461bcd60e51b815260206004820152605d60248201527f434c4d383a3a5f747261636b546f6b656e733a20746f6b656e416d6f756e747360448201527f5b695d2069732067726561746572207468616e2077686174206973206176616960648201527f6c61626c6520746f2074686520747261636b657220636f6e7472616374000000608482015260a40161096a565b6138ed87838151811061389c57634e487b7160e01b600052603260045260246000fd5b6020026020010151600e60008b86815181106138c857634e487b7160e01b600052603260045260246000fd5b602002602001015181526020019081526020016000205461401e90919063ffffffff16565b600e60008a858151811061391157634e487b7160e01b600052603260045260246000fd5b602002602001015181526020019081526020016000208190555060008360010160008a858151811061395357634e487b7160e01b600052603260045260246000fd5b602002602001015181526020019081526020016000205490506000600760009054906101000a90046001600160a01b03166001600160a01b031663127d5ad08b86815181106139b257634e487b7160e01b600052603260045260246000fd5b60200260200101516040518263ffffffff1660e01b81526004016139d891815260200190565b60206040518083038186803b1580156139f057600080fd5b505afa158015613a04573d6000803e3d6000fd5b505050506040513d601f19601f82011682018060405250810190613a289190615114565b9050613a88858b8681518110613a4e57634e487b7160e01b600052603260045260246000fd5b60200260200101518b8781518110613a7657634e487b7160e01b600052603260045260246000fd5b6020026020010151858560ff166141f9565b5050508080613a969061572e565b915050613686565b5086546040513391907ff739febd63941a495aedbbe2904daf1f12f653420da0213529a1f3eb6d61c1c490613ada908a908a908a908a9061530a565b60405180910390a350505050505050565b600754604051633e612c8d60e21b81526001600160a01b038084166004830152600092849291169063f984b2349060240160206040518083038186803b158015613b3457600080fd5b505afa158015613b48573d6000803e3d6000fd5b505050506040513d601f19601f82011682018060405250810190613b6c9190614e12565b613bde5760405162461bcd60e51b815260206004820152603760248201527f434c4d383a3a72656769737465726564496e6475737472793a2074686520616460448201527f6472657373206973206e6f742072656769737465726564000000000000000000606482015260840161096a565b613bec600c80546001019055565b6000613bf7600c5490565b60008181526009602052604090209081556001810180546001600160a01b0387166001600160a01b031990911617905542600682015592505050919050565b6001600160a01b038216613c8c5760405162461bcd60e51b815260206004820181905260248201527f4552433732313a206d696e7420746f20746865207a65726f2061646472657373604482015260640161096a565b6000818152600260205260409020546001600160a01b031615613cf15760405162461bcd60e51b815260206004820152601c60248201527f4552433732313a20746f6b656e20616c7265616479206d696e74656400000000604482015260640161096a565b6001600160a01b0382166000908152600360205260408120805460019290613d1a908490615654565b909155505060008181526002602052604080822080546001600160a01b0319166001600160a01b03861690811790915590518392907fddf252ad1be2c89b69c2b068fc378daa952ba7f163c4a11628f55a4df523b3ef908290a4610cf8565b816001600160a01b0316836001600160a01b03161415613ddb5760405162461bcd60e51b815260206004820152601960248201527f4552433732313a20617070726f766520746f2063616c6c657200000000000000604482015260640161096a565b6001600160a01b03838116600081815260056020908152604080832094871680845294825291829020805460ff191686151590811790915591519182527f17307eab39ab6107e8899845ad3d59bd9653f200f220920489ca2b5937696c31910160405180910390a3505050565b613e5181614151565b612b165760405162461bcd60e51b8152602060048201526044602482018190527f434c4d383a3a5f697341756469746f723a205f747261636b6565206973206e6f908201527f7420616e20617070726f7665642061756469746f72206f662074686520747261606482015263636b656560e01b608482015260a40161096a565b613edc848484612e51565b613ee8848484846142b1565b611e755760405162461bcd60e51b815260040161096a906153f6565b606081613f2957506040805180820190915260018152600360fc1b6020820152610837565b8160005b8115613f535780613f3d8161572e565b9150613f4c9050600a8361566c565b9150613f2d565b6000816001600160401b03811115613f7b57634e487b7160e01b600052604160045260246000fd5b6040519080825280601f01601f191660200182016040528015613fa5576020820181803683370190505b5090505b8415610a2857613fba60018361569f565b9150613fc7600a86615749565b613fd2906030615654565b60f81b818381518110613ff557634e487b7160e01b600052603260045260246000fd5b60200101906001600160f81b031916908160001a905350614017600a8661566c565b9450613fa9565b6000611f4b8284615654565b6000818152600960205260409020600201546001600160a01b0316612b165760405162461bcd60e51b815260206004820152602a60248201527f434c4d383a3a5f6973417564697465643a20747261636b65724964206973206e6044820152691bdd08185d591a5d195960b21b606482015260840161096a565b60008060006140b385856143bb565b915091506140c081614401565b509392505050565b60006001600160e01b03198216637965db0b60e01b1480610834575061083482614604565b6140f78282611a40565b610cf85761410f816001600160a01b03166014614654565b61411a836020614654565b60405160200161412b929190615217565b60408051601f198184030181529082905262461bcd60e51b825261096a91600401615343565b3360009081526010602090815260408083206001600160a01b038516845290915281205460ff168061083457506007546040516349b9055760e01b81523360048201526001600160a01b03909116906349b905579060240160206040518083038186803b1580156141c157600080fd5b505afa1580156141d5573d6000803e3d6000fd5b505050506040513d601f19601f820116820180604052508101906108349190614e12565b806004141561423357600084815260028601602052604090205461421d908461401e565b6000858152600287016020526040902055614269565b80600214156142695760008481526002860160205260409020546142579084613211565b60008581526002870160205260409020555b60008481526002860160205260409020541561116f578161116f5750508254600180820185556000858152602080822090930185905585549481529401905250604090912055565b60006001600160a01b0384163b156143b357604051630a85bd0160e11b81526001600160a01b0385169063150b7a02906142f590339089908890889060040161528c565b602060405180830381600087803b15801561430f57600080fd5b505af192505050801561433f575060408051601f3d908101601f1916820190925261433c91810190614e9c565b60015b614399573d80801561436d576040519150601f19603f3d011682016040523d82523d6000602084013e614372565b606091505b5080516143915760405162461bcd60e51b815260040161096a906153f6565b805181602001fd5b6001600160e01b031916630a85bd0160e11b149050610a28565b506001610a28565b6000808251604114156143f25760208301516040840151606085015160001a6143e687828585614835565b945094505050506143fa565b506000905060025b9250929050565b600081600481111561442357634e487b7160e01b600052602160045260246000fd5b141561442e57612b16565b600181600481111561445057634e487b7160e01b600052602160045260246000fd5b141561449e5760405162461bcd60e51b815260206004820152601860248201527f45434453413a20696e76616c6964207369676e61747572650000000000000000604482015260640161096a565b60028160048111156144c057634e487b7160e01b600052602160045260246000fd5b141561450e5760405162461bcd60e51b815260206004820152601f60248201527f45434453413a20696e76616c6964207369676e6174757265206c656e67746800604482015260640161096a565b600381600481111561453057634e487b7160e01b600052602160045260246000fd5b14156145895760405162461bcd60e51b815260206004820152602260248201527f45434453413a20696e76616c6964207369676e6174757265202773272076616c604482015261756560f01b606482015260840161096a565b60048160048111156145ab57634e487b7160e01b600052602160045260246000fd5b1415612b165760405162461bcd60e51b815260206004820152602260248201527f45434453413a20696e76616c6964207369676e6174757265202776272076616c604482015261756560f01b606482015260840161096a565b60006001600160e01b031982166380ac58cd60e01b148061463557506001600160e01b03198216635b5e139f60e01b145b8061083457506301ffc9a760e01b6001600160e01b0319831614610834565b60606000614663836002615680565b61466e906002615654565b6001600160401b0381111561469357634e487b7160e01b600052604160045260246000fd5b6040519080825280601f01601f1916602001820160405280156146bd576020820181803683370190505b509050600360fc1b816000815181106146e657634e487b7160e01b600052603260045260246000fd5b60200101906001600160f81b031916908160001a905350600f60fb1b8160018151811061472357634e487b7160e01b600052603260045260246000fd5b60200101906001600160f81b031916908160001a9053506000614747846002615680565b614752906001615654565b90505b60018111156147e6576f181899199a1a9b1b9c1cb0b131b232b360811b85600f166010811061479457634e487b7160e01b600052603260045260246000fd5b1a60f81b8282815181106147b857634e487b7160e01b600052603260045260246000fd5b60200101906001600160f81b031916908160001a90535060049490941c936147df816156e2565b9050614755565b508315611f4b5760405162461bcd60e51b815260206004820181905260248201527f537472696e67733a20686578206c656e67746820696e73756666696369656e74604482015260640161096a565b6000807f7fffffffffffffffffffffffffffffff5d576e7357a4501ddfe92f46681b20a083111561486c5750600090506003614919565b8460ff16601b1415801561488457508460ff16601c14155b156148955750600090506004614919565b6040805160008082526020820180845289905260ff881692820192909252606081018690526080810185905260019060a0016020604051602081039080840390855afa1580156148e9573d6000803e3d6000fd5b5050604051601f1901519150506001600160a01b03811661491257600060019250925050614919565b9150600090505b94509492505050565b82805461492e906156f9565b90600052602060002090601f0160209004810192826149505760008555614996565b82601f1061496957805160ff1916838001178555614996565b82800160010185558215614996579182015b8281111561499657825182559160200191906001019061497b565b506149a29291506149c0565b5090565b5080546000825590600052602060002090810190612b1691905b5b808211156149a257600081556001016149c1565b80356001600160a01b038116811461083757600080fd5b600082601f8301126149fc578081fd5b81356020614a11614a0c83615631565b615601565b82815281810190858301855b85811015614a4657614a34898684358b0101614ab0565b84529284019290840190600101614a1d565b5090979650505050505050565b600082601f830112614a63578081fd5b81356020614a73614a0c83615631565b80838252828201915082860187848660051b8901011115614a92578586fd5b855b85811015614a4657813584529284019290840190600101614a94565b600082601f830112614ac0578081fd5b81356001600160401b03811115614ad957614ad9615789565b614aec601f8201601f1916602001615601565b818152846020838601011115614b00578283fd5b816020850160208301379081016020019190915292915050565b600060208284031215614b2b578081fd5b611f4b826149d5565b60008060408385031215614b46578081fd5b614b4f836149d5565b9150614b5d602084016149d5565b90509250929050565b600080600080600060a08688031215614b7d578081fd5b614b86866149d5565b9450614b94602087016149d5565b935060408601356001600160401b0380821115614baf578283fd5b614bbb89838a01614a53565b94506060880135915080821115614bd0578283fd5b614bdc89838a01614a53565b93506080880135915080821115614bf1578283fd5b50614bfe88828901614ab0565b9150509295509295909350565b600080600060608486031215614c1f578283fd5b614c28846149d5565b9250614c36602085016149d5565b9150604084013590509250925092565b60008060008060808587031215614c5b578384fd5b614c64856149d5565b9350614c72602086016149d5565b92506040850135915060608501356001600160401b03811115614c93578182fd5b614c9f87828801614ab0565b91505092959194509250565b600080600080600060a08688031215614cc2578283fd5b614ccb866149d5565b9450614cd9602087016149d5565b9350604086013592506060860135915060808601356001600160401b03811115614d01578182fd5b614bfe88828901614ab0565b60008060008060008060c08789031215614d25578384fd5b614d2e876149d5565b955060208701356001600160401b0380821115614d49578586fd5b614d558a838b01614a53565b96506040890135915080821115614d6a578586fd5b614d768a838b01614a53565b9550606089013594506080890135935060a0890135915080821115614d99578283fd5b50614da689828a01614ab0565b9150509295509295509295565b60008060408385031215614dc5578182fd5b614dce836149d5565b91506020830135614dde8161579f565b809150509250929050565b60008060408385031215614dfb578182fd5b614e04836149d5565b946020939093013593505050565b600060208284031215614e23578081fd5b8151611f4b8161579f565b600060208284031215614e3f578081fd5b5035919050565b600060208284031215614e57578081fd5b5051919050565b60008060408385031215614e70578182fd5b82359150614b5d602084016149d5565b600060208284031215614e91578081fd5b8135611f4b816157ad565b600060208284031215614ead578081fd5b8151611f4b816157ad565b60008060008060008060c08789031215614ed0578384fd5b8635955060208701356001600160401b0380821115614eed578586fd5b614ef98a838b01614a53565b96506040890135915080821115614f0e578586fd5b614f1a8a838b01614a53565b95506060890135915080821115614f2f578384fd5b614f3b8a838b016149ec565b94506080890135915080821115614f50578384fd5b614f5c8a838b016149ec565b935060a0890135915080821115614f71578283fd5b50614da689828a01614a53565b60008060008060008060c08789031215614f96578384fd5b8635955060208701356001600160401b0380821115614d49578586fd5b60008060408385031215614fc5578182fd5b50508035926020909101359150565b60008060408385031215614fe6578182fd5b505080516020909101519092909150565b60008060006060848603121561500b578081fd5b8335925060208401359150615022604085016149d5565b90509250925092565b60008060008060808587031215615040578182fd5b843593506020850135925060408501356001600160401b03811115615063578283fd5b61506f87828801614ab0565b949793965093946060013593505050565b600080600080600060a08688031215615097578283fd5b853594506020860135935060408601356001600160401b03808211156150bb578485fd5b6150c789838a01614ab0565b9450606088013593506080880135915080821115614bf1578283fd5b600080600080608085870312156150f8578182fd5b5050823594602084013594506040840135936060013592509050565b600060208284031215615125578081fd5b815160ff81168114611f4b578182fd5b6000815180845260208085019450808401835b8381101561516457815187529582019590820190600101615148565b509495945050505050565b600081518084526151878160208601602086016156b6565b601f01601f19169290920160200192915050565b60006bffffffffffffffffffffffff198760601b16825285601483015284603483015283516151d18160548501602088016156b6565b605492019182019290925260740195945050505050565b600083516151fa8184602088016156b6565b83519083019061520e8183602088016156b6565b01949350505050565b60007f416363657373436f6e74726f6c3a206163636f756e74200000000000000000008252835161524f8160178501602088016156b6565b7001034b99036b4b9b9b4b733903937b6329607d1b60179184019182015283516152808160288401602088016156b6565b01602801949350505050565b6001600160a01b03858116825284166020820152604081018390526080606082018190526000906152bf9083018461516f565b9695505050505050565b600060208252611f4b6020830184615135565b6000604082526152ef6040830185615135565b82810360208401526153018185615135565b95945050505050565b60006080825261531d6080830187615135565b828103602084015261532f8187615135565b604084019590955250506060015292915050565b600060208252611f4b602083018461516f565b600060608252615369606083018661516f565b84602084015282810360408401526152bf818561516f565b6020808252604f908201527f434c4d383a3a70726f64756374735570646174653a2070726f64756374556e6960408201527f74416d6f756e747320616e642070726f6475637449647320617265206e6f742060608201526e0e8d0ca40e6c2daca40d8cadccee8d608b1b608082015260a00190565b60208082526032908201527f4552433732313a207472616e7366657220746f206e6f6e20455243373231526560408201527131b2b4bb32b91034b6b83632b6b2b73a32b960711b606082015260800190565b6020808252602e908201527f4552433732313a2063616c6c6572206973206e6f7420746f6b656e206f776e6560408201526d1c881b9bdc88185c1c1c9bdd995960921b606082015260800190565b6020808252602e908201527f434c4d383a3a6e6f74417564697465643a20747261636b65724964206973206160408201526d1b1c9958591e48185d591a5d195960921b606082015260800190565b60006060825284516060830152602085015161550b60808401826001600160a01b03169052565b5060408501516001600160a01b03811660a084015250606085015160c0830152608085015160e083015260a0850151610100818185015260c08701519150610120828186015260e08801519250806101408601525061556e61018085018361516f565b90870151848203605f190161016086015290915061558c828261516f565b91505084602084015282810360408401526152bf8185615135565b600088825260018060a01b038816602083015286604083015285606083015260e060808301526155da60e083018661516f565b82810360a08401526155ec818661516f565b9150508260c083015298975050505050505050565b604051601f8201601f191681016001600160401b038111828210171561562957615629615789565b604052919050565b60006001600160401b0382111561564a5761564a615789565b5060051b60200190565b600082198211156156675761566761575d565b500190565b60008261567b5761567b615773565b500490565b600081600019048311821515161561569a5761569a61575d565b500290565b6000828210156156b1576156b161575d565b500390565b60005b838110156156d15781810151838201526020016156b9565b83811115611e755750506000910152565b6000816156f1576156f161575d565b506000190190565b600181811c9082168061570d57607f821691505b602082108114156117ac57634e487b7160e01b600052602260045260246000fd5b60006000198214156157425761574261575d565b5060010190565b60008261575857615758615773565b500690565b634e487b7160e01b600052601160045260246000fd5b634e487b7160e01b600052601260045260246000fd5b634e487b7160e01b600052604160045260246000fd5b8015158114612b1657600080fd5b6001600160e01b031981168114612b1657600080fdfea26469706673582212202dfc0da436c064f5666dfba365522678ef8cf1919f0fc90a6794b0b2429b98a564736f6c63430008030033",
  "linkReferences": {},
  "deployedLinkReferences": {}
}