{
  "_format": "hh-sol-artifact-1",
  "contractName": "CarbonTracker",
  "sourceName": "contracts/CarbonTracker.sol",
  "abi": [
    {
      "anonymous": false,
      "inputs": [
        {
          "indexed": true,
          "internalType": "address",
          "name": "owner",
          "type": "address"
        },
        {
          "indexed": true,
          "internalType": "address",
          "name": "approved",
          "type": "address"
        },
        {
          "indexed": true,
          "internalType": "uint256",
          "name": "tokenId",
          "type": "uint256"
        }
      ],
      "name": "Approval",
      "type": "event"
    },
    {
      "anonymous": false,
      "inputs": [
        {
          "indexed": true,
          "internalType": "address",
          "name": "owner",
          "type": "address"
        },
        {
          "indexed": true,
          "internalType": "address",
          "name": "operator",
          "type": "address"
        },
        {
          "indexed": false,
          "internalType": "bool",
          "name": "approved",
          "type": "bool"
        }
      ],
      "name": "ApprovalForAll",
      "type": "event"
    },
    {
      "anonymous": false,
      "inputs": [
        {
          "indexed": false,
          "internalType": "uint8",
          "name": "version",
          "type": "uint8"
        }
      ],
      "name": "Initialized",
      "type": "event"
    },
    {
      "anonymous": false,
      "inputs": [
        {
          "indexed": true,
          "internalType": "uint256",
          "name": "trackerId",
          "type": "uint256"
        },
        {
          "indexed": false,
          "internalType": "uint256[]",
          "name": "productIds",
          "type": "uint256[]"
        },
        {
          "indexed": false,
          "internalType": "uint256[]",
          "name": "productAmounts",
          "type": "uint256[]"
        }
      ],
      "name": "ProductsUpdated",
      "type": "event"
    },
    {
      "anonymous": false,
      "inputs": [
        {
          "indexed": true,
          "internalType": "address",
          "name": "account",
          "type": "address"
        }
      ],
      "name": "RegisteredTracker",
      "type": "event"
    },
    {
      "anonymous": false,
      "inputs": [
        {
          "indexed": true,
          "internalType": "bytes32",
          "name": "role",
          "type": "bytes32"
        },
        {
          "indexed": true,
          "internalType": "bytes32",
          "name": "previousAdminRole",
          "type": "bytes32"
        },
        {
          "indexed": true,
          "internalType": "bytes32",
          "name": "newAdminRole",
          "type": "bytes32"
        }
      ],
      "name": "RoleAdminChanged",
      "type": "event"
    },
    {
      "anonymous": false,
      "inputs": [
        {
          "indexed": true,
          "internalType": "bytes32",
          "name": "role",
          "type": "bytes32"
        },
        {
          "indexed": true,
          "internalType": "address",
          "name": "account",
          "type": "address"
        },
        {
          "indexed": true,
          "internalType": "address",
          "name": "sender",
          "type": "address"
        }
      ],
      "name": "RoleGranted",
      "type": "event"
    },
    {
      "anonymous": false,
      "inputs": [
        {
          "indexed": true,
          "internalType": "bytes32",
          "name": "role",
          "type": "bytes32"
        },
        {
          "indexed": true,
          "internalType": "address",
          "name": "account",
          "type": "address"
        },
        {
          "indexed": true,
          "internalType": "address",
          "name": "sender",
          "type": "address"
        }
      ],
      "name": "RoleRevoked",
      "type": "event"
    },
    {
      "anonymous": false,
      "inputs": [
        {
          "indexed": true,
          "internalType": "uint256",
          "name": "trackerId",
          "type": "uint256"
        },
        {
          "indexed": true,
          "internalType": "address",
          "name": "trackee",
          "type": "address"
        }
      ],
      "name": "TrackeeChanged",
      "type": "event"
    },
    {
      "anonymous": false,
      "inputs": [
        {
          "indexed": true,
          "internalType": "uint256",
          "name": "trackerId",
          "type": "uint256"
        },
        {
          "indexed": true,
          "internalType": "address",
          "name": "tracker",
          "type": "address"
        },
        {
          "indexed": false,
          "internalType": "uint256[]",
          "name": "tokenIds",
          "type": "uint256[]"
        },
        {
          "indexed": false,
          "internalType": "uint256[]",
          "name": "tokenAmounts",
          "type": "uint256[]"
        },
        {
          "indexed": false,
          "internalType": "uint256",
          "name": "fromDate",
          "type": "uint256"
        },
        {
          "indexed": false,
          "internalType": "uint256",
          "name": "thruDate",
          "type": "uint256"
        }
      ],
      "name": "TrackerUpdated",
      "type": "event"
    },
    {
      "anonymous": false,
      "inputs": [
        {
          "indexed": true,
          "internalType": "address",
          "name": "from",
          "type": "address"
        },
        {
          "indexed": true,
          "internalType": "address",
          "name": "to",
          "type": "address"
        },
        {
          "indexed": true,
          "internalType": "uint256",
          "name": "tokenId",
          "type": "uint256"
        }
      ],
      "name": "Transfer",
      "type": "event"
    },
    {
      "anonymous": false,
      "inputs": [
        {
          "indexed": true,
          "internalType": "uint256",
          "name": "tokenId",
          "type": "uint256"
        },
        {
          "indexed": true,
          "internalType": "address",
          "name": "trackee",
          "type": "address"
        },
        {
          "indexed": false,
          "internalType": "uint256",
          "name": "amount",
          "type": "uint256"
        }
      ],
      "name": "VerifiedOutput",
      "type": "event"
    },
    {
      "anonymous": false,
      "inputs": [
        {
          "indexed": true,
          "internalType": "address",
          "name": "auditor",
          "type": "address"
        },
        {
          "indexed": true,
          "internalType": "address",
          "name": "trackee",
          "type": "address"
        }
      ],
      "name": "VerifierApproved",
      "type": "event"
    },
    {
      "anonymous": false,
      "inputs": [
        {
          "indexed": true,
          "internalType": "address",
          "name": "auditor",
          "type": "address"
        },
        {
          "indexed": true,
          "internalType": "address",
          "name": "trackee",
          "type": "address"
        }
      ],
      "name": "VerifierRemoved",
      "type": "event"
    },
    {
      "inputs": [],
      "name": "DEFAULT_ADMIN_ROLE",
      "outputs": [
        {
          "internalType": "bytes32",
          "name": "",
          "type": "bytes32"
        }
      ],
      "stateMutability": "view",
      "type": "function"
    },
    {
      "inputs": [],
      "name": "REGISTERED_TRACKER",
      "outputs": [
        {
          "internalType": "bytes32",
          "name": "",
          "type": "bytes32"
        }
      ],
      "stateMutability": "view",
      "type": "function"
    },
    {
      "inputs": [
        {
          "internalType": "uint256",
          "name": "trackerId",
          "type": "uint256"
        },
        {
          "internalType": "uint256",
          "name": "productId",
          "type": "uint256"
        },
        {
          "internalType": "string",
          "name": "unit",
          "type": "string"
        },
        {
          "internalType": "uint256",
          "name": "unitAmount",
          "type": "uint256"
        }
      ],
      "name": "_getUnitHash",
      "outputs": [
        {
          "internalType": "bytes32",
          "name": "",
          "type": "bytes32"
        }
      ],
      "stateMutability": "view",
      "type": "function"
    },
    {
      "inputs": [],
      "name": "_numOfProducts",
      "outputs": [
        {
          "internalType": "uint256",
          "name": "_value",
          "type": "uint256"
        }
      ],
      "stateMutability": "view",
      "type": "function"
    },
    {
      "inputs": [],
      "name": "_numOfUniqueTrackers",
      "outputs": [
        {
          "internalType": "uint256",
          "name": "_value",
          "type": "uint256"
        }
      ],
      "stateMutability": "view",
      "type": "function"
    },
    {
      "inputs": [
        {
          "internalType": "uint256",
          "name": "",
          "type": "uint256"
        }
      ],
      "name": "_productData",
      "outputs": [
        {
          "internalType": "uint256",
          "name": "trackerId",
          "type": "uint256"
        },
        {
          "internalType": "address",
          "name": "auditor",
          "type": "address"
        },
        {
          "internalType": "uint256",
          "name": "amount",
          "type": "uint256"
        },
        {
          "internalType": "uint256",
          "name": "available",
          "type": "uint256"
        },
        {
          "internalType": "string",
          "name": "name",
          "type": "string"
        },
        {
          "internalType": "string",
          "name": "unit",
          "type": "string"
        },
        {
          "internalType": "uint256",
          "name": "unitAmount",
          "type": "uint256"
        }
      ],
      "stateMutability": "view",
      "type": "function"
    },
    {
      "inputs": [
        {
          "internalType": "uint256",
          "name": "outAmount",
          "type": "uint256"
        },
        {
          "internalType": "uint256",
          "name": "totalTracked",
          "type": "uint256"
        }
      ],
      "name": "_verifyTotalTracked",
      "outputs": [],
      "stateMutability": "pure",
      "type": "function"
    },
    {
      "inputs": [
        {
          "internalType": "address",
          "name": "to",
          "type": "address"
        },
        {
          "internalType": "uint256",
          "name": "tokenId",
          "type": "uint256"
        }
      ],
      "name": "approve",
      "outputs": [],
      "stateMutability": "nonpayable",
      "type": "function"
    },
    {
      "inputs": [
        {
          "internalType": "address",
          "name": "verifier",
          "type": "address"
        },
        {
          "internalType": "bool",
          "name": "approve",
          "type": "bool"
        }
      ],
      "name": "approveVerifier",
      "outputs": [],
      "stateMutability": "nonpayable",
      "type": "function"
    },
    {
      "inputs": [
        {
          "internalType": "uint256",
          "name": "trackerId",
          "type": "uint256"
        }
      ],
      "name": "audit",
      "outputs": [],
      "stateMutability": "nonpayable",
      "type": "function"
    },
    {
      "inputs": [
        {
          "internalType": "address",
          "name": "owner",
          "type": "address"
        }
      ],
      "name": "balanceOf",
      "outputs": [
        {
          "internalType": "uint256",
          "name": "",
          "type": "uint256"
        }
      ],
      "stateMutability": "view",
      "type": "function"
    },
    {
      "inputs": [],
      "name": "decimalsEf",
      "outputs": [
        {
          "internalType": "uint256",
          "name": "",
          "type": "uint256"
        }
      ],
      "stateMutability": "view",
      "type": "function"
    },
    {
      "inputs": [
        {
          "internalType": "uint256",
          "name": "trackerId",
          "type": "uint256"
        }
      ],
      "name": "emissionFactor",
      "outputs": [
        {
          "internalType": "uint256",
          "name": "",
          "type": "uint256"
        }
      ],
      "stateMutability": "view",
      "type": "function"
    },
    {
      "inputs": [
        {
          "internalType": "uint256",
          "name": "tokenId",
          "type": "uint256"
        }
      ],
      "name": "getApproved",
      "outputs": [
        {
          "internalType": "address",
          "name": "",
          "type": "address"
        }
      ],
      "stateMutability": "view",
      "type": "function"
    },
    {
      "inputs": [],
      "name": "getNumOfProducts",
      "outputs": [
        {
          "internalType": "uint256",
          "name": "",
          "type": "uint256"
        }
      ],
      "stateMutability": "view",
      "type": "function"
    },
    {
      "inputs": [],
      "name": "getNumOfUniqueTrackers",
      "outputs": [
        {
          "internalType": "uint256",
          "name": "",
          "type": "uint256"
        }
      ],
      "stateMutability": "view",
      "type": "function"
    },
    {
      "inputs": [
        {
          "internalType": "uint256",
          "name": "productId",
          "type": "uint256"
        },
        {
          "internalType": "uint256",
          "name": "trackerId",
          "type": "uint256"
        },
        {
          "internalType": "address",
          "name": "owner",
          "type": "address"
        }
      ],
      "name": "getProductBalance",
      "outputs": [
        {
          "internalType": "uint256",
          "name": "",
          "type": "uint256"
        }
      ],
      "stateMutability": "view",
      "type": "function"
    },
    {
      "inputs": [
        {
          "internalType": "uint256",
          "name": "productId",
          "type": "uint256"
        }
      ],
      "name": "getProductDetails",
      "outputs": [
        {
          "internalType": "uint256",
          "name": "",
          "type": "uint256"
        },
        {
          "internalType": "uint256",
          "name": "",
          "type": "uint256"
        },
        {
          "internalType": "uint256",
          "name": "",
          "type": "uint256"
        }
      ],
      "stateMutability": "view",
      "type": "function"
    },
    {
      "inputs": [
        {
          "internalType": "uint256",
          "name": "productId",
          "type": "uint256"
        }
      ],
      "name": "getProductOptionalDetails",
      "outputs": [
        {
          "internalType": "string",
          "name": "",
          "type": "string"
        },
        {
          "internalType": "uint256",
          "name": "",
          "type": "uint256"
        },
        {
          "internalType": "string",
          "name": "",
          "type": "string"
        }
      ],
      "stateMutability": "view",
      "type": "function"
    },
    {
      "inputs": [
        {
          "internalType": "bytes32",
          "name": "role",
          "type": "bytes32"
        }
      ],
      "name": "getRoleAdmin",
      "outputs": [
        {
          "internalType": "bytes32",
          "name": "",
          "type": "bytes32"
        }
      ],
      "stateMutability": "view",
      "type": "function"
    },
    {
      "inputs": [
        {
          "internalType": "uint256",
          "name": "trackerId",
          "type": "uint256"
        }
      ],
      "name": "getTokenAmounts",
      "outputs": [
        {
          "internalType": "uint256[]",
          "name": "",
          "type": "uint256[]"
        },
        {
          "internalType": "uint256[]",
          "name": "",
          "type": "uint256[]"
        }
      ],
      "stateMutability": "view",
      "type": "function"
    },
    {
      "inputs": [
        {
          "internalType": "uint256",
          "name": "trackerId",
          "type": "uint256"
        }
      ],
      "name": "getTokenIds",
      "outputs": [
        {
          "internalType": "uint256[]",
          "name": "",
          "type": "uint256[]"
        }
      ],
      "stateMutability": "view",
      "type": "function"
    },
    {
      "inputs": [
        {
          "internalType": "uint256",
          "name": "trackerId",
          "type": "uint256"
        }
      ],
      "name": "getTotalEmissions",
      "outputs": [
        {
          "internalType": "uint256",
          "name": "",
          "type": "uint256"
        }
      ],
      "stateMutability": "view",
      "type": "function"
    },
    {
      "inputs": [
        {
          "internalType": "uint256",
          "name": "trackerId",
          "type": "uint256"
        }
      ],
      "name": "getTrackerDetails",
      "outputs": [
        {
          "components": [
            {
              "internalType": "uint256",
              "name": "trackerId",
              "type": "uint256"
            },
            {
              "internalType": "address",
              "name": "trackee",
              "type": "address"
            },
            {
              "internalType": "address",
              "name": "auditor",
              "type": "address"
            },
            {
              "internalType": "uint256",
              "name": "totalProductAmounts",
              "type": "uint256"
            },
            {
              "internalType": "uint256",
              "name": "fromDate",
              "type": "uint256"
            },
            {
              "internalType": "uint256",
              "name": "thruDate",
              "type": "uint256"
            },
            {
              "internalType": "uint256",
              "name": "dateCreated",
              "type": "uint256"
            },
            {
              "internalType": "string",
              "name": "metadata",
              "type": "string"
            },
            {
              "internalType": "string",
              "name": "description",
              "type": "string"
            }
          ],
          "internalType": "struct CarbonTracker.CarbonTrackerDetails",
          "name": "",
          "type": "tuple"
        },
        {
          "internalType": "uint256",
          "name": "",
          "type": "uint256"
        },
        {
          "internalType": "uint256[]",
          "name": "",
          "type": "uint256[]"
        }
      ],
      "stateMutability": "view",
      "type": "function"
    },
    {
      "inputs": [
        {
          "internalType": "uint256",
          "name": "trackerId",
          "type": "uint256"
        }
      ],
      "name": "getTrackerIds",
      "outputs": [
        {
          "internalType": "uint256[]",
          "name": "",
          "type": "uint256[]"
        }
      ],
      "stateMutability": "view",
      "type": "function"
    },
    {
      "inputs": [
        {
          "internalType": "uint256",
          "name": "trackerId",
          "type": "uint256"
        }
      ],
      "name": "getTrackerTokenDetails",
      "outputs": [
        {
          "internalType": "uint256[]",
          "name": "",
          "type": "uint256[]"
        },
        {
          "internalType": "uint256[]",
          "name": "",
          "type": "uint256[]"
        }
      ],
      "stateMutability": "view",
      "type": "function"
    },
    {
      "inputs": [
        {
          "internalType": "bytes32",
          "name": "role",
          "type": "bytes32"
        },
        {
          "internalType": "address",
          "name": "account",
          "type": "address"
        }
      ],
      "name": "grantRole",
      "outputs": [],
      "stateMutability": "nonpayable",
      "type": "function"
    },
    {
      "inputs": [
        {
          "internalType": "bytes32",
          "name": "role",
          "type": "bytes32"
        },
        {
          "internalType": "address",
          "name": "account",
          "type": "address"
        }
      ],
      "name": "hasRole",
      "outputs": [
        {
          "internalType": "bool",
          "name": "",
          "type": "bool"
        }
      ],
      "stateMutability": "view",
      "type": "function"
    },
    {
      "inputs": [
        {
          "internalType": "address",
          "name": "_net",
          "type": "address"
        },
        {
          "internalType": "address",
          "name": "_admin",
          "type": "address"
        }
      ],
      "name": "initialize",
      "outputs": [],
      "stateMutability": "nonpayable",
      "type": "function"
    },
    {
      "inputs": [
        {
          "internalType": "address",
          "name": "owner",
          "type": "address"
        },
        {
          "internalType": "address",
          "name": "operator",
          "type": "address"
        }
      ],
      "name": "isApprovedForAll",
      "outputs": [
        {
          "internalType": "bool",
          "name": "",
          "type": "bool"
        }
      ],
      "stateMutability": "view",
      "type": "function"
    },
    {
      "inputs": [],
      "name": "name",
      "outputs": [
        {
          "internalType": "string",
          "name": "",
          "type": "string"
        }
      ],
      "stateMutability": "view",
      "type": "function"
    },
    {
      "inputs": [],
      "name": "net",
      "outputs": [
        {
          "internalType": "contract NetEmissionsTokenNetwork",
          "name": "",
          "type": "address"
        }
      ],
      "stateMutability": "view",
      "type": "function"
    },
    {
      "inputs": [],
      "name": "netAddress",
      "outputs": [
        {
          "internalType": "address",
          "name": "",
          "type": "address"
        }
      ],
      "stateMutability": "view",
      "type": "function"
    },
    {
      "inputs": [
        {
          "internalType": "address",
          "name": "",
          "type": "address"
        },
        {
          "internalType": "address",
          "name": "",
          "type": "address"
        },
        {
          "internalType": "uint256[]",
          "name": "",
          "type": "uint256[]"
        },
        {
          "internalType": "uint256[]",
          "name": "",
          "type": "uint256[]"
        },
        {
          "internalType": "bytes",
          "name": "",
          "type": "bytes"
        }
      ],
      "name": "onERC1155BatchReceived",
      "outputs": [
        {
          "internalType": "bytes4",
          "name": "",
          "type": "bytes4"
        }
      ],
      "stateMutability": "nonpayable",
      "type": "function"
    },
    {
      "inputs": [
        {
          "internalType": "address",
          "name": "",
          "type": "address"
        },
        {
          "internalType": "address",
          "name": "",
          "type": "address"
        },
        {
          "internalType": "uint256",
          "name": "",
          "type": "uint256"
        },
        {
          "internalType": "uint256",
          "name": "",
          "type": "uint256"
        },
        {
          "internalType": "bytes",
          "name": "",
          "type": "bytes"
        }
      ],
      "name": "onERC1155Received",
      "outputs": [
        {
          "internalType": "bytes4",
          "name": "",
          "type": "bytes4"
        }
      ],
      "stateMutability": "nonpayable",
      "type": "function"
    },
    {
      "inputs": [
        {
          "internalType": "uint256",
          "name": "tokenId",
          "type": "uint256"
        }
      ],
      "name": "ownerOf",
      "outputs": [
        {
          "internalType": "address",
          "name": "",
          "type": "address"
        }
      ],
      "stateMutability": "view",
      "type": "function"
    },
    {
      "inputs": [
        {
          "internalType": "uint256",
          "name": "",
          "type": "uint256"
        },
        {
          "internalType": "uint256",
          "name": "",
          "type": "uint256"
        },
        {
          "internalType": "address",
          "name": "",
          "type": "address"
        }
      ],
      "name": "productBalance",
      "outputs": [
        {
          "internalType": "uint256",
          "name": "",
          "type": "uint256"
        }
      ],
      "stateMutability": "view",
      "type": "function"
    },
    {
      "inputs": [
        {
          "internalType": "uint256",
          "name": "trackerId",
          "type": "uint256"
        },
        {
          "internalType": "uint256[]",
          "name": "productIds",
          "type": "uint256[]"
        },
        {
          "internalType": "uint256[]",
          "name": "productAmounts",
          "type": "uint256[]"
        },
        {
          "internalType": "string[]",
          "name": "productNames",
          "type": "string[]"
        },
        {
          "internalType": "string[]",
          "name": "productUnits",
          "type": "string[]"
        },
        {
          "internalType": "uint256[]",
          "name": "productUnitAmounts",
          "type": "uint256[]"
        }
      ],
      "name": "productsUpdate",
      "outputs": [],
      "stateMutability": "nonpayable",
      "type": "function"
    },
    {
      "inputs": [
        {
          "internalType": "address",
          "name": "tracker",
          "type": "address"
        }
      ],
      "name": "registerTracker",
      "outputs": [],
      "stateMutability": "nonpayable",
      "type": "function"
    },
    {
      "inputs": [
        {
          "internalType": "uint256",
          "name": "trackerId",
          "type": "uint256"
        }
      ],
      "name": "removeAudit",
      "outputs": [],
      "stateMutability": "nonpayable",
      "type": "function"
    },
    {
      "inputs": [
        {
          "internalType": "bytes32",
          "name": "role",
          "type": "bytes32"
        },
        {
          "internalType": "address",
          "name": "account",
          "type": "address"
        }
      ],
      "name": "renounceRole",
      "outputs": [],
      "stateMutability": "nonpayable",
      "type": "function"
    },
    {
      "inputs": [
        {
          "internalType": "bytes32",
          "name": "role",
          "type": "bytes32"
        },
        {
          "internalType": "address",
          "name": "account",
          "type": "address"
        }
      ],
      "name": "revokeRole",
      "outputs": [],
      "stateMutability": "nonpayable",
      "type": "function"
    },
    {
      "inputs": [
        {
          "internalType": "address",
          "name": "from",
          "type": "address"
        },
        {
          "internalType": "address",
          "name": "to",
          "type": "address"
        },
        {
          "internalType": "uint256",
          "name": "tokenId",
          "type": "uint256"
        }
      ],
      "name": "safeTransferFrom",
      "outputs": [],
      "stateMutability": "nonpayable",
      "type": "function"
    },
    {
      "inputs": [
        {
          "internalType": "address",
          "name": "from",
          "type": "address"
        },
        {
          "internalType": "address",
          "name": "to",
          "type": "address"
        },
        {
          "internalType": "uint256",
          "name": "tokenId",
          "type": "uint256"
        },
        {
          "internalType": "bytes",
          "name": "_data",
          "type": "bytes"
        }
      ],
      "name": "safeTransferFrom",
      "outputs": [],
      "stateMutability": "nonpayable",
      "type": "function"
    },
    {
      "inputs": [
        {
          "internalType": "address",
          "name": "operator",
          "type": "address"
        },
        {
          "internalType": "bool",
          "name": "approved",
          "type": "bool"
        }
      ],
      "name": "setApprovalForAll",
      "outputs": [],
      "stateMutability": "nonpayable",
      "type": "function"
    },
    {
      "inputs": [
        {
          "internalType": "bytes4",
          "name": "interfaceId",
          "type": "bytes4"
        }
      ],
      "name": "supportsInterface",
      "outputs": [
        {
          "internalType": "bool",
          "name": "",
          "type": "bool"
        }
      ],
      "stateMutability": "view",
      "type": "function"
    },
    {
      "inputs": [],
      "name": "symbol",
      "outputs": [
        {
          "internalType": "string",
          "name": "",
          "type": "string"
        }
      ],
      "stateMutability": "view",
      "type": "function"
    },
    {
      "inputs": [
        {
          "internalType": "uint256",
          "name": "tokenId",
          "type": "uint256"
        }
      ],
      "name": "tokenURI",
      "outputs": [
        {
          "internalType": "string",
          "name": "",
          "type": "string"
        }
      ],
      "stateMutability": "view",
      "type": "function"
    },
    {
      "inputs": [
        {
          "internalType": "address",
          "name": "trackee",
          "type": "address"
        },
        {
          "internalType": "uint256[]",
          "name": "tokenIds",
          "type": "uint256[]"
        },
        {
          "internalType": "uint256[]",
          "name": "tokenAmounts",
          "type": "uint256[]"
        },
        {
          "internalType": "uint256",
          "name": "fromDate",
          "type": "uint256"
        },
        {
          "internalType": "uint256",
          "name": "thruDate",
          "type": "uint256"
        },
        {
          "internalType": "string",
          "name": "description",
          "type": "string"
        }
      ],
      "name": "track",
      "outputs": [
        {
          "internalType": "uint256",
          "name": "",
          "type": "uint256"
        }
      ],
      "stateMutability": "nonpayable",
      "type": "function"
    },
    {
      "inputs": [
        {
          "internalType": "uint256",
          "name": "trackerId",
          "type": "uint256"
        },
        {
          "internalType": "uint256",
          "name": "sourceTrackerId",
          "type": "uint256"
        },
        {
          "internalType": "uint256",
          "name": "productId",
          "type": "uint256"
        },
        {
          "internalType": "uint256",
          "name": "productAmount",
          "type": "uint256"
        }
      ],
      "name": "trackProduct",
      "outputs": [],
      "stateMutability": "nonpayable",
      "type": "function"
    },
    {
      "inputs": [
        {
          "internalType": "uint256",
          "name": "trackerId",
          "type": "uint256"
        },
        {
          "internalType": "uint256[]",
          "name": "tokenIds",
          "type": "uint256[]"
        },
        {
          "internalType": "uint256[]",
          "name": "tokenAmounts",
          "type": "uint256[]"
        },
        {
          "internalType": "uint256",
          "name": "fromDate",
          "type": "uint256"
        },
        {
          "internalType": "uint256",
          "name": "thruDate",
          "type": "uint256"
        },
        {
          "internalType": "string",
          "name": "description",
          "type": "string"
        }
      ],
      "name": "trackUpdate",
      "outputs": [],
      "stateMutability": "nonpayable",
      "type": "function"
    },
    {
      "inputs": [
        {
          "internalType": "address",
          "name": "from",
          "type": "address"
        },
        {
          "internalType": "address",
          "name": "to",
          "type": "address"
        },
        {
          "internalType": "uint256",
          "name": "tokenId",
          "type": "uint256"
        }
      ],
      "name": "transferFrom",
      "outputs": [],
      "stateMutability": "nonpayable",
      "type": "function"
    },
    {
      "inputs": [
        {
          "internalType": "uint256",
          "name": "productId",
          "type": "uint256"
        },
        {
          "internalType": "uint256",
          "name": "productAmount",
          "type": "uint256"
        },
        {
          "internalType": "uint256",
          "name": "sourceTrackerId",
          "type": "uint256"
        },
        {
          "internalType": "address",
          "name": "trackee",
          "type": "address"
        }
      ],
      "name": "transferProduct",
      "outputs": [],
      "stateMutability": "nonpayable",
      "type": "function"
    },
    {
      "inputs": [
        {
          "internalType": "uint256",
          "name": "trackerId",
          "type": "uint256"
        },
        {
          "internalType": "uint256",
          "name": "sourceTrackerId",
          "type": "uint256"
        },
        {
          "internalType": "uint256",
          "name": "productId",
          "type": "uint256"
        },
        {
          "internalType": "uint256",
          "name": "productAmount",
          "type": "uint256"
        }
      ],
      "name": "transferProductToTracker",
      "outputs": [],
      "stateMutability": "nonpayable",
      "type": "function"
    },
    {
      "inputs": [
        {
          "internalType": "uint256",
          "name": "trackerId",
          "type": "uint256"
        },
        {
          "internalType": "uint256",
          "name": "productId",
          "type": "uint256"
        },
        {
          "internalType": "string",
          "name": "unit",
          "type": "string"
        },
        {
          "internalType": "uint256",
          "name": "unitAmount",
          "type": "uint256"
        },
        {
          "internalType": "bytes",
          "name": "signature",
          "type": "bytes"
        }
      ],
      "name": "verifyUnitSignature",
      "outputs": [
        {
          "internalType": "bool",
          "name": "",
          "type": "bool"
        }
      ],
      "stateMutability": "view",
      "type": "function"
    }
  ],
  "bytecode": "0x608060405234801561001057600080fd5b50615be380620000216000396000f3fe608060405234801561001057600080fd5b506004361061035d5760003560e01c80637c7a89ca116101d3578063b88d4fde11610104578063d547741f116100a2578063e985e9c51161007c578063e985e9c51461080f578063ecc3356a1461084b578063f23a6e611461085e578063f2600e4e1461087d5761035d565b8063d547741f146107b6578063e54a9646146107c9578063e7b5892a146107dd5761035d565b8063c2fff4a5116100de578063c2fff4a514610769578063c87b56dd1461077d578063cf2f466414610790578063d0b124b6146107a35761035d565b8063b88d4fde1461070b578063b9531f211461071e578063bc197c81146107315761035d565b8063a22cb46511610171578063a7d6619d1161014b578063a7d6619d14610694578063b173e570146106a7578063b2defd98146106ba578063b395ee91146106f85761035d565b8063a22cb46514610666578063a23ccfe814610679578063a2ce6a79146106815761035d565b806391d14854116101ad57806391d148541461063057806395d89b411461064357806399228cda1461064b578063a217fddf1461065e5761035d565b80637c7a89ca146105e657806381d5f7f6146105f95780638a59a9351461060e5761035d565b80633b8470b0116102ad5780635e7231c31161024b5780636813b53b116102255780636813b53b1461058a57806370a08231146105b857806379937342146105cb5780637c7768d6146105de5761035d565b80635e7231c3146105515780636352211e1461056457806363a24857146105775761035d565b8063485cc95511610287578063485cc955146104f157806357991d3014610504578063594d4605146105245780635ad25ac81461052f5761035d565b80633b8470b0146104c057806340e6c970146104d357806342842e0e146104de5761035d565b80631856f2621161031a5780632f2ff15d116102f45780632f2ff15d1461045357806336568abe146104665780633abb340f146104795780633b4e06e61461049f5761035d565b80631856f2621461040a57806323b872dd1461041d578063248a9ca3146104305761035d565b806301ffc9a71461036257806306fdde031461038a5780630709cf3a1461039f578063081812fc146103b7578063095ea7b3146103e25780630b71d18b146103f7575b600080fd5b610375610370366004615170565b610890565b60405190151581526020015b60405180910390f35b6103926108bd565b6040516103819190615671565b6103a96101375481565b604051908152602001610381565b6103ca6103c5366004615136565b61094f565b6040516001600160a01b039091168152602001610381565b6103f56103f03660046150f1565b6109e9565b005b6103a9610405366004615136565b610aff565b6103f5610418366004614e22565b610b20565b6103f561042b366004614f13565b610c13565b6103a961043e366004615136565b60009081526097602052604090206001015490565b6103f561046136600461514e565b610c44565b6103f561047436600461514e565b610c69565b61048c610487366004615136565b610ce7565b6040516103819796959493929190615971565b6104b26104ad366004615136565b610e3f565b60405161038192919061560a565b6103f56104ce366004615411565b610f8c565b610132546103a99081565b6103f56104ec366004614f13565b611168565b6103f56104ff366004614e3c565b611183565b610517610512366004615136565b611296565b60405161038191906155f7565b610133546103a99081565b61054261053d366004615136565b6112f9565b60405161038193929190615684565b6103f561055f3660046152a3565b6114df565b6103ca610572366004615136565b61157b565b6103f561058536600461526e565b6115f2565b61059d610598366004615136565b61165f565b60408051938452602084019290925290820152606001610381565b6103a96105c6366004614e22565b611800565b6103a96105d9366004615136565b611887565b6103a96118d6565b6103f56105f4366004615411565b6118e7565b6103a9600080516020615b8e83398151915281565b61062161061c366004615136565b611b66565b604051610381939291906158ae565b61037561063e36600461514e565b611de6565b610392611e11565b6103a9610659366004615015565b611e20565b6103a9600081565b6103f56106743660046150bb565b611e56565b6103a9611e61565b6103a961068f36600461531b565b611e6d565b6103f56106a23660046150bb565b611ea8565b6103f56106b5366004615136565b612157565b6103a96106c83660046152e7565b6000928352610135602090815260408085209385529281528284206001600160a01b039290921684525290205490565b6103f56107063660046153d3565b6121df565b6103f5610719366004614f4e565b612319565b61051761072c366004615136565b612351565b61075061073f366004614e6e565b63bc197c8160e01b95945050505050565b6040516001600160e01b03199091168152602001610381565b61012d546103ca906001600160a01b031681565b61039261078b366004615136565b6123b5565b6103f561079e3660046151a8565b61249d565b6103756107b1366004615370565b612ab9565b6103f56107c436600461514e565b612b7c565b61012e546103ca906001600160a01b031681565b6103a96107eb3660046152e7565b61013560209081526000938452604080852082529284528284209052825290205481565b61037561081d366004614e3c565b6001600160a01b039182166000908152606a6020908152604080832093909416825291909152205460ff1690565b6103f5610859366004615136565b612ba1565b61075061086c366004614fb3565b63f23a6e6160e01b95945050505050565b6104b261088b366004615136565b612beb565b60006001600160e01b03198216637965db0b60e01b14806108b557506108b582612d2c565b90505b919050565b6060606580546108cc90615ac3565b80601f01602080910402602001604051908101604052809291908181526020018280546108f890615ac3565b80156109455780601f1061091a57610100808354040283529160200191610945565b820191906000526020600020905b81548152906001019060200180831161092857829003601f168201915b5050505050905090565b6000818152606760205260408120546001600160a01b03166109cd5760405162461bcd60e51b815260206004820152602c60248201527f4552433732313a20617070726f76656420717565727920666f72206e6f6e657860448201526b34b9ba32b73a103a37b5b2b760a11b60648201526084015b60405180910390fd5b506000908152606960205260409020546001600160a01b031690565b60006109f48261157b565b9050806001600160a01b0316836001600160a01b03161415610a625760405162461bcd60e51b815260206004820152602160248201527f4552433732313a20617070726f76616c20746f2063757272656e74206f776e656044820152603960f91b60648201526084016109c4565b336001600160a01b0382161480610a7e5750610a7e813361081d565b610af05760405162461bcd60e51b815260206004820152603860248201527f4552433732313a20617070726f76652063616c6c6572206973206e6f74206f7760448201527f6e6572206e6f7220617070726f76656420666f7220616c6c000000000000000060648201526084016109c4565b610afa8383612d51565b505050565b60008181526101306020526040812081610b1882612dbf565b949350505050565b806001600160a01b038116331480610b3e5750610b3e600033611de6565b610bc35760405162461bcd60e51b815260206004820152604a60248201527f434c4d383a3a73656c664f7241646d696e3a206d73672e73656e64657220646f60448201527f6573206e6f74206f776e20746869732061646472657373206f72206973206e6f6064820152693a1030b71030b236b4b760b11b608482015260a4016109c4565b610bdb600080516020615b8e83398151915283613002565b6040516001600160a01b038316907fef8ce2b8e324ee947b09d9cf7f74e5589078af3a3e3f5266e9752c8284e4cd8790600090a25050565b610c1d338261300c565b610c395760405162461bcd60e51b81526004016109c4906157c4565b610afa838383613102565b600082815260976020526040902060010154610c5f8161329e565b610afa83836132ab565b6001600160a01b0381163314610cd95760405162461bcd60e51b815260206004820152602f60248201527f416363657373436f6e74726f6c3a2063616e206f6e6c792072656e6f756e636560448201526e103937b632b9903337b91039b2b63360891b60648201526084016109c4565b610ce38282613331565b5050565b610131602052600090815260409020805460018201546002830154600384015460048501805494956001600160a01b039094169492939192610d2890615ac3565b80601f0160208091040260200160405190810160405280929190818152602001828054610d5490615ac3565b8015610da15780601f10610d7657610100808354040283529160200191610da1565b820191906000526020600020905b815481529060010190602001808311610d8457829003601f168201915b505050505090806005018054610db690615ac3565b80601f0160208091040260200160405190810160405280929190818152602001828054610de290615ac3565b8015610e2f5780601f10610e0457610100808354040283529160200191610e2f565b820191906000526020600020905b815481529060010190602001808311610e1257829003601f168201915b5050505050908060060154905087565b600081815261013060209081526040808320805482518185028101850190935280835260609485949293909290918491830182828015610e9e57602002820191906000526020600020905b815481526020019060010190808311610e8a575b50505050509050600081516001600160401b03811115610ece57634e487b7160e01b600052604160045260246000fd5b604051908082528060200260200182016040528015610ef7578160200160208202803683370190505b50905060005b8251811015610f8057836002016000848381518110610f2c57634e487b7160e01b600052603260045260246000fd5b6020026020010151815260200190815260200160002054828281518110610f6357634e487b7160e01b600052603260045260246000fd5b602090810291909101015280610f7881615af8565b915050610efd565b50909350915050915091565b600084815261012f602052604090206002015484906001600160a01b031615610fc75760405162461bcd60e51b81526004016109c490615860565b610fd085613398565b610fda853361340f565b838514156110505760405162461bcd60e51b815260206004820152603f60248201527f434c4d383a3a73656e6450726f64756374733a20736f75726365547261636b6560448201527f7249642063616e206e6f7420657175616c2074686520747261636b657249640060648201526084016109c4565b600083815261013560209081526040808320878452825280832033845290915290205482106111055760405162461bcd60e51b815260206004820152605560248201527f434c4d383a3a747261636b50726f647563743a2070726f64756374416d6f756e60448201527f7420657863656564732070726f647563747320617661696c61626c6520666f726064820152741b481d1a19481cdbdd5c98d9551c9858dad95c9259605a1b608482015260a4016109c4565b60008381526101356020908152604080832087845282528083203384529091529020546111329083613497565b6000848152610135602090815260408083208884528252808320338452909152902055611161858585856134a3565b5050505050565b610afa83838360405180602001604052806000815250612319565b600061118f600161380e565b905080156111a7576000805461ff0019166101001790555b61012d80546001600160a01b0385166001600160a01b0319918216811790925561012e80549091169091179055620f42406101375560408051808201825260128152712722aa1021b0b93137b7102a3930b1b5b2b960711b602080830191909152825180840190935260048352631391551560e21b9083015261122991613893565b611234600083613002565b61124c600080516020615b8e83398151915283613002565b8015610afa576000805461ff0019169055604051600181527f7f26b83ff96e1f2b6a682f133852f6798a09c465da95921460cefb38474024989060200160405180910390a1505050565b600081815261013060209081526040918290208054835181840281018401909452808452606093928301828280156112ed57602002820191906000526020600020905b8154815260200190600101908083116112d9575b50505050509050919050565b60606000606060008061013160008781526020019081526020016000206040518060e0016040529081600082015481526020016001820160009054906101000a90046001600160a01b03166001600160a01b03166001600160a01b03168152602001600282015481526020016003820154815260200160048201805461137e90615ac3565b80601f01602080910402602001604051908101604052809291908181526020018280546113aa90615ac3565b80156113f75780601f106113cc576101008083540402835291602001916113f7565b820191906000526020600020905b8154815290600101906020018083116113da57829003601f168201915b5050505050815260200160058201805461141090615ac3565b80601f016020809104026020016040519081016040528092919081815260200182805461143c90615ac3565b80156114895780601f1061145e57610100808354040283529160200191611489565b820191906000526020600020905b81548152906001019060200180831161146c57829003601f168201915b5050505050815260200160068201548152505090506114c681604001516114c0610137548460c001516138c490919063ffffffff16565b906138d0565b608082015160a090920151919790965090945092505050565b80821015610ce35760405162461bcd60e51b815260206004820152605860248201527f434c4d383a3a5f766572696679546f74616c547261636b65643a20746f74616c60448201527f20616d6f756e7420747261636b65642065786365656473206f7574707574206f60648201527f6620746f6b656e49642066726f6d20747261636b657249640000000000000000608482015260a4016109c4565b6000818152606760205260408120546001600160a01b0316806108b55760405162461bcd60e51b815260206004820152602960248201527f4552433732313a206f776e657220717565727920666f72206e6f6e657869737460448201526832b73a103a37b5b2b760b91b60648201526084016109c4565b600086815261012f602052604090206002015486906001600160a01b03161561162d5760405162461bcd60e51b81526004016109c490615860565b8661163781613398565b600088815261012f602052604090206116548189898989896138dc565b505050505050505050565b600081815261013160209081526040808320815160e0810183528154815260018201546001600160a01b031693810193909352600281015491830191909152600381015460608301526004810180548493849384939192909160808401916116c690615ac3565b80601f01602080910402602001604051908101604052809291908181526020018280546116f290615ac3565b801561173f5780601f106117145761010080835404028352916020019161173f565b820191906000526020600020905b81548152906001019060200180831161172257829003601f168201915b5050505050815260200160058201805461175890615ac3565b80601f016020809104026020016040519081016040528092919081815260200182805461178490615ac3565b80156117d15780601f106117a6576101008083540402835291602001916117d1565b820191906000526020600020905b8154815290600101906020018083116117b457829003601f168201915b505050918352505060069190910154602090910152805160408201516060909201519097919650945092505050565b60006001600160a01b03821661186b5760405162461bcd60e51b815260206004820152602a60248201527f4552433732313a2062616c616e636520717565727920666f7220746865207a65604482015269726f206164647265737360b01b60648201526084016109c4565b506001600160a01b031660009081526068602052604090205490565b600081815261012f602052604081206003810154156118c6576118be81600301546114c0610137546118b887610aff565b906138c4565b9150506108b8565b60009150506108b8565b50919050565b60006118e26101325490565b905090565b600084815261012f602052604090206002015484906001600160a01b0316156119225760405162461bcd60e51b81526004016109c490615860565b61192b85613398565b611935853361340f565b838514156119bf5760405162461bcd60e51b815260206004820152604b60248201527f434c4d383a3a7472616e7366657250726f64756374546f547261636b65723a2060448201527f736f75726365547261636b657249642063616e206e6f7420657175616c20746860648201526a19481d1c9858dad95c925960aa1b608482015260a4016109c4565b60008381526101316020908152604080832061013583528184208885528352818420338552909252909120548310611a8f5760405162461bcd60e51b815260206004820152606160248201527f434c4d383a3a7472616e7366657250726f64756374546f547261636b65723a2060448201527f70726f64756374416d6f756e7420657863656564732070726f6475637473206160648201527f7661696c61626c6520666f726d2074686520736f75726365547261636b6572496084820152601960fa1b60a482015260c4016109c4565b6000848152610135602090815260408083208884528252808320338452909152902054611abc9084613497565b60008581526101356020908152604080832089845282528083203384529091529020556002810154611aee9084613e21565b60028201556003810154611b029084613e21565b600380830191909155600087815261013060209081526040808320840180546001810182559084528284200188905589835261012f90915290200154611b489084613e21565b600096875261012f6020526040909620600301959095555050505050565b611bc76040518061012001604052806000815260200160006001600160a01b0316815260200160006001600160a01b031681526020016000815260200160008152602001600081526020016000815260200160608152602001606081525090565b600082815261012f602090815260408083206101309092528220606091906003810184611bf383612dbf565b60408051610120810182528654815260018701546001600160a01b039081166020830152600288015416918101919091526003860154606082015260048601546080820152600586015460a0820152600686015460c08201526007860180549293508692849286929091859160e0840191611c6d90615ac3565b80601f0160208091040260200160405190810160405280929190818152602001828054611c9990615ac3565b8015611ce65780601f10611cbb57610100808354040283529160200191611ce6565b820191906000526020600020905b815481529060010190602001808311611cc957829003601f168201915b50505050508152602001600882018054611cff90615ac3565b80601f0160208091040260200160405190810160405280929190818152602001828054611d2b90615ac3565b8015611d785780601f10611d4d57610100808354040283529160200191611d78565b820191906000526020600020905b815481529060010190602001808311611d5b57829003601f168201915b505050505081525050925080805480602002602001604051908101604052809291908181526020018280548015611dce57602002820191906000526020600020905b815481526020019060010190808311611dba575b50505050509050965096509650505050509193909250565b60009182526097602090815260408084206001600160a01b0393909316845291905290205460ff1690565b6060606680546108cc90615ac3565b600080611e2c88613e2d565b9050611e3c8188888888886138dc565b611e4a888260000154613e89565b54979650505050505050565b610ce3338383613fcc565b60006118e26101335490565b60003085858585604051602001611e889594939291906154c9565b604051602081830303815290604052805190602001209050949350505050565b33611ec1600080516020615b8e83398151915282611de6565b611f2c5760405162461bcd60e51b815260206004820152603660248201527f434c4d383a3a72656769737465726564547261636b65723a20746865206164646044820152751c995cdcc81a5cc81b9bdd081c9959da5cdd195c995960521b60648201526084016109c4565b61012d546040516349b9055760e01b81526001600160a01b038581166004830152909116906349b905579060240160206040518083038186803b158015611f7257600080fd5b505afa158015611f86573d6000803e3d6000fd5b505050506040513d601f19601f82011682018060405250810190611faa919061511a565b80611fb3575081155b6120335760405162461bcd60e51b8152602060048201526044602482018190527f434c4d383a3a617070726f766556657269666965723a20616464726573732069908201527f73206e6f742061207265676973746572656420656d697373696f6e732061756460648201526334ba37b960e11b608482015260a4016109c4565b6001600160a01b0383163314156120a85760405162461bcd60e51b815260206004820152603360248201527f434c4d383a3a617070726f766556657269666965723a2061756469746f72206360448201527230b73737ba1031329036b9b39739b2b73232b960691b60648201526084016109c4565b6001600160a01b0383166000908152610136602090815260408083203384529091529020805460ff1916831580159190911790915561211c5760405133906001600160a01b038516907ff31635902a304a612155085cc8916b9ab86fc115155b10b33980f6cb8165c54e90600090a3610afa565b60405133906001600160a01b038516907f490861baee43b8ebd28f134f99c0aa7848888c4bde402256ad4cf455d147aed690600090a3505050565b600081815261012f602052604090206002015481906001600160a01b0316156121925760405162461bcd60e51b81526004016109c490615860565b600082815261012f602052604090206001015482906121b9906001600160a01b031661409b565b5050600090815261012f6020526040902060020180546001600160a01b03191633179055565b816121e9816141db565b826121f4813361340f565b600086815261013160205260409020600381015486106122975760405162461bcd60e51b815260206004820152605260248201527f434c4d383a3a7472616e7366657250726f647563743a2070726f64756374416d60448201527f6f756e7420657863656564732070726f647563747320617661696c61626c65206064820152711a5b881cdbdd5c98d9551c9858dad95c925960721b608482015260a4016109c4565b60038101546122a69087613497565b600382015560008781526101356020908152604080832088845282528083206001600160a01b03881684529091529020546122e19087613e21565b600097885261013560209081526040808a20978a529681528689206001600160a01b0390961689529490945250505092209190915550565b612323338361300c565b61233f5760405162461bcd60e51b81526004016109c4906157c4565b61234b84848484614256565b50505050565b600081815261013060209081526040918290206005018054835181840281018401909452808452606093928301828280156112ed57602002820191906000526020600020908154815260200190600101908083116112d95750505050509050919050565b6000818152606760205260409020546060906001600160a01b03166124345760405162461bcd60e51b815260206004820152602f60248201527f4552433732314d657461646174613a2055524920717565727920666f72206e6f60448201526e3732bc34b9ba32b73a103a37b5b2b760891b60648201526084016109c4565b600061244b60408051602081019091526000815290565b9050600081511161246b5760405180602001604052806000815250612496565b8061247584614289565b604051602001612486929190615516565b6040516020818303038152906040525b9392505050565b600086815261012f602052604090206002015486906001600160a01b0316156124d85760405162461bcd60e51b81526004016109c490615860565b866124e281613398565b600088815261012f60205260409020600101548890612509906001600160a01b031661409b565b600089815261012f6020526040902088518851146125a35760405162461bcd60e51b815260206004820152604b60248201527f434c4d383a3a70726f64756374735570646174653a2070726f64756374416d6f60448201527f756e747320616e642070726f6475637449647320617265206e6f74207468652060648201526a0e6c2daca40d8cadccee8d60ab1b608482015260a4016109c4565b885187511461262c5760405162461bcd60e51b815260206004820152604960248201527f434c4d383a3a70726f64756374735570646174653a2070726f647563744e616d60448201527f657320616e642070726f6475637449647320617265206e6f74207468652073616064820152680daca40d8cadccee8d60bb1b608482015260a4016109c4565b885185511461264d5760405162461bcd60e51b81526004016109c4906156af565b885186511461266e5760405162461bcd60e51b81526004016109c4906156af565b60008060005b8b51811015612a6e5760008c828151811061269f57634e487b7160e01b600052603260045260246000fd5b60200260200101511115612849578b81815181106126cd57634e487b7160e01b600052603260045260246000fd5b602002602001015192508c61013160008581526020019081526020016000206000015414612765576040805162461bcd60e51b81526020600482015260248101919091527f434c4d383a3a70726f64756374735570646174653a2070726f6475637449647360448201527f5b695d20646f6573206e6f742062656c6f6e6720746f20747261636b6572496460648201526084016109c4565b6127a38b828151811061278857634e487b7160e01b600052603260045260246000fd5b6020026020010151856003015461349790919063ffffffff16565b6003850155600083815261013160205260409020600101546001600160a01b031633146128445760405162461bcd60e51b815260206004820152604360248201527f434c4d383a3a70726f64756374735570646174653a206d73672e73656e64657260448201527f206973206e6f74207468652061756469746f72206f6620746869732070726f646064820152621d58dd60ea1b608482015260a4016109c4565b6128f5565b61285861013380546001019055565b6101335492508c61013160008581526020019081526020016000206000018190555033610131600085815260200190815260200160002060010160006101000a8154816001600160a01b0302191690836001600160a01b0316021790555061013060008e81526020019081526020016000206003018390806001815401808255809150506001900390600052602060002001600090919091909150555b6000838152610131602052604090208a519092508a908290811061292957634e487b7160e01b600052603260045260246000fd5b6020026020010151826004019080519060200190612948929190614c2a565b5087818151811061296957634e487b7160e01b600052603260045260246000fd5b6020026020010151826006018190555088818151811061299957634e487b7160e01b600052603260045260246000fd5b60200260200101518260050190805190602001906129b8929190614c2a565b508a81815181106129d957634e487b7160e01b600052603260045260246000fd5b602002602001015182600201819055508a8181518110612a0957634e487b7160e01b600052603260045260246000fd5b60200260200101518260030181905550612a578b8281518110612a3c57634e487b7160e01b600052603260045260246000fd5b60200260200101518560030154613e2190919063ffffffff16565b600385015580612a6681615af8565b915050612674565b5082546040517fcae18be6040b3a94c418e2e09d130e25f25a0069beec7edc902c803cf7f61ebf90612aa3908e908e9061560a565b60405180910390a2505050505050505050505050565b600085612ac5816141db565b86612acf81613398565b600087815261013160205260408120600101546001600160a01b031690612b4e612afb8b8b8b8b611e6d565b6040517f19457468657265756d205369676e6564204d6573736167653a0a3332000000006020820152603c8101829052600090605c01604051602081830303815290604052805190602001209050919050565b90506001600160a01b038216612b6482886143a3565b6001600160a01b0316149a9950505050505050505050565b600082815260976020526040902060010154612b978161329e565b610afa8383613331565b600081815261012f60205260409020600101548190612bc8906001600160a01b031661409b565b50600090815261012f6020526040902060020180546001600160a01b0319169055565b600081815261013060209081526040808320805482518185028101850190935280835260609485949293909290918491830182828015612c4a57602002820191906000526020600020905b815481526020019060010190808311612c36575b50505050509050600081516001600160401b03811115612c7a57634e487b7160e01b600052604160045260246000fd5b604051908082528060200260200182016040528015612ca3578160200160208202803683370190505b50905060005b8251811015610f8057836002016000848381518110612cd857634e487b7160e01b600052603260045260246000fd5b6020026020010151815260200190815260200160002054828281518110612d0f57634e487b7160e01b600052603260045260246000fd5b602090810291909101015280612d2481615af8565b915050612ca9565b60006001600160e01b03198216630271189760e51b14806108b557506108b5826143c7565b600081815260696020526040902080546001600160a01b0319166001600160a01b0384169081179091558190612d868261157b565b6001600160a01b03167f8c5be1e5ebec7d5bd14f71427d1e84f3dd0314c0f7b2291e5b200ac8c7c3b92560405160405180910390a45050565b60008181805b8254811015612e3457612e20856002016000858481548110612df757634e487b7160e01b600052603260045260246000fd5b906000526020600020015481526020019081526020016000205483613e2190919063ffffffff16565b915080612e2c81615af8565b915050612dc5565b506060600085600501805480602002602001604051908101604052809291908181526020018280548015612e8757602002820191906000526020600020905b815481526020019060010190808311612e73575b50505050509050600080600090505b8251811015612ff657876007016000848381518110612ec557634e487b7160e01b600052603260045260246000fd5b60200260200101518152602001908152602001600020915081600001805480602002602001604051908101604052809291908181526020018280548015612f2b57602002820191906000526020600020905b815481526020019060010190808311612f17575b50505050509350600080600090505b8551811015612fe157836002016000878381518110612f6957634e487b7160e01b600052603260045260246000fd5b60200260200101518152602001908152602001600020549150612fcd612fc6610137546114c0612fbf898881518110612fb257634e487b7160e01b600052603260045260246000fd5b6020026020010151611887565b86906138c4565b8890613e21565b965080612fd981615af8565b915050612f3a565b50508080612fee90615af8565b915050612e96565b50929695505050505050565b610ce382826132ab565b6000818152606760205260408120546001600160a01b03166130855760405162461bcd60e51b815260206004820152602c60248201527f4552433732313a206f70657261746f7220717565727920666f72206e6f6e657860448201526b34b9ba32b73a103a37b5b2b760a11b60648201526084016109c4565b60006130908361157b565b9050806001600160a01b0316846001600160a01b031614806130d757506001600160a01b038082166000908152606a602090815260408083209388168352929052205460ff165b80610b185750836001600160a01b03166130f08461094f565b6001600160a01b031614949350505050565b826001600160a01b03166131158261157b565b6001600160a01b0316146131795760405162461bcd60e51b815260206004820152602560248201527f4552433732313a207472616e736665722066726f6d20696e636f72726563742060448201526437bbb732b960d91b60648201526084016109c4565b6001600160a01b0382166131db5760405162461bcd60e51b8152602060048201526024808201527f4552433732313a207472616e7366657220746f20746865207a65726f206164646044820152637265737360e01b60648201526084016109c4565b6131e6600082612d51565b6001600160a01b038316600090815260686020526040812080546001929061320f908490615a69565b90915550506001600160a01b038216600090815260686020526040812080546001929061323d908490615a1e565b909155505060008181526067602052604080822080546001600160a01b0319166001600160a01b0386811691821790925591518493918716917fddf252ad1be2c89b69c2b068fc378daa952ba7f163c4a11628f55a4df523b3ef91a4610afa565b6132a881336143ec565b50565b6132b58282611de6565b610ce35760008281526097602090815260408083206001600160a01b03851684529091529020805460ff191660011790556132ed3390565b6001600160a01b0316816001600160a01b0316837f2f8788117e7eff1d82e926ec794901d17c78024a50270940304540a733656f0d60405160405180910390a45050565b61333b8282611de6565b15610ce35760008281526097602090815260408083206001600160a01b0385168085529252808320805460ff1916905551339285917ff6391f5c32d9c69d2a47ea670b442974b53935d1edc7fd64eb21e047a839171b9190a45050565b806133a36101325490565b10156132a85760405162461bcd60e51b815260206004820152603560248201527f434c4d383a3a5f747261636b65724578697374733a20747261636b657220746f6044820152741ad95b88125108191bd95cc81b9bdd08195e1a5cdd605a1b60648201526084016109c4565b806001600160a01b03166134228361157b565b6001600160a01b031614610ce35760405162461bcd60e51b815260206004820152603660248201527f434c4d383a3a5f69734f776e65723a206d73672e73656e64657220646f6573206044820152751b9bdd081bdddb881d1a1a5cc81d1c9858dad95c925960521b60648201526084016109c4565b60006124968284615a69565b600084815261013060209081526040808320868452600781018352818420868552600281019093529220546134d89084613e21565b60008581526002830160208181526040808420859055898452600687018252808420548985526001870183529320549190529091156135465780613541578254600181810185556000858152602080822090930189905585548982529186019092526040909120555b61367a565b80156136685782546001101561361c578254839061356690600190615a69565b8154811061358457634e487b7160e01b600052603260045260246000fd5b6000918252602090912001548361359c600184615a69565b815481106135ba57634e487b7160e01b600052603260045260246000fd5b906000526020600020018190555080836001016000856000016001856135e09190615a69565b815481106135fe57634e487b7160e01b600052603260045260246000fd5b90600052602060002001548152602001908152602001600020819055505b6000868152600180850160205260408220919091558354849161363e91615a69565b8154811061365c57634e487b7160e01b600052603260045260246000fd5b60009182526020822001555b60008681526002840160205260408120555b8254156136ba57816136b557600584018054600181018255600082815260208082209092018a90559154898352600687019091526040909120555b613804565b81156137e657600584015460011015613799576005840180546136df90600190615a69565b815481106136fd57634e487b7160e01b600052603260045260246000fd5b9060005260206000200154846005016001846137199190615a69565b8154811061373757634e487b7160e01b600052603260045260246000fd5b9060005260206000200181905550818460060160008660050160018661375d9190615a69565b8154811061377b57634e487b7160e01b600052603260045260246000fd5b90600052602060002001548152602001908152602001600020819055505b60008781526006850160205260408120556005840180546137bc90600190615a69565b815481106137da57634e487b7160e01b600052603260045260246000fd5b60009182526020822001555b60008781526007850160205260408120906138018282614cae565b50505b5050505050505050565b60008054610100900460ff1615613855578160ff1660011480156138315750303b155b61384d5760405162461bcd60e51b81526004016109c490615776565b5060006108b8565b60005460ff80841691161061387c5760405162461bcd60e51b81526004016109c490615776565b506000805460ff191660ff831617905560016108b8565b600054610100900460ff166138ba5760405162461bcd60e51b81526004016109c490615815565b610ce38282614450565b60006124968284615a4a565b60006124968284615a36565b60018601546138f3906001600160a01b031661409b565b821561390157600486018390555b811561390f57600586018290555b80511561392d57805161392b9060088801906020840190614c2a565b505b84518451146139a45760405162461bcd60e51b815260206004820152603f60248201527f434c4d383a3a5f747261636b3a20746f6b656e416d6f756e747320616e64207460448201527f6f6b656e49647320617265206e6f74207468652073616d65206c656e6774680060648201526084016109c4565b8554600090815261013060205260408120905b8651811015613dd45761012d5487516000916001600160a01b031690637f157c9b9030908b90869081106139fb57634e487b7160e01b600052603260045260246000fd5b60200260200101516040518363ffffffff1660e01b8152600401613a349291906001600160a01b03929092168252602082015260400190565b604080518083038186803b158015613a4b57600080fd5b505afa158015613a5f573d6000803e3d6000fd5b505050506040513d601f19601f82011682018060405250810190613a8391906152c4565b509050868281518110613aa657634e487b7160e01b600052603260045260246000fd5b6020026020010151613afc61013460008b8681518110613ad657634e487b7160e01b600052603260045260246000fd5b60200260200101518152602001908152602001600020548361349790919063ffffffff16565b101580613b14575061012e546001600160a01b031633145b613bac5760405162461bcd60e51b815260206004820152605760248201527f434c4d383a3a5f747261636b3a20746f6b656e416d6f756e74735b695d20697360448201527f2067726561746572207468616e207768617420697320617661696c61626c652060648201527f746f2074686520747261636b657220636f6e7472616374000000000000000000608482015260a4016109c4565b613c21878381518110613bcf57634e487b7160e01b600052603260045260246000fd5b602002602001015161013460008b8681518110613bfc57634e487b7160e01b600052603260045260246000fd5b6020026020010151815260200190815260200160002054613e2190919063ffffffff16565b61013460008a8581518110613c4657634e487b7160e01b600052603260045260246000fd5b602002602001015181526020019081526020016000208190555060008360010160008a8581518110613c8857634e487b7160e01b600052603260045260246000fd5b60200260200101518152602001908152602001600020549050600061012d60009054906101000a90046001600160a01b03166001600160a01b031663127d5ad08b8681518110613ce857634e487b7160e01b600052603260045260246000fd5b60200260200101516040518263ffffffff1660e01b8152600401613d0e91815260200190565b60206040518083038186803b158015613d2657600080fd5b505afa158015613d3a573d6000803e3d6000fd5b505050506040513d601f19601f82011682018060405250810190613d5e9190615442565b9050613dbe858b8681518110613d8457634e487b7160e01b600052603260045260246000fd5b60200260200101518b8781518110613dac57634e487b7160e01b600052603260045260246000fd5b6020026020010151858560ff1661449e565b5050508080613dcc90615af8565b9150506139b7565b5086546040513391907ff739febd63941a495aedbbe2904daf1f12f653420da0213529a1f3eb6d61c1c490613e10908a908a908a908a90615638565b60405180910390a350505050505050565b60006124968284615a1e565b6000613e3e61013280546001019055565b6000613e4a6101325490565b600081815261012f602052604090209081556001810180546001600160a01b0386166001600160a01b0319909116179055426006820155915050919050565b6001600160a01b038216613edf5760405162461bcd60e51b815260206004820181905260248201527f4552433732313a206d696e7420746f20746865207a65726f206164647265737360448201526064016109c4565b6000818152606760205260409020546001600160a01b031615613f445760405162461bcd60e51b815260206004820152601c60248201527f4552433732313a20746f6b656e20616c7265616479206d696e7465640000000060448201526064016109c4565b6001600160a01b0382166000908152606860205260408120805460019290613f6d908490615a1e565b909155505060008181526067602052604080822080546001600160a01b0319166001600160a01b03861690811790915590518392907fddf252ad1be2c89b69c2b068fc378daa952ba7f163c4a11628f55a4df523b3ef908290a4610ce3565b816001600160a01b0316836001600160a01b0316141561402e5760405162461bcd60e51b815260206004820152601960248201527f4552433732313a20617070726f766520746f2063616c6c65720000000000000060448201526064016109c4565b6001600160a01b038381166000818152606a6020908152604080832094871680845294825291829020805460ff191686151590811790915591519182527f17307eab39ab6107e8899845ad3d59bd9653f200f220920489ca2b5937696c31910160405180910390a3505050565b336000908152610136602090815260408083206001600160a01b038516845290915290205460ff168061415b575061012d546040516349b9055760e01b81523360048201526001600160a01b03909116906349b905579060240160206040518083038186803b15801561410d57600080fd5b505afa158015614121573d6000803e3d6000fd5b505050506040513d601f19601f82011682018060405250810190614145919061511a565b8061415b575061012e546001600160a01b031633145b6132a85760405162461bcd60e51b815260206004820152604560248201527f434c4d383a3a5f697341756469746f723a205f747261636b6565206973206e6f60448201527f7420616e6420617070726f7665642061756469746f72206f662074686520747260648201526461636b656560d81b608482015260a4016109c4565b600081815261012f60205260409020600201546001600160a01b03166132a85760405162461bcd60e51b815260206004820152602a60248201527f434c4d383a3a5f6973417564697465643a20747261636b65724964206973206e6044820152691bdd08185d591a5d195960b21b60648201526084016109c4565b614261848484613102565b61426d84848484614556565b61234b5760405162461bcd60e51b81526004016109c490615724565b6060816142ae57506040805180820190915260018152600360fc1b60208201526108b8565b8160005b81156142d857806142c281615af8565b91506142d19050600a83615a36565b91506142b2565b6000816001600160401b0381111561430057634e487b7160e01b600052604160045260246000fd5b6040519080825280601f01601f19166020018201604052801561432a576020820181803683370190505b5090505b8415610b185761433f600183615a69565b915061434c600a86615b13565b614357906030615a1e565b60f81b81838151811061437a57634e487b7160e01b600052603260045260246000fd5b60200101906001600160f81b031916908160001a90535061439c600a86615a36565b945061432e565b60008060006143b28585614660565b915091506143bf816146d0565b509392505050565b60006001600160e01b03198216637965db0b60e01b14806108b557506108b5826148d3565b6143f68282611de6565b610ce35761440e816001600160a01b03166014614923565b614419836020614923565b60405160200161442a929190615545565b60408051601f198184030181529082905262461bcd60e51b82526109c491600401615671565b600054610100900460ff166144775760405162461bcd60e51b81526004016109c490615815565b815161448a906065906020850190614c2a565b508051610afa906066906020840190614c2a565b80600414156144d85760008481526002860160205260409020546144c29084613e21565b600085815260028701602052604090205561450e565b806002141561450e5760008481526002860160205260409020546144fc9084613497565b60008581526002870160205260409020555b60008481526002860160205260409020541561116157816111615750508254600180820185556000858152602080822090930185905585549481529401905250604090912055565b60006001600160a01b0384163b1561465857604051630a85bd0160e11b81526001600160a01b0385169063150b7a029061459a9033908990889088906004016155ba565b602060405180830381600087803b1580156145b457600080fd5b505af19250505080156145e4575060408051601f3d908101601f191682019092526145e19181019061518c565b60015b61463e573d808015614612576040519150601f19603f3d011682016040523d82523d6000602084013e614617565b606091505b5080516146365760405162461bcd60e51b81526004016109c490615724565b805181602001fd5b6001600160e01b031916630a85bd0160e11b149050610b18565b506001610b18565b6000808251604114156146975760208301516040840151606085015160001a61468b87828585614b04565b945094505050506146c9565b8251604014156146c157602083015160408401516146b6868383614bf1565b9350935050506146c9565b506000905060025b9250929050565b60008160048111156146f257634e487b7160e01b600052602160045260246000fd5b14156146fd576132a8565b600181600481111561471f57634e487b7160e01b600052602160045260246000fd5b141561476d5760405162461bcd60e51b815260206004820152601860248201527f45434453413a20696e76616c6964207369676e6174757265000000000000000060448201526064016109c4565b600281600481111561478f57634e487b7160e01b600052602160045260246000fd5b14156147dd5760405162461bcd60e51b815260206004820152601f60248201527f45434453413a20696e76616c6964207369676e6174757265206c656e6774680060448201526064016109c4565b60038160048111156147ff57634e487b7160e01b600052602160045260246000fd5b14156148585760405162461bcd60e51b815260206004820152602260248201527f45434453413a20696e76616c6964207369676e6174757265202773272076616c604482015261756560f01b60648201526084016109c4565b600481600481111561487a57634e487b7160e01b600052602160045260246000fd5b14156132a85760405162461bcd60e51b815260206004820152602260248201527f45434453413a20696e76616c6964207369676e6174757265202776272076616c604482015261756560f01b60648201526084016109c4565b60006001600160e01b031982166380ac58cd60e01b148061490457506001600160e01b03198216635b5e139f60e01b145b806108b557506301ffc9a760e01b6001600160e01b03198316146108b5565b60606000614932836002615a4a565b61493d906002615a1e565b6001600160401b0381111561496257634e487b7160e01b600052604160045260246000fd5b6040519080825280601f01601f19166020018201604052801561498c576020820181803683370190505b509050600360fc1b816000815181106149b557634e487b7160e01b600052603260045260246000fd5b60200101906001600160f81b031916908160001a905350600f60fb1b816001815181106149f257634e487b7160e01b600052603260045260246000fd5b60200101906001600160f81b031916908160001a9053506000614a16846002615a4a565b614a21906001615a1e565b90505b6001811115614ab5576f181899199a1a9b1b9c1cb0b131b232b360811b85600f1660108110614a6357634e487b7160e01b600052603260045260246000fd5b1a60f81b828281518110614a8757634e487b7160e01b600052603260045260246000fd5b60200101906001600160f81b031916908160001a90535060049490941c93614aae81615aac565b9050614a24565b5083156124965760405162461bcd60e51b815260206004820181905260248201527f537472696e67733a20686578206c656e67746820696e73756666696369656e7460448201526064016109c4565b6000807f7fffffffffffffffffffffffffffffff5d576e7357a4501ddfe92f46681b20a0831115614b3b5750600090506003614be8565b8460ff16601b14158015614b5357508460ff16601c14155b15614b645750600090506004614be8565b6040805160008082526020820180845289905260ff881692820192909252606081018690526080810185905260019060a0016020604051602081039080840390855afa158015614bb8573d6000803e3d6000fd5b5050604051601f1901519150506001600160a01b038116614be157600060019250925050614be8565b9150600090505b94509492505050565b6000806001600160ff1b03831681614c0e60ff86901c601b615a1e565b9050614c1c87828885614b04565b935093505050935093915050565b828054614c3690615ac3565b90600052602060002090601f016020900481019282614c585760008555614c9e565b82601f10614c7157805160ff1916838001178555614c9e565b82800160010185558215614c9e579182015b82811115614c9e578251825591602001919060010190614c83565b50614caa929150614cc8565b5090565b50805460008255906000526020600020908101906132a891905b5b80821115614caa5760008155600101614cc9565b80356001600160a01b03811681146108b857600080fd5b600082601f830112614d04578081fd5b81356020614d19614d14836159fb565b6159cb565b82815281810190858301855b85811015614d4e57614d3c898684358b0101614db8565b84529284019290840190600101614d25565b5090979650505050505050565b600082601f830112614d6b578081fd5b81356020614d7b614d14836159fb565b80838252828201915082860187848660051b8901011115614d9a578586fd5b855b85811015614d4e57813584529284019290840190600101614d9c565b600082601f830112614dc8578081fd5b81356001600160401b03811115614de157614de1615b53565b614df4601f8201601f19166020016159cb565b818152846020838601011115614e08578283fd5b816020850160208301379081016020019190915292915050565b600060208284031215614e33578081fd5b61249682614cdd565b60008060408385031215614e4e578081fd5b614e5783614cdd565b9150614e6560208401614cdd565b90509250929050565b600080600080600060a08688031215614e85578081fd5b614e8e86614cdd565b9450614e9c60208701614cdd565b935060408601356001600160401b0380821115614eb7578283fd5b614ec389838a01614d5b565b94506060880135915080821115614ed8578283fd5b614ee489838a01614d5b565b93506080880135915080821115614ef9578283fd5b50614f0688828901614db8565b9150509295509295909350565b600080600060608486031215614f27578283fd5b614f3084614cdd565b9250614f3e60208501614cdd565b9150604084013590509250925092565b60008060008060808587031215614f63578384fd5b614f6c85614cdd565b9350614f7a60208601614cdd565b92506040850135915060608501356001600160401b03811115614f9b578182fd5b614fa787828801614db8565b91505092959194509250565b600080600080600060a08688031215614fca578081fd5b614fd386614cdd565b9450614fe160208701614cdd565b9350604086013592506060860135915060808601356001600160401b03811115615009578182fd5b614f0688828901614db8565b60008060008060008060c0878903121561502d578384fd5b61503687614cdd565b955060208701356001600160401b0380821115615051578586fd5b61505d8a838b01614d5b565b96506040890135915080821115615072578586fd5b61507e8a838b01614d5b565b9550606089013594506080890135935060a08901359150808211156150a1578283fd5b506150ae89828a01614db8565b9150509295509295509295565b600080604083850312156150cd578182fd5b6150d683614cdd565b915060208301356150e681615b69565b809150509250929050565b60008060408385031215615103578182fd5b61510c83614cdd565b946020939093013593505050565b60006020828403121561512b578081fd5b815161249681615b69565b600060208284031215615147578081fd5b5035919050565b60008060408385031215615160578182fd5b82359150614e6560208401614cdd565b600060208284031215615181578081fd5b813561249681615b77565b60006020828403121561519d578081fd5b815161249681615b77565b60008060008060008060c087890312156151c0578384fd5b8635955060208701356001600160401b03808211156151dd578586fd5b6151e98a838b01614d5b565b965060408901359150808211156151fe578586fd5b61520a8a838b01614d5b565b9550606089013591508082111561521f578384fd5b61522b8a838b01614cf4565b94506080890135915080821115615240578384fd5b61524c8a838b01614cf4565b935060a0890135915080821115615261578283fd5b506150ae89828a01614d5b565b60008060008060008060c08789031215615286578384fd5b8635955060208701356001600160401b0380821115615051578586fd5b600080604083850312156152b5578182fd5b50508035926020909101359150565b600080604083850312156152d6578182fd5b505080516020909101519092909150565b6000806000606084860312156152fb578081fd5b833592506020840135915061531260408501614cdd565b90509250925092565b60008060008060808587031215615330578182fd5b843593506020850135925060408501356001600160401b03811115615353578283fd5b61535f87828801614db8565b949793965093946060013593505050565b600080600080600060a08688031215615387578283fd5b853594506020860135935060408601356001600160401b03808211156153ab578485fd5b6153b789838a01614db8565b9450606088013593506080880135915080821115614ef9578283fd5b600080600080608085870312156153e8578182fd5b84359350602085013592506040850135915061540660608601614cdd565b905092959194509250565b60008060008060808587031215615426578182fd5b5050823594602084013594506040840135936060013592509050565b600060208284031215615453578081fd5b815160ff81168114612496578182fd5b6000815180845260208085019450808401835b8381101561549257815187529582019590820190600101615476565b509495945050505050565b600081518084526154b5816020860160208601615a80565b601f01601f19169290920160200192915050565b60006bffffffffffffffffffffffff198760601b16825285601483015284603483015283516154ff816054850160208801615a80565b605492019182019290925260740195945050505050565b60008351615528818460208801615a80565b83519083019061553c818360208801615a80565b01949350505050565b60007f416363657373436f6e74726f6c3a206163636f756e74200000000000000000008252835161557d816017850160208801615a80565b7001034b99036b4b9b9b4b733903937b6329607d1b60179184019182015283516155ae816028840160208801615a80565b01602801949350505050565b6001600160a01b03858116825284166020820152604081018390526080606082018190526000906155ed9083018461549d565b9695505050505050565b6000602082526124966020830184615463565b60006040825261561d6040830185615463565b828103602084015261562f8185615463565b95945050505050565b60006080825261564b6080830187615463565b828103602084015261565d8187615463565b604084019590955250506060015292915050565b600060208252612496602083018461549d565b600060608252615697606083018661549d565b84602084015282810360408401526155ed818561549d565b6020808252604f908201527f434c4d383a3a70726f64756374735570646174653a2070726f64756374556e6960408201527f74416d6f756e747320616e642070726f6475637449647320617265206e6f742060608201526e0e8d0ca40e6c2daca40d8cadccee8d608b1b608082015260a00190565b60208082526032908201527f4552433732313a207472616e7366657220746f206e6f6e20455243373231526560408201527131b2b4bb32b91034b6b83632b6b2b73a32b960711b606082015260800190565b6020808252602e908201527f496e697469616c697a61626c653a20636f6e747261637420697320616c72656160408201526d191e481a5b9a5d1a585b1a5e995960921b606082015260800190565b60208082526031908201527f4552433732313a207472616e736665722063616c6c6572206973206e6f74206f6040820152701ddb995c881b9bdc88185c1c1c9bdd9959607a1b606082015260800190565b6020808252602b908201527f496e697469616c697a61626c653a20636f6e7472616374206973206e6f74206960408201526a6e697469616c697a696e6760a81b606082015260800190565b6020808252602e908201527f434c4d383a3a6e6f74417564697465643a20747261636b65724964206973206160408201526d1b1c9958591e48185d591a5d195960921b606082015260800190565b6000606082528451606083015260208501516158d560808401826001600160a01b03169052565b5060408501516001600160a01b03811660a084015250606085015160c0830152608085015160e083015260a0850151610100818185015260c08701519150610120828186015260e08801519250806101408601525061593861018085018361549d565b90870151848203605f1901610160860152909150615956828261549d565b91505084602084015282810360408401526155ed8185615463565b600088825260018060a01b038816602083015286604083015285606083015260e060808301526159a460e083018661549d565b82810360a08401526159b6818661549d565b9150508260c083015298975050505050505050565b604051601f8201601f191681016001600160401b03811182821017156159f3576159f3615b53565b604052919050565b60006001600160401b03821115615a1457615a14615b53565b5060051b60200190565b60008219821115615a3157615a31615b27565b500190565b600082615a4557615a45615b3d565b500490565b6000816000190483118215151615615a6457615a64615b27565b500290565b600082821015615a7b57615a7b615b27565b500390565b60005b83811015615a9b578181015183820152602001615a83565b8381111561234b5750506000910152565b600081615abb57615abb615b27565b506000190190565b600181811c90821680615ad757607f821691505b602082108114156118d057634e487b7160e01b600052602260045260246000fd5b6000600019821415615b0c57615b0c615b27565b5060010190565b600082615b2257615b22615b3d565b500690565b634e487b7160e01b600052601160045260246000fd5b634e487b7160e01b600052601260045260246000fd5b634e487b7160e01b600052604160045260246000fd5b80151581146132a857600080fd5b6001600160e01b0319811681146132a857600080fdfe4f9730948b73761de8f37a0aea1760c5eef658d37d8c456767b81e17c01f30eda2646970667358221220c208ccc144624eb03b03b5e577273d079e9378ce0ac51f318e18d1b3a9bece1364736f6c63430008030033",
  "linkReferences": {},
  "deployedLinkReferences": {}
}