{
  "_format": "hh-sol-artifact-1",
  "contractName": "CarbonTracker",
  "sourceName": "solidity/CarbonTracker.sol",
  "abi": [
    {
      "inputs": [
        {
          "internalType": "address",
          "name": "_net",
          "type": "address"
        },
        {
          "internalType": "address",
          "name": "_admin",
          "type": "address"
        }
      ],
      "stateMutability": "nonpayable",
      "type": "constructor"
    },
    {
      "anonymous": false,
      "inputs": [
        {
          "indexed": true,
          "internalType": "address",
          "name": "account",
          "type": "address"
        },
        {
          "indexed": true,
          "internalType": "address",
          "name": "operator",
          "type": "address"
        },
        {
          "indexed": false,
          "internalType": "bool",
          "name": "approved",
          "type": "bool"
        }
      ],
      "name": "ApprovalForAll",
      "type": "event"
    },
    {
      "anonymous": false,
      "inputs": [
        {
          "indexed": true,
          "internalType": "address",
          "name": "receiver",
          "type": "address"
        },
        {
          "indexed": false,
          "internalType": "bool",
          "name": "approve",
          "type": "bool"
        },
        {
          "indexed": false,
          "internalType": "uint256",
          "name": "date",
          "type": "uint256"
        }
      ],
      "name": "ApproveProductTransfer",
      "type": "event"
    },
    {
      "anonymous": false,
      "inputs": [
        {
          "indexed": true,
          "internalType": "uint256",
          "name": "trackerId",
          "type": "uint256"
        },
        {
          "indexed": false,
          "internalType": "uint256[]",
          "name": "productIds",
          "type": "uint256[]"
        },
        {
          "indexed": false,
          "internalType": "uint256[]",
          "name": "productAmounts",
          "type": "uint256[]"
        }
      ],
      "name": "ProductsIssued",
      "type": "event"
    },
    {
      "anonymous": false,
      "inputs": [
        {
          "indexed": true,
          "internalType": "bytes32",
          "name": "role",
          "type": "bytes32"
        },
        {
          "indexed": true,
          "internalType": "bytes32",
          "name": "previousAdminRole",
          "type": "bytes32"
        },
        {
          "indexed": true,
          "internalType": "bytes32",
          "name": "newAdminRole",
          "type": "bytes32"
        }
      ],
      "name": "RoleAdminChanged",
      "type": "event"
    },
    {
      "anonymous": false,
      "inputs": [
        {
          "indexed": true,
          "internalType": "bytes32",
          "name": "role",
          "type": "bytes32"
        },
        {
          "indexed": true,
          "internalType": "address",
          "name": "account",
          "type": "address"
        },
        {
          "indexed": true,
          "internalType": "address",
          "name": "sender",
          "type": "address"
        }
      ],
      "name": "RoleGranted",
      "type": "event"
    },
    {
      "anonymous": false,
      "inputs": [
        {
          "indexed": true,
          "internalType": "bytes32",
          "name": "role",
          "type": "bytes32"
        },
        {
          "indexed": true,
          "internalType": "address",
          "name": "account",
          "type": "address"
        },
        {
          "indexed": true,
          "internalType": "address",
          "name": "sender",
          "type": "address"
        }
      ],
      "name": "RoleRevoked",
      "type": "event"
    },
    {
      "anonymous": false,
      "inputs": [
        {
          "indexed": true,
          "internalType": "uint256",
          "name": "trackerId",
          "type": "uint256"
        },
        {
          "indexed": true,
          "internalType": "address",
          "name": "operator",
          "type": "address"
        },
        {
          "indexed": false,
          "internalType": "uint256",
          "name": "productId",
          "type": "uint256"
        },
        {
          "indexed": false,
          "internalType": "uint256",
          "name": "productAmount",
          "type": "uint256"
        }
      ],
      "name": "TrackProduct",
      "type": "event"
    },
    {
      "anonymous": false,
      "inputs": [
        {
          "indexed": true,
          "internalType": "uint256",
          "name": "trackerId",
          "type": "uint256"
        },
        {
          "indexed": true,
          "internalType": "address",
          "name": "operator",
          "type": "address"
        },
        {
          "indexed": false,
          "internalType": "uint256[]",
          "name": "tokenIds",
          "type": "uint256[]"
        },
        {
          "indexed": false,
          "internalType": "uint256[]",
          "name": "tokenAmounts",
          "type": "uint256[]"
        }
      ],
      "name": "TrackTokens",
      "type": "event"
    },
    {
      "anonymous": false,
      "inputs": [
        {
          "indexed": true,
          "internalType": "address",
          "name": "operator",
          "type": "address"
        },
        {
          "indexed": true,
          "internalType": "address",
          "name": "from",
          "type": "address"
        },
        {
          "indexed": true,
          "internalType": "address",
          "name": "to",
          "type": "address"
        },
        {
          "indexed": false,
          "internalType": "uint256[]",
          "name": "ids",
          "type": "uint256[]"
        },
        {
          "indexed": false,
          "internalType": "uint256[]",
          "name": "values",
          "type": "uint256[]"
        }
      ],
      "name": "TransferBatch",
      "type": "event"
    },
    {
      "anonymous": false,
      "inputs": [
        {
          "indexed": true,
          "internalType": "address",
          "name": "sender",
          "type": "address"
        },
        {
          "indexed": false,
          "internalType": "uint256[]",
          "name": "productIds",
          "type": "uint256[]"
        },
        {
          "indexed": false,
          "internalType": "uint256[]",
          "name": "productAmounts",
          "type": "uint256[]"
        }
      ],
      "name": "TransferProducts",
      "type": "event"
    },
    {
      "anonymous": false,
      "inputs": [
        {
          "indexed": true,
          "internalType": "address",
          "name": "operator",
          "type": "address"
        },
        {
          "indexed": true,
          "internalType": "address",
          "name": "from",
          "type": "address"
        },
        {
          "indexed": true,
          "internalType": "address",
          "name": "to",
          "type": "address"
        },
        {
          "indexed": false,
          "internalType": "uint256",
          "name": "id",
          "type": "uint256"
        },
        {
          "indexed": false,
          "internalType": "uint256",
          "name": "value",
          "type": "uint256"
        }
      ],
      "name": "TransferSingle",
      "type": "event"
    },
    {
      "anonymous": false,
      "inputs": [
        {
          "indexed": false,
          "internalType": "string",
          "name": "value",
          "type": "string"
        },
        {
          "indexed": true,
          "internalType": "uint256",
          "name": "id",
          "type": "uint256"
        }
      ],
      "name": "URI",
      "type": "event"
    },
    {
      "anonymous": false,
      "inputs": [
        {
          "indexed": true,
          "internalType": "address",
          "name": "auditor",
          "type": "address"
        },
        {
          "indexed": true,
          "internalType": "address",
          "name": "trackee",
          "type": "address"
        },
        {
          "indexed": false,
          "internalType": "bool",
          "name": "approve",
          "type": "bool"
        },
        {
          "indexed": false,
          "internalType": "uint256",
          "name": "date",
          "type": "uint256"
        }
      ],
      "name": "VerifierApproval",
      "type": "event"
    },
    {
      "inputs": [],
      "name": "DEFAULT_ADMIN_ROLE",
      "outputs": [
        {
          "internalType": "bytes32",
          "name": "",
          "type": "bytes32"
        }
      ],
      "stateMutability": "view",
      "type": "function"
    },
    {
      "inputs": [
        {
          "internalType": "uint256",
          "name": "",
          "type": "uint256"
        }
      ],
      "name": "_productData",
      "outputs": [
        {
          "internalType": "uint256",
          "name": "tokenId",
          "type": "uint256"
        },
        {
          "internalType": "uint256",
          "name": "productId",
          "type": "uint256"
        },
        {
          "internalType": "uint256",
          "name": "trackerId",
          "type": "uint256"
        },
        {
          "internalType": "uint256",
          "name": "issued",
          "type": "uint256"
        },
        {
          "internalType": "uint256",
          "name": "available",
          "type": "uint256"
        }
      ],
      "stateMutability": "view",
      "type": "function"
    },
    {
      "inputs": [
        {
          "internalType": "uint256",
          "name": "",
          "type": "uint256"
        }
      ],
      "name": "_tokenDetails",
      "outputs": [
        {
          "internalType": "uint256",
          "name": "tokenId",
          "type": "uint256"
        },
        {
          "internalType": "uint8",
          "name": "tokenTypeId",
          "type": "uint8"
        },
        {
          "internalType": "uint256",
          "name": "sourceId",
          "type": "uint256"
        },
        {
          "internalType": "address",
          "name": "issuedBy",
          "type": "address"
        },
        {
          "internalType": "address",
          "name": "issuedFrom",
          "type": "address"
        },
        {
          "internalType": "string",
          "name": "metadata",
          "type": "string"
        },
        {
          "internalType": "string",
          "name": "manifest",
          "type": "string"
        }
      ],
      "stateMutability": "view",
      "type": "function"
    },
    {
      "inputs": [
        {
          "internalType": "address",
          "name": "",
          "type": "address"
        }
      ],
      "name": "approveProductTransfer",
      "outputs": [
        {
          "internalType": "bool",
          "name": "",
          "type": "bool"
        }
      ],
      "stateMutability": "view",
      "type": "function"
    },
    {
      "inputs": [
        {
          "internalType": "address",
          "name": "verifier",
          "type": "address"
        },
        {
          "internalType": "bool",
          "name": "approve",
          "type": "bool"
        }
      ],
      "name": "approveVerifier",
      "outputs": [],
      "stateMutability": "nonpayable",
      "type": "function"
    },
    {
      "inputs": [
        {
          "internalType": "address",
          "name": "account",
          "type": "address"
        },
        {
          "internalType": "uint256",
          "name": "id",
          "type": "uint256"
        }
      ],
      "name": "balanceOf",
      "outputs": [
        {
          "internalType": "uint256",
          "name": "",
          "type": "uint256"
        }
      ],
      "stateMutability": "view",
      "type": "function"
    },
    {
      "inputs": [
        {
          "internalType": "address[]",
          "name": "accounts",
          "type": "address[]"
        },
        {
          "internalType": "uint256[]",
          "name": "ids",
          "type": "uint256[]"
        }
      ],
      "name": "balanceOfBatch",
      "outputs": [
        {
          "internalType": "uint256[]",
          "name": "",
          "type": "uint256[]"
        }
      ],
      "stateMutability": "view",
      "type": "function"
    },
    {
      "inputs": [],
      "name": "decimalsCt",
      "outputs": [
        {
          "internalType": "uint256",
          "name": "",
          "type": "uint256"
        }
      ],
      "stateMutability": "view",
      "type": "function"
    },
    {
      "inputs": [],
      "name": "getNumOfUniqueProducts",
      "outputs": [
        {
          "internalType": "uint256",
          "name": "",
          "type": "uint256"
        }
      ],
      "stateMutability": "view",
      "type": "function"
    },
    {
      "inputs": [],
      "name": "getNumOfUniqueTokens",
      "outputs": [
        {
          "internalType": "uint256",
          "name": "",
          "type": "uint256"
        }
      ],
      "stateMutability": "view",
      "type": "function"
    },
    {
      "inputs": [],
      "name": "getNumOfUniqueTrackers",
      "outputs": [
        {
          "internalType": "uint256",
          "name": "",
          "type": "uint256"
        }
      ],
      "stateMutability": "view",
      "type": "function"
    },
    {
      "inputs": [
        {
          "internalType": "bytes32",
          "name": "role",
          "type": "bytes32"
        }
      ],
      "name": "getRoleAdmin",
      "outputs": [
        {
          "internalType": "bytes32",
          "name": "",
          "type": "bytes32"
        }
      ],
      "stateMutability": "view",
      "type": "function"
    },
    {
      "inputs": [
        {
          "internalType": "uint256",
          "name": "trackerId",
          "type": "uint256"
        }
      ],
      "name": "getTrackerDetails",
      "outputs": [
        {
          "components": [
            {
              "internalType": "uint256",
              "name": "tokenId",
              "type": "uint256"
            },
            {
              "internalType": "uint256",
              "name": "trackerId",
              "type": "uint256"
            },
            {
              "internalType": "address",
              "name": "trackee",
              "type": "address"
            },
            {
              "internalType": "uint256",
              "name": "totalProductAmounts",
              "type": "uint256"
            }
          ],
          "internalType": "struct Tracker.CarbonTrackerDetails",
          "name": "",
          "type": "tuple"
        },
        {
          "internalType": "uint256[]",
          "name": "",
          "type": "uint256[]"
        },
        {
          "internalType": "uint256[]",
          "name": "",
          "type": "uint256[]"
        },
        {
          "internalType": "uint256[]",
          "name": "",
          "type": "uint256[]"
        },
        {
          "internalType": "uint256[]",
          "name": "",
          "type": "uint256[]"
        },
        {
          "components": [
            {
              "internalType": "uint256",
              "name": "rec",
              "type": "uint256"
            },
            {
              "internalType": "uint256",
              "name": "offsets",
              "type": "uint256"
            },
            {
              "internalType": "uint256",
              "name": "emissions",
              "type": "uint256"
            }
          ],
          "internalType": "struct CarbonTracker.NetTotals",
          "name": "",
          "type": "tuple"
        }
      ],
      "stateMutability": "view",
      "type": "function"
    },
    {
      "inputs": [
        {
          "internalType": "address",
          "name": "_from",
          "type": "address"
        },
        {
          "internalType": "address",
          "name": "_to",
          "type": "address"
        },
        {
          "internalType": "uint256[]",
          "name": "_ids",
          "type": "uint256[]"
        },
        {
          "internalType": "uint256[]",
          "name": "_amounts",
          "type": "uint256[]"
        }
      ],
      "name": "getTransferHash",
      "outputs": [
        {
          "internalType": "bytes32",
          "name": "",
          "type": "bytes32"
        }
      ],
      "stateMutability": "view",
      "type": "function"
    },
    {
      "inputs": [
        {
          "internalType": "bytes32",
          "name": "role",
          "type": "bytes32"
        },
        {
          "internalType": "address",
          "name": "account",
          "type": "address"
        }
      ],
      "name": "grantRole",
      "outputs": [],
      "stateMutability": "nonpayable",
      "type": "function"
    },
    {
      "inputs": [
        {
          "internalType": "bytes32",
          "name": "role",
          "type": "bytes32"
        },
        {
          "internalType": "address",
          "name": "account",
          "type": "address"
        }
      ],
      "name": "hasRole",
      "outputs": [
        {
          "internalType": "bool",
          "name": "",
          "type": "bool"
        }
      ],
      "stateMutability": "view",
      "type": "function"
    },
    {
      "inputs": [
        {
          "internalType": "address",
          "name": "account",
          "type": "address"
        },
        {
          "internalType": "address",
          "name": "operator",
          "type": "address"
        }
      ],
      "name": "isApprovedForAll",
      "outputs": [
        {
          "internalType": "bool",
          "name": "",
          "type": "bool"
        }
      ],
      "stateMutability": "view",
      "type": "function"
    },
    {
      "inputs": [
        {
          "internalType": "uint256",
          "name": "trackerId",
          "type": "uint256"
        }
      ],
      "name": "issue",
      "outputs": [],
      "stateMutability": "nonpayable",
      "type": "function"
    },
    {
      "inputs": [
        {
          "internalType": "uint256",
          "name": "trackerId",
          "type": "uint256"
        },
        {
          "internalType": "uint256[]",
          "name": "productIds",
          "type": "uint256[]"
        },
        {
          "internalType": "uint256[]",
          "name": "productAmounts",
          "type": "uint256[]"
        },
        {
          "internalType": "string[]",
          "name": "metadata",
          "type": "string[]"
        },
        {
          "internalType": "string[]",
          "name": "manifests",
          "type": "string[]"
        }
      ],
      "name": "issueProducts",
      "outputs": [],
      "stateMutability": "nonpayable",
      "type": "function"
    },
    {
      "inputs": [],
      "name": "net",
      "outputs": [
        {
          "internalType": "contract NetEmissionsTokenNetwork",
          "name": "",
          "type": "address"
        }
      ],
      "stateMutability": "view",
      "type": "function"
    },
    {
      "inputs": [],
      "name": "netAddress",
      "outputs": [
        {
          "internalType": "address",
          "name": "",
          "type": "address"
        }
      ],
      "stateMutability": "view",
      "type": "function"
    },
    {
      "inputs": [
        {
          "internalType": "address",
          "name": "",
          "type": "address"
        },
        {
          "internalType": "address",
          "name": "",
          "type": "address"
        },
        {
          "internalType": "uint256[]",
          "name": "",
          "type": "uint256[]"
        },
        {
          "internalType": "uint256[]",
          "name": "",
          "type": "uint256[]"
        },
        {
          "internalType": "bytes",
          "name": "",
          "type": "bytes"
        }
      ],
      "name": "onERC1155BatchReceived",
      "outputs": [
        {
          "internalType": "bytes4",
          "name": "",
          "type": "bytes4"
        }
      ],
      "stateMutability": "nonpayable",
      "type": "function"
    },
    {
      "inputs": [
        {
          "internalType": "address",
          "name": "",
          "type": "address"
        },
        {
          "internalType": "address",
          "name": "",
          "type": "address"
        },
        {
          "internalType": "uint256",
          "name": "",
          "type": "uint256"
        },
        {
          "internalType": "uint256",
          "name": "",
          "type": "uint256"
        },
        {
          "internalType": "bytes",
          "name": "",
          "type": "bytes"
        }
      ],
      "name": "onERC1155Received",
      "outputs": [
        {
          "internalType": "bytes4",
          "name": "",
          "type": "bytes4"
        }
      ],
      "stateMutability": "nonpayable",
      "type": "function"
    },
    {
      "inputs": [
        {
          "internalType": "bytes32",
          "name": "role",
          "type": "bytes32"
        },
        {
          "internalType": "address",
          "name": "account",
          "type": "address"
        }
      ],
      "name": "renounceRole",
      "outputs": [],
      "stateMutability": "nonpayable",
      "type": "function"
    },
    {
      "inputs": [
        {
          "internalType": "bytes32",
          "name": "role",
          "type": "bytes32"
        },
        {
          "internalType": "address",
          "name": "account",
          "type": "address"
        }
      ],
      "name": "revokeRole",
      "outputs": [],
      "stateMutability": "nonpayable",
      "type": "function"
    },
    {
      "inputs": [
        {
          "internalType": "address",
          "name": "from",
          "type": "address"
        },
        {
          "internalType": "address",
          "name": "to",
          "type": "address"
        },
        {
          "internalType": "uint256[]",
          "name": "ids",
          "type": "uint256[]"
        },
        {
          "internalType": "uint256[]",
          "name": "amounts",
          "type": "uint256[]"
        },
        {
          "internalType": "bytes",
          "name": "data",
          "type": "bytes"
        }
      ],
      "name": "safeBatchTransferFrom",
      "outputs": [],
      "stateMutability": "nonpayable",
      "type": "function"
    },
    {
      "inputs": [
        {
          "internalType": "address",
          "name": "from",
          "type": "address"
        },
        {
          "internalType": "address",
          "name": "to",
          "type": "address"
        },
        {
          "internalType": "uint256",
          "name": "id",
          "type": "uint256"
        },
        {
          "internalType": "uint256",
          "name": "amount",
          "type": "uint256"
        },
        {
          "internalType": "bytes",
          "name": "data",
          "type": "bytes"
        }
      ],
      "name": "safeTransferFrom",
      "outputs": [],
      "stateMutability": "nonpayable",
      "type": "function"
    },
    {
      "inputs": [
        {
          "internalType": "address",
          "name": "operator",
          "type": "address"
        },
        {
          "internalType": "bool",
          "name": "approved",
          "type": "bool"
        }
      ],
      "name": "setApprovalForAll",
      "outputs": [],
      "stateMutability": "nonpayable",
      "type": "function"
    },
    {
      "inputs": [
        {
          "internalType": "bool",
          "name": "approve",
          "type": "bool"
        }
      ],
      "name": "setApproveProductTransfer",
      "outputs": [],
      "stateMutability": "nonpayable",
      "type": "function"
    },
    {
      "inputs": [
        {
          "internalType": "bool",
          "name": "approve",
          "type": "bool"
        }
      ],
      "name": "setApprovedAuditorsOnly",
      "outputs": [],
      "stateMutability": "nonpayable",
      "type": "function"
    },
    {
      "inputs": [
        {
          "internalType": "bytes4",
          "name": "interfaceId",
          "type": "bytes4"
        }
      ],
      "name": "supportsInterface",
      "outputs": [
        {
          "internalType": "bool",
          "name": "",
          "type": "bool"
        }
      ],
      "stateMutability": "view",
      "type": "function"
    },
    {
      "inputs": [
        {
          "internalType": "address",
          "name": "trackee",
          "type": "address"
        },
        {
          "internalType": "uint256[]",
          "name": "netIds",
          "type": "uint256[]"
        },
        {
          "internalType": "uint256[]",
          "name": "netAmounts",
          "type": "uint256[]"
        },
        {
          "internalType": "string",
          "name": "metadata",
          "type": "string"
        },
        {
          "internalType": "string",
          "name": "manifest",
          "type": "string"
        }
      ],
      "name": "track",
      "outputs": [],
      "stateMutability": "nonpayable",
      "type": "function"
    },
    {
      "inputs": [
        {
          "internalType": "address",
          "name": "from",
          "type": "address"
        },
        {
          "internalType": "uint256",
          "name": "trackerId",
          "type": "uint256"
        },
        {
          "internalType": "uint256",
          "name": "productId",
          "type": "uint256"
        },
        {
          "internalType": "uint256",
          "name": "productAmount",
          "type": "uint256"
        }
      ],
      "name": "trackProduct",
      "outputs": [],
      "stateMutability": "nonpayable",
      "type": "function"
    },
    {
      "inputs": [
        {
          "internalType": "uint256",
          "name": "trackerId",
          "type": "uint256"
        },
        {
          "internalType": "uint256[]",
          "name": "netIds",
          "type": "uint256[]"
        },
        {
          "internalType": "uint256[]",
          "name": "netAmounts",
          "type": "uint256[]"
        },
        {
          "internalType": "string",
          "name": "metadata",
          "type": "string"
        },
        {
          "internalType": "string",
          "name": "manifest",
          "type": "string"
        }
      ],
      "name": "trackUpdate",
      "outputs": [],
      "stateMutability": "nonpayable",
      "type": "function"
    },
    {
      "inputs": [
        {
          "internalType": "address",
          "name": "to",
          "type": "address"
        },
        {
          "internalType": "uint256[]",
          "name": "productIds",
          "type": "uint256[]"
        },
        {
          "internalType": "uint256[]",
          "name": "amounts",
          "type": "uint256[]"
        },
        {
          "internalType": "bytes",
          "name": "data",
          "type": "bytes"
        }
      ],
      "name": "transferProducts",
      "outputs": [],
      "stateMutability": "nonpayable",
      "type": "function"
    },
    {
      "inputs": [
        {
          "internalType": "uint256",
          "name": "",
          "type": "uint256"
        }
      ],
      "name": "uri",
      "outputs": [
        {
          "internalType": "string",
          "name": "",
          "type": "string"
        }
      ],
      "stateMutability": "view",
      "type": "function"
    }
  ],
  "bytecode": "0x60806040523480156200001157600080fd5b50604051620062943803806200629483398101604081905262000034916200021f565b6040805160208101909152600081526200004e8162000096565b50600580546001600160a01b0384166001600160a01b03199182168117909255600480549091169091179055620f42406012556200008e600082620000af565b505062000293565b8051620000ab9060029060208401906200015c565b5050565b60008281526003602090815260408083206001600160a01b0385168452909152902054620000ab908390839060ff16620000ab5760008281526003602090815260408083206001600160a01b03851684529091529020805460ff19166001179055620001183390565b6001600160a01b0316816001600160a01b0316837f2f8788117e7eff1d82e926ec794901d17c78024a50270940304540a733656f0d60405160405180910390a45050565b8280546200016a9062000256565b90600052602060002090601f0160209004810192826200018e5760008555620001d9565b82601f10620001a957805160ff1916838001178555620001d9565b82800160010185558215620001d9579182015b82811115620001d9578251825591602001919060010190620001bc565b50620001e7929150620001eb565b5090565b5b80821115620001e75760008155600101620001ec565b80516001600160a01b03811681146200021a57600080fd5b919050565b6000806040838503121562000232578182fd5b6200023d8362000202565b91506200024d6020840162000202565b90509250929050565b600181811c908216806200026b57607f821691505b602082108114156200028d57634e487b7160e01b600052602260045260246000fd5b50919050565b615ff180620002a36000396000f3fe608060405234801561001057600080fd5b506004361061021b5760003560e01c806385f7229a11610125578063c2fff4a5116100ad578063e8632d961161007c578063e8632d9614610554578063e985e9c51461055d578063f01b4be214610599578063f23a6e61146105ac578063f242432a146105cb5761021b565b8063c2fff4a5146104f0578063cc872b661461051b578063d547741f1461052e578063e54a9646146105415761021b565b8063a22cb465116100f4578063a22cb46514610477578063a7a60de51461048a578063a7d6619d14610492578063b78bcc3b146104a5578063bc197c81146104b85761021b565b806385f7229a146104115780638a59a9351461043757806391d148541461045c578063a217fddf1461046f5761021b565b80633abb340f116101a85780634e1273f4116101775780634e1273f4146103bb5780635ddb368f146103db5780637aab1b88146103e35780637c7768d6146103f657806382fddc7d146103fe5761021b565b80633abb340f1461031d5780633c81346f1461038257806345babab3146103955780634bf83fa9146103a85761021b565b8063248a9ca3116101ef578063248a9ca31461029e5780632eb2c2d6146102c15780632f2ff15d146102d457806332add611146102e757806336568abe1461030a5761021b565b8062fdd58e1461022057806301ffc9a7146102465780630e89341c14610269578063135f044814610289575b600080fd5b61023361022e3660046153de565b6105de565b6040519081526020015b60405180910390f35b61025961025436600461557b565b610674565b604051901515815260200161023d565b61027c610277366004615541565b6106a1565b60405161023d91906158dc565b61029c6102973660046155b3565b610735565b005b6102336102ac366004615541565b60009081526003602052604090206001015490565b61029c6102cf366004615190565b61126e565b61029c6102e2366004615559565b6112ba565b6102596102f53660046150c3565b60116020526000908152604090205460ff1681565b61029c610318366004615559565b6112e4565b61035a61032b366004615541565b600960205260009081526040902080546001820154600283015460038401546004909401549293919290919085565b604080519586526020860194909452928401919091526060830152608082015260a00161023d565b61029c610390366004615657565b611362565b61029c6103a3366004615407565b611443565b61029c6103b6366004615509565b611950565b6103ce6103c936600461543f565b611a4e565b60405161023d91906158a4565b610233611baf565b6102336103f136600461510f565b611bc0565b610233611c0b565b61029c61040c366004615297565b611c16565b61042461041f366004615541565b611f5e565b60405161023d9796959493929190615cbb565b61044a610445366004615541565b6120bd565b60405161023d96959493929190615c12565b61025961046a366004615559565b61244b565b610233600081565b61029c6104853660046153a8565b612476565b610233612481565b61029c6104a03660046153a8565b61248c565b61029c6104b3366004615509565b612715565b6104d76104c6366004615190565b63bc197c8160e01b95945050505050565b6040516001600160e01b0319909116815260200161023d565b600554610503906001600160a01b031681565b6040516001600160a01b03909116815260200161023d565b61029c610529366004615541565b6127ce565b61029c61053c366004615559565b612914565b600454610503906001600160a01b031681565b61023360125481565b61025961056b3660046150dd565b6001600160a01b03918216600090815260016020908152604080832093909416825291909152205460ff1690565b61029c6105a736600461531f565b612939565b6104d76105ba366004615235565b63f23a6e6160e01b95945050505050565b61029c6105d9366004615235565b612aab565b60006001600160a01b03831661064e5760405162461bcd60e51b815260206004820152602a60248201527f455243313135353a2061646472657373207a65726f206973206e6f742061207660448201526930b634b21037bbb732b960b11b60648201526084015b60405180910390fd5b506000908152602081815260408083206001600160a01b03949094168352929052205490565b60006001600160e01b03198216637965db0b60e01b1480610699575061069982612af0565b90505b919050565b6060600280546106b090615e1d565b80601f01602080910402602001604051908101604052809291908181526020018280546106dc90615e1d565b80156107295780601f106106fe57610100808354040283529160200191610729565b820191906000526020600020905b81548152906001019060200180831161070c57829003601f168201915b50505050509050919050565b600085815260076020526040902054859061074f90612b15565b600081815260076020908152604080832054835260069091529020600301546001600160a01b0316156107945760405162461bcd60e51b815260040161064590615bc0565b60008681526007602052604090206002015486906107ba906001600160a01b0316612b86565b6107d65760405162461bcd60e51b815260040161064590615b51565b6000818152600760205260409020600201546001600160a01b03163314156108105760405162461bcd60e51b815260040161064590615ae8565b600087815260076020526040902086518651146108af5760405162461bcd60e51b815260206004820152605160248201527f434c4d383a3a697373756550726f64756374733a2070726f647563744964732060448201527f616e642070726f64756374416d6f756e74732061727261797320617265206e6f6064820152700e840e8d0ca40e6c2daca40d8cadccee8d607b1b608482015260a401610645565b845186511461093a5760405162461bcd60e51b815260206004820152604b60248201527f434c4d383a3a697373756550726f64756374733a2070726f647563744964732060448201527f616e64206d657461646174612061727261797320617265206e6f74207468652060648201526a0e6c2daca40d8cadccee8d60ab1b608482015260a401610645565b83518651146109c55760405162461bcd60e51b815260206004820152604b60248201527f434c4d383a3a697373756550726f64756374733a2070726f647563744964732060448201527f616e64206d616e69666573742061727261797320617265206e6f74207468652060648201526a0e6c2daca40d8cadccee8d60ab1b608482015260a401610645565b60005b8651811015611229578781815181106109f157634e487b7160e01b600052603260045260246000fd5b602002602001015160001415610bdf57610a0f600c80546001019055565b600c54888281518110610a3257634e487b7160e01b600052603260045260246000fd5b602002602001018181525050610aeb33333060028b8681518110610a6657634e487b7160e01b600052603260045260246000fd5b60200260200101518d8781518110610a8e57634e487b7160e01b600052603260045260246000fd5b60200260200101518c8881518110610ab657634e487b7160e01b600052603260045260246000fd5b60200260200101518c8981518110610ade57634e487b7160e01b600052603260045260246000fd5b6020026020010151612c8f565b600a54600960008a8481518110610b1257634e487b7160e01b600052603260045260246000fd5b6020026020010151815260200190815260200160002060000181905550878181518110610b4f57634e487b7160e01b600052603260045260246000fd5b6020026020010151600960008a8481518110610b7b57634e487b7160e01b600052603260045260246000fd5b602002602001015181526020019081526020016000206001018190555088600960008a8481518110610bbd57634e487b7160e01b600052603260045260246000fd5b6020026020010151815260200190815260200160002060020181905550611102565b610c25600960008a8481518110610c0657634e487b7160e01b600052603260045260246000fd5b6020026020010151815260200190815260200160002060000154612b15565b336001600160a01b031660066000600960008c8681518110610c5757634e487b7160e01b600052603260045260246000fd5b6020026020010151815260200190815260200160002060000154815260200190815260200160002060030160009054906101000a90046001600160a01b03166001600160a01b031614610d275760405162461bcd60e51b815260206004820152604c60248201527f434c4d383a3a697373756550726f64756374733a206d73672e73656e6465722060448201527f617474656d707420746f206d6f646966792070726f647563744964206974206460648201526b6964206e6f7420697373756560a01b608482015260a401610645565b60096000898381518110610d4b57634e487b7160e01b600052603260045260246000fd5b6020026020010151815260200190815260200160002060030154878281518110610d8557634e487b7160e01b600052603260045260246000fd5b60200260200101511115610e6657610e6130600960008b8581518110610dbb57634e487b7160e01b600052603260045260246000fd5b6020026020010151815260200190815260200160002060000154610e4c600960008d8781518110610dfc57634e487b7160e01b600052603260045260246000fd5b60200260200101518152602001908152602001600020600301548b8681518110610e3657634e487b7160e01b600052603260045260246000fd5b6020026020010151612d7990919063ffffffff16565b60405180602001604052806000815250612d8c565b610f24565b610f2430600960008b8581518110610e8e57634e487b7160e01b600052603260045260246000fd5b6020026020010151815260200190815260200160002060000154610f1f8a8581518110610ecb57634e487b7160e01b600052603260045260246000fd5b6020026020010151600960008e8881518110610ef757634e487b7160e01b600052603260045260246000fd5b6020026020010151815260200190815260200160002060030154612d7990919063ffffffff16565b612ea6565b610f78600960008a8481518110610f4b57634e487b7160e01b600052603260045260246000fd5b60200260200101518152602001908152602001600020600301548360030154612d7990919063ffffffff16565b82600301819055506000868281518110610fa257634e487b7160e01b600052603260045260246000fd5b602002602001015151111561104157858181518110610fd157634e487b7160e01b600052603260045260246000fd5b602002602001015160066000600960008c868151811061100157634e487b7160e01b600052603260045260246000fd5b60200260200101518152602001908152602001600020600001548152602001908152602001600020600501908051906020019061103f929190614ed1565b505b600085828151811061106357634e487b7160e01b600052603260045260246000fd5b60200260200101515111156111025784818151811061109257634e487b7160e01b600052603260045260246000fd5b602002602001015160066000600960008c86815181106110c257634e487b7160e01b600052603260045260246000fd5b602002602001015181526020019081526020016000206000015481526020019081526020016000206006019080519060200190611100929190614ed1565b505b86818151811061112257634e487b7160e01b600052603260045260246000fd5b6020026020010151600960008a848151811061114e57634e487b7160e01b600052603260045260246000fd5b602002602001015181526020019081526020016000206003018190555086818151811061118b57634e487b7160e01b600052603260045260246000fd5b6020026020010151600960008a84815181106111b757634e487b7160e01b600052603260045260246000fd5b60200260200101518152602001908152602001600020600401819055506112128782815181106111f757634e487b7160e01b600052603260045260246000fd5b6020026020010151836003015461303690919063ffffffff16565b60038301558061122181615e84565b9150506109c8565b50877f93b9122ef7882b485a2c2238944c65535cca3dbc1b6cbeaa57ab337ca8d02af6888860405161125c9291906158b7565b60405180910390a25050505050505050565b6001600160a01b03851633148061128a575061128a853361056b565b6112a65760405162461bcd60e51b8152600401610645906158ef565b6112b38585858585613042565b5050505050565b6000828152600360205260409020600101546112d581613241565b6112df838361324b565b505050565b6001600160a01b03811633146113545760405162461bcd60e51b815260206004820152602f60248201527f416363657373436f6e74726f6c3a2063616e206f6e6c792072656e6f756e636560448201526e103937b632b9903337b91039b2b63360891b6064820152608401610645565b61135e82826132d1565b5050565b600085815260076020526040902054859061137c90612b15565b600081815260076020908152604080832054835260069091529020600301546001600160a01b0316156113c15760405162461bcd60e51b815260040161064590615bc0565b8251156113f95760008681526007602090815260408083205483526006825290912084516113f792600590920191860190614ed1565b505b81511561143057600086815260076020908152604080832054835260068083529220845161142e939190910191850190614ed1565b505b61143b868686613338565b505050505050565b600083815260076020526040902054839061145d90612b15565b600081815260076020908152604080832054835260069091529020600301546001600160a01b0316156114a25760405162461bcd60e51b815260040161064590615bc0565b60008481526007602052604090206002015484906114c8906001600160a01b0316612b86565b806114ec57506000818152600760205260409020600201546001600160a01b031633145b6115925760405162461bcd60e51b8152602060048201526064602482018190527f434c4d383a3a5f697341756469746f724f72547261636b65653a206d73672e7360448301527f656e646572206973206e6f74207468652061756469746f72206f72206973206e908201527f6f74207468652061737369676e656420747261636b6565206f6620747261636b608482015263195c925960e21b60a482015260c401610645565b60008481526009602052604090206002015485141561162e5760405162461bcd60e51b815260206004820152604c60248201527f434c4d383a3a747261636b50726f647563743a2070726f64756374277320747260448201527f61636b657249642063616e206e6f74206265207468652073616d65206173207460648201526b1a19481d1c9858dad95c925960a21b608482015260a401610645565b600085815260086020908152604080832087845260050190915281205490818511156118a65761165e8583612d79565b6001600160a01b038916600090815260016020908152604080832033845290915290205490915060ff1661169189612b86565b801561169b575080155b156116ac576116ac89336001613985565b600087815260096020908152604080832060020154835260079091529020546116d6908a906105de565b6001141561184a576000878152600960205260408120546116f8908b906105de565b9050828110611738576117338a30600960008c8152602001908152602001600020600001548660405180602001604052806000815250612aab565b611844565b61176a8a30600960008c8152602001908152602001600020600001548460405180602001604052806000815250612aab565b6117748382612d79565b6040805160018082528183019092529194506000919060208083019080368337505060408051600180825281830190925292935060009291506020808301908036833701905050905089826000815181106117df57634e487b7160e01b600052603260045260246000fd5b602002602001018181525050888160008151811061180d57634e487b7160e01b600052603260045260246000fd5b602002602001018181525050611841308383604051806040016040528060048152602001630307830360e41b815250611c16565b50505b5061187c565b61187c8930600960008b8152602001908152602001600020600001548560405180602001604052806000815250612aab565b61188589612b86565b801561188f575080155b156118a0576118a089336000613985565b506118e4565b6118b08286612d79565b90506118e43089600960008a8152602001908152602001600020600001548460405180602001604052806000815250612aab565b60008781526008602052604090206119088787600384016004850160058601613a5e565b604080518881526020810188905233918a917ff21a179635f2ef642e73c6b4b5223ded8a4c2ee77963b0a1466bbc8d82283a1b910160405180910390a3505050505050505050565b3380156119f05760055460405163fc0bbce360e01b81526001600160a01b0383811660048301529091169063fc0bbce39060240160206040518083038186803b15801561199c57600080fd5b505afa1580156119b0573d6000803e3d6000fd5b505050506040513d601f19601f820116820180604052508101906119d49190615525565b6119f05760405162461bcd60e51b815260040161064590615a28565b33600081815260116020908152604091829020805460ff1916861515908117909155825190815242918101919091527fa4d7ce08759be53fa5dd3b9b072396f6f5ce86b82fd167a48401efde1f456aa5910160405180910390a25050565b60608151835114611ab35760405162461bcd60e51b815260206004820152602960248201527f455243313135353a206163636f756e747320616e6420696473206c656e677468604482015268040dad2e6dac2e8c6d60bb1b6064820152608401610645565b600083516001600160401b03811115611adc57634e487b7160e01b600052604160045260246000fd5b604051908082528060200260200182016040528015611b05578160200160208202803683370190505b50905060005b8451811015611ba757611b6c858281518110611b3757634e487b7160e01b600052603260045260246000fd5b6020026020010151858381518110611b5f57634e487b7160e01b600052603260045260246000fd5b60200260200101516105de565b828281518110611b8c57634e487b7160e01b600052603260045260246000fd5b6020908102919091010152611ba081615e84565b9050611b0b565b509392505050565b6000611bba600a5490565b90505b90565b6001600160a01b038085166000818152601060209081526040808320948816835293905291822054611c02919086908690869063ffffffff90811690613a9b16565b95945050505050565b6000611bba600b5490565b600083516001600160401b03811115611c3f57634e487b7160e01b600052604160045260246000fd5b604051908082528060200260200182016040528015611c68578160200160208202803683370190505b50905060005b8451811015611ef657600060096000878481518110611c9d57634e487b7160e01b600052603260045260246000fd5b60200260200101518152602001908152602001600020600401549050848281518110611cd957634e487b7160e01b600052603260045260246000fd5b6020026020010151811015611d735760405162461bcd60e51b815260206004820152605460248201527f434c4d383a3a5f6265666f7265546f6b656e5472616e736665723a2070726f6460448201527f75637420616d6f756e742065786365656473207768617420697320617661696c60648201527318589b19481d1bc81d1a194818dbdb9d1c9858dd60621b608482015260a401610645565b611db960096000888581518110611d9a57634e487b7160e01b600052603260045260246000fd5b6020026020010151815260200190815260200160002060020154613ae1565b611dff60096000888581518110611de057634e487b7160e01b600052603260045260246000fd5b6020026020010151815260200190815260200160002060020154613b66565b611e39858381518110611e2257634e487b7160e01b600052603260045260246000fd5b602002602001015182612d7990919063ffffffff16565b60096000888581518110611e5d57634e487b7160e01b600052603260045260246000fd5b602002602001015181526020019081526020016000206004018190555060096000878481518110611e9e57634e487b7160e01b600052603260045260246000fd5b6020026020010151815260200190815260200160002060000154838381518110611ed857634e487b7160e01b600052603260045260246000fd5b60209081029190910101525080611eee81615e84565b915050611c6e565b506001600160a01b0385163014611f1457611f143086838686613042565b336001600160a01b03167fbece1babc05dd3e25e5b7d7ae4dfdca422edfff069e8272a76d4f7528dd312f78585604051611f4f9291906158b7565b60405180910390a25050505050565b600660205260009081526040902080546001820154600283015460038401546004850154600586018054959660ff9095169593946001600160a01b03938416949390921692611fac90615e1d565b80601f0160208091040260200160405190810160405280929190818152602001828054611fd890615e1d565b80156120255780601f10611ffa57610100808354040283529160200191612025565b820191906000526020600020905b81548152906001019060200180831161200857829003601f168201915b50505050509080600601805461203a90615e1d565b80601f016020809104026020016040519081016040528092919081815260200182805461206690615e1d565b80156120b35780601f10612088576101008083540402835291602001916120b3565b820191906000526020600020905b81548152906001019060200180831161209657829003601f168201915b5050505050905087565b6120f16040518060800160405280600081526020016000815260200160006001600160a01b03168152602001600081525090565b60608060608061211b60405180606001604052806000815260200160008152602001600081525090565b6000878152600860205260408120546001600160401b0381111561214f57634e487b7160e01b600052604160045260246000fd5b604051908082528060200260200182016040528015612178578160200160208202803683370190505b50905060005b600089815260086020526040902054811015612220576000898152600860205260408120805460028201929190849081106121c957634e487b7160e01b600052603260045260246000fd5b906000526020600020015481526020019081526020016000205482828151811061220357634e487b7160e01b600052603260045260246000fd5b60209081029190910101528061221881615e84565b91505061217e565b506000888152600860205260408120600301546001600160401b0381111561225857634e487b7160e01b600052604160045260246000fd5b604051908082528060200260200182016040528015612281578160200160208202803683370190505b50905060005b60008a8152600860205260409020600301548110156123305760008a815260086020526040812060038101805460059092019291849081106122d957634e487b7160e01b600052603260045260246000fd5b906000526020600020015481526020019081526020016000205482828151811061231357634e487b7160e01b600052603260045260246000fd5b60209081029190910101528061232881615e84565b915050612287565b50600061233c8a613bee565b60008b8152600760209081526040808320600883529281902081516080810183528454815260018501548185015260028501546001600160a01b03168184015260039485015460608201528154835181860281018601909452808452959650949093889390850192889288928791908301828280156123da57602002820191906000526020600020905b8154815260200190600101908083116123c6575b505050505094508280548060200260200160405190810160405280929190818152602001828054801561242c57602002820191906000526020600020905b815481526020019060010190808311612418575b5050505050925098509850985098509850985050505091939550919395565b60009182526003602090815260408084206001600160a01b0393909316845291905290205460ff1690565b61135e338383613985565b6000611bba600c5490565b600554604051633e612c8d60e21b81523360048201819052916001600160a01b03169063f984b2349060240160206040518083038186803b1580156124d057600080fd5b505afa1580156124e4573d6000803e3d6000fd5b505050506040513d601f19601f820116820180604052508101906125089190615525565b6125245760405162461bcd60e51b815260040161064590615986565b6005546040516349b9055760e01b81526001600160a01b038581166004830152909116906349b905579060240160206040518083038186803b15801561256957600080fd5b505afa15801561257d573d6000803e3d6000fd5b505050506040513d601f19601f820116820180604052508101906125a19190615525565b806125aa575081155b61262a5760405162461bcd60e51b8152602060048201526044602482018190527f434c4d383a3a617070726f766556657269666965723a20616464726573732069908201527f73206e6f742061207265676973746572656420656d697373696f6e732061756460648201526334ba37b960e11b608482015260a401610645565b6001600160a01b03831633141561269f5760405162461bcd60e51b815260206004820152603360248201527f434c4d383a3a617070726f766556657269666965723a2061756469746f72206360448201527230b73737ba1031329036b9b39739b2b73232b960691b6064820152608401610645565b6001600160a01b0383166000818152600e602090815260408083203380855290835292819020805460ff1916871515908117909155815190815242928101929092529192917fcd7b273ca5b5e968621470006223bdaeba55beb845846af0720d256d050b842491015b60405180910390a3505050565b600554604051633e612c8d60e21b81523360048201819052916001600160a01b03169063f984b2349060240160206040518083038186803b15801561275957600080fd5b505afa15801561276d573d6000803e3d6000fd5b505050506040513d601f19601f820116820180604052508101906127919190615525565b6127ad5760405162461bcd60e51b815260040161064590615986565b50336000908152600f60205260409020805460ff1916911515919091179055565b60008181526007602052604090205481906127e890612b15565b600081815260076020908152604080832054835260069091529020600301546001600160a01b03161561282d5760405162461bcd60e51b815260040161064590615bc0565b6000828152600760205260409020600201548290612853906001600160a01b0316612b86565b61286f5760405162461bcd60e51b815260040161064590615b51565b6000818152600760205260409020600201546001600160a01b03163314156128a95760405162461bcd60e51b815260040161064590615ae8565b60008381526007602090815260408083206002810154905482519384019092529282526128e2926001600160a01b031691600190612d8c565b505060009081526007602090815260408083205483526006909152902060030180546001600160a01b03191633179055565b60008281526003602052604090206001015461292f81613241565b6112df83836132d1565b600554604051633e612c8d60e21b81526001600160a01b0380881660048301528792169063f984b2349060240160206040518083038186803b15801561297e57600080fd5b505afa158015612992573d6000803e3d6000fd5b505050506040513d601f19601f820116820180604052508101906129b69190615525565b6129d25760405162461bcd60e51b815260040161064590615986565b6129e0600b80546001019055565b60006129eb600b5490565b60008181526007602052604081206001808201849055600290910180546001600160a01b0319166001600160a01b038c16179055919250612a339133908a9083868a8a612c8f565b600a54600082815260076020526040902055855115612a5d57612a57818787613338565b5061143b565b336001600160a01b0316817f9da01c22fd231293c2fc95722c6f9952c23c742bfefdcd1ed6d8a5a34539b8868888604051612a999291906158b7565b60405180910390a35b50505050505050565b6001600160a01b038516331480612ac75750612ac7853361056b565b612ae35760405162461bcd60e51b8152600401610645906158ef565b6112b38585858585613e41565b60006001600160e01b03198216630271189760e51b1480610699575061069982613f6e565b600081815260066020526040902054612b835760405162461bcd60e51b815260206004820152602a60248201527f434c4d383a3a5f746f6b656e4578697374733a20746f6b656e496420646f6573604482015269081b9bdd08195e1a5cdd60b21b6064820152608401610645565b50565b6005546040516349b9055760e01b81523360048201526000916001600160a01b0316906349b905579060240160206040518083038186803b158015612bca57600080fd5b505afa158015612bde573d6000803e3d6000fd5b505050506040513d601f19601f82011682018060405250810190612c029190615525565b80612c1757506004546001600160a01b031633145b801561069957506001600160a01b0382166000908152600f602052604090205460ff168015612c695750336000908152600e602090815260408083206001600160a01b038616845290915290205460ff165b806106995750506001600160a01b03166000908152600f602052604090205460ff161590565b612c9d600a80546001019055565b6000612ca8600a5490565b60008181526006602090815260409091208281556002810187905560018101805460ff8b1660ff199091161790556003810180546001600160a01b03808f166001600160a01b031992831617909255600483018054928e16929091169190911790558551929350612d2192600590910191860190614ed1565b5060008181526006602081815260409092208451612d4793919092019190850190614ed1565b508560ff16600114612d6e57612d6e87828760405180602001604052806000815250612d8c565b505050505050505050565b6000612d858284615dbf565b9392505050565b6001600160a01b038416612dec5760405162461bcd60e51b815260206004820152602160248201527f455243313135353a206d696e7420746f20746865207a65726f206164647265736044820152607360f81b6064820152608401610645565b336000612df885613f93565b90506000612e0585613f93565b9050612e1683600089858589613fec565b6000868152602081815260408083206001600160a01b038b16845290915281208054879290612e46908490615d40565b909155505060408051878152602081018790526001600160a01b03808a1692600092918716917fc3d58168c5ae7397731d063d5bbf3d657854427343f4c083240f7aacaa2d0f62910160405180910390a4612aa283600089898989614224565b6001600160a01b038316612f085760405162461bcd60e51b815260206004820152602360248201527f455243313135353a206275726e2066726f6d20746865207a65726f206164647260448201526265737360e81b6064820152608401610645565b336000612f1484613f93565b90506000612f2184613f93565b9050612f4183876000858560405180602001604052806000815250613fec565b6000858152602081815260408083206001600160a01b038a16845290915290205484811015612fbe5760405162461bcd60e51b8152602060048201526024808201527f455243313135353a206275726e20616d6f756e7420657863656564732062616c604482015263616e636560e01b6064820152608401610645565b6000868152602081815260408083206001600160a01b038b81168086529184528285208a8703905582518b81529384018a90529092908816917fc3d58168c5ae7397731d063d5bbf3d657854427343f4c083240f7aacaa2d0f62910160405180910390a4604080516020810190915260009052612aa2565b6000612d858284615d40565b81518351146130a45760405162461bcd60e51b815260206004820152602860248201527f455243313135353a2069647320616e6420616d6f756e7473206c656e677468206044820152670dad2e6dac2e8c6d60c31b6064820152608401610645565b6001600160a01b0384166130ca5760405162461bcd60e51b8152600401610645906159e3565b336130d9818787878787613fec565b60005b84518110156131db57600085828151811061310757634e487b7160e01b600052603260045260246000fd5b60200260200101519050600085838151811061313357634e487b7160e01b600052603260045260246000fd5b602090810291909101810151600084815280835260408082206001600160a01b038e1683529093529190912054909150818110156131835760405162461bcd60e51b815260040161064590615a9e565b6000838152602081815260408083206001600160a01b038e8116855292528083208585039055908b168252812080548492906131c0908490615d40565b92505081905550505050806131d490615e84565b90506130dc565b50846001600160a01b0316866001600160a01b0316826001600160a01b03167f4a39dc06d4c0dbc64b70af90fd698a233a518aa5d07e595d983b8c0526c8f7fb878760405161322b9291906158b7565b60405180910390a461143b81878787878761438f565b612b838133614459565b613255828261244b565b61135e5760008281526003602090815260408083206001600160a01b03851684529091529020805460ff1916600117905561328d3390565b6001600160a01b0316816001600160a01b0316837f2f8788117e7eff1d82e926ec794901d17c78024a50270940304540a733656f0d60405160405180910390a45050565b6132db828261244b565b1561135e5760008281526003602090815260408083206001600160a01b0385168085529252808320805460ff1916905551339285917ff6391f5c32d9c69d2a47ea670b442974b53935d1edc7fd64eb21e047a839171b9190a45050565b60008381526007602052604080822060010154808352912060020154613366906001600160a01b0316612b86565b6133825760405162461bcd60e51b815260040161064590615b51565b6000818152600760205260409020600201546001600160a01b03163314156133bc5760405162461bcd60e51b815260040161064590615ae8565b82518251146134415760405162461bcd60e51b815260206004820152604560248201527f434c4d383a3a5f747261636b546f6b656e733a20746f6b656e416d6f756e747360448201527f20616e6420746f6b656e49647320617265206e6f74207468652073616d65206c6064820152640cadccee8d60db1b608482015260a401610645565b600084815260076020908152604080832060010154835260089091528120905b845181101561393957600080600560009054906101000a90046001600160a01b03166001600160a01b0316637f157c9b308986815181106134b257634e487b7160e01b600052603260045260246000fd5b60200260200101516040518363ffffffff1660e01b81526004016134eb9291906001600160a01b03929092168252602082015260400190565b604080518083038186803b15801561350257600080fd5b505afa158015613516573d6000803e3d6000fd5b505050506040513d601f19601f8201168201806040525081019061353a919061568b565b915091506000600560009054906101000a90046001600160a01b03166001600160a01b031663127d5ad089868151811061358457634e487b7160e01b600052603260045260246000fd5b60200260200101516040518263ffffffff1660e01b81526004016135aa91815260200190565b60206040518083038186803b1580156135c257600080fd5b505afa1580156135d6573d6000803e3d6000fd5b505050506040513d601f19601f820116820180604052508101906135fa91906156ae565b905060008160ff1660031415613611575081613614565b50825b61369d8660020160008b888151811061363d57634e487b7160e01b600052603260045260246000fd5b6020026020010151815260200190815260200160002054600d60008c898151811061367857634e487b7160e01b600052603260045260246000fd5b6020026020010151815260200190815260200160002054612d7990919063ffffffff16565b600d60008b88815181106136c157634e487b7160e01b600052603260045260246000fd5b6020908102919091018101518252810191909152604001600020556004546001600160a01b0316331480613768575087858151811061371057634e487b7160e01b600052603260045260246000fd5b6020026020010151613765600d60008c898151811061373f57634e487b7160e01b600052603260045260246000fd5b602002602001015181526020019081526020016000205483612d7990919063ffffffff16565b10155b6138005760405162461bcd60e51b815260206004820152605f60248201527f434c4d383a3a5f747261636b546f6b656e733a206f6e65206f6620746865207460448201527f6f6b656e416d6f756e74732069732067726561746572207468616e207468652060648201527f62616c616e6365206f662074686520747261636b657220636f6e747261637400608482015260a401610645565b61387488868151811061382357634e487b7160e01b600052603260045260246000fd5b6020026020010151600d60008c898151811061384f57634e487b7160e01b600052603260045260246000fd5b602002602001015181526020019081526020016000205461303690919063ffffffff16565b600d60008b888151811061389857634e487b7160e01b600052603260045260246000fd5b60200260200101518152602001908152602001600020819055506139228886815181106138d557634e487b7160e01b600052603260045260246000fd5b60200260200101518760000188600101896002018d8a8151811061390957634e487b7160e01b600052603260045260246000fd5b6020026020010151613a5e90949392919063ffffffff16565b50505050808061393190615e84565b915050613461565b50336001600160a01b0316857f9da01c22fd231293c2fc95722c6f9952c23c742bfefdcd1ed6d8a5a34539b88686866040516139769291906158b7565b60405180910390a35050505050565b816001600160a01b0316836001600160a01b031614156139f95760405162461bcd60e51b815260206004820152602960248201527f455243313135353a2073657474696e6720617070726f76616c20737461747573604482015268103337b91039b2b63360b91b6064820152608401610645565b6001600160a01b03838116600081815260016020908152604080832094871680845294825291829020805460ff191686151590811790915591519182527f17307eab39ab6107e8899845ad3d59bd9653f200f220920489ca2b5937696c319101612708565b613a6a858585856144bd565b8315613a865760008581526020829052604090208490556112b3565b60009485526020525050604082209190915550565b600085858585613aac866001615d58565b604051602001613ac0959493929190615808565b60405160208183030381529060405280519060200120905095945050505050565b600081815260076020908152604080832054835260069091529020600301546001600160a01b0316612b835760405162461bcd60e51b815260206004820152602860248201527f434c4d383a3a5f69734973737565643a20747261636b65724964206973206e6f6044820152671d081a5cdcdd595960c21b6064820152608401610645565b600081815260076020526040902054613b809033906105de565b600114612b835760405162461bcd60e51b815260206004820152603660248201527f434c4d383a3a5f69734f776e65723a206d73672e73656e64657220646f6573206044820152751b9bdd081bdddb881d1a1a5cc81d1c9858dad95c925960521b6064820152608401610645565b613c1260405180606001604052806000815260200160008152602001600081525090565b600082815260086020908152604080832080548251818502810185019093528083529192909190830182828015613c6857602002820191906000526020600020905b815481526020019060010190808311613c54575b50505050509050613c9360405180606001604052806000815260200160008152602001600081525090565b60008060005b8451811015613e2c57613d05600860008981526020019081526020016000206002016000878481518110613cdd57634e487b7160e01b600052603260045260246000fd5b602002602001015181526020019081526020016000205460125461462390919063ffffffff16565b60055486519194506001600160a01b03169063127d5ad090879084908110613d3d57634e487b7160e01b600052603260045260246000fd5b60200260200101516040518263ffffffff1660e01b8152600401613d6391815260200190565b60206040518083038186803b158015613d7b57600080fd5b505afa158015613d8f573d6000803e3d6000fd5b505050506040513d601f19601f82011682018060405250810190613db391906156ae565b91508160ff1660031415613dda576040840151613dd09084613036565b6040850152613e1a565b8160ff1660021415613dff576020840151613df59084613036565b6020850152613e1a565b8160ff1660011415613e1a578351613e179084613036565b84525b80613e2481615e84565b915050613c99565b50613e37838761462f565b9695505050505050565b6001600160a01b038416613e675760405162461bcd60e51b8152600401610645906159e3565b336000613e7385613f93565b90506000613e8085613f93565b9050613e90838989858589613fec565b6000868152602081815260408083206001600160a01b038c16845290915290205485811015613ed15760405162461bcd60e51b815260040161064590615a9e565b6000878152602081815260408083206001600160a01b038d8116855292528083208985039055908a16825281208054889290613f0e908490615d40565b909155505060408051888152602081018890526001600160a01b03808b16928c821692918816917fc3d58168c5ae7397731d063d5bbf3d657854427343f4c083240f7aacaa2d0f62910160405180910390a4612d6e848a8a8a8a8a614224565b60006001600160e01b03198216637965db0b60e01b14806106995750610699826148bf565b60408051600180825281830190925260609160009190602080830190803683370190505090508281600081518110613fdb57634e487b7160e01b600052603260045260246000fd5b602090810291909101015292915050565b836001600160a01b038116156140955760055460405163fc0bbce360e01b81526001600160a01b0383811660048301529091169063fc0bbce39060240160206040518083038186803b15801561404157600080fd5b505afa158015614055573d6000803e3d6000fd5b505050506040513d601f19601f820116820180604052508101906140799190615525565b6140955760405162461bcd60e51b815260040161064590615a28565b6000805b8551811015612d6e57600660008783815181106140c657634e487b7160e01b600052603260045260246000fd5b60209081029190910181015182528101919091526040016000206001015460ff1660021415614212576001600160a01b03871660009081526011602052604090205460ff168015614115575081155b1561421257600061412889898989611bc0565b905061413581868a61490f565b9250826141b85760405162461bcd60e51b815260206004820152604560248201527f434c4d383a3a5f6265666f7265546f6b656e5472616e736665723a207265636560448201527f6976657220686173206e6f7420617070726f76656420746865207472616e736160648201526431ba34b7b760d91b608482015260a401610645565b6001600160a01b03808a166000908152601060209081526040808320938c168352929052908120805463ffffffff16916141f183615e9f565b91906101000a81548163ffffffff021916908363ffffffff16021790555050505b8061421c81615e84565b915050614099565b6001600160a01b0384163b1561143b5760405163f23a6e6160e01b81526001600160a01b0385169063f23a6e6190614268908990899088908890889060040161585f565b602060405180830381600087803b15801561428257600080fd5b505af19250505080156142b2575060408051601f3d908101601f191682019092526142af91810190615597565b60015b61435f576142be615eef565b806308c379a014156142f857506142d3615f06565b806142de57506142fa565b8060405162461bcd60e51b815260040161064591906158dc565b505b60405162461bcd60e51b815260206004820152603460248201527f455243313135353a207472616e7366657220746f206e6f6e20455243313135356044820152732932b1b2b4bb32b91034b6b83632b6b2b73a32b960611b6064820152608401610645565b6001600160e01b0319811663f23a6e6160e01b14612aa25760405162461bcd60e51b81526004016106459061593e565b6001600160a01b0384163b1561143b5760405163bc197c8160e01b81526001600160a01b0385169063bc197c81906143d390899089908890889088906004016157aa565b602060405180830381600087803b1580156143ed57600080fd5b505af192505050801561441d575060408051601f3d908101601f1916820190925261441a91810190615597565b60015b614429576142be615eef565b6001600160e01b0319811663bc197c8160e01b14612aa25760405162461bcd60e51b81526004016106459061593e565b614463828261244b565b61135e5761447b816001600160a01b03166014614992565b614486836020614992565b604051602001614497929190615735565b60408051601f198184030181529082905262461bcd60e51b8252610645916004016158dc565b600084815260208290526040902054831561450357806144fe5782546001810184556000848152602080822090920187905584548782529184905260409020555b6112b3565b80156112b3578254600110156145d4578254839061452390600190615dbf565b8154811061454157634e487b7160e01b600052603260045260246000fd5b90600052602060002001548360018361455a9190615dbf565b8154811061457857634e487b7160e01b600052603260045260246000fd5b906000526020600020018190555080826000856001856145989190615dbf565b815481106145b657634e487b7160e01b600052603260045260246000fd5b90600052602060002001548152602001908152602001600020819055505b600085815260208390526040812055825483906145f390600190615dbf565b8154811061461157634e487b7160e01b600052603260045260246000fd5b60009182526020822001555050505050565b6000612d858284615da0565b61465360405180606001604052806000815260200160008152602001600081525090565b6000828152600860209081526040808320600301805482518185028101850190935280835291929091908301828280156146ac57602002820191906000526020600020905b815481526020019060010190808311614698575b5050505050905060005b81518110156148b6576000600960008484815181106146e557634e487b7160e01b600052603260045260246000fd5b602002602001015181526020019081526020016000206002015490506000600760008381526020019081526020016000206003015411156148a357600061472b82613bee565b90506147c06147b560076000858152602001908152602001600020600301546147af8460400151600860008c815260200190815260200160002060050160008a8a8151811061478a57634e487b7160e01b600052603260045260246000fd5b602002602001015181526020019081526020016000205461462390919063ffffffff16565b90614b73565b604089015190613036565b87604001818152505061483161482660076000858152602001908152602001600020600301546147af8460200151600860008c815260200190815260200160002060050160008a8a8151811061478a57634e487b7160e01b600052603260045260246000fd5b602089015190613036565b87602001818152505061489f61489760076000858152602001908152602001600020600301546147af8460000151600860008c815260200190815260200160002060050160008a8a8151811061478a57634e487b7160e01b600052603260045260246000fd5b885190613036565b8752505b50806148ae81615e84565b9150506146b6565b50929392505050565b60006001600160e01b03198216636cdb3d1360e11b14806148f057506001600160e01b031982166303a24d0760e21b145b8061069957506301ffc9a760e01b6001600160e01b0319831614610699565b600080614969856040517f19457468657265756d205369676e6564204d6573736167653a0a3332000000006020820152603c8101829052600090605c01604051602081830303815290604052805190602001209050919050565b90506001600160a01b03831661497f8286614b7f565b6001600160a01b03161495945050505050565b606060006149a1836002615da0565b6149ac906002615d40565b6001600160401b038111156149d157634e487b7160e01b600052604160045260246000fd5b6040519080825280601f01601f1916602001820160405280156149fb576020820181803683370190505b509050600360fc1b81600081518110614a2457634e487b7160e01b600052603260045260246000fd5b60200101906001600160f81b031916908160001a905350600f60fb1b81600181518110614a6157634e487b7160e01b600052603260045260246000fd5b60200101906001600160f81b031916908160001a9053506000614a85846002615da0565b614a90906001615d40565b90505b6001811115614b24576f181899199a1a9b1b9c1cb0b131b232b360811b85600f1660108110614ad257634e487b7160e01b600052603260045260246000fd5b1a60f81b828281518110614af657634e487b7160e01b600052603260045260246000fd5b60200101906001600160f81b031916908160001a90535060049490941c93614b1d81615e06565b9050614a93565b508315612d855760405162461bcd60e51b815260206004820181905260248201527f537472696e67733a20686578206c656e67746820696e73756666696369656e746044820152606401610645565b6000612d858284615d80565b6000806000614b8e8585614b9b565b91509150611ba781614be1565b600080825160411415614bd25760208301516040840151606085015160001a614bc687828585614de4565b94509450505050614bda565b506000905060025b9250929050565b6000816004811115614c0357634e487b7160e01b600052602160045260246000fd5b1415614c0e57612b83565b6001816004811115614c3057634e487b7160e01b600052602160045260246000fd5b1415614c7e5760405162461bcd60e51b815260206004820152601860248201527f45434453413a20696e76616c6964207369676e617475726500000000000000006044820152606401610645565b6002816004811115614ca057634e487b7160e01b600052602160045260246000fd5b1415614cee5760405162461bcd60e51b815260206004820152601f60248201527f45434453413a20696e76616c6964207369676e6174757265206c656e677468006044820152606401610645565b6003816004811115614d1057634e487b7160e01b600052602160045260246000fd5b1415614d695760405162461bcd60e51b815260206004820152602260248201527f45434453413a20696e76616c6964207369676e6174757265202773272076616c604482015261756560f01b6064820152608401610645565b6004816004811115614d8b57634e487b7160e01b600052602160045260246000fd5b1415612b835760405162461bcd60e51b815260206004820152602260248201527f45434453413a20696e76616c6964207369676e6174757265202776272076616c604482015261756560f01b6064820152608401610645565b6000807f7fffffffffffffffffffffffffffffff5d576e7357a4501ddfe92f46681b20a0831115614e1b5750600090506003614ec8565b8460ff16601b14158015614e3357508460ff16601c14155b15614e445750600090506004614ec8565b6040805160008082526020820180845289905260ff881692820192909252606081018690526080810185905260019060a0016020604051602081039080840390855afa158015614e98573d6000803e3d6000fd5b5050604051601f1901519150506001600160a01b038116614ec157600060019250925050614ec8565b9150600090505b94509492505050565b828054614edd90615e1d565b90600052602060002090601f016020900481019282614eff5760008555614f45565b82601f10614f1857805160ff1916838001178555614f45565b82800160010185558215614f45579182015b82811115614f45578251825591602001919060010190614f2a565b50614f51929150614f55565b5090565b5b80821115614f515760008155600101614f56565b80356001600160a01b038116811461069c57600080fd5b600082601f830112614f91578081fd5b81356020614f9e82615d1d565b604051614fab8282615e58565b8381528281019150858301855b85811015614fe157614fcf898684358b0101615055565b84529284019290840190600101614fb8565b5090979650505050505050565b600082601f830112614ffe578081fd5b8135602061500b82615d1d565b6040516150188282615e58565b8381528281019150858301600585901b87018401881015615037578586fd5b855b85811015614fe157813584529284019290840190600101615039565b600082601f830112615065578081fd5b81356001600160401b0381111561507e5761507e615ed9565b604051615095601f8301601f191660200182615e58565b8181528460208386010111156150a9578283fd5b816020850160208301379081016020019190915292915050565b6000602082840312156150d4578081fd5b612d8582614f6a565b600080604083850312156150ef578081fd5b6150f883614f6a565b915061510660208401614f6a565b90509250929050565b60008060008060808587031215615124578182fd5b61512d85614f6a565b935061513b60208601614f6a565b925060408501356001600160401b0380821115615156578384fd5b61516288838901614fee565b93506060870135915080821115615177578283fd5b5061518487828801614fee565b91505092959194509250565b600080600080600060a086880312156151a7578081fd5b6151b086614f6a565b94506151be60208701614f6a565b935060408601356001600160401b03808211156151d9578283fd5b6151e589838a01614fee565b945060608801359150808211156151fa578283fd5b61520689838a01614fee565b9350608088013591508082111561521b578283fd5b5061522888828901615055565b9150509295509295909350565b600080600080600060a0868803121561524c578283fd5b61525586614f6a565b945061526360208701614f6a565b9350604086013592506060860135915060808601356001600160401b0381111561528b578182fd5b61522888828901615055565b600080600080608085870312156152ac578182fd5b6152b585614f6a565b935060208501356001600160401b03808211156152d0578384fd5b6152dc88838901614fee565b945060408701359150808211156152f1578384fd5b6152fd88838901614fee565b93506060870135915080821115615312578283fd5b5061518487828801615055565b600080600080600060a08688031215615336578283fd5b61533f86614f6a565b945060208601356001600160401b038082111561535a578485fd5b61536689838a01614fee565b9550604088013591508082111561537b578485fd5b61538789838a01614fee565b9450606088013591508082111561539c578283fd5b61520689838a01615055565b600080604083850312156153ba578182fd5b6153c383614f6a565b915060208301356153d381615f97565b809150509250929050565b600080604083850312156153f0578182fd5b6153f983614f6a565b946020939093013593505050565b6000806000806080858703121561541c578182fd5b61542585614f6a565b966020860135965060408601359560600135945092505050565b60008060408385031215615451578182fd5b82356001600160401b0380821115615467578384fd5b818501915085601f83011261547a578384fd5b8135602061548782615d1d565b6040516154948282615e58565b8381528281019150858301600585901b870184018b10156154b3578889fd5b8896505b848710156154dc576154c881614f6a565b8352600196909601959183019183016154b7565b50965050860135925050808211156154f2578283fd5b506154ff85828601614fee565b9150509250929050565b60006020828403121561551a578081fd5b8135612d8581615f97565b600060208284031215615536578081fd5b8151612d8581615f97565b600060208284031215615552578081fd5b5035919050565b6000806040838503121561556b578182fd5b8235915061510660208401614f6a565b60006020828403121561558c578081fd5b8135612d8581615fa5565b6000602082840312156155a8578081fd5b8151612d8581615fa5565b600080600080600060a086880312156155ca578283fd5b8535945060208601356001600160401b03808211156155e7578485fd5b6155f389838a01614fee565b95506040880135915080821115615608578485fd5b61561489838a01614fee565b94506060880135915080821115615629578283fd5b61563589838a01614f81565b9350608088013591508082111561564a578283fd5b5061522888828901614f81565b600080600080600060a0868803121561566e578283fd5b8535945060208601356001600160401b038082111561535a578485fd5b6000806040838503121561569d578182fd5b505080516020909101519092909150565b6000602082840312156156bf578081fd5b815160ff81168114612d85578182fd5b6000815180845260208085019450808401835b838110156156fe578151875295820195908201906001016156e2565b509495945050505050565b60008151808452615721816020860160208601615dd6565b601f01601f19169290920160200192915050565b60007f416363657373436f6e74726f6c3a206163636f756e74200000000000000000008252835161576d816017850160208801615dd6565b7001034b99036b4b9b9b4b733903937b6329607d1b601791840191820152835161579e816028840160208801615dd6565b01602801949350505050565b6001600160a01b0386811682528516602082015260a0604082018190526000906157d6908301866156cf565b82810360608401526157e881866156cf565b905082810360808401526157fc8185615709565b98975050505050505050565b6001600160a01b0386811682528516602082015260a060408201819052600090615834908301866156cf565b828103606084015261584681866156cf565b91505063ffffffff831660808301529695505050505050565b6001600160a01b03868116825285166020820152604081018490526060810183905260a06080820181905260009061589990830184615709565b979650505050505050565b600060208252612d8560208301846156cf565b6000604082526158ca60408301856156cf565b8281036020840152611c0281856156cf565b600060208252612d856020830184615709565b6020808252602f908201527f455243313135353a2063616c6c6572206973206e6f7420746f6b656e206f776e60408201526e195c881b9bdc88185c1c1c9bdd9959608a1b606082015260800190565b60208082526028908201527f455243313135353a204552433131353552656365697665722072656a656374656040820152676420746f6b656e7360c01b606082015260800190565b60208082526037908201527f434c4d383a3a6973496e6475737472793a2061646472657373206d757374206260408201527f652061207265676973746572656420696e647573747279000000000000000000606082015260800190565b60208082526025908201527f455243313135353a207472616e7366657220746f20746865207a65726f206164604082015264647265737360d81b606082015260800190565b60208082526050908201527f434c4d383a3a636f6e73756d65724f724465616c65723a20616464726573732060408201527f6973206e6f742061207265676973746572656420636f6e73756d65722c20696e60608201526f323ab9ba393c9037b9103232b0b632b960811b608082015260a00190565b6020808252602a908201527f455243313135353a20696e73756666696369656e742062616c616e636520666f60408201526939103a3930b739b332b960b11b606082015260800190565b60208082526043908201527f434c4d383a3a697341756469746f723a206d73672e73656e646572206973207460408201527f68652073616d652061732074686520747261636b6565206f6620747261636b656060820152621c925960ea1b608082015260a00190565b60208082526049908201527f434c4d383a3a697341756469746f723a206d73672e73656e646572206973206e60408201527f6f7420616e20617070726f7665642061756469746f7220666f722074686973206060820152681d1c9858dad95c925960ba1b608082015260a00190565b60208082526032908201527f434c4d383a3a6e6f744973737565643a20747261636b657249642068617320616040820152711b1c9958591e481899595b881a5cdcdd595960721b606082015260800190565b6000610160885183526020890151602084015260018060a01b0360408a015116604084015260608901516060840152806080840152615c53818401896156cf565b905082810360a0840152615c6781886156cf565b905082810360c0840152615c7b81876156cf565b905082810360e0840152615c8f81866156cf565b915050825161010083015260208301516101208301526040830151610140830152979650505050505050565b87815260ff87166020820152604081018690526001600160a01b0385811660608301528416608082015260e060a08201819052600090615cfd90830185615709565b82810360c0840152615d0f8185615709565b9a9950505050505050505050565b60006001600160401b03821115615d3657615d36615ed9565b5060051b60200190565b60008219821115615d5357615d53615ec3565b500190565b600063ffffffff808316818516808303821115615d7757615d77615ec3565b01949350505050565b600082615d9b57634e487b7160e01b81526012600452602481fd5b500490565b6000816000190483118215151615615dba57615dba615ec3565b500290565b600082821015615dd157615dd1615ec3565b500390565b60005b83811015615df1578181015183820152602001615dd9565b83811115615e00576000848401525b50505050565b600081615e1557615e15615ec3565b506000190190565b600181811c90821680615e3157607f821691505b60208210811415615e5257634e487b7160e01b600052602260045260246000fd5b50919050565b601f8201601f191681016001600160401b0381118282101715615e7d57615e7d615ed9565b6040525050565b6000600019821415615e9857615e98615ec3565b5060010190565b600063ffffffff80831681811415615eb957615eb9615ec3565b6001019392505050565b634e487b7160e01b600052601160045260246000fd5b634e487b7160e01b600052604160045260246000fd5b600060033d1115611bbd57600481823e5160e01c90565b600060443d1015615f1657611bbd565b6040516003193d81016004833e81513d6001600160401b038160248401118184111715615f47575050505050611bbd565b8285019150815181811115615f6157505050505050611bbd565b843d8701016020828501011115615f7d57505050505050611bbd565b615f8c60208286010187615e58565b509094505050505090565b8015158114612b8357600080fd5b6001600160e01b031981168114612b8357600080fdfea2646970667358221220066a9e68113f512b1a3838749b2354078e4aee02825b90a977150dbb8e6d393864736f6c63430008030033",
  "linkReferences": {},
  "deployedLinkReferences": {}
}