{
  "_format": "hh-sol-artifact-1",
  "contractName": "CarbonTracker",
  "sourceName": "solidity/CarbonTracker.sol",
  "abi": [
    {
      "inputs": [
        {
          "internalType": "address",
          "name": "_net",
          "type": "address"
        },
        {
          "internalType": "address",
          "name": "_admin",
          "type": "address"
        }
      ],
      "stateMutability": "nonpayable",
      "type": "constructor"
    },
    {
      "anonymous": false,
      "inputs": [
        {
          "indexed": true,
          "internalType": "address",
          "name": "owner",
          "type": "address"
        },
        {
          "indexed": true,
          "internalType": "address",
          "name": "approved",
          "type": "address"
        },
        {
          "indexed": true,
          "internalType": "uint256",
          "name": "tokenId",
          "type": "uint256"
        }
      ],
      "name": "Approval",
      "type": "event"
    },
    {
      "anonymous": false,
      "inputs": [
        {
          "indexed": true,
          "internalType": "address",
          "name": "owner",
          "type": "address"
        },
        {
          "indexed": true,
          "internalType": "address",
          "name": "operator",
          "type": "address"
        },
        {
          "indexed": false,
          "internalType": "bool",
          "name": "approved",
          "type": "bool"
        }
      ],
      "name": "ApprovalForAll",
      "type": "event"
    },
    {
      "anonymous": false,
      "inputs": [
        {
          "indexed": true,
          "internalType": "uint256",
          "name": "trackerId",
          "type": "uint256"
        },
        {
          "indexed": false,
          "internalType": "uint256[]",
          "name": "productIds",
          "type": "uint256[]"
        },
        {
          "indexed": false,
          "internalType": "uint256[]",
          "name": "productAmounts",
          "type": "uint256[]"
        }
      ],
      "name": "ProductsUpdated",
      "type": "event"
    },
    {
      "anonymous": false,
      "inputs": [
        {
          "indexed": true,
          "internalType": "address",
          "name": "account",
          "type": "address"
        }
      ],
      "name": "RegisteredTracker",
      "type": "event"
    },
    {
      "anonymous": false,
      "inputs": [
        {
          "indexed": true,
          "internalType": "bytes32",
          "name": "role",
          "type": "bytes32"
        },
        {
          "indexed": true,
          "internalType": "bytes32",
          "name": "previousAdminRole",
          "type": "bytes32"
        },
        {
          "indexed": true,
          "internalType": "bytes32",
          "name": "newAdminRole",
          "type": "bytes32"
        }
      ],
      "name": "RoleAdminChanged",
      "type": "event"
    },
    {
      "anonymous": false,
      "inputs": [
        {
          "indexed": true,
          "internalType": "bytes32",
          "name": "role",
          "type": "bytes32"
        },
        {
          "indexed": true,
          "internalType": "address",
          "name": "account",
          "type": "address"
        },
        {
          "indexed": true,
          "internalType": "address",
          "name": "sender",
          "type": "address"
        }
      ],
      "name": "RoleGranted",
      "type": "event"
    },
    {
      "anonymous": false,
      "inputs": [
        {
          "indexed": true,
          "internalType": "bytes32",
          "name": "role",
          "type": "bytes32"
        },
        {
          "indexed": true,
          "internalType": "address",
          "name": "account",
          "type": "address"
        },
        {
          "indexed": true,
          "internalType": "address",
          "name": "sender",
          "type": "address"
        }
      ],
      "name": "RoleRevoked",
      "type": "event"
    },
    {
      "anonymous": false,
      "inputs": [
        {
          "indexed": true,
          "internalType": "uint256",
          "name": "trackerId",
          "type": "uint256"
        },
        {
          "indexed": true,
          "internalType": "address",
          "name": "trackee",
          "type": "address"
        }
      ],
      "name": "TrackeeChanged",
      "type": "event"
    },
    {
      "anonymous": false,
      "inputs": [
        {
          "indexed": true,
          "internalType": "uint256",
          "name": "trackerId",
          "type": "uint256"
        },
        {
          "indexed": true,
          "internalType": "address",
          "name": "tracker",
          "type": "address"
        },
        {
          "indexed": false,
          "internalType": "uint256[]",
          "name": "tokenIds",
          "type": "uint256[]"
        },
        {
          "indexed": false,
          "internalType": "uint256[]",
          "name": "tokenAmounts",
          "type": "uint256[]"
        },
        {
          "indexed": false,
          "internalType": "uint256",
          "name": "fromDate",
          "type": "uint256"
        },
        {
          "indexed": false,
          "internalType": "uint256",
          "name": "thruDate",
          "type": "uint256"
        }
      ],
      "name": "TrackerUpdated",
      "type": "event"
    },
    {
      "anonymous": false,
      "inputs": [
        {
          "indexed": true,
          "internalType": "address",
          "name": "from",
          "type": "address"
        },
        {
          "indexed": true,
          "internalType": "address",
          "name": "to",
          "type": "address"
        },
        {
          "indexed": true,
          "internalType": "uint256",
          "name": "tokenId",
          "type": "uint256"
        }
      ],
      "name": "Transfer",
      "type": "event"
    },
    {
      "anonymous": false,
      "inputs": [
        {
          "indexed": true,
          "internalType": "uint256",
          "name": "tokenId",
          "type": "uint256"
        },
        {
          "indexed": true,
          "internalType": "address",
          "name": "trackee",
          "type": "address"
        },
        {
          "indexed": false,
          "internalType": "uint256",
          "name": "amount",
          "type": "uint256"
        }
      ],
      "name": "VerifiedOutput",
      "type": "event"
    },
    {
      "anonymous": false,
      "inputs": [
        {
          "indexed": true,
          "internalType": "address",
          "name": "auditor",
          "type": "address"
        },
        {
          "indexed": true,
          "internalType": "address",
          "name": "trackee",
          "type": "address"
        }
      ],
      "name": "VerifierApproved",
      "type": "event"
    },
    {
      "anonymous": false,
      "inputs": [
        {
          "indexed": true,
          "internalType": "address",
          "name": "auditor",
          "type": "address"
        },
        {
          "indexed": true,
          "internalType": "address",
          "name": "trackee",
          "type": "address"
        }
      ],
      "name": "VerifierRemoved",
      "type": "event"
    },
    {
      "inputs": [],
      "name": "DEFAULT_ADMIN_ROLE",
      "outputs": [
        {
          "internalType": "bytes32",
          "name": "",
          "type": "bytes32"
        }
      ],
      "stateMutability": "view",
      "type": "function"
    },
    {
      "inputs": [],
      "name": "REGISTERED_TRACKER",
      "outputs": [
        {
          "internalType": "bytes32",
          "name": "",
          "type": "bytes32"
        }
      ],
      "stateMutability": "view",
      "type": "function"
    },
    {
      "inputs": [
        {
          "internalType": "uint256",
          "name": "trackerId",
          "type": "uint256"
        },
        {
          "internalType": "uint256",
          "name": "productId",
          "type": "uint256"
        },
        {
          "internalType": "string",
          "name": "unit",
          "type": "string"
        },
        {
          "internalType": "uint256",
          "name": "unitAmount",
          "type": "uint256"
        }
      ],
      "name": "_getUnitHash",
      "outputs": [
        {
          "internalType": "bytes32",
          "name": "",
          "type": "bytes32"
        }
      ],
      "stateMutability": "view",
      "type": "function"
    },
    {
      "inputs": [],
      "name": "_numOfProducts",
      "outputs": [
        {
          "internalType": "uint256",
          "name": "_value",
          "type": "uint256"
        }
      ],
      "stateMutability": "view",
      "type": "function"
    },
    {
      "inputs": [],
      "name": "_numOfUniqueTrackers",
      "outputs": [
        {
          "internalType": "uint256",
          "name": "_value",
          "type": "uint256"
        }
      ],
      "stateMutability": "view",
      "type": "function"
    },
    {
      "inputs": [
        {
          "internalType": "uint256",
          "name": "",
          "type": "uint256"
        }
      ],
      "name": "_productData",
      "outputs": [
        {
          "internalType": "uint256",
          "name": "trackerId",
          "type": "uint256"
        },
        {
          "internalType": "address",
          "name": "auditor",
          "type": "address"
        },
        {
          "internalType": "uint256",
          "name": "amount",
          "type": "uint256"
        },
        {
          "internalType": "uint256",
          "name": "available",
          "type": "uint256"
        },
        {
          "internalType": "string",
          "name": "name",
          "type": "string"
        },
        {
          "internalType": "string",
          "name": "unit",
          "type": "string"
        },
        {
          "internalType": "uint256",
          "name": "unitAmount",
          "type": "uint256"
        }
      ],
      "stateMutability": "view",
      "type": "function"
    },
    {
      "inputs": [
        {
          "internalType": "uint256",
          "name": "outAmount",
          "type": "uint256"
        },
        {
          "internalType": "uint256",
          "name": "totalTracked",
          "type": "uint256"
        }
      ],
      "name": "_verifyTotalTracked",
      "outputs": [],
      "stateMutability": "pure",
      "type": "function"
    },
    {
      "inputs": [
        {
          "internalType": "address",
          "name": "to",
          "type": "address"
        },
        {
          "internalType": "uint256",
          "name": "tokenId",
          "type": "uint256"
        }
      ],
      "name": "approve",
      "outputs": [],
      "stateMutability": "nonpayable",
      "type": "function"
    },
    {
      "inputs": [
        {
          "internalType": "address",
          "name": "verifier",
          "type": "address"
        },
        {
          "internalType": "bool",
          "name": "approve",
          "type": "bool"
        }
      ],
      "name": "approveVerifier",
      "outputs": [],
      "stateMutability": "nonpayable",
      "type": "function"
    },
    {
      "inputs": [
        {
          "internalType": "uint256",
          "name": "trackerId",
          "type": "uint256"
        }
      ],
      "name": "audit",
      "outputs": [],
      "stateMutability": "nonpayable",
      "type": "function"
    },
    {
      "inputs": [
        {
          "internalType": "address",
          "name": "owner",
          "type": "address"
        }
      ],
      "name": "balanceOf",
      "outputs": [
        {
          "internalType": "uint256",
          "name": "",
          "type": "uint256"
        }
      ],
      "stateMutability": "view",
      "type": "function"
    },
    {
      "inputs": [],
      "name": "decimalsEf",
      "outputs": [
        {
          "internalType": "uint256",
          "name": "",
          "type": "uint256"
        }
      ],
      "stateMutability": "view",
      "type": "function"
    },
    {
      "inputs": [
        {
          "internalType": "uint256",
          "name": "trackerId",
          "type": "uint256"
        }
      ],
      "name": "emissionsFactor",
      "outputs": [
        {
          "internalType": "uint256",
          "name": "",
          "type": "uint256"
        }
      ],
      "stateMutability": "view",
      "type": "function"
    },
    {
      "inputs": [
        {
          "internalType": "uint256",
          "name": "tokenId",
          "type": "uint256"
        }
      ],
      "name": "getApproved",
      "outputs": [
        {
          "internalType": "address",
          "name": "",
          "type": "address"
        }
      ],
      "stateMutability": "view",
      "type": "function"
    },
    {
      "inputs": [],
      "name": "getNumOfProducts",
      "outputs": [
        {
          "internalType": "uint256",
          "name": "",
          "type": "uint256"
        }
      ],
      "stateMutability": "view",
      "type": "function"
    },
    {
      "inputs": [],
      "name": "getNumOfUniqueTrackers",
      "outputs": [
        {
          "internalType": "uint256",
          "name": "",
          "type": "uint256"
        }
      ],
      "stateMutability": "view",
      "type": "function"
    },
    {
      "inputs": [
        {
          "internalType": "uint256",
          "name": "productId",
          "type": "uint256"
        },
        {
          "internalType": "address",
          "name": "owner",
          "type": "address"
        }
      ],
      "name": "getProductBalance",
      "outputs": [
        {
          "internalType": "uint256",
          "name": "",
          "type": "uint256"
        }
      ],
      "stateMutability": "view",
      "type": "function"
    },
    {
      "inputs": [
        {
          "internalType": "uint256",
          "name": "productId",
          "type": "uint256"
        }
      ],
      "name": "getProductDetails",
      "outputs": [
        {
          "internalType": "uint256",
          "name": "",
          "type": "uint256"
        },
        {
          "internalType": "uint256",
          "name": "",
          "type": "uint256"
        },
        {
          "internalType": "uint256",
          "name": "",
          "type": "uint256"
        }
      ],
      "stateMutability": "view",
      "type": "function"
    },
    {
      "inputs": [
        {
          "internalType": "uint256",
          "name": "productId",
          "type": "uint256"
        }
      ],
      "name": "getProductOptionalDetails",
      "outputs": [
        {
          "internalType": "string",
          "name": "",
          "type": "string"
        },
        {
          "internalType": "uint256",
          "name": "",
          "type": "uint256"
        },
        {
          "internalType": "string",
          "name": "",
          "type": "string"
        }
      ],
      "stateMutability": "view",
      "type": "function"
    },
    {
      "inputs": [
        {
          "internalType": "bytes32",
          "name": "role",
          "type": "bytes32"
        }
      ],
      "name": "getRoleAdmin",
      "outputs": [
        {
          "internalType": "bytes32",
          "name": "",
          "type": "bytes32"
        }
      ],
      "stateMutability": "view",
      "type": "function"
    },
    {
      "inputs": [
        {
          "internalType": "uint256",
          "name": "trackerId",
          "type": "uint256"
        }
      ],
      "name": "getTokenAmounts",
      "outputs": [
        {
          "internalType": "uint256[]",
          "name": "",
          "type": "uint256[]"
        },
        {
          "internalType": "uint256[]",
          "name": "",
          "type": "uint256[]"
        }
      ],
      "stateMutability": "view",
      "type": "function"
    },
    {
      "inputs": [
        {
          "internalType": "uint256",
          "name": "trackerId",
          "type": "uint256"
        }
      ],
      "name": "getTokenIds",
      "outputs": [
        {
          "internalType": "uint256[]",
          "name": "",
          "type": "uint256[]"
        }
      ],
      "stateMutability": "view",
      "type": "function"
    },
    {
      "inputs": [
        {
          "internalType": "uint256",
          "name": "trackerId",
          "type": "uint256"
        }
      ],
      "name": "getTotalEmissions",
      "outputs": [
        {
          "internalType": "uint256",
          "name": "",
          "type": "uint256"
        }
      ],
      "stateMutability": "view",
      "type": "function"
    },
    {
      "inputs": [
        {
          "internalType": "uint256",
          "name": "trackerId",
          "type": "uint256"
        }
      ],
      "name": "getTrackerDetails",
      "outputs": [
        {
          "components": [
            {
              "internalType": "uint256",
              "name": "trackerId",
              "type": "uint256"
            },
            {
              "internalType": "address",
              "name": "trackee",
              "type": "address"
            },
            {
              "internalType": "address",
              "name": "auditor",
              "type": "address"
            },
            {
              "internalType": "uint256",
              "name": "totalProductAmounts",
              "type": "uint256"
            },
            {
              "internalType": "uint256",
              "name": "fromDate",
              "type": "uint256"
            },
            {
              "internalType": "uint256",
              "name": "thruDate",
              "type": "uint256"
            },
            {
              "internalType": "address",
              "name": "createdBy",
              "type": "address"
            },
            {
              "internalType": "uint256",
              "name": "dateCreated",
              "type": "uint256"
            },
            {
              "internalType": "uint256",
              "name": "dateUpdated",
              "type": "uint256"
            },
            {
              "internalType": "string",
              "name": "metadata",
              "type": "string"
            },
            {
              "internalType": "string",
              "name": "description",
              "type": "string"
            }
          ],
          "internalType": "struct CarbonTracker.CarbonTrackerDetails",
          "name": "",
          "type": "tuple"
        },
        {
          "internalType": "uint256",
          "name": "",
          "type": "uint256"
        },
        {
          "internalType": "uint256[]",
          "name": "",
          "type": "uint256[]"
        }
      ],
      "stateMutability": "view",
      "type": "function"
    },
    {
      "inputs": [
        {
          "internalType": "uint256",
          "name": "trackerId",
          "type": "uint256"
        }
      ],
      "name": "getTrackerIds",
      "outputs": [
        {
          "internalType": "uint256[]",
          "name": "",
          "type": "uint256[]"
        }
      ],
      "stateMutability": "view",
      "type": "function"
    },
    {
      "inputs": [
        {
          "internalType": "uint256",
          "name": "trackerId",
          "type": "uint256"
        }
      ],
      "name": "getTrackerTokenDetails",
      "outputs": [
        {
          "internalType": "uint256[]",
          "name": "",
          "type": "uint256[]"
        },
        {
          "internalType": "uint256[]",
          "name": "",
          "type": "uint256[]"
        }
      ],
      "stateMutability": "view",
      "type": "function"
    },
    {
      "inputs": [
        {
          "internalType": "bytes32",
          "name": "role",
          "type": "bytes32"
        },
        {
          "internalType": "address",
          "name": "account",
          "type": "address"
        }
      ],
      "name": "grantRole",
      "outputs": [],
      "stateMutability": "nonpayable",
      "type": "function"
    },
    {
      "inputs": [
        {
          "internalType": "bytes32",
          "name": "role",
          "type": "bytes32"
        },
        {
          "internalType": "address",
          "name": "account",
          "type": "address"
        }
      ],
      "name": "hasRole",
      "outputs": [
        {
          "internalType": "bool",
          "name": "",
          "type": "bool"
        }
      ],
      "stateMutability": "view",
      "type": "function"
    },
    {
      "inputs": [
        {
          "internalType": "address",
          "name": "owner",
          "type": "address"
        },
        {
          "internalType": "address",
          "name": "operator",
          "type": "address"
        }
      ],
      "name": "isApprovedForAll",
      "outputs": [
        {
          "internalType": "bool",
          "name": "",
          "type": "bool"
        }
      ],
      "stateMutability": "view",
      "type": "function"
    },
    {
      "inputs": [],
      "name": "name",
      "outputs": [
        {
          "internalType": "string",
          "name": "",
          "type": "string"
        }
      ],
      "stateMutability": "view",
      "type": "function"
    },
    {
      "inputs": [],
      "name": "net",
      "outputs": [
        {
          "internalType": "contract NetEmissionsTokenNetwork",
          "name": "",
          "type": "address"
        }
      ],
      "stateMutability": "view",
      "type": "function"
    },
    {
      "inputs": [],
      "name": "netAddress",
      "outputs": [
        {
          "internalType": "address",
          "name": "",
          "type": "address"
        }
      ],
      "stateMutability": "view",
      "type": "function"
    },
    {
      "inputs": [
        {
          "internalType": "address",
          "name": "",
          "type": "address"
        },
        {
          "internalType": "address",
          "name": "",
          "type": "address"
        },
        {
          "internalType": "uint256[]",
          "name": "",
          "type": "uint256[]"
        },
        {
          "internalType": "uint256[]",
          "name": "",
          "type": "uint256[]"
        },
        {
          "internalType": "bytes",
          "name": "",
          "type": "bytes"
        }
      ],
      "name": "onERC1155BatchReceived",
      "outputs": [
        {
          "internalType": "bytes4",
          "name": "",
          "type": "bytes4"
        }
      ],
      "stateMutability": "nonpayable",
      "type": "function"
    },
    {
      "inputs": [
        {
          "internalType": "address",
          "name": "",
          "type": "address"
        },
        {
          "internalType": "address",
          "name": "",
          "type": "address"
        },
        {
          "internalType": "uint256",
          "name": "",
          "type": "uint256"
        },
        {
          "internalType": "uint256",
          "name": "",
          "type": "uint256"
        },
        {
          "internalType": "bytes",
          "name": "",
          "type": "bytes"
        }
      ],
      "name": "onERC1155Received",
      "outputs": [
        {
          "internalType": "bytes4",
          "name": "",
          "type": "bytes4"
        }
      ],
      "stateMutability": "nonpayable",
      "type": "function"
    },
    {
      "inputs": [
        {
          "internalType": "uint256",
          "name": "tokenId",
          "type": "uint256"
        }
      ],
      "name": "ownerOf",
      "outputs": [
        {
          "internalType": "address",
          "name": "",
          "type": "address"
        }
      ],
      "stateMutability": "view",
      "type": "function"
    },
    {
      "inputs": [
        {
          "internalType": "uint256",
          "name": "",
          "type": "uint256"
        },
        {
          "internalType": "address",
          "name": "",
          "type": "address"
        }
      ],
      "name": "productBalance",
      "outputs": [
        {
          "internalType": "uint256",
          "name": "",
          "type": "uint256"
        }
      ],
      "stateMutability": "view",
      "type": "function"
    },
    {
      "inputs": [
        {
          "internalType": "uint256",
          "name": "trackerId",
          "type": "uint256"
        },
        {
          "internalType": "uint256[]",
          "name": "productIds",
          "type": "uint256[]"
        },
        {
          "internalType": "uint256[]",
          "name": "productAmounts",
          "type": "uint256[]"
        },
        {
          "internalType": "string[]",
          "name": "productNames",
          "type": "string[]"
        },
        {
          "internalType": "string[]",
          "name": "productUnits",
          "type": "string[]"
        },
        {
          "internalType": "uint256[]",
          "name": "productUnitAmounts",
          "type": "uint256[]"
        }
      ],
      "name": "productsUpdate",
      "outputs": [],
      "stateMutability": "nonpayable",
      "type": "function"
    },
    {
      "inputs": [
        {
          "internalType": "address",
          "name": "tracker",
          "type": "address"
        }
      ],
      "name": "registerTracker",
      "outputs": [],
      "stateMutability": "nonpayable",
      "type": "function"
    },
    {
      "inputs": [
        {
          "internalType": "uint256",
          "name": "trackerId",
          "type": "uint256"
        }
      ],
      "name": "removeAudit",
      "outputs": [],
      "stateMutability": "nonpayable",
      "type": "function"
    },
    {
      "inputs": [
        {
          "internalType": "bytes32",
          "name": "role",
          "type": "bytes32"
        },
        {
          "internalType": "address",
          "name": "account",
          "type": "address"
        }
      ],
      "name": "renounceRole",
      "outputs": [],
      "stateMutability": "nonpayable",
      "type": "function"
    },
    {
      "inputs": [
        {
          "internalType": "bytes32",
          "name": "role",
          "type": "bytes32"
        },
        {
          "internalType": "address",
          "name": "account",
          "type": "address"
        }
      ],
      "name": "revokeRole",
      "outputs": [],
      "stateMutability": "nonpayable",
      "type": "function"
    },
    {
      "inputs": [
        {
          "internalType": "address",
          "name": "from",
          "type": "address"
        },
        {
          "internalType": "address",
          "name": "to",
          "type": "address"
        },
        {
          "internalType": "uint256",
          "name": "tokenId",
          "type": "uint256"
        }
      ],
      "name": "safeTransferFrom",
      "outputs": [],
      "stateMutability": "nonpayable",
      "type": "function"
    },
    {
      "inputs": [
        {
          "internalType": "address",
          "name": "from",
          "type": "address"
        },
        {
          "internalType": "address",
          "name": "to",
          "type": "address"
        },
        {
          "internalType": "uint256",
          "name": "tokenId",
          "type": "uint256"
        },
        {
          "internalType": "bytes",
          "name": "data",
          "type": "bytes"
        }
      ],
      "name": "safeTransferFrom",
      "outputs": [],
      "stateMutability": "nonpayable",
      "type": "function"
    },
    {
      "inputs": [
        {
          "internalType": "address",
          "name": "operator",
          "type": "address"
        },
        {
          "internalType": "bool",
          "name": "approved",
          "type": "bool"
        }
      ],
      "name": "setApprovalForAll",
      "outputs": [],
      "stateMutability": "nonpayable",
      "type": "function"
    },
    {
      "inputs": [
        {
          "internalType": "bytes4",
          "name": "interfaceId",
          "type": "bytes4"
        }
      ],
      "name": "supportsInterface",
      "outputs": [
        {
          "internalType": "bool",
          "name": "",
          "type": "bool"
        }
      ],
      "stateMutability": "view",
      "type": "function"
    },
    {
      "inputs": [],
      "name": "symbol",
      "outputs": [
        {
          "internalType": "string",
          "name": "",
          "type": "string"
        }
      ],
      "stateMutability": "view",
      "type": "function"
    },
    {
      "inputs": [
        {
          "internalType": "uint256",
          "name": "tokenId",
          "type": "uint256"
        }
      ],
      "name": "tokenURI",
      "outputs": [
        {
          "internalType": "string",
          "name": "",
          "type": "string"
        }
      ],
      "stateMutability": "view",
      "type": "function"
    },
    {
      "inputs": [
        {
          "internalType": "address",
          "name": "issuedTo",
          "type": "address"
        },
        {
          "internalType": "address",
          "name": "trackee",
          "type": "address"
        },
        {
          "internalType": "uint256[]",
          "name": "tokenIds",
          "type": "uint256[]"
        },
        {
          "internalType": "uint256[]",
          "name": "tokenAmounts",
          "type": "uint256[]"
        },
        {
          "internalType": "uint256",
          "name": "fromDate",
          "type": "uint256"
        },
        {
          "internalType": "uint256",
          "name": "thruDate",
          "type": "uint256"
        },
        {
          "internalType": "string",
          "name": "description",
          "type": "string"
        },
        {
          "internalType": "string",
          "name": "metadata",
          "type": "string"
        }
      ],
      "name": "track",
      "outputs": [],
      "stateMutability": "nonpayable",
      "type": "function"
    },
    {
      "inputs": [
        {
          "internalType": "uint256",
          "name": "trackerId",
          "type": "uint256"
        },
        {
          "internalType": "uint256",
          "name": "sourceTrackerId",
          "type": "uint256"
        },
        {
          "internalType": "uint256",
          "name": "productId",
          "type": "uint256"
        },
        {
          "internalType": "uint256",
          "name": "productAmount",
          "type": "uint256"
        }
      ],
      "name": "trackProduct",
      "outputs": [],
      "stateMutability": "nonpayable",
      "type": "function"
    },
    {
      "inputs": [
        {
          "internalType": "uint256",
          "name": "trackerId",
          "type": "uint256"
        },
        {
          "internalType": "uint256[]",
          "name": "tokenIds",
          "type": "uint256[]"
        },
        {
          "internalType": "uint256[]",
          "name": "tokenAmounts",
          "type": "uint256[]"
        },
        {
          "internalType": "uint256",
          "name": "fromDate",
          "type": "uint256"
        },
        {
          "internalType": "uint256",
          "name": "thruDate",
          "type": "uint256"
        },
        {
          "internalType": "string",
          "name": "description",
          "type": "string"
        },
        {
          "internalType": "string",
          "name": "metadata",
          "type": "string"
        }
      ],
      "name": "trackUpdate",
      "outputs": [],
      "stateMutability": "nonpayable",
      "type": "function"
    },
    {
      "inputs": [
        {
          "internalType": "address",
          "name": "from",
          "type": "address"
        },
        {
          "internalType": "address",
          "name": "to",
          "type": "address"
        },
        {
          "internalType": "uint256",
          "name": "tokenId",
          "type": "uint256"
        }
      ],
      "name": "transferFrom",
      "outputs": [],
      "stateMutability": "nonpayable",
      "type": "function"
    },
    {
      "inputs": [
        {
          "internalType": "uint256",
          "name": "productId",
          "type": "uint256"
        },
        {
          "internalType": "uint256",
          "name": "productAmount",
          "type": "uint256"
        },
        {
          "internalType": "address",
          "name": "trackee",
          "type": "address"
        }
      ],
      "name": "transferProduct",
      "outputs": [],
      "stateMutability": "nonpayable",
      "type": "function"
    },
    {
      "inputs": [
        {
          "internalType": "uint256",
          "name": "trackerId",
          "type": "uint256"
        },
        {
          "internalType": "uint256",
          "name": "productId",
          "type": "uint256"
        },
        {
          "internalType": "string",
          "name": "unit",
          "type": "string"
        },
        {
          "internalType": "uint256",
          "name": "unitAmount",
          "type": "uint256"
        },
        {
          "internalType": "bytes",
          "name": "signature",
          "type": "bytes"
        }
      ],
      "name": "verifyUnitSignature",
      "outputs": [
        {
          "internalType": "bool",
          "name": "",
          "type": "bool"
        }
      ],
      "stateMutability": "view",
      "type": "function"
    }
  ],
  "bytecode": "0x60806040523480156200001157600080fd5b5060405162005cb638038062005cb6833981016040819052620000349162000266565b6040805160208082018084526000808452845192830190945283825282519293919262000063929190620001a3565b50805162000079906001906020840190620001a3565b5050600780546001600160a01b0385166001600160a01b0319918216811790925560088054909116909117905550620f4240601155620000bb600082620000ef565b620000e77f4f9730948b73761de8f37a0aea1760c5eef658d37d8c456767b81e17c01f30ed82620000ef565b5050620002da565b620000fb8282620000ff565b5050565b60008281526006602090815260408083206001600160a01b038516845290915290205460ff16620000fb5760008281526006602090815260408083206001600160a01b03851684529091529020805460ff191660011790556200015f3390565b6001600160a01b0316816001600160a01b0316837f2f8788117e7eff1d82e926ec794901d17c78024a50270940304540a733656f0d60405160405180910390a45050565b828054620001b1906200029d565b90600052602060002090601f016020900481019282620001d5576000855562000220565b82601f10620001f057805160ff191683800117855562000220565b8280016001018555821562000220579182015b828111156200022057825182559160200191906001019062000203565b506200022e92915062000232565b5090565b5b808211156200022e576000815560010162000233565b80516001600160a01b03811681146200026157600080fd5b919050565b6000806040838503121562000279578182fd5b620002848362000249565b9150620002946020840162000249565b90509250929050565b600181811c90821680620002b257607f821691505b60208210811415620002d457634e487b7160e01b600052602260045260246000fd5b50919050565b6159cc80620002ea6000396000f3fe608060405234801561001057600080fd5b50600436106103275760003560e01c80637c7768d6116101b8578063bc197c8111610104578063d547741f116100a2578063e985e9c51161007c578063e985e9c51461078e578063ecc3356a146107ca578063f23a6e61146107dd578063f2600e4e146107fc57610327565b8063d547741f14610755578063e28a148f14610768578063e54a96461461077b57610327565b8063cdec8358116100de578063cdec835814610709578063cf2f46641461071c578063d0b124b61461072f578063d0c9e6e21461074257610327565b8063bc197c81146106ab578063c2fff4a5146106e3578063c87b56dd146106f657610327565b8063a22cb46511610171578063a7d6619d1161014b578063a7d6619d1461065f578063b173e57014610672578063b88d4fde14610685578063b9531f211461069857610327565b8063a22cb46514610631578063a23ccfe814610644578063a2ce6a791461064c57610327565b80637c7768d6146105bd57806381d5f7f6146105c55780638a59a935146105ec57806391d148541461060e57806395d89b4114610621578063a217fddf1461062957610327565b80633abb340f1161027757806357991d30116102305780635e7231c31161020a5780635e7231c3146105565780636352211e146105695780636813b53b1461057c57806370a08231146105aa57610327565b806357991d301461050a578063594d46051461052a5780635ad25ac81461053457610327565b80633abb340f146104805780633b4e06e6146104a65780633b8470b0146104c757806340e6c970146104da57806342842e0e146104e45780634a7b0d0c146104f757610327565b80630d20c4bc116102e4578063248a9ca3116102be578063248a9ca31461040c5780632f2ff15d1461042f578063330dffec1461044257806336568abe1461046d57610327565b80630d20c4bc146103d35780631856f262146103e657806323b872dd146103f957610327565b806301ffc9a71461032c57806306fdde03146103545780630709cf3a14610369578063081812fc14610380578063095ea7b3146103ab5780630b71d18b146103c0575b600080fd5b61033f61033a366004614f88565b61080f565b60405190151581526020015b60405180910390f35b61035c61083c565b60405161034b91906154e7565b61037260115481565b60405190815260200161034b565b61039361038e366004614f36565b6108ce565b6040516001600160a01b03909116815260200161034b565b6103be6103b9366004614ef1565b6108f5565b005b6103726103ce366004614f36565b610a10565b6103be6103e1366004614cdd565b610a30565b6103be6103f4366004614bec565b610aad565b6103be610407366004614db9565b610ca5565b61037261041a366004614f36565b60009081526006602052604090206001015490565b6103be61043d366004614f66565b610cd6565b610372610450366004614f66565b600f60209081526000928352604080842090915290825290205481565b6103be61047b366004614f66565b610cfb565b61049361048e366004614f36565b610d79565b60405161034b979695949392919061577a565b6104b96104b4366004614f36565b610ed0565b60405161034b929190615480565b6103be6104d5366004615287565b61101c565b600c546103729081565b6103be6104f2366004614db9565b6111f3565b6103be610505366004615093565b61120e565b61051d610518366004614f36565b611281565b60405161034b919061546d565b600d546103729081565b610547610542366004614f36565b6112e3565b60405161034b939291906154fa565b6103be610564366004615157565b6114c7565b610393610577366004614f36565b611563565b61058f61058a366004614f36565b6115c3565b6040805193845260208401929092529082015260600161034b565b6103726105b8366004614bec565b611763565b6103726117e9565b6103727f4f9730948b73761de8f37a0aea1760c5eef658d37d8c456767b81e17c01f30ed81565b6105ff6105fa366004614f36565b6117f9565b60405161034b93929190615688565b61033f61061c366004614f66565b611aa8565b61035c611ad5565b610372600081565b6103be61063f366004614ebb565b611ae4565b610372611aef565b61037261065a3660046151cf565b611afa565b6103be61066d366004614ebb565b611b35565b6103be610680366004614f36565b611df4565b6103be610693366004614df4565b611e79565b61051d6106a6366004614f36565b611eb1565b6106ca6106b9366004614c38565b63bc197c8160e01b95945050505050565b6040516001600160e01b0319909116815260200161034b565b600754610393906001600160a01b031681565b61035c610704366004614f36565b611f14565b610372610717366004614f36565b611f88565b6103be61072a366004614fc0565b611fd5565b61033f61073d366004615224565b61262a565b610372610750366004614f66565b6126ec565b6103be610763366004614f66565b612785565b6103be61077636600461519b565b6127aa565b600854610393906001600160a01b031681565b61033f61079c366004614c06565b6001600160a01b03918216600090815260056020908152604080832093909416825291909152205460ff1690565b6103be6107d8366004614f36565b61298d565b6106ca6107eb366004614e59565b63f23a6e6160e01b95945050505050565b6104b961080a366004614f36565b6129d5565b60006001600160e01b03198216637965db0b60e01b1480610834575061083482612b15565b90505b919050565b60606000805461084b906158cc565b80601f0160208091040260200160405190810160405280929190818152602001828054610877906158cc565b80156108c45780601f10610899576101008083540402835291602001916108c4565b820191906000526020600020905b8154815290600101906020018083116108a757829003601f168201915b5050505050905090565b60006108d982612b3a565b506000908152600460205260409020546001600160a01b031690565b600061090082611563565b9050806001600160a01b0316836001600160a01b031614156109735760405162461bcd60e51b815260206004820152602160248201527f4552433732313a20617070726f76616c20746f2063757272656e74206f776e656044820152603960f91b60648201526084015b60405180910390fd5b336001600160a01b038216148061098f575061098f813361079c565b610a015760405162461bcd60e51b815260206004820152603e60248201527f4552433732313a20617070726f76652063616c6c6572206973206e6f7420746f60448201527f6b656e206f776e6572206e6f7220617070726f76656420666f7220616c6c0000606482015260840161096a565b610a0b8383612b9c565b505050565b6000818152600a6020526040812081610a2882612c0a565b949350505050565b6000610a3b88612e4c565b9050610a4b898260000154612eb5565b8415610a5957600481018590555b8315610a6757600581018490555b825115610a85578251610a8390600a83019060208601906149f4565b505b865115610aa157610a9b81888888888888612ff8565b50610aa3565b505b5050505050505050565b806001600160a01b038116331480610bba5750600754604080516376ce475560e01b815290516001600160a01b03909216916391d148549183916376ce475591600480820192602092909190829003018186803b158015610b0d57600080fd5b505afa158015610b21573d6000803e3d6000fd5b505050506040513d601f19601f82011682018060405250810190610b459190614f4e565b6040516001600160e01b031960e084901b168152600481019190915233602482015260440160206040518083038186803b158015610b8257600080fd5b505afa158015610b96573d6000803e3d6000fd5b505050506040513d601f19601f82011682018060405250810190610bba9190614f1a565b610c435760405162461bcd60e51b815260206004820152604e60248201527f434c4d383a3a73656c664f7241756469746f723a206d73672e73656e6465722060448201527f646f6573206e6f74206f776e20746869732061646472657373206f722069732060648201526d3737ba1030b71030bab234ba37b960911b608482015260a40161096a565b610c6d7f4f9730948b73761de8f37a0aea1760c5eef658d37d8c456767b81e17c01f30ed83613668565b6040516001600160a01b038316907fef8ce2b8e324ee947b09d9cf7f74e5589078af3a3e3f5266e9752c8284e4cd8790600090a25050565b610caf3382613672565b610ccb5760405162461bcd60e51b815260040161096a906155ec565b610a0b8383836136f0565b600082815260066020526040902060010154610cf18161388c565b610a0b8383613896565b6001600160a01b0381163314610d6b5760405162461bcd60e51b815260206004820152602f60248201527f416363657373436f6e74726f6c3a2063616e206f6e6c792072656e6f756e636560448201526e103937b632b9903337b91039b2b63360891b606482015260840161096a565b610d75828261391c565b5050565b600b602052600090815260409020805460018201546002830154600384015460048501805494956001600160a01b039094169492939192610db9906158cc565b80601f0160208091040260200160405190810160405280929190818152602001828054610de5906158cc565b8015610e325780601f10610e0757610100808354040283529160200191610e32565b820191906000526020600020905b815481529060010190602001808311610e1557829003601f168201915b505050505090806005018054610e47906158cc565b80601f0160208091040260200160405190810160405280929190818152602001828054610e73906158cc565b8015610ec05780601f10610e9557610100808354040283529160200191610ec0565b820191906000526020600020905b815481529060010190602001808311610ea357829003601f168201915b5050505050908060060154905087565b6000818152600a60209081526040808320805482518185028101850190935280835260609485949293909290918491830182828015610f2e57602002820191906000526020600020905b815481526020019060010190808311610f1a575b50505050509050600081516001600160401b03811115610f5e57634e487b7160e01b600052604160045260246000fd5b604051908082528060200260200182016040528015610f87578160200160208202803683370190505b50905060005b825181101561101057836002016000848381518110610fbc57634e487b7160e01b600052603260045260246000fd5b6020026020010151815260200190815260200160002054828281518110610ff357634e487b7160e01b600052603260045260246000fd5b60209081029190910101528061100881615901565b915050610f8d565b50909350915050915091565b60008481526009602052604090206002015484906001600160a01b0316156110565760405162461bcd60e51b815260040161096a9061563a565b61105f85613983565b61106985336139f9565b6000838152600b60205260409020548514156111025760405162461bcd60e51b815260206004820152604c60248201527f434c4d383a3a747261636b50726f647563743a2070726f64756374277320747260448201527f61636b657249642063616e206e6f74206265207468652073616d65206173207460648201526b1a19481d1c9858dad95c925960a21b608482015260a40161096a565b6000838152600f6020908152604080832033845290915290205482106111a25760405162461bcd60e51b815260206004820152604960248201527f434c4d383a3a747261636b50726f647563743a2070726f64756374416d6f756e60448201527f7420657863656564732070726f647563747320617661696c61626c6520666f72606482015268103a3930b739b332b960b91b608482015260a40161096a565b6000838152600f602090815260408083203384529091529020546111c69083613ab0565b6000848152600f602090815260408083203384529091529020556111ec85858585613abc565b5050505050565b610a0b83838360405180602001604052806000815250611e79565b60008781526009602052604090206002015487906001600160a01b0316156112485760405162461bcd60e51b815260040161096a9061563a565b8761125281613983565b6000898152600960205260409020426008820155611275818a8a8a8a8a8a612ff8565b50505050505050505050565b6000818152600a60209081526040918290208054835181840281018401909452808452606093928301828280156112d757602002820191906000526020600020905b8154815260200190600101908083116112c3575b50505050509050919050565b606060006060600080600b60008781526020019081526020016000206040518060e0016040529081600082015481526020016001820160009054906101000a90046001600160a01b03166001600160a01b03166001600160a01b031681526020016002820154815260200160038201548152602001600482018054611367906158cc565b80601f0160208091040260200160405190810160405280929190818152602001828054611393906158cc565b80156113e05780601f106113b5576101008083540402835291602001916113e0565b820191906000526020600020905b8154815290600101906020018083116113c357829003601f168201915b505050505081526020016005820180546113f9906158cc565b80601f0160208091040260200160405190810160405280929190818152602001828054611425906158cc565b80156114725780601f1061144757610100808354040283529160200191611472565b820191906000526020600020905b81548152906001019060200180831161145557829003601f168201915b5050505050815260200160068201548152505090506114ae81604001516114a86011548460c00151613e1990919063ffffffff16565b90613e25565b608082015160a090920151919790965090945092505050565b80821015610d755760405162461bcd60e51b815260206004820152605860248201527f434c4d383a3a5f766572696679546f74616c547261636b65643a20746f74616c60448201527f20616d6f756e7420747261636b65642065786365656473206f7574707574206f60648201527f6620746f6b656e49642066726f6d20747261636b657249640000000000000000608482015260a40161096a565b6000818152600260205260408120546001600160a01b0316806108345760405162461bcd60e51b8152602060048201526018602482015277115490cdcc8c4e881a5b9d985b1a59081d1bdad95b88125160421b604482015260640161096a565b6000818152600b60209081526040808320815160e0810183528154815260018201546001600160a01b03169381019390935260028101549183019190915260038101546060830152600481018054849384938493919290916080840191611629906158cc565b80601f0160208091040260200160405190810160405280929190818152602001828054611655906158cc565b80156116a25780601f10611677576101008083540402835291602001916116a2565b820191906000526020600020905b81548152906001019060200180831161168557829003601f168201915b505050505081526020016005820180546116bb906158cc565b80601f01602080910402602001604051908101604052809291908181526020018280546116e7906158cc565b80156117345780601f1061170957610100808354040283529160200191611734565b820191906000526020600020905b81548152906001019060200180831161171757829003601f168201915b505050918352505060069190910154602090910152805160408201516060909201519097919650945092505050565b60006001600160a01b0382166117cd5760405162461bcd60e51b815260206004820152602960248201527f4552433732313a2061646472657373207a65726f206973206e6f7420612076616044820152683634b21037bbb732b960b91b606482015260840161096a565b506001600160a01b031660009081526003602052604090205490565b60006117f4600c5490565b905090565b6118716040518061016001604052806000815260200160006001600160a01b0316815260200160006001600160a01b0316815260200160008152602001600081526020016000815260200160006001600160a01b03168152602001600081526020016000815260200160608152602001606081525090565b6000828152600960209081526040808320600a909252822060609190600381018461189b83612c0a565b60408051610160810182528654815260018701546001600160a01b03908116602083015260028801548116928201929092526003870154606082015260048701546080820152600587015460a0820152600687015490911660c0820152600786015460e082015260088601546101008201526009860180549293508692849286929091859161012084019161192f906158cc565b80601f016020809104026020016040519081016040528092919081815260200182805461195b906158cc565b80156119a85780601f1061197d576101008083540402835291602001916119a8565b820191906000526020600020905b81548152906001019060200180831161198b57829003601f168201915b50505050508152602001600a820180546119c1906158cc565b80601f01602080910402602001604051908101604052809291908181526020018280546119ed906158cc565b8015611a3a5780601f10611a0f57610100808354040283529160200191611a3a565b820191906000526020600020905b815481529060010190602001808311611a1d57829003601f168201915b505050505081525050925080805480602002602001604051908101604052809291908181526020018280548015611a9057602002820191906000526020600020905b815481526020019060010190808311611a7c575b50505050509050965096509650505050509193909250565b60008281526006602090815260408083206001600160a01b038516845290915290205460ff165b92915050565b60606001805461084b906158cc565b610d75338383613e31565b60006117f4600d5490565b60003085858585604051602001611b1595949392919061533f565b604051602081830303815290604052805190602001209050949350505050565b33611b607f4f9730948b73761de8f37a0aea1760c5eef658d37d8c456767b81e17c01f30ed82611aa8565b611bcb5760405162461bcd60e51b815260206004820152603660248201527f434c4d383a3a72656769737465726564547261636b65723a20746865206164646044820152751c995cdcc81a5cc81b9bdd081c9959da5cdd195c995960521b606482015260840161096a565b6007546040516349b9055760e01b81526001600160a01b038581166004830152909116906349b905579060240160206040518083038186803b158015611c1057600080fd5b505afa158015611c24573d6000803e3d6000fd5b505050506040513d601f19601f82011682018060405250810190611c489190614f1a565b80611c51575081155b611cd15760405162461bcd60e51b8152602060048201526044602482018190527f434c4d383a3a617070726f766556657269666965723a20616464726573732069908201527f73206e6f742061207265676973746572656420656d697373696f6e732061756460648201526334ba37b960e11b608482015260a40161096a565b6001600160a01b038316331415611d465760405162461bcd60e51b815260206004820152603360248201527f434c4d383a3a617070726f766556657269666965723a2061756469746f72206360448201527230b73737ba1031329036b9b39739b2b73232b960691b606482015260840161096a565b6001600160a01b03831660009081526010602090815260408083203384529091529020805460ff19168315801591909117909155611db95760405133906001600160a01b038516907ff31635902a304a612155085cc8916b9ab86fc115155b10b33980f6cb8165c54e90600090a3610a0b565b60405133906001600160a01b038516907f490861baee43b8ebd28f134f99c0aa7848888c4bde402256ad4cf455d147aed690600090a3505050565b60008181526009602052604090206002015481906001600160a01b031615611e2e5760405162461bcd60e51b815260040161096a9061563a565b6000828152600960205260409020600101548290611e54906001600160a01b0316613f00565b5050600090815260096020526040902060020180546001600160a01b03191633179055565b611e833383613672565b611e9f5760405162461bcd60e51b815260040161096a906155ec565b611eab84848484613f89565b50505050565b6000818152600a60209081526040918290206005018054835181840281018401909452808452606093928301828280156112d757602002820191906000526020600020908154815260200190600101908083116112c35750505050509050919050565b6060611f1f82612b3a565b6000611f3660408051602081019091526000815290565b90506000815111611f565760405180602001604052806000815250611f81565b80611f6084613fbc565b604051602001611f7192919061538c565b6040516020818303038152906040525b9392505050565b6000818152600960205260408120600381015415611fc557611fbd81600301546114a8601154611fb787610a10565b90613e19565b915050610837565b6000915050610837565b50919050565b60008681526009602052604090206002015486906001600160a01b03161561200f5760405162461bcd60e51b815260040161096a9061563a565b8661201981613983565b600088815260096020526040902060010154889061203f906001600160a01b0316613f00565b600089815260096020526040902088518851146120d85760405162461bcd60e51b815260206004820152604b60248201527f434c4d383a3a70726f64756374735570646174653a2070726f64756374416d6f60448201527f756e747320616e642070726f6475637449647320617265206e6f74207468652060648201526a0e6c2daca40d8cadccee8d60ab1b608482015260a40161096a565b88518751146121615760405162461bcd60e51b815260206004820152604960248201527f434c4d383a3a70726f64756374735570646174653a2070726f647563744e616d60448201527f657320616e642070726f6475637449647320617265206e6f74207468652073616064820152680daca40d8cadccee8d60bb1b608482015260a40161096a565b88518551146121825760405162461bcd60e51b815260040161096a90615525565b88518651146121a35760405162461bcd60e51b815260040161096a90615525565b6000805b8a518110156125e05760008b82815181106121d257634e487b7160e01b600052603260045260246000fd5b6020026020010151111561237a578a818151811061220057634e487b7160e01b600052603260045260246000fd5b602002602001015191508b600b60008481526020019081526020016000206000015414612297576040805162461bcd60e51b81526020600482015260248101919091527f434c4d383a3a70726f64756374735570646174653a2070726f6475637449647360448201527f5b695d20646f6573206e6f742062656c6f6e6720746f20747261636b65724964606482015260840161096a565b6122d58a82815181106122ba57634e487b7160e01b600052603260045260246000fd5b60200260200101518460030154613ab090919063ffffffff16565b60038401556000828152600b60205260409020600101546001600160a01b031633146123755760405162461bcd60e51b815260206004820152604360248201527f434c4d383a3a70726f64756374735570646174653a206d73672e73656e64657260448201527f206973206e6f74207468652061756469746f72206f6620746869732070726f646064820152621d58dd60ea1b608482015260a40161096a565b612421565b612388600d80546001019055565b600d5491508b600b60008481526020019081526020016000206000018190555033600b600084815260200190815260200160002060010160006101000a8154816001600160a01b0302191690836001600160a01b03160217905550600a60008d81526020019081526020016000206003018290806001815401808255809150506001900390600052602060002001600090919091909150555b88818151811061244157634e487b7160e01b600052603260045260246000fd5b6020026020010151600b600084815260200190815260200160002060040190805190602001906124729291906149f4565b5086818151811061249357634e487b7160e01b600052603260045260246000fd5b6020026020010151600b6000848152602001908152602001600020600601819055508781815181106124d557634e487b7160e01b600052603260045260246000fd5b6020026020010151600b600084815260200190815260200160002060050190805190602001906125069291906149f4565b5089818151811061252757634e487b7160e01b600052603260045260246000fd5b6020026020010151600b60008481526020019081526020016000206002018190555089818151811061256957634e487b7160e01b600052603260045260246000fd5b6020026020010151600b6000848152602001908152602001600020600301819055506125c98a82815181106125ae57634e487b7160e01b600052603260045260246000fd5b602002602001015184600301546140d690919063ffffffff16565b6003840155806125d881615901565b9150506121a7565b5081546040517fcae18be6040b3a94c418e2e09d130e25f25a0069beec7edc902c803cf7f61ebf90612615908d908d90615480565b60405180910390a25050505050505050505050565b600085612636816140e2565b8661264081613983565b6000878152600b60205260408120600101546001600160a01b0316906126be61266b8b8b8b8b611afa565b6040517f19457468657265756d205369676e6564204d6573736167653a0a3332000000006020820152603c8101829052600090605c01604051602081830303815290604052805190602001209050919050565b90506001600160a01b0382166126d4828861415c565b6001600160a01b0316149a9950505050505050505050565b6000828152600b602052604081205461270490611563565b6001600160a01b0316826001600160a01b0316141561275c576000838152600b6020908152604080832060030154600f83528184206001600160a01b038716855290925290912054612755916140d6565b9050611acf565b506000918252600f602090815260408084206001600160a01b0393909316845291905290205490565b6000828152600660205260409020600101546127a08161388c565b610a0b838361391c565b6000838152600b6020526040812080549091906127c690611563565b6001600160a01b0316336001600160a01b031614156127f15781546127ea906140e2565b5060038101545b6000858152600f6020908152604080832033845290915281205461281590836140d6565b90508481116128a65760405162461bcd60e51b815260206004820152605160248201527f434c4d383a3a7472616e7366657250726f647563743a2070726f64756374416d60448201527f6f756e7420657863656564732070726f6475637420617661696c61626c6520696064820152701b881cdbdd5c98d9551c9858dad95c9259607a1b608482015260a40161096a565b600082156128e857828611156128ce576128c08387615872565b6000600386015590506128e3565b60038401546128dd9087613ab0565b60038501555b6128eb565b50845b8015612930576000878152600f602090815260408083203384529091529020546129159082613ab0565b6000888152600f602090815260408083203384529091529020555b6000878152600f602090815260408083206001600160a01b038916845290915290205461295d90876140d6565b6000978852600f60209081526040808a206001600160a01b039098168a5296905294909620939093555050505050565b60008181526009602052604090206001015481906129b3906001600160a01b0316613f00565b50600090815260096020526040902060020180546001600160a01b0319169055565b6000818152600a60209081526040808320805482518185028101850190935280835260609485949293909290918491830182828015612a3357602002820191906000526020600020905b815481526020019060010190808311612a1f575b50505050509050600081516001600160401b03811115612a6357634e487b7160e01b600052604160045260246000fd5b604051908082528060200260200182016040528015612a8c578160200160208202803683370190505b50905060005b825181101561101057836002016000848381518110612ac157634e487b7160e01b600052603260045260246000fd5b6020026020010151815260200190815260200160002054828281518110612af857634e487b7160e01b600052603260045260246000fd5b602090810291909101015280612b0d81615901565b915050612a92565b60006001600160e01b03198216630271189760e51b1480610834575061083482614180565b6000818152600260205260409020546001600160a01b0316612b995760405162461bcd60e51b8152602060048201526018602482015277115490cdcc8c4e881a5b9d985b1a59081d1bdad95b88125160421b604482015260640161096a565b50565b600081815260046020526040902080546001600160a01b0319166001600160a01b0384169081179091558190612bd182611563565b6001600160a01b03167f8c5be1e5ebec7d5bd14f71427d1e84f3dd0314c0f7b2291e5b200ac8c7c3b92560405160405180910390a45050565b60008181805b8254811015612c7f57612c6b856002016000858481548110612c4257634e487b7160e01b600052603260045260246000fd5b9060005260206000200154815260200190815260200160002054836140d690919063ffffffff16565b915080612c7781615901565b915050612c10565b506060600085600501805480602002602001604051908101604052809291908181526020018280548015612cd257602002820191906000526020600020905b815481526020019060010190808311612cbe575b50505050509050600080600090505b8251811015612e4057876007016000848381518110612d1057634e487b7160e01b600052603260045260246000fd5b60200260200101518152602001908152602001600020915081600001805480602002602001604051908101604052809291908181526020018280548015612d7657602002820191906000526020600020905b815481526020019060010190808311612d62575b50505050509350600080600090505b8551811015612e2b57836002016000878381518110612db457634e487b7160e01b600052603260045260246000fd5b60200260200101518152602001908152602001600020549150612e17612e106011546114a8612e09898881518110612dfc57634e487b7160e01b600052603260045260246000fd5b6020026020010151611f88565b8690613e19565b88906140d6565b965080612e2381615901565b915050612d85565b50508080612e3890615901565b915050612ce1565b50929695505050505050565b6000612e5c600c80546001019055565b6000612e67600c5490565b60008181526009602052604090209081556006810180546001600160a01b031990811633179091556001820180546001600160a01b0387169216919091179055426007820155915050919050565b6001600160a01b038216612f0b5760405162461bcd60e51b815260206004820181905260248201527f4552433732313a206d696e7420746f20746865207a65726f2061646472657373604482015260640161096a565b6000818152600260205260409020546001600160a01b031615612f705760405162461bcd60e51b815260206004820152601c60248201527f4552433732313a20746f6b656e20616c7265616479206d696e74656400000000604482015260640161096a565b6001600160a01b0382166000908152600360205260408120805460019290612f99908490615827565b909155505060008181526002602052604080822080546001600160a01b0319166001600160a01b03861690811790915590518392907fddf252ad1be2c89b69c2b068fc378daa952ba7f163c4a11628f55a4df523b3ef908290a4610d75565b865460075460008281526009602052604090819020600101549051633e612c8d60e21b81526001600160a01b03918216600482015291169063f984b2349060240160206040518083038186803b15801561305157600080fd5b505afa158015613065573d6000803e3d6000fd5b505050506040513d601f19601f820116820180604052508101906130899190614f1a565b6130fb5760405162461bcd60e51b815260206004820152603760248201527f434c4d383a3a72656769737465726564496e6475737472793a2074686520616460448201527f6472657373206973206e6f742072656769737465726564000000000000000000606482015260840161096a565b6001880154613112906001600160a01b0316613f00565b841561312057600488018590555b831561312e57600588018490555b81511561314c57815161314a9060098a019060208501906149f4565b505b82511561316a57825161316890600a8a019060208601906149f4565b505b86518651146131ef5760405162461bcd60e51b815260206004820152604560248201527f434c4d383a3a5f747261636b546f6b656e733a20746f6b656e416d6f756e747360448201527f20616e6420746f6b656e49647320617265206e6f74207468652073616d65206c6064820152640cadccee8d60db1b608482015260a40161096a565b87546000908152600a60205260408120905b88518110156136195760075489516000916001600160a01b031690637f157c9b9030908d908690811061324457634e487b7160e01b600052603260045260246000fd5b60200260200101516040518363ffffffff1660e01b815260040161327d9291906001600160a01b03929092168252602082015260400190565b604080518083038186803b15801561329457600080fd5b505afa1580156132a8573d6000803e3d6000fd5b505050506040513d601f19601f820116820180604052508101906132cc9190615178565b506008549091506001600160a01b031633148061335c575088828151811061330457634e487b7160e01b600052603260045260246000fd5b6020026020010151613359600e60008d868151811061333357634e487b7160e01b600052603260045260246000fd5b602002602001015181526020019081526020016000205483613ab090919063ffffffff16565b10155b6133f45760405162461bcd60e51b815260206004820152605d60248201527f434c4d383a3a5f747261636b546f6b656e733a20746f6b656e416d6f756e747360448201527f5b695d2069732067726561746572207468616e2077686174206973206176616960648201527f6c61626c6520746f2074686520747261636b657220636f6e7472616374000000608482015260a40161096a565b61346889838151811061341757634e487b7160e01b600052603260045260246000fd5b6020026020010151600e60008d868151811061344357634e487b7160e01b600052603260045260246000fd5b60200260200101518152602001908152602001600020546140d690919063ffffffff16565b600e60008c858151811061348c57634e487b7160e01b600052603260045260246000fd5b602002602001015181526020019081526020016000208190555060008360010160008c85815181106134ce57634e487b7160e01b600052603260045260246000fd5b602002602001015181526020019081526020016000205490506000600760009054906101000a90046001600160a01b03166001600160a01b031663127d5ad08d868151811061352d57634e487b7160e01b600052603260045260246000fd5b60200260200101516040518263ffffffff1660e01b815260040161355391815260200190565b60206040518083038186803b15801561356b57600080fd5b505afa15801561357f573d6000803e3d6000fd5b505050506040513d601f19601f820116820180604052508101906135a391906152b8565b9050613603858d86815181106135c957634e487b7160e01b600052603260045260246000fd5b60200260200101518d87815181106135f157634e487b7160e01b600052603260045260246000fd5b6020026020010151858560ff166141a5565b505050808061361190615901565b915050613201565b5088546040513391907ff739febd63941a495aedbbe2904daf1f12f653420da0213529a1f3eb6d61c1c490613655908c908c908c908c906154ae565b60405180910390a3505050505050505050565b610d758282613896565b60008061367e83611563565b9050806001600160a01b0316846001600160a01b031614806136c557506001600160a01b0380821660009081526005602090815260408083209388168352929052205460ff165b80610a285750836001600160a01b03166136de846108ce565b6001600160a01b031614949350505050565b826001600160a01b031661370382611563565b6001600160a01b0316146137675760405162461bcd60e51b815260206004820152602560248201527f4552433732313a207472616e736665722066726f6d20696e636f72726563742060448201526437bbb732b960d91b606482015260840161096a565b6001600160a01b0382166137c95760405162461bcd60e51b8152602060048201526024808201527f4552433732313a207472616e7366657220746f20746865207a65726f206164646044820152637265737360e01b606482015260840161096a565b6137d4600082612b9c565b6001600160a01b03831660009081526003602052604081208054600192906137fd908490615872565b90915550506001600160a01b038216600090815260036020526040812080546001929061382b908490615827565b909155505060008181526002602052604080822080546001600160a01b0319166001600160a01b0386811691821790925591518493918716917fddf252ad1be2c89b69c2b068fc378daa952ba7f163c4a11628f55a4df523b3ef91a4610a0b565b612b99813361425d565b6138a08282611aa8565b610d755760008281526006602090815260408083206001600160a01b03851684529091529020805460ff191660011790556138d83390565b6001600160a01b0316816001600160a01b0316837f2f8788117e7eff1d82e926ec794901d17c78024a50270940304540a733656f0d60405160405180910390a45050565b6139268282611aa8565b15610d755760008281526006602090815260408083206001600160a01b0385168085529252808320805460ff1916905551339285917ff6391f5c32d9c69d2a47ea670b442974b53935d1edc7fd64eb21e047a839171b9190a45050565b8061398d600c5490565b1015612b995760405162461bcd60e51b815260206004820152603560248201527f434c4d383a3a5f747261636b65724578697374733a20747261636b657220746f6044820152741ad95b88125108191bd95cc81b9bdd08195e1a5cdd605a1b606482015260840161096a565b613a02816142c1565b80613a265750806001600160a01b0316613a1b83611563565b6001600160a01b0316145b610d755760405162461bcd60e51b815260206004820152604f60248201527f434c4d383a3a5f69734f776e65723a206d73672e73656e646572206973206e6f60448201527f74207468652061756469746f72206f66206f7220646f6573206e6f74206f776e60648201526e081d1a1a5cc81d1c9858dad95c9259608a1b608482015260a40161096a565b6000611f818284615872565b6000848152600a6020908152604080832086845260078101835281842086855260028101909352922054613af090846140d6565b6000858152600283016020818152604080842085905589845260068701825280842054898552600187018352932054919052909115613b5e5780613b59578254600181810185556000858152602080822090930189905585548982529186019092526040909120555b613c92565b8015613c8057825460011015613c345782548390613b7e90600190615872565b81548110613b9c57634e487b7160e01b600052603260045260246000fd5b60009182526020909120015483613bb4600184615872565b81548110613bd257634e487b7160e01b600052603260045260246000fd5b90600052602060002001819055508083600101600085600001600185613bf89190615872565b81548110613c1657634e487b7160e01b600052603260045260246000fd5b90600052602060002001548152602001908152602001600020819055505b60008681526001808501602052604082209190915583548491613c5691615872565b81548110613c7457634e487b7160e01b600052603260045260246000fd5b60009182526020822001555b60008681526002840160205260408120555b825415613cd25781613ccd57600584018054600181018255600082815260208082209092018a90559154898352600687019091526040909120555b610aa3565b8115613dfe57600584015460011015613db157600584018054613cf790600190615872565b81548110613d1557634e487b7160e01b600052603260045260246000fd5b906000526020600020015484600501600184613d319190615872565b81548110613d4f57634e487b7160e01b600052603260045260246000fd5b90600052602060002001819055508184600601600086600501600186613d759190615872565b81548110613d9357634e487b7160e01b600052603260045260246000fd5b90600052602060002001548152602001908152602001600020819055505b6000878152600685016020526040812055600584018054613dd490600190615872565b81548110613df257634e487b7160e01b600052603260045260246000fd5b60009182526020822001555b60008781526007850160205260408120906112758282614a78565b6000611f818284615853565b6000611f81828461583f565b816001600160a01b0316836001600160a01b03161415613e935760405162461bcd60e51b815260206004820152601960248201527f4552433732313a20617070726f766520746f2063616c6c657200000000000000604482015260640161096a565b6001600160a01b03838116600081815260056020908152604080832094871680845294825291829020805460ff191686151590811790915591519182527f17307eab39ab6107e8899845ad3d59bd9653f200f220920489ca2b5937696c31910160405180910390a3505050565b613f09816142c1565b612b995760405162461bcd60e51b8152602060048201526044602482018190527f434c4d383a3a5f697341756469746f723a205f747261636b6565206973206e6f908201527f7420616e20617070726f7665642061756469746f72206f662074686520747261606482015263636b656560e01b608482015260a40161096a565b613f948484846136f0565b613fa084848484614383565b611eab5760405162461bcd60e51b815260040161096a9061559a565b606081613fe157506040805180820190915260018152600360fc1b6020820152610837565b8160005b811561400b5780613ff581615901565b91506140049050600a8361583f565b9150613fe5565b6000816001600160401b0381111561403357634e487b7160e01b600052604160045260246000fd5b6040519080825280601f01601f19166020018201604052801561405d576020820181803683370190505b5090505b8415610a2857614072600183615872565b915061407f600a8661591c565b61408a906030615827565b60f81b8183815181106140ad57634e487b7160e01b600052603260045260246000fd5b60200101906001600160f81b031916908160001a9053506140cf600a8661583f565b9450614061565b6000611f818284615827565b6000818152600960205260409020600201546001600160a01b0316612b995760405162461bcd60e51b815260206004820152602a60248201527f434c4d383a3a5f6973417564697465643a20747261636b65724964206973206e6044820152691bdd08185d591a5d195960b21b606482015260840161096a565b600080600061416b858561448d565b91509150614178816144d3565b509392505050565b60006001600160e01b03198216637965db0b60e01b14806108345750610834826146d6565b80600414156141df5760008481526002860160205260409020546141c990846140d6565b6000858152600287016020526040902055614215565b80600214156142155760008481526002860160205260409020546142039084613ab0565b60008581526002870160205260409020555b6000848152600286016020526040902054156111ec57816111ec5750508254600180820185556000858152602080822090930185905585549481529401905250604090912055565b6142678282611aa8565b610d755761427f816001600160a01b03166014614726565b61428a836020614726565b60405160200161429b9291906153bb565b60408051601f198184030181529082905262461bcd60e51b825261096a916004016154e7565b3360009081526010602090815260408083206001600160a01b038516845290915281205460ff168061083457506007546040516349b9055760e01b81523360048201526001600160a01b03909116906349b905579060240160206040518083038186803b15801561433157600080fd5b505afa158015614345573d6000803e3d6000fd5b505050506040513d601f19601f820116820180604052508101906143699190614f1a565b806108345750506008546001600160a01b03163314919050565b60006001600160a01b0384163b1561448557604051630a85bd0160e11b81526001600160a01b0385169063150b7a02906143c7903390899088908890600401615430565b602060405180830381600087803b1580156143e157600080fd5b505af1925050508015614411575060408051601f3d908101601f1916820190925261440e91810190614fa4565b60015b61446b573d80801561443f576040519150601f19603f3d011682016040523d82523d6000602084013e614444565b606091505b5080516144635760405162461bcd60e51b815260040161096a9061559a565b805181602001fd5b6001600160e01b031916630a85bd0160e11b149050610a28565b506001610a28565b6000808251604114156144c45760208301516040840151606085015160001a6144b887828585614907565b945094505050506144cc565b506000905060025b9250929050565b60008160048111156144f557634e487b7160e01b600052602160045260246000fd5b141561450057612b99565b600181600481111561452257634e487b7160e01b600052602160045260246000fd5b14156145705760405162461bcd60e51b815260206004820152601860248201527f45434453413a20696e76616c6964207369676e61747572650000000000000000604482015260640161096a565b600281600481111561459257634e487b7160e01b600052602160045260246000fd5b14156145e05760405162461bcd60e51b815260206004820152601f60248201527f45434453413a20696e76616c6964207369676e6174757265206c656e67746800604482015260640161096a565b600381600481111561460257634e487b7160e01b600052602160045260246000fd5b141561465b5760405162461bcd60e51b815260206004820152602260248201527f45434453413a20696e76616c6964207369676e6174757265202773272076616c604482015261756560f01b606482015260840161096a565b600481600481111561467d57634e487b7160e01b600052602160045260246000fd5b1415612b995760405162461bcd60e51b815260206004820152602260248201527f45434453413a20696e76616c6964207369676e6174757265202776272076616c604482015261756560f01b606482015260840161096a565b60006001600160e01b031982166380ac58cd60e01b148061470757506001600160e01b03198216635b5e139f60e01b145b8061083457506301ffc9a760e01b6001600160e01b0319831614610834565b60606000614735836002615853565b614740906002615827565b6001600160401b0381111561476557634e487b7160e01b600052604160045260246000fd5b6040519080825280601f01601f19166020018201604052801561478f576020820181803683370190505b509050600360fc1b816000815181106147b857634e487b7160e01b600052603260045260246000fd5b60200101906001600160f81b031916908160001a905350600f60fb1b816001815181106147f557634e487b7160e01b600052603260045260246000fd5b60200101906001600160f81b031916908160001a9053506000614819846002615853565b614824906001615827565b90505b60018111156148b8576f181899199a1a9b1b9c1cb0b131b232b360811b85600f166010811061486657634e487b7160e01b600052603260045260246000fd5b1a60f81b82828151811061488a57634e487b7160e01b600052603260045260246000fd5b60200101906001600160f81b031916908160001a90535060049490941c936148b1816158b5565b9050614827565b508315611f815760405162461bcd60e51b815260206004820181905260248201527f537472696e67733a20686578206c656e67746820696e73756666696369656e74604482015260640161096a565b6000807f7fffffffffffffffffffffffffffffff5d576e7357a4501ddfe92f46681b20a083111561493e57506000905060036149eb565b8460ff16601b1415801561495657508460ff16601c14155b1561496757506000905060046149eb565b6040805160008082526020820180845289905260ff881692820192909252606081018690526080810185905260019060a0016020604051602081039080840390855afa1580156149bb573d6000803e3d6000fd5b5050604051601f1901519150506001600160a01b0381166149e4576000600192509250506149eb565b9150600090505b94509492505050565b828054614a00906158cc565b90600052602060002090601f016020900481019282614a225760008555614a68565b82601f10614a3b57805160ff1916838001178555614a68565b82800160010185558215614a68579182015b82811115614a68578251825591602001919060010190614a4d565b50614a74929150614a92565b5090565b5080546000825590600052602060002090810190612b9991905b5b80821115614a745760008155600101614a93565b80356001600160a01b038116811461083757600080fd5b600082601f830112614ace578081fd5b81356020614ae3614ade83615804565b6157d4565b82815281810190858301855b85811015614b1857614b06898684358b0101614b82565b84529284019290840190600101614aef565b5090979650505050505050565b600082601f830112614b35578081fd5b81356020614b45614ade83615804565b80838252828201915082860187848660051b8901011115614b64578586fd5b855b85811015614b1857813584529284019290840190600101614b66565b600082601f830112614b92578081fd5b81356001600160401b03811115614bab57614bab61595c565b614bbe601f8201601f19166020016157d4565b818152846020838601011115614bd2578283fd5b816020850160208301379081016020019190915292915050565b600060208284031215614bfd578081fd5b611f8182614aa7565b60008060408385031215614c18578081fd5b614c2183614aa7565b9150614c2f60208401614aa7565b90509250929050565b600080600080600060a08688031215614c4f578081fd5b614c5886614aa7565b9450614c6660208701614aa7565b935060408601356001600160401b0380821115614c81578283fd5b614c8d89838a01614b25565b94506060880135915080821115614ca2578283fd5b614cae89838a01614b25565b93506080880135915080821115614cc3578283fd5b50614cd088828901614b82565b9150509295509295909350565b600080600080600080600080610100898b031215614cf9578283fd5b614d0289614aa7565b9750614d1060208a01614aa7565b965060408901356001600160401b0380821115614d2b578485fd5b614d378c838d01614b25565b975060608b0135915080821115614d4c578485fd5b614d588c838d01614b25565b965060808b0135955060a08b0135945060c08b0135915080821115614d7b578384fd5b614d878c838d01614b82565b935060e08b0135915080821115614d9c578283fd5b50614da98b828c01614b82565b9150509295985092959890939650565b600080600060608486031215614dcd578283fd5b614dd684614aa7565b9250614de460208501614aa7565b9150604084013590509250925092565b60008060008060808587031215614e09578182fd5b614e1285614aa7565b9350614e2060208601614aa7565b92506040850135915060608501356001600160401b03811115614e41578182fd5b614e4d87828801614b82565b91505092959194509250565b600080600080600060a08688031215614e70578283fd5b614e7986614aa7565b9450614e8760208701614aa7565b9350604086013592506060860135915060808601356001600160401b03811115614eaf578182fd5b614cd088828901614b82565b60008060408385031215614ecd578182fd5b614ed683614aa7565b91506020830135614ee681615972565b809150509250929050565b60008060408385031215614f03578182fd5b614f0c83614aa7565b946020939093013593505050565b600060208284031215614f2b578081fd5b8151611f8181615972565b600060208284031215614f47578081fd5b5035919050565b600060208284031215614f5f578081fd5b5051919050565b60008060408385031215614f78578182fd5b82359150614c2f60208401614aa7565b600060208284031215614f99578081fd5b8135611f8181615980565b600060208284031215614fb5578081fd5b8151611f8181615980565b60008060008060008060c08789031215614fd8578384fd5b8635955060208701356001600160401b0380821115614ff5578586fd5b6150018a838b01614b25565b96506040890135915080821115615016578586fd5b6150228a838b01614b25565b95506060890135915080821115615037578384fd5b6150438a838b01614abe565b94506080890135915080821115615058578384fd5b6150648a838b01614abe565b935060a0890135915080821115615079578283fd5b5061508689828a01614b25565b9150509295509295509295565b600080600080600080600060e0888a0312156150ad578081fd5b8735965060208801356001600160401b03808211156150ca578283fd5b6150d68b838c01614b25565b975060408a01359150808211156150eb578283fd5b6150f78b838c01614b25565b965060608a0135955060808a0135945060a08a013591508082111561511a578283fd5b6151268b838c01614b82565b935060c08a013591508082111561513b578283fd5b506151488a828b01614b82565b91505092959891949750929550565b60008060408385031215615169578182fd5b50508035926020909101359150565b6000806040838503121561518a578182fd5b505080516020909101519092909150565b6000806000606084860312156151af578081fd5b83359250602084013591506151c660408501614aa7565b90509250925092565b600080600080608085870312156151e4578182fd5b843593506020850135925060408501356001600160401b03811115615207578283fd5b61521387828801614b82565b949793965093946060013593505050565b600080600080600060a0868803121561523b578283fd5b853594506020860135935060408601356001600160401b038082111561525f578485fd5b61526b89838a01614b82565b9450606088013593506080880135915080821115614cc3578283fd5b6000806000806080858703121561529c578182fd5b5050823594602084013594506040840135936060013592509050565b6000602082840312156152c9578081fd5b815160ff81168114611f81578182fd5b6000815180845260208085019450808401835b83811015615308578151875295820195908201906001016152ec565b509495945050505050565b6000815180845261532b816020860160208601615889565b601f01601f19169290920160200192915050565b60006bffffffffffffffffffffffff198760601b1682528560148301528460348301528351615375816054850160208801615889565b605492019182019290925260740195945050505050565b6000835161539e818460208801615889565b8351908301906153b2818360208801615889565b01949350505050565b60007f416363657373436f6e74726f6c3a206163636f756e7420000000000000000000825283516153f3816017850160208801615889565b7001034b99036b4b9b9b4b733903937b6329607d1b6017918401918201528351615424816028840160208801615889565b01602801949350505050565b6001600160a01b038581168252841660208201526040810183905260806060820181905260009061546390830184615313565b9695505050505050565b600060208252611f8160208301846152d9565b60006040825261549360408301856152d9565b82810360208401526154a581856152d9565b95945050505050565b6000608082526154c160808301876152d9565b82810360208401526154d381876152d9565b604084019590955250506060015292915050565b600060208252611f816020830184615313565b60006060825261550d6060830186615313565b84602084015282810360408401526154638185615313565b6020808252604f908201527f434c4d383a3a70726f64756374735570646174653a2070726f64756374556e6960408201527f74416d6f756e747320616e642070726f6475637449647320617265206e6f742060608201526e0e8d0ca40e6c2daca40d8cadccee8d608b1b608082015260a00190565b60208082526032908201527f4552433732313a207472616e7366657220746f206e6f6e20455243373231526560408201527131b2b4bb32b91034b6b83632b6b2b73a32b960711b606082015260800190565b6020808252602e908201527f4552433732313a2063616c6c6572206973206e6f7420746f6b656e206f776e6560408201526d1c881b9bdc88185c1c1c9bdd995960921b606082015260800190565b6020808252602e908201527f434c4d383a3a6e6f74417564697465643a20747261636b65724964206973206160408201526d1b1c9958591e48185d591a5d195960921b606082015260800190565b6000606082528451606083015260208501516156af60808401826001600160a01b03169052565b5060408501516001600160a01b03811660a084015250606085015160c0830152608085015160e083015260a0850151610100818185015260c08701519150610120615704818601846001600160a01b03169052565b60e088015192506101408381870152828901519350610160925083838701528189015193508261018087015261573e6101c0870185615313565b93508089015192505050605f19848303016101a085015261575f8282615313565b915050846020840152828103604084015261546381856152d9565b600088825260018060a01b038816602083015286604083015285606083015260e060808301526157ad60e0830186615313565b82810360a08401526157bf8186615313565b9150508260c083015298975050505050505050565b604051601f8201601f191681016001600160401b03811182821017156157fc576157fc61595c565b604052919050565b60006001600160401b0382111561581d5761581d61595c565b5060051b60200190565b6000821982111561583a5761583a615930565b500190565b60008261584e5761584e615946565b500490565b600081600019048311821515161561586d5761586d615930565b500290565b60008282101561588457615884615930565b500390565b60005b838110156158a457818101518382015260200161588c565b83811115611eab5750506000910152565b6000816158c4576158c4615930565b506000190190565b600181811c908216806158e057607f821691505b60208210811415611fcf57634e487b7160e01b600052602260045260246000fd5b600060001982141561591557615915615930565b5060010190565b60008261592b5761592b615946565b500690565b634e487b7160e01b600052601160045260246000fd5b634e487b7160e01b600052601260045260246000fd5b634e487b7160e01b600052604160045260246000fd5b8015158114612b9957600080fd5b6001600160e01b031981168114612b9957600080fdfea26469706673582212208aa7df3b7d900a96fd25c93ab89202af236293aaeffc3a7d4e21826081e0bb5b64736f6c63430008030033",
  "linkReferences": {},
  "deployedLinkReferences": {}
}