{
  "_format": "hh-sol-artifact-1",
  "contractName": "DAOToken",
  "sourceName": "solidity/Governance/DAOToken.sol",
  "abi": [
    {
      "inputs": [
        {
          "internalType": "address",
          "name": "account",
          "type": "address"
        }
      ],
      "stateMutability": "nonpayable",
      "type": "constructor"
    },
    {
      "anonymous": false,
      "inputs": [
        {
          "indexed": true,
          "internalType": "address",
          "name": "owner",
          "type": "address"
        },
        {
          "indexed": true,
          "internalType": "address",
          "name": "spender",
          "type": "address"
        },
        {
          "indexed": false,
          "internalType": "uint256",
          "name": "amount",
          "type": "uint256"
        }
      ],
      "name": "Approval",
      "type": "event"
    },
    {
      "anonymous": false,
      "inputs": [
        {
          "indexed": true,
          "internalType": "address",
          "name": "delegator",
          "type": "address"
        },
        {
          "indexed": true,
          "internalType": "address",
          "name": "fromDelegate",
          "type": "address"
        },
        {
          "indexed": true,
          "internalType": "address",
          "name": "toDelegate",
          "type": "address"
        }
      ],
      "name": "DelegateChanged",
      "type": "event"
    },
    {
      "anonymous": false,
      "inputs": [
        {
          "indexed": true,
          "internalType": "address",
          "name": "delegate",
          "type": "address"
        },
        {
          "indexed": false,
          "internalType": "uint256",
          "name": "previousBalance",
          "type": "uint256"
        },
        {
          "indexed": false,
          "internalType": "uint256",
          "name": "newBalance",
          "type": "uint256"
        }
      ],
      "name": "DelegateVotesChanged",
      "type": "event"
    },
    {
      "anonymous": false,
      "inputs": [
        {
          "indexed": true,
          "internalType": "address",
          "name": "from",
          "type": "address"
        },
        {
          "indexed": true,
          "internalType": "address",
          "name": "to",
          "type": "address"
        },
        {
          "indexed": false,
          "internalType": "uint256",
          "name": "amount",
          "type": "uint256"
        }
      ],
      "name": "Transfer",
      "type": "event"
    },
    {
      "inputs": [],
      "name": "DELEGATION_TYPEHASH",
      "outputs": [
        {
          "internalType": "bytes32",
          "name": "",
          "type": "bytes32"
        }
      ],
      "stateMutability": "view",
      "type": "function"
    },
    {
      "inputs": [],
      "name": "DOMAIN_TYPEHASH",
      "outputs": [
        {
          "internalType": "bytes32",
          "name": "",
          "type": "bytes32"
        }
      ],
      "stateMutability": "view",
      "type": "function"
    },
    {
      "inputs": [
        {
          "internalType": "address",
          "name": "account",
          "type": "address"
        },
        {
          "internalType": "uint96",
          "name": "amount",
          "type": "uint96"
        }
      ],
      "name": "_burn",
      "outputs": [],
      "stateMutability": "nonpayable",
      "type": "function"
    },
    {
      "inputs": [
        {
          "internalType": "address",
          "name": "src",
          "type": "address"
        },
        {
          "internalType": "uint96",
          "name": "amount",
          "type": "uint96"
        }
      ],
      "name": "_lockTokens",
      "outputs": [],
      "stateMutability": "nonpayable",
      "type": "function"
    },
    {
      "inputs": [
        {
          "internalType": "uint256",
          "name": "amount",
          "type": "uint256"
        }
      ],
      "name": "addToTotalSupply",
      "outputs": [],
      "stateMutability": "nonpayable",
      "type": "function"
    },
    {
      "inputs": [
        {
          "internalType": "address",
          "name": "account",
          "type": "address"
        },
        {
          "internalType": "address",
          "name": "spender",
          "type": "address"
        }
      ],
      "name": "allowance",
      "outputs": [
        {
          "internalType": "uint256",
          "name": "",
          "type": "uint256"
        }
      ],
      "stateMutability": "view",
      "type": "function"
    },
    {
      "inputs": [
        {
          "internalType": "address",
          "name": "spender",
          "type": "address"
        },
        {
          "internalType": "uint256",
          "name": "rawAmount",
          "type": "uint256"
        }
      ],
      "name": "approve",
      "outputs": [
        {
          "internalType": "bool",
          "name": "",
          "type": "bool"
        }
      ],
      "stateMutability": "nonpayable",
      "type": "function"
    },
    {
      "inputs": [
        {
          "internalType": "address",
          "name": "account",
          "type": "address"
        }
      ],
      "name": "balanceOf",
      "outputs": [
        {
          "internalType": "uint256",
          "name": "",
          "type": "uint256"
        }
      ],
      "stateMutability": "view",
      "type": "function"
    },
    {
      "inputs": [
        {
          "internalType": "address",
          "name": "",
          "type": "address"
        },
        {
          "internalType": "uint32",
          "name": "",
          "type": "uint32"
        }
      ],
      "name": "checkpoints",
      "outputs": [
        {
          "internalType": "uint32",
          "name": "fromBlock",
          "type": "uint32"
        },
        {
          "internalType": "uint96",
          "name": "votes",
          "type": "uint96"
        }
      ],
      "stateMutability": "view",
      "type": "function"
    },
    {
      "inputs": [],
      "name": "decimals",
      "outputs": [
        {
          "internalType": "uint8",
          "name": "",
          "type": "uint8"
        }
      ],
      "stateMutability": "view",
      "type": "function"
    },
    {
      "inputs": [
        {
          "internalType": "address",
          "name": "delegatee",
          "type": "address"
        }
      ],
      "name": "delegate",
      "outputs": [],
      "stateMutability": "nonpayable",
      "type": "function"
    },
    {
      "inputs": [
        {
          "internalType": "address",
          "name": "delegatee",
          "type": "address"
        },
        {
          "internalType": "uint256",
          "name": "nonce",
          "type": "uint256"
        },
        {
          "internalType": "uint256",
          "name": "expiry",
          "type": "uint256"
        },
        {
          "internalType": "uint8",
          "name": "v",
          "type": "uint8"
        },
        {
          "internalType": "bytes32",
          "name": "r",
          "type": "bytes32"
        },
        {
          "internalType": "bytes32",
          "name": "s",
          "type": "bytes32"
        }
      ],
      "name": "delegateBySig",
      "outputs": [],
      "stateMutability": "nonpayable",
      "type": "function"
    },
    {
      "inputs": [
        {
          "internalType": "address",
          "name": "",
          "type": "address"
        }
      ],
      "name": "delegates",
      "outputs": [
        {
          "internalType": "address",
          "name": "",
          "type": "address"
        }
      ],
      "stateMutability": "view",
      "type": "function"
    },
    {
      "inputs": [
        {
          "internalType": "address",
          "name": "account",
          "type": "address"
        }
      ],
      "name": "getCurrentVotes",
      "outputs": [
        {
          "internalType": "uint96",
          "name": "",
          "type": "uint96"
        }
      ],
      "stateMutability": "view",
      "type": "function"
    },
    {
      "inputs": [],
      "name": "getInitialHolder",
      "outputs": [
        {
          "internalType": "address",
          "name": "",
          "type": "address"
        }
      ],
      "stateMutability": "view",
      "type": "function"
    },
    {
      "inputs": [
        {
          "internalType": "address",
          "name": "account",
          "type": "address"
        },
        {
          "internalType": "uint256",
          "name": "blockNumber",
          "type": "uint256"
        }
      ],
      "name": "getPriorVotes",
      "outputs": [
        {
          "internalType": "uint96",
          "name": "",
          "type": "uint96"
        }
      ],
      "stateMutability": "view",
      "type": "function"
    },
    {
      "inputs": [],
      "name": "getTotalSupply",
      "outputs": [
        {
          "internalType": "uint256",
          "name": "",
          "type": "uint256"
        }
      ],
      "stateMutability": "view",
      "type": "function"
    },
    {
      "inputs": [],
      "name": "governor",
      "outputs": [
        {
          "internalType": "address",
          "name": "",
          "type": "address"
        }
      ],
      "stateMutability": "view",
      "type": "function"
    },
    {
      "inputs": [],
      "name": "initialHolder",
      "outputs": [
        {
          "internalType": "address",
          "name": "",
          "type": "address"
        }
      ],
      "stateMutability": "view",
      "type": "function"
    },
    {
      "inputs": [],
      "name": "name",
      "outputs": [
        {
          "internalType": "string",
          "name": "",
          "type": "string"
        }
      ],
      "stateMutability": "view",
      "type": "function"
    },
    {
      "inputs": [
        {
          "internalType": "address",
          "name": "",
          "type": "address"
        }
      ],
      "name": "nonces",
      "outputs": [
        {
          "internalType": "uint256",
          "name": "",
          "type": "uint256"
        }
      ],
      "stateMutability": "view",
      "type": "function"
    },
    {
      "inputs": [
        {
          "internalType": "address",
          "name": "",
          "type": "address"
        }
      ],
      "name": "numCheckpoints",
      "outputs": [
        {
          "internalType": "uint32",
          "name": "",
          "type": "uint32"
        }
      ],
      "stateMutability": "view",
      "type": "function"
    },
    {
      "inputs": [
        {
          "internalType": "address",
          "name": "newGovernor",
          "type": "address"
        }
      ],
      "name": "setGovernor",
      "outputs": [],
      "stateMutability": "nonpayable",
      "type": "function"
    },
    {
      "inputs": [],
      "name": "symbol",
      "outputs": [
        {
          "internalType": "string",
          "name": "",
          "type": "string"
        }
      ],
      "stateMutability": "view",
      "type": "function"
    },
    {
      "inputs": [],
      "name": "totalSupply",
      "outputs": [
        {
          "internalType": "uint256",
          "name": "",
          "type": "uint256"
        }
      ],
      "stateMutability": "view",
      "type": "function"
    },
    {
      "inputs": [
        {
          "internalType": "address",
          "name": "dst",
          "type": "address"
        },
        {
          "internalType": "uint256",
          "name": "rawAmount",
          "type": "uint256"
        }
      ],
      "name": "transfer",
      "outputs": [
        {
          "internalType": "bool",
          "name": "",
          "type": "bool"
        }
      ],
      "stateMutability": "nonpayable",
      "type": "function"
    },
    {
      "inputs": [
        {
          "internalType": "address",
          "name": "src",
          "type": "address"
        },
        {
          "internalType": "address",
          "name": "dst",
          "type": "address"
        },
        {
          "internalType": "uint256",
          "name": "rawAmount",
          "type": "uint256"
        }
      ],
      "name": "transferFrom",
      "outputs": [
        {
          "internalType": "bool",
          "name": "",
          "type": "bool"
        }
      ],
      "stateMutability": "nonpayable",
      "type": "function"
    }
  ],
  "bytecode": "0x60806040526a084595161401484a000000600055600280546001600160a01b031916905534801561002f57600080fd5b506040516121d33803806121d383398101604081905261004e916100d6565b600080546001600160a01b03831680835260046020908152604080852080546001600160601b0319166001600160601b0390951694909417909355600180546001600160a01b03191683179055835492519283529092917fddf252ad1be2c89b69c2b068fc378daa952ba7f163c4a11628f55a4df523b3ef910160405180910390a350610104565b6000602082840312156100e7578081fd5b81516001600160a01b03811681146100fd578182fd5b9392505050565b6120c0806101136000396000f3fe608060405234801561001057600080fd5b50600436106101a95760003560e01c806372d3ee9e116100f9578063b72218e311610097578063c4e41b2211610071578063c4e41b2214610451578063dd62ed3e14610459578063e7a324dc1461049b578063f1127ed8146104c2576101a9565b8063b72218e314610418578063c3cda5201461042b578063c42cf5351461043e576101a9565b806395d89b41116100d357806395d89b41146103bd578063a9059cbb146103e1578063ae80d9de146103f4578063b4b5ea5714610405576101a9565b806372d3ee9e1461035f578063782d6fe1146103725780637ecebe001461039d576101a9565b806328ce884511610166578063587cde1e11610140578063587cde1e146102d55780635c19a95c146102fe5780636fcfff451461031157806370a082311461034c576101a9565b806328ce884514610293578063313ce567146102a85780633b2d52ac146102c2576101a9565b806306fdde03146101ae578063095ea7b3146101f45780630c340a241461021757806318160ddd1461024257806320606b701461025957806323b872dd14610280575b600080fd5b6101de6040518060400160405280601181526020017021b634b6b0ba32902220a7902a37b5b2b760791b81525081565b6040516101eb9190611ceb565b60405180910390f35b610207610202366004611bd8565b610529565b60405190151581526020016101eb565b60025461022a906001600160a01b031681565b6040516001600160a01b0390911681526020016101eb565b61024b60005481565b6040519081526020016101eb565b61024b7f8cad95687ba82c2ce50e74f7b754645e5117c3a5bec8151c0726d5857980a86681565b61020761028e366004611b9d565b6105ea565b6102a66102a1366004611cd3565b610782565b005b6102b0601281565b60405160ff90911681526020016101eb565b6102a66102d0366004611c9d565b6108db565b61022a6102e3366004611b51565b6005602052600090815260409020546001600160a01b031681565b6102a661030c366004611b51565b610a71565b61033761031f366004611b51565b60076020526000908152604090205463ffffffff1681565b60405163ffffffff90911681526020016101eb565b61024b61035a366004611b51565b610a7e565b6102a661036d366004611c9d565b610aa6565b610385610380366004611bd8565b610c92565b6040516001600160601b0390911681526020016101eb565b61024b6103ab366004611b51565b60086020526000908152604090205481565b6101de604051806040016040528060058152602001640c886989a760db1b81525081565b6102076103ef366004611bd8565b610f1a565b6001546001600160a01b031661022a565b610385610413366004611b51565b610f9b565b60015461022a906001600160a01b031681565b6102a6610439366004611c01565b611019565b6102a661044c366004611b51565b611311565b60005461024b565b61024b610467366004611b6b565b6001600160a01b0391821660009081526003602090815260408083209390941682529190915220546001600160601b031690565b61024b7fe48329057bfd03d55e49b547132e39cffd9c1820ad7b9d4c5307691425d15adf81565b6105056104d0366004611c5f565b600660209081526000928352604080842090915290825290205463ffffffff811690600160201b90046001600160601b031682565b6040805163ffffffff90931683526001600160601b039091166020830152016101eb565b60008060001983141561054457506001600160601b03610569565b61056683604051806060016040528060268152602001612007602691396113a0565b90505b3360008181526003602090815260408083206001600160a01b0389168085529083529281902080546001600160601b0319166001600160601b03871690811790915590519081529192917f8c5be1e5ebec7d5bd14f71427d1e84f3dd0314c0f7b2291e5b200ac8c7c3b925910160405180910390a360019150505b92915050565b6001546000906001600160a01b0385811691161480159061061957506002546001600160a01b03858116911614155b1561063f5760405162461bcd60e51b815260040161063690611d3e565b60405180910390fd5b6001600160a01b03841660009081526003602090815260408083203380855290835281842054825160608101909352602680845291946001600160601b03909116939092610695928892612007908301396113a0565b9050866001600160a01b0316836001600160a01b0316141580156106c257506001600160601b0382811614155b1561076a5760006106ec83836040518060600160405280603e8152602001611fc9603e91396113cf565b6001600160a01b038981166000818152600360209081526040808320948a168084529482529182902080546001600160601b0319166001600160601b0387169081179091559151918252939450919290917f8c5be1e5ebec7d5bd14f71427d1e84f3dd0314c0f7b2291e5b200ac8c7c3b925910160405180910390a3505b610775878783611419565b5060019695505050505050565b6001546001600160a01b031633148015906107a857506002546001600160a01b03163314155b1561081b5760405162461bcd60e51b815260206004820152603f60248201527f64434c4d383a3a616464546f546f74616c537570706c793a206d75737420626560448201527f20696e697469616c20686f6c646572206f722044414f20676f7665726e6f72006064820152608401610636565b600061083f826040518060600160405280602f8152602001611f73602f91396113a0565b33600090815260046020908152604091829020548251606081019093526029808452939450610885936001600160601b03909116928592909190611f4a90830139611698565b33600090815260046020526040812080546001600160601b0319166001600160601b039390931692909217909155805483919081906108c5908490611d9b565b909155506108d79050600033836116e5565b5050565b6002546001600160a01b031633146109415760405162461bcd60e51b815260206004820152602360248201527f64434c4d383a3a6c6f636b546f6b656e733a206d75737420626520676f7665726044820152623737b960e91b6064820152608401610636565b6001600160a01b03821660009081526004602090815260409182902054825160608101909352603780845261098c936001600160601b039092169285929190611ee2908301396113cf565b6001600160a01b03838116600090815260046020908152604080832080546001600160601b0319166001600160601b039687161790556002549093168252908290205482516060810190935260318084526109f79491909116928592909190611f1990830139611698565b600280546001600160a01b0390811660009081526004602090815260409182902080546001600160601b0319166001600160601b03968716179055925490519385168452811692908516917fddf252ad1be2c89b69c2b068fc378daa952ba7f163c4a11628f55a4df523b3ef910160405180910390a35050565b610a7b3382611891565b50565b6001600160a01b0381166000908152600460205260409020546001600160601b03165b919050565b6001600160a01b038216610b0d5760405162461bcd60e51b815260206004820152602860248201527f64434c4d383a3a5f6275726e3a206275726e2066726f6d20746865207a65726f604482015267206164647265737360c01b6064820152608401610636565b6002546001600160a01b03163314610b675760405162461bcd60e51b815260206004820152601e60248201527f64434c4d383a3a5f6275726e3a206d75737420626520676f7665726e6f7200006044820152606401610636565b6001600160a01b0382166000908152600460205260409020546001600160601b03908116908216811015610bef5760405162461bcd60e51b815260206004820152602960248201527f64434c4d383a3a5f6275726e3a206275726e20616d6f756e7420657863656564604482015268732062616c616e636560b81b6064820152608401610636565b610bf98282611e68565b6001600160a01b038416600090815260046020526040812080546001600160601b0319166001600160601b039384161790558054918416918190610c3e908490611e2c565b90915550506040516001600160601b03831681526000906001600160a01b038516907fddf252ad1be2c89b69c2b068fc378daa952ba7f163c4a11628f55a4df523b3ef9060200160405180910390a3505050565b6000438210610cf45760405162461bcd60e51b815260206004820152602860248201527f64434c4d383a3a6765745072696f72566f7465733a206e6f74207965742064656044820152671d195c9b5a5b995960c21b6064820152608401610636565b6001600160a01b03831660009081526007602052604090205463ffffffff1680610d225760009150506105e4565b6001600160a01b03841660009081526006602052604081208491610d47600185611e43565b63ffffffff90811682526020820192909252604001600020541611610dba576001600160a01b038416600090815260066020526040812090610d8a600184611e43565b63ffffffff168152602081019190915260400160002054600160201b90046001600160601b031691506105e49050565b6001600160a01b038416600090815260066020908152604080832083805290915290205463ffffffff16831015610df55760009150506105e4565b600080610e03600184611e43565b90505b8163ffffffff168163ffffffff161115610ed55760006002610e288484611e43565b610e329190611dfd565b610e3c9083611e43565b6001600160a01b038816600090815260066020908152604080832063ffffffff858116855290835292819020815180830190925254928316808252600160201b9093046001600160601b031691810191909152919250871415610ea9576020015194506105e49350505050565b805163ffffffff16871115610ec057819350610ece565b610ecb600183611e43565b92505b5050610e06565b506001600160a01b038516600090815260066020908152604080832063ffffffff909416835292905220546001600160601b03600160201b9091041691505092915050565b6001546000906001600160a01b03163314801590610f4357506002546001600160a01b03163314155b15610f605760405162461bcd60e51b815260040161063690611d3e565b6000610f8483604051806060016040528060278152602001611fa2602791396113a0565b9050610f91338583611419565b5060019392505050565b6001600160a01b03811660009081526007602052604081205463ffffffff1680610fc6576000611012565b6001600160a01b038316600090815260066020526040812090610fea600184611e43565b63ffffffff168152602081019190915260400160002054600160201b90046001600160601b03165b9392505050565b604080518082018252601181527021b634b6b0ba32902220a7902a37b5b2b760791b60209182015281517f8cad95687ba82c2ce50e74f7b754645e5117c3a5bec8151c0726d5857980a866818301527f7c75c83381dcf4c0e5ba36df2cc653b50dcd8f69236256411bc04c9f677ed4c081840152466060820152306080808301919091528351808303909101815260a0820184528051908301207fe48329057bfd03d55e49b547132e39cffd9c1820ad7b9d4c5307691425d15adf60c08301526001600160a01b038a1660e083015261010082018990526101208083018990528451808403909101815261014083019094528351939092019290922061190160f01b6101608401526101628301829052610182830181905290916000906101a20160408051601f198184030181528282528051602091820120600080855291840180845281905260ff8a169284019290925260608301889052608083018790529092509060019060a0016020604051602081039080840390855afa1580156111a5573d6000803e3d6000fd5b5050604051601f1901519150506001600160a01b0381166112185760405162461bcd60e51b815260206004820152602760248201527f64434c4d383a3a64656c656761746542795369673a20696e76616c6964207369604482015266676e617475726560c81b6064820152608401610636565b6001600160a01b038116600090815260086020526040812080549161123c83611e88565b91905055891461129a5760405162461bcd60e51b815260206004820152602360248201527f64434c4d383a3a64656c656761746542795369673a20696e76616c6964206e6f6044820152626e636560e81b6064820152608401610636565b874211156112fa5760405162461bcd60e51b815260206004820152602760248201527f64434c4d383a3a64656c656761746542795369673a207369676e617475726520604482015266195e1c1a5c995960ca1b6064820152608401610636565b611304818b611891565b505050505b505050505050565b6001546001600160a01b0316331461137e5760405162461bcd60e51b815260206004820152602a60248201527f64434c4d383a3a736574476f7665726e6f723a206d75737420626520696e697460448201526934b0b6103437b63232b960b11b6064820152608401610636565b600280546001600160a01b0319166001600160a01b0392909216919091179055565b600081600160601b84106113c75760405162461bcd60e51b81526004016106369190611ceb565b509192915050565b6000836001600160601b0316836001600160601b0316111582906114065760405162461bcd60e51b81526004016106369190611ceb565b506114118385611e68565b949350505050565b6001600160a01b0383166114955760405162461bcd60e51b815260206004820152603d60248201527f64434c4d383a3a5f7472616e73666572546f6b656e733a2063616e6e6f74207460448201527f72616e736665722066726f6d20746865207a65726f20616464726573730000006064820152608401610636565b6001600160a01b0382166115115760405162461bcd60e51b815260206004820152603b60248201527f64434c4d383a3a5f7472616e73666572546f6b656e733a2063616e6e6f74207460448201527f72616e7366657220746f20746865207a65726f206164647265737300000000006064820152608401610636565b6001600160a01b03831660009081526004602090815260409182902054825160608101909352603780845261155c936001600160601b039092169285929190611ee2908301396113cf565b6001600160a01b03848116600090815260046020908152604080832080546001600160601b0319166001600160601b039687161790559286168252908290205482516060810190935260318084526115c49491909116928592909190611f1990830139611698565b6001600160a01b0383811660008181526004602090815260409182902080546001600160601b0319166001600160601b03968716179055905193851684529092918616917fddf252ad1be2c89b69c2b068fc378daa952ba7f163c4a11628f55a4df523b3ef910160405180910390a36001600160a01b03828116600090815260056020526040902054166116615761165c8283611891565b611693565b6001600160a01b03808416600090815260056020526040808220548584168352912054611693929182169116836116e5565b505050565b6000806116a58486611ddb565b9050846001600160601b0316816001600160601b0316101583906116dc5760405162461bcd60e51b81526004016106369190611ceb565b50949350505050565b816001600160a01b0316836001600160a01b03161415801561171057506000816001600160601b0316115b15611693576001600160a01b038316156117d5576001600160a01b03831660009081526007602052604081205463ffffffff16908161175057600061179c565b6001600160a01b038516600090815260066020526040812090611774600185611e43565b63ffffffff168152602081019190915260400160002054600160201b90046001600160601b03165b905060006117c3828560405180606001604052806029815260200161202d602991396113cf565b90506117d18684848461191b565b5050505b6001600160a01b03821615611693576001600160a01b03821660009081526007602052604081205463ffffffff16908161181057600061185c565b6001600160a01b038416600090815260066020526040812090611834600185611e43565b63ffffffff168152602081019190915260400160002054600160201b90046001600160601b03165b905060006118838285604051806060016040528060288152602001611eba60289139611698565b90506113098584848461191b565b6001600160a01b03808316600081815260056020818152604080842080546004845282862054949093528787166001600160a01b031984168117909155905191909516946001600160601b039092169391928592917f3134e8a2e6d97e929a7e54011ea5485d7d196dd5f0ba4d4ef95803e8e3fc257f9190a46119158284836116e5565b50505050565b600061193f4360405180606001604052806035815260200161205660359139611b13565b905060008463ffffffff1611801561199957506001600160a01b038516600090815260066020526040812063ffffffff83169161197d600188611e43565b63ffffffff908116825260208201929092526040016000205416145b15611a0d576001600160a01b038516600090815260066020526040812083916119c3600188611e43565b63ffffffff168152602081019190915260400160002080546001600160601b0392909216600160201b026fffffffffffffffffffffffff0000000019909216919091179055611abe565b60408051808201825263ffffffff80841682526001600160601b0380861660208085019182526001600160a01b038b166000908152600682528681208b8616825290915294909420925183549451909116600160201b026fffffffffffffffffffffffffffffffff19909416911617919091179055611a8d846001611db3565b6001600160a01b0386166000908152600760205260409020805463ffffffff191663ffffffff929092169190911790555b604080516001600160601b038086168252841660208201526001600160a01b038716917fdec2bacdd2f05b59de34da9b523dff8be42e5e38e818c82fdb0bae774387a724910160405180910390a25050505050565b600081600160201b84106113c75760405162461bcd60e51b81526004016106369190611ceb565b80356001600160a01b0381168114610aa157600080fd5b600060208284031215611b62578081fd5b61101282611b3a565b60008060408385031215611b7d578081fd5b611b8683611b3a565b9150611b9460208401611b3a565b90509250929050565b600080600060608486031215611bb1578081fd5b611bba84611b3a565b9250611bc860208501611b3a565b9150604084013590509250925092565b60008060408385031215611bea578182fd5b611bf383611b3a565b946020939093013593505050565b60008060008060008060c08789031215611c19578182fd5b611c2287611b3a565b95506020870135945060408701359350606087013560ff81168114611c45578283fd5b9598949750929560808101359460a0909101359350915050565b60008060408385031215611c71578182fd5b611c7a83611b3a565b9150602083013563ffffffff81168114611c92578182fd5b809150509250929050565b60008060408385031215611caf578182fd5b611cb883611b3a565b915060208301356001600160601b0381168114611c92578182fd5b600060208284031215611ce4578081fd5b5035919050565b6000602080835283518082850152825b81811015611d1757858101830151858201604001528201611cfb565b81811115611d285783604083870101525b50601f01601f1916929092016040019392505050565b6020808252603e908201527f64434c4d383a3a7472616e736665723a2073656e646572206d7573742062652060408201527f696e697469616c20686f6c646572206f722044414f20676f7665726e6f720000606082015260800190565b60008219821115611dae57611dae611ea3565b500190565b600063ffffffff808316818516808303821115611dd257611dd2611ea3565b01949350505050565b60006001600160601b03808316818516808303821115611dd257611dd2611ea3565b600063ffffffff80841680611e2057634e487b7160e01b83526012600452602483fd5b92169190910492915050565b600082821015611e3e57611e3e611ea3565b500390565b600063ffffffff83811690831681811015611e6057611e60611ea3565b039392505050565b60006001600160601b0383811690831681811015611e6057611e60611ea3565b6000600019821415611e9c57611e9c611ea3565b5060010190565b634e487b7160e01b600052601160045260246000fdfe64434c4d383a3a5f6d6f7665566f7465733a20766f746520616d6f756e74206f766572666c6f777364434c4d383a3a5f7472616e73666572546f6b656e733a207472616e7366657220616d6f756e7420657863656564732062616c616e636564434c4d383a3a5f7472616e73666572546f6b656e733a207472616e7366657220616d6f756e74206f766572666c6f777364434c4d383a3a616464546f546f74616c537570706c793a20616d6f756e74206f766572666c6f777364434c4d383a3a616464546f546f74616c537570706c793a20616d6f756e742065786365656473203936206269747364434c4d383a3a7472616e736665723a20616d6f756e742065786365656473203936206269747364434c4d383a3a7472616e7366657246726f6d3a207472616e7366657220616d6f756e742065786365656473207370656e64657220616c6c6f77616e636564434c4d383a3a617070726f76653a20616d6f756e742065786365656473203936206269747364434c4d383a3a5f6d6f7665566f7465733a20766f746520616d6f756e7420756e646572666c6f777364434c4d383a3a5f7772697465436865636b706f696e743a20626c6f636b206e756d62657220657863656564732033322062697473a2646970667358221220034b11cf7e6ec37588cc77eb13b439f11d636e9d7a79e87e033390dd0f277c2164736f6c63430008030033",
  "linkReferences": {},
  "deployedLinkReferences": {}
}