{
  "_format": "hh-sol-artifact-1",
  "contractName": "Governor",
  "sourceName": "solidity/Governance/Governor.sol",
  "abi": [
    {
      "inputs": [
        {
          "internalType": "address",
          "name": "timelock_",
          "type": "address"
        },
        {
          "internalType": "address",
          "name": "dclm8_",
          "type": "address"
        },
        {
          "internalType": "address",
          "name": "guardian_",
          "type": "address"
        }
      ],
      "stateMutability": "nonpayable",
      "type": "constructor"
    },
    {
      "anonymous": false,
      "inputs": [
        {
          "indexed": false,
          "internalType": "uint256",
          "name": "id",
          "type": "uint256"
        }
      ],
      "name": "ProposalCanceled",
      "type": "event"
    },
    {
      "anonymous": false,
      "inputs": [
        {
          "indexed": false,
          "internalType": "uint256",
          "name": "id",
          "type": "uint256"
        },
        {
          "indexed": false,
          "internalType": "address",
          "name": "proposer",
          "type": "address"
        },
        {
          "indexed": false,
          "internalType": "address[]",
          "name": "targets",
          "type": "address[]"
        },
        {
          "indexed": false,
          "internalType": "uint256[]",
          "name": "values",
          "type": "uint256[]"
        },
        {
          "indexed": false,
          "internalType": "string[]",
          "name": "signatures",
          "type": "string[]"
        },
        {
          "indexed": false,
          "internalType": "bytes[]",
          "name": "calldatas",
          "type": "bytes[]"
        },
        {
          "indexed": false,
          "internalType": "uint256",
          "name": "startBlock",
          "type": "uint256"
        },
        {
          "indexed": false,
          "internalType": "uint256",
          "name": "endBlock",
          "type": "uint256"
        },
        {
          "indexed": false,
          "internalType": "string",
          "name": "description",
          "type": "string"
        }
      ],
      "name": "ProposalCreated",
      "type": "event"
    },
    {
      "anonymous": false,
      "inputs": [
        {
          "indexed": false,
          "internalType": "uint256",
          "name": "id",
          "type": "uint256"
        }
      ],
      "name": "ProposalExecuted",
      "type": "event"
    },
    {
      "anonymous": false,
      "inputs": [
        {
          "indexed": false,
          "internalType": "uint256",
          "name": "id",
          "type": "uint256"
        },
        {
          "indexed": false,
          "internalType": "uint256",
          "name": "eta",
          "type": "uint256"
        }
      ],
      "name": "ProposalQueued",
      "type": "event"
    },
    {
      "anonymous": false,
      "inputs": [
        {
          "indexed": false,
          "internalType": "address",
          "name": "voter",
          "type": "address"
        },
        {
          "indexed": false,
          "internalType": "uint256",
          "name": "proposalId",
          "type": "uint256"
        },
        {
          "indexed": false,
          "internalType": "bool",
          "name": "support",
          "type": "bool"
        },
        {
          "indexed": false,
          "internalType": "uint256",
          "name": "votes",
          "type": "uint256"
        }
      ],
      "name": "VoteCast",
      "type": "event"
    },
    {
      "inputs": [],
      "name": "BALLOT_TYPEHASH",
      "outputs": [
        {
          "internalType": "bytes32",
          "name": "",
          "type": "bytes32"
        }
      ],
      "stateMutability": "view",
      "type": "function"
    },
    {
      "inputs": [],
      "name": "DOMAIN_TYPEHASH",
      "outputs": [
        {
          "internalType": "bytes32",
          "name": "",
          "type": "bytes32"
        }
      ],
      "stateMutability": "view",
      "type": "function"
    },
    {
      "inputs": [],
      "name": "__abdicate",
      "outputs": [],
      "stateMutability": "nonpayable",
      "type": "function"
    },
    {
      "inputs": [],
      "name": "__acceptAdmin",
      "outputs": [],
      "stateMutability": "nonpayable",
      "type": "function"
    },
    {
      "inputs": [
        {
          "internalType": "address",
          "name": "newPendingAdmin",
          "type": "address"
        },
        {
          "internalType": "uint256",
          "name": "eta",
          "type": "uint256"
        }
      ],
      "name": "__executeSetTimelockPendingAdmin",
      "outputs": [],
      "stateMutability": "nonpayable",
      "type": "function"
    },
    {
      "inputs": [
        {
          "internalType": "address",
          "name": "newPendingAdmin",
          "type": "address"
        },
        {
          "internalType": "uint256",
          "name": "eta",
          "type": "uint256"
        }
      ],
      "name": "__queueSetTimelockPendingAdmin",
      "outputs": [],
      "stateMutability": "nonpayable",
      "type": "function"
    },
    {
      "inputs": [
        {
          "internalType": "uint256",
          "name": "proposalId",
          "type": "uint256"
        }
      ],
      "name": "cancel",
      "outputs": [],
      "stateMutability": "nonpayable",
      "type": "function"
    },
    {
      "inputs": [
        {
          "internalType": "uint256",
          "name": "proposalId",
          "type": "uint256"
        },
        {
          "internalType": "bool",
          "name": "support",
          "type": "bool"
        },
        {
          "internalType": "uint96",
          "name": "votes",
          "type": "uint96"
        }
      ],
      "name": "castVote",
      "outputs": [],
      "stateMutability": "nonpayable",
      "type": "function"
    },
    {
      "inputs": [
        {
          "internalType": "uint256",
          "name": "proposalId",
          "type": "uint256"
        },
        {
          "internalType": "bool",
          "name": "support",
          "type": "bool"
        },
        {
          "internalType": "uint8",
          "name": "v",
          "type": "uint8"
        },
        {
          "internalType": "bytes32",
          "name": "r",
          "type": "bytes32"
        },
        {
          "internalType": "bytes32",
          "name": "s",
          "type": "bytes32"
        },
        {
          "internalType": "uint96",
          "name": "votes",
          "type": "uint96"
        }
      ],
      "name": "castVoteBySig",
      "outputs": [],
      "stateMutability": "nonpayable",
      "type": "function"
    },
    {
      "inputs": [],
      "name": "dclm8",
      "outputs": [
        {
          "internalType": "contract Dclm8Interface",
          "name": "",
          "type": "address"
        }
      ],
      "stateMutability": "view",
      "type": "function"
    },
    {
      "inputs": [
        {
          "internalType": "uint256",
          "name": "proposalId",
          "type": "uint256"
        }
      ],
      "name": "execute",
      "outputs": [],
      "stateMutability": "payable",
      "type": "function"
    },
    {
      "inputs": [
        {
          "internalType": "uint256",
          "name": "proposalId",
          "type": "uint256"
        }
      ],
      "name": "getActions",
      "outputs": [
        {
          "internalType": "address[]",
          "name": "targets",
          "type": "address[]"
        },
        {
          "internalType": "uint256[]",
          "name": "values",
          "type": "uint256[]"
        },
        {
          "internalType": "string[]",
          "name": "signatures",
          "type": "string[]"
        },
        {
          "internalType": "bytes[]",
          "name": "calldatas",
          "type": "bytes[]"
        }
      ],
      "stateMutability": "view",
      "type": "function"
    },
    {
      "inputs": [
        {
          "internalType": "uint256",
          "name": "proposalId",
          "type": "uint256"
        }
      ],
      "name": "getDescription",
      "outputs": [
        {
          "internalType": "string",
          "name": "",
          "type": "string"
        }
      ],
      "stateMutability": "view",
      "type": "function"
    },
    {
      "inputs": [
        {
          "internalType": "uint256",
          "name": "proposalId",
          "type": "uint256"
        },
        {
          "internalType": "address",
          "name": "voter",
          "type": "address"
        }
      ],
      "name": "getReceipt",
      "outputs": [
        {
          "components": [
            {
              "internalType": "bool",
              "name": "hasVoted",
              "type": "bool"
            },
            {
              "internalType": "bool",
              "name": "support",
              "type": "bool"
            },
            {
              "internalType": "uint96",
              "name": "votes",
              "type": "uint96"
            },
            {
              "internalType": "uint96",
              "name": "rawVotes",
              "type": "uint96"
            },
            {
              "internalType": "bool",
              "name": "hasVotesRefunded",
              "type": "bool"
            },
            {
              "internalType": "uint256",
              "name": "endVotesCancelPeriodBlock",
              "type": "uint256"
            }
          ],
          "internalType": "struct Governor.Receipt",
          "name": "",
          "type": "tuple"
        }
      ],
      "stateMutability": "view",
      "type": "function"
    },
    {
      "inputs": [],
      "name": "guardian",
      "outputs": [
        {
          "internalType": "address",
          "name": "",
          "type": "address"
        }
      ],
      "stateMutability": "view",
      "type": "function"
    },
    {
      "inputs": [
        {
          "internalType": "address",
          "name": "",
          "type": "address"
        }
      ],
      "name": "latestProposalIds",
      "outputs": [
        {
          "internalType": "uint256",
          "name": "",
          "type": "uint256"
        }
      ],
      "stateMutability": "view",
      "type": "function"
    },
    {
      "inputs": [],
      "name": "name",
      "outputs": [
        {
          "internalType": "string",
          "name": "",
          "type": "string"
        }
      ],
      "stateMutability": "view",
      "type": "function"
    },
    {
      "inputs": [],
      "name": "proposalCancelPeriod",
      "outputs": [
        {
          "internalType": "uint256",
          "name": "",
          "type": "uint256"
        }
      ],
      "stateMutability": "pure",
      "type": "function"
    },
    {
      "inputs": [],
      "name": "proposalCount",
      "outputs": [
        {
          "internalType": "uint256",
          "name": "",
          "type": "uint256"
        }
      ],
      "stateMutability": "view",
      "type": "function"
    },
    {
      "inputs": [],
      "name": "proposalMaxOperations",
      "outputs": [
        {
          "internalType": "uint256",
          "name": "",
          "type": "uint256"
        }
      ],
      "stateMutability": "pure",
      "type": "function"
    },
    {
      "inputs": [],
      "name": "proposalThreshold",
      "outputs": [
        {
          "internalType": "uint256",
          "name": "",
          "type": "uint256"
        }
      ],
      "stateMutability": "view",
      "type": "function"
    },
    {
      "inputs": [
        {
          "internalType": "uint256",
          "name": "",
          "type": "uint256"
        }
      ],
      "name": "proposals",
      "outputs": [
        {
          "internalType": "uint256",
          "name": "id",
          "type": "uint256"
        },
        {
          "internalType": "address",
          "name": "proposer",
          "type": "address"
        },
        {
          "internalType": "uint256",
          "name": "eta",
          "type": "uint256"
        },
        {
          "internalType": "uint256",
          "name": "startBlock",
          "type": "uint256"
        },
        {
          "internalType": "uint256",
          "name": "endBlock",
          "type": "uint256"
        },
        {
          "internalType": "uint256",
          "name": "forVotes",
          "type": "uint256"
        },
        {
          "internalType": "uint256",
          "name": "againstVotes",
          "type": "uint256"
        },
        {
          "internalType": "uint256",
          "name": "rawForVotes",
          "type": "uint256"
        },
        {
          "internalType": "uint256",
          "name": "rawAgainstVotes",
          "type": "uint256"
        },
        {
          "internalType": "bool",
          "name": "canceled",
          "type": "bool"
        },
        {
          "internalType": "bool",
          "name": "executed",
          "type": "bool"
        },
        {
          "internalType": "string",
          "name": "description",
          "type": "string"
        },
        {
          "internalType": "uint256",
          "name": "parentProposalId",
          "type": "uint256"
        },
        {
          "internalType": "uint256",
          "name": "endProposalCancelPeriodBlock",
          "type": "uint256"
        }
      ],
      "stateMutability": "view",
      "type": "function"
    },
    {
      "inputs": [
        {
          "internalType": "address[]",
          "name": "targets",
          "type": "address[]"
        },
        {
          "internalType": "uint256[]",
          "name": "values",
          "type": "uint256[]"
        },
        {
          "internalType": "string[]",
          "name": "signatures",
          "type": "string[]"
        },
        {
          "internalType": "bytes[]",
          "name": "calldatas",
          "type": "bytes[]"
        },
        {
          "internalType": "string",
          "name": "description",
          "type": "string"
        }
      ],
      "name": "propose",
      "outputs": [
        {
          "internalType": "uint256",
          "name": "",
          "type": "uint256"
        }
      ],
      "stateMutability": "nonpayable",
      "type": "function"
    },
    {
      "inputs": [
        {
          "internalType": "address[]",
          "name": "targets",
          "type": "address[]"
        },
        {
          "internalType": "uint256[]",
          "name": "values",
          "type": "uint256[]"
        },
        {
          "internalType": "string[]",
          "name": "signatures",
          "type": "string[]"
        },
        {
          "internalType": "bytes[]",
          "name": "calldatas",
          "type": "bytes[]"
        },
        {
          "internalType": "string[]",
          "name": "descriptions",
          "type": "string[]"
        }
      ],
      "name": "proposeMultiAttribute",
      "outputs": [
        {
          "internalType": "uint256",
          "name": "",
          "type": "uint256"
        }
      ],
      "stateMutability": "nonpayable",
      "type": "function"
    },
    {
      "inputs": [
        {
          "internalType": "uint256",
          "name": "proposalId",
          "type": "uint256"
        }
      ],
      "name": "queue",
      "outputs": [],
      "stateMutability": "nonpayable",
      "type": "function"
    },
    {
      "inputs": [],
      "name": "quorumVotes",
      "outputs": [
        {
          "internalType": "uint256",
          "name": "",
          "type": "uint256"
        }
      ],
      "stateMutability": "view",
      "type": "function"
    },
    {
      "inputs": [
        {
          "internalType": "uint256",
          "name": "proposalId",
          "type": "uint256"
        }
      ],
      "name": "refund",
      "outputs": [],
      "stateMutability": "nonpayable",
      "type": "function"
    },
    {
      "inputs": [
        {
          "internalType": "uint256",
          "name": "_proposalThreshold",
          "type": "uint256"
        }
      ],
      "name": "setProposalThreshold",
      "outputs": [],
      "stateMutability": "nonpayable",
      "type": "function"
    },
    {
      "inputs": [
        {
          "internalType": "uint256",
          "name": "_quorum",
          "type": "uint256"
        }
      ],
      "name": "setQuorum",
      "outputs": [],
      "stateMutability": "nonpayable",
      "type": "function"
    },
    {
      "inputs": [
        {
          "internalType": "uint256",
          "name": "proposalId",
          "type": "uint256"
        }
      ],
      "name": "state",
      "outputs": [
        {
          "internalType": "enum Governor.ProposalState",
          "name": "",
          "type": "uint8"
        }
      ],
      "stateMutability": "view",
      "type": "function"
    },
    {
      "inputs": [],
      "name": "timelock",
      "outputs": [
        {
          "internalType": "contract TimelockInterface",
          "name": "",
          "type": "address"
        }
      ],
      "stateMutability": "view",
      "type": "function"
    },
    {
      "inputs": [],
      "name": "votesCancelPeriod",
      "outputs": [
        {
          "internalType": "uint256",
          "name": "",
          "type": "uint256"
        }
      ],
      "stateMutability": "pure",
      "type": "function"
    },
    {
      "inputs": [],
      "name": "votingDelay",
      "outputs": [
        {
          "internalType": "uint256",
          "name": "",
          "type": "uint256"
        }
      ],
      "stateMutability": "pure",
      "type": "function"
    },
    {
      "inputs": [],
      "name": "votingPeriod",
      "outputs": [
        {
          "internalType": "uint256",
          "name": "",
          "type": "uint256"
        }
      ],
      "stateMutability": "pure",
      "type": "function"
    }
  ],
  "bytecode": "0x608060405264932622b00060005569152d02c7e14af68000006001553480156200002857600080fd5b5060405162004f2538038062004f258339810160408190526200004b91620000ab565b600280546001600160a01b039485166001600160a01b031991821617909155600380549385169382169390931790925560048054919093169116179055620000f4565b80516001600160a01b0381168114620000a657600080fd5b919050565b600080600060608486031215620000c0578283fd5b620000cb846200008e565b9250620000db602085016200008e565b9150620000eb604085016200008e565b90509250925092565b614e2180620001046000396000f3fe6080604052600436106101f95760003560e01c8063760fbc131161010d578063da35c664116100a0578063deaaa7cc1161006f578063deaaa7cc146105e9578063e23a9a521461061d578063eb05136f1461042b578063ece40cc11461075c578063fe0d94c11461077c576101f9565b8063da35c66414610573578063da95691a14610589578063dbfa977f146105a9578063ddf0b009146105c9576101f9565b8063b58131b0116100dc578063b58131b014610509578063b9a619611461051e578063c1ba4e5914610533578063d33219b414610553576101f9565b8063760fbc13146104a05780637bdbe4d0146104b557806391500671146104c957806394a08d58146104e9576101f9565b8063328dd98211610190578063452a93201161015f578063452a9320146103f357806345982a231461042b5780634925ec55146104405780635d2546081461046057806372c3e0c314610480576101f9565b8063328dd982146103625780633932abb1146103925780633e4f49e6146103a657806340e58ee5146103d3576101f9565b806320606b70116101cc57806320606b70146102d757806321f43e421461030b57806324bc1a641461032d578063278ecde114610342576101f9565b8063013cf08b146101fe57806302a251a31461024157806306fdde031461026057806317977c61146102aa575b600080fd5b34801561020a57600080fd5b5061021e61021936600461447e565b61078f565b6040516102389e9d9c9b9a99989796959493929190614a97565b60405180910390f35b34801561024d57600080fd5b506116805b604051908152602001610238565b34801561026c57600080fd5b5061029d6040518060400160405280601181526020017021a6269c102220a79023b7bb32b93737b960791b81525081565b60405161023891906148ad565b3480156102b657600080fd5b506102526102c5366004614212565b60076020526000908152604090205481565b3480156102e357600080fd5b506102527f8cad95687ba82c2ce50e74f7b754645e5117c3a5bec8151c0726d5857980a86681565b34801561031757600080fd5b5061032b61032636600461422c565b610897565b005b34801561033957600080fd5b50600054610252565b34801561034e57600080fd5b5061032b61035d36600461447e565b6109dd565b34801561036e57600080fd5b5061038261037d36600461447e565b610aa7565b604051610238949392919061482d565b34801561039e57600080fd5b506001610252565b3480156103b257600080fd5b506103c66103c136600461447e565b610d38565b6040516102389190614885565b3480156103df57600080fd5b5061032b6103ee36600461447e565b610ffa565b3480156103ff57600080fd5b50600454610413906001600160a01b031681565b6040516001600160a01b039091168152602001610238565b34801561043757600080fd5b50610140610252565b34801561044c57600080fd5b5061029d61045b36600461447e565b6113d1565b34801561046c57600080fd5b5061032b61047b3660046144c1565b611476565b34801561048c57600080fd5b5061025261049b366004614255565b611685565b3480156104ac57600080fd5b5061032b611a51565b3480156104c157600080fd5b50600a610252565b3480156104d557600080fd5b5061032b6104e436600461422c565b611ad7565b3480156104f557600080fd5b50600354610413906001600160a01b031681565b34801561051557600080fd5b50600154610252565b34801561052a57600080fd5b5061032b611c0d565b34801561053f57600080fd5b5061032b61054e36600461447e565b611cee565b34801561055f57600080fd5b50600254610413906001600160a01b031681565b34801561057f57600080fd5b5061025260055481565b34801561059557600080fd5b506102526105a4366004614321565b611d5b565b3480156105b557600080fd5b5061032b6105c436600461452c565b611ea7565b3480156105d557600080fd5b5061032b6105e436600461447e565b611eb3565b3480156105f557600080fd5b506102527f8e25870c07e0b0b3884c78da52790939a455c275406c44ae8b434b692fb916ee81565b34801561062957600080fd5b506106fb610638366004614496565b6040805160c081018252600080825260208201819052918101829052606081018290526080810182905260a08101919091525060008281526006602090815260408083206001600160a01b0385168452601101825291829020825160c081018452815460ff80821615158352610100820481161515948301949094526001600160601b03620100008204811695830195909552600160701b81049094166060820152600160d01b909304909116151560808301526001015460a082015292915050565b6040516102389190600060c08201905082511515825260208301511515602083015260408301516001600160601b038082166040850152806060860151166060850152505060808301511515608083015260a083015160a083015292915050565b34801561076857600080fd5b5061032b61077736600461447e565b612277565b61032b61078a36600461447e565b6122ef565b6006602052600090815260409020805460018201546002830154600784015460088501546009860154600a870154600b880154600c890154600d8a0154600e8b0180549a9b6001600160a01b03909a169a989997989697959694959394929360ff80841694610100909404169290919061080890614cd6565b80601f016020809104026020016040519081016040528092919081815260200182805461083490614cd6565b80156108815780601f1061085657610100808354040283529160200191610881565b820191906000526020600020905b81548152906001019060200180831161086457829003601f168201915b50505050509080600f015490806012015490508e565b6004546001600160a01b0316331461092c5760405162461bcd60e51b815260206004820152604760248201527f476f7665726e6f723a3a5f5f6578656375746553657454696d656c6f636b506560448201527f6e64696e6741646d696e3a2073656e646572206d75737420626520676f7620676064820152663ab0b93234b0b760c91b608482015260a4015b60405180910390fd5b600254604080516001600160a01b03858116602083015290921691630825f38f91839160009101604051602081830303815290604052856040518563ffffffff1660e01b8152600401610982949392919061471a565b600060405180830381600087803b15801561099c57600080fd5b505af11580156109b0573d6000803e3d6000fd5b505050506040513d6000823e601f3d908101601f191682016040526109d89190810190614414565b505050565b6000818152600660209081526040808320338452601181019092529091208054600160d01b900460ff1615610a245760405162461bcd60e51b8152600401610923906149af565b601082015415610a995760108201548015610a975760005b81811015610a8e57610a7c846010018281548110610a6a57634e487b7160e01b600052603260045260246000fd5b9060005260206000200154600161258a565b80610a8681614d0b565b915050610a3c565b50505050610aa4565b505b6109d883600061258a565b50565b60608060608060006006600087815260200190815260200160002090508060030181600401826005018360060183805480602002602001604051908101604052809291908181526020018280548015610b2957602002820191906000526020600020905b81546001600160a01b03168152600190910190602001808311610b0b575b5050505050935082805480602002602001604051908101604052809291908181526020018280548015610b7b57602002820191906000526020600020905b815481526020019060010190808311610b67575b5050505050925081805480602002602001604051908101604052809291908181526020016000905b82821015610c4f578382906000526020600020018054610bc290614cd6565b80601f0160208091040260200160405190810160405280929190818152602001828054610bee90614cd6565b8015610c3b5780601f10610c1057610100808354040283529160200191610c3b565b820191906000526020600020905b815481529060010190602001808311610c1e57829003601f168201915b505050505081526020019060010190610ba3565b50505050915080805480602002602001604051908101604052809291908181526020016000905b82821015610d22578382906000526020600020018054610c9590614cd6565b80601f0160208091040260200160405190810160405280929190818152602001828054610cc190614cd6565b8015610d0e5780601f10610ce357610100808354040283529160200191610d0e565b820191906000526020600020905b815481529060010190602001808311610cf157829003601f168201915b505050505081526020019060010190610c76565b5050505090509450945094509450509193509193565b60008160055410158015610d4c5750600082115b610da45760405162461bcd60e51b8152602060048201526024808201527f476f7665726e6f723a3a73746174653a20696e76616c69642070726f706f73616044820152631b081a5960e21b6064820152608401610923565b6000828152600660205260408120600f810154909190819015610dca5760019150610dd8565b601083015415610dd8575060015b6009830154600a8401548215610e805760005b6010860154811015610e7e57600060066000886010018481548110610e2057634e487b7160e01b600052603260045260246000fd5b906000526020600020015481526020019081526020016000209050866008015443118015610e56575080600a0154816009015411155b15610e6b576004975050505050505050610ff5565b5080610e7681614d0b565b915050610deb565b505b600d85015460ff1615610e9b57600295505050505050610ff5565b84600701544311610eb457600095505050505050610ff5565b84600801544311610ecd57600195505050505050610ff5565b83158015610ee55750600054610ee38284614ba0565b105b15610ef857600395505050505050610ff5565b808211610f0d57600495505050505050610ff5565b6002850154610f2457600595505050505050610ff5565b600d850154610100900460ff1615610f4457600895505050505050610ff5565b610fd78560020154600260009054906101000a90046001600160a01b03166001600160a01b031663c1a287e26040518163ffffffff1660e01b815260040160206040518083038186803b158015610f9a57600080fd5b505afa158015610fae573d6000803e3d6000fd5b505050506040513d601f19601f82011682018060405250810190610fd291906143fc565b612de4565b4210610feb57600795505050505050610ff5565b6006955050505050505b919050565b600061100582610d38565b9050600181600881111561102957634e487b7160e01b600052602160045260246000fd5b1461108a5760405162461bcd60e51b815260206004820152602b60248201527f476f7665726e6f723a3a63616e63656c3a2070726f706f73616c2073686f756c60448201526a642062652061637469766560a81b6064820152608401610923565b60008281526006602052604090206004546001600160a01b03163314806110bd575060018101546001600160a01b031633145b61111e5760405162461bcd60e51b815260206004820152602c60248201527f476f7665726e6f723a3a63616e63656c3a20796f752063616e6e6f742063616e60448201526b18d95b081c1c9bdc1bdcd85b60a21b6064820152608401610923565b80601201544311156111a65760405162461bcd60e51b8152602060048201526044602482018190527f476f7665726e6f723a3a63616e63656c3a20796f752063616e6e6f742063616e908201527f63656c2070726f706f73616c2c2063616e63656c20706572696f6420697320656064820152631b99195960e21b608482015260a401610923565b60015481600b0154111580156111c2575060015481600c015411155b6112345760405162461bcd60e51b815260206004820152603f60248201527f476f7665726e6f723a3a63616e63656c3a20796f752063616e6e6f742063616e60448201527f63656c2070726f706f73616c207769746820736f6d656f6e6520766f746564006064820152608401610923565b600d8101805460ff1916600117905560005b6003820154811015611397576002546003830180546001600160a01b039092169163591fcdfe91908490811061128c57634e487b7160e01b600052603260045260246000fd5b6000918252602090912001546004850180546001600160a01b0390921691859081106112c857634e487b7160e01b600052603260045260246000fd5b90600052602060002001548560050185815481106112f657634e487b7160e01b600052603260045260246000fd5b9060005260206000200186600601868154811061132357634e487b7160e01b600052603260045260246000fd5b9060005260206000200187600201546040518663ffffffff1660e01b81526004016113529594939291906147d2565b600060405180830381600087803b15801561136c57600080fd5b505af1158015611380573d6000803e3d6000fd5b50505050808061138f90614d0b565b915050611246565b506040518381527f789cf55be980739dad1d0699b93b58e806b51c9d96619bfa8fe0a28abaa7b30c906020015b60405180910390a1505050565b6000818152600660205260409020600e018054606091906113f190614cd6565b80601f016020809104026020016040519081016040528092919081815260200182805461141d90614cd6565b801561146a5780601f1061143f5761010080835404028352916020019161146a565b820191906000526020600020905b81548152906001019060200180831161144d57829003601f168201915b50505050509050919050565b604080518082018252601181527021a6269c102220a79023b7bb32b93737b960791b60209182015281517f8cad95687ba82c2ce50e74f7b754645e5117c3a5bec8151c0726d5857980a866818301527f5c6c4638be9dacb7243638d3b44c65664c952613289876d97c23e080e4e9ff3381840152466060820152306080808301919091528351808303909101815260a0820184528051908301207f8e25870c07e0b0b3884c78da52790939a455c275406c44ae8b434b692fb916ee60c083015260e082018a9052881515610100808401919091528451808403909101815261012083019094528351939092019290922061190160f01b6101408401526101428301829052610162830181905290916000906101820160408051601f198184030181528282528051602091820120600080855291840180845281905260ff8b169284019290925260608301899052608083018890529092509060019060a0016020604051602081039080840390855afa1580156115f6573d6000803e3d6000fd5b5050604051601f1901519150506001600160a01b03811661166c5760405162461bcd60e51b815260206004820152602a60248201527f476f7665726e6f723a3a63617374566f746542795369673a20696e76616c6964604482015269207369676e617475726560b01b6064820152608401610923565b611678818b8b88612e3e565b505050505b505050505050565b600081518651146116a85760405162461bcd60e51b815260040161092390614909565b6000865167ffffffffffffffff8111156116d257634e487b7160e01b600052604160045260246000fd5b6040519080825280602002602001820160405280156116fb578160200160208202803683370190505b50905060005b87518110156119d55760408051600180825281830190925260009160208083019080368337505060408051600180825281830190925292935060009291506020808301908036833750506040805160018082528183019092529293506000929150602082015b606081526020019060019003908161176757505060408051600180825281830190925291925060009190602082015b60608152602001906001900390816117965790505090508b85815181106117cd57634e487b7160e01b600052603260045260246000fd5b6020026020010151846000815181106117f657634e487b7160e01b600052603260045260246000fd5b60200260200101906001600160a01b031690816001600160a01b0316815250508a858151811061183657634e487b7160e01b600052603260045260246000fd5b60200260200101518360008151811061185f57634e487b7160e01b600052603260045260246000fd5b60200260200101818152505089858151811061188b57634e487b7160e01b600052603260045260246000fd5b6020026020010151826000815181106118b457634e487b7160e01b600052603260045260246000fd5b60200260200101819052508885815181106118df57634e487b7160e01b600052603260045260246000fd5b60200260200101518160008151811061190857634e487b7160e01b600052603260045260246000fd5b60200260200101819052506000611949858585858d8b8151811061193c57634e487b7160e01b600052603260045260246000fd5b6020026020010151613111565b90508087878151811061196c57634e487b7160e01b600052603260045260246000fd5b602090810291909101015285156119bd5760008181526006602052604081208851909189916119ab57634e487b7160e01b600052603260045260246000fd5b602002602001015181600f0181905550505b505050505080806119cd90614d0b565b915050611701565b506119df816134c7565b611a1c3382600081518110611a0457634e487b7160e01b600052603260045260246000fd5b60200260200101516001611a1760015490565b61356b565b80600081518110611a3d57634e487b7160e01b600052603260045260246000fd5b602002602001015191505095945050505050565b6004546001600160a01b03163314611ac55760405162461bcd60e51b815260206004820152603160248201527f476f7665726e6f723a3a5f5f61626469636174653a2073656e646572206d75736044820152703a1031329033b7bb1033bab0b93234b0b760791b6064820152608401610923565b600480546001600160a01b0319169055565b6004546001600160a01b03163314611b655760405162461bcd60e51b815260206004820152604560248201527f476f7665726e6f723a3a5f5f717565756553657454696d656c6f636b50656e6460448201527f696e6741646d696e3a2073656e646572206d75737420626520676f7620677561606482015264393234b0b760d91b608482015260a401610923565b600254604080516001600160a01b03858116602083015290921691633a66f90191839160009101604051602081830303815290604052856040518563ffffffff1660e01b8152600401611bbb949392919061471a565b602060405180830381600087803b158015611bd557600080fd5b505af1158015611be9573d6000803e3d6000fd5b505050506040513d601f19601f820116820180604052508101906109d891906143fc565b6004546001600160a01b03163314611c845760405162461bcd60e51b815260206004820152603460248201527f476f7665726e6f723a3a5f5f61636365707441646d696e3a2073656e6465722060448201527336bab9ba1031329033b7bb1033bab0b93234b0b760611b6064820152608401610923565b600260009054906101000a90046001600160a01b03166001600160a01b0316630e18b6816040518163ffffffff1660e01b8152600401600060405180830381600087803b158015611cd457600080fd5b505af1158015611ce8573d6000803e3d6000fd5b50505050565b6004546001600160a01b03163314611d565760405162461bcd60e51b815260206004820152602560248201527f476f7665726e6f723a3a73657451756f72756d3a206d75737420626520677561604482015264393234b0b760d91b6064820152608401610923565b600055565b6000611d6660015490565b6003546001600160a01b031663782d6fe133611d83436001613624565b6040516001600160e01b031960e085901b1681526001600160a01b039092166004830152602482015260440160206040518083038186803b158015611dc757600080fd5b505afa158015611ddb573d6000803e3d6000fd5b505050506040513d601f19601f82011682018060405250810190611dff919061456d565b6001600160601b03161015611e7c5760405162461bcd60e51b815260206004820152603a60248201527f476f7665726e6f723a3a70726f706f73653a2070726f706f73657220766f746560448201527f732062656c6f772070726f706f73616c207468726573686f6c640000000000006064820152608401610923565b6000611e8b8787878787613111565b9050611e9d33826001611a1760015490565b9695505050505050565b6109d833848484612e3e565b6005611ebe82610d38565b6008811115611edd57634e487b7160e01b600052602160045260246000fd5b14611f505760405162461bcd60e51b815260206004820152603f60248201527f476f7665726e6f723a3a71756575653a2070726f706f73616c2063616e206f6e60448201527f6c792062652071756575656420696620697420697320737563636565646564006064820152608401610923565b6000818152600660205260409020600354600b820154600c8301546001600160a01b03909216916372d3ee9e913091611f9491611f8c91612de4565b600154613624565b6040518363ffffffff1660e01b8152600401611fb192919061480b565b600060405180830381600087803b158015611fcb57600080fd5b505af1158015611fdf573d6000803e3d6000fd5b50505050600061203742600260009054906101000a90046001600160a01b03166001600160a01b0316636a42b8f86040518163ffffffff1660e01b815260040160206040518083038186803b158015610f9a57600080fd5b905060005b60038301548110156122395761222783600301828154811061206e57634e487b7160e01b600052603260045260246000fd5b6000918252602090912001546004850180546001600160a01b0390921691849081106120aa57634e487b7160e01b600052603260045260246000fd5b90600052602060002001548560050184815481106120d857634e487b7160e01b600052603260045260246000fd5b9060005260206000200180546120ed90614cd6565b80601f016020809104026020016040519081016040528092919081815260200182805461211990614cd6565b80156121665780601f1061213b57610100808354040283529160200191612166565b820191906000526020600020905b81548152906001019060200180831161214957829003601f168201915b505050505086600601858154811061218e57634e487b7160e01b600052603260045260246000fd5b9060005260206000200180546121a390614cd6565b80601f01602080910402602001604051908101604052809291908181526020018280546121cf90614cd6565b801561221c5780601f106121f15761010080835404028352916020019161221c565b820191906000526020600020905b8154815290600101906020018083116121ff57829003601f168201915b505050505086613678565b8061223181614d0b565b91505061203c565b506002820181905560408051848152602081018390527f9a2e42fd6722813d69113e7d0079d3d940171428df7373df9c7f7617cfda289291016113c4565b6004546001600160a01b031633146122ea5760405162461bcd60e51b815260206004820152603060248201527f476f7665726e6f723a3a73657450726f706f73616c5468726573686f6c643a2060448201526f36bab9ba1031329033bab0b93234b0b760811b6064820152608401610923565b600155565b60066122fa82610d38565b600881111561231957634e487b7160e01b600052602160045260246000fd5b1461238e576040805162461bcd60e51b81526020600482015260248101919091527f476f7665726e6f723a3a657865637574653a2070726f706f73616c2063616e2060448201527f6f6e6c79206265206578656375746564206966206974206973207175657565646064820152608401610923565b6000818152600660205260408120600d8101805461ff001916610100179055905b6003820154811015612552576002546004830180546001600160a01b0390921691630825f38f9190849081106123f557634e487b7160e01b600052603260045260246000fd5b906000526020600020015484600301848154811061242357634e487b7160e01b600052603260045260246000fd5b6000918252602090912001546004860180546001600160a01b03909216918690811061245f57634e487b7160e01b600052603260045260246000fd5b906000526020600020015486600501868154811061248d57634e487b7160e01b600052603260045260246000fd5b906000526020600020018760060187815481106124ba57634e487b7160e01b600052603260045260246000fd5b9060005260206000200188600201546040518763ffffffff1660e01b81526004016124e99594939291906147d2565b6000604051808303818588803b15801561250257600080fd5b505af1158015612516573d6000803e3d6000fd5b50505050506040513d6000823e601f3d908101601f1916820160405261253f9190810190614414565b508061254a81614d0b565b9150506123af565b506040518281527f712ae1383f79ac853f8d882153778e0260ef8f03b504e2866e0593e04d2b291f9060200160405180910390a15050565b6000828152600660209081526040808320338452601181019092529091208280156125c257508054600160d01b900460ff1615156001145b156125ce575050612de0565b8054600160d01b900460ff16156125f75760405162461bcd60e51b8152600401610923906149af565b600061260285610d38565b600f84015490915060009082901561267d576001915061262585600f0154610d38565b9050600381600881111561264957634e487b7160e01b600052602160045260246000fd5b14806126745750600481600881111561267257634e487b7160e01b600052602160045260246000fd5b145b1561267d578092505b600183600881111561269f57634e487b7160e01b600052602160045260246000fd5b141561272f57836001015443111561272f5760405162461bcd60e51b815260206004820152604760248201527f476f7665726e6f723a3a726566756e643a206e6f7420656c696769626c65206660448201527f6f7220726566756e642c20766f7465732063616e63656c20706572696f6420696064820152661cc8195b99195960ca1b608482015260a401610923565b60018581015460009182916001600160a01b0316331490829087600881111561276857634e487b7160e01b600052602160045260246000fd5b1490508180156127975750600487600881111561279557634e487b7160e01b600052602160045260246000fd5b145b156127b45760405162461bcd60e51b815260040161092390614966565b60008280156128b3575060058860088111156127e057634e487b7160e01b600052602160045260246000fd5b148061280b5750600688600881111561280957634e487b7160e01b600052602160045260246000fd5b145b806128355750600888600881111561283357634e487b7160e01b600052602160045260246000fd5b145b8061285f5750600488600881111561285d57634e487b7160e01b600052602160045260246000fd5b145b806128895750600388600881111561288757634e487b7160e01b600052602160045260246000fd5b145b806128b3575060028860088111156128b157634e487b7160e01b600052602160045260246000fd5b145b90508015612adf5760058860088111156128dd57634e487b7160e01b600052602160045260246000fd5b14806129085750600688600881111561290657634e487b7160e01b600052602160045260246000fd5b145b806129325750600888600881111561293057634e487b7160e01b600052602160045260246000fd5b145b1561297157885460029061295790600160701b90046001600160601b03166003614c3c565b6129619190614bf7565b6001600160601b03169450612ada565b600388600881111561299357634e487b7160e01b600052602160045260246000fd5b1415612a3c5788546000906129b990600160701b90046001600160601b03166004613827565b600354604051633969f74f60e11b81529192506001600160a01b0316906372d3ee9e906129ec903090859060040161480b565b600060405180830381600087803b158015612a0657600080fd5b505af1158015612a1a573d6000803e3d6000fd5b50505050806003612a2b9190614c1d565b6001600160601b0316955050612ada565b8854600160701b90046001600160601b03166000612a5b826014613827565b9050612a678282613624565b600354604051633969f74f60e11b81526001600160601b039290921698506001600160a01b0316906372d3ee9e90612aa5903090859060040161480b565b600060405180830381600087803b158015612abf57600080fd5b505af1158015612ad3573d6000803e3d6000fd5b5050505050505b612b90565b8115612b7b578215612b595760405162461bcd60e51b815260206004820152603960248201527f476f7665726e6f723a3a726566756e643a2070726f706f736572206d6179206e60448201527f6f74206368616e67652068697320766f746520616d6f756e74000000000000006064820152608401610923565b8854600160701b90046001600160601b03169350836000612a5b826014613827565b8854600160701b90046001600160601b031694505b60008511612bec5760405162461bcd60e51b815260206004820152602360248201527f476f7665726e6f723a3a726566756e643a206e6f7468696e6720746f207265666044820152621d5b9960ea1b6064820152608401610923565b60006003896008811115612c1057634e487b7160e01b600052602160045260246000fd5b1490508280612c1c5750805b80612c245750815b612c405760405162461bcd60e51b815260040161092390614966565b612c806040518060400160405280601881526020017f476f7665726e6f723a3a5f726566756e6420616d6f756e7400000000000000008152508e8861385c565b60035460405163a9059cbb60e01b8152336004820152602481018890526001600160a01b039091169063a9059cbb90604401602060405180830381600087803b158015612ccc57600080fd5b505af1158015612ce0573d6000803e3d6000fd5b505050506040513d601f19601f82011682018060405250810190612d0491906143e0565b508215612d92578954610100900460ff1615612d585760098b01548a54612d3a91906201000090046001600160601b0316613624565b60098c0155600b8b0154612d4e9086613624565b600b8c0155612d92565b600a8b01548a54612d7891906201000090046001600160601b0316613624565b600a8c0155600c8b0154612d8c9086613624565b600c8c01555b8954600160d01b61ff01600160d81b03198216178b55600f8c0154600160701b9091046001600160601b03169015612dd357612dd3338d600f0154836138a3565b5050505050505050505050505b5050565b600080612df18385614ba0565b905083811015612e375760405162461bcd60e51b81526020600482015260116024820152706164646974696f6e206f766572666c6f7760781b6044820152606401610923565b9392505050565b6001612e4984610d38565b6008811115612e6857634e487b7160e01b600052602160045260246000fd5b14612ec35760405162461bcd60e51b815260206004820152602560248201527f476f7665726e6f723a3a5f63617374566f74653a20766f74696e6720697320636044820152641b1bdcd95960da1b6064820152608401610923565b60008381526006602090815260408083206001600160a01b0388811685526011820190935292206001830154909116331415612f5b5760405162461bcd60e51b815260206004820152603160248201527f476f7665726e6f723a3a5f63617374566f74653a2070726f706f7365722063616044820152706e6e6f7420746f70206f666620766f746560781b6064820152608401610923565b805460ff1615612fd35760405162461bcd60e51b815260206004820152603f60248201527f476f7665726e6f723a3a5f63617374566f74653a2063616e6e6f7420746f702060448201527f6f66662073616d6520766f746520776974686f757420726566756e64696e67006064820152608401610923565b8054600354600784015460405163782d6fe160e01b81526001600160a01b038a8116600483015260248201929092526000936201000090046001600160601b031692919091169063782d6fe19060440160206040518083038186803b15801561303b57600080fd5b505afa15801561304f573d6000803e3d6000fd5b505050506040513d601f19601f82011682018060405250810190613073919061456d565b61307d9190614c82565b9050806001600160601b0316846001600160601b031611156130fc5760405162461bcd60e51b815260206004820152603260248201527f476f7665726e6f723a3a5f63617374566f74653a20766f746573206578636565604482015271191cc8195b1a59da589b1948185b5bdd5b9d60721b6064820152608401610923565b6131088787878761356b565b50505050505050565b600084518651148015613125575083518651145b8015613132575082518651145b61314e5760405162461bcd60e51b815260040161092390614909565b85516131ac5760405162461bcd60e51b815260206004820152602760248201527f476f7665726e6f723a3a70726f706f73653a206d7573742070726f7669646520604482015266616374696f6e7360c81b6064820152608401610923565b600a8651111561320a5760405162461bcd60e51b815260206004820152602360248201527f476f7665726e6f723a3a70726f706f73653a20746f6f206d616e7920616374696044820152626f6e7360e81b6064820152608401610923565b6001546003546040516370a0823160e01b81523360048201526001600160a01b03909116906370a082319060240160206040518083038186803b15801561325057600080fd5b505afa158015613264573d6000803e3d6000fd5b505050506040513d601f19601f8201168201806040525081019061328891906143fc565b10156133065760405162461bcd60e51b815260206004820152604160248201527f476f7665726e6f723a3a70726f706f73653a206e6f7420656e6f75676820626160448201527f6c616e636520746f206c6f636b2064434c4d3820776974682070726f706f73616064820152601b60fa1b608482015260a401610923565b6000613313436001610fd2565b9050600061332382611680610fd2565b9050600061333383610140610fd2565b60058054919250600061334583614d0b565b9091555050600554600081815260066020908152604082209283556001830180546001600160a01b0319163317905560028301919091558a51613390916003840191908d0190613dc1565b5088516133a690600483019060208c0190613e26565b5087516133bc90600583019060208b0190613e61565b5086516133d290600683019060208a0190613eba565b506007810184905560088101839055600060098201819055600a8201819055600b8201819055600c820155600d8101805461ffff19169055855161341f90600e8301906020890190613f13565b508181601201819055508060000154600760008360010160009054906101000a90046001600160a01b03166001600160a01b03166001600160a01b03168152602001908152602001600020819055507f7d84a6263ae0d98d3329bd7b46bb4e8d6f98cd35a7adb45c274c8b7fd5ebd5e08160000154338c8c8c8c8a8a8e6040516134b1999897969594939291906149ff565b60405180910390a1549998505050505050505050565b600060066000836000815181106134ee57634e487b7160e01b600052603260045260246000fd5b6020026020010151815260200190815260200160002090506000600190505b82518110156109d8578160100183828151811061353a57634e487b7160e01b600052603260045260246000fd5b602090810291909101810151825460018101845560009384529190922001558061356381614d0b565b91505061350d565b6000838152600660205260409020601081015480156135fa576000613599846001600160601b031683613827565b905060005b828110156135f1576135df338560100183815481106135cd57634e487b7160e01b600052603260045260246000fd5b9060005260206000200154888561356b565b806135e981614d0b565b91505061359e565b50505050611ce8565b600f82015415613616576136168683600f015486866000613a38565b61167d868686866001613a38565b60008282111561366e5760405162461bcd60e51b81526020600482015260156024820152747375627472616374696f6e20756e646572666c6f7760581b6044820152606401610923565b612e378284614c6b565b6002546040516001600160a01b039091169063f2b06537906136a69088908890889088908890602001614786565b604051602081830303815290604052805190602001206040518263ffffffff1660e01b81526004016136da91815260200190565b60206040518083038186803b1580156136f257600080fd5b505afa158015613706573d6000803e3d6000fd5b505050506040513d601f19601f8201168201806040525081019061372a91906143e0565b1561379d5760405162461bcd60e51b815260206004820152603f60248201527f476f7665726e6f723a3a5f71756575654f725265766572743a2070726f706f7360448201527f616c20616374696f6e20616c72656164792071756575656420617420657461006064820152608401610923565b600254604051633a66f90160e01b81526001600160a01b0390911690633a66f901906137d59088908890889088908890600401614786565b602060405180830381600087803b1580156137ef57600080fd5b505af1158015613803573d6000803e3d6000fd5b505050506040513d601f19601f8201168201806040525081019061167d91906143fc565b6000612e3783836040518060400160405280601081526020016f6469766973696f6e206279207a65726f60801b815250613ccb565b6109d8838383604051602401613874939291906148e4565b60408051601f198184030181529190526020810180516001600160e01b031663969cdd0360e01b179052613d02565b60008281526006602090815260408083206001600160a01b03871684526011810190925290912080546138ea906001600160601b03600160701b9091048116908516613624565b81546bffffffffffffffffffffffff60701b1916600160701b6001600160601b039283168102919091178084556139249291900416613d23565b8154600160d01b6201000060ff196001600160601b0394851682029081166dffffffffffffffffffffffff00ff198516176dffffffffffffffffffffffff0000199094161781900484161515929092179182048316150260ff60d01b199091161782556040805180820190915260208082527f476f7665726e6f723a3a5f6163636f756e74526566756e644f6e506172656e74908201526139c8918690861661385c565b613a046040518060600160405280602f8152602001614dbd602f913982546001600160601b03620100008204811691600160701b90041661385c565b613a31604051806060016040528060318152602001614d8c603191398254600160d01b900460ff16613d7c565b5050505050565b60008481526006602090815260408083206001600160a01b0389168452601181019092528220805491929091613a7d90600160701b90046001600160601b0316613d23565b8254613aab90613a9d90600160701b90046001600160601b031688614bb8565b6001600160601b0316613d23565b613ab59190614c6b565b90508515613afb57613ad48360090154826001600160601b0316612de4565b6009840155600b830154613af1906001600160601b038716612de4565b600b840155613b35565b613b1283600a0154826001600160601b0316612de4565b600a840155600c830154613b2f906001600160601b038716612de4565b600c8401555b8315613ba057600354604051630ecb54ab60e21b81526001600160a01b0390911690633b2d52ac90613b6d908b90899060040161480b565b600060405180830381600087803b158015613b8757600080fd5b505af1158015613b9b573d6000803e3d6000fd5b505050505b81548615156101000261ffff1990911617600117808355613bd5906001600160601b03600160701b9091048116908716612de4565b82546bffffffffffffffffffffffff60701b1916600160701b6001600160601b03928316810291909117808555613c0f9291900416613d23565b82547aff000000000000000000000000ffffffffffffffffffffffff00001916620100006001600160601b03929092169190910260ff60d01b1916178255613c5a43610fd261014090565b60018301558315613cc1578254604080516001600160a01b038b1681526020810192909252871515828201526001600160601b0383166060830152517f877856338e13f63d0c36822ff0ef736b80934cd90574a3a5bc9262c39d217c469181900360800190a15b5050505050505050565b60008183613cec5760405162461bcd60e51b815260040161092391906148ad565b506000613cf98486614be3565b95945050505050565b80516a636f6e736f6c652e6c6f67602083016000808483855afa5050505050565b6000806002613d33846001614ba0565b613d3d9190614be3565b90508291505b81811015613d7657905080600281613d5b8186614be3565b613d659190614ba0565b613d6f9190614be3565b9050613d43565b50919050565b612de08282604051602401613d929291906148c0565b60408051601f198184030181529190526020810180516001600160e01b031663c3b5563560e01b179052613d02565b828054828255906000526020600020908101928215613e16579160200282015b82811115613e1657825182546001600160a01b0319166001600160a01b03909116178255602090920191600190910190613de1565b50613e22929150613f86565b5090565b828054828255906000526020600020908101928215613e16579160200282015b82811115613e16578251825591602001919060010190613e46565b828054828255906000526020600020908101928215613eae579160200282015b82811115613eae5782518051613e9e918491602090910190613f13565b5091602001919060010190613e81565b50613e22929150613f9b565b828054828255906000526020600020908101928215613f07579160200282015b82811115613f075782518051613ef7918491602090910190613f13565b5091602001919060010190613eda565b50613e22929150613fb8565b828054613f1f90614cd6565b90600052602060002090601f016020900481019282613f415760008555613e16565b82601f10613f5a57805160ff1916838001178555613e16565b82800160010185558215613e165791820182811115613e16578251825591602001919060010190613e46565b5b80821115613e225760008155600101613f87565b80821115613e22576000613faf8282613fd5565b50600101613f9b565b80821115613e22576000613fcc8282613fd5565b50600101613fb8565b508054613fe190614cd6565b6000825580601f10613ff35750610aa4565b601f016020900490600052602060002090810190610aa49190613f86565b600061402461401f84614b78565b614b23565b905082815283838301111561403857600080fd5b828260208301376000602084830101529392505050565b80356001600160a01b0381168114610ff557600080fd5b600082601f830112614076578081fd5b8135602061408661401f83614b54565b80838252828201915082860187848660051b89010111156140a5578586fd5b855b858110156140ca576140b88261404f565b845292840192908401906001016140a7565b5090979650505050505050565b600082601f8301126140e7578081fd5b813560206140f761401f83614b54565b82815281810190858301855b858110156140ca578135880189603f82011261411d578788fd5b61412e8a8783013560408401614011565b8552509284019290840190600101614103565b600082601f830112614151578081fd5b8135602061416161401f83614b54565b82815281810190858301855b858110156140ca57614184898684358b01016141f3565b8452928401929084019060010161416d565b600082601f8301126141a6578081fd5b813560206141b661401f83614b54565b80838252828201915082860187848660051b89010111156141d5578586fd5b855b858110156140ca578135845292840192908401906001016141d7565b600082601f830112614203578081fd5b612e3783833560208501614011565b600060208284031215614223578081fd5b612e378261404f565b6000806040838503121561423e578081fd5b6142478361404f565b946020939093013593505050565b600080600080600060a0868803121561426c578081fd5b853567ffffffffffffffff80821115614283578283fd5b61428f89838a01614066565b965060208801359150808211156142a4578283fd5b6142b089838a01614196565b955060408801359150808211156142c5578283fd5b6142d189838a01614141565b945060608801359150808211156142e6578283fd5b6142f289838a016140d7565b93506080880135915080821115614307578283fd5b5061431488828901614141565b9150509295509295909350565b600080600080600060a08688031215614338578283fd5b853567ffffffffffffffff8082111561434f578485fd5b61435b89838a01614066565b96506020880135915080821115614370578485fd5b61437c89838a01614196565b95506040880135915080821115614391578485fd5b61439d89838a01614141565b945060608801359150808211156143b2578283fd5b6143be89838a016140d7565b935060808801359150808211156143d3578283fd5b50614314888289016141f3565b6000602082840312156143f1578081fd5b8151612e3781614d68565b60006020828403121561440d578081fd5b5051919050565b600060208284031215614425578081fd5b815167ffffffffffffffff81111561443b578182fd5b8201601f8101841361444b578182fd5b805161445961401f82614b78565b81815285602083850101111561446d578384fd5b613cf9826020830160208601614caa565b60006020828403121561448f578081fd5b5035919050565b600080604083850312156144a8578182fd5b823591506144b86020840161404f565b90509250929050565b60008060008060008060c087890312156144d9578384fd5b8635955060208701356144eb81614d68565b9450604087013560ff81168114614500578485fd5b9350606087013592506080870135915060a087013561451e81614d76565b809150509295509295509295565b600080600060608486031215614540578081fd5b83359250602084013561455281614d68565b9150604084013561456281614d76565b809150509250925092565b60006020828403121561457e578081fd5b8151612e3781614d76565b6000815180845260208085019450808401835b838110156145c15781516001600160a01b03168752958201959082019060010161459c565b509495945050505050565b600081518084526020808501808196508360051b81019150828601855b8581101561461357828403895261460184835161464f565b988501989350908401906001016145e9565b5091979650505050505050565b6000815180845260208085019450808401835b838110156145c157815187529582019590820190600101614633565b60008151808452614667816020860160208601614caa565b601f01601f19169290920160200192915050565b8054600090600181811c908083168061469557607f831692505b60208084108214156146b557634e487b7160e01b86526022600452602486fd5b8388528180156146cc57600181146146e05761470e565b60ff1986168983015260408901965061470e565b876000528160002060005b868110156147065781548b82018501529085019083016146eb565b8a0183019750505b50505050505092915050565b600060018060a01b038616825284602083015260a06040830152601860a08301527f73657450656e64696e6741646d696e286164647265737329000000000000000060c083015260e0606083015261477560e083018561464f565b905082608083015295945050505050565b600060018060a01b038716825285602083015260a060408301526147ad60a083018661464f565b82810360608401526147bf818661464f565b9150508260808301529695505050505050565b600060018060a01b038716825285602083015260a060408301526147f960a083018661467b565b82810360608401526147bf818661467b565b6001600160a01b039290921682526001600160601b0316602082015260400190565b6000608082526148406080830187614589565b82810360208401526148528187614620565b9050828103604084015261486681866145cc565b9050828103606084015261487a81856145cc565b979650505050505050565b60208101600983106148a757634e487b7160e01b600052602160045260246000fd5b91905290565b600060208252612e37602083018461464f565b6000604082526148d3604083018561464f565b905082151560208301529392505050565b6000606082526148f7606083018661464f565b60208301949094525060400152919050565b6020808252603f908201527f476f7665726e6f723a3a70726f706f73653a2070726f706f73616c2066756e6360408201527f74696f6e20696e666f726d6174696f6e206172697479206d69736d6174636800606082015260800190565b60208082526029908201527f476f7665726e6f723a3a726566756e643a206e6f7420656c696769626c6520666040820152681bdc881c99599d5b9960ba1b606082015260800190565b60208082526030908201527f476f7665726e6f723a3a726566756e643a20616c726561647920726566756e6460408201526f1959081d1a1a5cc81c1c9bdc1bdcd85b60821b606082015260800190565b8981526001600160a01b038916602082015261012060408201819052600090614a2a8382018b614589565b90508281036060840152614a3e818a614620565b90508281036080840152614a5281896145cc565b905082810360a0840152614a6681886145cc565b90508560c08401528460e0840152828103610100840152614a87818561464f565b9c9b505050505050505050505050565b60008f825260018060a01b038f1660208301528d60408301528c60608301528b60808301528a60a08301528960c08301528860e083015287610100830152861515610120830152614aed61014083018715159052565b6101c0610160830152614b046101c083018661464f565b610180830194909452506101a001529c9b505050505050505050505050565b604051601f8201601f1916810167ffffffffffffffff81118282101715614b4c57614b4c614d52565b604052919050565b600067ffffffffffffffff821115614b6e57614b6e614d52565b5060051b60200190565b600067ffffffffffffffff821115614b9257614b92614d52565b50601f01601f191660200190565b60008219821115614bb357614bb3614d26565b500190565b60006001600160601b03808316818516808303821115614bda57614bda614d26565b01949350505050565b600082614bf257614bf2614d3c565b500490565b60006001600160601b0380841680614c1157614c11614d3c565b92169190910492915050565b6000816000190483118215151615614c3757614c37614d26565b500290565b60006001600160601b0380831681851681830481118215151615614c6257614c62614d26565b02949350505050565b600082821015614c7d57614c7d614d26565b500390565b60006001600160601b0383811690831681811015614ca257614ca2614d26565b039392505050565b60005b83811015614cc5578181015183820152602001614cad565b83811115611ce85750506000910152565b600181811c90821680614cea57607f821691505b60208210811415613d7657634e487b7160e01b600052602260045260246000fd5b6000600019821415614d1f57614d1f614d26565b5060010190565b634e487b7160e01b600052601160045260246000fd5b634e487b7160e01b600052601260045260246000fd5b634e487b7160e01b600052604160045260246000fd5b8015158114610aa457600080fd5b6001600160601b0381168114610aa457600080fdfe476f7665726e6f723a3a5f6163636f756e74526566756e644f6e506172656e742066756c6c7920726566756e6465643f3a476f7665726e6f723a3a5f6163636f756e74526566756e644f6e506172656e74207265636569707420766f7465733aa26469706673582212208a5650ee730fa7ef25bec70a13fa283126f409175d1cf75e309b29fb6fca4e6364736f6c63430008030033",
  "linkReferences": {},
  "deployedLinkReferences": {}
}