{
	"data": {
		"bytecode": {
			"linkReferences": {},
			"object": "608060405260405180606001604052806040518060400160405280601c81526020017f52656e657761626c6520456e657267792043657274696669636174650000000081525081526020016040518060400160405280601781526020017f436172626f6e20456d697373696f6e73204f666673657400000000000000000081525081526020016040518060400160405280601181526020017f4175646974656420456d697373696f6e730000000000000000000000000000008152508152506008906003620000d092919062000593565b50348015620000de57600080fd5b506040518060400160405280600981526020017f6c6f63616c686f737400000000000000000000000000000000000000000000008152506200012d6301ffc9a760e01b620002a460201b60201c565b6200013e816200037c60201b60201c565b6200015663d9b67a2660e01b620002a460201b60201c565b6200016e630e89341c60e01b620002a460201b60201c565b50620001846000801b336200039860201b60201c565b620001d67f5e1aa547d3dade8c68b013a47ad41c2bcc9b9e4b0765b0fb616780e15786e76a7ff8890eedd7900ad88da6192fd03dbb69dbeee963b1a0ed738abe49ab3331aaf3620003ae60201b60201c565b620002087ff8890eedd7900ad88da6192fd03dbb69dbeee963b1a0ed738abe49ab3331aaf3336200039860201b60201c565b6200023a7f2ab9f1da92e74aaa01eb75a871557505b11dd8d36832a34bb21bbee88b08d860336200039860201b60201c565b6200026c7fede6574deba8f02ada7888448a497b08844d62e044ed533343a673be3ffcde5f336200039860201b60201c565b6200029e7fe97dad3dbe5042e7384b1572cf966a15e089576a62b5126c5ef1d184ab18b12c336200039860201b60201c565b62000789565b63ffffffff60e01b817bffffffffffffffffffffffffffffffffffffffffffffffffffffffff1916141562000310576040517f08c379a0000000000000000000000000000000000000000000000000000000008152600401620003079062000756565b60405180910390fd5b6001600080837bffffffffffffffffffffffffffffffffffffffffffffffffffffffff19167bffffffffffffffffffffffffffffffffffffffffffffffffffffffff1916815260200190815260200160002060006101000a81548160ff02191690831515021790555050565b806003908051906020019062000394929190620005fa565b5050565b620003aa82826200041260201b60201c565b5050565b806004600084815260200190815260200160002060020154837fbd79b86ffe0ab8e8776151514217cd7cacd52c909f66475c3af44e129f0b00ff60405160405180910390a48060046000848152602001908152602001600020600201819055505050565b620004418160046000858152602001908152602001600020600001620004b660201b620030731790919060201c565b15620004b25762000457620004ee60201b60201c565b73ffffffffffffffffffffffffffffffffffffffff168173ffffffffffffffffffffffffffffffffffffffff16837f2f8788117e7eff1d82e926ec794901d17c78024a50270940304540a733656f0d60405160405180910390a45b5050565b6000620004e6836000018373ffffffffffffffffffffffffffffffffffffffff1660001b620004f660201b60201c565b905092915050565b600033905090565b60006200050a83836200057060201b60201c565b620005655782600001829080600181540180825580915050600190039060005260206000200160009091909190915055826000018054905083600101600084815260200190815260200160002081905550600190506200056a565b600090505b92915050565b600080836001016000848152602001908152602001600020541415905092915050565b828054828255906000526020600020908101928215620005e7579160200282015b82811115620005e6578251829080519060200190620005d5929190620005fa565b5091602001919060010190620005b4565b5b509050620005f6919062000681565b5090565b828054600181600116156101000203166002900490600052602060002090601f016020900481019282601f106200063d57805160ff19168380011785556200066e565b828001600101855582156200066e579182015b828111156200066d57825182559160200191906001019062000650565b5b5090506200067d9190620006a9565b5090565b5b80821115620006a557600081816200069b9190620006c8565b5060010162000682565b5090565b5b80821115620006c4576000816000905550600101620006aa565b5090565b50805460018160011615610100020316600290046000825580601f10620006f0575062000711565b601f016020900490600052602060002090810190620007109190620006a9565b5b50565b600062000723601c8362000778565b91507f4552433136353a20696e76616c696420696e74657266616365206964000000006000830152602082019050919050565b60006020820190508181036000830152620007718162000714565b9050919050565b600082825260208201905092915050565b61613b80620007996000396000f3fe608060405234801561001057600080fd5b50600436106102265760003560e01c806376aed2e111610130578063a22cb465116100b8578063e2e564f21161007c578063e2e564f2146106fc578063e985e9c514610718578063f242432a14610748578063fcba794814610764578063fd0c4a9a1461078257610226565b8063a22cb46514610630578063c1e037281461064c578063ca15c8731461067c578063ce6ccfaf146106ac578063d547741f146106e057610226565b80639010d07c116100ff5780639010d07c1461055257806391d148541461058257806392089c46146105b2578063a0d975a7146105e2578063a217fddf1461061257610226565b806376aed2e1146104b557806376ce4755146104e557806378e5c592146105035780637f157c9b1461052157610226565b80632f2ff15d116101b357806344b22fdd1161018257806344b22fdd146103ff5780634e1273f41461041b57806353dbe9821461044b5780635ddb368f1461046757806369f7ef441461048557610226565b80632f2ff15d1461037b57806331aa4b201461039757806333781a0e146103b357806336568abe146103e357610226565b806318a50d7e116101fa57806318a50d7e146102d75780631ef68ef7146102f5578063248a9ca314610313578063293a7f2e146103435780632eb2c2d61461035f57610226565b8062fdd58e1461022b57806301ffc9a71461025b578063095bcdb61461028b5780630e89341c146102a7575b600080fd5b61024560048036038101906102409190614327565b61079e565b6040516102529190615c23565b60405180910390f35b61027560048036038101906102709190614609565b610868565b6040516102829190615778565b60405180910390f35b6102a560048036038101906102a09190614363565b6108cf565b005b6102c160048036038101906102bc919061465b565b610b29565b6040516102ce9190615801565b60405180910390f35b6102df610bcd565b6040516102ec91906157e6565b60405180910390f35b6102fd610bf1565b60405161030a91906157e6565b60405180910390f35b61032d60048036038101906103289190614568565b610c15565b60405161033a91906157e6565b60405180910390f35b61035d600480360381019061035891906146ad565b610c35565b005b6103796004803603810190610374919061419d565b610ef3565b005b61039560048036038101906103909190614591565b6112b4565b005b6103b160048036038101906103ac91906143b2565b611328565b005b6103cd60048036038101906103c89190614138565b6114cf565b6040516103da9190615778565b60405180910390f35b6103fd60048036038101906103f89190614591565b611502565b005b61041960048036038101906104149190614138565b611585565b005b610435600480360381019061043091906144fc565b6116d2565b604051610442919061571f565b60405180910390f35b61046560048036038101906104609190614138565b611898565b005b61046f6119e5565b60405161047c9190615c23565b60405180910390f35b61049f600480360381019061049a9190614138565b6119f6565b6040516104ac9190615778565b60405180910390f35b6104cf60048036038101906104ca919061465b565b611ab0565b6040516104dc9190615801565b60405180910390f35b6104ed611be0565b6040516104fa91906157e6565b60405180910390f35b61050b611c04565b60405161051891906157e6565b60405180910390f35b61053b60048036038101906105369190614327565b611c28565b604051610549929190615c3e565b60405180910390f35b61056c600480360381019061056791906145cd565b611cd7565b6040516105799190615619565b60405180910390f35b61059c60048036038101906105979190614591565b611d09565b6040516105a99190615778565b60405180910390f35b6105cc60048036038101906105c7919061465b565b611d3b565b6040516105d99190615619565b60405180910390f35b6105fc60048036038101906105f79190614327565b611dc3565b6040516106099190615c23565b60405180910390f35b61061a611e6c565b60405161062791906157e6565b60405180910390f35b61064a600480360381019061064591906142eb565b611e73565b005b6106666004803603810190610661919061465b565b611ff4565b6040516106739190615bc3565b60405180910390f35b61069660048036038101906106919190614568565b61234b565b6040516106a39190615c23565b60405180910390f35b6106c660048036038101906106c19190614138565b612372565b6040516106d7959493929190615793565b60405180910390f35b6106fa60048036038101906106f59190614591565b61245f565b005b610716600480360381019061071191906143b2565b6124d3565b005b610732600480360381019061072d9190614161565b612688565b60405161073f9190615778565b60405180910390f35b610762600480360381019061075d919061425c565b61271c565b005b61076c612a5f565b60405161077991906157e6565b60405180910390f35b61079c600480360381019061079791906143ee565b612a83565b005b60008073ffffffffffffffffffffffffffffffffffffffff168373ffffffffffffffffffffffffffffffffffffffff16141561080f576040517f08c379a0000000000000000000000000000000000000000000000000000000008152600401610806906158c3565b60405180910390fd5b6001600083815260200190815260200160002060008473ffffffffffffffffffffffffffffffffffffffff1673ffffffffffffffffffffffffffffffffffffffff16815260200190815260200160002054905092915050565b6000806000837bffffffffffffffffffffffffffffffffffffffffffffffffffffffff19167bffffffffffffffffffffffffffffffffffffffffffffffffffffffff1916815260200190815260200160002060009054906101000a900460ff169050919050565b60006108fb7f5e1aa547d3dade8c68b013a47ad41c2bcc9b9e4b0765b0fb616780e15786e76a33611d09565b905060006109297f2ab9f1da92e74aaa01eb75a871557505b11dd8d36832a34bb21bbee88b08d86033611d09565b905060006109577fede6574deba8f02ada7888448a497b08844d62e044ed533343a673be3ffcde5f33611d09565b905060006109857fe97dad3dbe5042e7384b1572cf966a15e089576a62b5126c5ef1d184ab18b12c33611d09565b905083806109905750825b806109985750815b806109a05750805b6109df576040517f08c379a00000000000000000000000000000000000000000000000000000000081526004016109d690615a83565b60405180910390fd5b6109e8866130a3565b610a27576040517f08c379a0000000000000000000000000000000000000000000000000000000008152600401610a1e90615923565b60405180910390fd5b610a30876130c8565b610a6f576040517f08c379a0000000000000000000000000000000000000000000000000000000008152600401610a6690615ac3565b60405180910390fd5b8673ffffffffffffffffffffffffffffffffffffffff163373ffffffffffffffffffffffffffffffffffffffff161415610ade576040517f08c379a0000000000000000000000000000000000000000000000000000000008152600401610ad590615b43565b60405180910390fd5b610b20338888886040518060400160405280600481526020017f307830300000000000000000000000000000000000000000000000000000000081525061271c565b50505050505050565b606060038054600181600116156101000203166002900480601f016020809104026020016040519081016040528092919081815260200182805460018160011615610100020316600290048015610bc15780601f10610b9657610100808354040283529160200191610bc1565b820191906000526020600020905b815481529060010190602001808311610ba457829003601f168201915b50505050509050919050565b7ff8890eedd7900ad88da6192fd03dbb69dbeee963b1a0ed738abe49ab3331aaf381565b7fede6574deba8f02ada7888448a497b08844d62e044ed533343a673be3ffcde5f81565b600060046000838152602001908152602001600020600201549050919050565b6000610c617f5e1aa547d3dade8c68b013a47ad41c2bcc9b9e4b0765b0fb616780e15786e76a33611d09565b90506000610c8f7f2ab9f1da92e74aaa01eb75a871557505b11dd8d36832a34bb21bbee88b08d86033611d09565b90506000610cbd7fede6574deba8f02ada7888448a497b08844d62e044ed533343a673be3ffcde5f33611d09565b90506000610ceb7fe97dad3dbe5042e7384b1572cf966a15e089576a62b5126c5ef1d184ab18b12c33611d09565b90508380610cf65750825b80610cfe5750815b80610d065750805b610d45576040517f08c379a0000000000000000000000000000000000000000000000000000000008152600401610d3c90615a83565b60405180910390fd5b610d4e866130a3565b610d8d576040517f08c379a0000000000000000000000000000000000000000000000000000000008152600401610d8490615923565b60405180910390fd5b610d97338761079e565b851115610dd9576040517f08c379a0000000000000000000000000000000000000000000000000000000008152600401610dd090615883565b60405180910390fd5b610de43387876130ea565b610e47856006600089815260200190815260200160002060003373ffffffffffffffffffffffffffffffffffffffff1673ffffffffffffffffffffffffffffffffffffffff168152602001908152602001600020546132ea90919063ffffffff16565b6006600088815260200190815260200160002060003373ffffffffffffffffffffffffffffffffffffffff1673ffffffffffffffffffffffffffffffffffffffff168152602001908152602001600020819055503373ffffffffffffffffffffffffffffffffffffffff167f8f1b5ebb586d3d169e4ed07db9cd10ce0dd30c7b656171310eae7517c0b53cf98787604051610ee3929190615c3e565b60405180910390a2505050505050565b8151835114610f37576040517f08c379a0000000000000000000000000000000000000000000000000000000008152600401610f2e90615b63565b60405180910390fd5b600073ffffffffffffffffffffffffffffffffffffffff168473ffffffffffffffffffffffffffffffffffffffff161415610fa7576040517f08c379a0000000000000000000000000000000000000000000000000000000008152600401610f9e906159a3565b60405180910390fd5b610faf61333f565b73ffffffffffffffffffffffffffffffffffffffff168573ffffffffffffffffffffffffffffffffffffffff161480610ff55750610ff485610fef61333f565b612688565b5b611034576040517f08c379a000000000000000000000000000000000000000000000000000000000815260040161102b906159c3565b60405180910390fd5b600061103e61333f565b905061104e818787878787613347565b60005b845181101561121f57600085828151811061106857fe5b60200260200101519050600085838151811061108057fe5b60200260200101519050611107816040518060600160405280602a81526020016160dc602a91396001600086815260200190815260200160002060008d73ffffffffffffffffffffffffffffffffffffffff1673ffffffffffffffffffffffffffffffffffffffff1681526020019081526020016000205461334f9092919063ffffffff16565b6001600084815260200190815260200160002060008b73ffffffffffffffffffffffffffffffffffffffff1673ffffffffffffffffffffffffffffffffffffffff168152602001908152602001600020819055506111be816001600085815260200190815260200160002060008b73ffffffffffffffffffffffffffffffffffffffff1673ffffffffffffffffffffffffffffffffffffffff168152602001908152602001600020546132ea90919063ffffffff16565b6001600084815260200190815260200160002060008a73ffffffffffffffffffffffffffffffffffffffff1673ffffffffffffffffffffffffffffffffffffffff168152602001908152602001600020819055505050806001019050611051565b508473ffffffffffffffffffffffffffffffffffffffff168673ffffffffffffffffffffffffffffffffffffffff168273ffffffffffffffffffffffffffffffffffffffff167f4a39dc06d4c0dbc64b70af90fd698a233a518aa5d07e595d983b8c0526c8f7fb8787604051611296929190615741565b60405180910390a46112ac8187878787876133aa565b505050505050565b6112db60046000848152602001908152602001600020600201546112d661333f565b611d09565b61131a576040517f08c379a0000000000000000000000000000000000000000000000000000000008152600401611311906158a3565b60405180910390fd5b611324828261357a565b5050565b6113356000801b33611d09565b611374576040517f08c379a000000000000000000000000000000000000000000000000000000000815260040161136b90615963565b60405180910390fd5b61137d8161360e565b6113bc576040517f08c379a00000000000000000000000000000000000000000000000000000000081526004016113b390615aa3565b60405180910390fd5b60018160ff1614156113f7576113f27f2ab9f1da92e74aaa01eb75a871557505b11dd8d36832a34bb21bbee88b08d860836112b4565b61145e565b60028160ff1614156114325761142d7fede6574deba8f02ada7888448a497b08844d62e044ed533343a673be3ffcde5f836112b4565b61145d565b61145c7fe97dad3dbe5042e7384b1572cf966a15e089576a62b5126c5ef1d184ab18b12c836112b4565b5b5b6114887ff8890eedd7900ad88da6192fd03dbb69dbeee963b1a0ed738abe49ab3331aaf3836112b4565b8173ffffffffffffffffffffffffffffffffffffffff167fa8377deee15954185683d55effd369508b4935978c8cb2bab790bf04c570181460405160405180910390a25050565b60006114fb7f5e1aa547d3dade8c68b013a47ad41c2bcc9b9e4b0765b0fb616780e15786e76a83611d09565b9050919050565b61150a61333f565b73ffffffffffffffffffffffffffffffffffffffff168173ffffffffffffffffffffffffffffffffffffffff1614611577576040517f08c379a000000000000000000000000000000000000000000000000000000000815260040161156e90615ba3565b60405180910390fd5b6115818282613642565b5050565b60006115b17f2ab9f1da92e74aaa01eb75a871557505b11dd8d36832a34bb21bbee88b08d86033611d09565b905060006115df7fede6574deba8f02ada7888448a497b08844d62e044ed533343a673be3ffcde5f33611d09565b9050600061160d7fe97dad3dbe5042e7384b1572cf966a15e089576a62b5126c5ef1d184ab18b12c33611d09565b905082806116185750815b806116205750805b61165f576040517f08c379a000000000000000000000000000000000000000000000000000000000815260040161165690615a23565b60405180910390fd5b6116897f5e1aa547d3dade8c68b013a47ad41c2bcc9b9e4b0765b0fb616780e15786e76a856112b4565b8373ffffffffffffffffffffffffffffffffffffffff167f69a0adee259d26fe61f4776f7bea7f3a9737c7321256821b985f988545efd31960405160405180910390a250505050565b60608151835114611718576040517f08c379a000000000000000000000000000000000000000000000000000000000815260040161170f90615b23565b60405180910390fd5b6060835167ffffffffffffffff8111801561173257600080fd5b506040519080825280602002602001820160405280156117615781602001602082028036833780820191505090505b50905060005b845181101561188d57600073ffffffffffffffffffffffffffffffffffffffff1685828151811061179457fe5b602002602001015173ffffffffffffffffffffffffffffffffffffffff1614156117f3576040517f08c379a00000000000000000000000000000000000000000000000000000000081526004016117ea906158e3565b60405180910390fd5b6001600085838151811061180357fe5b60200260200101518152602001908152602001600020600086838151811061182757fe5b602002602001015173ffffffffffffffffffffffffffffffffffffffff1673ffffffffffffffffffffffffffffffffffffffff1681526020019081526020016000205482828151811061187657fe5b602002602001018181525050806001019050611767565b508091505092915050565b60006118c47f2ab9f1da92e74aaa01eb75a871557505b11dd8d36832a34bb21bbee88b08d86033611d09565b905060006118f27fede6574deba8f02ada7888448a497b08844d62e044ed533343a673be3ffcde5f33611d09565b905060006119207fe97dad3dbe5042e7384b1572cf966a15e089576a62b5126c5ef1d184ab18b12c33611d09565b9050828061192b5750815b806119335750805b611972576040517f08c379a000000000000000000000000000000000000000000000000000000000815260040161196990615a23565b60405180910390fd5b61199c7f5e1aa547d3dade8c68b013a47ad41c2bcc9b9e4b0765b0fb616780e15786e76a8561245f565b8373ffffffffffffffffffffffffffffffffffffffff167f03a38088da75ee2d80f6c753f55f8fd17602ae17d8bd0ef44d5e1f28ab5af11f60405160405180910390a250505050565b60006119f160076136d6565b905090565b600080611a237f2ab9f1da92e74aaa01eb75a871557505b11dd8d36832a34bb21bbee88b08d86084611d09565b90506000611a517fede6574deba8f02ada7888448a497b08844d62e044ed533343a673be3ffcde5f85611d09565b90506000611a7f7fe97dad3dbe5042e7384b1572cf966a15e089576a62b5126c5ef1d184ab18b12c86611d09565b90508280611a8a5750815b80611a925750805b15611aa35760019350505050611aab565b600093505050505b919050565b6060611abb826130a3565b611afa576040517f08c379a0000000000000000000000000000000000000000000000000000000008152600401611af190615923565b60405180910390fd5b6060600860016005600086815260200190815260200160002060010160009054906101000a900460ff160360ff1681548110611b3257fe5b906000526020600020018054600181600116156101000203166002900480601f016020809104026020016040519081016040528092919081815260200182805460018160011615610100020316600290048015611bd05780601f10611ba557610100808354040283529160200191611bd0565b820191906000526020600020905b815481529060010190602001808311611bb357829003601f168201915b5050505050905080915050919050565b7fe97dad3dbe5042e7384b1572cf966a15e089576a62b5126c5ef1d184ab18b12c81565b7f5e1aa547d3dade8c68b013a47ad41c2bcc9b9e4b0765b0fb616780e15786e76a81565b6000806000611c37858561079e565b905060003073ffffffffffffffffffffffffffffffffffffffff1663a0d975a787876040518363ffffffff1660e01b8152600401611c769291906156f6565b60206040518083038186803b158015611c8e57600080fd5b505afa158015611ca2573d6000803e3d6000fd5b505050506040513d601f19601f82011682018060405250810190611cc69190614684565b905081819350935050509250929050565b6000611d0182600460008681526020019081526020016000206000016136e490919063ffffffff16565b905092915050565b6000611d3382600460008681526020019081526020016000206000016136fe90919063ffffffff16565b905092915050565b6000611d46826130a3565b611d85576040517f08c379a0000000000000000000000000000000000000000000000000000000008152600401611d7c90615923565b60405180910390fd5b6005600083815260200190815260200160002060010160019054906101000a900473ffffffffffffffffffffffffffffffffffffffff169050919050565b6000611dce826130a3565b611e0d576040517f08c379a0000000000000000000000000000000000000000000000000000000008152600401611e0490615923565b60405180910390fd5b60006006600084815260200190815260200160002060008573ffffffffffffffffffffffffffffffffffffffff1673ffffffffffffffffffffffffffffffffffffffff1681526020019081526020016000205490508091505092915050565b6000801b81565b8173ffffffffffffffffffffffffffffffffffffffff16611e9261333f565b73ffffffffffffffffffffffffffffffffffffffff161415611ee9576040517f08c379a0000000000000000000000000000000000000000000000000000000008152600401611ee090615b03565b60405180910390fd5b8060026000611ef661333f565b73ffffffffffffffffffffffffffffffffffffffff1673ffffffffffffffffffffffffffffffffffffffff16815260200190815260200160002060008473ffffffffffffffffffffffffffffffffffffffff1673ffffffffffffffffffffffffffffffffffffffff16815260200190815260200160002060006101000a81548160ff0219169083151502179055508173ffffffffffffffffffffffffffffffffffffffff16611fa361333f565b73ffffffffffffffffffffffffffffffffffffffff167f17307eab39ab6107e8899845ad3d59bd9653f200f220920489ca2b5937696c3183604051611fe89190615778565b60405180910390a35050565b611ffc613dbc565b612005826130a3565b612044576040517f08c379a000000000000000000000000000000000000000000000000000000000815260040161203b90615923565b60405180910390fd5b6005600083815260200190815260200160002060405180610160016040529081600082015481526020016001820160009054906101000a900460ff1660ff1660ff1681526020016001820160019054906101000a900473ffffffffffffffffffffffffffffffffffffffff1673ffffffffffffffffffffffffffffffffffffffff1673ffffffffffffffffffffffffffffffffffffffff1681526020016002820160009054906101000a900473ffffffffffffffffffffffffffffffffffffffff1673ffffffffffffffffffffffffffffffffffffffff1673ffffffffffffffffffffffffffffffffffffffff16815260200160038201548152602001600482015481526020016005820154815260200160068201548152602001600782018054600181600116156101000203166002900480601f0160208091040260200160405190810160405280929190818152602001828054600181600116156101000203166002900480156121f75780601f106121cc576101008083540402835291602001916121f7565b820191906000526020600020905b8154815290600101906020018083116121da57829003601f168201915b50505050508152602001600882018054600181600116156101000203166002900480601f0160208091040260200160405190810160405280929190818152602001828054600181600116156101000203166002900480156122995780601f1061226e57610100808354040283529160200191612299565b820191906000526020600020905b81548152906001019060200180831161227c57829003601f168201915b50505050508152602001600982018054600181600116156101000203166002900480601f01602080910402602001604051908101604052809291908181526020018280546001816001161561010002031660029004801561233b5780601f106123105761010080835404028352916020019161233b565b820191906000526020600020905b81548152906001019060200180831161231e57829003601f168201915b5050505050815250509050919050565b600061236b6004600084815260200190815260200160002060000161372e565b9050919050565b6000806000806000806123886000801b88611d09565b905060006123b67f2ab9f1da92e74aaa01eb75a871557505b11dd8d36832a34bb21bbee88b08d86089611d09565b905060006123e47fede6574deba8f02ada7888448a497b08844d62e044ed533343a673be3ffcde5f8a611d09565b905060006124127fe97dad3dbe5042e7384b1572cf966a15e089576a62b5126c5ef1d184ab18b12c8b611d09565b905060006124407f5e1aa547d3dade8c68b013a47ad41c2bcc9b9e4b0765b0fb616780e15786e76a8c611d09565b9050848484848499509950995099509950505050505091939590929450565b612486600460008481526020019081526020016000206002015461248161333f565b611d09565b6124c5576040517f08c379a00000000000000000000000000000000000000000000000000000000081526004016124bc90615983565b60405180910390fd5b6124cf8282613642565b5050565b6124e06000801b33611d09565b61251f576040517f08c379a000000000000000000000000000000000000000000000000000000000815260040161251690615963565b60405180910390fd5b6125288161360e565b612567576040517f08c379a000000000000000000000000000000000000000000000000000000000815260040161255e90615aa3565b60405180910390fd5b60018160ff1614156125a25761259d7f2ab9f1da92e74aaa01eb75a871557505b11dd8d36832a34bb21bbee88b08d8608361245f565b612609565b60028160ff1614156125dd576125d87fede6574deba8f02ada7888448a497b08844d62e044ed533343a673be3ffcde5f8361245f565b612608565b6126077fe97dad3dbe5042e7384b1572cf966a15e089576a62b5126c5ef1d184ab18b12c8361245f565b5b5b612612826119f6565b612641576126407ff8890eedd7900ad88da6192fd03dbb69dbeee963b1a0ed738abe49ab3331aaf38361245f565b5b8173ffffffffffffffffffffffffffffffffffffffff167f98552ded770f1d05a505572f3387c108dbc6b566ea3d49f83cff3d1f1c72a04260405160405180910390a25050565b6000600260008473ffffffffffffffffffffffffffffffffffffffff1673ffffffffffffffffffffffffffffffffffffffff16815260200190815260200160002060008373ffffffffffffffffffffffffffffffffffffffff1673ffffffffffffffffffffffffffffffffffffffff16815260200190815260200160002060009054906101000a900460ff16905092915050565b600073ffffffffffffffffffffffffffffffffffffffff168473ffffffffffffffffffffffffffffffffffffffff16141561278c576040517f08c379a0000000000000000000000000000000000000000000000000000000008152600401612783906159a3565b60405180910390fd5b61279461333f565b73ffffffffffffffffffffffffffffffffffffffff168573ffffffffffffffffffffffffffffffffffffffff1614806127da57506127d9856127d461333f565b612688565b5b612819576040517f08c379a000000000000000000000000000000000000000000000000000000000815260040161281090615943565b60405180910390fd5b600061282361333f565b905061284381878761283488613743565b61283d88613743565b87613347565b6128c0836040518060600160405280602a81526020016160dc602a91396001600088815260200190815260200160002060008a73ffffffffffffffffffffffffffffffffffffffff1673ffffffffffffffffffffffffffffffffffffffff1681526020019081526020016000205461334f9092919063ffffffff16565b6001600086815260200190815260200160002060008873ffffffffffffffffffffffffffffffffffffffff1673ffffffffffffffffffffffffffffffffffffffff16815260200190815260200160002081905550612977836001600087815260200190815260200160002060008873ffffffffffffffffffffffffffffffffffffffff1673ffffffffffffffffffffffffffffffffffffffff168152602001908152602001600020546132ea90919063ffffffff16565b6001600086815260200190815260200160002060008773ffffffffffffffffffffffffffffffffffffffff1673ffffffffffffffffffffffffffffffffffffffff168152602001908152602001600020819055508473ffffffffffffffffffffffffffffffffffffffff168673ffffffffffffffffffffffffffffffffffffffff168273ffffffffffffffffffffffffffffffffffffffff167fc3d58168c5ae7397731d063d5bbf3d657854427343f4c083240f7aacaa2d0f628787604051612a41929190615c3e565b60405180910390a4612a578187878787876137b3565b505050505050565b7f2ab9f1da92e74aaa01eb75a871557505b11dd8d36832a34bb21bbee88b08d86081565b6000612aaf7f2ab9f1da92e74aaa01eb75a871557505b11dd8d36832a34bb21bbee88b08d86033611d09565b90506000612add7fede6574deba8f02ada7888448a497b08844d62e044ed533343a673be3ffcde5f33611d09565b90506000612b0b7fe97dad3dbe5042e7384b1572cf966a15e089576a62b5126c5ef1d184ab18b12c33611d09565b90508280612b165750815b80612b1e5750805b612b5d576040517f08c379a0000000000000000000000000000000000000000000000000000000008152600401612b5490615a23565b60405180910390fd5b612b676007613983565b600060056000612b7760076136d6565b81526020019081526020016000209050612b908c61360e565b612bcf576040517f08c379a0000000000000000000000000000000000000000000000000000000008152600401612bc6906159e3565b60405180910390fd5b60018c60ff161415612c4957612c057f2ab9f1da92e74aaa01eb75a871557505b11dd8d36832a34bb21bbee88b08d86033611d09565b612c44576040517f08c379a0000000000000000000000000000000000000000000000000000000008152600401612c3b90615a43565b60405180910390fd5b612d2e565b60028c60ff161415612cc357612c7f7fede6574deba8f02ada7888448a497b08844d62e044ed533343a673be3ffcde5f33611d09565b612cbe576040517f08c379a0000000000000000000000000000000000000000000000000000000008152600401612cb590615a63565b60405180910390fd5b612d2d565b612ced7fe97dad3dbe5042e7384b1572cf966a15e089576a62b5126c5ef1d184ab18b12c33611d09565b612d2c576040517f08c379a0000000000000000000000000000000000000000000000000000000008152600401612d2390615ae3565b60405180910390fd5b5b5b6060612d3a60076136d6565b82600001819055508c8260010160006101000a81548160ff021916908360ff160217905550338260010160016101000a81548173ffffffffffffffffffffffffffffffffffffffff021916908373ffffffffffffffffffffffffffffffffffffffff1602179055508d8260020160006101000a81548173ffffffffffffffffffffffffffffffffffffffff021916908373ffffffffffffffffffffffffffffffffffffffff1602179055508a826003018190555089826004018190555088826006018190555042826005018190555087826007019080519060200190612e21929190613e45565b5086826008019080519060200190612e3a929190613e45565b5085826009019080519060200190612e53929190613e45565b50612e698e612e6260076136d6565b8e84613999565b60038d60ff161415612fb057612ea88260020160009054906101000a900473ffffffffffffffffffffffffffffffffffffffff1683600001548e6130ea565b612f338c600660008560000154815260200190815260200160002060008560020160009054906101000a900473ffffffffffffffffffffffffffffffffffffffff1673ffffffffffffffffffffffffffffffffffffffff1673ffffffffffffffffffffffffffffffffffffffff168152602001908152602001600020546132ea90919063ffffffff16565b600660008460000154815260200190815260200160002060008460020160009054906101000a900473ffffffffffffffffffffffffffffffffffffffff1673ffffffffffffffffffffffffffffffffffffffff1673ffffffffffffffffffffffffffffffffffffffff168152602001908152602001600020819055505b7f9d909c5848c959e758a199574d718d57aef8bad521548b63e1da241e4a586f0c828d600660008660000154815260200190815260200160002060008660020160009054906101000a900473ffffffffffffffffffffffffffffffffffffffff1673ffffffffffffffffffffffffffffffffffffffff1673ffffffffffffffffffffffffffffffffffffffff1681526020019081526020016000205460405161305b93929190615be5565b60405180910390a15050505050505050505050505050565b600061309b836000018373ffffffffffffffffffffffffffffffffffffffff1660001b613b80565b905092915050565b6000816130b060076136d6565b106130be57600190506130c3565b600090505b919050565b60006130d3826119f6565b806130e357506130e2826114cf565b5b9050919050565b600073ffffffffffffffffffffffffffffffffffffffff168373ffffffffffffffffffffffffffffffffffffffff16141561315a576040517f08c379a000000000000000000000000000000000000000000000000000000000815260040161315190615a03565b60405180910390fd5b600061316461333f565b90506131948185600061317687613743565b61317f87613743565b60405180602001604052806000815250613347565b613211826040518060600160405280602481526020016160b8602491396001600087815260200190815260200160002060008873ffffffffffffffffffffffffffffffffffffffff1673ffffffffffffffffffffffffffffffffffffffff1681526020019081526020016000205461334f9092919063ffffffff16565b6001600085815260200190815260200160002060008673ffffffffffffffffffffffffffffffffffffffff1673ffffffffffffffffffffffffffffffffffffffff16815260200190815260200160002081905550600073ffffffffffffffffffffffffffffffffffffffff168473ffffffffffffffffffffffffffffffffffffffff168273ffffffffffffffffffffffffffffffffffffffff167fc3d58168c5ae7397731d063d5bbf3d657854427343f4c083240f7aacaa2d0f6286866040516132dc929190615c3e565b60405180910390a450505050565b600080828401905083811015613335576040517f08c379a000000000000000000000000000000000000000000000000000000000815260040161332c90615903565b60405180910390fd5b8091505092915050565b600033905090565b505050505050565b6000838311158290613397576040517f08c379a000000000000000000000000000000000000000000000000000000000815260040161338e9190615801565b60405180910390fd5b5060008385039050809150509392505050565b6133c98473ffffffffffffffffffffffffffffffffffffffff16613bf0565b15613572578373ffffffffffffffffffffffffffffffffffffffff1663bc197c8187878686866040518663ffffffff1660e01b815260040161340f959493929190615634565b602060405180830381600087803b15801561342957600080fd5b505af192505050801561345a57506040513d601f19601f820116820180604052508101906134579190614632565b60015b6134e957613466615f77565b8061347157506134ae565b806040517f08c379a00000000000000000000000000000000000000000000000000000000081526004016134a59190615801565b60405180910390fd5b6040517f08c379a00000000000000000000000000000000000000000000000000000000081526004016134e090615823565b60405180910390fd5b63bc197c8160e01b7bffffffffffffffffffffffffffffffffffffffffffffffffffffffff1916817bffffffffffffffffffffffffffffffffffffffffffffffffffffffff191614613570576040517f08c379a000000000000000000000000000000000000000000000000000000000815260040161356790615863565b60405180910390fd5b505b505050505050565b6135a2816004600085815260200190815260200160002060000161307390919063ffffffff16565b1561360a576135af61333f565b73ffffffffffffffffffffffffffffffffffffffff168173ffffffffffffffffffffffffffffffffffffffff16837f2f8788117e7eff1d82e926ec794901d17c78024a50270940304540a733656f0d60405160405180910390a45b5050565b6000808260ff1611801561362a57506008805490508260ff1611155b15613638576001905061363d565b600090505b919050565b61366a8160046000858152602001908152602001600020600001613c0390919063ffffffff16565b156136d25761367761333f565b73ffffffffffffffffffffffffffffffffffffffff168173ffffffffffffffffffffffffffffffffffffffff16837ff6391f5c32d9c69d2a47ea670b442974b53935d1edc7fd64eb21e047a839171b60405160405180910390a45b5050565b600081600001549050919050565b60006136f38360000183613c33565b60001c905092915050565b6000613726836000018373ffffffffffffffffffffffffffffffffffffffff1660001b613ca0565b905092915050565b600061373c82600001613cc3565b9050919050565b606080600167ffffffffffffffff8111801561375e57600080fd5b5060405190808252806020026020018201604052801561378d5781602001602082028036833780820191505090505b509050828160008151811061379e57fe5b60200260200101818152505080915050919050565b6137d28473ffffffffffffffffffffffffffffffffffffffff16613bf0565b1561397b578373ffffffffffffffffffffffffffffffffffffffff1663f23a6e6187878686866040518663ffffffff1660e01b815260040161381895949392919061569c565b602060405180830381600087803b15801561383257600080fd5b505af192505050801561386357506040513d601f19601f820116820180604052508101906138609190614632565b60015b6138f25761386f615f77565b8061387a57506138b7565b806040517f08c379a00000000000000000000000000000000000000000000000000000000081526004016138ae9190615801565b60405180910390fd5b6040517f08c379a00000000000000000000000000000000000000000000000000000000081526004016138e990615823565b60405180910390fd5b63f23a6e6160e01b7bffffffffffffffffffffffffffffffffffffffffffffffffffffffff1916817bffffffffffffffffffffffffffffffffffffffffffffffffffffffff191614613979576040517f08c379a000000000000000000000000000000000000000000000000000000000815260040161397090615863565b60405180910390fd5b505b505050505050565b6001816000016000828254019250508190555050565b600073ffffffffffffffffffffffffffffffffffffffff168473ffffffffffffffffffffffffffffffffffffffff161415613a09576040517f08c379a0000000000000000000000000000000000000000000000000000000008152600401613a0090615b83565b60405180910390fd5b6000613a1361333f565b9050613a3481600087613a2588613743565b613a2e88613743565b87613347565b613a97836001600087815260200190815260200160002060008873ffffffffffffffffffffffffffffffffffffffff1673ffffffffffffffffffffffffffffffffffffffff168152602001908152602001600020546132ea90919063ffffffff16565b6001600086815260200190815260200160002060008773ffffffffffffffffffffffffffffffffffffffff1673ffffffffffffffffffffffffffffffffffffffff168152602001908152602001600020819055508473ffffffffffffffffffffffffffffffffffffffff16600073ffffffffffffffffffffffffffffffffffffffff168273ffffffffffffffffffffffffffffffffffffffff167fc3d58168c5ae7397731d063d5bbf3d657854427343f4c083240f7aacaa2d0f628787604051613b62929190615c3e565b60405180910390a4613b79816000878787876137b3565b5050505050565b6000613b8c8383613ca0565b613be5578260000182908060018154018082558091505060019003906000526020600020016000909190919091505582600001805490508360010160008481526020019081526020016000208190555060019050613bea565b600090505b92915050565b600080823b905060008111915050919050565b6000613c2b836000018373ffffffffffffffffffffffffffffffffffffffff1660001b613cd4565b905092915050565b600081836000018054905011613c7e576040517f08c379a0000000000000000000000000000000000000000000000000000000008152600401613c7590615843565b60405180910390fd5b826000018281548110613c8d57fe5b9060005260206000200154905092915050565b600080836001016000848152602001908152602001600020541415905092915050565b600081600001805490509050919050565b60008083600101600084815260200190815260200160002054905060008114613db05760006001820390506000600186600001805490500390506000866000018281548110613d1f57fe5b9060005260206000200154905080876000018481548110613d3c57fe5b9060005260206000200181905550600183018760010160008381526020019081526020016000208190555086600001805480613d7457fe5b60019003818190600052602060002001600090559055866001016000878152602001908152602001600020600090556001945050505050613db6565b60009150505b92915050565b60405180610160016040528060008152602001600060ff168152602001600073ffffffffffffffffffffffffffffffffffffffff168152602001600073ffffffffffffffffffffffffffffffffffffffff168152602001600081526020016000815260200160008152602001600081526020016060815260200160608152602001606081525090565b828054600181600116156101000203166002900490600052602060002090601f016020900481019282601f10613e8657805160ff1916838001178555613eb4565b82800160010185558215613eb4579182015b82811115613eb3578251825591602001919060010190613e98565b5b509050613ec19190613ec5565b5090565b5b80821115613ede576000816000905550600101613ec6565b5090565b600081359050613ef18161602d565b92915050565b600082601f830112613f0857600080fd5b8135613f1b613f1682615c94565b615c67565b91508181835260208401935060208101905083856020840282011115613f4057600080fd5b60005b83811015613f705781613f568882613ee2565b845260208401935060208301925050600181019050613f43565b5050505092915050565b600082601f830112613f8b57600080fd5b8135613f9e613f9982615cbc565b615c67565b91508181835260208401935060208101905083856020840282011115613fc357600080fd5b60005b83811015613ff35781613fd988826140f9565b845260208401935060208301925050600181019050613fc6565b5050505092915050565b60008135905061400c81616044565b92915050565b6000813590506140218161605b565b92915050565b60008135905061403681616072565b92915050565b60008151905061404b81616072565b92915050565b600082601f83011261406257600080fd5b813561407561407082615ce4565b615c67565b9150808252602083016020830185838301111561409157600080fd5b61409c838284615e95565b50505092915050565b600082601f8301126140b657600080fd5b81356140c96140c482615d10565b615c67565b915080825260208301602083018583830111156140e557600080fd5b6140f0838284615e95565b50505092915050565b60008135905061410881616089565b92915050565b60008151905061411d81616089565b92915050565b600081359050614132816160a0565b92915050565b60006020828403121561414a57600080fd5b600061415884828501613ee2565b91505092915050565b6000806040838503121561417457600080fd5b600061418285828601613ee2565b925050602061419385828601613ee2565b9150509250929050565b600080600080600060a086880312156141b557600080fd5b60006141c388828901613ee2565b95505060206141d488828901613ee2565b945050604086013567ffffffffffffffff8111156141f157600080fd5b6141fd88828901613f7a565b935050606086013567ffffffffffffffff81111561421a57600080fd5b61422688828901613f7a565b925050608086013567ffffffffffffffff81111561424357600080fd5b61424f88828901614051565b9150509295509295909350565b600080600080600060a0868803121561427457600080fd5b600061428288828901613ee2565b955050602061429388828901613ee2565b94505060406142a4888289016140f9565b93505060606142b5888289016140f9565b925050608086013567ffffffffffffffff8111156142d257600080fd5b6142de88828901614051565b9150509295509295909350565b600080604083850312156142fe57600080fd5b600061430c85828601613ee2565b925050602061431d85828601613ffd565b9150509250929050565b6000806040838503121561433a57600080fd5b600061434885828601613ee2565b9250506020614359858286016140f9565b9150509250929050565b60008060006060848603121561437857600080fd5b600061438686828701613ee2565b9350506020614397868287016140f9565b92505060406143a8868287016140f9565b9150509250925092565b600080604083850312156143c557600080fd5b60006143d385828601613ee2565b92505060206143e485828601614123565b9150509250929050565b60008060008060008060008060006101208a8c03121561440d57600080fd5b600061441b8c828d01613ee2565b995050602061442c8c828d01614123565b985050604061443d8c828d016140f9565b975050606061444e8c828d016140f9565b965050608061445f8c828d016140f9565b95505060a06144708c828d016140f9565b94505060c08a013567ffffffffffffffff81111561448d57600080fd5b6144998c828d016140a5565b93505060e08a013567ffffffffffffffff8111156144b657600080fd5b6144c28c828d016140a5565b9250506101008a013567ffffffffffffffff8111156144e057600080fd5b6144ec8c828d016140a5565b9150509295985092959850929598565b6000806040838503121561450f57600080fd5b600083013567ffffffffffffffff81111561452957600080fd5b61453585828601613ef7565b925050602083013567ffffffffffffffff81111561455257600080fd5b61455e85828601613f7a565b9150509250929050565b60006020828403121561457a57600080fd5b600061458884828501614012565b91505092915050565b600080604083850312156145a457600080fd5b60006145b285828601614012565b92505060206145c385828601613ee2565b9150509250929050565b600080604083850312156145e057600080fd5b60006145ee85828601614012565b92505060206145ff858286016140f9565b9150509250929050565b60006020828403121561461b57600080fd5b600061462984828501614027565b91505092915050565b60006020828403121561464457600080fd5b60006146528482850161403c565b91505092915050565b60006020828403121561466d57600080fd5b600061467b848285016140f9565b91505092915050565b60006020828403121561469657600080fd5b60006146a48482850161410e565b91505092915050565b600080604083850312156146c057600080fd5b60006146ce858286016140f9565b92505060206146df858286016140f9565b9150509250929050565b60006146f583836155ec565b60208301905092915050565b61470a81615e0a565b82525050565b61471981615e0a565b82525050565b600061472a82615d61565b6147348185615d8f565b935061473f83615d3c565b8060005b8381101561477057815161475788826146e9565b975061476283615d82565b925050600181019050614743565b5085935050505092915050565b61478681615e1c565b82525050565b61479581615e28565b82525050565b60006147a682615d6c565b6147b08185615da0565b93506147c0818560208601615ea4565b6147c981615f3f565b840191505092915050565b60006147df82615d77565b6147e98185615db1565b93506147f9818560208601615ea4565b61480281615f3f565b840191505092915050565b600061481882615d77565b6148228185615dc2565b9350614832818560208601615ea4565b61483b81615f3f565b840191505092915050565b6000815460018116600081146148635760018114614889576148cd565b607f60028304166148748187615db1565b955060ff1983168652602086019350506148cd565b600282046148978187615db1565b95506148a285615d4c565b60005b828110156148c4578154818901526001820191506020810190506148a5565b80880195505050505b505092915050565b60006148e2603483615dc2565b91507f455243313135353a207472616e7366657220746f206e6f6e204552433131353560008301527f526563656976657220696d706c656d656e7465720000000000000000000000006020830152604082019050919050565b6000614948602283615dc2565b91507f456e756d657261626c655365743a20696e646578206f7574206f6620626f756e60008301527f64730000000000000000000000000000000000000000000000000000000000006020830152604082019050919050565b60006149ae602883615dc2565b91507f455243313135353a204552433131353552656365697665722072656a6563746560008301527f6420746f6b656e730000000000000000000000000000000000000000000000006020830152604082019050919050565b6000614a14602683615dc2565b91507f4e6f7420656e6f75676820617661696c61626c652062616c616e636520746f2060008301527f72657469726500000000000000000000000000000000000000000000000000006020830152604082019050919050565b6000614a7a602f83615dc2565b91507f416363657373436f6e74726f6c3a2073656e646572206d75737420626520616e60008301527f2061646d696e20746f206772616e7400000000000000000000000000000000006020830152604082019050919050565b6000614ae0602b83615dc2565b91507f455243313135353a2062616c616e636520717565727920666f7220746865207a60008301527f65726f20616464726573730000000000000000000000000000000000000000006020830152604082019050919050565b6000614b46603183615dc2565b91507f455243313135353a2062617463682062616c616e636520717565727920666f7260008301527f20746865207a65726f20616464726573730000000000000000000000000000006020830152604082019050919050565b6000614bac601b83615dc2565b91507f536166654d6174683a206164646974696f6e206f766572666c6f7700000000006000830152602082019050919050565b6000614bec601683615dc2565b91507f746f6b656e496420646f6573206e6f74206578697374000000000000000000006000830152602082019050919050565b6000614c2c602983615dc2565b91507f455243313135353a2063616c6c6572206973206e6f74206f776e6572206e6f7260008301527f20617070726f76656400000000000000000000000000000000000000000000006020830152604082019050919050565b6000614c92601583615dc2565b91507f596f7520617265206e6f7420746865206f776e657200000000000000000000006000830152602082019050919050565b6000614cd2603083615dc2565b91507f416363657373436f6e74726f6c3a2073656e646572206d75737420626520616e60008301527f2061646d696e20746f207265766f6b65000000000000000000000000000000006020830152604082019050919050565b6000614d38602583615dc2565b91507f455243313135353a207472616e7366657220746f20746865207a65726f20616460008301527f64726573730000000000000000000000000000000000000000000000000000006020830152604082019050919050565b6000614d9e603283615dc2565b91507f455243313135353a207472616e736665722063616c6c6572206973206e6f742060008301527f6f776e6572206e6f7220617070726f76656400000000000000000000000000006020830152604082019050919050565b6000614e04602783615dc2565b91507f4661696c656420746f2069737375653a20746f6b656e5479706549642069732060008301527f696e76616c6964000000000000000000000000000000000000000000000000006020830152604082019050919050565b6000614e6a602383615dc2565b91507f455243313135353a206275726e2066726f6d20746865207a65726f206164647260008301527f65737300000000000000000000000000000000000000000000000000000000006020830152604082019050919050565b6000614ed0601483615dc2565b91507f596f7520617265206e6f742061206465616c65720000000000000000000000006000830152602082019050919050565b6000614f10603183615dc2565b91507f596f7520617265206e6f7420612052656e657761626c6520456e65726779204360008301527f65727469666963617465206465616c65720000000000000000000000000000006020830152604082019050919050565b6000614f76602c83615dc2565b91507f596f7520617265206e6f74206120436172626f6e20456d697373696f6e73204f60008301527f6666736574206465616c657200000000000000000000000000000000000000006020830152604082019050919050565b6000614fdc602983615dc2565b91507f596f75206d75737420626520656974686572206120636f6e73756d6572206f7260008301527f2061206465616c657200000000000000000000000000000000000000000000006020830152604082019050919050565b6000615042601983615dc2565b91507f546f6b656e207479706520646f6573206e6f74206578697374000000000000006000830152602082019050919050565b6000615082602483615dc2565b91507f526563697069656e74206d75737420626520636f6e73756d6572206f7220646560008301527f616c6572000000000000000000000000000000000000000000000000000000006020830152604082019050919050565b60006150e8602783615dc2565b91507f596f7520617265206e6f7420616e204175646974656420456d697373696f6e7360008301527f206465616c6572000000000000000000000000000000000000000000000000006020830152604082019050919050565b600061514e602983615dc2565b91507f455243313135353a2073657474696e6720617070726f76616c2073746174757360008301527f20666f722073656c6600000000000000000000000000000000000000000000006020830152604082019050919050565b60006151b4602983615dc2565b91507f455243313135353a206163636f756e747320616e6420696473206c656e67746860008301527f206d69736d6174636800000000000000000000000000000000000000000000006020830152604082019050919050565b600061521a602683615dc2565b91507f53656e64657220616e642072656365697665722063616e6e6f7420626520746860008301527f652073616d6500000000000000000000000000000000000000000000000000006020830152604082019050919050565b6000615280602883615dc2565b91507f455243313135353a2069647320616e6420616d6f756e7473206c656e6774682060008301527f6d69736d617463680000000000000000000000000000000000000000000000006020830152604082019050919050565b60006152e6602183615dc2565b91507f455243313135353a206d696e7420746f20746865207a65726f2061646472657360008301527f73000000000000000000000000000000000000000000000000000000000000006020830152604082019050919050565b600061534c602f83615dc2565b91507f416363657373436f6e74726f6c3a2063616e206f6e6c792072656e6f756e636560008301527f20726f6c657320666f722073656c6600000000000000000000000000000000006020830152604082019050919050565b6000610160830160008301516153be60008601826155ec565b5060208301516153d1602086018261560a565b5060408301516153e46040860182614701565b5060608301516153f76060860182614701565b50608083015161540a60808601826155ec565b5060a083015161541d60a08601826155ec565b5060c083015161543060c08601826155ec565b5060e083015161544360e08601826155ec565b5061010083015184820361010086015261545d82826147d4565b91505061012083015184820361012086015261547982826147d4565b91505061014083015184820361014086015261549582826147d4565b9150508091505092915050565b6000610160830160008084015490506154ba81615ef1565b6154c760008701826155ec565b50600184015490506154d881615f0b565b6154e5602087018261560a565b506154ef81615f25565b6154fc6040870182614701565b506002840154905061550d81615ed7565b61551a6060870182614701565b506003840154905061552b81615ef1565b61553860808701826155ec565b506004840154905061554981615ef1565b61555660a08701826155ec565b506005840154905061556781615ef1565b61557460c08701826155ec565b506006840154905061558581615ef1565b61559260e08701826155ec565b50600784018583036101008701526155aa8382614846565b925050600884018583036101208701526155c48382614846565b925050600984018583036101408701526155de8382614846565b925050819250505092915050565b6155f581615e7e565b82525050565b61560481615e7e565b82525050565b61561381615e88565b82525050565b600060208201905061562e6000830184614710565b92915050565b600060a0820190506156496000830188614710565b6156566020830187614710565b8181036040830152615668818661471f565b9050818103606083015261567c818561471f565b90508181036080830152615690818461479b565b90509695505050505050565b600060a0820190506156b16000830188614710565b6156be6020830187614710565b6156cb60408301866155fb565b6156d860608301856155fb565b81810360808301526156ea818461479b565b90509695505050505050565b600060408201905061570b6000830185614710565b61571860208301846155fb565b9392505050565b60006020820190508181036000830152615739818461471f565b905092915050565b6000604082019050818103600083015261575b818561471f565b9050818103602083015261576f818461471f565b90509392505050565b600060208201905061578d600083018461477d565b92915050565b600060a0820190506157a8600083018861477d565b6157b5602083018761477d565b6157c2604083018661477d565b6157cf606083018561477d565b6157dc608083018461477d565b9695505050505050565b60006020820190506157fb600083018461478c565b92915050565b6000602082019050818103600083015261581b818461480d565b905092915050565b6000602082019050818103600083015261583c816148d5565b9050919050565b6000602082019050818103600083015261585c8161493b565b9050919050565b6000602082019050818103600083015261587c816149a1565b9050919050565b6000602082019050818103600083015261589c81614a07565b9050919050565b600060208201905081810360008301526158bc81614a6d565b9050919050565b600060208201905081810360008301526158dc81614ad3565b9050919050565b600060208201905081810360008301526158fc81614b39565b9050919050565b6000602082019050818103600083015261591c81614b9f565b9050919050565b6000602082019050818103600083015261593c81614bdf565b9050919050565b6000602082019050818103600083015261595c81614c1f565b9050919050565b6000602082019050818103600083015261597c81614c85565b9050919050565b6000602082019050818103600083015261599c81614cc5565b9050919050565b600060208201905081810360008301526159bc81614d2b565b9050919050565b600060208201905081810360008301526159dc81614d91565b9050919050565b600060208201905081810360008301526159fc81614df7565b9050919050565b60006020820190508181036000830152615a1c81614e5d565b9050919050565b60006020820190508181036000830152615a3c81614ec3565b9050919050565b60006020820190508181036000830152615a5c81614f03565b9050919050565b60006020820190508181036000830152615a7c81614f69565b9050919050565b60006020820190508181036000830152615a9c81614fcf565b9050919050565b60006020820190508181036000830152615abc81615035565b9050919050565b60006020820190508181036000830152615adc81615075565b9050919050565b60006020820190508181036000830152615afc816150db565b9050919050565b60006020820190508181036000830152615b1c81615141565b9050919050565b60006020820190508181036000830152615b3c816151a7565b9050919050565b60006020820190508181036000830152615b5c8161520d565b9050919050565b60006020820190508181036000830152615b7c81615273565b9050919050565b60006020820190508181036000830152615b9c816152d9565b9050919050565b60006020820190508181036000830152615bbc8161533f565b9050919050565b60006020820190508181036000830152615bdd81846153a5565b905092915050565b60006060820190508181036000830152615bff81866154a2565b9050615c0e60208301856155fb565b615c1b60408301846155fb565b949350505050565b6000602082019050615c3860008301846155fb565b92915050565b6000604082019050615c5360008301856155fb565b615c6060208301846155fb565b9392505050565b6000604051905081810181811067ffffffffffffffff82111715615c8a57600080fd5b8060405250919050565b600067ffffffffffffffff821115615cab57600080fd5b602082029050602081019050919050565b600067ffffffffffffffff821115615cd357600080fd5b602082029050602081019050919050565b600067ffffffffffffffff821115615cfb57600080fd5b601f19601f8301169050602081019050919050565b600067ffffffffffffffff821115615d2757600080fd5b601f19601f8301169050602081019050919050565b6000819050602082019050919050565b60008190508160005260206000209050919050565b600081519050919050565b600081519050919050565b600081519050919050565b6000602082019050919050565b600082825260208201905092915050565b600082825260208201905092915050565b600082825260208201905092915050565b600082825260208201905092915050565b600073ffffffffffffffffffffffffffffffffffffffff82169050919050565b6000819050919050565b600060ff82169050919050565b6000615e1582615e5e565b9050919050565b60008115159050919050565b6000819050919050565b60007fffffffff0000000000000000000000000000000000000000000000000000000082169050919050565b600073ffffffffffffffffffffffffffffffffffffffff82169050919050565b6000819050919050565b600060ff82169050919050565b82818337600083830152505050565b60005b83811015615ec2578082015181840152602081019050615ea7565b83811115615ed1576000848401525b50505050565b6000615eea615ee583615f50565b615dd3565b9050919050565b6000615f04615eff83615f50565b615df3565b9050919050565b6000615f1e615f1983615f50565b615dfd565b9050919050565b6000615f38615f3383615f6a565b615dd3565b9050919050565b6000601f19601f8301169050919050565b60008160001c9050919050565b60008160e01c9050919050565b60008160081c9050919050565b600060443d1015615f875761602a565b60046000803e615f98600051615f5d565b6308c379a08114615fa9575061602a565b60405160043d036004823e80513d602482011167ffffffffffffffff82111715615fd55750505061602a565b808201805167ffffffffffffffff811115615ff457505050505061602a565b8060208301013d850181111561600f5750505050505061602a565b61601882615f3f565b60208401016040528296505050505050505b90565b61603681615e0a565b811461604157600080fd5b50565b61604d81615e1c565b811461605857600080fd5b50565b61606481615e28565b811461606f57600080fd5b50565b61607b81615e32565b811461608657600080fd5b50565b61609281615e7e565b811461609d57600080fd5b50565b6160a981615e88565b81146160b457600080fd5b5056fe455243313135353a206275726e20616d6f756e7420657863656564732062616c616e6365455243313135353a20696e73756666696369656e742062616c616e636520666f72207472616e73666572a26469706673582212208b26c017c99f50836e28ecea02bbb85b4ab346545fbb1247e2b6a7ea5355b61f64736f6c63430007000033",
			"opcodes": "PUSH1 0x80 PUSH1 0x40 MSTORE PUSH1 0x40 MLOAD DUP1 PUSH1 0x60 ADD PUSH1 0x40 MSTORE DUP1 PUSH1 0x40 MLOAD DUP1 PUSH1 0x40 ADD PUSH1 0x40 MSTORE DUP1 PUSH1 0x1C DUP2 MSTORE PUSH1 0x20 ADD PUSH32 0x52656E657761626C6520456E6572677920436572746966696361746500000000 DUP2 MSTORE POP DUP2 MSTORE PUSH1 0x20 ADD PUSH1 0x40 MLOAD DUP1 PUSH1 0x40 ADD PUSH1 0x40 MSTORE DUP1 PUSH1 0x17 DUP2 MSTORE PUSH1 0x20 ADD PUSH32 0x436172626F6E20456D697373696F6E73204F6666736574000000000000000000 DUP2 MSTORE POP DUP2 MSTORE PUSH1 0x20 ADD PUSH1 0x40 MLOAD DUP1 PUSH1 0x40 ADD PUSH1 0x40 MSTORE DUP1 PUSH1 0x11 DUP2 MSTORE PUSH1 0x20 ADD PUSH32 0x4175646974656420456D697373696F6E73000000000000000000000000000000 DUP2 MSTORE POP DUP2 MSTORE POP PUSH1 0x8 SWAP1 PUSH1 0x3 PUSH3 0xD0 SWAP3 SWAP2 SWAP1 PUSH3 0x593 JUMP JUMPDEST POP CALLVALUE DUP1 ISZERO PUSH3 0xDE JUMPI PUSH1 0x0 DUP1 REVERT JUMPDEST POP PUSH1 0x40 MLOAD DUP1 PUSH1 0x40 ADD PUSH1 0x40 MSTORE DUP1 PUSH1 0x9 DUP2 MSTORE PUSH1 0x20 ADD PUSH32 0x6C6F63616C686F73740000000000000000000000000000000000000000000000 DUP2 MSTORE POP PUSH3 0x12D PUSH4 0x1FFC9A7 PUSH1 0xE0 SHL PUSH3 0x2A4 PUSH1 0x20 SHL PUSH1 0x20 SHR JUMP JUMPDEST PUSH3 0x13E DUP2 PUSH3 0x37C PUSH1 0x20 SHL PUSH1 0x20 SHR JUMP JUMPDEST PUSH3 0x156 PUSH4 0xD9B67A26 PUSH1 0xE0 SHL PUSH3 0x2A4 PUSH1 0x20 SHL PUSH1 0x20 SHR JUMP JUMPDEST PUSH3 0x16E PUSH4 0xE89341C PUSH1 0xE0 SHL PUSH3 0x2A4 PUSH1 0x20 SHL PUSH1 0x20 SHR JUMP JUMPDEST POP PUSH3 0x184 PUSH1 0x0 DUP1 SHL CALLER PUSH3 0x398 PUSH1 0x20 SHL PUSH1 0x20 SHR JUMP JUMPDEST PUSH3 0x1D6 PUSH32 0x5E1AA547D3DADE8C68B013A47AD41C2BCC9B9E4B0765B0FB616780E15786E76A PUSH32 0xF8890EEDD7900AD88DA6192FD03DBB69DBEEE963B1A0ED738ABE49AB3331AAF3 PUSH3 0x3AE PUSH1 0x20 SHL PUSH1 0x20 SHR JUMP JUMPDEST PUSH3 0x208 PUSH32 0xF8890EEDD7900AD88DA6192FD03DBB69DBEEE963B1A0ED738ABE49AB3331AAF3 CALLER PUSH3 0x398 PUSH1 0x20 SHL PUSH1 0x20 SHR JUMP JUMPDEST PUSH3 0x23A PUSH32 0x2AB9F1DA92E74AAA01EB75A871557505B11DD8D36832A34BB21BBEE88B08D860 CALLER PUSH3 0x398 PUSH1 0x20 SHL PUSH1 0x20 SHR JUMP JUMPDEST PUSH3 0x26C PUSH32 0xEDE6574DEBA8F02ADA7888448A497B08844D62E044ED533343A673BE3FFCDE5F CALLER PUSH3 0x398 PUSH1 0x20 SHL PUSH1 0x20 SHR JUMP JUMPDEST PUSH3 0x29E PUSH32 0xE97DAD3DBE5042E7384B1572CF966A15E089576A62B5126C5EF1D184AB18B12C CALLER PUSH3 0x398 PUSH1 0x20 SHL PUSH1 0x20 SHR JUMP JUMPDEST PUSH3 0x789 JUMP JUMPDEST PUSH4 0xFFFFFFFF PUSH1 0xE0 SHL DUP2 PUSH28 0xFFFFFFFFFFFFFFFFFFFFFFFFFFFFFFFFFFFFFFFFFFFFFFFFFFFFFFFF NOT AND EQ ISZERO PUSH3 0x310 JUMPI PUSH1 0x40 MLOAD PUSH32 0x8C379A000000000000000000000000000000000000000000000000000000000 DUP2 MSTORE PUSH1 0x4 ADD PUSH3 0x307 SWAP1 PUSH3 0x756 JUMP JUMPDEST PUSH1 0x40 MLOAD DUP1 SWAP2 SUB SWAP1 REVERT JUMPDEST PUSH1 0x1 PUSH1 0x0 DUP1 DUP4 PUSH28 0xFFFFFFFFFFFFFFFFFFFFFFFFFFFFFFFFFFFFFFFFFFFFFFFFFFFFFFFF NOT AND PUSH28 0xFFFFFFFFFFFFFFFFFFFFFFFFFFFFFFFFFFFFFFFFFFFFFFFFFFFFFFFF NOT AND DUP2 MSTORE PUSH1 0x20 ADD SWAP1 DUP2 MSTORE PUSH1 0x20 ADD PUSH1 0x0 KECCAK256 PUSH1 0x0 PUSH2 0x100 EXP DUP2 SLOAD DUP2 PUSH1 0xFF MUL NOT AND SWAP1 DUP4 ISZERO ISZERO MUL OR SWAP1 SSTORE POP POP JUMP JUMPDEST DUP1 PUSH1 0x3 SWAP1 DUP1 MLOAD SWAP1 PUSH1 0x20 ADD SWAP1 PUSH3 0x394 SWAP3 SWAP2 SWAP1 PUSH3 0x5FA JUMP JUMPDEST POP POP JUMP JUMPDEST PUSH3 0x3AA DUP3 DUP3 PUSH3 0x412 PUSH1 0x20 SHL PUSH1 0x20 SHR JUMP JUMPDEST POP POP JUMP JUMPDEST DUP1 PUSH1 0x4 PUSH1 0x0 DUP5 DUP2 MSTORE PUSH1 0x20 ADD SWAP1 DUP2 MSTORE PUSH1 0x20 ADD PUSH1 0x0 KECCAK256 PUSH1 0x2 ADD SLOAD DUP4 PUSH32 0xBD79B86FFE0AB8E8776151514217CD7CACD52C909F66475C3AF44E129F0B00FF PUSH1 0x40 MLOAD PUSH1 0x40 MLOAD DUP1 SWAP2 SUB SWAP1 LOG4 DUP1 PUSH1 0x4 PUSH1 0x0 DUP5 DUP2 MSTORE PUSH1 0x20 ADD SWAP1 DUP2 MSTORE PUSH1 0x20 ADD PUSH1 0x0 KECCAK256 PUSH1 0x2 ADD DUP2 SWAP1 SSTORE POP POP POP JUMP JUMPDEST PUSH3 0x441 DUP2 PUSH1 0x4 PUSH1 0x0 DUP6 DUP2 MSTORE PUSH1 0x20 ADD SWAP1 DUP2 MSTORE PUSH1 0x20 ADD PUSH1 0x0 KECCAK256 PUSH1 0x0 ADD PUSH3 0x4B6 PUSH1 0x20 SHL PUSH3 0x3073 OR SWAP1 SWAP2 SWAP1 PUSH1 0x20 SHR JUMP JUMPDEST ISZERO PUSH3 0x4B2 JUMPI PUSH3 0x457 PUSH3 0x4EE PUSH1 0x20 SHL PUSH1 0x20 SHR JUMP JUMPDEST PUSH20 0xFFFFFFFFFFFFFFFFFFFFFFFFFFFFFFFFFFFFFFFF AND DUP2 PUSH20 0xFFFFFFFFFFFFFFFFFFFFFFFFFFFFFFFFFFFFFFFF AND DUP4 PUSH32 0x2F8788117E7EFF1D82E926EC794901D17C78024A50270940304540A733656F0D PUSH1 0x40 MLOAD PUSH1 0x40 MLOAD DUP1 SWAP2 SUB SWAP1 LOG4 JUMPDEST POP POP JUMP JUMPDEST PUSH1 0x0 PUSH3 0x4E6 DUP4 PUSH1 0x0 ADD DUP4 PUSH20 0xFFFFFFFFFFFFFFFFFFFFFFFFFFFFFFFFFFFFFFFF AND PUSH1 0x0 SHL PUSH3 0x4F6 PUSH1 0x20 SHL PUSH1 0x20 SHR JUMP JUMPDEST SWAP1 POP SWAP3 SWAP2 POP POP JUMP JUMPDEST PUSH1 0x0 CALLER SWAP1 POP SWAP1 JUMP JUMPDEST PUSH1 0x0 PUSH3 0x50A DUP4 DUP4 PUSH3 0x570 PUSH1 0x20 SHL PUSH1 0x20 SHR JUMP JUMPDEST PUSH3 0x565 JUMPI DUP3 PUSH1 0x0 ADD DUP3 SWAP1 DUP1 PUSH1 0x1 DUP2 SLOAD ADD DUP1 DUP3 SSTORE DUP1 SWAP2 POP POP PUSH1 0x1 SWAP1 SUB SWAP1 PUSH1 0x0 MSTORE PUSH1 0x20 PUSH1 0x0 KECCAK256 ADD PUSH1 0x0 SWAP1 SWAP2 SWAP1 SWAP2 SWAP1 SWAP2 POP SSTORE DUP3 PUSH1 0x0 ADD DUP1 SLOAD SWAP1 POP DUP4 PUSH1 0x1 ADD PUSH1 0x0 DUP5 DUP2 MSTORE PUSH1 0x20 ADD SWAP1 DUP2 MSTORE PUSH1 0x20 ADD PUSH1 0x0 KECCAK256 DUP2 SWAP1 SSTORE POP PUSH1 0x1 SWAP1 POP PUSH3 0x56A JUMP JUMPDEST PUSH1 0x0 SWAP1 POP JUMPDEST SWAP3 SWAP2 POP POP JUMP JUMPDEST PUSH1 0x0 DUP1 DUP4 PUSH1 0x1 ADD PUSH1 0x0 DUP5 DUP2 MSTORE PUSH1 0x20 ADD SWAP1 DUP2 MSTORE PUSH1 0x20 ADD PUSH1 0x0 KECCAK256 SLOAD EQ ISZERO SWAP1 POP SWAP3 SWAP2 POP POP JUMP JUMPDEST DUP3 DUP1 SLOAD DUP3 DUP3 SSTORE SWAP1 PUSH1 0x0 MSTORE PUSH1 0x20 PUSH1 0x0 KECCAK256 SWAP1 DUP2 ADD SWAP3 DUP3 ISZERO PUSH3 0x5E7 JUMPI SWAP2 PUSH1 0x20 MUL DUP3 ADD JUMPDEST DUP3 DUP2 GT ISZERO PUSH3 0x5E6 JUMPI DUP3 MLOAD DUP3 SWAP1 DUP1 MLOAD SWAP1 PUSH1 0x20 ADD SWAP1 PUSH3 0x5D5 SWAP3 SWAP2 SWAP1 PUSH3 0x5FA JUMP JUMPDEST POP SWAP2 PUSH1 0x20 ADD SWAP2 SWAP1 PUSH1 0x1 ADD SWAP1 PUSH3 0x5B4 JUMP JUMPDEST JUMPDEST POP SWAP1 POP PUSH3 0x5F6 SWAP2 SWAP1 PUSH3 0x681 JUMP JUMPDEST POP SWAP1 JUMP JUMPDEST DUP3 DUP1 SLOAD PUSH1 0x1 DUP2 PUSH1 0x1 AND ISZERO PUSH2 0x100 MUL SUB AND PUSH1 0x2 SWAP1 DIV SWAP1 PUSH1 0x0 MSTORE PUSH1 0x20 PUSH1 0x0 KECCAK256 SWAP1 PUSH1 0x1F ADD PUSH1 0x20 SWAP1 DIV DUP2 ADD SWAP3 DUP3 PUSH1 0x1F LT PUSH3 0x63D JUMPI DUP1 MLOAD PUSH1 0xFF NOT AND DUP4 DUP1 ADD OR DUP6 SSTORE PUSH3 0x66E JUMP JUMPDEST DUP3 DUP1 ADD PUSH1 0x1 ADD DUP6 SSTORE DUP3 ISZERO PUSH3 0x66E JUMPI SWAP2 DUP3 ADD JUMPDEST DUP3 DUP2 GT ISZERO PUSH3 0x66D JUMPI DUP3 MLOAD DUP3 SSTORE SWAP2 PUSH1 0x20 ADD SWAP2 SWAP1 PUSH1 0x1 ADD SWAP1 PUSH3 0x650 JUMP JUMPDEST JUMPDEST POP SWAP1 POP PUSH3 0x67D SWAP2 SWAP1 PUSH3 0x6A9 JUMP JUMPDEST POP SWAP1 JUMP JUMPDEST JUMPDEST DUP1 DUP3 GT ISZERO PUSH3 0x6A5 JUMPI PUSH1 0x0 DUP2 DUP2 PUSH3 0x69B SWAP2 SWAP1 PUSH3 0x6C8 JUMP JUMPDEST POP PUSH1 0x1 ADD PUSH3 0x682 JUMP JUMPDEST POP SWAP1 JUMP JUMPDEST JUMPDEST DUP1 DUP3 GT ISZERO PUSH3 0x6C4 JUMPI PUSH1 0x0 DUP2 PUSH1 0x0 SWAP1 SSTORE POP PUSH1 0x1 ADD PUSH3 0x6AA JUMP JUMPDEST POP SWAP1 JUMP JUMPDEST POP DUP1 SLOAD PUSH1 0x1 DUP2 PUSH1 0x1 AND ISZERO PUSH2 0x100 MUL SUB AND PUSH1 0x2 SWAP1 DIV PUSH1 0x0 DUP3 SSTORE DUP1 PUSH1 0x1F LT PUSH3 0x6F0 JUMPI POP PUSH3 0x711 JUMP JUMPDEST PUSH1 0x1F ADD PUSH1 0x20 SWAP1 DIV SWAP1 PUSH1 0x0 MSTORE PUSH1 0x20 PUSH1 0x0 KECCAK256 SWAP1 DUP2 ADD SWAP1 PUSH3 0x710 SWAP2 SWAP1 PUSH3 0x6A9 JUMP JUMPDEST JUMPDEST POP JUMP JUMPDEST PUSH1 0x0 PUSH3 0x723 PUSH1 0x1C DUP4 PUSH3 0x778 JUMP JUMPDEST SWAP2 POP PUSH32 0x4552433136353A20696E76616C696420696E7465726661636520696400000000 PUSH1 0x0 DUP4 ADD MSTORE PUSH1 0x20 DUP3 ADD SWAP1 POP SWAP2 SWAP1 POP JUMP JUMPDEST PUSH1 0x0 PUSH1 0x20 DUP3 ADD SWAP1 POP DUP2 DUP2 SUB PUSH1 0x0 DUP4 ADD MSTORE PUSH3 0x771 DUP2 PUSH3 0x714 JUMP JUMPDEST SWAP1 POP SWAP2 SWAP1 POP JUMP JUMPDEST PUSH1 0x0 DUP3 DUP3 MSTORE PUSH1 0x20 DUP3 ADD SWAP1 POP SWAP3 SWAP2 POP POP JUMP JUMPDEST PUSH2 0x613B DUP1 PUSH3 0x799 PUSH1 0x0 CODECOPY PUSH1 0x0 RETURN INVALID PUSH1 0x80 PUSH1 0x40 MSTORE CALLVALUE DUP1 ISZERO PUSH2 0x10 JUMPI PUSH1 0x0 DUP1 REVERT JUMPDEST POP PUSH1 0x4 CALLDATASIZE LT PUSH2 0x226 JUMPI PUSH1 0x0 CALLDATALOAD PUSH1 0xE0 SHR DUP1 PUSH4 0x76AED2E1 GT PUSH2 0x130 JUMPI DUP1 PUSH4 0xA22CB465 GT PUSH2 0xB8 JUMPI DUP1 PUSH4 0xE2E564F2 GT PUSH2 0x7C JUMPI DUP1 PUSH4 0xE2E564F2 EQ PUSH2 0x6FC JUMPI DUP1 PUSH4 0xE985E9C5 EQ PUSH2 0x718 JUMPI DUP1 PUSH4 0xF242432A EQ PUSH2 0x748 JUMPI DUP1 PUSH4 0xFCBA7948 EQ PUSH2 0x764 JUMPI DUP1 PUSH4 0xFD0C4A9A EQ PUSH2 0x782 JUMPI PUSH2 0x226 JUMP JUMPDEST DUP1 PUSH4 0xA22CB465 EQ PUSH2 0x630 JUMPI DUP1 PUSH4 0xC1E03728 EQ PUSH2 0x64C JUMPI DUP1 PUSH4 0xCA15C873 EQ PUSH2 0x67C JUMPI DUP1 PUSH4 0xCE6CCFAF EQ PUSH2 0x6AC JUMPI DUP1 PUSH4 0xD547741F EQ PUSH2 0x6E0 JUMPI PUSH2 0x226 JUMP JUMPDEST DUP1 PUSH4 0x9010D07C GT PUSH2 0xFF JUMPI DUP1 PUSH4 0x9010D07C EQ PUSH2 0x552 JUMPI DUP1 PUSH4 0x91D14854 EQ PUSH2 0x582 JUMPI DUP1 PUSH4 0x92089C46 EQ PUSH2 0x5B2 JUMPI DUP1 PUSH4 0xA0D975A7 EQ PUSH2 0x5E2 JUMPI DUP1 PUSH4 0xA217FDDF EQ PUSH2 0x612 JUMPI PUSH2 0x226 JUMP JUMPDEST DUP1 PUSH4 0x76AED2E1 EQ PUSH2 0x4B5 JUMPI DUP1 PUSH4 0x76CE4755 EQ PUSH2 0x4E5 JUMPI DUP1 PUSH4 0x78E5C592 EQ PUSH2 0x503 JUMPI DUP1 PUSH4 0x7F157C9B EQ PUSH2 0x521 JUMPI PUSH2 0x226 JUMP JUMPDEST DUP1 PUSH4 0x2F2FF15D GT PUSH2 0x1B3 JUMPI DUP1 PUSH4 0x44B22FDD GT PUSH2 0x182 JUMPI DUP1 PUSH4 0x44B22FDD EQ PUSH2 0x3FF JUMPI DUP1 PUSH4 0x4E1273F4 EQ PUSH2 0x41B JUMPI DUP1 PUSH4 0x53DBE982 EQ PUSH2 0x44B JUMPI DUP1 PUSH4 0x5DDB368F EQ PUSH2 0x467 JUMPI DUP1 PUSH4 0x69F7EF44 EQ PUSH2 0x485 JUMPI PUSH2 0x226 JUMP JUMPDEST DUP1 PUSH4 0x2F2FF15D EQ PUSH2 0x37B JUMPI DUP1 PUSH4 0x31AA4B20 EQ PUSH2 0x397 JUMPI DUP1 PUSH4 0x33781A0E EQ PUSH2 0x3B3 JUMPI DUP1 PUSH4 0x36568ABE EQ PUSH2 0x3E3 JUMPI PUSH2 0x226 JUMP JUMPDEST DUP1 PUSH4 0x18A50D7E GT PUSH2 0x1FA JUMPI DUP1 PUSH4 0x18A50D7E EQ PUSH2 0x2D7 JUMPI DUP1 PUSH4 0x1EF68EF7 EQ PUSH2 0x2F5 JUMPI DUP1 PUSH4 0x248A9CA3 EQ PUSH2 0x313 JUMPI DUP1 PUSH4 0x293A7F2E EQ PUSH2 0x343 JUMPI DUP1 PUSH4 0x2EB2C2D6 EQ PUSH2 0x35F JUMPI PUSH2 0x226 JUMP JUMPDEST DUP1 PUSH3 0xFDD58E EQ PUSH2 0x22B JUMPI DUP1 PUSH4 0x1FFC9A7 EQ PUSH2 0x25B JUMPI DUP1 PUSH4 0x95BCDB6 EQ PUSH2 0x28B JUMPI DUP1 PUSH4 0xE89341C EQ PUSH2 0x2A7 JUMPI JUMPDEST PUSH1 0x0 DUP1 REVERT JUMPDEST PUSH2 0x245 PUSH1 0x4 DUP1 CALLDATASIZE SUB DUP2 ADD SWAP1 PUSH2 0x240 SWAP2 SWAP1 PUSH2 0x4327 JUMP JUMPDEST PUSH2 0x79E JUMP JUMPDEST PUSH1 0x40 MLOAD PUSH2 0x252 SWAP2 SWAP1 PUSH2 0x5C23 JUMP JUMPDEST PUSH1 0x40 MLOAD DUP1 SWAP2 SUB SWAP1 RETURN JUMPDEST PUSH2 0x275 PUSH1 0x4 DUP1 CALLDATASIZE SUB DUP2 ADD SWAP1 PUSH2 0x270 SWAP2 SWAP1 PUSH2 0x4609 JUMP JUMPDEST PUSH2 0x868 JUMP JUMPDEST PUSH1 0x40 MLOAD PUSH2 0x282 SWAP2 SWAP1 PUSH2 0x5778 JUMP JUMPDEST PUSH1 0x40 MLOAD DUP1 SWAP2 SUB SWAP1 RETURN JUMPDEST PUSH2 0x2A5 PUSH1 0x4 DUP1 CALLDATASIZE SUB DUP2 ADD SWAP1 PUSH2 0x2A0 SWAP2 SWAP1 PUSH2 0x4363 JUMP JUMPDEST PUSH2 0x8CF JUMP JUMPDEST STOP JUMPDEST PUSH2 0x2C1 PUSH1 0x4 DUP1 CALLDATASIZE SUB DUP2 ADD SWAP1 PUSH2 0x2BC SWAP2 SWAP1 PUSH2 0x465B JUMP JUMPDEST PUSH2 0xB29 JUMP JUMPDEST PUSH1 0x40 MLOAD PUSH2 0x2CE SWAP2 SWAP1 PUSH2 0x5801 JUMP JUMPDEST PUSH1 0x40 MLOAD DUP1 SWAP2 SUB SWAP1 RETURN JUMPDEST PUSH2 0x2DF PUSH2 0xBCD JUMP JUMPDEST PUSH1 0x40 MLOAD PUSH2 0x2EC SWAP2 SWAP1 PUSH2 0x57E6 JUMP JUMPDEST PUSH1 0x40 MLOAD DUP1 SWAP2 SUB SWAP1 RETURN JUMPDEST PUSH2 0x2FD PUSH2 0xBF1 JUMP JUMPDEST PUSH1 0x40 MLOAD PUSH2 0x30A SWAP2 SWAP1 PUSH2 0x57E6 JUMP JUMPDEST PUSH1 0x40 MLOAD DUP1 SWAP2 SUB SWAP1 RETURN JUMPDEST PUSH2 0x32D PUSH1 0x4 DUP1 CALLDATASIZE SUB DUP2 ADD SWAP1 PUSH2 0x328 SWAP2 SWAP1 PUSH2 0x4568 JUMP JUMPDEST PUSH2 0xC15 JUMP JUMPDEST PUSH1 0x40 MLOAD PUSH2 0x33A SWAP2 SWAP1 PUSH2 0x57E6 JUMP JUMPDEST PUSH1 0x40 MLOAD DUP1 SWAP2 SUB SWAP1 RETURN JUMPDEST PUSH2 0x35D PUSH1 0x4 DUP1 CALLDATASIZE SUB DUP2 ADD SWAP1 PUSH2 0x358 SWAP2 SWAP1 PUSH2 0x46AD JUMP JUMPDEST PUSH2 0xC35 JUMP JUMPDEST STOP JUMPDEST PUSH2 0x379 PUSH1 0x4 DUP1 CALLDATASIZE SUB DUP2 ADD SWAP1 PUSH2 0x374 SWAP2 SWAP1 PUSH2 0x419D JUMP JUMPDEST PUSH2 0xEF3 JUMP JUMPDEST STOP JUMPDEST PUSH2 0x395 PUSH1 0x4 DUP1 CALLDATASIZE SUB DUP2 ADD SWAP1 PUSH2 0x390 SWAP2 SWAP1 PUSH2 0x4591 JUMP JUMPDEST PUSH2 0x12B4 JUMP JUMPDEST STOP JUMPDEST PUSH2 0x3B1 PUSH1 0x4 DUP1 CALLDATASIZE SUB DUP2 ADD SWAP1 PUSH2 0x3AC SWAP2 SWAP1 PUSH2 0x43B2 JUMP JUMPDEST PUSH2 0x1328 JUMP JUMPDEST STOP JUMPDEST PUSH2 0x3CD PUSH1 0x4 DUP1 CALLDATASIZE SUB DUP2 ADD SWAP1 PUSH2 0x3C8 SWAP2 SWAP1 PUSH2 0x4138 JUMP JUMPDEST PUSH2 0x14CF JUMP JUMPDEST PUSH1 0x40 MLOAD PUSH2 0x3DA SWAP2 SWAP1 PUSH2 0x5778 JUMP JUMPDEST PUSH1 0x40 MLOAD DUP1 SWAP2 SUB SWAP1 RETURN JUMPDEST PUSH2 0x3FD PUSH1 0x4 DUP1 CALLDATASIZE SUB DUP2 ADD SWAP1 PUSH2 0x3F8 SWAP2 SWAP1 PUSH2 0x4591 JUMP JUMPDEST PUSH2 0x1502 JUMP JUMPDEST STOP JUMPDEST PUSH2 0x419 PUSH1 0x4 DUP1 CALLDATASIZE SUB DUP2 ADD SWAP1 PUSH2 0x414 SWAP2 SWAP1 PUSH2 0x4138 JUMP JUMPDEST PUSH2 0x1585 JUMP JUMPDEST STOP JUMPDEST PUSH2 0x435 PUSH1 0x4 DUP1 CALLDATASIZE SUB DUP2 ADD SWAP1 PUSH2 0x430 SWAP2 SWAP1 PUSH2 0x44FC JUMP JUMPDEST PUSH2 0x16D2 JUMP JUMPDEST PUSH1 0x40 MLOAD PUSH2 0x442 SWAP2 SWAP1 PUSH2 0x571F JUMP JUMPDEST PUSH1 0x40 MLOAD DUP1 SWAP2 SUB SWAP1 RETURN JUMPDEST PUSH2 0x465 PUSH1 0x4 DUP1 CALLDATASIZE SUB DUP2 ADD SWAP1 PUSH2 0x460 SWAP2 SWAP1 PUSH2 0x4138 JUMP JUMPDEST PUSH2 0x1898 JUMP JUMPDEST STOP JUMPDEST PUSH2 0x46F PUSH2 0x19E5 JUMP JUMPDEST PUSH1 0x40 MLOAD PUSH2 0x47C SWAP2 SWAP1 PUSH2 0x5C23 JUMP JUMPDEST PUSH1 0x40 MLOAD DUP1 SWAP2 SUB SWAP1 RETURN JUMPDEST PUSH2 0x49F PUSH1 0x4 DUP1 CALLDATASIZE SUB DUP2 ADD SWAP1 PUSH2 0x49A SWAP2 SWAP1 PUSH2 0x4138 JUMP JUMPDEST PUSH2 0x19F6 JUMP JUMPDEST PUSH1 0x40 MLOAD PUSH2 0x4AC SWAP2 SWAP1 PUSH2 0x5778 JUMP JUMPDEST PUSH1 0x40 MLOAD DUP1 SWAP2 SUB SWAP1 RETURN JUMPDEST PUSH2 0x4CF PUSH1 0x4 DUP1 CALLDATASIZE SUB DUP2 ADD SWAP1 PUSH2 0x4CA SWAP2 SWAP1 PUSH2 0x465B JUMP JUMPDEST PUSH2 0x1AB0 JUMP JUMPDEST PUSH1 0x40 MLOAD PUSH2 0x4DC SWAP2 SWAP1 PUSH2 0x5801 JUMP JUMPDEST PUSH1 0x40 MLOAD DUP1 SWAP2 SUB SWAP1 RETURN JUMPDEST PUSH2 0x4ED PUSH2 0x1BE0 JUMP JUMPDEST PUSH1 0x40 MLOAD PUSH2 0x4FA SWAP2 SWAP1 PUSH2 0x57E6 JUMP JUMPDEST PUSH1 0x40 MLOAD DUP1 SWAP2 SUB SWAP1 RETURN JUMPDEST PUSH2 0x50B PUSH2 0x1C04 JUMP JUMPDEST PUSH1 0x40 MLOAD PUSH2 0x518 SWAP2 SWAP1 PUSH2 0x57E6 JUMP JUMPDEST PUSH1 0x40 MLOAD DUP1 SWAP2 SUB SWAP1 RETURN JUMPDEST PUSH2 0x53B PUSH1 0x4 DUP1 CALLDATASIZE SUB DUP2 ADD SWAP1 PUSH2 0x536 SWAP2 SWAP1 PUSH2 0x4327 JUMP JUMPDEST PUSH2 0x1C28 JUMP JUMPDEST PUSH1 0x40 MLOAD PUSH2 0x549 SWAP3 SWAP2 SWAP1 PUSH2 0x5C3E JUMP JUMPDEST PUSH1 0x40 MLOAD DUP1 SWAP2 SUB SWAP1 RETURN JUMPDEST PUSH2 0x56C PUSH1 0x4 DUP1 CALLDATASIZE SUB DUP2 ADD SWAP1 PUSH2 0x567 SWAP2 SWAP1 PUSH2 0x45CD JUMP JUMPDEST PUSH2 0x1CD7 JUMP JUMPDEST PUSH1 0x40 MLOAD PUSH2 0x579 SWAP2 SWAP1 PUSH2 0x5619 JUMP JUMPDEST PUSH1 0x40 MLOAD DUP1 SWAP2 SUB SWAP1 RETURN JUMPDEST PUSH2 0x59C PUSH1 0x4 DUP1 CALLDATASIZE SUB DUP2 ADD SWAP1 PUSH2 0x597 SWAP2 SWAP1 PUSH2 0x4591 JUMP JUMPDEST PUSH2 0x1D09 JUMP JUMPDEST PUSH1 0x40 MLOAD PUSH2 0x5A9 SWAP2 SWAP1 PUSH2 0x5778 JUMP JUMPDEST PUSH1 0x40 MLOAD DUP1 SWAP2 SUB SWAP1 RETURN JUMPDEST PUSH2 0x5CC PUSH1 0x4 DUP1 CALLDATASIZE SUB DUP2 ADD SWAP1 PUSH2 0x5C7 SWAP2 SWAP1 PUSH2 0x465B JUMP JUMPDEST PUSH2 0x1D3B JUMP JUMPDEST PUSH1 0x40 MLOAD PUSH2 0x5D9 SWAP2 SWAP1 PUSH2 0x5619 JUMP JUMPDEST PUSH1 0x40 MLOAD DUP1 SWAP2 SUB SWAP1 RETURN JUMPDEST PUSH2 0x5FC PUSH1 0x4 DUP1 CALLDATASIZE SUB DUP2 ADD SWAP1 PUSH2 0x5F7 SWAP2 SWAP1 PUSH2 0x4327 JUMP JUMPDEST PUSH2 0x1DC3 JUMP JUMPDEST PUSH1 0x40 MLOAD PUSH2 0x609 SWAP2 SWAP1 PUSH2 0x5C23 JUMP JUMPDEST PUSH1 0x40 MLOAD DUP1 SWAP2 SUB SWAP1 RETURN JUMPDEST PUSH2 0x61A PUSH2 0x1E6C JUMP JUMPDEST PUSH1 0x40 MLOAD PUSH2 0x627 SWAP2 SWAP1 PUSH2 0x57E6 JUMP JUMPDEST PUSH1 0x40 MLOAD DUP1 SWAP2 SUB SWAP1 RETURN JUMPDEST PUSH2 0x64A PUSH1 0x4 DUP1 CALLDATASIZE SUB DUP2 ADD SWAP1 PUSH2 0x645 SWAP2 SWAP1 PUSH2 0x42EB JUMP JUMPDEST PUSH2 0x1E73 JUMP JUMPDEST STOP JUMPDEST PUSH2 0x666 PUSH1 0x4 DUP1 CALLDATASIZE SUB DUP2 ADD SWAP1 PUSH2 0x661 SWAP2 SWAP1 PUSH2 0x465B JUMP JUMPDEST PUSH2 0x1FF4 JUMP JUMPDEST PUSH1 0x40 MLOAD PUSH2 0x673 SWAP2 SWAP1 PUSH2 0x5BC3 JUMP JUMPDEST PUSH1 0x40 MLOAD DUP1 SWAP2 SUB SWAP1 RETURN JUMPDEST PUSH2 0x696 PUSH1 0x4 DUP1 CALLDATASIZE SUB DUP2 ADD SWAP1 PUSH2 0x691 SWAP2 SWAP1 PUSH2 0x4568 JUMP JUMPDEST PUSH2 0x234B JUMP JUMPDEST PUSH1 0x40 MLOAD PUSH2 0x6A3 SWAP2 SWAP1 PUSH2 0x5C23 JUMP JUMPDEST PUSH1 0x40 MLOAD DUP1 SWAP2 SUB SWAP1 RETURN JUMPDEST PUSH2 0x6C6 PUSH1 0x4 DUP1 CALLDATASIZE SUB DUP2 ADD SWAP1 PUSH2 0x6C1 SWAP2 SWAP1 PUSH2 0x4138 JUMP JUMPDEST PUSH2 0x2372 JUMP JUMPDEST PUSH1 0x40 MLOAD PUSH2 0x6D7 SWAP6 SWAP5 SWAP4 SWAP3 SWAP2 SWAP1 PUSH2 0x5793 JUMP JUMPDEST PUSH1 0x40 MLOAD DUP1 SWAP2 SUB SWAP1 RETURN JUMPDEST PUSH2 0x6FA PUSH1 0x4 DUP1 CALLDATASIZE SUB DUP2 ADD SWAP1 PUSH2 0x6F5 SWAP2 SWAP1 PUSH2 0x4591 JUMP JUMPDEST PUSH2 0x245F JUMP JUMPDEST STOP JUMPDEST PUSH2 0x716 PUSH1 0x4 DUP1 CALLDATASIZE SUB DUP2 ADD SWAP1 PUSH2 0x711 SWAP2 SWAP1 PUSH2 0x43B2 JUMP JUMPDEST PUSH2 0x24D3 JUMP JUMPDEST STOP JUMPDEST PUSH2 0x732 PUSH1 0x4 DUP1 CALLDATASIZE SUB DUP2 ADD SWAP1 PUSH2 0x72D SWAP2 SWAP1 PUSH2 0x4161 JUMP JUMPDEST PUSH2 0x2688 JUMP JUMPDEST PUSH1 0x40 MLOAD PUSH2 0x73F SWAP2 SWAP1 PUSH2 0x5778 JUMP JUMPDEST PUSH1 0x40 MLOAD DUP1 SWAP2 SUB SWAP1 RETURN JUMPDEST PUSH2 0x762 PUSH1 0x4 DUP1 CALLDATASIZE SUB DUP2 ADD SWAP1 PUSH2 0x75D SWAP2 SWAP1 PUSH2 0x425C JUMP JUMPDEST PUSH2 0x271C JUMP JUMPDEST STOP JUMPDEST PUSH2 0x76C PUSH2 0x2A5F JUMP JUMPDEST PUSH1 0x40 MLOAD PUSH2 0x779 SWAP2 SWAP1 PUSH2 0x57E6 JUMP JUMPDEST PUSH1 0x40 MLOAD DUP1 SWAP2 SUB SWAP1 RETURN JUMPDEST PUSH2 0x79C PUSH1 0x4 DUP1 CALLDATASIZE SUB DUP2 ADD SWAP1 PUSH2 0x797 SWAP2 SWAP1 PUSH2 0x43EE JUMP JUMPDEST PUSH2 0x2A83 JUMP JUMPDEST STOP JUMPDEST PUSH1 0x0 DUP1 PUSH20 0xFFFFFFFFFFFFFFFFFFFFFFFFFFFFFFFFFFFFFFFF AND DUP4 PUSH20 0xFFFFFFFFFFFFFFFFFFFFFFFFFFFFFFFFFFFFFFFF AND EQ ISZERO PUSH2 0x80F JUMPI PUSH1 0x40 MLOAD PUSH32 0x8C379A000000000000000000000000000000000000000000000000000000000 DUP2 MSTORE PUSH1 0x4 ADD PUSH2 0x806 SWAP1 PUSH2 0x58C3 JUMP JUMPDEST PUSH1 0x40 MLOAD DUP1 SWAP2 SUB SWAP1 REVERT JUMPDEST PUSH1 0x1 PUSH1 0x0 DUP4 DUP2 MSTORE PUSH1 0x20 ADD SWAP1 DUP2 MSTORE PUSH1 0x20 ADD PUSH1 0x0 KECCAK256 PUSH1 0x0 DUP5 PUSH20 0xFFFFFFFFFFFFFFFFFFFFFFFFFFFFFFFFFFFFFFFF AND PUSH20 0xFFFFFFFFFFFFFFFFFFFFFFFFFFFFFFFFFFFFFFFF AND DUP2 MSTORE PUSH1 0x20 ADD SWAP1 DUP2 MSTORE PUSH1 0x20 ADD PUSH1 0x0 KECCAK256 SLOAD SWAP1 POP SWAP3 SWAP2 POP POP JUMP JUMPDEST PUSH1 0x0 DUP1 PUSH1 0x0 DUP4 PUSH28 0xFFFFFFFFFFFFFFFFFFFFFFFFFFFFFFFFFFFFFFFFFFFFFFFFFFFFFFFF NOT AND PUSH28 0xFFFFFFFFFFFFFFFFFFFFFFFFFFFFFFFFFFFFFFFFFFFFFFFFFFFFFFFF NOT AND DUP2 MSTORE PUSH1 0x20 ADD SWAP1 DUP2 MSTORE PUSH1 0x20 ADD PUSH1 0x0 KECCAK256 PUSH1 0x0 SWAP1 SLOAD SWAP1 PUSH2 0x100 EXP SWAP1 DIV PUSH1 0xFF AND SWAP1 POP SWAP2 SWAP1 POP JUMP JUMPDEST PUSH1 0x0 PUSH2 0x8FB PUSH32 0x5E1AA547D3DADE8C68B013A47AD41C2BCC9B9E4B0765B0FB616780E15786E76A CALLER PUSH2 0x1D09 JUMP JUMPDEST SWAP1 POP PUSH1 0x0 PUSH2 0x929 PUSH32 0x2AB9F1DA92E74AAA01EB75A871557505B11DD8D36832A34BB21BBEE88B08D860 CALLER PUSH2 0x1D09 JUMP JUMPDEST SWAP1 POP PUSH1 0x0 PUSH2 0x957 PUSH32 0xEDE6574DEBA8F02ADA7888448A497B08844D62E044ED533343A673BE3FFCDE5F CALLER PUSH2 0x1D09 JUMP JUMPDEST SWAP1 POP PUSH1 0x0 PUSH2 0x985 PUSH32 0xE97DAD3DBE5042E7384B1572CF966A15E089576A62B5126C5EF1D184AB18B12C CALLER PUSH2 0x1D09 JUMP JUMPDEST SWAP1 POP DUP4 DUP1 PUSH2 0x990 JUMPI POP DUP3 JUMPDEST DUP1 PUSH2 0x998 JUMPI POP DUP2 JUMPDEST DUP1 PUSH2 0x9A0 JUMPI POP DUP1 JUMPDEST PUSH2 0x9DF JUMPI PUSH1 0x40 MLOAD PUSH32 0x8C379A000000000000000000000000000000000000000000000000000000000 DUP2 MSTORE PUSH1 0x4 ADD PUSH2 0x9D6 SWAP1 PUSH2 0x5A83 JUMP JUMPDEST PUSH1 0x40 MLOAD DUP1 SWAP2 SUB SWAP1 REVERT JUMPDEST PUSH2 0x9E8 DUP7 PUSH2 0x30A3 JUMP JUMPDEST PUSH2 0xA27 JUMPI PUSH1 0x40 MLOAD PUSH32 0x8C379A000000000000000000000000000000000000000000000000000000000 DUP2 MSTORE PUSH1 0x4 ADD PUSH2 0xA1E SWAP1 PUSH2 0x5923 JUMP JUMPDEST PUSH1 0x40 MLOAD DUP1 SWAP2 SUB SWAP1 REVERT JUMPDEST PUSH2 0xA30 DUP8 PUSH2 0x30C8 JUMP JUMPDEST PUSH2 0xA6F JUMPI PUSH1 0x40 MLOAD PUSH32 0x8C379A000000000000000000000000000000000000000000000000000000000 DUP2 MSTORE PUSH1 0x4 ADD PUSH2 0xA66 SWAP1 PUSH2 0x5AC3 JUMP JUMPDEST PUSH1 0x40 MLOAD DUP1 SWAP2 SUB SWAP1 REVERT JUMPDEST DUP7 PUSH20 0xFFFFFFFFFFFFFFFFFFFFFFFFFFFFFFFFFFFFFFFF AND CALLER PUSH20 0xFFFFFFFFFFFFFFFFFFFFFFFFFFFFFFFFFFFFFFFF AND EQ ISZERO PUSH2 0xADE JUMPI PUSH1 0x40 MLOAD PUSH32 0x8C379A000000000000000000000000000000000000000000000000000000000 DUP2 MSTORE PUSH1 0x4 ADD PUSH2 0xAD5 SWAP1 PUSH2 0x5B43 JUMP JUMPDEST PUSH1 0x40 MLOAD DUP1 SWAP2 SUB SWAP1 REVERT JUMPDEST PUSH2 0xB20 CALLER DUP9 DUP9 DUP9 PUSH1 0x40 MLOAD DUP1 PUSH1 0x40 ADD PUSH1 0x40 MSTORE DUP1 PUSH1 0x4 DUP2 MSTORE PUSH1 0x20 ADD PUSH32 0x3078303000000000000000000000000000000000000000000000000000000000 DUP2 MSTORE POP PUSH2 0x271C JUMP JUMPDEST POP POP POP POP POP POP POP JUMP JUMPDEST PUSH1 0x60 PUSH1 0x3 DUP1 SLOAD PUSH1 0x1 DUP2 PUSH1 0x1 AND ISZERO PUSH2 0x100 MUL SUB AND PUSH1 0x2 SWAP1 DIV DUP1 PUSH1 0x1F ADD PUSH1 0x20 DUP1 SWAP2 DIV MUL PUSH1 0x20 ADD PUSH1 0x40 MLOAD SWAP1 DUP2 ADD PUSH1 0x40 MSTORE DUP1 SWAP3 SWAP2 SWAP1 DUP2 DUP2 MSTORE PUSH1 0x20 ADD DUP3 DUP1 SLOAD PUSH1 0x1 DUP2 PUSH1 0x1 AND ISZERO PUSH2 0x100 MUL SUB AND PUSH1 0x2 SWAP1 DIV DUP1 ISZERO PUSH2 0xBC1 JUMPI DUP1 PUSH1 0x1F LT PUSH2 0xB96 JUMPI PUSH2 0x100 DUP1 DUP4 SLOAD DIV MUL DUP4 MSTORE SWAP2 PUSH1 0x20 ADD SWAP2 PUSH2 0xBC1 JUMP JUMPDEST DUP3 ADD SWAP2 SWAP1 PUSH1 0x0 MSTORE PUSH1 0x20 PUSH1 0x0 KECCAK256 SWAP1 JUMPDEST DUP2 SLOAD DUP2 MSTORE SWAP1 PUSH1 0x1 ADD SWAP1 PUSH1 0x20 ADD DUP1 DUP4 GT PUSH2 0xBA4 JUMPI DUP3 SWAP1 SUB PUSH1 0x1F AND DUP3 ADD SWAP2 JUMPDEST POP POP POP POP POP SWAP1 POP SWAP2 SWAP1 POP JUMP JUMPDEST PUSH32 0xF8890EEDD7900AD88DA6192FD03DBB69DBEEE963B1A0ED738ABE49AB3331AAF3 DUP2 JUMP JUMPDEST PUSH32 0xEDE6574DEBA8F02ADA7888448A497B08844D62E044ED533343A673BE3FFCDE5F DUP2 JUMP JUMPDEST PUSH1 0x0 PUSH1 0x4 PUSH1 0x0 DUP4 DUP2 MSTORE PUSH1 0x20 ADD SWAP1 DUP2 MSTORE PUSH1 0x20 ADD PUSH1 0x0 KECCAK256 PUSH1 0x2 ADD SLOAD SWAP1 POP SWAP2 SWAP1 POP JUMP JUMPDEST PUSH1 0x0 PUSH2 0xC61 PUSH32 0x5E1AA547D3DADE8C68B013A47AD41C2BCC9B9E4B0765B0FB616780E15786E76A CALLER PUSH2 0x1D09 JUMP JUMPDEST SWAP1 POP PUSH1 0x0 PUSH2 0xC8F PUSH32 0x2AB9F1DA92E74AAA01EB75A871557505B11DD8D36832A34BB21BBEE88B08D860 CALLER PUSH2 0x1D09 JUMP JUMPDEST SWAP1 POP PUSH1 0x0 PUSH2 0xCBD PUSH32 0xEDE6574DEBA8F02ADA7888448A497B08844D62E044ED533343A673BE3FFCDE5F CALLER PUSH2 0x1D09 JUMP JUMPDEST SWAP1 POP PUSH1 0x0 PUSH2 0xCEB PUSH32 0xE97DAD3DBE5042E7384B1572CF966A15E089576A62B5126C5EF1D184AB18B12C CALLER PUSH2 0x1D09 JUMP JUMPDEST SWAP1 POP DUP4 DUP1 PUSH2 0xCF6 JUMPI POP DUP3 JUMPDEST DUP1 PUSH2 0xCFE JUMPI POP DUP2 JUMPDEST DUP1 PUSH2 0xD06 JUMPI POP DUP1 JUMPDEST PUSH2 0xD45 JUMPI PUSH1 0x40 MLOAD PUSH32 0x8C379A000000000000000000000000000000000000000000000000000000000 DUP2 MSTORE PUSH1 0x4 ADD PUSH2 0xD3C SWAP1 PUSH2 0x5A83 JUMP JUMPDEST PUSH1 0x40 MLOAD DUP1 SWAP2 SUB SWAP1 REVERT JUMPDEST PUSH2 0xD4E DUP7 PUSH2 0x30A3 JUMP JUMPDEST PUSH2 0xD8D JUMPI PUSH1 0x40 MLOAD PUSH32 0x8C379A000000000000000000000000000000000000000000000000000000000 DUP2 MSTORE PUSH1 0x4 ADD PUSH2 0xD84 SWAP1 PUSH2 0x5923 JUMP JUMPDEST PUSH1 0x40 MLOAD DUP1 SWAP2 SUB SWAP1 REVERT JUMPDEST PUSH2 0xD97 CALLER DUP8 PUSH2 0x79E JUMP JUMPDEST DUP6 GT ISZERO PUSH2 0xDD9 JUMPI PUSH1 0x40 MLOAD PUSH32 0x8C379A000000000000000000000000000000000000000000000000000000000 DUP2 MSTORE PUSH1 0x4 ADD PUSH2 0xDD0 SWAP1 PUSH2 0x5883 JUMP JUMPDEST PUSH1 0x40 MLOAD DUP1 SWAP2 SUB SWAP1 REVERT JUMPDEST PUSH2 0xDE4 CALLER DUP8 DUP8 PUSH2 0x30EA JUMP JUMPDEST PUSH2 0xE47 DUP6 PUSH1 0x6 PUSH1 0x0 DUP10 DUP2 MSTORE PUSH1 0x20 ADD SWAP1 DUP2 MSTORE PUSH1 0x20 ADD PUSH1 0x0 KECCAK256 PUSH1 0x0 CALLER PUSH20 0xFFFFFFFFFFFFFFFFFFFFFFFFFFFFFFFFFFFFFFFF AND PUSH20 0xFFFFFFFFFFFFFFFFFFFFFFFFFFFFFFFFFFFFFFFF AND DUP2 MSTORE PUSH1 0x20 ADD SWAP1 DUP2 MSTORE PUSH1 0x20 ADD PUSH1 0x0 KECCAK256 SLOAD PUSH2 0x32EA SWAP1 SWAP2 SWAP1 PUSH4 0xFFFFFFFF AND JUMP JUMPDEST PUSH1 0x6 PUSH1 0x0 DUP9 DUP2 MSTORE PUSH1 0x20 ADD SWAP1 DUP2 MSTORE PUSH1 0x20 ADD PUSH1 0x0 KECCAK256 PUSH1 0x0 CALLER PUSH20 0xFFFFFFFFFFFFFFFFFFFFFFFFFFFFFFFFFFFFFFFF AND PUSH20 0xFFFFFFFFFFFFFFFFFFFFFFFFFFFFFFFFFFFFFFFF AND DUP2 MSTORE PUSH1 0x20 ADD SWAP1 DUP2 MSTORE PUSH1 0x20 ADD PUSH1 0x0 KECCAK256 DUP2 SWAP1 SSTORE POP CALLER PUSH20 0xFFFFFFFFFFFFFFFFFFFFFFFFFFFFFFFFFFFFFFFF AND PUSH32 0x8F1B5EBB586D3D169E4ED07DB9CD10CE0DD30C7B656171310EAE7517C0B53CF9 DUP8 DUP8 PUSH1 0x40 MLOAD PUSH2 0xEE3 SWAP3 SWAP2 SWAP1 PUSH2 0x5C3E JUMP JUMPDEST PUSH1 0x40 MLOAD DUP1 SWAP2 SUB SWAP1 LOG2 POP POP POP POP POP POP JUMP JUMPDEST DUP2 MLOAD DUP4 MLOAD EQ PUSH2 0xF37 JUMPI PUSH1 0x40 MLOAD PUSH32 0x8C379A000000000000000000000000000000000000000000000000000000000 DUP2 MSTORE PUSH1 0x4 ADD PUSH2 0xF2E SWAP1 PUSH2 0x5B63 JUMP JUMPDEST PUSH1 0x40 MLOAD DUP1 SWAP2 SUB SWAP1 REVERT JUMPDEST PUSH1 0x0 PUSH20 0xFFFFFFFFFFFFFFFFFFFFFFFFFFFFFFFFFFFFFFFF AND DUP5 PUSH20 0xFFFFFFFFFFFFFFFFFFFFFFFFFFFFFFFFFFFFFFFF AND EQ ISZERO PUSH2 0xFA7 JUMPI PUSH1 0x40 MLOAD PUSH32 0x8C379A000000000000000000000000000000000000000000000000000000000 DUP2 MSTORE PUSH1 0x4 ADD PUSH2 0xF9E SWAP1 PUSH2 0x59A3 JUMP JUMPDEST PUSH1 0x40 MLOAD DUP1 SWAP2 SUB SWAP1 REVERT JUMPDEST PUSH2 0xFAF PUSH2 0x333F JUMP JUMPDEST PUSH20 0xFFFFFFFFFFFFFFFFFFFFFFFFFFFFFFFFFFFFFFFF AND DUP6 PUSH20 0xFFFFFFFFFFFFFFFFFFFFFFFFFFFFFFFFFFFFFFFF AND EQ DUP1 PUSH2 0xFF5 JUMPI POP PUSH2 0xFF4 DUP6 PUSH2 0xFEF PUSH2 0x333F JUMP JUMPDEST PUSH2 0x2688 JUMP JUMPDEST JUMPDEST PUSH2 0x1034 JUMPI PUSH1 0x40 MLOAD PUSH32 0x8C379A000000000000000000000000000000000000000000000000000000000 DUP2 MSTORE PUSH1 0x4 ADD PUSH2 0x102B SWAP1 PUSH2 0x59C3 JUMP JUMPDEST PUSH1 0x40 MLOAD DUP1 SWAP2 SUB SWAP1 REVERT JUMPDEST PUSH1 0x0 PUSH2 0x103E PUSH2 0x333F JUMP JUMPDEST SWAP1 POP PUSH2 0x104E DUP2 DUP8 DUP8 DUP8 DUP8 DUP8 PUSH2 0x3347 JUMP JUMPDEST PUSH1 0x0 JUMPDEST DUP5 MLOAD DUP2 LT ISZERO PUSH2 0x121F JUMPI PUSH1 0x0 DUP6 DUP3 DUP2 MLOAD DUP2 LT PUSH2 0x1068 JUMPI INVALID JUMPDEST PUSH1 0x20 MUL PUSH1 0x20 ADD ADD MLOAD SWAP1 POP PUSH1 0x0 DUP6 DUP4 DUP2 MLOAD DUP2 LT PUSH2 0x1080 JUMPI INVALID JUMPDEST PUSH1 0x20 MUL PUSH1 0x20 ADD ADD MLOAD SWAP1 POP PUSH2 0x1107 DUP2 PUSH1 0x40 MLOAD DUP1 PUSH1 0x60 ADD PUSH1 0x40 MSTORE DUP1 PUSH1 0x2A DUP2 MSTORE PUSH1 0x20 ADD PUSH2 0x60DC PUSH1 0x2A SWAP2 CODECOPY PUSH1 0x1 PUSH1 0x0 DUP7 DUP2 MSTORE PUSH1 0x20 ADD SWAP1 DUP2 MSTORE PUSH1 0x20 ADD PUSH1 0x0 KECCAK256 PUSH1 0x0 DUP14 PUSH20 0xFFFFFFFFFFFFFFFFFFFFFFFFFFFFFFFFFFFFFFFF AND PUSH20 0xFFFFFFFFFFFFFFFFFFFFFFFFFFFFFFFFFFFFFFFF AND DUP2 MSTORE PUSH1 0x20 ADD SWAP1 DUP2 MSTORE PUSH1 0x20 ADD PUSH1 0x0 KECCAK256 SLOAD PUSH2 0x334F SWAP1 SWAP3 SWAP2 SWAP1 PUSH4 0xFFFFFFFF AND JUMP JUMPDEST PUSH1 0x1 PUSH1 0x0 DUP5 DUP2 MSTORE PUSH1 0x20 ADD SWAP1 DUP2 MSTORE PUSH1 0x20 ADD PUSH1 0x0 KECCAK256 PUSH1 0x0 DUP12 PUSH20 0xFFFFFFFFFFFFFFFFFFFFFFFFFFFFFFFFFFFFFFFF AND PUSH20 0xFFFFFFFFFFFFFFFFFFFFFFFFFFFFFFFFFFFFFFFF AND DUP2 MSTORE PUSH1 0x20 ADD SWAP1 DUP2 MSTORE PUSH1 0x20 ADD PUSH1 0x0 KECCAK256 DUP2 SWAP1 SSTORE POP PUSH2 0x11BE DUP2 PUSH1 0x1 PUSH1 0x0 DUP6 DUP2 MSTORE PUSH1 0x20 ADD SWAP1 DUP2 MSTORE PUSH1 0x20 ADD PUSH1 0x0 KECCAK256 PUSH1 0x0 DUP12 PUSH20 0xFFFFFFFFFFFFFFFFFFFFFFFFFFFFFFFFFFFFFFFF AND PUSH20 0xFFFFFFFFFFFFFFFFFFFFFFFFFFFFFFFFFFFFFFFF AND DUP2 MSTORE PUSH1 0x20 ADD SWAP1 DUP2 MSTORE PUSH1 0x20 ADD PUSH1 0x0 KECCAK256 SLOAD PUSH2 0x32EA SWAP1 SWAP2 SWAP1 PUSH4 0xFFFFFFFF AND JUMP JUMPDEST PUSH1 0x1 PUSH1 0x0 DUP5 DUP2 MSTORE PUSH1 0x20 ADD SWAP1 DUP2 MSTORE PUSH1 0x20 ADD PUSH1 0x0 KECCAK256 PUSH1 0x0 DUP11 PUSH20 0xFFFFFFFFFFFFFFFFFFFFFFFFFFFFFFFFFFFFFFFF AND PUSH20 0xFFFFFFFFFFFFFFFFFFFFFFFFFFFFFFFFFFFFFFFF AND DUP2 MSTORE PUSH1 0x20 ADD SWAP1 DUP2 MSTORE PUSH1 0x20 ADD PUSH1 0x0 KECCAK256 DUP2 SWAP1 SSTORE POP POP POP DUP1 PUSH1 0x1 ADD SWAP1 POP PUSH2 0x1051 JUMP JUMPDEST POP DUP5 PUSH20 0xFFFFFFFFFFFFFFFFFFFFFFFFFFFFFFFFFFFFFFFF AND DUP7 PUSH20 0xFFFFFFFFFFFFFFFFFFFFFFFFFFFFFFFFFFFFFFFF AND DUP3 PUSH20 0xFFFFFFFFFFFFFFFFFFFFFFFFFFFFFFFFFFFFFFFF AND PUSH32 0x4A39DC06D4C0DBC64B70AF90FD698A233A518AA5D07E595D983B8C0526C8F7FB DUP8 DUP8 PUSH1 0x40 MLOAD PUSH2 0x1296 SWAP3 SWAP2 SWAP1 PUSH2 0x5741 JUMP JUMPDEST PUSH1 0x40 MLOAD DUP1 SWAP2 SUB SWAP1 LOG4 PUSH2 0x12AC DUP2 DUP8 DUP8 DUP8 DUP8 DUP8 PUSH2 0x33AA JUMP JUMPDEST POP POP POP POP POP POP JUMP JUMPDEST PUSH2 0x12DB PUSH1 0x4 PUSH1 0x0 DUP5 DUP2 MSTORE PUSH1 0x20 ADD SWAP1 DUP2 MSTORE PUSH1 0x20 ADD PUSH1 0x0 KECCAK256 PUSH1 0x2 ADD SLOAD PUSH2 0x12D6 PUSH2 0x333F JUMP JUMPDEST PUSH2 0x1D09 JUMP JUMPDEST PUSH2 0x131A JUMPI PUSH1 0x40 MLOAD PUSH32 0x8C379A000000000000000000000000000000000000000000000000000000000 DUP2 MSTORE PUSH1 0x4 ADD PUSH2 0x1311 SWAP1 PUSH2 0x58A3 JUMP JUMPDEST PUSH1 0x40 MLOAD DUP1 SWAP2 SUB SWAP1 REVERT JUMPDEST PUSH2 0x1324 DUP3 DUP3 PUSH2 0x357A JUMP JUMPDEST POP POP JUMP JUMPDEST PUSH2 0x1335 PUSH1 0x0 DUP1 SHL CALLER PUSH2 0x1D09 JUMP JUMPDEST PUSH2 0x1374 JUMPI PUSH1 0x40 MLOAD PUSH32 0x8C379A000000000000000000000000000000000000000000000000000000000 DUP2 MSTORE PUSH1 0x4 ADD PUSH2 0x136B SWAP1 PUSH2 0x5963 JUMP JUMPDEST PUSH1 0x40 MLOAD DUP1 SWAP2 SUB SWAP1 REVERT JUMPDEST PUSH2 0x137D DUP2 PUSH2 0x360E JUMP JUMPDEST PUSH2 0x13BC JUMPI PUSH1 0x40 MLOAD PUSH32 0x8C379A000000000000000000000000000000000000000000000000000000000 DUP2 MSTORE PUSH1 0x4 ADD PUSH2 0x13B3 SWAP1 PUSH2 0x5AA3 JUMP JUMPDEST PUSH1 0x40 MLOAD DUP1 SWAP2 SUB SWAP1 REVERT JUMPDEST PUSH1 0x1 DUP2 PUSH1 0xFF AND EQ ISZERO PUSH2 0x13F7 JUMPI PUSH2 0x13F2 PUSH32 0x2AB9F1DA92E74AAA01EB75A871557505B11DD8D36832A34BB21BBEE88B08D860 DUP4 PUSH2 0x12B4 JUMP JUMPDEST PUSH2 0x145E JUMP JUMPDEST PUSH1 0x2 DUP2 PUSH1 0xFF AND EQ ISZERO PUSH2 0x1432 JUMPI PUSH2 0x142D PUSH32 0xEDE6574DEBA8F02ADA7888448A497B08844D62E044ED533343A673BE3FFCDE5F DUP4 PUSH2 0x12B4 JUMP JUMPDEST PUSH2 0x145D JUMP JUMPDEST PUSH2 0x145C PUSH32 0xE97DAD3DBE5042E7384B1572CF966A15E089576A62B5126C5EF1D184AB18B12C DUP4 PUSH2 0x12B4 JUMP JUMPDEST JUMPDEST JUMPDEST PUSH2 0x1488 PUSH32 0xF8890EEDD7900AD88DA6192FD03DBB69DBEEE963B1A0ED738ABE49AB3331AAF3 DUP4 PUSH2 0x12B4 JUMP JUMPDEST DUP2 PUSH20 0xFFFFFFFFFFFFFFFFFFFFFFFFFFFFFFFFFFFFFFFF AND PUSH32 0xA8377DEEE15954185683D55EFFD369508B4935978C8CB2BAB790BF04C5701814 PUSH1 0x40 MLOAD PUSH1 0x40 MLOAD DUP1 SWAP2 SUB SWAP1 LOG2 POP POP JUMP JUMPDEST PUSH1 0x0 PUSH2 0x14FB PUSH32 0x5E1AA547D3DADE8C68B013A47AD41C2BCC9B9E4B0765B0FB616780E15786E76A DUP4 PUSH2 0x1D09 JUMP JUMPDEST SWAP1 POP SWAP2 SWAP1 POP JUMP JUMPDEST PUSH2 0x150A PUSH2 0x333F JUMP JUMPDEST PUSH20 0xFFFFFFFFFFFFFFFFFFFFFFFFFFFFFFFFFFFFFFFF AND DUP2 PUSH20 0xFFFFFFFFFFFFFFFFFFFFFFFFFFFFFFFFFFFFFFFF AND EQ PUSH2 0x1577 JUMPI PUSH1 0x40 MLOAD PUSH32 0x8C379A000000000000000000000000000000000000000000000000000000000 DUP2 MSTORE PUSH1 0x4 ADD PUSH2 0x156E SWAP1 PUSH2 0x5BA3 JUMP JUMPDEST PUSH1 0x40 MLOAD DUP1 SWAP2 SUB SWAP1 REVERT JUMPDEST PUSH2 0x1581 DUP3 DUP3 PUSH2 0x3642 JUMP JUMPDEST POP POP JUMP JUMPDEST PUSH1 0x0 PUSH2 0x15B1 PUSH32 0x2AB9F1DA92E74AAA01EB75A871557505B11DD8D36832A34BB21BBEE88B08D860 CALLER PUSH2 0x1D09 JUMP JUMPDEST SWAP1 POP PUSH1 0x0 PUSH2 0x15DF PUSH32 0xEDE6574DEBA8F02ADA7888448A497B08844D62E044ED533343A673BE3FFCDE5F CALLER PUSH2 0x1D09 JUMP JUMPDEST SWAP1 POP PUSH1 0x0 PUSH2 0x160D PUSH32 0xE97DAD3DBE5042E7384B1572CF966A15E089576A62B5126C5EF1D184AB18B12C CALLER PUSH2 0x1D09 JUMP JUMPDEST SWAP1 POP DUP3 DUP1 PUSH2 0x1618 JUMPI POP DUP2 JUMPDEST DUP1 PUSH2 0x1620 JUMPI POP DUP1 JUMPDEST PUSH2 0x165F JUMPI PUSH1 0x40 MLOAD PUSH32 0x8C379A000000000000000000000000000000000000000000000000000000000 DUP2 MSTORE PUSH1 0x4 ADD PUSH2 0x1656 SWAP1 PUSH2 0x5A23 JUMP JUMPDEST PUSH1 0x40 MLOAD DUP1 SWAP2 SUB SWAP1 REVERT JUMPDEST PUSH2 0x1689 PUSH32 0x5E1AA547D3DADE8C68B013A47AD41C2BCC9B9E4B0765B0FB616780E15786E76A DUP6 PUSH2 0x12B4 JUMP JUMPDEST DUP4 PUSH20 0xFFFFFFFFFFFFFFFFFFFFFFFFFFFFFFFFFFFFFFFF AND PUSH32 0x69A0ADEE259D26FE61F4776F7BEA7F3A9737C7321256821B985F988545EFD319 PUSH1 0x40 MLOAD PUSH1 0x40 MLOAD DUP1 SWAP2 SUB SWAP1 LOG2 POP POP POP POP JUMP JUMPDEST PUSH1 0x60 DUP2 MLOAD DUP4 MLOAD EQ PUSH2 0x1718 JUMPI PUSH1 0x40 MLOAD PUSH32 0x8C379A000000000000000000000000000000000000000000000000000000000 DUP2 MSTORE PUSH1 0x4 ADD PUSH2 0x170F SWAP1 PUSH2 0x5B23 JUMP JUMPDEST PUSH1 0x40 MLOAD DUP1 SWAP2 SUB SWAP1 REVERT JUMPDEST PUSH1 0x60 DUP4 MLOAD PUSH8 0xFFFFFFFFFFFFFFFF DUP2 GT DUP1 ISZERO PUSH2 0x1732 JUMPI PUSH1 0x0 DUP1 REVERT JUMPDEST POP PUSH1 0x40 MLOAD SWAP1 DUP1 DUP3 MSTORE DUP1 PUSH1 0x20 MUL PUSH1 0x20 ADD DUP3 ADD PUSH1 0x40 MSTORE DUP1 ISZERO PUSH2 0x1761 JUMPI DUP2 PUSH1 0x20 ADD PUSH1 0x20 DUP3 MUL DUP1 CALLDATASIZE DUP4 CALLDATACOPY DUP1 DUP3 ADD SWAP2 POP POP SWAP1 POP JUMPDEST POP SWAP1 POP PUSH1 0x0 JUMPDEST DUP5 MLOAD DUP2 LT ISZERO PUSH2 0x188D JUMPI PUSH1 0x0 PUSH20 0xFFFFFFFFFFFFFFFFFFFFFFFFFFFFFFFFFFFFFFFF AND DUP6 DUP3 DUP2 MLOAD DUP2 LT PUSH2 0x1794 JUMPI INVALID JUMPDEST PUSH1 0x20 MUL PUSH1 0x20 ADD ADD MLOAD PUSH20 0xFFFFFFFFFFFFFFFFFFFFFFFFFFFFFFFFFFFFFFFF AND EQ ISZERO PUSH2 0x17F3 JUMPI PUSH1 0x40 MLOAD PUSH32 0x8C379A000000000000000000000000000000000000000000000000000000000 DUP2 MSTORE PUSH1 0x4 ADD PUSH2 0x17EA SWAP1 PUSH2 0x58E3 JUMP JUMPDEST PUSH1 0x40 MLOAD DUP1 SWAP2 SUB SWAP1 REVERT JUMPDEST PUSH1 0x1 PUSH1 0x0 DUP6 DUP4 DUP2 MLOAD DUP2 LT PUSH2 0x1803 JUMPI INVALID JUMPDEST PUSH1 0x20 MUL PUSH1 0x20 ADD ADD MLOAD DUP2 MSTORE PUSH1 0x20 ADD SWAP1 DUP2 MSTORE PUSH1 0x20 ADD PUSH1 0x0 KECCAK256 PUSH1 0x0 DUP7 DUP4 DUP2 MLOAD DUP2 LT PUSH2 0x1827 JUMPI INVALID JUMPDEST PUSH1 0x20 MUL PUSH1 0x20 ADD ADD MLOAD PUSH20 0xFFFFFFFFFFFFFFFFFFFFFFFFFFFFFFFFFFFFFFFF AND PUSH20 0xFFFFFFFFFFFFFFFFFFFFFFFFFFFFFFFFFFFFFFFF AND DUP2 MSTORE PUSH1 0x20 ADD SWAP1 DUP2 MSTORE PUSH1 0x20 ADD PUSH1 0x0 KECCAK256 SLOAD DUP3 DUP3 DUP2 MLOAD DUP2 LT PUSH2 0x1876 JUMPI INVALID JUMPDEST PUSH1 0x20 MUL PUSH1 0x20 ADD ADD DUP2 DUP2 MSTORE POP POP DUP1 PUSH1 0x1 ADD SWAP1 POP PUSH2 0x1767 JUMP JUMPDEST POP DUP1 SWAP2 POP POP SWAP3 SWAP2 POP POP JUMP JUMPDEST PUSH1 0x0 PUSH2 0x18C4 PUSH32 0x2AB9F1DA92E74AAA01EB75A871557505B11DD8D36832A34BB21BBEE88B08D860 CALLER PUSH2 0x1D09 JUMP JUMPDEST SWAP1 POP PUSH1 0x0 PUSH2 0x18F2 PUSH32 0xEDE6574DEBA8F02ADA7888448A497B08844D62E044ED533343A673BE3FFCDE5F CALLER PUSH2 0x1D09 JUMP JUMPDEST SWAP1 POP PUSH1 0x0 PUSH2 0x1920 PUSH32 0xE97DAD3DBE5042E7384B1572CF966A15E089576A62B5126C5EF1D184AB18B12C CALLER PUSH2 0x1D09 JUMP JUMPDEST SWAP1 POP DUP3 DUP1 PUSH2 0x192B JUMPI POP DUP2 JUMPDEST DUP1 PUSH2 0x1933 JUMPI POP DUP1 JUMPDEST PUSH2 0x1972 JUMPI PUSH1 0x40 MLOAD PUSH32 0x8C379A000000000000000000000000000000000000000000000000000000000 DUP2 MSTORE PUSH1 0x4 ADD PUSH2 0x1969 SWAP1 PUSH2 0x5A23 JUMP JUMPDEST PUSH1 0x40 MLOAD DUP1 SWAP2 SUB SWAP1 REVERT JUMPDEST PUSH2 0x199C PUSH32 0x5E1AA547D3DADE8C68B013A47AD41C2BCC9B9E4B0765B0FB616780E15786E76A DUP6 PUSH2 0x245F JUMP JUMPDEST DUP4 PUSH20 0xFFFFFFFFFFFFFFFFFFFFFFFFFFFFFFFFFFFFFFFF AND PUSH32 0x3A38088DA75EE2D80F6C753F55F8FD17602AE17D8BD0EF44D5E1F28AB5AF11F PUSH1 0x40 MLOAD PUSH1 0x40 MLOAD DUP1 SWAP2 SUB SWAP1 LOG2 POP POP POP POP JUMP JUMPDEST PUSH1 0x0 PUSH2 0x19F1 PUSH1 0x7 PUSH2 0x36D6 JUMP JUMPDEST SWAP1 POP SWAP1 JUMP JUMPDEST PUSH1 0x0 DUP1 PUSH2 0x1A23 PUSH32 0x2AB9F1DA92E74AAA01EB75A871557505B11DD8D36832A34BB21BBEE88B08D860 DUP5 PUSH2 0x1D09 JUMP JUMPDEST SWAP1 POP PUSH1 0x0 PUSH2 0x1A51 PUSH32 0xEDE6574DEBA8F02ADA7888448A497B08844D62E044ED533343A673BE3FFCDE5F DUP6 PUSH2 0x1D09 JUMP JUMPDEST SWAP1 POP PUSH1 0x0 PUSH2 0x1A7F PUSH32 0xE97DAD3DBE5042E7384B1572CF966A15E089576A62B5126C5EF1D184AB18B12C DUP7 PUSH2 0x1D09 JUMP JUMPDEST SWAP1 POP DUP3 DUP1 PUSH2 0x1A8A JUMPI POP DUP2 JUMPDEST DUP1 PUSH2 0x1A92 JUMPI POP DUP1 JUMPDEST ISZERO PUSH2 0x1AA3 JUMPI PUSH1 0x1 SWAP4 POP POP POP POP PUSH2 0x1AAB JUMP JUMPDEST PUSH1 0x0 SWAP4 POP POP POP POP JUMPDEST SWAP2 SWAP1 POP JUMP JUMPDEST PUSH1 0x60 PUSH2 0x1ABB DUP3 PUSH2 0x30A3 JUMP JUMPDEST PUSH2 0x1AFA JUMPI PUSH1 0x40 MLOAD PUSH32 0x8C379A000000000000000000000000000000000000000000000000000000000 DUP2 MSTORE PUSH1 0x4 ADD PUSH2 0x1AF1 SWAP1 PUSH2 0x5923 JUMP JUMPDEST PUSH1 0x40 MLOAD DUP1 SWAP2 SUB SWAP1 REVERT JUMPDEST PUSH1 0x60 PUSH1 0x8 PUSH1 0x1 PUSH1 0x5 PUSH1 0x0 DUP7 DUP2 MSTORE PUSH1 0x20 ADD SWAP1 DUP2 MSTORE PUSH1 0x20 ADD PUSH1 0x0 KECCAK256 PUSH1 0x1 ADD PUSH1 0x0 SWAP1 SLOAD SWAP1 PUSH2 0x100 EXP SWAP1 DIV PUSH1 0xFF AND SUB PUSH1 0xFF AND DUP2 SLOAD DUP2 LT PUSH2 0x1B32 JUMPI INVALID JUMPDEST SWAP1 PUSH1 0x0 MSTORE PUSH1 0x20 PUSH1 0x0 KECCAK256 ADD DUP1 SLOAD PUSH1 0x1 DUP2 PUSH1 0x1 AND ISZERO PUSH2 0x100 MUL SUB AND PUSH1 0x2 SWAP1 DIV DUP1 PUSH1 0x1F ADD PUSH1 0x20 DUP1 SWAP2 DIV MUL PUSH1 0x20 ADD PUSH1 0x40 MLOAD SWAP1 DUP2 ADD PUSH1 0x40 MSTORE DUP1 SWAP3 SWAP2 SWAP1 DUP2 DUP2 MSTORE PUSH1 0x20 ADD DUP3 DUP1 SLOAD PUSH1 0x1 DUP2 PUSH1 0x1 AND ISZERO PUSH2 0x100 MUL SUB AND PUSH1 0x2 SWAP1 DIV DUP1 ISZERO PUSH2 0x1BD0 JUMPI DUP1 PUSH1 0x1F LT PUSH2 0x1BA5 JUMPI PUSH2 0x100 DUP1 DUP4 SLOAD DIV MUL DUP4 MSTORE SWAP2 PUSH1 0x20 ADD SWAP2 PUSH2 0x1BD0 JUMP JUMPDEST DUP3 ADD SWAP2 SWAP1 PUSH1 0x0 MSTORE PUSH1 0x20 PUSH1 0x0 KECCAK256 SWAP1 JUMPDEST DUP2 SLOAD DUP2 MSTORE SWAP1 PUSH1 0x1 ADD SWAP1 PUSH1 0x20 ADD DUP1 DUP4 GT PUSH2 0x1BB3 JUMPI DUP3 SWAP1 SUB PUSH1 0x1F AND DUP3 ADD SWAP2 JUMPDEST POP POP POP POP POP SWAP1 POP DUP1 SWAP2 POP POP SWAP2 SWAP1 POP JUMP JUMPDEST PUSH32 0xE97DAD3DBE5042E7384B1572CF966A15E089576A62B5126C5EF1D184AB18B12C DUP2 JUMP JUMPDEST PUSH32 0x5E1AA547D3DADE8C68B013A47AD41C2BCC9B9E4B0765B0FB616780E15786E76A DUP2 JUMP JUMPDEST PUSH1 0x0 DUP1 PUSH1 0x0 PUSH2 0x1C37 DUP6 DUP6 PUSH2 0x79E JUMP JUMPDEST SWAP1 POP PUSH1 0x0 ADDRESS PUSH20 0xFFFFFFFFFFFFFFFFFFFFFFFFFFFFFFFFFFFFFFFF AND PUSH4 0xA0D975A7 DUP8 DUP8 PUSH1 0x40 MLOAD DUP4 PUSH4 0xFFFFFFFF AND PUSH1 0xE0 SHL DUP2 MSTORE PUSH1 0x4 ADD PUSH2 0x1C76 SWAP3 SWAP2 SWAP1 PUSH2 0x56F6 JUMP JUMPDEST PUSH1 0x20 PUSH1 0x40 MLOAD DUP1 DUP4 SUB DUP2 DUP7 DUP1 EXTCODESIZE ISZERO DUP1 ISZERO PUSH2 0x1C8E JUMPI PUSH1 0x0 DUP1 REVERT JUMPDEST POP GAS STATICCALL ISZERO DUP1 ISZERO PUSH2 0x1CA2 JUMPI RETURNDATASIZE PUSH1 0x0 DUP1 RETURNDATACOPY RETURNDATASIZE PUSH1 0x0 REVERT JUMPDEST POP POP POP POP PUSH1 0x40 MLOAD RETURNDATASIZE PUSH1 0x1F NOT PUSH1 0x1F DUP3 ADD AND DUP3 ADD DUP1 PUSH1 0x40 MSTORE POP DUP2 ADD SWAP1 PUSH2 0x1CC6 SWAP2 SWAP1 PUSH2 0x4684 JUMP JUMPDEST SWAP1 POP DUP2 DUP2 SWAP4 POP SWAP4 POP POP POP SWAP3 POP SWAP3 SWAP1 POP JUMP JUMPDEST PUSH1 0x0 PUSH2 0x1D01 DUP3 PUSH1 0x4 PUSH1 0x0 DUP7 DUP2 MSTORE PUSH1 0x20 ADD SWAP1 DUP2 MSTORE PUSH1 0x20 ADD PUSH1 0x0 KECCAK256 PUSH1 0x0 ADD PUSH2 0x36E4 SWAP1 SWAP2 SWAP1 PUSH4 0xFFFFFFFF AND JUMP JUMPDEST SWAP1 POP SWAP3 SWAP2 POP POP JUMP JUMPDEST PUSH1 0x0 PUSH2 0x1D33 DUP3 PUSH1 0x4 PUSH1 0x0 DUP7 DUP2 MSTORE PUSH1 0x20 ADD SWAP1 DUP2 MSTORE PUSH1 0x20 ADD PUSH1 0x0 KECCAK256 PUSH1 0x0 ADD PUSH2 0x36FE SWAP1 SWAP2 SWAP1 PUSH4 0xFFFFFFFF AND JUMP JUMPDEST SWAP1 POP SWAP3 SWAP2 POP POP JUMP JUMPDEST PUSH1 0x0 PUSH2 0x1D46 DUP3 PUSH2 0x30A3 JUMP JUMPDEST PUSH2 0x1D85 JUMPI PUSH1 0x40 MLOAD PUSH32 0x8C379A000000000000000000000000000000000000000000000000000000000 DUP2 MSTORE PUSH1 0x4 ADD PUSH2 0x1D7C SWAP1 PUSH2 0x5923 JUMP JUMPDEST PUSH1 0x40 MLOAD DUP1 SWAP2 SUB SWAP1 REVERT JUMPDEST PUSH1 0x5 PUSH1 0x0 DUP4 DUP2 MSTORE PUSH1 0x20 ADD SWAP1 DUP2 MSTORE PUSH1 0x20 ADD PUSH1 0x0 KECCAK256 PUSH1 0x1 ADD PUSH1 0x1 SWAP1 SLOAD SWAP1 PUSH2 0x100 EXP SWAP1 DIV PUSH20 0xFFFFFFFFFFFFFFFFFFFFFFFFFFFFFFFFFFFFFFFF AND SWAP1 POP SWAP2 SWAP1 POP JUMP JUMPDEST PUSH1 0x0 PUSH2 0x1DCE DUP3 PUSH2 0x30A3 JUMP JUMPDEST PUSH2 0x1E0D JUMPI PUSH1 0x40 MLOAD PUSH32 0x8C379A000000000000000000000000000000000000000000000000000000000 DUP2 MSTORE PUSH1 0x4 ADD PUSH2 0x1E04 SWAP1 PUSH2 0x5923 JUMP JUMPDEST PUSH1 0x40 MLOAD DUP1 SWAP2 SUB SWAP1 REVERT JUMPDEST PUSH1 0x0 PUSH1 0x6 PUSH1 0x0 DUP5 DUP2 MSTORE PUSH1 0x20 ADD SWAP1 DUP2 MSTORE PUSH1 0x20 ADD PUSH1 0x0 KECCAK256 PUSH1 0x0 DUP6 PUSH20 0xFFFFFFFFFFFFFFFFFFFFFFFFFFFFFFFFFFFFFFFF AND PUSH20 0xFFFFFFFFFFFFFFFFFFFFFFFFFFFFFFFFFFFFFFFF AND DUP2 MSTORE PUSH1 0x20 ADD SWAP1 DUP2 MSTORE PUSH1 0x20 ADD PUSH1 0x0 KECCAK256 SLOAD SWAP1 POP DUP1 SWAP2 POP POP SWAP3 SWAP2 POP POP JUMP JUMPDEST PUSH1 0x0 DUP1 SHL DUP2 JUMP JUMPDEST DUP2 PUSH20 0xFFFFFFFFFFFFFFFFFFFFFFFFFFFFFFFFFFFFFFFF AND PUSH2 0x1E92 PUSH2 0x333F JUMP JUMPDEST PUSH20 0xFFFFFFFFFFFFFFFFFFFFFFFFFFFFFFFFFFFFFFFF AND EQ ISZERO PUSH2 0x1EE9 JUMPI PUSH1 0x40 MLOAD PUSH32 0x8C379A000000000000000000000000000000000000000000000000000000000 DUP2 MSTORE PUSH1 0x4 ADD PUSH2 0x1EE0 SWAP1 PUSH2 0x5B03 JUMP JUMPDEST PUSH1 0x40 MLOAD DUP1 SWAP2 SUB SWAP1 REVERT JUMPDEST DUP1 PUSH1 0x2 PUSH1 0x0 PUSH2 0x1EF6 PUSH2 0x333F JUMP JUMPDEST PUSH20 0xFFFFFFFFFFFFFFFFFFFFFFFFFFFFFFFFFFFFFFFF AND PUSH20 0xFFFFFFFFFFFFFFFFFFFFFFFFFFFFFFFFFFFFFFFF AND DUP2 MSTORE PUSH1 0x20 ADD SWAP1 DUP2 MSTORE PUSH1 0x20 ADD PUSH1 0x0 KECCAK256 PUSH1 0x0 DUP5 PUSH20 0xFFFFFFFFFFFFFFFFFFFFFFFFFFFFFFFFFFFFFFFF AND PUSH20 0xFFFFFFFFFFFFFFFFFFFFFFFFFFFFFFFFFFFFFFFF AND DUP2 MSTORE PUSH1 0x20 ADD SWAP1 DUP2 MSTORE PUSH1 0x20 ADD PUSH1 0x0 KECCAK256 PUSH1 0x0 PUSH2 0x100 EXP DUP2 SLOAD DUP2 PUSH1 0xFF MUL NOT AND SWAP1 DUP4 ISZERO ISZERO MUL OR SWAP1 SSTORE POP DUP2 PUSH20 0xFFFFFFFFFFFFFFFFFFFFFFFFFFFFFFFFFFFFFFFF AND PUSH2 0x1FA3 PUSH2 0x333F JUMP JUMPDEST PUSH20 0xFFFFFFFFFFFFFFFFFFFFFFFFFFFFFFFFFFFFFFFF AND PUSH32 0x17307EAB39AB6107E8899845AD3D59BD9653F200F220920489CA2B5937696C31 DUP4 PUSH1 0x40 MLOAD PUSH2 0x1FE8 SWAP2 SWAP1 PUSH2 0x5778 JUMP JUMPDEST PUSH1 0x40 MLOAD DUP1 SWAP2 SUB SWAP1 LOG3 POP POP JUMP JUMPDEST PUSH2 0x1FFC PUSH2 0x3DBC JUMP JUMPDEST PUSH2 0x2005 DUP3 PUSH2 0x30A3 JUMP JUMPDEST PUSH2 0x2044 JUMPI PUSH1 0x40 MLOAD PUSH32 0x8C379A000000000000000000000000000000000000000000000000000000000 DUP2 MSTORE PUSH1 0x4 ADD PUSH2 0x203B SWAP1 PUSH2 0x5923 JUMP JUMPDEST PUSH1 0x40 MLOAD DUP1 SWAP2 SUB SWAP1 REVERT JUMPDEST PUSH1 0x5 PUSH1 0x0 DUP4 DUP2 MSTORE PUSH1 0x20 ADD SWAP1 DUP2 MSTORE PUSH1 0x20 ADD PUSH1 0x0 KECCAK256 PUSH1 0x40 MLOAD DUP1 PUSH2 0x160 ADD PUSH1 0x40 MSTORE SWAP1 DUP2 PUSH1 0x0 DUP3 ADD SLOAD DUP2 MSTORE PUSH1 0x20 ADD PUSH1 0x1 DUP3 ADD PUSH1 0x0 SWAP1 SLOAD SWAP1 PUSH2 0x100 EXP SWAP1 DIV PUSH1 0xFF AND PUSH1 0xFF AND PUSH1 0xFF AND DUP2 MSTORE PUSH1 0x20 ADD PUSH1 0x1 DUP3 ADD PUSH1 0x1 SWAP1 SLOAD SWAP1 PUSH2 0x100 EXP SWAP1 DIV PUSH20 0xFFFFFFFFFFFFFFFFFFFFFFFFFFFFFFFFFFFFFFFF AND PUSH20 0xFFFFFFFFFFFFFFFFFFFFFFFFFFFFFFFFFFFFFFFF AND PUSH20 0xFFFFFFFFFFFFFFFFFFFFFFFFFFFFFFFFFFFFFFFF AND DUP2 MSTORE PUSH1 0x20 ADD PUSH1 0x2 DUP3 ADD PUSH1 0x0 SWAP1 SLOAD SWAP1 PUSH2 0x100 EXP SWAP1 DIV PUSH20 0xFFFFFFFFFFFFFFFFFFFFFFFFFFFFFFFFFFFFFFFF AND PUSH20 0xFFFFFFFFFFFFFFFFFFFFFFFFFFFFFFFFFFFFFFFF AND PUSH20 0xFFFFFFFFFFFFFFFFFFFFFFFFFFFFFFFFFFFFFFFF AND DUP2 MSTORE PUSH1 0x20 ADD PUSH1 0x3 DUP3 ADD SLOAD DUP2 MSTORE PUSH1 0x20 ADD PUSH1 0x4 DUP3 ADD SLOAD DUP2 MSTORE PUSH1 0x20 ADD PUSH1 0x5 DUP3 ADD SLOAD DUP2 MSTORE PUSH1 0x20 ADD PUSH1 0x6 DUP3 ADD SLOAD DUP2 MSTORE PUSH1 0x20 ADD PUSH1 0x7 DUP3 ADD DUP1 SLOAD PUSH1 0x1 DUP2 PUSH1 0x1 AND ISZERO PUSH2 0x100 MUL SUB AND PUSH1 0x2 SWAP1 DIV DUP1 PUSH1 0x1F ADD PUSH1 0x20 DUP1 SWAP2 DIV MUL PUSH1 0x20 ADD PUSH1 0x40 MLOAD SWAP1 DUP2 ADD PUSH1 0x40 MSTORE DUP1 SWAP3 SWAP2 SWAP1 DUP2 DUP2 MSTORE PUSH1 0x20 ADD DUP3 DUP1 SLOAD PUSH1 0x1 DUP2 PUSH1 0x1 AND ISZERO PUSH2 0x100 MUL SUB AND PUSH1 0x2 SWAP1 DIV DUP1 ISZERO PUSH2 0x21F7 JUMPI DUP1 PUSH1 0x1F LT PUSH2 0x21CC JUMPI PUSH2 0x100 DUP1 DUP4 SLOAD DIV MUL DUP4 MSTORE SWAP2 PUSH1 0x20 ADD SWAP2 PUSH2 0x21F7 JUMP JUMPDEST DUP3 ADD SWAP2 SWAP1 PUSH1 0x0 MSTORE PUSH1 0x20 PUSH1 0x0 KECCAK256 SWAP1 JUMPDEST DUP2 SLOAD DUP2 MSTORE SWAP1 PUSH1 0x1 ADD SWAP1 PUSH1 0x20 ADD DUP1 DUP4 GT PUSH2 0x21DA JUMPI DUP3 SWAP1 SUB PUSH1 0x1F AND DUP3 ADD SWAP2 JUMPDEST POP POP POP POP POP DUP2 MSTORE PUSH1 0x20 ADD PUSH1 0x8 DUP3 ADD DUP1 SLOAD PUSH1 0x1 DUP2 PUSH1 0x1 AND ISZERO PUSH2 0x100 MUL SUB AND PUSH1 0x2 SWAP1 DIV DUP1 PUSH1 0x1F ADD PUSH1 0x20 DUP1 SWAP2 DIV MUL PUSH1 0x20 ADD PUSH1 0x40 MLOAD SWAP1 DUP2 ADD PUSH1 0x40 MSTORE DUP1 SWAP3 SWAP2 SWAP1 DUP2 DUP2 MSTORE PUSH1 0x20 ADD DUP3 DUP1 SLOAD PUSH1 0x1 DUP2 PUSH1 0x1 AND ISZERO PUSH2 0x100 MUL SUB AND PUSH1 0x2 SWAP1 DIV DUP1 ISZERO PUSH2 0x2299 JUMPI DUP1 PUSH1 0x1F LT PUSH2 0x226E JUMPI PUSH2 0x100 DUP1 DUP4 SLOAD DIV MUL DUP4 MSTORE SWAP2 PUSH1 0x20 ADD SWAP2 PUSH2 0x2299 JUMP JUMPDEST DUP3 ADD SWAP2 SWAP1 PUSH1 0x0 MSTORE PUSH1 0x20 PUSH1 0x0 KECCAK256 SWAP1 JUMPDEST DUP2 SLOAD DUP2 MSTORE SWAP1 PUSH1 0x1 ADD SWAP1 PUSH1 0x20 ADD DUP1 DUP4 GT PUSH2 0x227C JUMPI DUP3 SWAP1 SUB PUSH1 0x1F AND DUP3 ADD SWAP2 JUMPDEST POP POP POP POP POP DUP2 MSTORE PUSH1 0x20 ADD PUSH1 0x9 DUP3 ADD DUP1 SLOAD PUSH1 0x1 DUP2 PUSH1 0x1 AND ISZERO PUSH2 0x100 MUL SUB AND PUSH1 0x2 SWAP1 DIV DUP1 PUSH1 0x1F ADD PUSH1 0x20 DUP1 SWAP2 DIV MUL PUSH1 0x20 ADD PUSH1 0x40 MLOAD SWAP1 DUP2 ADD PUSH1 0x40 MSTORE DUP1 SWAP3 SWAP2 SWAP1 DUP2 DUP2 MSTORE PUSH1 0x20 ADD DUP3 DUP1 SLOAD PUSH1 0x1 DUP2 PUSH1 0x1 AND ISZERO PUSH2 0x100 MUL SUB AND PUSH1 0x2 SWAP1 DIV DUP1 ISZERO PUSH2 0x233B JUMPI DUP1 PUSH1 0x1F LT PUSH2 0x2310 JUMPI PUSH2 0x100 DUP1 DUP4 SLOAD DIV MUL DUP4 MSTORE SWAP2 PUSH1 0x20 ADD SWAP2 PUSH2 0x233B JUMP JUMPDEST DUP3 ADD SWAP2 SWAP1 PUSH1 0x0 MSTORE PUSH1 0x20 PUSH1 0x0 KECCAK256 SWAP1 JUMPDEST DUP2 SLOAD DUP2 MSTORE SWAP1 PUSH1 0x1 ADD SWAP1 PUSH1 0x20 ADD DUP1 DUP4 GT PUSH2 0x231E JUMPI DUP3 SWAP1 SUB PUSH1 0x1F AND DUP3 ADD SWAP2 JUMPDEST POP POP POP POP POP DUP2 MSTORE POP POP SWAP1 POP SWAP2 SWAP1 POP JUMP JUMPDEST PUSH1 0x0 PUSH2 0x236B PUSH1 0x4 PUSH1 0x0 DUP5 DUP2 MSTORE PUSH1 0x20 ADD SWAP1 DUP2 MSTORE PUSH1 0x20 ADD PUSH1 0x0 KECCAK256 PUSH1 0x0 ADD PUSH2 0x372E JUMP JUMPDEST SWAP1 POP SWAP2 SWAP1 POP JUMP JUMPDEST PUSH1 0x0 DUP1 PUSH1 0x0 DUP1 PUSH1 0x0 DUP1 PUSH2 0x2388 PUSH1 0x0 DUP1 SHL DUP9 PUSH2 0x1D09 JUMP JUMPDEST SWAP1 POP PUSH1 0x0 PUSH2 0x23B6 PUSH32 0x2AB9F1DA92E74AAA01EB75A871557505B11DD8D36832A34BB21BBEE88B08D860 DUP10 PUSH2 0x1D09 JUMP JUMPDEST SWAP1 POP PUSH1 0x0 PUSH2 0x23E4 PUSH32 0xEDE6574DEBA8F02ADA7888448A497B08844D62E044ED533343A673BE3FFCDE5F DUP11 PUSH2 0x1D09 JUMP JUMPDEST SWAP1 POP PUSH1 0x0 PUSH2 0x2412 PUSH32 0xE97DAD3DBE5042E7384B1572CF966A15E089576A62B5126C5EF1D184AB18B12C DUP12 PUSH2 0x1D09 JUMP JUMPDEST SWAP1 POP PUSH1 0x0 PUSH2 0x2440 PUSH32 0x5E1AA547D3DADE8C68B013A47AD41C2BCC9B9E4B0765B0FB616780E15786E76A DUP13 PUSH2 0x1D09 JUMP JUMPDEST SWAP1 POP DUP5 DUP5 DUP5 DUP5 DUP5 SWAP10 POP SWAP10 POP SWAP10 POP SWAP10 POP SWAP10 POP POP POP POP POP POP SWAP2 SWAP4 SWAP6 SWAP1 SWAP3 SWAP5 POP JUMP JUMPDEST PUSH2 0x2486 PUSH1 0x4 PUSH1 0x0 DUP5 DUP2 MSTORE PUSH1 0x20 ADD SWAP1 DUP2 MSTORE PUSH1 0x20 ADD PUSH1 0x0 KECCAK256 PUSH1 0x2 ADD SLOAD PUSH2 0x2481 PUSH2 0x333F JUMP JUMPDEST PUSH2 0x1D09 JUMP JUMPDEST PUSH2 0x24C5 JUMPI PUSH1 0x40 MLOAD PUSH32 0x8C379A000000000000000000000000000000000000000000000000000000000 DUP2 MSTORE PUSH1 0x4 ADD PUSH2 0x24BC SWAP1 PUSH2 0x5983 JUMP JUMPDEST PUSH1 0x40 MLOAD DUP1 SWAP2 SUB SWAP1 REVERT JUMPDEST PUSH2 0x24CF DUP3 DUP3 PUSH2 0x3642 JUMP JUMPDEST POP POP JUMP JUMPDEST PUSH2 0x24E0 PUSH1 0x0 DUP1 SHL CALLER PUSH2 0x1D09 JUMP JUMPDEST PUSH2 0x251F JUMPI PUSH1 0x40 MLOAD PUSH32 0x8C379A000000000000000000000000000000000000000000000000000000000 DUP2 MSTORE PUSH1 0x4 ADD PUSH2 0x2516 SWAP1 PUSH2 0x5963 JUMP JUMPDEST PUSH1 0x40 MLOAD DUP1 SWAP2 SUB SWAP1 REVERT JUMPDEST PUSH2 0x2528 DUP2 PUSH2 0x360E JUMP JUMPDEST PUSH2 0x2567 JUMPI PUSH1 0x40 MLOAD PUSH32 0x8C379A000000000000000000000000000000000000000000000000000000000 DUP2 MSTORE PUSH1 0x4 ADD PUSH2 0x255E SWAP1 PUSH2 0x5AA3 JUMP JUMPDEST PUSH1 0x40 MLOAD DUP1 SWAP2 SUB SWAP1 REVERT JUMPDEST PUSH1 0x1 DUP2 PUSH1 0xFF AND EQ ISZERO PUSH2 0x25A2 JUMPI PUSH2 0x259D PUSH32 0x2AB9F1DA92E74AAA01EB75A871557505B11DD8D36832A34BB21BBEE88B08D860 DUP4 PUSH2 0x245F JUMP JUMPDEST PUSH2 0x2609 JUMP JUMPDEST PUSH1 0x2 DUP2 PUSH1 0xFF AND EQ ISZERO PUSH2 0x25DD JUMPI PUSH2 0x25D8 PUSH32 0xEDE6574DEBA8F02ADA7888448A497B08844D62E044ED533343A673BE3FFCDE5F DUP4 PUSH2 0x245F JUMP JUMPDEST PUSH2 0x2608 JUMP JUMPDEST PUSH2 0x2607 PUSH32 0xE97DAD3DBE5042E7384B1572CF966A15E089576A62B5126C5EF1D184AB18B12C DUP4 PUSH2 0x245F JUMP JUMPDEST JUMPDEST JUMPDEST PUSH2 0x2612 DUP3 PUSH2 0x19F6 JUMP JUMPDEST PUSH2 0x2641 JUMPI PUSH2 0x2640 PUSH32 0xF8890EEDD7900AD88DA6192FD03DBB69DBEEE963B1A0ED738ABE49AB3331AAF3 DUP4 PUSH2 0x245F JUMP JUMPDEST JUMPDEST DUP2 PUSH20 0xFFFFFFFFFFFFFFFFFFFFFFFFFFFFFFFFFFFFFFFF AND PUSH32 0x98552DED770F1D05A505572F3387C108DBC6B566EA3D49F83CFF3D1F1C72A042 PUSH1 0x40 MLOAD PUSH1 0x40 MLOAD DUP1 SWAP2 SUB SWAP1 LOG2 POP POP JUMP JUMPDEST PUSH1 0x0 PUSH1 0x2 PUSH1 0x0 DUP5 PUSH20 0xFFFFFFFFFFFFFFFFFFFFFFFFFFFFFFFFFFFFFFFF AND PUSH20 0xFFFFFFFFFFFFFFFFFFFFFFFFFFFFFFFFFFFFFFFF AND DUP2 MSTORE PUSH1 0x20 ADD SWAP1 DUP2 MSTORE PUSH1 0x20 ADD PUSH1 0x0 KECCAK256 PUSH1 0x0 DUP4 PUSH20 0xFFFFFFFFFFFFFFFFFFFFFFFFFFFFFFFFFFFFFFFF AND PUSH20 0xFFFFFFFFFFFFFFFFFFFFFFFFFFFFFFFFFFFFFFFF AND DUP2 MSTORE PUSH1 0x20 ADD SWAP1 DUP2 MSTORE PUSH1 0x20 ADD PUSH1 0x0 KECCAK256 PUSH1 0x0 SWAP1 SLOAD SWAP1 PUSH2 0x100 EXP SWAP1 DIV PUSH1 0xFF AND SWAP1 POP SWAP3 SWAP2 POP POP JUMP JUMPDEST PUSH1 0x0 PUSH20 0xFFFFFFFFFFFFFFFFFFFFFFFFFFFFFFFFFFFFFFFF AND DUP5 PUSH20 0xFFFFFFFFFFFFFFFFFFFFFFFFFFFFFFFFFFFFFFFF AND EQ ISZERO PUSH2 0x278C JUMPI PUSH1 0x40 MLOAD PUSH32 0x8C379A000000000000000000000000000000000000000000000000000000000 DUP2 MSTORE PUSH1 0x4 ADD PUSH2 0x2783 SWAP1 PUSH2 0x59A3 JUMP JUMPDEST PUSH1 0x40 MLOAD DUP1 SWAP2 SUB SWAP1 REVERT JUMPDEST PUSH2 0x2794 PUSH2 0x333F JUMP JUMPDEST PUSH20 0xFFFFFFFFFFFFFFFFFFFFFFFFFFFFFFFFFFFFFFFF AND DUP6 PUSH20 0xFFFFFFFFFFFFFFFFFFFFFFFFFFFFFFFFFFFFFFFF AND EQ DUP1 PUSH2 0x27DA JUMPI POP PUSH2 0x27D9 DUP6 PUSH2 0x27D4 PUSH2 0x333F JUMP JUMPDEST PUSH2 0x2688 JUMP JUMPDEST JUMPDEST PUSH2 0x2819 JUMPI PUSH1 0x40 MLOAD PUSH32 0x8C379A000000000000000000000000000000000000000000000000000000000 DUP2 MSTORE PUSH1 0x4 ADD PUSH2 0x2810 SWAP1 PUSH2 0x5943 JUMP JUMPDEST PUSH1 0x40 MLOAD DUP1 SWAP2 SUB SWAP1 REVERT JUMPDEST PUSH1 0x0 PUSH2 0x2823 PUSH2 0x333F JUMP JUMPDEST SWAP1 POP PUSH2 0x2843 DUP2 DUP8 DUP8 PUSH2 0x2834 DUP9 PUSH2 0x3743 JUMP JUMPDEST PUSH2 0x283D DUP9 PUSH2 0x3743 JUMP JUMPDEST DUP8 PUSH2 0x3347 JUMP JUMPDEST PUSH2 0x28C0 DUP4 PUSH1 0x40 MLOAD DUP1 PUSH1 0x60 ADD PUSH1 0x40 MSTORE DUP1 PUSH1 0x2A DUP2 MSTORE PUSH1 0x20 ADD PUSH2 0x60DC PUSH1 0x2A SWAP2 CODECOPY PUSH1 0x1 PUSH1 0x0 DUP9 DUP2 MSTORE PUSH1 0x20 ADD SWAP1 DUP2 MSTORE PUSH1 0x20 ADD PUSH1 0x0 KECCAK256 PUSH1 0x0 DUP11 PUSH20 0xFFFFFFFFFFFFFFFFFFFFFFFFFFFFFFFFFFFFFFFF AND PUSH20 0xFFFFFFFFFFFFFFFFFFFFFFFFFFFFFFFFFFFFFFFF AND DUP2 MSTORE PUSH1 0x20 ADD SWAP1 DUP2 MSTORE PUSH1 0x20 ADD PUSH1 0x0 KECCAK256 SLOAD PUSH2 0x334F SWAP1 SWAP3 SWAP2 SWAP1 PUSH4 0xFFFFFFFF AND JUMP JUMPDEST PUSH1 0x1 PUSH1 0x0 DUP7 DUP2 MSTORE PUSH1 0x20 ADD SWAP1 DUP2 MSTORE PUSH1 0x20 ADD PUSH1 0x0 KECCAK256 PUSH1 0x0 DUP9 PUSH20 0xFFFFFFFFFFFFFFFFFFFFFFFFFFFFFFFFFFFFFFFF AND PUSH20 0xFFFFFFFFFFFFFFFFFFFFFFFFFFFFFFFFFFFFFFFF AND DUP2 MSTORE PUSH1 0x20 ADD SWAP1 DUP2 MSTORE PUSH1 0x20 ADD PUSH1 0x0 KECCAK256 DUP2 SWAP1 SSTORE POP PUSH2 0x2977 DUP4 PUSH1 0x1 PUSH1 0x0 DUP8 DUP2 MSTORE PUSH1 0x20 ADD SWAP1 DUP2 MSTORE PUSH1 0x20 ADD PUSH1 0x0 KECCAK256 PUSH1 0x0 DUP9 PUSH20 0xFFFFFFFFFFFFFFFFFFFFFFFFFFFFFFFFFFFFFFFF AND PUSH20 0xFFFFFFFFFFFFFFFFFFFFFFFFFFFFFFFFFFFFFFFF AND DUP2 MSTORE PUSH1 0x20 ADD SWAP1 DUP2 MSTORE PUSH1 0x20 ADD PUSH1 0x0 KECCAK256 SLOAD PUSH2 0x32EA SWAP1 SWAP2 SWAP1 PUSH4 0xFFFFFFFF AND JUMP JUMPDEST PUSH1 0x1 PUSH1 0x0 DUP7 DUP2 MSTORE PUSH1 0x20 ADD SWAP1 DUP2 MSTORE PUSH1 0x20 ADD PUSH1 0x0 KECCAK256 PUSH1 0x0 DUP8 PUSH20 0xFFFFFFFFFFFFFFFFFFFFFFFFFFFFFFFFFFFFFFFF AND PUSH20 0xFFFFFFFFFFFFFFFFFFFFFFFFFFFFFFFFFFFFFFFF AND DUP2 MSTORE PUSH1 0x20 ADD SWAP1 DUP2 MSTORE PUSH1 0x20 ADD PUSH1 0x0 KECCAK256 DUP2 SWAP1 SSTORE POP DUP5 PUSH20 0xFFFFFFFFFFFFFFFFFFFFFFFFFFFFFFFFFFFFFFFF AND DUP7 PUSH20 0xFFFFFFFFFFFFFFFFFFFFFFFFFFFFFFFFFFFFFFFF AND DUP3 PUSH20 0xFFFFFFFFFFFFFFFFFFFFFFFFFFFFFFFFFFFFFFFF AND PUSH32 0xC3D58168C5AE7397731D063D5BBF3D657854427343F4C083240F7AACAA2D0F62 DUP8 DUP8 PUSH1 0x40 MLOAD PUSH2 0x2A41 SWAP3 SWAP2 SWAP1 PUSH2 0x5C3E JUMP JUMPDEST PUSH1 0x40 MLOAD DUP1 SWAP2 SUB SWAP1 LOG4 PUSH2 0x2A57 DUP2 DUP8 DUP8 DUP8 DUP8 DUP8 PUSH2 0x37B3 JUMP JUMPDEST POP POP POP POP POP POP JUMP JUMPDEST PUSH32 0x2AB9F1DA92E74AAA01EB75A871557505B11DD8D36832A34BB21BBEE88B08D860 DUP2 JUMP JUMPDEST PUSH1 0x0 PUSH2 0x2AAF PUSH32 0x2AB9F1DA92E74AAA01EB75A871557505B11DD8D36832A34BB21BBEE88B08D860 CALLER PUSH2 0x1D09 JUMP JUMPDEST SWAP1 POP PUSH1 0x0 PUSH2 0x2ADD PUSH32 0xEDE6574DEBA8F02ADA7888448A497B08844D62E044ED533343A673BE3FFCDE5F CALLER PUSH2 0x1D09 JUMP JUMPDEST SWAP1 POP PUSH1 0x0 PUSH2 0x2B0B PUSH32 0xE97DAD3DBE5042E7384B1572CF966A15E089576A62B5126C5EF1D184AB18B12C CALLER PUSH2 0x1D09 JUMP JUMPDEST SWAP1 POP DUP3 DUP1 PUSH2 0x2B16 JUMPI POP DUP2 JUMPDEST DUP1 PUSH2 0x2B1E JUMPI POP DUP1 JUMPDEST PUSH2 0x2B5D JUMPI PUSH1 0x40 MLOAD PUSH32 0x8C379A000000000000000000000000000000000000000000000000000000000 DUP2 MSTORE PUSH1 0x4 ADD PUSH2 0x2B54 SWAP1 PUSH2 0x5A23 JUMP JUMPDEST PUSH1 0x40 MLOAD DUP1 SWAP2 SUB SWAP1 REVERT JUMPDEST PUSH2 0x2B67 PUSH1 0x7 PUSH2 0x3983 JUMP JUMPDEST PUSH1 0x0 PUSH1 0x5 PUSH1 0x0 PUSH2 0x2B77 PUSH1 0x7 PUSH2 0x36D6 JUMP JUMPDEST DUP2 MSTORE PUSH1 0x20 ADD SWAP1 DUP2 MSTORE PUSH1 0x20 ADD PUSH1 0x0 KECCAK256 SWAP1 POP PUSH2 0x2B90 DUP13 PUSH2 0x360E JUMP JUMPDEST PUSH2 0x2BCF JUMPI PUSH1 0x40 MLOAD PUSH32 0x8C379A000000000000000000000000000000000000000000000000000000000 DUP2 MSTORE PUSH1 0x4 ADD PUSH2 0x2BC6 SWAP1 PUSH2 0x59E3 JUMP JUMPDEST PUSH1 0x40 MLOAD DUP1 SWAP2 SUB SWAP1 REVERT JUMPDEST PUSH1 0x1 DUP13 PUSH1 0xFF AND EQ ISZERO PUSH2 0x2C49 JUMPI PUSH2 0x2C05 PUSH32 0x2AB9F1DA92E74AAA01EB75A871557505B11DD8D36832A34BB21BBEE88B08D860 CALLER PUSH2 0x1D09 JUMP JUMPDEST PUSH2 0x2C44 JUMPI PUSH1 0x40 MLOAD PUSH32 0x8C379A000000000000000000000000000000000000000000000000000000000 DUP2 MSTORE PUSH1 0x4 ADD PUSH2 0x2C3B SWAP1 PUSH2 0x5A43 JUMP JUMPDEST PUSH1 0x40 MLOAD DUP1 SWAP2 SUB SWAP1 REVERT JUMPDEST PUSH2 0x2D2E JUMP JUMPDEST PUSH1 0x2 DUP13 PUSH1 0xFF AND EQ ISZERO PUSH2 0x2CC3 JUMPI PUSH2 0x2C7F PUSH32 0xEDE6574DEBA8F02ADA7888448A497B08844D62E044ED533343A673BE3FFCDE5F CALLER PUSH2 0x1D09 JUMP JUMPDEST PUSH2 0x2CBE JUMPI PUSH1 0x40 MLOAD PUSH32 0x8C379A000000000000000000000000000000000000000000000000000000000 DUP2 MSTORE PUSH1 0x4 ADD PUSH2 0x2CB5 SWAP1 PUSH2 0x5A63 JUMP JUMPDEST PUSH1 0x40 MLOAD DUP1 SWAP2 SUB SWAP1 REVERT JUMPDEST PUSH2 0x2D2D JUMP JUMPDEST PUSH2 0x2CED PUSH32 0xE97DAD3DBE5042E7384B1572CF966A15E089576A62B5126C5EF1D184AB18B12C CALLER PUSH2 0x1D09 JUMP JUMPDEST PUSH2 0x2D2C JUMPI PUSH1 0x40 MLOAD PUSH32 0x8C379A000000000000000000000000000000000000000000000000000000000 DUP2 MSTORE PUSH1 0x4 ADD PUSH2 0x2D23 SWAP1 PUSH2 0x5AE3 JUMP JUMPDEST PUSH1 0x40 MLOAD DUP1 SWAP2 SUB SWAP1 REVERT JUMPDEST JUMPDEST JUMPDEST PUSH1 0x60 PUSH2 0x2D3A PUSH1 0x7 PUSH2 0x36D6 JUMP JUMPDEST DUP3 PUSH1 0x0 ADD DUP2 SWAP1 SSTORE POP DUP13 DUP3 PUSH1 0x1 ADD PUSH1 0x0 PUSH2 0x100 EXP DUP2 SLOAD DUP2 PUSH1 0xFF MUL NOT AND SWAP1 DUP4 PUSH1 0xFF AND MUL OR SWAP1 SSTORE POP CALLER DUP3 PUSH1 0x1 ADD PUSH1 0x1 PUSH2 0x100 EXP DUP2 SLOAD DUP2 PUSH20 0xFFFFFFFFFFFFFFFFFFFFFFFFFFFFFFFFFFFFFFFF MUL NOT AND SWAP1 DUP4 PUSH20 0xFFFFFFFFFFFFFFFFFFFFFFFFFFFFFFFFFFFFFFFF AND MUL OR SWAP1 SSTORE POP DUP14 DUP3 PUSH1 0x2 ADD PUSH1 0x0 PUSH2 0x100 EXP DUP2 SLOAD DUP2 PUSH20 0xFFFFFFFFFFFFFFFFFFFFFFFFFFFFFFFFFFFFFFFF MUL NOT AND SWAP1 DUP4 PUSH20 0xFFFFFFFFFFFFFFFFFFFFFFFFFFFFFFFFFFFFFFFF AND MUL OR SWAP1 SSTORE POP DUP11 DUP3 PUSH1 0x3 ADD DUP2 SWAP1 SSTORE POP DUP10 DUP3 PUSH1 0x4 ADD DUP2 SWAP1 SSTORE POP DUP9 DUP3 PUSH1 0x6 ADD DUP2 SWAP1 SSTORE POP TIMESTAMP DUP3 PUSH1 0x5 ADD DUP2 SWAP1 SSTORE POP DUP8 DUP3 PUSH1 0x7 ADD SWAP1 DUP1 MLOAD SWAP1 PUSH1 0x20 ADD SWAP1 PUSH2 0x2E21 SWAP3 SWAP2 SWAP1 PUSH2 0x3E45 JUMP JUMPDEST POP DUP7 DUP3 PUSH1 0x8 ADD SWAP1 DUP1 MLOAD SWAP1 PUSH1 0x20 ADD SWAP1 PUSH2 0x2E3A SWAP3 SWAP2 SWAP1 PUSH2 0x3E45 JUMP JUMPDEST POP DUP6 DUP3 PUSH1 0x9 ADD SWAP1 DUP1 MLOAD SWAP1 PUSH1 0x20 ADD SWAP1 PUSH2 0x2E53 SWAP3 SWAP2 SWAP1 PUSH2 0x3E45 JUMP JUMPDEST POP PUSH2 0x2E69 DUP15 PUSH2 0x2E62 PUSH1 0x7 PUSH2 0x36D6 JUMP JUMPDEST DUP15 DUP5 PUSH2 0x3999 JUMP JUMPDEST PUSH1 0x3 DUP14 PUSH1 0xFF AND EQ ISZERO PUSH2 0x2FB0 JUMPI PUSH2 0x2EA8 DUP3 PUSH1 0x2 ADD PUSH1 0x0 SWAP1 SLOAD SWAP1 PUSH2 0x100 EXP SWAP1 DIV PUSH20 0xFFFFFFFFFFFFFFFFFFFFFFFFFFFFFFFFFFFFFFFF AND DUP4 PUSH1 0x0 ADD SLOAD DUP15 PUSH2 0x30EA JUMP JUMPDEST PUSH2 0x2F33 DUP13 PUSH1 0x6 PUSH1 0x0 DUP6 PUSH1 0x0 ADD SLOAD DUP2 MSTORE PUSH1 0x20 ADD SWAP1 DUP2 MSTORE PUSH1 0x20 ADD PUSH1 0x0 KECCAK256 PUSH1 0x0 DUP6 PUSH1 0x2 ADD PUSH1 0x0 SWAP1 SLOAD SWAP1 PUSH2 0x100 EXP SWAP1 DIV PUSH20 0xFFFFFFFFFFFFFFFFFFFFFFFFFFFFFFFFFFFFFFFF AND PUSH20 0xFFFFFFFFFFFFFFFFFFFFFFFFFFFFFFFFFFFFFFFF AND PUSH20 0xFFFFFFFFFFFFFFFFFFFFFFFFFFFFFFFFFFFFFFFF AND DUP2 MSTORE PUSH1 0x20 ADD SWAP1 DUP2 MSTORE PUSH1 0x20 ADD PUSH1 0x0 KECCAK256 SLOAD PUSH2 0x32EA SWAP1 SWAP2 SWAP1 PUSH4 0xFFFFFFFF AND JUMP JUMPDEST PUSH1 0x6 PUSH1 0x0 DUP5 PUSH1 0x0 ADD SLOAD DUP2 MSTORE PUSH1 0x20 ADD SWAP1 DUP2 MSTORE PUSH1 0x20 ADD PUSH1 0x0 KECCAK256 PUSH1 0x0 DUP5 PUSH1 0x2 ADD PUSH1 0x0 SWAP1 SLOAD SWAP1 PUSH2 0x100 EXP SWAP1 DIV PUSH20 0xFFFFFFFFFFFFFFFFFFFFFFFFFFFFFFFFFFFFFFFF AND PUSH20 0xFFFFFFFFFFFFFFFFFFFFFFFFFFFFFFFFFFFFFFFF AND PUSH20 0xFFFFFFFFFFFFFFFFFFFFFFFFFFFFFFFFFFFFFFFF AND DUP2 MSTORE PUSH1 0x20 ADD SWAP1 DUP2 MSTORE PUSH1 0x20 ADD PUSH1 0x0 KECCAK256 DUP2 SWAP1 SSTORE POP JUMPDEST PUSH32 0x9D909C5848C959E758A199574D718D57AEF8BAD521548B63E1DA241E4A586F0C DUP3 DUP14 PUSH1 0x6 PUSH1 0x0 DUP7 PUSH1 0x0 ADD SLOAD DUP2 MSTORE PUSH1 0x20 ADD SWAP1 DUP2 MSTORE PUSH1 0x20 ADD PUSH1 0x0 KECCAK256 PUSH1 0x0 DUP7 PUSH1 0x2 ADD PUSH1 0x0 SWAP1 SLOAD SWAP1 PUSH2 0x100 EXP SWAP1 DIV PUSH20 0xFFFFFFFFFFFFFFFFFFFFFFFFFFFFFFFFFFFFFFFF AND PUSH20 0xFFFFFFFFFFFFFFFFFFFFFFFFFFFFFFFFFFFFFFFF AND PUSH20 0xFFFFFFFFFFFFFFFFFFFFFFFFFFFFFFFFFFFFFFFF AND DUP2 MSTORE PUSH1 0x20 ADD SWAP1 DUP2 MSTORE PUSH1 0x20 ADD PUSH1 0x0 KECCAK256 SLOAD PUSH1 0x40 MLOAD PUSH2 0x305B SWAP4 SWAP3 SWAP2 SWAP1 PUSH2 0x5BE5 JUMP JUMPDEST PUSH1 0x40 MLOAD DUP1 SWAP2 SUB SWAP1 LOG1 POP POP POP POP POP POP POP POP POP POP POP POP POP POP JUMP JUMPDEST PUSH1 0x0 PUSH2 0x309B DUP4 PUSH1 0x0 ADD DUP4 PUSH20 0xFFFFFFFFFFFFFFFFFFFFFFFFFFFFFFFFFFFFFFFF AND PUSH1 0x0 SHL PUSH2 0x3B80 JUMP JUMPDEST SWAP1 POP SWAP3 SWAP2 POP POP JUMP JUMPDEST PUSH1 0x0 DUP2 PUSH2 0x30B0 PUSH1 0x7 PUSH2 0x36D6 JUMP JUMPDEST LT PUSH2 0x30BE JUMPI PUSH1 0x1 SWAP1 POP PUSH2 0x30C3 JUMP JUMPDEST PUSH1 0x0 SWAP1 POP JUMPDEST SWAP2 SWAP1 POP JUMP JUMPDEST PUSH1 0x0 PUSH2 0x30D3 DUP3 PUSH2 0x19F6 JUMP JUMPDEST DUP1 PUSH2 0x30E3 JUMPI POP PUSH2 0x30E2 DUP3 PUSH2 0x14CF JUMP JUMPDEST JUMPDEST SWAP1 POP SWAP2 SWAP1 POP JUMP JUMPDEST PUSH1 0x0 PUSH20 0xFFFFFFFFFFFFFFFFFFFFFFFFFFFFFFFFFFFFFFFF AND DUP4 PUSH20 0xFFFFFFFFFFFFFFFFFFFFFFFFFFFFFFFFFFFFFFFF AND EQ ISZERO PUSH2 0x315A JUMPI PUSH1 0x40 MLOAD PUSH32 0x8C379A000000000000000000000000000000000000000000000000000000000 DUP2 MSTORE PUSH1 0x4 ADD PUSH2 0x3151 SWAP1 PUSH2 0x5A03 JUMP JUMPDEST PUSH1 0x40 MLOAD DUP1 SWAP2 SUB SWAP1 REVERT JUMPDEST PUSH1 0x0 PUSH2 0x3164 PUSH2 0x333F JUMP JUMPDEST SWAP1 POP PUSH2 0x3194 DUP2 DUP6 PUSH1 0x0 PUSH2 0x3176 DUP8 PUSH2 0x3743 JUMP JUMPDEST PUSH2 0x317F DUP8 PUSH2 0x3743 JUMP JUMPDEST PUSH1 0x40 MLOAD DUP1 PUSH1 0x20 ADD PUSH1 0x40 MSTORE DUP1 PUSH1 0x0 DUP2 MSTORE POP PUSH2 0x3347 JUMP JUMPDEST PUSH2 0x3211 DUP3 PUSH1 0x40 MLOAD DUP1 PUSH1 0x60 ADD PUSH1 0x40 MSTORE DUP1 PUSH1 0x24 DUP2 MSTORE PUSH1 0x20 ADD PUSH2 0x60B8 PUSH1 0x24 SWAP2 CODECOPY PUSH1 0x1 PUSH1 0x0 DUP8 DUP2 MSTORE PUSH1 0x20 ADD SWAP1 DUP2 MSTORE PUSH1 0x20 ADD PUSH1 0x0 KECCAK256 PUSH1 0x0 DUP9 PUSH20 0xFFFFFFFFFFFFFFFFFFFFFFFFFFFFFFFFFFFFFFFF AND PUSH20 0xFFFFFFFFFFFFFFFFFFFFFFFFFFFFFFFFFFFFFFFF AND DUP2 MSTORE PUSH1 0x20 ADD SWAP1 DUP2 MSTORE PUSH1 0x20 ADD PUSH1 0x0 KECCAK256 SLOAD PUSH2 0x334F SWAP1 SWAP3 SWAP2 SWAP1 PUSH4 0xFFFFFFFF AND JUMP JUMPDEST PUSH1 0x1 PUSH1 0x0 DUP6 DUP2 MSTORE PUSH1 0x20 ADD SWAP1 DUP2 MSTORE PUSH1 0x20 ADD PUSH1 0x0 KECCAK256 PUSH1 0x0 DUP7 PUSH20 0xFFFFFFFFFFFFFFFFFFFFFFFFFFFFFFFFFFFFFFFF AND PUSH20 0xFFFFFFFFFFFFFFFFFFFFFFFFFFFFFFFFFFFFFFFF AND DUP2 MSTORE PUSH1 0x20 ADD SWAP1 DUP2 MSTORE PUSH1 0x20 ADD PUSH1 0x0 KECCAK256 DUP2 SWAP1 SSTORE POP PUSH1 0x0 PUSH20 0xFFFFFFFFFFFFFFFFFFFFFFFFFFFFFFFFFFFFFFFF AND DUP5 PUSH20 0xFFFFFFFFFFFFFFFFFFFFFFFFFFFFFFFFFFFFFFFF AND DUP3 PUSH20 0xFFFFFFFFFFFFFFFFFFFFFFFFFFFFFFFFFFFFFFFF AND PUSH32 0xC3D58168C5AE7397731D063D5BBF3D657854427343F4C083240F7AACAA2D0F62 DUP7 DUP7 PUSH1 0x40 MLOAD PUSH2 0x32DC SWAP3 SWAP2 SWAP1 PUSH2 0x5C3E JUMP JUMPDEST PUSH1 0x40 MLOAD DUP1 SWAP2 SUB SWAP1 LOG4 POP POP POP POP JUMP JUMPDEST PUSH1 0x0 DUP1 DUP3 DUP5 ADD SWAP1 POP DUP4 DUP2 LT ISZERO PUSH2 0x3335 JUMPI PUSH1 0x40 MLOAD PUSH32 0x8C379A000000000000000000000000000000000000000000000000000000000 DUP2 MSTORE PUSH1 0x4 ADD PUSH2 0x332C SWAP1 PUSH2 0x5903 JUMP JUMPDEST PUSH1 0x40 MLOAD DUP1 SWAP2 SUB SWAP1 REVERT JUMPDEST DUP1 SWAP2 POP POP SWAP3 SWAP2 POP POP JUMP JUMPDEST PUSH1 0x0 CALLER SWAP1 POP SWAP1 JUMP JUMPDEST POP POP POP POP POP POP JUMP JUMPDEST PUSH1 0x0 DUP4 DUP4 GT ISZERO DUP3 SWAP1 PUSH2 0x3397 JUMPI PUSH1 0x40 MLOAD PUSH32 0x8C379A000000000000000000000000000000000000000000000000000000000 DUP2 MSTORE PUSH1 0x4 ADD PUSH2 0x338E SWAP2 SWAP1 PUSH2 0x5801 JUMP JUMPDEST PUSH1 0x40 MLOAD DUP1 SWAP2 SUB SWAP1 REVERT JUMPDEST POP PUSH1 0x0 DUP4 DUP6 SUB SWAP1 POP DUP1 SWAP2 POP POP SWAP4 SWAP3 POP POP POP JUMP JUMPDEST PUSH2 0x33C9 DUP5 PUSH20 0xFFFFFFFFFFFFFFFFFFFFFFFFFFFFFFFFFFFFFFFF AND PUSH2 0x3BF0 JUMP JUMPDEST ISZERO PUSH2 0x3572 JUMPI DUP4 PUSH20 0xFFFFFFFFFFFFFFFFFFFFFFFFFFFFFFFFFFFFFFFF AND PUSH4 0xBC197C81 DUP8 DUP8 DUP7 DUP7 DUP7 PUSH1 0x40 MLOAD DUP7 PUSH4 0xFFFFFFFF AND PUSH1 0xE0 SHL DUP2 MSTORE PUSH1 0x4 ADD PUSH2 0x340F SWAP6 SWAP5 SWAP4 SWAP3 SWAP2 SWAP1 PUSH2 0x5634 JUMP JUMPDEST PUSH1 0x20 PUSH1 0x40 MLOAD DUP1 DUP4 SUB DUP2 PUSH1 0x0 DUP8 DUP1 EXTCODESIZE ISZERO DUP1 ISZERO PUSH2 0x3429 JUMPI PUSH1 0x0 DUP1 REVERT JUMPDEST POP GAS CALL SWAP3 POP POP POP DUP1 ISZERO PUSH2 0x345A JUMPI POP PUSH1 0x40 MLOAD RETURNDATASIZE PUSH1 0x1F NOT PUSH1 0x1F DUP3 ADD AND DUP3 ADD DUP1 PUSH1 0x40 MSTORE POP DUP2 ADD SWAP1 PUSH2 0x3457 SWAP2 SWAP1 PUSH2 0x4632 JUMP JUMPDEST PUSH1 0x1 JUMPDEST PUSH2 0x34E9 JUMPI PUSH2 0x3466 PUSH2 0x5F77 JUMP JUMPDEST DUP1 PUSH2 0x3471 JUMPI POP PUSH2 0x34AE JUMP JUMPDEST DUP1 PUSH1 0x40 MLOAD PUSH32 0x8C379A000000000000000000000000000000000000000000000000000000000 DUP2 MSTORE PUSH1 0x4 ADD PUSH2 0x34A5 SWAP2 SWAP1 PUSH2 0x5801 JUMP JUMPDEST PUSH1 0x40 MLOAD DUP1 SWAP2 SUB SWAP1 REVERT JUMPDEST PUSH1 0x40 MLOAD PUSH32 0x8C379A000000000000000000000000000000000000000000000000000000000 DUP2 MSTORE PUSH1 0x4 ADD PUSH2 0x34E0 SWAP1 PUSH2 0x5823 JUMP JUMPDEST PUSH1 0x40 MLOAD DUP1 SWAP2 SUB SWAP1 REVERT JUMPDEST PUSH4 0xBC197C81 PUSH1 0xE0 SHL PUSH28 0xFFFFFFFFFFFFFFFFFFFFFFFFFFFFFFFFFFFFFFFFFFFFFFFFFFFFFFFF NOT AND DUP2 PUSH28 0xFFFFFFFFFFFFFFFFFFFFFFFFFFFFFFFFFFFFFFFFFFFFFFFFFFFFFFFF NOT AND EQ PUSH2 0x3570 JUMPI PUSH1 0x40 MLOAD PUSH32 0x8C379A000000000000000000000000000000000000000000000000000000000 DUP2 MSTORE PUSH1 0x4 ADD PUSH2 0x3567 SWAP1 PUSH2 0x5863 JUMP JUMPDEST PUSH1 0x40 MLOAD DUP1 SWAP2 SUB SWAP1 REVERT JUMPDEST POP JUMPDEST POP POP POP POP POP POP JUMP JUMPDEST PUSH2 0x35A2 DUP2 PUSH1 0x4 PUSH1 0x0 DUP6 DUP2 MSTORE PUSH1 0x20 ADD SWAP1 DUP2 MSTORE PUSH1 0x20 ADD PUSH1 0x0 KECCAK256 PUSH1 0x0 ADD PUSH2 0x3073 SWAP1 SWAP2 SWAP1 PUSH4 0xFFFFFFFF AND JUMP JUMPDEST ISZERO PUSH2 0x360A JUMPI PUSH2 0x35AF PUSH2 0x333F JUMP JUMPDEST PUSH20 0xFFFFFFFFFFFFFFFFFFFFFFFFFFFFFFFFFFFFFFFF AND DUP2 PUSH20 0xFFFFFFFFFFFFFFFFFFFFFFFFFFFFFFFFFFFFFFFF AND DUP4 PUSH32 0x2F8788117E7EFF1D82E926EC794901D17C78024A50270940304540A733656F0D PUSH1 0x40 MLOAD PUSH1 0x40 MLOAD DUP1 SWAP2 SUB SWAP1 LOG4 JUMPDEST POP POP JUMP JUMPDEST PUSH1 0x0 DUP1 DUP3 PUSH1 0xFF AND GT DUP1 ISZERO PUSH2 0x362A JUMPI POP PUSH1 0x8 DUP1 SLOAD SWAP1 POP DUP3 PUSH1 0xFF AND GT ISZERO JUMPDEST ISZERO PUSH2 0x3638 JUMPI PUSH1 0x1 SWAP1 POP PUSH2 0x363D JUMP JUMPDEST PUSH1 0x0 SWAP1 POP JUMPDEST SWAP2 SWAP1 POP JUMP JUMPDEST PUSH2 0x366A DUP2 PUSH1 0x4 PUSH1 0x0 DUP6 DUP2 MSTORE PUSH1 0x20 ADD SWAP1 DUP2 MSTORE PUSH1 0x20 ADD PUSH1 0x0 KECCAK256 PUSH1 0x0 ADD PUSH2 0x3C03 SWAP1 SWAP2 SWAP1 PUSH4 0xFFFFFFFF AND JUMP JUMPDEST ISZERO PUSH2 0x36D2 JUMPI PUSH2 0x3677 PUSH2 0x333F JUMP JUMPDEST PUSH20 0xFFFFFFFFFFFFFFFFFFFFFFFFFFFFFFFFFFFFFFFF AND DUP2 PUSH20 0xFFFFFFFFFFFFFFFFFFFFFFFFFFFFFFFFFFFFFFFF AND DUP4 PUSH32 0xF6391F5C32D9C69D2A47EA670B442974B53935D1EDC7FD64EB21E047A839171B PUSH1 0x40 MLOAD PUSH1 0x40 MLOAD DUP1 SWAP2 SUB SWAP1 LOG4 JUMPDEST POP POP JUMP JUMPDEST PUSH1 0x0 DUP2 PUSH1 0x0 ADD SLOAD SWAP1 POP SWAP2 SWAP1 POP JUMP JUMPDEST PUSH1 0x0 PUSH2 0x36F3 DUP4 PUSH1 0x0 ADD DUP4 PUSH2 0x3C33 JUMP JUMPDEST PUSH1 0x0 SHR SWAP1 POP SWAP3 SWAP2 POP POP JUMP JUMPDEST PUSH1 0x0 PUSH2 0x3726 DUP4 PUSH1 0x0 ADD DUP4 PUSH20 0xFFFFFFFFFFFFFFFFFFFFFFFFFFFFFFFFFFFFFFFF AND PUSH1 0x0 SHL PUSH2 0x3CA0 JUMP JUMPDEST SWAP1 POP SWAP3 SWAP2 POP POP JUMP JUMPDEST PUSH1 0x0 PUSH2 0x373C DUP3 PUSH1 0x0 ADD PUSH2 0x3CC3 JUMP JUMPDEST SWAP1 POP SWAP2 SWAP1 POP JUMP JUMPDEST PUSH1 0x60 DUP1 PUSH1 0x1 PUSH8 0xFFFFFFFFFFFFFFFF DUP2 GT DUP1 ISZERO PUSH2 0x375E JUMPI PUSH1 0x0 DUP1 REVERT JUMPDEST POP PUSH1 0x40 MLOAD SWAP1 DUP1 DUP3 MSTORE DUP1 PUSH1 0x20 MUL PUSH1 0x20 ADD DUP3 ADD PUSH1 0x40 MSTORE DUP1 ISZERO PUSH2 0x378D JUMPI DUP2 PUSH1 0x20 ADD PUSH1 0x20 DUP3 MUL DUP1 CALLDATASIZE DUP4 CALLDATACOPY DUP1 DUP3 ADD SWAP2 POP POP SWAP1 POP JUMPDEST POP SWAP1 POP DUP3 DUP2 PUSH1 0x0 DUP2 MLOAD DUP2 LT PUSH2 0x379E JUMPI INVALID JUMPDEST PUSH1 0x20 MUL PUSH1 0x20 ADD ADD DUP2 DUP2 MSTORE POP POP DUP1 SWAP2 POP POP SWAP2 SWAP1 POP JUMP JUMPDEST PUSH2 0x37D2 DUP5 PUSH20 0xFFFFFFFFFFFFFFFFFFFFFFFFFFFFFFFFFFFFFFFF AND PUSH2 0x3BF0 JUMP JUMPDEST ISZERO PUSH2 0x397B JUMPI DUP4 PUSH20 0xFFFFFFFFFFFFFFFFFFFFFFFFFFFFFFFFFFFFFFFF AND PUSH4 0xF23A6E61 DUP8 DUP8 DUP7 DUP7 DUP7 PUSH1 0x40 MLOAD DUP7 PUSH4 0xFFFFFFFF AND PUSH1 0xE0 SHL DUP2 MSTORE PUSH1 0x4 ADD PUSH2 0x3818 SWAP6 SWAP5 SWAP4 SWAP3 SWAP2 SWAP1 PUSH2 0x569C JUMP JUMPDEST PUSH1 0x20 PUSH1 0x40 MLOAD DUP1 DUP4 SUB DUP2 PUSH1 0x0 DUP8 DUP1 EXTCODESIZE ISZERO DUP1 ISZERO PUSH2 0x3832 JUMPI PUSH1 0x0 DUP1 REVERT JUMPDEST POP GAS CALL SWAP3 POP POP POP DUP1 ISZERO PUSH2 0x3863 JUMPI POP PUSH1 0x40 MLOAD RETURNDATASIZE PUSH1 0x1F NOT PUSH1 0x1F DUP3 ADD AND DUP3 ADD DUP1 PUSH1 0x40 MSTORE POP DUP2 ADD SWAP1 PUSH2 0x3860 SWAP2 SWAP1 PUSH2 0x4632 JUMP JUMPDEST PUSH1 0x1 JUMPDEST PUSH2 0x38F2 JUMPI PUSH2 0x386F PUSH2 0x5F77 JUMP JUMPDEST DUP1 PUSH2 0x387A JUMPI POP PUSH2 0x38B7 JUMP JUMPDEST DUP1 PUSH1 0x40 MLOAD PUSH32 0x8C379A000000000000000000000000000000000000000000000000000000000 DUP2 MSTORE PUSH1 0x4 ADD PUSH2 0x38AE SWAP2 SWAP1 PUSH2 0x5801 JUMP JUMPDEST PUSH1 0x40 MLOAD DUP1 SWAP2 SUB SWAP1 REVERT JUMPDEST PUSH1 0x40 MLOAD PUSH32 0x8C379A000000000000000000000000000000000000000000000000000000000 DUP2 MSTORE PUSH1 0x4 ADD PUSH2 0x38E9 SWAP1 PUSH2 0x5823 JUMP JUMPDEST PUSH1 0x40 MLOAD DUP1 SWAP2 SUB SWAP1 REVERT JUMPDEST PUSH4 0xF23A6E61 PUSH1 0xE0 SHL PUSH28 0xFFFFFFFFFFFFFFFFFFFFFFFFFFFFFFFFFFFFFFFFFFFFFFFFFFFFFFFF NOT AND DUP2 PUSH28 0xFFFFFFFFFFFFFFFFFFFFFFFFFFFFFFFFFFFFFFFFFFFFFFFFFFFFFFFF NOT AND EQ PUSH2 0x3979 JUMPI PUSH1 0x40 MLOAD PUSH32 0x8C379A000000000000000000000000000000000000000000000000000000000 DUP2 MSTORE PUSH1 0x4 ADD PUSH2 0x3970 SWAP1 PUSH2 0x5863 JUMP JUMPDEST PUSH1 0x40 MLOAD DUP1 SWAP2 SUB SWAP1 REVERT JUMPDEST POP JUMPDEST POP POP POP POP POP POP JUMP JUMPDEST PUSH1 0x1 DUP2 PUSH1 0x0 ADD PUSH1 0x0 DUP3 DUP3 SLOAD ADD SWAP3 POP POP DUP2 SWAP1 SSTORE POP POP JUMP JUMPDEST PUSH1 0x0 PUSH20 0xFFFFFFFFFFFFFFFFFFFFFFFFFFFFFFFFFFFFFFFF AND DUP5 PUSH20 0xFFFFFFFFFFFFFFFFFFFFFFFFFFFFFFFFFFFFFFFF AND EQ ISZERO PUSH2 0x3A09 JUMPI PUSH1 0x40 MLOAD PUSH32 0x8C379A000000000000000000000000000000000000000000000000000000000 DUP2 MSTORE PUSH1 0x4 ADD PUSH2 0x3A00 SWAP1 PUSH2 0x5B83 JUMP JUMPDEST PUSH1 0x40 MLOAD DUP1 SWAP2 SUB SWAP1 REVERT JUMPDEST PUSH1 0x0 PUSH2 0x3A13 PUSH2 0x333F JUMP JUMPDEST SWAP1 POP PUSH2 0x3A34 DUP2 PUSH1 0x0 DUP8 PUSH2 0x3A25 DUP9 PUSH2 0x3743 JUMP JUMPDEST PUSH2 0x3A2E DUP9 PUSH2 0x3743 JUMP JUMPDEST DUP8 PUSH2 0x3347 JUMP JUMPDEST PUSH2 0x3A97 DUP4 PUSH1 0x1 PUSH1 0x0 DUP8 DUP2 MSTORE PUSH1 0x20 ADD SWAP1 DUP2 MSTORE PUSH1 0x20 ADD PUSH1 0x0 KECCAK256 PUSH1 0x0 DUP9 PUSH20 0xFFFFFFFFFFFFFFFFFFFFFFFFFFFFFFFFFFFFFFFF AND PUSH20 0xFFFFFFFFFFFFFFFFFFFFFFFFFFFFFFFFFFFFFFFF AND DUP2 MSTORE PUSH1 0x20 ADD SWAP1 DUP2 MSTORE PUSH1 0x20 ADD PUSH1 0x0 KECCAK256 SLOAD PUSH2 0x32EA SWAP1 SWAP2 SWAP1 PUSH4 0xFFFFFFFF AND JUMP JUMPDEST PUSH1 0x1 PUSH1 0x0 DUP7 DUP2 MSTORE PUSH1 0x20 ADD SWAP1 DUP2 MSTORE PUSH1 0x20 ADD PUSH1 0x0 KECCAK256 PUSH1 0x0 DUP8 PUSH20 0xFFFFFFFFFFFFFFFFFFFFFFFFFFFFFFFFFFFFFFFF AND PUSH20 0xFFFFFFFFFFFFFFFFFFFFFFFFFFFFFFFFFFFFFFFF AND DUP2 MSTORE PUSH1 0x20 ADD SWAP1 DUP2 MSTORE PUSH1 0x20 ADD PUSH1 0x0 KECCAK256 DUP2 SWAP1 SSTORE POP DUP5 PUSH20 0xFFFFFFFFFFFFFFFFFFFFFFFFFFFFFFFFFFFFFFFF AND PUSH1 0x0 PUSH20 0xFFFFFFFFFFFFFFFFFFFFFFFFFFFFFFFFFFFFFFFF AND DUP3 PUSH20 0xFFFFFFFFFFFFFFFFFFFFFFFFFFFFFFFFFFFFFFFF AND PUSH32 0xC3D58168C5AE7397731D063D5BBF3D657854427343F4C083240F7AACAA2D0F62 DUP8 DUP8 PUSH1 0x40 MLOAD PUSH2 0x3B62 SWAP3 SWAP2 SWAP1 PUSH2 0x5C3E JUMP JUMPDEST PUSH1 0x40 MLOAD DUP1 SWAP2 SUB SWAP1 LOG4 PUSH2 0x3B79 DUP2 PUSH1 0x0 DUP8 DUP8 DUP8 DUP8 PUSH2 0x37B3 JUMP JUMPDEST POP POP POP POP POP JUMP JUMPDEST PUSH1 0x0 PUSH2 0x3B8C DUP4 DUP4 PUSH2 0x3CA0 JUMP JUMPDEST PUSH2 0x3BE5 JUMPI DUP3 PUSH1 0x0 ADD DUP3 SWAP1 DUP1 PUSH1 0x1 DUP2 SLOAD ADD DUP1 DUP3 SSTORE DUP1 SWAP2 POP POP PUSH1 0x1 SWAP1 SUB SWAP1 PUSH1 0x0 MSTORE PUSH1 0x20 PUSH1 0x0 KECCAK256 ADD PUSH1 0x0 SWAP1 SWAP2 SWAP1 SWAP2 SWAP1 SWAP2 POP SSTORE DUP3 PUSH1 0x0 ADD DUP1 SLOAD SWAP1 POP DUP4 PUSH1 0x1 ADD PUSH1 0x0 DUP5 DUP2 MSTORE PUSH1 0x20 ADD SWAP1 DUP2 MSTORE PUSH1 0x20 ADD PUSH1 0x0 KECCAK256 DUP2 SWAP1 SSTORE POP PUSH1 0x1 SWAP1 POP PUSH2 0x3BEA JUMP JUMPDEST PUSH1 0x0 SWAP1 POP JUMPDEST SWAP3 SWAP2 POP POP JUMP JUMPDEST PUSH1 0x0 DUP1 DUP3 EXTCODESIZE SWAP1 POP PUSH1 0x0 DUP2 GT SWAP2 POP POP SWAP2 SWAP1 POP JUMP JUMPDEST PUSH1 0x0 PUSH2 0x3C2B DUP4 PUSH1 0x0 ADD DUP4 PUSH20 0xFFFFFFFFFFFFFFFFFFFFFFFFFFFFFFFFFFFFFFFF AND PUSH1 0x0 SHL PUSH2 0x3CD4 JUMP JUMPDEST SWAP1 POP SWAP3 SWAP2 POP POP JUMP JUMPDEST PUSH1 0x0 DUP2 DUP4 PUSH1 0x0 ADD DUP1 SLOAD SWAP1 POP GT PUSH2 0x3C7E JUMPI PUSH1 0x40 MLOAD PUSH32 0x8C379A000000000000000000000000000000000000000000000000000000000 DUP2 MSTORE PUSH1 0x4 ADD PUSH2 0x3C75 SWAP1 PUSH2 0x5843 JUMP JUMPDEST PUSH1 0x40 MLOAD DUP1 SWAP2 SUB SWAP1 REVERT JUMPDEST DUP3 PUSH1 0x0 ADD DUP3 DUP2 SLOAD DUP2 LT PUSH2 0x3C8D JUMPI INVALID JUMPDEST SWAP1 PUSH1 0x0 MSTORE PUSH1 0x20 PUSH1 0x0 KECCAK256 ADD SLOAD SWAP1 POP SWAP3 SWAP2 POP POP JUMP JUMPDEST PUSH1 0x0 DUP1 DUP4 PUSH1 0x1 ADD PUSH1 0x0 DUP5 DUP2 MSTORE PUSH1 0x20 ADD SWAP1 DUP2 MSTORE PUSH1 0x20 ADD PUSH1 0x0 KECCAK256 SLOAD EQ ISZERO SWAP1 POP SWAP3 SWAP2 POP POP JUMP JUMPDEST PUSH1 0x0 DUP2 PUSH1 0x0 ADD DUP1 SLOAD SWAP1 POP SWAP1 POP SWAP2 SWAP1 POP JUMP JUMPDEST PUSH1 0x0 DUP1 DUP4 PUSH1 0x1 ADD PUSH1 0x0 DUP5 DUP2 MSTORE PUSH1 0x20 ADD SWAP1 DUP2 MSTORE PUSH1 0x20 ADD PUSH1 0x0 KECCAK256 SLOAD SWAP1 POP PUSH1 0x0 DUP2 EQ PUSH2 0x3DB0 JUMPI PUSH1 0x0 PUSH1 0x1 DUP3 SUB SWAP1 POP PUSH1 0x0 PUSH1 0x1 DUP7 PUSH1 0x0 ADD DUP1 SLOAD SWAP1 POP SUB SWAP1 POP PUSH1 0x0 DUP7 PUSH1 0x0 ADD DUP3 DUP2 SLOAD DUP2 LT PUSH2 0x3D1F JUMPI INVALID JUMPDEST SWAP1 PUSH1 0x0 MSTORE PUSH1 0x20 PUSH1 0x0 KECCAK256 ADD SLOAD SWAP1 POP DUP1 DUP8 PUSH1 0x0 ADD DUP5 DUP2 SLOAD DUP2 LT PUSH2 0x3D3C JUMPI INVALID JUMPDEST SWAP1 PUSH1 0x0 MSTORE PUSH1 0x20 PUSH1 0x0 KECCAK256 ADD DUP2 SWAP1 SSTORE POP PUSH1 0x1 DUP4 ADD DUP8 PUSH1 0x1 ADD PUSH1 0x0 DUP4 DUP2 MSTORE PUSH1 0x20 ADD SWAP1 DUP2 MSTORE PUSH1 0x20 ADD PUSH1 0x0 KECCAK256 DUP2 SWAP1 SSTORE POP DUP7 PUSH1 0x0 ADD DUP1 SLOAD DUP1 PUSH2 0x3D74 JUMPI INVALID JUMPDEST PUSH1 0x1 SWAP1 SUB DUP2 DUP2 SWAP1 PUSH1 0x0 MSTORE PUSH1 0x20 PUSH1 0x0 KECCAK256 ADD PUSH1 0x0 SWAP1 SSTORE SWAP1 SSTORE DUP7 PUSH1 0x1 ADD PUSH1 0x0 DUP8 DUP2 MSTORE PUSH1 0x20 ADD SWAP1 DUP2 MSTORE PUSH1 0x20 ADD PUSH1 0x0 KECCAK256 PUSH1 0x0 SWAP1 SSTORE PUSH1 0x1 SWAP5 POP POP POP POP POP PUSH2 0x3DB6 JUMP JUMPDEST PUSH1 0x0 SWAP2 POP POP JUMPDEST SWAP3 SWAP2 POP POP JUMP JUMPDEST PUSH1 0x40 MLOAD DUP1 PUSH2 0x160 ADD PUSH1 0x40 MSTORE DUP1 PUSH1 0x0 DUP2 MSTORE PUSH1 0x20 ADD PUSH1 0x0 PUSH1 0xFF AND DUP2 MSTORE PUSH1 0x20 ADD PUSH1 0x0 PUSH20 0xFFFFFFFFFFFFFFFFFFFFFFFFFFFFFFFFFFFFFFFF AND DUP2 MSTORE PUSH1 0x20 ADD PUSH1 0x0 PUSH20 0xFFFFFFFFFFFFFFFFFFFFFFFFFFFFFFFFFFFFFFFF AND DUP2 MSTORE PUSH1 0x20 ADD PUSH1 0x0 DUP2 MSTORE PUSH1 0x20 ADD PUSH1 0x0 DUP2 MSTORE PUSH1 0x20 ADD PUSH1 0x0 DUP2 MSTORE PUSH1 0x20 ADD PUSH1 0x0 DUP2 MSTORE PUSH1 0x20 ADD PUSH1 0x60 DUP2 MSTORE PUSH1 0x20 ADD PUSH1 0x60 DUP2 MSTORE PUSH1 0x20 ADD PUSH1 0x60 DUP2 MSTORE POP SWAP1 JUMP JUMPDEST DUP3 DUP1 SLOAD PUSH1 0x1 DUP2 PUSH1 0x1 AND ISZERO PUSH2 0x100 MUL SUB AND PUSH1 0x2 SWAP1 DIV SWAP1 PUSH1 0x0 MSTORE PUSH1 0x20 PUSH1 0x0 KECCAK256 SWAP1 PUSH1 0x1F ADD PUSH1 0x20 SWAP1 DIV DUP2 ADD SWAP3 DUP3 PUSH1 0x1F LT PUSH2 0x3E86 JUMPI DUP1 MLOAD PUSH1 0xFF NOT AND DUP4 DUP1 ADD OR DUP6 SSTORE PUSH2 0x3EB4 JUMP JUMPDEST DUP3 DUP1 ADD PUSH1 0x1 ADD DUP6 SSTORE DUP3 ISZERO PUSH2 0x3EB4 JUMPI SWAP2 DUP3 ADD JUMPDEST DUP3 DUP2 GT ISZERO PUSH2 0x3EB3 JUMPI DUP3 MLOAD DUP3 SSTORE SWAP2 PUSH1 0x20 ADD SWAP2 SWAP1 PUSH1 0x1 ADD SWAP1 PUSH2 0x3E98 JUMP JUMPDEST JUMPDEST POP SWAP1 POP PUSH2 0x3EC1 SWAP2 SWAP1 PUSH2 0x3EC5 JUMP JUMPDEST POP SWAP1 JUMP JUMPDEST JUMPDEST DUP1 DUP3 GT ISZERO PUSH2 0x3EDE JUMPI PUSH1 0x0 DUP2 PUSH1 0x0 SWAP1 SSTORE POP PUSH1 0x1 ADD PUSH2 0x3EC6 JUMP JUMPDEST POP SWAP1 JUMP JUMPDEST PUSH1 0x0 DUP2 CALLDATALOAD SWAP1 POP PUSH2 0x3EF1 DUP2 PUSH2 0x602D JUMP JUMPDEST SWAP3 SWAP2 POP POP JUMP JUMPDEST PUSH1 0x0 DUP3 PUSH1 0x1F DUP4 ADD SLT PUSH2 0x3F08 JUMPI PUSH1 0x0 DUP1 REVERT JUMPDEST DUP2 CALLDATALOAD PUSH2 0x3F1B PUSH2 0x3F16 DUP3 PUSH2 0x5C94 JUMP JUMPDEST PUSH2 0x5C67 JUMP JUMPDEST SWAP2 POP DUP2 DUP2 DUP4 MSTORE PUSH1 0x20 DUP5 ADD SWAP4 POP PUSH1 0x20 DUP2 ADD SWAP1 POP DUP4 DUP6 PUSH1 0x20 DUP5 MUL DUP3 ADD GT ISZERO PUSH2 0x3F40 JUMPI PUSH1 0x0 DUP1 REVERT JUMPDEST PUSH1 0x0 JUMPDEST DUP4 DUP2 LT ISZERO PUSH2 0x3F70 JUMPI DUP2 PUSH2 0x3F56 DUP9 DUP3 PUSH2 0x3EE2 JUMP JUMPDEST DUP5 MSTORE PUSH1 0x20 DUP5 ADD SWAP4 POP PUSH1 0x20 DUP4 ADD SWAP3 POP POP PUSH1 0x1 DUP2 ADD SWAP1 POP PUSH2 0x3F43 JUMP JUMPDEST POP POP POP POP SWAP3 SWAP2 POP POP JUMP JUMPDEST PUSH1 0x0 DUP3 PUSH1 0x1F DUP4 ADD SLT PUSH2 0x3F8B JUMPI PUSH1 0x0 DUP1 REVERT JUMPDEST DUP2 CALLDATALOAD PUSH2 0x3F9E PUSH2 0x3F99 DUP3 PUSH2 0x5CBC JUMP JUMPDEST PUSH2 0x5C67 JUMP JUMPDEST SWAP2 POP DUP2 DUP2 DUP4 MSTORE PUSH1 0x20 DUP5 ADD SWAP4 POP PUSH1 0x20 DUP2 ADD SWAP1 POP DUP4 DUP6 PUSH1 0x20 DUP5 MUL DUP3 ADD GT ISZERO PUSH2 0x3FC3 JUMPI PUSH1 0x0 DUP1 REVERT JUMPDEST PUSH1 0x0 JUMPDEST DUP4 DUP2 LT ISZERO PUSH2 0x3FF3 JUMPI DUP2 PUSH2 0x3FD9 DUP9 DUP3 PUSH2 0x40F9 JUMP JUMPDEST DUP5 MSTORE PUSH1 0x20 DUP5 ADD SWAP4 POP PUSH1 0x20 DUP4 ADD SWAP3 POP POP PUSH1 0x1 DUP2 ADD SWAP1 POP PUSH2 0x3FC6 JUMP JUMPDEST POP POP POP POP SWAP3 SWAP2 POP POP JUMP JUMPDEST PUSH1 0x0 DUP2 CALLDATALOAD SWAP1 POP PUSH2 0x400C DUP2 PUSH2 0x6044 JUMP JUMPDEST SWAP3 SWAP2 POP POP JUMP JUMPDEST PUSH1 0x0 DUP2 CALLDATALOAD SWAP1 POP PUSH2 0x4021 DUP2 PUSH2 0x605B JUMP JUMPDEST SWAP3 SWAP2 POP POP JUMP JUMPDEST PUSH1 0x0 DUP2 CALLDATALOAD SWAP1 POP PUSH2 0x4036 DUP2 PUSH2 0x6072 JUMP JUMPDEST SWAP3 SWAP2 POP POP JUMP JUMPDEST PUSH1 0x0 DUP2 MLOAD SWAP1 POP PUSH2 0x404B DUP2 PUSH2 0x6072 JUMP JUMPDEST SWAP3 SWAP2 POP POP JUMP JUMPDEST PUSH1 0x0 DUP3 PUSH1 0x1F DUP4 ADD SLT PUSH2 0x4062 JUMPI PUSH1 0x0 DUP1 REVERT JUMPDEST DUP2 CALLDATALOAD PUSH2 0x4075 PUSH2 0x4070 DUP3 PUSH2 0x5CE4 JUMP JUMPDEST PUSH2 0x5C67 JUMP JUMPDEST SWAP2 POP DUP1 DUP3 MSTORE PUSH1 0x20 DUP4 ADD PUSH1 0x20 DUP4 ADD DUP6 DUP4 DUP4 ADD GT ISZERO PUSH2 0x4091 JUMPI PUSH1 0x0 DUP1 REVERT JUMPDEST PUSH2 0x409C DUP4 DUP3 DUP5 PUSH2 0x5E95 JUMP JUMPDEST POP POP POP SWAP3 SWAP2 POP POP JUMP JUMPDEST PUSH1 0x0 DUP3 PUSH1 0x1F DUP4 ADD SLT PUSH2 0x40B6 JUMPI PUSH1 0x0 DUP1 REVERT JUMPDEST DUP2 CALLDATALOAD PUSH2 0x40C9 PUSH2 0x40C4 DUP3 PUSH2 0x5D10 JUMP JUMPDEST PUSH2 0x5C67 JUMP JUMPDEST SWAP2 POP DUP1 DUP3 MSTORE PUSH1 0x20 DUP4 ADD PUSH1 0x20 DUP4 ADD DUP6 DUP4 DUP4 ADD GT ISZERO PUSH2 0x40E5 JUMPI PUSH1 0x0 DUP1 REVERT JUMPDEST PUSH2 0x40F0 DUP4 DUP3 DUP5 PUSH2 0x5E95 JUMP JUMPDEST POP POP POP SWAP3 SWAP2 POP POP JUMP JUMPDEST PUSH1 0x0 DUP2 CALLDATALOAD SWAP1 POP PUSH2 0x4108 DUP2 PUSH2 0x6089 JUMP JUMPDEST SWAP3 SWAP2 POP POP JUMP JUMPDEST PUSH1 0x0 DUP2 MLOAD SWAP1 POP PUSH2 0x411D DUP2 PUSH2 0x6089 JUMP JUMPDEST SWAP3 SWAP2 POP POP JUMP JUMPDEST PUSH1 0x0 DUP2 CALLDATALOAD SWAP1 POP PUSH2 0x4132 DUP2 PUSH2 0x60A0 JUMP JUMPDEST SWAP3 SWAP2 POP POP JUMP JUMPDEST PUSH1 0x0 PUSH1 0x20 DUP3 DUP5 SUB SLT ISZERO PUSH2 0x414A JUMPI PUSH1 0x0 DUP1 REVERT JUMPDEST PUSH1 0x0 PUSH2 0x4158 DUP5 DUP3 DUP6 ADD PUSH2 0x3EE2 JUMP JUMPDEST SWAP2 POP POP SWAP3 SWAP2 POP POP JUMP JUMPDEST PUSH1 0x0 DUP1 PUSH1 0x40 DUP4 DUP6 SUB SLT ISZERO PUSH2 0x4174 JUMPI PUSH1 0x0 DUP1 REVERT JUMPDEST PUSH1 0x0 PUSH2 0x4182 DUP6 DUP3 DUP7 ADD PUSH2 0x3EE2 JUMP JUMPDEST SWAP3 POP POP PUSH1 0x20 PUSH2 0x4193 DUP6 DUP3 DUP7 ADD PUSH2 0x3EE2 JUMP JUMPDEST SWAP2 POP POP SWAP3 POP SWAP3 SWAP1 POP JUMP JUMPDEST PUSH1 0x0 DUP1 PUSH1 0x0 DUP1 PUSH1 0x0 PUSH1 0xA0 DUP7 DUP9 SUB SLT ISZERO PUSH2 0x41B5 JUMPI PUSH1 0x0 DUP1 REVERT JUMPDEST PUSH1 0x0 PUSH2 0x41C3 DUP9 DUP3 DUP10 ADD PUSH2 0x3EE2 JUMP JUMPDEST SWAP6 POP POP PUSH1 0x20 PUSH2 0x41D4 DUP9 DUP3 DUP10 ADD PUSH2 0x3EE2 JUMP JUMPDEST SWAP5 POP POP PUSH1 0x40 DUP7 ADD CALLDATALOAD PUSH8 0xFFFFFFFFFFFFFFFF DUP2 GT ISZERO PUSH2 0x41F1 JUMPI PUSH1 0x0 DUP1 REVERT JUMPDEST PUSH2 0x41FD DUP9 DUP3 DUP10 ADD PUSH2 0x3F7A JUMP JUMPDEST SWAP4 POP POP PUSH1 0x60 DUP7 ADD CALLDATALOAD PUSH8 0xFFFFFFFFFFFFFFFF DUP2 GT ISZERO PUSH2 0x421A JUMPI PUSH1 0x0 DUP1 REVERT JUMPDEST PUSH2 0x4226 DUP9 DUP3 DUP10 ADD PUSH2 0x3F7A JUMP JUMPDEST SWAP3 POP POP PUSH1 0x80 DUP7 ADD CALLDATALOAD PUSH8 0xFFFFFFFFFFFFFFFF DUP2 GT ISZERO PUSH2 0x4243 JUMPI PUSH1 0x0 DUP1 REVERT JUMPDEST PUSH2 0x424F DUP9 DUP3 DUP10 ADD PUSH2 0x4051 JUMP JUMPDEST SWAP2 POP POP SWAP3 SWAP6 POP SWAP3 SWAP6 SWAP1 SWAP4 POP JUMP JUMPDEST PUSH1 0x0 DUP1 PUSH1 0x0 DUP1 PUSH1 0x0 PUSH1 0xA0 DUP7 DUP9 SUB SLT ISZERO PUSH2 0x4274 JUMPI PUSH1 0x0 DUP1 REVERT JUMPDEST PUSH1 0x0 PUSH2 0x4282 DUP9 DUP3 DUP10 ADD PUSH2 0x3EE2 JUMP JUMPDEST SWAP6 POP POP PUSH1 0x20 PUSH2 0x4293 DUP9 DUP3 DUP10 ADD PUSH2 0x3EE2 JUMP JUMPDEST SWAP5 POP POP PUSH1 0x40 PUSH2 0x42A4 DUP9 DUP3 DUP10 ADD PUSH2 0x40F9 JUMP JUMPDEST SWAP4 POP POP PUSH1 0x60 PUSH2 0x42B5 DUP9 DUP3 DUP10 ADD PUSH2 0x40F9 JUMP JUMPDEST SWAP3 POP POP PUSH1 0x80 DUP7 ADD CALLDATALOAD PUSH8 0xFFFFFFFFFFFFFFFF DUP2 GT ISZERO PUSH2 0x42D2 JUMPI PUSH1 0x0 DUP1 REVERT JUMPDEST PUSH2 0x42DE DUP9 DUP3 DUP10 ADD PUSH2 0x4051 JUMP JUMPDEST SWAP2 POP POP SWAP3 SWAP6 POP SWAP3 SWAP6 SWAP1 SWAP4 POP JUMP JUMPDEST PUSH1 0x0 DUP1 PUSH1 0x40 DUP4 DUP6 SUB SLT ISZERO PUSH2 0x42FE JUMPI PUSH1 0x0 DUP1 REVERT JUMPDEST PUSH1 0x0 PUSH2 0x430C DUP6 DUP3 DUP7 ADD PUSH2 0x3EE2 JUMP JUMPDEST SWAP3 POP POP PUSH1 0x20 PUSH2 0x431D DUP6 DUP3 DUP7 ADD PUSH2 0x3FFD JUMP JUMPDEST SWAP2 POP POP SWAP3 POP SWAP3 SWAP1 POP JUMP JUMPDEST PUSH1 0x0 DUP1 PUSH1 0x40 DUP4 DUP6 SUB SLT ISZERO PUSH2 0x433A JUMPI PUSH1 0x0 DUP1 REVERT JUMPDEST PUSH1 0x0 PUSH2 0x4348 DUP6 DUP3 DUP7 ADD PUSH2 0x3EE2 JUMP JUMPDEST SWAP3 POP POP PUSH1 0x20 PUSH2 0x4359 DUP6 DUP3 DUP7 ADD PUSH2 0x40F9 JUMP JUMPDEST SWAP2 POP POP SWAP3 POP SWAP3 SWAP1 POP JUMP JUMPDEST PUSH1 0x0 DUP1 PUSH1 0x0 PUSH1 0x60 DUP5 DUP7 SUB SLT ISZERO PUSH2 0x4378 JUMPI PUSH1 0x0 DUP1 REVERT JUMPDEST PUSH1 0x0 PUSH2 0x4386 DUP7 DUP3 DUP8 ADD PUSH2 0x3EE2 JUMP JUMPDEST SWAP4 POP POP PUSH1 0x20 PUSH2 0x4397 DUP7 DUP3 DUP8 ADD PUSH2 0x40F9 JUMP JUMPDEST SWAP3 POP POP PUSH1 0x40 PUSH2 0x43A8 DUP7 DUP3 DUP8 ADD PUSH2 0x40F9 JUMP JUMPDEST SWAP2 POP POP SWAP3 POP SWAP3 POP SWAP3 JUMP JUMPDEST PUSH1 0x0 DUP1 PUSH1 0x40 DUP4 DUP6 SUB SLT ISZERO PUSH2 0x43C5 JUMPI PUSH1 0x0 DUP1 REVERT JUMPDEST PUSH1 0x0 PUSH2 0x43D3 DUP6 DUP3 DUP7 ADD PUSH2 0x3EE2 JUMP JUMPDEST SWAP3 POP POP PUSH1 0x20 PUSH2 0x43E4 DUP6 DUP3 DUP7 ADD PUSH2 0x4123 JUMP JUMPDEST SWAP2 POP POP SWAP3 POP SWAP3 SWAP1 POP JUMP JUMPDEST PUSH1 0x0 DUP1 PUSH1 0x0 DUP1 PUSH1 0x0 DUP1 PUSH1 0x0 DUP1 PUSH1 0x0 PUSH2 0x120 DUP11 DUP13 SUB SLT ISZERO PUSH2 0x440D JUMPI PUSH1 0x0 DUP1 REVERT JUMPDEST PUSH1 0x0 PUSH2 0x441B DUP13 DUP3 DUP14 ADD PUSH2 0x3EE2 JUMP JUMPDEST SWAP10 POP POP PUSH1 0x20 PUSH2 0x442C DUP13 DUP3 DUP14 ADD PUSH2 0x4123 JUMP JUMPDEST SWAP9 POP POP PUSH1 0x40 PUSH2 0x443D DUP13 DUP3 DUP14 ADD PUSH2 0x40F9 JUMP JUMPDEST SWAP8 POP POP PUSH1 0x60 PUSH2 0x444E DUP13 DUP3 DUP14 ADD PUSH2 0x40F9 JUMP JUMPDEST SWAP7 POP POP PUSH1 0x80 PUSH2 0x445F DUP13 DUP3 DUP14 ADD PUSH2 0x40F9 JUMP JUMPDEST SWAP6 POP POP PUSH1 0xA0 PUSH2 0x4470 DUP13 DUP3 DUP14 ADD PUSH2 0x40F9 JUMP JUMPDEST SWAP5 POP POP PUSH1 0xC0 DUP11 ADD CALLDATALOAD PUSH8 0xFFFFFFFFFFFFFFFF DUP2 GT ISZERO PUSH2 0x448D JUMPI PUSH1 0x0 DUP1 REVERT JUMPDEST PUSH2 0x4499 DUP13 DUP3 DUP14 ADD PUSH2 0x40A5 JUMP JUMPDEST SWAP4 POP POP PUSH1 0xE0 DUP11 ADD CALLDATALOAD PUSH8 0xFFFFFFFFFFFFFFFF DUP2 GT ISZERO PUSH2 0x44B6 JUMPI PUSH1 0x0 DUP1 REVERT JUMPDEST PUSH2 0x44C2 DUP13 DUP3 DUP14 ADD PUSH2 0x40A5 JUMP JUMPDEST SWAP3 POP POP PUSH2 0x100 DUP11 ADD CALLDATALOAD PUSH8 0xFFFFFFFFFFFFFFFF DUP2 GT ISZERO PUSH2 0x44E0 JUMPI PUSH1 0x0 DUP1 REVERT JUMPDEST PUSH2 0x44EC DUP13 DUP3 DUP14 ADD PUSH2 0x40A5 JUMP JUMPDEST SWAP2 POP POP SWAP3 SWAP6 SWAP9 POP SWAP3 SWAP6 SWAP9 POP SWAP3 SWAP6 SWAP9 JUMP JUMPDEST PUSH1 0x0 DUP1 PUSH1 0x40 DUP4 DUP6 SUB SLT ISZERO PUSH2 0x450F JUMPI PUSH1 0x0 DUP1 REVERT JUMPDEST PUSH1 0x0 DUP4 ADD CALLDATALOAD PUSH8 0xFFFFFFFFFFFFFFFF DUP2 GT ISZERO PUSH2 0x4529 JUMPI PUSH1 0x0 DUP1 REVERT JUMPDEST PUSH2 0x4535 DUP6 DUP3 DUP7 ADD PUSH2 0x3EF7 JUMP JUMPDEST SWAP3 POP POP PUSH1 0x20 DUP4 ADD CALLDATALOAD PUSH8 0xFFFFFFFFFFFFFFFF DUP2 GT ISZERO PUSH2 0x4552 JUMPI PUSH1 0x0 DUP1 REVERT JUMPDEST PUSH2 0x455E DUP6 DUP3 DUP7 ADD PUSH2 0x3F7A JUMP JUMPDEST SWAP2 POP POP SWAP3 POP SWAP3 SWAP1 POP JUMP JUMPDEST PUSH1 0x0 PUSH1 0x20 DUP3 DUP5 SUB SLT ISZERO PUSH2 0x457A JUMPI PUSH1 0x0 DUP1 REVERT JUMPDEST PUSH1 0x0 PUSH2 0x4588 DUP5 DUP3 DUP6 ADD PUSH2 0x4012 JUMP JUMPDEST SWAP2 POP POP SWAP3 SWAP2 POP POP JUMP JUMPDEST PUSH1 0x0 DUP1 PUSH1 0x40 DUP4 DUP6 SUB SLT ISZERO PUSH2 0x45A4 JUMPI PUSH1 0x0 DUP1 REVERT JUMPDEST PUSH1 0x0 PUSH2 0x45B2 DUP6 DUP3 DUP7 ADD PUSH2 0x4012 JUMP JUMPDEST SWAP3 POP POP PUSH1 0x20 PUSH2 0x45C3 DUP6 DUP3 DUP7 ADD PUSH2 0x3EE2 JUMP JUMPDEST SWAP2 POP POP SWAP3 POP SWAP3 SWAP1 POP JUMP JUMPDEST PUSH1 0x0 DUP1 PUSH1 0x40 DUP4 DUP6 SUB SLT ISZERO PUSH2 0x45E0 JUMPI PUSH1 0x0 DUP1 REVERT JUMPDEST PUSH1 0x0 PUSH2 0x45EE DUP6 DUP3 DUP7 ADD PUSH2 0x4012 JUMP JUMPDEST SWAP3 POP POP PUSH1 0x20 PUSH2 0x45FF DUP6 DUP3 DUP7 ADD PUSH2 0x40F9 JUMP JUMPDEST SWAP2 POP POP SWAP3 POP SWAP3 SWAP1 POP JUMP JUMPDEST PUSH1 0x0 PUSH1 0x20 DUP3 DUP5 SUB SLT ISZERO PUSH2 0x461B JUMPI PUSH1 0x0 DUP1 REVERT JUMPDEST PUSH1 0x0 PUSH2 0x4629 DUP5 DUP3 DUP6 ADD PUSH2 0x4027 JUMP JUMPDEST SWAP2 POP POP SWAP3 SWAP2 POP POP JUMP JUMPDEST PUSH1 0x0 PUSH1 0x20 DUP3 DUP5 SUB SLT ISZERO PUSH2 0x4644 JUMPI PUSH1 0x0 DUP1 REVERT JUMPDEST PUSH1 0x0 PUSH2 0x4652 DUP5 DUP3 DUP6 ADD PUSH2 0x403C JUMP JUMPDEST SWAP2 POP POP SWAP3 SWAP2 POP POP JUMP JUMPDEST PUSH1 0x0 PUSH1 0x20 DUP3 DUP5 SUB SLT ISZERO PUSH2 0x466D JUMPI PUSH1 0x0 DUP1 REVERT JUMPDEST PUSH1 0x0 PUSH2 0x467B DUP5 DUP3 DUP6 ADD PUSH2 0x40F9 JUMP JUMPDEST SWAP2 POP POP SWAP3 SWAP2 POP POP JUMP JUMPDEST PUSH1 0x0 PUSH1 0x20 DUP3 DUP5 SUB SLT ISZERO PUSH2 0x4696 JUMPI PUSH1 0x0 DUP1 REVERT JUMPDEST PUSH1 0x0 PUSH2 0x46A4 DUP5 DUP3 DUP6 ADD PUSH2 0x410E JUMP JUMPDEST SWAP2 POP POP SWAP3 SWAP2 POP POP JUMP JUMPDEST PUSH1 0x0 DUP1 PUSH1 0x40 DUP4 DUP6 SUB SLT ISZERO PUSH2 0x46C0 JUMPI PUSH1 0x0 DUP1 REVERT JUMPDEST PUSH1 0x0 PUSH2 0x46CE DUP6 DUP3 DUP7 ADD PUSH2 0x40F9 JUMP JUMPDEST SWAP3 POP POP PUSH1 0x20 PUSH2 0x46DF DUP6 DUP3 DUP7 ADD PUSH2 0x40F9 JUMP JUMPDEST SWAP2 POP POP SWAP3 POP SWAP3 SWAP1 POP JUMP JUMPDEST PUSH1 0x0 PUSH2 0x46F5 DUP4 DUP4 PUSH2 0x55EC JUMP JUMPDEST PUSH1 0x20 DUP4 ADD SWAP1 POP SWAP3 SWAP2 POP POP JUMP JUMPDEST PUSH2 0x470A DUP2 PUSH2 0x5E0A JUMP JUMPDEST DUP3 MSTORE POP POP JUMP JUMPDEST PUSH2 0x4719 DUP2 PUSH2 0x5E0A JUMP JUMPDEST DUP3 MSTORE POP POP JUMP JUMPDEST PUSH1 0x0 PUSH2 0x472A DUP3 PUSH2 0x5D61 JUMP JUMPDEST PUSH2 0x4734 DUP2 DUP6 PUSH2 0x5D8F JUMP JUMPDEST SWAP4 POP PUSH2 0x473F DUP4 PUSH2 0x5D3C JUMP JUMPDEST DUP1 PUSH1 0x0 JUMPDEST DUP4 DUP2 LT ISZERO PUSH2 0x4770 JUMPI DUP2 MLOAD PUSH2 0x4757 DUP9 DUP3 PUSH2 0x46E9 JUMP JUMPDEST SWAP8 POP PUSH2 0x4762 DUP4 PUSH2 0x5D82 JUMP JUMPDEST SWAP3 POP POP PUSH1 0x1 DUP2 ADD SWAP1 POP PUSH2 0x4743 JUMP JUMPDEST POP DUP6 SWAP4 POP POP POP POP SWAP3 SWAP2 POP POP JUMP JUMPDEST PUSH2 0x4786 DUP2 PUSH2 0x5E1C JUMP JUMPDEST DUP3 MSTORE POP POP JUMP JUMPDEST PUSH2 0x4795 DUP2 PUSH2 0x5E28 JUMP JUMPDEST DUP3 MSTORE POP POP JUMP JUMPDEST PUSH1 0x0 PUSH2 0x47A6 DUP3 PUSH2 0x5D6C JUMP JUMPDEST PUSH2 0x47B0 DUP2 DUP6 PUSH2 0x5DA0 JUMP JUMPDEST SWAP4 POP PUSH2 0x47C0 DUP2 DUP6 PUSH1 0x20 DUP7 ADD PUSH2 0x5EA4 JUMP JUMPDEST PUSH2 0x47C9 DUP2 PUSH2 0x5F3F JUMP JUMPDEST DUP5 ADD SWAP2 POP POP SWAP3 SWAP2 POP POP JUMP JUMPDEST PUSH1 0x0 PUSH2 0x47DF DUP3 PUSH2 0x5D77 JUMP JUMPDEST PUSH2 0x47E9 DUP2 DUP6 PUSH2 0x5DB1 JUMP JUMPDEST SWAP4 POP PUSH2 0x47F9 DUP2 DUP6 PUSH1 0x20 DUP7 ADD PUSH2 0x5EA4 JUMP JUMPDEST PUSH2 0x4802 DUP2 PUSH2 0x5F3F JUMP JUMPDEST DUP5 ADD SWAP2 POP POP SWAP3 SWAP2 POP POP JUMP JUMPDEST PUSH1 0x0 PUSH2 0x4818 DUP3 PUSH2 0x5D77 JUMP JUMPDEST PUSH2 0x4822 DUP2 DUP6 PUSH2 0x5DC2 JUMP JUMPDEST SWAP4 POP PUSH2 0x4832 DUP2 DUP6 PUSH1 0x20 DUP7 ADD PUSH2 0x5EA4 JUMP JUMPDEST PUSH2 0x483B DUP2 PUSH2 0x5F3F JUMP JUMPDEST DUP5 ADD SWAP2 POP POP SWAP3 SWAP2 POP POP JUMP JUMPDEST PUSH1 0x0 DUP2 SLOAD PUSH1 0x1 DUP2 AND PUSH1 0x0 DUP2 EQ PUSH2 0x4863 JUMPI PUSH1 0x1 DUP2 EQ PUSH2 0x4889 JUMPI PUSH2 0x48CD JUMP JUMPDEST PUSH1 0x7F PUSH1 0x2 DUP4 DIV AND PUSH2 0x4874 DUP2 DUP8 PUSH2 0x5DB1 JUMP JUMPDEST SWAP6 POP PUSH1 0xFF NOT DUP4 AND DUP7 MSTORE PUSH1 0x20 DUP7 ADD SWAP4 POP POP PUSH2 0x48CD JUMP JUMPDEST PUSH1 0x2 DUP3 DIV PUSH2 0x4897 DUP2 DUP8 PUSH2 0x5DB1 JUMP JUMPDEST SWAP6 POP PUSH2 0x48A2 DUP6 PUSH2 0x5D4C JUMP JUMPDEST PUSH1 0x0 JUMPDEST DUP3 DUP2 LT ISZERO PUSH2 0x48C4 JUMPI DUP2 SLOAD DUP2 DUP10 ADD MSTORE PUSH1 0x1 DUP3 ADD SWAP2 POP PUSH1 0x20 DUP2 ADD SWAP1 POP PUSH2 0x48A5 JUMP JUMPDEST DUP1 DUP9 ADD SWAP6 POP POP POP POP JUMPDEST POP POP SWAP3 SWAP2 POP POP JUMP JUMPDEST PUSH1 0x0 PUSH2 0x48E2 PUSH1 0x34 DUP4 PUSH2 0x5DC2 JUMP JUMPDEST SWAP2 POP PUSH32 0x455243313135353A207472616E7366657220746F206E6F6E2045524331313535 PUSH1 0x0 DUP4 ADD MSTORE PUSH32 0x526563656976657220696D706C656D656E746572000000000000000000000000 PUSH1 0x20 DUP4 ADD MSTORE PUSH1 0x40 DUP3 ADD SWAP1 POP SWAP2 SWAP1 POP JUMP JUMPDEST PUSH1 0x0 PUSH2 0x4948 PUSH1 0x22 DUP4 PUSH2 0x5DC2 JUMP JUMPDEST SWAP2 POP PUSH32 0x456E756D657261626C655365743A20696E646578206F7574206F6620626F756E PUSH1 0x0 DUP4 ADD MSTORE PUSH32 0x6473000000000000000000000000000000000000000000000000000000000000 PUSH1 0x20 DUP4 ADD MSTORE PUSH1 0x40 DUP3 ADD SWAP1 POP SWAP2 SWAP1 POP JUMP JUMPDEST PUSH1 0x0 PUSH2 0x49AE PUSH1 0x28 DUP4 PUSH2 0x5DC2 JUMP JUMPDEST SWAP2 POP PUSH32 0x455243313135353A204552433131353552656365697665722072656A65637465 PUSH1 0x0 DUP4 ADD MSTORE PUSH32 0x6420746F6B656E73000000000000000000000000000000000000000000000000 PUSH1 0x20 DUP4 ADD MSTORE PUSH1 0x40 DUP3 ADD SWAP1 POP SWAP2 SWAP1 POP JUMP JUMPDEST PUSH1 0x0 PUSH2 0x4A14 PUSH1 0x26 DUP4 PUSH2 0x5DC2 JUMP JUMPDEST SWAP2 POP PUSH32 0x4E6F7420656E6F75676820617661696C61626C652062616C616E636520746F20 PUSH1 0x0 DUP4 ADD MSTORE PUSH32 0x7265746972650000000000000000000000000000000000000000000000000000 PUSH1 0x20 DUP4 ADD MSTORE PUSH1 0x40 DUP3 ADD SWAP1 POP SWAP2 SWAP1 POP JUMP JUMPDEST PUSH1 0x0 PUSH2 0x4A7A PUSH1 0x2F DUP4 PUSH2 0x5DC2 JUMP JUMPDEST SWAP2 POP PUSH32 0x416363657373436F6E74726F6C3A2073656E646572206D75737420626520616E PUSH1 0x0 DUP4 ADD MSTORE PUSH32 0x2061646D696E20746F206772616E740000000000000000000000000000000000 PUSH1 0x20 DUP4 ADD MSTORE PUSH1 0x40 DUP3 ADD SWAP1 POP SWAP2 SWAP1 POP JUMP JUMPDEST PUSH1 0x0 PUSH2 0x4AE0 PUSH1 0x2B DUP4 PUSH2 0x5DC2 JUMP JUMPDEST SWAP2 POP PUSH32 0x455243313135353A2062616C616E636520717565727920666F7220746865207A PUSH1 0x0 DUP4 ADD MSTORE PUSH32 0x65726F2061646472657373000000000000000000000000000000000000000000 PUSH1 0x20 DUP4 ADD MSTORE PUSH1 0x40 DUP3 ADD SWAP1 POP SWAP2 SWAP1 POP JUMP JUMPDEST PUSH1 0x0 PUSH2 0x4B46 PUSH1 0x31 DUP4 PUSH2 0x5DC2 JUMP JUMPDEST SWAP2 POP PUSH32 0x455243313135353A2062617463682062616C616E636520717565727920666F72 PUSH1 0x0 DUP4 ADD MSTORE PUSH32 0x20746865207A65726F2061646472657373000000000000000000000000000000 PUSH1 0x20 DUP4 ADD MSTORE PUSH1 0x40 DUP3 ADD SWAP1 POP SWAP2 SWAP1 POP JUMP JUMPDEST PUSH1 0x0 PUSH2 0x4BAC PUSH1 0x1B DUP4 PUSH2 0x5DC2 JUMP JUMPDEST SWAP2 POP PUSH32 0x536166654D6174683A206164646974696F6E206F766572666C6F770000000000 PUSH1 0x0 DUP4 ADD MSTORE PUSH1 0x20 DUP3 ADD SWAP1 POP SWAP2 SWAP1 POP JUMP JUMPDEST PUSH1 0x0 PUSH2 0x4BEC PUSH1 0x16 DUP4 PUSH2 0x5DC2 JUMP JUMPDEST SWAP2 POP PUSH32 0x746F6B656E496420646F6573206E6F7420657869737400000000000000000000 PUSH1 0x0 DUP4 ADD MSTORE PUSH1 0x20 DUP3 ADD SWAP1 POP SWAP2 SWAP1 POP JUMP JUMPDEST PUSH1 0x0 PUSH2 0x4C2C PUSH1 0x29 DUP4 PUSH2 0x5DC2 JUMP JUMPDEST SWAP2 POP PUSH32 0x455243313135353A2063616C6C6572206973206E6F74206F776E6572206E6F72 PUSH1 0x0 DUP4 ADD MSTORE PUSH32 0x20617070726F7665640000000000000000000000000000000000000000000000 PUSH1 0x20 DUP4 ADD MSTORE PUSH1 0x40 DUP3 ADD SWAP1 POP SWAP2 SWAP1 POP JUMP JUMPDEST PUSH1 0x0 PUSH2 0x4C92 PUSH1 0x15 DUP4 PUSH2 0x5DC2 JUMP JUMPDEST SWAP2 POP PUSH32 0x596F7520617265206E6F7420746865206F776E65720000000000000000000000 PUSH1 0x0 DUP4 ADD MSTORE PUSH1 0x20 DUP3 ADD SWAP1 POP SWAP2 SWAP1 POP JUMP JUMPDEST PUSH1 0x0 PUSH2 0x4CD2 PUSH1 0x30 DUP4 PUSH2 0x5DC2 JUMP JUMPDEST SWAP2 POP PUSH32 0x416363657373436F6E74726F6C3A2073656E646572206D75737420626520616E PUSH1 0x0 DUP4 ADD MSTORE PUSH32 0x2061646D696E20746F207265766F6B6500000000000000000000000000000000 PUSH1 0x20 DUP4 ADD MSTORE PUSH1 0x40 DUP3 ADD SWAP1 POP SWAP2 SWAP1 POP JUMP JUMPDEST PUSH1 0x0 PUSH2 0x4D38 PUSH1 0x25 DUP4 PUSH2 0x5DC2 JUMP JUMPDEST SWAP2 POP PUSH32 0x455243313135353A207472616E7366657220746F20746865207A65726F206164 PUSH1 0x0 DUP4 ADD MSTORE PUSH32 0x6472657373000000000000000000000000000000000000000000000000000000 PUSH1 0x20 DUP4 ADD MSTORE PUSH1 0x40 DUP3 ADD SWAP1 POP SWAP2 SWAP1 POP JUMP JUMPDEST PUSH1 0x0 PUSH2 0x4D9E PUSH1 0x32 DUP4 PUSH2 0x5DC2 JUMP JUMPDEST SWAP2 POP PUSH32 0x455243313135353A207472616E736665722063616C6C6572206973206E6F7420 PUSH1 0x0 DUP4 ADD MSTORE PUSH32 0x6F776E6572206E6F7220617070726F7665640000000000000000000000000000 PUSH1 0x20 DUP4 ADD MSTORE PUSH1 0x40 DUP3 ADD SWAP1 POP SWAP2 SWAP1 POP JUMP JUMPDEST PUSH1 0x0 PUSH2 0x4E04 PUSH1 0x27 DUP4 PUSH2 0x5DC2 JUMP JUMPDEST SWAP2 POP PUSH32 0x4661696C656420746F2069737375653A20746F6B656E54797065496420697320 PUSH1 0x0 DUP4 ADD MSTORE PUSH32 0x696E76616C696400000000000000000000000000000000000000000000000000 PUSH1 0x20 DUP4 ADD MSTORE PUSH1 0x40 DUP3 ADD SWAP1 POP SWAP2 SWAP1 POP JUMP JUMPDEST PUSH1 0x0 PUSH2 0x4E6A PUSH1 0x23 DUP4 PUSH2 0x5DC2 JUMP JUMPDEST SWAP2 POP PUSH32 0x455243313135353A206275726E2066726F6D20746865207A65726F2061646472 PUSH1 0x0 DUP4 ADD MSTORE PUSH32 0x6573730000000000000000000000000000000000000000000000000000000000 PUSH1 0x20 DUP4 ADD MSTORE PUSH1 0x40 DUP3 ADD SWAP1 POP SWAP2 SWAP1 POP JUMP JUMPDEST PUSH1 0x0 PUSH2 0x4ED0 PUSH1 0x14 DUP4 PUSH2 0x5DC2 JUMP JUMPDEST SWAP2 POP PUSH32 0x596F7520617265206E6F742061206465616C6572000000000000000000000000 PUSH1 0x0 DUP4 ADD MSTORE PUSH1 0x20 DUP3 ADD SWAP1 POP SWAP2 SWAP1 POP JUMP JUMPDEST PUSH1 0x0 PUSH2 0x4F10 PUSH1 0x31 DUP4 PUSH2 0x5DC2 JUMP JUMPDEST SWAP2 POP PUSH32 0x596F7520617265206E6F7420612052656E657761626C6520456E657267792043 PUSH1 0x0 DUP4 ADD MSTORE PUSH32 0x65727469666963617465206465616C6572000000000000000000000000000000 PUSH1 0x20 DUP4 ADD MSTORE PUSH1 0x40 DUP3 ADD SWAP1 POP SWAP2 SWAP1 POP JUMP JUMPDEST PUSH1 0x0 PUSH2 0x4F76 PUSH1 0x2C DUP4 PUSH2 0x5DC2 JUMP JUMPDEST SWAP2 POP PUSH32 0x596F7520617265206E6F74206120436172626F6E20456D697373696F6E73204F PUSH1 0x0 DUP4 ADD MSTORE PUSH32 0x6666736574206465616C65720000000000000000000000000000000000000000 PUSH1 0x20 DUP4 ADD MSTORE PUSH1 0x40 DUP3 ADD SWAP1 POP SWAP2 SWAP1 POP JUMP JUMPDEST PUSH1 0x0 PUSH2 0x4FDC PUSH1 0x29 DUP4 PUSH2 0x5DC2 JUMP JUMPDEST SWAP2 POP PUSH32 0x596F75206D75737420626520656974686572206120636F6E73756D6572206F72 PUSH1 0x0 DUP4 ADD MSTORE PUSH32 0x2061206465616C65720000000000000000000000000000000000000000000000 PUSH1 0x20 DUP4 ADD MSTORE PUSH1 0x40 DUP3 ADD SWAP1 POP SWAP2 SWAP1 POP JUMP JUMPDEST PUSH1 0x0 PUSH2 0x5042 PUSH1 0x19 DUP4 PUSH2 0x5DC2 JUMP JUMPDEST SWAP2 POP PUSH32 0x546F6B656E207479706520646F6573206E6F7420657869737400000000000000 PUSH1 0x0 DUP4 ADD MSTORE PUSH1 0x20 DUP3 ADD SWAP1 POP SWAP2 SWAP1 POP JUMP JUMPDEST PUSH1 0x0 PUSH2 0x5082 PUSH1 0x24 DUP4 PUSH2 0x5DC2 JUMP JUMPDEST SWAP2 POP PUSH32 0x526563697069656E74206D75737420626520636F6E73756D6572206F72206465 PUSH1 0x0 DUP4 ADD MSTORE PUSH32 0x616C657200000000000000000000000000000000000000000000000000000000 PUSH1 0x20 DUP4 ADD MSTORE PUSH1 0x40 DUP3 ADD SWAP1 POP SWAP2 SWAP1 POP JUMP JUMPDEST PUSH1 0x0 PUSH2 0x50E8 PUSH1 0x27 DUP4 PUSH2 0x5DC2 JUMP JUMPDEST SWAP2 POP PUSH32 0x596F7520617265206E6F7420616E204175646974656420456D697373696F6E73 PUSH1 0x0 DUP4 ADD MSTORE PUSH32 0x206465616C657200000000000000000000000000000000000000000000000000 PUSH1 0x20 DUP4 ADD MSTORE PUSH1 0x40 DUP3 ADD SWAP1 POP SWAP2 SWAP1 POP JUMP JUMPDEST PUSH1 0x0 PUSH2 0x514E PUSH1 0x29 DUP4 PUSH2 0x5DC2 JUMP JUMPDEST SWAP2 POP PUSH32 0x455243313135353A2073657474696E6720617070726F76616C20737461747573 PUSH1 0x0 DUP4 ADD MSTORE PUSH32 0x20666F722073656C660000000000000000000000000000000000000000000000 PUSH1 0x20 DUP4 ADD MSTORE PUSH1 0x40 DUP3 ADD SWAP1 POP SWAP2 SWAP1 POP JUMP JUMPDEST PUSH1 0x0 PUSH2 0x51B4 PUSH1 0x29 DUP4 PUSH2 0x5DC2 JUMP JUMPDEST SWAP2 POP PUSH32 0x455243313135353A206163636F756E747320616E6420696473206C656E677468 PUSH1 0x0 DUP4 ADD MSTORE PUSH32 0x206D69736D617463680000000000000000000000000000000000000000000000 PUSH1 0x20 DUP4 ADD MSTORE PUSH1 0x40 DUP3 ADD SWAP1 POP SWAP2 SWAP1 POP JUMP JUMPDEST PUSH1 0x0 PUSH2 0x521A PUSH1 0x26 DUP4 PUSH2 0x5DC2 JUMP JUMPDEST SWAP2 POP PUSH32 0x53656E64657220616E642072656365697665722063616E6E6F74206265207468 PUSH1 0x0 DUP4 ADD MSTORE PUSH32 0x652073616D650000000000000000000000000000000000000000000000000000 PUSH1 0x20 DUP4 ADD MSTORE PUSH1 0x40 DUP3 ADD SWAP1 POP SWAP2 SWAP1 POP JUMP JUMPDEST PUSH1 0x0 PUSH2 0x5280 PUSH1 0x28 DUP4 PUSH2 0x5DC2 JUMP JUMPDEST SWAP2 POP PUSH32 0x455243313135353A2069647320616E6420616D6F756E7473206C656E67746820 PUSH1 0x0 DUP4 ADD MSTORE PUSH32 0x6D69736D61746368000000000000000000000000000000000000000000000000 PUSH1 0x20 DUP4 ADD MSTORE PUSH1 0x40 DUP3 ADD SWAP1 POP SWAP2 SWAP1 POP JUMP JUMPDEST PUSH1 0x0 PUSH2 0x52E6 PUSH1 0x21 DUP4 PUSH2 0x5DC2 JUMP JUMPDEST SWAP2 POP PUSH32 0x455243313135353A206D696E7420746F20746865207A65726F20616464726573 PUSH1 0x0 DUP4 ADD MSTORE PUSH32 0x7300000000000000000000000000000000000000000000000000000000000000 PUSH1 0x20 DUP4 ADD MSTORE PUSH1 0x40 DUP3 ADD SWAP1 POP SWAP2 SWAP1 POP JUMP JUMPDEST PUSH1 0x0 PUSH2 0x534C PUSH1 0x2F DUP4 PUSH2 0x5DC2 JUMP JUMPDEST SWAP2 POP PUSH32 0x416363657373436F6E74726F6C3A2063616E206F6E6C792072656E6F756E6365 PUSH1 0x0 DUP4 ADD MSTORE PUSH32 0x20726F6C657320666F722073656C660000000000000000000000000000000000 PUSH1 0x20 DUP4 ADD MSTORE PUSH1 0x40 DUP3 ADD SWAP1 POP SWAP2 SWAP1 POP JUMP JUMPDEST PUSH1 0x0 PUSH2 0x160 DUP4 ADD PUSH1 0x0 DUP4 ADD MLOAD PUSH2 0x53BE PUSH1 0x0 DUP7 ADD DUP3 PUSH2 0x55EC JUMP JUMPDEST POP PUSH1 0x20 DUP4 ADD MLOAD PUSH2 0x53D1 PUSH1 0x20 DUP7 ADD DUP3 PUSH2 0x560A JUMP JUMPDEST POP PUSH1 0x40 DUP4 ADD MLOAD PUSH2 0x53E4 PUSH1 0x40 DUP7 ADD DUP3 PUSH2 0x4701 JUMP JUMPDEST POP PUSH1 0x60 DUP4 ADD MLOAD PUSH2 0x53F7 PUSH1 0x60 DUP7 ADD DUP3 PUSH2 0x4701 JUMP JUMPDEST POP PUSH1 0x80 DUP4 ADD MLOAD PUSH2 0x540A PUSH1 0x80 DUP7 ADD DUP3 PUSH2 0x55EC JUMP JUMPDEST POP PUSH1 0xA0 DUP4 ADD MLOAD PUSH2 0x541D PUSH1 0xA0 DUP7 ADD DUP3 PUSH2 0x55EC JUMP JUMPDEST POP PUSH1 0xC0 DUP4 ADD MLOAD PUSH2 0x5430 PUSH1 0xC0 DUP7 ADD DUP3 PUSH2 0x55EC JUMP JUMPDEST POP PUSH1 0xE0 DUP4 ADD MLOAD PUSH2 0x5443 PUSH1 0xE0 DUP7 ADD DUP3 PUSH2 0x55EC JUMP JUMPDEST POP PUSH2 0x100 DUP4 ADD MLOAD DUP5 DUP3 SUB PUSH2 0x100 DUP7 ADD MSTORE PUSH2 0x545D DUP3 DUP3 PUSH2 0x47D4 JUMP JUMPDEST SWAP2 POP POP PUSH2 0x120 DUP4 ADD MLOAD DUP5 DUP3 SUB PUSH2 0x120 DUP7 ADD MSTORE PUSH2 0x5479 DUP3 DUP3 PUSH2 0x47D4 JUMP JUMPDEST SWAP2 POP POP PUSH2 0x140 DUP4 ADD MLOAD DUP5 DUP3 SUB PUSH2 0x140 DUP7 ADD MSTORE PUSH2 0x5495 DUP3 DUP3 PUSH2 0x47D4 JUMP JUMPDEST SWAP2 POP POP DUP1 SWAP2 POP POP SWAP3 SWAP2 POP POP JUMP JUMPDEST PUSH1 0x0 PUSH2 0x160 DUP4 ADD PUSH1 0x0 DUP1 DUP5 ADD SLOAD SWAP1 POP PUSH2 0x54BA DUP2 PUSH2 0x5EF1 JUMP JUMPDEST PUSH2 0x54C7 PUSH1 0x0 DUP8 ADD DUP3 PUSH2 0x55EC JUMP JUMPDEST POP PUSH1 0x1 DUP5 ADD SLOAD SWAP1 POP PUSH2 0x54D8 DUP2 PUSH2 0x5F0B JUMP JUMPDEST PUSH2 0x54E5 PUSH1 0x20 DUP8 ADD DUP3 PUSH2 0x560A JUMP JUMPDEST POP PUSH2 0x54EF DUP2 PUSH2 0x5F25 JUMP JUMPDEST PUSH2 0x54FC PUSH1 0x40 DUP8 ADD DUP3 PUSH2 0x4701 JUMP JUMPDEST POP PUSH1 0x2 DUP5 ADD SLOAD SWAP1 POP PUSH2 0x550D DUP2 PUSH2 0x5ED7 JUMP JUMPDEST PUSH2 0x551A PUSH1 0x60 DUP8 ADD DUP3 PUSH2 0x4701 JUMP JUMPDEST POP PUSH1 0x3 DUP5 ADD SLOAD SWAP1 POP PUSH2 0x552B DUP2 PUSH2 0x5EF1 JUMP JUMPDEST PUSH2 0x5538 PUSH1 0x80 DUP8 ADD DUP3 PUSH2 0x55EC JUMP JUMPDEST POP PUSH1 0x4 DUP5 ADD SLOAD SWAP1 POP PUSH2 0x5549 DUP2 PUSH2 0x5EF1 JUMP JUMPDEST PUSH2 0x5556 PUSH1 0xA0 DUP8 ADD DUP3 PUSH2 0x55EC JUMP JUMPDEST POP PUSH1 0x5 DUP5 ADD SLOAD SWAP1 POP PUSH2 0x5567 DUP2 PUSH2 0x5EF1 JUMP JUMPDEST PUSH2 0x5574 PUSH1 0xC0 DUP8 ADD DUP3 PUSH2 0x55EC JUMP JUMPDEST POP PUSH1 0x6 DUP5 ADD SLOAD SWAP1 POP PUSH2 0x5585 DUP2 PUSH2 0x5EF1 JUMP JUMPDEST PUSH2 0x5592 PUSH1 0xE0 DUP8 ADD DUP3 PUSH2 0x55EC JUMP JUMPDEST POP PUSH1 0x7 DUP5 ADD DUP6 DUP4 SUB PUSH2 0x100 DUP8 ADD MSTORE PUSH2 0x55AA DUP4 DUP3 PUSH2 0x4846 JUMP JUMPDEST SWAP3 POP POP PUSH1 0x8 DUP5 ADD DUP6 DUP4 SUB PUSH2 0x120 DUP8 ADD MSTORE PUSH2 0x55C4 DUP4 DUP3 PUSH2 0x4846 JUMP JUMPDEST SWAP3 POP POP PUSH1 0x9 DUP5 ADD DUP6 DUP4 SUB PUSH2 0x140 DUP8 ADD MSTORE PUSH2 0x55DE DUP4 DUP3 PUSH2 0x4846 JUMP JUMPDEST SWAP3 POP POP DUP2 SWAP3 POP POP POP SWAP3 SWAP2 POP POP JUMP JUMPDEST PUSH2 0x55F5 DUP2 PUSH2 0x5E7E JUMP JUMPDEST DUP3 MSTORE POP POP JUMP JUMPDEST PUSH2 0x5604 DUP2 PUSH2 0x5E7E JUMP JUMPDEST DUP3 MSTORE POP POP JUMP JUMPDEST PUSH2 0x5613 DUP2 PUSH2 0x5E88 JUMP JUMPDEST DUP3 MSTORE POP POP JUMP JUMPDEST PUSH1 0x0 PUSH1 0x20 DUP3 ADD SWAP1 POP PUSH2 0x562E PUSH1 0x0 DUP4 ADD DUP5 PUSH2 0x4710 JUMP JUMPDEST SWAP3 SWAP2 POP POP JUMP JUMPDEST PUSH1 0x0 PUSH1 0xA0 DUP3 ADD SWAP1 POP PUSH2 0x5649 PUSH1 0x0 DUP4 ADD DUP9 PUSH2 0x4710 JUMP JUMPDEST PUSH2 0x5656 PUSH1 0x20 DUP4 ADD DUP8 PUSH2 0x4710 JUMP JUMPDEST DUP2 DUP2 SUB PUSH1 0x40 DUP4 ADD MSTORE PUSH2 0x5668 DUP2 DUP7 PUSH2 0x471F JUMP JUMPDEST SWAP1 POP DUP2 DUP2 SUB PUSH1 0x60 DUP4 ADD MSTORE PUSH2 0x567C DUP2 DUP6 PUSH2 0x471F JUMP JUMPDEST SWAP1 POP DUP2 DUP2 SUB PUSH1 0x80 DUP4 ADD MSTORE PUSH2 0x5690 DUP2 DUP5 PUSH2 0x479B JUMP JUMPDEST SWAP1 POP SWAP7 SWAP6 POP POP POP POP POP POP JUMP JUMPDEST PUSH1 0x0 PUSH1 0xA0 DUP3 ADD SWAP1 POP PUSH2 0x56B1 PUSH1 0x0 DUP4 ADD DUP9 PUSH2 0x4710 JUMP JUMPDEST PUSH2 0x56BE PUSH1 0x20 DUP4 ADD DUP8 PUSH2 0x4710 JUMP JUMPDEST PUSH2 0x56CB PUSH1 0x40 DUP4 ADD DUP7 PUSH2 0x55FB JUMP JUMPDEST PUSH2 0x56D8 PUSH1 0x60 DUP4 ADD DUP6 PUSH2 0x55FB JUMP JUMPDEST DUP2 DUP2 SUB PUSH1 0x80 DUP4 ADD MSTORE PUSH2 0x56EA DUP2 DUP5 PUSH2 0x479B JUMP JUMPDEST SWAP1 POP SWAP7 SWAP6 POP POP POP POP POP POP JUMP JUMPDEST PUSH1 0x0 PUSH1 0x40 DUP3 ADD SWAP1 POP PUSH2 0x570B PUSH1 0x0 DUP4 ADD DUP6 PUSH2 0x4710 JUMP JUMPDEST PUSH2 0x5718 PUSH1 0x20 DUP4 ADD DUP5 PUSH2 0x55FB JUMP JUMPDEST SWAP4 SWAP3 POP POP POP JUMP JUMPDEST PUSH1 0x0 PUSH1 0x20 DUP3 ADD SWAP1 POP DUP2 DUP2 SUB PUSH1 0x0 DUP4 ADD MSTORE PUSH2 0x5739 DUP2 DUP5 PUSH2 0x471F JUMP JUMPDEST SWAP1 POP SWAP3 SWAP2 POP POP JUMP JUMPDEST PUSH1 0x0 PUSH1 0x40 DUP3 ADD SWAP1 POP DUP2 DUP2 SUB PUSH1 0x0 DUP4 ADD MSTORE PUSH2 0x575B DUP2 DUP6 PUSH2 0x471F JUMP JUMPDEST SWAP1 POP DUP2 DUP2 SUB PUSH1 0x20 DUP4 ADD MSTORE PUSH2 0x576F DUP2 DUP5 PUSH2 0x471F JUMP JUMPDEST SWAP1 POP SWAP4 SWAP3 POP POP POP JUMP JUMPDEST PUSH1 0x0 PUSH1 0x20 DUP3 ADD SWAP1 POP PUSH2 0x578D PUSH1 0x0 DUP4 ADD DUP5 PUSH2 0x477D JUMP JUMPDEST SWAP3 SWAP2 POP POP JUMP JUMPDEST PUSH1 0x0 PUSH1 0xA0 DUP3 ADD SWAP1 POP PUSH2 0x57A8 PUSH1 0x0 DUP4 ADD DUP9 PUSH2 0x477D JUMP JUMPDEST PUSH2 0x57B5 PUSH1 0x20 DUP4 ADD DUP8 PUSH2 0x477D JUMP JUMPDEST PUSH2 0x57C2 PUSH1 0x40 DUP4 ADD DUP7 PUSH2 0x477D JUMP JUMPDEST PUSH2 0x57CF PUSH1 0x60 DUP4 ADD DUP6 PUSH2 0x477D JUMP JUMPDEST PUSH2 0x57DC PUSH1 0x80 DUP4 ADD DUP5 PUSH2 0x477D JUMP JUMPDEST SWAP7 SWAP6 POP POP POP POP POP POP JUMP JUMPDEST PUSH1 0x0 PUSH1 0x20 DUP3 ADD SWAP1 POP PUSH2 0x57FB PUSH1 0x0 DUP4 ADD DUP5 PUSH2 0x478C JUMP JUMPDEST SWAP3 SWAP2 POP POP JUMP JUMPDEST PUSH1 0x0 PUSH1 0x20 DUP3 ADD SWAP1 POP DUP2 DUP2 SUB PUSH1 0x0 DUP4 ADD MSTORE PUSH2 0x581B DUP2 DUP5 PUSH2 0x480D JUMP JUMPDEST SWAP1 POP SWAP3 SWAP2 POP POP JUMP JUMPDEST PUSH1 0x0 PUSH1 0x20 DUP3 ADD SWAP1 POP DUP2 DUP2 SUB PUSH1 0x0 DUP4 ADD MSTORE PUSH2 0x583C DUP2 PUSH2 0x48D5 JUMP JUMPDEST SWAP1 POP SWAP2 SWAP1 POP JUMP JUMPDEST PUSH1 0x0 PUSH1 0x20 DUP3 ADD SWAP1 POP DUP2 DUP2 SUB PUSH1 0x0 DUP4 ADD MSTORE PUSH2 0x585C DUP2 PUSH2 0x493B JUMP JUMPDEST SWAP1 POP SWAP2 SWAP1 POP JUMP JUMPDEST PUSH1 0x0 PUSH1 0x20 DUP3 ADD SWAP1 POP DUP2 DUP2 SUB PUSH1 0x0 DUP4 ADD MSTORE PUSH2 0x587C DUP2 PUSH2 0x49A1 JUMP JUMPDEST SWAP1 POP SWAP2 SWAP1 POP JUMP JUMPDEST PUSH1 0x0 PUSH1 0x20 DUP3 ADD SWAP1 POP DUP2 DUP2 SUB PUSH1 0x0 DUP4 ADD MSTORE PUSH2 0x589C DUP2 PUSH2 0x4A07 JUMP JUMPDEST SWAP1 POP SWAP2 SWAP1 POP JUMP JUMPDEST PUSH1 0x0 PUSH1 0x20 DUP3 ADD SWAP1 POP DUP2 DUP2 SUB PUSH1 0x0 DUP4 ADD MSTORE PUSH2 0x58BC DUP2 PUSH2 0x4A6D JUMP JUMPDEST SWAP1 POP SWAP2 SWAP1 POP JUMP JUMPDEST PUSH1 0x0 PUSH1 0x20 DUP3 ADD SWAP1 POP DUP2 DUP2 SUB PUSH1 0x0 DUP4 ADD MSTORE PUSH2 0x58DC DUP2 PUSH2 0x4AD3 JUMP JUMPDEST SWAP1 POP SWAP2 SWAP1 POP JUMP JUMPDEST PUSH1 0x0 PUSH1 0x20 DUP3 ADD SWAP1 POP DUP2 DUP2 SUB PUSH1 0x0 DUP4 ADD MSTORE PUSH2 0x58FC DUP2 PUSH2 0x4B39 JUMP JUMPDEST SWAP1 POP SWAP2 SWAP1 POP JUMP JUMPDEST PUSH1 0x0 PUSH1 0x20 DUP3 ADD SWAP1 POP DUP2 DUP2 SUB PUSH1 0x0 DUP4 ADD MSTORE PUSH2 0x591C DUP2 PUSH2 0x4B9F JUMP JUMPDEST SWAP1 POP SWAP2 SWAP1 POP JUMP JUMPDEST PUSH1 0x0 PUSH1 0x20 DUP3 ADD SWAP1 POP DUP2 DUP2 SUB PUSH1 0x0 DUP4 ADD MSTORE PUSH2 0x593C DUP2 PUSH2 0x4BDF JUMP JUMPDEST SWAP1 POP SWAP2 SWAP1 POP JUMP JUMPDEST PUSH1 0x0 PUSH1 0x20 DUP3 ADD SWAP1 POP DUP2 DUP2 SUB PUSH1 0x0 DUP4 ADD MSTORE PUSH2 0x595C DUP2 PUSH2 0x4C1F JUMP JUMPDEST SWAP1 POP SWAP2 SWAP1 POP JUMP JUMPDEST PUSH1 0x0 PUSH1 0x20 DUP3 ADD SWAP1 POP DUP2 DUP2 SUB PUSH1 0x0 DUP4 ADD MSTORE PUSH2 0x597C DUP2 PUSH2 0x4C85 JUMP JUMPDEST SWAP1 POP SWAP2 SWAP1 POP JUMP JUMPDEST PUSH1 0x0 PUSH1 0x20 DUP3 ADD SWAP1 POP DUP2 DUP2 SUB PUSH1 0x0 DUP4 ADD MSTORE PUSH2 0x599C DUP2 PUSH2 0x4CC5 JUMP JUMPDEST SWAP1 POP SWAP2 SWAP1 POP JUMP JUMPDEST PUSH1 0x0 PUSH1 0x20 DUP3 ADD SWAP1 POP DUP2 DUP2 SUB PUSH1 0x0 DUP4 ADD MSTORE PUSH2 0x59BC DUP2 PUSH2 0x4D2B JUMP JUMPDEST SWAP1 POP SWAP2 SWAP1 POP JUMP JUMPDEST PUSH1 0x0 PUSH1 0x20 DUP3 ADD SWAP1 POP DUP2 DUP2 SUB PUSH1 0x0 DUP4 ADD MSTORE PUSH2 0x59DC DUP2 PUSH2 0x4D91 JUMP JUMPDEST SWAP1 POP SWAP2 SWAP1 POP JUMP JUMPDEST PUSH1 0x0 PUSH1 0x20 DUP3 ADD SWAP1 POP DUP2 DUP2 SUB PUSH1 0x0 DUP4 ADD MSTORE PUSH2 0x59FC DUP2 PUSH2 0x4DF7 JUMP JUMPDEST SWAP1 POP SWAP2 SWAP1 POP JUMP JUMPDEST PUSH1 0x0 PUSH1 0x20 DUP3 ADD SWAP1 POP DUP2 DUP2 SUB PUSH1 0x0 DUP4 ADD MSTORE PUSH2 0x5A1C DUP2 PUSH2 0x4E5D JUMP JUMPDEST SWAP1 POP SWAP2 SWAP1 POP JUMP JUMPDEST PUSH1 0x0 PUSH1 0x20 DUP3 ADD SWAP1 POP DUP2 DUP2 SUB PUSH1 0x0 DUP4 ADD MSTORE PUSH2 0x5A3C DUP2 PUSH2 0x4EC3 JUMP JUMPDEST SWAP1 POP SWAP2 SWAP1 POP JUMP JUMPDEST PUSH1 0x0 PUSH1 0x20 DUP3 ADD SWAP1 POP DUP2 DUP2 SUB PUSH1 0x0 DUP4 ADD MSTORE PUSH2 0x5A5C DUP2 PUSH2 0x4F03 JUMP JUMPDEST SWAP1 POP SWAP2 SWAP1 POP JUMP JUMPDEST PUSH1 0x0 PUSH1 0x20 DUP3 ADD SWAP1 POP DUP2 DUP2 SUB PUSH1 0x0 DUP4 ADD MSTORE PUSH2 0x5A7C DUP2 PUSH2 0x4F69 JUMP JUMPDEST SWAP1 POP SWAP2 SWAP1 POP JUMP JUMPDEST PUSH1 0x0 PUSH1 0x20 DUP3 ADD SWAP1 POP DUP2 DUP2 SUB PUSH1 0x0 DUP4 ADD MSTORE PUSH2 0x5A9C DUP2 PUSH2 0x4FCF JUMP JUMPDEST SWAP1 POP SWAP2 SWAP1 POP JUMP JUMPDEST PUSH1 0x0 PUSH1 0x20 DUP3 ADD SWAP1 POP DUP2 DUP2 SUB PUSH1 0x0 DUP4 ADD MSTORE PUSH2 0x5ABC DUP2 PUSH2 0x5035 JUMP JUMPDEST SWAP1 POP SWAP2 SWAP1 POP JUMP JUMPDEST PUSH1 0x0 PUSH1 0x20 DUP3 ADD SWAP1 POP DUP2 DUP2 SUB PUSH1 0x0 DUP4 ADD MSTORE PUSH2 0x5ADC DUP2 PUSH2 0x5075 JUMP JUMPDEST SWAP1 POP SWAP2 SWAP1 POP JUMP JUMPDEST PUSH1 0x0 PUSH1 0x20 DUP3 ADD SWAP1 POP DUP2 DUP2 SUB PUSH1 0x0 DUP4 ADD MSTORE PUSH2 0x5AFC DUP2 PUSH2 0x50DB JUMP JUMPDEST SWAP1 POP SWAP2 SWAP1 POP JUMP JUMPDEST PUSH1 0x0 PUSH1 0x20 DUP3 ADD SWAP1 POP DUP2 DUP2 SUB PUSH1 0x0 DUP4 ADD MSTORE PUSH2 0x5B1C DUP2 PUSH2 0x5141 JUMP JUMPDEST SWAP1 POP SWAP2 SWAP1 POP JUMP JUMPDEST PUSH1 0x0 PUSH1 0x20 DUP3 ADD SWAP1 POP DUP2 DUP2 SUB PUSH1 0x0 DUP4 ADD MSTORE PUSH2 0x5B3C DUP2 PUSH2 0x51A7 JUMP JUMPDEST SWAP1 POP SWAP2 SWAP1 POP JUMP JUMPDEST PUSH1 0x0 PUSH1 0x20 DUP3 ADD SWAP1 POP DUP2 DUP2 SUB PUSH1 0x0 DUP4 ADD MSTORE PUSH2 0x5B5C DUP2 PUSH2 0x520D JUMP JUMPDEST SWAP1 POP SWAP2 SWAP1 POP JUMP JUMPDEST PUSH1 0x0 PUSH1 0x20 DUP3 ADD SWAP1 POP DUP2 DUP2 SUB PUSH1 0x0 DUP4 ADD MSTORE PUSH2 0x5B7C DUP2 PUSH2 0x5273 JUMP JUMPDEST SWAP1 POP SWAP2 SWAP1 POP JUMP JUMPDEST PUSH1 0x0 PUSH1 0x20 DUP3 ADD SWAP1 POP DUP2 DUP2 SUB PUSH1 0x0 DUP4 ADD MSTORE PUSH2 0x5B9C DUP2 PUSH2 0x52D9 JUMP JUMPDEST SWAP1 POP SWAP2 SWAP1 POP JUMP JUMPDEST PUSH1 0x0 PUSH1 0x20 DUP3 ADD SWAP1 POP DUP2 DUP2 SUB PUSH1 0x0 DUP4 ADD MSTORE PUSH2 0x5BBC DUP2 PUSH2 0x533F JUMP JUMPDEST SWAP1 POP SWAP2 SWAP1 POP JUMP JUMPDEST PUSH1 0x0 PUSH1 0x20 DUP3 ADD SWAP1 POP DUP2 DUP2 SUB PUSH1 0x0 DUP4 ADD MSTORE PUSH2 0x5BDD DUP2 DUP5 PUSH2 0x53A5 JUMP JUMPDEST SWAP1 POP SWAP3 SWAP2 POP POP JUMP JUMPDEST PUSH1 0x0 PUSH1 0x60 DUP3 ADD SWAP1 POP DUP2 DUP2 SUB PUSH1 0x0 DUP4 ADD MSTORE PUSH2 0x5BFF DUP2 DUP7 PUSH2 0x54A2 JUMP JUMPDEST SWAP1 POP PUSH2 0x5C0E PUSH1 0x20 DUP4 ADD DUP6 PUSH2 0x55FB JUMP JUMPDEST PUSH2 0x5C1B PUSH1 0x40 DUP4 ADD DUP5 PUSH2 0x55FB JUMP JUMPDEST SWAP5 SWAP4 POP POP POP POP JUMP JUMPDEST PUSH1 0x0 PUSH1 0x20 DUP3 ADD SWAP1 POP PUSH2 0x5C38 PUSH1 0x0 DUP4 ADD DUP5 PUSH2 0x55FB JUMP JUMPDEST SWAP3 SWAP2 POP POP JUMP JUMPDEST PUSH1 0x0 PUSH1 0x40 DUP3 ADD SWAP1 POP PUSH2 0x5C53 PUSH1 0x0 DUP4 ADD DUP6 PUSH2 0x55FB JUMP JUMPDEST PUSH2 0x5C60 PUSH1 0x20 DUP4 ADD DUP5 PUSH2 0x55FB JUMP JUMPDEST SWAP4 SWAP3 POP POP POP JUMP JUMPDEST PUSH1 0x0 PUSH1 0x40 MLOAD SWAP1 POP DUP2 DUP2 ADD DUP2 DUP2 LT PUSH8 0xFFFFFFFFFFFFFFFF DUP3 GT OR ISZERO PUSH2 0x5C8A JUMPI PUSH1 0x0 DUP1 REVERT JUMPDEST DUP1 PUSH1 0x40 MSTORE POP SWAP2 SWAP1 POP JUMP JUMPDEST PUSH1 0x0 PUSH8 0xFFFFFFFFFFFFFFFF DUP3 GT ISZERO PUSH2 0x5CAB JUMPI PUSH1 0x0 DUP1 REVERT JUMPDEST PUSH1 0x20 DUP3 MUL SWAP1 POP PUSH1 0x20 DUP2 ADD SWAP1 POP SWAP2 SWAP1 POP JUMP JUMPDEST PUSH1 0x0 PUSH8 0xFFFFFFFFFFFFFFFF DUP3 GT ISZERO PUSH2 0x5CD3 JUMPI PUSH1 0x0 DUP1 REVERT JUMPDEST PUSH1 0x20 DUP3 MUL SWAP1 POP PUSH1 0x20 DUP2 ADD SWAP1 POP SWAP2 SWAP1 POP JUMP JUMPDEST PUSH1 0x0 PUSH8 0xFFFFFFFFFFFFFFFF DUP3 GT ISZERO PUSH2 0x5CFB JUMPI PUSH1 0x0 DUP1 REVERT JUMPDEST PUSH1 0x1F NOT PUSH1 0x1F DUP4 ADD AND SWAP1 POP PUSH1 0x20 DUP2 ADD SWAP1 POP SWAP2 SWAP1 POP JUMP JUMPDEST PUSH1 0x0 PUSH8 0xFFFFFFFFFFFFFFFF DUP3 GT ISZERO PUSH2 0x5D27 JUMPI PUSH1 0x0 DUP1 REVERT JUMPDEST PUSH1 0x1F NOT PUSH1 0x1F DUP4 ADD AND SWAP1 POP PUSH1 0x20 DUP2 ADD SWAP1 POP SWAP2 SWAP1 POP JUMP JUMPDEST PUSH1 0x0 DUP2 SWAP1 POP PUSH1 0x20 DUP3 ADD SWAP1 POP SWAP2 SWAP1 POP JUMP JUMPDEST PUSH1 0x0 DUP2 SWAP1 POP DUP2 PUSH1 0x0 MSTORE PUSH1 0x20 PUSH1 0x0 KECCAK256 SWAP1 POP SWAP2 SWAP1 POP JUMP JUMPDEST PUSH1 0x0 DUP2 MLOAD SWAP1 POP SWAP2 SWAP1 POP JUMP JUMPDEST PUSH1 0x0 DUP2 MLOAD SWAP1 POP SWAP2 SWAP1 POP JUMP JUMPDEST PUSH1 0x0 DUP2 MLOAD SWAP1 POP SWAP2 SWAP1 POP JUMP JUMPDEST PUSH1 0x0 PUSH1 0x20 DUP3 ADD SWAP1 POP SWAP2 SWAP1 POP JUMP JUMPDEST PUSH1 0x0 DUP3 DUP3 MSTORE PUSH1 0x20 DUP3 ADD SWAP1 POP SWAP3 SWAP2 POP POP JUMP JUMPDEST PUSH1 0x0 DUP3 DUP3 MSTORE PUSH1 0x20 DUP3 ADD SWAP1 POP SWAP3 SWAP2 POP POP JUMP JUMPDEST PUSH1 0x0 DUP3 DUP3 MSTORE PUSH1 0x20 DUP3 ADD SWAP1 POP SWAP3 SWAP2 POP POP JUMP JUMPDEST PUSH1 0x0 DUP3 DUP3 MSTORE PUSH1 0x20 DUP3 ADD SWAP1 POP SWAP3 SWAP2 POP POP JUMP JUMPDEST PUSH1 0x0 PUSH20 0xFFFFFFFFFFFFFFFFFFFFFFFFFFFFFFFFFFFFFFFF DUP3 AND SWAP1 POP SWAP2 SWAP1 POP JUMP JUMPDEST PUSH1 0x0 DUP2 SWAP1 POP SWAP2 SWAP1 POP JUMP JUMPDEST PUSH1 0x0 PUSH1 0xFF DUP3 AND SWAP1 POP SWAP2 SWAP1 POP JUMP JUMPDEST PUSH1 0x0 PUSH2 0x5E15 DUP3 PUSH2 0x5E5E JUMP JUMPDEST SWAP1 POP SWAP2 SWAP1 POP JUMP JUMPDEST PUSH1 0x0 DUP2 ISZERO ISZERO SWAP1 POP SWAP2 SWAP1 POP JUMP JUMPDEST PUSH1 0x0 DUP2 SWAP1 POP SWAP2 SWAP1 POP JUMP JUMPDEST PUSH1 0x0 PUSH32 0xFFFFFFFF00000000000000000000000000000000000000000000000000000000 DUP3 AND SWAP1 POP SWAP2 SWAP1 POP JUMP JUMPDEST PUSH1 0x0 PUSH20 0xFFFFFFFFFFFFFFFFFFFFFFFFFFFFFFFFFFFFFFFF DUP3 AND SWAP1 POP SWAP2 SWAP1 POP JUMP JUMPDEST PUSH1 0x0 DUP2 SWAP1 POP SWAP2 SWAP1 POP JUMP JUMPDEST PUSH1 0x0 PUSH1 0xFF DUP3 AND SWAP1 POP SWAP2 SWAP1 POP JUMP JUMPDEST DUP3 DUP2 DUP4 CALLDATACOPY PUSH1 0x0 DUP4 DUP4 ADD MSTORE POP POP POP JUMP JUMPDEST PUSH1 0x0 JUMPDEST DUP4 DUP2 LT ISZERO PUSH2 0x5EC2 JUMPI DUP1 DUP3 ADD MLOAD DUP2 DUP5 ADD MSTORE PUSH1 0x20 DUP2 ADD SWAP1 POP PUSH2 0x5EA7 JUMP JUMPDEST DUP4 DUP2 GT ISZERO PUSH2 0x5ED1 JUMPI PUSH1 0x0 DUP5 DUP5 ADD MSTORE JUMPDEST POP POP POP POP JUMP JUMPDEST PUSH1 0x0 PUSH2 0x5EEA PUSH2 0x5EE5 DUP4 PUSH2 0x5F50 JUMP JUMPDEST PUSH2 0x5DD3 JUMP JUMPDEST SWAP1 POP SWAP2 SWAP1 POP JUMP JUMPDEST PUSH1 0x0 PUSH2 0x5F04 PUSH2 0x5EFF DUP4 PUSH2 0x5F50 JUMP JUMPDEST PUSH2 0x5DF3 JUMP JUMPDEST SWAP1 POP SWAP2 SWAP1 POP JUMP JUMPDEST PUSH1 0x0 PUSH2 0x5F1E PUSH2 0x5F19 DUP4 PUSH2 0x5F50 JUMP JUMPDEST PUSH2 0x5DFD JUMP JUMPDEST SWAP1 POP SWAP2 SWAP1 POP JUMP JUMPDEST PUSH1 0x0 PUSH2 0x5F38 PUSH2 0x5F33 DUP4 PUSH2 0x5F6A JUMP JUMPDEST PUSH2 0x5DD3 JUMP JUMPDEST SWAP1 POP SWAP2 SWAP1 POP JUMP JUMPDEST PUSH1 0x0 PUSH1 0x1F NOT PUSH1 0x1F DUP4 ADD AND SWAP1 POP SWAP2 SWAP1 POP JUMP JUMPDEST PUSH1 0x0 DUP2 PUSH1 0x0 SHR SWAP1 POP SWAP2 SWAP1 POP JUMP JUMPDEST PUSH1 0x0 DUP2 PUSH1 0xE0 SHR SWAP1 POP SWAP2 SWAP1 POP JUMP JUMPDEST PUSH1 0x0 DUP2 PUSH1 0x8 SHR SWAP1 POP SWAP2 SWAP1 POP JUMP JUMPDEST PUSH1 0x0 PUSH1 0x44 RETURNDATASIZE LT ISZERO PUSH2 0x5F87 JUMPI PUSH2 0x602A JUMP JUMPDEST PUSH1 0x4 PUSH1 0x0 DUP1 RETURNDATACOPY PUSH2 0x5F98 PUSH1 0x0 MLOAD PUSH2 0x5F5D JUMP JUMPDEST PUSH4 0x8C379A0 DUP2 EQ PUSH2 0x5FA9 JUMPI POP PUSH2 0x602A JUMP JUMPDEST PUSH1 0x40 MLOAD PUSH1 0x4 RETURNDATASIZE SUB PUSH1 0x4 DUP3 RETURNDATACOPY DUP1 MLOAD RETURNDATASIZE PUSH1 0x24 DUP3 ADD GT PUSH8 0xFFFFFFFFFFFFFFFF DUP3 GT OR ISZERO PUSH2 0x5FD5 JUMPI POP POP POP PUSH2 0x602A JUMP JUMPDEST DUP1 DUP3 ADD DUP1 MLOAD PUSH8 0xFFFFFFFFFFFFFFFF DUP2 GT ISZERO PUSH2 0x5FF4 JUMPI POP POP POP POP POP PUSH2 0x602A JUMP JUMPDEST DUP1 PUSH1 0x20 DUP4 ADD ADD RETURNDATASIZE DUP6 ADD DUP2 GT ISZERO PUSH2 0x600F JUMPI POP POP POP POP POP POP PUSH2 0x602A JUMP JUMPDEST PUSH2 0x6018 DUP3 PUSH2 0x5F3F JUMP JUMPDEST PUSH1 0x20 DUP5 ADD ADD PUSH1 0x40 MSTORE DUP3 SWAP7 POP POP POP POP POP POP POP JUMPDEST SWAP1 JUMP JUMPDEST PUSH2 0x6036 DUP2 PUSH2 0x5E0A JUMP JUMPDEST DUP2 EQ PUSH2 0x6041 JUMPI PUSH1 0x0 DUP1 REVERT JUMPDEST POP JUMP JUMPDEST PUSH2 0x604D DUP2 PUSH2 0x5E1C JUMP JUMPDEST DUP2 EQ PUSH2 0x6058 JUMPI PUSH1 0x0 DUP1 REVERT JUMPDEST POP JUMP JUMPDEST PUSH2 0x6064 DUP2 PUSH2 0x5E28 JUMP JUMPDEST DUP2 EQ PUSH2 0x606F JUMPI PUSH1 0x0 DUP1 REVERT JUMPDEST POP JUMP JUMPDEST PUSH2 0x607B DUP2 PUSH2 0x5E32 JUMP JUMPDEST DUP2 EQ PUSH2 0x6086 JUMPI PUSH1 0x0 DUP1 REVERT JUMPDEST POP JUMP JUMPDEST PUSH2 0x6092 DUP2 PUSH2 0x5E7E JUMP JUMPDEST DUP2 EQ PUSH2 0x609D JUMPI PUSH1 0x0 DUP1 REVERT JUMPDEST POP JUMP JUMPDEST PUSH2 0x60A9 DUP2 PUSH2 0x5E88 JUMP JUMPDEST DUP2 EQ PUSH2 0x60B4 JUMPI PUSH1 0x0 DUP1 REVERT JUMPDEST POP JUMP INVALID GASLIMIT MSTORE NUMBER BALANCE BALANCE CALLDATALOAD CALLDATALOAD GASPRICE KECCAK256 PUSH3 0x75726E KECCAK256 PUSH2 0x6D6F PUSH22 0x6E7420657863656564732062616C616E636545524331 BALANCE CALLDATALOAD CALLDATALOAD GASPRICE KECCAK256 PUSH10 0x6E73756666696369656E PUSH21 0x2062616C616E636520666F72207472616E73666572 LOG2 PUSH5 0x6970667358 0x22 SLT KECCAK256 DUP12 0x26 0xC0 OR 0xC9 SWAP16 POP DUP4 PUSH15 0x28ECEA02BBB85B4AB346545FBB1247 0xE2 0xB6 0xA7 0xEA MSTORE8 SSTORE 0xB6 0x1F PUSH5 0x736F6C6343 STOP SMOD STOP STOP CALLER "
		},
		"gasEstimates": {
			"creation": {
				"codeDepositCost": "4978200",
				"executionCost": "infinite",
				"totalCost": "infinite"
			},
			"external": {
				"DEFAULT_ADMIN_ROLE()": "468",
				"REGISTERED_CONSUMER()": "419",
				"REGISTERED_DEALER()": "375",
				"REGISTERED_EMISSIONS_AUDITOR()": "397",
				"REGISTERED_OFFSET_DEALER()": "397",
				"REGISTERED_REC_DEALER()": "439",
				"balanceOf(address,uint256)": "infinite",
				"balanceOfBatch(address[],uint256[])": "infinite",
				"getAvailableAndRetired(address,uint256)": "infinite",
				"getIssuer(uint256)": "2653",
				"getNumOfUniqueTokens()": "1297",
				"getRoleAdmin(bytes32)": "infinite",
				"getRoleMember(bytes32,uint256)": "infinite",
				"getRoleMemberCount(bytes32)": "1681",
				"getRoles(address)": "infinite",
				"getTokenDetails(uint256)": "infinite",
				"getTokenRetiredAmount(address,uint256)": "infinite",
				"getTokenType(uint256)": "infinite",
				"grantRole(bytes32,address)": "infinite",
				"hasRole(bytes32,address)": "infinite",
				"isApprovedForAll(address,address)": "infinite",
				"isConsumerRegistered(address)": "infinite",
				"isDealerRegistered(address)": "infinite",
				"issue(address,uint8,uint256,uint256,uint256,uint256,string,string,string)": "infinite",
				"registerConsumer(address)": "infinite",
				"registerDealer(address,uint8)": "infinite",
				"renounceRole(bytes32,address)": "infinite",
				"retire(uint256,uint256)": "infinite",
				"revokeRole(bytes32,address)": "infinite",
				"safeBatchTransferFrom(address,address,uint256[],uint256[],bytes)": "infinite",
				"safeTransferFrom(address,address,uint256,uint256,bytes)": "infinite",
				"setApprovalForAll(address,bool)": "infinite",
				"supportsInterface(bytes4)": "1615",
				"transfer(address,uint256,uint256)": "infinite",
				"unregisterConsumer(address)": "infinite",
				"unregisterDealer(address,uint8)": "infinite",
				"uri(uint256)": "infinite"
			},
			"internal": {
				"isDealerOrConsumer(address)": "infinite",
				"tokenExists(uint256)": "911",
				"tokenTypeIdIsValid(uint8)": "919"
			}
		},
		"methodIdentifiers": {
			"DEFAULT_ADMIN_ROLE()": "a217fddf",
			"REGISTERED_CONSUMER()": "78e5c592",
			"REGISTERED_DEALER()": "18a50d7e",
			"REGISTERED_EMISSIONS_AUDITOR()": "76ce4755",
			"REGISTERED_OFFSET_DEALER()": "1ef68ef7",
			"REGISTERED_REC_DEALER()": "fcba7948",
			"balanceOf(address,uint256)": "00fdd58e",
			"balanceOfBatch(address[],uint256[])": "4e1273f4",
			"getAvailableAndRetired(address,uint256)": "7f157c9b",
			"getIssuer(uint256)": "92089c46",
			"getNumOfUniqueTokens()": "5ddb368f",
			"getRoleAdmin(bytes32)": "248a9ca3",
			"getRoleMember(bytes32,uint256)": "9010d07c",
			"getRoleMemberCount(bytes32)": "ca15c873",
			"getRoles(address)": "ce6ccfaf",
			"getTokenDetails(uint256)": "c1e03728",
			"getTokenRetiredAmount(address,uint256)": "a0d975a7",
			"getTokenType(uint256)": "76aed2e1",
			"grantRole(bytes32,address)": "2f2ff15d",
			"hasRole(bytes32,address)": "91d14854",
			"isApprovedForAll(address,address)": "e985e9c5",
			"isConsumerRegistered(address)": "33781a0e",
			"isDealerRegistered(address)": "69f7ef44",
			"issue(address,uint8,uint256,uint256,uint256,uint256,string,string,string)": "fd0c4a9a",
			"registerConsumer(address)": "44b22fdd",
			"registerDealer(address,uint8)": "31aa4b20",
			"renounceRole(bytes32,address)": "36568abe",
			"retire(uint256,uint256)": "293a7f2e",
			"revokeRole(bytes32,address)": "d547741f",
			"safeBatchTransferFrom(address,address,uint256[],uint256[],bytes)": "2eb2c2d6",
			"safeTransferFrom(address,address,uint256,uint256,bytes)": "f242432a",
			"setApprovalForAll(address,bool)": "a22cb465",
			"supportsInterface(bytes4)": "01ffc9a7",
			"transfer(address,uint256,uint256)": "095bcdb6",
			"unregisterConsumer(address)": "53dbe982",
			"unregisterDealer(address,uint8)": "e2e564f2",
			"uri(uint256)": "0e89341c"
		}
	},
	"abi": [
		{
			"inputs": [],
			"stateMutability": "nonpayable",
			"type": "constructor"
		},
		{
			"anonymous": false,
			"inputs": [
				{
					"indexed": true,
					"internalType": "address",
					"name": "account",
					"type": "address"
				},
				{
					"indexed": true,
					"internalType": "address",
					"name": "operator",
					"type": "address"
				},
				{
					"indexed": false,
					"internalType": "bool",
					"name": "approved",
					"type": "bool"
				}
			],
			"name": "ApprovalForAll",
			"type": "event"
		},
		{
			"anonymous": false,
			"inputs": [
				{
					"indexed": true,
					"internalType": "address",
					"name": "account",
					"type": "address"
				}
			],
			"name": "RegisteredConsumer",
			"type": "event"
		},
		{
			"anonymous": false,
			"inputs": [
				{
					"indexed": true,
					"internalType": "address",
					"name": "account",
					"type": "address"
				}
			],
			"name": "RegisteredDealer",
			"type": "event"
		},
		{
			"anonymous": false,
			"inputs": [
				{
					"indexed": true,
					"internalType": "bytes32",
					"name": "role",
					"type": "bytes32"
				},
				{
					"indexed": true,
					"internalType": "bytes32",
					"name": "previousAdminRole",
					"type": "bytes32"
				},
				{
					"indexed": true,
					"internalType": "bytes32",
					"name": "newAdminRole",
					"type": "bytes32"
				}
			],
			"name": "RoleAdminChanged",
			"type": "event"
		},
		{
			"anonymous": false,
			"inputs": [
				{
					"indexed": true,
					"internalType": "bytes32",
					"name": "role",
					"type": "bytes32"
				},
				{
					"indexed": true,
					"internalType": "address",
					"name": "account",
					"type": "address"
				},
				{
					"indexed": true,
					"internalType": "address",
					"name": "sender",
					"type": "address"
				}
			],
			"name": "RoleGranted",
			"type": "event"
		},
		{
			"anonymous": false,
			"inputs": [
				{
					"indexed": true,
					"internalType": "bytes32",
					"name": "role",
					"type": "bytes32"
				},
				{
					"indexed": true,
					"internalType": "address",
					"name": "account",
					"type": "address"
				},
				{
					"indexed": true,
					"internalType": "address",
					"name": "sender",
					"type": "address"
				}
			],
			"name": "RoleRevoked",
			"type": "event"
		},
		{
			"anonymous": false,
			"inputs": [
				{
					"components": [
						{
							"internalType": "uint256",
							"name": "tokenId",
							"type": "uint256"
						},
						{
							"internalType": "uint8",
							"name": "tokenTypeId",
							"type": "uint8"
						},
						{
							"internalType": "address",
							"name": "issuer",
							"type": "address"
						},
						{
							"internalType": "address",
							"name": "issuee",
							"type": "address"
						},
						{
							"internalType": "uint256",
							"name": "fromDate",
							"type": "uint256"
						},
						{
							"internalType": "uint256",
							"name": "thruDate",
							"type": "uint256"
						},
						{
							"internalType": "uint256",
							"name": "dateCreated",
							"type": "uint256"
						},
						{
							"internalType": "uint256",
							"name": "automaticRetireDate",
							"type": "uint256"
						},
						{
							"internalType": "string",
							"name": "metadata",
							"type": "string"
						},
						{
							"internalType": "string",
							"name": "manifest",
							"type": "string"
						},
						{
							"internalType": "string",
							"name": "description",
							"type": "string"
						}
					],
					"indexed": false,
					"internalType": "struct NetEmissionsTokenNetwork.CarbonTokenDetails",
					"name": "_tokenDetails",
					"type": "tuple"
				},
				{
					"indexed": false,
					"internalType": "uint256",
					"name": "_availableBalanceOfIssuee",
					"type": "uint256"
				},
				{
					"indexed": false,
					"internalType": "uint256",
					"name": "_retiredBalanceOfIssuee",
					"type": "uint256"
				}
			],
			"name": "TokenCreated",
			"type": "event"
		},
		{
			"anonymous": false,
			"inputs": [
				{
					"indexed": true,
					"internalType": "address",
					"name": "account",
					"type": "address"
				},
				{
					"indexed": false,
					"internalType": "uint256",
					"name": "tokenId",
					"type": "uint256"
				},
				{
					"indexed": false,
					"internalType": "uint256",
					"name": "amount",
					"type": "uint256"
				}
			],
			"name": "TokenRetired",
			"type": "event"
		},
		{
			"anonymous": false,
			"inputs": [
				{
					"indexed": true,
					"internalType": "address",
					"name": "operator",
					"type": "address"
				},
				{
					"indexed": true,
					"internalType": "address",
					"name": "from",
					"type": "address"
				},
				{
					"indexed": true,
					"internalType": "address",
					"name": "to",
					"type": "address"
				},
				{
					"indexed": false,
					"internalType": "uint256[]",
					"name": "ids",
					"type": "uint256[]"
				},
				{
					"indexed": false,
					"internalType": "uint256[]",
					"name": "values",
					"type": "uint256[]"
				}
			],
			"name": "TransferBatch",
			"type": "event"
		},
		{
			"anonymous": false,
			"inputs": [
				{
					"indexed": true,
					"internalType": "address",
					"name": "operator",
					"type": "address"
				},
				{
					"indexed": true,
					"internalType": "address",
					"name": "from",
					"type": "address"
				},
				{
					"indexed": true,
					"internalType": "address",
					"name": "to",
					"type": "address"
				},
				{
					"indexed": false,
					"internalType": "uint256",
					"name": "id",
					"type": "uint256"
				},
				{
					"indexed": false,
					"internalType": "uint256",
					"name": "value",
					"type": "uint256"
				}
			],
			"name": "TransferSingle",
			"type": "event"
		},
		{
			"anonymous": false,
			"inputs": [
				{
					"indexed": false,
					"internalType": "string",
					"name": "value",
					"type": "string"
				},
				{
					"indexed": true,
					"internalType": "uint256",
					"name": "id",
					"type": "uint256"
				}
			],
			"name": "URI",
			"type": "event"
		},
		{
			"anonymous": false,
			"inputs": [
				{
					"indexed": true,
					"internalType": "address",
					"name": "account",
					"type": "address"
				}
			],
			"name": "UnregisteredConsumer",
			"type": "event"
		},
		{
			"anonymous": false,
			"inputs": [
				{
					"indexed": true,
					"internalType": "address",
					"name": "account",
					"type": "address"
				}
			],
			"name": "UnregisteredDealer",
			"type": "event"
		},
		{
			"inputs": [],
			"name": "DEFAULT_ADMIN_ROLE",
			"outputs": [
				{
					"internalType": "bytes32",
					"name": "",
					"type": "bytes32"
				}
			],
			"stateMutability": "view",
			"type": "function"
		},
		{
			"inputs": [],
			"name": "REGISTERED_CONSUMER",
			"outputs": [
				{
					"internalType": "bytes32",
					"name": "",
					"type": "bytes32"
				}
			],
			"stateMutability": "view",
			"type": "function"
		},
		{
			"inputs": [],
			"name": "REGISTERED_DEALER",
			"outputs": [
				{
					"internalType": "bytes32",
					"name": "",
					"type": "bytes32"
				}
			],
			"stateMutability": "view",
			"type": "function"
		},
		{
			"inputs": [],
			"name": "REGISTERED_EMISSIONS_AUDITOR",
			"outputs": [
				{
					"internalType": "bytes32",
					"name": "",
					"type": "bytes32"
				}
			],
			"stateMutability": "view",
			"type": "function"
		},
		{
			"inputs": [],
			"name": "REGISTERED_OFFSET_DEALER",
			"outputs": [
				{
					"internalType": "bytes32",
					"name": "",
					"type": "bytes32"
				}
			],
			"stateMutability": "view",
			"type": "function"
		},
		{
			"inputs": [],
			"name": "REGISTERED_REC_DEALER",
			"outputs": [
				{
					"internalType": "bytes32",
					"name": "",
					"type": "bytes32"
				}
			],
			"stateMutability": "view",
			"type": "function"
		},
		{
			"inputs": [
				{
					"internalType": "address",
					"name": "account",
					"type": "address"
				},
				{
					"internalType": "uint256",
					"name": "id",
					"type": "uint256"
				}
			],
			"name": "balanceOf",
			"outputs": [
				{
					"internalType": "uint256",
					"name": "",
					"type": "uint256"
				}
			],
			"stateMutability": "view",
			"type": "function"
		},
		{
			"inputs": [
				{
					"internalType": "address[]",
					"name": "accounts",
					"type": "address[]"
				},
				{
					"internalType": "uint256[]",
					"name": "ids",
					"type": "uint256[]"
				}
			],
			"name": "balanceOfBatch",
			"outputs": [
				{
					"internalType": "uint256[]",
					"name": "",
					"type": "uint256[]"
				}
			],
			"stateMutability": "view",
			"type": "function"
		},
		{
			"inputs": [
				{
					"internalType": "address",
					"name": "account",
					"type": "address"
				},
				{
					"internalType": "uint256",
					"name": "tokenId",
					"type": "uint256"
				}
			],
			"name": "getAvailableAndRetired",
			"outputs": [
				{
					"internalType": "uint256",
					"name": "",
					"type": "uint256"
				},
				{
					"internalType": "uint256",
					"name": "",
					"type": "uint256"
				}
			],
			"stateMutability": "view",
			"type": "function"
		},
		{
			"inputs": [
				{
					"internalType": "uint256",
					"name": "tokenId",
					"type": "uint256"
				}
			],
			"name": "getIssuer",
			"outputs": [
				{
					"internalType": "address",
					"name": "",
					"type": "address"
				}
			],
			"stateMutability": "view",
			"type": "function"
		},
		{
			"inputs": [],
			"name": "getNumOfUniqueTokens",
			"outputs": [
				{
					"internalType": "uint256",
					"name": "",
					"type": "uint256"
				}
			],
			"stateMutability": "view",
			"type": "function"
		},
		{
			"inputs": [
				{
					"internalType": "bytes32",
					"name": "role",
					"type": "bytes32"
				}
			],
			"name": "getRoleAdmin",
			"outputs": [
				{
					"internalType": "bytes32",
					"name": "",
					"type": "bytes32"
				}
			],
			"stateMutability": "view",
			"type": "function"
		},
		{
			"inputs": [
				{
					"internalType": "bytes32",
					"name": "role",
					"type": "bytes32"
				},
				{
					"internalType": "uint256",
					"name": "index",
					"type": "uint256"
				}
			],
			"name": "getRoleMember",
			"outputs": [
				{
					"internalType": "address",
					"name": "",
					"type": "address"
				}
			],
			"stateMutability": "view",
			"type": "function"
		},
		{
			"inputs": [
				{
					"internalType": "bytes32",
					"name": "role",
					"type": "bytes32"
				}
			],
			"name": "getRoleMemberCount",
			"outputs": [
				{
					"internalType": "uint256",
					"name": "",
					"type": "uint256"
				}
			],
			"stateMutability": "view",
			"type": "function"
		},
		{
			"inputs": [
				{
					"internalType": "address",
					"name": "account",
					"type": "address"
				}
			],
			"name": "getRoles",
			"outputs": [
				{
					"internalType": "bool",
					"name": "",
					"type": "bool"
				},
				{
					"internalType": "bool",
					"name": "",
					"type": "bool"
				},
				{
					"internalType": "bool",
					"name": "",
					"type": "bool"
				},
				{
					"internalType": "bool",
					"name": "",
					"type": "bool"
				},
				{
					"internalType": "bool",
					"name": "",
					"type": "bool"
				}
			],
			"stateMutability": "view",
			"type": "function"
		},
		{
			"inputs": [
				{
					"internalType": "uint256",
					"name": "tokenId",
					"type": "uint256"
				}
			],
			"name": "getTokenDetails",
			"outputs": [
				{
					"components": [
						{
							"internalType": "uint256",
							"name": "tokenId",
							"type": "uint256"
						},
						{
							"internalType": "uint8",
							"name": "tokenTypeId",
							"type": "uint8"
						},
						{
							"internalType": "address",
							"name": "issuer",
							"type": "address"
						},
						{
							"internalType": "address",
							"name": "issuee",
							"type": "address"
						},
						{
							"internalType": "uint256",
							"name": "fromDate",
							"type": "uint256"
						},
						{
							"internalType": "uint256",
							"name": "thruDate",
							"type": "uint256"
						},
						{
							"internalType": "uint256",
							"name": "dateCreated",
							"type": "uint256"
						},
						{
							"internalType": "uint256",
							"name": "automaticRetireDate",
							"type": "uint256"
						},
						{
							"internalType": "string",
							"name": "metadata",
							"type": "string"
						},
						{
							"internalType": "string",
							"name": "manifest",
							"type": "string"
						},
						{
							"internalType": "string",
							"name": "description",
							"type": "string"
						}
					],
					"internalType": "struct NetEmissionsTokenNetwork.CarbonTokenDetails",
					"name": "",
					"type": "tuple"
				}
			],
			"stateMutability": "view",
			"type": "function"
		},
		{
			"inputs": [
				{
					"internalType": "address",
					"name": "account",
					"type": "address"
				},
				{
					"internalType": "uint256",
					"name": "tokenId",
					"type": "uint256"
				}
			],
			"name": "getTokenRetiredAmount",
			"outputs": [
				{
					"internalType": "uint256",
					"name": "",
					"type": "uint256"
				}
			],
			"stateMutability": "view",
			"type": "function"
		},
		{
			"inputs": [
				{
					"internalType": "uint256",
					"name": "tokenId",
					"type": "uint256"
				}
			],
			"name": "getTokenType",
			"outputs": [
				{
					"internalType": "string",
					"name": "",
					"type": "string"
				}
			],
			"stateMutability": "view",
			"type": "function"
		},
		{
			"inputs": [
				{
					"internalType": "bytes32",
					"name": "role",
					"type": "bytes32"
				},
				{
					"internalType": "address",
					"name": "account",
					"type": "address"
				}
			],
			"name": "grantRole",
			"outputs": [],
			"stateMutability": "nonpayable",
			"type": "function"
		},
		{
			"inputs": [
				{
					"internalType": "bytes32",
					"name": "role",
					"type": "bytes32"
				},
				{
					"internalType": "address",
					"name": "account",
					"type": "address"
				}
			],
			"name": "hasRole",
			"outputs": [
				{
					"internalType": "bool",
					"name": "",
					"type": "bool"
				}
			],
			"stateMutability": "view",
			"type": "function"
		},
		{
			"inputs": [
				{
					"internalType": "address",
					"name": "account",
					"type": "address"
				},
				{
					"internalType": "address",
					"name": "operator",
					"type": "address"
				}
			],
			"name": "isApprovedForAll",
			"outputs": [
				{
					"internalType": "bool",
					"name": "",
					"type": "bool"
				}
			],
			"stateMutability": "view",
			"type": "function"
		},
		{
			"inputs": [
				{
					"internalType": "address",
					"name": "account",
					"type": "address"
				}
			],
			"name": "isConsumerRegistered",
			"outputs": [
				{
					"internalType": "bool",
					"name": "",
					"type": "bool"
				}
			],
			"stateMutability": "view",
			"type": "function"
		},
		{
			"inputs": [
				{
					"internalType": "address",
					"name": "account",
					"type": "address"
				}
			],
			"name": "isDealerRegistered",
			"outputs": [
				{
					"internalType": "bool",
					"name": "",
					"type": "bool"
				}
			],
			"stateMutability": "view",
			"type": "function"
		},
		{
			"inputs": [
				{
					"internalType": "address",
					"name": "account",
					"type": "address"
				},
				{
					"internalType": "uint8",
					"name": "tokenTypeId",
					"type": "uint8"
				},
				{
					"internalType": "uint256",
					"name": "quantity",
					"type": "uint256"
				},
				{
					"internalType": "uint256",
					"name": "fromDate",
					"type": "uint256"
				},
				{
					"internalType": "uint256",
					"name": "thruDate",
					"type": "uint256"
				},
				{
					"internalType": "uint256",
					"name": "automaticRetireDate",
					"type": "uint256"
				},
				{
					"internalType": "string",
					"name": "metadata",
					"type": "string"
				},
				{
					"internalType": "string",
					"name": "manifest",
					"type": "string"
				},
				{
					"internalType": "string",
					"name": "description",
					"type": "string"
				}
			],
			"name": "issue",
			"outputs": [],
			"stateMutability": "nonpayable",
			"type": "function"
		},
		{
			"inputs": [
				{
					"internalType": "address",
					"name": "account",
					"type": "address"
				}
			],
			"name": "registerConsumer",
			"outputs": [],
			"stateMutability": "nonpayable",
			"type": "function"
		},
		{
			"inputs": [
				{
					"internalType": "address",
					"name": "account",
					"type": "address"
				},
				{
					"internalType": "uint8",
					"name": "tokenTypeId",
					"type": "uint8"
				}
			],
			"name": "registerDealer",
			"outputs": [],
			"stateMutability": "nonpayable",
			"type": "function"
		},
		{
			"inputs": [
				{
					"internalType": "bytes32",
					"name": "role",
					"type": "bytes32"
				},
				{
					"internalType": "address",
					"name": "account",
					"type": "address"
				}
			],
			"name": "renounceRole",
			"outputs": [],
			"stateMutability": "nonpayable",
			"type": "function"
		},
		{
			"inputs": [
				{
					"internalType": "uint256",
					"name": "tokenId",
					"type": "uint256"
				},
				{
					"internalType": "uint256",
					"name": "amount",
					"type": "uint256"
				}
			],
			"name": "retire",
			"outputs": [],
			"stateMutability": "nonpayable",
			"type": "function"
		},
		{
			"inputs": [
				{
					"internalType": "bytes32",
					"name": "role",
					"type": "bytes32"
				},
				{
					"internalType": "address",
					"name": "account",
					"type": "address"
				}
			],
			"name": "revokeRole",
			"outputs": [],
			"stateMutability": "nonpayable",
			"type": "function"
		},
		{
			"inputs": [
				{
					"internalType": "address",
					"name": "from",
					"type": "address"
				},
				{
					"internalType": "address",
					"name": "to",
					"type": "address"
				},
				{
					"internalType": "uint256[]",
					"name": "ids",
					"type": "uint256[]"
				},
				{
					"internalType": "uint256[]",
					"name": "amounts",
					"type": "uint256[]"
				},
				{
					"internalType": "bytes",
					"name": "data",
					"type": "bytes"
				}
			],
			"name": "safeBatchTransferFrom",
			"outputs": [],
			"stateMutability": "nonpayable",
			"type": "function"
		},
		{
			"inputs": [
				{
					"internalType": "address",
					"name": "from",
					"type": "address"
				},
				{
					"internalType": "address",
					"name": "to",
					"type": "address"
				},
				{
					"internalType": "uint256",
					"name": "id",
					"type": "uint256"
				},
				{
					"internalType": "uint256",
					"name": "amount",
					"type": "uint256"
				},
				{
					"internalType": "bytes",
					"name": "data",
					"type": "bytes"
				}
			],
			"name": "safeTransferFrom",
			"outputs": [],
			"stateMutability": "nonpayable",
			"type": "function"
		},
		{
			"inputs": [
				{
					"internalType": "address",
					"name": "operator",
					"type": "address"
				},
				{
					"internalType": "bool",
					"name": "approved",
					"type": "bool"
				}
			],
			"name": "setApprovalForAll",
			"outputs": [],
			"stateMutability": "nonpayable",
			"type": "function"
		},
		{
			"inputs": [
				{
					"internalType": "bytes4",
					"name": "interfaceId",
					"type": "bytes4"
				}
			],
			"name": "supportsInterface",
			"outputs": [
				{
					"internalType": "bool",
					"name": "",
					"type": "bool"
				}
			],
			"stateMutability": "view",
			"type": "function"
		},
		{
			"inputs": [
				{
					"internalType": "address",
					"name": "to",
					"type": "address"
				},
				{
					"internalType": "uint256",
					"name": "tokenId",
					"type": "uint256"
				},
				{
					"internalType": "uint256",
					"name": "value",
					"type": "uint256"
				}
			],
			"name": "transfer",
			"outputs": [],
			"stateMutability": "nonpayable",
			"type": "function"
		},
		{
			"inputs": [
				{
					"internalType": "address",
					"name": "account",
					"type": "address"
				}
			],
			"name": "unregisterConsumer",
			"outputs": [],
			"stateMutability": "nonpayable",
			"type": "function"
		},
		{
			"inputs": [
				{
					"internalType": "address",
					"name": "account",
					"type": "address"
				},
				{
					"internalType": "uint8",
					"name": "tokenTypeId",
					"type": "uint8"
				}
			],
			"name": "unregisterDealer",
			"outputs": [],
			"stateMutability": "nonpayable",
			"type": "function"
		},
		{
			"inputs": [
				{
					"internalType": "uint256",
					"name": "",
					"type": "uint256"
				}
			],
			"name": "uri",
			"outputs": [
				{
					"internalType": "string",
					"name": "",
					"type": "string"
				}
			],
			"stateMutability": "view",
			"type": "function"
		}
	]
}