{
  "address": "0xa513E6E4b8f2a923D98304ec87F64353C4D5C853",
  "abi": [
    {
      "inputs": [
        {
          "internalType": "address",
          "name": "admin",
          "type": "address"
        }
      ],
      "stateMutability": "nonpayable",
      "type": "constructor"
    },
    {
      "anonymous": false,
      "inputs": [
        {
          "indexed": true,
          "internalType": "address",
          "name": "account",
          "type": "address"
        },
        {
          "indexed": true,
          "internalType": "address",
          "name": "operator",
          "type": "address"
        },
        {
          "indexed": false,
          "internalType": "bool",
          "name": "approved",
          "type": "bool"
        }
      ],
      "name": "ApprovalForAll",
      "type": "event"
    },
    {
      "anonymous": false,
      "inputs": [
        {
          "indexed": true,
          "internalType": "address",
          "name": "account",
          "type": "address"
        }
      ],
      "name": "RegisteredConsumer",
      "type": "event"
    },
    {
      "anonymous": false,
      "inputs": [
        {
          "indexed": true,
          "internalType": "address",
          "name": "account",
          "type": "address"
        }
      ],
      "name": "RegisteredDealer",
      "type": "event"
    },
    {
      "anonymous": false,
      "inputs": [
        {
          "indexed": true,
          "internalType": "bytes32",
          "name": "role",
          "type": "bytes32"
        },
        {
          "indexed": true,
          "internalType": "bytes32",
          "name": "previousAdminRole",
          "type": "bytes32"
        },
        {
          "indexed": true,
          "internalType": "bytes32",
          "name": "newAdminRole",
          "type": "bytes32"
        }
      ],
      "name": "RoleAdminChanged",
      "type": "event"
    },
    {
      "anonymous": false,
      "inputs": [
        {
          "indexed": true,
          "internalType": "bytes32",
          "name": "role",
          "type": "bytes32"
        },
        {
          "indexed": true,
          "internalType": "address",
          "name": "account",
          "type": "address"
        },
        {
          "indexed": true,
          "internalType": "address",
          "name": "sender",
          "type": "address"
        }
      ],
      "name": "RoleGranted",
      "type": "event"
    },
    {
      "anonymous": false,
      "inputs": [
        {
          "indexed": true,
          "internalType": "bytes32",
          "name": "role",
          "type": "bytes32"
        },
        {
          "indexed": true,
          "internalType": "address",
          "name": "account",
          "type": "address"
        },
        {
          "indexed": true,
          "internalType": "address",
          "name": "sender",
          "type": "address"
        }
      ],
      "name": "RoleRevoked",
      "type": "event"
    },
    {
      "anonymous": false,
      "inputs": [
        {
          "indexed": false,
          "internalType": "uint256",
          "name": "availableBalance",
          "type": "uint256"
        },
        {
          "indexed": false,
          "internalType": "uint256",
          "name": "retiredBalance",
          "type": "uint256"
        },
        {
          "indexed": false,
          "internalType": "uint256",
          "name": "tokenId",
          "type": "uint256"
        },
        {
          "indexed": false,
          "internalType": "uint8",
          "name": "tokenTypeId",
          "type": "uint8"
        },
        {
          "indexed": true,
          "internalType": "address",
          "name": "issuer",
          "type": "address"
        },
        {
          "indexed": true,
          "internalType": "address",
          "name": "issuee",
          "type": "address"
        },
        {
          "indexed": false,
          "internalType": "uint256",
          "name": "fromDate",
          "type": "uint256"
        },
        {
          "indexed": false,
          "internalType": "uint256",
          "name": "thruDate",
          "type": "uint256"
        },
        {
          "indexed": false,
          "internalType": "uint256",
          "name": "dateCreated",
          "type": "uint256"
        },
        {
          "indexed": false,
          "internalType": "uint256",
          "name": "automaticRetireDate",
          "type": "uint256"
        },
        {
          "indexed": false,
          "internalType": "string",
          "name": "metadata",
          "type": "string"
        },
        {
          "indexed": false,
          "internalType": "string",
          "name": "manifest",
          "type": "string"
        },
        {
          "indexed": false,
          "internalType": "string",
          "name": "description",
          "type": "string"
        }
      ],
      "name": "TokenCreated",
      "type": "event"
    },
    {
      "anonymous": false,
      "inputs": [
        {
          "indexed": true,
          "internalType": "address",
          "name": "account",
          "type": "address"
        },
        {
          "indexed": false,
          "internalType": "uint256",
          "name": "tokenId",
          "type": "uint256"
        },
        {
          "indexed": false,
          "internalType": "uint256",
          "name": "amount",
          "type": "uint256"
        }
      ],
      "name": "TokenRetired",
      "type": "event"
    },
    {
      "anonymous": false,
      "inputs": [
        {
          "indexed": true,
          "internalType": "address",
          "name": "operator",
          "type": "address"
        },
        {
          "indexed": true,
          "internalType": "address",
          "name": "from",
          "type": "address"
        },
        {
          "indexed": true,
          "internalType": "address",
          "name": "to",
          "type": "address"
        },
        {
          "indexed": false,
          "internalType": "uint256[]",
          "name": "ids",
          "type": "uint256[]"
        },
        {
          "indexed": false,
          "internalType": "uint256[]",
          "name": "values",
          "type": "uint256[]"
        }
      ],
      "name": "TransferBatch",
      "type": "event"
    },
    {
      "anonymous": false,
      "inputs": [
        {
          "indexed": true,
          "internalType": "address",
          "name": "operator",
          "type": "address"
        },
        {
          "indexed": true,
          "internalType": "address",
          "name": "from",
          "type": "address"
        },
        {
          "indexed": true,
          "internalType": "address",
          "name": "to",
          "type": "address"
        },
        {
          "indexed": false,
          "internalType": "uint256",
          "name": "id",
          "type": "uint256"
        },
        {
          "indexed": false,
          "internalType": "uint256",
          "name": "value",
          "type": "uint256"
        }
      ],
      "name": "TransferSingle",
      "type": "event"
    },
    {
      "anonymous": false,
      "inputs": [
        {
          "indexed": false,
          "internalType": "string",
          "name": "value",
          "type": "string"
        },
        {
          "indexed": true,
          "internalType": "uint256",
          "name": "id",
          "type": "uint256"
        }
      ],
      "name": "URI",
      "type": "event"
    },
    {
      "anonymous": false,
      "inputs": [
        {
          "indexed": true,
          "internalType": "address",
          "name": "account",
          "type": "address"
        }
      ],
      "name": "UnregisteredConsumer",
      "type": "event"
    },
    {
      "anonymous": false,
      "inputs": [
        {
          "indexed": true,
          "internalType": "address",
          "name": "account",
          "type": "address"
        }
      ],
      "name": "UnregisteredDealer",
      "type": "event"
    },
    {
      "inputs": [],
      "name": "DEFAULT_ADMIN_ROLE",
      "outputs": [
        {
          "internalType": "bytes32",
          "name": "",
          "type": "bytes32"
        }
      ],
      "stateMutability": "view",
      "type": "function"
    },
    {
      "inputs": [],
      "name": "REGISTERED_CONSUMER",
      "outputs": [
        {
          "internalType": "bytes32",
          "name": "",
          "type": "bytes32"
        }
      ],
      "stateMutability": "view",
      "type": "function"
    },
    {
      "inputs": [],
      "name": "REGISTERED_DEALER",
      "outputs": [
        {
          "internalType": "bytes32",
          "name": "",
          "type": "bytes32"
        }
      ],
      "stateMutability": "view",
      "type": "function"
    },
    {
      "inputs": [],
      "name": "REGISTERED_EMISSIONS_AUDITOR",
      "outputs": [
        {
          "internalType": "bytes32",
          "name": "",
          "type": "bytes32"
        }
      ],
      "stateMutability": "view",
      "type": "function"
    },
    {
      "inputs": [],
      "name": "REGISTERED_OFFSET_DEALER",
      "outputs": [
        {
          "internalType": "bytes32",
          "name": "",
          "type": "bytes32"
        }
      ],
      "stateMutability": "view",
      "type": "function"
    },
    {
      "inputs": [],
      "name": "REGISTERED_REC_DEALER",
      "outputs": [
        {
          "internalType": "bytes32",
          "name": "",
          "type": "bytes32"
        }
      ],
      "stateMutability": "view",
      "type": "function"
    },
    {
      "inputs": [
        {
          "internalType": "address",
          "name": "account",
          "type": "address"
        },
        {
          "internalType": "uint256",
          "name": "id",
          "type": "uint256"
        }
      ],
      "name": "balanceOf",
      "outputs": [
        {
          "internalType": "uint256",
          "name": "",
          "type": "uint256"
        }
      ],
      "stateMutability": "view",
      "type": "function"
    },
    {
      "inputs": [
        {
          "internalType": "address[]",
          "name": "accounts",
          "type": "address[]"
        },
        {
          "internalType": "uint256[]",
          "name": "ids",
          "type": "uint256[]"
        }
      ],
      "name": "balanceOfBatch",
      "outputs": [
        {
          "internalType": "uint256[]",
          "name": "",
          "type": "uint256[]"
        }
      ],
      "stateMutability": "view",
      "type": "function"
    },
    {
      "inputs": [
        {
          "internalType": "address",
          "name": "account",
          "type": "address"
        },
        {
          "internalType": "uint256",
          "name": "tokenId",
          "type": "uint256"
        }
      ],
      "name": "getAvailableAndRetired",
      "outputs": [
        {
          "internalType": "uint256",
          "name": "",
          "type": "uint256"
        },
        {
          "internalType": "uint256",
          "name": "",
          "type": "uint256"
        }
      ],
      "stateMutability": "view",
      "type": "function"
    },
    {
      "inputs": [
        {
          "internalType": "uint256",
          "name": "tokenId",
          "type": "uint256"
        }
      ],
      "name": "getIssuer",
      "outputs": [
        {
          "internalType": "address",
          "name": "",
          "type": "address"
        }
      ],
      "stateMutability": "view",
      "type": "function"
    },
    {
      "inputs": [],
      "name": "getNumOfUniqueTokens",
      "outputs": [
        {
          "internalType": "uint256",
          "name": "",
          "type": "uint256"
        }
      ],
      "stateMutability": "view",
      "type": "function"
    },
    {
      "inputs": [
        {
          "internalType": "bytes32",
          "name": "role",
          "type": "bytes32"
        }
      ],
      "name": "getRoleAdmin",
      "outputs": [
        {
          "internalType": "bytes32",
          "name": "",
          "type": "bytes32"
        }
      ],
      "stateMutability": "view",
      "type": "function"
    },
    {
      "inputs": [
        {
          "internalType": "bytes32",
          "name": "role",
          "type": "bytes32"
        },
        {
          "internalType": "uint256",
          "name": "index",
          "type": "uint256"
        }
      ],
      "name": "getRoleMember",
      "outputs": [
        {
          "internalType": "address",
          "name": "",
          "type": "address"
        }
      ],
      "stateMutability": "view",
      "type": "function"
    },
    {
      "inputs": [
        {
          "internalType": "bytes32",
          "name": "role",
          "type": "bytes32"
        }
      ],
      "name": "getRoleMemberCount",
      "outputs": [
        {
          "internalType": "uint256",
          "name": "",
          "type": "uint256"
        }
      ],
      "stateMutability": "view",
      "type": "function"
    },
    {
      "inputs": [
        {
          "internalType": "address",
          "name": "account",
          "type": "address"
        }
      ],
      "name": "getRoles",
      "outputs": [
        {
          "internalType": "bool",
          "name": "",
          "type": "bool"
        },
        {
          "internalType": "bool",
          "name": "",
          "type": "bool"
        },
        {
          "internalType": "bool",
          "name": "",
          "type": "bool"
        },
        {
          "internalType": "bool",
          "name": "",
          "type": "bool"
        },
        {
          "internalType": "bool",
          "name": "",
          "type": "bool"
        }
      ],
      "stateMutability": "view",
      "type": "function"
    },
    {
      "inputs": [
        {
          "internalType": "uint256",
          "name": "tokenId",
          "type": "uint256"
        }
      ],
      "name": "getTokenDetails",
      "outputs": [
        {
          "components": [
            {
              "internalType": "uint256",
              "name": "tokenId",
              "type": "uint256"
            },
            {
              "internalType": "uint8",
              "name": "tokenTypeId",
              "type": "uint8"
            },
            {
              "internalType": "address",
              "name": "issuer",
              "type": "address"
            },
            {
              "internalType": "address",
              "name": "issuee",
              "type": "address"
            },
            {
              "internalType": "uint256",
              "name": "fromDate",
              "type": "uint256"
            },
            {
              "internalType": "uint256",
              "name": "thruDate",
              "type": "uint256"
            },
            {
              "internalType": "uint256",
              "name": "dateCreated",
              "type": "uint256"
            },
            {
              "internalType": "uint256",
              "name": "automaticRetireDate",
              "type": "uint256"
            },
            {
              "internalType": "string",
              "name": "metadata",
              "type": "string"
            },
            {
              "internalType": "string",
              "name": "manifest",
              "type": "string"
            },
            {
              "internalType": "string",
              "name": "description",
              "type": "string"
            }
          ],
          "internalType": "struct NetEmissionsTokenNetwork.CarbonTokenDetails",
          "name": "",
          "type": "tuple"
        }
      ],
      "stateMutability": "view",
      "type": "function"
    },
    {
      "inputs": [
        {
          "internalType": "address",
          "name": "account",
          "type": "address"
        },
        {
          "internalType": "uint256",
          "name": "tokenId",
          "type": "uint256"
        }
      ],
      "name": "getTokenRetiredAmount",
      "outputs": [
        {
          "internalType": "uint256",
          "name": "",
          "type": "uint256"
        }
      ],
      "stateMutability": "view",
      "type": "function"
    },
    {
      "inputs": [
        {
          "internalType": "uint256",
          "name": "tokenId",
          "type": "uint256"
        }
      ],
      "name": "getTokenType",
      "outputs": [
        {
          "internalType": "string",
          "name": "",
          "type": "string"
        }
      ],
      "stateMutability": "view",
      "type": "function"
    },
    {
      "inputs": [
        {
          "internalType": "bytes32",
          "name": "role",
          "type": "bytes32"
        },
        {
          "internalType": "address",
          "name": "account",
          "type": "address"
        }
      ],
      "name": "grantRole",
      "outputs": [],
      "stateMutability": "nonpayable",
      "type": "function"
    },
    {
      "inputs": [
        {
          "internalType": "bytes32",
          "name": "role",
          "type": "bytes32"
        },
        {
          "internalType": "address",
          "name": "account",
          "type": "address"
        }
      ],
      "name": "hasRole",
      "outputs": [
        {
          "internalType": "bool",
          "name": "",
          "type": "bool"
        }
      ],
      "stateMutability": "view",
      "type": "function"
    },
    {
      "inputs": [
        {
          "internalType": "address",
          "name": "account",
          "type": "address"
        },
        {
          "internalType": "address",
          "name": "operator",
          "type": "address"
        }
      ],
      "name": "isApprovedForAll",
      "outputs": [
        {
          "internalType": "bool",
          "name": "",
          "type": "bool"
        }
      ],
      "stateMutability": "view",
      "type": "function"
    },
    {
      "inputs": [
        {
          "internalType": "address",
          "name": "account",
          "type": "address"
        }
      ],
      "name": "isConsumerRegistered",
      "outputs": [
        {
          "internalType": "bool",
          "name": "",
          "type": "bool"
        }
      ],
      "stateMutability": "view",
      "type": "function"
    },
    {
      "inputs": [
        {
          "internalType": "address",
          "name": "account",
          "type": "address"
        }
      ],
      "name": "isDealerRegistered",
      "outputs": [
        {
          "internalType": "bool",
          "name": "",
          "type": "bool"
        }
      ],
      "stateMutability": "view",
      "type": "function"
    },
    {
      "inputs": [
        {
          "internalType": "address",
          "name": "issuee",
          "type": "address"
        },
        {
          "internalType": "uint8",
          "name": "tokenTypeId",
          "type": "uint8"
        },
        {
          "internalType": "uint256",
          "name": "quantity",
          "type": "uint256"
        },
        {
          "internalType": "uint256",
          "name": "fromDate",
          "type": "uint256"
        },
        {
          "internalType": "uint256",
          "name": "thruDate",
          "type": "uint256"
        },
        {
          "internalType": "uint256",
          "name": "automaticRetireDate",
          "type": "uint256"
        },
        {
          "internalType": "string",
          "name": "metadata",
          "type": "string"
        },
        {
          "internalType": "string",
          "name": "manifest",
          "type": "string"
        },
        {
          "internalType": "string",
          "name": "description",
          "type": "string"
        }
      ],
      "name": "issue",
      "outputs": [],
      "stateMutability": "nonpayable",
      "type": "function"
    },
    {
      "inputs": [
        {
          "internalType": "address",
          "name": "issuee",
          "type": "address"
        },
        {
          "internalType": "address",
          "name": "proposer",
          "type": "address"
        },
        {
          "internalType": "uint8",
          "name": "tokenTypeId",
          "type": "uint8"
        },
        {
          "internalType": "uint256",
          "name": "quantity",
          "type": "uint256"
        },
        {
          "internalType": "uint256",
          "name": "fromDate",
          "type": "uint256"
        },
        {
          "internalType": "uint256",
          "name": "thruDate",
          "type": "uint256"
        },
        {
          "internalType": "uint256",
          "name": "automaticRetireDate",
          "type": "uint256"
        },
        {
          "internalType": "string",
          "name": "metadata",
          "type": "string"
        },
        {
          "internalType": "string",
          "name": "manifest",
          "type": "string"
        },
        {
          "internalType": "string",
          "name": "description",
          "type": "string"
        }
      ],
      "name": "issueFromDAO",
      "outputs": [],
      "stateMutability": "nonpayable",
      "type": "function"
    },
    {
      "inputs": [
        {
          "internalType": "address",
          "name": "account",
          "type": "address"
        }
      ],
      "name": "registerConsumer",
      "outputs": [],
      "stateMutability": "nonpayable",
      "type": "function"
    },
    {
      "inputs": [
        {
          "internalType": "address",
          "name": "account",
          "type": "address"
        },
        {
          "internalType": "uint8",
          "name": "tokenTypeId",
          "type": "uint8"
        }
      ],
      "name": "registerDealer",
      "outputs": [],
      "stateMutability": "nonpayable",
      "type": "function"
    },
    {
      "inputs": [
        {
          "internalType": "bytes32",
          "name": "role",
          "type": "bytes32"
        },
        {
          "internalType": "address",
          "name": "account",
          "type": "address"
        }
      ],
      "name": "renounceRole",
      "outputs": [],
      "stateMutability": "nonpayable",
      "type": "function"
    },
    {
      "inputs": [
        {
          "internalType": "uint256",
          "name": "tokenId",
          "type": "uint256"
        },
        {
          "internalType": "uint256",
          "name": "amount",
          "type": "uint256"
        }
      ],
      "name": "retire",
      "outputs": [],
      "stateMutability": "nonpayable",
      "type": "function"
    },
    {
      "inputs": [
        {
          "internalType": "bytes32",
          "name": "role",
          "type": "bytes32"
        },
        {
          "internalType": "address",
          "name": "account",
          "type": "address"
        }
      ],
      "name": "revokeRole",
      "outputs": [],
      "stateMutability": "nonpayable",
      "type": "function"
    },
    {
      "inputs": [
        {
          "internalType": "address",
          "name": "from",
          "type": "address"
        },
        {
          "internalType": "address",
          "name": "to",
          "type": "address"
        },
        {
          "internalType": "uint256[]",
          "name": "ids",
          "type": "uint256[]"
        },
        {
          "internalType": "uint256[]",
          "name": "amounts",
          "type": "uint256[]"
        },
        {
          "internalType": "bytes",
          "name": "data",
          "type": "bytes"
        }
      ],
      "name": "safeBatchTransferFrom",
      "outputs": [],
      "stateMutability": "nonpayable",
      "type": "function"
    },
    {
      "inputs": [
        {
          "internalType": "address",
          "name": "from",
          "type": "address"
        },
        {
          "internalType": "address",
          "name": "to",
          "type": "address"
        },
        {
          "internalType": "uint256",
          "name": "id",
          "type": "uint256"
        },
        {
          "internalType": "uint256",
          "name": "amount",
          "type": "uint256"
        },
        {
          "internalType": "bytes",
          "name": "data",
          "type": "bytes"
        }
      ],
      "name": "safeTransferFrom",
      "outputs": [],
      "stateMutability": "nonpayable",
      "type": "function"
    },
    {
      "inputs": [],
      "name": "selfDestruct",
      "outputs": [],
      "stateMutability": "nonpayable",
      "type": "function"
    },
    {
      "inputs": [
        {
          "internalType": "address",
          "name": "operator",
          "type": "address"
        },
        {
          "internalType": "bool",
          "name": "approved",
          "type": "bool"
        }
      ],
      "name": "setApprovalForAll",
      "outputs": [],
      "stateMutability": "nonpayable",
      "type": "function"
    },
    {
      "inputs": [
        {
          "internalType": "bool",
          "name": "_limitedMode",
          "type": "bool"
        }
      ],
      "name": "setLimitedMode",
      "outputs": [],
      "stateMutability": "nonpayable",
      "type": "function"
    },
    {
      "inputs": [
        {
          "internalType": "address",
          "name": "_timelock",
          "type": "address"
        }
      ],
      "name": "setTimelock",
      "outputs": [],
      "stateMutability": "nonpayable",
      "type": "function"
    },
    {
      "inputs": [
        {
          "internalType": "bytes4",
          "name": "interfaceId",
          "type": "bytes4"
        }
      ],
      "name": "supportsInterface",
      "outputs": [
        {
          "internalType": "bool",
          "name": "",
          "type": "bool"
        }
      ],
      "stateMutability": "view",
      "type": "function"
    },
    {
      "inputs": [
        {
          "internalType": "address",
          "name": "to",
          "type": "address"
        },
        {
          "internalType": "uint256",
          "name": "tokenId",
          "type": "uint256"
        },
        {
          "internalType": "uint256",
          "name": "value",
          "type": "uint256"
        }
      ],
      "name": "transfer",
      "outputs": [],
      "stateMutability": "nonpayable",
      "type": "function"
    },
    {
      "inputs": [
        {
          "internalType": "address",
          "name": "account",
          "type": "address"
        }
      ],
      "name": "unregisterConsumer",
      "outputs": [],
      "stateMutability": "nonpayable",
      "type": "function"
    },
    {
      "inputs": [
        {
          "internalType": "address",
          "name": "account",
          "type": "address"
        },
        {
          "internalType": "uint8",
          "name": "tokenTypeId",
          "type": "uint8"
        }
      ],
      "name": "unregisterDealer",
      "outputs": [],
      "stateMutability": "nonpayable",
      "type": "function"
    },
    {
      "inputs": [
        {
          "internalType": "uint256",
          "name": "",
          "type": "uint256"
        }
      ],
      "name": "uri",
      "outputs": [
        {
          "internalType": "string",
          "name": "",
          "type": "string"
        }
      ],
      "stateMutability": "view",
      "type": "function"
    }
  ],
  "transactionHash": "0x40e210b400f4b446973d439d297b1b0b0a581e14ab20a972c413eb4a35f6bc2d",
  "args": [
    "0xf39Fd6e51aad88F6F4ce6aB8827279cffFb92266"
  ],
  "solcInputHash": "20f0afa8b7e72ea2553210d282888c0b",
  "bytecode": "0x6005805460ff19169055600880546001600160a01b0319169055601c60e09081527f52656e657761626c6520456e657267792043657274696669636174650000000061010052608090815260176101209081527f436172626f6e20456d697373696f6e73204f66667365740000000000000000006101405260a0526101a06040526011610160908152704175646974656420456d697373696f6e7360781b6101805260c052620000b490600a906003620003f6565b50348015620000c257600080fd5b50604051620046fc380380620046fc833981016040819052620000e5916200055e565b604080516020810190915260008152620001066301ffc9a760e01b62000224565b62000111816200027f565b62000123636cdb3d1360e11b62000224565b620001356303a24d0760e21b62000224565b50620001717f5e1aa547d3dade8c68b013a47ad41c2bcc9b9e4b0765b0fb616780e15786e76a600080516020620046dc83398151915262000298565b6200017e600082620002ea565b62000199600080516020620046dc83398151915282620002ea565b620001c57f2ab9f1da92e74aaa01eb75a871557505b11dd8d36832a34bb21bbee88b08d86082620002ea565b620001f17fede6574deba8f02ada7888448a497b08844d62e044ed533343a673be3ffcde5f82620002ea565b6200021d7fe97dad3dbe5042e7384b1572cf966a15e089576a62b5126c5ef1d184ab18b12c82620002ea565b50620005c5565b6001600160e01b031980821614156200025a5760405162461bcd60e51b815260040162000251906200058e565b60405180910390fd5b6001600160e01b0319166000908152602081905260409020805460ff19166001179055565b8051620002949060039060208401906200045a565b5050565b600082815260046020526040808220600201549051839285917fbd79b86ffe0ab8e8776151514217cd7cacd52c909f66475c3af44e129f0b00ff9190a460009182526004602052604090912060020155565b62000294828260008281526004602090815260409091206200031791839062001c0b6200036b821b17901c565b156200029457620003276200038b565b6001600160a01b0316816001600160a01b0316837f2f8788117e7eff1d82e926ec794901d17c78024a50270940304540a733656f0d60405160405180910390a45050565b600062000382836001600160a01b0384166200038f565b90505b92915050565b3390565b60006200039d8383620003de565b620003d55750815460018181018455600084815260208082209093018490558454848252828601909352604090209190915562000385565b50600062000385565b60009081526001919091016020526040902054151590565b82805482825590600052602060002090810192821562000448579160200282015b82811115620004485782518051620004379184916020909101906200045a565b509160200191906001019062000417565b5062000456929150620004db565b5090565b828054600181600116156101000203166002900490600052602060002090601f016020900481019282601f106200049d57805160ff1916838001178555620004cd565b82800160010185558215620004cd579182015b82811115620004cd578251825591602001919060010190620004b0565b5062000456929150620004fc565b8082111562000456576000620004f2828262000513565b50600101620004db565b5b80821115620004565760008155600101620004fd565b50805460018160011615610100020316600290046000825580601f106200053b57506200055b565b601f0160209004906000526020600020908101906200055b9190620004fc565b50565b60006020828403121562000570578081fd5b81516001600160a01b038116811462000587578182fd5b9392505050565b6020808252601c908201527f4552433136353a20696e76616c696420696e7465726661636520696400000000604082015260600190565b61410780620005d56000396000f3fe608060405234801561001057600080fd5b50600436106102525760003560e01c806378e5c59211610146578063bdacb303116100c3578063ddc3e6eb11610087578063ddc3e6eb1461051b578063e2e564f21461052e578063e985e9c514610541578063f242432a14610554578063fcba794814610567578063fd0c4a9a1461056f57610252565b8063bdacb3031461049e578063c1e03728146104b1578063ca15c873146104d1578063ce6ccfaf146104e4578063d547741f1461050857610252565b80639cb8a26a1161010a5780639cb8a26a14610455578063a0d975a71461045d578063a217fddf14610470578063a22cb46514610478578063a53b5dd91461048b57610252565b806378e5c592146103e65780637f157c9b146103ee5780639010d07c1461040f57806391d148541461042f57806392089c461461044257610252565b806331aa4b20116101d457806353dbe9821161019857806353dbe9821461039d5780635ddb368f146103b057806369f7ef44146103b857806376aed2e1146103cb57806376ce4755146103de57610252565b806331aa4b201461033157806333781a0e1461034457806336568abe1461035757806344b22fdd1461036a5780634e1273f41461037d57610252565b80631ef68ef71161021b5780631ef68ef7146102dd578063248a9ca3146102e5578063293a7f2e146102f85780632eb2c2d61461030b5780632f2ff15d1461031e57610252565b8062fdd58e1461025757806301ffc9a714610280578063095bcdb6146102a05780630e89341c146102b557806318a50d7e146102d5575b600080fd5b61026a610265366004612c5d565b610582565b60405161027791906131a4565b60405180910390f35b61029361028e366004612ef3565b6105de565b6040516102779190613170565b6102b36102ae366004612c87565b610601565b005b6102c86102c3366004612e96565b610726565b60405161027791906131ad565b61026a6107be565b61026a6107e2565b61026a6102f3366004612e96565b6107f4565b6102b3610306366004612ed2565b610809565b6102b3610319366004612a31565b61098a565b6102b361032c366004612eae565b610ba4565b6102b361033f366004612cba565b610bec565b6102936103523660046129e2565b610cff565b6102b3610365366004612eae565b610d19565b6102b36103783660046129e2565b610d5b565b61039061038b366004612db4565b610e60565b604051610277919061312f565b6102b36103ab3660046129e2565b610fa0565b61026a6110a5565b6102936103c63660046129e2565b6110b7565b6102c86103d9366004612e96565b611139565b61026a611227565b61026a611239565b6104016103fc366004612c5d565b61124b565b604051610277929190613e45565b61042261041d366004612ed2565b6112e2565b604051610277919061305f565b61029361043d366004612eae565b611301565b610422610450366004612e96565b611319565b6102b361133c565b61026a61046b366004612c5d565b611366565b61026a6113b5565b6102b3610486366004612c22565b6113ba565b6102b3610499366004612b40565b611488565b6102b36104ac3660046129e2565b6114d0565b6104c46104bf366004612e96565b611519565b6040516102779190613d6d565b61026a6104df366004612e96565b611757565b6104f76104f23660046129e2565b61176e565b60405161027795949392919061317b565b6102b3610516366004612eae565b611802565b6102b3610529366004612e76565b61183c565b6102b361053c366004612cba565b611876565b61029361054f3660046129fd565b611996565b6102b3610562366004612adb565b6119c4565b61026a611b58565b6102b361057d366004612ce5565b611b6a565b60006001600160a01b0383166105b35760405162461bcd60e51b81526004016105aa90613336565b60405180910390fd5b5060008181526001602090815260408083206001600160a01b03861684529091529020545b92915050565b6001600160e01b0319811660009081526020819052604090205460ff165b919050565b600061061b60008051602061404883398151915233611301565b9050600061063760008051602061409283398151915233611301565b9050600061065360008051602061402883398151915233611301565b9050600061066f6000805160206140b283398151915233611301565b9050838061067a5750825b806106825750815b8061068a5750805b6106a65760405162461bcd60e51b81526004016105aa90613c7d565b6106af86611c20565b6106cb5760405162461bcd60e51b81526004016105aa906138e1565b336001600160a01b03881614156106f45760405162461bcd60e51b81526004016105aa906137b8565b61071d33888888604051806040016040528060048152602001630307830360e41b8152506119c4565b50505050505050565b60038054604080516020601f60026000196101006001881615020190951694909404938401819004810282018101909252828152606093909290918301828280156107b25780601f10610787576101008083540402835291602001916107b2565b820191906000526020600020905b81548152906001019060200180831161079557829003601f168201915b50505050509050919050565b7ff8890eedd7900ad88da6192fd03dbb69dbeee963b1a0ed738abe49ab3331aaf381565b60008051602061402883398151915281565b60009081526004602052604090206002015490565b600061082360008051602061404883398151915233611301565b9050600061083f60008051602061409283398151915233611301565b9050600061085b60008051602061402883398151915233611301565b905060006108776000805160206140b283398151915233611301565b905083806108825750825b8061088a5750815b806108925750805b6108ae5760405162461bcd60e51b81526004016105aa90613c7d565b6108b786611c20565b6108d35760405162461bcd60e51b81526004016105aa906133d2565b6108dd3387610582565b8511156108fc5760405162461bcd60e51b81526004016105aa9061368a565b610907338787611c42565b600086815260076020908152604080832033845290915290205461092b9086611d58565b60008781526007602090815260408083203380855292529182902092909255517f8f1b5ebb586d3d169e4ed07db9cd10ce0dd30c7b656171310eae7517c0b53cf99061097a9089908990613e45565b60405180910390a2505050505050565b81518351146109ab5760405162461bcd60e51b81526004016105aa90613bf4565b6001600160a01b0384166109d15760405162461bcd60e51b81526004016105aa906136de565b6109d9611d7d565b6001600160a01b0316856001600160a01b031614806109ff57506109ff8561054f611d7d565b610a1b5760405162461bcd60e51b81526004016105aa90613723565b6000610a25611d7d565b9050610a35818787878787611d81565b60005b8451811015610b36576000858281518110610a4f57fe5b602002602001015190506000858381518110610a6757fe5b60200260200101519050610ad4816040518060600160405280602a8152602001614068602a91396001600086815260200190815260200160002060008d6001600160a01b03166001600160a01b0316815260200190815260200160002054611dd19092919063ffffffff16565b60008381526001602090815260408083206001600160a01b038e811685529252808320939093558a1681522054610b0b9082611d58565b60009283526001602081815260408086206001600160a01b038d168752909152909320555001610a38565b50846001600160a01b0316866001600160a01b0316826001600160a01b03167f4a39dc06d4c0dbc64b70af90fd698a233a518aa5d07e595d983b8c0526c8f7fb8787604051610b86929190613142565b60405180910390a4610b9c818787878787611dfd565b505050505050565b600082815260046020526040902060020154610bc29061043d611d7d565b610bde5760405162461bcd60e51b81526004016105aa9061329e565b610be88282611f0b565b5050565b610bf7600033611301565b610c135760405162461bcd60e51b81526004016105aa9061359e565b610c1c81611f74565b610c385760405162461bcd60e51b81526004016105aa9061380e565b8060ff1660011415610c6157610c5c60008051602061409283398151915283610ba4565b610c9d565b8060ff1660021415610c8557610c5c60008051602061402883398151915283610ba4565b610c9d6000805160206140b283398151915283610ba4565b610cc77ff8890eedd7900ad88da6192fd03dbb69dbeee963b1a0ed738abe49ab3331aaf383610ba4565b6040516001600160a01b038316907fa8377deee15954185683d55effd369508b4935978c8cb2bab790bf04c570181490600090a25050565b60006105d860008051602061404883398151915283611301565b610d21611d7d565b6001600160a01b0316816001600160a01b031614610d515760405162461bcd60e51b81526004016105aa90613d1e565b610be88282611f9a565b6000610d7560008051602061409283398151915233611301565b90506000610d9160008051602061402883398151915233611301565b90506000610dad6000805160206140b283398151915233611301565b90508280610db85750815b80610dc05750805b610ddc5760405162461bcd60e51b81526004016105aa906132ed565b60055460ff1615610e0e57610df2600033611301565b610e0e5760405162461bcd60e51b81526004016105aa90613927565b610e2660008051602061404883398151915285610ba4565b6040516001600160a01b038516907f69a0adee259d26fe61f4776f7bea7f3a9737c7321256821b985f988545efd31990600090a250505050565b60608151835114610e835760405162461bcd60e51b81526004016105aa90613b5b565b6060835167ffffffffffffffff81118015610e9d57600080fd5b50604051908082528060200260200182016040528015610ec7578160200160208202803683370190505b50905060005b8451811015610f985760006001600160a01b0316858281518110610eed57fe5b60200260200101516001600160a01b03161415610f1c5760405162461bcd60e51b81526004016105aa90613381565b60016000858381518110610f2c57fe5b602002602001015181526020019081526020016000206000868381518110610f5057fe5b60200260200101516001600160a01b03166001600160a01b0316815260200190815260200160002054828281518110610f8557fe5b6020908102919091010152600101610ecd565b509392505050565b6000610fba60008051602061409283398151915233611301565b90506000610fd660008051602061402883398151915233611301565b90506000610ff26000805160206140b283398151915233611301565b90508280610ffd5750815b806110055750805b6110215760405162461bcd60e51b81526004016105aa906132ed565b60055460ff161561105357611037600033611301565b6110535760405162461bcd60e51b81526004016105aa906134e8565b61106b60008051602061404883398151915285611802565b6040516001600160a01b038516907f03a38088da75ee2d80f6c753f55f8fd17602ae17d8bd0ef44d5e1f28ab5af11f90600090a250505050565b60006110b16009612003565b90505b90565b6000806110d260008051602061409283398151915284611301565b905060006110ee60008051602061402883398151915285611301565b9050600061110a6000805160206140b283398151915286611301565b905082806111155750815b8061111d5750805b1561112e57600193505050506105fc565b506000949350505050565b606061114482611c20565b6111605760405162461bcd60e51b81526004016105aa90613554565b600082815260066020526040902060010154600a805460609260001960ff918216011690811061118c57fe5b600091825260209182902001805460408051601f600260001961010060018716150201909416939093049283018590048502810185019091528181529283018282801561121a5780601f106111ef5761010080835404028352916020019161121a565b820191906000526020600020905b8154815290600101906020018083116111fd57829003601f168201915b5093979650505050505050565b6000805160206140b283398151915281565b60008051602061404883398151915281565b600080600061125a8585610582565b60405163a0d975a760e01b8152909150600090309063a0d975a7906112859089908990600401613116565b60206040518083038186803b15801561129d57600080fd5b505afa1580156112b1573d6000803e3d6000fd5b505050506040513d601f19601f820116820180604052508101906112d59190612f2b565b9196919550909350505050565b60008281526004602052604081206112fa9083612007565b9392505050565b60008281526004602052604081206112fa9083612013565b60009081526006602052604090206001015461010090046001600160a01b031690565b611347600033611301565b6113635760405162461bcd60e51b81526004016105aa9061359e565b30ff5b600061137182611c20565b61138d5760405162461bcd60e51b81526004016105aa906139ec565b5060009081526007602090815260408083206001600160a01b03949094168352929052205490565b600081565b816001600160a01b03166113cc611d7d565b6001600160a01b031614156113f35760405162461bcd60e51b81526004016105aa90613b12565b8060026000611400611d7d565b6001600160a01b03908116825260208083019390935260409182016000908120918716808252919093529120805460ff191692151592909217909155611444611d7d565b6001600160a01b03167f17307eab39ab6107e8899845ad3d59bd9653f200f220920489ca2b5937696c318360405161147c9190613170565b60405180910390a35050565b6008546001600160a01b031633146114b25760405162461bcd60e51b81526004016105aa90613a3f565b6114c48a8a8a8a8a8a8a8a8a8a612028565b50505050505050505050565b6114db600033611301565b6114f75760405162461bcd60e51b81526004016105aa9061359e565b600880546001600160a01b0319166001600160a01b0392909216919091179055565b6115216127e1565b6000828152600660208181526040928390208351610160810185528154815260018083015460ff811683860152610100908190046001600160a01b0390811684890152600280860154909116606085015260038501546080850152600485015460a0850152600585015460c08501529584015460e08401526007840180548851938116158302600019011696909604601f8101869004860283018601909752868252919592949186019390929083018282801561161f5780601f106115f45761010080835404028352916020019161161f565b820191906000526020600020905b81548152906001019060200180831161160257829003601f168201915b505050918352505060088201805460408051602060026001851615610100026000190190941693909304601f81018490048402820184019092528181529382019392918301828280156116b35780601f10611688576101008083540402835291602001916116b3565b820191906000526020600020905b81548152906001019060200180831161169657829003601f168201915b505050918352505060098201805460408051602060026001851615610100026000190190941693909304601f81018490048402820184019092528181529382019392918301828280156117475780601f1061171c57610100808354040283529160200191611747565b820191906000526020600020905b81548152906001019060200180831161172a57829003601f168201915b5050505050815250509050919050565b60008181526004602052604081206105d890612445565b6000808080808061177f8188611301565b9050600061179b60008051602061409283398151915289611301565b905060006117b76000805160206140288339815191528a611301565b905060006117d36000805160206140b28339815191528b611301565b905060006117ef6000805160206140488339815191528c611301565b949b939a50919850965091945092505050565b6000828152600460205260409020600201546118209061043d611d7d565b610d515760405162461bcd60e51b81526004016105aa9061363a565b611847600033611301565b6118635760405162461bcd60e51b81526004016105aa9061359e565b6005805460ff1916911515919091179055565b611881600033611301565b61189d5760405162461bcd60e51b81526004016105aa9061359e565b6118a681611f74565b6118c25760405162461bcd60e51b81526004016105aa9061344d565b8060ff16600114156118eb576118e660008051602061409283398151915283611802565b611927565b8060ff166002141561190f576118e660008051602061402883398151915283611802565b6119276000805160206140b283398151915283611802565b611930826110b7565b61195e5761195e7ff8890eedd7900ad88da6192fd03dbb69dbeee963b1a0ed738abe49ab3331aaf383611802565b6040516001600160a01b038316907f98552ded770f1d05a505572f3387c108dbc6b566ea3d49f83cff3d1f1c72a04290600090a25050565b6001600160a01b03918216600090815260026020908152604080832093909416825291909152205460ff1690565b6001600160a01b0384166119ea5760405162461bcd60e51b81526004016105aa906136de565b6119f2611d7d565b6001600160a01b0316856001600160a01b03161480611a185750611a188561054f611d7d565b611a345760405162461bcd60e51b81526004016105aa9061349f565b6000611a3e611d7d565b9050611a5e818787611a4f88612450565b611a5888612450565b87611d81565b611aa5836040518060600160405280602a8152602001614068602a913960008781526001602090815260408083206001600160a01b038d1684529091529020549190611dd1565b60008581526001602090815260408083206001600160a01b038b81168552925280832093909355871681522054611adc9084611d58565b60008581526001602090815260408083206001600160a01b03808b168086529190935292819020939093559151909188811691908416907fc3d58168c5ae7397731d063d5bbf3d657854427343f4c083240f7aacaa2d0f6290611b429089908990613e45565b60405180910390a4610b9c818787878787612494565b60008051602061409283398151915281565b6000611b8460008051602061409283398151915233611301565b90506000611ba060008051602061402883398151915233611301565b90506000611bbc6000805160206140b283398151915233611301565b90508280611bc75750815b80611bcf5750805b611beb5760405162461bcd60e51b81526004016105aa906132ed565b611bfd8c338d8d8d8d8d8d8d8d612028565b505050505050505050505050565b60006112fa836001600160a01b038416612565565b600081611c2d6009612003565b10611c3a575060016105fc565b506000919050565b6001600160a01b038316611c685760405162461bcd60e51b81526004016105aa90613775565b6000611c72611d7d565b9050611ca281856000611c8487612450565b611c8d87612450565b60405180602001604052806000815250611d81565b611ce9826040518060600160405280602481526020016140046024913960008681526001602090815260408083206001600160a01b038b1684529091529020549190611dd1565b60008481526001602090815260408083206001600160a01b03808a16808652919093528184209490945551919291908416907fc3d58168c5ae7397731d063d5bbf3d657854427343f4c083240f7aacaa2d0f6290611d4a9088908890613e45565b60405180910390a450505050565b6000828201838110156112fa5760405162461bcd60e51b81526004016105aa90613416565b3390565b60055460ff1615610b9c57611d97600087611301565b80611db55750611db56000805160206140b283398151915287611301565b610b9c5760405162461bcd60e51b81526004016105aa9061385e565b60008184841115611df55760405162461bcd60e51b81526004016105aa91906131ad565b505050900390565b611e0f846001600160a01b03166125af565b15610b9c5760405163bc197c8160e01b81526001600160a01b0385169063bc197c8190611e489089908990889088908890600401613073565b602060405180830381600087803b158015611e6257600080fd5b505af1925050508015611e92575060408051601f3d908101601f19168201909252611e8f91810190612f0f565b60015b611edb57611e9e613f30565b80611ea95750611ec3565b8060405162461bcd60e51b81526004016105aa91906131ad565b60405162461bcd60e51b81526004016105aa906131c0565b6001600160e01b0319811663bc197c8160e01b1461071d5760405162461bcd60e51b81526004016105aa90613256565b6000828152600460205260409020611f239082611c0b565b15610be857611f30611d7d565b6001600160a01b0316816001600160a01b0316837f2f8788117e7eff1d82e926ec794901d17c78024a50270940304540a733656f0d60405160405180910390a45050565b6000808260ff16118015611f8d5750600a5460ff831611155b15611c3a575060016105fc565b6000828152600460205260409020611fb290826125b5565b15610be857611fbf611d7d565b6001600160a01b0316816001600160a01b0316837ff6391f5c32d9c69d2a47ea670b442974b53935d1edc7fd64eb21e047a839171b60405160405180910390a45050565b5490565b60006112fa83836125ca565b60006112fa836001600160a01b03841661260f565b61203188611f74565b61204d5760405162461bcd60e51b81526004016105aa90613cda565b60055460ff16156120b7578760ff166003146120b7576008546001600160a01b038a81169116146120905760405162461bcd60e51b81526004016105aa90613a81565b61209b60008b611301565b6120b75760405162461bcd60e51b81526004016105aa90613acb565b8760ff16600114156120fc576120db6000805160206140928339815191528a611301565b6120f75760405162461bcd60e51b81526004016105aa90613ba4565b612170565b8760ff166002141561213c576121206000805160206140288339815191528a611301565b6120f75760405162461bcd60e51b81526004016105aa906135e7565b6121546000805160206140b28339815191528a611301565b6121705760405162461bcd60e51b81526004016105aa9061398f565b61217a6009612627565b60006006600061218a6009612003565b815260200190815260200160002090506121a46009612003565b8160000181905550888160010160006101000a81548160ff021916908360ff1602179055508a8160020160006101000a8154816001600160a01b0302191690836001600160a01b03160217905550898160010160016101000a8154816001600160a01b0302191690836001600160a01b0316021790555086816003018190555085816004018190555084816006018190555042816005018190555083816007019080519060200190612257929190612850565b50825161226d9060088301906020860190612850565b5081516122839060098301906020850190612850565b506122a88b6122926009612003565b8a60405180602001604052806000815250612630565b8860ff166003141561232c57600281015481546122cf916001600160a01b0316908a611c42565b8054600090815260076020908152604080832060028501546001600160a01b031684529091529020546123029089611d58565b8154600090815260076020908152604080832060028601546001600160a01b031684529091529020555b8060020160009054906101000a90046001600160a01b03166001600160a01b03168160010160019054906101000a90046001600160a01b03166001600160a01b03167f99cc3eeb446560c9a2d2483bc5160735ec0fb1851aea3bde32e7a56c30c11da68a600760008660000154815260200190815260200160002060008660020160009054906101000a90046001600160a01b03166001600160a01b03166001600160a01b031681526020019081526020016000205485600001548660010160009054906101000a900460ff168760030154886004015489600601548a600501548b6007018c6008018d6009016040516124309b9a99989796959493929190613e53565b60405180910390a35050505050505050505050565b60006105d882612003565b60408051600180825281830190925260609182919060208083019080368337019050509050828160008151811061248357fe5b602090810291909101015292915050565b6124a6846001600160a01b03166125af565b15610b9c5760405163f23a6e6160e01b81526001600160a01b0385169063f23a6e61906124df90899089908890889088906004016130d1565b602060405180830381600087803b1580156124f957600080fd5b505af1925050508015612529575060408051601f3d908101601f1916820190925261252691810190612f0f565b60015b61253557611e9e613f30565b6001600160e01b0319811663f23a6e6160e01b1461071d5760405162461bcd60e51b81526004016105aa90613256565b6000612571838361260f565b6125a7575081546001818101845560008481526020808220909301849055845484825282860190935260409020919091556105d8565b5060006105d8565b3b151590565b60006112fa836001600160a01b03841661271b565b815460009082106125ed5760405162461bcd60e51b81526004016105aa90613214565b8260000182815481106125fc57fe5b9060005260206000200154905092915050565b60009081526001919091016020526040902054151590565b80546001019055565b6001600160a01b0384166126565760405162461bcd60e51b81526004016105aa90613c3c565b6000612660611d7d565b905061267281600087611a4f88612450565b60008481526001602090815260408083206001600160a01b038916845290915290205461269f9084611d58565b60008581526001602090815260408083206001600160a01b03808b16808652919093528184209490945551908416907fc3d58168c5ae7397731d063d5bbf3d657854427343f4c083240f7aacaa2d0f62906126fd9089908990613e45565b60405180910390a461271481600087878787612494565b5050505050565b600081815260018301602052604081205480156127d7578354600019808301919081019060009087908390811061274e57fe5b906000526020600020015490508087600001848154811061276b57fe5b60009182526020808320909101929092558281526001898101909252604090209084019055865487908061279b57fe5b600190038181906000526020600020016000905590558660010160008781526020019081526020016000206000905560019450505050506105d8565b60009150506105d8565b60405180610160016040528060008152602001600060ff16815260200160006001600160a01b0316815260200160006001600160a01b03168152602001600081526020016000815260200160008152602001600081526020016060815260200160608152602001606081525090565b828054600181600116156101000203166002900490600052602060002090601f016020900481019282601f1061289157805160ff19168380011785556128be565b828001600101855582156128be579182015b828111156128be5782518255916020019190600101906128a3565b506128ca9291506128ce565b5090565b5b808211156128ca57600081556001016128cf565b80356001600160a01b03811681146105d857600080fd5b600082601f83011261290a578081fd5b813561291d61291882613efe565b613ed7565b81815291506020808301908481018184028601820187101561293e57600080fd5b60005b8481101561295d57813584529282019290820190600101612941565b505050505092915050565b600082601f830112612978578081fd5b813567ffffffffffffffff81111561298e578182fd5b6129a1601f8201601f1916602001613ed7565b91508082528360208285010111156129b857600080fd5b8060208401602084013760009082016020015292915050565b803560ff811681146105d857600080fd5b6000602082840312156129f3578081fd5b6112fa83836128e3565b60008060408385031215612a0f578081fd5b612a1984846128e3565b9150612a2884602085016128e3565b90509250929050565b600080600080600060a08688031215612a48578081fd5b8535612a5381613fd5565b94506020860135612a6381613fd5565b9350604086013567ffffffffffffffff80821115612a7f578283fd5b612a8b89838a016128fa565b94506060880135915080821115612aa0578283fd5b612aac89838a016128fa565b93506080880135915080821115612ac1578283fd5b50612ace88828901612968565b9150509295509295909350565b600080600080600060a08688031215612af2578081fd5b612afc87876128e3565b9450612b0b87602088016128e3565b93506040860135925060608601359150608086013567ffffffffffffffff811115612b34578182fd5b612ace88828901612968565b6000806000806000806000806000806101408b8d031215612b5f578485fd5b612b698c8c6128e3565b9950612b788c60208d016128e3565b9850612b878c60408d016129d1565b975060608b0135965060808b0135955060a08b0135945060c08b0135935060e08b013567ffffffffffffffff80821115612bbf578485fd5b612bcb8e838f01612968565b94506101008d0135915080821115612be1578384fd5b612bed8e838f01612968565b93506101208d0135915080821115612c03578283fd5b50612c108d828e01612968565b9150509295989b9194979a5092959850565b60008060408385031215612c34578182fd5b612c3e84846128e3565b915060208301358015158114612c52578182fd5b809150509250929050565b60008060408385031215612c6f578182fd5b612c7984846128e3565b946020939093013593505050565b600080600060608486031215612c9b578081fd5b612ca585856128e3565b95602085013595506040909401359392505050565b60008060408385031215612ccc578182fd5b612cd684846128e3565b9150612a2884602085016129d1565b60008060008060008060008060006101208a8c031215612d03578283fd5b612d0d8b8b6128e3565b9850612d1c8b60208c016129d1565b975060408a0135965060608a0135955060808a0135945060a08a0135935060c08a013567ffffffffffffffff80821115612d54578485fd5b612d608d838e01612968565b945060e08c0135915080821115612d75578384fd5b612d818d838e01612968565b93506101008c0135915080821115612d97578283fd5b50612da48c828d01612968565b9150509295985092959850929598565b60008060408385031215612dc6578182fd5b823567ffffffffffffffff80821115612ddd578384fd5b818501915085601f830112612df0578384fd5b8135612dfe61291882613efe565b80828252602080830192508086018a828387028901011115612e1e578889fd5b8896505b84871015612e4857612e348b826128e3565b845260019690960195928101928101612e22565b509096508701359350505080821115612e5f578283fd5b50612e6c858286016128fa565b9150509250929050565b600060208284031215612e87578081fd5b813580151581146112fa578182fd5b600060208284031215612ea7578081fd5b5035919050565b60008060408385031215612ec0578182fd5b823591506020830135612c5281613fd5565b60008060408385031215612ee4578182fd5b50508035926020909101359150565b600060208284031215612f04578081fd5b81356112fa81613fed565b600060208284031215612f20578081fd5b81516112fa81613fed565b600060208284031215612f3c578081fd5b5051919050565b6001600160a01b03169052565b6000815180845260208085019450808401835b83811015612f7f57815187529582019590820190600101612f63565b509495945050505050565b60008151808452815b81811015612faf57602081850181015186830182015201612f93565b81811115612fc05782602083870101525b50601f01601f19169290920160200192915050565b60008154600180821660008114612ff357600181146130115761304f565b60028304607f16865260ff198316602087015260408601935061304f565b6002830480875261302186613f1e565b60005b828110156130455781546020828b0101528482019150602081019050613024565b8801602001955050505b50505092915050565b60ff169052565b6001600160a01b0391909116815260200190565b6001600160a01b0386811682528516602082015260a06040820181905260009061309f90830186612f50565b82810360608401526130b18186612f50565b905082810360808401526130c58185612f8a565b98975050505050505050565b6001600160a01b03868116825285166020820152604081018490526060810183905260a06080820181905260009061310b90830184612f8a565b979650505050505050565b6001600160a01b03929092168252602082015260400190565b6000602082526112fa6020830184612f50565b6000604082526131556040830185612f50565b82810360208401526131678185612f50565b95945050505050565b901515815260200190565b941515855292151560208501529015156040840152151560608301521515608082015260a00190565b90815260200190565b6000602082526112fa6020830184612f8a565b60208082526034908201527f455243313135353a207472616e7366657220746f206e6f6e20455243313135356040820152732932b1b2b4bb32b91034b6b83632b6b2b73a32b960611b606082015260800190565b60208082526022908201527f456e756d657261626c655365743a20696e646578206f7574206f6620626f756e604082015261647360f01b606082015260800190565b60208082526028908201527f455243313135353a204552433131353552656365697665722072656a656374656040820152676420746f6b656e7360c01b606082015260800190565b6020808252602f908201527f416363657373436f6e74726f6c3a2073656e646572206d75737420626520616e60408201526e0818591b5a5b881d1bc819dc985b9d608a1b606082015260800190565b60208082526029908201527f434c4d383a3a6f6e6c794465616c65723a206d73672e73656e646572206e6f746040820152681030903232b0b632b960b91b606082015260800190565b6020808252602b908201527f455243313135353a2062616c616e636520717565727920666f7220746865207a60408201526a65726f206164647265737360a81b606082015260800190565b60208082526031908201527f455243313135353a2062617463682062616c616e636520717565727920666f7260408201527020746865207a65726f206164647265737360781b606082015260800190565b60208082526024908201527f434c4d383a3a7265746972653a20746f6b656e496420646f6573206e6f7420656040820152631e1a5cdd60e21b606082015260800190565b6020808252601b908201527f536166654d6174683a206164646974696f6e206f766572666c6f770000000000604082015260600190565b60208082526032908201527f434c4d383a3a756e72656769737465724465616c65723a20746f6b656e54797060408201527119525908191bd95cc81b9bdd08195e1a5cdd60721b606082015260800190565b60208082526029908201527f455243313135353a2063616c6c6572206973206e6f74206f776e6572206e6f7260408201526808185c1c1c9bdd995960ba1b606082015260800190565b60208082526046908201527f434c4d383a3a756e7265676973746572436f6e73756d6572286c696d6974656460408201527f293a206f6e6c792061646d696e2063616e20756e726567697374657220636f6e60608201526573756d65727360d01b608082015260a00190565b6020808252602a908201527f434c4d383a3a676574546f6b656e547970653a20746f6b656e496420646f6573604082015269081b9bdd08195e1a5cdd60b21b606082015260800190565b60208082526029908201527f434c4d383a3a6f6e6c7941646d696e3a206d73672e73656e646572206e6f74206040820152683a34329030b236b4b760b91b606082015260800190565b60208082526033908201527f434c4d383a3a5f69737375653a20697373756572206e6f7420612072656769736040820152723a32b932b21037b33339b2ba103232b0b632b960691b606082015260800190565b60208082526030908201527f416363657373436f6e74726f6c3a2073656e646572206d75737420626520616e60408201526f2061646d696e20746f207265766f6b6560801b606082015260800190565b60208082526034908201527f434c4d383a3a7265746972653a206e6f7420656e6f75676820617661696c61626040820152736c652062616c616e636520746f2072657469726560601b606082015260800190565b60208082526025908201527f455243313135353a207472616e7366657220746f20746865207a65726f206164604082015264647265737360d81b606082015260800190565b60208082526032908201527f455243313135353a207472616e736665722063616c6c6572206973206e6f74206040820152711bdddb995c881b9bdc88185c1c1c9bdd995960721b606082015260800190565b60208082526023908201527f455243313135353a206275726e2066726f6d20746865207a65726f206164647260408201526265737360e81b606082015260800190565b60208082526036908201527f434c4d383a3a7472616e736665723a2073656e64657220616e642072656365696040820152757665722063616e6e6f74206265207468652073616d6560501b606082015260800190565b60208082526030908201527f434c4d383a3a72656769737465724465616c65723a20746f6b656e547970654960408201526f1908191bd95cc81b9bdd08195e1a5cdd60821b606082015260800190565b6020808252605a908201527f434c4d383a3a5f6265666f7265546f6b656e5472616e73666572286c696d697460408201527f6564293a206f6e6c792061646d696e20616e6420656d697373696f6e7320617560608201527f6469746f72732063616e207472616e7366657220746f6b656e73000000000000608082015260a00190565b60208082526026908201527f434c4d383a3a7472616e736665723a20746f6b656e496420646f6573206e6f7460408201526508195e1a5cdd60d21b606082015260800190565b60208082526042908201527f434c4d383a3a7265676973746572436f6e73756d6572286c696d69746564293a60408201527f206f6e6c792061646d696e2063616e20726567697374657220636f6e73756d65606082015261727360f01b608082015260a00190565b60208082526037908201527f434c4d383a3a5f69737375653a20697373756572206e6f74206120726567697360408201527f746572656420656d697373696f6e732061756469746f72000000000000000000606082015260800190565b60208082526033908201527f434c4d383a3a676574546f6b656e52657469726564416d6f756e743a20746f6b604082015272195b925908191bd95cc81b9bdd08195e1a5cdd606a1b606082015260800190565b60208082526022908201527f434c4d383a3a6f6e6c7944414f3a20596f7520617265206e6f74207468652044604082015261414f60f01b606082015260800190565b6020808252602a908201527f434c4d383a3a5f6973737565286c696d69746564293a20697373756572206e6f604082015269742074696d656c6f636b60b01b606082015260800190565b60208082526027908201527f434c4d383a3a5f6973737565286c696d69746564293a20697373756565206e6f6040820152663a1030b236b4b760c91b606082015260800190565b60208082526029908201527f455243313135353a2073657474696e6720617070726f76616c20737461747573604082015268103337b91039b2b63360b91b606082015260800190565b60208082526029908201527f455243313135353a206163636f756e747320616e6420696473206c656e677468604082015268040dad2e6dac2e8c6d60bb1b606082015260800190565b60208082526030908201527f434c4d383a3a5f69737375653a20697373756572206e6f74206120726567697360408201526f3a32b932b2102922a1903232b0b632b960811b606082015260800190565b60208082526028908201527f455243313135353a2069647320616e6420616d6f756e7473206c656e677468206040820152670dad2e6dac2e8c6d60c31b606082015260800190565b60208082526021908201527f455243313135353a206d696e7420746f20746865207a65726f206164647265736040820152607360f81b606082015260800190565b6020808252603d908201527f434c4d383a3a636f6e73756d65724f724465616c65723a206d73672e73656e6460408201527f6572206e6f74206120636f6e73756d6572206f722061206465616c6572000000606082015260800190565b60208082526024908201527f434c4d383a3a5f69737375653a20746f6b656e54797065496420697320696e76604082015263185b1a5960e21b606082015260800190565b6020808252602f908201527f416363657373436f6e74726f6c3a2063616e206f6e6c792072656e6f756e636560408201526e103937b632b9903337b91039b2b63360891b606082015260800190565b600060208252825160208301526020830151613d8c6040840182613058565b506040830151613d9f6060840182612f43565b506060830151613db26080840182612f43565b50608083015160a083015260a083015160c083015260c083015160e083015260e08301516101008181850152808501519150506101606101208181860152613dfe610180860184612f8a565b9250808601519050601f19610140818786030181880152613e1f8584612f8a565b908801518782039092018488015293509050613e3b8382612f8a565b9695505050505050565b918252602082015260400190565b60006101608d83528c60208401528b604084015260ff8b1660608401528960808401528860a08401528760c08401528660e084015280610100840152613e9b81840187612fd5565b9050828103610120840152613eb08186612fd5565b9050828103610140840152613ec58185612fd5565b9e9d5050505050505050505050505050565b60405181810167ffffffffffffffff81118282101715613ef657600080fd5b604052919050565b600067ffffffffffffffff821115613f14578081fd5b5060209081020190565b60009081526020902090565b60e01c90565b600060443d1015613f40576110b4565b600481823e6308c379a0613f548251613f2a565b14613f5e576110b4565b6040513d600319016004823e80513d67ffffffffffffffff8160248401118184111715613f8e57505050506110b4565b82840192508251915080821115613fa857505050506110b4565b503d83016020828401011115613fc0575050506110b4565b601f01601f1916810160200160405291505090565b6001600160a01b0381168114613fea57600080fd5b50565b6001600160e01b031981168114613fea57600080fdfe455243313135353a206275726e20616d6f756e7420657863656564732062616c616e6365ede6574deba8f02ada7888448a497b08844d62e044ed533343a673be3ffcde5f5e1aa547d3dade8c68b013a47ad41c2bcc9b9e4b0765b0fb616780e15786e76a455243313135353a20696e73756666696369656e742062616c616e636520666f72207472616e736665722ab9f1da92e74aaa01eb75a871557505b11dd8d36832a34bb21bbee88b08d860e97dad3dbe5042e7384b1572cf966a15e089576a62b5126c5ef1d184ab18b12ca2646970667358221220e02ad8d71571c6b1a2f942bd3151184e12f73bcdfc0e495245dd476ebccaca5d64736f6c63430007000033f8890eedd7900ad88da6192fd03dbb69dbeee963b1a0ed738abe49ab3331aaf3",
  "devdoc": {
    "kind": "dev",
    "methods": {
      "balanceOf(address,uint256)": {
        "details": "See {IERC1155-balanceOf}. Requirements: - `account` cannot be the zero address."
      },
      "balanceOfBatch(address[],uint256[])": {
        "details": "See {IERC1155-balanceOfBatch}. Requirements: - `accounts` and `ids` must have the same length."
      },
      "getIssuer(uint256)": {
        "details": "returns issuer of a given tokenId"
      },
      "getNumOfUniqueTokens()": {
        "details": "returns number of unique tokens"
      },
      "getRoleAdmin(bytes32)": {
        "details": "Returns the admin role that controls `role`. See {grantRole} and {revokeRole}. To change a role's admin, use {_setRoleAdmin}."
      },
      "getRoleMember(bytes32,uint256)": {
        "details": "Returns one of the accounts that have `role`. `index` must be a value between 0 and {getRoleMemberCount}, non-inclusive. Role bearers are not sorted in any particular way, and their ordering may change at any point. WARNING: When using {getRoleMember} and {getRoleMemberCount}, make sure you perform all queries on the same block. See the following https://forum.openzeppelin.com/t/iterating-over-elements-on-enumerableset-in-openzeppelin-contracts/2296[forum post] for more information."
      },
      "getRoleMemberCount(bytes32)": {
        "details": "Returns the number of accounts that have `role`. Can be used together with {getRoleMember} to enumerate all bearers of a role."
      },
      "getRoles(address)": {
        "details": "Helper function for returning tuple of bools of role membership",
        "params": {
          "account": "address to check roles"
        }
      },
      "getTokenDetails(uint256)": {
        "details": "returns the entire details of a given tokenId",
        "params": {
          "tokenId": "token to check"
        }
      },
      "getTokenRetiredAmount(address,uint256)": {
        "details": "returns the retired amount on a token",
        "params": {
          "tokenId": "token to check"
        }
      },
      "getTokenType(uint256)": {
        "details": "returns the token name for the given token as a string value",
        "params": {
          "tokenId": "token to check"
        }
      },
      "grantRole(bytes32,address)": {
        "details": "Grants `role` to `account`. If `account` had not been already granted `role`, emits a {RoleGranted} event. Requirements: - the caller must have ``role``'s admin role."
      },
      "hasRole(bytes32,address)": {
        "details": "Returns `true` if `account` has been granted `role`."
      },
      "isApprovedForAll(address,address)": {
        "details": "See {IERC1155-isApprovedForAll}."
      },
      "isConsumerRegistered(address)": {
        "details": "returns true if Consumers's account is registered",
        "params": {
          "account": "address of the dealer"
        }
      },
      "isDealerRegistered(address)": {
        "details": "returns true if Dealer's account is registered",
        "params": {
          "account": "address of the dealer"
        }
      },
      "issue(address,uint8,uint256,uint256,uint256,uint256,string,string,string)": {
        "details": "External function to mint an amount of a token Only authorized dealer of associated token type can call this function",
        "params": {
          "quantity": "of the token to mint For ex: if one needs 100 full tokens, the caller should set the amount as (100 * 10^4) = 1,000,000 (assuming the token's decimals is set to 4)"
        }
      },
      "issueFromDAO(address,address,uint8,uint256,uint256,uint256,uint256,string,string,string)": {
        "details": "Issue function for DAO to use proposer as issuer Must be called from Timelock contract through a successful proposal"
      },
      "registerConsumer(address)": {
        "details": "returns true if Consumer's account is registered for the given token",
        "params": {
          "account": "address of the consumer"
        }
      },
      "registerDealer(address,uint8)": {
        "details": "Only contract owner can register Dealers",
        "params": {
          "account": "address of the dealer to register Only registered Dealers can transfer tokens"
        }
      },
      "renounceRole(bytes32,address)": {
        "details": "Revokes `role` from the calling account. Roles are often managed via {grantRole} and {revokeRole}: this function's purpose is to provide a mechanism for accounts to lose their privileges if they are compromised (such as when a trusted device is misplaced). If the calling account had been granted `role`, emits a {RoleRevoked} event. Requirements: - the caller must be `account`."
      },
      "retire(uint256,uint256)": {
        "details": "sets the token to the retire state to disable transfers, mints and burns",
        "params": {
          "tokenId": "token to set in pause state   Only contract owner can pause or resume tokens"
        }
      },
      "revokeRole(bytes32,address)": {
        "details": "Revokes `role` from `account`. If `account` had been granted `role`, emits a {RoleRevoked} event. Requirements: - the caller must have ``role``'s admin role."
      },
      "safeBatchTransferFrom(address,address,uint256[],uint256[],bytes)": {
        "details": "See {IERC1155-safeBatchTransferFrom}."
      },
      "safeTransferFrom(address,address,uint256,uint256,bytes)": {
        "details": "See {IERC1155-safeTransferFrom}."
      },
      "setApprovalForAll(address,bool)": {
        "details": "See {IERC1155-setApprovalForAll}."
      },
      "supportsInterface(bytes4)": {
        "details": "See {IERC165-supportsInterface}. Time complexity O(1), guaranteed to always use less than 30 000 gas."
      },
      "transfer(address,uint256,uint256)": {
        "details": "transfers the value to the 'to' account for tokenId",
        "params": {
          "to": "recipient address",
          "tokenId": "tokenId for the transfer",
          "value": "amount of transfer Transfer can start only when both parties are registered and the token is not paused Note: Token holders can arbitrarily call safeTransferFrom() without these checks"
        }
      },
      "unregisterConsumer(address)": {
        "details": "Only contract owner can unregister Consumers",
        "params": {
          "account": "address to be unregistered"
        }
      },
      "unregisterDealer(address,uint8)": {
        "details": "Only contract owner can unregister Dealers",
        "params": {
          "account": "address to be unregistered"
        }
      },
      "uri(uint256)": {
        "details": "See {IERC1155MetadataURI-uri}. This implementation returns the same URI for *all* token types. It relies on the token type ID substitution mechanism https://eips.ethereum.org/EIPS/eip-1155#metadata[defined in the EIP]. Clients calling this function must replace the `\\{id\\}` substring with the actual token type ID."
      }
    },
    "version": 1
  },
  "userdoc": {
    "kind": "user",
    "methods": {},
    "version": 1
  },
  "storageLayout": {
    "storage": [
      {
        "astId": 319,
        "contract": "contracts/NetEmissionsTokenNetwork.sol:NetEmissionsTokenNetwork",
        "label": "_supportedInterfaces",
        "offset": 0,
        "slot": "0",
        "type": "t_mapping(t_bytes4,t_bool)"
      },
      {
        "astId": 671,
        "contract": "contracts/NetEmissionsTokenNetwork.sol:NetEmissionsTokenNetwork",
        "label": "_balances",
        "offset": 0,
        "slot": "1",
        "type": "t_mapping(t_uint256,t_mapping(t_address,t_uint256))"
      },
      {
        "astId": 677,
        "contract": "contracts/NetEmissionsTokenNetwork.sol:NetEmissionsTokenNetwork",
        "label": "_operatorApprovals",
        "offset": 0,
        "slot": "2",
        "type": "t_mapping(t_address,t_mapping(t_address,t_bool))"
      },
      {
        "astId": 679,
        "contract": "contracts/NetEmissionsTokenNetwork.sol:NetEmissionsTokenNetwork",
        "label": "_uri",
        "offset": 0,
        "slot": "3",
        "type": "t_string_storage"
      },
      {
        "astId": 45,
        "contract": "contracts/NetEmissionsTokenNetwork.sol:NetEmissionsTokenNetwork",
        "label": "_roles",
        "offset": 0,
        "slot": "4",
        "type": "t_mapping(t_bytes32,t_struct(RoleData)41_storage)"
      },
      {
        "astId": 3098,
        "contract": "contracts/NetEmissionsTokenNetwork.sol:NetEmissionsTokenNetwork",
        "label": "limitedMode",
        "offset": 0,
        "slot": "5",
        "type": "t_bool"
      },
      {
        "astId": 3150,
        "contract": "contracts/NetEmissionsTokenNetwork.sol:NetEmissionsTokenNetwork",
        "label": "_tokenDetails",
        "offset": 0,
        "slot": "6",
        "type": "t_mapping(t_uint256,t_struct(CarbonTokenDetails)3146_storage)"
      },
      {
        "astId": 3156,
        "contract": "contracts/NetEmissionsTokenNetwork.sol:NetEmissionsTokenNetwork",
        "label": "_retiredBalances",
        "offset": 0,
        "slot": "7",
        "type": "t_mapping(t_uint256,t_mapping(t_address,t_uint256))"
      },
      {
        "astId": 3162,
        "contract": "contracts/NetEmissionsTokenNetwork.sol:NetEmissionsTokenNetwork",
        "label": "timelock",
        "offset": 0,
        "slot": "8",
        "type": "t_address"
      },
      {
        "astId": 3164,
        "contract": "contracts/NetEmissionsTokenNetwork.sol:NetEmissionsTokenNetwork",
        "label": "_numOfUniqueTokens",
        "offset": 0,
        "slot": "9",
        "type": "t_struct(Counter)2094_storage"
      },
      {
        "astId": 3171,
        "contract": "contracts/NetEmissionsTokenNetwork.sol:NetEmissionsTokenNetwork",
        "label": "_TOKEN_TYPES",
        "offset": 0,
        "slot": "10",
        "type": "t_array(t_string_storage)dyn_storage"
      }
    ],
    "types": {
      "t_address": {
        "encoding": "inplace",
        "label": "address",
        "numberOfBytes": "20"
      },
      "t_array(t_bytes32)dyn_storage": {
        "base": "t_bytes32",
        "encoding": "dynamic_array",
        "label": "bytes32[]",
        "numberOfBytes": "32"
      },
      "t_array(t_string_storage)dyn_storage": {
        "base": "t_string_storage",
        "encoding": "dynamic_array",
        "label": "string[]",
        "numberOfBytes": "32"
      },
      "t_bool": {
        "encoding": "inplace",
        "label": "bool",
        "numberOfBytes": "1"
      },
      "t_bytes32": {
        "encoding": "inplace",
        "label": "bytes32",
        "numberOfBytes": "32"
      },
      "t_bytes4": {
        "encoding": "inplace",
        "label": "bytes4",
        "numberOfBytes": "4"
      },
      "t_mapping(t_address,t_bool)": {
        "encoding": "mapping",
        "key": "t_address",
        "label": "mapping(address => bool)",
        "numberOfBytes": "32",
        "value": "t_bool"
      },
      "t_mapping(t_address,t_mapping(t_address,t_bool))": {
        "encoding": "mapping",
        "key": "t_address",
        "label": "mapping(address => mapping(address => bool))",
        "numberOfBytes": "32",
        "value": "t_mapping(t_address,t_bool)"
      },
      "t_mapping(t_address,t_uint256)": {
        "encoding": "mapping",
        "key": "t_address",
        "label": "mapping(address => uint256)",
        "numberOfBytes": "32",
        "value": "t_uint256"
      },
      "t_mapping(t_bytes32,t_struct(RoleData)41_storage)": {
        "encoding": "mapping",
        "key": "t_bytes32",
        "label": "mapping(bytes32 => struct AccessControl.RoleData)",
        "numberOfBytes": "32",
        "value": "t_struct(RoleData)41_storage"
      },
      "t_mapping(t_bytes32,t_uint256)": {
        "encoding": "mapping",
        "key": "t_bytes32",
        "label": "mapping(bytes32 => uint256)",
        "numberOfBytes": "32",
        "value": "t_uint256"
      },
      "t_mapping(t_bytes4,t_bool)": {
        "encoding": "mapping",
        "key": "t_bytes4",
        "label": "mapping(bytes4 => bool)",
        "numberOfBytes": "32",
        "value": "t_bool"
      },
      "t_mapping(t_uint256,t_mapping(t_address,t_uint256))": {
        "encoding": "mapping",
        "key": "t_uint256",
        "label": "mapping(uint256 => mapping(address => uint256))",
        "numberOfBytes": "32",
        "value": "t_mapping(t_address,t_uint256)"
      },
      "t_mapping(t_uint256,t_struct(CarbonTokenDetails)3146_storage)": {
        "encoding": "mapping",
        "key": "t_uint256",
        "label": "mapping(uint256 => struct NetEmissionsTokenNetwork.CarbonTokenDetails)",
        "numberOfBytes": "32",
        "value": "t_struct(CarbonTokenDetails)3146_storage"
      },
      "t_string_storage": {
        "encoding": "bytes",
        "label": "string",
        "numberOfBytes": "32"
      },
      "t_struct(AddressSet)2410_storage": {
        "encoding": "inplace",
        "label": "struct EnumerableSet.AddressSet",
        "members": [
          {
            "astId": 2409,
            "contract": "contracts/NetEmissionsTokenNetwork.sol:NetEmissionsTokenNetwork",
            "label": "_inner",
            "offset": 0,
            "slot": "0",
            "type": "t_struct(Set)2145_storage"
          }
        ],
        "numberOfBytes": "64"
      },
      "t_struct(CarbonTokenDetails)3146_storage": {
        "encoding": "inplace",
        "label": "struct NetEmissionsTokenNetwork.CarbonTokenDetails",
        "members": [
          {
            "astId": 3125,
            "contract": "contracts/NetEmissionsTokenNetwork.sol:NetEmissionsTokenNetwork",
            "label": "tokenId",
            "offset": 0,
            "slot": "0",
            "type": "t_uint256"
          },
          {
            "astId": 3127,
            "contract": "contracts/NetEmissionsTokenNetwork.sol:NetEmissionsTokenNetwork",
            "label": "tokenTypeId",
            "offset": 0,
            "slot": "1",
            "type": "t_uint8"
          },
          {
            "astId": 3129,
            "contract": "contracts/NetEmissionsTokenNetwork.sol:NetEmissionsTokenNetwork",
            "label": "issuer",
            "offset": 1,
            "slot": "1",
            "type": "t_address"
          },
          {
            "astId": 3131,
            "contract": "contracts/NetEmissionsTokenNetwork.sol:NetEmissionsTokenNetwork",
            "label": "issuee",
            "offset": 0,
            "slot": "2",
            "type": "t_address"
          },
          {
            "astId": 3133,
            "contract": "contracts/NetEmissionsTokenNetwork.sol:NetEmissionsTokenNetwork",
            "label": "fromDate",
            "offset": 0,
            "slot": "3",
            "type": "t_uint256"
          },
          {
            "astId": 3135,
            "contract": "contracts/NetEmissionsTokenNetwork.sol:NetEmissionsTokenNetwork",
            "label": "thruDate",
            "offset": 0,
            "slot": "4",
            "type": "t_uint256"
          },
          {
            "astId": 3137,
            "contract": "contracts/NetEmissionsTokenNetwork.sol:NetEmissionsTokenNetwork",
            "label": "dateCreated",
            "offset": 0,
            "slot": "5",
            "type": "t_uint256"
          },
          {
            "astId": 3139,
            "contract": "contracts/NetEmissionsTokenNetwork.sol:NetEmissionsTokenNetwork",
            "label": "automaticRetireDate",
            "offset": 0,
            "slot": "6",
            "type": "t_uint256"
          },
          {
            "astId": 3141,
            "contract": "contracts/NetEmissionsTokenNetwork.sol:NetEmissionsTokenNetwork",
            "label": "metadata",
            "offset": 0,
            "slot": "7",
            "type": "t_string_storage"
          },
          {
            "astId": 3143,
            "contract": "contracts/NetEmissionsTokenNetwork.sol:NetEmissionsTokenNetwork",
            "label": "manifest",
            "offset": 0,
            "slot": "8",
            "type": "t_string_storage"
          },
          {
            "astId": 3145,
            "contract": "contracts/NetEmissionsTokenNetwork.sol:NetEmissionsTokenNetwork",
            "label": "description",
            "offset": 0,
            "slot": "9",
            "type": "t_string_storage"
          }
        ],
        "numberOfBytes": "320"
      },
      "t_struct(Counter)2094_storage": {
        "encoding": "inplace",
        "label": "struct Counters.Counter",
        "members": [
          {
            "astId": 2093,
            "contract": "contracts/NetEmissionsTokenNetwork.sol:NetEmissionsTokenNetwork",
            "label": "_value",
            "offset": 0,
            "slot": "0",
            "type": "t_uint256"
          }
        ],
        "numberOfBytes": "32"
      },
      "t_struct(RoleData)41_storage": {
        "encoding": "inplace",
        "label": "struct AccessControl.RoleData",
        "members": [
          {
            "astId": 38,
            "contract": "contracts/NetEmissionsTokenNetwork.sol:NetEmissionsTokenNetwork",
            "label": "members",
            "offset": 0,
            "slot": "0",
            "type": "t_struct(AddressSet)2410_storage"
          },
          {
            "astId": 40,
            "contract": "contracts/NetEmissionsTokenNetwork.sol:NetEmissionsTokenNetwork",
            "label": "adminRole",
            "offset": 0,
            "slot": "2",
            "type": "t_bytes32"
          }
        ],
        "numberOfBytes": "96"
      },
      "t_struct(Set)2145_storage": {
        "encoding": "inplace",
        "label": "struct EnumerableSet.Set",
        "members": [
          {
            "astId": 2140,
            "contract": "contracts/NetEmissionsTokenNetwork.sol:NetEmissionsTokenNetwork",
            "label": "_values",
            "offset": 0,
            "slot": "0",
            "type": "t_array(t_bytes32)dyn_storage"
          },
          {
            "astId": 2144,
            "contract": "contracts/NetEmissionsTokenNetwork.sol:NetEmissionsTokenNetwork",
            "label": "_indexes",
            "offset": 0,
            "slot": "1",
            "type": "t_mapping(t_bytes32,t_uint256)"
          }
        ],
        "numberOfBytes": "64"
      },
      "t_uint256": {
        "encoding": "inplace",
        "label": "uint256",
        "numberOfBytes": "32"
      },
      "t_uint8": {
        "encoding": "inplace",
        "label": "uint8",
        "numberOfBytes": "1"
      }
    }
  }
}