{
  "_format": "hh-sol-artifact-1",
  "contractName": "NetEmissionsTokenNetwork",
  "sourceName": "contracts/NetEmissionsTokenNetwork.sol",
  "abi": [
    {
      "anonymous": false,
      "inputs": [
        {
          "indexed": true,
          "internalType": "address",
          "name": "account",
          "type": "address"
        },
        {
          "indexed": true,
          "internalType": "address",
          "name": "operator",
          "type": "address"
        },
        {
          "indexed": false,
          "internalType": "bool",
          "name": "approved",
          "type": "bool"
        }
      ],
      "name": "ApprovalForAll",
      "type": "event"
    },
    {
      "anonymous": false,
      "inputs": [
        {
          "indexed": true,
          "internalType": "address",
          "name": "account",
          "type": "address"
        }
      ],
      "name": "RegisteredConsumer",
      "type": "event"
    },
    {
      "anonymous": false,
      "inputs": [
        {
          "indexed": true,
          "internalType": "address",
          "name": "account",
          "type": "address"
        }
      ],
      "name": "RegisteredDealer",
      "type": "event"
    },
    {
      "anonymous": false,
      "inputs": [
        {
          "indexed": true,
          "internalType": "bytes32",
          "name": "role",
          "type": "bytes32"
        },
        {
          "indexed": true,
          "internalType": "bytes32",
          "name": "previousAdminRole",
          "type": "bytes32"
        },
        {
          "indexed": true,
          "internalType": "bytes32",
          "name": "newAdminRole",
          "type": "bytes32"
        }
      ],
      "name": "RoleAdminChanged",
      "type": "event"
    },
    {
      "anonymous": false,
      "inputs": [
        {
          "indexed": true,
          "internalType": "bytes32",
          "name": "role",
          "type": "bytes32"
        },
        {
          "indexed": true,
          "internalType": "address",
          "name": "account",
          "type": "address"
        },
        {
          "indexed": true,
          "internalType": "address",
          "name": "sender",
          "type": "address"
        }
      ],
      "name": "RoleGranted",
      "type": "event"
    },
    {
      "anonymous": false,
      "inputs": [
        {
          "indexed": true,
          "internalType": "bytes32",
          "name": "role",
          "type": "bytes32"
        },
        {
          "indexed": true,
          "internalType": "address",
          "name": "account",
          "type": "address"
        },
        {
          "indexed": true,
          "internalType": "address",
          "name": "sender",
          "type": "address"
        }
      ],
      "name": "RoleRevoked",
      "type": "event"
    },
    {
      "anonymous": false,
      "inputs": [
        {
          "indexed": false,
          "internalType": "uint256",
          "name": "availableBalance",
          "type": "uint256"
        },
        {
          "indexed": false,
          "internalType": "uint256",
          "name": "retiredBalance",
          "type": "uint256"
        },
        {
          "indexed": false,
          "internalType": "uint256",
          "name": "tokenId",
          "type": "uint256"
        },
        {
          "indexed": false,
          "internalType": "uint8",
          "name": "tokenTypeId",
          "type": "uint8"
        },
        {
          "indexed": true,
          "internalType": "address",
          "name": "issuer",
          "type": "address"
        },
        {
          "indexed": true,
          "internalType": "address",
          "name": "issuee",
          "type": "address"
        },
        {
          "indexed": false,
          "internalType": "uint256",
          "name": "fromDate",
          "type": "uint256"
        },
        {
          "indexed": false,
          "internalType": "uint256",
          "name": "thruDate",
          "type": "uint256"
        },
        {
          "indexed": false,
          "internalType": "uint256",
          "name": "dateCreated",
          "type": "uint256"
        },
        {
          "indexed": false,
          "internalType": "uint256",
          "name": "automaticRetireDate",
          "type": "uint256"
        },
        {
          "indexed": false,
          "internalType": "string",
          "name": "metadata",
          "type": "string"
        },
        {
          "indexed": false,
          "internalType": "string",
          "name": "manifest",
          "type": "string"
        },
        {
          "indexed": false,
          "internalType": "string",
          "name": "description",
          "type": "string"
        }
      ],
      "name": "TokenCreated",
      "type": "event"
    },
    {
      "anonymous": false,
      "inputs": [
        {
          "indexed": true,
          "internalType": "address",
          "name": "account",
          "type": "address"
        },
        {
          "indexed": false,
          "internalType": "uint256",
          "name": "tokenId",
          "type": "uint256"
        },
        {
          "indexed": false,
          "internalType": "uint256",
          "name": "amount",
          "type": "uint256"
        }
      ],
      "name": "TokenRetired",
      "type": "event"
    },
    {
      "anonymous": false,
      "inputs": [
        {
          "indexed": true,
          "internalType": "address",
          "name": "operator",
          "type": "address"
        },
        {
          "indexed": true,
          "internalType": "address",
          "name": "from",
          "type": "address"
        },
        {
          "indexed": true,
          "internalType": "address",
          "name": "to",
          "type": "address"
        },
        {
          "indexed": false,
          "internalType": "uint256[]",
          "name": "ids",
          "type": "uint256[]"
        },
        {
          "indexed": false,
          "internalType": "uint256[]",
          "name": "values",
          "type": "uint256[]"
        }
      ],
      "name": "TransferBatch",
      "type": "event"
    },
    {
      "anonymous": false,
      "inputs": [
        {
          "indexed": true,
          "internalType": "address",
          "name": "operator",
          "type": "address"
        },
        {
          "indexed": true,
          "internalType": "address",
          "name": "from",
          "type": "address"
        },
        {
          "indexed": true,
          "internalType": "address",
          "name": "to",
          "type": "address"
        },
        {
          "indexed": false,
          "internalType": "uint256",
          "name": "id",
          "type": "uint256"
        },
        {
          "indexed": false,
          "internalType": "uint256",
          "name": "value",
          "type": "uint256"
        }
      ],
      "name": "TransferSingle",
      "type": "event"
    },
    {
      "anonymous": false,
      "inputs": [
        {
          "indexed": false,
          "internalType": "string",
          "name": "value",
          "type": "string"
        },
        {
          "indexed": true,
          "internalType": "uint256",
          "name": "id",
          "type": "uint256"
        }
      ],
      "name": "URI",
      "type": "event"
    },
    {
      "anonymous": false,
      "inputs": [
        {
          "indexed": true,
          "internalType": "address",
          "name": "account",
          "type": "address"
        }
      ],
      "name": "UnregisteredConsumer",
      "type": "event"
    },
    {
      "anonymous": false,
      "inputs": [
        {
          "indexed": true,
          "internalType": "address",
          "name": "account",
          "type": "address"
        }
      ],
      "name": "UnregisteredDealer",
      "type": "event"
    },
    {
      "inputs": [],
      "name": "DEFAULT_ADMIN_ROLE",
      "outputs": [
        {
          "internalType": "bytes32",
          "name": "",
          "type": "bytes32"
        }
      ],
      "stateMutability": "view",
      "type": "function"
    },
    {
      "inputs": [],
      "name": "REGISTERED_CONSUMER",
      "outputs": [
        {
          "internalType": "bytes32",
          "name": "",
          "type": "bytes32"
        }
      ],
      "stateMutability": "view",
      "type": "function"
    },
    {
      "inputs": [],
      "name": "REGISTERED_DEALER",
      "outputs": [
        {
          "internalType": "bytes32",
          "name": "",
          "type": "bytes32"
        }
      ],
      "stateMutability": "view",
      "type": "function"
    },
    {
      "inputs": [],
      "name": "REGISTERED_EMISSIONS_AUDITOR",
      "outputs": [
        {
          "internalType": "bytes32",
          "name": "",
          "type": "bytes32"
        }
      ],
      "stateMutability": "view",
      "type": "function"
    },
    {
      "inputs": [],
      "name": "REGISTERED_OFFSET_DEALER",
      "outputs": [
        {
          "internalType": "bytes32",
          "name": "",
          "type": "bytes32"
        }
      ],
      "stateMutability": "view",
      "type": "function"
    },
    {
      "inputs": [],
      "name": "REGISTERED_REC_DEALER",
      "outputs": [
        {
          "internalType": "bytes32",
          "name": "",
          "type": "bytes32"
        }
      ],
      "stateMutability": "view",
      "type": "function"
    },
    {
      "inputs": [
        {
          "internalType": "address",
          "name": "account",
          "type": "address"
        },
        {
          "internalType": "uint256",
          "name": "id",
          "type": "uint256"
        }
      ],
      "name": "balanceOf",
      "outputs": [
        {
          "internalType": "uint256",
          "name": "",
          "type": "uint256"
        }
      ],
      "stateMutability": "view",
      "type": "function"
    },
    {
      "inputs": [
        {
          "internalType": "address[]",
          "name": "accounts",
          "type": "address[]"
        },
        {
          "internalType": "uint256[]",
          "name": "ids",
          "type": "uint256[]"
        }
      ],
      "name": "balanceOfBatch",
      "outputs": [
        {
          "internalType": "uint256[]",
          "name": "",
          "type": "uint256[]"
        }
      ],
      "stateMutability": "view",
      "type": "function"
    },
    {
      "inputs": [
        {
          "internalType": "address",
          "name": "account",
          "type": "address"
        },
        {
          "internalType": "uint256",
          "name": "tokenId",
          "type": "uint256"
        }
      ],
      "name": "getAvailableAndRetired",
      "outputs": [
        {
          "internalType": "uint256",
          "name": "",
          "type": "uint256"
        },
        {
          "internalType": "uint256",
          "name": "",
          "type": "uint256"
        }
      ],
      "stateMutability": "view",
      "type": "function"
    },
    {
      "inputs": [
        {
          "internalType": "uint256",
          "name": "tokenId",
          "type": "uint256"
        }
      ],
      "name": "getIssuer",
      "outputs": [
        {
          "internalType": "address",
          "name": "",
          "type": "address"
        }
      ],
      "stateMutability": "view",
      "type": "function"
    },
    {
      "inputs": [],
      "name": "getNumOfUniqueTokens",
      "outputs": [
        {
          "internalType": "uint256",
          "name": "",
          "type": "uint256"
        }
      ],
      "stateMutability": "view",
      "type": "function"
    },
    {
      "inputs": [
        {
          "internalType": "bytes32",
          "name": "role",
          "type": "bytes32"
        }
      ],
      "name": "getRoleAdmin",
      "outputs": [
        {
          "internalType": "bytes32",
          "name": "",
          "type": "bytes32"
        }
      ],
      "stateMutability": "view",
      "type": "function"
    },
    {
      "inputs": [
        {
          "internalType": "bytes32",
          "name": "role",
          "type": "bytes32"
        },
        {
          "internalType": "uint256",
          "name": "index",
          "type": "uint256"
        }
      ],
      "name": "getRoleMember",
      "outputs": [
        {
          "internalType": "address",
          "name": "",
          "type": "address"
        }
      ],
      "stateMutability": "view",
      "type": "function"
    },
    {
      "inputs": [
        {
          "internalType": "bytes32",
          "name": "role",
          "type": "bytes32"
        }
      ],
      "name": "getRoleMemberCount",
      "outputs": [
        {
          "internalType": "uint256",
          "name": "",
          "type": "uint256"
        }
      ],
      "stateMutability": "view",
      "type": "function"
    },
    {
      "inputs": [
        {
          "internalType": "address",
          "name": "account",
          "type": "address"
        }
      ],
      "name": "getRoles",
      "outputs": [
        {
          "internalType": "bool",
          "name": "",
          "type": "bool"
        },
        {
          "internalType": "bool",
          "name": "",
          "type": "bool"
        },
        {
          "internalType": "bool",
          "name": "",
          "type": "bool"
        },
        {
          "internalType": "bool",
          "name": "",
          "type": "bool"
        },
        {
          "internalType": "bool",
          "name": "",
          "type": "bool"
        }
      ],
      "stateMutability": "view",
      "type": "function"
    },
    {
      "inputs": [
        {
          "internalType": "uint256",
          "name": "tokenId",
          "type": "uint256"
        }
      ],
      "name": "getTokenDetails",
      "outputs": [
        {
          "components": [
            {
              "internalType": "uint256",
              "name": "tokenId",
              "type": "uint256"
            },
            {
              "internalType": "uint8",
              "name": "tokenTypeId",
              "type": "uint8"
            },
            {
              "internalType": "address",
              "name": "issuer",
              "type": "address"
            },
            {
              "internalType": "address",
              "name": "issuee",
              "type": "address"
            },
            {
              "internalType": "uint256",
              "name": "fromDate",
              "type": "uint256"
            },
            {
              "internalType": "uint256",
              "name": "thruDate",
              "type": "uint256"
            },
            {
              "internalType": "uint256",
              "name": "dateCreated",
              "type": "uint256"
            },
            {
              "internalType": "uint256",
              "name": "automaticRetireDate",
              "type": "uint256"
            },
            {
              "internalType": "string",
              "name": "metadata",
              "type": "string"
            },
            {
              "internalType": "string",
              "name": "manifest",
              "type": "string"
            },
            {
              "internalType": "string",
              "name": "description",
              "type": "string"
            }
          ],
          "internalType": "struct NetEmissionsTokenNetwork.CarbonTokenDetails",
          "name": "",
          "type": "tuple"
        }
      ],
      "stateMutability": "view",
      "type": "function"
    },
    {
      "inputs": [
        {
          "internalType": "address",
          "name": "account",
          "type": "address"
        },
        {
          "internalType": "uint256",
          "name": "tokenId",
          "type": "uint256"
        }
      ],
      "name": "getTokenRetiredAmount",
      "outputs": [
        {
          "internalType": "uint256",
          "name": "",
          "type": "uint256"
        }
      ],
      "stateMutability": "view",
      "type": "function"
    },
    {
      "inputs": [
        {
          "internalType": "uint256",
          "name": "tokenId",
          "type": "uint256"
        }
      ],
      "name": "getTokenType",
      "outputs": [
        {
          "internalType": "string",
          "name": "",
          "type": "string"
        }
      ],
      "stateMutability": "view",
      "type": "function"
    },
    {
      "inputs": [
        {
          "internalType": "bytes32",
          "name": "role",
          "type": "bytes32"
        },
        {
          "internalType": "address",
          "name": "account",
          "type": "address"
        }
      ],
      "name": "grantRole",
      "outputs": [],
      "stateMutability": "nonpayable",
      "type": "function"
    },
    {
      "inputs": [
        {
          "internalType": "bytes32",
          "name": "role",
          "type": "bytes32"
        },
        {
          "internalType": "address",
          "name": "account",
          "type": "address"
        }
      ],
      "name": "hasRole",
      "outputs": [
        {
          "internalType": "bool",
          "name": "",
          "type": "bool"
        }
      ],
      "stateMutability": "view",
      "type": "function"
    },
    {
      "inputs": [],
      "name": "initialize",
      "outputs": [],
      "stateMutability": "nonpayable",
      "type": "function"
    },
    {
      "inputs": [
        {
          "internalType": "address",
          "name": "account",
          "type": "address"
        },
        {
          "internalType": "address",
          "name": "operator",
          "type": "address"
        }
      ],
      "name": "isApprovedForAll",
      "outputs": [
        {
          "internalType": "bool",
          "name": "",
          "type": "bool"
        }
      ],
      "stateMutability": "view",
      "type": "function"
    },
    {
      "inputs": [
        {
          "internalType": "address",
          "name": "account",
          "type": "address"
        }
      ],
      "name": "isConsumerRegistered",
      "outputs": [
        {
          "internalType": "bool",
          "name": "",
          "type": "bool"
        }
      ],
      "stateMutability": "view",
      "type": "function"
    },
    {
      "inputs": [
        {
          "internalType": "address",
          "name": "account",
          "type": "address"
        }
      ],
      "name": "isDealerRegistered",
      "outputs": [
        {
          "internalType": "bool",
          "name": "",
          "type": "bool"
        }
      ],
      "stateMutability": "view",
      "type": "function"
    },
    {
      "inputs": [
        {
          "internalType": "address",
          "name": "account",
          "type": "address"
        },
        {
          "internalType": "uint8",
          "name": "tokenTypeId",
          "type": "uint8"
        },
        {
          "internalType": "uint256",
          "name": "quantity",
          "type": "uint256"
        },
        {
          "internalType": "uint256",
          "name": "fromDate",
          "type": "uint256"
        },
        {
          "internalType": "uint256",
          "name": "thruDate",
          "type": "uint256"
        },
        {
          "internalType": "uint256",
          "name": "automaticRetireDate",
          "type": "uint256"
        },
        {
          "internalType": "string",
          "name": "metadata",
          "type": "string"
        },
        {
          "internalType": "string",
          "name": "manifest",
          "type": "string"
        },
        {
          "internalType": "string",
          "name": "description",
          "type": "string"
        }
      ],
      "name": "issue",
      "outputs": [],
      "stateMutability": "nonpayable",
      "type": "function"
    },
    {
      "inputs": [
        {
          "internalType": "address",
          "name": "account",
          "type": "address"
        }
      ],
      "name": "registerConsumer",
      "outputs": [],
      "stateMutability": "nonpayable",
      "type": "function"
    },
    {
      "inputs": [
        {
          "internalType": "address",
          "name": "account",
          "type": "address"
        },
        {
          "internalType": "uint8",
          "name": "tokenTypeId",
          "type": "uint8"
        }
      ],
      "name": "registerDealer",
      "outputs": [],
      "stateMutability": "nonpayable",
      "type": "function"
    },
    {
      "inputs": [
        {
          "internalType": "bytes32",
          "name": "role",
          "type": "bytes32"
        },
        {
          "internalType": "address",
          "name": "account",
          "type": "address"
        }
      ],
      "name": "renounceRole",
      "outputs": [],
      "stateMutability": "nonpayable",
      "type": "function"
    },
    {
      "inputs": [
        {
          "internalType": "uint256",
          "name": "tokenId",
          "type": "uint256"
        },
        {
          "internalType": "uint256",
          "name": "amount",
          "type": "uint256"
        }
      ],
      "name": "retire",
      "outputs": [],
      "stateMutability": "nonpayable",
      "type": "function"
    },
    {
      "inputs": [
        {
          "internalType": "bytes32",
          "name": "role",
          "type": "bytes32"
        },
        {
          "internalType": "address",
          "name": "account",
          "type": "address"
        }
      ],
      "name": "revokeRole",
      "outputs": [],
      "stateMutability": "nonpayable",
      "type": "function"
    },
    {
      "inputs": [
        {
          "internalType": "address",
          "name": "from",
          "type": "address"
        },
        {
          "internalType": "address",
          "name": "to",
          "type": "address"
        },
        {
          "internalType": "uint256[]",
          "name": "ids",
          "type": "uint256[]"
        },
        {
          "internalType": "uint256[]",
          "name": "amounts",
          "type": "uint256[]"
        },
        {
          "internalType": "bytes",
          "name": "data",
          "type": "bytes"
        }
      ],
      "name": "safeBatchTransferFrom",
      "outputs": [],
      "stateMutability": "nonpayable",
      "type": "function"
    },
    {
      "inputs": [
        {
          "internalType": "address",
          "name": "from",
          "type": "address"
        },
        {
          "internalType": "address",
          "name": "to",
          "type": "address"
        },
        {
          "internalType": "uint256",
          "name": "id",
          "type": "uint256"
        },
        {
          "internalType": "uint256",
          "name": "amount",
          "type": "uint256"
        },
        {
          "internalType": "bytes",
          "name": "data",
          "type": "bytes"
        }
      ],
      "name": "safeTransferFrom",
      "outputs": [],
      "stateMutability": "nonpayable",
      "type": "function"
    },
    {
      "inputs": [
        {
          "internalType": "address",
          "name": "operator",
          "type": "address"
        },
        {
          "internalType": "bool",
          "name": "approved",
          "type": "bool"
        }
      ],
      "name": "setApprovalForAll",
      "outputs": [],
      "stateMutability": "nonpayable",
      "type": "function"
    },
    {
      "inputs": [
        {
          "internalType": "bytes4",
          "name": "interfaceId",
          "type": "bytes4"
        }
      ],
      "name": "supportsInterface",
      "outputs": [
        {
          "internalType": "bool",
          "name": "",
          "type": "bool"
        }
      ],
      "stateMutability": "view",
      "type": "function"
    },
    {
      "inputs": [
        {
          "internalType": "address",
          "name": "to",
          "type": "address"
        },
        {
          "internalType": "uint256",
          "name": "tokenId",
          "type": "uint256"
        },
        {
          "internalType": "uint256",
          "name": "value",
          "type": "uint256"
        }
      ],
      "name": "transfer",
      "outputs": [],
      "stateMutability": "nonpayable",
      "type": "function"
    },
    {
      "inputs": [
        {
          "internalType": "address",
          "name": "account",
          "type": "address"
        }
      ],
      "name": "unregisterConsumer",
      "outputs": [],
      "stateMutability": "nonpayable",
      "type": "function"
    },
    {
      "inputs": [
        {
          "internalType": "address",
          "name": "account",
          "type": "address"
        },
        {
          "internalType": "uint8",
          "name": "tokenTypeId",
          "type": "uint8"
        }
      ],
      "name": "unregisterDealer",
      "outputs": [],
      "stateMutability": "nonpayable",
      "type": "function"
    },
    {
      "inputs": [
        {
          "internalType": "uint256",
          "name": "",
          "type": "uint256"
        }
      ],
      "name": "uri",
      "outputs": [
        {
          "internalType": "string",
          "name": "",
          "type": "string"
        }
      ],
      "stateMutability": "view",
      "type": "function"
    }
  ],
  "bytecode": "0x608060405234801561001057600080fd5b50613f7d806100206000396000f3fe608060405234801561001057600080fd5b50600436106102315760003560e01c806376ce475511610130578063a22cb465116100b8578063e2e564f21161007c578063e2e564f2146104d4578063e985e9c5146104e7578063f242432a146104fa578063fcba79481461050d578063fd0c4a9a1461051557610231565b8063a22cb46514610457578063c1e037281461046a578063ca15c8731461048a578063ce6ccfaf1461049d578063d547741f146104c157610231565b80639010d07c116100ff5780639010d07c146103f657806391d148541461041657806392089c4614610429578063a0d975a71461043c578063a217fddf1461044f57610231565b806376ce4755146103bd57806378e5c592146103c55780637f157c9b146103cd5780638129fc1c146103ee57610231565b80632f2ff15d116101be5780634e1273f4116101825780634e1273f41461035c57806353dbe9821461037c5780635ddb368f1461038f57806369f7ef441461039757806376aed2e1146103aa57610231565b80632f2ff15d146102fd57806331aa4b201461031057806333781a0e1461032357806336568abe1461033657806344b22fdd1461034957610231565b806318a50d7e1161020557806318a50d7e146102b45780631ef68ef7146102bc578063248a9ca3146102c4578063293a7f2e146102d75780632eb2c2d6146102ea57610231565b8062fdd58e1461023657806301ffc9a71461025f578063095bcdb61461027f5780630e89341c14610294575b600080fd5b610249610244366004612e6a565b610528565b6040516102569190613391565b60405180910390f35b61027261026d3660046130e0565b610584565b604051610256919061335d565b61029261028d366004612e94565b6105a7565b005b6102a76102a2366004613083565b6106f1565b604051610256919061339a565b610249610789565b61024961079b565b6102496102d2366004613083565b6107ad565b6102926102e53660046130bf565b6107c2565b6102926102f8366004612d20565b610943565b61029261030b36600461309b565b610b62565b61029261031e366004612ec7565b610baa565b610272610331366004612cd1565b610cab565b61029261034436600461309b565b610cc5565b610292610357366004612cd1565b610d07565b61036f61036a366004612fc1565b610dda565b604051610256919061331c565b61029261038a366004612cd1565b610ea7565b610249610f7a565b6102726103a5366004612cd1565b610f8c565b6102a76103b8366004613083565b61100e565b6102496110fc565b61024961110e565b6103e06103db366004612e6a565b611120565b604051610256929190613c9e565b6102926111b7565b6104096104043660046130bf565b6113a2565b604051610256919061324c565b61027261042436600461309b565b6113c1565b610409610437366004613083565b6113d9565b61024961044a366004612e6a565b611424565b610249611473565b610292610465366004612e2f565b611478565b61047d610478366004613083565b611546565b6040516102569190613bc6565b610249610498366004613083565b6117ab565b6104b06104ab366004612cd1565b6117c2565b604051610256959493929190613368565b6102926104cf36600461309b565b611856565b6102926104e2366004612ec7565b611890565b6102726104f5366004612cec565b61199e565b610292610508366004612dca565b6119cc565b610249611b60565b610292610523366004612ef2565b611b72565b60006001600160a01b0383166105595760405162461bcd60e51b815260040161055090613520565b60405180910390fd5b5060008181526065602090815260408083206001600160a01b03861684529091529020545b92915050565b6001600160e01b0319811660009081526033602052604090205460ff165b919050565b60006105c1600080516020613e9e833981519152336113c1565b905060006105dd600080516020613f08833981519152336113c1565b905060006105f9600080516020613e7e833981519152336113c1565b90506000610615600080516020613f28833981519152336113c1565b905083806106205750825b806106285750815b806106305750805b61064c5760405162461bcd60e51b81526004016105509061390b565b61065586611f9c565b6106715760405162461bcd60e51b8152600401610550906135d9565b61067a87611fbe565b6106965760405162461bcd60e51b81526004016105509061398b565b336001600160a01b03881614156106bf5760405162461bcd60e51b815260040161055090613aa8565b6106e833888888604051806040016040528060048152602001630307830360e41b8152506119cc565b50505050505050565b60678054604080516020601f600260001961010060018816150201909516949094049384018190048102820181019092528281526060939092909183018282801561077d5780601f106107525761010080835404028352916020019161077d565b820191906000526020600020905b81548152906001019060200180831161076057829003601f168201915b50505050509050919050565b600080516020613ebe83398151915281565b600080516020613e7e83398151915281565b60009081526097602052604090206002015490565b60006107dc600080516020613e9e833981519152336113c1565b905060006107f8600080516020613f08833981519152336113c1565b90506000610814600080516020613e7e833981519152336113c1565b90506000610830600080516020613f28833981519152336113c1565b9050838061083b5750825b806108435750815b8061084b5750805b6108675760405162461bcd60e51b81526004016105509061390b565b61087086611f9c565b61088c5760405162461bcd60e51b8152600401610550906135d9565b6108963387610528565b8511156108b55760405162461bcd60e51b81526004016105509061348b565b6108c0338787611fd8565b600086815260ca602090815260408083203384529091529020546108e490866120ee565b600087815260ca602090815260408083203380855292529182902092909255517f8f1b5ebb586d3d169e4ed07db9cd10ce0dd30c7b656171310eae7517c0b53cf9906109339089908990613c9e565b60405180910390a2505050505050565b81518351146109645760405162461bcd60e51b815260040161055090613aee565b6001600160a01b03841661098a5760405162461bcd60e51b8152600401610550906136d1565b610992612113565b6001600160a01b0316856001600160a01b031614806109b857506109b8856104f5612113565b6109d45760405162461bcd60e51b815260040161055090613716565b60006109de612113565b90506109ee818787878787610b5a565b60005b8451811015610af4576000858281518110610a0857fe5b602002602001015190506000858381518110610a2057fe5b60200260200101519050610a8d816040518060600160405280602a8152602001613ede602a91396065600086815260200190815260200160002060008d6001600160a01b03166001600160a01b03168152602001908152602001600020546121179092919063ffffffff16565b60008381526065602090815260408083206001600160a01b038e811685529252808320939093558a1681522054610ac490826120ee565b60009283526065602090815260408085206001600160a01b038c16865290915290922091909155506001016109f1565b50846001600160a01b0316866001600160a01b0316826001600160a01b03167f4a39dc06d4c0dbc64b70af90fd698a233a518aa5d07e595d983b8c0526c8f7fb8787604051610b4492919061332f565b60405180910390a4610b5a818787878787612143565b505050505050565b600082815260976020526040902060020154610b8090610424612113565b610b9c5760405162461bcd60e51b8152600401610550906134d1565b610ba68282612251565b5050565b610bb56000336113c1565b610bd15760405162461bcd60e51b815260040161055090613652565b610bda816122ba565b610bf65760405162461bcd60e51b815260040161055090613954565b8060ff1660011415610c1f57610c1a600080516020613f0883398151915283610b62565b610c5b565b8060ff1660021415610c4357610c1a600080516020613e7e83398151915283610b62565b610c5b600080516020613f2883398151915283610b62565b610c73600080516020613ebe83398151915283610b62565b6040516001600160a01b038316907fa8377deee15954185683d55effd369508b4935978c8cb2bab790bf04c570181490600090a25050565b600061057e600080516020613e9e833981519152836113c1565b610ccd612113565b6001600160a01b0316816001600160a01b031614610cfd5760405162461bcd60e51b815260040161055090613b77565b610ba682826122e0565b6000610d21600080516020613f08833981519152336113c1565b90506000610d3d600080516020613e7e833981519152336113c1565b90506000610d59600080516020613f28833981519152336113c1565b90508280610d645750815b80610d6c5750805b610d885760405162461bcd60e51b815260040161055090613840565b610da0600080516020613e9e83398151915285610b62565b6040516001600160a01b038516907f69a0adee259d26fe61f4776f7bea7f3a9737c7321256821b985f988545efd31990600090a250505050565b60608151835114610dfd5760405162461bcd60e51b815260040161055090613a5f565b6060835167ffffffffffffffff81118015610e1757600080fd5b50604051908082528060200260200182016040528015610e41578160200160208202803683370190505b50905060005b8451811015610e9f57610e80858281518110610e5f57fe5b6020026020010151858381518110610e7357fe5b6020026020010151610528565b828281518110610e8c57fe5b6020908102919091010152600101610e47565b509392505050565b6000610ec1600080516020613f08833981519152336113c1565b90506000610edd600080516020613e7e833981519152336113c1565b90506000610ef9600080516020613f28833981519152336113c1565b90508280610f045750815b80610f0c5750805b610f285760405162461bcd60e51b815260040161055090613840565b610f40600080516020613e9e83398151915285611856565b6040516001600160a01b038516907f03a38088da75ee2d80f6c753f55f8fd17602ae17d8bd0ef44d5e1f28ab5af11f90600090a250505050565b6000610f8660cb612349565b90505b90565b600080610fa7600080516020613f08833981519152846113c1565b90506000610fc3600080516020613e7e833981519152856113c1565b90506000610fdf600080516020613f28833981519152866113c1565b90508280610fea5750815b80610ff25750805b1561100357600193505050506105a2565b506000949350505050565b606061101982611f9c565b6110355760405162461bcd60e51b8152600401610550906135d9565b600082815260c9602052604090206001015460cc805460609260001960ff918216011690811061106157fe5b600091825260209182902001805460408051601f60026000196101006001871615020190941693909304928301859004850281018501909152818152928301828280156110ef5780601f106110c4576101008083540402835291602001916110ef565b820191906000526020600020905b8154815290600101906020018083116110d257829003601f168201915b5093979650505050505050565b600080516020613f2883398151915281565b600080516020613e9e83398151915281565b600080600061112f8585610528565b60405163a0d975a760e01b8152909150600090309063a0d975a79061115a9089908990600401613303565b60206040518083038186803b15801561117257600080fd5b505afa158015611186573d6000803e3d6000fd5b505050506040513d601f19601f820116820180604052508101906111aa9190613118565b9196919550909350505050565b600054610100900460ff16806111d057506111d061234d565b806111de575060005460ff16155b6111fa5760405162461bcd60e51b815260040161055090613768565b600054610100900460ff16158015611225576000805460ff1961ff0019909116610100171660011790555b61123d6040518060200160405280600081525061235e565b60405180606001604052806040518060400160405280601c81526020017f52656e657761626c6520456e657267792043657274696669636174650000000081525081526020016040518060400160405280601781526020017f436172626f6e20456d697373696f6e73204f66667365740000000000000000008152508152602001604051806040016040528060118152602001704175646974656420456d697373696f6e7360781b81525081525060cc9060036112fb929190612a16565b50611307600033610b9c565b61132d600080516020613e9e833981519152600080516020613ebe8339815191526123fa565b611345600080516020613ebe83398151915233610b9c565b61135d600080516020613f0883398151915233610b9c565b611375600080516020613e7e83398151915233610b9c565b61138d600080516020613f2883398151915233610b9c565b801561139f576000805461ff00191690555b50565b60008281526097602052604081206113ba908361244c565b9392505050565b60008281526097602052604081206113ba9083612458565b60006113e482611f9c565b6114005760405162461bcd60e51b8152600401610550906135d9565b50600090815260c9602052604090206001015461010090046001600160a01b031690565b600061142f82611f9c565b61144b5760405162461bcd60e51b8152600401610550906135d9565b50600090815260ca602090815260408083206001600160a01b03949094168352929052205490565b600081565b816001600160a01b031661148a612113565b6001600160a01b031614156114b15760405162461bcd60e51b815260040161055090613a16565b80606660006114be612113565b6001600160a01b03908116825260208083019390935260409182016000908120918716808252919093529120805460ff191692151592909217909155611502612113565b6001600160a01b03167f17307eab39ab6107e8899845ad3d59bd9653f200f220920489ca2b5937696c318360405161153a919061335d565b60405180910390a35050565b61154e612a73565b61155782611f9c565b6115735760405162461bcd60e51b8152600401610550906135d9565b600082815260c960209081526040918290208251610160810184528154815260018083015460ff811683860152610100908190046001600160a01b0390811684880152600280860154909116606085015260038501546080850152600485015460a0850152600585015460c0850152600685015460e08501526007850180548851948116158402600019011691909104601f81018790048702840187019097528683529295939490860193919291908301828280156116735780601f1061164857610100808354040283529160200191611673565b820191906000526020600020905b81548152906001019060200180831161165657829003601f168201915b505050918352505060088201805460408051602060026001851615610100026000190190941693909304601f81018490048402820184019092528181529382019392918301828280156117075780601f106116dc57610100808354040283529160200191611707565b820191906000526020600020905b8154815290600101906020018083116116ea57829003601f168201915b505050918352505060098201805460408051602060026001851615610100026000190190941693909304601f810184900484028201840190925281815293820193929183018282801561179b5780601f106117705761010080835404028352916020019161179b565b820191906000526020600020905b81548152906001019060200180831161177e57829003601f168201915b5050505050815250509050919050565b600081815260976020526040812061057e9061246d565b600080808080806117d381886113c1565b905060006117ef600080516020613f08833981519152896113c1565b9050600061180b600080516020613e7e8339815191528a6113c1565b90506000611827600080516020613f288339815191528b6113c1565b90506000611843600080516020613e9e8339815191528c6113c1565b949b939a50919850965091945092505050565b60008281526097602052604090206002015461187490610424612113565b610cfd5760405162461bcd60e51b815260040161055090613681565b61189b6000336113c1565b6118b75760405162461bcd60e51b815260040161055090613652565b6118c0816122ba565b6118dc5760405162461bcd60e51b815260040161055090613954565b8060ff166001141561190557611900600080516020613f0883398151915283611856565b611941565b8060ff166002141561192957611900600080516020613e7e83398151915283611856565b611941600080516020613f2883398151915283611856565b61194a82610f8c565b61196657611966600080516020613ebe83398151915283611856565b6040516001600160a01b038316907f98552ded770f1d05a505572f3387c108dbc6b566ea3d49f83cff3d1f1c72a04290600090a25050565b6001600160a01b03918216600090815260666020908152604080832093909416825291909152205460ff1690565b6001600160a01b0384166119f25760405162461bcd60e51b8152600401610550906136d1565b6119fa612113565b6001600160a01b0316856001600160a01b03161480611a205750611a20856104f5612113565b611a3c5760405162461bcd60e51b815260040161055090613609565b6000611a46612113565b9050611a66818787611a5788612478565b611a6088612478565b87610b5a565b611aad836040518060600160405280602a8152602001613ede602a913960008781526065602090815260408083206001600160a01b038d1684529091529020549190612117565b60008581526065602090815260408083206001600160a01b038b81168552925280832093909355871681522054611ae490846120ee565b60008581526065602090815260408083206001600160a01b03808b168086529190935292819020939093559151909188811691908416907fc3d58168c5ae7397731d063d5bbf3d657854427343f4c083240f7aacaa2d0f6290611b4a9089908990613c9e565b60405180910390a4610b5a8187878787876124bc565b600080516020613f0883398151915281565b6000611b8c600080516020613f08833981519152336113c1565b90506000611ba8600080516020613e7e833981519152336113c1565b90506000611bc4600080516020613f28833981519152336113c1565b90508280611bcf5750815b80611bd75750805b611bf35760405162461bcd60e51b815260040161055090613840565b611bfd60cb61258d565b600060c96000611c0d60cb612349565b81526020019081526020016000209050611c268c6122ba565b611c425760405162461bcd60e51b8152600401610550906137b6565b8b60ff1660011415611c8757611c66600080516020613f08833981519152336113c1565b611c825760405162461bcd60e51b81526004016105509061386e565b611cfb565b8b60ff1660021415611cc757611cab600080516020613e7e833981519152336113c1565b611c825760405162461bcd60e51b8152600401610550906138bf565b611cdf600080516020613f28833981519152336113c1565b611cfb5760405162461bcd60e51b8152600401610550906139cf565b6060611d0760cb612349565b82600001819055508c8260010160006101000a81548160ff021916908360ff160217905550338260010160016101000a8154816001600160a01b0302191690836001600160a01b031602179055508d8260020160006101000a8154816001600160a01b0302191690836001600160a01b031602179055508a826003018190555089826004018190555088826006018190555042826005018190555087826007019080519060200190611dba929190612ae2565b508651611dd090600884019060208a0190612ae2565b508551611de69060098401906020890190612ae2565b50611dfc8e611df560cb612349565b8e84612596565b8c60ff1660031415611e805760028201548254611e23916001600160a01b0316908e611fd8565b8154600090815260ca6020908152604080832060028601546001600160a01b03168452909152902054611e56908d6120ee565b8254600090815260ca6020908152604080832060028701546001600160a01b031684529091529020555b8160020160009054906101000a90046001600160a01b03166001600160a01b03168260010160019054906101000a90046001600160a01b03166001600160a01b03167f99cc3eeb446560c9a2d2483bc5160735ec0fb1851aea3bde32e7a56c30c11da68e60ca60008760000154815260200190815260200160002060008760020160009054906101000a90046001600160a01b03166001600160a01b03166001600160a01b031681526020019081526020016000205486600001548760010160009054906101000a900460ff16886003015489600401548a600601548b600501548c6007018d6008018e600901604051611f849b9a99989796959493929190613cac565b60405180910390a35050505050505050505050505050565b600081611fa960cb612349565b10611fb6575060016105a2565b506000919050565b6000611fc982610f8c565b8061057e575061057e82610cab565b6001600160a01b038316611ffe5760405162461bcd60e51b8152600401610550906137fd565b6000612008612113565b90506120388185600061201a87612478565b61202387612478565b60405180602001604052806000815250610b5a565b61207f82604051806060016040528060248152602001613e5a6024913960008681526065602090815260408083206001600160a01b038b1684529091529020549190612117565b60008481526065602090815260408083206001600160a01b03808a16808652919093528184209490945551919291908416907fc3d58168c5ae7397731d063d5bbf3d657854427343f4c083240f7aacaa2d0f62906120e09088908890613c9e565b60405180910390a450505050565b6000828201838110156113ba5760405162461bcd60e51b8152600401610550906135a2565b3390565b6000818484111561213b5760405162461bcd60e51b8152600401610550919061339a565b505050900390565b612155846001600160a01b0316612681565b15610b5a5760405163bc197c8160e01b81526001600160a01b0385169063bc197c819061218e9089908990889088908890600401613260565b602060405180830381600087803b1580156121a857600080fd5b505af19250505080156121d8575060408051601f3d908101601f191682019092526121d5918101906130fc565b60015b612221576121e4613d89565b806121ef5750612209565b8060405162461bcd60e51b8152600401610550919061339a565b60405162461bcd60e51b8152600401610550906133ad565b6001600160e01b0319811663bc197c8160e01b146106e85760405162461bcd60e51b815260040161055090613443565b60008281526097602052604090206122699082612687565b15610ba657612276612113565b6001600160a01b0316816001600160a01b0316837f2f8788117e7eff1d82e926ec794901d17c78024a50270940304540a733656f0d60405160405180910390a45050565b6000808260ff161180156122d3575060cc5460ff831611155b15611fb6575060016105a2565b60008281526097602052604090206122f8908261269c565b15610ba657612305612113565b6001600160a01b0316816001600160a01b0316837ff6391f5c32d9c69d2a47ea670b442974b53935d1edc7fd64eb21e047a839171b60405160405180910390a45050565b5490565b600061235830612681565b15905090565b600054610100900460ff1680612377575061237761234d565b80612385575060005460ff16155b6123a15760405162461bcd60e51b815260040161055090613768565b600054610100900460ff161580156123cc576000805460ff1961ff0019909116610100171660011790555b6123d46126b1565b6123dc612732565b6123e5826127b0565b8015610ba6576000805461ff00191690555050565b600082815260976020526040808220600201549051839285917fbd79b86ffe0ab8e8776151514217cd7cacd52c909f66475c3af44e129f0b00ff9190a460009182526097602052604090912060020155565b60006113ba8383612847565b60006113ba836001600160a01b03841661288c565b600061057e82612349565b6040805160018082528183019092526060918291906020808301908036833701905050905082816000815181106124ab57fe5b602090810291909101015292915050565b6124ce846001600160a01b0316612681565b15610b5a5760405163f23a6e6160e01b81526001600160a01b0385169063f23a6e619061250790899089908890889088906004016132be565b602060405180830381600087803b15801561252157600080fd5b505af1925050508015612551575060408051601f3d908101601f1916820190925261254e918101906130fc565b60015b61255d576121e4613d89565b6001600160e01b0319811663f23a6e6160e01b146106e85760405162461bcd60e51b815260040161055090613443565b80546001019055565b6001600160a01b0384166125bc5760405162461bcd60e51b815260040161055090613b36565b60006125c6612113565b90506125d881600087611a5788612478565b60008481526065602090815260408083206001600160a01b038916845290915290205461260590846120ee565b60008581526065602090815260408083206001600160a01b03808b16808652919093528184209490945551908416907fc3d58168c5ae7397731d063d5bbf3d657854427343f4c083240f7aacaa2d0f62906126639089908990613c9e565b60405180910390a461267a816000878787876124bc565b5050505050565b3b151590565b60006113ba836001600160a01b0384166128a4565b60006113ba836001600160a01b0384166128ee565b600054610100900460ff16806126ca57506126ca61234d565b806126d8575060005460ff16155b6126f45760405162461bcd60e51b815260040161055090613768565b600054610100900460ff1615801561138d576000805460ff1961ff001990911661010017166001179055801561139f576000805461ff001916905550565b600054610100900460ff168061274b575061274b61234d565b80612759575060005460ff16155b6127755760405162461bcd60e51b815260040161055090613768565b600054610100900460ff161580156127a0576000805460ff1961ff0019909116610100171660011790555b61138d6301ffc9a760e01b6129b4565b600054610100900460ff16806127c957506127c961234d565b806127d7575060005460ff16155b6127f35760405162461bcd60e51b815260040161055090613768565b600054610100900460ff1615801561281e576000805460ff1961ff0019909116610100171660011790555b61282782612a03565b612837636cdb3d1360e11b6129b4565b6123e56303a24d0760e21b6129b4565b8154600090821061286a5760405162461bcd60e51b815260040161055090613401565b82600001828154811061287957fe5b9060005260206000200154905092915050565b60009081526001919091016020526040902054151590565b60006128b0838361288c565b6128e65750815460018181018455600084815260208082209093018490558454848252828601909352604090209190915561057e565b50600061057e565b600081815260018301602052604081205480156129aa578354600019808301919081019060009087908390811061292157fe5b906000526020600020015490508087600001848154811061293e57fe5b60009182526020808320909101929092558281526001898101909252604090209084019055865487908061296e57fe5b6001900381819060005260206000200160009055905586600101600087815260200190815260200160002060009055600194505050505061057e565b600091505061057e565b6001600160e01b031980821614156129de5760405162461bcd60e51b81526004016105509061356b565b6001600160e01b0319166000908152603360205260409020805460ff19166001179055565b8051610ba6906067906020840190612ae2565b828054828255906000526020600020908101928215612a63579160200282015b82811115612a635782518051612a53918491602090910190612ae2565b5091602001919060010190612a36565b50612a6f929150612b5c565b5090565b60405180610160016040528060008152602001600060ff16815260200160006001600160a01b0316815260200160006001600160a01b03168152602001600081526020016000815260200160008152602001600081526020016060815260200160608152602001606081525090565b828054600181600116156101000203166002900490600052602060002090601f016020900481019282601f10612b2357805160ff1916838001178555612b50565b82800160010185558215612b50579182015b82811115612b50578251825591602001919060010190612b35565b50612a6f929150612b79565b80821115612a6f576000612b708282612b8e565b50600101612b5c565b5b80821115612a6f5760008155600101612b7a565b50805460018160011615610100020316600290046000825580601f10612bb4575061139f565b601f01602090049060005260206000209081019061139f9190612b79565b80356001600160a01b038116811461057e57600080fd5b600082601f830112612bf9578081fd5b8135612c0c612c0782613d57565b613d30565b818152915060208083019084810181840286018201871015612c2d57600080fd5b60005b84811015612c4c57813584529282019290820190600101612c30565b505050505092915050565b600082601f830112612c67578081fd5b813567ffffffffffffffff811115612c7d578182fd5b612c90601f8201601f1916602001613d30565b9150808252836020828501011115612ca757600080fd5b8060208401602084013760009082016020015292915050565b803560ff8116811461057e57600080fd5b600060208284031215612ce2578081fd5b6113ba8383612bd2565b60008060408385031215612cfe578081fd5b612d088484612bd2565b9150612d178460208501612bd2565b90509250929050565b600080600080600060a08688031215612d37578081fd5b8535612d4281613e2e565b94506020860135612d5281613e2e565b9350604086013567ffffffffffffffff80821115612d6e578283fd5b612d7a89838a01612be9565b94506060880135915080821115612d8f578283fd5b612d9b89838a01612be9565b93506080880135915080821115612db0578283fd5b50612dbd88828901612c57565b9150509295509295909350565b600080600080600060a08688031215612de1578081fd5b612deb8787612bd2565b9450612dfa8760208801612bd2565b93506040860135925060608601359150608086013567ffffffffffffffff811115612e23578182fd5b612dbd88828901612c57565b60008060408385031215612e41578182fd5b612e4b8484612bd2565b915060208301358015158114612e5f578182fd5b809150509250929050565b60008060408385031215612e7c578182fd5b612e868484612bd2565b946020939093013593505050565b600080600060608486031215612ea8578283fd5b612eb28585612bd2565b95602085013595506040909401359392505050565b60008060408385031215612ed9578182fd5b612ee38484612bd2565b9150612d178460208501612cc0565b60008060008060008060008060006101208a8c031215612f10578687fd5b612f1a8b8b612bd2565b9850612f298b60208c01612cc0565b975060408a0135965060608a0135955060808a0135945060a08a0135935060c08a013567ffffffffffffffff80821115612f61578485fd5b612f6d8d838e01612c57565b945060e08c0135915080821115612f82578384fd5b612f8e8d838e01612c57565b93506101008c0135915080821115612fa4578283fd5b50612fb18c828d01612c57565b9150509295985092959850929598565b60008060408385031215612fd3578182fd5b823567ffffffffffffffff80821115612fea578384fd5b818501915085601f830112612ffd578384fd5b813561300b612c0782613d57565b80828252602080830192508086018a82838702890101111561302b578889fd5b8896505b84871015613055576130418b82612bd2565b84526001969096019592810192810161302f565b50909650870135935050508082111561306c578283fd5b5061307985828601612be9565b9150509250929050565b600060208284031215613094578081fd5b5035919050565b600080604083850312156130ad578182fd5b823591506020830135612e5f81613e2e565b600080604083850312156130d1578182fd5b50508035926020909101359150565b6000602082840312156130f1578081fd5b81356113ba81613e43565b60006020828403121561310d578081fd5b81516113ba81613e43565b600060208284031215613129578081fd5b5051919050565b6001600160a01b03169052565b6000815180845260208085019450808401835b8381101561316c57815187529582019590820190600101613150565b509495945050505050565b60008151808452815b8181101561319c57602081850181015186830182015201613180565b818111156131ad5782602083870101525b50601f01601f19169290920160200192915050565b600081546001808216600081146131e057600181146131fe5761323c565b60028304607f16865260ff198316602087015260408601935061323c565b6002830480875261320e86613d77565b60005b828110156132325781546020828b0101528482019150602081019050613211565b8801602001955050505b50505092915050565b60ff169052565b6001600160a01b0391909116815260200190565b6001600160a01b0386811682528516602082015260a06040820181905260009061328c9083018661313d565b828103606084015261329e818661313d565b905082810360808401526132b28185613177565b98975050505050505050565b6001600160a01b03868116825285166020820152604081018490526060810183905260a0608082018190526000906132f890830184613177565b979650505050505050565b6001600160a01b03929092168252602082015260400190565b6000602082526113ba602083018461313d565b600060408252613342604083018561313d565b8281036020840152613354818561313d565b95945050505050565b901515815260200190565b941515855292151560208501529015156040840152151560608301521515608082015260a00190565b90815260200190565b6000602082526113ba6020830184613177565b60208082526034908201527f455243313135353a207472616e7366657220746f206e6f6e20455243313135356040820152732932b1b2b4bb32b91034b6b83632b6b2b73a32b960611b606082015260800190565b60208082526022908201527f456e756d657261626c655365743a20696e646578206f7574206f6620626f756e604082015261647360f01b606082015260800190565b60208082526028908201527f455243313135353a204552433131353552656365697665722072656a656374656040820152676420746f6b656e7360c01b606082015260800190565b60208082526026908201527f4e6f7420656e6f75676820617661696c61626c652062616c616e636520746f2060408201526572657469726560d01b606082015260800190565b6020808252602f908201527f416363657373436f6e74726f6c3a2073656e646572206d75737420626520616e60408201526e0818591b5a5b881d1bc819dc985b9d608a1b606082015260800190565b6020808252602b908201527f455243313135353a2062616c616e636520717565727920666f7220746865207a60408201526a65726f206164647265737360a81b606082015260800190565b6020808252601c908201527f4552433136353a20696e76616c696420696e7465726661636520696400000000604082015260600190565b6020808252601b908201527f536166654d6174683a206164646974696f6e206f766572666c6f770000000000604082015260600190565b6020808252601690820152751d1bdad95b925908191bd95cc81b9bdd08195e1a5cdd60521b604082015260600190565b60208082526029908201527f455243313135353a2063616c6c6572206973206e6f74206f776e6572206e6f7260408201526808185c1c1c9bdd995960ba1b606082015260800190565b6020808252601590820152742cb7ba9030b932903737ba103a34329037bbb732b960591b604082015260600190565b60208082526030908201527f416363657373436f6e74726f6c3a2073656e646572206d75737420626520616e60408201526f2061646d696e20746f207265766f6b6560801b606082015260800190565b60208082526025908201527f455243313135353a207472616e7366657220746f20746865207a65726f206164604082015264647265737360d81b606082015260800190565b60208082526032908201527f455243313135353a207472616e736665722063616c6c6572206973206e6f74206040820152711bdddb995c881b9bdc88185c1c1c9bdd995960721b606082015260800190565b6020808252602e908201527f496e697469616c697a61626c653a20636f6e747261637420697320616c72656160408201526d191e481a5b9a5d1a585b1a5e995960921b606082015260800190565b60208082526027908201527f4661696c656420746f2069737375653a20746f6b656e547970654964206973206040820152661a5b9d985b1a5960ca1b606082015260800190565b60208082526023908201527f455243313135353a206275726e2066726f6d20746865207a65726f206164647260408201526265737360e81b606082015260800190565b6020808252601490820152732cb7ba9030b932903737ba1030903232b0b632b960611b604082015260600190565b60208082526031908201527f596f7520617265206e6f7420612052656e657761626c6520456e65726779204360408201527032b93a34b334b1b0ba32903232b0b632b960791b606082015260800190565b6020808252602c908201527f596f7520617265206e6f74206120436172626f6e20456d697373696f6e73204f60408201526b333339b2ba103232b0b632b960a11b606082015260800190565b60208082526029908201527f596f75206d75737420626520656974686572206120636f6e73756d6572206f726040820152681030903232b0b632b960b91b606082015260800190565b60208082526019908201527f546f6b656e207479706520646f6573206e6f7420657869737400000000000000604082015260600190565b60208082526024908201527f526563697069656e74206d75737420626520636f6e73756d6572206f7220646560408201526330b632b960e11b606082015260800190565b60208082526027908201527f596f7520617265206e6f7420616e204175646974656420456d697373696f6e73604082015266103232b0b632b960c91b606082015260800190565b60208082526029908201527f455243313135353a2073657474696e6720617070726f76616c20737461747573604082015268103337b91039b2b63360b91b606082015260800190565b60208082526029908201527f455243313135353a206163636f756e747320616e6420696473206c656e677468604082015268040dad2e6dac2e8c6d60bb1b606082015260800190565b60208082526026908201527f53656e64657220616e642072656365697665722063616e6e6f74206265207468604082015265652073616d6560d01b606082015260800190565b60208082526028908201527f455243313135353a2069647320616e6420616d6f756e7473206c656e677468206040820152670dad2e6dac2e8c6d60c31b606082015260800190565b60208082526021908201527f455243313135353a206d696e7420746f20746865207a65726f206164647265736040820152607360f81b606082015260800190565b6020808252602f908201527f416363657373436f6e74726f6c3a2063616e206f6e6c792072656e6f756e636560408201526e103937b632b9903337b91039b2b63360891b606082015260800190565b600060208252825160208301526020830151613be56040840182613245565b506040830151613bf86060840182613130565b506060830151613c0b6080840182613130565b50608083015160a083015260a083015160c083015260c083015160e083015260e08301516101008181850152808501519150506101606101208181860152613c57610180860184613177565b9250808601519050601f19610140818786030181880152613c788584613177565b908801518782039092018488015293509050613c948382613177565b9695505050505050565b918252602082015260400190565b60006101608d83528c60208401528b604084015260ff8b1660608401528960808401528860a08401528760c08401528660e084015280610100840152613cf4818401876131c2565b9050828103610120840152613d0981866131c2565b9050828103610140840152613d1e81856131c2565b9e9d5050505050505050505050505050565b60405181810167ffffffffffffffff81118282101715613d4f57600080fd5b604052919050565b600067ffffffffffffffff821115613d6d578081fd5b5060209081020190565b60009081526020902090565b60e01c90565b600060443d1015613d9957610f89565b600481823e6308c379a0613dad8251613d83565b14613db757610f89565b6040513d600319016004823e80513d67ffffffffffffffff8160248401118184111715613de75750505050610f89565b82840192508251915080821115613e015750505050610f89565b503d83016020828401011115613e1957505050610f89565b601f01601f1916810160200160405291505090565b6001600160a01b038116811461139f57600080fd5b6001600160e01b03198116811461139f57600080fdfe455243313135353a206275726e20616d6f756e7420657863656564732062616c616e6365ede6574deba8f02ada7888448a497b08844d62e044ed533343a673be3ffcde5f5e1aa547d3dade8c68b013a47ad41c2bcc9b9e4b0765b0fb616780e15786e76af8890eedd7900ad88da6192fd03dbb69dbeee963b1a0ed738abe49ab3331aaf3455243313135353a20696e73756666696369656e742062616c616e636520666f72207472616e736665722ab9f1da92e74aaa01eb75a871557505b11dd8d36832a34bb21bbee88b08d860e97dad3dbe5042e7384b1572cf966a15e089576a62b5126c5ef1d184ab18b12ca264697066735822122022615412e06679a3e96294b6af76bf4dded739d2ca460b7f2d6b3e09eba693cc64736f6c63430007000033",
  "linkReferences": {},
  "deployedLinkReferences": {}
}