{
  "_format": "hh-sol-artifact-1",
  "contractName": "NetEmissionsTokenNetwork",
  "sourceName": "contracts/NetEmissionsTokenNetwork.sol",
  "abi": [
    {
      "anonymous": false,
      "inputs": [
        {
          "indexed": true,
          "internalType": "address",
          "name": "account",
          "type": "address"
        },
        {
          "indexed": true,
          "internalType": "address",
          "name": "operator",
          "type": "address"
        },
        {
          "indexed": false,
          "internalType": "bool",
          "name": "approved",
          "type": "bool"
        }
      ],
      "name": "ApprovalForAll",
      "type": "event"
    },
    {
      "anonymous": false,
      "inputs": [
        {
          "indexed": true,
          "internalType": "address",
          "name": "account",
          "type": "address"
        }
      ],
      "name": "RegisteredConsumer",
      "type": "event"
    },
    {
      "anonymous": false,
      "inputs": [
        {
          "indexed": true,
          "internalType": "address",
          "name": "account",
          "type": "address"
        }
      ],
      "name": "RegisteredDealer",
      "type": "event"
    },
    {
      "anonymous": false,
      "inputs": [
        {
          "indexed": true,
          "internalType": "bytes32",
          "name": "role",
          "type": "bytes32"
        },
        {
          "indexed": true,
          "internalType": "bytes32",
          "name": "previousAdminRole",
          "type": "bytes32"
        },
        {
          "indexed": true,
          "internalType": "bytes32",
          "name": "newAdminRole",
          "type": "bytes32"
        }
      ],
      "name": "RoleAdminChanged",
      "type": "event"
    },
    {
      "anonymous": false,
      "inputs": [
        {
          "indexed": true,
          "internalType": "bytes32",
          "name": "role",
          "type": "bytes32"
        },
        {
          "indexed": true,
          "internalType": "address",
          "name": "account",
          "type": "address"
        },
        {
          "indexed": true,
          "internalType": "address",
          "name": "sender",
          "type": "address"
        }
      ],
      "name": "RoleGranted",
      "type": "event"
    },
    {
      "anonymous": false,
      "inputs": [
        {
          "indexed": true,
          "internalType": "bytes32",
          "name": "role",
          "type": "bytes32"
        },
        {
          "indexed": true,
          "internalType": "address",
          "name": "account",
          "type": "address"
        },
        {
          "indexed": true,
          "internalType": "address",
          "name": "sender",
          "type": "address"
        }
      ],
      "name": "RoleRevoked",
      "type": "event"
    },
    {
      "anonymous": false,
      "inputs": [
        {
          "indexed": false,
          "internalType": "uint256",
          "name": "availableBalance",
          "type": "uint256"
        },
        {
          "indexed": false,
          "internalType": "uint256",
          "name": "retiredBalance",
          "type": "uint256"
        },
        {
          "indexed": false,
          "internalType": "uint256",
          "name": "tokenId",
          "type": "uint256"
        },
        {
          "indexed": false,
          "internalType": "uint8",
          "name": "tokenTypeId",
          "type": "uint8"
        },
        {
          "indexed": true,
          "internalType": "address",
          "name": "issuer",
          "type": "address"
        },
        {
          "indexed": true,
          "internalType": "address",
          "name": "issuee",
          "type": "address"
        },
        {
          "indexed": false,
          "internalType": "uint256",
          "name": "fromDate",
          "type": "uint256"
        },
        {
          "indexed": false,
          "internalType": "uint256",
          "name": "thruDate",
          "type": "uint256"
        },
        {
          "indexed": false,
          "internalType": "uint256",
          "name": "dateCreated",
          "type": "uint256"
        },
        {
          "indexed": false,
          "internalType": "string",
          "name": "metadata",
          "type": "string"
        },
        {
          "indexed": false,
          "internalType": "string",
          "name": "manifest",
          "type": "string"
        },
        {
          "indexed": false,
          "internalType": "string",
          "name": "description",
          "type": "string"
        }
      ],
      "name": "TokenCreated",
      "type": "event"
    },
    {
      "anonymous": false,
      "inputs": [
        {
          "indexed": true,
          "internalType": "address",
          "name": "account",
          "type": "address"
        },
        {
          "indexed": false,
          "internalType": "uint256",
          "name": "tokenId",
          "type": "uint256"
        },
        {
          "indexed": false,
          "internalType": "uint256",
          "name": "amount",
          "type": "uint256"
        }
      ],
      "name": "TokenRetired",
      "type": "event"
    },
    {
      "anonymous": false,
      "inputs": [
        {
          "indexed": true,
          "internalType": "address",
          "name": "operator",
          "type": "address"
        },
        {
          "indexed": true,
          "internalType": "address",
          "name": "from",
          "type": "address"
        },
        {
          "indexed": true,
          "internalType": "address",
          "name": "to",
          "type": "address"
        },
        {
          "indexed": false,
          "internalType": "uint256[]",
          "name": "ids",
          "type": "uint256[]"
        },
        {
          "indexed": false,
          "internalType": "uint256[]",
          "name": "values",
          "type": "uint256[]"
        }
      ],
      "name": "TransferBatch",
      "type": "event"
    },
    {
      "anonymous": false,
      "inputs": [
        {
          "indexed": true,
          "internalType": "address",
          "name": "operator",
          "type": "address"
        },
        {
          "indexed": true,
          "internalType": "address",
          "name": "from",
          "type": "address"
        },
        {
          "indexed": true,
          "internalType": "address",
          "name": "to",
          "type": "address"
        },
        {
          "indexed": false,
          "internalType": "uint256",
          "name": "id",
          "type": "uint256"
        },
        {
          "indexed": false,
          "internalType": "uint256",
          "name": "value",
          "type": "uint256"
        }
      ],
      "name": "TransferSingle",
      "type": "event"
    },
    {
      "anonymous": false,
      "inputs": [
        {
          "indexed": false,
          "internalType": "string",
          "name": "value",
          "type": "string"
        },
        {
          "indexed": true,
          "internalType": "uint256",
          "name": "id",
          "type": "uint256"
        }
      ],
      "name": "URI",
      "type": "event"
    },
    {
      "anonymous": false,
      "inputs": [
        {
          "indexed": true,
          "internalType": "address",
          "name": "account",
          "type": "address"
        }
      ],
      "name": "UnregisteredConsumer",
      "type": "event"
    },
    {
      "anonymous": false,
      "inputs": [
        {
          "indexed": true,
          "internalType": "address",
          "name": "account",
          "type": "address"
        }
      ],
      "name": "UnregisteredDealer",
      "type": "event"
    },
    {
      "inputs": [],
      "name": "DEFAULT_ADMIN_ROLE",
      "outputs": [
        {
          "internalType": "bytes32",
          "name": "",
          "type": "bytes32"
        }
      ],
      "stateMutability": "view",
      "type": "function"
    },
    {
      "inputs": [],
      "name": "REGISTERED_CONSUMER",
      "outputs": [
        {
          "internalType": "bytes32",
          "name": "",
          "type": "bytes32"
        }
      ],
      "stateMutability": "view",
      "type": "function"
    },
    {
      "inputs": [],
      "name": "REGISTERED_DEALER",
      "outputs": [
        {
          "internalType": "bytes32",
          "name": "",
          "type": "bytes32"
        }
      ],
      "stateMutability": "view",
      "type": "function"
    },
    {
      "inputs": [],
      "name": "REGISTERED_EMISSIONS_AUDITOR",
      "outputs": [
        {
          "internalType": "bytes32",
          "name": "",
          "type": "bytes32"
        }
      ],
      "stateMutability": "view",
      "type": "function"
    },
    {
      "inputs": [],
      "name": "REGISTERED_OFFSET_DEALER",
      "outputs": [
        {
          "internalType": "bytes32",
          "name": "",
          "type": "bytes32"
        }
      ],
      "stateMutability": "view",
      "type": "function"
    },
    {
      "inputs": [],
      "name": "REGISTERED_REC_DEALER",
      "outputs": [
        {
          "internalType": "bytes32",
          "name": "",
          "type": "bytes32"
        }
      ],
      "stateMutability": "view",
      "type": "function"
    },
    {
      "inputs": [
        {
          "internalType": "address",
          "name": "account",
          "type": "address"
        },
        {
          "internalType": "uint256",
          "name": "id",
          "type": "uint256"
        }
      ],
      "name": "balanceOf",
      "outputs": [
        {
          "internalType": "uint256",
          "name": "",
          "type": "uint256"
        }
      ],
      "stateMutability": "view",
      "type": "function"
    },
    {
      "inputs": [
        {
          "internalType": "address[]",
          "name": "accounts",
          "type": "address[]"
        },
        {
          "internalType": "uint256[]",
          "name": "ids",
          "type": "uint256[]"
        }
      ],
      "name": "balanceOfBatch",
      "outputs": [
        {
          "internalType": "uint256[]",
          "name": "",
          "type": "uint256[]"
        }
      ],
      "stateMutability": "view",
      "type": "function"
    },
    {
      "inputs": [
        {
          "internalType": "address",
          "name": "account",
          "type": "address"
        },
        {
          "internalType": "uint256",
          "name": "tokenId",
          "type": "uint256"
        }
      ],
      "name": "getAvailableAndRetired",
      "outputs": [
        {
          "internalType": "uint256",
          "name": "",
          "type": "uint256"
        },
        {
          "internalType": "uint256",
          "name": "",
          "type": "uint256"
        }
      ],
      "stateMutability": "view",
      "type": "function"
    },
    {
      "inputs": [
        {
          "internalType": "uint256",
          "name": "tokenId",
          "type": "uint256"
        }
      ],
      "name": "getIssuer",
      "outputs": [
        {
          "internalType": "address",
          "name": "",
          "type": "address"
        }
      ],
      "stateMutability": "view",
      "type": "function"
    },
    {
      "inputs": [],
      "name": "getNumOfUniqueTokens",
      "outputs": [
        {
          "internalType": "uint256",
          "name": "",
          "type": "uint256"
        }
      ],
      "stateMutability": "view",
      "type": "function"
    },
    {
      "inputs": [
        {
          "internalType": "bytes32",
          "name": "role",
          "type": "bytes32"
        }
      ],
      "name": "getRoleAdmin",
      "outputs": [
        {
          "internalType": "bytes32",
          "name": "",
          "type": "bytes32"
        }
      ],
      "stateMutability": "view",
      "type": "function"
    },
    {
      "inputs": [
        {
          "internalType": "bytes32",
          "name": "role",
          "type": "bytes32"
        },
        {
          "internalType": "uint256",
          "name": "index",
          "type": "uint256"
        }
      ],
      "name": "getRoleMember",
      "outputs": [
        {
          "internalType": "address",
          "name": "",
          "type": "address"
        }
      ],
      "stateMutability": "view",
      "type": "function"
    },
    {
      "inputs": [
        {
          "internalType": "bytes32",
          "name": "role",
          "type": "bytes32"
        }
      ],
      "name": "getRoleMemberCount",
      "outputs": [
        {
          "internalType": "uint256",
          "name": "",
          "type": "uint256"
        }
      ],
      "stateMutability": "view",
      "type": "function"
    },
    {
      "inputs": [
        {
          "internalType": "address",
          "name": "account",
          "type": "address"
        }
      ],
      "name": "getRoles",
      "outputs": [
        {
          "internalType": "bool",
          "name": "",
          "type": "bool"
        },
        {
          "internalType": "bool",
          "name": "",
          "type": "bool"
        },
        {
          "internalType": "bool",
          "name": "",
          "type": "bool"
        },
        {
          "internalType": "bool",
          "name": "",
          "type": "bool"
        },
        {
          "internalType": "bool",
          "name": "",
          "type": "bool"
        }
      ],
      "stateMutability": "view",
      "type": "function"
    },
    {
      "inputs": [
        {
          "internalType": "uint256",
          "name": "tokenId",
          "type": "uint256"
        }
      ],
      "name": "getTokenDetails",
      "outputs": [
        {
          "components": [
            {
              "internalType": "uint256",
              "name": "tokenId",
              "type": "uint256"
            },
            {
              "internalType": "uint8",
              "name": "tokenTypeId",
              "type": "uint8"
            },
            {
              "internalType": "address",
              "name": "issuer",
              "type": "address"
            },
            {
              "internalType": "address",
              "name": "issuee",
              "type": "address"
            },
            {
              "internalType": "uint256",
              "name": "fromDate",
              "type": "uint256"
            },
            {
              "internalType": "uint256",
              "name": "thruDate",
              "type": "uint256"
            },
            {
              "internalType": "uint256",
              "name": "dateCreated",
              "type": "uint256"
            },
            {
              "internalType": "string",
              "name": "metadata",
              "type": "string"
            },
            {
              "internalType": "string",
              "name": "manifest",
              "type": "string"
            },
            {
              "internalType": "string",
              "name": "description",
              "type": "string"
            }
          ],
          "internalType": "struct NetEmissionsTokenNetwork.CarbonTokenDetails",
          "name": "",
          "type": "tuple"
        }
      ],
      "stateMutability": "view",
      "type": "function"
    },
    {
      "inputs": [
        {
          "internalType": "address",
          "name": "account",
          "type": "address"
        },
        {
          "internalType": "uint256",
          "name": "tokenId",
          "type": "uint256"
        }
      ],
      "name": "getTokenRetiredAmount",
      "outputs": [
        {
          "internalType": "uint256",
          "name": "",
          "type": "uint256"
        }
      ],
      "stateMutability": "view",
      "type": "function"
    },
    {
      "inputs": [
        {
          "internalType": "uint256",
          "name": "tokenId",
          "type": "uint256"
        }
      ],
      "name": "getTokenType",
      "outputs": [
        {
          "internalType": "string",
          "name": "",
          "type": "string"
        }
      ],
      "stateMutability": "view",
      "type": "function"
    },
    {
      "inputs": [
        {
          "internalType": "bytes32",
          "name": "role",
          "type": "bytes32"
        },
        {
          "internalType": "address",
          "name": "account",
          "type": "address"
        }
      ],
      "name": "grantRole",
      "outputs": [],
      "stateMutability": "nonpayable",
      "type": "function"
    },
    {
      "inputs": [
        {
          "internalType": "bytes32",
          "name": "role",
          "type": "bytes32"
        },
        {
          "internalType": "address",
          "name": "account",
          "type": "address"
        }
      ],
      "name": "hasRole",
      "outputs": [
        {
          "internalType": "bool",
          "name": "",
          "type": "bool"
        }
      ],
      "stateMutability": "view",
      "type": "function"
    },
    {
      "inputs": [
        {
          "internalType": "address",
          "name": "admin",
          "type": "address"
        }
      ],
      "name": "initialize",
      "outputs": [],
      "stateMutability": "nonpayable",
      "type": "function"
    },
    {
      "inputs": [
        {
          "internalType": "address",
          "name": "account",
          "type": "address"
        },
        {
          "internalType": "address",
          "name": "operator",
          "type": "address"
        }
      ],
      "name": "isApprovedForAll",
      "outputs": [
        {
          "internalType": "bool",
          "name": "",
          "type": "bool"
        }
      ],
      "stateMutability": "view",
      "type": "function"
    },
    {
      "inputs": [
        {
          "internalType": "address",
          "name": "account",
          "type": "address"
        }
      ],
      "name": "isConsumerRegistered",
      "outputs": [
        {
          "internalType": "bool",
          "name": "",
          "type": "bool"
        }
      ],
      "stateMutability": "view",
      "type": "function"
    },
    {
      "inputs": [
        {
          "internalType": "address",
          "name": "account",
          "type": "address"
        }
      ],
      "name": "isDealerRegistered",
      "outputs": [
        {
          "internalType": "bool",
          "name": "",
          "type": "bool"
        }
      ],
      "stateMutability": "view",
      "type": "function"
    },
    {
      "inputs": [
        {
          "internalType": "address",
          "name": "account",
          "type": "address"
        },
        {
          "internalType": "uint8",
          "name": "tokenTypeId",
          "type": "uint8"
        },
        {
          "internalType": "uint256",
          "name": "quantity",
          "type": "uint256"
        },
        {
          "internalType": "uint256",
          "name": "fromDate",
          "type": "uint256"
        },
        {
          "internalType": "uint256",
          "name": "thruDate",
          "type": "uint256"
        },
        {
          "internalType": "string",
          "name": "metadata",
          "type": "string"
        },
        {
          "internalType": "string",
          "name": "manifest",
          "type": "string"
        },
        {
          "internalType": "string",
          "name": "description",
          "type": "string"
        }
      ],
      "name": "issue",
      "outputs": [],
      "stateMutability": "nonpayable",
      "type": "function"
    },
    {
      "inputs": [
        {
          "internalType": "address",
          "name": "account",
          "type": "address"
        }
      ],
      "name": "registerConsumer",
      "outputs": [],
      "stateMutability": "nonpayable",
      "type": "function"
    },
    {
      "inputs": [
        {
          "internalType": "address",
          "name": "account",
          "type": "address"
        },
        {
          "internalType": "uint8",
          "name": "tokenTypeId",
          "type": "uint8"
        }
      ],
      "name": "registerDealer",
      "outputs": [],
      "stateMutability": "nonpayable",
      "type": "function"
    },
    {
      "inputs": [
        {
          "internalType": "bytes32",
          "name": "role",
          "type": "bytes32"
        },
        {
          "internalType": "address",
          "name": "account",
          "type": "address"
        }
      ],
      "name": "renounceRole",
      "outputs": [],
      "stateMutability": "nonpayable",
      "type": "function"
    },
    {
      "inputs": [
        {
          "internalType": "uint256",
          "name": "tokenId",
          "type": "uint256"
        },
        {
          "internalType": "uint256",
          "name": "amount",
          "type": "uint256"
        }
      ],
      "name": "retire",
      "outputs": [],
      "stateMutability": "nonpayable",
      "type": "function"
    },
    {
      "inputs": [
        {
          "internalType": "bytes32",
          "name": "role",
          "type": "bytes32"
        },
        {
          "internalType": "address",
          "name": "account",
          "type": "address"
        }
      ],
      "name": "revokeRole",
      "outputs": [],
      "stateMutability": "nonpayable",
      "type": "function"
    },
    {
      "inputs": [
        {
          "internalType": "address",
          "name": "from",
          "type": "address"
        },
        {
          "internalType": "address",
          "name": "to",
          "type": "address"
        },
        {
          "internalType": "uint256[]",
          "name": "ids",
          "type": "uint256[]"
        },
        {
          "internalType": "uint256[]",
          "name": "amounts",
          "type": "uint256[]"
        },
        {
          "internalType": "bytes",
          "name": "data",
          "type": "bytes"
        }
      ],
      "name": "safeBatchTransferFrom",
      "outputs": [],
      "stateMutability": "nonpayable",
      "type": "function"
    },
    {
      "inputs": [
        {
          "internalType": "address",
          "name": "from",
          "type": "address"
        },
        {
          "internalType": "address",
          "name": "to",
          "type": "address"
        },
        {
          "internalType": "uint256",
          "name": "id",
          "type": "uint256"
        },
        {
          "internalType": "uint256",
          "name": "amount",
          "type": "uint256"
        },
        {
          "internalType": "bytes",
          "name": "data",
          "type": "bytes"
        }
      ],
      "name": "safeTransferFrom",
      "outputs": [],
      "stateMutability": "nonpayable",
      "type": "function"
    },
    {
      "inputs": [
        {
          "internalType": "address",
          "name": "operator",
          "type": "address"
        },
        {
          "internalType": "bool",
          "name": "approved",
          "type": "bool"
        }
      ],
      "name": "setApprovalForAll",
      "outputs": [],
      "stateMutability": "nonpayable",
      "type": "function"
    },
    {
      "inputs": [
        {
          "internalType": "bytes4",
          "name": "interfaceId",
          "type": "bytes4"
        }
      ],
      "name": "supportsInterface",
      "outputs": [
        {
          "internalType": "bool",
          "name": "",
          "type": "bool"
        }
      ],
      "stateMutability": "view",
      "type": "function"
    },
    {
      "inputs": [
        {
          "internalType": "address",
          "name": "to",
          "type": "address"
        },
        {
          "internalType": "uint256",
          "name": "tokenId",
          "type": "uint256"
        },
        {
          "internalType": "uint256",
          "name": "value",
          "type": "uint256"
        }
      ],
      "name": "transfer",
      "outputs": [],
      "stateMutability": "nonpayable",
      "type": "function"
    },
    {
      "inputs": [
        {
          "internalType": "address",
          "name": "account",
          "type": "address"
        }
      ],
      "name": "unregisterConsumer",
      "outputs": [],
      "stateMutability": "nonpayable",
      "type": "function"
    },
    {
      "inputs": [
        {
          "internalType": "address",
          "name": "account",
          "type": "address"
        },
        {
          "internalType": "uint8",
          "name": "tokenTypeId",
          "type": "uint8"
        }
      ],
      "name": "unregisterDealer",
      "outputs": [],
      "stateMutability": "nonpayable",
      "type": "function"
    },
    {
      "inputs": [
        {
          "internalType": "uint256",
          "name": "",
          "type": "uint256"
        }
      ],
      "name": "uri",
      "outputs": [
        {
          "internalType": "string",
          "name": "",
          "type": "string"
        }
      ],
      "stateMutability": "view",
      "type": "function"
    }
  ],
  "bytecode": "0x608060405234801561001057600080fd5b50613f75806100206000396000f3fe608060405234801561001057600080fd5b50600436106102315760003560e01c806376ce475511610130578063c1e03728116100b8578063e2e564f21161007c578063e2e564f2146104df578063e985e9c5146104f2578063f242432a14610505578063fcba794814610518578063fd0c4a9a1461052057610231565b8063c1e0372814610462578063c4d66de814610482578063ca15c87314610495578063ce6ccfaf146104a8578063d547741f146104cc57610231565b806391d14854116100ff57806391d148541461040e57806392089c4614610421578063a0d975a714610434578063a217fddf14610447578063a22cb4651461044f57610231565b806376ce4755146103bd57806378e5c592146103c55780637f157c9b146103cd5780639010d07c146103ee57610231565b80632f2ff15d116101be5780634e1273f4116101825780634e1273f41461035c57806353dbe9821461037c5780635ddb368f1461038f57806369f7ef441461039757806376aed2e1146103aa57610231565b80632f2ff15d146102fd57806331aa4b201461031057806333781a0e1461032357806336568abe1461033657806344b22fdd1461034957610231565b806318a50d7e1161020557806318a50d7e146102b45780631ef68ef7146102bc578063248a9ca3146102c4578063293a7f2e146102d75780632eb2c2d6146102ea57610231565b8062fdd58e1461023657806301ffc9a71461025f578063095bcdb61461027f5780630e89341c14610294575b600080fd5b610249610244366004612e62565b610533565b6040516102569190613389565b60405180910390f35b61027261026d3660046130d8565b61058f565b6040516102569190613355565b61029261028d366004612e8c565b6105b2565b005b6102a76102a236600461307b565b6106fc565b6040516102569190613392565b610249610794565b6102496107a6565b6102496102d236600461307b565b6107b8565b6102926102e53660046130b7565b6107cd565b6102926102f8366004612d18565b61094e565b61029261030b366004613093565b610b6d565b61029261031e366004612ebf565b610bb5565b610272610331366004612cc9565b610cb6565b610292610344366004613093565b610cd0565b610292610357366004612cc9565b610d12565b61036f61036a366004612fb9565b610de5565b6040516102569190613314565b61029261038a366004612cc9565b610eb2565b610249610f85565b6102726103a5366004612cc9565b610f97565b6102a76103b836600461307b565b611019565b610249611107565b610249611119565b6103e06103db366004612e62565b61112b565b604051610256929190613c96565b6104016103fc3660046130b7565b6111c2565b6040516102569190613244565b61027261041c366004613093565b6111e1565b61040161042f36600461307b565b6111f9565b610249610442366004612e62565b611244565b610249611293565b61029261045d366004612e27565b611298565b61047561047036600461307b565b611366565b6040516102569190613bbe565b610292610490366004612cc9565b6115cb565b6102496104a336600461307b565b6117b6565b6104bb6104b6366004612cc9565b6117cd565b604051610256959493929190613360565b6102926104da366004613093565b611861565b6102926104ed366004612ebf565b61189b565b610272610500366004612ce4565b6119a9565b610292610513366004612dc2565b6119d7565b610249611b6b565b61029261052e366004612eea565b611b7d565b60006001600160a01b0383166105645760405162461bcd60e51b815260040161055b90613518565b60405180910390fd5b5060008181526065602090815260408083206001600160a01b03861684529091529020545b92915050565b6001600160e01b0319811660009081526033602052604090205460ff165b919050565b60006105cc600080516020613e96833981519152336111e1565b905060006105e8600080516020613f00833981519152336111e1565b90506000610604600080516020613e76833981519152336111e1565b90506000610620600080516020613f20833981519152336111e1565b9050838061062b5750825b806106335750815b8061063b5750805b6106575760405162461bcd60e51b815260040161055b90613903565b61066086611fa7565b61067c5760405162461bcd60e51b815260040161055b906135d1565b61068587611fc9565b6106a15760405162461bcd60e51b815260040161055b90613983565b336001600160a01b03881614156106ca5760405162461bcd60e51b815260040161055b90613aa0565b6106f333888888604051806040016040528060048152602001630307830360e41b8152506119d7565b50505050505050565b60678054604080516020601f60026000196101006001881615020190951694909404938401819004810282018101909252828152606093909290918301828280156107885780601f1061075d57610100808354040283529160200191610788565b820191906000526020600020905b81548152906001019060200180831161076b57829003601f168201915b50505050509050919050565b600080516020613eb683398151915281565b600080516020613e7683398151915281565b60009081526097602052604090206002015490565b60006107e7600080516020613e96833981519152336111e1565b90506000610803600080516020613f00833981519152336111e1565b9050600061081f600080516020613e76833981519152336111e1565b9050600061083b600080516020613f20833981519152336111e1565b905083806108465750825b8061084e5750815b806108565750805b6108725760405162461bcd60e51b815260040161055b90613903565b61087b86611fa7565b6108975760405162461bcd60e51b815260040161055b906135d1565b6108a13387610533565b8511156108c05760405162461bcd60e51b815260040161055b90613483565b6108cb338787611fe3565b600086815260ca602090815260408083203384529091529020546108ef90866120f9565b600087815260ca602090815260408083203380855292529182902092909255517f8f1b5ebb586d3d169e4ed07db9cd10ce0dd30c7b656171310eae7517c0b53cf99061093e9089908990613c96565b60405180910390a2505050505050565b815183511461096f5760405162461bcd60e51b815260040161055b90613ae6565b6001600160a01b0384166109955760405162461bcd60e51b815260040161055b906136c9565b61099d61211e565b6001600160a01b0316856001600160a01b031614806109c357506109c38561050061211e565b6109df5760405162461bcd60e51b815260040161055b9061370e565b60006109e961211e565b90506109f9818787878787610b65565b60005b8451811015610aff576000858281518110610a1357fe5b602002602001015190506000858381518110610a2b57fe5b60200260200101519050610a98816040518060600160405280602a8152602001613ed6602a91396065600086815260200190815260200160002060008d6001600160a01b03166001600160a01b03168152602001908152602001600020546121229092919063ffffffff16565b60008381526065602090815260408083206001600160a01b038e811685529252808320939093558a1681522054610acf90826120f9565b60009283526065602090815260408085206001600160a01b038c16865290915290922091909155506001016109fc565b50846001600160a01b0316866001600160a01b0316826001600160a01b03167f4a39dc06d4c0dbc64b70af90fd698a233a518aa5d07e595d983b8c0526c8f7fb8787604051610b4f929190613327565b60405180910390a4610b6581878787878761214e565b505050505050565b600082815260976020526040902060020154610b8b9061041c61211e565b610ba75760405162461bcd60e51b815260040161055b906134c9565b610bb1828261225c565b5050565b610bc06000336111e1565b610bdc5760405162461bcd60e51b815260040161055b9061364a565b610be5816122c5565b610c015760405162461bcd60e51b815260040161055b9061394c565b8060ff1660011415610c2a57610c25600080516020613f0083398151915283610b6d565b610c66565b8060ff1660021415610c4e57610c25600080516020613e7683398151915283610b6d565b610c66600080516020613f2083398151915283610b6d565b610c7e600080516020613eb683398151915283610b6d565b6040516001600160a01b038316907fa8377deee15954185683d55effd369508b4935978c8cb2bab790bf04c570181490600090a25050565b6000610589600080516020613e96833981519152836111e1565b610cd861211e565b6001600160a01b0316816001600160a01b031614610d085760405162461bcd60e51b815260040161055b90613b6f565b610bb182826122eb565b6000610d2c600080516020613f00833981519152336111e1565b90506000610d48600080516020613e76833981519152336111e1565b90506000610d64600080516020613f20833981519152336111e1565b90508280610d6f5750815b80610d775750805b610d935760405162461bcd60e51b815260040161055b90613838565b610dab600080516020613e9683398151915285610b6d565b6040516001600160a01b038516907f69a0adee259d26fe61f4776f7bea7f3a9737c7321256821b985f988545efd31990600090a250505050565b60608151835114610e085760405162461bcd60e51b815260040161055b90613a57565b6060835167ffffffffffffffff81118015610e2257600080fd5b50604051908082528060200260200182016040528015610e4c578160200160208202803683370190505b50905060005b8451811015610eaa57610e8b858281518110610e6a57fe5b6020026020010151858381518110610e7e57fe5b6020026020010151610533565b828281518110610e9757fe5b6020908102919091010152600101610e52565b509392505050565b6000610ecc600080516020613f00833981519152336111e1565b90506000610ee8600080516020613e76833981519152336111e1565b90506000610f04600080516020613f20833981519152336111e1565b90508280610f0f5750815b80610f175750805b610f335760405162461bcd60e51b815260040161055b90613838565b610f4b600080516020613e9683398151915285611861565b6040516001600160a01b038516907f03a38088da75ee2d80f6c753f55f8fd17602ae17d8bd0ef44d5e1f28ab5af11f90600090a250505050565b6000610f9160cb612354565b90505b90565b600080610fb2600080516020613f00833981519152846111e1565b90506000610fce600080516020613e76833981519152856111e1565b90506000610fea600080516020613f20833981519152866111e1565b90508280610ff55750815b80610ffd5750805b1561100e57600193505050506105ad565b506000949350505050565b606061102482611fa7565b6110405760405162461bcd60e51b815260040161055b906135d1565b600082815260c9602052604090206001015460cc805460609260001960ff918216011690811061106c57fe5b600091825260209182902001805460408051601f60026000196101006001871615020190941693909304928301859004850281018501909152818152928301828280156110fa5780601f106110cf576101008083540402835291602001916110fa565b820191906000526020600020905b8154815290600101906020018083116110dd57829003601f168201915b5093979650505050505050565b600080516020613f2083398151915281565b600080516020613e9683398151915281565b600080600061113a8585610533565b60405163a0d975a760e01b8152909150600090309063a0d975a79061116590899089906004016132fb565b60206040518083038186803b15801561117d57600080fd5b505afa158015611191573d6000803e3d6000fd5b505050506040513d601f19601f820116820180604052508101906111b59190613110565b9196919550909350505050565b60008281526097602052604081206111da9083612358565b9392505050565b60008281526097602052604081206111da9083612364565b600061120482611fa7565b6112205760405162461bcd60e51b815260040161055b906135d1565b50600090815260c9602052604090206001015461010090046001600160a01b031690565b600061124f82611fa7565b61126b5760405162461bcd60e51b815260040161055b906135d1565b50600090815260ca602090815260408083206001600160a01b03949094168352929052205490565b600081565b816001600160a01b03166112aa61211e565b6001600160a01b031614156112d15760405162461bcd60e51b815260040161055b90613a0e565b80606660006112de61211e565b6001600160a01b03908116825260208083019390935260409182016000908120918716808252919093529120805460ff19169215159290921790915561132261211e565b6001600160a01b03167f17307eab39ab6107e8899845ad3d59bd9653f200f220920489ca2b5937696c318360405161135a9190613355565b60405180910390a35050565b61136e612a0e565b61137782611fa7565b6113935760405162461bcd60e51b815260040161055b906135d1565b600082815260c960209081526040918290208251610160810184528154815260018083015460ff811683860152610100908190046001600160a01b0390811684880152600280860154909116606085015260038501546080850152600485015460a0850152600585015460c0850152600685015460e08501526007850180548851948116158402600019011691909104601f81018790048702840187019097528683529295939490860193919291908301828280156114935780601f1061146857610100808354040283529160200191611493565b820191906000526020600020905b81548152906001019060200180831161147657829003601f168201915b505050918352505060088201805460408051602060026001851615610100026000190190941693909304601f81018490048402820184019092528181529382019392918301828280156115275780601f106114fc57610100808354040283529160200191611527565b820191906000526020600020905b81548152906001019060200180831161150a57829003601f168201915b505050918352505060098201805460408051602060026001851615610100026000190190941693909304601f81018490048402820184019092528181529382019392918301828280156115bb5780601f10611590576101008083540402835291602001916115bb565b820191906000526020600020905b81548152906001019060200180831161159e57829003601f168201915b5050505050815250509050919050565b600054610100900460ff16806115e457506115e4612379565b806115f2575060005460ff16155b61160e5760405162461bcd60e51b815260040161055b90613760565b600054610100900460ff16158015611639576000805460ff1961ff0019909116610100171660011790555b6116516040518060200160405280600081525061238a565b60405180606001604052806040518060400160405280601c81526020017f52656e657761626c6520456e657267792043657274696669636174650000000081525081526020016040518060400160405280601781526020017f436172626f6e20456d697373696f6e73204f66667365740000000000000000008152508152602001604051806040016040528060118152602001704175646974656420456d697373696f6e7360781b81525081525060cc90600361170f929190612a7d565b50611736600080516020613e96833981519152600080516020613eb6833981519152612411565b611741600083610ba7565b611759600080516020613eb683398151915283610ba7565b611771600080516020613f0083398151915283610ba7565b611789600080516020613e7683398151915283610ba7565b6117a1600080516020613f2083398151915283610ba7565b8015610bb1576000805461ff00191690555050565b600081815260976020526040812061058990612463565b600080808080806117de81886111e1565b905060006117fa600080516020613f00833981519152896111e1565b90506000611816600080516020613e768339815191528a6111e1565b90506000611832600080516020613f208339815191528b6111e1565b9050600061184e600080516020613e968339815191528c6111e1565b949b939a50919850965091945092505050565b60008281526097602052604090206002015461187f9061041c61211e565b610d085760405162461bcd60e51b815260040161055b90613679565b6118a66000336111e1565b6118c25760405162461bcd60e51b815260040161055b9061364a565b6118cb816122c5565b6118e75760405162461bcd60e51b815260040161055b9061394c565b8060ff16600114156119105761190b600080516020613f0083398151915283611861565b61194c565b8060ff16600214156119345761190b600080516020613e7683398151915283611861565b61194c600080516020613f2083398151915283611861565b61195582610f97565b61197157611971600080516020613eb683398151915283611861565b6040516001600160a01b038316907f98552ded770f1d05a505572f3387c108dbc6b566ea3d49f83cff3d1f1c72a04290600090a25050565b6001600160a01b03918216600090815260666020908152604080832093909416825291909152205460ff1690565b6001600160a01b0384166119fd5760405162461bcd60e51b815260040161055b906136c9565b611a0561211e565b6001600160a01b0316856001600160a01b03161480611a2b5750611a2b8561050061211e565b611a475760405162461bcd60e51b815260040161055b90613601565b6000611a5161211e565b9050611a71818787611a628861246e565b611a6b8861246e565b87610b65565b611ab8836040518060600160405280602a8152602001613ed6602a913960008781526065602090815260408083206001600160a01b038d1684529091529020549190612122565b60008581526065602090815260408083206001600160a01b038b81168552925280832093909355871681522054611aef90846120f9565b60008581526065602090815260408083206001600160a01b03808b168086529190935292819020939093559151909188811691908416907fc3d58168c5ae7397731d063d5bbf3d657854427343f4c083240f7aacaa2d0f6290611b559089908990613c96565b60405180910390a4610b658187878787876124b2565b600080516020613f0083398151915281565b6000611b97600080516020613f00833981519152336111e1565b90506000611bb3600080516020613e76833981519152336111e1565b90506000611bcf600080516020613f20833981519152336111e1565b90508280611bda5750815b80611be25750805b611bfe5760405162461bcd60e51b815260040161055b90613838565b611c0860cb612583565b600060c96000611c1860cb612354565b81526020019081526020016000209050611c318c6122c5565b611c4d5760405162461bcd60e51b815260040161055b906137ae565b8b60ff1660011415611c9257611c71600080516020613f00833981519152336111e1565b611c8d5760405162461bcd60e51b815260040161055b90613866565b611d06565b8b60ff1660021415611cd257611cb6600080516020613e76833981519152336111e1565b611c8d5760405162461bcd60e51b815260040161055b906138b7565b611cea600080516020613f20833981519152336111e1565b611d065760405162461bcd60e51b815260040161055b906139c7565b6060611d1260cb612354565b82600001819055508c8260010160006101000a81548160ff021916908360ff160217905550338260010160016101000a8154816001600160a01b0302191690836001600160a01b031602179055508d8260020160006101000a8154816001600160a01b0302191690836001600160a01b031602179055508a826003018190555089826004018190555088826006018190555042826005018190555087826007019080519060200190611dc5929190612ada565b508651611ddb90600884019060208a0190612ada565b508551611df19060098401906020890190612ada565b50611e078e611e0060cb612354565b8e8461258c565b8c60ff1660031415611e8b5760028201548254611e2e916001600160a01b0316908e611fe3565b8154600090815260ca6020908152604080832060028601546001600160a01b03168452909152902054611e61908d6120f9565b8254600090815260ca6020908152604080832060028701546001600160a01b031684529091529020555b8160020160009054906101000a90046001600160a01b03166001600160a01b03168260010160019054906101000a90046001600160a01b03166001600160a01b03167f99cc3eeb446560c9a2d2483bc5160735ec0fb1851aea3bde32e7a56c30c11da68e60ca60008760000154815260200190815260200160002060008760020160009054906101000a90046001600160a01b03166001600160a01b03166001600160a01b031681526020019081526020016000205486600001548760010160009054906101000a900460ff16886003015489600401548a600601548b600501548c6007018d6008018e600901604051611f8f9b9a99989796959493929190613ca4565b60405180910390a35050505050505050505050505050565b600081611fb460cb612354565b10611fc1575060016105ad565b506000919050565b6000611fd482610f97565b80610589575061058982610cb6565b6001600160a01b0383166120095760405162461bcd60e51b815260040161055b906137f5565b600061201361211e565b9050612043818560006120258761246e565b61202e8761246e565b60405180602001604052806000815250610b65565b61208a82604051806060016040528060248152602001613e526024913960008681526065602090815260408083206001600160a01b038b1684529091529020549190612122565b60008481526065602090815260408083206001600160a01b03808a16808652919093528184209490945551919291908416907fc3d58168c5ae7397731d063d5bbf3d657854427343f4c083240f7aacaa2d0f62906120eb9088908890613c96565b60405180910390a450505050565b6000828201838110156111da5760405162461bcd60e51b815260040161055b9061359a565b3390565b600081848411156121465760405162461bcd60e51b815260040161055b9190613392565b505050900390565b612160846001600160a01b0316612677565b15610b655760405163bc197c8160e01b81526001600160a01b0385169063bc197c81906121999089908990889088908890600401613258565b602060405180830381600087803b1580156121b357600080fd5b505af19250505080156121e3575060408051601f3d908101601f191682019092526121e0918101906130f4565b60015b61222c576121ef613d81565b806121fa5750612214565b8060405162461bcd60e51b815260040161055b9190613392565b60405162461bcd60e51b815260040161055b906133a5565b6001600160e01b0319811663bc197c8160e01b146106f35760405162461bcd60e51b815260040161055b9061343b565b6000828152609760205260409020612274908261267d565b15610bb15761228161211e565b6001600160a01b0316816001600160a01b0316837f2f8788117e7eff1d82e926ec794901d17c78024a50270940304540a733656f0d60405160405180910390a45050565b6000808260ff161180156122de575060cc5460ff831611155b15611fc1575060016105ad565b60008281526097602052604090206123039082612692565b15610bb15761231061211e565b6001600160a01b0316816001600160a01b0316837ff6391f5c32d9c69d2a47ea670b442974b53935d1edc7fd64eb21e047a839171b60405160405180910390a45050565b5490565b60006111da83836126a7565b60006111da836001600160a01b0384166126ec565b600061238430612677565b15905090565b600054610100900460ff16806123a357506123a3612379565b806123b1575060005460ff16155b6123cd5760405162461bcd60e51b815260040161055b90613760565b600054610100900460ff161580156123f8576000805460ff1961ff0019909116610100171660011790555b612400612704565b612408612787565b6117a182612805565b600082815260976020526040808220600201549051839285917fbd79b86ffe0ab8e8776151514217cd7cacd52c909f66475c3af44e129f0b00ff9190a460009182526097602052604090912060020155565b600061058982612354565b6040805160018082528183019092526060918291906020808301908036833701905050905082816000815181106124a157fe5b602090810291909101015292915050565b6124c4846001600160a01b0316612677565b15610b655760405163f23a6e6160e01b81526001600160a01b0385169063f23a6e61906124fd90899089908890889088906004016132b6565b602060405180830381600087803b15801561251757600080fd5b505af1925050508015612547575060408051601f3d908101601f19168201909252612544918101906130f4565b60015b612553576121ef613d81565b6001600160e01b0319811663f23a6e6160e01b146106f35760405162461bcd60e51b815260040161055b9061343b565b80546001019055565b6001600160a01b0384166125b25760405162461bcd60e51b815260040161055b90613b2e565b60006125bc61211e565b90506125ce81600087611a628861246e565b60008481526065602090815260408083206001600160a01b03891684529091529020546125fb90846120f9565b60008581526065602090815260408083206001600160a01b03808b16808652919093528184209490945551908416907fc3d58168c5ae7397731d063d5bbf3d657854427343f4c083240f7aacaa2d0f62906126599089908990613c96565b60405180910390a4612670816000878787876124b2565b5050505050565b3b151590565b60006111da836001600160a01b03841661289c565b60006111da836001600160a01b0384166128e6565b815460009082106126ca5760405162461bcd60e51b815260040161055b906133f9565b8260000182815481106126d957fe5b9060005260206000200154905092915050565b60009081526001919091016020526040902054151590565b600054610100900460ff168061271d575061271d612379565b8061272b575060005460ff16155b6127475760405162461bcd60e51b815260040161055b90613760565b600054610100900460ff16158015612772576000805460ff1961ff0019909116610100171660011790555b8015612784576000805461ff00191690555b50565b600054610100900460ff16806127a057506127a0612379565b806127ae575060005460ff16155b6127ca5760405162461bcd60e51b815260040161055b90613760565b600054610100900460ff161580156127f5576000805460ff1961ff0019909116610100171660011790555b6127726301ffc9a760e01b6129ac565b600054610100900460ff168061281e575061281e612379565b8061282c575060005460ff16155b6128485760405162461bcd60e51b815260040161055b90613760565b600054610100900460ff16158015612873576000805460ff1961ff0019909116610100171660011790555b61287c826129fb565b61288c636cdb3d1360e11b6129ac565b6117a16303a24d0760e21b6129ac565b60006128a883836126ec565b6128de57508154600181810184556000848152602080822090930184905584548482528286019093526040902091909155610589565b506000610589565b600081815260018301602052604081205480156129a2578354600019808301919081019060009087908390811061291957fe5b906000526020600020015490508087600001848154811061293657fe5b60009182526020808320909101929092558281526001898101909252604090209084019055865487908061296657fe5b60019003818190600052602060002001600090559055866001016000878152602001908152602001600020600090556001945050505050610589565b6000915050610589565b6001600160e01b031980821614156129d65760405162461bcd60e51b815260040161055b90613563565b6001600160e01b0319166000908152603360205260409020805460ff19166001179055565b8051610bb1906067906020840190612ada565b60405180610160016040528060008152602001600060ff16815260200160006001600160a01b0316815260200160006001600160a01b03168152602001600081526020016000815260200160008152602001600081526020016060815260200160608152602001606081525090565b828054828255906000526020600020908101928215612aca579160200282015b82811115612aca5782518051612aba918491602090910190612ada565b5091602001919060010190612a9d565b50612ad6929150612b54565b5090565b828054600181600116156101000203166002900490600052602060002090601f016020900481019282601f10612b1b57805160ff1916838001178555612b48565b82800160010185558215612b48579182015b82811115612b48578251825591602001919060010190612b2d565b50612ad6929150612b71565b80821115612ad6576000612b688282612b86565b50600101612b54565b5b80821115612ad65760008155600101612b72565b50805460018160011615610100020316600290046000825580601f10612bac5750612784565b601f0160209004906000526020600020908101906127849190612b71565b80356001600160a01b038116811461058957600080fd5b600082601f830112612bf1578081fd5b8135612c04612bff82613d4f565b613d28565b818152915060208083019084810181840286018201871015612c2557600080fd5b60005b84811015612c4457813584529282019290820190600101612c28565b505050505092915050565b600082601f830112612c5f578081fd5b813567ffffffffffffffff811115612c75578182fd5b612c88601f8201601f1916602001613d28565b9150808252836020828501011115612c9f57600080fd5b8060208401602084013760009082016020015292915050565b803560ff8116811461058957600080fd5b600060208284031215612cda578081fd5b6111da8383612bca565b60008060408385031215612cf6578081fd5b612d008484612bca565b9150612d0f8460208501612bca565b90509250929050565b600080600080600060a08688031215612d2f578081fd5b8535612d3a81613e26565b94506020860135612d4a81613e26565b9350604086013567ffffffffffffffff80821115612d66578283fd5b612d7289838a01612be1565b94506060880135915080821115612d87578283fd5b612d9389838a01612be1565b93506080880135915080821115612da8578283fd5b50612db588828901612c4f565b9150509295509295909350565b600080600080600060a08688031215612dd9578081fd5b612de38787612bca565b9450612df28760208801612bca565b93506040860135925060608601359150608086013567ffffffffffffffff811115612e1b578182fd5b612db588828901612c4f565b60008060408385031215612e39578182fd5b612e438484612bca565b915060208301358015158114612e57578182fd5b809150509250929050565b60008060408385031215612e74578182fd5b612e7e8484612bca565b946020939093013593505050565b600080600060608486031215612ea0578283fd5b612eaa8585612bca565b95602085013595506040909401359392505050565b60008060408385031215612ed1578182fd5b612edb8484612bca565b9150612d0f8460208501612cb8565b60008060008060008060008060006101208a8c031215612f08578687fd5b612f128b8b612bca565b9850612f218b60208c01612cb8565b975060408a0135965060608a0135955060808a0135945060a08a0135935060c08a013567ffffffffffffffff80821115612f59578485fd5b612f658d838e01612c4f565b945060e08c0135915080821115612f7a578384fd5b612f868d838e01612c4f565b93506101008c0135915080821115612f9c578283fd5b50612fa98c828d01612c4f565b9150509295985092959850929598565b60008060408385031215612fcb578182fd5b823567ffffffffffffffff80821115612fe2578384fd5b818501915085601f830112612ff5578384fd5b8135613003612bff82613d4f565b80828252602080830192508086018a828387028901011115613023578889fd5b8896505b8487101561304d576130398b82612bca565b845260019690960195928101928101613027565b509096508701359350505080821115613064578283fd5b5061307185828601612be1565b9150509250929050565b60006020828403121561308c578081fd5b5035919050565b600080604083850312156130a5578182fd5b823591506020830135612e5781613e26565b600080604083850312156130c9578182fd5b50508035926020909101359150565b6000602082840312156130e9578081fd5b81356111da81613e3b565b600060208284031215613105578081fd5b81516111da81613e3b565b600060208284031215613121578081fd5b5051919050565b6001600160a01b03169052565b6000815180845260208085019450808401835b8381101561316457815187529582019590820190600101613148565b509495945050505050565b60008151808452815b8181101561319457602081850181015186830182015201613178565b818111156131a55782602083870101525b50601f01601f19169290920160200192915050565b600081546001808216600081146131d857600181146131f657613234565b60028304607f16865260ff1983166020870152604086019350613234565b6002830480875261320686613d6f565b60005b8281101561322a5781546020828b0101528482019150602081019050613209565b8801602001955050505b50505092915050565b60ff169052565b6001600160a01b0391909116815260200190565b6001600160a01b0386811682528516602082015260a06040820181905260009061328490830186613135565b82810360608401526132968186613135565b905082810360808401526132aa818561316f565b98975050505050505050565b6001600160a01b03868116825285166020820152604081018490526060810183905260a0608082018190526000906132f09083018461316f565b979650505050505050565b6001600160a01b03929092168252602082015260400190565b6000602082526111da6020830184613135565b60006040825261333a6040830185613135565b828103602084015261334c8185613135565b95945050505050565b901515815260200190565b941515855292151560208501529015156040840152151560608301521515608082015260a00190565b90815260200190565b6000602082526111da602083018461316f565b60208082526034908201527f455243313135353a207472616e7366657220746f206e6f6e20455243313135356040820152732932b1b2b4bb32b91034b6b83632b6b2b73a32b960611b606082015260800190565b60208082526022908201527f456e756d657261626c655365743a20696e646578206f7574206f6620626f756e604082015261647360f01b606082015260800190565b60208082526028908201527f455243313135353a204552433131353552656365697665722072656a656374656040820152676420746f6b656e7360c01b606082015260800190565b60208082526026908201527f4e6f7420656e6f75676820617661696c61626c652062616c616e636520746f2060408201526572657469726560d01b606082015260800190565b6020808252602f908201527f416363657373436f6e74726f6c3a2073656e646572206d75737420626520616e60408201526e0818591b5a5b881d1bc819dc985b9d608a1b606082015260800190565b6020808252602b908201527f455243313135353a2062616c616e636520717565727920666f7220746865207a60408201526a65726f206164647265737360a81b606082015260800190565b6020808252601c908201527f4552433136353a20696e76616c696420696e7465726661636520696400000000604082015260600190565b6020808252601b908201527f536166654d6174683a206164646974696f6e206f766572666c6f770000000000604082015260600190565b6020808252601690820152751d1bdad95b925908191bd95cc81b9bdd08195e1a5cdd60521b604082015260600190565b60208082526029908201527f455243313135353a2063616c6c6572206973206e6f74206f776e6572206e6f7260408201526808185c1c1c9bdd995960ba1b606082015260800190565b6020808252601590820152742cb7ba9030b932903737ba103a34329037bbb732b960591b604082015260600190565b60208082526030908201527f416363657373436f6e74726f6c3a2073656e646572206d75737420626520616e60408201526f2061646d696e20746f207265766f6b6560801b606082015260800190565b60208082526025908201527f455243313135353a207472616e7366657220746f20746865207a65726f206164604082015264647265737360d81b606082015260800190565b60208082526032908201527f455243313135353a207472616e736665722063616c6c6572206973206e6f74206040820152711bdddb995c881b9bdc88185c1c1c9bdd995960721b606082015260800190565b6020808252602e908201527f496e697469616c697a61626c653a20636f6e747261637420697320616c72656160408201526d191e481a5b9a5d1a585b1a5e995960921b606082015260800190565b60208082526027908201527f4661696c656420746f2069737375653a20746f6b656e547970654964206973206040820152661a5b9d985b1a5960ca1b606082015260800190565b60208082526023908201527f455243313135353a206275726e2066726f6d20746865207a65726f206164647260408201526265737360e81b606082015260800190565b6020808252601490820152732cb7ba9030b932903737ba1030903232b0b632b960611b604082015260600190565b60208082526031908201527f596f7520617265206e6f7420612052656e657761626c6520456e65726779204360408201527032b93a34b334b1b0ba32903232b0b632b960791b606082015260800190565b6020808252602c908201527f596f7520617265206e6f74206120436172626f6e20456d697373696f6e73204f60408201526b333339b2ba103232b0b632b960a11b606082015260800190565b60208082526029908201527f596f75206d75737420626520656974686572206120636f6e73756d6572206f726040820152681030903232b0b632b960b91b606082015260800190565b60208082526019908201527f546f6b656e207479706520646f6573206e6f7420657869737400000000000000604082015260600190565b60208082526024908201527f526563697069656e74206d75737420626520636f6e73756d6572206f7220646560408201526330b632b960e11b606082015260800190565b60208082526027908201527f596f7520617265206e6f7420616e204175646974656420456d697373696f6e73604082015266103232b0b632b960c91b606082015260800190565b60208082526029908201527f455243313135353a2073657474696e6720617070726f76616c20737461747573604082015268103337b91039b2b63360b91b606082015260800190565b60208082526029908201527f455243313135353a206163636f756e747320616e6420696473206c656e677468604082015268040dad2e6dac2e8c6d60bb1b606082015260800190565b60208082526026908201527f53656e64657220616e642072656365697665722063616e6e6f74206265207468604082015265652073616d6560d01b606082015260800190565b60208082526028908201527f455243313135353a2069647320616e6420616d6f756e7473206c656e677468206040820152670dad2e6dac2e8c6d60c31b606082015260800190565b60208082526021908201527f455243313135353a206d696e7420746f20746865207a65726f206164647265736040820152607360f81b606082015260800190565b6020808252602f908201527f416363657373436f6e74726f6c3a2063616e206f6e6c792072656e6f756e636560408201526e103937b632b9903337b91039b2b63360891b606082015260800190565b600060208252825160208301526020830151613bdd604084018261323d565b506040830151613bf06060840182613128565b506060830151613c036080840182613128565b50608083015160a083015260a083015160c083015260c083015160e083015260e08301516101008181850152808501519150506101606101208181860152613c4f61018086018461316f565b9250808601519050601f19610140818786030181880152613c70858461316f565b908801518782039092018488015293509050613c8c838261316f565b9695505050505050565b918252602082015260400190565b60006101608d83528c60208401528b604084015260ff8b1660608401528960808401528860a08401528760c08401528660e084015280610100840152613cec818401876131ba565b9050828103610120840152613d0181866131ba565b9050828103610140840152613d1681856131ba565b9e9d5050505050505050505050505050565b60405181810167ffffffffffffffff81118282101715613d4757600080fd5b604052919050565b600067ffffffffffffffff821115613d65578081fd5b5060209081020190565b60009081526020902090565b60e01c90565b600060443d1015613d9157610f94565b600481823e6308c379a0613da58251613d7b565b14613daf57610f94565b6040513d600319016004823e80513d67ffffffffffffffff8160248401118184111715613ddf5750505050610f94565b82840192508251915080821115613df95750505050610f94565b503d83016020828401011115613e1157505050610f94565b601f01601f1916810160200160405291505090565b6001600160a01b038116811461278457600080fd5b6001600160e01b03198116811461278457600080fdfe455243313135353a206275726e20616d6f756e7420657863656564732062616c616e6365ede6574deba8f02ada7888448a497b08844d62e044ed533343a673be3ffcde5f5e1aa547d3dade8c68b013a47ad41c2bcc9b9e4b0765b0fb616780e15786e76af8890eedd7900ad88da6192fd03dbb69dbeee963b1a0ed738abe49ab3331aaf3455243313135353a20696e73756666696369656e742062616c616e636520666f72207472616e736665722ab9f1da92e74aaa01eb75a871557505b11dd8d36832a34bb21bbee88b08d860e97dad3dbe5042e7384b1572cf966a15e089576a62b5126c5ef1d184ab18b12ca2646970667358221220d40458639b980dfdf03a7738dbec7758cad4b4011159d5332908c047e9bdbafa64736f6c63430007000033",
  "linkReferences": {},
  "deployedLinkReferences": {}
}