{
  "address": "0x92a217ef97cFb3e619f93cBe68A0Db348F384Fb7",
  "abi": [
    {
      "anonymous": false,
      "inputs": [
        {
          "indexed": true,
          "internalType": "address",
          "name": "account",
          "type": "address"
        },
        {
          "indexed": true,
          "internalType": "address",
          "name": "operator",
          "type": "address"
        },
        {
          "indexed": false,
          "internalType": "bool",
          "name": "approved",
          "type": "bool"
        }
      ],
      "name": "ApprovalForAll",
      "type": "event"
    },
    {
      "anonymous": false,
      "inputs": [
        {
          "indexed": false,
          "internalType": "uint8",
          "name": "version",
          "type": "uint8"
        }
      ],
      "name": "Initialized",
      "type": "event"
    },
    {
      "anonymous": false,
      "inputs": [
        {
          "indexed": true,
          "internalType": "address",
          "name": "account",
          "type": "address"
        }
      ],
      "name": "RegisteredConsumer",
      "type": "event"
    },
    {
      "anonymous": false,
      "inputs": [
        {
          "indexed": true,
          "internalType": "address",
          "name": "account",
          "type": "address"
        }
      ],
      "name": "RegisteredDealer",
      "type": "event"
    },
    {
      "anonymous": false,
      "inputs": [
        {
          "indexed": true,
          "internalType": "address",
          "name": "account",
          "type": "address"
        }
      ],
      "name": "RegisteredIndustry",
      "type": "event"
    },
    {
      "anonymous": false,
      "inputs": [
        {
          "indexed": true,
          "internalType": "bytes32",
          "name": "role",
          "type": "bytes32"
        },
        {
          "indexed": true,
          "internalType": "bytes32",
          "name": "previousAdminRole",
          "type": "bytes32"
        },
        {
          "indexed": true,
          "internalType": "bytes32",
          "name": "newAdminRole",
          "type": "bytes32"
        }
      ],
      "name": "RoleAdminChanged",
      "type": "event"
    },
    {
      "anonymous": false,
      "inputs": [
        {
          "indexed": true,
          "internalType": "bytes32",
          "name": "role",
          "type": "bytes32"
        },
        {
          "indexed": true,
          "internalType": "address",
          "name": "account",
          "type": "address"
        },
        {
          "indexed": true,
          "internalType": "address",
          "name": "sender",
          "type": "address"
        }
      ],
      "name": "RoleGranted",
      "type": "event"
    },
    {
      "anonymous": false,
      "inputs": [
        {
          "indexed": true,
          "internalType": "bytes32",
          "name": "role",
          "type": "bytes32"
        },
        {
          "indexed": true,
          "internalType": "address",
          "name": "account",
          "type": "address"
        },
        {
          "indexed": true,
          "internalType": "address",
          "name": "sender",
          "type": "address"
        }
      ],
      "name": "RoleRevoked",
      "type": "event"
    },
    {
      "anonymous": false,
      "inputs": [
        {
          "indexed": false,
          "internalType": "uint256",
          "name": "availableBalance",
          "type": "uint256"
        },
        {
          "indexed": false,
          "internalType": "uint256",
          "name": "retiredBalance",
          "type": "uint256"
        },
        {
          "indexed": false,
          "internalType": "uint256",
          "name": "tokenId",
          "type": "uint256"
        },
        {
          "indexed": false,
          "internalType": "uint8",
          "name": "tokenTypeId",
          "type": "uint8"
        },
        {
          "indexed": true,
          "internalType": "address",
          "name": "issuedBy",
          "type": "address"
        },
        {
          "indexed": true,
          "internalType": "uint160",
          "name": "issuedFrom",
          "type": "uint160"
        },
        {
          "indexed": true,
          "internalType": "address",
          "name": "issuedTo",
          "type": "address"
        },
        {
          "indexed": false,
          "internalType": "uint256",
          "name": "fromDate",
          "type": "uint256"
        },
        {
          "indexed": false,
          "internalType": "uint256",
          "name": "thruDate",
          "type": "uint256"
        },
        {
          "indexed": false,
          "internalType": "uint256",
          "name": "dateCreated",
          "type": "uint256"
        },
        {
          "indexed": false,
          "internalType": "string",
          "name": "metadata",
          "type": "string"
        },
        {
          "indexed": false,
          "internalType": "string",
          "name": "manifest",
          "type": "string"
        },
        {
          "indexed": false,
          "internalType": "string",
          "name": "description",
          "type": "string"
        }
      ],
      "name": "TokenCreated",
      "type": "event"
    },
    {
      "anonymous": false,
      "inputs": [
        {
          "indexed": true,
          "internalType": "address",
          "name": "account",
          "type": "address"
        },
        {
          "indexed": false,
          "internalType": "uint256",
          "name": "tokenId",
          "type": "uint256"
        },
        {
          "indexed": false,
          "internalType": "uint256",
          "name": "amount",
          "type": "uint256"
        }
      ],
      "name": "TokenRetired",
      "type": "event"
    },
    {
      "anonymous": false,
      "inputs": [
        {
          "indexed": true,
          "internalType": "address",
          "name": "operator",
          "type": "address"
        },
        {
          "indexed": true,
          "internalType": "address",
          "name": "from",
          "type": "address"
        },
        {
          "indexed": true,
          "internalType": "address",
          "name": "to",
          "type": "address"
        },
        {
          "indexed": false,
          "internalType": "uint256[]",
          "name": "ids",
          "type": "uint256[]"
        },
        {
          "indexed": false,
          "internalType": "uint256[]",
          "name": "values",
          "type": "uint256[]"
        }
      ],
      "name": "TransferBatch",
      "type": "event"
    },
    {
      "anonymous": false,
      "inputs": [
        {
          "indexed": true,
          "internalType": "address",
          "name": "operator",
          "type": "address"
        },
        {
          "indexed": true,
          "internalType": "address",
          "name": "from",
          "type": "address"
        },
        {
          "indexed": true,
          "internalType": "address",
          "name": "to",
          "type": "address"
        },
        {
          "indexed": false,
          "internalType": "uint256",
          "name": "id",
          "type": "uint256"
        },
        {
          "indexed": false,
          "internalType": "uint256",
          "name": "value",
          "type": "uint256"
        }
      ],
      "name": "TransferSingle",
      "type": "event"
    },
    {
      "anonymous": false,
      "inputs": [
        {
          "indexed": false,
          "internalType": "string",
          "name": "value",
          "type": "string"
        },
        {
          "indexed": true,
          "internalType": "uint256",
          "name": "id",
          "type": "uint256"
        }
      ],
      "name": "URI",
      "type": "event"
    },
    {
      "anonymous": false,
      "inputs": [
        {
          "indexed": true,
          "internalType": "address",
          "name": "account",
          "type": "address"
        }
      ],
      "name": "UnregisteredConsumer",
      "type": "event"
    },
    {
      "anonymous": false,
      "inputs": [
        {
          "indexed": true,
          "internalType": "address",
          "name": "account",
          "type": "address"
        }
      ],
      "name": "UnregisteredDealer",
      "type": "event"
    },
    {
      "anonymous": false,
      "inputs": [
        {
          "indexed": true,
          "internalType": "address",
          "name": "account",
          "type": "address"
        }
      ],
      "name": "UnregisteredIndustry",
      "type": "event"
    },
    {
      "inputs": [],
      "name": "DEFAULT_ADMIN_ROLE",
      "outputs": [
        {
          "internalType": "bytes32",
          "name": "",
          "type": "bytes32"
        }
      ],
      "stateMutability": "view",
      "type": "function"
    },
    {
      "inputs": [],
      "name": "REGISTERED_CONSUMER",
      "outputs": [
        {
          "internalType": "bytes32",
          "name": "",
          "type": "bytes32"
        }
      ],
      "stateMutability": "view",
      "type": "function"
    },
    {
      "inputs": [],
      "name": "REGISTERED_DEALER",
      "outputs": [
        {
          "internalType": "bytes32",
          "name": "",
          "type": "bytes32"
        }
      ],
      "stateMutability": "view",
      "type": "function"
    },
    {
      "inputs": [],
      "name": "REGISTERED_EMISSIONS_AUDITOR",
      "outputs": [
        {
          "internalType": "bytes32",
          "name": "",
          "type": "bytes32"
        }
      ],
      "stateMutability": "view",
      "type": "function"
    },
    {
      "inputs": [],
      "name": "REGISTERED_INDUSTRY",
      "outputs": [
        {
          "internalType": "bytes32",
          "name": "",
          "type": "bytes32"
        }
      ],
      "stateMutability": "view",
      "type": "function"
    },
    {
      "inputs": [],
      "name": "REGISTERED_INDUSTRY_DEALER",
      "outputs": [
        {
          "internalType": "bytes32",
          "name": "",
          "type": "bytes32"
        }
      ],
      "stateMutability": "view",
      "type": "function"
    },
    {
      "inputs": [],
      "name": "REGISTERED_OFFSET_DEALER",
      "outputs": [
        {
          "internalType": "bytes32",
          "name": "",
          "type": "bytes32"
        }
      ],
      "stateMutability": "view",
      "type": "function"
    },
    {
      "inputs": [],
      "name": "REGISTERED_REC_DEALER",
      "outputs": [
        {
          "internalType": "bytes32",
          "name": "",
          "type": "bytes32"
        }
      ],
      "stateMutability": "view",
      "type": "function"
    },
    {
      "inputs": [
        {
          "internalType": "address",
          "name": "entity",
          "type": "address"
        }
      ],
      "name": "_consumerOrDealer",
      "outputs": [
        {
          "internalType": "bool",
          "name": "",
          "type": "bool"
        }
      ],
      "stateMutability": "view",
      "type": "function"
    },
    {
      "inputs": [],
      "name": "admin",
      "outputs": [
        {
          "internalType": "address",
          "name": "",
          "type": "address"
        }
      ],
      "stateMutability": "view",
      "type": "function"
    },
    {
      "inputs": [
        {
          "internalType": "address",
          "name": "account",
          "type": "address"
        },
        {
          "internalType": "uint256",
          "name": "id",
          "type": "uint256"
        }
      ],
      "name": "balanceOf",
      "outputs": [
        {
          "internalType": "uint256",
          "name": "",
          "type": "uint256"
        }
      ],
      "stateMutability": "view",
      "type": "function"
    },
    {
      "inputs": [
        {
          "internalType": "address[]",
          "name": "accounts",
          "type": "address[]"
        },
        {
          "internalType": "uint256[]",
          "name": "ids",
          "type": "uint256[]"
        }
      ],
      "name": "balanceOfBatch",
      "outputs": [
        {
          "internalType": "uint256[]",
          "name": "",
          "type": "uint256[]"
        }
      ],
      "stateMutability": "view",
      "type": "function"
    },
    {
      "inputs": [
        {
          "internalType": "address",
          "name": "account",
          "type": "address"
        },
        {
          "internalType": "uint256",
          "name": "tokenId",
          "type": "uint256"
        }
      ],
      "name": "getAvailableAndRetired",
      "outputs": [
        {
          "internalType": "uint256",
          "name": "",
          "type": "uint256"
        },
        {
          "internalType": "uint256",
          "name": "",
          "type": "uint256"
        }
      ],
      "stateMutability": "view",
      "type": "function"
    },
    {
      "inputs": [
        {
          "internalType": "address",
          "name": "account",
          "type": "address"
        },
        {
          "internalType": "uint256",
          "name": "tokenId",
          "type": "uint256"
        }
      ],
      "name": "getAvailableRetiredAndTransferred",
      "outputs": [
        {
          "internalType": "uint256",
          "name": "",
          "type": "uint256"
        },
        {
          "internalType": "uint256",
          "name": "",
          "type": "uint256"
        },
        {
          "internalType": "uint256",
          "name": "",
          "type": "uint256"
        }
      ],
      "stateMutability": "view",
      "type": "function"
    },
    {
      "inputs": [
        {
          "internalType": "uint256",
          "name": "tokenId",
          "type": "uint256"
        }
      ],
      "name": "getIssuedBy",
      "outputs": [
        {
          "internalType": "address",
          "name": "",
          "type": "address"
        }
      ],
      "stateMutability": "view",
      "type": "function"
    },
    {
      "inputs": [
        {
          "internalType": "uint256",
          "name": "tokenId",
          "type": "uint256"
        }
      ],
      "name": "getIssuedFrom",
      "outputs": [
        {
          "internalType": "uint160",
          "name": "",
          "type": "uint160"
        }
      ],
      "stateMutability": "view",
      "type": "function"
    },
    {
      "inputs": [],
      "name": "getNumOfUniqueTokens",
      "outputs": [
        {
          "internalType": "uint256",
          "name": "",
          "type": "uint256"
        }
      ],
      "stateMutability": "view",
      "type": "function"
    },
    {
      "inputs": [
        {
          "internalType": "uint256",
          "name": "tokenId",
          "type": "uint256"
        },
        {
          "internalType": "address",
          "name": "account",
          "type": "address"
        }
      ],
      "name": "getRetiredBalances",
      "outputs": [
        {
          "internalType": "uint256",
          "name": "",
          "type": "uint256"
        }
      ],
      "stateMutability": "view",
      "type": "function"
    },
    {
      "inputs": [
        {
          "internalType": "bytes32",
          "name": "role",
          "type": "bytes32"
        }
      ],
      "name": "getRoleAdmin",
      "outputs": [
        {
          "internalType": "bytes32",
          "name": "",
          "type": "bytes32"
        }
      ],
      "stateMutability": "view",
      "type": "function"
    },
    {
      "inputs": [
        {
          "internalType": "address",
          "name": "account",
          "type": "address"
        }
      ],
      "name": "getRoles",
      "outputs": [
        {
          "components": [
            {
              "internalType": "bool",
              "name": "isAdmin",
              "type": "bool"
            },
            {
              "internalType": "bool",
              "name": "isConsumer",
              "type": "bool"
            },
            {
              "internalType": "bool",
              "name": "isRecDealer",
              "type": "bool"
            },
            {
              "internalType": "bool",
              "name": "isCeoDealer",
              "type": "bool"
            },
            {
              "internalType": "bool",
              "name": "isAeDealer",
              "type": "bool"
            },
            {
              "internalType": "bool",
              "name": "isIndustry",
              "type": "bool"
            },
            {
              "internalType": "bool",
              "name": "isIndustryDealer",
              "type": "bool"
            }
          ],
          "internalType": "struct NetEmissionsTokenNetwork.RolesInfo",
          "name": "",
          "type": "tuple"
        }
      ],
      "stateMutability": "view",
      "type": "function"
    },
    {
      "inputs": [
        {
          "internalType": "uint256",
          "name": "tokenId",
          "type": "uint256"
        }
      ],
      "name": "getTokenDetails",
      "outputs": [
        {
          "components": [
            {
              "internalType": "uint256",
              "name": "tokenId",
              "type": "uint256"
            },
            {
              "internalType": "uint8",
              "name": "tokenTypeId",
              "type": "uint8"
            },
            {
              "internalType": "address",
              "name": "issuedBy",
              "type": "address"
            },
            {
              "internalType": "uint160",
              "name": "issuedFrom",
              "type": "uint160"
            },
            {
              "internalType": "address",
              "name": "issuedTo",
              "type": "address"
            },
            {
              "internalType": "uint256",
              "name": "fromDate",
              "type": "uint256"
            },
            {
              "internalType": "uint256",
              "name": "thruDate",
              "type": "uint256"
            },
            {
              "internalType": "uint256",
              "name": "dateCreated",
              "type": "uint256"
            },
            {
              "internalType": "string",
              "name": "metadata",
              "type": "string"
            },
            {
              "internalType": "string",
              "name": "manifest",
              "type": "string"
            },
            {
              "internalType": "string",
              "name": "description",
              "type": "string"
            },
            {
              "internalType": "uint256",
              "name": "totalIssued",
              "type": "uint256"
            },
            {
              "internalType": "uint256",
              "name": "totalRetired",
              "type": "uint256"
            }
          ],
          "internalType": "struct NetEmissionsTokenNetwork.CarbonTokenDetails",
          "name": "",
          "type": "tuple"
        }
      ],
      "stateMutability": "view",
      "type": "function"
    },
    {
      "inputs": [
        {
          "internalType": "address",
          "name": "account",
          "type": "address"
        },
        {
          "internalType": "uint256",
          "name": "tokenId",
          "type": "uint256"
        }
      ],
      "name": "getTokenRetiredAmount",
      "outputs": [
        {
          "internalType": "uint256",
          "name": "",
          "type": "uint256"
        }
      ],
      "stateMutability": "view",
      "type": "function"
    },
    {
      "inputs": [
        {
          "internalType": "uint256",
          "name": "tokenId",
          "type": "uint256"
        }
      ],
      "name": "getTokenType",
      "outputs": [
        {
          "internalType": "string",
          "name": "",
          "type": "string"
        }
      ],
      "stateMutability": "view",
      "type": "function"
    },
    {
      "inputs": [
        {
          "internalType": "uint256",
          "name": "tokenId",
          "type": "uint256"
        }
      ],
      "name": "getTokenTypeId",
      "outputs": [
        {
          "internalType": "uint8",
          "name": "",
          "type": "uint8"
        }
      ],
      "stateMutability": "view",
      "type": "function"
    },
    {
      "inputs": [
        {
          "internalType": "address",
          "name": "_from",
          "type": "address"
        },
        {
          "internalType": "address",
          "name": "_to",
          "type": "address"
        },
        {
          "internalType": "uint256[]",
          "name": "_ids",
          "type": "uint256[]"
        },
        {
          "internalType": "uint256[]",
          "name": "_amounts",
          "type": "uint256[]"
        }
      ],
      "name": "getTransferHash",
      "outputs": [
        {
          "internalType": "bytes32",
          "name": "",
          "type": "bytes32"
        }
      ],
      "stateMutability": "view",
      "type": "function"
    },
    {
      "inputs": [
        {
          "internalType": "uint256",
          "name": "tokenId",
          "type": "uint256"
        },
        {
          "internalType": "address",
          "name": "account",
          "type": "address"
        }
      ],
      "name": "getTransferredBalances",
      "outputs": [
        {
          "internalType": "uint256",
          "name": "",
          "type": "uint256"
        }
      ],
      "stateMutability": "view",
      "type": "function"
    },
    {
      "inputs": [
        {
          "internalType": "bytes32",
          "name": "role",
          "type": "bytes32"
        },
        {
          "internalType": "address",
          "name": "account",
          "type": "address"
        }
      ],
      "name": "grantRole",
      "outputs": [],
      "stateMutability": "nonpayable",
      "type": "function"
    },
    {
      "inputs": [
        {
          "internalType": "bytes32",
          "name": "role",
          "type": "bytes32"
        },
        {
          "internalType": "address",
          "name": "account",
          "type": "address"
        }
      ],
      "name": "hasRole",
      "outputs": [
        {
          "internalType": "bool",
          "name": "",
          "type": "bool"
        }
      ],
      "stateMutability": "view",
      "type": "function"
    },
    {
      "inputs": [
        {
          "internalType": "address",
          "name": "_admin",
          "type": "address"
        }
      ],
      "name": "initialize",
      "outputs": [],
      "stateMutability": "nonpayable",
      "type": "function"
    },
    {
      "inputs": [
        {
          "internalType": "address",
          "name": "account",
          "type": "address"
        },
        {
          "internalType": "address",
          "name": "operator",
          "type": "address"
        }
      ],
      "name": "isApprovedForAll",
      "outputs": [
        {
          "internalType": "bool",
          "name": "",
          "type": "bool"
        }
      ],
      "stateMutability": "view",
      "type": "function"
    },
    {
      "inputs": [
        {
          "internalType": "address",
          "name": "auditor",
          "type": "address"
        }
      ],
      "name": "isAuditor",
      "outputs": [
        {
          "internalType": "bool",
          "name": "",
          "type": "bool"
        }
      ],
      "stateMutability": "view",
      "type": "function"
    },
    {
      "inputs": [
        {
          "internalType": "address",
          "name": "account",
          "type": "address"
        }
      ],
      "name": "isConsumerRegistered",
      "outputs": [
        {
          "internalType": "bool",
          "name": "",
          "type": "bool"
        }
      ],
      "stateMutability": "view",
      "type": "function"
    },
    {
      "inputs": [
        {
          "internalType": "address",
          "name": "account",
          "type": "address"
        }
      ],
      "name": "isDealerRegistered",
      "outputs": [
        {
          "internalType": "bool",
          "name": "",
          "type": "bool"
        }
      ],
      "stateMutability": "view",
      "type": "function"
    },
    {
      "inputs": [
        {
          "internalType": "uint160",
          "name": "issuedFrom",
          "type": "uint160"
        },
        {
          "internalType": "address",
          "name": "issuedTo",
          "type": "address"
        },
        {
          "internalType": "uint8",
          "name": "tokenTypeId",
          "type": "uint8"
        },
        {
          "internalType": "uint256",
          "name": "quantity",
          "type": "uint256"
        },
        {
          "internalType": "uint256",
          "name": "fromDate",
          "type": "uint256"
        },
        {
          "internalType": "uint256",
          "name": "thruDate",
          "type": "uint256"
        },
        {
          "internalType": "string",
          "name": "metadata",
          "type": "string"
        },
        {
          "internalType": "string",
          "name": "manifest",
          "type": "string"
        },
        {
          "internalType": "string",
          "name": "description",
          "type": "string"
        }
      ],
      "name": "issue",
      "outputs": [],
      "stateMutability": "nonpayable",
      "type": "function"
    },
    {
      "inputs": [
        {
          "internalType": "address",
          "name": "issuedBy",
          "type": "address"
        },
        {
          "internalType": "uint160",
          "name": "issuedFrom",
          "type": "uint160"
        },
        {
          "internalType": "address",
          "name": "issuedTo",
          "type": "address"
        },
        {
          "internalType": "uint8",
          "name": "tokenTypeId",
          "type": "uint8"
        },
        {
          "internalType": "uint256",
          "name": "quantity",
          "type": "uint256"
        },
        {
          "internalType": "uint256",
          "name": "fromDate",
          "type": "uint256"
        },
        {
          "internalType": "uint256",
          "name": "thruDate",
          "type": "uint256"
        },
        {
          "internalType": "string",
          "name": "metadata",
          "type": "string"
        },
        {
          "internalType": "string",
          "name": "manifest",
          "type": "string"
        },
        {
          "internalType": "string",
          "name": "description",
          "type": "string"
        }
      ],
      "name": "issueOnBehalf",
      "outputs": [],
      "stateMutability": "nonpayable",
      "type": "function"
    },
    {
      "inputs": [],
      "name": "limitedMode",
      "outputs": [
        {
          "internalType": "bool",
          "name": "",
          "type": "bool"
        }
      ],
      "stateMutability": "view",
      "type": "function"
    },
    {
      "inputs": [
        {
          "internalType": "address",
          "name": "to",
          "type": "address"
        },
        {
          "internalType": "uint256",
          "name": "tokenId",
          "type": "uint256"
        },
        {
          "internalType": "uint256",
          "name": "quantity",
          "type": "uint256"
        }
      ],
      "name": "mint",
      "outputs": [],
      "stateMutability": "nonpayable",
      "type": "function"
    },
    {
      "inputs": [
        {
          "internalType": "address",
          "name": "account",
          "type": "address"
        }
      ],
      "name": "registerConsumer",
      "outputs": [],
      "stateMutability": "nonpayable",
      "type": "function"
    },
    {
      "inputs": [
        {
          "internalType": "address",
          "name": "account",
          "type": "address"
        },
        {
          "internalType": "uint8",
          "name": "tokenTypeId",
          "type": "uint8"
        }
      ],
      "name": "registerDealer",
      "outputs": [],
      "stateMutability": "nonpayable",
      "type": "function"
    },
    {
      "inputs": [
        {
          "internalType": "address",
          "name": "account",
          "type": "address"
        }
      ],
      "name": "registerIndustry",
      "outputs": [],
      "stateMutability": "nonpayable",
      "type": "function"
    },
    {
      "inputs": [
        {
          "internalType": "bytes32",
          "name": "role",
          "type": "bytes32"
        },
        {
          "internalType": "address",
          "name": "account",
          "type": "address"
        }
      ],
      "name": "renounceRole",
      "outputs": [],
      "stateMutability": "nonpayable",
      "type": "function"
    },
    {
      "inputs": [
        {
          "internalType": "uint256",
          "name": "tokenId",
          "type": "uint256"
        },
        {
          "internalType": "uint256",
          "name": "amount",
          "type": "uint256"
        }
      ],
      "name": "retire",
      "outputs": [],
      "stateMutability": "nonpayable",
      "type": "function"
    },
    {
      "inputs": [
        {
          "internalType": "bytes32",
          "name": "role",
          "type": "bytes32"
        },
        {
          "internalType": "address",
          "name": "account",
          "type": "address"
        }
      ],
      "name": "revokeRole",
      "outputs": [],
      "stateMutability": "nonpayable",
      "type": "function"
    },
    {
      "inputs": [
        {
          "internalType": "address",
          "name": "from",
          "type": "address"
        },
        {
          "internalType": "address",
          "name": "to",
          "type": "address"
        },
        {
          "internalType": "uint256[]",
          "name": "ids",
          "type": "uint256[]"
        },
        {
          "internalType": "uint256[]",
          "name": "amounts",
          "type": "uint256[]"
        },
        {
          "internalType": "bytes",
          "name": "data",
          "type": "bytes"
        }
      ],
      "name": "safeBatchTransferFrom",
      "outputs": [],
      "stateMutability": "nonpayable",
      "type": "function"
    },
    {
      "inputs": [
        {
          "internalType": "address",
          "name": "from",
          "type": "address"
        },
        {
          "internalType": "address",
          "name": "to",
          "type": "address"
        },
        {
          "internalType": "uint256",
          "name": "id",
          "type": "uint256"
        },
        {
          "internalType": "uint256",
          "name": "amount",
          "type": "uint256"
        },
        {
          "internalType": "bytes",
          "name": "data",
          "type": "bytes"
        }
      ],
      "name": "safeTransferFrom",
      "outputs": [],
      "stateMutability": "nonpayable",
      "type": "function"
    },
    {
      "inputs": [
        {
          "internalType": "address",
          "name": "operator",
          "type": "address"
        },
        {
          "internalType": "bool",
          "name": "approved",
          "type": "bool"
        }
      ],
      "name": "setApprovalForAll",
      "outputs": [],
      "stateMutability": "nonpayable",
      "type": "function"
    },
    {
      "inputs": [
        {
          "internalType": "bool",
          "name": "_limitedMode",
          "type": "bool"
        }
      ],
      "name": "setLimitedMode",
      "outputs": [],
      "stateMutability": "nonpayable",
      "type": "function"
    },
    {
      "inputs": [
        {
          "internalType": "address",
          "name": "_timelock",
          "type": "address"
        }
      ],
      "name": "setTimelock",
      "outputs": [],
      "stateMutability": "nonpayable",
      "type": "function"
    },
    {
      "inputs": [
        {
          "internalType": "bytes4",
          "name": "interfaceId",
          "type": "bytes4"
        }
      ],
      "name": "supportsInterface",
      "outputs": [
        {
          "internalType": "bool",
          "name": "",
          "type": "bool"
        }
      ],
      "stateMutability": "view",
      "type": "function"
    },
    {
      "inputs": [
        {
          "internalType": "address",
          "name": "to",
          "type": "address"
        },
        {
          "internalType": "uint256",
          "name": "tokenId",
          "type": "uint256"
        },
        {
          "internalType": "uint256",
          "name": "value",
          "type": "uint256"
        }
      ],
      "name": "transfer",
      "outputs": [],
      "stateMutability": "nonpayable",
      "type": "function"
    },
    {
      "inputs": [
        {
          "internalType": "address",
          "name": "account",
          "type": "address"
        }
      ],
      "name": "unregisterConsumer",
      "outputs": [],
      "stateMutability": "nonpayable",
      "type": "function"
    },
    {
      "inputs": [
        {
          "internalType": "address",
          "name": "account",
          "type": "address"
        },
        {
          "internalType": "uint8",
          "name": "tokenTypeId",
          "type": "uint8"
        }
      ],
      "name": "unregisterDealer",
      "outputs": [],
      "stateMutability": "nonpayable",
      "type": "function"
    },
    {
      "inputs": [
        {
          "internalType": "address",
          "name": "account",
          "type": "address"
        }
      ],
      "name": "unregisterIndustry",
      "outputs": [],
      "stateMutability": "nonpayable",
      "type": "function"
    },
    {
      "inputs": [
        {
          "internalType": "uint256",
          "name": "",
          "type": "uint256"
        }
      ],
      "name": "uri",
      "outputs": [
        {
          "internalType": "string",
          "name": "",
          "type": "string"
        }
      ],
      "stateMutability": "view",
      "type": "function"
    },
    {
      "inputs": [
        {
          "internalType": "bytes32",
          "name": "msgHash",
          "type": "bytes32"
        },
        {
          "internalType": "bytes",
          "name": "signature",
          "type": "bytes"
        },
        {
          "internalType": "address",
          "name": "signer",
          "type": "address"
        }
      ],
      "name": "verifySignature",
      "outputs": [
        {
          "internalType": "bool",
          "name": "",
          "type": "bool"
        }
      ],
      "stateMutability": "pure",
      "type": "function"
    }
  ],
  "transactionHash": "0x2b1e2fd8a3a3fcbd6da4c6c96801be2af12fd64e7c2dfda0a82840159d7ef426",
  "args": [],
  "numDeployments": 1,
  "solcInputHash": "e2da00b9f0685b5a435e52bed725c640",
  "bytecode": "0x608060405234801561001057600080fd5b5061579080620000216000396000f3fe608060405234801561001057600080fd5b506004361061035c5760003560e01c80637aab1b88116101d3578063ce6ccfaf11610104578063ee042956116100a2578063f851a4401161007c578063f851a44014610894578063fbdf37ea146108ac578063fc0bbce3146108c1578063fcba7948146108d45761035c565b8063ee0429561461081a578063f242432a1461084b578063f73e09e01461085e5761035c565b8063dba851b0116100de578063dba851b0146107ab578063ddc3e6eb146107b8578063e2e564f2146107cb578063e985e9c5146107de5761035c565b8063ce6ccfaf14610742578063d547741f14610762578063d75cfd58146107755761035c565b8063a217fddf11610171578063bdacb3031161014b578063bdacb303146106e9578063c03df970146106fc578063c1e037281461070f578063c4d66de81461072f5761035c565b8063a217fddf1461068a578063a22cb46514610692578063b5ff2c88146106a55761035c565b8063907b6652116101ad578063907b66521461063c57806391d14854146106515780639e99a45314610664578063a0d975a7146106775761035c565b80637aab1b88146105ee5780637f157c9b146106015780638874cfcc146106295761035c565b806331aa4b20116102ad5780634e1273f41161024b57806369f7ef441161022557806369f7ef441461059e57806376aed2e1146105b157806376ce4755146105c457806378e5c592146105d95761035c565b80634e1273f41461056357806353dbe982146105835780635ddb368f146105965761035c565b806336568abe1161028757806336568abe146104fc57806344b22fdd1461050f578063496dd90b1461052257806349b90557146105505761035c565b806331aa4b20146104c357806331cd4199146104d657806333781a0e146104e95761035c565b8063156e29f61161031a578063248a9ca3116102f4578063248a9ca314610467578063293a7f2e1461048a5780632eb2c2d61461049d5780632f2ff15d146104b05761035c565b8063156e29f61461042a57806318a50d7e1461043d5780631ef68ef7146104525761035c565b8062fdd58e1461036157806301ffc9a714610387578063033fd919146103aa578063095bcdb6146103bf5780630e89341c146103d2578063127d5ad0146103f2575b600080fd5b61037461036f366004614932565b6108e9565b6040519081526020015b60405180910390f35b61039a610395366004614b36565b610982565b604051901515815260200161037e565b6103bd6103b8366004614631565b6109af565b005b6103bd6103cd36600461495d565b610aaa565b6103e56103e0366004614aa2565b610b3c565b60405161037e9190614f78565b610418610400366004614aa2565b600090815260cc602052604090206001015460ff1690565b60405160ff909116815260200161037e565b6103bd61043836600461495d565b610bd0565b6103746000805160206156db83398151915281565b61037460008051602061567b83398151915281565b610374610475366004614aa2565b60009081526097602052604090206001015490565b6103bd610498366004614c59565b610ce0565b6103bd6104ab36600461470a565b610e65565b6103bd6104be366004614aba565b610efc565b6103bd6104d1366004614991565b610f21565b61039a6104e4366004614ade565b6110b3565b61039a6104f7366004614631565b611136565b6103bd61050a366004614aba565b611150565b6103bd61051d366004614631565b6111ce565b610535610530366004614932565b6112b8565b6040805193845260208401929092529082015260600161037e565b61039a61055e366004614631565b611371565b6105766105713660046149bc565b61138b565b60405161037e9190614f37565b6103bd610591366004614631565b6114ec565b6103746115da565b61039a6105ac366004614631565b6115eb565b6103e56105bf366004614aa2565b611674565b61037460008051602061573b83398151915281565b6103746000805160206156bb83398151915281565b6103746105fc366004614685565b611834565b61061461060f366004614932565b6118a9565b6040805192835260208301919091520161037e565b6103bd610637366004614b6e565b61194b565b61037460008051602061569b83398151915281565b61039a61065f366004614aba565b611970565b6103bd61067236600461484d565b61199b565b610374610685366004614932565b611a42565b610374600081565b6103bd6106a0366004614819565b611add565b6106d16106b3366004614aa2565b600090815260cc60205260409020600201546001600160a01b031690565b6040516001600160a01b03909116815260200161037e565b6103bd6106f7366004614631565b611ae8565b6103bd61070a366004614631565b611b31565b61072261071d366004614aa2565b611c30565b60405161037e919061520d565b6103bd61073d366004614631565b611f0c565b610755610750366004614631565b612085565b60405161037e9190615312565b6103bd610770366004614aba565b6121c6565b610374610783366004614aba565b600091825260cd602090815260408084206001600160a01b0393909316845291905290205490565b60c95461039a9060ff1681565b6103bd6107c6366004614a88565b6121eb565b6103bd6107d9366004614991565b612225565b61039a6107ec36600461464d565b6001600160a01b03918216600090815260666020908152604080832093909416825291909152205460ff1690565b6106d1610828366004614aa2565b600090815260cc602052604090206001015461010090046001600160a01b031690565b6103bd6108593660046147b3565b6123ae565b61037461086c366004614aba565b600091825260ce602090815260408084206001600160a01b0393909316845291905290205490565b60c9546106d19061010090046001600160a01b031681565b61037460008051602061565b83398151915281565b61039a6108cf366004614631565b612435565b61037460008051602061571b83398151915281565b60006001600160a01b03831661095a5760405162461bcd60e51b815260206004820152602b60248201527f455243313135353a2062616c616e636520717565727920666f7220746865207a60448201526a65726f206164647265737360a81b60648201526084015b60405180910390fd5b5060009081526065602090815260408083206001600160a01b03949094168352929052205490565b60006001600160e01b03198216637965db0b60e01b14806109a757506109a78261248b565b90505b919050565b336001600160a01b038216146109c7576109c76124b0565b60c95460ff1615610a5b576109dd600033611970565b610a5b5760405162461bcd60e51b815260206004820152604360248201527f434c4d383a3a7265676973746572496e647573747279286c696d69746564293a60448201527f206f6e6c792061646d696e2063616e20726567697374657220696e647573747260648201526269657360e81b608482015260a401610951565b610a7360008051602061565b83398151915282612546565b6040516001600160a01b038216907f1230fb0cdc77da02d53e840f6f60d5e7f68646d7d1ccdd890860e05533b62f5390600090a250565b610ab382612550565b610b0e5760405162461bcd60e51b815260206004820152602660248201527f434c4d383a3a7472616e736665723a20746f6b656e496420646f6573206e6f7460448201526508195e1a5cdd60d21b6064820152608401610951565b610b3733848484604051806040016040528060048152602001630307830360e41b8152506123ae565b505050565b606060678054610b4b906154bb565b80601f0160208091040260200160405190810160405280929190818152602001828054610b77906154bb565b8015610bc45780601f10610b9957610100808354040283529160200191610bc4565b820191906000526020600020905b815481529060010190602001808311610ba757829003601f168201915b50505050509050919050565b610bdb600033611970565b610bf75760405162461bcd60e51b815260040161095190614fd3565b610c0082612550565b610c575760405162461bcd60e51b815260206004820152602260248201527f434c4d383a3a6d696e743a20746f6b656e496420646f6573206e6f74206578696044820152611cdd60f21b6064820152608401610951565b60c95460ff1615610cc55760405162461bcd60e51b815260206004820152603260248201527f434c4d383a3a6d696e743a2063616e6e6f74206d696e74206e657720746f6b656044820152716e7320696e206c696d69746564206d6f646560701b6064820152608401610951565b610b3783838360405180602001604052806000815250612569565b3360008115610d0e57610cf282612435565b610d0e5760405162461bcd60e51b815260040161095190615165565b6001600160a01b03811615610d4257610d2681612435565b610d425760405162461bcd60e51b81526004016109519061501c565b610d4b84612550565b610da35760405162461bcd60e51b8152602060048201526024808201527f434c4d383a3a7265746972653a20746f6b656e496420646f6573206e6f7420656044820152631e1a5cdd60e21b6064820152608401610951565b610dad33856108e9565b831115610e195760405162461bcd60e51b815260206004820152603460248201527f434c4d383a3a7265746972653a206e6f7420656e6f75676820617661696c61626044820152736c652062616c616e636520746f2072657469726560601b6064820152608401610951565b610e2433858561268e565b604080518581526020810185905233917f8f1b5ebb586d3d169e4ed07db9cd10ce0dd30c7b656171310eae7517c0b53cf9910160405180910390a250505050565b6001600160a01b038516331480610e815750610e8185336107ec565b610ee85760405162461bcd60e51b815260206004820152603260248201527f455243313135353a207472616e736665722063616c6c6572206973206e6f74206044820152711bdddb995c881b9bdc88185c1c1c9bdd995960721b6064820152608401610951565b610ef5858585858561271a565b5050505050565b600082815260976020526040902060010154610f1781612924565b610b378383612931565b610f2c600033611970565b610f485760405162461bcd60e51b815260040161095190614fd3565b610f51816129b7565b610fb65760405162461bcd60e51b815260206004820152603060248201527f434c4d383a3a72656769737465724465616c65723a20746f6b656e547970654960448201526f1908191bd95cc81b9bdd08195e1a5cdd60821b6064820152608401610951565b8060ff1660011415610fdf57610fda60008051602061571b83398151915283610efc565b611063565b8060ff166002141561100357610fda60008051602061567b83398151915283610efc565b8060ff166003141561102757610fda60008051602061573b83398151915283610efc565b8060ff16600414156110635761104b60008051602061565b83398151915283610efc565b61106360008051602061569b83398151915283610efc565b61107b6000805160206156db83398151915283610efc565b6040516001600160a01b038316907fa8377deee15954185683d55effd369508b4935978c8cb2bab790bf04c570181490600090a25050565b60008061110d856040517f19457468657265756d205369676e6564204d6573736167653a0a3332000000006020820152603c8101829052600090605c01604051602081830303815290604052805190602001209050919050565b90506001600160a01b03831661112382866129d9565b6001600160a01b03161495945050505050565b60006109a76000805160206156bb83398151915283611970565b6001600160a01b03811633146111c05760405162461bcd60e51b815260206004820152602f60248201527f416363657373436f6e74726f6c3a2063616e206f6e6c792072656e6f756e636560448201526e103937b632b9903337b91039b2b63360891b6064820152608401610951565b6111ca82826129f5565b5050565b6111d66124b0565b60c95460ff1615611269576111ec600033611970565b6112695760405162461bcd60e51b815260206004820152604260248201527f434c4d383a3a7265676973746572436f6e73756d6572286c696d69746564293a60448201527f206f6e6c792061646d696e2063616e20726567697374657220636f6e73756d65606482015261727360f01b608482015260a401610951565b6112816000805160206156bb83398151915282610efc565b6040516001600160a01b038216907f69a0adee259d26fe61f4776f7bea7f3a9737c7321256821b985f988545efd31990600090a250565b604051637f157c9b60e01b81526001600160a01b03831660048201526024810182905260009081908190819081903090637f157c9b90604401604080518083038186803b15801561130857600080fd5b505afa15801561131c573d6000803e3d6000fd5b505050506040513d601f19601f820116820180604052508101906113409190614c7a565b600097885260ce60209081526040808a206001600160a01b039b909b168a5299905297909620549597945050505050565b60006109a760008051602061573b83398151915283611970565b606081518351146113f05760405162461bcd60e51b815260206004820152602960248201527f455243313135353a206163636f756e747320616e6420696473206c656e677468604482015268040dad2e6dac2e8c6d60bb1b6064820152608401610951565b600083516001600160401b0381111561141957634e487b7160e01b600052604160045260246000fd5b604051908082528060200260200182016040528015611442578160200160208202803683370190505b50905060005b84518110156114e4576114a985828151811061147457634e487b7160e01b600052603260045260246000fd5b602002602001015185838151811061149c57634e487b7160e01b600052603260045260246000fd5b60200260200101516108e9565b8282815181106114c957634e487b7160e01b600052603260045260246000fd5b60209081029190910101526114dd8161551c565b9050611448565b509392505050565b6114f46124b0565b60c95460ff161561158b5761150a600033611970565b61158b5760405162461bcd60e51b815260206004820152604660248201527f434c4d383a3a756e7265676973746572436f6e73756d6572286c696d6974656460448201527f293a206f6e6c792061646d696e2063616e20756e726567697374657220636f6e60648201526573756d65727360d01b608482015260a401610951565b6115a36000805160206156bb833981519152826121c6565b6040516001600160a01b038216907f03a38088da75ee2d80f6c753f55f8fd17602ae17d8bd0ef44d5e1f28ab5af11f90600090a250565b60006115e560cb5490565b90505b90565b600061160560008051602061571b83398151915283611970565b80611623575061162360008051602061567b83398151915283611970565b80611641575061164160008051602061573b83398151915283611970565b8061165f575061165f60008051602061569b83398151915283611970565b1561166c575060016109aa565b506000919050565b606061167f82612550565b6116de5760405162461bcd60e51b815260206004820152602a60248201527f434c4d383a3a676574546f6b656e547970653a20746f6b656e496420646f6573604482015269081b9bdd08195e1a5cdd60b21b6064820152608401610951565b600082815260cc6020526040902060018082015460ff16141561173657505060408051808201909152601c81527f52656e657761626c6520456e657267792043657274696669636174650000000060208201526109aa565b600181015460ff166002141561178157505060408051808201909152601781527f436172626f6e20456d697373696f6e73204f666673657400000000000000000060208201526109aa565b600181015460ff16600314156117c05750506040805180820190915260118152704175646974656420456d697373696f6e7360781b60208201526109aa565b600181015460ff16600414156117fc57505060408051808201909152600e81526d21b0b93137b7102a3930b1b5b2b960911b60208201526109aa565b5050604080518082019091526014815273151bdad95b88191bd95cc81b9bdd08195e1a5cdd60621b60208201526109aa565b50919050565b6001600160a01b03808516600090815260cf6020908152604080832093871683529290529081205485908590859085906118759063ffffffff16600161542d565b604051602001611889959493929190614dc6565b604051602081830303815290604052805190602001209050949350505050565b60008060006118b885856108e9565b60405163a0d975a760e01b81526001600160a01b038716600482015260248101869052909150600090309063a0d975a79060440160206040518083038186803b15801561190457600080fd5b505afa158015611918573d6000803e3d6000fd5b505050506040513d601f19601f8201168201806040525081019061193c9190614c41565b919350909150505b9250929050565b6119536124b0565b611965338a8a8a8a8a8a8a8a8a612a5c565b505050505050505050565b60009182526097602090815260408084206001600160a01b0393909316845291905290205460ff1690565b60ca546001600160a01b03163314806119ba57506119ba600033611970565b611a245760405162461bcd60e51b815260206004820152603560248201527f434c4d383a3a69737375654f6e426568616c663a2063616c6c206d757374206360448201527437b6b290333937b6902220a79037b91030b236b4b760591b6064820152608401610951565b611a368a8a8a8a8a8a8a8a8a8a612a5c565b50505050505050505050565b6000611a4d82612550565b611ab55760405162461bcd60e51b815260206004820152603360248201527f434c4d383a3a676574546f6b656e52657469726564416d6f756e743a20746f6b604482015272195b925908191bd95cc81b9bdd08195e1a5cdd606a1b6064820152608401610951565b50600090815260cd602090815260408083206001600160a01b03949094168352929052205490565b6111ca3383836131e9565b611af3600033611970565b611b0f5760405162461bcd60e51b815260040161095190614fd3565b60ca80546001600160a01b0319166001600160a01b0392909216919091179055565b336001600160a01b03821614611b4957611b496124b0565b60c95460ff1615611be157611b5f600033611970565b611be15760405162461bcd60e51b815260206004820152604760248201527f434c4d383a3a756e7265676973746572496e647573747279286c696d6974656460448201527f293a206f6e6c792061646d696e2063616e20756e726567697374657220696e646064820152667573747269657360c81b608482015260a401610951565b611bf960008051602061565b833981519152826121c6565b6040516001600160a01b038216907fe2fd90a75c6850a2aeaad25eb28a5176ac5166c6e3e6dfe0284e34a628e90ef290600090a250565b611cb9604051806101a0016040528060008152602001600060ff16815260200160006001600160a01b0316815260200160006001600160a01b0316815260200160006001600160a01b0316815260200160008152602001600081526020016000815260200160608152602001606081526020016060815260200160008152602001600081525090565b600082815260cc602090815260409182902082516101a08101845281548152600182015460ff8116938201939093526001600160a01b036101009384900481169482019490945260028201548416606082015260038201549093166080840152600481015460a0840152600581015460c0840152600681015460e08401526007810180549192840191611d4b906154bb565b80601f0160208091040260200160405190810160405280929190818152602001828054611d77906154bb565b8015611dc45780601f10611d9957610100808354040283529160200191611dc4565b820191906000526020600020905b815481529060010190602001808311611da757829003601f168201915b50505050508152602001600882018054611ddd906154bb565b80601f0160208091040260200160405190810160405280929190818152602001828054611e09906154bb565b8015611e565780601f10611e2b57610100808354040283529160200191611e56565b820191906000526020600020905b815481529060010190602001808311611e3957829003601f168201915b50505050508152602001600982018054611e6f906154bb565b80601f0160208091040260200160405190810160405280929190818152602001828054611e9b906154bb565b8015611ee85780601f10611ebd57610100808354040283529160200191611ee8565b820191906000526020600020905b815481529060010190602001808311611ecb57829003601f168201915b50505050508152602001600a8201548152602001600b820154815250509050919050565b6000611f1860016132ca565b90508015611f30576000805461ff0019166101001790555b611f486040518060200160405280600081525061334f565b611f6e6000805160206156bb8339815191526000805160206156db83398151915261337f565b611f79600083612546565b611f916000805160206156db83398151915283612546565b611fa960008051602061571b83398151915283612546565b611fc160008051602061567b83398151915283612546565b611fd960008051602061573b83398151915283612546565b611ff160008051602061569b83398151915283612546565b61200960008051602061565b83398151915283612546565b60c9805460ca80546001600160a01b03191690556001600160a81b0319166101006001600160a01b0385160260ff191617905580156111ca576000805461ff0019169055604051600181527f7f26b83ff96e1f2b6a682f133852f6798a09c465da95921460cefb38474024989060200160405180910390a15050565b6040805160e081018252600080825260208201819052918101829052606081018290526080810182905260a0810182905260c08101919091526040805160e081018252600080825260208201819052918101829052606081018290526080810182905260a0810182905260c0810191909152612102600084611970565b1515815261211e60008051602061571b83398151915284611970565b1515604082015261213d60008051602061567b83398151915284611970565b1515606082015261215c60008051602061573b83398151915284611970565b1515608082015261217b60008051602061565b83398151915284611970565b151560a082015261219a6000805160206156bb83398151915284611970565b151560208201526121b960008051602061569b83398151915284611970565b151560c082015292915050565b6000828152609760205260409020600101546121e181612924565b610b3783836129f5565b6121f6600033611970565b6122125760405162461bcd60e51b815260040161095190614fd3565b60c9805460ff1916911515919091179055565b612230600033611970565b61224c5760405162461bcd60e51b815260040161095190614fd3565b612255816129b7565b6122bc5760405162461bcd60e51b815260206004820152603260248201527f434c4d383a3a756e72656769737465724465616c65723a20746f6b656e54797060448201527119525908191bd95cc81b9bdd08195e1a5cdd60721b6064820152608401610951565b8060ff16600114156122e5576122e060008051602061571b833981519152836121c6565b612351565b8060ff1660021415612309576122e060008051602061567b833981519152836121c6565b8060ff166003141561232d576122e060008051602061573b833981519152836121c6565b8060ff16600414156123515761235160008051602061569b833981519152836121c6565b61235a826115eb565b612376576123766000805160206156db833981519152836121c6565b6040516001600160a01b038316907f98552ded770f1d05a505572f3387c108dbc6b566ea3d49f83cff3d1f1c72a04290600090a25050565b6001600160a01b0385163314806123ca57506123ca85336107ec565b6124285760405162461bcd60e51b815260206004820152602960248201527f455243313135353a2063616c6c6572206973206e6f74206f776e6572206e6f7260448201526808185c1c1c9bdd995960ba1b6064820152608401610951565b610ef585858585856133ca565b600061244f6000805160206156db83398151915283611970565b8061246d575061246d6000805160206156bb83398151915283611970565b8061165f575061165f60008051602061565b83398151915283611970565b60006001600160e01b03198216637965db0b60e01b14806109a757506109a7826134fb565b6124c86000805160206156db83398151915233611970565b806124e657506124e660008051602061565b83398151915233611970565b6125445760405162461bcd60e51b815260206004820152602960248201527f434c4d383a3a6f6e6c794465616c65723a206d73672e73656e646572206e6f746044820152681030903232b0b632b960b91b6064820152608401610951565b565b6111ca8282612931565b60008161255c60cb5490565b1061166c575060016109aa565b6001600160a01b0384166125c95760405162461bcd60e51b815260206004820152602160248201527f455243313135353a206d696e7420746f20746865207a65726f206164647265736044820152607360f81b6064820152608401610951565b3360006125d58561354b565b905060006125e28561354b565b90506125f3836000898585896135a4565b60008681526065602090815260408083206001600160a01b038b16845290915281208054879290612625908490615415565b909155505060408051878152602081018790526001600160a01b03808a1692600092918716917fc3d58168c5ae7397731d063d5bbf3d657854427343f4c083240f7aacaa2d0f62910160405180910390a461268583600089898989613a94565b50505050505050565b612699838383613bff565b600082815260cc60205260409020600b01546126b59082613d93565b600083815260cc60209081526040808320600b019390935560cd81528282206001600160a01b0387168352905220546126ee9082613d93565b600092835260cd602090815260408085206001600160a01b039096168552949052929091209190915550565b815183511461277c5760405162461bcd60e51b815260206004820152602860248201527f455243313135353a2069647320616e6420616d6f756e7473206c656e677468206044820152670dad2e6dac2e8c6d60c31b6064820152608401610951565b6001600160a01b0384166127a25760405162461bcd60e51b815260040161095190615088565b336127b18187878787876135a4565b60005b84518110156128b65760008582815181106127df57634e487b7160e01b600052603260045260246000fd5b60200260200101519050600085838151811061280b57634e487b7160e01b600052603260045260246000fd5b60209081029190910181015160008481526065835260408082206001600160a01b038e16835290935291909120549091508181101561285c5760405162461bcd60e51b81526004016109519061511b565b60008381526065602090815260408083206001600160a01b038e8116855292528083208585039055908b1682528120805484929061289b908490615415565b92505081905550505050806128af9061551c565b90506127b4565b50846001600160a01b0316866001600160a01b0316826001600160a01b03167f4a39dc06d4c0dbc64b70af90fd698a233a518aa5d07e595d983b8c0526c8f7fb8787604051612906929190614f4a565b60405180910390a461291c818787878787613da6565b505050505050565b61292e8133613e70565b50565b61293b8282611970565b6111ca5760008281526097602090815260408083206001600160a01b03851684529091529020805460ff191660011790556129733390565b6001600160a01b0316816001600160a01b0316837f2f8788117e7eff1d82e926ec794901d17c78024a50270940304540a733656f0d60405160405180910390a45050565b6000808260ff1611801561165f575060048260ff161161166c575060016109aa565b60008060006129e88585613ed4565b915091506114e481613f41565b6129ff8282611970565b156111ca5760008281526097602090815260408083206001600160a01b0385168085529252808320805460ff1916905551339285917ff6391f5c32d9c69d2a47ea670b442974b53935d1edc7fd64eb21e047a839171b9190a45050565b612a65876129b7565b612abd5760405162461bcd60e51b8152602060048201526024808201527f434c4d383a3a5f69737375653a20746f6b656e54797065496420697320696e76604482015263185b1a5960e21b6064820152608401610951565b60c95460ff1615612d04578660ff1660011480612add57508660ff166002145b15612c675760ca546001600160a01b03163314612b535760405162461bcd60e51b815260206004820152602e60248201527f434c4d383a3a5f6973737565286c696d69746564293a206d73672e73656e646560448201526d72206e6f742074696d656c6f636b60901b6064820152608401610951565b612b5e600089611970565b612bba5760405162461bcd60e51b815260206004820152602760248201527f434c4d383a3a5f6973737565286c696d69746564293a20697373756565206e6f6044820152663a1030b236b4b760c91b6064820152608401610951565b612bd260008051602061571b8339815191528b611970565b80612bf05750612bf060008051602061567b8339815191528b611970565b612c625760405162461bcd60e51b815260206004820152603760248201527f434c4d383a3a5f6973737565286c696d69746564293a2070726f706f7365722060448201527f6e6f7420612072656769737465726564206465616c65720000000000000000006064820152608401610951565b612cff565b8660ff1660031415612cff57612c8b60008051602061573b8339815191528b611970565b612cff576040805162461bcd60e51b81526020600482015260248101919091527f434c4d383a3a5f6973737565286c696d69746564293a20697373756572206e6f60448201527f742061207265676973746572656420656d697373696f6e732061756469746f726064820152608401610951565b612e79565b8660ff1660011415612d7b57612d2860008051602061571b8339815191528b611970565b612cff5760405162461bcd60e51b815260206004820152603060248201526000805160206156fb83398151915260448201526f3a32b932b2102922a1903232b0b632b960811b6064820152608401610951565b8660ff1660021415612df557612d9f60008051602061567b8339815191528b611970565b612cff5760405162461bcd60e51b815260206004820152603360248201526000805160206156fb8339815191526044820152723a32b932b21037b33339b2ba103232b0b632b960691b6064820152608401610951565b8660ff1660031415612e7957612e1960008051602061573b8339815191528b611970565b612e795760405162461bcd60e51b815260206004820152603760248201526000805160206156fb83398151915260448201527f746572656420656d697373696f6e732061756469746f720000000000000000006064820152608401610951565b8660ff1660041415612f7657612e9d60008051602061565b8339815191528b611970565b612eee5760405162461bcd60e51b815260206004820152602e60248201526000805160206156fb83398151915260448201526d746572656420696e64757374727960901b6064820152608401610951565b336001600160a01b038b1614612f765760405162461bcd60e51b815260206004820152604160248201527f434c4d383a3a5f69737375653a207265676973746572656420696e647573747260448201527f792063616e206f6e6c7920697373756520636172626f6e20746f20697473656c6064820152603360f91b608482015260a401610951565b612f8460cb80546001019055565b600060cc6000612f9360cb5490565b81526020019081526020016000209050612fac60cb5490565b81556001810180546001600160a01b03808e16610100026001600160a81b031990921660ff8c1617919091179091556002820180548c83166001600160a01b031991821617909155600383018054928c169290911691909117905560048101869055600581018590554260068201558351613030906007830190602087019061448a565b508251613046906008830190602086019061448a565b50815161305c906009830190602085019061448a565b50600a81018790556000600b82015561308e8961307860cb5490565b8960405180602001604052806000815250612569565b8760ff16600314156130b557600381015481546130b5916001600160a01b0316908961268e565b8060030160009054906101000a90046001600160a01b03166001600160a01b03168160020160009054906101000a90046001600160a01b03166001600160a01b03168260010160019054906101000a90046001600160a01b03166001600160a01b03167f277df7a34faa63a95e8df4966065d731b45aec92af9a3da4039d7a71fa529e838a60cd60008760000154815260200190815260200160002060008760030160009054906101000a90046001600160a01b03166001600160a01b03166001600160a01b031681526020019081526020016000205486600001548760010160009054906101000a900460ff16886004015489600501548a600601548b6007018c6008018d6009016040516131d49a99989796959493929190615376565b60405180910390a45050505050505050505050565b816001600160a01b0316836001600160a01b0316141561325d5760405162461bcd60e51b815260206004820152602960248201527f455243313135353a2073657474696e6720617070726f76616c20737461747573604482015268103337b91039b2b63360b91b6064820152608401610951565b6001600160a01b03838116600081815260666020908152604080832094871680845294825291829020805460ff191686151590811790915591519182527f17307eab39ab6107e8899845ad3d59bd9653f200f220920489ca2b5937696c31910160405180910390a3505050565b60008054610100900460ff1615613311578160ff1660011480156132ed5750303b155b6133095760405162461bcd60e51b8152600401610951906150cd565b5060006109aa565b60005460ff8084169116106133385760405162461bcd60e51b8152600401610951906150cd565b506000805460ff191660ff831617905560016109aa565b600054610100900460ff166133765760405162461bcd60e51b8152600401610951906151c2565b61292e81614144565b600082815260976020526040808220600101805490849055905190918391839186917fbd79b86ffe0ab8e8776151514217cd7cacd52c909f66475c3af44e129f0b00ff9190a4505050565b6001600160a01b0384166133f05760405162461bcd60e51b815260040161095190615088565b3360006133fc8561354b565b905060006134098561354b565b90506134198389898585896135a4565b60008681526065602090815260408083206001600160a01b038c1684529091529020548581101561345c5760405162461bcd60e51b81526004016109519061511b565b60008781526065602090815260408083206001600160a01b038d8116855292528083208985039055908a1682528120805488929061349b908490615415565b909155505060408051888152602081018890526001600160a01b03808b16928c821692918816917fc3d58168c5ae7397731d063d5bbf3d657854427343f4c083240f7aacaa2d0f62910160405180910390a4611965848a8a8a8a8a613a94565b60006001600160e01b03198216636cdb3d1360e11b148061352c57506001600160e01b031982166303a24d0760e21b145b806109a757506301ffc9a760e01b6001600160e01b03198316146109a7565b6040805160018082528183019092526060916000919060208083019080368337019050509050828160008151811061359357634e487b7160e01b600052603260045260246000fd5b602090810291909101015292915050565b84846001600160a01b038216156135da576135be82612435565b6135da5760405162461bcd60e51b815260040161095190615165565b6001600160a01b0381161561360e576135f281612435565b61360e5760405162461bcd60e51b81526004016109519061501c565b856001600160a01b0316876001600160a01b031614156136a15760405162461bcd60e51b815260206004820152604260248201527f434c4d383a3a5f6265666f7265546f6b656e5472616e736665723a2073656e6460448201527f657220616e642072656365697665722063616e6e6f74206265207468652073616064820152616d6560f01b608482015260a401610951565b6000805b865181101561398d57600060cc60008984815181106136d457634e487b7160e01b600052603260045260246000fd5b60200260200101518152602001908152602001600020905060c960009054906101000a900460ff16156138a3576001600160a01b038916613715575061397b565b60018082015460ff1614806137315750600181015460ff166002145b156137e35760ca546001600160a01b038c811691161480613758575061375860008c611970565b6137de5760405162461bcd60e51b815260206004820152604b60248201527f434c4d383a3a5f6265666f7265546f6b656e5472616e73666572286c696d697460448201527f6564293a206f6e6c792061646d696e20616e642044414f2063616e207472616e60648201526a7366657220746f6b656e7360a81b608482015260a401610951565b6138a3565b600181015460ff16600314156138a35761380b60008051602061573b8339815191528c611970565b6138a35760405162461bcd60e51b815260206004820152605860248201527f434c4d383a3a5f6265666f7265546f6b656e5472616e73666572286c696d697460448201527f6564293a206f6e6c7920656d697373696f6e732061756469746f72732063616e60648201527f206973737565206175646974656420656d697373696f6e730000000000000000608482015260a401610951565b600181015460ff1660041480156138c257506001600160a01b03891615155b80156138d657506001600160a01b038a1615155b15613979576000925061395387838151811061390257634e487b7160e01b600052603260045260246000fd5b602002602001015160ce60008460000154815260200190815260200160002060008d6001600160a01b03166001600160a01b0316815260200190815260200160002054613d9390919063ffffffff16565b8154600090815260ce602090815260408083206001600160a01b038f1684529091529020555b505b806139858161551c565b9150506136a5565b5080156119655760006139a289898989611834565b90506139af81868a6110b3565b613a305760405162461bcd60e51b815260206004820152604660248201527f434c4d383a3a5f6265666f7265546f6b656e5472616e736665723a207265636560448201527f69766572277320617070726f76616c207369676e6174757265206973206e6f74606482015265081d985b1a5960d21b608482015260a401610951565b6001600160a01b03808a16600090815260cf60209081526040808320938c168352929052908120805463ffffffff1691613a6983615537565b91906101000a81548163ffffffff021916908363ffffffff1602179055505050505050505050505050565b6001600160a01b0384163b1561291c5760405163f23a6e6160e01b81526001600160a01b0385169063f23a6e6190613ad89089908990889088908890600401614ef2565b602060405180830381600087803b158015613af257600080fd5b505af1925050508015613b22575060408051601f3d908101601f19168201909252613b1f91810190614b52565b60015b613bcf57613b2e615587565b806308c379a01415613b685750613b4361559e565b80613b4e5750613b6a565b8060405162461bcd60e51b81526004016109519190614f78565b505b60405162461bcd60e51b815260206004820152603460248201527f455243313135353a207472616e7366657220746f206e6f6e20455243313135356044820152732932b1b2b4bb32b91034b6b83632b6b2b73a32b960611b6064820152608401610951565b6001600160e01b0319811663f23a6e6160e01b146126855760405162461bcd60e51b815260040161095190614f8b565b6001600160a01b038316613c615760405162461bcd60e51b815260206004820152602360248201527f455243313135353a206275726e2066726f6d20746865207a65726f206164647260448201526265737360e81b6064820152608401610951565b336000613c6d8461354b565b90506000613c7a8461354b565b9050613c9a838760008585604051806020016040528060008152506135a4565b60008581526065602090815260408083206001600160a01b038a16845290915290205484811015613d195760405162461bcd60e51b8152602060048201526024808201527f455243313135353a206275726e20616d6f756e7420657863656564732062616c604482015263616e636560e01b6064820152608401610951565b60008681526065602090815260408083206001600160a01b038b81168086529184528285208a8703905582518b81529384018a90529092908816917fc3d58168c5ae7397731d063d5bbf3d657854427343f4c083240f7aacaa2d0f62910160405180910390a4604080516020810190915260009052612685565b6000613d9f8284615415565b9392505050565b6001600160a01b0384163b1561291c5760405163bc197c8160e01b81526001600160a01b0385169063bc197c8190613dea9089908990889088908890600401614e94565b602060405180830381600087803b158015613e0457600080fd5b505af1925050508015613e34575060408051601f3d908101601f19168201909252613e3191810190614b52565b60015b613e4057613b2e615587565b6001600160e01b0319811663bc197c8160e01b146126855760405162461bcd60e51b815260040161095190614f8b565b613e7a8282611970565b6111ca57613e92816001600160a01b03166014614174565b613e9d836020614174565b604051602001613eae929190614e1f565b60408051601f198184030181529082905262461bcd60e51b825261095191600401614f78565b600080825160411415613f0b5760208301516040840151606085015160001a613eff87828585614355565b94509450505050611944565b825160401415613f355760208301516040840151613f2a868383614442565b935093505050611944565b50600090506002611944565b6000816004811115613f6357634e487b7160e01b600052602160045260246000fd5b1415613f6e5761292e565b6001816004811115613f9057634e487b7160e01b600052602160045260246000fd5b1415613fde5760405162461bcd60e51b815260206004820152601860248201527f45434453413a20696e76616c6964207369676e617475726500000000000000006044820152606401610951565b600281600481111561400057634e487b7160e01b600052602160045260246000fd5b141561404e5760405162461bcd60e51b815260206004820152601f60248201527f45434453413a20696e76616c6964207369676e6174757265206c656e677468006044820152606401610951565b600381600481111561407057634e487b7160e01b600052602160045260246000fd5b14156140c95760405162461bcd60e51b815260206004820152602260248201527f45434453413a20696e76616c6964207369676e6174757265202773272076616c604482015261756560f01b6064820152608401610951565b60048160048111156140eb57634e487b7160e01b600052602160045260246000fd5b141561292e5760405162461bcd60e51b815260206004820152602260248201527f45434453413a20696e76616c6964207369676e6174757265202776272076616c604482015261756560f01b6064820152608401610951565b600054610100900460ff1661416b5760405162461bcd60e51b8152600401610951906151c2565b61292e8161447b565b60606000614183836002615455565b61418e906002615415565b6001600160401b038111156141b357634e487b7160e01b600052604160045260246000fd5b6040519080825280601f01601f1916602001820160405280156141dd576020820181803683370190505b509050600360fc1b8160008151811061420657634e487b7160e01b600052603260045260246000fd5b60200101906001600160f81b031916908160001a905350600f60fb1b8160018151811061424357634e487b7160e01b600052603260045260246000fd5b60200101906001600160f81b031916908160001a9053506000614267846002615455565b614272906001615415565b90505b6001811115614306576f181899199a1a9b1b9c1cb0b131b232b360811b85600f16601081106142b457634e487b7160e01b600052603260045260246000fd5b1a60f81b8282815181106142d857634e487b7160e01b600052603260045260246000fd5b60200101906001600160f81b031916908160001a90535060049490941c936142ff816154a4565b9050614275565b508315613d9f5760405162461bcd60e51b815260206004820181905260248201527f537472696e67733a20686578206c656e67746820696e73756666696369656e746044820152606401610951565b6000807f7fffffffffffffffffffffffffffffff5d576e7357a4501ddfe92f46681b20a083111561438c5750600090506003614439565b8460ff16601b141580156143a457508460ff16601c14155b156143b55750600090506004614439565b6040805160008082526020820180845289905260ff881692820192909252606081018690526080810185905260019060a0016020604051602081039080840390855afa158015614409573d6000803e3d6000fd5b5050604051601f1901519150506001600160a01b03811661443257600060019250925050614439565b9150600090505b94509492505050565b6000806001600160ff1b0383168161445f60ff86901c601b615415565b905061446d87828885614355565b935093505050935093915050565b80516111ca9060679060208401905b828054614496906154bb565b90600052602060002090601f0160209004810192826144b857600085556144fe565b82601f106144d157805160ff19168380011785556144fe565b828001600101855582156144fe579182015b828111156144fe5782518255916020019190600101906144e3565b5061450a92915061450e565b5090565b5b8082111561450a576000815560010161450f565b80356109aa8161562f565b600082601f83011261453e578081fd5b8135602061454b826153f2565b60405161455882826154f0565b8381528281019150858301600585901b87018401881015614577578586fd5b855b8581101561459557813584529284019290840190600101614579565b5090979650505050505050565b803580151581146109aa57600080fd5b600082601f8301126145c2578081fd5b81356001600160401b038111156145db576145db615571565b6040516145f2601f8301601f1916602001826154f0565b818152846020838601011115614606578283fd5b816020850160208301379081016020019190915292915050565b803560ff811681146109aa57600080fd5b600060208284031215614642578081fd5b8135613d9f8161562f565b6000806040838503121561465f578081fd5b823561466a8161562f565b9150602083013561467a8161562f565b809150509250929050565b6000806000806080858703121561469a578182fd5b84356146a58161562f565b935060208501356146b58161562f565b925060408501356001600160401b03808211156146d0578384fd5b6146dc8883890161452e565b935060608701359150808211156146f1578283fd5b506146fe8782880161452e565b91505092959194509250565b600080600080600060a08688031215614721578081fd5b853561472c8161562f565b9450602086013561473c8161562f565b935060408601356001600160401b0380821115614757578283fd5b61476389838a0161452e565b94506060880135915080821115614778578283fd5b61478489838a0161452e565b93506080880135915080821115614799578283fd5b506147a6888289016145b2565b9150509295509295909350565b600080600080600060a086880312156147ca578081fd5b85356147d58161562f565b945060208601356147e58161562f565b9350604086013592506060860135915060808601356001600160401b0381111561480d578182fd5b6147a6888289016145b2565b6000806040838503121561482b578182fd5b82356148368161562f565b9150614844602084016145a2565b90509250929050565b6000806000806000806000806000806101408b8d03121561486c578788fd5b6148758b614523565b995061488360208c01614523565b985061489160408c01614523565b975061489f60608c01614620565b965060808b0135955060a08b0135945060c08b0135935060e08b01356001600160401b03808211156148cf578485fd5b6148db8e838f016145b2565b94506101008d01359150808211156148f1578384fd5b6148fd8e838f016145b2565b93506101208d0135915080821115614913578283fd5b506149208d828e016145b2565b9150509295989b9194979a5092959850565b60008060408385031215614944578182fd5b823561494f8161562f565b946020939093013593505050565b600080600060608486031215614971578081fd5b833561497c8161562f565b95602085013595506040909401359392505050565b600080604083850312156149a3578182fd5b82356149ae8161562f565b915061484460208401614620565b600080604083850312156149ce578182fd5b82356001600160401b03808211156149e4578384fd5b818501915085601f8301126149f7578384fd5b81356020614a04826153f2565b604051614a1182826154f0565b8381528281019150858301600585901b870184018b1015614a30578889fd5b8896505b84871015614a5b578035614a478161562f565b835260019690960195918301918301614a34565b5096505086013592505080821115614a71578283fd5b50614a7e8582860161452e565b9150509250929050565b600060208284031215614a99578081fd5b613d9f826145a2565b600060208284031215614ab3578081fd5b5035919050565b60008060408385031215614acc578182fd5b82359150602083013561467a8161562f565b600080600060608486031215614af2578081fd5b8335925060208401356001600160401b03811115614b0e578182fd5b614b1a868287016145b2565b9250506040840135614b2b8161562f565b809150509250925092565b600060208284031215614b47578081fd5b8135613d9f81615644565b600060208284031215614b63578081fd5b8151613d9f81615644565b60008060008060008060008060006101208a8c031215614b8c578283fd5b614b958a614523565b9850614ba360208b01614523565b9750614bb160408b01614620565b965060608a0135955060808a0135945060a08a0135935060c08a01356001600160401b0380821115614be1578485fd5b614bed8d838e016145b2565b945060e08c0135915080821115614c02578384fd5b614c0e8d838e016145b2565b93506101008c0135915080821115614c24578283fd5b50614c318c828d016145b2565b9150509295985092959850929598565b600060208284031215614c52578081fd5b5051919050565b60008060408385031215614c6b578182fd5b50508035926020909101359150565b60008060408385031215614c8c578182fd5b505080516020909101519092909150565b6000815180845260208085019450808401835b83811015614ccc57815187529582019590820190600101614cb0565b509495945050505050565b80516000906020808401838315614ccc57815187529582019590820190600101614cb0565b60008151808452614d14816020860160208601615474565b601f01601f19169290920160200192915050565b8054600090600181811c9080831680614d4257607f831692505b6020808410821415614d6257634e487b7160e01b86526022600452602486fd5b83885260208801828015614d7d5760018114614d8e57614db9565b60ff19871682528282019750614db9565b60008981526020902060005b87811015614db357815484820152908601908401614d9a565b83019850505b5050505050505092915050565b60006bffffffffffffffffffffffff19808860601b168352808760601b16601484015250614e00614dfa6028840187614cd7565b85614cd7565b60e09390931b6001600160e01b03191683525050600401949350505050565b60007f416363657373436f6e74726f6c3a206163636f756e742000000000000000000082528351614e57816017850160208801615474565b7001034b99036b4b9b9b4b733903937b6329607d1b6017918401918201528351614e88816028840160208801615474565b01602801949350505050565b6001600160a01b0386811682528516602082015260a060408201819052600090614ec090830186614c9d565b8281036060840152614ed28186614c9d565b90508281036080840152614ee68185614cfc565b98975050505050505050565b6001600160a01b03868116825285166020820152604081018490526060810183905260a060808201819052600090614f2c90830184614cfc565b979650505050505050565b600060208252613d9f6020830184614c9d565b600060408252614f5d6040830185614c9d565b8281036020840152614f6f8185614c9d565b95945050505050565b600060208252613d9f6020830184614cfc565b60208082526028908201527f455243313135353a204552433131353552656365697665722072656a656374656040820152676420746f6b656e7360c01b606082015260800190565b60208082526029908201527f434c4d383a3a6f6e6c7941646d696e3a206d73672e73656e646572206e6f74206040820152683a34329030b236b4b760b91b606082015260800190565b60208082526046908201527f434c4d383a3a636f6e73756d65724f724465616c65723a20726563697069656e60408201527f74206d75737420626520636f6e73756d65722c206465616c6572206f7220696e60608201526564757374727960d01b608082015260a00190565b60208082526025908201527f455243313135353a207472616e7366657220746f20746865207a65726f206164604082015264647265737360d81b606082015260800190565b6020808252602e908201527f496e697469616c697a61626c653a20636f6e747261637420697320616c72656160408201526d191e481a5b9a5d1a585b1a5e995960921b606082015260800190565b6020808252602a908201527f455243313135353a20696e73756666696369656e742062616c616e636520666f60408201526939103a3930b739b332b960b11b606082015260800190565b60208082526039908201527f434c4d383a3a636f6e73756d65724f724465616c65723a2073656e646572206e60408201527f6f74206120636f6e73756d6572206f722061206465616c657200000000000000606082015260800190565b6020808252602b908201527f496e697469616c697a61626c653a20636f6e7472616374206973206e6f74206960408201526a6e697469616c697a696e6760a81b606082015260800190565b60006020825282516020830152602083015161522e604084018260ff169052565b5060408301516001600160a01b03811660608401525060608301516001600160a01b03811660808401525060808301516001600160a01b03811660a08401525060a083015160c083015260c083015160e083015260e08301516101008181850152808501519150506101a061012081818601526152af6101c0860184614cfc565b9250808601519050601f196101408187860301818801526152d08584614cfc565b9450808801519250506101608187860301818801526152ef8584614cfc565b908801516101808881019190915290970151929095019190915250929392505050565b600060e08201905082511515825260208301511515602083015260408301511515604083015260608301511515606083015260808301511515608083015260a0830151151560a083015260c083015161536f60c084018215159052565b5092915050565b60006101408c83528b60208401528a604084015260ff8a1660608401528860808401528760a08401528660c08401528060e08401526153b781840187614d28565b90508281036101008401526153cc8186614d28565b90508281036101208401526153e18185614d28565b9d9c50505050505050505050505050565b60006001600160401b0382111561540b5761540b615571565b5060051b60200190565b600082198211156154285761542861555b565b500190565b600063ffffffff80831681851680830382111561544c5761544c61555b565b01949350505050565b600081600019048311821515161561546f5761546f61555b565b500290565b60005b8381101561548f578181015183820152602001615477565b8381111561549e576000848401525b50505050565b6000816154b3576154b361555b565b506000190190565b600181811c908216806154cf57607f821691505b6020821081141561182e57634e487b7160e01b600052602260045260246000fd5b601f8201601f191681016001600160401b038111828210171561551557615515615571565b6040525050565b60006000198214156155305761553061555b565b5060010190565b600063ffffffff808316818114156155515761555161555b565b6001019392505050565b634e487b7160e01b600052601160045260246000fd5b634e487b7160e01b600052604160045260246000fd5b600060033d11156115e857600481823e5160e01c90565b600060443d10156155ae576115e8565b6040516003193d81016004833e81513d6001600160401b0381602484011181841117156155df5750505050506115e8565b82850191508151818111156155f9575050505050506115e8565b843d8701016020828501011115615615575050505050506115e8565b615624602082860101876154f0565b509094505050505090565b6001600160a01b038116811461292e57600080fd5b6001600160e01b03198116811461292e57600080fdfe8305613dd3dbc3e0773e56336f52890c75fc1219c6ed3f363339b8ada04df289ede6574deba8f02ada7888448a497b08844d62e044ed533343a673be3ffcde5ff047c8eb56a4fb9b90290fc55ce546369985412ba2348c56342b7afbf87ec1a65e1aa547d3dade8c68b013a47ad41c2bcc9b9e4b0765b0fb616780e15786e76af8890eedd7900ad88da6192fd03dbb69dbeee963b1a0ed738abe49ab3331aaf3434c4d383a3a5f69737375653a20697373756572206e6f7420612072656769732ab9f1da92e74aaa01eb75a871557505b11dd8d36832a34bb21bbee88b08d860e97dad3dbe5042e7384b1572cf966a15e089576a62b5126c5ef1d184ab18b12ca2646970667358221220c39806ddec8a04eb429472d6dc241afa8800e103766fef36cae592c40572efd664736f6c63430008030033",
  "devdoc": {
    "kind": "dev",
    "methods": {
      "_consumerOrDealer(address)": {
        "details": "Returns `true` if hasRole of dealer, industry or consumer"
      },
      "balanceOf(address,uint256)": {
        "details": "See {IERC1155-balanceOf}. Requirements: - `account` cannot be the zero address."
      },
      "balanceOfBatch(address[],uint256[])": {
        "details": "See {IERC1155-balanceOfBatch}. Requirements: - `accounts` and `ids` must have the same length."
      },
      "getIssuedBy(uint256)": {
        "details": "returns issuer of a given tokenId"
      },
      "getIssuedFrom(uint256)": {
        "details": "returns issuer of a given tokenId"
      },
      "getNumOfUniqueTokens()": {
        "details": "returns number of unique tokens"
      },
      "getRoleAdmin(bytes32)": {
        "details": "Returns the admin role that controls `role`. See {grantRole} and {revokeRole}. To change a role's admin, use {_setRoleAdmin}."
      },
      "getRoles(address)": {
        "details": "Helper function for returning tuple of bools of role membership",
        "params": {
          "account": "address to check roles"
        }
      },
      "getTokenDetails(uint256)": {
        "details": "returns the details of a given tokenId, omitting holders",
        "params": {
          "tokenId": "token to check"
        }
      },
      "getTokenRetiredAmount(address,uint256)": {
        "details": "returns the retired amount on a token",
        "params": {
          "tokenId": "token to check"
        }
      },
      "getTokenType(uint256)": {
        "details": "returns the token name for the given token as a string value",
        "params": {
          "tokenId": "token to check"
        }
      },
      "getTransferHash(address,address,uint256[],uint256[])": {
        "details": "Returns keccak256 hash of transaction request including next available nonce for transfer from -> to addresses"
      },
      "grantRole(bytes32,address)": {
        "details": "Grants `role` to `account`. If `account` had not been already granted `role`, emits a {RoleGranted} event. Requirements: - the caller must have ``role``'s admin role."
      },
      "hasRole(bytes32,address)": {
        "details": "Returns `true` if `account` has been granted `role`."
      },
      "isApprovedForAll(address,address)": {
        "details": "See {IERC1155-isApprovedForAll}."
      },
      "isConsumerRegistered(address)": {
        "details": "returns true if Consumers's account is registered",
        "params": {
          "account": "address of the dealer"
        }
      },
      "isDealerRegistered(address)": {
        "details": "returns true if Dealer's account is registered",
        "params": {
          "account": "address of the dealer"
        }
      },
      "issue(uint160,address,uint8,uint256,uint256,uint256,string,string,string)": {
        "details": "External function to mint an amount of a token Only authorized dealer of associated token type can call this function",
        "params": {
          "quantity": "of the token to mint For ex: if one needs 100 full tokens, the caller should set the amount as (100 * 10^4) = 1,000,000 (assuming the token's decimals is set to 4)"
        }
      },
      "issueOnBehalf(address,uint160,address,uint8,uint256,uint256,uint256,string,string,string)": {
        "details": "Issue function for DAO (on limited mode) or admin to manually pass issuer Must be called from Timelock contract through a successful proposal or by admin if limited mode is set to false"
      },
      "mint(address,uint256,uint256)": {
        "details": "mints more of an existing token",
        "params": {
          "quantity": "amount to mint",
          "to": "reciepient of token",
          "tokenId": "token to mint more of"
        }
      },
      "registerConsumer(address)": {
        "details": "returns true if Consumer's account is registered for the given token",
        "params": {
          "account": "address of the consumer"
        }
      },
      "registerDealer(address,uint8)": {
        "details": "Only contract owner can register Dealers",
        "params": {
          "account": "address of the dealer to register"
        }
      },
      "registerIndustry(address)": {
        "details": "msg.sender can volunteer themselves as registered industry or other registered dealer can register Industry"
      },
      "renounceRole(bytes32,address)": {
        "details": "Revokes `role` from the calling account. Roles are often managed via {grantRole} and {revokeRole}: this function's purpose is to provide a mechanism for accounts to lose their privileges if they are compromised (such as when a trusted device is misplaced). If the calling account had been revoked `role`, emits a {RoleRevoked} event. Requirements: - the caller must be `account`."
      },
      "retire(uint256,uint256)": {
        "details": "sets the token to the retire state to disable transfers, mints and burns",
        "params": {
          "tokenId": "token to set in pause state   Only contract owner can pause or resume tokens"
        }
      },
      "revokeRole(bytes32,address)": {
        "details": "Revokes `role` from `account`. If `account` had been granted `role`, emits a {RoleRevoked} event. Requirements: - the caller must have ``role``'s admin role."
      },
      "safeBatchTransferFrom(address,address,uint256[],uint256[],bytes)": {
        "details": "See {IERC1155-safeBatchTransferFrom}."
      },
      "safeTransferFrom(address,address,uint256,uint256,bytes)": {
        "details": "See {IERC1155-safeTransferFrom}."
      },
      "setApprovalForAll(address,bool)": {
        "details": "See {IERC1155-setApprovalForAll}."
      },
      "setLimitedMode(bool)": {
        "details": "turns off or on limited mode",
        "params": {
          "_limitedMode": "boolean value"
        }
      },
      "transfer(address,uint256,uint256)": {
        "details": "transfers the value to the 'to' account for tokenId",
        "params": {
          "to": "recipient address",
          "tokenId": "tokenId for the transfer",
          "value": "amount of transfer Transfer can start only when both parties are registered and the token is not paused Note: Token holders can arbitrarily call safeTransferFrom() without these checks The requires commented out below have been moved to _beforeTokenTransfer hook so that they are always applied to safeTransferFrom (or safeBatch...)      "
        }
      },
      "unregisterConsumer(address)": {
        "details": "Only contract owner can unregister Consumers TO-DO clarify the above - function allows any Dealer to unregister consumers. Why would we need to unregister consumers?",
        "params": {
          "account": "address to be unregistered"
        }
      },
      "unregisterDealer(address,uint8)": {
        "details": "Only contract owner can unregister Dealers",
        "params": {
          "account": "address to be unregistered"
        }
      },
      "unregisterIndustry(address)": {
        "details": "msg.sender can unvolunteer themselves as registered industry or other registered dealer can unregister Industry"
      },
      "uri(uint256)": {
        "details": "See {IERC1155MetadataURI-uri}. This implementation returns the same URI for *all* token types. It relies on the token type ID substitution mechanism https://eips.ethereum.org/EIPS/eip-1155#metadata[defined in the EIP]. Clients calling this function must replace the `\\{id\\}` substring with the actual token type ID."
      },
      "verifySignature(bytes32,bytes,address)": {
        "details": "Returns `true` if transfer has been approved by to address reconstruct transferHash and check that it matches the signature"
      }
    },
    "version": 1
  },
  "userdoc": {
    "kind": "user",
    "methods": {},
    "version": 1
  },
  "storageLayout": {
    "storage": [
      {
        "astId": 419,
        "contract": "contracts/NetEmissionsTokenNetwork.sol:NetEmissionsTokenNetwork",
        "label": "_initialized",
        "offset": 0,
        "slot": "0",
        "type": "t_uint8"
      },
      {
        "astId": 422,
        "contract": "contracts/NetEmissionsTokenNetwork.sol:NetEmissionsTokenNetwork",
        "label": "_initializing",
        "offset": 1,
        "slot": "0",
        "type": "t_bool"
      },
      {
        "astId": 3313,
        "contract": "contracts/NetEmissionsTokenNetwork.sol:NetEmissionsTokenNetwork",
        "label": "__gap",
        "offset": 0,
        "slot": "1",
        "type": "t_array(t_uint256)50_storage"
      },
      {
        "astId": 4041,
        "contract": "contracts/NetEmissionsTokenNetwork.sol:NetEmissionsTokenNetwork",
        "label": "__gap",
        "offset": 0,
        "slot": "51",
        "type": "t_array(t_uint256)50_storage"
      },
      {
        "astId": 583,
        "contract": "contracts/NetEmissionsTokenNetwork.sol:NetEmissionsTokenNetwork",
        "label": "_balances",
        "offset": 0,
        "slot": "101",
        "type": "t_mapping(t_uint256,t_mapping(t_address,t_uint256))"
      },
      {
        "astId": 589,
        "contract": "contracts/NetEmissionsTokenNetwork.sol:NetEmissionsTokenNetwork",
        "label": "_operatorApprovals",
        "offset": 0,
        "slot": "102",
        "type": "t_mapping(t_address,t_mapping(t_address,t_bool))"
      },
      {
        "astId": 591,
        "contract": "contracts/NetEmissionsTokenNetwork.sol:NetEmissionsTokenNetwork",
        "label": "_uri",
        "offset": 0,
        "slot": "103",
        "type": "t_string_storage"
      },
      {
        "astId": 1798,
        "contract": "contracts/NetEmissionsTokenNetwork.sol:NetEmissionsTokenNetwork",
        "label": "__gap",
        "offset": 0,
        "slot": "104",
        "type": "t_array(t_uint256)47_storage"
      },
      {
        "astId": 39,
        "contract": "contracts/NetEmissionsTokenNetwork.sol:NetEmissionsTokenNetwork",
        "label": "_roles",
        "offset": 0,
        "slot": "151",
        "type": "t_mapping(t_bytes32,t_struct(RoleData)34_storage)"
      },
      {
        "astId": 338,
        "contract": "contracts/NetEmissionsTokenNetwork.sol:NetEmissionsTokenNetwork",
        "label": "__gap",
        "offset": 0,
        "slot": "152",
        "type": "t_array(t_uint256)49_storage"
      },
      {
        "astId": 6863,
        "contract": "contracts/NetEmissionsTokenNetwork.sol:NetEmissionsTokenNetwork",
        "label": "limitedMode",
        "offset": 0,
        "slot": "201",
        "type": "t_bool"
      },
      {
        "astId": 6865,
        "contract": "contracts/NetEmissionsTokenNetwork.sol:NetEmissionsTokenNetwork",
        "label": "admin",
        "offset": 1,
        "slot": "201",
        "type": "t_address"
      },
      {
        "astId": 6867,
        "contract": "contracts/NetEmissionsTokenNetwork.sol:NetEmissionsTokenNetwork",
        "label": "timelock",
        "offset": 0,
        "slot": "202",
        "type": "t_address"
      },
      {
        "astId": 6932,
        "contract": "contracts/NetEmissionsTokenNetwork.sol:NetEmissionsTokenNetwork",
        "label": "_numOfUniqueTokens",
        "offset": 0,
        "slot": "203",
        "type": "t_struct(Counter)3320_storage"
      },
      {
        "astId": 6937,
        "contract": "contracts/NetEmissionsTokenNetwork.sol:NetEmissionsTokenNetwork",
        "label": "_tokenDetails",
        "offset": 0,
        "slot": "204",
        "type": "t_mapping(t_uint256,t_struct(CarbonTokenDetails)6929_storage)"
      },
      {
        "astId": 6943,
        "contract": "contracts/NetEmissionsTokenNetwork.sol:NetEmissionsTokenNetwork",
        "label": "_retiredBalances",
        "offset": 0,
        "slot": "205",
        "type": "t_mapping(t_uint256,t_mapping(t_address,t_uint256))"
      },
      {
        "astId": 6949,
        "contract": "contracts/NetEmissionsTokenNetwork.sol:NetEmissionsTokenNetwork",
        "label": "_transferredBalances",
        "offset": 0,
        "slot": "206",
        "type": "t_mapping(t_uint256,t_mapping(t_address,t_uint256))"
      },
      {
        "astId": 6955,
        "contract": "contracts/NetEmissionsTokenNetwork.sol:NetEmissionsTokenNetwork",
        "label": "carbonTransferNonce",
        "offset": 0,
        "slot": "207",
        "type": "t_mapping(t_address,t_mapping(t_address,t_uint32))"
      }
    ],
    "types": {
      "t_address": {
        "encoding": "inplace",
        "label": "address",
        "numberOfBytes": "20"
      },
      "t_array(t_uint256)47_storage": {
        "base": "t_uint256",
        "encoding": "inplace",
        "label": "uint256[47]",
        "numberOfBytes": "1504"
      },
      "t_array(t_uint256)49_storage": {
        "base": "t_uint256",
        "encoding": "inplace",
        "label": "uint256[49]",
        "numberOfBytes": "1568"
      },
      "t_array(t_uint256)50_storage": {
        "base": "t_uint256",
        "encoding": "inplace",
        "label": "uint256[50]",
        "numberOfBytes": "1600"
      },
      "t_bool": {
        "encoding": "inplace",
        "label": "bool",
        "numberOfBytes": "1"
      },
      "t_bytes32": {
        "encoding": "inplace",
        "label": "bytes32",
        "numberOfBytes": "32"
      },
      "t_mapping(t_address,t_bool)": {
        "encoding": "mapping",
        "key": "t_address",
        "label": "mapping(address => bool)",
        "numberOfBytes": "32",
        "value": "t_bool"
      },
      "t_mapping(t_address,t_mapping(t_address,t_bool))": {
        "encoding": "mapping",
        "key": "t_address",
        "label": "mapping(address => mapping(address => bool))",
        "numberOfBytes": "32",
        "value": "t_mapping(t_address,t_bool)"
      },
      "t_mapping(t_address,t_mapping(t_address,t_uint32))": {
        "encoding": "mapping",
        "key": "t_address",
        "label": "mapping(address => mapping(address => uint32))",
        "numberOfBytes": "32",
        "value": "t_mapping(t_address,t_uint32)"
      },
      "t_mapping(t_address,t_uint256)": {
        "encoding": "mapping",
        "key": "t_address",
        "label": "mapping(address => uint256)",
        "numberOfBytes": "32",
        "value": "t_uint256"
      },
      "t_mapping(t_address,t_uint32)": {
        "encoding": "mapping",
        "key": "t_address",
        "label": "mapping(address => uint32)",
        "numberOfBytes": "32",
        "value": "t_uint32"
      },
      "t_mapping(t_bytes32,t_struct(RoleData)34_storage)": {
        "encoding": "mapping",
        "key": "t_bytes32",
        "label": "mapping(bytes32 => struct AccessControlUpgradeable.RoleData)",
        "numberOfBytes": "32",
        "value": "t_struct(RoleData)34_storage"
      },
      "t_mapping(t_uint256,t_mapping(t_address,t_uint256))": {
        "encoding": "mapping",
        "key": "t_uint256",
        "label": "mapping(uint256 => mapping(address => uint256))",
        "numberOfBytes": "32",
        "value": "t_mapping(t_address,t_uint256)"
      },
      "t_mapping(t_uint256,t_struct(CarbonTokenDetails)6929_storage)": {
        "encoding": "mapping",
        "key": "t_uint256",
        "label": "mapping(uint256 => struct NetEmissionsTokenNetwork.CarbonTokenDetails)",
        "numberOfBytes": "32",
        "value": "t_struct(CarbonTokenDetails)6929_storage"
      },
      "t_string_storage": {
        "encoding": "bytes",
        "label": "string",
        "numberOfBytes": "32"
      },
      "t_struct(CarbonTokenDetails)6929_storage": {
        "encoding": "inplace",
        "label": "struct NetEmissionsTokenNetwork.CarbonTokenDetails",
        "members": [
          {
            "astId": 6904,
            "contract": "contracts/NetEmissionsTokenNetwork.sol:NetEmissionsTokenNetwork",
            "label": "tokenId",
            "offset": 0,
            "slot": "0",
            "type": "t_uint256"
          },
          {
            "astId": 6906,
            "contract": "contracts/NetEmissionsTokenNetwork.sol:NetEmissionsTokenNetwork",
            "label": "tokenTypeId",
            "offset": 0,
            "slot": "1",
            "type": "t_uint8"
          },
          {
            "astId": 6908,
            "contract": "contracts/NetEmissionsTokenNetwork.sol:NetEmissionsTokenNetwork",
            "label": "issuedBy",
            "offset": 1,
            "slot": "1",
            "type": "t_address"
          },
          {
            "astId": 6910,
            "contract": "contracts/NetEmissionsTokenNetwork.sol:NetEmissionsTokenNetwork",
            "label": "issuedFrom",
            "offset": 0,
            "slot": "2",
            "type": "t_uint160"
          },
          {
            "astId": 6912,
            "contract": "contracts/NetEmissionsTokenNetwork.sol:NetEmissionsTokenNetwork",
            "label": "issuedTo",
            "offset": 0,
            "slot": "3",
            "type": "t_address"
          },
          {
            "astId": 6914,
            "contract": "contracts/NetEmissionsTokenNetwork.sol:NetEmissionsTokenNetwork",
            "label": "fromDate",
            "offset": 0,
            "slot": "4",
            "type": "t_uint256"
          },
          {
            "astId": 6916,
            "contract": "contracts/NetEmissionsTokenNetwork.sol:NetEmissionsTokenNetwork",
            "label": "thruDate",
            "offset": 0,
            "slot": "5",
            "type": "t_uint256"
          },
          {
            "astId": 6918,
            "contract": "contracts/NetEmissionsTokenNetwork.sol:NetEmissionsTokenNetwork",
            "label": "dateCreated",
            "offset": 0,
            "slot": "6",
            "type": "t_uint256"
          },
          {
            "astId": 6920,
            "contract": "contracts/NetEmissionsTokenNetwork.sol:NetEmissionsTokenNetwork",
            "label": "metadata",
            "offset": 0,
            "slot": "7",
            "type": "t_string_storage"
          },
          {
            "astId": 6922,
            "contract": "contracts/NetEmissionsTokenNetwork.sol:NetEmissionsTokenNetwork",
            "label": "manifest",
            "offset": 0,
            "slot": "8",
            "type": "t_string_storage"
          },
          {
            "astId": 6924,
            "contract": "contracts/NetEmissionsTokenNetwork.sol:NetEmissionsTokenNetwork",
            "label": "description",
            "offset": 0,
            "slot": "9",
            "type": "t_string_storage"
          },
          {
            "astId": 6926,
            "contract": "contracts/NetEmissionsTokenNetwork.sol:NetEmissionsTokenNetwork",
            "label": "totalIssued",
            "offset": 0,
            "slot": "10",
            "type": "t_uint256"
          },
          {
            "astId": 6928,
            "contract": "contracts/NetEmissionsTokenNetwork.sol:NetEmissionsTokenNetwork",
            "label": "totalRetired",
            "offset": 0,
            "slot": "11",
            "type": "t_uint256"
          }
        ],
        "numberOfBytes": "384"
      },
      "t_struct(Counter)3320_storage": {
        "encoding": "inplace",
        "label": "struct CountersUpgradeable.Counter",
        "members": [
          {
            "astId": 3319,
            "contract": "contracts/NetEmissionsTokenNetwork.sol:NetEmissionsTokenNetwork",
            "label": "_value",
            "offset": 0,
            "slot": "0",
            "type": "t_uint256"
          }
        ],
        "numberOfBytes": "32"
      },
      "t_struct(RoleData)34_storage": {
        "encoding": "inplace",
        "label": "struct AccessControlUpgradeable.RoleData",
        "members": [
          {
            "astId": 31,
            "contract": "contracts/NetEmissionsTokenNetwork.sol:NetEmissionsTokenNetwork",
            "label": "members",
            "offset": 0,
            "slot": "0",
            "type": "t_mapping(t_address,t_bool)"
          },
          {
            "astId": 33,
            "contract": "contracts/NetEmissionsTokenNetwork.sol:NetEmissionsTokenNetwork",
            "label": "adminRole",
            "offset": 0,
            "slot": "1",
            "type": "t_bytes32"
          }
        ],
        "numberOfBytes": "64"
      },
      "t_uint160": {
        "encoding": "inplace",
        "label": "uint160",
        "numberOfBytes": "20"
      },
      "t_uint256": {
        "encoding": "inplace",
        "label": "uint256",
        "numberOfBytes": "32"
      },
      "t_uint32": {
        "encoding": "inplace",
        "label": "uint32",
        "numberOfBytes": "4"
      },
      "t_uint8": {
        "encoding": "inplace",
        "label": "uint8",
        "numberOfBytes": "1"
      }
    }
  }
}