{
  "address": "0x45dae296F61546B42C97b3dbEA2cE04a44829912",
  "abi": [
    {
      "inputs": [
        {
          "internalType": "address",
          "name": "admin",
          "type": "address"
        }
      ],
      "stateMutability": "nonpayable",
      "type": "constructor"
    },
    {
      "anonymous": false,
      "inputs": [
        {
          "indexed": true,
          "internalType": "address",
          "name": "account",
          "type": "address"
        },
        {
          "indexed": true,
          "internalType": "address",
          "name": "operator",
          "type": "address"
        },
        {
          "indexed": false,
          "internalType": "bool",
          "name": "approved",
          "type": "bool"
        }
      ],
      "name": "ApprovalForAll",
      "type": "event"
    },
    {
      "anonymous": false,
      "inputs": [
        {
          "indexed": true,
          "internalType": "address",
          "name": "account",
          "type": "address"
        }
      ],
      "name": "RegisteredConsumer",
      "type": "event"
    },
    {
      "anonymous": false,
      "inputs": [
        {
          "indexed": true,
          "internalType": "address",
          "name": "account",
          "type": "address"
        }
      ],
      "name": "RegisteredDealer",
      "type": "event"
    },
    {
      "anonymous": false,
      "inputs": [
        {
          "indexed": true,
          "internalType": "bytes32",
          "name": "role",
          "type": "bytes32"
        },
        {
          "indexed": true,
          "internalType": "bytes32",
          "name": "previousAdminRole",
          "type": "bytes32"
        },
        {
          "indexed": true,
          "internalType": "bytes32",
          "name": "newAdminRole",
          "type": "bytes32"
        }
      ],
      "name": "RoleAdminChanged",
      "type": "event"
    },
    {
      "anonymous": false,
      "inputs": [
        {
          "indexed": true,
          "internalType": "bytes32",
          "name": "role",
          "type": "bytes32"
        },
        {
          "indexed": true,
          "internalType": "address",
          "name": "account",
          "type": "address"
        },
        {
          "indexed": true,
          "internalType": "address",
          "name": "sender",
          "type": "address"
        }
      ],
      "name": "RoleGranted",
      "type": "event"
    },
    {
      "anonymous": false,
      "inputs": [
        {
          "indexed": true,
          "internalType": "bytes32",
          "name": "role",
          "type": "bytes32"
        },
        {
          "indexed": true,
          "internalType": "address",
          "name": "account",
          "type": "address"
        },
        {
          "indexed": true,
          "internalType": "address",
          "name": "sender",
          "type": "address"
        }
      ],
      "name": "RoleRevoked",
      "type": "event"
    },
    {
      "anonymous": false,
      "inputs": [
        {
          "indexed": false,
          "internalType": "uint256",
          "name": "availableBalance",
          "type": "uint256"
        },
        {
          "indexed": false,
          "internalType": "uint256",
          "name": "retiredBalance",
          "type": "uint256"
        },
        {
          "indexed": false,
          "internalType": "uint256",
          "name": "tokenId",
          "type": "uint256"
        },
        {
          "indexed": false,
          "internalType": "uint8",
          "name": "tokenTypeId",
          "type": "uint8"
        },
        {
          "indexed": true,
          "internalType": "address",
          "name": "issuer",
          "type": "address"
        },
        {
          "indexed": true,
          "internalType": "address",
          "name": "issuee",
          "type": "address"
        },
        {
          "indexed": false,
          "internalType": "uint256",
          "name": "fromDate",
          "type": "uint256"
        },
        {
          "indexed": false,
          "internalType": "uint256",
          "name": "thruDate",
          "type": "uint256"
        },
        {
          "indexed": false,
          "internalType": "uint256",
          "name": "dateCreated",
          "type": "uint256"
        },
        {
          "indexed": false,
          "internalType": "uint256",
          "name": "automaticRetireDate",
          "type": "uint256"
        },
        {
          "indexed": false,
          "internalType": "string",
          "name": "metadata",
          "type": "string"
        },
        {
          "indexed": false,
          "internalType": "string",
          "name": "manifest",
          "type": "string"
        },
        {
          "indexed": false,
          "internalType": "string",
          "name": "description",
          "type": "string"
        }
      ],
      "name": "TokenCreated",
      "type": "event"
    },
    {
      "anonymous": false,
      "inputs": [
        {
          "indexed": true,
          "internalType": "address",
          "name": "account",
          "type": "address"
        },
        {
          "indexed": false,
          "internalType": "uint256",
          "name": "tokenId",
          "type": "uint256"
        },
        {
          "indexed": false,
          "internalType": "uint256",
          "name": "amount",
          "type": "uint256"
        }
      ],
      "name": "TokenRetired",
      "type": "event"
    },
    {
      "anonymous": false,
      "inputs": [
        {
          "indexed": true,
          "internalType": "address",
          "name": "operator",
          "type": "address"
        },
        {
          "indexed": true,
          "internalType": "address",
          "name": "from",
          "type": "address"
        },
        {
          "indexed": true,
          "internalType": "address",
          "name": "to",
          "type": "address"
        },
        {
          "indexed": false,
          "internalType": "uint256[]",
          "name": "ids",
          "type": "uint256[]"
        },
        {
          "indexed": false,
          "internalType": "uint256[]",
          "name": "values",
          "type": "uint256[]"
        }
      ],
      "name": "TransferBatch",
      "type": "event"
    },
    {
      "anonymous": false,
      "inputs": [
        {
          "indexed": true,
          "internalType": "address",
          "name": "operator",
          "type": "address"
        },
        {
          "indexed": true,
          "internalType": "address",
          "name": "from",
          "type": "address"
        },
        {
          "indexed": true,
          "internalType": "address",
          "name": "to",
          "type": "address"
        },
        {
          "indexed": false,
          "internalType": "uint256",
          "name": "id",
          "type": "uint256"
        },
        {
          "indexed": false,
          "internalType": "uint256",
          "name": "value",
          "type": "uint256"
        }
      ],
      "name": "TransferSingle",
      "type": "event"
    },
    {
      "anonymous": false,
      "inputs": [
        {
          "indexed": false,
          "internalType": "string",
          "name": "value",
          "type": "string"
        },
        {
          "indexed": true,
          "internalType": "uint256",
          "name": "id",
          "type": "uint256"
        }
      ],
      "name": "URI",
      "type": "event"
    },
    {
      "anonymous": false,
      "inputs": [
        {
          "indexed": true,
          "internalType": "address",
          "name": "account",
          "type": "address"
        }
      ],
      "name": "UnregisteredConsumer",
      "type": "event"
    },
    {
      "anonymous": false,
      "inputs": [
        {
          "indexed": true,
          "internalType": "address",
          "name": "account",
          "type": "address"
        }
      ],
      "name": "UnregisteredDealer",
      "type": "event"
    },
    {
      "inputs": [],
      "name": "DEFAULT_ADMIN_ROLE",
      "outputs": [
        {
          "internalType": "bytes32",
          "name": "",
          "type": "bytes32"
        }
      ],
      "stateMutability": "view",
      "type": "function"
    },
    {
      "inputs": [],
      "name": "REGISTERED_CONSUMER",
      "outputs": [
        {
          "internalType": "bytes32",
          "name": "",
          "type": "bytes32"
        }
      ],
      "stateMutability": "view",
      "type": "function"
    },
    {
      "inputs": [],
      "name": "REGISTERED_DEALER",
      "outputs": [
        {
          "internalType": "bytes32",
          "name": "",
          "type": "bytes32"
        }
      ],
      "stateMutability": "view",
      "type": "function"
    },
    {
      "inputs": [],
      "name": "REGISTERED_EMISSIONS_AUDITOR",
      "outputs": [
        {
          "internalType": "bytes32",
          "name": "",
          "type": "bytes32"
        }
      ],
      "stateMutability": "view",
      "type": "function"
    },
    {
      "inputs": [],
      "name": "REGISTERED_OFFSET_DEALER",
      "outputs": [
        {
          "internalType": "bytes32",
          "name": "",
          "type": "bytes32"
        }
      ],
      "stateMutability": "view",
      "type": "function"
    },
    {
      "inputs": [],
      "name": "REGISTERED_REC_DEALER",
      "outputs": [
        {
          "internalType": "bytes32",
          "name": "",
          "type": "bytes32"
        }
      ],
      "stateMutability": "view",
      "type": "function"
    },
    {
      "inputs": [
        {
          "internalType": "address",
          "name": "account",
          "type": "address"
        },
        {
          "internalType": "uint256",
          "name": "id",
          "type": "uint256"
        }
      ],
      "name": "balanceOf",
      "outputs": [
        {
          "internalType": "uint256",
          "name": "",
          "type": "uint256"
        }
      ],
      "stateMutability": "view",
      "type": "function"
    },
    {
      "inputs": [
        {
          "internalType": "address[]",
          "name": "accounts",
          "type": "address[]"
        },
        {
          "internalType": "uint256[]",
          "name": "ids",
          "type": "uint256[]"
        }
      ],
      "name": "balanceOfBatch",
      "outputs": [
        {
          "internalType": "uint256[]",
          "name": "",
          "type": "uint256[]"
        }
      ],
      "stateMutability": "view",
      "type": "function"
    },
    {
      "inputs": [
        {
          "internalType": "address",
          "name": "account",
          "type": "address"
        },
        {
          "internalType": "uint256",
          "name": "tokenId",
          "type": "uint256"
        }
      ],
      "name": "getAvailableAndRetired",
      "outputs": [
        {
          "internalType": "uint256",
          "name": "",
          "type": "uint256"
        },
        {
          "internalType": "uint256",
          "name": "",
          "type": "uint256"
        }
      ],
      "stateMutability": "view",
      "type": "function"
    },
    {
      "inputs": [
        {
          "internalType": "uint256",
          "name": "tokenId",
          "type": "uint256"
        }
      ],
      "name": "getHolders",
      "outputs": [
        {
          "internalType": "address[]",
          "name": "",
          "type": "address[]"
        }
      ],
      "stateMutability": "view",
      "type": "function"
    },
    {
      "inputs": [
        {
          "internalType": "uint256",
          "name": "tokenId",
          "type": "uint256"
        }
      ],
      "name": "getIssuer",
      "outputs": [
        {
          "internalType": "address",
          "name": "",
          "type": "address"
        }
      ],
      "stateMutability": "view",
      "type": "function"
    },
    {
      "inputs": [],
      "name": "getNumOfUniqueTokens",
      "outputs": [
        {
          "internalType": "uint256",
          "name": "",
          "type": "uint256"
        }
      ],
      "stateMutability": "view",
      "type": "function"
    },
    {
      "inputs": [
        {
          "internalType": "bytes32",
          "name": "role",
          "type": "bytes32"
        }
      ],
      "name": "getRoleAdmin",
      "outputs": [
        {
          "internalType": "bytes32",
          "name": "",
          "type": "bytes32"
        }
      ],
      "stateMutability": "view",
      "type": "function"
    },
    {
      "inputs": [
        {
          "internalType": "bytes32",
          "name": "role",
          "type": "bytes32"
        },
        {
          "internalType": "uint256",
          "name": "index",
          "type": "uint256"
        }
      ],
      "name": "getRoleMember",
      "outputs": [
        {
          "internalType": "address",
          "name": "",
          "type": "address"
        }
      ],
      "stateMutability": "view",
      "type": "function"
    },
    {
      "inputs": [
        {
          "internalType": "bytes32",
          "name": "role",
          "type": "bytes32"
        }
      ],
      "name": "getRoleMemberCount",
      "outputs": [
        {
          "internalType": "uint256",
          "name": "",
          "type": "uint256"
        }
      ],
      "stateMutability": "view",
      "type": "function"
    },
    {
      "inputs": [
        {
          "internalType": "address",
          "name": "account",
          "type": "address"
        }
      ],
      "name": "getRoles",
      "outputs": [
        {
          "internalType": "bool",
          "name": "",
          "type": "bool"
        },
        {
          "internalType": "bool",
          "name": "",
          "type": "bool"
        },
        {
          "internalType": "bool",
          "name": "",
          "type": "bool"
        },
        {
          "internalType": "bool",
          "name": "",
          "type": "bool"
        },
        {
          "internalType": "bool",
          "name": "",
          "type": "bool"
        }
      ],
      "stateMutability": "view",
      "type": "function"
    },
    {
      "inputs": [
        {
          "internalType": "uint256",
          "name": "tokenId",
          "type": "uint256"
        }
      ],
      "name": "getTokenDetails",
      "outputs": [
        {
          "components": [
            {
              "internalType": "uint256",
              "name": "tokenId",
              "type": "uint256"
            },
            {
              "internalType": "uint8",
              "name": "tokenTypeId",
              "type": "uint8"
            },
            {
              "internalType": "address",
              "name": "issuer",
              "type": "address"
            },
            {
              "internalType": "address",
              "name": "issuee",
              "type": "address"
            },
            {
              "internalType": "uint256",
              "name": "fromDate",
              "type": "uint256"
            },
            {
              "internalType": "uint256",
              "name": "thruDate",
              "type": "uint256"
            },
            {
              "internalType": "uint256",
              "name": "dateCreated",
              "type": "uint256"
            },
            {
              "internalType": "uint256",
              "name": "automaticRetireDate",
              "type": "uint256"
            },
            {
              "internalType": "string",
              "name": "metadata",
              "type": "string"
            },
            {
              "internalType": "string",
              "name": "manifest",
              "type": "string"
            },
            {
              "internalType": "string",
              "name": "description",
              "type": "string"
            }
          ],
          "internalType": "struct NetEmissionsTokenNetwork.Clm8TokenReturnDetails",
          "name": "",
          "type": "tuple"
        }
      ],
      "stateMutability": "view",
      "type": "function"
    },
    {
      "inputs": [
        {
          "internalType": "address",
          "name": "account",
          "type": "address"
        },
        {
          "internalType": "uint256",
          "name": "tokenId",
          "type": "uint256"
        }
      ],
      "name": "getTokenRetiredAmount",
      "outputs": [
        {
          "internalType": "uint256",
          "name": "",
          "type": "uint256"
        }
      ],
      "stateMutability": "view",
      "type": "function"
    },
    {
      "inputs": [
        {
          "internalType": "uint256",
          "name": "tokenId",
          "type": "uint256"
        }
      ],
      "name": "getTokenType",
      "outputs": [
        {
          "internalType": "string",
          "name": "",
          "type": "string"
        }
      ],
      "stateMutability": "view",
      "type": "function"
    },
    {
      "inputs": [
        {
          "internalType": "bytes32",
          "name": "role",
          "type": "bytes32"
        },
        {
          "internalType": "address",
          "name": "account",
          "type": "address"
        }
      ],
      "name": "grantRole",
      "outputs": [],
      "stateMutability": "nonpayable",
      "type": "function"
    },
    {
      "inputs": [
        {
          "internalType": "bytes32",
          "name": "role",
          "type": "bytes32"
        },
        {
          "internalType": "address",
          "name": "account",
          "type": "address"
        }
      ],
      "name": "hasRole",
      "outputs": [
        {
          "internalType": "bool",
          "name": "",
          "type": "bool"
        }
      ],
      "stateMutability": "view",
      "type": "function"
    },
    {
      "inputs": [
        {
          "internalType": "address",
          "name": "account",
          "type": "address"
        },
        {
          "internalType": "address",
          "name": "operator",
          "type": "address"
        }
      ],
      "name": "isApprovedForAll",
      "outputs": [
        {
          "internalType": "bool",
          "name": "",
          "type": "bool"
        }
      ],
      "stateMutability": "view",
      "type": "function"
    },
    {
      "inputs": [
        {
          "internalType": "address",
          "name": "account",
          "type": "address"
        }
      ],
      "name": "isConsumerRegistered",
      "outputs": [
        {
          "internalType": "bool",
          "name": "",
          "type": "bool"
        }
      ],
      "stateMutability": "view",
      "type": "function"
    },
    {
      "inputs": [
        {
          "internalType": "address",
          "name": "account",
          "type": "address"
        }
      ],
      "name": "isDealerRegistered",
      "outputs": [
        {
          "internalType": "bool",
          "name": "",
          "type": "bool"
        }
      ],
      "stateMutability": "view",
      "type": "function"
    },
    {
      "inputs": [
        {
          "internalType": "address",
          "name": "issuee",
          "type": "address"
        },
        {
          "internalType": "uint8",
          "name": "tokenTypeId",
          "type": "uint8"
        },
        {
          "internalType": "uint256",
          "name": "quantity",
          "type": "uint256"
        },
        {
          "internalType": "uint256",
          "name": "fromDate",
          "type": "uint256"
        },
        {
          "internalType": "uint256",
          "name": "thruDate",
          "type": "uint256"
        },
        {
          "internalType": "uint256",
          "name": "automaticRetireDate",
          "type": "uint256"
        },
        {
          "internalType": "string",
          "name": "metadata",
          "type": "string"
        },
        {
          "internalType": "string",
          "name": "manifest",
          "type": "string"
        },
        {
          "internalType": "string",
          "name": "description",
          "type": "string"
        }
      ],
      "name": "issue",
      "outputs": [],
      "stateMutability": "nonpayable",
      "type": "function"
    },
    {
      "inputs": [
        {
          "internalType": "address",
          "name": "issuee",
          "type": "address"
        },
        {
          "internalType": "address",
          "name": "proposer",
          "type": "address"
        },
        {
          "internalType": "uint8",
          "name": "tokenTypeId",
          "type": "uint8"
        },
        {
          "internalType": "uint256",
          "name": "quantity",
          "type": "uint256"
        },
        {
          "internalType": "uint256",
          "name": "fromDate",
          "type": "uint256"
        },
        {
          "internalType": "uint256",
          "name": "thruDate",
          "type": "uint256"
        },
        {
          "internalType": "uint256",
          "name": "automaticRetireDate",
          "type": "uint256"
        },
        {
          "internalType": "string",
          "name": "metadata",
          "type": "string"
        },
        {
          "internalType": "string",
          "name": "manifest",
          "type": "string"
        },
        {
          "internalType": "string",
          "name": "description",
          "type": "string"
        }
      ],
      "name": "issueFromDAO",
      "outputs": [],
      "stateMutability": "nonpayable",
      "type": "function"
    },
    {
      "inputs": [
        {
          "internalType": "address",
          "name": "account",
          "type": "address"
        }
      ],
      "name": "registerConsumer",
      "outputs": [],
      "stateMutability": "nonpayable",
      "type": "function"
    },
    {
      "inputs": [
        {
          "internalType": "address",
          "name": "account",
          "type": "address"
        },
        {
          "internalType": "uint8",
          "name": "tokenTypeId",
          "type": "uint8"
        }
      ],
      "name": "registerDealer",
      "outputs": [],
      "stateMutability": "nonpayable",
      "type": "function"
    },
    {
      "inputs": [
        {
          "internalType": "bytes32",
          "name": "role",
          "type": "bytes32"
        },
        {
          "internalType": "address",
          "name": "account",
          "type": "address"
        }
      ],
      "name": "renounceRole",
      "outputs": [],
      "stateMutability": "nonpayable",
      "type": "function"
    },
    {
      "inputs": [
        {
          "internalType": "uint256",
          "name": "tokenId",
          "type": "uint256"
        },
        {
          "internalType": "uint256",
          "name": "amount",
          "type": "uint256"
        }
      ],
      "name": "retire",
      "outputs": [],
      "stateMutability": "nonpayable",
      "type": "function"
    },
    {
      "inputs": [
        {
          "internalType": "bytes32",
          "name": "role",
          "type": "bytes32"
        },
        {
          "internalType": "address",
          "name": "account",
          "type": "address"
        }
      ],
      "name": "revokeRole",
      "outputs": [],
      "stateMutability": "nonpayable",
      "type": "function"
    },
    {
      "inputs": [
        {
          "internalType": "address",
          "name": "from",
          "type": "address"
        },
        {
          "internalType": "address",
          "name": "to",
          "type": "address"
        },
        {
          "internalType": "uint256[]",
          "name": "ids",
          "type": "uint256[]"
        },
        {
          "internalType": "uint256[]",
          "name": "amounts",
          "type": "uint256[]"
        },
        {
          "internalType": "bytes",
          "name": "data",
          "type": "bytes"
        }
      ],
      "name": "safeBatchTransferFrom",
      "outputs": [],
      "stateMutability": "nonpayable",
      "type": "function"
    },
    {
      "inputs": [
        {
          "internalType": "address",
          "name": "from",
          "type": "address"
        },
        {
          "internalType": "address",
          "name": "to",
          "type": "address"
        },
        {
          "internalType": "uint256",
          "name": "id",
          "type": "uint256"
        },
        {
          "internalType": "uint256",
          "name": "amount",
          "type": "uint256"
        },
        {
          "internalType": "bytes",
          "name": "data",
          "type": "bytes"
        }
      ],
      "name": "safeTransferFrom",
      "outputs": [],
      "stateMutability": "nonpayable",
      "type": "function"
    },
    {
      "inputs": [],
      "name": "selfDestruct",
      "outputs": [],
      "stateMutability": "nonpayable",
      "type": "function"
    },
    {
      "inputs": [
        {
          "internalType": "address",
          "name": "operator",
          "type": "address"
        },
        {
          "internalType": "bool",
          "name": "approved",
          "type": "bool"
        }
      ],
      "name": "setApprovalForAll",
      "outputs": [],
      "stateMutability": "nonpayable",
      "type": "function"
    },
    {
      "inputs": [
        {
          "internalType": "bool",
          "name": "_limitedMode",
          "type": "bool"
        }
      ],
      "name": "setLimitedMode",
      "outputs": [],
      "stateMutability": "nonpayable",
      "type": "function"
    },
    {
      "inputs": [
        {
          "internalType": "address",
          "name": "_timelock",
          "type": "address"
        }
      ],
      "name": "setTimelock",
      "outputs": [],
      "stateMutability": "nonpayable",
      "type": "function"
    },
    {
      "inputs": [
        {
          "internalType": "bytes4",
          "name": "interfaceId",
          "type": "bytes4"
        }
      ],
      "name": "supportsInterface",
      "outputs": [
        {
          "internalType": "bool",
          "name": "",
          "type": "bool"
        }
      ],
      "stateMutability": "view",
      "type": "function"
    },
    {
      "inputs": [
        {
          "internalType": "address",
          "name": "to",
          "type": "address"
        },
        {
          "internalType": "uint256",
          "name": "tokenId",
          "type": "uint256"
        },
        {
          "internalType": "uint256",
          "name": "value",
          "type": "uint256"
        }
      ],
      "name": "transfer",
      "outputs": [],
      "stateMutability": "nonpayable",
      "type": "function"
    },
    {
      "inputs": [
        {
          "internalType": "address",
          "name": "account",
          "type": "address"
        }
      ],
      "name": "unregisterConsumer",
      "outputs": [],
      "stateMutability": "nonpayable",
      "type": "function"
    },
    {
      "inputs": [
        {
          "internalType": "address",
          "name": "account",
          "type": "address"
        },
        {
          "internalType": "uint8",
          "name": "tokenTypeId",
          "type": "uint8"
        }
      ],
      "name": "unregisterDealer",
      "outputs": [],
      "stateMutability": "nonpayable",
      "type": "function"
    },
    {
      "inputs": [
        {
          "internalType": "uint256",
          "name": "",
          "type": "uint256"
        }
      ],
      "name": "uri",
      "outputs": [
        {
          "internalType": "string",
          "name": "",
          "type": "string"
        }
      ],
      "stateMutability": "view",
      "type": "function"
    }
  ],
  "transactionHash": "0xc547fab5eb4210c3b8baefc4a305957d42177e42da75eafb06eef8994bd0eac9",
  "args": [
    "0xD32E793008B0FbD13C889E291bc049483Da316bA"
  ],
  "solcInputHash": "8a0676cd8972af80562b80afb70fc1e9",
  "bytecode": "0x600880546001600160a01b0319169055601c60e09081527f52656e657761626c6520456e657267792043657274696669636174650000000061010052608090815260176101209081527f436172626f6e20456d697373696f6e73204f66667365740000000000000000006101405260a0526101a06040526011610160908152704175646974656420456d697373696f6e7360781b6101805260c052620000aa90600a906003620003f6565b50348015620000b857600080fd5b506040516200491338038062004913833981016040819052620000db916200055e565b604080516020810190915260008152620000fc6301ffc9a760e01b62000224565b62000107816200027f565b62000119636cdb3d1360e11b62000224565b6200012b6303a24d0760e21b62000224565b50620001677f5e1aa547d3dade8c68b013a47ad41c2bcc9b9e4b0765b0fb616780e15786e76a600080516020620048f383398151915262000298565b62000174600082620002ea565b6200018f600080516020620048f383398151915282620002ea565b620001bb7f2ab9f1da92e74aaa01eb75a871557505b11dd8d36832a34bb21bbee88b08d86082620002ea565b620001e77fede6574deba8f02ada7888448a497b08844d62e044ed533343a673be3ffcde5f82620002ea565b620002137fe97dad3dbe5042e7384b1572cf966a15e089576a62b5126c5ef1d184ab18b12c82620002ea565b506005805460ff19169055620005c5565b6001600160e01b031980821614156200025a5760405162461bcd60e51b815260040162000251906200058e565b60405180910390fd5b6001600160e01b0319166000908152602081905260409020805460ff19166001179055565b8051620002949060039060208401906200045a565b5050565b600082815260046020526040808220600201549051839285917fbd79b86ffe0ab8e8776151514217cd7cacd52c909f66475c3af44e129f0b00ff9190a460009182526004602052604090912060020155565b62000294828260008281526004602090815260409091206200031791839062001d1d6200036b821b17901c565b156200029457620003276200038b565b6001600160a01b0316816001600160a01b0316837f2f8788117e7eff1d82e926ec794901d17c78024a50270940304540a733656f0d60405160405180910390a45050565b600062000382836001600160a01b0384166200038f565b90505b92915050565b3390565b60006200039d8383620003de565b620003d55750815460018181018455600084815260208082209093018490558454848252828601909352604090209190915562000385565b50600062000385565b60009081526001919091016020526040902054151590565b82805482825590600052602060002090810192821562000448579160200282015b82811115620004485782518051620004379184916020909101906200045a565b509160200191906001019062000417565b5062000456929150620004db565b5090565b828054600181600116156101000203166002900490600052602060002090601f016020900481019282601f106200049d57805160ff1916838001178555620004cd565b82800160010185558215620004cd579182015b82811115620004cd578251825591602001919060010190620004b0565b5062000456929150620004fc565b8082111562000456576000620004f2828262000513565b50600101620004db565b5b80821115620004565760008155600101620004fd565b50805460018160011615610100020316600290046000825580601f106200053b57506200055b565b601f0160209004906000526020600020908101906200055b9190620004fc565b50565b60006020828403121562000570578081fd5b81516001600160a01b038116811462000587578182fd5b9392505050565b6020808252601c908201527f4552433136353a20696e76616c696420696e7465726661636520696400000000604082015260600190565b61431e80620005d56000396000f3fe608060405234801561001057600080fd5b506004361061025d5760003560e01c80637f157c9b11610146578063bdacb303116100c3578063ddc3e6eb11610087578063ddc3e6eb14610546578063e2e564f214610559578063e985e9c51461056c578063f242432a1461057f578063fcba794814610592578063fd0c4a9a1461059a5761025d565b8063bdacb303146104c9578063c1e03728146104dc578063ca15c873146104fc578063ce6ccfaf1461050f578063d547741f146105335761025d565b80639cb8a26a1161010a5780639cb8a26a14610480578063a0d975a714610488578063a217fddf1461049b578063a22cb465146104a3578063a53b5dd9146104b65761025d565b80637f157c9b146103f95780639010d07c1461041a57806391d148541461043a57806392089c461461044d57806392707869146104605761025d565b806331aa4b20116101df57806353dbe982116101a357806353dbe982146103a85780635ddb368f146103bb57806369f7ef44146103c357806376aed2e1146103d657806376ce4755146103e957806378e5c592146103f15761025d565b806331aa4b201461033c57806333781a0e1461034f57806336568abe1461036257806344b22fdd146103755780634e1273f4146103885761025d565b80631ef68ef7116102265780631ef68ef7146102e8578063248a9ca3146102f0578063293a7f2e146103035780632eb2c2d6146103165780632f2ff15d146103295761025d565b8062fdd58e1461026257806301ffc9a71461028b578063095bcdb6146102ab5780630e89341c146102c057806318a50d7e146102e0575b600080fd5b610275610270366004612e27565b6105ad565b60405161028291906133bb565b60405180910390f35b61029e6102993660046130bd565b610609565b6040516102829190613387565b6102be6102b9366004612e51565b61062c565b005b6102d36102ce366004613060565b610751565b60405161028291906133c4565b6102756107e9565b61027561080d565b6102756102fe366004613060565b61081f565b6102be61031136600461309c565b610834565b6102be610324366004612bfb565b6109b5565b6102be610337366004613078565b610bcf565b6102be61034a366004612e84565b610c17565b61029e61035d366004612bac565b610d2a565b6102be610370366004613078565b610d44565b6102be610383366004612bac565b610d86565b61039b610396366004612f7e565b610e8b565b6040516102829190613346565b6102be6103b6366004612bac565b610fcb565b6102756110d0565b61029e6103d1366004612bac565b6110e2565b6102d36103e4366004613060565b611164565b610275611252565b610275611264565b61040c610407366004612e27565b611276565b60405161028292919061405c565b61042d61042836600461309c565b61130d565b6040516102829190613229565b61029e610448366004613078565b61132c565b61042d61045b366004613060565b611344565b61047361046e366004613060565b611367565b60405161028291906132f9565b6102be611432565b610275610496366004612e27565b61145c565b6102756114ab565b6102be6104b1366004612dec565b6114b0565b6102be6104c4366004612d0a565b61157e565b6102be6104d7366004612bac565b6115c6565b6104ef6104ea366004613060565b61160f565b6040516102829190613f84565b61027561050a366004613060565b611869565b61052261051d366004612bac565b611880565b604051610282959493929190613392565b6102be610541366004613078565b611914565b6102be610554366004613040565b61194e565b6102be610567366004612e84565b611988565b61029e61057a366004612bc7565b611aa8565b6102be61058d366004612ca5565b611ad6565b610275611c6a565b6102be6105a8366004612eaf565b611c7c565b60006001600160a01b0383166105de5760405162461bcd60e51b81526004016105d59061354d565b60405180910390fd5b5060008181526001602090815260408083206001600160a01b03861684529091529020545b92915050565b6001600160e01b0319811660009081526020819052604090205460ff165b919050565b600061064660008051602061425f8339815191523361132c565b905060006106626000805160206142a98339815191523361132c565b9050600061067e60008051602061423f8339815191523361132c565b9050600061069a6000805160206142c98339815191523361132c565b905083806106a55750825b806106ad5750815b806106b55750805b6106d15760405162461bcd60e51b81526004016105d590613e94565b6106da86611d32565b6106f65760405162461bcd60e51b81526004016105d590613af8565b336001600160a01b038816141561071f5760405162461bcd60e51b81526004016105d5906139cf565b61074833888888604051806040016040528060048152602001630307830360e41b815250611ad6565b50505050505050565b60038054604080516020601f60026000196101006001881615020190951694909404938401819004810282018101909252828152606093909290918301828280156107dd5780601f106107b2576101008083540402835291602001916107dd565b820191906000526020600020905b8154815290600101906020018083116107c057829003601f168201915b50505050509050919050565b7ff8890eedd7900ad88da6192fd03dbb69dbeee963b1a0ed738abe49ab3331aaf381565b60008051602061423f83398151915281565b60009081526004602052604090206002015490565b600061084e60008051602061425f8339815191523361132c565b9050600061086a6000805160206142a98339815191523361132c565b9050600061088660008051602061423f8339815191523361132c565b905060006108a26000805160206142c98339815191523361132c565b905083806108ad5750825b806108b55750815b806108bd5750805b6108d95760405162461bcd60e51b81526004016105d590613e94565b6108e286611d32565b6108fe5760405162461bcd60e51b81526004016105d5906135e9565b61090833876105ad565b8511156109275760405162461bcd60e51b81526004016105d5906138a1565b610932338787611d54565b60008681526007602090815260408083203384529091529020546109569086611e6a565b60008781526007602090815260408083203380855292529182902092909255517f8f1b5ebb586d3d169e4ed07db9cd10ce0dd30c7b656171310eae7517c0b53cf9906109a5908990899061405c565b60405180910390a2505050505050565b81518351146109d65760405162461bcd60e51b81526004016105d590613e0b565b6001600160a01b0384166109fc5760405162461bcd60e51b81526004016105d5906138f5565b610a04611e8f565b6001600160a01b0316856001600160a01b03161480610a2a5750610a2a8561057a611e8f565b610a465760405162461bcd60e51b81526004016105d59061393a565b6000610a50611e8f565b9050610a60818787878787611e93565b60005b8451811015610b61576000858281518110610a7a57fe5b602002602001015190506000858381518110610a9257fe5b60200260200101519050610aff816040518060600160405280602a815260200161427f602a91396001600086815260200190815260200160002060008d6001600160a01b03166001600160a01b0316815260200190815260200160002054611f9b9092919063ffffffff16565b60008381526001602090815260408083206001600160a01b038e811685529252808320939093558a1681522054610b369082611e6a565b60009283526001602081815260408086206001600160a01b038d168752909152909320555001610a63565b50846001600160a01b0316866001600160a01b0316826001600160a01b03167f4a39dc06d4c0dbc64b70af90fd698a233a518aa5d07e595d983b8c0526c8f7fb8787604051610bb1929190613359565b60405180910390a4610bc7818787878787611fc7565b505050505050565b600082815260046020526040902060020154610bed90610448611e8f565b610c095760405162461bcd60e51b81526004016105d5906134b5565b610c1382826120d5565b5050565b610c2260003361132c565b610c3e5760405162461bcd60e51b81526004016105d5906137b5565b610c478161213e565b610c635760405162461bcd60e51b81526004016105d590613a25565b8060ff1660011415610c8c57610c876000805160206142a983398151915283610bcf565b610cc8565b8060ff1660021415610cb057610c8760008051602061423f83398151915283610bcf565b610cc86000805160206142c983398151915283610bcf565b610cf27ff8890eedd7900ad88da6192fd03dbb69dbeee963b1a0ed738abe49ab3331aaf383610bcf565b6040516001600160a01b038316907fa8377deee15954185683d55effd369508b4935978c8cb2bab790bf04c570181490600090a25050565b600061060360008051602061425f8339815191528361132c565b610d4c611e8f565b6001600160a01b0316816001600160a01b031614610d7c5760405162461bcd60e51b81526004016105d590613f35565b610c138282612164565b6000610da06000805160206142a98339815191523361132c565b90506000610dbc60008051602061423f8339815191523361132c565b90506000610dd86000805160206142c98339815191523361132c565b90508280610de35750815b80610deb5750805b610e075760405162461bcd60e51b81526004016105d590613504565b60055460ff1615610e3957610e1d60003361132c565b610e395760405162461bcd60e51b81526004016105d590613b3e565b610e5160008051602061425f83398151915285610bcf565b6040516001600160a01b038516907f69a0adee259d26fe61f4776f7bea7f3a9737c7321256821b985f988545efd31990600090a250505050565b60608151835114610eae5760405162461bcd60e51b81526004016105d590613d72565b6060835167ffffffffffffffff81118015610ec857600080fd5b50604051908082528060200260200182016040528015610ef2578160200160208202803683370190505b50905060005b8451811015610fc35760006001600160a01b0316858281518110610f1857fe5b60200260200101516001600160a01b03161415610f475760405162461bcd60e51b81526004016105d590613598565b60016000858381518110610f5757fe5b602002602001015181526020019081526020016000206000868381518110610f7b57fe5b60200260200101516001600160a01b03166001600160a01b0316815260200190815260200160002054828281518110610fb057fe5b6020908102919091010152600101610ef8565b509392505050565b6000610fe56000805160206142a98339815191523361132c565b9050600061100160008051602061423f8339815191523361132c565b9050600061101d6000805160206142c98339815191523361132c565b905082806110285750815b806110305750805b61104c5760405162461bcd60e51b81526004016105d590613504565b60055460ff161561107e5761106260003361132c565b61107e5760405162461bcd60e51b81526004016105d5906136ff565b61109660008051602061425f83398151915285611914565b6040516001600160a01b038516907f03a38088da75ee2d80f6c753f55f8fd17602ae17d8bd0ef44d5e1f28ab5af11f90600090a250505050565b60006110dc60096121cd565b90505b90565b6000806110fd6000805160206142a98339815191528461132c565b9050600061111960008051602061423f8339815191528561132c565b905060006111356000805160206142c98339815191528661132c565b905082806111405750815b806111485750805b156111595760019350505050610627565b506000949350505050565b606061116f82611d32565b61118b5760405162461bcd60e51b81526004016105d59061376b565b600082815260066020526040902060010154600a805460609260001960ff91821601169081106111b757fe5b600091825260209182902001805460408051601f60026000196101006001871615020190941693909304928301859004850281018501909152818152928301828280156112455780601f1061121a57610100808354040283529160200191611245565b820191906000526020600020905b81548152906001019060200180831161122857829003601f168201915b5093979650505050505050565b6000805160206142c983398151915281565b60008051602061425f83398151915281565b600080600061128585856105ad565b60405163a0d975a760e01b8152909150600090309063a0d975a7906112b090899089906004016132e0565b60206040518083038186803b1580156112c857600080fd5b505afa1580156112dc573d6000803e3d6000fd5b505050506040513d601f19601f8201168201806040525081019061130091906130f5565b9196919550909350505050565b600082815260046020526040812061132590836121d1565b9392505050565b600082815260046020526040812061132590836121dd565b60009081526006602052604090206001015461010090046001600160a01b031690565b6000818152600660205260409020600a81015460609190829060ff1667ffffffffffffffff8111801561139957600080fd5b506040519080825280602002602001820160405280156113c3578160200160208202803683370190505b50905060015b600a83015460ff90811690821611610fc35760ff8082166000908152600b8501602052604090205483516001600160a01b03909116918491600019850190911690811061141257fe5b6001600160a01b03909216602092830291909101909101526001016113c9565b61143d60003361132c565b6114595760405162461bcd60e51b81526004016105d5906137b5565b30ff5b600061146782611d32565b6114835760405162461bcd60e51b81526004016105d590613c03565b5060009081526007602090815260408083206001600160a01b03949094168352929052205490565b600081565b816001600160a01b03166114c2611e8f565b6001600160a01b031614156114e95760405162461bcd60e51b81526004016105d590613d29565b80600260006114f6611e8f565b6001600160a01b03908116825260208083019390935260409182016000908120918716808252919093529120805460ff19169215159290921790915561153a611e8f565b6001600160a01b03167f17307eab39ab6107e8899845ad3d59bd9653f200f220920489ca2b5937696c31836040516115729190613387565b60405180910390a35050565b6008546001600160a01b031633146115a85760405162461bcd60e51b81526004016105d590613c56565b6115ba8a8a8a8a8a8a8a8a8a8a6121f2565b50505050505050505050565b6115d160003361132c565b6115ed5760405162461bcd60e51b81526004016105d5906137b5565b600880546001600160a01b0319166001600160a01b0392909216919091179055565b6116176129ab565b61161f6129ab565b60008381526006602081815260408084208054865260018082015460ff811688860152610100908190046001600160a01b039081168986015260028085015490911660608a0152600384015460808a0152600484015460a08a0152600584015460c08a01528387015460e08a0152968a9052948452600790910180548351928116159095026000190190941694909404601f8101839004830285018301909152808452908301828280156117145780601f106116e957610100808354040283529160200191611714565b820191906000526020600020905b8154815290600101906020018083116116f757829003601f168201915b50505050506101008281019190915260008481526006602090815260409182902060080180548351600260018316159096026000190190911694909404601f810183900483028501830190935282845291908301828280156117b75780601f1061178c576101008083540402835291602001916117b7565b820191906000526020600020905b81548152906001019060200180831161179a57829003601f168201915b50505050506101208201526000838152600660209081526040918290206009018054835160026001831615610100026000190190921691909104601f81018490048402820184019094528381529290918301828280156118585780601f1061182d57610100808354040283529160200191611858565b820191906000526020600020905b81548152906001019060200180831161183b57829003601f168201915b505050505061014082015292915050565b60008181526004602052604081206106039061260f565b60008080808080611891818861132c565b905060006118ad6000805160206142a98339815191528961132c565b905060006118c960008051602061423f8339815191528a61132c565b905060006118e56000805160206142c98339815191528b61132c565b9050600061190160008051602061425f8339815191528c61132c565b949b939a50919850965091945092505050565b60008281526004602052604090206002015461193290610448611e8f565b610d7c5760405162461bcd60e51b81526004016105d590613851565b61195960003361132c565b6119755760405162461bcd60e51b81526004016105d5906137b5565b6005805460ff1916911515919091179055565b61199360003361132c565b6119af5760405162461bcd60e51b81526004016105d5906137b5565b6119b88161213e565b6119d45760405162461bcd60e51b81526004016105d590613664565b8060ff16600114156119fd576119f86000805160206142a983398151915283611914565b611a39565b8060ff1660021415611a21576119f860008051602061423f83398151915283611914565b611a396000805160206142c983398151915283611914565b611a42826110e2565b611a7057611a707ff8890eedd7900ad88da6192fd03dbb69dbeee963b1a0ed738abe49ab3331aaf383611914565b6040516001600160a01b038316907f98552ded770f1d05a505572f3387c108dbc6b566ea3d49f83cff3d1f1c72a04290600090a25050565b6001600160a01b03918216600090815260026020908152604080832093909416825291909152205460ff1690565b6001600160a01b038416611afc5760405162461bcd60e51b81526004016105d5906138f5565b611b04611e8f565b6001600160a01b0316856001600160a01b03161480611b2a5750611b2a8561057a611e8f565b611b465760405162461bcd60e51b81526004016105d5906136b6565b6000611b50611e8f565b9050611b70818787611b618861261a565b611b6a8861261a565b87611e93565b611bb7836040518060600160405280602a815260200161427f602a913960008781526001602090815260408083206001600160a01b038d1684529091529020549190611f9b565b60008581526001602090815260408083206001600160a01b038b81168552925280832093909355871681522054611bee9084611e6a565b60008581526001602090815260408083206001600160a01b03808b168086529190935292819020939093559151909188811691908416907fc3d58168c5ae7397731d063d5bbf3d657854427343f4c083240f7aacaa2d0f6290611c54908990899061405c565b60405180910390a4610bc781878787878761265e565b6000805160206142a983398151915281565b6000611c966000805160206142a98339815191523361132c565b90506000611cb260008051602061423f8339815191523361132c565b90506000611cce6000805160206142c98339815191523361132c565b90508280611cd95750815b80611ce15750805b611cfd5760405162461bcd60e51b81526004016105d590613504565b611d0f8c338d8d8d8d8d8d8d8d6121f2565b505050505050505050505050565b6000611325836001600160a01b03841661272f565b600081611d3f60096121cd565b10611d4c57506001610627565b506000919050565b6001600160a01b038316611d7a5760405162461bcd60e51b81526004016105d59061398c565b6000611d84611e8f565b9050611db481856000611d968761261a565b611d9f8761261a565b60405180602001604052806000815250611e93565b611dfb8260405180606001604052806024815260200161421b6024913960008681526001602090815260408083206001600160a01b038b1684529091529020549190611f9b565b60008481526001602090815260408083206001600160a01b03808a16808652919093528184209490945551919291908416907fc3d58168c5ae7397731d063d5bbf3d657854427343f4c083240f7aacaa2d0f6290611e5c908890889061405c565b60405180910390a450505050565b6000828201838110156113255760405162461bcd60e51b81526004016105d59061362d565b3390565b60055460ff1615611ee357611ea960008761132c565b80611ec75750611ec76000805160206142c98339815191528761132c565b611ee35760405162461bcd60e51b81526004016105d590613a75565b6001600160a01b038416611ef657610bc7565b60005b835181101561074857600060066000868481518110611f1457fe5b602002602001015181526020019081526020016000209050611f4986868481518110611f3c57fe5b60200260200101516105ad565b611f9257600a8101805460ff198116600160ff9283160182161791829055166000908152600b82016020526040902080546001600160a01b0319166001600160a01b0388161790555b50600101611ef9565b60008184841115611fbf5760405162461bcd60e51b81526004016105d591906133c4565b505050900390565b611fd9846001600160a01b0316612779565b15610bc75760405163bc197c8160e01b81526001600160a01b0385169063bc197c8190612012908990899088908890889060040161323d565b602060405180830381600087803b15801561202c57600080fd5b505af192505050801561205c575060408051601f3d908101601f19168201909252612059918101906130d9565b60015b6120a557612068614147565b80612073575061208d565b8060405162461bcd60e51b81526004016105d591906133c4565b60405162461bcd60e51b81526004016105d5906133d7565b6001600160e01b0319811663bc197c8160e01b146107485760405162461bcd60e51b81526004016105d59061346d565b60008281526004602052604090206120ed9082611d1d565b15610c13576120fa611e8f565b6001600160a01b0316816001600160a01b0316837f2f8788117e7eff1d82e926ec794901d17c78024a50270940304540a733656f0d60405160405180910390a45050565b6000808260ff161180156121575750600a5460ff831611155b15611d4c57506001610627565b600082815260046020526040902061217c908261277f565b15610c1357612189611e8f565b6001600160a01b0316816001600160a01b0316837ff6391f5c32d9c69d2a47ea670b442974b53935d1edc7fd64eb21e047a839171b60405160405180910390a45050565b5490565b60006113258383612794565b6000611325836001600160a01b0384166127d9565b6121fb8861213e565b6122175760405162461bcd60e51b81526004016105d590613ef1565b60055460ff1615612281578760ff16600314612281576008546001600160a01b038a811691161461225a5760405162461bcd60e51b81526004016105d590613c98565b61226560008b61132c565b6122815760405162461bcd60e51b81526004016105d590613ce2565b8760ff16600114156122c6576122a56000805160206142a98339815191528a61132c565b6122c15760405162461bcd60e51b81526004016105d590613dbb565b61233a565b8760ff1660021415612306576122ea60008051602061423f8339815191528a61132c565b6122c15760405162461bcd60e51b81526004016105d5906137fe565b61231e6000805160206142c98339815191528a61132c565b61233a5760405162461bcd60e51b81526004016105d590613ba6565b61234460096127f1565b60006006600061235460096121cd565b8152602001908152602001600020905061236e60096121cd565b8160000181905550888160010160006101000a81548160ff021916908360ff1602179055508a8160020160006101000a8154816001600160a01b0302191690836001600160a01b03160217905550898160010160016101000a8154816001600160a01b0302191690836001600160a01b0316021790555086816003018190555085816004018190555084816006018190555042816005018190555083816007019080519060200190612421929190612a1a565b5082516124379060088301906020860190612a1a565b50815161244d9060098301906020850190612a1a565b506124728b61245c60096121cd565b8a604051806020016040528060008152506127fa565b8860ff16600314156124f65760028101548154612499916001600160a01b0316908a611d54565b8054600090815260076020908152604080832060028501546001600160a01b031684529091529020546124cc9089611e6a565b8154600090815260076020908152604080832060028601546001600160a01b031684529091529020555b8060020160009054906101000a90046001600160a01b03166001600160a01b03168160010160019054906101000a90046001600160a01b03166001600160a01b03167f99cc3eeb446560c9a2d2483bc5160735ec0fb1851aea3bde32e7a56c30c11da68a600760008660000154815260200190815260200160002060008660020160009054906101000a90046001600160a01b03166001600160a01b03166001600160a01b031681526020019081526020016000205485600001548660010160009054906101000a900460ff168760030154886004015489600601548a600501548b6007018c6008018d6009016040516125fa9b9a9998979695949392919061406a565b60405180910390a35050505050505050505050565b6000610603826121cd565b60408051600180825281830190925260609182919060208083019080368337019050509050828160008151811061264d57fe5b602090810291909101015292915050565b612670846001600160a01b0316612779565b15610bc75760405163f23a6e6160e01b81526001600160a01b0385169063f23a6e61906126a9908990899088908890889060040161329b565b602060405180830381600087803b1580156126c357600080fd5b505af19250505080156126f3575060408051601f3d908101601f191682019092526126f0918101906130d9565b60015b6126ff57612068614147565b6001600160e01b0319811663f23a6e6160e01b146107485760405162461bcd60e51b81526004016105d59061346d565b600061273b83836127d9565b61277157508154600181810184556000848152602080822090930184905584548482528286019093526040902091909155610603565b506000610603565b3b151590565b6000611325836001600160a01b0384166128e5565b815460009082106127b75760405162461bcd60e51b81526004016105d59061342b565b8260000182815481106127c657fe5b9060005260206000200154905092915050565b60009081526001919091016020526040902054151590565b80546001019055565b6001600160a01b0384166128205760405162461bcd60e51b81526004016105d590613e53565b600061282a611e8f565b905061283c81600087611b618861261a565b60008481526001602090815260408083206001600160a01b03891684529091529020546128699084611e6a565b60008581526001602090815260408083206001600160a01b03808b16808652919093528184209490945551908416907fc3d58168c5ae7397731d063d5bbf3d657854427343f4c083240f7aacaa2d0f62906128c7908990899061405c565b60405180910390a46128de8160008787878761265e565b5050505050565b600081815260018301602052604081205480156129a1578354600019808301919081019060009087908390811061291857fe5b906000526020600020015490508087600001848154811061293557fe5b60009182526020808320909101929092558281526001898101909252604090209084019055865487908061296557fe5b60019003818190600052602060002001600090559055866001016000878152602001908152602001600020600090556001945050505050610603565b6000915050610603565b60405180610160016040528060008152602001600060ff16815260200160006001600160a01b0316815260200160006001600160a01b03168152602001600081526020016000815260200160008152602001600081526020016060815260200160608152602001606081525090565b828054600181600116156101000203166002900490600052602060002090601f016020900481019282601f10612a5b57805160ff1916838001178555612a88565b82800160010185558215612a88579182015b82811115612a88578251825591602001919060010190612a6d565b50612a94929150612a98565b5090565b5b80821115612a945760008155600101612a99565b80356001600160a01b038116811461060357600080fd5b600082601f830112612ad4578081fd5b8135612ae7612ae282614115565b6140ee565b818152915060208083019084810181840286018201871015612b0857600080fd5b60005b84811015612b2757813584529282019290820190600101612b0b565b505050505092915050565b600082601f830112612b42578081fd5b813567ffffffffffffffff811115612b58578182fd5b612b6b601f8201601f19166020016140ee565b9150808252836020828501011115612b8257600080fd5b8060208401602084013760009082016020015292915050565b803560ff8116811461060357600080fd5b600060208284031215612bbd578081fd5b6113258383612aad565b60008060408385031215612bd9578081fd5b612be38484612aad565b9150612bf28460208501612aad565b90509250929050565b600080600080600060a08688031215612c12578081fd5b8535612c1d816141ec565b94506020860135612c2d816141ec565b9350604086013567ffffffffffffffff80821115612c49578283fd5b612c5589838a01612ac4565b94506060880135915080821115612c6a578283fd5b612c7689838a01612ac4565b93506080880135915080821115612c8b578283fd5b50612c9888828901612b32565b9150509295509295909350565b600080600080600060a08688031215612cbc578081fd5b612cc68787612aad565b9450612cd58760208801612aad565b93506040860135925060608601359150608086013567ffffffffffffffff811115612cfe578182fd5b612c9888828901612b32565b6000806000806000806000806000806101408b8d031215612d29578485fd5b612d338c8c612aad565b9950612d428c60208d01612aad565b9850612d518c60408d01612b9b565b975060608b0135965060808b0135955060a08b0135945060c08b0135935060e08b013567ffffffffffffffff80821115612d89578485fd5b612d958e838f01612b32565b94506101008d0135915080821115612dab578384fd5b612db78e838f01612b32565b93506101208d0135915080821115612dcd578283fd5b50612dda8d828e01612b32565b9150509295989b9194979a5092959850565b60008060408385031215612dfe578182fd5b612e088484612aad565b915060208301358015158114612e1c578182fd5b809150509250929050565b60008060408385031215612e39578182fd5b612e438484612aad565b946020939093013593505050565b600080600060608486031215612e65578081fd5b612e6f8585612aad565b95602085013595506040909401359392505050565b60008060408385031215612e96578182fd5b612ea08484612aad565b9150612bf28460208501612b9b565b60008060008060008060008060006101208a8c031215612ecd578283fd5b612ed78b8b612aad565b9850612ee68b60208c01612b9b565b975060408a0135965060608a0135955060808a0135945060a08a0135935060c08a013567ffffffffffffffff80821115612f1e578485fd5b612f2a8d838e01612b32565b945060e08c0135915080821115612f3f578384fd5b612f4b8d838e01612b32565b93506101008c0135915080821115612f61578283fd5b50612f6e8c828d01612b32565b9150509295985092959850929598565b60008060408385031215612f90578182fd5b823567ffffffffffffffff80821115612fa7578384fd5b818501915085601f830112612fba578384fd5b8135612fc8612ae282614115565b80828252602080830192508086018a828387028901011115612fe8578889fd5b8896505b8487101561301257612ffe8b82612aad565b845260019690960195928101928101612fec565b509096508701359350505080821115613029578283fd5b5061303685828601612ac4565b9150509250929050565b600060208284031215613051578081fd5b81358015158114611325578182fd5b600060208284031215613071578081fd5b5035919050565b6000806040838503121561308a578182fd5b823591506020830135612e1c816141ec565b600080604083850312156130ae578182fd5b50508035926020909101359150565b6000602082840312156130ce578081fd5b813561132581614204565b6000602082840312156130ea578081fd5b815161132581614204565b600060208284031215613106578081fd5b5051919050565b6001600160a01b03169052565b6000815180845260208085019450808401835b838110156131495781518752958201959082019060010161312d565b509495945050505050565b60008151808452815b818110156131795760208185018101518683018201520161315d565b8181111561318a5782602083870101525b50601f01601f19169290920160200192915050565b600081546001808216600081146131bd57600181146131db57613219565b60028304607f16865260ff1983166020870152604086019350613219565b600283048087526131eb86614135565b60005b8281101561320f5781546020828b01015284820191506020810190506131ee565b8801602001955050505b50505092915050565b60ff169052565b6001600160a01b0391909116815260200190565b6001600160a01b0386811682528516602082015260a0604082018190526000906132699083018661311a565b828103606084015261327b818661311a565b9050828103608084015261328f8185613154565b98975050505050505050565b6001600160a01b03868116825285166020820152604081018490526060810183905260a0608082018190526000906132d590830184613154565b979650505050505050565b6001600160a01b03929092168252602082015260400190565b6020808252825182820181905260009190848201906040850190845b8181101561333a5783516001600160a01b031683529284019291840191600101613315565b50909695505050505050565b600060208252611325602083018461311a565b60006040825261336c604083018561311a565b828103602084015261337e818561311a565b95945050505050565b901515815260200190565b941515855292151560208501529015156040840152151560608301521515608082015260a00190565b90815260200190565b6000602082526113256020830184613154565b60208082526034908201527f455243313135353a207472616e7366657220746f206e6f6e20455243313135356040820152732932b1b2b4bb32b91034b6b83632b6b2b73a32b960611b606082015260800190565b60208082526022908201527f456e756d657261626c655365743a20696e646578206f7574206f6620626f756e604082015261647360f01b606082015260800190565b60208082526028908201527f455243313135353a204552433131353552656365697665722072656a656374656040820152676420746f6b656e7360c01b606082015260800190565b6020808252602f908201527f416363657373436f6e74726f6c3a2073656e646572206d75737420626520616e60408201526e0818591b5a5b881d1bc819dc985b9d608a1b606082015260800190565b60208082526029908201527f434c4d383a3a6f6e6c794465616c65723a206d73672e73656e646572206e6f746040820152681030903232b0b632b960b91b606082015260800190565b6020808252602b908201527f455243313135353a2062616c616e636520717565727920666f7220746865207a60408201526a65726f206164647265737360a81b606082015260800190565b60208082526031908201527f455243313135353a2062617463682062616c616e636520717565727920666f7260408201527020746865207a65726f206164647265737360781b606082015260800190565b60208082526024908201527f434c4d383a3a7265746972653a20746f6b656e496420646f6573206e6f7420656040820152631e1a5cdd60e21b606082015260800190565b6020808252601b908201527f536166654d6174683a206164646974696f6e206f766572666c6f770000000000604082015260600190565b60208082526032908201527f434c4d383a3a756e72656769737465724465616c65723a20746f6b656e54797060408201527119525908191bd95cc81b9bdd08195e1a5cdd60721b606082015260800190565b60208082526029908201527f455243313135353a2063616c6c6572206973206e6f74206f776e6572206e6f7260408201526808185c1c1c9bdd995960ba1b606082015260800190565b60208082526046908201527f434c4d383a3a756e7265676973746572436f6e73756d6572286c696d6974656460408201527f293a206f6e6c792061646d696e2063616e20756e726567697374657220636f6e60608201526573756d65727360d01b608082015260a00190565b6020808252602a908201527f434c4d383a3a676574546f6b656e547970653a20746f6b656e496420646f6573604082015269081b9bdd08195e1a5cdd60b21b606082015260800190565b60208082526029908201527f434c4d383a3a6f6e6c7941646d696e3a206d73672e73656e646572206e6f74206040820152683a34329030b236b4b760b91b606082015260800190565b60208082526033908201527f434c4d383a3a5f69737375653a20697373756572206e6f7420612072656769736040820152723a32b932b21037b33339b2ba103232b0b632b960691b606082015260800190565b60208082526030908201527f416363657373436f6e74726f6c3a2073656e646572206d75737420626520616e60408201526f2061646d696e20746f207265766f6b6560801b606082015260800190565b60208082526034908201527f434c4d383a3a7265746972653a206e6f7420656e6f75676820617661696c61626040820152736c652062616c616e636520746f2072657469726560601b606082015260800190565b60208082526025908201527f455243313135353a207472616e7366657220746f20746865207a65726f206164604082015264647265737360d81b606082015260800190565b60208082526032908201527f455243313135353a207472616e736665722063616c6c6572206973206e6f74206040820152711bdddb995c881b9bdc88185c1c1c9bdd995960721b606082015260800190565b60208082526023908201527f455243313135353a206275726e2066726f6d20746865207a65726f206164647260408201526265737360e81b606082015260800190565b60208082526036908201527f434c4d383a3a7472616e736665723a2073656e64657220616e642072656365696040820152757665722063616e6e6f74206265207468652073616d6560501b606082015260800190565b60208082526030908201527f434c4d383a3a72656769737465724465616c65723a20746f6b656e547970654960408201526f1908191bd95cc81b9bdd08195e1a5cdd60821b606082015260800190565b6020808252605a908201527f434c4d383a3a5f6265666f7265546f6b656e5472616e73666572286c696d697460408201527f6564293a206f6e6c792061646d696e20616e6420656d697373696f6e7320617560608201527f6469746f72732063616e207472616e7366657220746f6b656e73000000000000608082015260a00190565b60208082526026908201527f434c4d383a3a7472616e736665723a20746f6b656e496420646f6573206e6f7460408201526508195e1a5cdd60d21b606082015260800190565b60208082526042908201527f434c4d383a3a7265676973746572436f6e73756d6572286c696d69746564293a60408201527f206f6e6c792061646d696e2063616e20726567697374657220636f6e73756d65606082015261727360f01b608082015260a00190565b60208082526037908201527f434c4d383a3a5f69737375653a20697373756572206e6f74206120726567697360408201527f746572656420656d697373696f6e732061756469746f72000000000000000000606082015260800190565b60208082526033908201527f434c4d383a3a676574546f6b656e52657469726564416d6f756e743a20746f6b604082015272195b925908191bd95cc81b9bdd08195e1a5cdd606a1b606082015260800190565b60208082526022908201527f434c4d383a3a6f6e6c7944414f3a20596f7520617265206e6f74207468652044604082015261414f60f01b606082015260800190565b6020808252602a908201527f434c4d383a3a5f6973737565286c696d69746564293a20697373756572206e6f604082015269742074696d656c6f636b60b01b606082015260800190565b60208082526027908201527f434c4d383a3a5f6973737565286c696d69746564293a20697373756565206e6f6040820152663a1030b236b4b760c91b606082015260800190565b60208082526029908201527f455243313135353a2073657474696e6720617070726f76616c20737461747573604082015268103337b91039b2b63360b91b606082015260800190565b60208082526029908201527f455243313135353a206163636f756e747320616e6420696473206c656e677468604082015268040dad2e6dac2e8c6d60bb1b606082015260800190565b60208082526030908201527f434c4d383a3a5f69737375653a20697373756572206e6f74206120726567697360408201526f3a32b932b2102922a1903232b0b632b960811b606082015260800190565b60208082526028908201527f455243313135353a2069647320616e6420616d6f756e7473206c656e677468206040820152670dad2e6dac2e8c6d60c31b606082015260800190565b60208082526021908201527f455243313135353a206d696e7420746f20746865207a65726f206164647265736040820152607360f81b606082015260800190565b6020808252603d908201527f434c4d383a3a636f6e73756d65724f724465616c65723a206d73672e73656e6460408201527f6572206e6f74206120636f6e73756d6572206f722061206465616c6572000000606082015260800190565b60208082526024908201527f434c4d383a3a5f69737375653a20746f6b656e54797065496420697320696e76604082015263185b1a5960e21b606082015260800190565b6020808252602f908201527f416363657373436f6e74726f6c3a2063616e206f6e6c792072656e6f756e636560408201526e103937b632b9903337b91039b2b63360891b606082015260800190565b600060208252825160208301526020830151613fa36040840182613222565b506040830151613fb6606084018261310d565b506060830151613fc9608084018261310d565b50608083015160a083015260a083015160c083015260c083015160e083015260e08301516101008181850152808501519150506101606101208181860152614015610180860184613154565b9250808601519050601f196101408187860301818801526140368584613154565b9088015187820390920184880152935090506140528382613154565b9695505050505050565b918252602082015260400190565b60006101608d83528c60208401528b604084015260ff8b1660608401528960808401528860a08401528760c08401528660e0840152806101008401526140b28184018761319f565b90508281036101208401526140c7818661319f565b90508281036101408401526140dc818561319f565b9e9d5050505050505050505050505050565b60405181810167ffffffffffffffff8111828210171561410d57600080fd5b604052919050565b600067ffffffffffffffff82111561412b578081fd5b5060209081020190565b60009081526020902090565b60e01c90565b600060443d1015614157576110df565b600481823e6308c379a061416b8251614141565b14614175576110df565b6040513d600319016004823e80513d67ffffffffffffffff81602484011181841117156141a557505050506110df565b828401925082519150808211156141bf57505050506110df565b503d830160208284010111156141d7575050506110df565b601f01601f1916810160200160405291505090565b6001600160a01b038116811461420157600080fd5b50565b6001600160e01b03198116811461420157600080fdfe455243313135353a206275726e20616d6f756e7420657863656564732062616c616e6365ede6574deba8f02ada7888448a497b08844d62e044ed533343a673be3ffcde5f5e1aa547d3dade8c68b013a47ad41c2bcc9b9e4b0765b0fb616780e15786e76a455243313135353a20696e73756666696369656e742062616c616e636520666f72207472616e736665722ab9f1da92e74aaa01eb75a871557505b11dd8d36832a34bb21bbee88b08d860e97dad3dbe5042e7384b1572cf966a15e089576a62b5126c5ef1d184ab18b12ca2646970667358221220660c6bc412c9a7ba5a063de4596ab683732c6a6979f24ce8b31e225fbeea172f64736f6c63430007000033f8890eedd7900ad88da6192fd03dbb69dbeee963b1a0ed738abe49ab3331aaf3",
  "devdoc": {
    "kind": "dev",
    "methods": {
      "balanceOf(address,uint256)": {
        "details": "See {IERC1155-balanceOf}. Requirements: - `account` cannot be the zero address."
      },
      "balanceOfBatch(address[],uint256[])": {
        "details": "See {IERC1155-balanceOfBatch}. Requirements: - `accounts` and `ids` must have the same length."
      },
      "getIssuer(uint256)": {
        "details": "returns issuer of a given tokenId"
      },
      "getNumOfUniqueTokens()": {
        "details": "returns number of unique tokens"
      },
      "getRoleAdmin(bytes32)": {
        "details": "Returns the admin role that controls `role`. See {grantRole} and {revokeRole}. To change a role's admin, use {_setRoleAdmin}."
      },
      "getRoleMember(bytes32,uint256)": {
        "details": "Returns one of the accounts that have `role`. `index` must be a value between 0 and {getRoleMemberCount}, non-inclusive. Role bearers are not sorted in any particular way, and their ordering may change at any point. WARNING: When using {getRoleMember} and {getRoleMemberCount}, make sure you perform all queries on the same block. See the following https://forum.openzeppelin.com/t/iterating-over-elements-on-enumerableset-in-openzeppelin-contracts/2296[forum post] for more information."
      },
      "getRoleMemberCount(bytes32)": {
        "details": "Returns the number of accounts that have `role`. Can be used together with {getRoleMember} to enumerate all bearers of a role."
      },
      "getRoles(address)": {
        "details": "Helper function for returning tuple of bools of role membership",
        "params": {
          "account": "address to check roles"
        }
      },
      "getTokenRetiredAmount(address,uint256)": {
        "details": "returns the retired amount on a token",
        "params": {
          "tokenId": "token to check"
        }
      },
      "getTokenType(uint256)": {
        "details": "returns the token name for the given token as a string value",
        "params": {
          "tokenId": "token to check"
        }
      },
      "grantRole(bytes32,address)": {
        "details": "Grants `role` to `account`. If `account` had not been already granted `role`, emits a {RoleGranted} event. Requirements: - the caller must have ``role``'s admin role."
      },
      "hasRole(bytes32,address)": {
        "details": "Returns `true` if `account` has been granted `role`."
      },
      "isApprovedForAll(address,address)": {
        "details": "See {IERC1155-isApprovedForAll}."
      },
      "isConsumerRegistered(address)": {
        "details": "returns true if Consumers's account is registered",
        "params": {
          "account": "address of the dealer"
        }
      },
      "isDealerRegistered(address)": {
        "details": "returns true if Dealer's account is registered",
        "params": {
          "account": "address of the dealer"
        }
      },
      "issue(address,uint8,uint256,uint256,uint256,uint256,string,string,string)": {
        "details": "External function to mint an amount of a token Only authorized dealer of associated token type can call this function",
        "params": {
          "quantity": "of the token to mint For ex: if one needs 100 full tokens, the caller should set the amount as (100 * 10^4) = 1,000,000 (assuming the token's decimals is set to 4)"
        }
      },
      "issueFromDAO(address,address,uint8,uint256,uint256,uint256,uint256,string,string,string)": {
        "details": "Issue function for DAO to use proposer as issuer Must be called from Timelock contract through a successful proposal"
      },
      "registerConsumer(address)": {
        "details": "returns true if Consumer's account is registered for the given token",
        "params": {
          "account": "address of the consumer"
        }
      },
      "registerDealer(address,uint8)": {
        "details": "Only contract owner can register Dealers",
        "params": {
          "account": "address of the dealer to register Only registered Dealers can transfer tokens"
        }
      },
      "renounceRole(bytes32,address)": {
        "details": "Revokes `role` from the calling account. Roles are often managed via {grantRole} and {revokeRole}: this function's purpose is to provide a mechanism for accounts to lose their privileges if they are compromised (such as when a trusted device is misplaced). If the calling account had been granted `role`, emits a {RoleRevoked} event. Requirements: - the caller must be `account`."
      },
      "retire(uint256,uint256)": {
        "details": "sets the token to the retire state to disable transfers, mints and burns",
        "params": {
          "tokenId": "token to set in pause state   Only contract owner can pause or resume tokens"
        }
      },
      "revokeRole(bytes32,address)": {
        "details": "Revokes `role` from `account`. If `account` had been granted `role`, emits a {RoleRevoked} event. Requirements: - the caller must have ``role``'s admin role."
      },
      "safeBatchTransferFrom(address,address,uint256[],uint256[],bytes)": {
        "details": "See {IERC1155-safeBatchTransferFrom}."
      },
      "safeTransferFrom(address,address,uint256,uint256,bytes)": {
        "details": "See {IERC1155-safeTransferFrom}."
      },
      "setApprovalForAll(address,bool)": {
        "details": "See {IERC1155-setApprovalForAll}."
      },
      "supportsInterface(bytes4)": {
        "details": "See {IERC165-supportsInterface}. Time complexity O(1), guaranteed to always use less than 30 000 gas."
      },
      "transfer(address,uint256,uint256)": {
        "details": "transfers the value to the 'to' account for tokenId",
        "params": {
          "to": "recipient address",
          "tokenId": "tokenId for the transfer",
          "value": "amount of transfer Transfer can start only when both parties are registered and the token is not paused Note: Token holders can arbitrarily call safeTransferFrom() without these checks"
        }
      },
      "unregisterConsumer(address)": {
        "details": "Only contract owner can unregister Consumers",
        "params": {
          "account": "address to be unregistered"
        }
      },
      "unregisterDealer(address,uint8)": {
        "details": "Only contract owner can unregister Dealers",
        "params": {
          "account": "address to be unregistered"
        }
      },
      "uri(uint256)": {
        "details": "See {IERC1155MetadataURI-uri}. This implementation returns the same URI for *all* token types. It relies on the token type ID substitution mechanism https://eips.ethereum.org/EIPS/eip-1155#metadata[defined in the EIP]. Clients calling this function must replace the `\\{id\\}` substring with the actual token type ID."
      }
    },
    "version": 1
  },
  "userdoc": {
    "kind": "user",
    "methods": {},
    "version": 1
  },
  "storageLayout": {
    "storage": [
      {
        "astId": 319,
        "contract": "contracts/NetEmissionsTokenNetwork.sol:NetEmissionsTokenNetwork",
        "label": "_supportedInterfaces",
        "offset": 0,
        "slot": "0",
        "type": "t_mapping(t_bytes4,t_bool)"
      },
      {
        "astId": 671,
        "contract": "contracts/NetEmissionsTokenNetwork.sol:NetEmissionsTokenNetwork",
        "label": "_balances",
        "offset": 0,
        "slot": "1",
        "type": "t_mapping(t_uint256,t_mapping(t_address,t_uint256))"
      },
      {
        "astId": 677,
        "contract": "contracts/NetEmissionsTokenNetwork.sol:NetEmissionsTokenNetwork",
        "label": "_operatorApprovals",
        "offset": 0,
        "slot": "2",
        "type": "t_mapping(t_address,t_mapping(t_address,t_bool))"
      },
      {
        "astId": 679,
        "contract": "contracts/NetEmissionsTokenNetwork.sol:NetEmissionsTokenNetwork",
        "label": "_uri",
        "offset": 0,
        "slot": "3",
        "type": "t_string_storage"
      },
      {
        "astId": 45,
        "contract": "contracts/NetEmissionsTokenNetwork.sol:NetEmissionsTokenNetwork",
        "label": "_roles",
        "offset": 0,
        "slot": "4",
        "type": "t_mapping(t_bytes32,t_struct(RoleData)41_storage)"
      },
      {
        "astId": 3097,
        "contract": "contracts/NetEmissionsTokenNetwork.sol:NetEmissionsTokenNetwork",
        "label": "limitedMode",
        "offset": 0,
        "slot": "5",
        "type": "t_bool"
      },
      {
        "astId": 3155,
        "contract": "contracts/NetEmissionsTokenNetwork.sol:NetEmissionsTokenNetwork",
        "label": "_tokenDetails",
        "offset": 0,
        "slot": "6",
        "type": "t_mapping(t_uint256,t_struct(CarbonTokenDetails)3151_storage)"
      },
      {
        "astId": 3161,
        "contract": "contracts/NetEmissionsTokenNetwork.sol:NetEmissionsTokenNetwork",
        "label": "_retiredBalances",
        "offset": 0,
        "slot": "7",
        "type": "t_mapping(t_uint256,t_mapping(t_address,t_uint256))"
      },
      {
        "astId": 3167,
        "contract": "contracts/NetEmissionsTokenNetwork.sol:NetEmissionsTokenNetwork",
        "label": "timelock",
        "offset": 0,
        "slot": "8",
        "type": "t_address"
      },
      {
        "astId": 3169,
        "contract": "contracts/NetEmissionsTokenNetwork.sol:NetEmissionsTokenNetwork",
        "label": "_numOfUniqueTokens",
        "offset": 0,
        "slot": "9",
        "type": "t_struct(Counter)2094_storage"
      },
      {
        "astId": 3176,
        "contract": "contracts/NetEmissionsTokenNetwork.sol:NetEmissionsTokenNetwork",
        "label": "_TOKEN_TYPES",
        "offset": 0,
        "slot": "10",
        "type": "t_array(t_string_storage)dyn_storage"
      }
    ],
    "types": {
      "t_address": {
        "encoding": "inplace",
        "label": "address",
        "numberOfBytes": "20"
      },
      "t_array(t_bytes32)dyn_storage": {
        "base": "t_bytes32",
        "encoding": "dynamic_array",
        "label": "bytes32[]",
        "numberOfBytes": "32"
      },
      "t_array(t_string_storage)dyn_storage": {
        "base": "t_string_storage",
        "encoding": "dynamic_array",
        "label": "string[]",
        "numberOfBytes": "32"
      },
      "t_bool": {
        "encoding": "inplace",
        "label": "bool",
        "numberOfBytes": "1"
      },
      "t_bytes32": {
        "encoding": "inplace",
        "label": "bytes32",
        "numberOfBytes": "32"
      },
      "t_bytes4": {
        "encoding": "inplace",
        "label": "bytes4",
        "numberOfBytes": "4"
      },
      "t_mapping(t_address,t_bool)": {
        "encoding": "mapping",
        "key": "t_address",
        "label": "mapping(address => bool)",
        "numberOfBytes": "32",
        "value": "t_bool"
      },
      "t_mapping(t_address,t_mapping(t_address,t_bool))": {
        "encoding": "mapping",
        "key": "t_address",
        "label": "mapping(address => mapping(address => bool))",
        "numberOfBytes": "32",
        "value": "t_mapping(t_address,t_bool)"
      },
      "t_mapping(t_address,t_uint256)": {
        "encoding": "mapping",
        "key": "t_address",
        "label": "mapping(address => uint256)",
        "numberOfBytes": "32",
        "value": "t_uint256"
      },
      "t_mapping(t_bytes32,t_struct(RoleData)41_storage)": {
        "encoding": "mapping",
        "key": "t_bytes32",
        "label": "mapping(bytes32 => struct AccessControl.RoleData)",
        "numberOfBytes": "32",
        "value": "t_struct(RoleData)41_storage"
      },
      "t_mapping(t_bytes32,t_uint256)": {
        "encoding": "mapping",
        "key": "t_bytes32",
        "label": "mapping(bytes32 => uint256)",
        "numberOfBytes": "32",
        "value": "t_uint256"
      },
      "t_mapping(t_bytes4,t_bool)": {
        "encoding": "mapping",
        "key": "t_bytes4",
        "label": "mapping(bytes4 => bool)",
        "numberOfBytes": "32",
        "value": "t_bool"
      },
      "t_mapping(t_uint256,t_mapping(t_address,t_uint256))": {
        "encoding": "mapping",
        "key": "t_uint256",
        "label": "mapping(uint256 => mapping(address => uint256))",
        "numberOfBytes": "32",
        "value": "t_mapping(t_address,t_uint256)"
      },
      "t_mapping(t_uint256,t_struct(CarbonTokenDetails)3151_storage)": {
        "encoding": "mapping",
        "key": "t_uint256",
        "label": "mapping(uint256 => struct NetEmissionsTokenNetwork.CarbonTokenDetails)",
        "numberOfBytes": "32",
        "value": "t_struct(CarbonTokenDetails)3151_storage"
      },
      "t_mapping(t_uint8,t_address)": {
        "encoding": "mapping",
        "key": "t_uint8",
        "label": "mapping(uint8 => address)",
        "numberOfBytes": "32",
        "value": "t_address"
      },
      "t_string_storage": {
        "encoding": "bytes",
        "label": "string",
        "numberOfBytes": "32"
      },
      "t_struct(AddressSet)2410_storage": {
        "encoding": "inplace",
        "label": "struct EnumerableSet.AddressSet",
        "members": [
          {
            "astId": 2409,
            "contract": "contracts/NetEmissionsTokenNetwork.sol:NetEmissionsTokenNetwork",
            "label": "_inner",
            "offset": 0,
            "slot": "0",
            "type": "t_struct(Set)2145_storage"
          }
        ],
        "numberOfBytes": "64"
      },
      "t_struct(CarbonTokenDetails)3151_storage": {
        "encoding": "inplace",
        "label": "struct NetEmissionsTokenNetwork.CarbonTokenDetails",
        "members": [
          {
            "astId": 3124,
            "contract": "contracts/NetEmissionsTokenNetwork.sol:NetEmissionsTokenNetwork",
            "label": "tokenId",
            "offset": 0,
            "slot": "0",
            "type": "t_uint256"
          },
          {
            "astId": 3126,
            "contract": "contracts/NetEmissionsTokenNetwork.sol:NetEmissionsTokenNetwork",
            "label": "tokenTypeId",
            "offset": 0,
            "slot": "1",
            "type": "t_uint8"
          },
          {
            "astId": 3128,
            "contract": "contracts/NetEmissionsTokenNetwork.sol:NetEmissionsTokenNetwork",
            "label": "issuer",
            "offset": 1,
            "slot": "1",
            "type": "t_address"
          },
          {
            "astId": 3130,
            "contract": "contracts/NetEmissionsTokenNetwork.sol:NetEmissionsTokenNetwork",
            "label": "issuee",
            "offset": 0,
            "slot": "2",
            "type": "t_address"
          },
          {
            "astId": 3132,
            "contract": "contracts/NetEmissionsTokenNetwork.sol:NetEmissionsTokenNetwork",
            "label": "fromDate",
            "offset": 0,
            "slot": "3",
            "type": "t_uint256"
          },
          {
            "astId": 3134,
            "contract": "contracts/NetEmissionsTokenNetwork.sol:NetEmissionsTokenNetwork",
            "label": "thruDate",
            "offset": 0,
            "slot": "4",
            "type": "t_uint256"
          },
          {
            "astId": 3136,
            "contract": "contracts/NetEmissionsTokenNetwork.sol:NetEmissionsTokenNetwork",
            "label": "dateCreated",
            "offset": 0,
            "slot": "5",
            "type": "t_uint256"
          },
          {
            "astId": 3138,
            "contract": "contracts/NetEmissionsTokenNetwork.sol:NetEmissionsTokenNetwork",
            "label": "automaticRetireDate",
            "offset": 0,
            "slot": "6",
            "type": "t_uint256"
          },
          {
            "astId": 3140,
            "contract": "contracts/NetEmissionsTokenNetwork.sol:NetEmissionsTokenNetwork",
            "label": "metadata",
            "offset": 0,
            "slot": "7",
            "type": "t_string_storage"
          },
          {
            "astId": 3142,
            "contract": "contracts/NetEmissionsTokenNetwork.sol:NetEmissionsTokenNetwork",
            "label": "manifest",
            "offset": 0,
            "slot": "8",
            "type": "t_string_storage"
          },
          {
            "astId": 3144,
            "contract": "contracts/NetEmissionsTokenNetwork.sol:NetEmissionsTokenNetwork",
            "label": "description",
            "offset": 0,
            "slot": "9",
            "type": "t_string_storage"
          },
          {
            "astId": 3146,
            "contract": "contracts/NetEmissionsTokenNetwork.sol:NetEmissionsTokenNetwork",
            "label": "_totalHolders",
            "offset": 0,
            "slot": "10",
            "type": "t_uint8"
          },
          {
            "astId": 3150,
            "contract": "contracts/NetEmissionsTokenNetwork.sol:NetEmissionsTokenNetwork",
            "label": "holders",
            "offset": 0,
            "slot": "11",
            "type": "t_mapping(t_uint8,t_address)"
          }
        ],
        "numberOfBytes": "384"
      },
      "t_struct(Counter)2094_storage": {
        "encoding": "inplace",
        "label": "struct Counters.Counter",
        "members": [
          {
            "astId": 2093,
            "contract": "contracts/NetEmissionsTokenNetwork.sol:NetEmissionsTokenNetwork",
            "label": "_value",
            "offset": 0,
            "slot": "0",
            "type": "t_uint256"
          }
        ],
        "numberOfBytes": "32"
      },
      "t_struct(RoleData)41_storage": {
        "encoding": "inplace",
        "label": "struct AccessControl.RoleData",
        "members": [
          {
            "astId": 38,
            "contract": "contracts/NetEmissionsTokenNetwork.sol:NetEmissionsTokenNetwork",
            "label": "members",
            "offset": 0,
            "slot": "0",
            "type": "t_struct(AddressSet)2410_storage"
          },
          {
            "astId": 40,
            "contract": "contracts/NetEmissionsTokenNetwork.sol:NetEmissionsTokenNetwork",
            "label": "adminRole",
            "offset": 0,
            "slot": "2",
            "type": "t_bytes32"
          }
        ],
        "numberOfBytes": "96"
      },
      "t_struct(Set)2145_storage": {
        "encoding": "inplace",
        "label": "struct EnumerableSet.Set",
        "members": [
          {
            "astId": 2140,
            "contract": "contracts/NetEmissionsTokenNetwork.sol:NetEmissionsTokenNetwork",
            "label": "_values",
            "offset": 0,
            "slot": "0",
            "type": "t_array(t_bytes32)dyn_storage"
          },
          {
            "astId": 2144,
            "contract": "contracts/NetEmissionsTokenNetwork.sol:NetEmissionsTokenNetwork",
            "label": "_indexes",
            "offset": 0,
            "slot": "1",
            "type": "t_mapping(t_bytes32,t_uint256)"
          }
        ],
        "numberOfBytes": "64"
      },
      "t_uint256": {
        "encoding": "inplace",
        "label": "uint256",
        "numberOfBytes": "32"
      },
      "t_uint8": {
        "encoding": "inplace",
        "label": "uint8",
        "numberOfBytes": "1"
      }
    }
  }
}