{
  "_format": "hh-sol-artifact-1",
  "contractName": "CarbonTracker",
  "sourceName": "contracts/Governance/CarbonTracker.sol",
  "abi": [
    {
      "anonymous": false,
      "inputs": [
        {
          "indexed": true,
          "internalType": "address",
          "name": "owner",
          "type": "address"
        },
        {
          "indexed": true,
          "internalType": "address",
          "name": "approved",
          "type": "address"
        },
        {
          "indexed": true,
          "internalType": "uint256",
          "name": "tokenId",
          "type": "uint256"
        }
      ],
      "name": "Approval",
      "type": "event"
    },
    {
      "anonymous": false,
      "inputs": [
        {
          "indexed": true,
          "internalType": "address",
          "name": "owner",
          "type": "address"
        },
        {
          "indexed": true,
          "internalType": "address",
          "name": "operator",
          "type": "address"
        },
        {
          "indexed": false,
          "internalType": "bool",
          "name": "approved",
          "type": "bool"
        }
      ],
      "name": "ApprovalForAll",
      "type": "event"
    },
    {
      "anonymous": false,
      "inputs": [
        {
          "indexed": true,
          "internalType": "uint256",
          "name": "trackerId",
          "type": "uint256"
        },
        {
          "indexed": false,
          "internalType": "uint256[]",
          "name": "productIds",
          "type": "uint256[]"
        },
        {
          "indexed": false,
          "internalType": "uint256[]",
          "name": "productAmounts",
          "type": "uint256[]"
        }
      ],
      "name": "ProductsUpdated",
      "type": "event"
    },
    {
      "anonymous": false,
      "inputs": [
        {
          "indexed": true,
          "internalType": "address",
          "name": "account",
          "type": "address"
        }
      ],
      "name": "RegisteredTracker",
      "type": "event"
    },
    {
      "anonymous": false,
      "inputs": [
        {
          "indexed": true,
          "internalType": "bytes32",
          "name": "role",
          "type": "bytes32"
        },
        {
          "indexed": true,
          "internalType": "bytes32",
          "name": "previousAdminRole",
          "type": "bytes32"
        },
        {
          "indexed": true,
          "internalType": "bytes32",
          "name": "newAdminRole",
          "type": "bytes32"
        }
      ],
      "name": "RoleAdminChanged",
      "type": "event"
    },
    {
      "anonymous": false,
      "inputs": [
        {
          "indexed": true,
          "internalType": "bytes32",
          "name": "role",
          "type": "bytes32"
        },
        {
          "indexed": true,
          "internalType": "address",
          "name": "account",
          "type": "address"
        },
        {
          "indexed": true,
          "internalType": "address",
          "name": "sender",
          "type": "address"
        }
      ],
      "name": "RoleGranted",
      "type": "event"
    },
    {
      "anonymous": false,
      "inputs": [
        {
          "indexed": true,
          "internalType": "bytes32",
          "name": "role",
          "type": "bytes32"
        },
        {
          "indexed": true,
          "internalType": "address",
          "name": "account",
          "type": "address"
        },
        {
          "indexed": true,
          "internalType": "address",
          "name": "sender",
          "type": "address"
        }
      ],
      "name": "RoleRevoked",
      "type": "event"
    },
    {
      "anonymous": false,
      "inputs": [
        {
          "indexed": true,
          "internalType": "uint256",
          "name": "trackerId",
          "type": "uint256"
        },
        {
          "indexed": true,
          "internalType": "address",
          "name": "trackee",
          "type": "address"
        }
      ],
      "name": "TrackeeChanged",
      "type": "event"
    },
    {
      "anonymous": false,
      "inputs": [
        {
          "indexed": true,
          "internalType": "uint256",
          "name": "trackerId",
          "type": "uint256"
        },
        {
          "indexed": true,
          "internalType": "address",
          "name": "tracker",
          "type": "address"
        },
        {
          "indexed": false,
          "internalType": "uint256[]",
          "name": "tokenIds",
          "type": "uint256[]"
        },
        {
          "indexed": false,
          "internalType": "uint256[]",
          "name": "tokenAmounts",
          "type": "uint256[]"
        },
        {
          "indexed": false,
          "internalType": "uint256",
          "name": "fromDate",
          "type": "uint256"
        },
        {
          "indexed": false,
          "internalType": "uint256",
          "name": "thruDate",
          "type": "uint256"
        }
      ],
      "name": "TrackerUpdated",
      "type": "event"
    },
    {
      "anonymous": false,
      "inputs": [
        {
          "indexed": true,
          "internalType": "address",
          "name": "from",
          "type": "address"
        },
        {
          "indexed": true,
          "internalType": "address",
          "name": "to",
          "type": "address"
        },
        {
          "indexed": true,
          "internalType": "uint256",
          "name": "tokenId",
          "type": "uint256"
        }
      ],
      "name": "Transfer",
      "type": "event"
    },
    {
      "anonymous": false,
      "inputs": [
        {
          "indexed": true,
          "internalType": "uint256",
          "name": "tokenId",
          "type": "uint256"
        },
        {
          "indexed": true,
          "internalType": "address",
          "name": "trackee",
          "type": "address"
        },
        {
          "indexed": false,
          "internalType": "uint256",
          "name": "amount",
          "type": "uint256"
        }
      ],
      "name": "VerifiedOutput",
      "type": "event"
    },
    {
      "anonymous": false,
      "inputs": [
        {
          "indexed": true,
          "internalType": "address",
          "name": "auditor",
          "type": "address"
        },
        {
          "indexed": true,
          "internalType": "address",
          "name": "trackee",
          "type": "address"
        }
      ],
      "name": "VerifierApproved",
      "type": "event"
    },
    {
      "anonymous": false,
      "inputs": [
        {
          "indexed": true,
          "internalType": "address",
          "name": "auditor",
          "type": "address"
        },
        {
          "indexed": true,
          "internalType": "address",
          "name": "trackee",
          "type": "address"
        }
      ],
      "name": "VerifierRemoved",
      "type": "event"
    },
    {
      "inputs": [],
      "name": "DEFAULT_ADMIN_ROLE",
      "outputs": [
        {
          "internalType": "bytes32",
          "name": "",
          "type": "bytes32"
        }
      ],
      "stateMutability": "view",
      "type": "function"
    },
    {
      "inputs": [],
      "name": "REGISTERED_TRACKER",
      "outputs": [
        {
          "internalType": "bytes32",
          "name": "",
          "type": "bytes32"
        }
      ],
      "stateMutability": "view",
      "type": "function"
    },
    {
      "inputs": [
        {
          "internalType": "uint256",
          "name": "trackerId",
          "type": "uint256"
        },
        {
          "internalType": "uint256",
          "name": "productId",
          "type": "uint256"
        },
        {
          "internalType": "string",
          "name": "unit",
          "type": "string"
        }
      ],
      "name": "_getUnitHash",
      "outputs": [
        {
          "internalType": "bytes32",
          "name": "",
          "type": "bytes32"
        }
      ],
      "stateMutability": "view",
      "type": "function"
    },
    {
      "inputs": [],
      "name": "_numOfProducts",
      "outputs": [
        {
          "internalType": "uint256",
          "name": "_value",
          "type": "uint256"
        }
      ],
      "stateMutability": "view",
      "type": "function"
    },
    {
      "inputs": [],
      "name": "_numOfUniqueTrackers",
      "outputs": [
        {
          "internalType": "uint256",
          "name": "_value",
          "type": "uint256"
        }
      ],
      "stateMutability": "view",
      "type": "function"
    },
    {
      "inputs": [
        {
          "internalType": "uint256",
          "name": "outAmount",
          "type": "uint256"
        },
        {
          "internalType": "uint256",
          "name": "totalTracked",
          "type": "uint256"
        }
      ],
      "name": "_verifyTotalTracked",
      "outputs": [],
      "stateMutability": "pure",
      "type": "function"
    },
    {
      "inputs": [
        {
          "internalType": "address",
          "name": "to",
          "type": "address"
        },
        {
          "internalType": "uint256",
          "name": "tokenId",
          "type": "uint256"
        }
      ],
      "name": "approve",
      "outputs": [],
      "stateMutability": "nonpayable",
      "type": "function"
    },
    {
      "inputs": [
        {
          "internalType": "address",
          "name": "verifier",
          "type": "address"
        },
        {
          "internalType": "bool",
          "name": "approve",
          "type": "bool"
        }
      ],
      "name": "approveVerifier",
      "outputs": [],
      "stateMutability": "nonpayable",
      "type": "function"
    },
    {
      "inputs": [
        {
          "internalType": "uint256",
          "name": "trackerId",
          "type": "uint256"
        }
      ],
      "name": "audit",
      "outputs": [],
      "stateMutability": "nonpayable",
      "type": "function"
    },
    {
      "inputs": [
        {
          "internalType": "address",
          "name": "owner",
          "type": "address"
        }
      ],
      "name": "balanceOf",
      "outputs": [
        {
          "internalType": "uint256",
          "name": "",
          "type": "uint256"
        }
      ],
      "stateMutability": "view",
      "type": "function"
    },
    {
      "inputs": [
        {
          "internalType": "uint256",
          "name": "trackerId",
          "type": "uint256"
        }
      ],
      "name": "carbonIntensity",
      "outputs": [
        {
          "internalType": "uint256",
          "name": "",
          "type": "uint256"
        }
      ],
      "stateMutability": "view",
      "type": "function"
    },
    {
      "inputs": [],
      "name": "divDecimals",
      "outputs": [
        {
          "internalType": "uint256",
          "name": "",
          "type": "uint256"
        }
      ],
      "stateMutability": "view",
      "type": "function"
    },
    {
      "inputs": [
        {
          "internalType": "uint256",
          "name": "tokenId",
          "type": "uint256"
        }
      ],
      "name": "getApproved",
      "outputs": [
        {
          "internalType": "address",
          "name": "",
          "type": "address"
        }
      ],
      "stateMutability": "view",
      "type": "function"
    },
    {
      "inputs": [],
      "name": "getNumOfProducts",
      "outputs": [
        {
          "internalType": "uint256",
          "name": "",
          "type": "uint256"
        }
      ],
      "stateMutability": "view",
      "type": "function"
    },
    {
      "inputs": [],
      "name": "getNumOfUniqueTrackers",
      "outputs": [
        {
          "internalType": "uint256",
          "name": "",
          "type": "uint256"
        }
      ],
      "stateMutability": "view",
      "type": "function"
    },
    {
      "inputs": [
        {
          "internalType": "uint256",
          "name": "productId",
          "type": "uint256"
        },
        {
          "internalType": "uint256",
          "name": "trackerId",
          "type": "uint256"
        },
        {
          "internalType": "address",
          "name": "owner",
          "type": "address"
        }
      ],
      "name": "getProductBalance",
      "outputs": [
        {
          "internalType": "uint256",
          "name": "",
          "type": "uint256"
        }
      ],
      "stateMutability": "view",
      "type": "function"
    },
    {
      "inputs": [
        {
          "internalType": "bytes32",
          "name": "role",
          "type": "bytes32"
        }
      ],
      "name": "getRoleAdmin",
      "outputs": [
        {
          "internalType": "bytes32",
          "name": "",
          "type": "bytes32"
        }
      ],
      "stateMutability": "view",
      "type": "function"
    },
    {
      "inputs": [
        {
          "internalType": "uint256",
          "name": "trackerId",
          "type": "uint256"
        }
      ],
      "name": "getTokenAmounts",
      "outputs": [
        {
          "internalType": "uint256[]",
          "name": "",
          "type": "uint256[]"
        },
        {
          "internalType": "uint256[]",
          "name": "",
          "type": "uint256[]"
        }
      ],
      "stateMutability": "view",
      "type": "function"
    },
    {
      "inputs": [
        {
          "internalType": "uint256",
          "name": "trackerId",
          "type": "uint256"
        }
      ],
      "name": "getTokenIds",
      "outputs": [
        {
          "internalType": "uint256[]",
          "name": "",
          "type": "uint256[]"
        }
      ],
      "stateMutability": "view",
      "type": "function"
    },
    {
      "inputs": [
        {
          "internalType": "uint256",
          "name": "trackerId",
          "type": "uint256"
        }
      ],
      "name": "getTotalEmissions",
      "outputs": [
        {
          "internalType": "uint256",
          "name": "",
          "type": "uint256"
        }
      ],
      "stateMutability": "view",
      "type": "function"
    },
    {
      "inputs": [
        {
          "internalType": "uint256",
          "name": "trackerId",
          "type": "uint256"
        }
      ],
      "name": "getTotalProductAmounts",
      "outputs": [
        {
          "internalType": "uint256",
          "name": "",
          "type": "uint256"
        }
      ],
      "stateMutability": "view",
      "type": "function"
    },
    {
      "inputs": [
        {
          "internalType": "uint256",
          "name": "trackerId",
          "type": "uint256"
        }
      ],
      "name": "getTrackerDetails",
      "outputs": [
        {
          "components": [
            {
              "internalType": "uint256",
              "name": "trackerId",
              "type": "uint256"
            },
            {
              "internalType": "address",
              "name": "trackee",
              "type": "address"
            },
            {
              "internalType": "address",
              "name": "auditor",
              "type": "address"
            },
            {
              "internalType": "uint256",
              "name": "totalProductAmounts",
              "type": "uint256"
            },
            {
              "internalType": "uint256",
              "name": "fromDate",
              "type": "uint256"
            },
            {
              "internalType": "uint256",
              "name": "thruDate",
              "type": "uint256"
            },
            {
              "internalType": "uint256",
              "name": "dateCreated",
              "type": "uint256"
            },
            {
              "internalType": "string",
              "name": "metadata",
              "type": "string"
            },
            {
              "internalType": "string",
              "name": "description",
              "type": "string"
            }
          ],
          "internalType": "struct CarbonTracker.CarbonTrackerDetails",
          "name": "",
          "type": "tuple"
        },
        {
          "internalType": "uint256",
          "name": "",
          "type": "uint256"
        }
      ],
      "stateMutability": "view",
      "type": "function"
    },
    {
      "inputs": [
        {
          "internalType": "uint256",
          "name": "trackerId",
          "type": "uint256"
        }
      ],
      "name": "getTrackerIds",
      "outputs": [
        {
          "internalType": "uint256[]",
          "name": "",
          "type": "uint256[]"
        }
      ],
      "stateMutability": "view",
      "type": "function"
    },
    {
      "inputs": [
        {
          "internalType": "uint256",
          "name": "trackerId",
          "type": "uint256"
        }
      ],
      "name": "getTrackerProductAddDetails",
      "outputs": [
        {
          "internalType": "string[]",
          "name": "",
          "type": "string[]"
        },
        {
          "internalType": "uint256[]",
          "name": "",
          "type": "uint256[]"
        },
        {
          "internalType": "string[]",
          "name": "",
          "type": "string[]"
        }
      ],
      "stateMutability": "view",
      "type": "function"
    },
    {
      "inputs": [
        {
          "internalType": "uint256",
          "name": "trackerId",
          "type": "uint256"
        }
      ],
      "name": "getTrackerProductDetails",
      "outputs": [
        {
          "internalType": "uint256[]",
          "name": "",
          "type": "uint256[]"
        },
        {
          "internalType": "uint256[]",
          "name": "",
          "type": "uint256[]"
        },
        {
          "internalType": "uint256[]",
          "name": "",
          "type": "uint256[]"
        }
      ],
      "stateMutability": "view",
      "type": "function"
    },
    {
      "inputs": [
        {
          "internalType": "uint256",
          "name": "trackerId",
          "type": "uint256"
        }
      ],
      "name": "getTrackerTokenDetails",
      "outputs": [
        {
          "internalType": "uint256[]",
          "name": "",
          "type": "uint256[]"
        },
        {
          "internalType": "uint256[]",
          "name": "",
          "type": "uint256[]"
        }
      ],
      "stateMutability": "view",
      "type": "function"
    },
    {
      "inputs": [
        {
          "internalType": "bytes32",
          "name": "role",
          "type": "bytes32"
        },
        {
          "internalType": "address",
          "name": "account",
          "type": "address"
        }
      ],
      "name": "grantRole",
      "outputs": [],
      "stateMutability": "nonpayable",
      "type": "function"
    },
    {
      "inputs": [
        {
          "internalType": "bytes32",
          "name": "role",
          "type": "bytes32"
        },
        {
          "internalType": "address",
          "name": "account",
          "type": "address"
        }
      ],
      "name": "hasRole",
      "outputs": [
        {
          "internalType": "bool",
          "name": "",
          "type": "bool"
        }
      ],
      "stateMutability": "view",
      "type": "function"
    },
    {
      "inputs": [
        {
          "internalType": "address",
          "name": "_net",
          "type": "address"
        },
        {
          "internalType": "address",
          "name": "_admin",
          "type": "address"
        }
      ],
      "name": "initialize",
      "outputs": [],
      "stateMutability": "nonpayable",
      "type": "function"
    },
    {
      "inputs": [
        {
          "internalType": "address",
          "name": "owner",
          "type": "address"
        },
        {
          "internalType": "address",
          "name": "operator",
          "type": "address"
        }
      ],
      "name": "isApprovedForAll",
      "outputs": [
        {
          "internalType": "bool",
          "name": "",
          "type": "bool"
        }
      ],
      "stateMutability": "view",
      "type": "function"
    },
    {
      "inputs": [],
      "name": "name",
      "outputs": [
        {
          "internalType": "string",
          "name": "",
          "type": "string"
        }
      ],
      "stateMutability": "view",
      "type": "function"
    },
    {
      "inputs": [],
      "name": "net",
      "outputs": [
        {
          "internalType": "contract NetEmissionsTokenNetwork",
          "name": "",
          "type": "address"
        }
      ],
      "stateMutability": "view",
      "type": "function"
    },
    {
      "inputs": [],
      "name": "netAddress",
      "outputs": [
        {
          "internalType": "address",
          "name": "",
          "type": "address"
        }
      ],
      "stateMutability": "view",
      "type": "function"
    },
    {
      "inputs": [
        {
          "internalType": "address",
          "name": "",
          "type": "address"
        },
        {
          "internalType": "address",
          "name": "",
          "type": "address"
        },
        {
          "internalType": "uint256[]",
          "name": "",
          "type": "uint256[]"
        },
        {
          "internalType": "uint256[]",
          "name": "",
          "type": "uint256[]"
        },
        {
          "internalType": "bytes",
          "name": "",
          "type": "bytes"
        }
      ],
      "name": "onERC1155BatchReceived",
      "outputs": [
        {
          "internalType": "bytes4",
          "name": "",
          "type": "bytes4"
        }
      ],
      "stateMutability": "nonpayable",
      "type": "function"
    },
    {
      "inputs": [
        {
          "internalType": "address",
          "name": "",
          "type": "address"
        },
        {
          "internalType": "address",
          "name": "",
          "type": "address"
        },
        {
          "internalType": "uint256",
          "name": "",
          "type": "uint256"
        },
        {
          "internalType": "uint256",
          "name": "",
          "type": "uint256"
        },
        {
          "internalType": "bytes",
          "name": "",
          "type": "bytes"
        }
      ],
      "name": "onERC1155Received",
      "outputs": [
        {
          "internalType": "bytes4",
          "name": "",
          "type": "bytes4"
        }
      ],
      "stateMutability": "nonpayable",
      "type": "function"
    },
    {
      "inputs": [
        {
          "internalType": "uint256",
          "name": "tokenId",
          "type": "uint256"
        }
      ],
      "name": "ownerOf",
      "outputs": [
        {
          "internalType": "address",
          "name": "",
          "type": "address"
        }
      ],
      "stateMutability": "view",
      "type": "function"
    },
    {
      "inputs": [
        {
          "internalType": "uint256",
          "name": "",
          "type": "uint256"
        },
        {
          "internalType": "uint256",
          "name": "",
          "type": "uint256"
        },
        {
          "internalType": "address",
          "name": "",
          "type": "address"
        }
      ],
      "name": "productBalance",
      "outputs": [
        {
          "internalType": "uint256",
          "name": "",
          "type": "uint256"
        }
      ],
      "stateMutability": "view",
      "type": "function"
    },
    {
      "inputs": [
        {
          "internalType": "uint256",
          "name": "trackerId",
          "type": "uint256"
        },
        {
          "internalType": "uint256[]",
          "name": "productIds",
          "type": "uint256[]"
        },
        {
          "internalType": "uint256[]",
          "name": "productAmounts",
          "type": "uint256[]"
        },
        {
          "internalType": "string[]",
          "name": "productNames",
          "type": "string[]"
        },
        {
          "internalType": "string[]",
          "name": "productUnits",
          "type": "string[]"
        },
        {
          "internalType": "uint256[]",
          "name": "productUnitAmounts",
          "type": "uint256[]"
        }
      ],
      "name": "productsUpdate",
      "outputs": [],
      "stateMutability": "nonpayable",
      "type": "function"
    },
    {
      "inputs": [
        {
          "internalType": "address",
          "name": "tracker",
          "type": "address"
        }
      ],
      "name": "registerTracker",
      "outputs": [],
      "stateMutability": "nonpayable",
      "type": "function"
    },
    {
      "inputs": [
        {
          "internalType": "uint256",
          "name": "trackerId",
          "type": "uint256"
        }
      ],
      "name": "removeAudit",
      "outputs": [],
      "stateMutability": "nonpayable",
      "type": "function"
    },
    {
      "inputs": [
        {
          "internalType": "bytes32",
          "name": "role",
          "type": "bytes32"
        },
        {
          "internalType": "address",
          "name": "account",
          "type": "address"
        }
      ],
      "name": "renounceRole",
      "outputs": [],
      "stateMutability": "nonpayable",
      "type": "function"
    },
    {
      "inputs": [
        {
          "internalType": "bytes32",
          "name": "role",
          "type": "bytes32"
        },
        {
          "internalType": "address",
          "name": "account",
          "type": "address"
        }
      ],
      "name": "revokeRole",
      "outputs": [],
      "stateMutability": "nonpayable",
      "type": "function"
    },
    {
      "inputs": [
        {
          "internalType": "address",
          "name": "from",
          "type": "address"
        },
        {
          "internalType": "address",
          "name": "to",
          "type": "address"
        },
        {
          "internalType": "uint256",
          "name": "tokenId",
          "type": "uint256"
        }
      ],
      "name": "safeTransferFrom",
      "outputs": [],
      "stateMutability": "nonpayable",
      "type": "function"
    },
    {
      "inputs": [
        {
          "internalType": "address",
          "name": "from",
          "type": "address"
        },
        {
          "internalType": "address",
          "name": "to",
          "type": "address"
        },
        {
          "internalType": "uint256",
          "name": "tokenId",
          "type": "uint256"
        },
        {
          "internalType": "bytes",
          "name": "_data",
          "type": "bytes"
        }
      ],
      "name": "safeTransferFrom",
      "outputs": [],
      "stateMutability": "nonpayable",
      "type": "function"
    },
    {
      "inputs": [
        {
          "internalType": "address",
          "name": "operator",
          "type": "address"
        },
        {
          "internalType": "bool",
          "name": "approved",
          "type": "bool"
        }
      ],
      "name": "setApprovalForAll",
      "outputs": [],
      "stateMutability": "nonpayable",
      "type": "function"
    },
    {
      "inputs": [
        {
          "internalType": "bytes4",
          "name": "interfaceId",
          "type": "bytes4"
        }
      ],
      "name": "supportsInterface",
      "outputs": [
        {
          "internalType": "bool",
          "name": "",
          "type": "bool"
        }
      ],
      "stateMutability": "view",
      "type": "function"
    },
    {
      "inputs": [],
      "name": "symbol",
      "outputs": [
        {
          "internalType": "string",
          "name": "",
          "type": "string"
        }
      ],
      "stateMutability": "view",
      "type": "function"
    },
    {
      "inputs": [
        {
          "internalType": "uint256",
          "name": "tokenId",
          "type": "uint256"
        }
      ],
      "name": "tokenURI",
      "outputs": [
        {
          "internalType": "string",
          "name": "",
          "type": "string"
        }
      ],
      "stateMutability": "view",
      "type": "function"
    },
    {
      "inputs": [
        {
          "internalType": "address",
          "name": "trackee",
          "type": "address"
        },
        {
          "internalType": "uint256[]",
          "name": "tokenIds",
          "type": "uint256[]"
        },
        {
          "internalType": "uint256[]",
          "name": "tokenAmounts",
          "type": "uint256[]"
        },
        {
          "internalType": "uint256",
          "name": "fromDate",
          "type": "uint256"
        },
        {
          "internalType": "uint256",
          "name": "thruDate",
          "type": "uint256"
        },
        {
          "internalType": "string",
          "name": "description",
          "type": "string"
        }
      ],
      "name": "track",
      "outputs": [
        {
          "internalType": "uint256",
          "name": "",
          "type": "uint256"
        }
      ],
      "stateMutability": "nonpayable",
      "type": "function"
    },
    {
      "inputs": [
        {
          "internalType": "uint256",
          "name": "trackerId",
          "type": "uint256"
        },
        {
          "internalType": "uint256",
          "name": "sourceTrackerId",
          "type": "uint256"
        },
        {
          "internalType": "uint256",
          "name": "productId",
          "type": "uint256"
        },
        {
          "internalType": "uint256",
          "name": "productAmount",
          "type": "uint256"
        }
      ],
      "name": "trackProduct",
      "outputs": [],
      "stateMutability": "nonpayable",
      "type": "function"
    },
    {
      "inputs": [
        {
          "internalType": "uint256",
          "name": "trackerId",
          "type": "uint256"
        },
        {
          "internalType": "uint256[]",
          "name": "tokenIds",
          "type": "uint256[]"
        },
        {
          "internalType": "uint256[]",
          "name": "tokenAmounts",
          "type": "uint256[]"
        },
        {
          "internalType": "uint256",
          "name": "fromDate",
          "type": "uint256"
        },
        {
          "internalType": "uint256",
          "name": "thruDate",
          "type": "uint256"
        },
        {
          "internalType": "string",
          "name": "description",
          "type": "string"
        }
      ],
      "name": "trackUpdate",
      "outputs": [],
      "stateMutability": "nonpayable",
      "type": "function"
    },
    {
      "inputs": [
        {
          "internalType": "address",
          "name": "from",
          "type": "address"
        },
        {
          "internalType": "address",
          "name": "to",
          "type": "address"
        },
        {
          "internalType": "uint256",
          "name": "tokenId",
          "type": "uint256"
        }
      ],
      "name": "transferFrom",
      "outputs": [],
      "stateMutability": "nonpayable",
      "type": "function"
    },
    {
      "inputs": [
        {
          "internalType": "uint256",
          "name": "productId",
          "type": "uint256"
        },
        {
          "internalType": "uint256",
          "name": "productAmount",
          "type": "uint256"
        },
        {
          "internalType": "uint256",
          "name": "sourceTrackerId",
          "type": "uint256"
        },
        {
          "internalType": "address",
          "name": "trackee",
          "type": "address"
        }
      ],
      "name": "transferProduct",
      "outputs": [],
      "stateMutability": "nonpayable",
      "type": "function"
    },
    {
      "inputs": [
        {
          "internalType": "uint256",
          "name": "trackerId",
          "type": "uint256"
        },
        {
          "internalType": "uint256",
          "name": "sourceTrackerId",
          "type": "uint256"
        },
        {
          "internalType": "uint256",
          "name": "productId",
          "type": "uint256"
        },
        {
          "internalType": "uint256",
          "name": "productAmount",
          "type": "uint256"
        }
      ],
      "name": "transferProductToTracker",
      "outputs": [],
      "stateMutability": "nonpayable",
      "type": "function"
    },
    {
      "inputs": [
        {
          "internalType": "uint256",
          "name": "trackerId",
          "type": "uint256"
        },
        {
          "internalType": "uint256",
          "name": "productId",
          "type": "uint256"
        },
        {
          "internalType": "string",
          "name": "unit",
          "type": "string"
        },
        {
          "internalType": "bytes",
          "name": "signature",
          "type": "bytes"
        }
      ],
      "name": "verifyUnitSignature",
      "outputs": [
        {
          "internalType": "bool",
          "name": "",
          "type": "bool"
        }
      ],
      "stateMutability": "view",
      "type": "function"
    }
  ],
  "bytecode": "0x608060405234801561001057600080fd5b50615e9f80620000216000396000f3fe608060405234801561001057600080fd5b506004361061035d5760003560e01c806381d5f7f6116101d3578063b88d4fde11610104578063d547741f116100a2578063e985e9c51161007c578063e985e9c5146107ef578063ecc3356a1461082b578063f23a6e611461083e578063f2600e4e1461085d5761035d565b8063d547741f14610796578063e54a9646146107a9578063e7b5892a146107bd5761035d565b8063bfdaf4a2116100de578063bfdaf4a21461073a578063c2fff4a51461075c578063c87b56dd14610770578063cf2f4664146107835761035d565b8063b88d4fde146106dc578063b9531f21146106ef578063bc197c81146107025761035d565b8063a22cb46511610171578063b173e5701161014b578063b173e5701461066e578063b2defd9814610681578063b395ee91146106bf578063b51eda9a146106d25761035d565b8063a22cb46514610640578063a23ccfe814610653578063a7d6619d1461065b5761035d565b806395d89b41116101ad57806395d89b411461060a57806399228cda14610612578063a0bc22ef14610625578063a217fddf146106385761035d565b806381d5f7f6146105c15780638a59a935146105d657806391d14854146105f75761035d565b80633b8470b0116102ad5780635e7231c31161024b57806364dc8b4a1161022557806364dc8b4a1461057157806370a08231146105935780637c7768d6146105a65780637c7a89ca146105ae5761035d565b80635e7231c3146105385780636352211e1461054b57806363a248571461055e5761035d565b806346462c3f1161028757806346462c3f146104e7578063485cc955146104fa57806357991d301461050d578063594d46051461052d5761035d565b80633b8470b0146104b657806340e6c970146104c957806342842e0e146104d45761035d565b80631e91165a1161031a5780632f1f8e62116102f45780632f1f8e621461045c5780632f2ff15d1461046f57806336568abe146104825780633b4e06e6146104955761035d565b80631e91165a1461041357806323b872dd14610426578063248a9ca3146104395761035d565b806301ffc9a71461036257806306fdde031461038a578063081812fc1461039f578063095ea7b3146103ca5780630b71d18b146103df5780631856f26214610400575b600080fd5b61037561037036600461546b565b610870565b60405190151581526020015b60405180910390f35b61039261089d565b6040516103819190615a0e565b6103b26103ad366004615431565b61092f565b6040516001600160a01b039091168152602001610381565b6103dd6103d83660046153ec565b6109c9565b005b6103f26103ed366004615431565b610adf565b604051908152602001610381565b6103dd61040e36600461511d565b610b0d565b6103f2610421366004615431565b610c00565b6103dd61043436600461520e565b610ce3565b6103f2610447366004615431565b60009081526097602052604090206001015490565b6103f261046a366004615431565b610d14565b6103dd61047d366004615449565b610d69565b6103dd610490366004615449565b610d90565b6104a86104a3366004615431565b610e0e565b604051610381929190615977565b6103dd6104c4366004615708565b610f5b565b610132546103f29081565b6103dd6104e236600461520e565b6110e7565b6103f26104f5366004615616565b611102565b6103dd610508366004615137565b61113a565b61052061051b366004615431565b611299565b6040516103819190615964565b610133546103f29081565b6103dd61054636600461559e565b6112fc565b6103b2610559366004615431565b611398565b6103dd61056c366004615569565b61140f565b61058461057f366004615431565b61147c565b6040516103819392919061592b565b6103f26105a136600461511d565b6119a9565b6103f2611a30565b6103dd6105bc366004615708565b611a41565b6103f2600080516020615e4a83398151915281565b6105e96105e4366004615431565b611ca0565b604051610381929190615bd2565b610375610605366004615449565b611ec0565b610392611eeb565b6103f2610620366004615310565b611efa565b610375610633366004615663565b611f30565b6103f2600081565b6103dd61064e3660046153b6565b611fee565b6103f2611ff9565b6103dd6106693660046153b6565b612005565b6103dd61067c366004615431565b6122b4565b6103f261068f3660046155e2565b6000928352610136602090815260408085209385529281528284206001600160a01b039290921684525290205490565b6103dd6106cd3660046156ca565b61233c565b6103f26101385481565b6103dd6106ea366004615249565b612483565b6105206106fd366004615431565b6124bb565b610721610710366004615169565b63bc197c8160e01b95945050505050565b6040516001600160e01b03199091168152602001610381565b61074d610748366004615431565b61251f565b6040516103819392919061599c565b61012d546103b2906001600160a01b031681565b61039261077e366004615431565b6126ff565b6103dd6107913660046154a3565b6127e7565b6103dd6107a4366004615449565b612e2e565b61012e546103b2906001600160a01b031681565b6103f26107cb3660046155e2565b61013660209081526000938452604080852082529284528284209052825290205481565b6103756107fd366004615137565b6001600160a01b039182166000908152606a6020908152604080832093909416825291909152205460ff1690565b6103dd610839366004615431565b612e54565b61072161084c3660046152ae565b63f23a6e6160e01b95945050505050565b6104a861086b366004615431565b612e9e565b60006001600160e01b03198216637965db0b60e01b1480610895575061089582612fdf565b90505b919050565b6060606580546108ac90615d7f565b80601f01602080910402602001604051908101604052809291908181526020018280546108d890615d7f565b80156109255780601f106108fa57610100808354040283529160200191610925565b820191906000526020600020905b81548152906001019060200180831161090857829003601f168201915b5050505050905090565b6000818152606760205260408120546001600160a01b03166109ad5760405162461bcd60e51b815260206004820152602c60248201527f4552433732313a20617070726f76656420717565727920666f72206e6f6e657860448201526b34b9ba32b73a103a37b5b2b760a11b60648201526084015b60405180910390fd5b506000908152606960205260409020546001600160a01b031690565b60006109d482611398565b9050806001600160a01b0316836001600160a01b03161415610a425760405162461bcd60e51b815260206004820152602160248201527f4552433732313a20617070726f76616c20746f2063757272656e74206f776e656044820152603960f91b60648201526084016109a4565b336001600160a01b0382161480610a5e5750610a5e81336107fd565b610ad05760405162461bcd60e51b815260206004820152603860248201527f4552433732313a20617070726f76652063616c6c6572206973206e6f74206f7760448201527f6e6572206e6f7220617070726f76656420666f7220616c6c000000000000000060648201526084016109a4565b610ada8383613004565b505050565b600081815261012f60209081526040808320610130909252822082610b048383613072565b95945050505050565b806001600160a01b038116331480610b2b5750610b2b600033611ec0565b610bb05760405162461bcd60e51b815260206004820152604a60248201527f434c4d383a3a73656c664f7241646d696e3a206d73672e73656e64657220646f60448201527f6573206e6f74206f776e20746869732061646472657373206f72206973206e6f6064820152693a1030b71030b236b4b760b11b608482015260a4016109a4565b610bc8600080516020615e4a8339815191528361338c565b6040516001600160a01b038316907fef8ce2b8e324ee947b09d9cf7f74e5589078af3a3e3f5266e9752c8284e4cd8790600090a25050565b600081815261013060209081526040808320600381018054835181860281018601909452808452919385939290830182828015610c5c57602002820191906000526020600020905b815481526020019060010190808311610c48575b50505050509050600080600090505b8251811015610cda57610cc6846005016000858481518110610c9d57634e487b7160e01b600052603260045260246000fd5b60200260200101518152602001908152602001600020600001548361339690919063ffffffff16565b915080610cd281615db4565b915050610c6b565b50949350505050565b610ced33826133a2565b610d095760405162461bcd60e51b81526004016109a490615ae8565b610ada838383613499565b600081815261012f60205260408120600381015415610d5957610d518160030154610d4b61013854610d4587610adf565b90613635565b90613641565b915050610898565b6000915050610898565b50919050565b600082815260976020526040902060010154610d8681335b61364d565b610ada83836136b1565b6001600160a01b0381163314610e005760405162461bcd60e51b815260206004820152602f60248201527f416363657373436f6e74726f6c3a2063616e206f6e6c792072656e6f756e636560448201526e103937b632b9903337b91039b2b63360891b60648201526084016109a4565b610e0a8282613737565b5050565b600081815261013060209081526040808320805482518185028101850190935280835260609485949293909290918491830182828015610e6d57602002820191906000526020600020905b815481526020019060010190808311610e59575b50505050509050600081516001600160401b03811115610e9d57634e487b7160e01b600052604160045260246000fd5b604051908082528060200260200182016040528015610ec6578160200160208202803683370190505b50905060005b8251811015610f4f57836002016000848381518110610efb57634e487b7160e01b600052603260045260246000fd5b6020026020010151815260200190815260200160002054828281518110610f3257634e487b7160e01b600052603260045260246000fd5b602090810291909101015280610f4781615db4565b915050610ecc565b50909350915050915091565b600084815261012f602052604090206002015484906001600160a01b031615610f965760405162461bcd60e51b81526004016109a490615b84565b610f9f8561379e565b610fa98533613818565b8385141561101f5760405162461bcd60e51b815260206004820152603f60248201527f434c4d383a3a73656e6450726f64756374733a20736f75726365547261636b6560448201527f7249642063616e206e6f7420657175616c2074686520747261636b657249640060648201526084016109a4565b600083815261013660209081526040808320878452825280832033845290915290205482106110d45760405162461bcd60e51b815260206004820152605560248201527f434c4d383a3a747261636b50726f647563743a2070726f64756374416d6f756e60448201527f7420657863656564732070726f647563747320617661696c61626c6520666f726064820152741b481d1a19481cdbdd5c98d9551c9858dad95c9259605a1b608482015260a4016109a4565b6110e08585858561389c565b5050505050565b610ada83838360405180602001604052806000815250612483565b60003084848460405160200161111b9493929190615804565b6040516020818303038152906040528051906020012090509392505050565b600054610100900460ff166111555760005460ff1615611159565b303b155b6111bc5760405162461bcd60e51b815260206004820152602e60248201527f496e697469616c697a61626c653a20636f6e747261637420697320616c72656160448201526d191e481a5b9a5d1a585b1a5e995960921b60648201526084016109a4565b600054610100900460ff161580156111de576000805461ffff19166101011790555b61012d80546001600160a01b0385166001600160a01b0319918216811790925561012e80549091169091179055620f42406101385560408051808201825260128152712722aa1021b0b93137b7102a3930b1b5b2b960711b602080830191909152825180840190935260048352631391551560e21b9083015261126091613c07565b61126b60008361338c565b611283600080516020615e4a8339815191528361338c565b8015610ada576000805461ff0019169055505050565b600081815261013060209081526040918290208054835181840281018401909452808452606093928301828280156112f057602002820191906000526020600020905b8154815260200190600101908083116112dc575b50505050509050919050565b80821015610e0a5760405162461bcd60e51b815260206004820152605860248201527f434c4d383a3a5f766572696679546f74616c547261636b65643a20746f74616c60448201527f20616d6f756e7420747261636b65642065786365656473206f7574707574206f60648201527f6620746f6b656e49642066726f6d20747261636b657249640000000000000000608482015260a4016109a4565b6000818152606760205260408120546001600160a01b0316806108955760405162461bcd60e51b815260206004820152602960248201527f4552433732313a206f776e657220717565727920666f72206e6f6e657869737460448201526832b73a103a37b5b2b760b91b60648201526084016109a4565b600086815261012f602052604090206002015486906001600160a01b03161561144a5760405162461bcd60e51b81526004016109a490615b84565b866114548161379e565b600088815261012f60205260409020611471818989898989613c38565b505050505050505050565b6000818152610130602090815260408083206003810180548351818602810186019094528084526060958695869591939192908301828280156114de57602002820191906000526020600020905b8154815260200190600101908083116114ca575b50505050509050600081516001600160401b0381111561150e57634e487b7160e01b600052604160045260246000fd5b60405190808252806020026020018201604052801561154157816020015b606081526020019060019003908161152c5790505b509050600082516001600160401b0381111561156d57634e487b7160e01b600052604160045260246000fd5b6040519080825280602002602001820160405280156115a057816020015b606081526020019060019003908161158b5790505b509050600083516001600160401b038111156115cc57634e487b7160e01b600052604160045260246000fd5b6040519080825280602002602001820160405280156115f5578160200160208202803683370190505b5090506000805b855181101561199857610131600087838151811061162a57634e487b7160e01b600052603260045260246000fd5b60200260200101518152602001908152602001600020600101805461164e90615d7f565b80601f016020809104026020016040519081016040528092919081815260200182805461167a90615d7f565b80156116c75780601f1061169c576101008083540402835291602001916116c7565b820191906000526020600020905b8154815290600101906020018083116116aa57829003601f168201915b50505050508582815181106116ec57634e487b7160e01b600052603260045260246000fd5b6020026020010181905250610131600087838151811061171c57634e487b7160e01b600052603260045260246000fd5b60200260200101518152602001908152602001600020600301805461174090615d7f565b80601f016020809104026020016040519081016040528092919081815260200182805461176c90615d7f565b80156117b95780601f1061178e576101008083540402835291602001916117b9565b820191906000526020600020905b81548152906001019060200180831161179c57829003601f168201915b50505050508482815181106117de57634e487b7160e01b600052603260045260246000fd5b60200260200101819052508a610134600088848151811061180f57634e487b7160e01b600052603260045260246000fd5b6020026020010151815260200190815260200160002054146118c0576101306000610134600089858151811061185557634e487b7160e01b600052603260045260246000fd5b60200260200101518152602001908152602001600020548152602001908152602001600020600501600087838151811061189f57634e487b7160e01b600052603260045260246000fd5b60200260200101518152602001908152602001600020600001549150611903565b8660050160008783815181106118e657634e487b7160e01b600052603260045260246000fd5b602002602001015181526020019081526020016000206000015491505b61195b82610d4b61013160008a868151811061192f57634e487b7160e01b600052603260045260246000fd5b60200260200101518152602001908152602001600020600201546101385461363590919063ffffffff16565b83828151811061197b57634e487b7160e01b600052603260045260246000fd5b60209081029190910101528061199081615db4565b9150506115fc565b509299909850909650945050505050565b60006001600160a01b038216611a145760405162461bcd60e51b815260206004820152602a60248201527f4552433732313a2062616c616e636520717565727920666f7220746865207a65604482015269726f206164647265737360b01b60648201526084016109a4565b506001600160a01b031660009081526068602052604090205490565b6000611a3c6101325490565b905090565b600084815261012f602052604090206002015484906001600160a01b031615611a7c5760405162461bcd60e51b81526004016109a490615b84565b611a858561379e565b611a8f8533613818565b83851415611b195760405162461bcd60e51b815260206004820152604b60248201527f434c4d383a3a7472616e7366657250726f64756374546f547261636b65723a2060448201527f736f75726365547261636b657249642063616e206e6f7420657175616c20746860648201526a19481d1c9858dad95c925960aa1b608482015260a4016109a4565b600085815261013060209081526040808320868452600581018352818420610136845282852089865284528285203386529093529220548410611bf45760405162461bcd60e51b815260206004820152606160248201527f434c4d383a3a7472616e7366657250726f64756374546f547261636b65723a2060448201527f70726f64756374416d6f756e7420657863656564732070726f6475637473206160648201527f7661696c61626c6520666f726d2074686520736f75726365547261636b6572496084820152601960fa1b60a482015260c4016109a4565b6000858152610136602090815260408083208984528252808320338452909152902054611c21908561417d565b6000868152610136602090815260408083208a84528252808320338452825280832093909355868455600180850188905560038087018054928301815584528284209091018990558a835261012f9091529190200154611c819085613396565b600097885261012f602052604090972060030196909655505050505050565b611d016040518061012001604052806000815260200160006001600160a01b0316815260200160006001600160a01b031681526020016000815260200160008152602001600081526020016000815260200160608152602001606081525090565b600082815261012f60209081526040808320610130909252822082611d268383613072565b60408051610120810182528554815260018601546001600160a01b039081166020830152600287015416918101919091526003850154606082015260048501546080820152600585015460a0820152600685015460c08201526007850180549293508592849291849160e084019190611d9e90615d7f565b80601f0160208091040260200160405190810160405280929190818152602001828054611dca90615d7f565b8015611e175780601f10611dec57610100808354040283529160200191611e17565b820191906000526020600020905b815481529060010190602001808311611dfa57829003601f168201915b50505050508152602001600882018054611e3090615d7f565b80601f0160208091040260200160405190810160405280929190818152602001828054611e5c90615d7f565b8015611ea95780601f10611e7e57610100808354040283529160200191611ea9565b820191906000526020600020905b815481529060010190602001808311611e8c57829003601f168201915b505050505081525050915094509450505050915091565b60009182526097602090815260408084206001600160a01b0393909316845291905290205460ff1690565b6060606680546108ac90615d7f565b600080611f0688614189565b9050611f16818888888888613c38565b611f248882600001546141e5565b54979650505050505050565b600084611f3c81614328565b85611f468161379e565b600086815261013160205260408120546001600160a01b031690611fc1611f6e8a8a8a611102565b6040517f19457468657265756d205369676e6564204d6573736167653a0a3332000000006020820152603c8101829052600090605c01604051602081830303815290604052805190602001209050919050565b90506001600160a01b038216611fd782886143a3565b6001600160a01b0316149998505050505050505050565b610e0a3383836143c7565b6000611a3c6101335490565b3361201e600080516020615e4a83398151915282611ec0565b6120895760405162461bcd60e51b815260206004820152603660248201527f434c4d383a3a72656769737465726564547261636b65723a20746865206164646044820152751c995cdcc81a5cc81b9bdd081c9959da5cdd195c995960521b60648201526084016109a4565b61012d546040516349b9055760e01b81526001600160a01b038581166004830152909116906349b905579060240160206040518083038186803b1580156120cf57600080fd5b505afa1580156120e3573d6000803e3d6000fd5b505050506040513d601f19601f820116820180604052508101906121079190615415565b80612110575081155b6121905760405162461bcd60e51b8152602060048201526044602482018190527f434c4d383a3a617070726f766556657269666965723a20616464726573732069908201527f73206e6f742061207265676973746572656420656d697373696f6e732061756460648201526334ba37b960e11b608482015260a4016109a4565b6001600160a01b0383163314156122055760405162461bcd60e51b815260206004820152603360248201527f434c4d383a3a617070726f766556657269666965723a2061756469746f72206360448201527230b73737ba1031329036b9b39739b2b73232b960691b60648201526084016109a4565b6001600160a01b0383166000908152610137602090815260408083203384529091529020805460ff191683158015919091179091556122795760405133906001600160a01b038516907ff31635902a304a612155085cc8916b9ab86fc115155b10b33980f6cb8165c54e90600090a3610ada565b60405133906001600160a01b038516907f490861baee43b8ebd28f134f99c0aa7848888c4bde402256ad4cf455d147aed690600090a3505050565b600081815261012f602052604090206002015481906001600160a01b0316156122ef5760405162461bcd60e51b81526004016109a490615b84565b600082815261012f60205260409020600101548290612316906001600160a01b0316614496565b5050600090815261012f6020526040902060020180546001600160a01b03191633179055565b61234582614328565b61234f8233613818565b60008281526101306020908152604080832087845260058101909252909120600181015485106124025760405162461bcd60e51b815260206004820152605260248201527f434c4d383a3a7472616e7366657250726f647563743a2070726f64756374416d60448201527f6f756e7420657863656564732070726f647563747320617661696c61626c65206064820152711a5b881cdbdd5c98d9551c9858dad95c925960721b608482015260a4016109a4565b6001810154612411908661417d565b600182015560008681526101366020908152604080832087845282528083206001600160a01b038716845290915290205461244c9086613396565b6000968752610136602090815260408089209689529581528588206001600160a01b03909516885293909352505092209190915550565b61248d33836133a2565b6124a95760405162461bcd60e51b81526004016109a490615ae8565b6124b5848484846145d6565b50505050565b600081815261013060209081526040918290206006018054835181840281018401909452808452606093928301828280156112f057602002820191906000526020600020908154815260200190600101908083116112dc5750505050509050919050565b60008181526101306020908152604080832060038101805483518186028101860190945280845260609586958695919391929083018282801561258157602002820191906000526020600020905b81548152602001906001019080831161256d575b50505050509050600081516001600160401b038111156125b157634e487b7160e01b600052604160045260246000fd5b6040519080825280602002602001820160405280156125da578160200160208202803683370190505b509050600082516001600160401b0381111561260657634e487b7160e01b600052604160045260246000fd5b60405190808252806020026020018201604052801561262f578160200160208202803683370190505b5090506000805b84518110156126f05785600501600086838151811061266557634e487b7160e01b600052603260045260246000fd5b60200260200101518152602001908152602001600020915081600001548482815181106126a257634e487b7160e01b600052603260045260246000fd5b60200260200101818152505081600101548382815181106126d357634e487b7160e01b600052603260045260246000fd5b6020908102919091010152806126e881615db4565b915050612636565b50929891975095509350505050565b6000818152606760205260409020546060906001600160a01b031661277e5760405162461bcd60e51b815260206004820152602f60248201527f4552433732314d657461646174613a2055524920717565727920666f72206e6f60448201526e3732bc34b9ba32b73a103a37b5b2b760891b60648201526084016109a4565b600061279560408051602081019091526000815290565b905060008151116127b557604051806020016040528060008152506127e0565b806127bf84614609565b6040516020016127d092919061584a565b6040516020818303038152906040525b9392505050565b600086815261012f602052604090206002015486906001600160a01b0316156128225760405162461bcd60e51b81526004016109a490615b84565b8661282c8161379e565b600088815261012f60205260409020600101548890612853906001600160a01b0316614496565b600089815261012f6020908152604080832061013090925290912089518951146128f95760405162461bcd60e51b815260206004820152604b60248201527f434c4d383a3a70726f64756374735570646174653a2070726f64756374416d6f60448201527f756e747320616e642070726f6475637449647320617265206e6f74207468652060648201526a0e6c2daca40d8cadccee8d60ab1b608482015260a4016109a4565b89518851146129825760405162461bcd60e51b815260206004820152604960248201527f434c4d383a3a70726f64756374735570646174653a2070726f647563744e616d60448201527f657320616e642070726f6475637449647320617265206e6f74207468652073616064820152680daca40d8cadccee8d60bb1b608482015260a4016109a4565b89518651146129a35760405162461bcd60e51b81526004016109a490615a21565b89518751146129c45760405162461bcd60e51b81526004016109a490615a21565b60008060005b8c51811015612de25760008d82815181106129f557634e487b7160e01b600052603260045260246000fd5b60200260200101511115612b99578c8181518110612a2357634e487b7160e01b600052603260045260246000fd5b602002602001015192508d61013460008581526020019081526020016000205414612ab8576040805162461bcd60e51b81526020600482015260248101919091527f434c4d383a3a70726f64756374735570646174653a2070726f6475637449647360448201527f5b695d20646f6573206e6f742062656c6f6e6720746f20747261636b6572496460648201526084016109a4565b612af68c8281518110612adb57634e487b7160e01b600052603260045260246000fd5b6020026020010151866003015461417d90919063ffffffff16565b6003860155600083815261013160205260409020546001600160a01b03163314612b945760405162461bcd60e51b815260206004820152604360248201527f434c4d383a3a70726f64756374735570646174653a206d73672e73656e64657260448201527f206973206e6f74207468652061756469746f72206f6620746869732070726f646064820152621d58dd60ea1b608482015260a4016109a4565b612c2f565b612ba861013380546001019055565b6101335492508d6101346000858152602001908152602001600020819055508360030183908060018154018082558091505060019003906000526020600020016000909190919091505533610131600085815260200190815260200160002060000160006101000a8154816001600160a01b0302191690836001600160a01b031602179055505b600083815260058501602052604090208b519092508b9082908110612c6457634e487b7160e01b600052603260045260246000fd5b602002602001015161013160008581526020019081526020016000206001019080519060200190612c96929190614f25565b50888181518110612cb757634e487b7160e01b600052603260045260246000fd5b6020026020010151610131600085815260200190815260200160002060020181905550898181518110612cfa57634e487b7160e01b600052603260045260246000fd5b602002602001015161013160008581526020019081526020016000206003019080519060200190612d2c929190614f25565b508b8181518110612d4d57634e487b7160e01b600052603260045260246000fd5b602002602001015182600001819055508b8181518110612d7d57634e487b7160e01b600052603260045260246000fd5b60200260200101518260010181905550612dcb8c8281518110612db057634e487b7160e01b600052603260045260246000fd5b6020026020010151866003015461339690919063ffffffff16565b600386015580612dda81615db4565b9150506129ca565b5083546040517fcae18be6040b3a94c418e2e09d130e25f25a0069beec7edc902c803cf7f61ebf90612e17908f908f90615977565b60405180910390a250505050505050505050505050565b600082815260976020526040902060010154612e4a8133610d81565b610ada8383613737565b600081815261012f60205260409020600101548190612e7b906001600160a01b0316614496565b50600090815261012f6020526040902060020180546001600160a01b0319169055565b600081815261013060209081526040808320805482518185028101850190935280835260609485949293909290918491830182828015612efd57602002820191906000526020600020905b815481526020019060010190808311612ee9575b50505050509050600081516001600160401b03811115612f2d57634e487b7160e01b600052604160045260246000fd5b604051908082528060200260200182016040528015612f56578160200160208202803683370190505b50905060005b8251811015610f4f57836002016000848381518110612f8b57634e487b7160e01b600052603260045260246000fd5b6020026020010151815260200190815260200160002054828281518110612fc257634e487b7160e01b600052603260045260246000fd5b602090810291909101015280612fd781615db4565b915050612f5c565b60006001600160e01b03198216630271189760e51b1480610895575061089582614723565b600081815260696020526040902080546001600160a01b0319166001600160a01b038416908117909155819061303982611398565b6001600160a01b03167f8c5be1e5ebec7d5bd14f71427d1e84f3dd0314c0f7b2291e5b200ac8c7c3b92560405160405180910390a45050565b60008181805b82548110156130e7576130d38560020160008584815481106130aa57634e487b7160e01b600052603260045260246000fd5b90600052602060002001548152602001908152602001600020548361339690919063ffffffff16565b9150806130df81615db4565b915050613078565b5060008460030180548060200260200160405190810160405280929190818152602001828054801561313857602002820191906000526020600020905b815481526020019060010190808311613124575b5050505050905060005b81518110156131bf576000610134600084848151811061317257634e487b7160e01b600052603260045260246000fd5b60200260200101518152602001908152602001600020549050876000015481146131ac576131a96131a282610adf565b8590613396565b93505b50806131b781615db4565b915050613142565b5060008560060180548060200260200160405190810160405280929190818152602001828054801561321057602002820191906000526020600020905b8154815260200190600101908083116131fc575b50505050509050600080600090505b825181101561337f5787600801600084838151811061324e57634e487b7160e01b600052603260045260246000fd5b602002602001015181526020019081526020016000209150816000018054806020026020016040519081016040528092919081815260200182805480156132b457602002820191906000526020600020905b8154815260200190600101908083116132a0575b50505050509350600080600090505b855181101561336a578360020160008783815181106132f257634e487b7160e01b600052603260045260246000fd5b6020026020010151815260200190815260200160002054915061335661334f61013854610d4b61334889888151811061333b57634e487b7160e01b600052603260045260246000fd5b6020026020010151610d14565b8690613635565b8890613396565b96508061336281615db4565b9150506132c3565b5050808061337790615db4565b91505061321f565b5092979650505050505050565b610e0a82826136b1565b60006127e08284615cda565b6000818152606760205260408120546001600160a01b031661341b5760405162461bcd60e51b815260206004820152602c60248201527f4552433732313a206f70657261746f7220717565727920666f72206e6f6e657860448201526b34b9ba32b73a103a37b5b2b760a11b60648201526084016109a4565b600061342683611398565b9050806001600160a01b0316846001600160a01b031614806134615750836001600160a01b03166134568461092f565b6001600160a01b0316145b8061349157506001600160a01b038082166000908152606a602090815260408083209388168352929052205460ff165b949350505050565b826001600160a01b03166134ac82611398565b6001600160a01b0316146135105760405162461bcd60e51b815260206004820152602560248201527f4552433732313a207472616e736665722066726f6d20696e636f72726563742060448201526437bbb732b960d91b60648201526084016109a4565b6001600160a01b0382166135725760405162461bcd60e51b8152602060048201526024808201527f4552433732313a207472616e7366657220746f20746865207a65726f206164646044820152637265737360e01b60648201526084016109a4565b61357d600082613004565b6001600160a01b03831660009081526068602052604081208054600192906135a6908490615d25565b90915550506001600160a01b03821660009081526068602052604081208054600192906135d4908490615cda565b909155505060008181526067602052604080822080546001600160a01b0319166001600160a01b0386811691821790925591518493918716917fddf252ad1be2c89b69c2b068fc378daa952ba7f163c4a11628f55a4df523b3ef91a4610ada565b60006127e08284615d06565b60006127e08284615cf2565b6136578282611ec0565b610e0a5761366f816001600160a01b03166014614748565b61367a836020614748565b60405160200161368b929190615879565b60408051601f198184030181529082905262461bcd60e51b82526109a491600401615a0e565b6136bb8282611ec0565b610e0a5760008281526097602090815260408083206001600160a01b03851684529091529020805460ff191660011790556136f33390565b6001600160a01b0316816001600160a01b0316837f2f8788117e7eff1d82e926ec794901d17c78024a50270940304540a733656f0d60405160405180910390a45050565b6137418282611ec0565b15610e0a5760008281526097602090815260408083206001600160a01b0385168085529252808320805460ff1916905551339285917ff6391f5c32d9c69d2a47ea670b442974b53935d1edc7fd64eb21e047a839171b9190a45050565b806137a96101325490565b10156138155760405162461bcd60e51b815260206004820152603560248201527f434c4d383a3a5f747261636b65724578697374733a20747261636b657220746f6044820152741ad95b88125108191bd95cc81b9bdd08195e1a5cdd605a1b60648201526084016109a4565b50565b806001600160a01b031661382b83611398565b6001600160a01b031614610e0a5760405162461bcd60e51b815260206004820152603260248201527f434c4d383a3a5f69734f776e65723a206d73672e73656e64657220646f6573206044820152711bdddb881d1a1a5cc81d1c9858dad95c925960721b60648201526084016109a4565b600084815261013060209081526040808320868452600881018352818420868552600281019093529220546138d19084613396565b600085815260028301602081815260408084208590558984526007870182528084205489855260018701835293205491905290911561393f578061393a578254600181810185556000858152602080822090930189905585548982529186019092526040909120555b613a73565b8015613a6157825460011015613a15578254839061395f90600190615d25565b8154811061397d57634e487b7160e01b600052603260045260246000fd5b60009182526020909120015483613995600184615d25565b815481106139b357634e487b7160e01b600052603260045260246000fd5b906000526020600020018190555080836001016000856000016001856139d99190615d25565b815481106139f757634e487b7160e01b600052603260045260246000fd5b90600052602060002001548152602001908152602001600020819055505b60008681526001808501602052604082209190915583548491613a3791615d25565b81548110613a5557634e487b7160e01b600052603260045260246000fd5b60009182526020822001555b60008681526002840160205260408120555b825415613ab35781613aae57600684018054600181018255600082815260208082209092018a90559154898352600787019091526040909120555b613bfd565b8115613bdf57600684015460011015613b9257600684018054613ad890600190615d25565b81548110613af657634e487b7160e01b600052603260045260246000fd5b906000526020600020015484600601600184613b129190615d25565b81548110613b3057634e487b7160e01b600052603260045260246000fd5b90600052602060002001819055508184600701600086600601600186613b569190615d25565b81548110613b7457634e487b7160e01b600052603260045260246000fd5b90600052602060002001548152602001908152602001600020819055505b6000878152600785016020526040812055600684018054613bb590600190615d25565b81548110613bd357634e487b7160e01b600052603260045260246000fd5b60009182526020822001555b6000878152600885016020526040812090613bfa8282614fa9565b50505b5050505050505050565b600054610100900460ff16613c2e5760405162461bcd60e51b81526004016109a490615b39565b610e0a8282614929565b6001860154613c4f906001600160a01b0316614496565b8215613c5d57600486018390555b8115613c6b57600586018290555b805115613c89578051613c879060088801906020840190614f25565b505b8451845114613d005760405162461bcd60e51b815260206004820152603f60248201527f434c4d383a3a5f747261636b3a20746f6b656e416d6f756e747320616e64207460448201527f6f6b656e49647320617265206e6f74207468652073616d65206c656e6774680060648201526084016109a4565b8554600090815261013060205260408120905b86518110156141305761012d5487516000916001600160a01b031690637f157c9b9030908b9086908110613d5757634e487b7160e01b600052603260045260246000fd5b60200260200101516040518363ffffffff1660e01b8152600401613d909291906001600160a01b03929092168252602082015260400190565b604080518083038186803b158015613da757600080fd5b505afa158015613dbb573d6000803e3d6000fd5b505050506040513d601f19601f82011682018060405250810190613ddf91906155bf565b509050868281518110613e0257634e487b7160e01b600052603260045260246000fd5b6020026020010151613e5861013560008b8681518110613e3257634e487b7160e01b600052603260045260246000fd5b60200260200101518152602001908152602001600020548361417d90919063ffffffff16565b101580613e70575061012e546001600160a01b031633145b613f085760405162461bcd60e51b815260206004820152605760248201527f434c4d383a3a5f747261636b3a20746f6b656e416d6f756e74735b695d20697360448201527f2067726561746572207468616e207768617420697320617661696c61626c652060648201527f746f2074686520747261636b657220636f6e7472616374000000000000000000608482015260a4016109a4565b613f7d878381518110613f2b57634e487b7160e01b600052603260045260246000fd5b602002602001015161013560008b8681518110613f5857634e487b7160e01b600052603260045260246000fd5b602002602001015181526020019081526020016000205461339690919063ffffffff16565b61013560008a8581518110613fa257634e487b7160e01b600052603260045260246000fd5b602002602001015181526020019081526020016000208190555060008360010160008a8581518110613fe457634e487b7160e01b600052603260045260246000fd5b60200260200101518152602001908152602001600020549050600061012d60009054906101000a90046001600160a01b03166001600160a01b031663127d5ad08b868151811061404457634e487b7160e01b600052603260045260246000fd5b60200260200101516040518263ffffffff1660e01b815260040161406a91815260200190565b60206040518083038186803b15801561408257600080fd5b505afa158015614096573d6000803e3d6000fd5b505050506040513d601f19601f820116820180604052508101906140ba9190615739565b905061411a858b86815181106140e057634e487b7160e01b600052603260045260246000fd5b60200260200101518b878151811061410857634e487b7160e01b600052603260045260246000fd5b6020026020010151858560ff16614977565b505050808061412890615db4565b915050613d13565b5086546040513391907ff739febd63941a495aedbbe2904daf1f12f653420da0213529a1f3eb6d61c1c49061416c908a908a908a908a906159d5565b60405180910390a350505050505050565b60006127e08284615d25565b600061419a61013280546001019055565b60006141a66101325490565b600081815261012f602052604090209081556001810180546001600160a01b0386166001600160a01b0319909116179055426006820155915050919050565b6001600160a01b03821661423b5760405162461bcd60e51b815260206004820181905260248201527f4552433732313a206d696e7420746f20746865207a65726f206164647265737360448201526064016109a4565b6000818152606760205260409020546001600160a01b0316156142a05760405162461bcd60e51b815260206004820152601c60248201527f4552433732313a20746f6b656e20616c7265616479206d696e7465640000000060448201526064016109a4565b6001600160a01b03821660009081526068602052604081208054600192906142c9908490615cda565b909155505060008181526067602052604080822080546001600160a01b0319166001600160a01b03861690811790915590518392907fddf252ad1be2c89b69c2b068fc378daa952ba7f163c4a11628f55a4df523b3ef908290a4610e0a565b600081815261012f60205260409020600201546001600160a01b03166138155760405162461bcd60e51b815260206004820152602a60248201527f434c4d383a3a5f6973417564697465643a20747261636b65724964206973206e6044820152691bdd08185d591a5d195960b21b60648201526084016109a4565b60008060006143b28585614a2f565b915091506143bf81614a9f565b509392505050565b816001600160a01b0316836001600160a01b031614156144295760405162461bcd60e51b815260206004820152601960248201527f4552433732313a20617070726f766520746f2063616c6c65720000000000000060448201526064016109a4565b6001600160a01b038381166000818152606a6020908152604080832094871680845294825291829020805460ff191686151590811790915591519182527f17307eab39ab6107e8899845ad3d59bd9653f200f220920489ca2b5937696c31910160405180910390a3505050565b336000908152610137602090815260408083206001600160a01b038516845290915290205460ff1680614556575061012d546040516349b9055760e01b81523360048201526001600160a01b03909116906349b905579060240160206040518083038186803b15801561450857600080fd5b505afa15801561451c573d6000803e3d6000fd5b505050506040513d601f19601f820116820180604052508101906145409190615415565b80614556575061012e546001600160a01b031633145b6138155760405162461bcd60e51b815260206004820152604560248201527f434c4d383a3a5f697341756469746f723a205f747261636b6565206973206e6f60448201527f7420616e6420617070726f7665642061756469746f72206f662074686520747260648201526461636b656560d81b608482015260a4016109a4565b6145e1848484613499565b6145ed84848484614ca2565b6124b55760405162461bcd60e51b81526004016109a490615a96565b60608161462e57506040805180820190915260018152600360fc1b6020820152610898565b8160005b8115614658578061464281615db4565b91506146519050600a83615cf2565b9150614632565b6000816001600160401b0381111561468057634e487b7160e01b600052604160045260246000fd5b6040519080825280601f01601f1916602001820160405280156146aa576020820181803683370190505b5090505b8415613491576146bf600183615d25565b91506146cc600a86615dcf565b6146d7906030615cda565b60f81b8183815181106146fa57634e487b7160e01b600052603260045260246000fd5b60200101906001600160f81b031916908160001a90535061471c600a86615cf2565b94506146ae565b60006001600160e01b03198216637965db0b60e01b1480610895575061089582614daf565b60606000614757836002615d06565b614762906002615cda565b6001600160401b0381111561478757634e487b7160e01b600052604160045260246000fd5b6040519080825280601f01601f1916602001820160405280156147b1576020820181803683370190505b509050600360fc1b816000815181106147da57634e487b7160e01b600052603260045260246000fd5b60200101906001600160f81b031916908160001a905350600f60fb1b8160018151811061481757634e487b7160e01b600052603260045260246000fd5b60200101906001600160f81b031916908160001a905350600061483b846002615d06565b614846906001615cda565b90505b60018111156148da576f181899199a1a9b1b9c1cb0b131b232b360811b85600f166010811061488857634e487b7160e01b600052603260045260246000fd5b1a60f81b8282815181106148ac57634e487b7160e01b600052603260045260246000fd5b60200101906001600160f81b031916908160001a90535060049490941c936148d381615d68565b9050614849565b5083156127e05760405162461bcd60e51b815260206004820181905260248201527f537472696e67733a20686578206c656e67746820696e73756666696369656e7460448201526064016109a4565b600054610100900460ff166149505760405162461bcd60e51b81526004016109a490615b39565b8151614963906065906020850190614f25565b508051610ada906066906020840190614f25565b80600414156149b157600084815260028601602052604090205461499b9084613396565b60008581526002870160205260409020556149e7565b80600214156149e75760008481526002860160205260409020546149d5908461417d565b60008581526002870160205260409020555b6000848152600286016020526040902054156110e057816110e05750508254600180820185556000858152602080822090930185905585549481529401905250604090912055565b600080825160411415614a665760208301516040840151606085015160001a614a5a87828585614dff565b94509450505050614a98565b825160401415614a905760208301516040840151614a85868383614eec565b935093505050614a98565b506000905060025b9250929050565b6000816004811115614ac157634e487b7160e01b600052602160045260246000fd5b1415614acc57613815565b6001816004811115614aee57634e487b7160e01b600052602160045260246000fd5b1415614b3c5760405162461bcd60e51b815260206004820152601860248201527f45434453413a20696e76616c6964207369676e6174757265000000000000000060448201526064016109a4565b6002816004811115614b5e57634e487b7160e01b600052602160045260246000fd5b1415614bac5760405162461bcd60e51b815260206004820152601f60248201527f45434453413a20696e76616c6964207369676e6174757265206c656e6774680060448201526064016109a4565b6003816004811115614bce57634e487b7160e01b600052602160045260246000fd5b1415614c275760405162461bcd60e51b815260206004820152602260248201527f45434453413a20696e76616c6964207369676e6174757265202773272076616c604482015261756560f01b60648201526084016109a4565b6004816004811115614c4957634e487b7160e01b600052602160045260246000fd5b14156138155760405162461bcd60e51b815260206004820152602260248201527f45434453413a20696e76616c6964207369676e6174757265202776272076616c604482015261756560f01b60648201526084016109a4565b60006001600160a01b0384163b15614da457604051630a85bd0160e11b81526001600160a01b0385169063150b7a0290614ce69033908990889088906004016158ee565b602060405180830381600087803b158015614d0057600080fd5b505af1925050508015614d30575060408051601f3d908101601f19168201909252614d2d91810190615487565b60015b614d8a573d808015614d5e576040519150601f19603f3d011682016040523d82523d6000602084013e614d63565b606091505b508051614d825760405162461bcd60e51b81526004016109a490615a96565b805181602001fd5b6001600160e01b031916630a85bd0160e11b149050613491565b506001949350505050565b60006001600160e01b031982166380ac58cd60e01b1480614de057506001600160e01b03198216635b5e139f60e01b145b8061089557506301ffc9a760e01b6001600160e01b0319831614610895565b6000807f7fffffffffffffffffffffffffffffff5d576e7357a4501ddfe92f46681b20a0831115614e365750600090506003614ee3565b8460ff16601b14158015614e4e57508460ff16601c14155b15614e5f5750600090506004614ee3565b6040805160008082526020820180845289905260ff881692820192909252606081018690526080810185905260019060a0016020604051602081039080840390855afa158015614eb3573d6000803e3d6000fd5b5050604051601f1901519150506001600160a01b038116614edc57600060019250925050614ee3565b9150600090505b94509492505050565b6000806001600160ff1b03831681614f0960ff86901c601b615cda565b9050614f1787828885614dff565b935093505050935093915050565b828054614f3190615d7f565b90600052602060002090601f016020900481019282614f535760008555614f99565b82601f10614f6c57805160ff1916838001178555614f99565b82800160010185558215614f99579182015b82811115614f99578251825591602001919060010190614f7e565b50614fa5929150614fc3565b5090565b508054600082559060005260206000209081019061381591905b5b80821115614fa55760008155600101614fc4565b80356001600160a01b038116811461089857600080fd5b600082601f830112614fff578081fd5b8135602061501461500f83615cb7565b615c87565b82815281810190858301855b8581101561504957615037898684358b01016150b3565b84529284019290840190600101615020565b5090979650505050505050565b600082601f830112615066578081fd5b8135602061507661500f83615cb7565b80838252828201915082860187848660051b8901011115615095578586fd5b855b8581101561504957813584529284019290840190600101615097565b600082601f8301126150c3578081fd5b81356001600160401b038111156150dc576150dc615e0f565b6150ef601f8201601f1916602001615c87565b818152846020838601011115615103578283fd5b816020850160208301379081016020019190915292915050565b60006020828403121561512e578081fd5b6127e082614fd8565b60008060408385031215615149578081fd5b61515283614fd8565b915061516060208401614fd8565b90509250929050565b600080600080600060a08688031215615180578081fd5b61518986614fd8565b945061519760208701614fd8565b935060408601356001600160401b03808211156151b2578283fd5b6151be89838a01615056565b945060608801359150808211156151d3578283fd5b6151df89838a01615056565b935060808801359150808211156151f4578283fd5b50615201888289016150b3565b9150509295509295909350565b600080600060608486031215615222578283fd5b61522b84614fd8565b925061523960208501614fd8565b9150604084013590509250925092565b6000806000806080858703121561525e578384fd5b61526785614fd8565b935061527560208601614fd8565b92506040850135915060608501356001600160401b03811115615296578182fd5b6152a2878288016150b3565b91505092959194509250565b600080600080600060a086880312156152c5578081fd5b6152ce86614fd8565b94506152dc60208701614fd8565b9350604086013592506060860135915060808601356001600160401b03811115615304578182fd5b615201888289016150b3565b60008060008060008060c08789031215615328578384fd5b61533187614fd8565b955060208701356001600160401b038082111561534c578586fd5b6153588a838b01615056565b9650604089013591508082111561536d578586fd5b6153798a838b01615056565b9550606089013594506080890135935060a089013591508082111561539c578283fd5b506153a989828a016150b3565b9150509295509295509295565b600080604083850312156153c8578182fd5b6153d183614fd8565b915060208301356153e181615e25565b809150509250929050565b600080604083850312156153fe578182fd5b61540783614fd8565b946020939093013593505050565b600060208284031215615426578081fd5b81516127e081615e25565b600060208284031215615442578081fd5b5035919050565b6000806040838503121561545b578182fd5b8235915061516060208401614fd8565b60006020828403121561547c578081fd5b81356127e081615e33565b600060208284031215615498578081fd5b81516127e081615e33565b60008060008060008060c087890312156154bb578384fd5b8635955060208701356001600160401b03808211156154d8578586fd5b6154e48a838b01615056565b965060408901359150808211156154f9578586fd5b6155058a838b01615056565b9550606089013591508082111561551a578384fd5b6155268a838b01614fef565b9450608089013591508082111561553b578384fd5b6155478a838b01614fef565b935060a089013591508082111561555c578283fd5b506153a989828a01615056565b60008060008060008060c08789031215615581578384fd5b8635955060208701356001600160401b038082111561534c578586fd5b600080604083850312156155b0578182fd5b50508035926020909101359150565b600080604083850312156155d1578182fd5b505080516020909101519092909150565b6000806000606084860312156155f6578081fd5b833592506020840135915061560d60408501614fd8565b90509250925092565b60008060006060848603121561562a578081fd5b833592506020840135915060408401356001600160401b0381111561564d578182fd5b615659868287016150b3565b9150509250925092565b60008060008060808587031215615678578182fd5b843593506020850135925060408501356001600160401b038082111561569c578384fd5b6156a8888389016150b3565b935060608701359150808211156156bd578283fd5b506152a2878288016150b3565b600080600080608085870312156156df578182fd5b8435935060208501359250604085013591506156fd60608601614fd8565b905092959194509250565b6000806000806080858703121561571d578182fd5b5050823594602084013594506040840135936060013592509050565b60006020828403121561574a578081fd5b815160ff811681146127e0578182fd5b6000815180845260208085019450848260051b8601828601855b8581101561504957838303895261578c8383516157d8565b98850198925090840190600101615774565b6000815180845260208085019450808401835b838110156157cd578151875295820195908201906001016157b1565b509495945050505050565b600081518084526157f0816020860160208601615d3c565b601f01601f19169290920160200192915050565b60006bffffffffffffffffffffffff198660601b168252846014830152836034830152825161583a816054850160208701615d3c565b9190910160540195945050505050565b6000835161585c818460208801615d3c565b835190830190615870818360208801615d3c565b01949350505050565b60007f416363657373436f6e74726f6c3a206163636f756e7420000000000000000000825283516158b1816017850160208801615d3c565b7001034b99036b4b9b9b4b733903937b6329607d1b60179184019182015283516158e2816028840160208801615d3c565b01602801949350505050565b6001600160a01b0385811682528416602082015260408101839052608060608201819052600090615921908301846157d8565b9695505050505050565b60006060825261593e606083018661575a565b8281036020840152615950818661579e565b90508281036040840152615921818561575a565b6000602082526127e0602083018461579e565b60006040825261598a604083018561579e565b8281036020840152610b04818561579e565b6000606082526159af606083018661579e565b82810360208401526159c1818661579e565b90508281036040840152615921818561579e565b6000608082526159e8608083018761579e565b82810360208401526159fa818761579e565b604084019590955250506060015292915050565b6000602082526127e060208301846157d8565b6020808252604f908201527f434c4d383a3a70726f64756374735570646174653a2070726f64756374556e6960408201527f74416d6f756e747320616e642070726f6475637449647320617265206e6f742060608201526e0e8d0ca40e6c2daca40d8cadccee8d608b1b608082015260a00190565b60208082526032908201527f4552433732313a207472616e7366657220746f206e6f6e20455243373231526560408201527131b2b4bb32b91034b6b83632b6b2b73a32b960711b606082015260800190565b60208082526031908201527f4552433732313a207472616e736665722063616c6c6572206973206e6f74206f6040820152701ddb995c881b9bdc88185c1c1c9bdd9959607a1b606082015260800190565b6020808252602b908201527f496e697469616c697a61626c653a20636f6e7472616374206973206e6f74206960408201526a6e697469616c697a696e6760a81b606082015260800190565b6020808252602e908201527f434c4d383a3a6e6f74417564697465643a20747261636b65724964206973206160408201526d1b1c9958591e48185d591a5d195960921b606082015260800190565b600060408252835160408301526020840151615bf960608401826001600160a01b03169052565b5060408401516001600160a01b038116608084015250606084015160a0830152608084015160c083015260a084015160e083015260c0840151610100818185015260e08601519150610120808186015250615c586101608501836157d8565b90860151848203603f1901610140860152909150615c7682826157d8565b925050508260208301529392505050565b604051601f8201601f191681016001600160401b0381118282101715615caf57615caf615e0f565b604052919050565b60006001600160401b03821115615cd057615cd0615e0f565b5060051b60200190565b60008219821115615ced57615ced615de3565b500190565b600082615d0157615d01615df9565b500490565b6000816000190483118215151615615d2057615d20615de3565b500290565b600082821015615d3757615d37615de3565b500390565b60005b83811015615d57578181015183820152602001615d3f565b838111156124b55750506000910152565b600081615d7757615d77615de3565b506000190190565b600181811c90821680615d9357607f821691505b60208210811415610d6357634e487b7160e01b600052602260045260246000fd5b6000600019821415615dc857615dc8615de3565b5060010190565b600082615dde57615dde615df9565b500690565b634e487b7160e01b600052601160045260246000fd5b634e487b7160e01b600052601260045260246000fd5b634e487b7160e01b600052604160045260246000fd5b801515811461381557600080fd5b6001600160e01b03198116811461381557600080fdfe4f9730948b73761de8f37a0aea1760c5eef658d37d8c456767b81e17c01f30eda2646970667358221220c858d38257c3b0e4c9d5d00342d19ef981c37710f085927affa7b46cec85762764736f6c63430008030033",
  "linkReferences": {},
  "deployedLinkReferences": {}
}