{
  "_format": "hh-sol-artifact-1",
  "contractName": "CarbonTracker",
  "sourceName": "contracts/Governance/CarbonTracker.sol",
  "abi": [
    {
      "anonymous": false,
      "inputs": [
        {
          "indexed": true,
          "internalType": "address",
          "name": "owner",
          "type": "address"
        },
        {
          "indexed": true,
          "internalType": "address",
          "name": "approved",
          "type": "address"
        },
        {
          "indexed": true,
          "internalType": "uint256",
          "name": "tokenId",
          "type": "uint256"
        }
      ],
      "name": "Approval",
      "type": "event"
    },
    {
      "anonymous": false,
      "inputs": [
        {
          "indexed": true,
          "internalType": "address",
          "name": "owner",
          "type": "address"
        },
        {
          "indexed": true,
          "internalType": "address",
          "name": "operator",
          "type": "address"
        },
        {
          "indexed": false,
          "internalType": "bool",
          "name": "approved",
          "type": "bool"
        }
      ],
      "name": "ApprovalForAll",
      "type": "event"
    },
    {
      "anonymous": false,
      "inputs": [
        {
          "indexed": true,
          "internalType": "address",
          "name": "account",
          "type": "address"
        }
      ],
      "name": "RegisteredTracker",
      "type": "event"
    },
    {
      "anonymous": false,
      "inputs": [
        {
          "indexed": true,
          "internalType": "bytes32",
          "name": "role",
          "type": "bytes32"
        },
        {
          "indexed": true,
          "internalType": "bytes32",
          "name": "previousAdminRole",
          "type": "bytes32"
        },
        {
          "indexed": true,
          "internalType": "bytes32",
          "name": "newAdminRole",
          "type": "bytes32"
        }
      ],
      "name": "RoleAdminChanged",
      "type": "event"
    },
    {
      "anonymous": false,
      "inputs": [
        {
          "indexed": true,
          "internalType": "bytes32",
          "name": "role",
          "type": "bytes32"
        },
        {
          "indexed": true,
          "internalType": "address",
          "name": "account",
          "type": "address"
        },
        {
          "indexed": true,
          "internalType": "address",
          "name": "sender",
          "type": "address"
        }
      ],
      "name": "RoleGranted",
      "type": "event"
    },
    {
      "anonymous": false,
      "inputs": [
        {
          "indexed": true,
          "internalType": "bytes32",
          "name": "role",
          "type": "bytes32"
        },
        {
          "indexed": true,
          "internalType": "address",
          "name": "account",
          "type": "address"
        },
        {
          "indexed": true,
          "internalType": "address",
          "name": "sender",
          "type": "address"
        }
      ],
      "name": "RoleRevoked",
      "type": "event"
    },
    {
      "anonymous": false,
      "inputs": [
        {
          "indexed": true,
          "internalType": "uint256",
          "name": "trackerId",
          "type": "uint256"
        },
        {
          "indexed": true,
          "internalType": "address",
          "name": "trackee",
          "type": "address"
        }
      ],
      "name": "TrackeeChanged",
      "type": "event"
    },
    {
      "anonymous": false,
      "inputs": [
        {
          "indexed": true,
          "internalType": "uint256",
          "name": "trackerId",
          "type": "uint256"
        },
        {
          "indexed": true,
          "internalType": "address",
          "name": "tracker",
          "type": "address"
        },
        {
          "indexed": false,
          "internalType": "uint256[]",
          "name": "tokenIds",
          "type": "uint256[]"
        },
        {
          "indexed": false,
          "internalType": "uint256[]",
          "name": "inAmounts",
          "type": "uint256[]"
        },
        {
          "indexed": false,
          "internalType": "uint256[]",
          "name": "outAmounts",
          "type": "uint256[]"
        },
        {
          "indexed": false,
          "internalType": "uint256[]",
          "name": "trackerIds",
          "type": "uint256[]"
        }
      ],
      "name": "TrackerUpdated",
      "type": "event"
    },
    {
      "anonymous": false,
      "inputs": [
        {
          "indexed": true,
          "internalType": "address",
          "name": "from",
          "type": "address"
        },
        {
          "indexed": true,
          "internalType": "address",
          "name": "to",
          "type": "address"
        },
        {
          "indexed": true,
          "internalType": "uint256",
          "name": "tokenId",
          "type": "uint256"
        }
      ],
      "name": "Transfer",
      "type": "event"
    },
    {
      "anonymous": false,
      "inputs": [
        {
          "indexed": true,
          "internalType": "uint256",
          "name": "tokenId",
          "type": "uint256"
        },
        {
          "indexed": true,
          "internalType": "address",
          "name": "trackee",
          "type": "address"
        },
        {
          "indexed": false,
          "internalType": "uint256",
          "name": "amount",
          "type": "uint256"
        }
      ],
      "name": "VerifiedTransfer",
      "type": "event"
    },
    {
      "anonymous": false,
      "inputs": [
        {
          "indexed": true,
          "internalType": "address",
          "name": "auditor",
          "type": "address"
        },
        {
          "indexed": true,
          "internalType": "address",
          "name": "trackee",
          "type": "address"
        }
      ],
      "name": "VerifierApproved",
      "type": "event"
    },
    {
      "anonymous": false,
      "inputs": [
        {
          "indexed": true,
          "internalType": "address",
          "name": "auditor",
          "type": "address"
        },
        {
          "indexed": true,
          "internalType": "address",
          "name": "trackee",
          "type": "address"
        }
      ],
      "name": "VerifierRemoved",
      "type": "event"
    },
    {
      "inputs": [],
      "name": "DEFAULT_ADMIN_ROLE",
      "outputs": [
        {
          "internalType": "bytes32",
          "name": "",
          "type": "bytes32"
        }
      ],
      "stateMutability": "view",
      "type": "function"
    },
    {
      "inputs": [],
      "name": "REGISTERED_TRACKER",
      "outputs": [
        {
          "internalType": "bytes32",
          "name": "",
          "type": "bytes32"
        }
      ],
      "stateMutability": "view",
      "type": "function"
    },
    {
      "inputs": [
        {
          "internalType": "uint256",
          "name": "trackerId",
          "type": "uint256"
        },
        {
          "internalType": "uint8",
          "name": "tokenTypeId",
          "type": "uint8"
        },
        {
          "internalType": "uint256[257]",
          "name": "usedTrackerIds",
          "type": "uint256[257]"
        }
      ],
      "name": "_carbonIntensity",
      "outputs": [
        {
          "internalType": "uint256",
          "name": "",
          "type": "uint256"
        }
      ],
      "stateMutability": "view",
      "type": "function"
    },
    {
      "inputs": [
        {
          "internalType": "uint256",
          "name": "",
          "type": "uint256"
        }
      ],
      "name": "_trackerData",
      "outputs": [
        {
          "internalType": "uint256",
          "name": "trackerId",
          "type": "uint256"
        },
        {
          "internalType": "address",
          "name": "trackee",
          "type": "address"
        },
        {
          "internalType": "address",
          "name": "auditor",
          "type": "address"
        },
        {
          "internalType": "uint256",
          "name": "totalEmissions",
          "type": "uint256"
        },
        {
          "internalType": "uint256",
          "name": "totalAudited",
          "type": "uint256"
        },
        {
          "internalType": "uint256",
          "name": "fromDate",
          "type": "uint256"
        },
        {
          "internalType": "uint256",
          "name": "thruDate",
          "type": "uint256"
        },
        {
          "internalType": "uint256",
          "name": "dateCreated",
          "type": "uint256"
        },
        {
          "internalType": "string",
          "name": "metadata",
          "type": "string"
        },
        {
          "internalType": "string",
          "name": "description",
          "type": "string"
        }
      ],
      "stateMutability": "view",
      "type": "function"
    },
    {
      "inputs": [
        {
          "internalType": "uint256",
          "name": "outAmount",
          "type": "uint256"
        },
        {
          "internalType": "uint256",
          "name": "totalTracked",
          "type": "uint256"
        }
      ],
      "name": "_verifyTotalTracked",
      "outputs": [],
      "stateMutability": "pure",
      "type": "function"
    },
    {
      "inputs": [
        {
          "internalType": "address",
          "name": "to",
          "type": "address"
        },
        {
          "internalType": "uint256",
          "name": "tokenId",
          "type": "uint256"
        }
      ],
      "name": "approve",
      "outputs": [],
      "stateMutability": "nonpayable",
      "type": "function"
    },
    {
      "inputs": [
        {
          "internalType": "address",
          "name": "verifier",
          "type": "address"
        },
        {
          "internalType": "bool",
          "name": "approve",
          "type": "bool"
        }
      ],
      "name": "approveVerifier",
      "outputs": [],
      "stateMutability": "nonpayable",
      "type": "function"
    },
    {
      "inputs": [
        {
          "internalType": "uint256",
          "name": "trackerId",
          "type": "uint256"
        }
      ],
      "name": "audit",
      "outputs": [],
      "stateMutability": "nonpayable",
      "type": "function"
    },
    {
      "inputs": [
        {
          "internalType": "uint256",
          "name": "",
          "type": "uint256"
        }
      ],
      "name": "auditedTrackerId",
      "outputs": [
        {
          "internalType": "uint256",
          "name": "",
          "type": "uint256"
        }
      ],
      "stateMutability": "view",
      "type": "function"
    },
    {
      "inputs": [
        {
          "internalType": "address",
          "name": "owner",
          "type": "address"
        }
      ],
      "name": "balanceOf",
      "outputs": [
        {
          "internalType": "uint256",
          "name": "",
          "type": "uint256"
        }
      ],
      "stateMutability": "view",
      "type": "function"
    },
    {
      "inputs": [
        {
          "internalType": "uint256",
          "name": "trackerId",
          "type": "uint256"
        },
        {
          "internalType": "uint8",
          "name": "tokenTypeId",
          "type": "uint8"
        }
      ],
      "name": "carbonIntensity",
      "outputs": [
        {
          "internalType": "uint256",
          "name": "",
          "type": "uint256"
        }
      ],
      "stateMutability": "view",
      "type": "function"
    },
    {
      "inputs": [
        {
          "internalType": "uint256",
          "name": "trackerId",
          "type": "uint256"
        },
        {
          "internalType": "address",
          "name": "trackee",
          "type": "address"
        }
      ],
      "name": "changeTrackee",
      "outputs": [],
      "stateMutability": "nonpayable",
      "type": "function"
    },
    {
      "inputs": [
        {
          "internalType": "uint256",
          "name": "tokenId",
          "type": "uint256"
        }
      ],
      "name": "getApproved",
      "outputs": [
        {
          "internalType": "address",
          "name": "",
          "type": "address"
        }
      ],
      "stateMutability": "view",
      "type": "function"
    },
    {
      "inputs": [],
      "name": "getNumOfUniqueTrackers",
      "outputs": [
        {
          "internalType": "uint256",
          "name": "",
          "type": "uint256"
        }
      ],
      "stateMutability": "view",
      "type": "function"
    },
    {
      "inputs": [
        {
          "internalType": "bytes32",
          "name": "role",
          "type": "bytes32"
        }
      ],
      "name": "getRoleAdmin",
      "outputs": [
        {
          "internalType": "bytes32",
          "name": "",
          "type": "bytes32"
        }
      ],
      "stateMutability": "view",
      "type": "function"
    },
    {
      "inputs": [
        {
          "internalType": "uint256",
          "name": "trackerId",
          "type": "uint256"
        },
        {
          "internalType": "uint256",
          "name": "sourceTrackerId",
          "type": "uint256"
        }
      ],
      "name": "getTokenAmounts",
      "outputs": [
        {
          "internalType": "uint256[]",
          "name": "",
          "type": "uint256[]"
        },
        {
          "internalType": "uint256[]",
          "name": "",
          "type": "uint256[]"
        },
        {
          "internalType": "uint256[]",
          "name": "",
          "type": "uint256[]"
        }
      ],
      "stateMutability": "view",
      "type": "function"
    },
    {
      "inputs": [
        {
          "internalType": "uint256",
          "name": "trackerId",
          "type": "uint256"
        },
        {
          "internalType": "uint256",
          "name": "sourceTrackerId",
          "type": "uint256"
        },
        {
          "internalType": "uint256",
          "name": "tokenId",
          "type": "uint256"
        }
      ],
      "name": "getTokenIdAmounts",
      "outputs": [
        {
          "internalType": "uint256",
          "name": "",
          "type": "uint256"
        },
        {
          "internalType": "uint256",
          "name": "",
          "type": "uint256"
        }
      ],
      "stateMutability": "view",
      "type": "function"
    },
    {
      "inputs": [
        {
          "internalType": "uint256",
          "name": "trackerId",
          "type": "uint256"
        },
        {
          "internalType": "uint256",
          "name": "tokenId",
          "type": "uint256"
        }
      ],
      "name": "getTokenIdOut",
      "outputs": [
        {
          "internalType": "uint256",
          "name": "",
          "type": "uint256"
        },
        {
          "internalType": "uint256",
          "name": "",
          "type": "uint256"
        }
      ],
      "stateMutability": "view",
      "type": "function"
    },
    {
      "inputs": [
        {
          "internalType": "uint256",
          "name": "trackerId",
          "type": "uint256"
        },
        {
          "internalType": "uint256",
          "name": "sourceTrackerId",
          "type": "uint256"
        }
      ],
      "name": "getTokenIds",
      "outputs": [
        {
          "internalType": "uint256[]",
          "name": "",
          "type": "uint256[]"
        },
        {
          "internalType": "uint256",
          "name": "",
          "type": "uint256"
        }
      ],
      "stateMutability": "view",
      "type": "function"
    },
    {
      "inputs": [
        {
          "internalType": "uint256",
          "name": "trackerId",
          "type": "uint256"
        }
      ],
      "name": "getTrackerDetails",
      "outputs": [
        {
          "components": [
            {
              "internalType": "uint256",
              "name": "trackerId",
              "type": "uint256"
            },
            {
              "internalType": "address",
              "name": "trackee",
              "type": "address"
            },
            {
              "internalType": "address",
              "name": "auditor",
              "type": "address"
            },
            {
              "internalType": "uint256",
              "name": "totalEmissions",
              "type": "uint256"
            },
            {
              "internalType": "uint256",
              "name": "totalAudited",
              "type": "uint256"
            },
            {
              "internalType": "uint256",
              "name": "fromDate",
              "type": "uint256"
            },
            {
              "internalType": "uint256",
              "name": "thruDate",
              "type": "uint256"
            },
            {
              "internalType": "uint256",
              "name": "dateCreated",
              "type": "uint256"
            },
            {
              "internalType": "string",
              "name": "metadata",
              "type": "string"
            },
            {
              "internalType": "string",
              "name": "description",
              "type": "string"
            }
          ],
          "internalType": "struct CarbonTracker.CarbonTrackerDetails",
          "name": "",
          "type": "tuple"
        }
      ],
      "stateMutability": "view",
      "type": "function"
    },
    {
      "inputs": [
        {
          "internalType": "uint256",
          "name": "trackerId",
          "type": "uint256"
        }
      ],
      "name": "getTrackerIds",
      "outputs": [
        {
          "internalType": "uint256[]",
          "name": "",
          "type": "uint256[]"
        }
      ],
      "stateMutability": "view",
      "type": "function"
    },
    {
      "inputs": [
        {
          "internalType": "bytes32",
          "name": "role",
          "type": "bytes32"
        },
        {
          "internalType": "address",
          "name": "account",
          "type": "address"
        }
      ],
      "name": "grantRole",
      "outputs": [],
      "stateMutability": "nonpayable",
      "type": "function"
    },
    {
      "inputs": [
        {
          "internalType": "bytes32",
          "name": "role",
          "type": "bytes32"
        },
        {
          "internalType": "address",
          "name": "account",
          "type": "address"
        }
      ],
      "name": "hasRole",
      "outputs": [
        {
          "internalType": "bool",
          "name": "",
          "type": "bool"
        }
      ],
      "stateMutability": "view",
      "type": "function"
    },
    {
      "inputs": [
        {
          "internalType": "address",
          "name": "_net",
          "type": "address"
        },
        {
          "internalType": "address",
          "name": "_admin",
          "type": "address"
        }
      ],
      "name": "initialize",
      "outputs": [],
      "stateMutability": "nonpayable",
      "type": "function"
    },
    {
      "inputs": [
        {
          "internalType": "address",
          "name": "owner",
          "type": "address"
        },
        {
          "internalType": "address",
          "name": "operator",
          "type": "address"
        }
      ],
      "name": "isApprovedForAll",
      "outputs": [
        {
          "internalType": "bool",
          "name": "",
          "type": "bool"
        }
      ],
      "stateMutability": "view",
      "type": "function"
    },
    {
      "inputs": [],
      "name": "name",
      "outputs": [
        {
          "internalType": "string",
          "name": "",
          "type": "string"
        }
      ],
      "stateMutability": "view",
      "type": "function"
    },
    {
      "inputs": [
        {
          "internalType": "uint256",
          "name": "",
          "type": "uint256"
        }
      ],
      "name": "offsetTrackerId",
      "outputs": [
        {
          "internalType": "uint256",
          "name": "",
          "type": "uint256"
        }
      ],
      "stateMutability": "view",
      "type": "function"
    },
    {
      "inputs": [
        {
          "internalType": "uint256",
          "name": "tokenId",
          "type": "uint256"
        }
      ],
      "name": "ownerOf",
      "outputs": [
        {
          "internalType": "address",
          "name": "",
          "type": "address"
        }
      ],
      "stateMutability": "view",
      "type": "function"
    },
    {
      "inputs": [
        {
          "internalType": "address",
          "name": "tracker",
          "type": "address"
        }
      ],
      "name": "registerTracker",
      "outputs": [],
      "stateMutability": "nonpayable",
      "type": "function"
    },
    {
      "inputs": [
        {
          "internalType": "uint256",
          "name": "trackerId",
          "type": "uint256"
        }
      ],
      "name": "removeAudit",
      "outputs": [],
      "stateMutability": "nonpayable",
      "type": "function"
    },
    {
      "inputs": [
        {
          "internalType": "bytes32",
          "name": "role",
          "type": "bytes32"
        },
        {
          "internalType": "address",
          "name": "account",
          "type": "address"
        }
      ],
      "name": "renounceRole",
      "outputs": [],
      "stateMutability": "nonpayable",
      "type": "function"
    },
    {
      "inputs": [
        {
          "internalType": "bytes32",
          "name": "role",
          "type": "bytes32"
        },
        {
          "internalType": "address",
          "name": "account",
          "type": "address"
        }
      ],
      "name": "revokeRole",
      "outputs": [],
      "stateMutability": "nonpayable",
      "type": "function"
    },
    {
      "inputs": [
        {
          "internalType": "address",
          "name": "from",
          "type": "address"
        },
        {
          "internalType": "address",
          "name": "to",
          "type": "address"
        },
        {
          "internalType": "uint256",
          "name": "tokenId",
          "type": "uint256"
        }
      ],
      "name": "safeTransferFrom",
      "outputs": [],
      "stateMutability": "nonpayable",
      "type": "function"
    },
    {
      "inputs": [
        {
          "internalType": "address",
          "name": "from",
          "type": "address"
        },
        {
          "internalType": "address",
          "name": "to",
          "type": "address"
        },
        {
          "internalType": "uint256",
          "name": "tokenId",
          "type": "uint256"
        },
        {
          "internalType": "bytes",
          "name": "_data",
          "type": "bytes"
        }
      ],
      "name": "safeTransferFrom",
      "outputs": [],
      "stateMutability": "nonpayable",
      "type": "function"
    },
    {
      "inputs": [
        {
          "internalType": "address",
          "name": "operator",
          "type": "address"
        },
        {
          "internalType": "bool",
          "name": "approved",
          "type": "bool"
        }
      ],
      "name": "setApprovalForAll",
      "outputs": [],
      "stateMutability": "nonpayable",
      "type": "function"
    },
    {
      "inputs": [
        {
          "internalType": "bytes4",
          "name": "interfaceId",
          "type": "bytes4"
        }
      ],
      "name": "supportsInterface",
      "outputs": [
        {
          "internalType": "bool",
          "name": "",
          "type": "bool"
        }
      ],
      "stateMutability": "view",
      "type": "function"
    },
    {
      "inputs": [],
      "name": "symbol",
      "outputs": [
        {
          "internalType": "string",
          "name": "",
          "type": "string"
        }
      ],
      "stateMutability": "view",
      "type": "function"
    },
    {
      "inputs": [
        {
          "internalType": "uint256",
          "name": "tokenId",
          "type": "uint256"
        }
      ],
      "name": "tokenURI",
      "outputs": [
        {
          "internalType": "string",
          "name": "",
          "type": "string"
        }
      ],
      "stateMutability": "view",
      "type": "function"
    },
    {
      "inputs": [
        {
          "internalType": "address",
          "name": "trackee",
          "type": "address"
        },
        {
          "internalType": "uint256[]",
          "name": "tokenIds",
          "type": "uint256[]"
        },
        {
          "internalType": "uint256[]",
          "name": "inAmounts",
          "type": "uint256[]"
        },
        {
          "internalType": "uint256[]",
          "name": "outAmounts",
          "type": "uint256[]"
        },
        {
          "internalType": "uint256[]",
          "name": "trackerIds",
          "type": "uint256[]"
        },
        {
          "internalType": "uint256",
          "name": "fromDate",
          "type": "uint256"
        },
        {
          "internalType": "uint256",
          "name": "thruDate",
          "type": "uint256"
        },
        {
          "internalType": "string",
          "name": "metadata",
          "type": "string"
        },
        {
          "internalType": "string",
          "name": "description",
          "type": "string"
        }
      ],
      "name": "track",
      "outputs": [],
      "stateMutability": "nonpayable",
      "type": "function"
    },
    {
      "inputs": [
        {
          "internalType": "uint256",
          "name": "trackerId",
          "type": "uint256"
        },
        {
          "internalType": "uint256[]",
          "name": "tokenIds",
          "type": "uint256[]"
        },
        {
          "internalType": "uint256[]",
          "name": "inAmounts",
          "type": "uint256[]"
        },
        {
          "internalType": "uint256[]",
          "name": "outAmounts",
          "type": "uint256[]"
        },
        {
          "internalType": "uint256[]",
          "name": "trackerIds",
          "type": "uint256[]"
        },
        {
          "internalType": "uint256",
          "name": "fromDate",
          "type": "uint256"
        },
        {
          "internalType": "uint256",
          "name": "thruDate",
          "type": "uint256"
        },
        {
          "internalType": "string",
          "name": "metadata",
          "type": "string"
        },
        {
          "internalType": "string",
          "name": "description",
          "type": "string"
        }
      ],
      "name": "trackUpdate",
      "outputs": [],
      "stateMutability": "nonpayable",
      "type": "function"
    },
    {
      "inputs": [
        {
          "internalType": "address",
          "name": "from",
          "type": "address"
        },
        {
          "internalType": "address",
          "name": "to",
          "type": "address"
        },
        {
          "internalType": "uint256",
          "name": "tokenId",
          "type": "uint256"
        }
      ],
      "name": "transferFrom",
      "outputs": [],
      "stateMutability": "nonpayable",
      "type": "function"
    }
  ],
  "bytecode": "0x608060405234801561001057600080fd5b506152c3806100206000396000f3fe608060405234801561001057600080fd5b50600436106102535760003560e01c80639042a3c711610146578063b88d4fde116100c3578063d547741f11610087578063d547741f146105b8578063d82de424146105cb578063d97ac445146105ec578063db600be5146105ff578063e985e9c514610645578063ecc3356a1461068157610253565b8063b88d4fde14610501578063b9531f2114610514578063c87b56dd14610534578063cb6a1f1214610547578063cf96cf4f1461056757610253565b8063a22cb4651161010a578063a22cb46514610486578063a7d6619d14610499578063b173e570146104ac578063b18912a6146104bf578063b418f063146104e157610253565b80639042a3c71461043d57806391d1485414610450578063920b72781461046357806395d89b4114610476578063a217fddf1461047e57610253565b806334d03715116101d45780636352211e116101985780636352211e146103da57806370a08231146103ed5780637c7768d61461040057806381d5f7f6146104085780638a59a9351461041d57610253565b806334d037151461037b57806336568abe1461038e57806342842e0e146103a1578063485cc955146103b45780635e7231c3146103c757610253565b806323018c901161021b57806323018c90146102e857806323b872dd146102fb578063248a9ca31461030e578063292876db1461033f5780632f2ff15d1461036857610253565b806301ffc9a71461025857806306fdde0314610280578063081812fc14610295578063095ea7b3146102c05780631856f262146102d5575b600080fd5b61026b6102663660046149d5565b610694565b60405190151581526020015b60405180910390f35b6102886106c1565b6040516102779190614de7565b6102a86102a336600461499b565b610753565b6040516001600160a01b039091168152602001610277565b6102d36102ce366004614956565b6107ed565b005b6102d36102e336600461470c565b610903565b6102d36102f6366004614a25565b6109f6565b6102d3610309366004614758565b610a8f565b61033161031c36600461499b565b60009081526097602052604090206001015490565b604051908152602001610277565b61035261034d36600461499b565b610ac0565b6040516102779a99989796959493929190615041565b6102d36103763660046149b3565b610c30565b6102d361038936600461480c565b610c57565b6102d361039c3660046149b3565b610cd8565b6102d36103af366004614758565b610d56565b6102d36103c2366004614726565b610d71565b6102d36103d5366004614ac4565b610eb6565b6102a86103e836600461499b565b610f52565b6103316103fb36600461470c565b610fc9565b610331611050565b61033160008051602061526e83398151915281565b61043061042b36600461499b565b611060565b6040516102779190614f93565b61033161044b366004614b34565b611273565b61026b61045e3660046149b3565b611937565b610331610471366004614b10565b611964565b610288611981565b610331600081565b6102d3610494366004614920565b611990565b6102d36104a7366004614920565b61199b565b6102d36104ba36600461499b565b611bc3565b6104d26104cd366004614ac4565b611c2c565b60405161027793929190614d34565b6103316104ef36600461499b565b60cf6020526000908152604090205481565b6102d361050f366004614793565b611e47565b61052761052236600461499b565b611e7f565b6040516102779190614d21565b61028861054236600461499b565b611ee1565b61033161055536600461499b565b60d06020526000908152604090205481565b6105a3610575366004614ac4565b600091825260cb60209081526040808420928452600383018252808420546004909301909152909120549091565b60408051928352602083019190915201610277565b6102d36105c63660046149b3565b611fc8565b6105de6105d9366004614ac4565b611fee565b604051610277929190614dc5565b6102d36105fa3660046149b3565b612073565b6105a361060d366004614ae5565b600092835260cb6020908152604080852093855260029384018252808520928552928201815282842054600390920190529120549091565b61026b610653366004614726565b6001600160a01b039182166000908152606a6020908152604080832093909416825291909152205460ff1690565b6102d361068f36600461499b565b6121eb565b60006001600160e01b03198216637965db0b60e01b14806106b957506106b982612217565b90505b919050565b6060606580546106d09061518e565b80601f01602080910402602001604051908101604052809291908181526020018280546106fc9061518e565b80156107495780601f1061071e57610100808354040283529160200191610749565b820191906000526020600020905b81548152906001019060200180831161072c57829003601f168201915b5050505050905090565b6000818152606760205260408120546001600160a01b03166107d15760405162461bcd60e51b815260206004820152602c60248201527f4552433732313a20617070726f76656420717565727920666f72206e6f6e657860448201526b34b9ba32b73a103a37b5b2b760a11b60648201526084015b60405180910390fd5b506000908152606960205260409020546001600160a01b031690565b60006107f882610f52565b9050806001600160a01b0316836001600160a01b031614156108665760405162461bcd60e51b815260206004820152602160248201527f4552433732313a20617070726f76616c20746f2063757272656e74206f776e656044820152603960f91b60648201526084016107c8565b336001600160a01b038216148061088257506108828133610653565b6108f45760405162461bcd60e51b815260206004820152603860248201527f4552433732313a20617070726f76652063616c6c6572206973206e6f74206f7760448201527f6e6572206e6f7220617070726f76656420666f7220616c6c000000000000000060648201526084016107c8565b6108fe838361223c565b505050565b806001600160a01b0381163314806109215750610921600033611937565b6109a65760405162461bcd60e51b815260206004820152604a60248201527f434c4d383a3a73656c664f7241646d696e3a206d73672e73656e64657220646f60448201527f6573206e6f74206f776e20746869732061646472657373206f72206973206e6f6064820152693a1030b71030b236b4b760b11b608482015260a4016107c8565b6109be60008051602061526e833981519152836122aa565b6040516001600160a01b038316907fef8ce2b8e324ee947b09d9cf7f74e5589078af3a3e3f5266e9752c8284e4cd8790600090a25050565b600089815260ca602052604090206002015489906001600160a01b031615610a305760405162461bcd60e51b81526004016107c890614f45565b8980610a3b60cc5490565b1015610a595760405162461bcd60e51b81526004016107c890614e4c565b60008b815260ca60205260409020610a74818c8c8c8c6122b4565b610a818188888888612ecc565b505050505050505050505050565b610a993382612f2b565b610ab55760405162461bcd60e51b81526004016107c890614ea9565b6108fe83838361301e565b60ca6020526000908152604090208054600182015460028301546003840154600485015460058601546006870154600788015460088901805498996001600160a01b0398891699979098169795969495939492939192610b1f9061518e565b80601f0160208091040260200160405190810160405280929190818152602001828054610b4b9061518e565b8015610b985780601f10610b6d57610100808354040283529160200191610b98565b820191906000526020600020905b815481529060010190602001808311610b7b57829003601f168201915b505050505090806009018054610bad9061518e565b80601f0160208091040260200160405190810160405280929190818152602001828054610bd99061518e565b8015610c265780601f10610bfb57610100808354040283529160200191610c26565b820191906000526020600020905b815481529060010190602001808311610c0957829003601f168201915b505050505090508a565b600082815260976020526040902060010154610c4d81335b6131be565b6108fe8383613222565b610c6560cc80546001019055565b6000610c7060cc5490565b600081815260ca602052604090208181556001810180546001600160a01b0319166001600160a01b038e16179055426007820155909150610cb4818b8b8b8b6122b4565b610cc18187878787612ecc565b610ccb33836132a8565b5050505050505050505050565b6001600160a01b0381163314610d485760405162461bcd60e51b815260206004820152602f60248201527f416363657373436f6e74726f6c3a2063616e206f6e6c792072656e6f756e636560448201526e103937b632b9903337b91039b2b63360891b60648201526084016107c8565b610d5282826133ea565b5050565b6108fe83838360405180602001604052806000815250611e47565b600054610100900460ff16610d8c5760005460ff1615610d90565b303b155b610df35760405162461bcd60e51b815260206004820152602e60248201527f496e697469616c697a61626c653a20636f6e747261637420697320616c72656160448201526d191e481a5b9a5d1a585b1a5e995960921b60648201526084016107c8565b600054610100900460ff16158015610e15576000805461ffff19166101011790555b60c980546001600160a01b0319166001600160a01b03851617905560408051808201825260128152712722aa1021b0b93137b7102a3930b1b5b2b960711b602080830191909152825180840190935260048352631391551560e21b90830152610e7d91613451565b610e886000836122aa565b610ea060008051602061526e833981519152836122aa565b80156108fe576000805461ff0019169055505050565b80821015610d525760405162461bcd60e51b815260206004820152605860248201527f434c4d383a3a5f766572696679546f74616c547261636b65643a20746f74616c60448201527f20616d6f756e7420747261636b65642065786365656473206f7574707574206f60648201527f6620746f6b656e49642066726f6d20747261636b657249640000000000000000608482015260a4016107c8565b6000818152606760205260408120546001600160a01b0316806106b95760405162461bcd60e51b815260206004820152602960248201527f4552433732313a206f776e657220717565727920666f72206e6f6e657869737460448201526832b73a103a37b5b2b760b91b60648201526084016107c8565b60006001600160a01b0382166110345760405162461bcd60e51b815260206004820152602a60248201527f4552433732313a2062616c616e636520717565727920666f7220746865207a65604482015269726f206164647265737360b01b60648201526084016107c8565b506001600160a01b031660009081526068602052604090205490565b600061105b60cc5490565b905090565b6110c86040518061014001604052806000815260200160006001600160a01b0316815260200160006001600160a01b03168152602001600081526020016000815260200160008152602001600081526020016000815260200160608152602001606081525090565b600082815260ca60209081526040918290208251610140810184528154815260018201546001600160a01b03908116938201939093526002820154909216928201929092526003820154606082015260048201546080820152600582015460a0820152600682015460c0820152600782015460e0820152600882018054919291610100840191906111589061518e565b80601f01602080910402602001604051908101604052809291908181526020018280546111849061518e565b80156111d15780601f106111a6576101008083540402835291602001916111d1565b820191906000526020600020905b8154815290600101906020018083116111b457829003601f168201915b505050505081526020016009820180546111ea9061518e565b80601f01602080910402602001604051908101604052809291908181526020018280546112169061518e565b80156112635780601f1061123857610100808354040283529160200191611263565b820191906000526020600020905b81548152906001019060200180831161124657829003601f168201915b5050505050815250509050919050565b600083611298578260ff16600314156112905750620f4240611930565b506000611930565b600093845260ca6020908152604080862060cb835281872087805260028101909352908620909190869081908190819081908190815b8854811161183c576101018c6112e5600183615134565b610101811061130457634e487b7160e01b600052603260045260246000fd5b602002015114158061134857506113488c8a600001838154811061133857634e487b7160e01b600052603260045260246000fd5b9060005260206000200154613492565b1561170c5760005b825481101561170a5760c95483546001600160a01b039091169063127d5ad09085908490811061139057634e487b7160e01b600052603260045260246000fd5b90600052602060002001546040518263ffffffff1660e01b81526004016113b991815260200190565b60206040518083038186803b1580156113d157600080fd5b505afa1580156113e5573d6000803e3d6000fd5b505050506040513d601f19601f820116820180604052508101906114099190614bbe565b93508360ff1660041415611537576114228f858f611273565b945061148661147f620f424085600201600087600001868154811061145757634e487b7160e01b600052603260045260246000fd5b90600052602060002001548152602001908152602001600020546134fd90919063ffffffff16565b8a90613509565b98506114d96114d2620f42406114cc886114c6620f42408960030160008b6000018a8154811061145757634e487b7160e01b600052603260045260246000fd5b906134fd565b90613515565b8990613509565b975061153083600301600085600001848154811061150757634e487b7160e01b600052603260045260246000fd5b90600052602060002001548152602001908152602001600020548861350990919063ffffffff16565b96506116b8565b8360ff16600314156115ec5782600301600084600001838154811061156c57634e487b7160e01b600052603260045260246000fd5b9060005260206000200154815260200190815260200160002054600014156115e0576115d960cf60008560000184815481106115b857634e487b7160e01b600052603260045260246000fd5b9060005260206000200154815260200190815260200160002054858f611273565b94506115e7565b620f424094505b6116b8565b8360ff16600214156116b85761162260d060008560000184815481106115b857634e487b7160e01b600052603260045260246000fd5b945061165e611657620f424085600201600087600001868154811061145757634e487b7160e01b600052603260045260246000fd5b8a90613521565b98506116b583600301600085600001848154811061168c57634e487b7160e01b600052603260045260246000fd5b90600052602060002001548152602001908152602001600020548761350990919063ffffffff16565b95505b6116f661147f620f42406114cc886114c6620f42408960020160008b6000018a8154811061145757634e487b7160e01b600052603260045260246000fd5b985080611702816151c9565b915050611350565b505b885481101561182a5788600001818154811061173857634e487b7160e01b600052603260045260246000fd5b90600052602060002001549d5061178460018d600161010161175a9190615134565b610101811061177957634e487b7160e01b600052603260045260246000fd5b602002015190613509565b8c6117926001610101615134565b61010181106117b157634e487b7160e01b600052603260045260246000fd5b60200201528d8c806117c66001610101615134565b61010181106117e557634e487b7160e01b600052603260045260246000fd5b6020020151610101811061180957634e487b7160e01b600052603260045260246000fd5b6020020181815250508860020160008f815260200190815260200160002091505b80611834816151c9565b9150506112ce565b508b60ff1660021480156118505750600084115b1561186f5761185f8785613515565b9950505050505050505050611930565b846118a5578b60ff16600314801561188b575060008960040154115b156118a057600489015461185f908890613515565b611922565b8b60ff16600314156118c157600389015461185f908890613515565b8b60ff1660041480156118d8575060008960030154115b15611918576119156119056118fa8b600301548a61351590919063ffffffff16565b60048c0154906134fd565b61190f8989613509565b90613521565b96505b61185f8786613515565b600099505050505050505050505b9392505050565b60008281526097602090815260408083206001600160a01b038516845290915290205460ff165b92915050565b600061196e614528565b611979848483611273565b949350505050565b6060606680546106d09061518e565b610d5233838361352d565b60c9546040516349b9055760e01b81526001600160a01b038481166004830152909116906349b905579060240160206040518083038186803b1580156119e057600080fd5b505afa1580156119f4573d6000803e3d6000fd5b505050506040513d601f19601f82011682018060405250810190611a18919061497f565b80611a21575080155b611aa15760405162461bcd60e51b8152602060048201526044602482018190527f434c4d383a3a617070726f766556657269666965723a20616464726573732069908201527f73206e6f742061207265676973746572656420656d697373696f6e732061756460648201526334ba37b960e11b608482015260a4016107c8565b6001600160a01b038216331415611b165760405162461bcd60e51b815260206004820152603360248201527f434c4d383a3a617070726f766556657269666965723a2061756469746f72206360448201527230b73737ba1031329036b9b39739b2b73232b960691b60648201526084016107c8565b6001600160a01b038216600090815260d1602090815260408083203384529091529020805460ff19168215801591909117909155611b895760405133906001600160a01b038416907ff31635902a304a612155085cc8916b9ab86fc115155b10b33980f6cb8165c54e90600090a3610d52565b60405133906001600160a01b038416907f490861baee43b8ebd28f134f99c0aa7848888c4bde402256ad4cf455d147aed690600090a35050565b600081815260ca602052604090206002015481906001600160a01b031615611bfd5760405162461bcd60e51b81526004016107c890614f45565b81611c07816135fc565b5050600090815260ca6020526040902060020180546001600160a01b03191633179055565b600082815260cb6020908152604080832084845260028101835281842080548351818602810186019094528084526060958695869591928491830182828015611c9457602002820191906000526020600020905b815481526020019060010190808311611c80575b505050505090506000815167ffffffffffffffff811115611cc557634e487b7160e01b600052604160045260246000fd5b604051908082528060200260200182016040528015611cee578160200160208202803683370190505b5090506000825167ffffffffffffffff811115611d1b57634e487b7160e01b600052604160045260246000fd5b604051908082528060200260200182016040528015611d44578160200160208202803683370190505b50905060005b8351811015611e3657846002016000858381518110611d7957634e487b7160e01b600052603260045260246000fd5b6020026020010151815260200190815260200160002054838281518110611db057634e487b7160e01b600052603260045260246000fd5b602002602001018181525050846003016000858381518110611de257634e487b7160e01b600052603260045260246000fd5b6020026020010151815260200190815260200160002054828281518110611e1957634e487b7160e01b600052603260045260246000fd5b602090810291909101015280611e2e816151c9565b915050611d4a565b509196509450925050509250925092565b611e513383612f2b565b611e6d5760405162461bcd60e51b81526004016107c890614ea9565b611e79848484846136a5565b50505050565b600081815260cb6020908152604091829020805483518184028101840190945280845260609392830182828015611ed557602002820191906000526020600020905b815481526020019060010190808311611ec1575b50505050509050919050565b6000818152606760205260409020546060906001600160a01b0316611f605760405162461bcd60e51b815260206004820152602f60248201527f4552433732314d657461646174613a2055524920717565727920666f72206e6f60448201526e3732bc34b9ba32b73a103a37b5b2b760891b60648201526084016107c8565b6000611f7760408051602081019091526000815290565b90506000815111611f975760405180602001604052806000815250611930565b80611fa1846136d8565b604051602001611fb2929190614c40565b6040516020818303038152906040529392505050565b600082815260976020526040902060010154611fe48133610c48565b6108fe83836133ea565b600082815260cb6020908152604080832084845260028101835281842060019091018352818420548154835181860281018601909452808452606095949293919284919083018282801561206157602002820191906000526020600020905b81548152602001906001019080831161204d575b50505050509150915091509250929050565b61207e600033611937565b6120de5760405162461bcd60e51b815260206004820152602b60248201527f434c4d383a3a6f6e6c7941646d696e3a206d73672e73656e646572206973206e60448201526a37ba1030b71030b236b4b760a91b60648201526084016107c8565b806120f760008051602061526e83398151915282611937565b6121625760405162461bcd60e51b815260206004820152603660248201527f434c4d383a3a72656769737465726564547261636b65723a20746865206164646044820152751c995cdcc81a5cc81b9bdd081c9959da5cdd195c995960521b60648201526084016107c8565b828061216d60cc5490565b101561218b5760405162461bcd60e51b81526004016107c890614e4c565b600084815260ca60205260408082206001810180546001600160a01b0319166001600160a01b0388169081179091559151909287917f7bc1a852706b575e4f4bc2b8b22d45d7afcfbe29abc4cc0b6cc540aced9f6e7a9190a35050505050565b806121f5816135fc565b50600090815260ca6020526040902060020180546001600160a01b0319169055565b60006001600160e01b03198216637965db0b60e01b14806106b957506106b9826137f3565b600081815260696020526040902080546001600160a01b0319166001600160a01b038416908117909155819061227182610f52565b6001600160a01b03167f8c5be1e5ebec7d5bd14f71427d1e84f3dd0314c0f7b2291e5b200ac8c7c3b92560405160405180910390a45050565b610d528282613222565b835183511461232b5760405162461bcd60e51b815260206004820152603c60248201527f434c4d383a3a5f747261636b3a20696e416d6f756e747320616e6420746f6b6560448201527f6e49647320617265206e6f74207468652073616d65206c656e6774680000000060648201526084016107c8565b83518251146123a25760405162461bcd60e51b815260206004820152603d60248201527f434c4d383a3a5f747261636b3a206f7574416d6f756e747320616e6420746f6b60448201527f656e49647320617265206e6f74207468652073616d65206c656e67746800000060648201526084016107c8565b83518151146124195760405162461bcd60e51b815260206004820152603d60248201527f434c4d383a3a5f747261636b3a20747261636b657249647320616e6420746f6b60448201527f656e49647320617265206e6f74207468652073616d65206c656e67746800000060648201526084016107c8565b8454600090815260cb6020526040812082519091908390829061244c57634e487b7160e01b600052603260045260246000fd5b60209081029190910181015160008181526002850190925260409091206001890154919250906001600160a01b0316331480612531575060c9546040516349b9055760e01b81523360048201526001600160a01b03909116906349b905579060240160206040518083038186803b1580156124c657600080fd5b505afa1580156124da573d6000803e3d6000fd5b505050506040513d601f19601f820116820180604052508101906124fe919061497f565b8015612531575033600090815260d16020908152604080832060018c01546001600160a01b0316845290915290205460ff165b6125b95760405162461bcd60e51b815260206004820152604d60248201527f434c4d383a3a5f747261636b3a206d73672e73656e646572206973206e6f742060448201527f746865207265676973746572656420747261636b6565206f7220616e2061707060648201526c3937bb32b21030bab234ba37b960991b608482015260a4016107c8565b6000805b8851811015612de65789548414156126515760405162461bcd60e51b815260206004820152604b60248201527f434c4d383a3a5f747261636b3a20747261636b6572446174612e747261636b6560448201527f72496420616e6420736f75726365547261636b657249642063616e206e6f742060648201526a6265207468652073616d6560a81b608482015260a4016107c8565b60c95489516001600160a01b039091169063127d5ad0908b908490811061268857634e487b7160e01b600052603260045260246000fd5b60200260200101516040518263ffffffff1660e01b81526004016126ae91815260200190565b60206040518083038186803b1580156126c657600080fd5b505afa1580156126da573d6000803e3d6000fd5b505050506040513d601f19601f820116820180604052508101906126fe9190614bbe565b915080156127a75785612712600183615134565b8151811061273057634e487b7160e01b600052603260045260246000fd5b602002602001015186828151811061275857634e487b7160e01b600052603260045260246000fd5b6020026020010151146127a75785818151811061278557634e487b7160e01b600052603260045260246000fd5b6020026020010151935084600201600085815260200190815260200160002092505b61285a8982815181106127ca57634e487b7160e01b600052603260045260246000fd5b60200260200101518b60010160009054906101000a90046001600160a01b03168c60030154858760020160008f888151811061281657634e487b7160e01b600052603260045260246000fd5b60200260200101518152602001908152602001600020548d878151811061284d57634e487b7160e01b600052603260045260246000fd5b6020026020010151613843565b60038b0155600460ff83161415612aa45783156128f3576128f383858b848151811061289657634e487b7160e01b600052603260045260246000fd5b60200260200101518b85815181106128be57634e487b7160e01b600052603260045260246000fd5b60200260200101518b86815181106128e657634e487b7160e01b600052603260045260246000fd5b6020026020010151613a98565b6129dd8560030160008b848151811061291c57634e487b7160e01b600052603260045260246000fd5b60200260200101518152602001908152602001600020548b60010160009054906101000a90046001600160a01b03168b848151811061296b57634e487b7160e01b600052603260045260246000fd5b60200260200101518660030160008e878151811061299957634e487b7160e01b600052603260045260246000fd5b60200260200101518152602001908152602001600020548b86815181106129d057634e487b7160e01b600052603260045260246000fd5b6020026020010151613c03565b8560030160008b8481518110612a0357634e487b7160e01b600052603260045260246000fd5b6020026020010151815260200190815260200160002081905550612a9f8560030160008b8481518110612a4657634e487b7160e01b600052603260045260246000fd5b60200260200101518152602001908152602001600020548660040160008c8581518110612a8357634e487b7160e01b600052603260045260246000fd5b6020026020010151815260200190815260200160002054610eb6565b612cf3565b8315612aaf57600093505b8160ff1660031415612cf35733600090815260d16020908152604080832060018e01546001600160a01b0316845290915290205460ff1615612c895760008360030160008b8481518110612b1357634e487b7160e01b600052603260045260246000fd5b60200260200101518152602001908152602001600020541115612b8957612b838360030160008b8481518110612b5957634e487b7160e01b600052603260045260246000fd5b60200260200101518152602001908152602001600020548b6004015461352190919063ffffffff16565b60048b01555b6000878281518110612bab57634e487b7160e01b600052603260045260246000fd5b60200260200101511115612c4557612bf7878281518110612bdc57634e487b7160e01b600052603260045260246000fd5b60200260200101518b6004015461350990919063ffffffff16565b60048b01558954895160cf906000908c9085908110612c2657634e487b7160e01b600052603260045260246000fd5b6020026020010151815260200190815260200160002081905550612c84565b60cf60008a8381518110612c6957634e487b7160e01b600052603260045260246000fd5b60200260200101518152602001908152602001600020600090555b612a9f565b8260030160008a8381518110612caf57634e487b7160e01b600052603260045260246000fd5b6020026020010151815260200190815260200160002054878281518110612ce657634e487b7160e01b600052603260045260246000fd5b6020026020010181815250505b612d74838a8381518110612d1757634e487b7160e01b600052603260045260246000fd5b60200260200101518a8481518110612d3f57634e487b7160e01b600052603260045260246000fd5b60200260200101518a8581518110612d6757634e487b7160e01b600052603260045260246000fd5b6020026020010151613e64565b60018951612d829190615134565b811480612dc0575085612d968260016150e9565b81518110612db457634e487b7160e01b600052603260045260246000fd5b60200260200101518414155b15612dd4578254612dd4908590879061401c565b80612dde816151c9565b9150506125bd565b50886004015489600301541015612e7e5760405162461bcd60e51b815260206004820152605060248201527f434c4d383a3a5f747261636b3a20746f74616c206175646974656420656d697360448201527f73696f6e206f75742069732067726561746572207468616e20746f74616c206560648201526f1b5a5cdcda5bdb9cc81d1c9858dad95960821b608482015260a4016107c8565b88546040513391907ff4167ae79939c396db7d073fdcf741e90f00a19e0d6f2c61d62c9c1be0fdfb3e90612eb9908c908c908c908c90614d6d565b60405180910390a3505050505050505050565b8315612eda57600585018490555b8215612ee857600685018390555b815115612f06578151612f049060088701906020850190614548565b505b805115612f24578051612f229060098701906020840190614548565b505b5050505050565b6000818152606760205260408120546001600160a01b0316612fa45760405162461bcd60e51b815260206004820152602c60248201527f4552433732313a206f70657261746f7220717565727920666f72206e6f6e657860448201526b34b9ba32b73a103a37b5b2b760a11b60648201526084016107c8565b6000612faf83610f52565b9050806001600160a01b0316846001600160a01b03161480612fea5750836001600160a01b0316612fdf84610753565b6001600160a01b0316145b8061197957506001600160a01b038082166000908152606a602090815260408083209388168352929052205460ff16611979565b826001600160a01b031661303182610f52565b6001600160a01b0316146130995760405162461bcd60e51b815260206004820152602960248201527f4552433732313a207472616e73666572206f6620746f6b656e2074686174206960448201526839903737ba1037bbb760b91b60648201526084016107c8565b6001600160a01b0382166130fb5760405162461bcd60e51b8152602060048201526024808201527f4552433732313a207472616e7366657220746f20746865207a65726f206164646044820152637265737360e01b60648201526084016107c8565b61310660008261223c565b6001600160a01b038316600090815260686020526040812080546001929061312f908490615134565b90915550506001600160a01b038216600090815260686020526040812080546001929061315d9084906150e9565b909155505060008181526067602052604080822080546001600160a01b0319166001600160a01b0386811691821790925591518493918716917fddf252ad1be2c89b69c2b068fc378daa952ba7f163c4a11628f55a4df523b3ef91a4505050565b6131c88282611937565b610d52576131e0816001600160a01b031660146141c2565b6131eb8360206141c2565b6040516020016131fc929190614c6f565b60408051601f198184030181529082905262461bcd60e51b82526107c891600401614de7565b61322c8282611937565b610d525760008281526097602090815260408083206001600160a01b03851684529091529020805460ff191660011790556132643390565b6001600160a01b0316816001600160a01b0316837f2f8788117e7eff1d82e926ec794901d17c78024a50270940304540a733656f0d60405160405180910390a45050565b6001600160a01b0382166132fe5760405162461bcd60e51b815260206004820181905260248201527f4552433732313a206d696e7420746f20746865207a65726f206164647265737360448201526064016107c8565b6000818152606760205260409020546001600160a01b0316156133635760405162461bcd60e51b815260206004820152601c60248201527f4552433732313a20746f6b656e20616c7265616479206d696e7465640000000060448201526064016107c8565b6001600160a01b038216600090815260686020526040812080546001929061338c9084906150e9565b909155505060008181526067602052604080822080546001600160a01b0319166001600160a01b03861690811790915590518392907fddf252ad1be2c89b69c2b068fc378daa952ba7f163c4a11628f55a4df523b3ef908290a45050565b6133f48282611937565b15610d525760008281526097602090815260408083206001600160a01b0385168085529252808320805460ff1916905551339285917ff6391f5c32d9c69d2a47ea670b442974b53935d1edc7fd64eb21e047a839171b9190a45050565b600054610100900460ff166134785760405162461bcd60e51b81526004016107c890614efa565b6134806143a4565b6134886143a4565b610d5282826143cd565b6000805b6134a36001610101615134565b8110156134f35782848261010181106134cc57634e487b7160e01b600052603260045260246000fd5b602002015114156134e157600191505061195e565b806134eb816151c9565b915050613496565b5060009392505050565b60006119308284615115565b600061193082846150e9565b60006119308284615101565b60006119308284615134565b816001600160a01b0316836001600160a01b0316141561358f5760405162461bcd60e51b815260206004820152601960248201527f4552433732313a20617070726f766520746f2063616c6c65720000000000000060448201526064016107c8565b6001600160a01b038381166000818152606a6020908152604080832094871680845294825291829020805460ff191686151590811790915591519182527f17307eab39ab6107e8899845ad3d59bd9653f200f220920489ca2b5937696c31910160405180910390a3505050565b33600090815260d16020908152604080832084845260ca8352818420600101546001600160a01b0316845290915290205460ff166136a25760405162461bcd60e51b815260206004820152603760248201527f434c4d383a3a697341756469746f723a2061756469746f72206973206e6f742060448201527f617070726f7665642062792074686520747261636b656500000000000000000060648201526084016107c8565b50565b6136b084848461301e565b6136bc8484848461441b565b611e795760405162461bcd60e51b81526004016107c890614dfa565b6060816136fd57506040805180820190915260018152600360fc1b60208201526106bc565b8160005b81156137275780613711816151c9565b91506137209050600a83615101565b9150613701565b60008167ffffffffffffffff81111561375057634e487b7160e01b600052604160045260246000fd5b6040519080825280601f01601f19166020018201604052801561377a576020820181803683370190505b5090505b84156119795761378f600183615134565b915061379c600a866151e4565b6137a79060306150e9565b60f81b8183815181106137ca57634e487b7160e01b600052603260045260246000fd5b60200101906001600160f81b031916908160001a9053506137ec600a86615101565b945061377e565b60006001600160e01b031982166380ac58cd60e01b148061382457506001600160e01b03198216635b5e139f60e01b145b806106b957506301ffc9a760e01b6001600160e01b03198316146106b9565b60008183146138d257600087815260cd602090815260408083206001600160a01b038a1684529091529020546138799084613521565b600088815260cd602090815260408083206001600160a01b038b168452909152902055600260ff851611156138b9576138b28584613521565b94506138d2565b8360ff16600214156138d2576138cf8584613509565b94505b8115613a8d57600087815260cd602090815260408083206001600160a01b038a1684529091529020546139059083613509565b600088815260cd602090815260408083206001600160a01b038b168452909152902055600260ff851611156139455761393e8583613509565b945061395e565b8360ff166002141561395e5761395b8583613521565b94505b600087815260cd602090815260408083206001600160a01b038a811680865291909352928190205460c9549151631aeb9fab60e31b8152600481018c905260248101949094529291169063d75cfd589060440160206040518083038186803b1580156139c957600080fd5b505afa1580156139dd573d6000803e3d6000fd5b505050506040513d601f19601f82011682018060405250810190613a019190614a0d565b1015613a8d5760405162461bcd60e51b815260206004820152604f60248201527f434c4d383a3a5f766572696679526574697265643a207468652072657469726560448201527f642062616c616e63652065786365656473207768617420686173206265656e2060648201526e1c995c1bdc9d1959081a5b88139155608a1b608482015260a4016107c8565b509295945050505050565b600084815260cb6020908152604080832086845260028901909252909120548314613b4057600084815260028701602052604090205415613b0d5760008481526002870160209081526040808320546004850190925290912054613afb91613521565b60008581526004830160205260409020555b8215613b40576000848152600482016020526040902054613b2e9084613509565b60008581526004830160205260409020555b60008481526003870160205260409020548214613bda57600084815260038701602052604090205415613ba75760008481526003870160209081526040808320546004850190925290912054613b9591613521565b60008581526004830160205260409020555b8115613bda576000848152600482016020526040902054613bc89083613509565b60008581526004830160205260409020555b60008481526003820160209081526040808320546004850190925290912054612f229190610eb6565b6000818314158015613c155750600083115b15613c7757600084815260ce602090815260408083206001600160a01b0389168452909152902054613c479084613521565b600085815260ce602090815260408083206001600160a01b038a168452909152902055613c748684613521565b95505b8115613e5a57600084815260ce602090815260408083206001600160a01b0389168452909152902054613caa9083613509565b600085815260ce602090815260408083206001600160a01b038a168452909152902055613cd78683613509565b600085815260ce602090815260408083206001600160a01b038a811680865291909352928190205460c95491516307b9f04f60e51b8152600481018a90526024810194909452939950169063f73e09e09060440160206040518083038186803b158015613d4357600080fd5b505afa158015613d57573d6000803e3d6000fd5b505050506040513d601f19601f82011682018060405250810190613d7b9190614a0d565b1015613e155760405162461bcd60e51b815260206004820152605760248201527f434c4d383a3a5f7665726966795472616e736665727265643a2074686520747260448201527f616e736665727265642062616c616e636520657863656564732077686174206860648201527f6173206265656e207265706f7274656420696e204e4554000000000000000000608482015260a4016107c8565b846001600160a01b0316847f30bae3d5019f14a46c7a32a6791d0279bef1da7b54f09ddae4a27f8868c79d6c84604051613e5191815260200190565b60405180910390a35b5093949350505050565b600083815260018501602052604090205482151580613e835750600082115b15613edf5780613eb8578454600181810187556000878152602080822090930187905587548782529188019092526040909120555b60008481526002860160209081526040808320869055600388019091529020829055612f24565b845460011015613faf5784548590613ef990600190615134565b81548110613f1757634e487b7160e01b600052603260045260246000fd5b60009182526020909120015485613f2f600184615134565b81548110613f4d57634e487b7160e01b600052603260045260246000fd5b90600052602060002001819055508085600101600087600001600185613f739190615134565b81548110613f9157634e487b7160e01b600052603260045260246000fd5b90600052602060002001548152602001908152602001600020819055505b60008481526001808701602090815260408084208490556002890182528084208490556003890190915282209190915585548691613fec91615134565b8154811061400a57634e487b7160e01b600052603260045260246000fd5b60009182526020822001555050505050565b6000838152600183016020526040902054811561407657600084118015614041575080155b15614071578254600181810185556000858152602080822090930187905585548782529186019092526040909120555b611e79565b6000841180156140865750600081115b156141a75782546001101561415b57825483906140a590600190615134565b815481106140c357634e487b7160e01b600052603260045260246000fd5b600091825260209091200154836140db600184615134565b815481106140f957634e487b7160e01b600052603260045260246000fd5b9060005260206000200181905550808360010160008560000160018561411f9190615134565b8154811061413d57634e487b7160e01b600052603260045260246000fd5b90600052602060002001548152602001908152602001600020819055505b6000848152600180850160205260408220919091558354849161417d91615134565b8154811061419b57634e487b7160e01b600052603260045260246000fd5b60009182526020822001555b6000848152600284016020526040812090612f2282826145cc565b606060006141d1836002615115565b6141dc9060026150e9565b67ffffffffffffffff81111561420257634e487b7160e01b600052604160045260246000fd5b6040519080825280601f01601f19166020018201604052801561422c576020820181803683370190505b509050600360fc1b8160008151811061425557634e487b7160e01b600052603260045260246000fd5b60200101906001600160f81b031916908160001a905350600f60fb1b8160018151811061429257634e487b7160e01b600052603260045260246000fd5b60200101906001600160f81b031916908160001a90535060006142b6846002615115565b6142c19060016150e9565b90505b6001811115614355576f181899199a1a9b1b9c1cb0b131b232b360811b85600f166010811061430357634e487b7160e01b600052603260045260246000fd5b1a60f81b82828151811061432757634e487b7160e01b600052603260045260246000fd5b60200101906001600160f81b031916908160001a90535060049490941c9361434e81615177565b90506142c4565b5083156119305760405162461bcd60e51b815260206004820181905260248201527f537472696e67733a20686578206c656e67746820696e73756666696369656e7460448201526064016107c8565b600054610100900460ff166143cb5760405162461bcd60e51b81526004016107c890614efa565b565b600054610100900460ff166143f45760405162461bcd60e51b81526004016107c890614efa565b8151614407906065906020850190614548565b5080516108fe906066906020840190614548565b60006001600160a01b0384163b1561451d57604051630a85bd0160e11b81526001600160a01b0385169063150b7a029061445f903390899088908890600401614ce4565b602060405180830381600087803b15801561447957600080fd5b505af19250505080156144a9575060408051601f3d908101601f191682019092526144a6918101906149f1565b60015b614503573d8080156144d7576040519150601f19603f3d011682016040523d82523d6000602084013e6144dc565b606091505b5080516144fb5760405162461bcd60e51b81526004016107c890614dfa565b805181602001fd5b6001600160e01b031916630a85bd0160e11b149050611979565b506001949350505050565b604051806120200160405280610101906020820280368337509192915050565b8280546145549061518e565b90600052602060002090601f01602090048101928261457657600085556145bc565b82601f1061458f57805160ff19168380011785556145bc565b828001600101855582156145bc579182015b828111156145bc5782518255916020019190600101906145a1565b506145c89291506145e6565b5090565b50805460008255906000526020600020908101906136a291905b5b808211156145c857600081556001016145e7565b600067ffffffffffffffff83111561461557614615615224565b614628601f8401601f19166020016150b8565b905082815283838301111561463c57600080fd5b828260208301376000602084830101529392505050565b80356001600160a01b03811681146106bc57600080fd5b600082601f83011261467a578081fd5b8135602067ffffffffffffffff82111561469657614696615224565b8160051b6146a58282016150b8565b8381528281019086840183880185018910156146bf578687fd5b8693505b858410156146e15780358352600193909301929184019184016146c3565b50979650505050505050565b600082601f8301126146fd578081fd5b611930838335602085016145fb565b60006020828403121561471d578081fd5b61193082614653565b60008060408385031215614738578081fd5b61474183614653565b915061474f60208401614653565b90509250929050565b60008060006060848603121561476c578081fd5b61477584614653565b925061478360208501614653565b9150604084013590509250925092565b600080600080608085870312156147a8578081fd5b6147b185614653565b93506147bf60208601614653565b925060408501359150606085013567ffffffffffffffff8111156147e1578182fd5b8501601f810187136147f1578182fd5b614800878235602084016145fb565b91505092959194509250565b60008060008060008060008060006101208a8c03121561482a578485fd5b6148338a614653565b985060208a013567ffffffffffffffff8082111561484f578687fd5b61485b8d838e0161466a565b995060408c0135915080821115614870578687fd5b61487c8d838e0161466a565b985060608c0135915080821115614891578687fd5b61489d8d838e0161466a565b975060808c01359150808211156148b2578687fd5b6148be8d838e0161466a565b965060a08c0135955060c08c0135945060e08c01359150808211156148e1578384fd5b6148ed8d838e016146ed565b93506101008c0135915080821115614903578283fd5b506149108c828d016146ed565b9150509295985092959850929598565b60008060408385031215614932578182fd5b61493b83614653565b9150602083013561494b8161523a565b809150509250929050565b60008060408385031215614968578182fd5b61497183614653565b946020939093013593505050565b600060208284031215614990578081fd5b81516119308161523a565b6000602082840312156149ac578081fd5b5035919050565b600080604083850312156149c5578182fd5b8235915061474f60208401614653565b6000602082840312156149e6578081fd5b813561193081615248565b600060208284031215614a02578081fd5b815161193081615248565b600060208284031215614a1e578081fd5b5051919050565b60008060008060008060008060006101208a8c031215614a43578283fd5b8935985060208a013567ffffffffffffffff80821115614a61578485fd5b614a6d8d838e0161466a565b995060408c0135915080821115614a82578485fd5b614a8e8d838e0161466a565b985060608c0135915080821115614aa3578485fd5b614aaf8d838e0161466a565b975060808c01359150808211156148b2578485fd5b60008060408385031215614ad6578182fd5b50508035926020909101359150565b600080600060608486031215614af9578081fd5b505081359360208301359350604090920135919050565b60008060408385031215614b22578182fd5b82359150602083013561494b8161525e565b6000806000612060808587031215614b4a578182fd5b84359350602080860135614b5d8161525e565b9350605f86018713614b6d578283fd5b614b786120206150b8565b806040880189858a011115614b8b578586fd5b8594505b610101851015614baf578035835260019490940193918301918301614b8f565b50809450505050509250925092565b600060208284031215614bcf578081fd5b81516119308161525e565b6000815180845260208085019450808401835b83811015614c0957815187529582019590820190600101614bed565b509495945050505050565b60008151808452614c2c81602086016020860161514b565b601f01601f19169290920160200192915050565b60008351614c5281846020880161514b565b835190830190614c6681836020880161514b565b01949350505050565b60007f416363657373436f6e74726f6c3a206163636f756e742000000000000000000082528351614ca781601785016020880161514b565b7001034b99036b4b9b9b4b733903937b6329607d1b6017918401918201528351614cd881602884016020880161514b565b01602801949350505050565b6001600160a01b0385811682528416602082015260408101839052608060608201819052600090614d1790830184614c14565b9695505050505050565b6000602082526119306020830184614bda565b600060608252614d476060830186614bda565b8281036020840152614d598186614bda565b90508281036040840152614d178185614bda565b600060808252614d806080830187614bda565b8281036020840152614d928187614bda565b90508281036040840152614da68186614bda565b90508281036060840152614dba8185614bda565b979650505050505050565b600060408252614dd86040830185614bda565b90508260208301529392505050565b6000602082526119306020830184614c14565b60208082526032908201527f4552433732313a207472616e7366657220746f206e6f6e20455243373231526560408201527131b2b4bb32b91034b6b83632b6b2b73a32b960711b606082015260800190565b6020808252603a908201527f434c4d383a3a747261636b6572546f6b656e6b4578697374733a20747261636b60408201527f657220746f6b656e20494420646f6573206e6f74206578697374000000000000606082015260800190565b60208082526031908201527f4552433732313a207472616e736665722063616c6c6572206973206e6f74206f6040820152701ddb995c881b9bdc88185c1c1c9bdd9959607a1b606082015260800190565b6020808252602b908201527f496e697469616c697a61626c653a20636f6e7472616374206973206e6f74206960408201526a6e697469616c697a696e6760a81b606082015260800190565b6020808252602e908201527f434c4d383a3a6e6f74417564697465643a20747261636b65724964206973206160408201526d1b1c9958591e48185d591a5d195960921b606082015260800190565b600060208252825160208301526020830151614fba60408401826001600160a01b03169052565b5060408301516001600160a01b03811660608401525060608301516080830152608083015160a083015260a083015160c083015260c083015160e083015260e08301516101008181850152808501519150506101406101208181860152615025610160860184614c14565b90860151858203601f190183870152909250614d178382614c14565b60006101408c835260018060a01b03808d166020850152808c166040850152508960608401528860808401528760a08401528660c08401528560e08401528061010084015261509281840186614c14565b90508281036101208401526150a78185614c14565b9d9c50505050505050505050505050565b604051601f8201601f1916810167ffffffffffffffff811182821017156150e1576150e1615224565b604052919050565b600082198211156150fc576150fc6151f8565b500190565b6000826151105761511061520e565b500490565b600081600019048311821515161561512f5761512f6151f8565b500290565b600082821015615146576151466151f8565b500390565b60005b8381101561516657818101518382015260200161514e565b83811115611e795750506000910152565b600081615186576151866151f8565b506000190190565b600181811c908216806151a257607f821691505b602082108114156151c357634e487b7160e01b600052602260045260246000fd5b50919050565b60006000198214156151dd576151dd6151f8565b5060010190565b6000826151f3576151f361520e565b500690565b634e487b7160e01b600052601160045260246000fd5b634e487b7160e01b600052601260045260246000fd5b634e487b7160e01b600052604160045260246000fd5b80151581146136a257600080fd5b6001600160e01b0319811681146136a257600080fd5b60ff811681146136a257600080fdfe4f9730948b73761de8f37a0aea1760c5eef658d37d8c456767b81e17c01f30eda2646970667358221220e113c34f7a024e69df3ad01d37cd3c88f307287e4107b8750dd5b5966ab6e12d64736f6c63430008030033",
  "linkReferences": {},
  "deployedLinkReferences": {}
}