{
  "_format": "hh-sol-artifact-1",
  "contractName": "CarbonTracker",
  "sourceName": "contracts/Governance/CarbonTracker.sol",
  "abi": [
    {
      "anonymous": false,
      "inputs": [
        {
          "indexed": true,
          "internalType": "address",
          "name": "owner",
          "type": "address"
        },
        {
          "indexed": true,
          "internalType": "address",
          "name": "approved",
          "type": "address"
        },
        {
          "indexed": true,
          "internalType": "uint256",
          "name": "tokenId",
          "type": "uint256"
        }
      ],
      "name": "Approval",
      "type": "event"
    },
    {
      "anonymous": false,
      "inputs": [
        {
          "indexed": true,
          "internalType": "address",
          "name": "owner",
          "type": "address"
        },
        {
          "indexed": true,
          "internalType": "address",
          "name": "operator",
          "type": "address"
        },
        {
          "indexed": false,
          "internalType": "bool",
          "name": "approved",
          "type": "bool"
        }
      ],
      "name": "ApprovalForAll",
      "type": "event"
    },
    {
      "anonymous": false,
      "inputs": [
        {
          "indexed": true,
          "internalType": "uint256",
          "name": "trackerId",
          "type": "uint256"
        },
        {
          "indexed": false,
          "internalType": "uint256[]",
          "name": "productIds",
          "type": "uint256[]"
        },
        {
          "indexed": false,
          "internalType": "uint256[]",
          "name": "productAmounts",
          "type": "uint256[]"
        }
      ],
      "name": "ProductsUpdated",
      "type": "event"
    },
    {
      "anonymous": false,
      "inputs": [
        {
          "indexed": true,
          "internalType": "address",
          "name": "account",
          "type": "address"
        }
      ],
      "name": "RegisteredTracker",
      "type": "event"
    },
    {
      "anonymous": false,
      "inputs": [
        {
          "indexed": true,
          "internalType": "bytes32",
          "name": "role",
          "type": "bytes32"
        },
        {
          "indexed": true,
          "internalType": "bytes32",
          "name": "previousAdminRole",
          "type": "bytes32"
        },
        {
          "indexed": true,
          "internalType": "bytes32",
          "name": "newAdminRole",
          "type": "bytes32"
        }
      ],
      "name": "RoleAdminChanged",
      "type": "event"
    },
    {
      "anonymous": false,
      "inputs": [
        {
          "indexed": true,
          "internalType": "bytes32",
          "name": "role",
          "type": "bytes32"
        },
        {
          "indexed": true,
          "internalType": "address",
          "name": "account",
          "type": "address"
        },
        {
          "indexed": true,
          "internalType": "address",
          "name": "sender",
          "type": "address"
        }
      ],
      "name": "RoleGranted",
      "type": "event"
    },
    {
      "anonymous": false,
      "inputs": [
        {
          "indexed": true,
          "internalType": "bytes32",
          "name": "role",
          "type": "bytes32"
        },
        {
          "indexed": true,
          "internalType": "address",
          "name": "account",
          "type": "address"
        },
        {
          "indexed": true,
          "internalType": "address",
          "name": "sender",
          "type": "address"
        }
      ],
      "name": "RoleRevoked",
      "type": "event"
    },
    {
      "anonymous": false,
      "inputs": [
        {
          "indexed": true,
          "internalType": "uint256",
          "name": "trackerId",
          "type": "uint256"
        },
        {
          "indexed": true,
          "internalType": "address",
          "name": "trackee",
          "type": "address"
        }
      ],
      "name": "TrackeeChanged",
      "type": "event"
    },
    {
      "anonymous": false,
      "inputs": [
        {
          "indexed": true,
          "internalType": "uint256",
          "name": "trackerId",
          "type": "uint256"
        },
        {
          "indexed": true,
          "internalType": "address",
          "name": "tracker",
          "type": "address"
        },
        {
          "indexed": false,
          "internalType": "uint256[]",
          "name": "tokenIds",
          "type": "uint256[]"
        },
        {
          "indexed": false,
          "internalType": "uint256[]",
          "name": "tokenAmounts",
          "type": "uint256[]"
        },
        {
          "indexed": false,
          "internalType": "uint256",
          "name": "fromDate",
          "type": "uint256"
        },
        {
          "indexed": false,
          "internalType": "uint256",
          "name": "thruDate",
          "type": "uint256"
        }
      ],
      "name": "TrackerUpdated",
      "type": "event"
    },
    {
      "anonymous": false,
      "inputs": [
        {
          "indexed": true,
          "internalType": "address",
          "name": "from",
          "type": "address"
        },
        {
          "indexed": true,
          "internalType": "address",
          "name": "to",
          "type": "address"
        },
        {
          "indexed": true,
          "internalType": "uint256",
          "name": "tokenId",
          "type": "uint256"
        }
      ],
      "name": "Transfer",
      "type": "event"
    },
    {
      "anonymous": false,
      "inputs": [
        {
          "indexed": true,
          "internalType": "uint256",
          "name": "tokenId",
          "type": "uint256"
        },
        {
          "indexed": true,
          "internalType": "address",
          "name": "trackee",
          "type": "address"
        },
        {
          "indexed": false,
          "internalType": "uint256",
          "name": "amount",
          "type": "uint256"
        }
      ],
      "name": "VerifiedOutput",
      "type": "event"
    },
    {
      "anonymous": false,
      "inputs": [
        {
          "indexed": true,
          "internalType": "address",
          "name": "auditor",
          "type": "address"
        },
        {
          "indexed": true,
          "internalType": "address",
          "name": "trackee",
          "type": "address"
        }
      ],
      "name": "VerifierApproved",
      "type": "event"
    },
    {
      "anonymous": false,
      "inputs": [
        {
          "indexed": true,
          "internalType": "address",
          "name": "auditor",
          "type": "address"
        },
        {
          "indexed": true,
          "internalType": "address",
          "name": "trackee",
          "type": "address"
        }
      ],
      "name": "VerifierRemoved",
      "type": "event"
    },
    {
      "inputs": [],
      "name": "DEFAULT_ADMIN_ROLE",
      "outputs": [
        {
          "internalType": "bytes32",
          "name": "",
          "type": "bytes32"
        }
      ],
      "stateMutability": "view",
      "type": "function"
    },
    {
      "inputs": [],
      "name": "REGISTERED_TRACKER",
      "outputs": [
        {
          "internalType": "bytes32",
          "name": "",
          "type": "bytes32"
        }
      ],
      "stateMutability": "view",
      "type": "function"
    },
    {
      "inputs": [
        {
          "internalType": "uint256",
          "name": "trackerId",
          "type": "uint256"
        },
        {
          "internalType": "uint256",
          "name": "productId",
          "type": "uint256"
        },
        {
          "internalType": "string",
          "name": "unit",
          "type": "string"
        },
        {
          "internalType": "uint256",
          "name": "unitAmount",
          "type": "uint256"
        }
      ],
      "name": "_getUnitHash",
      "outputs": [
        {
          "internalType": "bytes32",
          "name": "",
          "type": "bytes32"
        }
      ],
      "stateMutability": "view",
      "type": "function"
    },
    {
      "inputs": [],
      "name": "_numOfProducts",
      "outputs": [
        {
          "internalType": "uint256",
          "name": "_value",
          "type": "uint256"
        }
      ],
      "stateMutability": "view",
      "type": "function"
    },
    {
      "inputs": [],
      "name": "_numOfUniqueTrackers",
      "outputs": [
        {
          "internalType": "uint256",
          "name": "_value",
          "type": "uint256"
        }
      ],
      "stateMutability": "view",
      "type": "function"
    },
    {
      "inputs": [
        {
          "internalType": "uint256",
          "name": "",
          "type": "uint256"
        }
      ],
      "name": "_productData",
      "outputs": [
        {
          "internalType": "uint256",
          "name": "trackerId",
          "type": "uint256"
        },
        {
          "internalType": "address",
          "name": "auditor",
          "type": "address"
        },
        {
          "internalType": "uint256",
          "name": "amount",
          "type": "uint256"
        },
        {
          "internalType": "uint256",
          "name": "available",
          "type": "uint256"
        },
        {
          "internalType": "string",
          "name": "name",
          "type": "string"
        },
        {
          "internalType": "string",
          "name": "unit",
          "type": "string"
        },
        {
          "internalType": "uint256",
          "name": "unitAmount",
          "type": "uint256"
        }
      ],
      "stateMutability": "view",
      "type": "function"
    },
    {
      "inputs": [
        {
          "internalType": "uint256",
          "name": "outAmount",
          "type": "uint256"
        },
        {
          "internalType": "uint256",
          "name": "totalTracked",
          "type": "uint256"
        }
      ],
      "name": "_verifyTotalTracked",
      "outputs": [],
      "stateMutability": "pure",
      "type": "function"
    },
    {
      "inputs": [
        {
          "internalType": "address",
          "name": "to",
          "type": "address"
        },
        {
          "internalType": "uint256",
          "name": "tokenId",
          "type": "uint256"
        }
      ],
      "name": "approve",
      "outputs": [],
      "stateMutability": "nonpayable",
      "type": "function"
    },
    {
      "inputs": [
        {
          "internalType": "address",
          "name": "verifier",
          "type": "address"
        },
        {
          "internalType": "bool",
          "name": "approve",
          "type": "bool"
        }
      ],
      "name": "approveVerifier",
      "outputs": [],
      "stateMutability": "nonpayable",
      "type": "function"
    },
    {
      "inputs": [
        {
          "internalType": "uint256",
          "name": "trackerId",
          "type": "uint256"
        }
      ],
      "name": "audit",
      "outputs": [],
      "stateMutability": "nonpayable",
      "type": "function"
    },
    {
      "inputs": [
        {
          "internalType": "address",
          "name": "owner",
          "type": "address"
        }
      ],
      "name": "balanceOf",
      "outputs": [
        {
          "internalType": "uint256",
          "name": "",
          "type": "uint256"
        }
      ],
      "stateMutability": "view",
      "type": "function"
    },
    {
      "inputs": [
        {
          "internalType": "uint256",
          "name": "trackerId",
          "type": "uint256"
        }
      ],
      "name": "carbonIntensity",
      "outputs": [
        {
          "internalType": "uint256",
          "name": "",
          "type": "uint256"
        }
      ],
      "stateMutability": "view",
      "type": "function"
    },
    {
      "inputs": [],
      "name": "divDecimals",
      "outputs": [
        {
          "internalType": "uint256",
          "name": "",
          "type": "uint256"
        }
      ],
      "stateMutability": "view",
      "type": "function"
    },
    {
      "inputs": [
        {
          "internalType": "uint256",
          "name": "tokenId",
          "type": "uint256"
        }
      ],
      "name": "getApproved",
      "outputs": [
        {
          "internalType": "address",
          "name": "",
          "type": "address"
        }
      ],
      "stateMutability": "view",
      "type": "function"
    },
    {
      "inputs": [],
      "name": "getNumOfProducts",
      "outputs": [
        {
          "internalType": "uint256",
          "name": "",
          "type": "uint256"
        }
      ],
      "stateMutability": "view",
      "type": "function"
    },
    {
      "inputs": [],
      "name": "getNumOfUniqueTrackers",
      "outputs": [
        {
          "internalType": "uint256",
          "name": "",
          "type": "uint256"
        }
      ],
      "stateMutability": "view",
      "type": "function"
    },
    {
      "inputs": [
        {
          "internalType": "uint256",
          "name": "productId",
          "type": "uint256"
        },
        {
          "internalType": "uint256",
          "name": "trackerId",
          "type": "uint256"
        },
        {
          "internalType": "address",
          "name": "owner",
          "type": "address"
        }
      ],
      "name": "getProductBalance",
      "outputs": [
        {
          "internalType": "uint256",
          "name": "",
          "type": "uint256"
        }
      ],
      "stateMutability": "view",
      "type": "function"
    },
    {
      "inputs": [
        {
          "internalType": "uint256",
          "name": "productId",
          "type": "uint256"
        }
      ],
      "name": "getProductDetails",
      "outputs": [
        {
          "internalType": "uint256",
          "name": "",
          "type": "uint256"
        },
        {
          "internalType": "uint256",
          "name": "",
          "type": "uint256"
        },
        {
          "internalType": "uint256",
          "name": "",
          "type": "uint256"
        }
      ],
      "stateMutability": "view",
      "type": "function"
    },
    {
      "inputs": [
        {
          "internalType": "uint256",
          "name": "productId",
          "type": "uint256"
        }
      ],
      "name": "getProductOptionalDetails",
      "outputs": [
        {
          "internalType": "string",
          "name": "",
          "type": "string"
        },
        {
          "internalType": "uint256",
          "name": "",
          "type": "uint256"
        },
        {
          "internalType": "string",
          "name": "",
          "type": "string"
        }
      ],
      "stateMutability": "view",
      "type": "function"
    },
    {
      "inputs": [
        {
          "internalType": "bytes32",
          "name": "role",
          "type": "bytes32"
        }
      ],
      "name": "getRoleAdmin",
      "outputs": [
        {
          "internalType": "bytes32",
          "name": "",
          "type": "bytes32"
        }
      ],
      "stateMutability": "view",
      "type": "function"
    },
    {
      "inputs": [
        {
          "internalType": "uint256",
          "name": "trackerId",
          "type": "uint256"
        }
      ],
      "name": "getTokenAmounts",
      "outputs": [
        {
          "internalType": "uint256[]",
          "name": "",
          "type": "uint256[]"
        },
        {
          "internalType": "uint256[]",
          "name": "",
          "type": "uint256[]"
        }
      ],
      "stateMutability": "view",
      "type": "function"
    },
    {
      "inputs": [
        {
          "internalType": "uint256",
          "name": "trackerId",
          "type": "uint256"
        }
      ],
      "name": "getTokenIds",
      "outputs": [
        {
          "internalType": "uint256[]",
          "name": "",
          "type": "uint256[]"
        }
      ],
      "stateMutability": "view",
      "type": "function"
    },
    {
      "inputs": [
        {
          "internalType": "uint256",
          "name": "trackerId",
          "type": "uint256"
        }
      ],
      "name": "getTotalEmissions",
      "outputs": [
        {
          "internalType": "uint256",
          "name": "",
          "type": "uint256"
        }
      ],
      "stateMutability": "view",
      "type": "function"
    },
    {
      "inputs": [
        {
          "internalType": "uint256",
          "name": "trackerId",
          "type": "uint256"
        }
      ],
      "name": "getTrackerDetails",
      "outputs": [
        {
          "components": [
            {
              "internalType": "uint256",
              "name": "trackerId",
              "type": "uint256"
            },
            {
              "internalType": "address",
              "name": "trackee",
              "type": "address"
            },
            {
              "internalType": "address",
              "name": "auditor",
              "type": "address"
            },
            {
              "internalType": "uint256",
              "name": "totalProductAmounts",
              "type": "uint256"
            },
            {
              "internalType": "uint256",
              "name": "fromDate",
              "type": "uint256"
            },
            {
              "internalType": "uint256",
              "name": "thruDate",
              "type": "uint256"
            },
            {
              "internalType": "uint256",
              "name": "dateCreated",
              "type": "uint256"
            },
            {
              "internalType": "string",
              "name": "metadata",
              "type": "string"
            },
            {
              "internalType": "string",
              "name": "description",
              "type": "string"
            }
          ],
          "internalType": "struct CarbonTracker.CarbonTrackerDetails",
          "name": "",
          "type": "tuple"
        },
        {
          "internalType": "uint256",
          "name": "",
          "type": "uint256"
        },
        {
          "internalType": "uint256[]",
          "name": "",
          "type": "uint256[]"
        }
      ],
      "stateMutability": "view",
      "type": "function"
    },
    {
      "inputs": [
        {
          "internalType": "uint256",
          "name": "trackerId",
          "type": "uint256"
        }
      ],
      "name": "getTrackerIds",
      "outputs": [
        {
          "internalType": "uint256[]",
          "name": "",
          "type": "uint256[]"
        }
      ],
      "stateMutability": "view",
      "type": "function"
    },
    {
      "inputs": [
        {
          "internalType": "uint256",
          "name": "trackerId",
          "type": "uint256"
        }
      ],
      "name": "getTrackerTokenDetails",
      "outputs": [
        {
          "internalType": "uint256[]",
          "name": "",
          "type": "uint256[]"
        },
        {
          "internalType": "uint256[]",
          "name": "",
          "type": "uint256[]"
        }
      ],
      "stateMutability": "view",
      "type": "function"
    },
    {
      "inputs": [
        {
          "internalType": "bytes32",
          "name": "role",
          "type": "bytes32"
        },
        {
          "internalType": "address",
          "name": "account",
          "type": "address"
        }
      ],
      "name": "grantRole",
      "outputs": [],
      "stateMutability": "nonpayable",
      "type": "function"
    },
    {
      "inputs": [
        {
          "internalType": "bytes32",
          "name": "role",
          "type": "bytes32"
        },
        {
          "internalType": "address",
          "name": "account",
          "type": "address"
        }
      ],
      "name": "hasRole",
      "outputs": [
        {
          "internalType": "bool",
          "name": "",
          "type": "bool"
        }
      ],
      "stateMutability": "view",
      "type": "function"
    },
    {
      "inputs": [
        {
          "internalType": "address",
          "name": "_net",
          "type": "address"
        },
        {
          "internalType": "address",
          "name": "_admin",
          "type": "address"
        }
      ],
      "name": "initialize",
      "outputs": [],
      "stateMutability": "nonpayable",
      "type": "function"
    },
    {
      "inputs": [
        {
          "internalType": "address",
          "name": "owner",
          "type": "address"
        },
        {
          "internalType": "address",
          "name": "operator",
          "type": "address"
        }
      ],
      "name": "isApprovedForAll",
      "outputs": [
        {
          "internalType": "bool",
          "name": "",
          "type": "bool"
        }
      ],
      "stateMutability": "view",
      "type": "function"
    },
    {
      "inputs": [],
      "name": "name",
      "outputs": [
        {
          "internalType": "string",
          "name": "",
          "type": "string"
        }
      ],
      "stateMutability": "view",
      "type": "function"
    },
    {
      "inputs": [],
      "name": "net",
      "outputs": [
        {
          "internalType": "contract NetEmissionsTokenNetwork",
          "name": "",
          "type": "address"
        }
      ],
      "stateMutability": "view",
      "type": "function"
    },
    {
      "inputs": [],
      "name": "netAddress",
      "outputs": [
        {
          "internalType": "address",
          "name": "",
          "type": "address"
        }
      ],
      "stateMutability": "view",
      "type": "function"
    },
    {
      "inputs": [
        {
          "internalType": "address",
          "name": "",
          "type": "address"
        },
        {
          "internalType": "address",
          "name": "",
          "type": "address"
        },
        {
          "internalType": "uint256[]",
          "name": "",
          "type": "uint256[]"
        },
        {
          "internalType": "uint256[]",
          "name": "",
          "type": "uint256[]"
        },
        {
          "internalType": "bytes",
          "name": "",
          "type": "bytes"
        }
      ],
      "name": "onERC1155BatchReceived",
      "outputs": [
        {
          "internalType": "bytes4",
          "name": "",
          "type": "bytes4"
        }
      ],
      "stateMutability": "nonpayable",
      "type": "function"
    },
    {
      "inputs": [
        {
          "internalType": "address",
          "name": "",
          "type": "address"
        },
        {
          "internalType": "address",
          "name": "",
          "type": "address"
        },
        {
          "internalType": "uint256",
          "name": "",
          "type": "uint256"
        },
        {
          "internalType": "uint256",
          "name": "",
          "type": "uint256"
        },
        {
          "internalType": "bytes",
          "name": "",
          "type": "bytes"
        }
      ],
      "name": "onERC1155Received",
      "outputs": [
        {
          "internalType": "bytes4",
          "name": "",
          "type": "bytes4"
        }
      ],
      "stateMutability": "nonpayable",
      "type": "function"
    },
    {
      "inputs": [
        {
          "internalType": "uint256",
          "name": "tokenId",
          "type": "uint256"
        }
      ],
      "name": "ownerOf",
      "outputs": [
        {
          "internalType": "address",
          "name": "",
          "type": "address"
        }
      ],
      "stateMutability": "view",
      "type": "function"
    },
    {
      "inputs": [
        {
          "internalType": "uint256",
          "name": "",
          "type": "uint256"
        },
        {
          "internalType": "uint256",
          "name": "",
          "type": "uint256"
        },
        {
          "internalType": "address",
          "name": "",
          "type": "address"
        }
      ],
      "name": "productBalance",
      "outputs": [
        {
          "internalType": "uint256",
          "name": "",
          "type": "uint256"
        }
      ],
      "stateMutability": "view",
      "type": "function"
    },
    {
      "inputs": [
        {
          "internalType": "uint256",
          "name": "trackerId",
          "type": "uint256"
        },
        {
          "internalType": "uint256[]",
          "name": "productIds",
          "type": "uint256[]"
        },
        {
          "internalType": "uint256[]",
          "name": "productAmounts",
          "type": "uint256[]"
        },
        {
          "internalType": "string[]",
          "name": "productNames",
          "type": "string[]"
        },
        {
          "internalType": "string[]",
          "name": "productUnits",
          "type": "string[]"
        },
        {
          "internalType": "uint256[]",
          "name": "productUnitAmounts",
          "type": "uint256[]"
        }
      ],
      "name": "productsUpdate",
      "outputs": [],
      "stateMutability": "nonpayable",
      "type": "function"
    },
    {
      "inputs": [
        {
          "internalType": "address",
          "name": "tracker",
          "type": "address"
        }
      ],
      "name": "registerTracker",
      "outputs": [],
      "stateMutability": "nonpayable",
      "type": "function"
    },
    {
      "inputs": [
        {
          "internalType": "uint256",
          "name": "trackerId",
          "type": "uint256"
        }
      ],
      "name": "removeAudit",
      "outputs": [],
      "stateMutability": "nonpayable",
      "type": "function"
    },
    {
      "inputs": [
        {
          "internalType": "bytes32",
          "name": "role",
          "type": "bytes32"
        },
        {
          "internalType": "address",
          "name": "account",
          "type": "address"
        }
      ],
      "name": "renounceRole",
      "outputs": [],
      "stateMutability": "nonpayable",
      "type": "function"
    },
    {
      "inputs": [
        {
          "internalType": "bytes32",
          "name": "role",
          "type": "bytes32"
        },
        {
          "internalType": "address",
          "name": "account",
          "type": "address"
        }
      ],
      "name": "revokeRole",
      "outputs": [],
      "stateMutability": "nonpayable",
      "type": "function"
    },
    {
      "inputs": [
        {
          "internalType": "address",
          "name": "from",
          "type": "address"
        },
        {
          "internalType": "address",
          "name": "to",
          "type": "address"
        },
        {
          "internalType": "uint256",
          "name": "tokenId",
          "type": "uint256"
        }
      ],
      "name": "safeTransferFrom",
      "outputs": [],
      "stateMutability": "nonpayable",
      "type": "function"
    },
    {
      "inputs": [
        {
          "internalType": "address",
          "name": "from",
          "type": "address"
        },
        {
          "internalType": "address",
          "name": "to",
          "type": "address"
        },
        {
          "internalType": "uint256",
          "name": "tokenId",
          "type": "uint256"
        },
        {
          "internalType": "bytes",
          "name": "_data",
          "type": "bytes"
        }
      ],
      "name": "safeTransferFrom",
      "outputs": [],
      "stateMutability": "nonpayable",
      "type": "function"
    },
    {
      "inputs": [
        {
          "internalType": "address",
          "name": "operator",
          "type": "address"
        },
        {
          "internalType": "bool",
          "name": "approved",
          "type": "bool"
        }
      ],
      "name": "setApprovalForAll",
      "outputs": [],
      "stateMutability": "nonpayable",
      "type": "function"
    },
    {
      "inputs": [
        {
          "internalType": "bytes4",
          "name": "interfaceId",
          "type": "bytes4"
        }
      ],
      "name": "supportsInterface",
      "outputs": [
        {
          "internalType": "bool",
          "name": "",
          "type": "bool"
        }
      ],
      "stateMutability": "view",
      "type": "function"
    },
    {
      "inputs": [],
      "name": "symbol",
      "outputs": [
        {
          "internalType": "string",
          "name": "",
          "type": "string"
        }
      ],
      "stateMutability": "view",
      "type": "function"
    },
    {
      "inputs": [
        {
          "internalType": "uint256",
          "name": "tokenId",
          "type": "uint256"
        }
      ],
      "name": "tokenURI",
      "outputs": [
        {
          "internalType": "string",
          "name": "",
          "type": "string"
        }
      ],
      "stateMutability": "view",
      "type": "function"
    },
    {
      "inputs": [
        {
          "internalType": "address",
          "name": "trackee",
          "type": "address"
        },
        {
          "internalType": "uint256[]",
          "name": "tokenIds",
          "type": "uint256[]"
        },
        {
          "internalType": "uint256[]",
          "name": "tokenAmounts",
          "type": "uint256[]"
        },
        {
          "internalType": "uint256",
          "name": "fromDate",
          "type": "uint256"
        },
        {
          "internalType": "uint256",
          "name": "thruDate",
          "type": "uint256"
        },
        {
          "internalType": "string",
          "name": "description",
          "type": "string"
        }
      ],
      "name": "track",
      "outputs": [
        {
          "internalType": "uint256",
          "name": "",
          "type": "uint256"
        }
      ],
      "stateMutability": "nonpayable",
      "type": "function"
    },
    {
      "inputs": [
        {
          "internalType": "uint256",
          "name": "trackerId",
          "type": "uint256"
        },
        {
          "internalType": "uint256",
          "name": "sourceTrackerId",
          "type": "uint256"
        },
        {
          "internalType": "uint256",
          "name": "productId",
          "type": "uint256"
        },
        {
          "internalType": "uint256",
          "name": "productAmount",
          "type": "uint256"
        }
      ],
      "name": "trackProduct",
      "outputs": [],
      "stateMutability": "nonpayable",
      "type": "function"
    },
    {
      "inputs": [
        {
          "internalType": "uint256",
          "name": "trackerId",
          "type": "uint256"
        },
        {
          "internalType": "uint256[]",
          "name": "tokenIds",
          "type": "uint256[]"
        },
        {
          "internalType": "uint256[]",
          "name": "tokenAmounts",
          "type": "uint256[]"
        },
        {
          "internalType": "uint256",
          "name": "fromDate",
          "type": "uint256"
        },
        {
          "internalType": "uint256",
          "name": "thruDate",
          "type": "uint256"
        },
        {
          "internalType": "string",
          "name": "description",
          "type": "string"
        }
      ],
      "name": "trackUpdate",
      "outputs": [],
      "stateMutability": "nonpayable",
      "type": "function"
    },
    {
      "inputs": [
        {
          "internalType": "address",
          "name": "from",
          "type": "address"
        },
        {
          "internalType": "address",
          "name": "to",
          "type": "address"
        },
        {
          "internalType": "uint256",
          "name": "tokenId",
          "type": "uint256"
        }
      ],
      "name": "transferFrom",
      "outputs": [],
      "stateMutability": "nonpayable",
      "type": "function"
    },
    {
      "inputs": [
        {
          "internalType": "uint256",
          "name": "productId",
          "type": "uint256"
        },
        {
          "internalType": "uint256",
          "name": "productAmount",
          "type": "uint256"
        },
        {
          "internalType": "uint256",
          "name": "sourceTrackerId",
          "type": "uint256"
        },
        {
          "internalType": "address",
          "name": "trackee",
          "type": "address"
        }
      ],
      "name": "transferProduct",
      "outputs": [],
      "stateMutability": "nonpayable",
      "type": "function"
    },
    {
      "inputs": [
        {
          "internalType": "uint256",
          "name": "trackerId",
          "type": "uint256"
        },
        {
          "internalType": "uint256",
          "name": "sourceTrackerId",
          "type": "uint256"
        },
        {
          "internalType": "uint256",
          "name": "productId",
          "type": "uint256"
        },
        {
          "internalType": "uint256",
          "name": "productAmount",
          "type": "uint256"
        }
      ],
      "name": "transferProductToTracker",
      "outputs": [],
      "stateMutability": "nonpayable",
      "type": "function"
    },
    {
      "inputs": [
        {
          "internalType": "uint256",
          "name": "trackerId",
          "type": "uint256"
        },
        {
          "internalType": "uint256",
          "name": "productId",
          "type": "uint256"
        },
        {
          "internalType": "string",
          "name": "unit",
          "type": "string"
        },
        {
          "internalType": "uint256",
          "name": "unitAmount",
          "type": "uint256"
        },
        {
          "internalType": "bytes",
          "name": "signature",
          "type": "bytes"
        }
      ],
      "name": "verifyUnitSignature",
      "outputs": [
        {
          "internalType": "bool",
          "name": "",
          "type": "bool"
        }
      ],
      "stateMutability": "view",
      "type": "function"
    }
  ],
  "bytecode": "0x608060405234801561001057600080fd5b50615c4380620000216000396000f3fe608060405234801561001057600080fd5b506004361061035d5760003560e01c806381d5f7f6116101d3578063b88d4fde11610104578063d547741f116100a2578063e985e9c51161007c578063e985e9c51461080f578063ecc3356a1461084b578063f23a6e611461085e578063f2600e4e1461087d5761035d565b8063d547741f146107b6578063e54a9646146107c9578063e7b5892a146107dd5761035d565b8063c2fff4a5116100de578063c2fff4a514610769578063c87b56dd1461077d578063cf2f466414610790578063d0b124b6146107a35761035d565b8063b88d4fde1461070b578063b9531f211461071e578063bc197c81146107315761035d565b8063a23ccfe811610171578063b173e5701161014b578063b173e5701461069d578063b2defd98146106b0578063b395ee91146106ee578063b51eda9a146107015761035d565b8063a23ccfe81461066f578063a2ce6a7914610677578063a7d6619d1461068a5761035d565b806395d89b41116101ad57806395d89b411461063957806399228cda14610641578063a217fddf14610654578063a22cb4651461065c5761035d565b806381d5f7f6146105ef5780638a59a9351461060457806391d14854146106265761035d565b80633b8470b0116102ad5780635e7231c31161024b5780636813b53b116102255780636813b53b1461059357806370a08231146105c15780637c7768d6146105d45780637c7a89ca146105dc5761035d565b80635e7231c31461055a5780636352211e1461056d57806363a24857146105805761035d565b8063485cc95511610287578063485cc955146104fa57806357991d301461050d578063594d46051461052d5780635ad25ac8146105385761035d565b80633b8470b0146104c957806340e6c970146104dc57806342842e0e146104e75761035d565b806323b872dd1161031a5780632f2ff15d116102f45780632f2ff15d1461045c57806336568abe1461046f5780633abb340f146104825780633b4e06e6146104a85761035d565b806323b872dd14610413578063248a9ca3146104265780632f1f8e62146104495761035d565b806301ffc9a71461036257806306fdde031461038a578063081812fc1461039f578063095ea7b3146103ca5780630b71d18b146103df5780631856f26214610400575b600080fd5b61037561037036600461521e565b610890565b60405190151581526020015b60405180910390f35b6103926108bd565b604051610381919061571f565b6103b26103ad3660046151e4565b61094f565b6040516001600160a01b039091168152602001610381565b6103dd6103d836600461519f565b6109e9565b005b6103f26103ed3660046151e4565b610aff565b604051908152602001610381565b6103dd61040e366004614ed0565b610b20565b6103dd610421366004614fc1565b610c13565b6103f26104343660046151e4565b60009081526097602052604090206001015490565b6103f26104573660046151e4565b610c44565b6103dd61046a3660046151fc565b610c99565b6103dd61047d3660046151fc565b610cc0565b6104956104903660046151e4565b610d3e565b60405161038197969594939291906159d1565b6104bb6104b63660046151e4565b610e96565b6040516103819291906156b8565b6103dd6104d73660046154bf565b610fe3565b610132546103f29081565b6103dd6104f5366004614fc1565b6111bf565b6103dd610508366004614eea565b6111da565b61052061051b3660046151e4565b611339565b60405161038191906156a5565b610133546103f29081565b61054b6105463660046151e4565b61139c565b60405161038193929190615732565b6103dd610568366004615351565b61157c565b6103b261057b3660046151e4565b611618565b6103dd61058e36600461531c565b61168f565b6105a66105a13660046151e4565b6116fc565b60408051938452602084019290925290820152606001610381565b6103f26105cf366004614ed0565b61189d565b6103f2611924565b6103dd6105ea3660046154bf565b611935565b6103f2600080516020615bee83398151915281565b6106176106123660046151e4565b611bb4565b6040516103819392919061590e565b6103756106343660046151fc565b611e32565b610392611e5d565b6103f261064f3660046150c3565b611e6c565b6103f2600081565b6103dd61066a366004615169565b611ea2565b6103f2611ead565b6103f26106853660046153c9565b611eb9565b6103dd610698366004615169565b611ef4565b6103dd6106ab3660046151e4565b6121a3565b6103f26106be366004615395565b6000928352610135602090815260408085209385529281528284206001600160a01b039290921684525290205490565b6103dd6106fc366004615481565b61222b565b6103f26101375481565b6103dd610719366004614ffc565b612458565b61052061072c3660046151e4565b612490565b61075061073f366004614f1c565b63bc197c8160e01b95945050505050565b6040516001600160e01b03199091168152602001610381565b61012d546103b2906001600160a01b031681565b61039261078b3660046151e4565b6124f4565b6103dd61079e366004615256565b6125dc565b6103756107b136600461541e565b612bf8565b6103dd6107c43660046151fc565b612cbb565b61012e546103b2906001600160a01b031681565b6103f26107eb366004615395565b61013560209081526000938452604080852082529284528284209052825290205481565b61037561081d366004614eea565b6001600160a01b039182166000908152606a6020908152604080832093909416825291909152205460ff1690565b6103dd6108593660046151e4565b612ce1565b61075061086c366004615061565b63f23a6e6160e01b95945050505050565b6104bb61088b3660046151e4565b612d2b565b60006001600160e01b03198216637965db0b60e01b14806108b557506108b582612e6c565b90505b919050565b6060606580546108cc90615b23565b80601f01602080910402602001604051908101604052809291908181526020018280546108f890615b23565b80156109455780601f1061091a57610100808354040283529160200191610945565b820191906000526020600020905b81548152906001019060200180831161092857829003601f168201915b5050505050905090565b6000818152606760205260408120546001600160a01b03166109cd5760405162461bcd60e51b815260206004820152602c60248201527f4552433732313a20617070726f76656420717565727920666f72206e6f6e657860448201526b34b9ba32b73a103a37b5b2b760a11b60648201526084015b60405180910390fd5b506000908152606960205260409020546001600160a01b031690565b60006109f482611618565b9050806001600160a01b0316836001600160a01b03161415610a625760405162461bcd60e51b815260206004820152602160248201527f4552433732313a20617070726f76616c20746f2063757272656e74206f776e656044820152603960f91b60648201526084016109c4565b336001600160a01b0382161480610a7e5750610a7e813361081d565b610af05760405162461bcd60e51b815260206004820152603860248201527f4552433732313a20617070726f76652063616c6c6572206973206e6f74206f7760448201527f6e6572206e6f7220617070726f76656420666f7220616c6c000000000000000060648201526084016109c4565b610afa8383612e91565b505050565b60008181526101306020526040812081610b1882612eff565b949350505050565b806001600160a01b038116331480610b3e5750610b3e600033611e32565b610bc35760405162461bcd60e51b815260206004820152604a60248201527f434c4d383a3a73656c664f7241646d696e3a206d73672e73656e64657220646f60448201527f6573206e6f74206f776e20746869732061646472657373206f72206973206e6f6064820152693a1030b71030b236b4b760b11b608482015260a4016109c4565b610bdb600080516020615bee83398151915283613142565b6040516001600160a01b038316907fef8ce2b8e324ee947b09d9cf7f74e5589078af3a3e3f5266e9752c8284e4cd8790600090a25050565b610c1d338261314c565b610c395760405162461bcd60e51b81526004016109c490615824565b610afa83838361323f565b600081815261012f60205260408120600381015415610c8957610c818160030154610c7b61013754610c7587610aff565b906133db565b906133e7565b9150506108b8565b60009150506108b8565b50919050565b600082815260976020526040902060010154610cb681335b6133f3565b610afa8383613457565b6001600160a01b0381163314610d305760405162461bcd60e51b815260206004820152602f60248201527f416363657373436f6e74726f6c3a2063616e206f6e6c792072656e6f756e636560448201526e103937b632b9903337b91039b2b63360891b60648201526084016109c4565b610d3a82826134dd565b5050565b610131602052600090815260409020805460018201546002830154600384015460048501805494956001600160a01b039094169492939192610d7f90615b23565b80601f0160208091040260200160405190810160405280929190818152602001828054610dab90615b23565b8015610df85780601f10610dcd57610100808354040283529160200191610df8565b820191906000526020600020905b815481529060010190602001808311610ddb57829003601f168201915b505050505090806005018054610e0d90615b23565b80601f0160208091040260200160405190810160405280929190818152602001828054610e3990615b23565b8015610e865780601f10610e5b57610100808354040283529160200191610e86565b820191906000526020600020905b815481529060010190602001808311610e6957829003601f168201915b5050505050908060060154905087565b600081815261013060209081526040808320805482518185028101850190935280835260609485949293909290918491830182828015610ef557602002820191906000526020600020905b815481526020019060010190808311610ee1575b50505050509050600081516001600160401b03811115610f2557634e487b7160e01b600052604160045260246000fd5b604051908082528060200260200182016040528015610f4e578160200160208202803683370190505b50905060005b8251811015610fd757836002016000848381518110610f8357634e487b7160e01b600052603260045260246000fd5b6020026020010151815260200190815260200160002054828281518110610fba57634e487b7160e01b600052603260045260246000fd5b602090810291909101015280610fcf81615b58565b915050610f54565b50909350915050915091565b600084815261012f602052604090206002015484906001600160a01b03161561101e5760405162461bcd60e51b81526004016109c4906158c0565b61102785613544565b61103185336135be565b838514156110a75760405162461bcd60e51b815260206004820152603f60248201527f434c4d383a3a73656e6450726f64756374733a20736f75726365547261636b6560448201527f7249642063616e206e6f7420657175616c2074686520747261636b657249640060648201526084016109c4565b6000838152610135602090815260408083208784528252808320338452909152902054821061115c5760405162461bcd60e51b815260206004820152605560248201527f434c4d383a3a747261636b50726f647563743a2070726f64756374416d6f756e60448201527f7420657863656564732070726f647563747320617661696c61626c6520666f726064820152741b481d1a19481cdbdd5c98d9551c9858dad95c9259605a1b608482015260a4016109c4565b60008381526101356020908152604080832087845282528083203384529091529020546111899083613646565b60008481526101356020908152604080832088845282528083203384529091529020556111b885858585613652565b5050505050565b610afa83838360405180602001604052806000815250612458565b600054610100900460ff166111f55760005460ff16156111f9565b303b155b61125c5760405162461bcd60e51b815260206004820152602e60248201527f496e697469616c697a61626c653a20636f6e747261637420697320616c72656160448201526d191e481a5b9a5d1a585b1a5e995960921b60648201526084016109c4565b600054610100900460ff1615801561127e576000805461ffff19166101011790555b61012d80546001600160a01b0385166001600160a01b0319918216811790925561012e80549091169091179055620f42406101375560408051808201825260128152712722aa1021b0b93137b7102a3930b1b5b2b960711b602080830191909152825180840190935260048352631391551560e21b90830152611300916139bd565b61130b600083613142565b611323600080516020615bee83398151915283613142565b8015610afa576000805461ff0019169055505050565b6000818152610130602090815260409182902080548351818402810184019094528084526060939283018282801561139057602002820191906000526020600020905b81548152602001906001019080831161137c575b50505050509050919050565b60606000606060008061013160008781526020019081526020016000206040518060e0016040529081600082015481526020016001820160009054906101000a90046001600160a01b03166001600160a01b03166001600160a01b03168152602001600282015481526020016003820154815260200160048201805461142190615b23565b80601f016020809104026020016040519081016040528092919081815260200182805461144d90615b23565b801561149a5780601f1061146f5761010080835404028352916020019161149a565b820191906000526020600020905b81548152906001019060200180831161147d57829003601f168201915b505050505081526020016005820180546114b390615b23565b80601f01602080910402602001604051908101604052809291908181526020018280546114df90615b23565b801561152c5780601f106115015761010080835404028352916020019161152c565b820191906000526020600020905b81548152906001019060200180831161150f57829003601f168201915b5050505050815260200160068201548152505090506115638160400151610c7b8360c00151610137546133db90919063ffffffff16565b608082015160a090920151919790965090945092505050565b80821015610d3a5760405162461bcd60e51b815260206004820152605860248201527f434c4d383a3a5f766572696679546f74616c547261636b65643a20746f74616c60448201527f20616d6f756e7420747261636b65642065786365656473206f7574707574206f60648201527f6620746f6b656e49642066726f6d20747261636b657249640000000000000000608482015260a4016109c4565b6000818152606760205260408120546001600160a01b0316806108b55760405162461bcd60e51b815260206004820152602960248201527f4552433732313a206f776e657220717565727920666f72206e6f6e657869737460448201526832b73a103a37b5b2b760b91b60648201526084016109c4565b600086815261012f602052604090206002015486906001600160a01b0316156116ca5760405162461bcd60e51b81526004016109c4906158c0565b866116d481613544565b600088815261012f602052604090206116f18189898989896139ee565b505050505050505050565b600081815261013160209081526040808320815160e0810183528154815260018201546001600160a01b0316938101939093526002810154918301919091526003810154606083015260048101805484938493849391929091608084019161176390615b23565b80601f016020809104026020016040519081016040528092919081815260200182805461178f90615b23565b80156117dc5780601f106117b1576101008083540402835291602001916117dc565b820191906000526020600020905b8154815290600101906020018083116117bf57829003601f168201915b505050505081526020016005820180546117f590615b23565b80601f016020809104026020016040519081016040528092919081815260200182805461182190615b23565b801561186e5780601f106118435761010080835404028352916020019161186e565b820191906000526020600020905b81548152906001019060200180831161185157829003601f168201915b505050918352505060069190910154602090910152805160408201516060909201519097919650945092505050565b60006001600160a01b0382166119085760405162461bcd60e51b815260206004820152602a60248201527f4552433732313a2062616c616e636520717565727920666f7220746865207a65604482015269726f206164647265737360b01b60648201526084016109c4565b506001600160a01b031660009081526068602052604090205490565b60006119306101325490565b905090565b600084815261012f602052604090206002015484906001600160a01b0316156119705760405162461bcd60e51b81526004016109c4906158c0565b61197985613544565b61198385336135be565b83851415611a0d5760405162461bcd60e51b815260206004820152604b60248201527f434c4d383a3a7472616e7366657250726f64756374546f547261636b65723a2060448201527f736f75726365547261636b657249642063616e206e6f7420657175616c20746860648201526a19481d1c9858dad95c925960aa1b608482015260a4016109c4565b60008381526101316020908152604080832061013583528184208885528352818420338552909252909120548310611add5760405162461bcd60e51b815260206004820152606160248201527f434c4d383a3a7472616e7366657250726f64756374546f547261636b65723a2060448201527f70726f64756374416d6f756e7420657863656564732070726f6475637473206160648201527f7661696c61626c6520666f726d2074686520736f75726365547261636b6572496084820152601960fa1b60a482015260c4016109c4565b6000848152610135602090815260408083208884528252808320338452909152902054611b0a9084613646565b60008581526101356020908152604080832089845282528083203384529091529020556002810154611b3c9084613f33565b60028201556003810154611b509084613f33565b600380830191909155600087815261013060209081526040808320840180546001810182559084528284200188905589835261012f90915290200154611b969084613f33565b600096875261012f6020526040909620600301959095555050505050565b611c156040518061012001604052806000815260200160006001600160a01b0316815260200160006001600160a01b031681526020016000815260200160008152602001600081526020016000815260200160608152602001606081525090565b600082815261012f602090815260408083206101308352818420600381018054845181870281018701909552808552606095939492938793929190830182828015611c7f57602002820191906000526020600020905b815481526020019060010190808311611c6b575b505050505090506000611c9183612eff565b60408051610120810182528654815260018701546001600160a01b039081166020830152600288015416918101919091526003860154606082015260048601546080820152600586015460a0820152600686015460c08201526007860180549293508692849286929091859160e0840191611d0b90615b23565b80601f0160208091040260200160405190810160405280929190818152602001828054611d3790615b23565b8015611d845780601f10611d5957610100808354040283529160200191611d84565b820191906000526020600020905b815481529060010190602001808311611d6757829003601f168201915b50505050508152602001600882018054611d9d90615b23565b80601f0160208091040260200160405190810160405280929190818152602001828054611dc990615b23565b8015611e165780601f10611deb57610100808354040283529160200191611e16565b820191906000526020600020905b815481529060010190602001808311611df957829003601f168201915b5050505050815250509250965096509650505050509193909250565b60009182526097602090815260408084206001600160a01b0393909316845291905290205460ff1690565b6060606680546108cc90615b23565b600080611e7888613f3f565b9050611e888188888888886139ee565b611e96888260000154613f9b565b54979650505050505050565b610d3a3383836140de565b60006119306101335490565b60003085858585604051602001611ed4959493929190615577565b604051602081830303815290604052805190602001209050949350505050565b33611f0d600080516020615bee83398151915282611e32565b611f785760405162461bcd60e51b815260206004820152603660248201527f434c4d383a3a72656769737465726564547261636b65723a20746865206164646044820152751c995cdcc81a5cc81b9bdd081c9959da5cdd195c995960521b60648201526084016109c4565b61012d546040516349b9055760e01b81526001600160a01b038581166004830152909116906349b905579060240160206040518083038186803b158015611fbe57600080fd5b505afa158015611fd2573d6000803e3d6000fd5b505050506040513d601f19601f82011682018060405250810190611ff691906151c8565b80611fff575081155b61207f5760405162461bcd60e51b8152602060048201526044602482018190527f434c4d383a3a617070726f766556657269666965723a20616464726573732069908201527f73206e6f742061207265676973746572656420656d697373696f6e732061756460648201526334ba37b960e11b608482015260a4016109c4565b6001600160a01b0383163314156120f45760405162461bcd60e51b815260206004820152603360248201527f434c4d383a3a617070726f766556657269666965723a2061756469746f72206360448201527230b73737ba1031329036b9b39739b2b73232b960691b60648201526084016109c4565b6001600160a01b0383166000908152610136602090815260408083203384529091529020805460ff191683158015919091179091556121685760405133906001600160a01b038516907ff31635902a304a612155085cc8916b9ab86fc115155b10b33980f6cb8165c54e90600090a3610afa565b60405133906001600160a01b038516907f490861baee43b8ebd28f134f99c0aa7848888c4bde402256ad4cf455d147aed690600090a3505050565b600081815261012f602052604090206002015481906001600160a01b0316156121de5760405162461bcd60e51b81526004016109c4906158c0565b600082815261012f60205260409020600101548290612205906001600160a01b03166141ad565b5050600090815261012f6020526040902060020180546001600160a01b03191633179055565b81612235816142ed565b8261224081336135be565b61012d54604051633e612c8d60e21b81526001600160a01b0380861660048301528592169063f984b2349060240160206040518083038186803b15801561228657600080fd5b505afa15801561229a573d6000803e3d6000fd5b505050506040513d601f19601f820116820180604052508101906122be91906151c8565b6123305760405162461bcd60e51b815260206004820152603760248201527f434c4d383a3a72656769737465726564496e6475737472793a2074686520616460448201527f6472657373206973206e6f74207265676973746572656400000000000000000060648201526084016109c4565b600087815261013160205260409020600381015487106123d35760405162461bcd60e51b815260206004820152605260248201527f434c4d383a3a7472616e7366657250726f647563743a2070726f64756374416d60448201527f6f756e7420657863656564732070726f647563747320617661696c61626c65206064820152711a5b881cdbdd5c98d9551c9858dad95c925960721b608482015260a4016109c4565b60038101546123e29088613646565b600382015560008881526101356020908152604080832089845282528083206001600160a01b038916845290915290205461241d9088613f33565b600098895261013560209081526040808b20988b52978152878a206001600160a01b039097168a529590955250505091909320929092555050565b612462338361314c565b61247e5760405162461bcd60e51b81526004016109c490615824565b61248a84848484614368565b50505050565b60008181526101306020908152604091829020600501805483518184028101840190945280845260609392830182828015611390576020028201919060005260206000209081548152602001906001019080831161137c5750505050509050919050565b6000818152606760205260409020546060906001600160a01b03166125735760405162461bcd60e51b815260206004820152602f60248201527f4552433732314d657461646174613a2055524920717565727920666f72206e6f60448201526e3732bc34b9ba32b73a103a37b5b2b760891b60648201526084016109c4565b600061258a60408051602081019091526000815290565b905060008151116125aa57604051806020016040528060008152506125d5565b806125b48461439b565b6040516020016125c59291906155c4565b6040516020818303038152906040525b9392505050565b600086815261012f602052604090206002015486906001600160a01b0316156126175760405162461bcd60e51b81526004016109c4906158c0565b8661262181613544565b600088815261012f60205260409020600101548890612648906001600160a01b03166141ad565b600089815261012f6020526040902088518851146126e25760405162461bcd60e51b815260206004820152604b60248201527f434c4d383a3a70726f64756374735570646174653a2070726f64756374416d6f60448201527f756e747320616e642070726f6475637449647320617265206e6f74207468652060648201526a0e6c2daca40d8cadccee8d60ab1b608482015260a4016109c4565b885187511461276b5760405162461bcd60e51b815260206004820152604960248201527f434c4d383a3a70726f64756374735570646174653a2070726f647563744e616d60448201527f657320616e642070726f6475637449647320617265206e6f74207468652073616064820152680daca40d8cadccee8d60bb1b608482015260a4016109c4565b885185511461278c5760405162461bcd60e51b81526004016109c49061575d565b88518651146127ad5760405162461bcd60e51b81526004016109c49061575d565b60008060005b8b51811015612bad5760008c82815181106127de57634e487b7160e01b600052603260045260246000fd5b60200260200101511115612988578b818151811061280c57634e487b7160e01b600052603260045260246000fd5b602002602001015192508c610131600085815260200190815260200160002060000154146128a4576040805162461bcd60e51b81526020600482015260248101919091527f434c4d383a3a70726f64756374735570646174653a2070726f6475637449647360448201527f5b695d20646f6573206e6f742062656c6f6e6720746f20747261636b6572496460648201526084016109c4565b6128e28b82815181106128c757634e487b7160e01b600052603260045260246000fd5b6020026020010151856003015461364690919063ffffffff16565b6003850155600083815261013160205260409020600101546001600160a01b031633146129835760405162461bcd60e51b815260206004820152604360248201527f434c4d383a3a70726f64756374735570646174653a206d73672e73656e64657260448201527f206973206e6f74207468652061756469746f72206f6620746869732070726f646064820152621d58dd60ea1b608482015260a4016109c4565b612a34565b61299761013380546001019055565b6101335492508c61013160008581526020019081526020016000206000018190555033610131600085815260200190815260200160002060010160006101000a8154816001600160a01b0302191690836001600160a01b0316021790555061013060008e81526020019081526020016000206003018390806001815401808255809150506001900390600052602060002001600090919091909150555b6000838152610131602052604090208a519092508a9082908110612a6857634e487b7160e01b600052603260045260246000fd5b6020026020010151826004019080519060200190612a87929190614cd8565b50878181518110612aa857634e487b7160e01b600052603260045260246000fd5b60200260200101518260060181905550888181518110612ad857634e487b7160e01b600052603260045260246000fd5b6020026020010151826005019080519060200190612af7929190614cd8565b508a8181518110612b1857634e487b7160e01b600052603260045260246000fd5b602002602001015182600201819055508a8181518110612b4857634e487b7160e01b600052603260045260246000fd5b60200260200101518260030181905550612b968b8281518110612b7b57634e487b7160e01b600052603260045260246000fd5b60200260200101518560030154613f3390919063ffffffff16565b600385015580612ba581615b58565b9150506127b3565b5082546040517fcae18be6040b3a94c418e2e09d130e25f25a0069beec7edc902c803cf7f61ebf90612be2908e908e906156b8565b60405180910390a2505050505050505050505050565b600085612c04816142ed565b86612c0e81613544565b600087815261013160205260408120600101546001600160a01b031690612c8d612c3a8b8b8b8b611eb9565b6040517f19457468657265756d205369676e6564204d6573736167653a0a3332000000006020820152603c8101829052600090605c01604051602081830303815290604052805190602001209050919050565b90506001600160a01b038216612ca382886144b5565b6001600160a01b0316149a9950505050505050505050565b600082815260976020526040902060010154612cd78133610cb1565b610afa83836134dd565b600081815261012f60205260409020600101548190612d08906001600160a01b03166141ad565b50600090815261012f6020526040902060020180546001600160a01b0319169055565b600081815261013060209081526040808320805482518185028101850190935280835260609485949293909290918491830182828015612d8a57602002820191906000526020600020905b815481526020019060010190808311612d76575b50505050509050600081516001600160401b03811115612dba57634e487b7160e01b600052604160045260246000fd5b604051908082528060200260200182016040528015612de3578160200160208202803683370190505b50905060005b8251811015610fd757836002016000848381518110612e1857634e487b7160e01b600052603260045260246000fd5b6020026020010151815260200190815260200160002054828281518110612e4f57634e487b7160e01b600052603260045260246000fd5b602090810291909101015280612e6481615b58565b915050612de9565b60006001600160e01b03198216630271189760e51b14806108b557506108b5826144d9565b600081815260696020526040902080546001600160a01b0319166001600160a01b0384169081179091558190612ec682611618565b6001600160a01b03167f8c5be1e5ebec7d5bd14f71427d1e84f3dd0314c0f7b2291e5b200ac8c7c3b92560405160405180910390a45050565b60008181805b8254811015612f7457612f60856002016000858481548110612f3757634e487b7160e01b600052603260045260246000fd5b906000526020600020015481526020019081526020016000205483613f3390919063ffffffff16565b915080612f6c81615b58565b915050612f05565b506060600085600501805480602002602001604051908101604052809291908181526020018280548015612fc757602002820191906000526020600020905b815481526020019060010190808311612fb3575b50505050509050600080600090505b82518110156131365787600701600084838151811061300557634e487b7160e01b600052603260045260246000fd5b6020026020010151815260200190815260200160002091508160000180548060200260200160405190810160405280929190818152602001828054801561306b57602002820191906000526020600020905b815481526020019060010190808311613057575b50505050509350600080600090505b8551811015613121578360020160008783815181106130a957634e487b7160e01b600052603260045260246000fd5b6020026020010151815260200190815260200160002054915061310d61310661013754610c7b6130ff8988815181106130f257634e487b7160e01b600052603260045260246000fd5b6020026020010151610c44565b86906133db565b8890613f33565b96508061311981615b58565b91505061307a565b5050808061312e90615b58565b915050612fd6565b50929695505050505050565b610d3a8282613457565b6000818152606760205260408120546001600160a01b03166131c55760405162461bcd60e51b815260206004820152602c60248201527f4552433732313a206f70657261746f7220717565727920666f72206e6f6e657860448201526b34b9ba32b73a103a37b5b2b760a11b60648201526084016109c4565b60006131d083611618565b9050806001600160a01b0316846001600160a01b0316148061320b5750836001600160a01b03166132008461094f565b6001600160a01b0316145b80610b1857506001600160a01b038082166000908152606a602090815260408083209388168352929052205460ff16610b18565b826001600160a01b031661325282611618565b6001600160a01b0316146132b65760405162461bcd60e51b815260206004820152602560248201527f4552433732313a207472616e736665722066726f6d20696e636f72726563742060448201526437bbb732b960d91b60648201526084016109c4565b6001600160a01b0382166133185760405162461bcd60e51b8152602060048201526024808201527f4552433732313a207472616e7366657220746f20746865207a65726f206164646044820152637265737360e01b60648201526084016109c4565b613323600082612e91565b6001600160a01b038316600090815260686020526040812080546001929061334c908490615ac9565b90915550506001600160a01b038216600090815260686020526040812080546001929061337a908490615a7e565b909155505060008181526067602052604080822080546001600160a01b0319166001600160a01b0386811691821790925591518493918716917fddf252ad1be2c89b69c2b068fc378daa952ba7f163c4a11628f55a4df523b3ef91a4610afa565b60006125d58284615aaa565b60006125d58284615a96565b6133fd8282611e32565b610d3a57613415816001600160a01b031660146144fe565b6134208360206144fe565b6040516020016134319291906155f3565b60408051601f198184030181529082905262461bcd60e51b82526109c49160040161571f565b6134618282611e32565b610d3a5760008281526097602090815260408083206001600160a01b03851684529091529020805460ff191660011790556134993390565b6001600160a01b0316816001600160a01b0316837f2f8788117e7eff1d82e926ec794901d17c78024a50270940304540a733656f0d60405160405180910390a45050565b6134e78282611e32565b15610d3a5760008281526097602090815260408083206001600160a01b0385168085529252808320805460ff1916905551339285917ff6391f5c32d9c69d2a47ea670b442974b53935d1edc7fd64eb21e047a839171b9190a45050565b8061354f6101325490565b10156135bb5760405162461bcd60e51b815260206004820152603560248201527f434c4d383a3a5f747261636b65724578697374733a20747261636b657220746f6044820152741ad95b88125108191bd95cc81b9bdd08195e1a5cdd605a1b60648201526084016109c4565b50565b806001600160a01b03166135d183611618565b6001600160a01b031614610d3a5760405162461bcd60e51b815260206004820152603660248201527f434c4d383a3a5f69734f776e65723a206d73672e73656e64657220646f6573206044820152751b9bdd081bdddb881d1a1a5cc81d1c9858dad95c925960521b60648201526084016109c4565b60006125d58284615ac9565b600084815261013060209081526040808320868452600781018352818420868552600281019093529220546136879084613f33565b60008581526002830160208181526040808420859055898452600687018252808420548985526001870183529320549190529091156136f557806136f0578254600181810185556000858152602080822090930189905585548982529186019092526040909120555b613829565b8015613817578254600110156137cb578254839061371590600190615ac9565b8154811061373357634e487b7160e01b600052603260045260246000fd5b6000918252602090912001548361374b600184615ac9565b8154811061376957634e487b7160e01b600052603260045260246000fd5b9060005260206000200181905550808360010160008560000160018561378f9190615ac9565b815481106137ad57634e487b7160e01b600052603260045260246000fd5b90600052602060002001548152602001908152602001600020819055505b600086815260018085016020526040822091909155835484916137ed91615ac9565b8154811061380b57634e487b7160e01b600052603260045260246000fd5b60009182526020822001555b60008681526002840160205260408120555b825415613869578161386457600584018054600181018255600082815260208082209092018a90559154898352600687019091526040909120555b6139b3565b8115613995576005840154600110156139485760058401805461388e90600190615ac9565b815481106138ac57634e487b7160e01b600052603260045260246000fd5b9060005260206000200154846005016001846138c89190615ac9565b815481106138e657634e487b7160e01b600052603260045260246000fd5b9060005260206000200181905550818460060160008660050160018661390c9190615ac9565b8154811061392a57634e487b7160e01b600052603260045260246000fd5b90600052602060002001548152602001908152602001600020819055505b600087815260068501602052604081205560058401805461396b90600190615ac9565b8154811061398957634e487b7160e01b600052603260045260246000fd5b60009182526020822001555b60008781526007850160205260408120906139b08282614d5c565b50505b5050505050505050565b600054610100900460ff166139e45760405162461bcd60e51b81526004016109c490615875565b610d3a82826146df565b6001860154613a05906001600160a01b03166141ad565b8215613a1357600486018390555b8115613a2157600586018290555b805115613a3f578051613a3d9060088801906020840190614cd8565b505b8451845114613ab65760405162461bcd60e51b815260206004820152603f60248201527f434c4d383a3a5f747261636b3a20746f6b656e416d6f756e747320616e64207460448201527f6f6b656e49647320617265206e6f74207468652073616d65206c656e6774680060648201526084016109c4565b8554600090815261013060205260408120905b8651811015613ee65761012d5487516000916001600160a01b031690637f157c9b9030908b9086908110613b0d57634e487b7160e01b600052603260045260246000fd5b60200260200101516040518363ffffffff1660e01b8152600401613b469291906001600160a01b03929092168252602082015260400190565b604080518083038186803b158015613b5d57600080fd5b505afa158015613b71573d6000803e3d6000fd5b505050506040513d601f19601f82011682018060405250810190613b959190615372565b509050868281518110613bb857634e487b7160e01b600052603260045260246000fd5b6020026020010151613c0e61013460008b8681518110613be857634e487b7160e01b600052603260045260246000fd5b60200260200101518152602001908152602001600020548361364690919063ffffffff16565b101580613c26575061012e546001600160a01b031633145b613cbe5760405162461bcd60e51b815260206004820152605760248201527f434c4d383a3a5f747261636b3a20746f6b656e416d6f756e74735b695d20697360448201527f2067726561746572207468616e207768617420697320617661696c61626c652060648201527f746f2074686520747261636b657220636f6e7472616374000000000000000000608482015260a4016109c4565b613d33878381518110613ce157634e487b7160e01b600052603260045260246000fd5b602002602001015161013460008b8681518110613d0e57634e487b7160e01b600052603260045260246000fd5b6020026020010151815260200190815260200160002054613f3390919063ffffffff16565b61013460008a8581518110613d5857634e487b7160e01b600052603260045260246000fd5b602002602001015181526020019081526020016000208190555060008360010160008a8581518110613d9a57634e487b7160e01b600052603260045260246000fd5b60200260200101518152602001908152602001600020549050600061012d60009054906101000a90046001600160a01b03166001600160a01b031663127d5ad08b8681518110613dfa57634e487b7160e01b600052603260045260246000fd5b60200260200101516040518263ffffffff1660e01b8152600401613e2091815260200190565b60206040518083038186803b158015613e3857600080fd5b505afa158015613e4c573d6000803e3d6000fd5b505050506040513d601f19601f82011682018060405250810190613e7091906154f0565b9050613ed0858b8681518110613e9657634e487b7160e01b600052603260045260246000fd5b60200260200101518b8781518110613ebe57634e487b7160e01b600052603260045260246000fd5b6020026020010151858560ff1661472d565b5050508080613ede90615b58565b915050613ac9565b5086546040513391907ff739febd63941a495aedbbe2904daf1f12f653420da0213529a1f3eb6d61c1c490613f22908a908a908a908a906156e6565b60405180910390a350505050505050565b60006125d58284615a7e565b6000613f5061013280546001019055565b6000613f5c6101325490565b600081815261012f602052604090209081556001810180546001600160a01b0386166001600160a01b0319909116179055426006820155915050919050565b6001600160a01b038216613ff15760405162461bcd60e51b815260206004820181905260248201527f4552433732313a206d696e7420746f20746865207a65726f206164647265737360448201526064016109c4565b6000818152606760205260409020546001600160a01b0316156140565760405162461bcd60e51b815260206004820152601c60248201527f4552433732313a20746f6b656e20616c7265616479206d696e7465640000000060448201526064016109c4565b6001600160a01b038216600090815260686020526040812080546001929061407f908490615a7e565b909155505060008181526067602052604080822080546001600160a01b0319166001600160a01b03861690811790915590518392907fddf252ad1be2c89b69c2b068fc378daa952ba7f163c4a11628f55a4df523b3ef908290a4610d3a565b816001600160a01b0316836001600160a01b031614156141405760405162461bcd60e51b815260206004820152601960248201527f4552433732313a20617070726f766520746f2063616c6c65720000000000000060448201526064016109c4565b6001600160a01b038381166000818152606a6020908152604080832094871680845294825291829020805460ff191686151590811790915591519182527f17307eab39ab6107e8899845ad3d59bd9653f200f220920489ca2b5937696c31910160405180910390a3505050565b336000908152610136602090815260408083206001600160a01b038516845290915290205460ff168061426d575061012d546040516349b9055760e01b81523360048201526001600160a01b03909116906349b905579060240160206040518083038186803b15801561421f57600080fd5b505afa158015614233573d6000803e3d6000fd5b505050506040513d601f19601f8201168201806040525081019061425791906151c8565b8061426d575061012e546001600160a01b031633145b6135bb5760405162461bcd60e51b815260206004820152604560248201527f434c4d383a3a5f697341756469746f723a205f747261636b6565206973206e6f60448201527f7420616e6420617070726f7665642061756469746f72206f662074686520747260648201526461636b656560d81b608482015260a4016109c4565b600081815261012f60205260409020600201546001600160a01b03166135bb5760405162461bcd60e51b815260206004820152602a60248201527f434c4d383a3a5f6973417564697465643a20747261636b65724964206973206e6044820152691bdd08185d591a5d195960b21b60648201526084016109c4565b61437384848461323f565b61437f848484846147e5565b61248a5760405162461bcd60e51b81526004016109c4906157d2565b6060816143c057506040805180820190915260018152600360fc1b60208201526108b8565b8160005b81156143ea57806143d481615b58565b91506143e39050600a83615a96565b91506143c4565b6000816001600160401b0381111561441257634e487b7160e01b600052604160045260246000fd5b6040519080825280601f01601f19166020018201604052801561443c576020820181803683370190505b5090505b8415610b1857614451600183615ac9565b915061445e600a86615b73565b614469906030615a7e565b60f81b81838151811061448c57634e487b7160e01b600052603260045260246000fd5b60200101906001600160f81b031916908160001a9053506144ae600a86615a96565b9450614440565b60008060006144c485856148ef565b915091506144d18161495f565b509392505050565b60006001600160e01b03198216637965db0b60e01b14806108b557506108b582614b62565b6060600061450d836002615aaa565b614518906002615a7e565b6001600160401b0381111561453d57634e487b7160e01b600052604160045260246000fd5b6040519080825280601f01601f191660200182016040528015614567576020820181803683370190505b509050600360fc1b8160008151811061459057634e487b7160e01b600052603260045260246000fd5b60200101906001600160f81b031916908160001a905350600f60fb1b816001815181106145cd57634e487b7160e01b600052603260045260246000fd5b60200101906001600160f81b031916908160001a90535060006145f1846002615aaa565b6145fc906001615a7e565b90505b6001811115614690576f181899199a1a9b1b9c1cb0b131b232b360811b85600f166010811061463e57634e487b7160e01b600052603260045260246000fd5b1a60f81b82828151811061466257634e487b7160e01b600052603260045260246000fd5b60200101906001600160f81b031916908160001a90535060049490941c9361468981615b0c565b90506145ff565b5083156125d55760405162461bcd60e51b815260206004820181905260248201527f537472696e67733a20686578206c656e67746820696e73756666696369656e7460448201526064016109c4565b600054610100900460ff166147065760405162461bcd60e51b81526004016109c490615875565b8151614719906065906020850190614cd8565b508051610afa906066906020840190614cd8565b80600414156147675760008481526002860160205260409020546147519084613f33565b600085815260028701602052604090205561479d565b806002141561479d57600084815260028601602052604090205461478b9084613646565b60008581526002870160205260409020555b6000848152600286016020526040902054156111b857816111b85750508254600180820185556000858152602080822090930185905585549481529401905250604090912055565b60006001600160a01b0384163b156148e757604051630a85bd0160e11b81526001600160a01b0385169063150b7a0290614829903390899088908890600401615668565b602060405180830381600087803b15801561484357600080fd5b505af1925050508015614873575060408051601f3d908101601f191682019092526148709181019061523a565b60015b6148cd573d8080156148a1576040519150601f19603f3d011682016040523d82523d6000602084013e6148a6565b606091505b5080516148c55760405162461bcd60e51b81526004016109c4906157d2565b805181602001fd5b6001600160e01b031916630a85bd0160e11b149050610b18565b506001610b18565b6000808251604114156149265760208301516040840151606085015160001a61491a87828585614bb2565b94509450505050614958565b8251604014156149505760208301516040840151614945868383614c9f565b935093505050614958565b506000905060025b9250929050565b600081600481111561498157634e487b7160e01b600052602160045260246000fd5b141561498c576135bb565b60018160048111156149ae57634e487b7160e01b600052602160045260246000fd5b14156149fc5760405162461bcd60e51b815260206004820152601860248201527f45434453413a20696e76616c6964207369676e6174757265000000000000000060448201526064016109c4565b6002816004811115614a1e57634e487b7160e01b600052602160045260246000fd5b1415614a6c5760405162461bcd60e51b815260206004820152601f60248201527f45434453413a20696e76616c6964207369676e6174757265206c656e6774680060448201526064016109c4565b6003816004811115614a8e57634e487b7160e01b600052602160045260246000fd5b1415614ae75760405162461bcd60e51b815260206004820152602260248201527f45434453413a20696e76616c6964207369676e6174757265202773272076616c604482015261756560f01b60648201526084016109c4565b6004816004811115614b0957634e487b7160e01b600052602160045260246000fd5b14156135bb5760405162461bcd60e51b815260206004820152602260248201527f45434453413a20696e76616c6964207369676e6174757265202776272076616c604482015261756560f01b60648201526084016109c4565b60006001600160e01b031982166380ac58cd60e01b1480614b9357506001600160e01b03198216635b5e139f60e01b145b806108b557506301ffc9a760e01b6001600160e01b03198316146108b5565b6000807f7fffffffffffffffffffffffffffffff5d576e7357a4501ddfe92f46681b20a0831115614be95750600090506003614c96565b8460ff16601b14158015614c0157508460ff16601c14155b15614c125750600090506004614c96565b6040805160008082526020820180845289905260ff881692820192909252606081018690526080810185905260019060a0016020604051602081039080840390855afa158015614c66573d6000803e3d6000fd5b5050604051601f1901519150506001600160a01b038116614c8f57600060019250925050614c96565b9150600090505b94509492505050565b6000806001600160ff1b03831681614cbc60ff86901c601b615a7e565b9050614cca87828885614bb2565b935093505050935093915050565b828054614ce490615b23565b90600052602060002090601f016020900481019282614d065760008555614d4c565b82601f10614d1f57805160ff1916838001178555614d4c565b82800160010185558215614d4c579182015b82811115614d4c578251825591602001919060010190614d31565b50614d58929150614d76565b5090565b50805460008255906000526020600020908101906135bb91905b5b80821115614d585760008155600101614d77565b80356001600160a01b03811681146108b857600080fd5b600082601f830112614db2578081fd5b81356020614dc7614dc283615a5b565b615a2b565b82815281810190858301855b85811015614dfc57614dea898684358b0101614e66565b84529284019290840190600101614dd3565b5090979650505050505050565b600082601f830112614e19578081fd5b81356020614e29614dc283615a5b565b80838252828201915082860187848660051b8901011115614e48578586fd5b855b85811015614dfc57813584529284019290840190600101614e4a565b600082601f830112614e76578081fd5b81356001600160401b03811115614e8f57614e8f615bb3565b614ea2601f8201601f1916602001615a2b565b818152846020838601011115614eb6578283fd5b816020850160208301379081016020019190915292915050565b600060208284031215614ee1578081fd5b6125d582614d8b565b60008060408385031215614efc578081fd5b614f0583614d8b565b9150614f1360208401614d8b565b90509250929050565b600080600080600060a08688031215614f33578081fd5b614f3c86614d8b565b9450614f4a60208701614d8b565b935060408601356001600160401b0380821115614f65578283fd5b614f7189838a01614e09565b94506060880135915080821115614f86578283fd5b614f9289838a01614e09565b93506080880135915080821115614fa7578283fd5b50614fb488828901614e66565b9150509295509295909350565b600080600060608486031215614fd5578283fd5b614fde84614d8b565b9250614fec60208501614d8b565b9150604084013590509250925092565b60008060008060808587031215615011578384fd5b61501a85614d8b565b935061502860208601614d8b565b92506040850135915060608501356001600160401b03811115615049578182fd5b61505587828801614e66565b91505092959194509250565b600080600080600060a08688031215615078578081fd5b61508186614d8b565b945061508f60208701614d8b565b9350604086013592506060860135915060808601356001600160401b038111156150b7578182fd5b614fb488828901614e66565b60008060008060008060c087890312156150db578384fd5b6150e487614d8b565b955060208701356001600160401b03808211156150ff578586fd5b61510b8a838b01614e09565b96506040890135915080821115615120578586fd5b61512c8a838b01614e09565b9550606089013594506080890135935060a089013591508082111561514f578283fd5b5061515c89828a01614e66565b9150509295509295509295565b6000806040838503121561517b578182fd5b61518483614d8b565b9150602083013561519481615bc9565b809150509250929050565b600080604083850312156151b1578182fd5b6151ba83614d8b565b946020939093013593505050565b6000602082840312156151d9578081fd5b81516125d581615bc9565b6000602082840312156151f5578081fd5b5035919050565b6000806040838503121561520e578182fd5b82359150614f1360208401614d8b565b60006020828403121561522f578081fd5b81356125d581615bd7565b60006020828403121561524b578081fd5b81516125d581615bd7565b60008060008060008060c0878903121561526e578384fd5b8635955060208701356001600160401b038082111561528b578586fd5b6152978a838b01614e09565b965060408901359150808211156152ac578586fd5b6152b88a838b01614e09565b955060608901359150808211156152cd578384fd5b6152d98a838b01614da2565b945060808901359150808211156152ee578384fd5b6152fa8a838b01614da2565b935060a089013591508082111561530f578283fd5b5061515c89828a01614e09565b60008060008060008060c08789031215615334578384fd5b8635955060208701356001600160401b03808211156150ff578586fd5b60008060408385031215615363578182fd5b50508035926020909101359150565b60008060408385031215615384578182fd5b505080516020909101519092909150565b6000806000606084860312156153a9578081fd5b83359250602084013591506153c060408501614d8b565b90509250925092565b600080600080608085870312156153de578182fd5b843593506020850135925060408501356001600160401b03811115615401578283fd5b61540d87828801614e66565b949793965093946060013593505050565b600080600080600060a08688031215615435578283fd5b853594506020860135935060408601356001600160401b0380821115615459578485fd5b61546589838a01614e66565b9450606088013593506080880135915080821115614fa7578283fd5b60008060008060808587031215615496578182fd5b8435935060208501359250604085013591506154b460608601614d8b565b905092959194509250565b600080600080608085870312156154d4578182fd5b5050823594602084013594506040840135936060013592509050565b600060208284031215615501578081fd5b815160ff811681146125d5578182fd5b6000815180845260208085019450808401835b8381101561554057815187529582019590820190600101615524565b509495945050505050565b60008151808452615563816020860160208601615ae0565b601f01601f19169290920160200192915050565b60006bffffffffffffffffffffffff198760601b16825285601483015284603483015283516155ad816054850160208801615ae0565b605492019182019290925260740195945050505050565b600083516155d6818460208801615ae0565b8351908301906155ea818360208801615ae0565b01949350505050565b60007f416363657373436f6e74726f6c3a206163636f756e74200000000000000000008252835161562b816017850160208801615ae0565b7001034b99036b4b9b9b4b733903937b6329607d1b601791840191820152835161565c816028840160208801615ae0565b01602801949350505050565b6001600160a01b038581168252841660208201526040810183905260806060820181905260009061569b9083018461554b565b9695505050505050565b6000602082526125d56020830184615511565b6000604082526156cb6040830185615511565b82810360208401526156dd8185615511565b95945050505050565b6000608082526156f96080830187615511565b828103602084015261570b8187615511565b604084019590955250506060015292915050565b6000602082526125d5602083018461554b565b600060608252615745606083018661554b565b846020840152828103604084015261569b818561554b565b6020808252604f908201527f434c4d383a3a70726f64756374735570646174653a2070726f64756374556e6960408201527f74416d6f756e747320616e642070726f6475637449647320617265206e6f742060608201526e0e8d0ca40e6c2daca40d8cadccee8d608b1b608082015260a00190565b60208082526032908201527f4552433732313a207472616e7366657220746f206e6f6e20455243373231526560408201527131b2b4bb32b91034b6b83632b6b2b73a32b960711b606082015260800190565b60208082526031908201527f4552433732313a207472616e736665722063616c6c6572206973206e6f74206f6040820152701ddb995c881b9bdc88185c1c1c9bdd9959607a1b606082015260800190565b6020808252602b908201527f496e697469616c697a61626c653a20636f6e7472616374206973206e6f74206960408201526a6e697469616c697a696e6760a81b606082015260800190565b6020808252602e908201527f434c4d383a3a6e6f74417564697465643a20747261636b65724964206973206160408201526d1b1c9958591e48185d591a5d195960921b606082015260800190565b60006060825284516060830152602085015161593560808401826001600160a01b03169052565b5060408501516001600160a01b03811660a084015250606085015160c0830152608085015160e083015260a0850151610100818185015260c08701519150610120828186015260e08801519250806101408601525061599861018085018361554b565b90870151848203605f19016101608601529091506159b6828261554b565b915050846020840152828103604084015261569b8185615511565b600088825260018060a01b038816602083015286604083015285606083015260e06080830152615a0460e083018661554b565b82810360a0840152615a16818661554b565b9150508260c083015298975050505050505050565b604051601f8201601f191681016001600160401b0381118282101715615a5357615a53615bb3565b604052919050565b60006001600160401b03821115615a7457615a74615bb3565b5060051b60200190565b60008219821115615a9157615a91615b87565b500190565b600082615aa557615aa5615b9d565b500490565b6000816000190483118215151615615ac457615ac4615b87565b500290565b600082821015615adb57615adb615b87565b500390565b60005b83811015615afb578181015183820152602001615ae3565b8381111561248a5750506000910152565b600081615b1b57615b1b615b87565b506000190190565b600181811c90821680615b3757607f821691505b60208210811415610c9357634e487b7160e01b600052602260045260246000fd5b6000600019821415615b6c57615b6c615b87565b5060010190565b600082615b8257615b82615b9d565b500690565b634e487b7160e01b600052601160045260246000fd5b634e487b7160e01b600052601260045260246000fd5b634e487b7160e01b600052604160045260246000fd5b80151581146135bb57600080fd5b6001600160e01b0319811681146135bb57600080fdfe4f9730948b73761de8f37a0aea1760c5eef658d37d8c456767b81e17c01f30eda2646970667358221220d30924481f7ff0cdcaf0a1ccd77b1d37156f4d57d8e7773641ab027cc06862ff64736f6c63430008030033",
  "linkReferences": {},
  "deployedLinkReferences": {}
}