{
  "_format": "hh-sol-artifact-1",
  "contractName": "CarbonTracker",
  "sourceName": "contracts/Governance/CarbonTracker.sol",
  "abi": [
    {
      "anonymous": false,
      "inputs": [
        {
          "indexed": true,
          "internalType": "address",
          "name": "owner",
          "type": "address"
        },
        {
          "indexed": true,
          "internalType": "address",
          "name": "approved",
          "type": "address"
        },
        {
          "indexed": true,
          "internalType": "uint256",
          "name": "tokenId",
          "type": "uint256"
        }
      ],
      "name": "Approval",
      "type": "event"
    },
    {
      "anonymous": false,
      "inputs": [
        {
          "indexed": true,
          "internalType": "address",
          "name": "owner",
          "type": "address"
        },
        {
          "indexed": true,
          "internalType": "address",
          "name": "operator",
          "type": "address"
        },
        {
          "indexed": false,
          "internalType": "bool",
          "name": "approved",
          "type": "bool"
        }
      ],
      "name": "ApprovalForAll",
      "type": "event"
    },
    {
      "anonymous": false,
      "inputs": [
        {
          "indexed": true,
          "internalType": "address",
          "name": "account",
          "type": "address"
        }
      ],
      "name": "RegisteredTracker",
      "type": "event"
    },
    {
      "anonymous": false,
      "inputs": [
        {
          "indexed": true,
          "internalType": "bytes32",
          "name": "role",
          "type": "bytes32"
        },
        {
          "indexed": true,
          "internalType": "bytes32",
          "name": "previousAdminRole",
          "type": "bytes32"
        },
        {
          "indexed": true,
          "internalType": "bytes32",
          "name": "newAdminRole",
          "type": "bytes32"
        }
      ],
      "name": "RoleAdminChanged",
      "type": "event"
    },
    {
      "anonymous": false,
      "inputs": [
        {
          "indexed": true,
          "internalType": "bytes32",
          "name": "role",
          "type": "bytes32"
        },
        {
          "indexed": true,
          "internalType": "address",
          "name": "account",
          "type": "address"
        },
        {
          "indexed": true,
          "internalType": "address",
          "name": "sender",
          "type": "address"
        }
      ],
      "name": "RoleGranted",
      "type": "event"
    },
    {
      "anonymous": false,
      "inputs": [
        {
          "indexed": true,
          "internalType": "bytes32",
          "name": "role",
          "type": "bytes32"
        },
        {
          "indexed": true,
          "internalType": "address",
          "name": "account",
          "type": "address"
        },
        {
          "indexed": true,
          "internalType": "address",
          "name": "sender",
          "type": "address"
        }
      ],
      "name": "RoleRevoked",
      "type": "event"
    },
    {
      "anonymous": false,
      "inputs": [
        {
          "indexed": true,
          "internalType": "uint256",
          "name": "trackerId",
          "type": "uint256"
        },
        {
          "indexed": true,
          "internalType": "address",
          "name": "trackee",
          "type": "address"
        }
      ],
      "name": "TrackeeChanged",
      "type": "event"
    },
    {
      "anonymous": false,
      "inputs": [
        {
          "indexed": true,
          "internalType": "uint256",
          "name": "trackerId",
          "type": "uint256"
        },
        {
          "indexed": true,
          "internalType": "address",
          "name": "tracker",
          "type": "address"
        },
        {
          "indexed": false,
          "internalType": "uint256[]",
          "name": "tokenIds",
          "type": "uint256[]"
        },
        {
          "indexed": false,
          "internalType": "uint256[]",
          "name": "inAmounts",
          "type": "uint256[]"
        },
        {
          "indexed": false,
          "internalType": "uint256[]",
          "name": "outAmounts",
          "type": "uint256[]"
        },
        {
          "indexed": false,
          "internalType": "uint256[]",
          "name": "trackerIds",
          "type": "uint256[]"
        }
      ],
      "name": "TrackerUpdated",
      "type": "event"
    },
    {
      "anonymous": false,
      "inputs": [
        {
          "indexed": true,
          "internalType": "address",
          "name": "from",
          "type": "address"
        },
        {
          "indexed": true,
          "internalType": "address",
          "name": "to",
          "type": "address"
        },
        {
          "indexed": true,
          "internalType": "uint256",
          "name": "tokenId",
          "type": "uint256"
        }
      ],
      "name": "Transfer",
      "type": "event"
    },
    {
      "anonymous": false,
      "inputs": [
        {
          "indexed": true,
          "internalType": "uint256",
          "name": "tokenId",
          "type": "uint256"
        },
        {
          "indexed": true,
          "internalType": "address",
          "name": "trackee",
          "type": "address"
        },
        {
          "indexed": false,
          "internalType": "uint256",
          "name": "amount",
          "type": "uint256"
        }
      ],
      "name": "VerifiedTransfer",
      "type": "event"
    },
    {
      "anonymous": false,
      "inputs": [
        {
          "indexed": true,
          "internalType": "address",
          "name": "auditor",
          "type": "address"
        },
        {
          "indexed": true,
          "internalType": "address",
          "name": "trackee",
          "type": "address"
        }
      ],
      "name": "VerifierApproved",
      "type": "event"
    },
    {
      "anonymous": false,
      "inputs": [
        {
          "indexed": true,
          "internalType": "address",
          "name": "auditor",
          "type": "address"
        },
        {
          "indexed": true,
          "internalType": "address",
          "name": "trackee",
          "type": "address"
        }
      ],
      "name": "VerifierRemoved",
      "type": "event"
    },
    {
      "inputs": [],
      "name": "DEFAULT_ADMIN_ROLE",
      "outputs": [
        {
          "internalType": "bytes32",
          "name": "",
          "type": "bytes32"
        }
      ],
      "stateMutability": "view",
      "type": "function"
    },
    {
      "inputs": [],
      "name": "REGISTERED_TRACKER",
      "outputs": [
        {
          "internalType": "bytes32",
          "name": "",
          "type": "bytes32"
        }
      ],
      "stateMutability": "view",
      "type": "function"
    },
    {
      "inputs": [
        {
          "internalType": "uint256",
          "name": "trackerId",
          "type": "uint256"
        },
        {
          "internalType": "uint8",
          "name": "tokenTypeId",
          "type": "uint8"
        },
        {
          "internalType": "uint256[257]",
          "name": "usedTrackerIds",
          "type": "uint256[257]"
        }
      ],
      "name": "_carbonIntensity",
      "outputs": [
        {
          "internalType": "uint256",
          "name": "",
          "type": "uint256"
        }
      ],
      "stateMutability": "view",
      "type": "function"
    },
    {
      "inputs": [
        {
          "internalType": "uint256",
          "name": "",
          "type": "uint256"
        }
      ],
      "name": "_trackerData",
      "outputs": [
        {
          "internalType": "uint256",
          "name": "trackerId",
          "type": "uint256"
        },
        {
          "internalType": "address",
          "name": "trackee",
          "type": "address"
        },
        {
          "internalType": "address",
          "name": "auditor",
          "type": "address"
        },
        {
          "internalType": "uint256",
          "name": "totalEmissions",
          "type": "uint256"
        },
        {
          "internalType": "uint256",
          "name": "totalAudited",
          "type": "uint256"
        },
        {
          "internalType": "uint256",
          "name": "totalOffset",
          "type": "uint256"
        },
        {
          "internalType": "uint256",
          "name": "fromDate",
          "type": "uint256"
        },
        {
          "internalType": "uint256",
          "name": "thruDate",
          "type": "uint256"
        },
        {
          "internalType": "uint256",
          "name": "dateCreated",
          "type": "uint256"
        },
        {
          "internalType": "string",
          "name": "metadata",
          "type": "string"
        },
        {
          "internalType": "string",
          "name": "description",
          "type": "string"
        }
      ],
      "stateMutability": "view",
      "type": "function"
    },
    {
      "inputs": [
        {
          "internalType": "uint256",
          "name": "outAmount",
          "type": "uint256"
        },
        {
          "internalType": "uint256",
          "name": "totalTracked",
          "type": "uint256"
        }
      ],
      "name": "_verifyTotalTracked",
      "outputs": [],
      "stateMutability": "pure",
      "type": "function"
    },
    {
      "inputs": [
        {
          "internalType": "address",
          "name": "to",
          "type": "address"
        },
        {
          "internalType": "uint256",
          "name": "tokenId",
          "type": "uint256"
        }
      ],
      "name": "approve",
      "outputs": [],
      "stateMutability": "nonpayable",
      "type": "function"
    },
    {
      "inputs": [
        {
          "internalType": "address",
          "name": "verifier",
          "type": "address"
        },
        {
          "internalType": "bool",
          "name": "approve",
          "type": "bool"
        }
      ],
      "name": "approveVerifier",
      "outputs": [],
      "stateMutability": "nonpayable",
      "type": "function"
    },
    {
      "inputs": [
        {
          "internalType": "uint256",
          "name": "trackerId",
          "type": "uint256"
        }
      ],
      "name": "audit",
      "outputs": [],
      "stateMutability": "nonpayable",
      "type": "function"
    },
    {
      "inputs": [
        {
          "internalType": "uint256",
          "name": "",
          "type": "uint256"
        }
      ],
      "name": "auditedTrackerId",
      "outputs": [
        {
          "internalType": "uint256",
          "name": "",
          "type": "uint256"
        }
      ],
      "stateMutability": "view",
      "type": "function"
    },
    {
      "inputs": [
        {
          "internalType": "address",
          "name": "owner",
          "type": "address"
        }
      ],
      "name": "balanceOf",
      "outputs": [
        {
          "internalType": "uint256",
          "name": "",
          "type": "uint256"
        }
      ],
      "stateMutability": "view",
      "type": "function"
    },
    {
      "inputs": [
        {
          "internalType": "uint256",
          "name": "trackerId",
          "type": "uint256"
        },
        {
          "internalType": "uint8",
          "name": "tokenTypeId",
          "type": "uint8"
        }
      ],
      "name": "carbonIntensity",
      "outputs": [
        {
          "internalType": "uint256",
          "name": "",
          "type": "uint256"
        }
      ],
      "stateMutability": "view",
      "type": "function"
    },
    {
      "inputs": [
        {
          "internalType": "uint256",
          "name": "trackerId",
          "type": "uint256"
        },
        {
          "internalType": "address",
          "name": "trackee",
          "type": "address"
        }
      ],
      "name": "changeTrackee",
      "outputs": [],
      "stateMutability": "nonpayable",
      "type": "function"
    },
    {
      "inputs": [
        {
          "internalType": "uint256",
          "name": "tokenId",
          "type": "uint256"
        }
      ],
      "name": "getApproved",
      "outputs": [
        {
          "internalType": "address",
          "name": "",
          "type": "address"
        }
      ],
      "stateMutability": "view",
      "type": "function"
    },
    {
      "inputs": [],
      "name": "getNumOfUniqueTrackers",
      "outputs": [
        {
          "internalType": "uint256",
          "name": "",
          "type": "uint256"
        }
      ],
      "stateMutability": "view",
      "type": "function"
    },
    {
      "inputs": [
        {
          "internalType": "bytes32",
          "name": "role",
          "type": "bytes32"
        }
      ],
      "name": "getRoleAdmin",
      "outputs": [
        {
          "internalType": "bytes32",
          "name": "",
          "type": "bytes32"
        }
      ],
      "stateMutability": "view",
      "type": "function"
    },
    {
      "inputs": [
        {
          "internalType": "uint256",
          "name": "trackerId",
          "type": "uint256"
        },
        {
          "internalType": "uint256",
          "name": "sourceTrackerId",
          "type": "uint256"
        }
      ],
      "name": "getTokenAmounts",
      "outputs": [
        {
          "internalType": "uint256[]",
          "name": "",
          "type": "uint256[]"
        },
        {
          "internalType": "uint256[]",
          "name": "",
          "type": "uint256[]"
        },
        {
          "internalType": "uint256[]",
          "name": "",
          "type": "uint256[]"
        }
      ],
      "stateMutability": "view",
      "type": "function"
    },
    {
      "inputs": [
        {
          "internalType": "uint256",
          "name": "trackerId",
          "type": "uint256"
        },
        {
          "internalType": "uint256",
          "name": "sourceTrackerId",
          "type": "uint256"
        },
        {
          "internalType": "uint256",
          "name": "tokenId",
          "type": "uint256"
        }
      ],
      "name": "getTokenIdAmounts",
      "outputs": [
        {
          "internalType": "uint256",
          "name": "",
          "type": "uint256"
        },
        {
          "internalType": "uint256",
          "name": "",
          "type": "uint256"
        }
      ],
      "stateMutability": "view",
      "type": "function"
    },
    {
      "inputs": [
        {
          "internalType": "uint256",
          "name": "trackerId",
          "type": "uint256"
        },
        {
          "internalType": "uint256",
          "name": "tokenId",
          "type": "uint256"
        }
      ],
      "name": "getTokenIdOut",
      "outputs": [
        {
          "internalType": "uint256",
          "name": "",
          "type": "uint256"
        },
        {
          "internalType": "uint256",
          "name": "",
          "type": "uint256"
        }
      ],
      "stateMutability": "view",
      "type": "function"
    },
    {
      "inputs": [
        {
          "internalType": "uint256",
          "name": "trackerId",
          "type": "uint256"
        },
        {
          "internalType": "uint256",
          "name": "sourceTrackerId",
          "type": "uint256"
        }
      ],
      "name": "getTokenIds",
      "outputs": [
        {
          "internalType": "uint256[]",
          "name": "",
          "type": "uint256[]"
        },
        {
          "internalType": "uint256",
          "name": "",
          "type": "uint256"
        }
      ],
      "stateMutability": "view",
      "type": "function"
    },
    {
      "inputs": [
        {
          "internalType": "uint256",
          "name": "trackerId",
          "type": "uint256"
        }
      ],
      "name": "getTrackerDetails",
      "outputs": [
        {
          "components": [
            {
              "internalType": "uint256",
              "name": "trackerId",
              "type": "uint256"
            },
            {
              "internalType": "address",
              "name": "trackee",
              "type": "address"
            },
            {
              "internalType": "address",
              "name": "auditor",
              "type": "address"
            },
            {
              "internalType": "uint256",
              "name": "totalEmissions",
              "type": "uint256"
            },
            {
              "internalType": "uint256",
              "name": "totalAudited",
              "type": "uint256"
            },
            {
              "internalType": "uint256",
              "name": "totalOffset",
              "type": "uint256"
            },
            {
              "internalType": "uint256",
              "name": "fromDate",
              "type": "uint256"
            },
            {
              "internalType": "uint256",
              "name": "thruDate",
              "type": "uint256"
            },
            {
              "internalType": "uint256",
              "name": "dateCreated",
              "type": "uint256"
            },
            {
              "internalType": "string",
              "name": "metadata",
              "type": "string"
            },
            {
              "internalType": "string",
              "name": "description",
              "type": "string"
            }
          ],
          "internalType": "struct CarbonTracker.CarbonTrackerDetails",
          "name": "",
          "type": "tuple"
        }
      ],
      "stateMutability": "view",
      "type": "function"
    },
    {
      "inputs": [
        {
          "internalType": "uint256",
          "name": "trackerId",
          "type": "uint256"
        }
      ],
      "name": "getTrackerIds",
      "outputs": [
        {
          "internalType": "uint256[]",
          "name": "",
          "type": "uint256[]"
        }
      ],
      "stateMutability": "view",
      "type": "function"
    },
    {
      "inputs": [
        {
          "internalType": "bytes32",
          "name": "role",
          "type": "bytes32"
        },
        {
          "internalType": "address",
          "name": "account",
          "type": "address"
        }
      ],
      "name": "grantRole",
      "outputs": [],
      "stateMutability": "nonpayable",
      "type": "function"
    },
    {
      "inputs": [
        {
          "internalType": "bytes32",
          "name": "role",
          "type": "bytes32"
        },
        {
          "internalType": "address",
          "name": "account",
          "type": "address"
        }
      ],
      "name": "hasRole",
      "outputs": [
        {
          "internalType": "bool",
          "name": "",
          "type": "bool"
        }
      ],
      "stateMutability": "view",
      "type": "function"
    },
    {
      "inputs": [
        {
          "internalType": "address",
          "name": "_net",
          "type": "address"
        },
        {
          "internalType": "address",
          "name": "_admin",
          "type": "address"
        }
      ],
      "name": "initialize",
      "outputs": [],
      "stateMutability": "nonpayable",
      "type": "function"
    },
    {
      "inputs": [
        {
          "internalType": "address",
          "name": "owner",
          "type": "address"
        },
        {
          "internalType": "address",
          "name": "operator",
          "type": "address"
        }
      ],
      "name": "isApprovedForAll",
      "outputs": [
        {
          "internalType": "bool",
          "name": "",
          "type": "bool"
        }
      ],
      "stateMutability": "view",
      "type": "function"
    },
    {
      "inputs": [],
      "name": "name",
      "outputs": [
        {
          "internalType": "string",
          "name": "",
          "type": "string"
        }
      ],
      "stateMutability": "view",
      "type": "function"
    },
    {
      "inputs": [
        {
          "internalType": "uint256",
          "name": "",
          "type": "uint256"
        }
      ],
      "name": "offsetTrackerId",
      "outputs": [
        {
          "internalType": "uint256",
          "name": "",
          "type": "uint256"
        }
      ],
      "stateMutability": "view",
      "type": "function"
    },
    {
      "inputs": [
        {
          "internalType": "uint256",
          "name": "tokenId",
          "type": "uint256"
        }
      ],
      "name": "ownerOf",
      "outputs": [
        {
          "internalType": "address",
          "name": "",
          "type": "address"
        }
      ],
      "stateMutability": "view",
      "type": "function"
    },
    {
      "inputs": [
        {
          "internalType": "address",
          "name": "tracker",
          "type": "address"
        }
      ],
      "name": "registerTracker",
      "outputs": [],
      "stateMutability": "nonpayable",
      "type": "function"
    },
    {
      "inputs": [
        {
          "internalType": "uint256",
          "name": "trackerId",
          "type": "uint256"
        }
      ],
      "name": "removeAudit",
      "outputs": [],
      "stateMutability": "nonpayable",
      "type": "function"
    },
    {
      "inputs": [
        {
          "internalType": "bytes32",
          "name": "role",
          "type": "bytes32"
        },
        {
          "internalType": "address",
          "name": "account",
          "type": "address"
        }
      ],
      "name": "renounceRole",
      "outputs": [],
      "stateMutability": "nonpayable",
      "type": "function"
    },
    {
      "inputs": [
        {
          "internalType": "bytes32",
          "name": "role",
          "type": "bytes32"
        },
        {
          "internalType": "address",
          "name": "account",
          "type": "address"
        }
      ],
      "name": "revokeRole",
      "outputs": [],
      "stateMutability": "nonpayable",
      "type": "function"
    },
    {
      "inputs": [
        {
          "internalType": "address",
          "name": "from",
          "type": "address"
        },
        {
          "internalType": "address",
          "name": "to",
          "type": "address"
        },
        {
          "internalType": "uint256",
          "name": "tokenId",
          "type": "uint256"
        }
      ],
      "name": "safeTransferFrom",
      "outputs": [],
      "stateMutability": "nonpayable",
      "type": "function"
    },
    {
      "inputs": [
        {
          "internalType": "address",
          "name": "from",
          "type": "address"
        },
        {
          "internalType": "address",
          "name": "to",
          "type": "address"
        },
        {
          "internalType": "uint256",
          "name": "tokenId",
          "type": "uint256"
        },
        {
          "internalType": "bytes",
          "name": "_data",
          "type": "bytes"
        }
      ],
      "name": "safeTransferFrom",
      "outputs": [],
      "stateMutability": "nonpayable",
      "type": "function"
    },
    {
      "inputs": [
        {
          "internalType": "address",
          "name": "operator",
          "type": "address"
        },
        {
          "internalType": "bool",
          "name": "approved",
          "type": "bool"
        }
      ],
      "name": "setApprovalForAll",
      "outputs": [],
      "stateMutability": "nonpayable",
      "type": "function"
    },
    {
      "inputs": [
        {
          "internalType": "bytes4",
          "name": "interfaceId",
          "type": "bytes4"
        }
      ],
      "name": "supportsInterface",
      "outputs": [
        {
          "internalType": "bool",
          "name": "",
          "type": "bool"
        }
      ],
      "stateMutability": "view",
      "type": "function"
    },
    {
      "inputs": [],
      "name": "symbol",
      "outputs": [
        {
          "internalType": "string",
          "name": "",
          "type": "string"
        }
      ],
      "stateMutability": "view",
      "type": "function"
    },
    {
      "inputs": [
        {
          "internalType": "uint256",
          "name": "tokenId",
          "type": "uint256"
        }
      ],
      "name": "tokenURI",
      "outputs": [
        {
          "internalType": "string",
          "name": "",
          "type": "string"
        }
      ],
      "stateMutability": "view",
      "type": "function"
    },
    {
      "inputs": [
        {
          "internalType": "address",
          "name": "trackee",
          "type": "address"
        },
        {
          "internalType": "uint256[]",
          "name": "tokenIds",
          "type": "uint256[]"
        },
        {
          "internalType": "uint256[]",
          "name": "inAmounts",
          "type": "uint256[]"
        },
        {
          "internalType": "uint256[]",
          "name": "outAmounts",
          "type": "uint256[]"
        },
        {
          "internalType": "uint256[]",
          "name": "trackerIds",
          "type": "uint256[]"
        },
        {
          "internalType": "uint256",
          "name": "fromDate",
          "type": "uint256"
        },
        {
          "internalType": "uint256",
          "name": "thruDate",
          "type": "uint256"
        },
        {
          "internalType": "string",
          "name": "metadata",
          "type": "string"
        },
        {
          "internalType": "string",
          "name": "description",
          "type": "string"
        }
      ],
      "name": "track",
      "outputs": [],
      "stateMutability": "nonpayable",
      "type": "function"
    },
    {
      "inputs": [
        {
          "internalType": "uint256",
          "name": "trackerId",
          "type": "uint256"
        },
        {
          "internalType": "uint256[]",
          "name": "tokenIds",
          "type": "uint256[]"
        },
        {
          "internalType": "uint256[]",
          "name": "inAmounts",
          "type": "uint256[]"
        },
        {
          "internalType": "uint256[]",
          "name": "outAmounts",
          "type": "uint256[]"
        },
        {
          "internalType": "uint256[]",
          "name": "trackerIds",
          "type": "uint256[]"
        },
        {
          "internalType": "uint256",
          "name": "fromDate",
          "type": "uint256"
        },
        {
          "internalType": "uint256",
          "name": "thruDate",
          "type": "uint256"
        },
        {
          "internalType": "string",
          "name": "metadata",
          "type": "string"
        },
        {
          "internalType": "string",
          "name": "description",
          "type": "string"
        }
      ],
      "name": "trackUpdate",
      "outputs": [],
      "stateMutability": "nonpayable",
      "type": "function"
    },
    {
      "inputs": [
        {
          "internalType": "address",
          "name": "from",
          "type": "address"
        },
        {
          "internalType": "address",
          "name": "to",
          "type": "address"
        },
        {
          "internalType": "uint256",
          "name": "tokenId",
          "type": "uint256"
        }
      ],
      "name": "transferFrom",
      "outputs": [],
      "stateMutability": "nonpayable",
      "type": "function"
    }
  ],
  "bytecode": "0x608060405234801561001057600080fd5b506152b8806100206000396000f3fe608060405234801561001057600080fd5b50600436106102535760003560e01c80639042a3c711610146578063b88d4fde116100c3578063d547741f11610087578063d547741f146105b9578063d82de424146105cc578063d97ac445146105ed578063db600be514610600578063e985e9c514610646578063ecc3356a1461068257610253565b8063b88d4fde14610502578063b9531f2114610515578063c87b56dd14610535578063cb6a1f1214610548578063cf96cf4f1461056857610253565b8063a22cb4651161010a578063a22cb46514610487578063a7d6619d1461049a578063b173e570146104ad578063b18912a6146104c0578063b418f063146104e257610253565b80639042a3c71461043e57806391d1485414610451578063920b72781461046457806395d89b4114610477578063a217fddf1461047f57610253565b806334d03715116101d45780636352211e116101985780636352211e146103db57806370a08231146103ee5780637c7768d61461040157806381d5f7f6146104095780638a59a9351461041e57610253565b806334d037151461037c57806336568abe1461038f57806342842e0e146103a2578063485cc955146103b55780635e7231c3146103c857610253565b806323018c901161021b57806323018c90146102e857806323b872dd146102fb578063248a9ca31461030e578063292876db1461033f5780632f2ff15d1461036957610253565b806301ffc9a71461025857806306fdde0314610280578063081812fc14610295578063095ea7b3146102c05780631856f262146102d5575b600080fd5b61026b6102663660046149b3565b610695565b60405190151581526020015b60405180910390f35b6102886106c2565b6040516102779190614dc5565b6102a86102a3366004614979565b610754565b6040516001600160a01b039091168152602001610277565b6102d36102ce366004614934565b6107ee565b005b6102d36102e33660046146ea565b610904565b6102d36102f6366004614a03565b6109f7565b6102d3610309366004614736565b610a90565b61033161031c366004614979565b60009081526097602052604090206001015490565b604051908152602001610277565b61035261034d366004614979565b610ac1565b6040516102779b9a9998979695949392919061502e565b6102d3610377366004614991565b610c38565b6102d361038a3660046147ea565b610c5f565b6102d361039d366004614991565b610ce0565b6102d36103b0366004614736565b610d5e565b6102d36103c3366004614704565b610d79565b6102d36103d6366004614aa2565b610ebe565b6102a86103e9366004614979565b610f5a565b6103316103fc3660046146ea565b610fd1565b610331611058565b61033160008051602061526383398151915281565b61043161042c366004614979565b611068565b6040516102779190614f71565b61033161044c366004614b12565b61128d565b61026b61045f366004614991565b611951565b610331610472366004614aee565b61197e565b61028861199b565b610331600081565b6102d36104953660046148fe565b6119aa565b6102d36104a83660046148fe565b6119b5565b6102d36104bb366004614979565b611bdd565b6104d36104ce366004614aa2565b611c46565b60405161027793929190614d12565b6103316104f0366004614979565b60cf6020526000908152604090205481565b6102d3610510366004614771565b611e61565b610528610523366004614979565b611e99565b6040516102779190614cff565b610288610543366004614979565b611efb565b610331610556366004614979565b60d06020526000908152604090205481565b6105a4610576366004614aa2565b600091825260cb60209081526040808420928452600383018252808420546004909301909152909120549091565b60408051928352602083019190915201610277565b6102d36105c7366004614991565b611fe2565b6105df6105da366004614aa2565b612008565b604051610277929190614da3565b6102d36105fb366004614991565b61208d565b6105a461060e366004614ac3565b600092835260cb6020908152604080852093855260029384018252808520928552928201815282842054600390920190529120549091565b61026b610654366004614704565b6001600160a01b039182166000908152606a6020908152604080832093909416825291909152205460ff1690565b6102d3610690366004614979565b612205565b60006001600160e01b03198216637965db0b60e01b14806106ba57506106ba82612231565b90505b919050565b6060606580546106d190615183565b80601f01602080910402602001604051908101604052809291908181526020018280546106fd90615183565b801561074a5780601f1061071f5761010080835404028352916020019161074a565b820191906000526020600020905b81548152906001019060200180831161072d57829003601f168201915b5050505050905090565b6000818152606760205260408120546001600160a01b03166107d25760405162461bcd60e51b815260206004820152602c60248201527f4552433732313a20617070726f76656420717565727920666f72206e6f6e657860448201526b34b9ba32b73a103a37b5b2b760a11b60648201526084015b60405180910390fd5b506000908152606960205260409020546001600160a01b031690565b60006107f982610f5a565b9050806001600160a01b0316836001600160a01b031614156108675760405162461bcd60e51b815260206004820152602160248201527f4552433732313a20617070726f76616c20746f2063757272656e74206f776e656044820152603960f91b60648201526084016107c9565b336001600160a01b038216148061088357506108838133610654565b6108f55760405162461bcd60e51b815260206004820152603860248201527f4552433732313a20617070726f76652063616c6c6572206973206e6f74206f7760448201527f6e6572206e6f7220617070726f76656420666f7220616c6c000000000000000060648201526084016107c9565b6108ff8383612256565b505050565b806001600160a01b0381163314806109225750610922600033611951565b6109a75760405162461bcd60e51b815260206004820152604a60248201527f434c4d383a3a73656c664f7241646d696e3a206d73672e73656e64657220646f60448201527f6573206e6f74206f776e20746869732061646472657373206f72206973206e6f6064820152693a1030b71030b236b4b760b11b608482015260a4016107c9565b6109bf600080516020615263833981519152836122c4565b6040516001600160a01b038316907fef8ce2b8e324ee947b09d9cf7f74e5589078af3a3e3f5266e9752c8284e4cd8790600090a25050565b600089815260ca602052604090206002015489906001600160a01b031615610a315760405162461bcd60e51b81526004016107c990614f23565b8980610a3c60cc5490565b1015610a5a5760405162461bcd60e51b81526004016107c990614e2a565b60008b815260ca60205260409020610a75818c8c8c8c6122ce565b610a828188888888612ee6565b505050505050505050505050565b610a9a3382612f45565b610ab65760405162461bcd60e51b81526004016107c990614e87565b6108ff838383613038565b60ca60205260009081526040902080546001820154600283015460038401546004850154600586015460068701546007880154600889015460098a018054999a6001600160a01b03998a169a9990981698969795969495939492939192610b2790615183565b80601f0160208091040260200160405190810160405280929190818152602001828054610b5390615183565b8015610ba05780601f10610b7557610100808354040283529160200191610ba0565b820191906000526020600020905b815481529060010190602001808311610b8357829003601f168201915b50505050509080600a018054610bb590615183565b80601f0160208091040260200160405190810160405280929190818152602001828054610be190615183565b8015610c2e5780601f10610c0357610100808354040283529160200191610c2e565b820191906000526020600020905b815481529060010190602001808311610c1157829003601f168201915b505050505090508b565b600082815260976020526040902060010154610c5581335b6131d4565b6108ff8383613238565b610c6d60cc80546001019055565b6000610c7860cc5490565b600081815260ca602052604090208181556001810180546001600160a01b0319166001600160a01b038e16179055426008820155909150610cbc818b8b8b8b6122ce565b610cc98187878787612ee6565b610cd333836132be565b5050505050505050505050565b6001600160a01b0381163314610d505760405162461bcd60e51b815260206004820152602f60248201527f416363657373436f6e74726f6c3a2063616e206f6e6c792072656e6f756e636560448201526e103937b632b9903337b91039b2b63360891b60648201526084016107c9565b610d5a8282613401565b5050565b6108ff83838360405180602001604052806000815250611e61565b600054610100900460ff16610d945760005460ff1615610d98565b303b155b610dfb5760405162461bcd60e51b815260206004820152602e60248201527f496e697469616c697a61626c653a20636f6e747261637420697320616c72656160448201526d191e481a5b9a5d1a585b1a5e995960921b60648201526084016107c9565b600054610100900460ff16158015610e1d576000805461ffff19166101011790555b60c980546001600160a01b0319166001600160a01b03851617905560408051808201825260128152712722aa1021b0b93137b7102a3930b1b5b2b960711b602080830191909152825180840190935260048352631391551560e21b90830152610e8591613468565b610e906000836122c4565b610ea8600080516020615263833981519152836122c4565b80156108ff576000805461ff0019169055505050565b80821015610d5a5760405162461bcd60e51b815260206004820152605860248201527f434c4d383a3a5f766572696679546f74616c547261636b65643a20746f74616c60448201527f20616d6f756e7420747261636b65642065786365656473206f7574707574206f60648201527f6620746f6b656e49642066726f6d20747261636b657249640000000000000000608482015260a4016107c9565b6000818152606760205260408120546001600160a01b0316806106ba5760405162461bcd60e51b815260206004820152602960248201527f4552433732313a206f776e657220717565727920666f72206e6f6e657869737460448201526832b73a103a37b5b2b760b91b60648201526084016107c9565b60006001600160a01b03821661103c5760405162461bcd60e51b815260206004820152602a60248201527f4552433732313a2062616c616e636520717565727920666f7220746865207a65604482015269726f206164647265737360b01b60648201526084016107c9565b506001600160a01b031660009081526068602052604090205490565b600061106360cc5490565b905090565b6110d76040518061016001604052806000815260200160006001600160a01b0316815260200160006001600160a01b0316815260200160008152602001600081526020016000815260200160008152602001600081526020016000815260200160608152602001606081525090565b600082815260ca60209081526040918290208251610160810184528154815260018201546001600160a01b03908116938201939093526002820154909216928201929092526003820154606082015260048201546080820152600582015460a0820152600682015460c0820152600782015460e082015260088201546101008201526009820180549192916101208401919061117290615183565b80601f016020809104026020016040519081016040528092919081815260200182805461119e90615183565b80156111eb5780601f106111c0576101008083540402835291602001916111eb565b820191906000526020600020905b8154815290600101906020018083116111ce57829003601f168201915b50505050508152602001600a8201805461120490615183565b80601f016020809104026020016040519081016040528092919081815260200182805461123090615183565b801561127d5780601f106112525761010080835404028352916020019161127d565b820191906000526020600020905b81548152906001019060200180831161126057829003601f168201915b5050505050815250509050919050565b6000836112b2578260ff16600314156112aa5750620f424061194a565b50600061194a565b600093845260ca6020908152604080862060cb835281872087805260028101909352908620909190869081908190819081908190815b88548111611856576101018c6112ff600183615129565b610101811061131e57634e487b7160e01b600052603260045260246000fd5b602002015114158061136257506113628c8a600001838154811061135257634e487b7160e01b600052603260045260246000fd5b9060005260206000200154613499565b156117265760005b82548110156117245760c95483546001600160a01b039091169063127d5ad0908590849081106113aa57634e487b7160e01b600052603260045260246000fd5b90600052602060002001546040518263ffffffff1660e01b81526004016113d391815260200190565b60206040518083038186803b1580156113eb57600080fd5b505afa1580156113ff573d6000803e3d6000fd5b505050506040513d601f19601f820116820180604052508101906114239190614b9c565b93508360ff16600414156115515761143c8f858f61128d565b94506114a0611499620f424085600201600087600001868154811061147157634e487b7160e01b600052603260045260246000fd5b906000526020600020015481526020019081526020016000205461350490919063ffffffff16565b8a90613510565b98506114f36114ec620f42406114e6886114e0620f42408960030160008b6000018a8154811061147157634e487b7160e01b600052603260045260246000fd5b90613504565b9061351c565b8990613510565b975061154a83600301600085600001848154811061152157634e487b7160e01b600052603260045260246000fd5b90600052602060002001548152602001908152602001600020548861351090919063ffffffff16565b96506116d2565b8360ff16600314156116065782600301600084600001838154811061158657634e487b7160e01b600052603260045260246000fd5b9060005260206000200154815260200190815260200160002054600014156115fa576115f360cf60008560000184815481106115d257634e487b7160e01b600052603260045260246000fd5b9060005260206000200154815260200190815260200160002054858f61128d565b9450611601565b620f424094505b6116d2565b8360ff16600214156116d25761163c60d060008560000184815481106115d257634e487b7160e01b600052603260045260246000fd5b9450611678611671620f424085600201600087600001868154811061147157634e487b7160e01b600052603260045260246000fd5b8a90613528565b98506116cf8360030160008560000184815481106116a657634e487b7160e01b600052603260045260246000fd5b90600052602060002001548152602001908152602001600020548761351090919063ffffffff16565b95505b611710611499620f42406114e6886114e0620f42408960020160008b6000018a8154811061147157634e487b7160e01b600052603260045260246000fd5b98508061171c816151be565b91505061136a565b505b88548110156118445788600001818154811061175257634e487b7160e01b600052603260045260246000fd5b90600052602060002001549d5061179e60018d60016101016117749190615129565b610101811061179357634e487b7160e01b600052603260045260246000fd5b602002015190613510565b8c6117ac6001610101615129565b61010181106117cb57634e487b7160e01b600052603260045260246000fd5b60200201528d8c806117e06001610101615129565b61010181106117ff57634e487b7160e01b600052603260045260246000fd5b6020020151610101811061182357634e487b7160e01b600052603260045260246000fd5b6020020181815250508860020160008f815260200190815260200160002091505b8061184e816151be565b9150506112e8565b508b60ff16600214801561186a5750600084115b1561188957611879878561351c565b995050505050505050505061194a565b846118bf578b60ff1660031480156118a5575060008960040154115b156118ba57600489015461187990889061351c565b61193c565b8b60ff16600314156118db57600389015461187990889061351c565b8b60ff1660041480156118f2575060008960030154115b156119325761192f61191f6119148b600301548a61351c90919063ffffffff16565b60048c015490613504565b6119298989613510565b90613528565b96505b611879878661351c565b600099505050505050505050505b9392505050565b60008281526097602090815260408083206001600160a01b038516845290915290205460ff165b92915050565b6000611988614506565b61199384848361128d565b949350505050565b6060606680546106d190615183565b610d5a338383613534565b60c9546040516349b9055760e01b81526001600160a01b038481166004830152909116906349b905579060240160206040518083038186803b1580156119fa57600080fd5b505afa158015611a0e573d6000803e3d6000fd5b505050506040513d601f19601f82011682018060405250810190611a32919061495d565b80611a3b575080155b611abb5760405162461bcd60e51b8152602060048201526044602482018190527f434c4d383a3a617070726f766556657269666965723a20616464726573732069908201527f73206e6f742061207265676973746572656420656d697373696f6e732061756460648201526334ba37b960e11b608482015260a4016107c9565b6001600160a01b038216331415611b305760405162461bcd60e51b815260206004820152603360248201527f434c4d383a3a617070726f766556657269666965723a2061756469746f72206360448201527230b73737ba1031329036b9b39739b2b73232b960691b60648201526084016107c9565b6001600160a01b038216600090815260d1602090815260408083203384529091529020805460ff19168215801591909117909155611ba35760405133906001600160a01b038416907ff31635902a304a612155085cc8916b9ab86fc115155b10b33980f6cb8165c54e90600090a3610d5a565b60405133906001600160a01b038416907f490861baee43b8ebd28f134f99c0aa7848888c4bde402256ad4cf455d147aed690600090a35050565b600081815260ca602052604090206002015481906001600160a01b031615611c175760405162461bcd60e51b81526004016107c990614f23565b81611c2181613603565b5050600090815260ca6020526040902060020180546001600160a01b03191633179055565b600082815260cb6020908152604080832084845260028101835281842080548351818602810186019094528084526060958695869591928491830182828015611cae57602002820191906000526020600020905b815481526020019060010190808311611c9a575b505050505090506000815167ffffffffffffffff811115611cdf57634e487b7160e01b600052604160045260246000fd5b604051908082528060200260200182016040528015611d08578160200160208202803683370190505b5090506000825167ffffffffffffffff811115611d3557634e487b7160e01b600052604160045260246000fd5b604051908082528060200260200182016040528015611d5e578160200160208202803683370190505b50905060005b8351811015611e5057846002016000858381518110611d9357634e487b7160e01b600052603260045260246000fd5b6020026020010151815260200190815260200160002054838281518110611dca57634e487b7160e01b600052603260045260246000fd5b602002602001018181525050846003016000858381518110611dfc57634e487b7160e01b600052603260045260246000fd5b6020026020010151815260200190815260200160002054828281518110611e3357634e487b7160e01b600052603260045260246000fd5b602090810291909101015280611e48816151be565b915050611d64565b509196509450925050509250925092565b611e6b3383612f45565b611e875760405162461bcd60e51b81526004016107c990614e87565b611e93848484846136ac565b50505050565b600081815260cb6020908152604091829020805483518184028101840190945280845260609392830182828015611eef57602002820191906000526020600020905b815481526020019060010190808311611edb575b50505050509050919050565b6000818152606760205260409020546060906001600160a01b0316611f7a5760405162461bcd60e51b815260206004820152602f60248201527f4552433732314d657461646174613a2055524920717565727920666f72206e6f60448201526e3732bc34b9ba32b73a103a37b5b2b760891b60648201526084016107c9565b6000611f9160408051602081019091526000815290565b90506000815111611fb1576040518060200160405280600081525061194a565b80611fbb846136df565b604051602001611fcc929190614c1e565b6040516020818303038152906040529392505050565b600082815260976020526040902060010154611ffe8133610c50565b6108ff8383613401565b600082815260cb6020908152604080832084845260028101835281842060019091018352818420548154835181860281018601909452808452606095949293919284919083018282801561207b57602002820191906000526020600020905b815481526020019060010190808311612067575b50505050509150915091509250929050565b612098600033611951565b6120f85760405162461bcd60e51b815260206004820152602b60248201527f434c4d383a3a6f6e6c7941646d696e3a206d73672e73656e646572206973206e60448201526a37ba1030b71030b236b4b760a91b60648201526084016107c9565b8061211160008051602061526383398151915282611951565b61217c5760405162461bcd60e51b815260206004820152603660248201527f434c4d383a3a72656769737465726564547261636b65723a20746865206164646044820152751c995cdcc81a5cc81b9bdd081c9959da5cdd195c995960521b60648201526084016107c9565b828061218760cc5490565b10156121a55760405162461bcd60e51b81526004016107c990614e2a565b600084815260ca60205260408082206001810180546001600160a01b0319166001600160a01b0388169081179091559151909287917f7bc1a852706b575e4f4bc2b8b22d45d7afcfbe29abc4cc0b6cc540aced9f6e7a9190a35050505050565b8061220f81613603565b50600090815260ca6020526040902060020180546001600160a01b0319169055565b60006001600160e01b03198216637965db0b60e01b14806106ba57506106ba826137fa565b600081815260696020526040902080546001600160a01b0319166001600160a01b038416908117909155819061228b82610f5a565b6001600160a01b03167f8c5be1e5ebec7d5bd14f71427d1e84f3dd0314c0f7b2291e5b200ac8c7c3b92560405160405180910390a45050565b610d5a8282613238565b83518351146123455760405162461bcd60e51b815260206004820152603c60248201527f434c4d383a3a5f747261636b3a20696e416d6f756e747320616e6420746f6b6560448201527f6e49647320617265206e6f74207468652073616d65206c656e6774680000000060648201526084016107c9565b83518251146123bc5760405162461bcd60e51b815260206004820152603d60248201527f434c4d383a3a5f747261636b3a206f7574416d6f756e747320616e6420746f6b60448201527f656e49647320617265206e6f74207468652073616d65206c656e67746800000060648201526084016107c9565b83518151146124335760405162461bcd60e51b815260206004820152603d60248201527f434c4d383a3a5f747261636b3a20747261636b657249647320616e6420746f6b60448201527f656e49647320617265206e6f74207468652073616d65206c656e67746800000060648201526084016107c9565b8454600090815260cb6020526040812082519091908390829061246657634e487b7160e01b600052603260045260246000fd5b60209081029190910181015160008181526002850190925260409091206001890154919250906001600160a01b031633148061254b575060c9546040516349b9055760e01b81523360048201526001600160a01b03909116906349b905579060240160206040518083038186803b1580156124e057600080fd5b505afa1580156124f4573d6000803e3d6000fd5b505050506040513d601f19601f82011682018060405250810190612518919061495d565b801561254b575033600090815260d16020908152604080832060018c01546001600160a01b0316845290915290205460ff165b6125d35760405162461bcd60e51b815260206004820152604d60248201527f434c4d383a3a5f747261636b3a206d73672e73656e646572206973206e6f742060448201527f746865207265676973746572656420747261636b6565206f7220616e2061707060648201526c3937bb32b21030bab234ba37b960991b608482015260a4016107c9565b6000805b8851811015612e0057895484141561266b5760405162461bcd60e51b815260206004820152604b60248201527f434c4d383a3a5f747261636b3a20747261636b6572446174612e747261636b6560448201527f72496420616e6420736f75726365547261636b657249642063616e206e6f742060648201526a6265207468652073616d6560a81b608482015260a4016107c9565b60c95489516001600160a01b039091169063127d5ad0908b90849081106126a257634e487b7160e01b600052603260045260246000fd5b60200260200101516040518263ffffffff1660e01b81526004016126c891815260200190565b60206040518083038186803b1580156126e057600080fd5b505afa1580156126f4573d6000803e3d6000fd5b505050506040513d601f19601f820116820180604052508101906127189190614b9c565b915080156127c1578561272c600183615129565b8151811061274a57634e487b7160e01b600052603260045260246000fd5b602002602001015186828151811061277257634e487b7160e01b600052603260045260246000fd5b6020026020010151146127c15785818151811061279f57634e487b7160e01b600052603260045260246000fd5b6020026020010151935084600201600085815260200190815260200160002092505b6128748982815181106127e457634e487b7160e01b600052603260045260246000fd5b60200260200101518b60010160009054906101000a90046001600160a01b03168c60030154858760020160008f888151811061283057634e487b7160e01b600052603260045260246000fd5b60200260200101518152602001908152602001600020548d878151811061286757634e487b7160e01b600052603260045260246000fd5b602002602001015161384a565b60038b0155600460ff83161415612abe57831561290d5761290d83858b84815181106128b057634e487b7160e01b600052603260045260246000fd5b60200260200101518b85815181106128d857634e487b7160e01b600052603260045260246000fd5b60200260200101518b868151811061290057634e487b7160e01b600052603260045260246000fd5b6020026020010151613a9f565b6129f78560030160008b848151811061293657634e487b7160e01b600052603260045260246000fd5b60200260200101518152602001908152602001600020548b60010160009054906101000a90046001600160a01b03168b848151811061298557634e487b7160e01b600052603260045260246000fd5b60200260200101518660030160008e87815181106129b357634e487b7160e01b600052603260045260246000fd5b60200260200101518152602001908152602001600020548b86815181106129ea57634e487b7160e01b600052603260045260246000fd5b6020026020010151613c0a565b8560030160008b8481518110612a1d57634e487b7160e01b600052603260045260246000fd5b6020026020010151815260200190815260200160002081905550612ab98560030160008b8481518110612a6057634e487b7160e01b600052603260045260246000fd5b60200260200101518152602001908152602001600020548660040160008c8581518110612a9d57634e487b7160e01b600052603260045260246000fd5b6020026020010151815260200190815260200160002054610ebe565b612d0d565b8315612ac957600093505b8160ff1660031415612d0d5733600090815260d16020908152604080832060018e01546001600160a01b0316845290915290205460ff1615612ca35760008360030160008b8481518110612b2d57634e487b7160e01b600052603260045260246000fd5b60200260200101518152602001908152602001600020541115612ba357612b9d8360030160008b8481518110612b7357634e487b7160e01b600052603260045260246000fd5b60200260200101518152602001908152602001600020548b6004015461352890919063ffffffff16565b60048b01555b6000878281518110612bc557634e487b7160e01b600052603260045260246000fd5b60200260200101511115612c5f57612c11878281518110612bf657634e487b7160e01b600052603260045260246000fd5b60200260200101518b6004015461351090919063ffffffff16565b60048b01558954895160cf906000908c9085908110612c4057634e487b7160e01b600052603260045260246000fd5b6020026020010151815260200190815260200160002081905550612c9e565b60cf60008a8381518110612c8357634e487b7160e01b600052603260045260246000fd5b60200260200101518152602001908152602001600020600090555b612ab9565b8260030160008a8381518110612cc957634e487b7160e01b600052603260045260246000fd5b6020026020010151815260200190815260200160002054878281518110612d0057634e487b7160e01b600052603260045260246000fd5b6020026020010181815250505b612d8e838a8381518110612d3157634e487b7160e01b600052603260045260246000fd5b60200260200101518a8481518110612d5957634e487b7160e01b600052603260045260246000fd5b60200260200101518a8581518110612d8157634e487b7160e01b600052603260045260246000fd5b6020026020010151613e6b565b60018951612d9c9190615129565b811480612dda575085612db08260016150de565b81518110612dce57634e487b7160e01b600052603260045260246000fd5b60200260200101518414155b15612dee578254612dee9085908790614023565b80612df8816151be565b9150506125d7565b50886004015489600301541015612e985760405162461bcd60e51b815260206004820152605060248201527f434c4d383a3a5f747261636b3a20746f74616c206175646974656420656d697360448201527f73696f6e206f75742069732067726561746572207468616e20746f74616c206560648201526f1b5a5cdcda5bdb9cc81d1c9858dad95960821b608482015260a4016107c9565b88546040513391907ff4167ae79939c396db7d073fdcf741e90f00a19e0d6f2c61d62c9c1be0fdfb3e90612ed3908c908c908c908c90614d4b565b60405180910390a3505050505050505050565b8315612ef457600685018490555b8215612f0257600785018390555b815115612f20578151612f1e9060098701906020850190614526565b505b805115612f3e578051612f3c90600a8701906020840190614526565b505b5050505050565b6000818152606760205260408120546001600160a01b0316612fbe5760405162461bcd60e51b815260206004820152602c60248201527f4552433732313a206f70657261746f7220717565727920666f72206e6f6e657860448201526b34b9ba32b73a103a37b5b2b760a11b60648201526084016107c9565b6000612fc983610f5a565b9050806001600160a01b0316846001600160a01b031614806130045750836001600160a01b0316612ff984610754565b6001600160a01b0316145b8061199357506001600160a01b038082166000908152606a602090815260408083209388168352929052205460ff16611993565b826001600160a01b031661304b82610f5a565b6001600160a01b0316146130af5760405162461bcd60e51b815260206004820152602560248201527f4552433732313a207472616e736665722066726f6d20696e636f72726563742060448201526437bbb732b960d91b60648201526084016107c9565b6001600160a01b0382166131115760405162461bcd60e51b8152602060048201526024808201527f4552433732313a207472616e7366657220746f20746865207a65726f206164646044820152637265737360e01b60648201526084016107c9565b61311c600082612256565b6001600160a01b0383166000908152606860205260408120805460019290613145908490615129565b90915550506001600160a01b03821660009081526068602052604081208054600192906131739084906150de565b909155505060008181526067602052604080822080546001600160a01b0319166001600160a01b0386811691821790925591518493918716917fddf252ad1be2c89b69c2b068fc378daa952ba7f163c4a11628f55a4df523b3ef91a46108ff565b6131de8282611951565b610d5a576131f6816001600160a01b031660146141c9565b6132018360206141c9565b604051602001613212929190614c4d565b60408051601f198184030181529082905262461bcd60e51b82526107c991600401614dc5565b6132428282611951565b610d5a5760008281526097602090815260408083206001600160a01b03851684529091529020805460ff1916600117905561327a3390565b6001600160a01b0316816001600160a01b0316837f2f8788117e7eff1d82e926ec794901d17c78024a50270940304540a733656f0d60405160405180910390a45050565b6001600160a01b0382166133145760405162461bcd60e51b815260206004820181905260248201527f4552433732313a206d696e7420746f20746865207a65726f206164647265737360448201526064016107c9565b6000818152606760205260409020546001600160a01b0316156133795760405162461bcd60e51b815260206004820152601c60248201527f4552433732313a20746f6b656e20616c7265616479206d696e7465640000000060448201526064016107c9565b6001600160a01b03821660009081526068602052604081208054600192906133a29084906150de565b909155505060008181526067602052604080822080546001600160a01b0319166001600160a01b03861690811790915590518392907fddf252ad1be2c89b69c2b068fc378daa952ba7f163c4a11628f55a4df523b3ef908290a4610d5a565b61340b8282611951565b15610d5a5760008281526097602090815260408083206001600160a01b0385168085529252808320805460ff1916905551339285917ff6391f5c32d9c69d2a47ea670b442974b53935d1edc7fd64eb21e047a839171b9190a45050565b600054610100900460ff1661348f5760405162461bcd60e51b81526004016107c990614ed8565b610d5a82826143ab565b6000805b6134aa6001610101615129565b8110156134fa5782848261010181106134d357634e487b7160e01b600052603260045260246000fd5b602002015114156134e8576001915050611978565b806134f2816151be565b91505061349d565b5060009392505050565b600061194a828461510a565b600061194a82846150de565b600061194a82846150f6565b600061194a8284615129565b816001600160a01b0316836001600160a01b031614156135965760405162461bcd60e51b815260206004820152601960248201527f4552433732313a20617070726f766520746f2063616c6c65720000000000000060448201526064016107c9565b6001600160a01b038381166000818152606a6020908152604080832094871680845294825291829020805460ff191686151590811790915591519182527f17307eab39ab6107e8899845ad3d59bd9653f200f220920489ca2b5937696c31910160405180910390a3505050565b33600090815260d16020908152604080832084845260ca8352818420600101546001600160a01b0316845290915290205460ff166136a95760405162461bcd60e51b815260206004820152603760248201527f434c4d383a3a697341756469746f723a2061756469746f72206973206e6f742060448201527f617070726f7665642062792074686520747261636b656500000000000000000060648201526084016107c9565b50565b6136b7848484613038565b6136c3848484846143f9565b611e935760405162461bcd60e51b81526004016107c990614dd8565b60608161370457506040805180820190915260018152600360fc1b60208201526106bd565b8160005b811561372e5780613718816151be565b91506137279050600a836150f6565b9150613708565b60008167ffffffffffffffff81111561375757634e487b7160e01b600052604160045260246000fd5b6040519080825280601f01601f191660200182016040528015613781576020820181803683370190505b5090505b841561199357613796600183615129565b91506137a3600a866151d9565b6137ae9060306150de565b60f81b8183815181106137d157634e487b7160e01b600052603260045260246000fd5b60200101906001600160f81b031916908160001a9053506137f3600a866150f6565b9450613785565b60006001600160e01b031982166380ac58cd60e01b148061382b57506001600160e01b03198216635b5e139f60e01b145b806106ba57506301ffc9a760e01b6001600160e01b03198316146106ba565b60008183146138d957600087815260cd602090815260408083206001600160a01b038a1684529091529020546138809084613528565b600088815260cd602090815260408083206001600160a01b038b168452909152902055600260ff851611156138c0576138b98584613528565b94506138d9565b8360ff16600214156138d9576138d68584613510565b94505b8115613a9457600087815260cd602090815260408083206001600160a01b038a16845290915290205461390c9083613510565b600088815260cd602090815260408083206001600160a01b038b168452909152902055600260ff8516111561394c576139458583613510565b9450613965565b8360ff1660021415613965576139628583613528565b94505b600087815260cd602090815260408083206001600160a01b038a811680865291909352928190205460c9549151631aeb9fab60e31b8152600481018c905260248101949094529291169063d75cfd589060440160206040518083038186803b1580156139d057600080fd5b505afa1580156139e4573d6000803e3d6000fd5b505050506040513d601f19601f82011682018060405250810190613a0891906149eb565b1015613a945760405162461bcd60e51b815260206004820152604f60248201527f434c4d383a3a5f766572696679526574697265643a207468652072657469726560448201527f642062616c616e63652065786365656473207768617420686173206265656e2060648201526e1c995c1bdc9d1959081a5b88139155608a1b608482015260a4016107c9565b509295945050505050565b600084815260cb6020908152604080832086845260028901909252909120548314613b4757600084815260028701602052604090205415613b145760008481526002870160209081526040808320546004850190925290912054613b0291613528565b60008581526004830160205260409020555b8215613b47576000848152600482016020526040902054613b359084613510565b60008581526004830160205260409020555b60008481526003870160205260409020548214613be157600084815260038701602052604090205415613bae5760008481526003870160209081526040808320546004850190925290912054613b9c91613528565b60008581526004830160205260409020555b8115613be1576000848152600482016020526040902054613bcf9083613510565b60008581526004830160205260409020555b60008481526003820160209081526040808320546004850190925290912054612f3c9190610ebe565b6000818314158015613c1c5750600083115b15613c7e57600084815260ce602090815260408083206001600160a01b0389168452909152902054613c4e9084613528565b600085815260ce602090815260408083206001600160a01b038a168452909152902055613c7b8684613528565b95505b8115613e6157600084815260ce602090815260408083206001600160a01b0389168452909152902054613cb19083613510565b600085815260ce602090815260408083206001600160a01b038a168452909152902055613cde8683613510565b600085815260ce602090815260408083206001600160a01b038a811680865291909352928190205460c95491516307b9f04f60e51b8152600481018a90526024810194909452939950169063f73e09e09060440160206040518083038186803b158015613d4a57600080fd5b505afa158015613d5e573d6000803e3d6000fd5b505050506040513d601f19601f82011682018060405250810190613d8291906149eb565b1015613e1c5760405162461bcd60e51b815260206004820152605760248201527f434c4d383a3a5f7665726966795472616e736665727265643a2074686520747260448201527f616e736665727265642062616c616e636520657863656564732077686174206860648201527f6173206265656e207265706f7274656420696e204e4554000000000000000000608482015260a4016107c9565b846001600160a01b0316847f30bae3d5019f14a46c7a32a6791d0279bef1da7b54f09ddae4a27f8868c79d6c84604051613e5891815260200190565b60405180910390a35b5093949350505050565b600083815260018501602052604090205482151580613e8a5750600082115b15613ee65780613ebf578454600181810187556000878152602080822090930187905587548782529188019092526040909120555b60008481526002860160209081526040808320869055600388019091529020829055612f3e565b845460011015613fb65784548590613f0090600190615129565b81548110613f1e57634e487b7160e01b600052603260045260246000fd5b60009182526020909120015485613f36600184615129565b81548110613f5457634e487b7160e01b600052603260045260246000fd5b90600052602060002001819055508085600101600087600001600185613f7a9190615129565b81548110613f9857634e487b7160e01b600052603260045260246000fd5b90600052602060002001548152602001908152602001600020819055505b60008481526001808701602090815260408084208490556002890182528084208490556003890190915282209190915585548691613ff391615129565b8154811061401157634e487b7160e01b600052603260045260246000fd5b60009182526020822001555050505050565b6000838152600183016020526040902054811561407d57600084118015614048575080155b15614078578254600181810185556000858152602080822090930187905585548782529186019092526040909120555b611e93565b60008411801561408d5750600081115b156141ae5782546001101561416257825483906140ac90600190615129565b815481106140ca57634e487b7160e01b600052603260045260246000fd5b600091825260209091200154836140e2600184615129565b8154811061410057634e487b7160e01b600052603260045260246000fd5b906000526020600020018190555080836001016000856000016001856141269190615129565b8154811061414457634e487b7160e01b600052603260045260246000fd5b90600052602060002001548152602001908152602001600020819055505b6000848152600180850160205260408220919091558354849161418491615129565b815481106141a257634e487b7160e01b600052603260045260246000fd5b60009182526020822001555b6000848152600284016020526040812090612f3c82826145aa565b606060006141d883600261510a565b6141e39060026150de565b67ffffffffffffffff81111561420957634e487b7160e01b600052604160045260246000fd5b6040519080825280601f01601f191660200182016040528015614233576020820181803683370190505b509050600360fc1b8160008151811061425c57634e487b7160e01b600052603260045260246000fd5b60200101906001600160f81b031916908160001a905350600f60fb1b8160018151811061429957634e487b7160e01b600052603260045260246000fd5b60200101906001600160f81b031916908160001a90535060006142bd84600261510a565b6142c89060016150de565b90505b600181111561435c576f181899199a1a9b1b9c1cb0b131b232b360811b85600f166010811061430a57634e487b7160e01b600052603260045260246000fd5b1a60f81b82828151811061432e57634e487b7160e01b600052603260045260246000fd5b60200101906001600160f81b031916908160001a90535060049490941c936143558161516c565b90506142cb565b50831561194a5760405162461bcd60e51b815260206004820181905260248201527f537472696e67733a20686578206c656e67746820696e73756666696369656e7460448201526064016107c9565b600054610100900460ff166143d25760405162461bcd60e51b81526004016107c990614ed8565b81516143e5906065906020850190614526565b5080516108ff906066906020840190614526565b60006001600160a01b0384163b156144fb57604051630a85bd0160e11b81526001600160a01b0385169063150b7a029061443d903390899088908890600401614cc2565b602060405180830381600087803b15801561445757600080fd5b505af1925050508015614487575060408051601f3d908101601f19168201909252614484918101906149cf565b60015b6144e1573d8080156144b5576040519150601f19603f3d011682016040523d82523d6000602084013e6144ba565b606091505b5080516144d95760405162461bcd60e51b81526004016107c990614dd8565b805181602001fd5b6001600160e01b031916630a85bd0160e11b149050611993565b506001949350505050565b604051806120200160405280610101906020820280368337509192915050565b82805461453290615183565b90600052602060002090601f016020900481019282614554576000855561459a565b82601f1061456d57805160ff191683800117855561459a565b8280016001018555821561459a579182015b8281111561459a57825182559160200191906001019061457f565b506145a69291506145c4565b5090565b50805460008255906000526020600020908101906136a991905b5b808211156145a657600081556001016145c5565b600067ffffffffffffffff8311156145f3576145f3615219565b614606601f8401601f19166020016150ad565b905082815283838301111561461a57600080fd5b828260208301376000602084830101529392505050565b80356001600160a01b03811681146106bd57600080fd5b600082601f830112614658578081fd5b8135602067ffffffffffffffff82111561467457614674615219565b8160051b6146838282016150ad565b83815282810190868401838801850189101561469d578687fd5b8693505b858410156146bf5780358352600193909301929184019184016146a1565b50979650505050505050565b600082601f8301126146db578081fd5b61194a838335602085016145d9565b6000602082840312156146fb578081fd5b61194a82614631565b60008060408385031215614716578081fd5b61471f83614631565b915061472d60208401614631565b90509250929050565b60008060006060848603121561474a578081fd5b61475384614631565b925061476160208501614631565b9150604084013590509250925092565b60008060008060808587031215614786578081fd5b61478f85614631565b935061479d60208601614631565b925060408501359150606085013567ffffffffffffffff8111156147bf578182fd5b8501601f810187136147cf578182fd5b6147de878235602084016145d9565b91505092959194509250565b60008060008060008060008060006101208a8c031215614808578485fd5b6148118a614631565b985060208a013567ffffffffffffffff8082111561482d578687fd5b6148398d838e01614648565b995060408c013591508082111561484e578687fd5b61485a8d838e01614648565b985060608c013591508082111561486f578687fd5b61487b8d838e01614648565b975060808c0135915080821115614890578687fd5b61489c8d838e01614648565b965060a08c0135955060c08c0135945060e08c01359150808211156148bf578384fd5b6148cb8d838e016146cb565b93506101008c01359150808211156148e1578283fd5b506148ee8c828d016146cb565b9150509295985092959850929598565b60008060408385031215614910578182fd5b61491983614631565b915060208301356149298161522f565b809150509250929050565b60008060408385031215614946578182fd5b61494f83614631565b946020939093013593505050565b60006020828403121561496e578081fd5b815161194a8161522f565b60006020828403121561498a578081fd5b5035919050565b600080604083850312156149a3578182fd5b8235915061472d60208401614631565b6000602082840312156149c4578081fd5b813561194a8161523d565b6000602082840312156149e0578081fd5b815161194a8161523d565b6000602082840312156149fc578081fd5b5051919050565b60008060008060008060008060006101208a8c031215614a21578283fd5b8935985060208a013567ffffffffffffffff80821115614a3f578485fd5b614a4b8d838e01614648565b995060408c0135915080821115614a60578485fd5b614a6c8d838e01614648565b985060608c0135915080821115614a81578485fd5b614a8d8d838e01614648565b975060808c0135915080821115614890578485fd5b60008060408385031215614ab4578182fd5b50508035926020909101359150565b600080600060608486031215614ad7578081fd5b505081359360208301359350604090920135919050565b60008060408385031215614b00578182fd5b82359150602083013561492981615253565b6000806000612060808587031215614b28578182fd5b84359350602080860135614b3b81615253565b9350605f86018713614b4b578283fd5b614b566120206150ad565b806040880189858a011115614b69578586fd5b8594505b610101851015614b8d578035835260019490940193918301918301614b6d565b50809450505050509250925092565b600060208284031215614bad578081fd5b815161194a81615253565b6000815180845260208085019450808401835b83811015614be757815187529582019590820190600101614bcb565b509495945050505050565b60008151808452614c0a816020860160208601615140565b601f01601f19169290920160200192915050565b60008351614c30818460208801615140565b835190830190614c44818360208801615140565b01949350505050565b60007f416363657373436f6e74726f6c3a206163636f756e742000000000000000000082528351614c85816017850160208801615140565b7001034b99036b4b9b9b4b733903937b6329607d1b6017918401918201528351614cb6816028840160208801615140565b01602801949350505050565b6001600160a01b0385811682528416602082015260408101839052608060608201819052600090614cf590830184614bf2565b9695505050505050565b60006020825261194a6020830184614bb8565b600060608252614d256060830186614bb8565b8281036020840152614d378186614bb8565b90508281036040840152614cf58185614bb8565b600060808252614d5e6080830187614bb8565b8281036020840152614d708187614bb8565b90508281036040840152614d848186614bb8565b90508281036060840152614d988185614bb8565b979650505050505050565b600060408252614db66040830185614bb8565b90508260208301529392505050565b60006020825261194a6020830184614bf2565b60208082526032908201527f4552433732313a207472616e7366657220746f206e6f6e20455243373231526560408201527131b2b4bb32b91034b6b83632b6b2b73a32b960711b606082015260800190565b6020808252603a908201527f434c4d383a3a747261636b6572546f6b656e6b4578697374733a20747261636b60408201527f657220746f6b656e20494420646f6573206e6f74206578697374000000000000606082015260800190565b60208082526031908201527f4552433732313a207472616e736665722063616c6c6572206973206e6f74206f6040820152701ddb995c881b9bdc88185c1c1c9bdd9959607a1b606082015260800190565b6020808252602b908201527f496e697469616c697a61626c653a20636f6e7472616374206973206e6f74206960408201526a6e697469616c697a696e6760a81b606082015260800190565b6020808252602e908201527f434c4d383a3a6e6f74417564697465643a20747261636b65724964206973206160408201526d1b1c9958591e48185d591a5d195960921b606082015260800190565b600060208252825160208301526020830151614f9860408401826001600160a01b03169052565b5060408301516001600160a01b03811660608401525060608301516080830152608083015160a083015260a083015160c083015260c083015160e083015260e08301516101008181850152808501519150506101208181850152808501519150506101606101408181860152615012610180860184614bf2565b90860151858203601f190183870152909250614cf58382614bf2565b60006101608d835260018060a01b03808e166020850152808d166040850152508a60608401528960808401528860a08401528760c08401528660e0840152856101008401528061012084015261508681840186614bf2565b905082810361014084015261509b8185614bf2565b9e9d5050505050505050505050505050565b604051601f8201601f1916810167ffffffffffffffff811182821017156150d6576150d6615219565b604052919050565b600082198211156150f1576150f16151ed565b500190565b60008261510557615105615203565b500490565b6000816000190483118215151615615124576151246151ed565b500290565b60008282101561513b5761513b6151ed565b500390565b60005b8381101561515b578181015183820152602001615143565b83811115611e935750506000910152565b60008161517b5761517b6151ed565b506000190190565b600181811c9082168061519757607f821691505b602082108114156151b857634e487b7160e01b600052602260045260246000fd5b50919050565b60006000198214156151d2576151d26151ed565b5060010190565b6000826151e8576151e8615203565b500690565b634e487b7160e01b600052601160045260246000fd5b634e487b7160e01b600052601260045260246000fd5b634e487b7160e01b600052604160045260246000fd5b80151581146136a957600080fd5b6001600160e01b0319811681146136a957600080fd5b60ff811681146136a957600080fdfe4f9730948b73761de8f37a0aea1760c5eef658d37d8c456767b81e17c01f30eda2646970667358221220cd3b7505bc465664e60191acb36d284f758efb3408377b528f52c64a48810f4f64736f6c63430008030033",
  "linkReferences": {},
  "deployedLinkReferences": {}
}