{
  "_format": "hh-sol-artifact-1",
  "contractName": "DAOToken",
  "sourceName": "contracts/Governance/DAOToken.sol",
  "abi": [
    {
      "inputs": [
        {
          "internalType": "address",
          "name": "account",
          "type": "address"
        }
      ],
      "stateMutability": "nonpayable",
      "type": "constructor"
    },
    {
      "anonymous": false,
      "inputs": [
        {
          "indexed": true,
          "internalType": "address",
          "name": "owner",
          "type": "address"
        },
        {
          "indexed": true,
          "internalType": "address",
          "name": "spender",
          "type": "address"
        },
        {
          "indexed": false,
          "internalType": "uint256",
          "name": "amount",
          "type": "uint256"
        }
      ],
      "name": "Approval",
      "type": "event"
    },
    {
      "anonymous": false,
      "inputs": [
        {
          "indexed": true,
          "internalType": "address",
          "name": "delegator",
          "type": "address"
        },
        {
          "indexed": true,
          "internalType": "address",
          "name": "fromDelegate",
          "type": "address"
        },
        {
          "indexed": true,
          "internalType": "address",
          "name": "toDelegate",
          "type": "address"
        }
      ],
      "name": "DelegateChanged",
      "type": "event"
    },
    {
      "anonymous": false,
      "inputs": [
        {
          "indexed": true,
          "internalType": "address",
          "name": "delegate",
          "type": "address"
        },
        {
          "indexed": false,
          "internalType": "uint256",
          "name": "previousBalance",
          "type": "uint256"
        },
        {
          "indexed": false,
          "internalType": "uint256",
          "name": "newBalance",
          "type": "uint256"
        }
      ],
      "name": "DelegateVotesChanged",
      "type": "event"
    },
    {
      "anonymous": false,
      "inputs": [
        {
          "indexed": true,
          "internalType": "address",
          "name": "from",
          "type": "address"
        },
        {
          "indexed": true,
          "internalType": "address",
          "name": "to",
          "type": "address"
        },
        {
          "indexed": false,
          "internalType": "uint256",
          "name": "amount",
          "type": "uint256"
        }
      ],
      "name": "Transfer",
      "type": "event"
    },
    {
      "inputs": [],
      "name": "DELEGATION_TYPEHASH",
      "outputs": [
        {
          "internalType": "bytes32",
          "name": "",
          "type": "bytes32"
        }
      ],
      "stateMutability": "view",
      "type": "function"
    },
    {
      "inputs": [],
      "name": "DOMAIN_TYPEHASH",
      "outputs": [
        {
          "internalType": "bytes32",
          "name": "",
          "type": "bytes32"
        }
      ],
      "stateMutability": "view",
      "type": "function"
    },
    {
      "inputs": [
        {
          "internalType": "address",
          "name": "account",
          "type": "address"
        },
        {
          "internalType": "uint96",
          "name": "amount",
          "type": "uint96"
        }
      ],
      "name": "_burn",
      "outputs": [],
      "stateMutability": "nonpayable",
      "type": "function"
    },
    {
      "inputs": [
        {
          "internalType": "address",
          "name": "src",
          "type": "address"
        },
        {
          "internalType": "uint96",
          "name": "amount",
          "type": "uint96"
        }
      ],
      "name": "_lockTokens",
      "outputs": [],
      "stateMutability": "nonpayable",
      "type": "function"
    },
    {
      "inputs": [
        {
          "internalType": "address",
          "name": "account",
          "type": "address"
        },
        {
          "internalType": "address",
          "name": "spender",
          "type": "address"
        }
      ],
      "name": "allowance",
      "outputs": [
        {
          "internalType": "uint256",
          "name": "",
          "type": "uint256"
        }
      ],
      "stateMutability": "view",
      "type": "function"
    },
    {
      "inputs": [
        {
          "internalType": "address",
          "name": "spender",
          "type": "address"
        },
        {
          "internalType": "uint256",
          "name": "rawAmount",
          "type": "uint256"
        }
      ],
      "name": "approve",
      "outputs": [
        {
          "internalType": "bool",
          "name": "",
          "type": "bool"
        }
      ],
      "stateMutability": "nonpayable",
      "type": "function"
    },
    {
      "inputs": [
        {
          "internalType": "address",
          "name": "account",
          "type": "address"
        }
      ],
      "name": "balanceOf",
      "outputs": [
        {
          "internalType": "uint256",
          "name": "",
          "type": "uint256"
        }
      ],
      "stateMutability": "view",
      "type": "function"
    },
    {
      "inputs": [
        {
          "internalType": "address",
          "name": "",
          "type": "address"
        },
        {
          "internalType": "uint32",
          "name": "",
          "type": "uint32"
        }
      ],
      "name": "checkpoints",
      "outputs": [
        {
          "internalType": "uint32",
          "name": "fromBlock",
          "type": "uint32"
        },
        {
          "internalType": "uint96",
          "name": "votes",
          "type": "uint96"
        }
      ],
      "stateMutability": "view",
      "type": "function"
    },
    {
      "inputs": [],
      "name": "decimals",
      "outputs": [
        {
          "internalType": "uint8",
          "name": "",
          "type": "uint8"
        }
      ],
      "stateMutability": "view",
      "type": "function"
    },
    {
      "inputs": [
        {
          "internalType": "address",
          "name": "delegatee",
          "type": "address"
        }
      ],
      "name": "delegate",
      "outputs": [],
      "stateMutability": "nonpayable",
      "type": "function"
    },
    {
      "inputs": [
        {
          "internalType": "address",
          "name": "delegatee",
          "type": "address"
        },
        {
          "internalType": "uint256",
          "name": "nonce",
          "type": "uint256"
        },
        {
          "internalType": "uint256",
          "name": "expiry",
          "type": "uint256"
        },
        {
          "internalType": "uint8",
          "name": "v",
          "type": "uint8"
        },
        {
          "internalType": "bytes32",
          "name": "r",
          "type": "bytes32"
        },
        {
          "internalType": "bytes32",
          "name": "s",
          "type": "bytes32"
        }
      ],
      "name": "delegateBySig",
      "outputs": [],
      "stateMutability": "nonpayable",
      "type": "function"
    },
    {
      "inputs": [
        {
          "internalType": "address",
          "name": "",
          "type": "address"
        }
      ],
      "name": "delegates",
      "outputs": [
        {
          "internalType": "address",
          "name": "",
          "type": "address"
        }
      ],
      "stateMutability": "view",
      "type": "function"
    },
    {
      "inputs": [
        {
          "internalType": "address",
          "name": "account",
          "type": "address"
        }
      ],
      "name": "getCurrentVotes",
      "outputs": [
        {
          "internalType": "uint96",
          "name": "",
          "type": "uint96"
        }
      ],
      "stateMutability": "view",
      "type": "function"
    },
    {
      "inputs": [],
      "name": "getInitialHolder",
      "outputs": [
        {
          "internalType": "address",
          "name": "",
          "type": "address"
        }
      ],
      "stateMutability": "view",
      "type": "function"
    },
    {
      "inputs": [
        {
          "internalType": "address",
          "name": "account",
          "type": "address"
        },
        {
          "internalType": "uint256",
          "name": "blockNumber",
          "type": "uint256"
        }
      ],
      "name": "getPriorVotes",
      "outputs": [
        {
          "internalType": "uint96",
          "name": "",
          "type": "uint96"
        }
      ],
      "stateMutability": "view",
      "type": "function"
    },
    {
      "inputs": [],
      "name": "getTotalSupply",
      "outputs": [
        {
          "internalType": "uint256",
          "name": "",
          "type": "uint256"
        }
      ],
      "stateMutability": "view",
      "type": "function"
    },
    {
      "inputs": [],
      "name": "governor",
      "outputs": [
        {
          "internalType": "address",
          "name": "",
          "type": "address"
        }
      ],
      "stateMutability": "view",
      "type": "function"
    },
    {
      "inputs": [],
      "name": "initialHolder",
      "outputs": [
        {
          "internalType": "address",
          "name": "",
          "type": "address"
        }
      ],
      "stateMutability": "view",
      "type": "function"
    },
    {
      "inputs": [],
      "name": "name",
      "outputs": [
        {
          "internalType": "string",
          "name": "",
          "type": "string"
        }
      ],
      "stateMutability": "view",
      "type": "function"
    },
    {
      "inputs": [
        {
          "internalType": "address",
          "name": "",
          "type": "address"
        }
      ],
      "name": "nonces",
      "outputs": [
        {
          "internalType": "uint256",
          "name": "",
          "type": "uint256"
        }
      ],
      "stateMutability": "view",
      "type": "function"
    },
    {
      "inputs": [
        {
          "internalType": "address",
          "name": "",
          "type": "address"
        }
      ],
      "name": "numCheckpoints",
      "outputs": [
        {
          "internalType": "uint32",
          "name": "",
          "type": "uint32"
        }
      ],
      "stateMutability": "view",
      "type": "function"
    },
    {
      "inputs": [
        {
          "internalType": "address",
          "name": "newGovernor",
          "type": "address"
        }
      ],
      "name": "setGovernor",
      "outputs": [],
      "stateMutability": "nonpayable",
      "type": "function"
    },
    {
      "inputs": [],
      "name": "symbol",
      "outputs": [
        {
          "internalType": "string",
          "name": "",
          "type": "string"
        }
      ],
      "stateMutability": "view",
      "type": "function"
    },
    {
      "inputs": [],
      "name": "totalSupply",
      "outputs": [
        {
          "internalType": "uint256",
          "name": "",
          "type": "uint256"
        }
      ],
      "stateMutability": "view",
      "type": "function"
    },
    {
      "inputs": [
        {
          "internalType": "address",
          "name": "dst",
          "type": "address"
        },
        {
          "internalType": "uint256",
          "name": "rawAmount",
          "type": "uint256"
        }
      ],
      "name": "transfer",
      "outputs": [
        {
          "internalType": "bool",
          "name": "",
          "type": "bool"
        }
      ],
      "stateMutability": "nonpayable",
      "type": "function"
    },
    {
      "inputs": [
        {
          "internalType": "address",
          "name": "src",
          "type": "address"
        },
        {
          "internalType": "address",
          "name": "dst",
          "type": "address"
        },
        {
          "internalType": "uint256",
          "name": "rawAmount",
          "type": "uint256"
        }
      ],
      "name": "transferFrom",
      "outputs": [
        {
          "internalType": "bool",
          "name": "",
          "type": "bool"
        }
      ],
      "stateMutability": "nonpayable",
      "type": "function"
    }
  ],
  "bytecode": "0x60806040526a084595161401484a000000600055600280546001600160a01b03191690553480156200003057600080fd5b5060405162001f7b38038062001f7b8339810160408190526200005391620000e2565b600080546001600160a01b0383168083526004602052604080842080546001600160601b0319166001600160601b0390941693909317909255600180546001600160a01b03191682179055825491519092917fddf252ad1be2c89b69c2b068fc378daa952ba7f163c4a11628f55a4df523b3ef91620000d3919062000112565b60405180910390a3506200011b565b600060208284031215620000f4578081fd5b81516001600160a01b03811681146200010b578182fd5b9392505050565b90815260200190565b611e50806200012b6000396000f3fe608060405234801561001057600080fd5b506004361061018e5760003560e01c8063782d6fe1116100de578063b72218e311610097578063c4e41b2211610071578063c4e41b2214610343578063dd62ed3e1461034b578063e7a324dc1461035e578063f1127ed8146103665761018e565b8063b72218e314610315578063c3cda5201461031d578063c42cf535146103305761018e565b8063782d6fe1146102ac5780637ecebe00146102cc57806395d89b41146102df578063a9059cbb146102e7578063ae80d9de146102fa578063b4b5ea57146103025761018e565b8063313ce5671161014b5780635c19a95c116101255780635c19a95c146102535780636fcfff451461026657806370a082311461028657806372d3ee9e146102995761018e565b8063313ce567146102165780633b2d52ac1461022b578063587cde1e146102405761018e565b806306fdde0314610193578063095ea7b3146101b15780630c340a24146101d157806318160ddd146101e657806320606b70146101fb57806323b872dd14610203575b600080fd5b61019b610387565b6040516101a89190611848565b60405180910390f35b6101c46101bf3660046116a0565b6103b4565b6040516101a891906117ce565b6101d9610473565b6040516101a891906117ba565b6101ee610482565b6040516101a891906117d9565b6101ee610488565b6101c4610211366004611660565b6104ac565b61021e610646565b6040516101a89190611c50565b61023e610239366004611768565b61064b565b005b6101d961024e366004611611565b6107ae565b61023e610261366004611611565b6107c9565b610279610274366004611611565b6107d6565b6040516101a89190611c20565b6101ee610294366004611611565b6107ee565b61023e6102a7366004611768565b610812565b6102bf6102ba3660046116a0565b610929565b6040516101a89190611c5e565b6101ee6102da366004611611565b610b37565b61019b610b49565b6101c46102f53660046116a0565b610b6a565b6101d9610beb565b6102bf610310366004611611565b610bfa565b6101d9610c6b565b61023e61032b3660046116ca565b610c7a565b61023e61033e366004611611565b610e89565b6101ee610ed5565b6101ee61035936600461162c565b610edb565b6101ee610f0f565b610379610374366004611729565b610f33565b6040516101a8929190611c31565b6040518060400160405280601181526020017021b634b6b0ba32902220a7902a37b5b2b760791b81525081565b6000806000198314156103ca57506000196103ef565b6103ec83604051806060016040528060268152602001611d9760269139610f68565b90505b3360008181526003602090815260408083206001600160a01b03891680855292529182902080546001600160601b0319166001600160601b03861617905590519091907f8c5be1e5ebec7d5bd14f71427d1e84f3dd0314c0f7b2291e5b200ac8c7c3b9259061045f908590611c5e565b60405180910390a360019150505b92915050565b6002546001600160a01b031681565b60005481565b7f8cad95687ba82c2ce50e74f7b754645e5117c3a5bec8151c0726d5857980a86681565b6001546000906001600160a01b038581169116148015906104db57506002546001600160a01b03858116911614155b156105015760405162461bcd60e51b81526004016104f890611a15565b60405180910390fd5b6001600160a01b03841660009081526003602090815260408083203380855290835281842054825160608101909352602680845291946001600160601b03909116939092610557928892611d9790830139610f68565b9050866001600160a01b0316836001600160a01b03161415801561058457506001600160601b0382811614155b1561062e5760006105ae83836040518060600160405280603e8152602001611d59603e9139610f97565b6001600160a01b038981166000818152600360209081526040808320948a16808452949091529081902080546001600160601b0319166001600160601b0386161790555192935090917f8c5be1e5ebec7d5bd14f71427d1e84f3dd0314c0f7b2291e5b200ac8c7c3b92590610624908590611c5e565b60405180910390a3505b610639878783610fd6565b5060019695505050505050565b601281565b6002546001600160a01b031633146106755760405162461bcd60e51b81526004016104f89061192e565b6001600160a01b0382166000908152600460209081526040918290205482516060810190935260378084526106c0936001600160601b039092169285929190611cca90830139610f97565b6001600160a01b03838116600090815260046020908152604080832080546001600160601b0319166001600160601b0396871617905560025490931682529082902054825160608101909352603180845261072b9491909116928592909190611d01908301396111af565b600280546001600160a01b039081166000908152600460205260409081902080546001600160601b0319166001600160601b0395909516949094179093559054915191811691908416907fddf252ad1be2c89b69c2b068fc378daa952ba7f163c4a11628f55a4df523b3ef906107a2908590611c5e565b60405180910390a35050565b6005602052600090815260409020546001600160a01b031681565b6107d333826111eb565b50565b60076020526000908152604090205463ffffffff1681565b6001600160a01b03166000908152600460205260409020546001600160601b031690565b6001600160a01b0382166108385760405162461bcd60e51b81526004016104f890611bd8565b6002546001600160a01b031633146108625760405162461bcd60e51b81526004016104f890611ba1565b6001600160a01b0382166000908152600460205260409020546001600160601b039081169082168110156108a85760405162461bcd60e51b81526004016104f89061189b565b6001600160a01b03831660008181526004602052604080822080546001600160601b0319168686036001600160601b0390811691909117909155825490861690038255519091907fddf252ad1be2c89b69c2b068fc378daa952ba7f163c4a11628f55a4df523b3ef9061091c908690611c5e565b60405180910390a3505050565b600043821061094a5760405162461bcd60e51b81526004016104f890611a72565b6001600160a01b03831660009081526007602052604090205463ffffffff168061097857600091505061046d565b6001600160a01b038416600090815260066020908152604080832063ffffffff6000198601811685529252909120541683106109f4576001600160a01b03841660009081526006602090815260408083206000199490940163ffffffff1683529290522054600160201b90046001600160601b0316905061046d565b6001600160a01b038416600090815260066020908152604080832083805290915290205463ffffffff16831015610a2f57600091505061046d565b600060001982015b8163ffffffff168163ffffffff161115610af257600282820363ffffffff16048103610a616115e3565b506001600160a01b038716600090815260066020908152604080832063ffffffff858116855290835292819020815180830190925254928316808252600160201b9093046001600160601b03169181019190915290871415610acd5760200151945061046d9350505050565b805163ffffffff16871115610ae457819350610aeb565b6001820392505b5050610a37565b506001600160a01b038516600090815260066020908152604080832063ffffffff909416835292905220546001600160601b03600160201b9091041691505092915050565b60086020526000908152604090205481565b604051806040016040528060058152602001640c886989a760db1b81525081565b6001546000906001600160a01b03163314801590610b9357506002546001600160a01b03163314155b15610bb05760405162461bcd60e51b81526004016104f890611a15565b6000610bd483604051806060016040528060278152602001611d3260279139610f68565b9050610be1338583610fd6565b5060019392505050565b6001546001600160a01b031690565b6001600160a01b03811660009081526007602052604081205463ffffffff1680610c25576000610c64565b6001600160a01b0383166000908152600660209081526040808320600019850163ffffffff168452909152902054600160201b90046001600160601b03165b9392505050565b6001546001600160a01b031681565b60408051808201909152601181527021b634b6b0ba32902220a7902a37b5b2b760791b60209091015260007f8cad95687ba82c2ce50e74f7b754645e5117c3a5bec8151c0726d5857980a8667f7c75c83381dcf4c0e5ba36df2cc653b50dcd8f69236256411bc04c9f677ed4c0610cef611275565b30604051602001610d039493929190611806565b60405160208183030381529060405280519060200120905060007fe48329057bfd03d55e49b547132e39cffd9c1820ad7b9d4c5307691425d15adf888888604051602001610d5494939291906117e2565b60405160208183030381529060405280519060200120905060008282604051602001610d8192919061179f565b604051602081830303815290604052805190602001209050600060018288888860405160008152602001604052604051610dbe949392919061182a565b6020604051602081039080840390855afa158015610de0573d6000803e3d6000fd5b5050604051601f1901519150506001600160a01b038116610e135760405162461bcd60e51b81526004016104f890611971565b6001600160a01b03811660009081526008602052604090208054600181019091558914610e525760405162461bcd60e51b81526004016104f890611aba565b87421115610e725760405162461bcd60e51b81526004016104f890611b5a565b610e7c818b6111eb565b505050505b505050505050565b6001546001600160a01b03163314610eb35760405162461bcd60e51b81526004016104f8906118e4565b600280546001600160a01b0319166001600160a01b0392909216919091179055565b60005490565b6001600160a01b0391821660009081526003602090815260408083209390941682529190915220546001600160601b031690565b7fe48329057bfd03d55e49b547132e39cffd9c1820ad7b9d4c5307691425d15adf81565b600660209081526000928352604080842090915290825290205463ffffffff811690600160201b90046001600160601b031682565b600081600160601b8410610f8f5760405162461bcd60e51b81526004016104f89190611848565b509192915050565b6000836001600160601b0316836001600160601b031611158290610fce5760405162461bcd60e51b81526004016104f89190611848565b505050900390565b6001600160a01b038316610ffc5760405162461bcd60e51b81526004016104f890611afd565b6001600160a01b0382166110225760405162461bcd60e51b81526004016104f8906119b8565b6001600160a01b03831660009081526004602090815260409182902054825160608101909352603780845261106d936001600160601b039092169285929190611cca90830139610f97565b6001600160a01b03848116600090815260046020908152604080832080546001600160601b0319166001600160601b039687161790559286168252908290205482516060810190935260318084526110d59491909116928592909190611d01908301396111af565b6001600160a01b038381166000818152600460205260409081902080546001600160601b0319166001600160601b0395909516949094179093559151908516907fddf252ad1be2c89b69c2b068fc378daa952ba7f163c4a11628f55a4df523b3ef90611142908590611c5e565b60405180910390a36001600160a01b03828116600090815260056020526040902054166111785761117382836111eb565b6111aa565b6001600160a01b038084166000908152600560205260408082205485841683529120546111aa92918216911683611279565b505050565b6000838301826001600160601b0380871690831610156111e25760405162461bcd60e51b81526004016104f89190611848565b50949350505050565b6001600160a01b03808316600081815260056020818152604080842080546004845282862054949093528787166001600160a01b031984168117909155905191909516946001600160601b039092169391928592917f3134e8a2e6d97e929a7e54011ea5485d7d196dd5f0ba4d4ef95803e8e3fc257f9190a461126f828483611279565b50505050565b4690565b816001600160a01b0316836001600160a01b0316141580156112a457506000816001600160601b0316115b156111aa576001600160a01b0383161561135c576001600160a01b03831660009081526007602052604081205463ffffffff1690816112e4576000611323565b6001600160a01b0385166000908152600660209081526040808320600019860163ffffffff168452909152902054600160201b90046001600160601b03165b9050600061134a8285604051806060016040528060298152602001611dbd60299139610f97565b905061135886848484611407565b5050505b6001600160a01b038216156111aa576001600160a01b03821660009081526007602052604081205463ffffffff1690816113975760006113d6565b6001600160a01b0384166000908152600660209081526040808320600019860163ffffffff168452909152902054600160201b90046001600160601b03165b905060006113fd8285604051806060016040528060288152602001611ca2602891396111af565b9050610e81858484845b600061142b43604051806060016040528060358152602001611de6603591396115bc565b905060008463ffffffff1611801561147457506001600160a01b038516600090815260066020908152604080832063ffffffff6000198901811685529252909120548282169116145b156114d3576001600160a01b0385166000908152600660209081526040808320600019880163ffffffff168452909152902080546fffffffffffffffffffffffff000000001916600160201b6001600160601b03851602179055611572565b60408051808201825263ffffffff80841682526001600160601b0380861660208085019182526001600160a01b038b166000818152600683528781208c871682528352878120965187549451909516600160201b026fffffffffffffffffffffffff000000001995871663ffffffff19958616179590951694909417909555938252600790935292909220805460018801909316929091169190911790555b846001600160a01b03167fdec2bacdd2f05b59de34da9b523dff8be42e5e38e818c82fdb0bae774387a72484846040516115ad929190611c72565b60405180910390a25050505050565b600081600160201b8410610f8f5760405162461bcd60e51b81526004016104f89190611848565b604080518082019091526000808252602082015290565b80356001600160a01b038116811461046d57600080fd5b600060208284031215611622578081fd5b610c6483836115fa565b6000806040838503121561163e578081fd5b61164884846115fa565b915061165784602085016115fa565b90509250929050565b600080600060608486031215611674578081fd5b833561167f81611c8c565b9250602084013561168f81611c8c565b929592945050506040919091013590565b600080604083850312156116b2578182fd5b6116bc84846115fa565b946020939093013593505050565b60008060008060008060c087890312156116e2578182fd5b6116ec88886115fa565b95506020870135945060408701359350606087013560ff8116811461170f578283fd5b9598949750929560808101359460a0909101359350915050565b6000806040838503121561173b578182fd5b61174584846115fa565b9150602083013563ffffffff8116811461175d578182fd5b809150509250929050565b6000806040838503121561177a578182fd5b61178484846115fa565b915060208301356001600160601b038116811461175d578182fd5b61190160f01b81526002810192909252602282015260420190565b6001600160a01b0391909116815260200190565b901515815260200190565b90815260200190565b9384526001600160a01b039290921660208401526040830152606082015260800190565b938452602084019290925260408301526001600160a01b0316606082015260800190565b93845260ff9290921660208401526040830152606082015260800190565b6000602080835283518082850152825b8181101561187457858101830151858201604001528201611858565b818111156118855783604083870101525b50601f01601f1916929092016040019392505050565b60208082526029908201527f64434c4d383a3a5f6275726e3a206275726e20616d6f756e7420657863656564604082015268732062616c616e636560b81b606082015260800190565b6020808252602a908201527f64434c4d383a3a736574476f7665726e6f723a206d75737420626520696e697460408201526934b0b6103437b63232b960b11b606082015260800190565b60208082526023908201527f64434c4d383a3a6c6f636b546f6b656e733a206d75737420626520676f7665726040820152623737b960e91b606082015260800190565b60208082526027908201527f64434c4d383a3a64656c656761746542795369673a20696e76616c6964207369604082015266676e617475726560c81b606082015260800190565b6020808252603b908201527f64434c4d383a3a5f7472616e73666572546f6b656e733a2063616e6e6f74207460408201527f72616e7366657220746f20746865207a65726f20616464726573730000000000606082015260800190565b6020808252603e908201527f64434c4d383a3a7472616e736665723a2073656e646572206d7573742062652060408201527f696e697469616c20686f6c646572206f722044414f20676f7665726e6f720000606082015260800190565b60208082526028908201527f64434c4d383a3a6765745072696f72566f7465733a206e6f74207965742064656040820152671d195c9b5a5b995960c21b606082015260800190565b60208082526023908201527f64434c4d383a3a64656c656761746542795369673a20696e76616c6964206e6f6040820152626e636560e81b606082015260800190565b6020808252603d908201527f64434c4d383a3a5f7472616e73666572546f6b656e733a2063616e6e6f74207460408201527f72616e736665722066726f6d20746865207a65726f2061646472657373000000606082015260800190565b60208082526027908201527f64434c4d383a3a64656c656761746542795369673a207369676e617475726520604082015266195e1c1a5c995960ca1b606082015260800190565b6020808252601e908201527f64434c4d383a3a5f6275726e3a206d75737420626520676f7665726e6f720000604082015260600190565b60208082526028908201527f64434c4d383a3a5f6275726e3a206275726e2066726f6d20746865207a65726f604082015267206164647265737360c01b606082015260800190565b63ffffffff91909116815260200190565b63ffffffff9290921682526001600160601b0316602082015260400190565b60ff91909116815260200190565b6001600160601b0391909116815260200190565b6001600160601b0392831681529116602082015260400190565b6001600160a01b03811681146107d357600080fdfe64434c4d383a3a5f6d6f7665566f7465733a20766f746520616d6f756e74206f766572666c6f777364434c4d383a3a5f7472616e73666572546f6b656e733a207472616e7366657220616d6f756e7420657863656564732062616c616e636564434c4d383a3a5f7472616e73666572546f6b656e733a207472616e7366657220616d6f756e74206f766572666c6f777364434c4d383a3a7472616e736665723a20616d6f756e742065786365656473203936206269747364434c4d383a3a7472616e7366657246726f6d3a207472616e7366657220616d6f756e742065786365656473207370656e64657220616c6c6f77616e636564434c4d383a3a617070726f76653a20616d6f756e742065786365656473203936206269747364434c4d383a3a5f6d6f7665566f7465733a20766f746520616d6f756e7420756e646572666c6f777364434c4d383a3a5f7772697465436865636b706f696e743a20626c6f636b206e756d62657220657863656564732033322062697473a264697066735822122025059b56a6b8041a5f4a232c019abd3c6f5077efc9f23bfb85aef3e685c7d9f064736f6c63430007000033",
  "linkReferences": {},
  "deployedLinkReferences": {}
}