{
  "_format": "hh-sol-artifact-1",
  "contractName": "DAOToken",
  "sourceName": "contracts/Governance/DAOToken.sol",
  "abi": [
    {
      "inputs": [
        {
          "internalType": "address",
          "name": "account",
          "type": "address"
        }
      ],
      "stateMutability": "nonpayable",
      "type": "constructor"
    },
    {
      "anonymous": false,
      "inputs": [
        {
          "indexed": true,
          "internalType": "address",
          "name": "owner",
          "type": "address"
        },
        {
          "indexed": true,
          "internalType": "address",
          "name": "spender",
          "type": "address"
        },
        {
          "indexed": false,
          "internalType": "uint256",
          "name": "amount",
          "type": "uint256"
        }
      ],
      "name": "Approval",
      "type": "event"
    },
    {
      "anonymous": false,
      "inputs": [
        {
          "indexed": true,
          "internalType": "address",
          "name": "delegator",
          "type": "address"
        },
        {
          "indexed": true,
          "internalType": "address",
          "name": "fromDelegate",
          "type": "address"
        },
        {
          "indexed": true,
          "internalType": "address",
          "name": "toDelegate",
          "type": "address"
        }
      ],
      "name": "DelegateChanged",
      "type": "event"
    },
    {
      "anonymous": false,
      "inputs": [
        {
          "indexed": true,
          "internalType": "address",
          "name": "delegate",
          "type": "address"
        },
        {
          "indexed": false,
          "internalType": "uint256",
          "name": "previousBalance",
          "type": "uint256"
        },
        {
          "indexed": false,
          "internalType": "uint256",
          "name": "newBalance",
          "type": "uint256"
        }
      ],
      "name": "DelegateVotesChanged",
      "type": "event"
    },
    {
      "anonymous": false,
      "inputs": [
        {
          "indexed": true,
          "internalType": "address",
          "name": "from",
          "type": "address"
        },
        {
          "indexed": true,
          "internalType": "address",
          "name": "to",
          "type": "address"
        },
        {
          "indexed": false,
          "internalType": "uint256",
          "name": "amount",
          "type": "uint256"
        }
      ],
      "name": "Transfer",
      "type": "event"
    },
    {
      "inputs": [],
      "name": "DELEGATION_TYPEHASH",
      "outputs": [
        {
          "internalType": "bytes32",
          "name": "",
          "type": "bytes32"
        }
      ],
      "stateMutability": "view",
      "type": "function"
    },
    {
      "inputs": [],
      "name": "DOMAIN_TYPEHASH",
      "outputs": [
        {
          "internalType": "bytes32",
          "name": "",
          "type": "bytes32"
        }
      ],
      "stateMutability": "view",
      "type": "function"
    },
    {
      "inputs": [
        {
          "internalType": "address",
          "name": "account",
          "type": "address"
        },
        {
          "internalType": "address",
          "name": "spender",
          "type": "address"
        }
      ],
      "name": "allowance",
      "outputs": [
        {
          "internalType": "uint256",
          "name": "",
          "type": "uint256"
        }
      ],
      "stateMutability": "view",
      "type": "function"
    },
    {
      "inputs": [
        {
          "internalType": "address",
          "name": "spender",
          "type": "address"
        },
        {
          "internalType": "uint256",
          "name": "rawAmount",
          "type": "uint256"
        }
      ],
      "name": "approve",
      "outputs": [
        {
          "internalType": "bool",
          "name": "",
          "type": "bool"
        }
      ],
      "stateMutability": "nonpayable",
      "type": "function"
    },
    {
      "inputs": [
        {
          "internalType": "address",
          "name": "account",
          "type": "address"
        }
      ],
      "name": "balanceOf",
      "outputs": [
        {
          "internalType": "uint256",
          "name": "",
          "type": "uint256"
        }
      ],
      "stateMutability": "view",
      "type": "function"
    },
    {
      "inputs": [
        {
          "internalType": "address",
          "name": "",
          "type": "address"
        },
        {
          "internalType": "uint32",
          "name": "",
          "type": "uint32"
        }
      ],
      "name": "checkpoints",
      "outputs": [
        {
          "internalType": "uint32",
          "name": "fromBlock",
          "type": "uint32"
        },
        {
          "internalType": "uint96",
          "name": "votes",
          "type": "uint96"
        }
      ],
      "stateMutability": "view",
      "type": "function"
    },
    {
      "inputs": [],
      "name": "decimals",
      "outputs": [
        {
          "internalType": "uint8",
          "name": "",
          "type": "uint8"
        }
      ],
      "stateMutability": "view",
      "type": "function"
    },
    {
      "inputs": [
        {
          "internalType": "address",
          "name": "delegatee",
          "type": "address"
        }
      ],
      "name": "delegate",
      "outputs": [],
      "stateMutability": "nonpayable",
      "type": "function"
    },
    {
      "inputs": [
        {
          "internalType": "address",
          "name": "delegatee",
          "type": "address"
        },
        {
          "internalType": "uint256",
          "name": "nonce",
          "type": "uint256"
        },
        {
          "internalType": "uint256",
          "name": "expiry",
          "type": "uint256"
        },
        {
          "internalType": "uint8",
          "name": "v",
          "type": "uint8"
        },
        {
          "internalType": "bytes32",
          "name": "r",
          "type": "bytes32"
        },
        {
          "internalType": "bytes32",
          "name": "s",
          "type": "bytes32"
        }
      ],
      "name": "delegateBySig",
      "outputs": [],
      "stateMutability": "nonpayable",
      "type": "function"
    },
    {
      "inputs": [
        {
          "internalType": "address",
          "name": "",
          "type": "address"
        }
      ],
      "name": "delegates",
      "outputs": [
        {
          "internalType": "address",
          "name": "",
          "type": "address"
        }
      ],
      "stateMutability": "view",
      "type": "function"
    },
    {
      "inputs": [
        {
          "internalType": "address",
          "name": "account",
          "type": "address"
        }
      ],
      "name": "getCurrentVotes",
      "outputs": [
        {
          "internalType": "uint96",
          "name": "",
          "type": "uint96"
        }
      ],
      "stateMutability": "view",
      "type": "function"
    },
    {
      "inputs": [
        {
          "internalType": "address",
          "name": "account",
          "type": "address"
        },
        {
          "internalType": "uint256",
          "name": "blockNumber",
          "type": "uint256"
        }
      ],
      "name": "getPriorVotes",
      "outputs": [
        {
          "internalType": "uint96",
          "name": "",
          "type": "uint96"
        }
      ],
      "stateMutability": "view",
      "type": "function"
    },
    {
      "inputs": [],
      "name": "name",
      "outputs": [
        {
          "internalType": "string",
          "name": "",
          "type": "string"
        }
      ],
      "stateMutability": "view",
      "type": "function"
    },
    {
      "inputs": [
        {
          "internalType": "address",
          "name": "",
          "type": "address"
        }
      ],
      "name": "nonces",
      "outputs": [
        {
          "internalType": "uint256",
          "name": "",
          "type": "uint256"
        }
      ],
      "stateMutability": "view",
      "type": "function"
    },
    {
      "inputs": [
        {
          "internalType": "address",
          "name": "",
          "type": "address"
        }
      ],
      "name": "numCheckpoints",
      "outputs": [
        {
          "internalType": "uint32",
          "name": "",
          "type": "uint32"
        }
      ],
      "stateMutability": "view",
      "type": "function"
    },
    {
      "inputs": [],
      "name": "symbol",
      "outputs": [
        {
          "internalType": "string",
          "name": "",
          "type": "string"
        }
      ],
      "stateMutability": "view",
      "type": "function"
    },
    {
      "inputs": [],
      "name": "totalSupply",
      "outputs": [
        {
          "internalType": "uint256",
          "name": "",
          "type": "uint256"
        }
      ],
      "stateMutability": "view",
      "type": "function"
    },
    {
      "inputs": [
        {
          "internalType": "address",
          "name": "dst",
          "type": "address"
        },
        {
          "internalType": "uint256",
          "name": "rawAmount",
          "type": "uint256"
        }
      ],
      "name": "transfer",
      "outputs": [
        {
          "internalType": "bool",
          "name": "",
          "type": "bool"
        }
      ],
      "stateMutability": "nonpayable",
      "type": "function"
    },
    {
      "inputs": [
        {
          "internalType": "address",
          "name": "src",
          "type": "address"
        },
        {
          "internalType": "address",
          "name": "dst",
          "type": "address"
        },
        {
          "internalType": "uint256",
          "name": "rawAmount",
          "type": "uint256"
        }
      ],
      "name": "transferFrom",
      "outputs": [
        {
          "internalType": "bool",
          "name": "",
          "type": "bool"
        }
      ],
      "stateMutability": "nonpayable",
      "type": "function"
    }
  ],
  "bytecode": "0x608060405234801561001057600080fd5b506040516118c63803806118c683398101604081905261002f916100a1565b6001600160a01b03811660008181526001602052604080822080546001600160601b0319166a084595161401484a00000090811790915590517fddf252ad1be2c89b69c2b068fc378daa952ba7f163c4a11628f55a4df523b3ef91610093916100cf565b60405180910390a3506100d8565b6000602082840312156100b2578081fd5b81516001600160a01b03811681146100c8578182fd5b9392505050565b90815260200190565b6117df806100e76000396000f3fe608060405234801561001057600080fd5b50600436106101215760003560e01c806370a08231116100ad578063b4b5ea5711610071578063b4b5ea571461025f578063c3cda52014610272578063dd62ed3e14610285578063e7a324dc14610298578063f1127ed8146102a057610121565b806370a08231146101fe578063782d6fe1146102115780637ecebe001461023157806395d89b4114610244578063a9059cbb1461024c57610121565b806323b872dd116100f457806323b872dd14610181578063313ce56714610194578063587cde1e146101a95780635c19a95c146101c95780636fcfff45146101de57610121565b806306fdde0314610126578063095ea7b31461014457806318160ddd1461016457806320606b7014610179575b600080fd5b61012e6102c1565b60405161013b9190611395565b60405180910390f35b610157610152366004611224565b6102ee565b60405161013b919061131b565b61016c6103ab565b60405161013b9190611326565b61016c6103ba565b61015761018f3660046111e4565b6103de565b61019c610521565b60405161013b91906115e7565b6101bc6101b7366004611195565b610526565b60405161013b9190611307565b6101dc6101d7366004611195565b610541565b005b6101f16101ec366004611195565b61054e565b60405161013b91906115b7565b61016c61020c366004611195565b610566565b61022461021f366004611224565b61058a565b60405161013b91906115f5565b61016c61023f366004611195565b6107a1565b61012e6107b3565b61015761025a366004611224565b6107d3565b61022461026d366004611195565b61080f565b6101dc61028036600461124e565b610880565b61016c6102933660046111b0565b610a8f565b61016c610ac1565b6102b36102ae3660046112ad565b610ae5565b60405161013b9291906115c8565b6040518060400160405280601181526020017021b634b6b0ba32902220a7902a37b5b2b760791b81525081565b6000806000198314156103045750600019610329565b6103268360405180606001604052806025815260200161167660259139610b1a565b90505b336000818152602081815260408083206001600160a01b03891680855292529182902080546001600160601b0319166001600160601b03861617905590519091907f8c5be1e5ebec7d5bd14f71427d1e84f3dd0314c0f7b2291e5b200ac8c7c3b925906103979085906115f5565b60405180910390a360019150505b92915050565b6a084595161401484a00000081565b7f8cad95687ba82c2ce50e74f7b754645e5117c3a5bec8151c0726d5857980a86681565b6001600160a01b0383166000908152602081815260408083203380855290835281842054825160608101909352602580845291936001600160601b03909116928592610434928892919061167690830139610b1a565b9050866001600160a01b0316836001600160a01b03161415801561046157506001600160601b0382811614155b1561050957600061048b83836040518060600160405280603d8152602001611639603d9139610b49565b6001600160a01b03898116600081815260208181526040808320948a16808452949091529081902080546001600160601b0319166001600160601b0386161790555192935090917f8c5be1e5ebec7d5bd14f71427d1e84f3dd0314c0f7b2291e5b200ac8c7c3b925906104ff9085906115f5565b60405180910390a3505b610514878783610b88565b5060019695505050505050565b601281565b6002602052600090815260409020546001600160a01b031681565b61054b3382610d33565b50565b60046020526000908152604090205463ffffffff1681565b6001600160a01b03166000908152600160205260409020546001600160601b031690565b60004382106105b45760405162461bcd60e51b81526004016105ab9061142a565b60405180910390fd5b6001600160a01b03831660009081526004602052604090205463ffffffff16806105e25760009150506103a5565b6001600160a01b038416600090815260036020908152604080832063ffffffff60001986018116855292529091205416831061065e576001600160a01b03841660009081526003602090815260408083206000199490940163ffffffff1683529290522054600160201b90046001600160601b031690506103a5565b6001600160a01b038416600090815260036020908152604080832083805290915290205463ffffffff168310156106995760009150506103a5565b600060001982015b8163ffffffff168163ffffffff16111561075c57600282820363ffffffff160481036106cb611167565b506001600160a01b038716600090815260036020908152604080832063ffffffff858116855290835292819020815180830190925254928316808252600160201b9093046001600160601b03169181019190915290871415610737576020015194506103a59350505050565b805163ffffffff1687111561074e57819350610755565b6001820392505b50506106a1565b506001600160a01b038516600090815260036020908152604080832063ffffffff909416835292905220546001600160601b03600160201b9091041691505092915050565b60056020526000908152604090205481565b60405180604001604052806004815260200163111053d560e21b81525081565b6000806107f88360405180606001604052806026815260200161172760269139610b1a565b9050610805338583610b88565b5060019392505050565b6001600160a01b03811660009081526004602052604081205463ffffffff168061083a576000610879565b6001600160a01b0383166000908152600360209081526040808320600019850163ffffffff168452909152902054600160201b90046001600160601b03165b9392505050565b60408051808201909152601181527021b634b6b0ba32902220a7902a37b5b2b760791b60209091015260007f8cad95687ba82c2ce50e74f7b754645e5117c3a5bec8151c0726d5857980a8667f7c75c83381dcf4c0e5ba36df2cc653b50dcd8f69236256411bc04c9f677ed4c06108f5610dbd565b306040516020016109099493929190611353565b60405160208183030381529060405280519060200120905060007fe48329057bfd03d55e49b547132e39cffd9c1820ad7b9d4c5307691425d15adf88888860405160200161095a949392919061132f565b604051602081830303815290604052805190602001209050600082826040516020016109879291906112ec565b6040516020818303038152906040528051906020012090506000600182888888604051600081526020016040526040516109c49493929190611377565b6020604051602081039080840390855afa1580156109e6573d6000803e3d6000fd5b5050604051601f1901519150506001600160a01b038116610a195760405162461bcd60e51b81526004016105ab90611471565b6001600160a01b03811660009081526005602052604090208054600181019091558914610a585760405162461bcd60e51b81526004016105ab906113e8565b87421115610a785760405162461bcd60e51b81526004016105ab906114b7565b610a82818b610d33565b505050505b505050505050565b6001600160a01b039182166000908152602081815260408083209390941682529190915220546001600160601b031690565b7fe48329057bfd03d55e49b547132e39cffd9c1820ad7b9d4c5307691425d15adf81565b600360209081526000928352604080842090915290825290205463ffffffff811690600160201b90046001600160601b031682565b600081600160601b8410610b415760405162461bcd60e51b81526004016105ab9190611395565b509192915050565b6000836001600160601b0316836001600160601b031611158290610b805760405162461bcd60e51b81526004016105ab9190611395565b505050900390565b6001600160a01b038316610bae5760405162461bcd60e51b81526004016105ab9061155a565b6001600160a01b038216610bd45760405162461bcd60e51b81526004016105ab906114fd565b6001600160a01b038316600090815260016020908152604091829020548251606081019093526036808452610c1f936001600160601b03909216928592919061177490830139610b49565b6001600160a01b03848116600090815260016020908152604080832080546001600160601b0319166001600160601b03968716179055928616825290829020548251606081019093526030808452610c87949190911692859290919061169b90830139610dc1565b6001600160a01b038381166000818152600160205260409081902080546001600160601b0319166001600160601b0395909516949094179093559151908516907fddf252ad1be2c89b69c2b068fc378daa952ba7f163c4a11628f55a4df523b3ef90610cf49085906115f5565b60405180910390a36001600160a01b03808416600090815260026020526040808220548584168352912054610d2e92918216911683610dfd565b505050565b6001600160a01b03808316600081815260026020818152604080842080546001845282862054949093528787166001600160a01b031984168117909155905191909516946001600160601b039092169391928592917f3134e8a2e6d97e929a7e54011ea5485d7d196dd5f0ba4d4ef95803e8e3fc257f9190a4610db7828483610dfd565b50505050565b4690565b6000838301826001600160601b038087169083161015610df45760405162461bcd60e51b81526004016105ab9190611395565b50949350505050565b816001600160a01b0316836001600160a01b031614158015610e2857506000816001600160601b0316115b15610d2e576001600160a01b03831615610ee0576001600160a01b03831660009081526004602052604081205463ffffffff169081610e68576000610ea7565b6001600160a01b0385166000908152600360209081526040808320600019860163ffffffff168452909152902054600160201b90046001600160601b03165b90506000610ece82856040518060600160405280602881526020016116ff60289139610b49565b9050610edc86848484610f8b565b5050505b6001600160a01b03821615610d2e576001600160a01b03821660009081526004602052604081205463ffffffff169081610f1b576000610f5a565b6001600160a01b0384166000908152600360209081526040808320600019860163ffffffff168452909152902054600160201b90046001600160601b03165b90506000610f81828560405180606001604052806027815260200161174d60279139610dc1565b9050610a87858484845b6000610faf436040518060600160405280603481526020016116cb60349139611140565b905060008463ffffffff16118015610ff857506001600160a01b038516600090815260036020908152604080832063ffffffff6000198901811685529252909120548282169116145b15611057576001600160a01b0385166000908152600360209081526040808320600019880163ffffffff168452909152902080546fffffffffffffffffffffffff000000001916600160201b6001600160601b038516021790556110f6565b60408051808201825263ffffffff80841682526001600160601b0380861660208085019182526001600160a01b038b166000818152600383528781208c871682528352878120965187549451909516600160201b026fffffffffffffffffffffffff000000001995871663ffffffff19958616179590951694909417909555938252600490935292909220805460018801909316929091169190911790555b846001600160a01b03167fdec2bacdd2f05b59de34da9b523dff8be42e5e38e818c82fdb0bae774387a7248484604051611131929190611609565b60405180910390a25050505050565b600081600160201b8410610b415760405162461bcd60e51b81526004016105ab9190611395565b604080518082019091526000808252602082015290565b80356001600160a01b03811681146103a557600080fd5b6000602082840312156111a6578081fd5b610879838361117e565b600080604083850312156111c2578081fd5b6111cc848461117e565b91506111db846020850161117e565b90509250929050565b6000806000606084860312156111f8578081fd5b833561120381611623565b9250602084013561121381611623565b929592945050506040919091013590565b60008060408385031215611236578182fd5b611240848461117e565b946020939093013593505050565b60008060008060008060c08789031215611266578182fd5b611270888861117e565b95506020870135945060408701359350606087013560ff81168114611293578283fd5b9598949750929560808101359460a0909101359350915050565b600080604083850312156112bf578182fd5b6112c9848461117e565b9150602083013563ffffffff811681146112e1578182fd5b809150509250929050565b61190160f01b81526002810192909252602282015260420190565b6001600160a01b0391909116815260200190565b901515815260200190565b90815260200190565b9384526001600160a01b039290921660208401526040830152606082015260800190565b938452602084019290925260408301526001600160a01b0316606082015260800190565b93845260ff9290921660208401526040830152606082015260800190565b6000602080835283518082850152825b818110156113c1578581018301518582016040015282016113a5565b818111156113d25783604083870101525b50601f01601f1916929092016040019392505050565b60208082526022908201527f44414f543a3a64656c656761746542795369673a20696e76616c6964206e6f6e604082015261636560f01b606082015260800190565b60208082526027908201527f44414f543a3a6765745072696f72566f7465733a206e6f742079657420646574604082015266195c9b5a5b995960ca1b606082015260800190565b60208082526026908201527f44414f543a3a64656c656761746542795369673a20696e76616c6964207369676040820152656e617475726560d01b606082015260800190565b60208082526026908201527f44414f543a3a64656c656761746542795369673a207369676e617475726520656040820152651e1c1a5c995960d21b606082015260800190565b6020808252603a908201527f44414f543a3a5f7472616e73666572546f6b656e733a2063616e6e6f7420747260408201527f616e7366657220746f20746865207a65726f2061646472657373000000000000606082015260800190565b6020808252603c908201527f44414f543a3a5f7472616e73666572546f6b656e733a2063616e6e6f7420747260408201527f616e736665722066726f6d20746865207a65726f206164647265737300000000606082015260800190565b63ffffffff91909116815260200190565b63ffffffff9290921682526001600160601b0316602082015260400190565b60ff91909116815260200190565b6001600160601b0391909116815260200190565b6001600160601b0392831681529116602082015260400190565b6001600160a01b038116811461054b57600080fdfe44414f543a3a7472616e7366657246726f6d3a207472616e7366657220616d6f756e742065786365656473207370656e64657220616c6c6f77616e636544414f543a3a617070726f76653a20616d6f756e742065786365656473203936206269747344414f543a3a5f7472616e73666572546f6b656e733a207472616e7366657220616d6f756e74206f766572666c6f777344414f543a3a5f7772697465436865636b706f696e743a20626c6f636b206e756d6265722065786365656473203332206269747344414f543a3a5f6d6f7665566f7465733a20766f746520616d6f756e7420756e646572666c6f777344414f543a3a7472616e736665723a20616d6f756e742065786365656473203936206269747344414f543a3a5f6d6f7665566f7465733a20766f746520616d6f756e74206f766572666c6f777344414f543a3a5f7472616e73666572546f6b656e733a207472616e7366657220616d6f756e7420657863656564732062616c616e6365a2646970667358221220c494c26c03c5c6c11241d05e535fe5f70572945795ac71a934a74ab2e7cb420b64736f6c63430007000033",
  "linkReferences": {},
  "deployedLinkReferences": {}
}