{
  "_format": "hh-sol-artifact-1",
  "contractName": "DAOToken",
  "sourceName": "contracts/Governance/DAOToken.sol",
  "abi": [
    {
      "inputs": [
        {
          "internalType": "address",
          "name": "account",
          "type": "address"
        }
      ],
      "stateMutability": "nonpayable",
      "type": "constructor"
    },
    {
      "anonymous": false,
      "inputs": [
        {
          "indexed": true,
          "internalType": "address",
          "name": "owner",
          "type": "address"
        },
        {
          "indexed": true,
          "internalType": "address",
          "name": "spender",
          "type": "address"
        },
        {
          "indexed": false,
          "internalType": "uint256",
          "name": "amount",
          "type": "uint256"
        }
      ],
      "name": "Approval",
      "type": "event"
    },
    {
      "anonymous": false,
      "inputs": [
        {
          "indexed": true,
          "internalType": "address",
          "name": "delegator",
          "type": "address"
        },
        {
          "indexed": true,
          "internalType": "address",
          "name": "fromDelegate",
          "type": "address"
        },
        {
          "indexed": true,
          "internalType": "address",
          "name": "toDelegate",
          "type": "address"
        }
      ],
      "name": "DelegateChanged",
      "type": "event"
    },
    {
      "anonymous": false,
      "inputs": [
        {
          "indexed": true,
          "internalType": "address",
          "name": "delegate",
          "type": "address"
        },
        {
          "indexed": false,
          "internalType": "uint256",
          "name": "previousBalance",
          "type": "uint256"
        },
        {
          "indexed": false,
          "internalType": "uint256",
          "name": "newBalance",
          "type": "uint256"
        }
      ],
      "name": "DelegateVotesChanged",
      "type": "event"
    },
    {
      "anonymous": false,
      "inputs": [
        {
          "indexed": true,
          "internalType": "address",
          "name": "from",
          "type": "address"
        },
        {
          "indexed": true,
          "internalType": "address",
          "name": "to",
          "type": "address"
        },
        {
          "indexed": false,
          "internalType": "uint256",
          "name": "amount",
          "type": "uint256"
        }
      ],
      "name": "Transfer",
      "type": "event"
    },
    {
      "inputs": [],
      "name": "DELEGATION_TYPEHASH",
      "outputs": [
        {
          "internalType": "bytes32",
          "name": "",
          "type": "bytes32"
        }
      ],
      "stateMutability": "view",
      "type": "function"
    },
    {
      "inputs": [],
      "name": "DOMAIN_TYPEHASH",
      "outputs": [
        {
          "internalType": "bytes32",
          "name": "",
          "type": "bytes32"
        }
      ],
      "stateMutability": "view",
      "type": "function"
    },
    {
      "inputs": [
        {
          "internalType": "address",
          "name": "account",
          "type": "address"
        },
        {
          "internalType": "uint96",
          "name": "amount",
          "type": "uint96"
        }
      ],
      "name": "_burn",
      "outputs": [],
      "stateMutability": "nonpayable",
      "type": "function"
    },
    {
      "inputs": [
        {
          "internalType": "address",
          "name": "src",
          "type": "address"
        },
        {
          "internalType": "uint96",
          "name": "amount",
          "type": "uint96"
        }
      ],
      "name": "_lockTokens",
      "outputs": [],
      "stateMutability": "nonpayable",
      "type": "function"
    },
    {
      "inputs": [
        {
          "internalType": "uint256",
          "name": "amount",
          "type": "uint256"
        }
      ],
      "name": "addToTotalSupply",
      "outputs": [],
      "stateMutability": "nonpayable",
      "type": "function"
    },
    {
      "inputs": [
        {
          "internalType": "address",
          "name": "account",
          "type": "address"
        },
        {
          "internalType": "address",
          "name": "spender",
          "type": "address"
        }
      ],
      "name": "allowance",
      "outputs": [
        {
          "internalType": "uint256",
          "name": "",
          "type": "uint256"
        }
      ],
      "stateMutability": "view",
      "type": "function"
    },
    {
      "inputs": [
        {
          "internalType": "address",
          "name": "spender",
          "type": "address"
        },
        {
          "internalType": "uint256",
          "name": "rawAmount",
          "type": "uint256"
        }
      ],
      "name": "approve",
      "outputs": [
        {
          "internalType": "bool",
          "name": "",
          "type": "bool"
        }
      ],
      "stateMutability": "nonpayable",
      "type": "function"
    },
    {
      "inputs": [
        {
          "internalType": "address",
          "name": "account",
          "type": "address"
        }
      ],
      "name": "balanceOf",
      "outputs": [
        {
          "internalType": "uint256",
          "name": "",
          "type": "uint256"
        }
      ],
      "stateMutability": "view",
      "type": "function"
    },
    {
      "inputs": [
        {
          "internalType": "address",
          "name": "",
          "type": "address"
        },
        {
          "internalType": "uint32",
          "name": "",
          "type": "uint32"
        }
      ],
      "name": "checkpoints",
      "outputs": [
        {
          "internalType": "uint32",
          "name": "fromBlock",
          "type": "uint32"
        },
        {
          "internalType": "uint96",
          "name": "votes",
          "type": "uint96"
        }
      ],
      "stateMutability": "view",
      "type": "function"
    },
    {
      "inputs": [],
      "name": "decimals",
      "outputs": [
        {
          "internalType": "uint8",
          "name": "",
          "type": "uint8"
        }
      ],
      "stateMutability": "view",
      "type": "function"
    },
    {
      "inputs": [
        {
          "internalType": "address",
          "name": "delegatee",
          "type": "address"
        }
      ],
      "name": "delegate",
      "outputs": [],
      "stateMutability": "nonpayable",
      "type": "function"
    },
    {
      "inputs": [
        {
          "internalType": "address",
          "name": "delegatee",
          "type": "address"
        },
        {
          "internalType": "uint256",
          "name": "nonce",
          "type": "uint256"
        },
        {
          "internalType": "uint256",
          "name": "expiry",
          "type": "uint256"
        },
        {
          "internalType": "uint8",
          "name": "v",
          "type": "uint8"
        },
        {
          "internalType": "bytes32",
          "name": "r",
          "type": "bytes32"
        },
        {
          "internalType": "bytes32",
          "name": "s",
          "type": "bytes32"
        }
      ],
      "name": "delegateBySig",
      "outputs": [],
      "stateMutability": "nonpayable",
      "type": "function"
    },
    {
      "inputs": [
        {
          "internalType": "address",
          "name": "",
          "type": "address"
        }
      ],
      "name": "delegates",
      "outputs": [
        {
          "internalType": "address",
          "name": "",
          "type": "address"
        }
      ],
      "stateMutability": "view",
      "type": "function"
    },
    {
      "inputs": [
        {
          "internalType": "address",
          "name": "account",
          "type": "address"
        }
      ],
      "name": "getCurrentVotes",
      "outputs": [
        {
          "internalType": "uint96",
          "name": "",
          "type": "uint96"
        }
      ],
      "stateMutability": "view",
      "type": "function"
    },
    {
      "inputs": [],
      "name": "getInitialHolder",
      "outputs": [
        {
          "internalType": "address",
          "name": "",
          "type": "address"
        }
      ],
      "stateMutability": "view",
      "type": "function"
    },
    {
      "inputs": [
        {
          "internalType": "address",
          "name": "account",
          "type": "address"
        },
        {
          "internalType": "uint256",
          "name": "blockNumber",
          "type": "uint256"
        }
      ],
      "name": "getPriorVotes",
      "outputs": [
        {
          "internalType": "uint96",
          "name": "",
          "type": "uint96"
        }
      ],
      "stateMutability": "view",
      "type": "function"
    },
    {
      "inputs": [],
      "name": "getTotalSupply",
      "outputs": [
        {
          "internalType": "uint256",
          "name": "",
          "type": "uint256"
        }
      ],
      "stateMutability": "view",
      "type": "function"
    },
    {
      "inputs": [],
      "name": "governor",
      "outputs": [
        {
          "internalType": "address",
          "name": "",
          "type": "address"
        }
      ],
      "stateMutability": "view",
      "type": "function"
    },
    {
      "inputs": [],
      "name": "initialHolder",
      "outputs": [
        {
          "internalType": "address",
          "name": "",
          "type": "address"
        }
      ],
      "stateMutability": "view",
      "type": "function"
    },
    {
      "inputs": [],
      "name": "name",
      "outputs": [
        {
          "internalType": "string",
          "name": "",
          "type": "string"
        }
      ],
      "stateMutability": "view",
      "type": "function"
    },
    {
      "inputs": [
        {
          "internalType": "address",
          "name": "",
          "type": "address"
        }
      ],
      "name": "nonces",
      "outputs": [
        {
          "internalType": "uint256",
          "name": "",
          "type": "uint256"
        }
      ],
      "stateMutability": "view",
      "type": "function"
    },
    {
      "inputs": [
        {
          "internalType": "address",
          "name": "",
          "type": "address"
        }
      ],
      "name": "numCheckpoints",
      "outputs": [
        {
          "internalType": "uint32",
          "name": "",
          "type": "uint32"
        }
      ],
      "stateMutability": "view",
      "type": "function"
    },
    {
      "inputs": [
        {
          "internalType": "address",
          "name": "newGovernor",
          "type": "address"
        }
      ],
      "name": "setGovernor",
      "outputs": [],
      "stateMutability": "nonpayable",
      "type": "function"
    },
    {
      "inputs": [],
      "name": "symbol",
      "outputs": [
        {
          "internalType": "string",
          "name": "",
          "type": "string"
        }
      ],
      "stateMutability": "view",
      "type": "function"
    },
    {
      "inputs": [],
      "name": "totalSupply",
      "outputs": [
        {
          "internalType": "uint256",
          "name": "",
          "type": "uint256"
        }
      ],
      "stateMutability": "view",
      "type": "function"
    },
    {
      "inputs": [
        {
          "internalType": "address",
          "name": "dst",
          "type": "address"
        },
        {
          "internalType": "uint256",
          "name": "rawAmount",
          "type": "uint256"
        }
      ],
      "name": "transfer",
      "outputs": [
        {
          "internalType": "bool",
          "name": "",
          "type": "bool"
        }
      ],
      "stateMutability": "nonpayable",
      "type": "function"
    },
    {
      "inputs": [
        {
          "internalType": "address",
          "name": "src",
          "type": "address"
        },
        {
          "internalType": "address",
          "name": "dst",
          "type": "address"
        },
        {
          "internalType": "uint256",
          "name": "rawAmount",
          "type": "uint256"
        }
      ],
      "name": "transferFrom",
      "outputs": [
        {
          "internalType": "bool",
          "name": "",
          "type": "bool"
        }
      ],
      "stateMutability": "nonpayable",
      "type": "function"
    }
  ],
  "bytecode": "0x60806040526a084595161401484a000000600055600280546001600160a01b03191690553480156200003057600080fd5b5060405162002131380380620021318339810160408190526200005391620000e2565b600080546001600160a01b0383168083526004602052604080842080546001600160601b0319166001600160601b0390941693909317909255600180546001600160a01b03191682179055825491519092917fddf252ad1be2c89b69c2b068fc378daa952ba7f163c4a11628f55a4df523b3ef91620000d3919062000112565b60405180910390a3506200011b565b600060208284031215620000f4578081fd5b81516001600160a01b03811681146200010b578182fd5b9392505050565b90815260200190565b612006806200012b6000396000f3fe608060405234801561001057600080fd5b50600436106101a95760003560e01c806372d3ee9e116100f9578063b72218e311610097578063c4e41b2211610071578063c4e41b2214610371578063dd62ed3e14610379578063e7a324dc1461038c578063f1127ed814610394576101a9565b8063b72218e314610343578063c3cda5201461034b578063c42cf5351461035e576101a9565b806395d89b41116100d357806395d89b411461030d578063a9059cbb14610315578063ae80d9de14610328578063b4b5ea5714610330576101a9565b806372d3ee9e146102c7578063782d6fe1146102da5780637ecebe00146102fa576101a9565b806328ce884511610166578063587cde1e11610140578063587cde1e1461026e5780635c19a95c146102815780636fcfff451461029457806370a08231146102b4576101a9565b806328ce884514610231578063313ce567146102465780633b2d52ac1461025b576101a9565b806306fdde03146101ae578063095ea7b3146101cc5780630c340a24146101ec57806318160ddd1461020157806320606b701461021657806323b872dd1461021e575b600080fd5b6101b66103b5565b6040516101c3919061195e565b60405180910390f35b6101df6101da3660046117a2565b6103e2565b6040516101c391906118e4565b6101f46104a1565b6040516101c391906118d0565b6102096104b0565b6040516101c391906118ef565b6102096104b6565b6101df61022c366004611767565b6104da565b61024461023f36600461189d565b610674565b005b61024e610764565b6040516101c39190611dc3565b610244610269366004611867565b610769565b6101f461027c36600461171b565b6108cc565b61024461028f36600461171b565b6108e7565b6102a76102a236600461171b565b6108f4565b6040516101c39190611d93565b6102096102c236600461171b565b61090c565b6102446102d5366004611867565b610934565b6102ed6102e83660046117a2565b610a4b565b6040516101c39190611dd1565b61020961030836600461171b565b610c54565b6101b6610c66565b6101df6103233660046117a2565b610c87565b6101f4610d08565b6102ed61033e36600461171b565b610d17565b6101f4610d88565b6102446103593660046117cb565b610d97565b61024461036c36600461171b565b610fa6565b610209610ff2565b610209610387366004611735565b610ff8565b61020961102c565b6103a76103a2366004611829565b611050565b6040516101c3929190611da4565b6040518060400160405280601181526020017021b634b6b0ba32902220a7902a37b5b2b760791b81525081565b6000806000198314156103f8575060001961041d565b61041a83604051806060016040528060268152602001611f4d60269139611085565b90505b3360008181526003602090815260408083206001600160a01b03891680855292529182902080546001600160601b0319166001600160601b03861617905590519091907f8c5be1e5ebec7d5bd14f71427d1e84f3dd0314c0f7b2291e5b200ac8c7c3b9259061048d908590611dd1565b60405180910390a360019150505b92915050565b6002546001600160a01b031681565b60005481565b7f8cad95687ba82c2ce50e74f7b754645e5117c3a5bec8151c0726d5857980a86681565b6001546000906001600160a01b0385811691161480159061050957506002546001600160a01b03858116911614155b1561052f5760405162461bcd60e51b815260040161052690611b2b565b60405180910390fd5b6001600160a01b03841660009081526003602090815260408083203380855290835281842054825160608101909352602680845291946001600160601b03909116939092610585928892611f4d90830139611085565b9050866001600160a01b0316836001600160a01b0316141580156105b257506001600160601b0382811614155b1561065c5760006105dc83836040518060600160405280603e8152602001611f0f603e91396110b4565b6001600160a01b038981166000818152600360209081526040808320948a16808452949091529081902080546001600160601b0319166001600160601b0386161790555192935090917f8c5be1e5ebec7d5bd14f71427d1e84f3dd0314c0f7b2291e5b200ac8c7c3b92590610652908590611dd1565b60405180910390a3505b6106678787836110f3565b5060019695505050505050565b6001546001600160a01b0316331480159061069a57506002546001600160a01b03163314155b156106b75760405162461bcd60e51b815260040161052690611bd0565b60006106db826040518060600160405280602f8152602001611eb9602f9139611085565b33600090815260046020908152604091829020548251606081019093526029808452939450610721936001600160601b03909116928592909190611e90908301396112cc565b33600081815260046020526040812080546001600160601b0319166001600160601b039490941693909317909255815484018255610760919083611308565b5050565b601281565b6002546001600160a01b031633146107935760405162461bcd60e51b815260040161052690611a44565b6001600160a01b0382166000908152600460209081526040918290205482516060810190935260378084526107de936001600160601b039092169285929190611e28908301396110b4565b6001600160a01b03838116600090815260046020908152604080832080546001600160601b0319166001600160601b039687161790556002549093168252908290205482516060810190935260318084526108499491909116928592909190611e5f908301396112cc565b600280546001600160a01b039081166000908152600460205260409081902080546001600160601b0319166001600160601b0395909516949094179093559054915191811691908416907fddf252ad1be2c89b69c2b068fc378daa952ba7f163c4a11628f55a4df523b3ef906108c0908590611dd1565b60405180910390a35050565b6005602052600090815260409020546001600160a01b031681565b6108f1338261149a565b50565b60076020526000908152604090205463ffffffff1681565b6001600160a01b0381166000908152600460205260409020546001600160601b03165b919050565b6001600160a01b03821661095a5760405162461bcd60e51b815260040161052690611d4b565b6002546001600160a01b031633146109845760405162461bcd60e51b815260040161052690611d14565b6001600160a01b0382166000908152600460205260409020546001600160601b039081169082168110156109ca5760405162461bcd60e51b8152600401610526906119b1565b6001600160a01b03831660008181526004602052604080822080546001600160601b0319168686036001600160601b0390811691909117909155825490861690038255519091907fddf252ad1be2c89b69c2b068fc378daa952ba7f163c4a11628f55a4df523b3ef90610a3e908690611dd1565b60405180910390a3505050565b6000438210610a6c5760405162461bcd60e51b815260040161052690611b88565b6001600160a01b03831660009081526007602052604090205463ffffffff1680610a9a57600091505061049b565b6001600160a01b038416600090815260066020908152604080832063ffffffff600019860181168552925290912054168310610b16576001600160a01b03841660009081526006602090815260408083206000199490940163ffffffff1683529290522054600160201b90046001600160601b0316905061049b565b6001600160a01b038416600090815260066020908152604080832083805290915290205463ffffffff16831015610b5157600091505061049b565b600060001982015b8163ffffffff168163ffffffff161115610c0f576000600263ffffffff848403166001600160a01b038916600090815260066020908152604080832094909304860363ffffffff818116845294825291839020835180850190945254938416808452600160201b9094046001600160601b031690830152925090871415610bea5760200151945061049b9350505050565b805163ffffffff16871115610c0157819350610c08565b6001820392505b5050610b59565b506001600160a01b038516600090815260066020908152604080832063ffffffff909416835292905220546001600160601b03600160201b9091041691505092915050565b60086020526000908152604090205481565b604051806040016040528060058152602001640c886989a760db1b81525081565b6001546000906001600160a01b03163314801590610cb057506002546001600160a01b03163314155b15610ccd5760405162461bcd60e51b815260040161052690611b2b565b6000610cf183604051806060016040528060278152602001611ee860279139611085565b9050610cfe3385836110f3565b5060019392505050565b6001546001600160a01b031690565b6001600160a01b03811660009081526007602052604081205463ffffffff1680610d42576000610d81565b6001600160a01b0383166000908152600660209081526040808320600019850163ffffffff168452909152902054600160201b90046001600160601b03165b9392505050565b6001546001600160a01b031681565b60408051808201909152601181527021b634b6b0ba32902220a7902a37b5b2b760791b60209091015260007f8cad95687ba82c2ce50e74f7b754645e5117c3a5bec8151c0726d5857980a8667f7c75c83381dcf4c0e5ba36df2cc653b50dcd8f69236256411bc04c9f677ed4c0610e0c611524565b30604051602001610e20949392919061191c565b60405160208183030381529060405280519060200120905060007fe48329057bfd03d55e49b547132e39cffd9c1820ad7b9d4c5307691425d15adf888888604051602001610e7194939291906118f8565b60405160208183030381529060405280519060200120905060008282604051602001610e9e9291906118b5565b604051602081830303815290604052805190602001209050600060018288888860405160008152602001604052604051610edb9493929190611940565b6020604051602081039080840390855afa158015610efd573d6000803e3d6000fd5b5050604051601f1901519150506001600160a01b038116610f305760405162461bcd60e51b815260040161052690611a87565b6001600160a01b03811660009081526008602052604090208054600181019091558914610f6f5760405162461bcd60e51b815260040161052690611c2d565b87421115610f8f5760405162461bcd60e51b815260040161052690611ccd565b610f99818b61149a565b505050505b505050505050565b6001546001600160a01b03163314610fd05760405162461bcd60e51b8152600401610526906119fa565b600280546001600160a01b0319166001600160a01b0392909216919091179055565b60005490565b6001600160a01b0391821660009081526003602090815260408083209390941682529190915220546001600160601b031690565b7fe48329057bfd03d55e49b547132e39cffd9c1820ad7b9d4c5307691425d15adf81565b600660209081526000928352604080842090915290825290205463ffffffff811690600160201b90046001600160601b031682565b600081600160601b84106110ac5760405162461bcd60e51b8152600401610526919061195e565b509192915050565b6000836001600160601b0316836001600160601b0316111582906110eb5760405162461bcd60e51b8152600401610526919061195e565b505050900390565b6001600160a01b0383166111195760405162461bcd60e51b815260040161052690611c70565b6001600160a01b03821661113f5760405162461bcd60e51b815260040161052690611ace565b6001600160a01b03831660009081526004602090815260409182902054825160608101909352603780845261118a936001600160601b039092169285929190611e28908301396110b4565b6001600160a01b03848116600090815260046020908152604080832080546001600160601b0319166001600160601b039687161790559286168252908290205482516060810190935260318084526111f29491909116928592909190611e5f908301396112cc565b6001600160a01b038381166000818152600460205260409081902080546001600160601b0319166001600160601b0395909516949094179093559151908516907fddf252ad1be2c89b69c2b068fc378daa952ba7f163c4a11628f55a4df523b3ef9061125f908590611dd1565b60405180910390a36001600160a01b038281166000908152600560205260409020541661129557611290828361149a565b6112c7565b6001600160a01b038084166000908152600560205260408082205485841683529120546112c792918216911683611308565b505050565b6000838301826001600160601b0380871690831610156112ff5760405162461bcd60e51b8152600401610526919061195e565b50949350505050565b816001600160a01b0316836001600160a01b03161415801561133357506000816001600160601b0316115b156112c7576001600160a01b038316156113eb576001600160a01b03831660009081526007602052604081205463ffffffff1690816113735760006113b2565b6001600160a01b0385166000908152600660209081526040808320600019860163ffffffff168452909152902054600160201b90046001600160601b03165b905060006113d98285604051806060016040528060298152602001611f73602991396110b4565b90506113e786848484611528565b5050505b6001600160a01b038216156112c7576001600160a01b03821660009081526007602052604081205463ffffffff169081611426576000611465565b6001600160a01b0384166000908152600660209081526040808320600019860163ffffffff168452909152902054600160201b90046001600160601b03165b9050600061148c8285604051806060016040528060288152602001611e00602891396112cc565b9050610f9e85848484611528565b6001600160a01b03808316600081815260056020818152604080842080546004845282862054949093528787166001600160a01b031984168117909155905191909516946001600160601b039092169391928592917f3134e8a2e6d97e929a7e54011ea5485d7d196dd5f0ba4d4ef95803e8e3fc257f9190a461151e828483611308565b50505050565b4690565b600061154c43604051806060016040528060358152602001611f9c603591396116dd565b905060008463ffffffff1611801561159557506001600160a01b038516600090815260066020908152604080832063ffffffff6000198901811685529252909120548282169116145b156115f4576001600160a01b0385166000908152600660209081526040808320600019880163ffffffff168452909152902080546fffffffffffffffffffffffff000000001916600160201b6001600160601b03851602179055611693565b60408051808201825263ffffffff80841682526001600160601b0380861660208085019182526001600160a01b038b166000818152600683528781208c871682528352878120965187549451909516600160201b026fffffffffffffffffffffffff000000001995871663ffffffff19958616179590951694909417909555938252600790935292909220805460018801909316929091169190911790555b846001600160a01b03167fdec2bacdd2f05b59de34da9b523dff8be42e5e38e818c82fdb0bae774387a72484846040516116ce929190611de5565b60405180910390a25050505050565b600081600160201b84106110ac5760405162461bcd60e51b8152600401610526919061195e565b80356001600160a01b038116811461092f57600080fd5b60006020828403121561172c578081fd5b610d8182611704565b60008060408385031215611747578081fd5b61175083611704565b915061175e60208401611704565b90509250929050565b60008060006060848603121561177b578081fd5b61178484611704565b925061179260208501611704565b9150604084013590509250925092565b600080604083850312156117b4578182fd5b6117bd83611704565b946020939093013593505050565b60008060008060008060c087890312156117e3578182fd5b6117ec87611704565b95506020870135945060408701359350606087013560ff8116811461180f578283fd5b9598949750929560808101359460a0909101359350915050565b6000806040838503121561183b578182fd5b61184483611704565b9150602083013563ffffffff8116811461185c578182fd5b809150509250929050565b60008060408385031215611879578182fd5b61188283611704565b915060208301356001600160601b038116811461185c578182fd5b6000602082840312156118ae578081fd5b5035919050565b61190160f01b81526002810192909252602282015260420190565b6001600160a01b0391909116815260200190565b901515815260200190565b90815260200190565b9384526001600160a01b039290921660208401526040830152606082015260800190565b938452602084019290925260408301526001600160a01b0316606082015260800190565b93845260ff9290921660208401526040830152606082015260800190565b6000602080835283518082850152825b8181101561198a5785810183015185820160400152820161196e565b8181111561199b5783604083870101525b50601f01601f1916929092016040019392505050565b60208082526029908201527f64434c4d383a3a5f6275726e3a206275726e20616d6f756e7420657863656564604082015268732062616c616e636560b81b606082015260800190565b6020808252602a908201527f64434c4d383a3a736574476f7665726e6f723a206d75737420626520696e697460408201526934b0b6103437b63232b960b11b606082015260800190565b60208082526023908201527f64434c4d383a3a6c6f636b546f6b656e733a206d75737420626520676f7665726040820152623737b960e91b606082015260800190565b60208082526027908201527f64434c4d383a3a64656c656761746542795369673a20696e76616c6964207369604082015266676e617475726560c81b606082015260800190565b6020808252603b908201527f64434c4d383a3a5f7472616e73666572546f6b656e733a2063616e6e6f74207460408201527f72616e7366657220746f20746865207a65726f20616464726573730000000000606082015260800190565b6020808252603e908201527f64434c4d383a3a7472616e736665723a2073656e646572206d7573742062652060408201527f696e697469616c20686f6c646572206f722044414f20676f7665726e6f720000606082015260800190565b60208082526028908201527f64434c4d383a3a6765745072696f72566f7465733a206e6f74207965742064656040820152671d195c9b5a5b995960c21b606082015260800190565b6020808252603f908201527f64434c4d383a3a616464546f546f74616c537570706c793a206d75737420626560408201527f20696e697469616c20686f6c646572206f722044414f20676f7665726e6f7200606082015260800190565b60208082526023908201527f64434c4d383a3a64656c656761746542795369673a20696e76616c6964206e6f6040820152626e636560e81b606082015260800190565b6020808252603d908201527f64434c4d383a3a5f7472616e73666572546f6b656e733a2063616e6e6f74207460408201527f72616e736665722066726f6d20746865207a65726f2061646472657373000000606082015260800190565b60208082526027908201527f64434c4d383a3a64656c656761746542795369673a207369676e617475726520604082015266195e1c1a5c995960ca1b606082015260800190565b6020808252601e908201527f64434c4d383a3a5f6275726e3a206d75737420626520676f7665726e6f720000604082015260600190565b60208082526028908201527f64434c4d383a3a5f6275726e3a206275726e2066726f6d20746865207a65726f604082015267206164647265737360c01b606082015260800190565b63ffffffff91909116815260200190565b63ffffffff9290921682526001600160601b0316602082015260400190565b60ff91909116815260200190565b6001600160601b0391909116815260200190565b6001600160601b039283168152911660208201526040019056fe64434c4d383a3a5f6d6f7665566f7465733a20766f746520616d6f756e74206f766572666c6f777364434c4d383a3a5f7472616e73666572546f6b656e733a207472616e7366657220616d6f756e7420657863656564732062616c616e636564434c4d383a3a5f7472616e73666572546f6b656e733a207472616e7366657220616d6f756e74206f766572666c6f777364434c4d383a3a616464546f546f74616c537570706c793a20616d6f756e74206f766572666c6f777364434c4d383a3a616464546f546f74616c537570706c793a20616d6f756e742065786365656473203936206269747364434c4d383a3a7472616e736665723a20616d6f756e742065786365656473203936206269747364434c4d383a3a7472616e7366657246726f6d3a207472616e7366657220616d6f756e742065786365656473207370656e64657220616c6c6f77616e636564434c4d383a3a617070726f76653a20616d6f756e742065786365656473203936206269747364434c4d383a3a5f6d6f7665566f7465733a20766f746520616d6f756e7420756e646572666c6f777364434c4d383a3a5f7772697465436865636b706f696e743a20626c6f636b206e756d62657220657863656564732033322062697473a26469706673582212204b5fef09bb7eab03e23a12602b23ca3b2c3b0e0034ab7f197e3901fe084f377e64736f6c63430007060033",
  "linkReferences": {},
  "deployedLinkReferences": {}
}