{
  "_format": "hh-sol-artifact-1",
  "contractName": "Governor",
  "sourceName": "contracts/Governance/Governor.sol",
  "abi": [
    {
      "inputs": [
        {
          "internalType": "address",
          "name": "timelock_",
          "type": "address"
        },
        {
          "internalType": "address",
          "name": "daot_",
          "type": "address"
        },
        {
          "internalType": "address",
          "name": "guardian_",
          "type": "address"
        }
      ],
      "payable": false,
      "stateMutability": "nonpayable",
      "type": "constructor"
    },
    {
      "anonymous": false,
      "inputs": [
        {
          "indexed": false,
          "internalType": "uint256",
          "name": "id",
          "type": "uint256"
        }
      ],
      "name": "ProposalCanceled",
      "type": "event"
    },
    {
      "anonymous": false,
      "inputs": [
        {
          "indexed": false,
          "internalType": "uint256",
          "name": "id",
          "type": "uint256"
        },
        {
          "indexed": false,
          "internalType": "address",
          "name": "proposer",
          "type": "address"
        },
        {
          "indexed": false,
          "internalType": "address[]",
          "name": "targets",
          "type": "address[]"
        },
        {
          "indexed": false,
          "internalType": "uint256[]",
          "name": "values",
          "type": "uint256[]"
        },
        {
          "indexed": false,
          "internalType": "string[]",
          "name": "signatures",
          "type": "string[]"
        },
        {
          "indexed": false,
          "internalType": "bytes[]",
          "name": "calldatas",
          "type": "bytes[]"
        },
        {
          "indexed": false,
          "internalType": "uint256",
          "name": "startBlock",
          "type": "uint256"
        },
        {
          "indexed": false,
          "internalType": "uint256",
          "name": "endBlock",
          "type": "uint256"
        },
        {
          "indexed": false,
          "internalType": "string",
          "name": "description",
          "type": "string"
        }
      ],
      "name": "ProposalCreated",
      "type": "event"
    },
    {
      "anonymous": false,
      "inputs": [
        {
          "indexed": false,
          "internalType": "uint256",
          "name": "id",
          "type": "uint256"
        }
      ],
      "name": "ProposalExecuted",
      "type": "event"
    },
    {
      "anonymous": false,
      "inputs": [
        {
          "indexed": false,
          "internalType": "uint256",
          "name": "id",
          "type": "uint256"
        },
        {
          "indexed": false,
          "internalType": "uint256",
          "name": "eta",
          "type": "uint256"
        }
      ],
      "name": "ProposalQueued",
      "type": "event"
    },
    {
      "anonymous": false,
      "inputs": [
        {
          "indexed": false,
          "internalType": "address",
          "name": "voter",
          "type": "address"
        },
        {
          "indexed": false,
          "internalType": "uint256",
          "name": "proposalId",
          "type": "uint256"
        },
        {
          "indexed": false,
          "internalType": "bool",
          "name": "support",
          "type": "bool"
        },
        {
          "indexed": false,
          "internalType": "uint256",
          "name": "votes",
          "type": "uint256"
        }
      ],
      "name": "VoteCast",
      "type": "event"
    },
    {
      "constant": true,
      "inputs": [],
      "name": "BALLOT_TYPEHASH",
      "outputs": [
        {
          "internalType": "bytes32",
          "name": "",
          "type": "bytes32"
        }
      ],
      "payable": false,
      "stateMutability": "view",
      "type": "function"
    },
    {
      "constant": true,
      "inputs": [],
      "name": "DOMAIN_TYPEHASH",
      "outputs": [
        {
          "internalType": "bytes32",
          "name": "",
          "type": "bytes32"
        }
      ],
      "payable": false,
      "stateMutability": "view",
      "type": "function"
    },
    {
      "constant": false,
      "inputs": [],
      "name": "__abdicate",
      "outputs": [],
      "payable": false,
      "stateMutability": "nonpayable",
      "type": "function"
    },
    {
      "constant": false,
      "inputs": [],
      "name": "__acceptAdmin",
      "outputs": [],
      "payable": false,
      "stateMutability": "nonpayable",
      "type": "function"
    },
    {
      "constant": false,
      "inputs": [
        {
          "internalType": "address",
          "name": "newPendingAdmin",
          "type": "address"
        },
        {
          "internalType": "uint256",
          "name": "eta",
          "type": "uint256"
        }
      ],
      "name": "__executeSetTimelockPendingAdmin",
      "outputs": [],
      "payable": false,
      "stateMutability": "nonpayable",
      "type": "function"
    },
    {
      "constant": false,
      "inputs": [
        {
          "internalType": "address",
          "name": "newPendingAdmin",
          "type": "address"
        },
        {
          "internalType": "uint256",
          "name": "eta",
          "type": "uint256"
        }
      ],
      "name": "__queueSetTimelockPendingAdmin",
      "outputs": [],
      "payable": false,
      "stateMutability": "nonpayable",
      "type": "function"
    },
    {
      "constant": false,
      "inputs": [
        {
          "internalType": "uint256",
          "name": "proposalId",
          "type": "uint256"
        }
      ],
      "name": "cancel",
      "outputs": [],
      "payable": false,
      "stateMutability": "nonpayable",
      "type": "function"
    },
    {
      "constant": false,
      "inputs": [
        {
          "internalType": "uint256",
          "name": "proposalId",
          "type": "uint256"
        },
        {
          "internalType": "bool",
          "name": "support",
          "type": "bool"
        }
      ],
      "name": "castVote",
      "outputs": [],
      "payable": false,
      "stateMutability": "nonpayable",
      "type": "function"
    },
    {
      "constant": false,
      "inputs": [
        {
          "internalType": "uint256",
          "name": "proposalId",
          "type": "uint256"
        },
        {
          "internalType": "bool",
          "name": "support",
          "type": "bool"
        },
        {
          "internalType": "uint8",
          "name": "v",
          "type": "uint8"
        },
        {
          "internalType": "bytes32",
          "name": "r",
          "type": "bytes32"
        },
        {
          "internalType": "bytes32",
          "name": "s",
          "type": "bytes32"
        }
      ],
      "name": "castVoteBySig",
      "outputs": [],
      "payable": false,
      "stateMutability": "nonpayable",
      "type": "function"
    },
    {
      "constant": true,
      "inputs": [],
      "name": "daot",
      "outputs": [
        {
          "internalType": "contract DaotInterface",
          "name": "",
          "type": "address"
        }
      ],
      "payable": false,
      "stateMutability": "view",
      "type": "function"
    },
    {
      "constant": false,
      "inputs": [
        {
          "internalType": "uint256",
          "name": "proposalId",
          "type": "uint256"
        }
      ],
      "name": "execute",
      "outputs": [],
      "payable": true,
      "stateMutability": "payable",
      "type": "function"
    },
    {
      "constant": true,
      "inputs": [
        {
          "internalType": "uint256",
          "name": "proposalId",
          "type": "uint256"
        }
      ],
      "name": "getActions",
      "outputs": [
        {
          "internalType": "address[]",
          "name": "targets",
          "type": "address[]"
        },
        {
          "internalType": "uint256[]",
          "name": "values",
          "type": "uint256[]"
        },
        {
          "internalType": "string[]",
          "name": "signatures",
          "type": "string[]"
        },
        {
          "internalType": "bytes[]",
          "name": "calldatas",
          "type": "bytes[]"
        }
      ],
      "payable": false,
      "stateMutability": "view",
      "type": "function"
    },
    {
      "constant": true,
      "inputs": [
        {
          "internalType": "uint256",
          "name": "proposalId",
          "type": "uint256"
        }
      ],
      "name": "getDescription",
      "outputs": [
        {
          "internalType": "string",
          "name": "",
          "type": "string"
        }
      ],
      "payable": false,
      "stateMutability": "view",
      "type": "function"
    },
    {
      "constant": true,
      "inputs": [
        {
          "internalType": "uint256",
          "name": "proposalId",
          "type": "uint256"
        },
        {
          "internalType": "address",
          "name": "voter",
          "type": "address"
        }
      ],
      "name": "getReceipt",
      "outputs": [
        {
          "components": [
            {
              "internalType": "bool",
              "name": "hasVoted",
              "type": "bool"
            },
            {
              "internalType": "bool",
              "name": "support",
              "type": "bool"
            },
            {
              "internalType": "uint96",
              "name": "votes",
              "type": "uint96"
            }
          ],
          "internalType": "struct Governor.Receipt",
          "name": "",
          "type": "tuple"
        }
      ],
      "payable": false,
      "stateMutability": "view",
      "type": "function"
    },
    {
      "constant": true,
      "inputs": [],
      "name": "guardian",
      "outputs": [
        {
          "internalType": "address",
          "name": "",
          "type": "address"
        }
      ],
      "payable": false,
      "stateMutability": "view",
      "type": "function"
    },
    {
      "constant": true,
      "inputs": [
        {
          "internalType": "address",
          "name": "",
          "type": "address"
        }
      ],
      "name": "latestProposalIds",
      "outputs": [
        {
          "internalType": "uint256",
          "name": "",
          "type": "uint256"
        }
      ],
      "payable": false,
      "stateMutability": "view",
      "type": "function"
    },
    {
      "constant": true,
      "inputs": [],
      "name": "name",
      "outputs": [
        {
          "internalType": "string",
          "name": "",
          "type": "string"
        }
      ],
      "payable": false,
      "stateMutability": "view",
      "type": "function"
    },
    {
      "constant": true,
      "inputs": [],
      "name": "proposalCount",
      "outputs": [
        {
          "internalType": "uint256",
          "name": "",
          "type": "uint256"
        }
      ],
      "payable": false,
      "stateMutability": "view",
      "type": "function"
    },
    {
      "constant": true,
      "inputs": [],
      "name": "proposalMaxOperations",
      "outputs": [
        {
          "internalType": "uint256",
          "name": "",
          "type": "uint256"
        }
      ],
      "payable": false,
      "stateMutability": "pure",
      "type": "function"
    },
    {
      "constant": true,
      "inputs": [],
      "name": "proposalThreshold",
      "outputs": [
        {
          "internalType": "uint256",
          "name": "",
          "type": "uint256"
        }
      ],
      "payable": false,
      "stateMutability": "pure",
      "type": "function"
    },
    {
      "constant": true,
      "inputs": [
        {
          "internalType": "uint256",
          "name": "",
          "type": "uint256"
        }
      ],
      "name": "proposals",
      "outputs": [
        {
          "internalType": "uint256",
          "name": "id",
          "type": "uint256"
        },
        {
          "internalType": "address",
          "name": "proposer",
          "type": "address"
        },
        {
          "internalType": "uint256",
          "name": "eta",
          "type": "uint256"
        },
        {
          "internalType": "uint256",
          "name": "startBlock",
          "type": "uint256"
        },
        {
          "internalType": "uint256",
          "name": "endBlock",
          "type": "uint256"
        },
        {
          "internalType": "uint256",
          "name": "forVotes",
          "type": "uint256"
        },
        {
          "internalType": "uint256",
          "name": "againstVotes",
          "type": "uint256"
        },
        {
          "internalType": "bool",
          "name": "canceled",
          "type": "bool"
        },
        {
          "internalType": "bool",
          "name": "executed",
          "type": "bool"
        },
        {
          "internalType": "string",
          "name": "description",
          "type": "string"
        }
      ],
      "payable": false,
      "stateMutability": "view",
      "type": "function"
    },
    {
      "constant": false,
      "inputs": [
        {
          "internalType": "address[]",
          "name": "targets",
          "type": "address[]"
        },
        {
          "internalType": "uint256[]",
          "name": "values",
          "type": "uint256[]"
        },
        {
          "internalType": "string[]",
          "name": "signatures",
          "type": "string[]"
        },
        {
          "internalType": "bytes[]",
          "name": "calldatas",
          "type": "bytes[]"
        },
        {
          "internalType": "string",
          "name": "description",
          "type": "string"
        }
      ],
      "name": "propose",
      "outputs": [
        {
          "internalType": "uint256",
          "name": "",
          "type": "uint256"
        }
      ],
      "payable": false,
      "stateMutability": "nonpayable",
      "type": "function"
    },
    {
      "constant": false,
      "inputs": [
        {
          "internalType": "uint256",
          "name": "proposalId",
          "type": "uint256"
        }
      ],
      "name": "queue",
      "outputs": [],
      "payable": false,
      "stateMutability": "nonpayable",
      "type": "function"
    },
    {
      "constant": true,
      "inputs": [],
      "name": "quorumVotes",
      "outputs": [
        {
          "internalType": "uint256",
          "name": "",
          "type": "uint256"
        }
      ],
      "payable": false,
      "stateMutability": "pure",
      "type": "function"
    },
    {
      "constant": true,
      "inputs": [
        {
          "internalType": "uint256",
          "name": "proposalId",
          "type": "uint256"
        }
      ],
      "name": "state",
      "outputs": [
        {
          "internalType": "enum Governor.ProposalState",
          "name": "",
          "type": "uint8"
        }
      ],
      "payable": false,
      "stateMutability": "view",
      "type": "function"
    },
    {
      "constant": true,
      "inputs": [],
      "name": "timelock",
      "outputs": [
        {
          "internalType": "contract TimelockInterface",
          "name": "",
          "type": "address"
        }
      ],
      "payable": false,
      "stateMutability": "view",
      "type": "function"
    },
    {
      "constant": true,
      "inputs": [],
      "name": "votingDelay",
      "outputs": [
        {
          "internalType": "uint256",
          "name": "",
          "type": "uint256"
        }
      ],
      "payable": false,
      "stateMutability": "pure",
      "type": "function"
    },
    {
      "constant": true,
      "inputs": [],
      "name": "votingPeriod",
      "outputs": [
        {
          "internalType": "uint256",
          "name": "",
          "type": "uint256"
        }
      ],
      "payable": false,
      "stateMutability": "pure",
      "type": "function"
    }
  ],
  "bytecode": "0x60806040523480156200001157600080fd5b506040516200574538038062005745833981810160405262000037919081019062000119565b826000806101000a81548173ffffffffffffffffffffffffffffffffffffffff021916908373ffffffffffffffffffffffffffffffffffffffff16021790555081600160006101000a81548173ffffffffffffffffffffffffffffffffffffffff021916908373ffffffffffffffffffffffffffffffffffffffff16021790555080600260006101000a81548173ffffffffffffffffffffffffffffffffffffffff021916908373ffffffffffffffffffffffffffffffffffffffff160217905550505050620001bd565b6000815190506200011381620001a3565b92915050565b6000806000606084860312156200012f57600080fd5b60006200013f8682870162000102565b9350506020620001528682870162000102565b9250506040620001658682870162000102565b9150509250925092565b60006200017c8262000183565b9050919050565b600073ffffffffffffffffffffffffffffffffffffffff82169050919050565b620001ae816200016f565b8114620001ba57600080fd5b50565b61557880620001cd6000396000f3fe6080604052600436106101b75760003560e01c80634634c61f116100ec578063d33219b41161008a578063ddf0b00911610064578063ddf0b0091461060a578063deaaa7cc14610633578063e23a9a521461065e578063fe0d94c11461069b576101b7565b8063d33219b414610577578063da35c664146105a2578063da95691a146105cd576101b7565b80637bdbe4d0116100c65780637bdbe4d0146104e1578063915006711461050c578063b58131b014610535578063b9a6196114610560576101b7565b80634634c61f146104645780634925ec551461048d578063760fbc13146104ca576101b7565b806324bc1a64116101595780633e4f49e6116101335780633e4f49e6146103a857806340e58ee5146103e5578063428217a21461040e578063452a932014610439576101b7565b806324bc1a6414610312578063328dd9821461033d5780633932abb11461037d576101b7565b806315373e3d1161019557806315373e3d1461025857806317977c611461028157806320606b70146102be57806321f43e42146102e9576101b7565b8063013cf08b146101bc57806302a251a31461020257806306fdde031461022d575b600080fd5b3480156101c857600080fd5b506101e360048036036101de9190810190613614565b6106b7565b6040516101f99a99989796959493929190614f31565b60405180910390f35b34801561020e57600080fd5b506102176107dd565b6040516102249190614e66565b60405180910390f35b34801561023957600080fd5b506102426107e7565b60405161024f9190614b67565b60405180910390f35b34801561026457600080fd5b5061027f600480360361027a91908101906136a2565b610820565b005b34801561028d57600080fd5b506102a860048036036102a3919081019061342d565b61082f565b6040516102b59190614e66565b60405180910390f35b3480156102ca57600080fd5b506102d3610847565b6040516102e09190614a3a565b60405180910390f35b3480156102f557600080fd5b50610310600480360361030b9190810190613456565b61085e565b005b34801561031e57600080fd5b506103276109eb565b6040516103349190614e66565b60405180910390f35b34801561034957600080fd5b50610364600480360361035f9190810190613614565b6109fd565b60405161037494939291906149d9565b60405180910390f35b34801561038957600080fd5b50610392610cda565b60405161039f9190614e66565b60405180910390f35b3480156103b457600080fd5b506103cf60048036036103ca9190810190613614565b610ce3565b6040516103dc9190614b4c565b60405180910390f35b3480156103f157600080fd5b5061040c60048036036104079190810190613614565b610ec7565b005b34801561041a57600080fd5b50610423611263565b6040516104309190614b16565b60405180910390f35b34801561044557600080fd5b5061044e611289565b60405161045b9190614806565b60405180910390f35b34801561047057600080fd5b5061048b600480360361048691908101906136de565b6112af565b005b34801561049957600080fd5b506104b460048036036104af9190810190613614565b61147e565b6040516104c19190614b89565b60405180910390f35b3480156104d657600080fd5b506104df611536565b005b3480156104ed57600080fd5b506104f661160a565b6040516105039190614e66565b60405180910390f35b34801561051857600080fd5b50610533600480360361052e9190810190613456565b611613565b005b34801561054157600080fd5b5061054a61179b565b6040516105579190614e66565b60405180910390f35b34801561056c57600080fd5b506105756117ad565b005b34801561058357600080fd5b5061058c6118c0565b6040516105999190614b31565b60405180910390f35b3480156105ae57600080fd5b506105b76118e5565b6040516105c49190614e66565b60405180910390f35b3480156105d957600080fd5b506105f460048036036105ef9190810190613492565b6118eb565b6040516106019190614e66565b60405180910390f35b34801561061657600080fd5b50610631600480360361062c9190810190613614565b611edc565b005b34801561063f57600080fd5b5061064861222b565b6040516106559190614a3a565b60405180910390f35b34801561066a57600080fd5b5061068560048036036106809190810190613666565b612242565b6040516106929190614e4b565b60405180910390f35b6106b560048036036106b09190810190613614565b612324565b005b60046020528060005260406000206000915090508060000154908060010160009054906101000a900473ffffffffffffffffffffffffffffffffffffffff169080600201549080600701549080600801549080600901549080600a01549080600b0160009054906101000a900460ff169080600b0160019054906101000a900460ff169080600c018054600181600116156101000203166002900480601f0160208091040260200160405190810160405280929190818152602001828054600181600116156101000203166002900480156107d35780601f106107a8576101008083540402835291602001916107d3565b820191906000526020600020905b8154815290600101906020018083116107b657829003601f168201915b505050505090508a565b6000614380905090565b6040518060400160405280601781526020017f436f6d706f756e6420476f7665726e6f7220416c70686100000000000000000081525081565b61082b338383612571565b5050565b60056020528060005260406000206000915090505481565b604051610853906147dc565b604051809103902081565b600260009054906101000a900473ffffffffffffffffffffffffffffffffffffffff1673ffffffffffffffffffffffffffffffffffffffff163373ffffffffffffffffffffffffffffffffffffffff16146108ee576040517f08c379a00000000000000000000000000000000000000000000000000000000081526004016108e590614c0b565b60405180910390fd5b6000809054906101000a900473ffffffffffffffffffffffffffffffffffffffff1673ffffffffffffffffffffffffffffffffffffffff16630825f38f6000809054906101000a900473ffffffffffffffffffffffffffffffffffffffff166000856040516020016109609190614806565b604051602081830303815290604052856040518563ffffffff1660e01b815260040161098f949392919061484a565b600060405180830381600087803b1580156109a957600080fd5b505af11580156109bd573d6000803e3d6000fd5b505050506040513d6000823e3d601f19601f820116820180604052506109e691908101906135d3565b505050565b60006954b40b1f852bda000000905090565b60608060608060006004600087815260200190815260200160002090508060030181600401826005018360060183805480602002602001604051908101604052809291908181526020018280548015610aab57602002820191906000526020600020905b8160009054906101000a900473ffffffffffffffffffffffffffffffffffffffff1673ffffffffffffffffffffffffffffffffffffffff1681526020019060010190808311610a61575b5050505050935082805480602002602001604051908101604052809291908181526020018280548015610afd57602002820191906000526020600020905b815481526020019060010190808311610ae9575b5050505050925081805480602002602001604051908101604052809291908181526020016000905b82821015610be1578382906000526020600020018054600181600116156101000203166002900480601f016020809104026020016040519081016040528092919081815260200182805460018160011615610100020316600290048015610bcd5780601f10610ba257610100808354040283529160200191610bcd565b820191906000526020600020905b815481529060010190602001808311610bb057829003601f168201915b505050505081526020019060010190610b25565b50505050915080805480602002602001604051908101604052809291908181526020016000905b82821015610cc4578382906000526020600020018054600181600116156101000203166002900480601f016020809104026020016040519081016040528092919081815260200182805460018160011615610100020316600290048015610cb05780601f10610c8557610100808354040283529160200191610cb0565b820191906000526020600020905b815481529060010190602001808311610c9357829003601f168201915b505050505081526020019060010190610c08565b5050505090509450945094509450509193509193565b60006001905090565b60008160035410158015610cf75750600082115b610d36576040517f08c379a0000000000000000000000000000000000000000000000000000000008152600401610d2d90614c2b565b60405180910390fd5b600060046000848152602001908152602001600020905080600b0160009054906101000a900460ff1615610d6e576002915050610ec2565b80600701544311610d83576000915050610ec2565b80600801544311610d98576001915050610ec2565b80600a01548160090154111580610db95750610db26109eb565b8160090154105b15610dc8576003915050610ec2565b600081600201541415610ddf576004915050610ec2565b80600b0160019054906101000a900460ff1615610e00576007915050610ec2565b610eac81600201546000809054906101000a900473ffffffffffffffffffffffffffffffffffffffff1673ffffffffffffffffffffffffffffffffffffffff1663c1a287e26040518163ffffffff1660e01b815260040160206040518083038186803b158015610e6f57600080fd5b505afa158015610e83573d6000803e3d6000fd5b505050506040513d601f19601f82011682018060405250610ea7919081019061363d565b612909565b4210610ebc576006915050610ec2565b60059150505b919050565b6000610ed282610ce3565b9050600780811115610ee057fe5b816007811115610eec57fe5b1415610f2d576040517f08c379a0000000000000000000000000000000000000000000000000000000008152600401610f2490614dcb565b60405180910390fd5b6000600460008481526020019081526020016000209050600260009054906101000a900473ffffffffffffffffffffffffffffffffffffffff1673ffffffffffffffffffffffffffffffffffffffff163373ffffffffffffffffffffffffffffffffffffffff16148061108e5750610fa361179b565b600160009054906101000a900473ffffffffffffffffffffffffffffffffffffffff1673ffffffffffffffffffffffffffffffffffffffff1663782d6fe18360010160009054906101000a900473ffffffffffffffffffffffffffffffffffffffff1661101143600161295e565b6040518363ffffffff1660e01b815260040161102e9291906148a9565b60206040518083038186803b15801561104657600080fd5b505afa15801561105a573d6000803e3d6000fd5b505050506040513d601f19601f8201168201806040525061107e9190810190613755565b6bffffffffffffffffffffffff16105b6110cd576040517f08c379a00000000000000000000000000000000000000000000000000000000081526004016110c490614d0b565b60405180910390fd5b600181600b0160006101000a81548160ff02191690831515021790555060008090505b8160030180549050811015611226576000809054906101000a900473ffffffffffffffffffffffffffffffffffffffff1673ffffffffffffffffffffffffffffffffffffffff1663591fcdfe83600301838154811061114b57fe5b9060005260206000200160009054906101000a900473ffffffffffffffffffffffffffffffffffffffff1684600401848154811061118557fe5b906000526020600020015485600501858154811061119f57fe5b906000526020600020018660060186815481106111b857fe5b9060005260206000200187600201546040518663ffffffff1660e01b81526004016111e7959493929190614978565b600060405180830381600087803b15801561120157600080fd5b505af1158015611215573d6000803e3d6000fd5b5050505080806001019150506110f0565b507f789cf55be980739dad1d0699b93b58e806b51c9d96619bfa8fe0a28abaa7b30c836040516112569190614e66565b60405180910390a1505050565b600160009054906101000a900473ffffffffffffffffffffffffffffffffffffffff1681565b600260009054906101000a900473ffffffffffffffffffffffffffffffffffffffff1681565b60006040516112bd906147dc565b60405180910390206040518060400160405280601781526020017f436f6d706f756e6420476f7665726e6f7220416c7068610000000000000000008152508051906020012061130a6129ae565b3060405160200161131e9493929190614a55565b6040516020818303038152906040528051906020012090506000604051611344906147f1565b6040518091039020878760405160200161136093929190614a9a565b6040516020818303038152906040528051906020012090506000828260405160200161138d9291906147a5565b6040516020818303038152906040528051906020012090506000600182888888604051600081526020016040526040516113ca9493929190614ad1565b6020604051602081039080840390855afa1580156113ec573d6000803e3d6000fd5b505050602060405103519050600073ffffffffffffffffffffffffffffffffffffffff168173ffffffffffffffffffffffffffffffffffffffff161415611468576040517f08c379a000000000000000000000000000000000000000000000000000000000815260040161145f90614d8b565b60405180910390fd5b611473818a8a612571565b505050505050505050565b606060046000838152602001908152602001600020600c018054600181600116156101000203166002900480601f01602080910402602001604051908101604052809291908181526020018280546001816001161561010002031660029004801561152a5780601f106114ff5761010080835404028352916020019161152a565b820191906000526020600020905b81548152906001019060200180831161150d57829003601f168201915b50505050509050919050565b600260009054906101000a900473ffffffffffffffffffffffffffffffffffffffff1673ffffffffffffffffffffffffffffffffffffffff163373ffffffffffffffffffffffffffffffffffffffff16146115c6576040517f08c379a00000000000000000000000000000000000000000000000000000000081526004016115bd90614e2b565b60405180910390fd5b6000600260006101000a81548173ffffffffffffffffffffffffffffffffffffffff021916908373ffffffffffffffffffffffffffffffffffffffff160217905550565b6000600a905090565b600260009054906101000a900473ffffffffffffffffffffffffffffffffffffffff1673ffffffffffffffffffffffffffffffffffffffff163373ffffffffffffffffffffffffffffffffffffffff16146116a3576040517f08c379a000000000000000000000000000000000000000000000000000000000815260040161169a90614c8b565b60405180910390fd5b6000809054906101000a900473ffffffffffffffffffffffffffffffffffffffff1673ffffffffffffffffffffffffffffffffffffffff16633a66f9016000809054906101000a900473ffffffffffffffffffffffffffffffffffffffff166000856040516020016117159190614806565b604051602081830303815290604052856040518563ffffffff1660e01b8152600401611744949392919061484a565b602060405180830381600087803b15801561175e57600080fd5b505af1158015611772573d6000803e3d6000fd5b505050506040513d601f19601f8201168201806040525061179691908101906135aa565b505050565b600069152d02c7e14af6800000905090565b600260009054906101000a900473ffffffffffffffffffffffffffffffffffffffff1673ffffffffffffffffffffffffffffffffffffffff163373ffffffffffffffffffffffffffffffffffffffff161461183d576040517f08c379a000000000000000000000000000000000000000000000000000000000815260040161183490614bab565b60405180910390fd5b6000809054906101000a900473ffffffffffffffffffffffffffffffffffffffff1673ffffffffffffffffffffffffffffffffffffffff16630e18b6816040518163ffffffff1660e01b8152600401600060405180830381600087803b1580156118a657600080fd5b505af11580156118ba573d6000803e3d6000fd5b50505050565b6000809054906101000a900473ffffffffffffffffffffffffffffffffffffffff1681565b60035481565b60006118f561179b565b600160009054906101000a900473ffffffffffffffffffffffffffffffffffffffff1673ffffffffffffffffffffffffffffffffffffffff1663782d6fe13361193f43600161295e565b6040518363ffffffff1660e01b815260040161195c929190614821565b60206040518083038186803b15801561197457600080fd5b505afa158015611988573d6000803e3d6000fd5b505050506040513d601f19601f820116820180604052506119ac9190810190613755565b6bffffffffffffffffffffffff16116119fa576040517f08c379a00000000000000000000000000000000000000000000000000000000081526004016119f190614d6b565b60405180910390fd5b84518651148015611a0c575083518651145b8015611a19575082518651145b611a58576040517f08c379a0000000000000000000000000000000000000000000000000000000008152600401611a4f90614ceb565b60405180910390fd5b600086511415611a9d576040517f08c379a0000000000000000000000000000000000000000000000000000000008152600401611a9490614d4b565b60405180910390fd5b611aa561160a565b86511115611ae8576040517f08c379a0000000000000000000000000000000000000000000000000000000008152600401611adf90614cab565b60405180910390fd5b6000600560003373ffffffffffffffffffffffffffffffffffffffff1673ffffffffffffffffffffffffffffffffffffffff16815260200190815260200160002054905060008114611bf7576000611b3f82610ce3565b905060016007811115611b4e57fe5b816007811115611b5a57fe5b1415611b9b576040517f08c379a0000000000000000000000000000000000000000000000000000000008152600401611b9290614dab565b60405180910390fd5b60006007811115611ba857fe5b816007811115611bb457fe5b1415611bf5576040517f08c379a0000000000000000000000000000000000000000000000000000000008152600401611bec90614c6b565b60405180910390fd5b505b6000611c0a43611c05610cda565b612909565b90506000611c1f82611c1a6107dd565b612909565b9050600360008154809291906001019190505550611c3b612b8f565b604051806101c0016040528060035481526020013373ffffffffffffffffffffffffffffffffffffffff168152602001600081526020018b81526020018a815260200189815260200188815260200184815260200183815260200160008152602001600081526020016000151581526020016000151581526020018781525090508060046000836000015181526020019081526020016000206000820151816000015560208201518160010160006101000a81548173ffffffffffffffffffffffffffffffffffffffff021916908373ffffffffffffffffffffffffffffffffffffffff160217905550604082015181600201556060820151816003019080519060200190611d4b929190612c18565b506080820151816004019080519060200190611d68929190612ca2565b5060a0820151816005019080519060200190611d85929190612cef565b5060c0820151816006019080519060200190611da2929190612d4f565b5060e082015181600701556101008201518160080155610120820151816009015561014082015181600a015561016082015181600b0160006101000a81548160ff02191690831515021790555061018082015181600b0160016101000a81548160ff0219169083151502179055506101a082015181600c019080519060200190611e2d929190612daf565b50905050806000015160056000836020015173ffffffffffffffffffffffffffffffffffffffff1673ffffffffffffffffffffffffffffffffffffffff168152602001908152602001600020819055507f7d84a6263ae0d98d3329bd7b46bb4e8d6f98cd35a7adb45c274c8b7fd5ebd5e08160000151338c8c8c8c89898e604051611ec099989796959493929190614e81565b60405180910390a1806000015194505050505095945050505050565b60046007811115611ee957fe5b611ef282610ce3565b6007811115611efd57fe5b14611f3d576040517f08c379a0000000000000000000000000000000000000000000000000000000008152600401611f3490614bcb565b60405180910390fd5b60006004600083815260200190815260200160002090506000611ffe426000809054906101000a900473ffffffffffffffffffffffffffffffffffffffff1673ffffffffffffffffffffffffffffffffffffffff16636a42b8f86040518163ffffffff1660e01b815260040160206040518083038186803b158015611fc157600080fd5b505afa158015611fd5573d6000803e3d6000fd5b505050506040513d601f19601f82011682018060405250611ff9919081019061363d565b612909565b905060008090505b82600301805490508110156121e3576121d683600301828154811061202757fe5b9060005260206000200160009054906101000a900473ffffffffffffffffffffffffffffffffffffffff1684600401838154811061206157fe5b906000526020600020015485600501848154811061207b57fe5b906000526020600020018054600181600116156101000203166002900480601f0160208091040260200160405190810160405280929190818152602001828054600181600116156101000203166002900480156121195780601f106120ee57610100808354040283529160200191612119565b820191906000526020600020905b8154815290600101906020018083116120fc57829003601f168201915b505050505086600601858154811061212d57fe5b906000526020600020018054600181600116156101000203166002900480601f0160208091040260200160405190810160405280929190818152602001828054600181600116156101000203166002900480156121cb5780601f106121a0576101008083540402835291602001916121cb565b820191906000526020600020905b8154815290600101906020018083116121ae57829003601f168201915b5050505050866129bb565b8080600101915050612006565b508082600201819055507f9a2e42fd6722813d69113e7d0079d3d940171428df7373df9c7f7617cfda2892838260405161221e929190614fd4565b60405180910390a1505050565b604051612237906147f1565b604051809103902081565b61224a612e2f565b60046000848152602001908152602001600020600d0160008373ffffffffffffffffffffffffffffffffffffffff1673ffffffffffffffffffffffffffffffffffffffff1681526020019081526020016000206040518060600160405290816000820160009054906101000a900460ff161515151581526020016000820160019054906101000a900460ff161515151581526020016000820160029054906101000a90046bffffffffffffffffffffffff166bffffffffffffffffffffffff166bffffffffffffffffffffffff1681525050905092915050565b6005600781111561233157fe5b61233a82610ce3565b600781111561234557fe5b14612385576040517f08c379a000000000000000000000000000000000000000000000000000000000815260040161237c90614beb565b60405180910390fd5b6000600460008381526020019081526020016000209050600181600b0160016101000a81548160ff02191690831515021790555060008090505b8160030180549050811015612535576000809054906101000a900473ffffffffffffffffffffffffffffffffffffffff1673ffffffffffffffffffffffffffffffffffffffff16630825f38f83600401838154811061241a57fe5b906000526020600020015484600301848154811061243457fe5b9060005260206000200160009054906101000a900473ffffffffffffffffffffffffffffffffffffffff1685600401858154811061246e57fe5b906000526020600020015486600501868154811061248857fe5b906000526020600020018760060187815481106124a157fe5b9060005260206000200188600201546040518763ffffffff1660e01b81526004016124d0959493929190614978565b6000604051808303818588803b1580156124e957600080fd5b505af11580156124fd573d6000803e3d6000fd5b50505050506040513d6000823e3d601f19601f8201168201806040525061252791908101906135d3565b5080806001019150506123bf565b507f712ae1383f79ac853f8d882153778e0260ef8f03b504e2866e0593e04d2b291f826040516125659190614e66565b60405180910390a15050565b6001600781111561257e57fe5b61258783610ce3565b600781111561259257fe5b146125d2576040517f08c379a00000000000000000000000000000000000000000000000000000000081526004016125c990614deb565b60405180910390fd5b6000600460008481526020019081526020016000209050600081600d0160008673ffffffffffffffffffffffffffffffffffffffff1673ffffffffffffffffffffffffffffffffffffffff1681526020019081526020016000209050600015158160000160009054906101000a900460ff16151514612686576040517f08c379a000000000000000000000000000000000000000000000000000000000815260040161267d90614c4b565b60405180910390fd5b6000600160009054906101000a900473ffffffffffffffffffffffffffffffffffffffff1673ffffffffffffffffffffffffffffffffffffffff1663782d6fe18785600701546040518363ffffffff1660e01b81526004016126e99291906148a9565b60206040518083038186803b15801561270157600080fd5b505afa158015612715573d6000803e3d6000fd5b505050506040513d601f19601f820116820180604052506127399190810190613755565b9050831561276a5761275d8360090154826bffffffffffffffffffffffff16612909565b836009018190555061278f565b61278683600a0154826bffffffffffffffffffffffff16612909565b83600a01819055505b60006127a3846009015485600a0154612909565b905080600160009054906101000a900473ffffffffffffffffffffffffffffffffffffffff1673ffffffffffffffffffffffffffffffffffffffff1663c4e41b226040518163ffffffff1660e01b815260040160206040518083038186803b15801561280e57600080fd5b505afa158015612822573d6000803e3d6000fd5b505050506040513d601f19601f82011682018060405250612846919081019061363d565b141561285757600084600201819055505b60018360000160006101000a81548160ff021916908315150217905550848360000160016101000a81548160ff021916908315150217905550818360000160026101000a8154816bffffffffffffffffffffffff02191690836bffffffffffffffffffffffff1602179055507f877856338e13f63d0c36822ff0ef736b80934cd90574a3a5bc9262c39d217c46878787856040516128f894939291906148d2565b60405180910390a150505050505050565b600080828401905083811015612954576040517f08c379a000000000000000000000000000000000000000000000000000000000815260040161294b90614ccb565b60405180910390fd5b8091505092915050565b6000828211156129a3576040517f08c379a000000000000000000000000000000000000000000000000000000000815260040161299a90614e0b565b60405180910390fd5b818303905092915050565b6000804690508091505090565b6000809054906101000a900473ffffffffffffffffffffffffffffffffffffffff1673ffffffffffffffffffffffffffffffffffffffff1663f2b065378686868686604051602001612a11959493929190614917565b604051602081830303815290604052805190602001206040518263ffffffff1660e01b8152600401612a439190614a3a565b60206040518083038186803b158015612a5b57600080fd5b505afa158015612a6f573d6000803e3d6000fd5b505050506040513d601f19601f82011682018060405250612a939190810190613581565b15612ad3576040517f08c379a0000000000000000000000000000000000000000000000000000000008152600401612aca90614d2b565b60405180910390fd5b6000809054906101000a900473ffffffffffffffffffffffffffffffffffffffff1673ffffffffffffffffffffffffffffffffffffffff16633a66f90186868686866040518663ffffffff1660e01b8152600401612b35959493929190614917565b602060405180830381600087803b158015612b4f57600080fd5b505af1158015612b63573d6000803e3d6000fd5b505050506040513d601f19601f82011682018060405250612b8791908101906135aa565b505050505050565b604051806101c0016040528060008152602001600073ffffffffffffffffffffffffffffffffffffffff168152602001600081526020016060815260200160608152602001606081526020016060815260200160008152602001600081526020016000815260200160008152602001600015158152602001600015158152602001606081525090565b828054828255906000526020600020908101928215612c91579160200282015b82811115612c905782518260006101000a81548173ffffffffffffffffffffffffffffffffffffffff021916908373ffffffffffffffffffffffffffffffffffffffff16021790555091602001919060010190612c38565b5b509050612c9e9190612e62565b5090565b828054828255906000526020600020908101928215612cde579160200282015b82811115612cdd578251825591602001919060010190612cc2565b5b509050612ceb9190612ea5565b5090565b828054828255906000526020600020908101928215612d3e579160200282015b82811115612d3d578251829080519060200190612d2d929190612daf565b5091602001919060010190612d0f565b5b509050612d4b9190612eca565b5090565b828054828255906000526020600020908101928215612d9e579160200282015b82811115612d9d578251829080519060200190612d8d929190612ef6565b5091602001919060010190612d6f565b5b509050612dab9190612f76565b5090565b828054600181600116156101000203166002900490600052602060002090601f016020900481019282601f10612df057805160ff1916838001178555612e1e565b82800160010185558215612e1e579182015b82811115612e1d578251825591602001919060010190612e02565b5b509050612e2b9190612ea5565b5090565b604051806060016040528060001515815260200160001515815260200160006bffffffffffffffffffffffff1681525090565b612ea291905b80821115612e9e57600081816101000a81549073ffffffffffffffffffffffffffffffffffffffff021916905550600101612e68565b5090565b90565b612ec791905b80821115612ec3576000816000905550600101612eab565b5090565b90565b612ef391905b80821115612eef5760008181612ee69190612fa2565b50600101612ed0565b5090565b90565b828054600181600116156101000203166002900490600052602060002090601f016020900481019282601f10612f3757805160ff1916838001178555612f65565b82800160010185558215612f65579182015b82811115612f64578251825591602001919060010190612f49565b5b509050612f729190612ea5565b5090565b612f9f91905b80821115612f9b5760008181612f929190612fea565b50600101612f7c565b5090565b90565b50805460018160011615610100020316600290046000825580601f10612fc85750612fe7565b601f016020900490600052602060002090810190612fe69190612ea5565b5b50565b50805460018160011615610100020316600290046000825580601f10613010575061302f565b601f01602090049060005260206000209081019061302e9190612ea5565b5b50565b600081359050613041816154ab565b92915050565b600082601f83011261305857600080fd5b813561306b6130668261502a565b614ffd565b9150818183526020840193506020810190508385602084028201111561309057600080fd5b60005b838110156130c057816130a68882613032565b845260208401935060208301925050600181019050613093565b5050505092915050565b600082601f8301126130db57600080fd5b81356130ee6130e982615052565b614ffd565b9150818183526020840193506020810190508360005b83811015613134578135860161311a8882613289565b845260208401935060208301925050600181019050613104565b5050505092915050565b600082601f83011261314f57600080fd5b813561316261315d8261507a565b614ffd565b9150818183526020840193506020810190508360005b838110156131a8578135860161318e8882613331565b845260208401935060208301925050600181019050613178565b5050505092915050565b600082601f8301126131c357600080fd5b81356131d66131d1826150a2565b614ffd565b915081818352602084019350602081019050838560208402820111156131fb57600080fd5b60005b8381101561322b578161321188826133d9565b8452602084019350602083019250506001810190506131fe565b5050505092915050565b600081359050613244816154c2565b92915050565b600081519050613259816154c2565b92915050565b60008135905061326e816154d9565b92915050565b600081519050613283816154d9565b92915050565b600082601f83011261329a57600080fd5b81356132ad6132a8826150ca565b614ffd565b915080825260208301602083018583830111156132c957600080fd5b6132d4838284615441565b50505092915050565b600082601f8301126132ee57600080fd5b81516133016132fc826150f6565b614ffd565b9150808252602083016020830185838301111561331d57600080fd5b613328838284615450565b50505092915050565b600082601f83011261334257600080fd5b813561335561335082615122565b614ffd565b9150808252602083016020830185838301111561337157600080fd5b61337c838284615441565b50505092915050565b600082601f83011261339657600080fd5b81356133a96133a48261514e565b614ffd565b915080825260208301602083018583830111156133c557600080fd5b6133d0838284615441565b50505092915050565b6000813590506133e8816154f0565b92915050565b6000815190506133fd816154f0565b92915050565b60008135905061341281615507565b92915050565b6000815190506134278161551e565b92915050565b60006020828403121561343f57600080fd5b600061344d84828501613032565b91505092915050565b6000806040838503121561346957600080fd5b600061347785828601613032565b9250506020613488858286016133d9565b9150509250929050565b600080600080600060a086880312156134aa57600080fd5b600086013567ffffffffffffffff8111156134c457600080fd5b6134d088828901613047565b955050602086013567ffffffffffffffff8111156134ed57600080fd5b6134f9888289016131b2565b945050604086013567ffffffffffffffff81111561351657600080fd5b6135228882890161313e565b935050606086013567ffffffffffffffff81111561353f57600080fd5b61354b888289016130ca565b925050608086013567ffffffffffffffff81111561356857600080fd5b61357488828901613385565b9150509295509295909350565b60006020828403121561359357600080fd5b60006135a18482850161324a565b91505092915050565b6000602082840312156135bc57600080fd5b60006135ca84828501613274565b91505092915050565b6000602082840312156135e557600080fd5b600082015167ffffffffffffffff8111156135ff57600080fd5b61360b848285016132dd565b91505092915050565b60006020828403121561362657600080fd5b6000613634848285016133d9565b91505092915050565b60006020828403121561364f57600080fd5b600061365d848285016133ee565b91505092915050565b6000806040838503121561367957600080fd5b6000613687858286016133d9565b925050602061369885828601613032565b9150509250929050565b600080604083850312156136b557600080fd5b60006136c3858286016133d9565b92505060206136d485828601613235565b9150509250929050565b600080600080600060a086880312156136f657600080fd5b6000613704888289016133d9565b955050602061371588828901613235565b945050604061372688828901613403565b93505060606137378882890161325f565b92505060806137488882890161325f565b9150509295509295909350565b60006020828403121561376757600080fd5b600061377584828501613418565b91505092915050565b600061378a83836137e5565b60208301905092915050565b60006137a28383613a26565b905092915050565b60006137b68383613b63565b905092915050565b60006137ca838361475a565b60208301905092915050565b6137df8161538d565b82525050565b6137ee81615303565b82525050565b6137fd81615303565b82525050565b600061380e826151e4565b6138188185615270565b93506138238361517a565b8060005b8381101561385457815161383b888261377e565b97506138468361523c565b925050600181019050613827565b5085935050505092915050565b600061386c826151ef565b6138768185615281565b9350836020820285016138888561518a565b8060005b858110156138c457848403895281516138a58582613796565b94506138b083615249565b925060208a0199505060018101905061388c565b50829750879550505050505092915050565b60006138e1826151fa565b6138eb8185615292565b9350836020820285016138fd8561519a565b8060005b85811015613939578484038952815161391a85826137aa565b945061392583615256565b925060208a01995050600181019050613901565b50829750879550505050505092915050565b600061395682615205565b61396081856152a3565b935061396b836151aa565b8060005b8381101561399c57815161398388826137be565b975061398e83615263565b92505060018101905061396f565b5085935050505092915050565b6139b281615315565b82525050565b6139c181615315565b82525050565b6139d081615321565b82525050565b6139e76139e282615321565b615483565b82525050565b60006139f88261521b565b613a0281856152c5565b9350613a12818560208601615450565b613a1b8161548d565b840191505092915050565b6000613a3182615210565b613a3b81856152b4565b9350613a4b818560208601615450565b613a548161548d565b840191505092915050565b600081546001811660008114613a7c5760018114613aa257613ae6565b607f6002830416613a8d81876152c5565b955060ff198316865260208601935050613ae6565b60028204613ab081876152c5565b9550613abb856151ba565b60005b82811015613add57815481890152600182019150602081019050613abe565b80880195505050505b505092915050565b613af78161539f565b82525050565b613b06816153c3565b82525050565b613b15816153e7565b82525050565b613b24816153f9565b82525050565b6000613b3582615231565b613b3f81856152e7565b9350613b4f818560208601615450565b613b588161548d565b840191505092915050565b6000613b6e82615226565b613b7881856152d6565b9350613b88818560208601615450565b613b918161548d565b840191505092915050565b6000613ba782615226565b613bb181856152e7565b9350613bc1818560208601615450565b613bca8161548d565b840191505092915050565b600081546001811660008114613bf25760018114613c1857613c5c565b607f6002830416613c0381876152e7565b955060ff198316865260208601935050613c5c565b60028204613c2681876152e7565b9550613c31856151cf565b60005b82811015613c5357815481890152600182019150602081019050613c34565b80880195505050505b505092915050565b6000613c716039836152e7565b91507f476f7665726e6f72416c7068613a3a5f5f61636365707441646d696e3a20736560008301527f6e646572206d75737420626520676f7620677561726469616e000000000000006020830152604082019050919050565b6000613cd76044836152e7565b91507f476f7665726e6f72416c7068613a3a71756575653a2070726f706f73616c206360008301527f616e206f6e6c792062652071756575656420696620697420697320737563636560208301527f65646564000000000000000000000000000000000000000000000000000000006040830152606082019050919050565b6000613d636045836152e7565b91507f476f7665726e6f72416c7068613a3a657865637574653a2070726f706f73616c60008301527f2063616e206f6e6c79206265206578656375746564206966206974206973207160208301527f75657565640000000000000000000000000000000000000000000000000000006040830152606082019050919050565b6000613def6002836152f8565b91507f19010000000000000000000000000000000000000000000000000000000000006000830152600282019050919050565b6000613e2f604c836152e7565b91507f476f7665726e6f72416c7068613a3a5f5f6578656375746553657454696d656c60008301527f6f636b50656e64696e6741646d696e3a2073656e646572206d7573742062652060208301527f676f7620677561726469616e00000000000000000000000000000000000000006040830152606082019050919050565b6000613ebb6018836152e7565b91507f73657450656e64696e6741646d696e28616464726573732900000000000000006000830152602082019050919050565b6000613efb6029836152e7565b91507f476f7665726e6f72416c7068613a3a73746174653a20696e76616c696420707260008301527f6f706f73616c20696400000000000000000000000000000000000000000000006020830152604082019050919050565b6000613f61602d836152e7565b91507f476f7665726e6f72416c7068613a3a5f63617374566f74653a20766f7465722060008301527f616c726561647920766f746564000000000000000000000000000000000000006020830152604082019050919050565b6000613fc76059836152e7565b91507f476f7665726e6f72416c7068613a3a70726f706f73653a206f6e65206c69766560008301527f2070726f706f73616c207065722070726f706f7365722c20666f756e6420616e60208301527f20616c72656164792070656e64696e672070726f706f73616c000000000000006040830152606082019050919050565b6000614053604a836152e7565b91507f476f7665726e6f72416c7068613a3a5f5f717565756553657454696d656c6f6360008301527f6b50656e64696e6741646d696e3a2073656e646572206d75737420626520676f60208301527f7620677561726469616e000000000000000000000000000000000000000000006040830152606082019050919050565b60006140df6028836152e7565b91507f476f7665726e6f72416c7068613a3a70726f706f73653a20746f6f206d616e7960008301527f20616374696f6e730000000000000000000000000000000000000000000000006020830152604082019050919050565b60006141456011836152e7565b91507f6164646974696f6e206f766572666c6f770000000000000000000000000000006000830152602082019050919050565b60006141856043836152f8565b91507f454950373132446f6d61696e28737472696e67206e616d652c75696e7432353660008301527f20636861696e49642c6164647265737320766572696679696e67436f6e74726160208301527f63742900000000000000000000000000000000000000000000000000000000006040830152604382019050919050565b60006142116027836152f8565b91507f42616c6c6f742875696e743235362070726f706f73616c49642c626f6f6c207360008301527f7570706f727429000000000000000000000000000000000000000000000000006020830152602782019050919050565b60006142776044836152e7565b91507f476f7665726e6f72416c7068613a3a70726f706f73653a2070726f706f73616c60008301527f2066756e6374696f6e20696e666f726d6174696f6e206172697479206d69736d60208301527f61746368000000000000000000000000000000000000000000000000000000006040830152606082019050919050565b6000614303602f836152e7565b91507f476f7665726e6f72416c7068613a3a63616e63656c3a2070726f706f7365722060008301527f61626f7665207468726573686f6c6400000000000000000000000000000000006020830152604082019050919050565b60006143696044836152e7565b91507f476f7665726e6f72416c7068613a3a5f71756575654f725265766572743a207060008301527f726f706f73616c20616374696f6e20616c72656164792071756575656420617460208301527f20657461000000000000000000000000000000000000000000000000000000006040830152606082019050919050565b60006143f5602c836152e7565b91507f476f7665726e6f72416c7068613a3a70726f706f73653a206d7573742070726f60008301527f7669646520616374696f6e7300000000000000000000000000000000000000006020830152604082019050919050565b600061445b603f836152e7565b91507f476f7665726e6f72416c7068613a3a70726f706f73653a2070726f706f73657260008301527f20766f7465732062656c6f772070726f706f73616c207468726573686f6c64006020830152604082019050919050565b60006144c1602f836152e7565b91507f476f7665726e6f72416c7068613a3a63617374566f746542795369673a20696e60008301527f76616c6964207369676e617475726500000000000000000000000000000000006020830152604082019050919050565b60006145276058836152e7565b91507f476f7665726e6f72416c7068613a3a70726f706f73653a206f6e65206c69766560008301527f2070726f706f73616c207065722070726f706f7365722c20666f756e6420616e60208301527f20616c7265616479206163746976652070726f706f73616c00000000000000006040830152606082019050919050565b60006145b36036836152e7565b91507f476f7665726e6f72416c7068613a3a63616e63656c3a2063616e6e6f7420636160008301527f6e63656c2065786563757465642070726f706f73616c000000000000000000006020830152604082019050919050565b6000614619602a836152e7565b91507f476f7665726e6f72416c7068613a3a5f63617374566f74653a20766f74696e6760008301527f20697320636c6f736564000000000000000000000000000000000000000000006020830152604082019050919050565b600061467f6015836152e7565b91507f7375627472616374696f6e20756e646572666c6f7700000000000000000000006000830152602082019050919050565b60006146bf6036836152e7565b91507f476f7665726e6f72416c7068613a3a5f5f61626469636174653a2073656e646560008301527f72206d75737420626520676f7620677561726469616e000000000000000000006020830152604082019050919050565b60608201600082015161472e60008501826139a9565b50602082015161474160208501826139a9565b5060408201516147546040850182614796565b50505050565b6147638161535e565b82525050565b6147728161535e565b82525050565b61478181615368565b82525050565b6147908161542f565b82525050565b61479f81615375565b82525050565b60006147b082613de2565b91506147bc82856139d6565b6020820191506147cc82846139d6565b6020820191508190509392505050565b60006147e782614178565b9150819050919050565b60006147fc82614204565b9150819050919050565b600060208201905061481b60008301846137f4565b92915050565b600060408201905061483660008301856137d6565b6148436020830184614769565b9392505050565b600060a08201905061485f60008301876137f4565b61486c6020830186613b1b565b818103604083015261487d81613eae565b9050818103606083015261489181856139ed565b90506148a06080830184614769565b95945050505050565b60006040820190506148be60008301856137f4565b6148cb6020830184614769565b9392505050565b60006080820190506148e760008301876137f4565b6148f46020830186614769565b61490160408301856139b8565b61490e6060830184614787565b95945050505050565b600060a08201905061492c60008301886137f4565b6149396020830187614769565b818103604083015261494b8186613b2a565b9050818103606083015261495f81856139ed565b905061496e6080830184614769565b9695505050505050565b600060a08201905061498d60008301886137f4565b61499a6020830187614769565b81810360408301526149ac8186613bd5565b905081810360608301526149c08185613a5f565b90506149cf6080830184614769565b9695505050505050565b600060808201905081810360008301526149f38187613803565b90508181036020830152614a07818661394b565b90508181036040830152614a1b81856138d6565b90508181036060830152614a2f8184613861565b905095945050505050565b6000602082019050614a4f60008301846139c7565b92915050565b6000608082019050614a6a60008301876139c7565b614a7760208301866139c7565b614a846040830185614769565b614a9160608301846137f4565b95945050505050565b6000606082019050614aaf60008301866139c7565b614abc6020830185614769565b614ac960408301846139b8565b949350505050565b6000608082019050614ae660008301876139c7565b614af36020830186614778565b614b0060408301856139c7565b614b0d60608301846139c7565b95945050505050565b6000602082019050614b2b6000830184613aee565b92915050565b6000602082019050614b466000830184613afd565b92915050565b6000602082019050614b616000830184613b0c565b92915050565b60006020820190508181036000830152614b818184613b9c565b905092915050565b60006020820190508181036000830152614ba38184613b2a565b905092915050565b60006020820190508181036000830152614bc481613c64565b9050919050565b60006020820190508181036000830152614be481613cca565b9050919050565b60006020820190508181036000830152614c0481613d56565b9050919050565b60006020820190508181036000830152614c2481613e22565b9050919050565b60006020820190508181036000830152614c4481613eee565b9050919050565b60006020820190508181036000830152614c6481613f54565b9050919050565b60006020820190508181036000830152614c8481613fba565b9050919050565b60006020820190508181036000830152614ca481614046565b9050919050565b60006020820190508181036000830152614cc4816140d2565b9050919050565b60006020820190508181036000830152614ce481614138565b9050919050565b60006020820190508181036000830152614d048161426a565b9050919050565b60006020820190508181036000830152614d24816142f6565b9050919050565b60006020820190508181036000830152614d448161435c565b9050919050565b60006020820190508181036000830152614d64816143e8565b9050919050565b60006020820190508181036000830152614d848161444e565b9050919050565b60006020820190508181036000830152614da4816144b4565b9050919050565b60006020820190508181036000830152614dc48161451a565b9050919050565b60006020820190508181036000830152614de4816145a6565b9050919050565b60006020820190508181036000830152614e048161460c565b9050919050565b60006020820190508181036000830152614e2481614672565b9050919050565b60006020820190508181036000830152614e44816146b2565b9050919050565b6000606082019050614e606000830184614718565b92915050565b6000602082019050614e7b6000830184614769565b92915050565b600061012082019050614e97600083018c614769565b614ea4602083018b6137d6565b8181036040830152614eb6818a613803565b90508181036060830152614eca818961394b565b90508181036080830152614ede81886138d6565b905081810360a0830152614ef28187613861565b9050614f0160c0830186614769565b614f0e60e0830185614769565b818103610100830152614f218184613b2a565b90509a9950505050505050505050565b600061014082019050614f47600083018d614769565b614f54602083018c6137f4565b614f61604083018b614769565b614f6e606083018a614769565b614f7b6080830189614769565b614f8860a0830188614769565b614f9560c0830187614769565b614fa260e08301866139b8565b614fb06101008301856139b8565b818103610120830152614fc38184613b9c565b90509b9a5050505050505050505050565b6000604082019050614fe96000830185614769565b614ff66020830184614769565b9392505050565b6000604051905081810181811067ffffffffffffffff8211171561502057600080fd5b8060405250919050565b600067ffffffffffffffff82111561504157600080fd5b602082029050602081019050919050565b600067ffffffffffffffff82111561506957600080fd5b602082029050602081019050919050565b600067ffffffffffffffff82111561509157600080fd5b602082029050602081019050919050565b600067ffffffffffffffff8211156150b957600080fd5b602082029050602081019050919050565b600067ffffffffffffffff8211156150e157600080fd5b601f19601f8301169050602081019050919050565b600067ffffffffffffffff82111561510d57600080fd5b601f19601f8301169050602081019050919050565b600067ffffffffffffffff82111561513957600080fd5b601f19601f8301169050602081019050919050565b600067ffffffffffffffff82111561516557600080fd5b601f19601f8301169050602081019050919050565b6000819050602082019050919050565b6000819050602082019050919050565b6000819050602082019050919050565b6000819050602082019050919050565b60008190508160005260206000209050919050565b60008190508160005260206000209050919050565b600081519050919050565b600081519050919050565b600081519050919050565b600081519050919050565b600081519050919050565b600081519050919050565b600081519050919050565b600081519050919050565b6000602082019050919050565b6000602082019050919050565b6000602082019050919050565b6000602082019050919050565b600082825260208201905092915050565b600082825260208201905092915050565b600082825260208201905092915050565b600082825260208201905092915050565b600082825260208201905092915050565b600082825260208201905092915050565b600082825260208201905092915050565b600082825260208201905092915050565b600081905092915050565b600061530e8261533e565b9050919050565b60008115159050919050565b6000819050919050565b60008190506153398261549e565b919050565b600073ffffffffffffffffffffffffffffffffffffffff82169050919050565b6000819050919050565b600060ff82169050919050565b60006bffffffffffffffffffffffff82169050919050565b60006153988261540b565b9050919050565b60006153aa826153b1565b9050919050565b60006153bc8261533e565b9050919050565b60006153ce826153d5565b9050919050565b60006153e08261533e565b9050919050565b60006153f28261532b565b9050919050565b60006154048261535e565b9050919050565b60006154168261541d565b9050919050565b60006154288261533e565b9050919050565b600061543a82615375565b9050919050565b82818337600083830152505050565b60005b8381101561546e578082015181840152602081019050615453565b8381111561547d576000848401525b50505050565b6000819050919050565b6000601f19601f8301169050919050565b600881106154a857fe5b50565b6154b481615303565b81146154bf57600080fd5b50565b6154cb81615315565b81146154d657600080fd5b50565b6154e281615321565b81146154ed57600080fd5b50565b6154f98161535e565b811461550457600080fd5b50565b61551081615368565b811461551b57600080fd5b50565b61552781615375565b811461553257600080fd5b5056fea365627a7a72315820f6bd54e33ad8f82c205497061a2c594002c75bcfffb31f88c5d006c559b85e316c6578706572696d656e74616cf564736f6c63430005100040",
  "linkReferences": {},
  "deployedLinkReferences": {}
}