{
  "_format": "hh-sol-artifact-1",
  "contractName": "Governor",
  "sourceName": "contracts/Governance/Governor.sol",
  "abi": [
    {
      "inputs": [
        {
          "internalType": "address",
          "name": "timelock_",
          "type": "address"
        },
        {
          "internalType": "address",
          "name": "dclm8_",
          "type": "address"
        },
        {
          "internalType": "address",
          "name": "guardian_",
          "type": "address"
        }
      ],
      "stateMutability": "nonpayable",
      "type": "constructor"
    },
    {
      "anonymous": false,
      "inputs": [
        {
          "indexed": false,
          "internalType": "uint256",
          "name": "id",
          "type": "uint256"
        }
      ],
      "name": "ProposalCanceled",
      "type": "event"
    },
    {
      "anonymous": false,
      "inputs": [
        {
          "indexed": false,
          "internalType": "uint256",
          "name": "id",
          "type": "uint256"
        },
        {
          "indexed": false,
          "internalType": "address",
          "name": "proposer",
          "type": "address"
        },
        {
          "indexed": false,
          "internalType": "address[]",
          "name": "targets",
          "type": "address[]"
        },
        {
          "indexed": false,
          "internalType": "uint256[]",
          "name": "values",
          "type": "uint256[]"
        },
        {
          "indexed": false,
          "internalType": "string[]",
          "name": "signatures",
          "type": "string[]"
        },
        {
          "indexed": false,
          "internalType": "bytes[]",
          "name": "calldatas",
          "type": "bytes[]"
        },
        {
          "indexed": false,
          "internalType": "uint256",
          "name": "startBlock",
          "type": "uint256"
        },
        {
          "indexed": false,
          "internalType": "uint256",
          "name": "endBlock",
          "type": "uint256"
        },
        {
          "indexed": false,
          "internalType": "string",
          "name": "description",
          "type": "string"
        }
      ],
      "name": "ProposalCreated",
      "type": "event"
    },
    {
      "anonymous": false,
      "inputs": [
        {
          "indexed": false,
          "internalType": "uint256",
          "name": "id",
          "type": "uint256"
        }
      ],
      "name": "ProposalExecuted",
      "type": "event"
    },
    {
      "anonymous": false,
      "inputs": [
        {
          "indexed": false,
          "internalType": "uint256",
          "name": "id",
          "type": "uint256"
        },
        {
          "indexed": false,
          "internalType": "uint256",
          "name": "eta",
          "type": "uint256"
        }
      ],
      "name": "ProposalQueued",
      "type": "event"
    },
    {
      "anonymous": false,
      "inputs": [
        {
          "indexed": false,
          "internalType": "address",
          "name": "voter",
          "type": "address"
        },
        {
          "indexed": false,
          "internalType": "uint256",
          "name": "proposalId",
          "type": "uint256"
        },
        {
          "indexed": false,
          "internalType": "bool",
          "name": "support",
          "type": "bool"
        },
        {
          "indexed": false,
          "internalType": "uint256",
          "name": "votes",
          "type": "uint256"
        }
      ],
      "name": "VoteCast",
      "type": "event"
    },
    {
      "inputs": [],
      "name": "BALLOT_TYPEHASH",
      "outputs": [
        {
          "internalType": "bytes32",
          "name": "",
          "type": "bytes32"
        }
      ],
      "stateMutability": "view",
      "type": "function"
    },
    {
      "inputs": [],
      "name": "DOMAIN_TYPEHASH",
      "outputs": [
        {
          "internalType": "bytes32",
          "name": "",
          "type": "bytes32"
        }
      ],
      "stateMutability": "view",
      "type": "function"
    },
    {
      "inputs": [],
      "name": "__abdicate",
      "outputs": [],
      "stateMutability": "nonpayable",
      "type": "function"
    },
    {
      "inputs": [],
      "name": "__acceptAdmin",
      "outputs": [],
      "stateMutability": "nonpayable",
      "type": "function"
    },
    {
      "inputs": [
        {
          "internalType": "address",
          "name": "newPendingAdmin",
          "type": "address"
        },
        {
          "internalType": "uint256",
          "name": "eta",
          "type": "uint256"
        }
      ],
      "name": "__executeSetTimelockPendingAdmin",
      "outputs": [],
      "stateMutability": "nonpayable",
      "type": "function"
    },
    {
      "inputs": [
        {
          "internalType": "address",
          "name": "newPendingAdmin",
          "type": "address"
        },
        {
          "internalType": "uint256",
          "name": "eta",
          "type": "uint256"
        }
      ],
      "name": "__queueSetTimelockPendingAdmin",
      "outputs": [],
      "stateMutability": "nonpayable",
      "type": "function"
    },
    {
      "inputs": [
        {
          "internalType": "uint256",
          "name": "proposalId",
          "type": "uint256"
        }
      ],
      "name": "cancel",
      "outputs": [],
      "stateMutability": "nonpayable",
      "type": "function"
    },
    {
      "inputs": [
        {
          "internalType": "uint256",
          "name": "proposalId",
          "type": "uint256"
        },
        {
          "internalType": "bool",
          "name": "support",
          "type": "bool"
        },
        {
          "internalType": "uint96",
          "name": "votes",
          "type": "uint96"
        }
      ],
      "name": "castVote",
      "outputs": [],
      "stateMutability": "nonpayable",
      "type": "function"
    },
    {
      "inputs": [
        {
          "internalType": "uint256",
          "name": "proposalId",
          "type": "uint256"
        },
        {
          "internalType": "bool",
          "name": "support",
          "type": "bool"
        },
        {
          "internalType": "uint8",
          "name": "v",
          "type": "uint8"
        },
        {
          "internalType": "bytes32",
          "name": "r",
          "type": "bytes32"
        },
        {
          "internalType": "bytes32",
          "name": "s",
          "type": "bytes32"
        },
        {
          "internalType": "uint96",
          "name": "votes",
          "type": "uint96"
        }
      ],
      "name": "castVoteBySig",
      "outputs": [],
      "stateMutability": "nonpayable",
      "type": "function"
    },
    {
      "inputs": [],
      "name": "dclm8",
      "outputs": [
        {
          "internalType": "contract Dclm8Interface",
          "name": "",
          "type": "address"
        }
      ],
      "stateMutability": "view",
      "type": "function"
    },
    {
      "inputs": [
        {
          "internalType": "uint256",
          "name": "proposalId",
          "type": "uint256"
        }
      ],
      "name": "execute",
      "outputs": [],
      "stateMutability": "payable",
      "type": "function"
    },
    {
      "inputs": [
        {
          "internalType": "uint256",
          "name": "proposalId",
          "type": "uint256"
        }
      ],
      "name": "getActions",
      "outputs": [
        {
          "internalType": "address[]",
          "name": "targets",
          "type": "address[]"
        },
        {
          "internalType": "uint256[]",
          "name": "values",
          "type": "uint256[]"
        },
        {
          "internalType": "string[]",
          "name": "signatures",
          "type": "string[]"
        },
        {
          "internalType": "bytes[]",
          "name": "calldatas",
          "type": "bytes[]"
        }
      ],
      "stateMutability": "view",
      "type": "function"
    },
    {
      "inputs": [
        {
          "internalType": "uint256",
          "name": "proposalId",
          "type": "uint256"
        }
      ],
      "name": "getDescription",
      "outputs": [
        {
          "internalType": "string",
          "name": "",
          "type": "string"
        }
      ],
      "stateMutability": "view",
      "type": "function"
    },
    {
      "inputs": [
        {
          "internalType": "uint256",
          "name": "proposalId",
          "type": "uint256"
        },
        {
          "internalType": "address",
          "name": "voter",
          "type": "address"
        }
      ],
      "name": "getReceipt",
      "outputs": [
        {
          "components": [
            {
              "internalType": "bool",
              "name": "hasVoted",
              "type": "bool"
            },
            {
              "internalType": "bool",
              "name": "support",
              "type": "bool"
            },
            {
              "internalType": "uint96",
              "name": "votes",
              "type": "uint96"
            },
            {
              "internalType": "uint96",
              "name": "rawVotes",
              "type": "uint96"
            },
            {
              "internalType": "bool",
              "name": "hasRefunded",
              "type": "bool"
            }
          ],
          "internalType": "struct Governor.Receipt",
          "name": "",
          "type": "tuple"
        }
      ],
      "stateMutability": "view",
      "type": "function"
    },
    {
      "inputs": [],
      "name": "guardian",
      "outputs": [
        {
          "internalType": "address",
          "name": "",
          "type": "address"
        }
      ],
      "stateMutability": "view",
      "type": "function"
    },
    {
      "inputs": [
        {
          "internalType": "address",
          "name": "",
          "type": "address"
        }
      ],
      "name": "latestProposalIds",
      "outputs": [
        {
          "internalType": "uint256",
          "name": "",
          "type": "uint256"
        }
      ],
      "stateMutability": "view",
      "type": "function"
    },
    {
      "inputs": [],
      "name": "name",
      "outputs": [
        {
          "internalType": "string",
          "name": "",
          "type": "string"
        }
      ],
      "stateMutability": "view",
      "type": "function"
    },
    {
      "inputs": [],
      "name": "proposalCount",
      "outputs": [
        {
          "internalType": "uint256",
          "name": "",
          "type": "uint256"
        }
      ],
      "stateMutability": "view",
      "type": "function"
    },
    {
      "inputs": [],
      "name": "proposalMaxOperations",
      "outputs": [
        {
          "internalType": "uint256",
          "name": "",
          "type": "uint256"
        }
      ],
      "stateMutability": "pure",
      "type": "function"
    },
    {
      "inputs": [],
      "name": "proposalThreshold",
      "outputs": [
        {
          "internalType": "uint256",
          "name": "",
          "type": "uint256"
        }
      ],
      "stateMutability": "view",
      "type": "function"
    },
    {
      "inputs": [
        {
          "internalType": "uint256",
          "name": "",
          "type": "uint256"
        }
      ],
      "name": "proposals",
      "outputs": [
        {
          "internalType": "uint256",
          "name": "id",
          "type": "uint256"
        },
        {
          "internalType": "address",
          "name": "proposer",
          "type": "address"
        },
        {
          "internalType": "uint256",
          "name": "eta",
          "type": "uint256"
        },
        {
          "internalType": "uint256",
          "name": "startBlock",
          "type": "uint256"
        },
        {
          "internalType": "uint256",
          "name": "endBlock",
          "type": "uint256"
        },
        {
          "internalType": "uint256",
          "name": "forVotes",
          "type": "uint256"
        },
        {
          "internalType": "uint256",
          "name": "againstVotes",
          "type": "uint256"
        },
        {
          "internalType": "uint256",
          "name": "rawForVotes",
          "type": "uint256"
        },
        {
          "internalType": "uint256",
          "name": "rawAgainstVotes",
          "type": "uint256"
        },
        {
          "internalType": "bool",
          "name": "canceled",
          "type": "bool"
        },
        {
          "internalType": "bool",
          "name": "executed",
          "type": "bool"
        },
        {
          "internalType": "string",
          "name": "description",
          "type": "string"
        }
      ],
      "stateMutability": "view",
      "type": "function"
    },
    {
      "inputs": [
        {
          "internalType": "address[]",
          "name": "targets",
          "type": "address[]"
        },
        {
          "internalType": "uint256[]",
          "name": "values",
          "type": "uint256[]"
        },
        {
          "internalType": "string[]",
          "name": "signatures",
          "type": "string[]"
        },
        {
          "internalType": "bytes[]",
          "name": "calldatas",
          "type": "bytes[]"
        },
        {
          "internalType": "string",
          "name": "description",
          "type": "string"
        }
      ],
      "name": "propose",
      "outputs": [
        {
          "internalType": "uint256",
          "name": "",
          "type": "uint256"
        }
      ],
      "stateMutability": "nonpayable",
      "type": "function"
    },
    {
      "inputs": [
        {
          "internalType": "uint256",
          "name": "proposalId",
          "type": "uint256"
        }
      ],
      "name": "queue",
      "outputs": [],
      "stateMutability": "nonpayable",
      "type": "function"
    },
    {
      "inputs": [],
      "name": "quorumVotes",
      "outputs": [
        {
          "internalType": "uint256",
          "name": "",
          "type": "uint256"
        }
      ],
      "stateMutability": "view",
      "type": "function"
    },
    {
      "inputs": [
        {
          "internalType": "uint256",
          "name": "proposalId",
          "type": "uint256"
        }
      ],
      "name": "refund",
      "outputs": [],
      "stateMutability": "nonpayable",
      "type": "function"
    },
    {
      "inputs": [
        {
          "internalType": "uint256",
          "name": "_proposalThreshold",
          "type": "uint256"
        }
      ],
      "name": "setProposalThreshold",
      "outputs": [],
      "stateMutability": "nonpayable",
      "type": "function"
    },
    {
      "inputs": [
        {
          "internalType": "uint256",
          "name": "_quorum",
          "type": "uint256"
        }
      ],
      "name": "setQuorum",
      "outputs": [],
      "stateMutability": "nonpayable",
      "type": "function"
    },
    {
      "inputs": [
        {
          "internalType": "uint256",
          "name": "proposalId",
          "type": "uint256"
        }
      ],
      "name": "state",
      "outputs": [
        {
          "internalType": "enum Governor.ProposalState",
          "name": "",
          "type": "uint8"
        }
      ],
      "stateMutability": "view",
      "type": "function"
    },
    {
      "inputs": [],
      "name": "timelock",
      "outputs": [
        {
          "internalType": "contract TimelockInterface",
          "name": "",
          "type": "address"
        }
      ],
      "stateMutability": "view",
      "type": "function"
    },
    {
      "inputs": [],
      "name": "votingDelay",
      "outputs": [
        {
          "internalType": "uint256",
          "name": "",
          "type": "uint256"
        }
      ],
      "stateMutability": "pure",
      "type": "function"
    },
    {
      "inputs": [],
      "name": "votingPeriod",
      "outputs": [
        {
          "internalType": "uint256",
          "name": "",
          "type": "uint256"
        }
      ],
      "stateMutability": "pure",
      "type": "function"
    }
  ],
  "bytecode": "0x608060405264932622b00060005569152d02c7e14af68000006001553480156200002857600080fd5b5060405162003e7738038062003e778339810160408190526200004b916200008e565b600280546001600160a01b039485166001600160a01b031991821617909155600380549385169382169390931790925560048054919093169116179055620000fa565b600080600060608486031215620000a3578283fd5b8351620000b081620000e1565b6020850151909350620000c381620000e1565b6040850151909250620000d681620000e1565b809150509250925092565b6001600160a01b0381168114620000f757600080fd5b50565b613d6d806200010a6000396000f3fe6080604052600436106101d85760003560e01c8063760fbc1311610102578063da35c66411610095578063deaaa7cc11610064578063deaaa7cc14610515578063e23a9a521461052a578063ece40cc114610557578063fe0d94c114610577576101d8565b8063da35c664146104a0578063da95691a146104b5578063dbfa977f146104d5578063ddf0b009146104f5576101d8565b8063b58131b0116100d1578063b58131b014610441578063b9a6196114610456578063c1ba4e591461046b578063d33219b41461048b576101d8565b8063760fbc13146103e25780637bdbe4d0146103f7578063915006711461040c57806394a08d581461042c576101d8565b8063278ecde11161017a57806340e58ee51161014957806340e58ee514610360578063452a9320146103805780634925ec55146103a25780635d254608146103c2576101d8565b8063278ecde1146102ce578063328dd982146102ee5780633932abb11461031e5780633e4f49e614610333576101d8565b806317977c61116101b657806317977c611461026257806320606b701461028257806321f43e421461029757806324bc1a64146102b9576101d8565b8063013cf08b146101dd57806302a251a31461021e57806306fdde0314610240575b600080fd5b3480156101e957600080fd5b506101fd6101f8366004612cf0565b61058a565b6040516102159c9b9a99989796959493929190613bea565b60405180910390f35b34801561022a57600080fd5b506102336106af565b6040516102159190613154565b34801561024c57600080fd5b506102556106b5565b60405161021591906131cb565b34801561026e57600080fd5b5061023361027d366004612b38565b6106e2565b34801561028e57600080fd5b506102336106f4565b3480156102a357600080fd5b506102b76102b2366004612b53565b610718565b005b3480156102c557600080fd5b50610233610800565b3480156102da57600080fd5b506102b76102e9366004612cf0565b610806565b3480156102fa57600080fd5b5061030e610309366004612cf0565b610c0c565b60405161021594939291906130fc565b34801561032a57600080fd5b50610233610e9b565b34801561033f57600080fd5b5061035361034e366004612cf0565b610ea0565b60405161021591906131b7565b34801561036c57600080fd5b506102b761037b366004612cf0565b611032565b34801561038c57600080fd5b5061039561129b565b6040516102159190612f8b565b3480156103ae57600080fd5b506102556103bd366004612cf0565b6112aa565b3480156103ce57600080fd5b506102b76103dd366004612d34565b61134e565b3480156103ee57600080fd5b506102b76114fe565b34801561040357600080fd5b5061023361153a565b34801561041857600080fd5b506102b7610427366004612b53565b61153f565b34801561043857600080fd5b50610395611615565b34801561044d57600080fd5b50610233611624565b34801561046257600080fd5b506102b761162a565b34801561047757600080fd5b506102b7610486366004612cf0565b6116be565b34801561049757600080fd5b506103956116ed565b3480156104ac57600080fd5b506102336116fc565b3480156104c157600080fd5b506102336104d0366004612b7d565b611702565b3480156104e157600080fd5b506102b76104f0366004612d9f565b611b67565b34801561050157600080fd5b506102b7610510366004612cf0565b611b73565b34801561052157600080fd5b50610233611e64565b34801561053657600080fd5b5061054a610545366004612d08565b611e88565b6040516102159190613b03565b34801561056357600080fd5b506102b7610572366004612cf0565b611f17565b6102b7610585366004612cf0565b611f46565b60066020528060005260406000206000915090508060000154908060010160009054906101000a90046001600160a01b03169080600201549080600701549080600801549080600901549080600a01549080600b01549080600c01549080600d0160009054906101000a900460ff169080600d0160019054906101000a900460ff169080600e018054600181600116156101000203166002900480601f0160208091040260200160405190810160405280929190818152602001828054600181600116156101000203166002900480156106a55780601f1061067a576101008083540402835291602001916106a5565b820191906000526020600020905b81548152906001019060200180831161068857829003601f168201915b505050505090508c565b61168090565b6040518060400160405280601181526020017021a6269c102220a79023b7bb32b93737b960791b81525081565b60076020526000908152604090205481565b7f8cad95687ba82c2ce50e74f7b754645e5117c3a5bec8151c0726d5857980a86681565b6004546001600160a01b0316331461074b5760405162461bcd60e51b8152600401610742906134e0565b60405180910390fd5b6002546040516001600160a01b0390911690630825f38f908290600090610776908790602001612f8b565b604051602081830303815290604052856040518563ffffffff1660e01b81526004016107a59493929190612fda565b600060405180830381600087803b1580156107bf57600080fd5b505af11580156107d3573d6000803e3d6000fd5b505050506040513d6000823e601f3d908101601f191682016040526107fb9190810190612c7d565b505050565b60005490565b6000818152600660209081526040808320338452600f81019092529091208054600160d01b900460ff161561084d5760405162461bcd60e51b8152600401610742906139a5565b600182015460009081906001600160a01b0316331480156108bc5750600461087486610ea0565b600781111561087f57fe5b148061089e5750600361089186610ea0565b600781111561089c57fe5b145b806108bc575060026108af86610ea0565b60078111156108ba57fe5b145b905080156109b35760046108cf86610ea0565b60078111156108da57fe5b1415610902578254600160701b90046001600160601b03166108fa611624565b0191506109ae565b600061091661090f611624565b600461210b565b600354604051633969f74f60e11b81529192506001600160a01b0316906372d3ee9e906109499030908590600401612fb8565b600060405180830381600087803b15801561096357600080fd5b505af1158015610977573d6000803e3d6000fd5b50508554600160701b90046001600160601b031691506109a0905061099a611624565b83612147565b016001600160601b03169250505b6109c8565b8254600160701b90046001600160601b031691505b600082116109e85760405162461bcd60e51b815260040161074290613348565b600060016109f587610ea0565b6007811115610a0057fe5b14905060006003610a1088610ea0565b6007811115610a1b57fe5b148015610a325750610a2b610800565b8660090154105b90508180610a3d5750805b80610a455750825b610a615760405162461bcd60e51b81526004016107429061384e565b60035460405163a9059cbb60e01b81526001600160a01b039091169063a9059cbb90610a939033908890600401612f9f565b602060405180830381600087803b158015610aad57600080fd5b505af1158015610ac1573d6000803e3d6000fd5b505050506040513d601f19601f82011682018060405250810190610ae59190612c49565b508115610b73578454610100900460ff1615610b395760098601548554610b1b91906201000090046001600160601b0316612147565b6009870155600b860154610b2f9085612147565b600b870155610b73565b600a8601548554610b5991906201000090046001600160601b0316612147565b600a870155600c860154610b6d9085612147565b600c8701555b8454610b8e906201000090046001600160601b031680612147565b85546dffffffffffffffffffffffff00001916620100006001600160601b039283160217808755610bc891600160701b9091041685612147565b855460ff60ff60d01b01196001600160601b0392909216600160701b026bffffffffffffffffffffffff60701b199091161716600160d01b17909455505050505050565b60608060608060006006600087815260200190815260200160002090508060030181600401826005018360060183805480602002602001604051908101604052809291908181526020018280548015610c8e57602002820191906000526020600020905b81546001600160a01b03168152600190910190602001808311610c70575b5050505050935082805480602002602001604051908101604052809291908181526020018280548015610ce057602002820191906000526020600020905b815481526020019060010190808311610ccc575b5050505050925081805480602002602001604051908101604052809291908181526020016000905b82821015610db35760008481526020908190208301805460408051601f6002600019610100600187161502019094169390930492830185900485028101850190915281815292830182828015610d9f5780601f10610d7457610100808354040283529160200191610d9f565b820191906000526020600020905b815481529060010190602001808311610d8257829003601f168201915b505050505081526020019060010190610d08565b50505050915080805480602002602001604051908101604052809291908181526020016000905b82821015610e855760008481526020908190208301805460408051601f6002600019610100600187161502019094169390930492830185900485028101850190915281815292830182828015610e715780601f10610e4657610100808354040283529160200191610e71565b820191906000526020600020905b815481529060010190602001808311610e5457829003601f168201915b505050505081526020019060010190610dda565b5050505090509450945094509450509193509193565b600190565b60008160055410158015610eb45750600082115b610ed05760405162461bcd60e51b81526004016107429061354d565b6000828152600660205260409020600d81015460ff1615610ef557600291505061102d565b80600701544311610f0a57600091505061102d565b80600801544311610f1f57600191505061102d565b80600a01548160090154111580610f405750610f39610800565b8160090154105b15610f4f57600391505061102d565b6002810154610f6257600491505061102d565b600d810154610100900460ff1615610f7e57600791505061102d565b6110118160020154600260009054906101000a90046001600160a01b03166001600160a01b031663c1a287e26040518163ffffffff1660e01b815260040160206040518083038186803b158015610fd457600080fd5b505afa158015610fe8573d6000803e3d6000fd5b505050506040513d601f19601f8201168201806040525081019061100c9190612c65565b61216f565b421061102157600691505061102d565b600591505061102d565b505b919050565b600061103d82610ea0565b9050600781600781111561104d57fe5b141561106b5760405162461bcd60e51b8152600401610742906133ce565b60008281526006602052604090206004546001600160a01b03163314806111365750611095611624565b6003546001838101546001600160a01b039283169263782d6fe1929116906110be904390612147565b6040518363ffffffff1660e01b81526004016110db929190612f9f565b60206040518083038186803b1580156110f357600080fd5b505afa158015611107573d6000803e3d6000fd5b505050506040513d601f19601f8201168201806040525081019061112b9190612de0565b6001600160601b0316105b6111525760405162461bcd60e51b8152600401610742906138e7565b600d8101805460ff1916600117905560005b600382015481101561125e576002546003830180546001600160a01b039092169163591fcdfe91908490811061119657fe5b6000918252602090912001546004850180546001600160a01b0390921691859081106111be57fe5b90600052602060002001548560050185815481106111d857fe5b906000526020600020018660060186815481106111f157fe5b9060005260206000200187600201546040518663ffffffff1660e01b81526004016112209594939291906130c3565b600060405180830381600087803b15801561123a57600080fd5b505af115801561124e573d6000803e3d6000fd5b5050600190920191506111649050565b507f789cf55be980739dad1d0699b93b58e806b51c9d96619bfa8fe0a28abaa7b30c8360405161128e9190613154565b60405180910390a1505050565b6004546001600160a01b031681565b600081815260066020908152604091829020600e0180548351601f60026000196101006001861615020190931692909204918201849004840281018401909452808452606093928301828280156113425780601f1061131757610100808354040283529160200191611342565b820191906000526020600020905b81548152906001019060200180831161132557829003601f168201915b50505050509050919050565b60408051808201909152601181527021a6269c102220a79023b7bb32b93737b960791b60209091015260007f8cad95687ba82c2ce50e74f7b754645e5117c3a5bec8151c0726d5857980a8667f5c6c4638be9dacb7243638d3b44c65664c952613289876d97c23e080e4e9ff336113c3612194565b306040516020016113d7949392919061315d565b60405160208183030381529060405280519060200120905060007f8e25870c07e0b0b3884c78da52790939a455c275406c44ae8b434b692fb916ee888860405160200161142693929190613181565b60405160208183030381529060405280519060200120905060008282604051602001611453929190612f70565b6040516020818303038152906040528051906020012090506000600182898989604051600081526020016040526040516114909493929190613199565b6020604051602081039080840390855afa1580156114b2573d6000803e3d6000fd5b5050604051601f1901519150506001600160a01b0381166114e55760405162461bcd60e51b815260040161074290613a52565b6114f1818b8b88612198565b505050505b505050505050565b6004546001600160a01b031633146115285760405162461bcd60e51b81526004016107429061374c565b600480546001600160a01b0319169055565b600a90565b6004546001600160a01b031633146115695760405162461bcd60e51b8152600401610742906132dd565b6002546040516001600160a01b0390911690633a66f901908290600090611594908790602001612f8b565b604051602081830303815290604052856040518563ffffffff1660e01b81526004016115c39493929190612fda565b602060405180830381600087803b1580156115dd57600080fd5b505af11580156115f1573d6000803e3d6000fd5b505050506040513d601f19601f820116820180604052508101906107fb9190612c65565b6003546001600160a01b031681565b60015490565b6004546001600160a01b031633146116545760405162461bcd60e51b8152600401610742906137fa565b600260009054906101000a90046001600160a01b03166001600160a01b0316630e18b6816040518163ffffffff1660e01b8152600401600060405180830381600087803b1580156116a457600080fd5b505af11580156116b8573d6000803e3d6000fd5b50505050565b6004546001600160a01b031633146116e85760405162461bcd60e51b81526004016107429061323b565b600055565b6002546001600160a01b031681565b60055481565b600061170c611624565b6003546001600160a01b031663782d6fe133611729436001612147565b6040518363ffffffff1660e01b8152600401611746929190612f9f565b60206040518083038186803b15801561175e57600080fd5b505afa158015611772573d6000803e3d6000fd5b505050506040513d601f19601f820116820180604052508101906117969190612de0565b6001600160601b031610156117bd5760405162461bcd60e51b8152600401610742906131de565b845186511480156117cf575083518651145b80156117dc575082518651145b6117f85760405162461bcd60e51b815260040161074290613280565b85516118165760405162461bcd60e51b81526004016107429061341f565b61181e61153a565b8651111561183e5760405162461bcd60e51b81526004016107429061338b565b3360009081526007602052604090205480156118bb57600061185f82610ea0565b9050600181600781111561186f57fe5b141561188d5760405162461bcd60e51b815260040161074290613591565b600081600781111561189b57fe5b14156118b95760405162461bcd60e51b815260040161074290613466565b505b6118c3611624565b6003546040516370a0823160e01b81526001600160a01b03909116906370a08231906118f3903390600401612f8b565b60206040518083038186803b15801561190b57600080fd5b505afa15801561191f573d6000803e3d6000fd5b505050506040513d601f19601f820116820180604052508101906119439190612c65565b10156119615760405162461bcd60e51b8152600401610742906136ba565b6003546001600160a01b0316633b2d52ac3361197b611624565b6040518363ffffffff1660e01b8152600401611998929190612fb8565b600060405180830381600087803b1580156119b257600080fd5b505af11580156119c6573d6000803e3d6000fd5b5050505060006119d84361100c610e9b565b905060006119e88261100c6106af565b600580546001908101918290556000828152600660209081526040822093845591830180546001600160a01b0319163317905560028301558b519293509091611a39916003840191908d01906126a1565b508851611a4f90600483019060208c0190612706565b508751611a6590600583019060208b019061274d565b508651611a7b90600683019060208a01906127a6565b506007810183905560088101829055600060098201819055600a8201819055600b8201819055600c820155600d8101805461ffff191690558551611ac890600e83019060208901906127ff565b508060000154600760008360010160009054906101000a90046001600160a01b03166001600160a01b03166001600160a01b03168152602001908152602001600020819055507f7d84a6263ae0d98d3329bd7b46bb4e8d6f98cd35a7adb45c274c8b7fd5ebd5e08160000154338c8c8c8c89898e604051611b5199989796959493929190613b52565b60405180910390a1549998505050505050505050565b6107fb33848484612198565b6004611b7e82610ea0565b6007811115611b8957fe5b14611ba65760405162461bcd60e51b8152600401610742906139f5565b6000818152600660205260409020600354600b820154600c8301546001600160a01b03909216916372d3ee9e913091611bdf919061216f565b6040518363ffffffff1660e01b8152600401611bfc929190612fb8565b600060405180830381600087803b158015611c1657600080fd5b505af1158015611c2a573d6000803e3d6000fd5b505050506000611c8242600260009054906101000a90046001600160a01b03166001600160a01b0316636a42b8f86040518163ffffffff1660e01b815260040160206040518083038186803b158015610fd457600080fd5b905060005b6003830154811015611e2a57611e22836003018281548110611ca557fe5b6000918252602090912001546004850180546001600160a01b039092169184908110611ccd57fe5b9060005260206000200154856005018481548110611ce757fe5b600091825260209182902001805460408051601f6002600019610100600187161502019094169390930492830185900485028101850190915281815292830182828015611d755780601f10611d4a57610100808354040283529160200191611d75565b820191906000526020600020905b815481529060010190602001808311611d5857829003601f168201915b5050505050866006018581548110611d8957fe5b600091825260209182902001805460408051601f6002600019610100600187161502019094169390930492830185900485028101850190915281815292830182828015611e175780601f10611dec57610100808354040283529160200191611e17565b820191906000526020600020905b815481529060010190602001808311611dfa57829003601f168201915b5050505050866124e2565b600101611c87565b50600282018190556040517f9a2e42fd6722813d69113e7d0079d3d940171428df7373df9c7f7617cfda28929061128e9085908490613c63565b7f8e25870c07e0b0b3884c78da52790939a455c275406c44ae8b434b692fb916ee81565b611e9061286c565b5060008281526006602090815260408083206001600160a01b0385168452600f01825291829020825160a081018452905460ff80821615158352610100820481161515938301939093526001600160601b03620100008204811694830194909452600160701b81049093166060820152600160d01b90920416151560808201525b92915050565b6004546001600160a01b03163314611f415760405162461bcd60e51b815260040161074290613897565b600155565b6005611f5182610ea0565b6007811115611f5c57fe5b14611f795760405162461bcd60e51b81526004016107429061365c565b6000818152600660205260408120600d8101805461ff001916610100179055905b60038201548110156120cf576002546004830180546001600160a01b0390921691630825f38f919084908110611fcc57fe5b9060005260206000200154846003018481548110611fe657fe5b6000918252602090912001546004860180546001600160a01b03909216918690811061200e57fe5b906000526020600020015486600501868154811061202857fe5b9060005260206000200187600601878154811061204157fe5b9060005260206000200188600201546040518763ffffffff1660e01b81526004016120709594939291906130c3565b6000604051808303818588803b15801561208957600080fd5b505af115801561209d573d6000803e3d6000fd5b50505050506040513d6000823e601f3d908101601f191682016040526120c69190810190612c7d565b50600101611f9a565b507f712ae1383f79ac853f8d882153778e0260ef8f03b504e2866e0593e04d2b291f826040516120ff9190613154565b60405180910390a15050565b600061214083836040518060400160405280601081526020016f6469766973696f6e206279207a65726f60801b815250612639565b9392505050565b6000828211156121695760405162461bcd60e51b815260040161074290613976565b50900390565b6000828201838110156121405760405162461bcd60e51b815260040161074290613721565b4690565b60016121a384610ea0565b60078111156121ae57fe5b146121cb5760405162461bcd60e51b815260040161074290613931565b60008381526006602090815260408083206001600160a01b0388168452600f8101909252909120805460ff1615156001141561222e57805460ff6101009091041615158415151461222e5760405162461bcd60e51b815260040161074290613a9c565b8054600354600784015460405163782d6fe160e01b81526000936201000090046001600160601b0316926001600160a01b03169163782d6fe191612276918c91600401612f9f565b60206040518083038186803b15801561228e57600080fd5b505afa1580156122a2573d6000803e3d6000fd5b505050506040513d601f19601f820116820180604052508101906122c69190612de0565b039050806001600160601b0316846001600160601b031611156122fb5760405162461bcd60e51b81526004016107429061360a565b600061230f856001600160601b0316612670565b905085156123555761232e8460090154826001600160601b031661216f565b6009850155600b84015461234b906001600160601b03871661216f565b600b85015561238f565b61236c84600a0154826001600160601b031661216f565b600a850155600c840154612389906001600160601b03871661216f565b600c8501555b600354604051630ecb54ab60e21b81526001600160a01b0390911690633b2d52ac906123c1908b908990600401612fb8565b600060405180830381600087803b1580156123db57600080fd5b505af11580156123ef573d6000803e3d6000fd5b50508454600160ff199091161761ff001916610100891515021780865561242b92506201000090046001600160601b039081169150831661216f565b83546dffffffffffffffffffffffff00001916620100006001600160601b03928316021780855561246891600160701b909104811690871661216f565b835460ff60d01b196001600160601b0392909216600160701b026bffffffffffffffffffffffff60701b19909116171683556040517f877856338e13f63d0c36822ff0ef736b80934cd90574a3a5bc9262c39d217c46906124d0908a908a908a908690613046565b60405180910390a15050505050505050565b6002546040516001600160a01b039091169063f2b06537906125109088908890889088908890602001613077565b604051602081830303815290604052805190602001206040518263ffffffff1660e01b81526004016125429190613154565b60206040518083038186803b15801561255a57600080fd5b505afa15801561256e573d6000803e3d6000fd5b505050506040513d601f19601f820116820180604052508101906125929190612c49565b156125af5760405162461bcd60e51b81526004016107429061379d565b600254604051633a66f90160e01b81526001600160a01b0390911690633a66f901906125e79088908890889088908890600401613077565b602060405180830381600087803b15801561260157600080fd5b505af1158015612615573d6000803e3d6000fd5b505050506040513d601f19601f820116820180604052508101906114f69190612c65565b6000818361265a5760405162461bcd60e51b815260040161074291906131cb565b50600083858161266657fe5b0495945050505050565b80600260018201045b8181101561102b5780915060028182858161269057fe5b04018161269957fe5b049050612679565b8280548282559060005260206000209081019282156126f6579160200282015b828111156126f657825182546001600160a01b0319166001600160a01b039091161782556020909201916001909101906126c1565b5061270292915061289a565b5090565b828054828255906000526020600020908101928215612741579160200282015b82811115612741578251825591602001919060010190612726565b506127029291506128b9565b82805482825590600052602060002090810192821561279a579160200282015b8281111561279a578251805161278a9184916020909101906127ff565b509160200191906001019061276d565b506127029291506128ce565b8280548282559060005260206000209081019282156127f3579160200282015b828111156127f357825180516127e39184916020909101906127ff565b50916020019190600101906127c6565b506127029291506128eb565b828054600181600116156101000203166002900490600052602060002090601f016020900481019282601f1061284057805160ff1916838001178555612741565b828001600101855582156127415791820182811115612741578251825591602001919060010190612726565b6040805160a08101825260008082526020820181905291810182905260608101829052608081019190915290565b5b808211156127025780546001600160a01b031916815560010161289b565b5b8082111561270257600081556001016128ba565b808211156127025760006128e28282612908565b506001016128ce565b808211156127025760006128ff8282612908565b506001016128eb565b50805460018160011615610100020316600290046000825580601f1061292e575061294c565b601f01602090049060005260206000209081019061294c91906128b9565b50565b80356001600160a01b0381168114611f1157600080fd5b600082601f830112612976578081fd5b813561298961298482613c98565b613c71565b8181529150602080830190848101818402860182018710156129aa57600080fd5b60005b848110156129d1576129bf888361294f565b845292820192908201906001016129ad565b505050505092915050565b600082601f8301126129ec578081fd5b81356129fa61298482613c98565b818152915060208083019084810160005b848110156129d157612a22888484358a0101612aea565b84529282019290820190600101612a0b565b600082601f830112612a44578081fd5b8135612a5261298482613c98565b818152915060208083019084810160005b848110156129d157612a7a888484358a0101612aea565b84529282019290820190600101612a63565b600082601f830112612a9c578081fd5b8135612aaa61298482613c98565b818152915060208083019084810181840286018201871015612acb57600080fd5b60005b848110156129d157813584529282019290820190600101612ace565b600082601f830112612afa578081fd5b8135612b0861298482613cb8565b9150808252836020828501011115612b1f57600080fd5b8060208401602084013760009082016020015292915050565b600060208284031215612b49578081fd5b612140838361294f565b60008060408385031215612b65578081fd5b612b6f848461294f565b946020939093013593505050565b600080600080600060a08688031215612b94578081fd5b853567ffffffffffffffff80821115612bab578283fd5b612bb789838a01612966565b96506020880135915080821115612bcc578283fd5b612bd889838a01612a8c565b95506040880135915080821115612bed578283fd5b612bf989838a01612a34565b94506060880135915080821115612c0e578283fd5b612c1a89838a016129dc565b93506080880135915080821115612c2f578283fd5b50612c3c88828901612aea565b9150509295509295909350565b600060208284031215612c5a578081fd5b815161214081613d14565b600060208284031215612c76578081fd5b5051919050565b600060208284031215612c8e578081fd5b815167ffffffffffffffff811115612ca4578182fd5b8201601f81018413612cb4578182fd5b8051612cc261298482613cb8565b818152856020838501011115612cd6578384fd5b612ce7826020830160208601613ce8565b95945050505050565b600060208284031215612d01578081fd5b5035919050565b60008060408385031215612d1a578182fd5b82359150612d2b846020850161294f565b90509250929050565b60008060008060008060c08789031215612d4c578384fd5b863595506020870135612d5e81613d14565b9450604087013560ff81168114612d73578485fd5b9350606087013592506080870135915060a0870135612d9181613d22565b809150509295509295509295565b600080600060608486031215612db3578081fd5b833592506020840135612dc581613d14565b91506040840135612dd581613d22565b809150509250925092565b600060208284031215612df1578081fd5b815161214081613d22565b6000815180845260208085019450808401835b83811015612e345781516001600160a01b031687529582019590820190600101612e0f565b509495945050505050565b6000815180845260208085018081965082840281019150828601855b85811015612e85578284038952612e73848351612ec1565b98850198935090840190600101612e5b565b5091979650505050505050565b6000815180845260208085019450808401835b83811015612e3457815187529582019590820190600101612ea5565b60008151808452612ed9816020860160208601613ce8565b601f01601f19169290920160200192915050565b60008154600180821660008114612f0b5760018114612f2957612f67565b60028304607f16865260ff1983166020870152604086019350612f67565b60028304808752612f3986613cdc565b60005b82811015612f5d5781546020828b0101528482019150602081019050612f3c565b8801602001955050505b50505092915050565b61190160f01b81526002810192909252602282015260420190565b6001600160a01b0391909116815260200190565b6001600160a01b03929092168252602082015260400190565b6001600160a01b039290921682526001600160601b0316602082015260400190565b600060018060a01b038616825284602083015260a06040830152601860a08301527f73657450656e64696e6741646d696e286164647265737329000000000000000060c083015260e0606083015261303560e0830185612ec1565b905082608083015295945050505050565b6001600160a01b039490941684526020840192909252151560408301526001600160601b0316606082015260800190565b600060018060a01b038716825285602083015260a0604083015261309e60a0830186612ec1565b82810360608401526130b08186612ec1565b9150508260808301529695505050505050565b600060018060a01b038716825285602083015260a060408301526130ea60a0830186612eed565b82810360608401526130b08186612eed565b60006080825261310f6080830187612dfc565b82810360208401526131218187612e92565b905082810360408401526131358186612e3f565b905082810360608401526131498185612e3f565b979650505050505050565b90815260200190565b938452602084019290925260408301526001600160a01b0316606082015260800190565b92835260208301919091521515604082015260600190565b93845260ff9290921660208401526040830152606082015260800190565b60208101600883106131c557fe5b91905290565b6000602082526121406020830184612ec1565b6020808252603a908201527f476f7665726e6f723a3a70726f706f73653a2070726f706f73657220766f746560408201527f732062656c6f772070726f706f73616c207468726573686f6c64000000000000606082015260800190565b60208082526025908201527f476f7665726e6f723a3a73657451756f72756d3a206d75737420626520677561604082015264393234b0b760d91b606082015260800190565b6020808252603f908201527f476f7665726e6f723a3a70726f706f73653a2070726f706f73616c2066756e6360408201527f74696f6e20696e666f726d6174696f6e206172697479206d69736d6174636800606082015260800190565b60208082526045908201527f476f7665726e6f723a3a5f5f717565756553657454696d656c6f636b50656e6460408201527f696e6741646d696e3a2073656e646572206d75737420626520676f7620677561606082015264393234b0b760d91b608082015260a00190565b60208082526023908201527f476f7665726e6f723a3a726566756e643a206e6f7468696e6720746f207265666040820152621d5b9960ea1b606082015260800190565b60208082526023908201527f476f7665726e6f723a3a70726f706f73653a20746f6f206d616e7920616374696040820152626f6e7360e81b606082015260800190565b60208082526031908201527f476f7665726e6f723a3a63616e63656c3a2063616e6e6f742063616e63656c20604082015270195e1958dd5d1959081c1c9bdc1bdcd85b607a1b606082015260800190565b60208082526027908201527f476f7665726e6f723a3a70726f706f73653a206d7573742070726f7669646520604082015266616374696f6e7360c81b606082015260800190565b60208082526054908201527f476f7665726e6f723a3a70726f706f73653a206f6e65206c6976652070726f7060408201527f6f73616c207065722070726f706f7365722c20666f756e6420616e20616c726560608201527318591e481c195b991a5b99c81c1c9bdc1bdcd85b60621b608082015260a00190565b60208082526047908201527f476f7665726e6f723a3a5f5f6578656375746553657454696d656c6f636b506560408201527f6e64696e6741646d696e3a2073656e646572206d75737420626520676f7620676060820152663ab0b93234b0b760c91b608082015260a00190565b60208082526024908201527f476f7665726e6f723a3a73746174653a20696e76616c69642070726f706f73616040820152631b081a5960e21b606082015260800190565b60208082526053908201527f476f7665726e6f723a3a70726f706f73653a206f6e65206c6976652070726f7060408201527f6f73616c207065722070726f706f7365722c20666f756e6420616e20616c726560608201527218591e481858dd1a5d99481c1c9bdc1bdcd85b606a1b608082015260a00190565b60208082526032908201527f476f7665726e6f723a3a5f63617374566f74653a20766f746573206578636565604082015271191cc8195b1a59da589b1948185b5bdd5b9d60721b606082015260800190565b602080825260409082018190527f476f7665726e6f723a3a657865637574653a2070726f706f73616c2063616e20908201527f6f6e6c7920626520657865637574656420696620697420697320717565756564606082015260800190565b60208082526041908201527f476f7665726e6f723a3a70726f706f73653a206e6f7420656e6f75676820626160408201527f6c616e636520746f206c6f636b2064434c4d3820776974682070726f706f73616060820152601b60fa1b608082015260a00190565b6020808252601190820152706164646974696f6e206f766572666c6f7760781b604082015260600190565b60208082526031908201527f476f7665726e6f723a3a5f5f61626469636174653a2073656e646572206d75736040820152703a1031329033b7bb1033bab0b93234b0b760791b606082015260800190565b6020808252603f908201527f476f7665726e6f723a3a5f71756575654f725265766572743a2070726f706f7360408201527f616c20616374696f6e20616c7265616479207175657565642061742065746100606082015260800190565b60208082526034908201527f476f7665726e6f723a3a5f5f61636365707441646d696e3a2073656e6465722060408201527336bab9ba1031329033b7bb1033bab0b93234b0b760611b606082015260800190565b60208082526029908201527f476f7665726e6f723a3a726566756e643a206e6f7420656c696769626c6520666040820152681bdc881c99599d5b9960ba1b606082015260800190565b60208082526030908201527f476f7665726e6f723a3a73657450726f706f73616c5468726573686f6c643a2060408201526f36bab9ba1031329033bab0b93234b0b760811b606082015260800190565b6020808252602a908201527f476f7665726e6f723a3a63616e63656c3a2070726f706f7365722061626f7665604082015269081d1a1c995cda1bdb1960b21b606082015260800190565b60208082526025908201527f476f7665726e6f723a3a5f63617374566f74653a20766f74696e6720697320636040820152641b1bdcd95960da1b606082015260800190565b6020808252601590820152747375627472616374696f6e20756e646572666c6f7760581b604082015260600190565b60208082526030908201527f476f7665726e6f723a3a726566756e643a20616c726561647920726566756e6460408201526f1959081d1a1a5cc81c1c9bdc1bdcd85b60821b606082015260800190565b6020808252603f908201527f476f7665726e6f723a3a71756575653a2070726f706f73616c2063616e206f6e60408201527f6c79206265207175657565642069662069742069732073756363656564656400606082015260800190565b6020808252602a908201527f476f7665726e6f723a3a63617374566f746542795369673a20696e76616c6964604082015269207369676e617475726560b01b606082015260800190565b60208082526041908201527f476f7665726e6f723a3a5f63617374566f74653a2063616e206f6e6c7920746f60408201527f70206f66662073616d6520766f746520776974686f757420726566756e64696e6060820152606760f81b608082015260a00190565b600060a08201905082511515825260208301511515602083015260408301516001600160601b038082166040850152806060860151166060850152505060808301511515608083015292915050565b8981526001600160a01b038916602082015261012060408201819052600090613b7d8382018b612dfc565b90508281036060840152613b91818a612e92565b90508281036080840152613ba58189612e3f565b905082810360a0840152613bb98188612e3f565b90508560c08401528460e0840152828103610100840152613bda8185612ec1565b9c9b505050505050505050505050565b60006101808e835260018060a01b038e1660208401528c60408401528b60608401528a60808401528960a08401528860c08401528760e08401528661010084015285151561012084015284151561014084015280610160840152613c5081840185612ec1565b9f9e505050505050505050505050505050565b918252602082015260400190565b60405181810167ffffffffffffffff81118282101715613c9057600080fd5b604052919050565b600067ffffffffffffffff821115613cae578081fd5b5060209081020190565b600067ffffffffffffffff821115613cce578081fd5b50601f01601f191660200190565b60009081526020902090565b60005b83811015613d03578181015183820152602001613ceb565b838111156116b85750506000910152565b801515811461294c57600080fd5b6001600160601b038116811461294c57600080fdfea26469706673582212203264f4d38570e1b1f71b3a69660827697c37c5f57a780a999e03fd354239e2e264736f6c63430007000033",
  "linkReferences": {},
  "deployedLinkReferences": {}
}