{
  "_format": "hh-sol-artifact-1",
  "contractName": "Governor",
  "sourceName": "contracts/Governance/Governor.sol",
  "abi": [
    {
      "inputs": [
        {
          "internalType": "address",
          "name": "timelock_",
          "type": "address"
        },
        {
          "internalType": "address",
          "name": "dclm8_",
          "type": "address"
        },
        {
          "internalType": "address",
          "name": "guardian_",
          "type": "address"
        }
      ],
      "stateMutability": "nonpayable",
      "type": "constructor"
    },
    {
      "anonymous": false,
      "inputs": [
        {
          "indexed": false,
          "internalType": "uint256",
          "name": "id",
          "type": "uint256"
        }
      ],
      "name": "ProposalCanceled",
      "type": "event"
    },
    {
      "anonymous": false,
      "inputs": [
        {
          "indexed": false,
          "internalType": "uint256",
          "name": "id",
          "type": "uint256"
        },
        {
          "indexed": false,
          "internalType": "address",
          "name": "proposer",
          "type": "address"
        },
        {
          "indexed": false,
          "internalType": "address[]",
          "name": "targets",
          "type": "address[]"
        },
        {
          "indexed": false,
          "internalType": "uint256[]",
          "name": "values",
          "type": "uint256[]"
        },
        {
          "indexed": false,
          "internalType": "string[]",
          "name": "signatures",
          "type": "string[]"
        },
        {
          "indexed": false,
          "internalType": "bytes[]",
          "name": "calldatas",
          "type": "bytes[]"
        },
        {
          "indexed": false,
          "internalType": "uint256",
          "name": "startBlock",
          "type": "uint256"
        },
        {
          "indexed": false,
          "internalType": "uint256",
          "name": "endBlock",
          "type": "uint256"
        },
        {
          "indexed": false,
          "internalType": "string",
          "name": "description",
          "type": "string"
        }
      ],
      "name": "ProposalCreated",
      "type": "event"
    },
    {
      "anonymous": false,
      "inputs": [
        {
          "indexed": false,
          "internalType": "uint256",
          "name": "id",
          "type": "uint256"
        }
      ],
      "name": "ProposalExecuted",
      "type": "event"
    },
    {
      "anonymous": false,
      "inputs": [
        {
          "indexed": false,
          "internalType": "uint256",
          "name": "id",
          "type": "uint256"
        },
        {
          "indexed": false,
          "internalType": "uint256",
          "name": "eta",
          "type": "uint256"
        }
      ],
      "name": "ProposalQueued",
      "type": "event"
    },
    {
      "anonymous": false,
      "inputs": [
        {
          "indexed": false,
          "internalType": "address",
          "name": "voter",
          "type": "address"
        },
        {
          "indexed": false,
          "internalType": "uint256",
          "name": "proposalId",
          "type": "uint256"
        },
        {
          "indexed": false,
          "internalType": "bool",
          "name": "support",
          "type": "bool"
        },
        {
          "indexed": false,
          "internalType": "uint256",
          "name": "votes",
          "type": "uint256"
        }
      ],
      "name": "VoteCast",
      "type": "event"
    },
    {
      "inputs": [],
      "name": "BALLOT_TYPEHASH",
      "outputs": [
        {
          "internalType": "bytes32",
          "name": "",
          "type": "bytes32"
        }
      ],
      "stateMutability": "view",
      "type": "function"
    },
    {
      "inputs": [],
      "name": "DOMAIN_TYPEHASH",
      "outputs": [
        {
          "internalType": "bytes32",
          "name": "",
          "type": "bytes32"
        }
      ],
      "stateMutability": "view",
      "type": "function"
    },
    {
      "inputs": [],
      "name": "__abdicate",
      "outputs": [],
      "stateMutability": "nonpayable",
      "type": "function"
    },
    {
      "inputs": [],
      "name": "__acceptAdmin",
      "outputs": [],
      "stateMutability": "nonpayable",
      "type": "function"
    },
    {
      "inputs": [
        {
          "internalType": "address",
          "name": "newPendingAdmin",
          "type": "address"
        },
        {
          "internalType": "uint256",
          "name": "eta",
          "type": "uint256"
        }
      ],
      "name": "__executeSetTimelockPendingAdmin",
      "outputs": [],
      "stateMutability": "nonpayable",
      "type": "function"
    },
    {
      "inputs": [
        {
          "internalType": "address",
          "name": "newPendingAdmin",
          "type": "address"
        },
        {
          "internalType": "uint256",
          "name": "eta",
          "type": "uint256"
        }
      ],
      "name": "__queueSetTimelockPendingAdmin",
      "outputs": [],
      "stateMutability": "nonpayable",
      "type": "function"
    },
    {
      "inputs": [
        {
          "internalType": "uint256",
          "name": "proposalId",
          "type": "uint256"
        }
      ],
      "name": "cancel",
      "outputs": [],
      "stateMutability": "nonpayable",
      "type": "function"
    },
    {
      "inputs": [
        {
          "internalType": "uint256",
          "name": "proposalId",
          "type": "uint256"
        },
        {
          "internalType": "bool",
          "name": "support",
          "type": "bool"
        },
        {
          "internalType": "uint96",
          "name": "votes",
          "type": "uint96"
        }
      ],
      "name": "castVote",
      "outputs": [],
      "stateMutability": "nonpayable",
      "type": "function"
    },
    {
      "inputs": [
        {
          "internalType": "uint256",
          "name": "proposalId",
          "type": "uint256"
        },
        {
          "internalType": "bool",
          "name": "support",
          "type": "bool"
        },
        {
          "internalType": "uint8",
          "name": "v",
          "type": "uint8"
        },
        {
          "internalType": "bytes32",
          "name": "r",
          "type": "bytes32"
        },
        {
          "internalType": "bytes32",
          "name": "s",
          "type": "bytes32"
        },
        {
          "internalType": "uint96",
          "name": "votes",
          "type": "uint96"
        }
      ],
      "name": "castVoteBySig",
      "outputs": [],
      "stateMutability": "nonpayable",
      "type": "function"
    },
    {
      "inputs": [],
      "name": "dclm8",
      "outputs": [
        {
          "internalType": "contract Dclm8Interface",
          "name": "",
          "type": "address"
        }
      ],
      "stateMutability": "view",
      "type": "function"
    },
    {
      "inputs": [
        {
          "internalType": "uint256",
          "name": "proposalId",
          "type": "uint256"
        }
      ],
      "name": "execute",
      "outputs": [],
      "stateMutability": "payable",
      "type": "function"
    },
    {
      "inputs": [
        {
          "internalType": "uint256",
          "name": "proposalId",
          "type": "uint256"
        }
      ],
      "name": "getActions",
      "outputs": [
        {
          "internalType": "address[]",
          "name": "targets",
          "type": "address[]"
        },
        {
          "internalType": "uint256[]",
          "name": "values",
          "type": "uint256[]"
        },
        {
          "internalType": "string[]",
          "name": "signatures",
          "type": "string[]"
        },
        {
          "internalType": "bytes[]",
          "name": "calldatas",
          "type": "bytes[]"
        }
      ],
      "stateMutability": "view",
      "type": "function"
    },
    {
      "inputs": [
        {
          "internalType": "uint256",
          "name": "proposalId",
          "type": "uint256"
        }
      ],
      "name": "getDescription",
      "outputs": [
        {
          "internalType": "string",
          "name": "",
          "type": "string"
        }
      ],
      "stateMutability": "view",
      "type": "function"
    },
    {
      "inputs": [
        {
          "internalType": "uint256",
          "name": "proposalId",
          "type": "uint256"
        },
        {
          "internalType": "address",
          "name": "voter",
          "type": "address"
        }
      ],
      "name": "getReceipt",
      "outputs": [
        {
          "components": [
            {
              "internalType": "bool",
              "name": "hasVoted",
              "type": "bool"
            },
            {
              "internalType": "bool",
              "name": "support",
              "type": "bool"
            },
            {
              "internalType": "uint96",
              "name": "votes",
              "type": "uint96"
            },
            {
              "internalType": "uint96",
              "name": "rawVotes",
              "type": "uint96"
            },
            {
              "internalType": "bool",
              "name": "hasVotesRefunded",
              "type": "bool"
            },
            {
              "internalType": "bool",
              "name": "hasStakeRefunded",
              "type": "bool"
            },
            {
              "internalType": "uint256",
              "name": "endVotesCancelPeriodBlock",
              "type": "uint256"
            }
          ],
          "internalType": "struct Governor.Receipt",
          "name": "",
          "type": "tuple"
        }
      ],
      "stateMutability": "view",
      "type": "function"
    },
    {
      "inputs": [],
      "name": "guardian",
      "outputs": [
        {
          "internalType": "address",
          "name": "",
          "type": "address"
        }
      ],
      "stateMutability": "view",
      "type": "function"
    },
    {
      "inputs": [
        {
          "internalType": "address",
          "name": "",
          "type": "address"
        }
      ],
      "name": "latestProposalIds",
      "outputs": [
        {
          "internalType": "uint256",
          "name": "",
          "type": "uint256"
        }
      ],
      "stateMutability": "view",
      "type": "function"
    },
    {
      "inputs": [],
      "name": "name",
      "outputs": [
        {
          "internalType": "string",
          "name": "",
          "type": "string"
        }
      ],
      "stateMutability": "view",
      "type": "function"
    },
    {
      "inputs": [],
      "name": "proposalCancelPeriod",
      "outputs": [
        {
          "internalType": "uint256",
          "name": "",
          "type": "uint256"
        }
      ],
      "stateMutability": "pure",
      "type": "function"
    },
    {
      "inputs": [],
      "name": "proposalCount",
      "outputs": [
        {
          "internalType": "uint256",
          "name": "",
          "type": "uint256"
        }
      ],
      "stateMutability": "view",
      "type": "function"
    },
    {
      "inputs": [],
      "name": "proposalMaxOperations",
      "outputs": [
        {
          "internalType": "uint256",
          "name": "",
          "type": "uint256"
        }
      ],
      "stateMutability": "pure",
      "type": "function"
    },
    {
      "inputs": [],
      "name": "proposalThreshold",
      "outputs": [
        {
          "internalType": "uint256",
          "name": "",
          "type": "uint256"
        }
      ],
      "stateMutability": "view",
      "type": "function"
    },
    {
      "inputs": [
        {
          "internalType": "uint256",
          "name": "",
          "type": "uint256"
        }
      ],
      "name": "proposals",
      "outputs": [
        {
          "internalType": "uint256",
          "name": "id",
          "type": "uint256"
        },
        {
          "internalType": "address",
          "name": "proposer",
          "type": "address"
        },
        {
          "internalType": "uint256",
          "name": "eta",
          "type": "uint256"
        },
        {
          "internalType": "uint256",
          "name": "startBlock",
          "type": "uint256"
        },
        {
          "internalType": "uint256",
          "name": "endBlock",
          "type": "uint256"
        },
        {
          "internalType": "uint256",
          "name": "forVotes",
          "type": "uint256"
        },
        {
          "internalType": "uint256",
          "name": "againstVotes",
          "type": "uint256"
        },
        {
          "internalType": "uint256",
          "name": "rawForVotes",
          "type": "uint256"
        },
        {
          "internalType": "uint256",
          "name": "rawAgainstVotes",
          "type": "uint256"
        },
        {
          "internalType": "bool",
          "name": "canceled",
          "type": "bool"
        },
        {
          "internalType": "bool",
          "name": "executed",
          "type": "bool"
        },
        {
          "internalType": "string",
          "name": "description",
          "type": "string"
        },
        {
          "internalType": "uint256",
          "name": "parentProposalId",
          "type": "uint256"
        },
        {
          "internalType": "uint256",
          "name": "endProposalCancelPeriodBlock",
          "type": "uint256"
        }
      ],
      "stateMutability": "view",
      "type": "function"
    },
    {
      "inputs": [
        {
          "internalType": "address[]",
          "name": "targets",
          "type": "address[]"
        },
        {
          "internalType": "uint256[]",
          "name": "values",
          "type": "uint256[]"
        },
        {
          "internalType": "string[]",
          "name": "signatures",
          "type": "string[]"
        },
        {
          "internalType": "bytes[]",
          "name": "calldatas",
          "type": "bytes[]"
        },
        {
          "internalType": "string",
          "name": "description",
          "type": "string"
        }
      ],
      "name": "propose",
      "outputs": [
        {
          "internalType": "uint256",
          "name": "",
          "type": "uint256"
        }
      ],
      "stateMutability": "nonpayable",
      "type": "function"
    },
    {
      "inputs": [
        {
          "internalType": "address[]",
          "name": "targets",
          "type": "address[]"
        },
        {
          "internalType": "uint256[]",
          "name": "values",
          "type": "uint256[]"
        },
        {
          "internalType": "string[]",
          "name": "signatures",
          "type": "string[]"
        },
        {
          "internalType": "bytes[]",
          "name": "calldatas",
          "type": "bytes[]"
        },
        {
          "internalType": "string[]",
          "name": "descriptions",
          "type": "string[]"
        }
      ],
      "name": "proposeMultiAttribute",
      "outputs": [
        {
          "internalType": "uint256",
          "name": "",
          "type": "uint256"
        }
      ],
      "stateMutability": "nonpayable",
      "type": "function"
    },
    {
      "inputs": [
        {
          "internalType": "uint256",
          "name": "proposalId",
          "type": "uint256"
        }
      ],
      "name": "queue",
      "outputs": [],
      "stateMutability": "nonpayable",
      "type": "function"
    },
    {
      "inputs": [],
      "name": "quorumVotes",
      "outputs": [
        {
          "internalType": "uint256",
          "name": "",
          "type": "uint256"
        }
      ],
      "stateMutability": "view",
      "type": "function"
    },
    {
      "inputs": [
        {
          "internalType": "uint256",
          "name": "proposalId",
          "type": "uint256"
        }
      ],
      "name": "refund",
      "outputs": [],
      "stateMutability": "nonpayable",
      "type": "function"
    },
    {
      "inputs": [
        {
          "internalType": "uint256",
          "name": "_proposalThreshold",
          "type": "uint256"
        }
      ],
      "name": "setProposalThreshold",
      "outputs": [],
      "stateMutability": "nonpayable",
      "type": "function"
    },
    {
      "inputs": [
        {
          "internalType": "uint256",
          "name": "_quorum",
          "type": "uint256"
        }
      ],
      "name": "setQuorum",
      "outputs": [],
      "stateMutability": "nonpayable",
      "type": "function"
    },
    {
      "inputs": [
        {
          "internalType": "uint256",
          "name": "proposalId",
          "type": "uint256"
        }
      ],
      "name": "state",
      "outputs": [
        {
          "internalType": "enum Governor.ProposalState",
          "name": "",
          "type": "uint8"
        }
      ],
      "stateMutability": "view",
      "type": "function"
    },
    {
      "inputs": [],
      "name": "timelock",
      "outputs": [
        {
          "internalType": "contract TimelockInterface",
          "name": "",
          "type": "address"
        }
      ],
      "stateMutability": "view",
      "type": "function"
    },
    {
      "inputs": [],
      "name": "votesCancelPeriod",
      "outputs": [
        {
          "internalType": "uint256",
          "name": "",
          "type": "uint256"
        }
      ],
      "stateMutability": "pure",
      "type": "function"
    },
    {
      "inputs": [],
      "name": "votingDelay",
      "outputs": [
        {
          "internalType": "uint256",
          "name": "",
          "type": "uint256"
        }
      ],
      "stateMutability": "pure",
      "type": "function"
    },
    {
      "inputs": [],
      "name": "votingPeriod",
      "outputs": [
        {
          "internalType": "uint256",
          "name": "",
          "type": "uint256"
        }
      ],
      "stateMutability": "pure",
      "type": "function"
    }
  ],
  "bytecode": "0x608060405264932622b00060005569152d02c7e14af68000006001553480156200002857600080fd5b5060405162004a2138038062004a218339810160408190526200004b91620000ab565b600280546001600160a01b039485166001600160a01b031991821617909155600380549385169382169390931790925560048054919093169116179055620000f4565b80516001600160a01b0381168114620000a657600080fd5b919050565b600080600060608486031215620000c0578283fd5b620000cb846200008e565b9250620000db602085016200008e565b9150620000eb604085016200008e565b90509250925092565b61491d80620001046000396000f3fe6080604052600436106101f95760003560e01c8063760fbc131161010d578063da35c664116100a0578063deaaa7cc1161006f578063deaaa7cc1461056d578063e23a9a5214610582578063eb05136f146103c5578063ece40cc1146105af578063fe0d94c1146105cf576101f9565b8063da35c664146104f8578063da95691a1461050d578063dbfa977f1461052d578063ddf0b0091461054d576101f9565b8063b58131b0116100dc578063b58131b014610499578063b9a61961146104ae578063c1ba4e59146104c3578063d33219b4146104e3576101f9565b8063760fbc131461043a5780637bdbe4d01461044f578063915006711461046457806394a08d5814610484576101f9565b8063328dd98211610190578063452a93201161015f578063452a9320146103a357806345982a23146103c55780634925ec55146103da5780635d254608146103fa57806372c3e0c31461041a576101f9565b8063328dd982146103115780633932abb1146103415780633e4f49e61461035657806340e58ee514610383576101f9565b806320606b70116101cc57806320606b70146102a557806321f43e42146102ba57806324bc1a64146102dc578063278ecde1146102f1576101f9565b8063013cf08b146101fe57806302a251a31461024157806306fdde031461026357806317977c6114610285575b600080fd5b34801561020a57600080fd5b5061021e610219366004613799565b6105e2565b6040516102389e9d9c9b9a9998979695949392919061478f565b60405180910390f35b34801561024d57600080fd5b50610256610713565b6040516102389190613bf8565b34801561026f57600080fd5b50610278610719565b6040516102389190613c6f565b34801561029157600080fd5b506102566102a0366004613524565b610746565b3480156102b157600080fd5b50610256610758565b3480156102c657600080fd5b506102da6102d536600461353e565b61077c565b005b3480156102e857600080fd5b50610256610864565b3480156102fd57600080fd5b506102da61030c366004613799565b61086a565b34801561031d57600080fd5b5061033161032c366004613799565b610f44565b6040516102389493929190613ba0565b34801561034d57600080fd5b506102566111d3565b34801561036257600080fd5b50610376610371366004613799565b6111d8565b6040516102389190613c5b565b34801561038f57600080fd5b506102da61039e366004613799565b6114eb565b3480156103af57600080fd5b506103b8611721565b6040516102389190613a2f565b3480156103d157600080fd5b50610256611730565b3480156103e657600080fd5b506102786103f5366004613799565b611736565b34801561040657600080fd5b506102da6104153660046137dc565b6117da565b34801561042657600080fd5b50610256610435366004613567565b61198a565b34801561044657600080fd5b506102da611c3b565b34801561045b57600080fd5b50610256611c77565b34801561047057600080fd5b506102da61047f36600461353e565b611c7c565b34801561049057600080fd5b506103b8611d52565b3480156104a557600080fd5b50610256611d61565b3480156104ba57600080fd5b506102da611d67565b3480156104cf57600080fd5b506102da6104de366004613799565b611dfb565b3480156104ef57600080fd5b506103b8611e2a565b34801561050457600080fd5b50610256611e39565b34801561051957600080fd5b50610256610528366004613633565b611e3f565b34801561053957600080fd5b506102da610548366004613847565b611f24565b34801561055957600080fd5b506102da610568366004613799565b611f30565b34801561057957600080fd5b50610256612231565b34801561058e57600080fd5b506105a261059d3660046137b1565b612255565b6040516102389190614692565b3480156105bb57600080fd5b506102da6105ca366004613799565b6122fe565b6102da6105dd366004613799565b61232d565b60066020528060005260406000206000915090508060000154908060010160009054906101000a90046001600160a01b03169080600201549080600701549080600801549080600901549080600a01549080600b01549080600c01549080600d0160009054906101000a900460ff169080600d0160019054906101000a900460ff169080600e018054600181600116156101000203166002900480601f0160208091040260200160405190810160405280929190818152602001828054600181600116156101000203166002900480156106fd5780601f106106d2576101008083540402835291602001916106fd565b820191906000526020600020905b8154815290600101906020018083116106e057829003601f168201915b50505050509080600f015490806012015490508e565b61168090565b6040518060400160405280601181526020017021a6269c102220a79023b7bb32b93737b960791b81525081565b60076020526000908152604090205481565b7f8cad95687ba82c2ce50e74f7b754645e5117c3a5bec8151c0726d5857980a86681565b6004546001600160a01b031633146107af5760405162461bcd60e51b81526004016107a690613f04565b60405180910390fd5b6002546040516001600160a01b0390911690630825f38f9082906000906107da908790602001613a2f565b604051602081830303815290604052856040518563ffffffff1660e01b81526004016108099493929190613a5c565b600060405180830381600087803b15801561082357600080fd5b505af1158015610837573d6000803e3d6000fd5b505050506040513d6000823e601f3d908101601f1916820160405261085f9190810190613726565b505050565b60005490565b6000818152600660209081526040808320338452601181019092529091208054600160d01b900460ff1615806108a957508054600160d81b900460ff16155b6108c55760405162461bcd60e51b81526004016107a690614534565b60016108d0846111d8565b60088111156108db57fe5b14156109055780600101544311156109055760405162461bcd60e51b81526004016107a690614311565b805460018301546000916201000081046001600160601b0390811692600160701b830490911691600160d81b900460ff16906001600160a01b0316331480801561096257506004610955896111d8565b600881111561096057fe5b145b1561097f5760405162461bcd60e51b81526004016107a69061437e565b6000818015610a36575060056109948a6111d8565b600881111561099f57fe5b14806109be575060066109b18a6111d8565b60088111156109bc57fe5b145b806109dc575060086109cf8a6111d8565b60088111156109da57fe5b145b806109fa575060046109ed8a6111d8565b60088111156109f857fe5b145b80610a1857506003610a0b8a6111d8565b6008811115610a1657fe5b145b80610a3657506002610a298a6111d8565b6008811115610a3457fe5b145b90508015610c1f576005610a498a6111d8565b6008811115610a5457fe5b1480610a7357506006610a668a6111d8565b6008811115610a7157fe5b145b80610a9157506008610a848a6111d8565b6008811115610a8f57fe5b145b15610ac257865460029060036001600160601b03600160701b90920482160216046001600160601b03169550610c16565b6003610acd8a6111d8565b6008811115610ad857fe5b1415610b78578654600090610afe90600160701b90046001600160601b031660046124f2565b600354604051633969f74f60e11b81529192506001600160a01b0316906372d3ee9e90610b319030908590600401613b7e565b600060405180830381600087803b158015610b4b57600080fd5b505af1158015610b5f573d6000803e3d6000fd5b50505050806003026001600160601b0316965050610c16565b8654600160701b90046001600160601b03166000610b978260146124f2565b9050610ba3828261252e565b600354604051633969f74f60e11b81526001600160601b039290921699506001600160a01b0316906372d3ee9e90610be19030908590600401613b7e565b600060405180830381600087803b158015610bfb57600080fd5b505af1158015610c0f573d6000803e3d6000fd5b5050505050505b60019250610d10565b6001610c2a8a6111d8565b6008811115610c3557fe5b1415610cfb578115610c595760405162461bcd60e51b81526004016107a6906144d7565b8654600160701b90046001600160601b03166000610c788260146124f2565b9050610c84828261252e565b600354604051633969f74f60e11b81526001600160601b039290921699506001600160a01b0316906372d3ee9e90610cc29030908590600401613b7e565b600060405180830381600087803b158015610cdc57600080fd5b505af1158015610cf0573d6000803e3d6000fd5b505050505050610d10565b8654600160701b90046001600160601b031695505b60008611610d305760405162461bcd60e51b81526004016107a690613dec565b60006001610d3d8b6111d8565b6008811115610d4857fe5b14905060006003610d588c6111d8565b6008811115610d6357fe5b1490508180610d6f5750805b80610d775750825b610d935760405162461bcd60e51b81526004016107a69061437e565b60035460405163a9059cbb60e01b81526001600160a01b039091169063a9059cbb90610dc59033908c90600401613a43565b602060405180830381600087803b158015610ddf57600080fd5b505af1158015610df3573d6000803e3d6000fd5b505050506040513d601f19601f82011682018060405250810190610e1791906136f2565b508115610e81578854610100900460ff1615610e5957610e3b8a600901548861252e565b60098b0155600b8a0154610e4f908961252e565b600b8b0155610e81565b610e678a600a01548861252e565b600a8b0155600c8a0154610e7b908961252e565b600c8b01555b8854610e9c906201000090046001600160601b03168861252e565b89546dffffffffffffffffffffffff00001916620100006001600160601b039283160217808b55610ed691600160701b909104168761252e565b8954600160d01b620100006bffffffffffffffffffffffff60701b19909216600160701b6001600160601b039485160217918204909216151560ff19919091161760ff60d01b19161760ff60d81b1916600160d81b9515159590950294909417909755505050505050505050565b60608060608060006006600087815260200190815260200160002090508060030181600401826005018360060183805480602002602001604051908101604052809291908181526020018280548015610fc657602002820191906000526020600020905b81546001600160a01b03168152600190910190602001808311610fa8575b505050505093508280548060200260200160405190810160405280929190818152602001828054801561101857602002820191906000526020600020905b815481526020019060010190808311611004575b5050505050925081805480602002602001604051908101604052809291908181526020016000905b828210156110eb5760008481526020908190208301805460408051601f60026000196101006001871615020190941693909304928301859004850281018501909152818152928301828280156110d75780601f106110ac576101008083540402835291602001916110d7565b820191906000526020600020905b8154815290600101906020018083116110ba57829003601f168201915b505050505081526020019060010190611040565b50505050915080805480602002602001604051908101604052809291908181526020016000905b828210156111bd5760008481526020908190208301805460408051601f60026000196101006001871615020190941693909304928301859004850281018501909152818152928301828280156111a95780601f1061117e576101008083540402835291602001916111a9565b820191906000526020600020905b81548152906001019060200180831161118c57829003601f168201915b505050505081526020019060010190611112565b5050505090509450945094509450509193509193565b600190565b600081600554101580156111ec5750600082115b6112085760405162461bcd60e51b81526004016107a690613fdb565b6000828152600660205260408120600f81015490919081901561122e576001915061123c565b60108301541561123c575060015b61126f6040518060400160405280600f81526020016e476f7665726e6f723a3a737461746560881b815250868385612556565b60008082156113285760005b60108601548110156113225760006006600088601001848154811061129c57fe5b9060005260206000200154815260200190815260200160002090508660080154431180156112d2575080600a0154816009015411155b156112e75760049750505050505050506114e6565b6112f5816009015485612618565b6001600160601b0316935061130e81600a015484612618565b6001600160601b031692505060010161127b565b50611335565b50506009830154600a8401545b61137d6040518060400160405280601781526020017f476f7665726e6f723a3a737461746520766f7465733a200000000000000000008152508383611378610864565b61263d565b600d85015460ff1615611398576002955050505050506114e6565b846007015443116113b1576000955050505050506114e6565b846008015443116113ca576001955050505050506114e6565b6113d2610864565b81830110156113e9576003955050505050506114e6565b8082116113fe576004955050505050506114e6565b6002850154611415576005955050505050506114e6565b600d850154610100900460ff1615611435576008955050505050506114e6565b6114c88560020154600260009054906101000a90046001600160a01b03166001600160a01b031663c1a287e26040518163ffffffff1660e01b815260040160206040518083038186803b15801561148b57600080fd5b505afa15801561149f573d6000803e3d6000fd5b505050506040513d601f19601f820116820180604052508101906114c3919061370e565b612618565b42106114dc576007955050505050506114e6565b6006955050505050505b919050565b60006114f6826111d8565b9050600181600881111561150657fe5b146115235760405162461bcd60e51b81526004016107a690613e72565b60008281526006602052604090206004546001600160a01b0316331480611556575060018101546001600160a01b031633145b6115725760405162461bcd60e51b81526004016107a6906143c7565b80601201544311156115965760405162461bcd60e51b81526004016107a690613f71565b61159e611d61565b81600b0154111580156115bc57506115b4611d61565b81600c015411155b6115d85760405162461bcd60e51b81526004016107a690614071565b600d8101805460ff1916600117905560005b60038201548110156116e4576002546003830180546001600160a01b039092169163591fcdfe91908490811061161c57fe5b6000918252602090912001546004850180546001600160a01b03909216918590811061164457fe5b906000526020600020015485600501858154811061165e57fe5b9060005260206000200186600601868154811061167757fe5b9060005260206000200187600201546040518663ffffffff1660e01b81526004016116a6959493929190613b45565b600060405180830381600087803b1580156116c057600080fd5b505af11580156116d4573d6000803e3d6000fd5b5050600190920191506115ea9050565b507f789cf55be980739dad1d0699b93b58e806b51c9d96619bfa8fe0a28abaa7b30c836040516117149190613bf8565b60405180910390a1505050565b6004546001600160a01b031681565b61014090565b600081815260066020908152604091829020600e0180548351601f60026000196101006001861615020190931692909204918201849004840281018401909452808452606093928301828280156117ce5780601f106117a3576101008083540402835291602001916117ce565b820191906000526020600020905b8154815290600101906020018083116117b157829003601f168201915b50505050509050919050565b60408051808201909152601181527021a6269c102220a79023b7bb32b93737b960791b60209091015260007f8cad95687ba82c2ce50e74f7b754645e5117c3a5bec8151c0726d5857980a8667f5c6c4638be9dacb7243638d3b44c65664c952613289876d97c23e080e4e9ff3361184f6126fb565b306040516020016118639493929190613c01565b60405160208183030381529060405280519060200120905060007f8e25870c07e0b0b3884c78da52790939a455c275406c44ae8b434b692fb916ee88886040516020016118b293929190613c25565b604051602081830303815290604052805190602001209050600082826040516020016118df929190613a14565b60405160208183030381529060405280519060200120905060006001828989896040516000815260200160405260405161191c9493929190613c3d565b6020604051602081039080840390855afa15801561193e573d6000803e3d6000fd5b5050604051601f1901519150506001600160a01b0381166119715760405162461bcd60e51b81526004016107a6906145e1565b61197d818b8b886126ff565b505050505b505050505050565b600081518651146119ad5760405162461bcd60e51b81526004016107a690613d24565b6000865167ffffffffffffffff811180156119c757600080fd5b506040519080825280602002602001820160405280156119f1578160200160208202803683370190505b50905060005b8751811015611be85760408051600180825281830190925260009160208083019080368337505060408051600180825281830190925292935060009291506020808301908036833750506040805160018082528183019092529293506000929150602082015b6060815260200190600190039081611a5d57505060408051600180825281830190925291925060009190602082015b6060815260200190600190039081611a8c5790505090508b8581518110611aaf57fe5b602002602001015184600081518110611ac457fe5b60200260200101906001600160a01b031690816001600160a01b0316815250508a8581518110611af057fe5b602002602001015183600081518110611b0557fe5b602002602001018181525050898581518110611b1d57fe5b602002602001015182600081518110611b3257fe5b6020026020010181905250888581518110611b4957fe5b602002602001015181600081518110611b5e57fe5b60200260200101819052506000611b8b858585858d8b81518110611b7e57fe5b60200260200101516128a4565b905080878781518110611b9a57fe5b60209081029190910101528515611bd7576000818152600660205260408120885190918991611bc557fe5b602002602001015181600f0181905550505b5050600190930192506119f7915050565b50611bf281612b83565b611c1a3382600081518110611c0357fe5b60200260200101516001611c15611d61565b612bf9565b80600081518110611c2757fe5b602002602001015191505095945050505050565b6004546001600160a01b03163314611c655760405162461bcd60e51b81526004016107a6906141be565b600480546001600160a01b0319169055565b600a90565b6004546001600160a01b03163314611ca65760405162461bcd60e51b81526004016107a690613d81565b6002546040516001600160a01b0390911690633a66f901908290600090611cd1908790602001613a2f565b604051602081830303815290604052856040518563ffffffff1660e01b8152600401611d009493929190613a5c565b602060405180830381600087803b158015611d1a57600080fd5b505af1158015611d2e573d6000803e3d6000fd5b505050506040513d601f19601f8201168201806040525081019061085f919061370e565b6003546001600160a01b031681565b60015490565b6004546001600160a01b03163314611d915760405162461bcd60e51b81526004016107a69061426c565b600260009054906101000a90046001600160a01b03166001600160a01b0316630e18b6816040518163ffffffff1660e01b8152600401600060405180830381600087803b158015611de157600080fd5b505af1158015611df5573d6000803e3d6000fd5b50505050565b6004546001600160a01b03163314611e255760405162461bcd60e51b81526004016107a690613cdf565b600055565b6002546001600160a01b031681565b60055481565b6000611e49611d61565b6003546001600160a01b031663782d6fe133611e6643600161252e565b6040518363ffffffff1660e01b8152600401611e83929190613a43565b60206040518083038186803b158015611e9b57600080fd5b505afa158015611eaf573d6000803e3d6000fd5b505050506040513d601f19601f82011682018060405250810190611ed39190613888565b6001600160601b03161015611efa5760405162461bcd60e51b81526004016107a690613c82565b6000611f0987878787876128a4565b9050611f1a33826001611c15611d61565b9695505050505050565b61085f338484846126ff565b6005611f3b826111d8565b6008811115611f4657fe5b14611f635760405162461bcd60e51b81526004016107a690614584565b6000818152600660205260409020600354600b820154600c8301546001600160a01b03909216916372d3ee9e913091611fac91611f9f91612618565b611fa7611d61565b61252e565b6040518363ffffffff1660e01b8152600401611fc9929190613b7e565b600060405180830381600087803b158015611fe357600080fd5b505af1158015611ff7573d6000803e3d6000fd5b50505050600061204f42600260009054906101000a90046001600160a01b03166001600160a01b0316636a42b8f86040518163ffffffff1660e01b815260040160206040518083038186803b15801561148b57600080fd5b905060005b60038301548110156121f7576121ef83600301828154811061207257fe5b6000918252602090912001546004850180546001600160a01b03909216918490811061209a57fe5b90600052602060002001548560050184815481106120b457fe5b600091825260209182902001805460408051601f60026000196101006001871615020190941693909304928301859004850281018501909152818152928301828280156121425780601f1061211757610100808354040283529160200191612142565b820191906000526020600020905b81548152906001019060200180831161212557829003601f168201915b505050505086600601858154811061215657fe5b600091825260209182902001805460408051601f60026000196101006001871615020190941693909304928301859004850281018501909152818152928301828280156121e45780601f106121b9576101008083540402835291602001916121e4565b820191906000526020600020905b8154815290600101906020018083116121c757829003601f168201915b505050505086612ea4565b600101612054565b50600282018190556040517f9a2e42fd6722813d69113e7d0079d3d940171428df7373df9c7f7617cfda289290611714908590849061481a565b7f8e25870c07e0b0b3884c78da52790939a455c275406c44ae8b434b692fb916ee81565b61225d61308a565b5060008281526006602090815260408083206001600160a01b0385168452601101825291829020825160e081018452815460ff80821615158352610100820481161515948301949094526001600160601b03620100008204811695830195909552600160701b81049094166060820152600160d01b8404831615156080820152600160d81b909304909116151560a08301526001015460c082015292915050565b6004546001600160a01b031633146123285760405162461bcd60e51b81526004016107a690614413565b600155565b6006612338826111d8565b600881111561234357fe5b146123605760405162461bcd60e51b81526004016107a6906140ce565b6000818152600660205260408120600d8101805461ff001916610100179055905b60038201548110156124b6576002546004830180546001600160a01b0390921691630825f38f9190849081106123b357fe5b90600052602060002001548460030184815481106123cd57fe5b6000918252602090912001546004860180546001600160a01b0390921691869081106123f557fe5b906000526020600020015486600501868154811061240f57fe5b9060005260206000200187600601878154811061242857fe5b9060005260206000200188600201546040518763ffffffff1660e01b8152600401612457959493929190613b45565b6000604051808303818588803b15801561247057600080fd5b505af1158015612484573d6000803e3d6000fd5b50505050506040513d6000823e601f3d908101601f191682016040526124ad9190810190613726565b50600101612381565b507f712ae1383f79ac853f8d882153778e0260ef8f03b504e2866e0593e04d2b291f826040516124e69190613bf8565b60405180910390a15050565b600061252783836040518060400160405280601081526020016f6469766973696f6e206279207a65726f60801b815250612ffb565b9392505050565b6000828211156125505760405162461bcd60e51b81526004016107a6906144a8565b50900390565b611df584848484604051602401808060200185815260200184151581526020018315158152602001828103825286818151815260200191508051906020019080838360005b838110156125b357818101518382015260200161259b565b50505050905090810190601f1680156125e05780820380516001836020036101000a031916815260200191505b5060408051601f198184030181529190526020810180516001600160e01b0316630e37ff3d60e41b1790529550613032945050505050565b6000828201838110156125275760405162461bcd60e51b81526004016107a690614193565b611df5848484846040516024018080602001858152602001848152602001838152602001828103825286818151815260200191508051906020019080838360005b8381101561269657818101518382015260200161267e565b50505050905090810190601f1680156126c35780820380516001836020036101000a031916815260200191505b5060408051601f198184030181529190526020810180516001600160e01b03166304772b3360e11b1790529550613032945050505050565b4690565b600161270a846111d8565b600881111561271557fe5b146127325760405162461bcd60e51b81526004016107a690614463565b60008381526006602090815260408083206001600160a01b038816845260118101909252909120805460ff161515600114156127c257805460ff610100909104161515841515146127955760405162461bcd60e51b81526004016107a69061462b565b60018201546001600160a01b03163314156127c25760405162461bcd60e51b81526004016107a6906142c0565b8054600354600784015460405163782d6fe160e01b81526000936201000090046001600160601b0316926001600160a01b03169163782d6fe19161280a918c91600401613a43565b60206040518083038186803b15801561282257600080fd5b505afa158015612836573d6000803e3d6000fd5b505050506040513d601f19601f8201168201806040525081019061285a9190613888565b039050806001600160601b0316846001600160601b0316111561288f5760405162461bcd60e51b81526004016107a69061401f565b61289b87878787612bf9565b50505050505050565b6000845186511480156128b8575083518651145b80156128c5575082518651145b6128e15760405162461bcd60e51b81526004016107a690613d24565b85516128ff5760405162461bcd60e51b81526004016107a690613ebd565b612907611c77565b865111156129275760405162461bcd60e51b81526004016107a690613e2f565b61292f611d61565b6003546040516370a0823160e01b81526001600160a01b03909116906370a082319061295f903390600401613a2f565b60206040518083038186803b15801561297757600080fd5b505afa15801561298b573d6000803e3d6000fd5b505050506040513d601f19601f820116820180604052508101906129af919061370e565b10156129cd5760405162461bcd60e51b81526004016107a69061412c565b60006129db436114c36111d3565b905060006129eb826114c3610713565b905060006129fb836114c3611730565b600580546001908101918290556000828152600660209081526040822093845591830180546001600160a01b0319163317905560028301558b519293509091612a4c916003840191908d01906130c6565b508851612a6290600483019060208c019061312b565b508751612a7890600583019060208b0190613166565b508651612a8e90600683019060208a01906131bf565b506007810184905560088101839055600060098201819055600a8201819055600b8201819055600c820155600d8101805461ffff191690558551612adb90600e8301906020890190613218565b508181601201819055508060000154600760008360010160009054906101000a90046001600160a01b03166001600160a01b03166001600160a01b03168152602001908152602001600020819055507f7d84a6263ae0d98d3329bd7b46bb4e8d6f98cd35a7adb45c274c8b7fd5ebd5e08160000154338c8c8c8c8a8a8e604051612b6d999897969594939291906146f7565b60405180910390a1549998505050505050505050565b60006006600083600081518110612b9657fe5b6020026020010151815260200190815260200160002090506000600190505b825181101561085f5781601001838281518110612bce57fe5b6020908102919091018101518254600181810185556000948552929093209092019190915501612bb5565b60008381526006602090815260408083206001600160a01b03881684526011810190925290912060108201548015612c84576000612c40856001600160601b0316836124f2565b905060005b82811015612c7a57612c7233866010018381548110612c6057fe5b90600052602060002001548985612bf9565b600101612c45565b5050505050611df5565b8154600090612ca290600160701b90046001600160601b0316613053565b8354612cc2906001600160601b03600160701b9091048116880116613053565b0390508515612d0957612ce28460090154826001600160601b0316612618565b6009850155600b840154612cff906001600160601b038716612618565b600b850155612d43565b612d2084600a0154826001600160601b0316612618565b600a850155600c840154612d3d906001600160601b038716612618565b600c8501555b600354604051630ecb54ab60e21b81526001600160a01b0390911690633b2d52ac90612d75908b908990600401613b7e565b600060405180830381600087803b158015612d8f57600080fd5b505af1158015612da3573d6000803e3d6000fd5b50508454600160ff199091161761ff0019166101008915150217808655612de09250600160701b90046001600160601b0390811691508716612618565b83546bffffffffffffffffffffffff60701b1916600160701b6001600160601b03928316810291909117808655612e1a9291900416613053565b835461ffff60d01b196001600160601b039290921662010000026dffffffffffffffffffffffff00001990911617168355612e57436114c3611730565b60018401556040517f877856338e13f63d0c36822ff0ef736b80934cd90574a3a5bc9262c39d217c4690612e92908a908a908a908690613ac8565b60405180910390a15050505050505050565b6002546040516001600160a01b039091169063f2b0653790612ed29088908890889088908890602001613af9565b604051602081830303815290604052805190602001206040518263ffffffff1660e01b8152600401612f049190613bf8565b60206040518083038186803b158015612f1c57600080fd5b505afa158015612f30573d6000803e3d6000fd5b505050506040513d601f19601f82011682018060405250810190612f5491906136f2565b15612f715760405162461bcd60e51b81526004016107a69061420f565b600254604051633a66f90160e01b81526001600160a01b0390911690633a66f90190612fa99088908890889088908890600401613af9565b602060405180830381600087803b158015612fc357600080fd5b505af1158015612fd7573d6000803e3d6000fd5b505050506040513d601f19601f82011682018060405250810190611982919061370e565b6000818361301c5760405162461bcd60e51b81526004016107a69190613c6f565b50600083858161302857fe5b0495945050505050565b80516a636f6e736f6c652e6c6f67602083016000808483855afa5050505050565b80600260018201045b818110156130845780915060028182858161307357fe5b04018161307c57fe5b04905061305c565b50919050565b6040805160e081018252600080825260208201819052918101829052606081018290526080810182905260a0810182905260c081019190915290565b82805482825590600052602060002090810192821561311b579160200282015b8281111561311b57825182546001600160a01b0319166001600160a01b039091161782556020909201916001909101906130e6565b50613127929150613293565b5090565b82805482825590600052602060002090810192821561311b579160200282015b8281111561311b57825182559160200191906001019061314b565b8280548282559060005260206000209081019282156131b3579160200282015b828111156131b357825180516131a3918491602090910190613218565b5091602001919060010190613186565b506131279291506132a8565b82805482825590600052602060002090810192821561320c579160200282015b8281111561320c57825180516131fc918491602090910190613218565b50916020019190600101906131df565b506131279291506132c5565b828054600181600116156101000203166002900490600052602060002090601f01602090048101928261324e576000855561311b565b82601f1061326757805160ff191683800117855561311b565b8280016001018555821561311b579182018281111561311b57825182559160200191906001019061314b565b5b808211156131275760008155600101613294565b808211156131275760006132bc82826132e2565b506001016132a8565b808211156131275760006132d982826132e2565b506001016132c5565b50805460018160011615610100020316600290046000825580601f106133085750613326565b601f0160209004906000526020600020908101906133269190613293565b50565b600061333c6133378461486a565b614828565b905082815283838301111561335057600080fd5b828260208301376000602084830101529392505050565b80356001600160a01b03811681146114e657600080fd5b600082601f83011261338e578081fd5b8135602061339e6133378361484c565b82815281810190858301838502870184018810156133ba578586fd5b855b858110156133df576133cd82613367565b845292840192908401906001016133bc565b5090979650505050505050565b600082601f8301126133fc578081fd5b8135602061340c6133378361484c565b82815281810190858301855b858110156133df578135880189603f820112613432578788fd5b6134438a8783013560408401613329565b8552509284019290840190600101613418565b600082601f830112613466578081fd5b813560206134766133378361484c565b82815281810190858301855b858110156133df57613499898684358b0101613505565b84529284019290840190600101613482565b600082601f8301126134bb578081fd5b813560206134cb6133378361484c565b82815281810190858301838502870184018810156134e7578586fd5b855b858110156133df578135845292840192908401906001016134e9565b600082601f830112613515578081fd5b61252783833560208501613329565b600060208284031215613535578081fd5b61252782613367565b60008060408385031215613550578081fd5b61355983613367565b946020939093013593505050565b600080600080600060a0868803121561357e578081fd5b853567ffffffffffffffff80821115613595578283fd5b6135a189838a0161337e565b965060208801359150808211156135b6578283fd5b6135c289838a016134ab565b955060408801359150808211156135d7578283fd5b6135e389838a01613456565b945060608801359150808211156135f8578283fd5b61360489838a016133ec565b93506080880135915080821115613619578283fd5b5061362688828901613456565b9150509295509295909350565b600080600080600060a0868803121561364a578283fd5b853567ffffffffffffffff80821115613661578485fd5b61366d89838a0161337e565b96506020880135915080821115613682578485fd5b61368e89838a016134ab565b955060408801359150808211156136a3578485fd5b6136af89838a01613456565b945060608801359150808211156136c4578283fd5b6136d089838a016133ec565b935060808801359150808211156136e5578283fd5b5061362688828901613505565b600060208284031215613703578081fd5b8151612527816148c4565b60006020828403121561371f578081fd5b5051919050565b600060208284031215613737578081fd5b815167ffffffffffffffff81111561374d578182fd5b8201601f8101841361375d578182fd5b805161376b6133378261486a565b81815285602083850101111561377f578384fd5b613790826020830160208601614898565b95945050505050565b6000602082840312156137aa578081fd5b5035919050565b600080604083850312156137c3578182fd5b823591506137d360208401613367565b90509250929050565b60008060008060008060c087890312156137f4578384fd5b863595506020870135613806816148c4565b9450604087013560ff8116811461381b578485fd5b9350606087013592506080870135915060a0870135613839816148d2565b809150509295509295509295565b60008060006060848603121561385b578081fd5b83359250602084013561386d816148c4565b9150604084013561387d816148d2565b809150509250925092565b600060208284031215613899578081fd5b8151612527816148d2565b6000815180845260208085019450808401835b838110156138dc5781516001600160a01b0316875295820195908201906001016138b7565b509495945050505050565b60008282518085526020808601955080818302840101818601855b848110156133df57601f1986840301895261391e838351613965565b98840198925090830190600101613902565b6000815180845260208085019450808401835b838110156138dc57815187529582019590820190600101613943565b15159052565b6000815180845261397d816020860160208601614898565b601f01601f19169290920160200192915050565b600081546001808216600081146139af57600181146139cd57613a0b565b60028304607f16865260ff1983166020870152604086019350613a0b565b600283048087526139dd8661488c565b60005b82811015613a015781546020828b01015284820191506020810190506139e0565b8801602001955050505b50505092915050565b61190160f01b81526002810192909252602282015260420190565b6001600160a01b0391909116815260200190565b6001600160a01b03929092168252602082015260400190565b600060018060a01b038616825284602083015260a06040830152601860a08301527f73657450656e64696e6741646d696e286164647265737329000000000000000060c083015260e06060830152613ab760e0830185613965565b905082608083015295945050505050565b6001600160a01b039490941684526020840192909252151560408301526001600160601b0316606082015260800190565b600060018060a01b038716825285602083015260a06040830152613b2060a0830186613965565b8281036060840152613b328186613965565b9150508260808301529695505050505050565b600060018060a01b038716825285602083015260a06040830152613b6c60a0830186613991565b8281036060840152613b328186613991565b6001600160a01b039290921682526001600160601b0316602082015260400190565b600060808252613bb360808301876138a4565b8281036020840152613bc58187613930565b90508281036040840152613bd981866138e7565b90508281036060840152613bed81856138e7565b979650505050505050565b90815260200190565b938452602084019290925260408301526001600160a01b0316606082015260800190565b92835260208301919091521515604082015260600190565b93845260ff9290921660208401526040830152606082015260800190565b6020810160098310613c6957fe5b91905290565b6000602082526125276020830184613965565b6020808252603a908201527f476f7665726e6f723a3a70726f706f73653a2070726f706f73657220766f746560408201527f732062656c6f772070726f706f73616c207468726573686f6c64000000000000606082015260800190565b60208082526025908201527f476f7665726e6f723a3a73657451756f72756d3a206d75737420626520677561604082015264393234b0b760d91b606082015260800190565b6020808252603f908201527f476f7665726e6f723a3a70726f706f73653a2070726f706f73616c2066756e6360408201527f74696f6e20696e666f726d6174696f6e206172697479206d69736d6174636800606082015260800190565b60208082526045908201527f476f7665726e6f723a3a5f5f717565756553657454696d656c6f636b50656e6460408201527f696e6741646d696e3a2073656e646572206d75737420626520676f7620677561606082015264393234b0b760d91b608082015260a00190565b60208082526023908201527f476f7665726e6f723a3a726566756e643a206e6f7468696e6720746f207265666040820152621d5b9960ea1b606082015260800190565b60208082526023908201527f476f7665726e6f723a3a70726f706f73653a20746f6f206d616e7920616374696040820152626f6e7360e81b606082015260800190565b6020808252602b908201527f476f7665726e6f723a3a63616e63656c3a2070726f706f73616c2073686f756c60408201526a642062652061637469766560a81b606082015260800190565b60208082526027908201527f476f7665726e6f723a3a70726f706f73653a206d7573742070726f7669646520604082015266616374696f6e7360c81b606082015260800190565b60208082526047908201527f476f7665726e6f723a3a5f5f6578656375746553657454696d656c6f636b506560408201527f6e64696e6741646d696e3a2073656e646572206d75737420626520676f7620676060820152663ab0b93234b0b760c91b608082015260a00190565b60208082526044908201527f476f7665726e6f723a3a63616e63656c3a20796f752063616e6e6f742063616e60408201527f63656c2070726f706f73616c2c2063616e63656c20706572696f6420697320656060820152631b99195960e21b608082015260a00190565b60208082526024908201527f476f7665726e6f723a3a73746174653a20696e76616c69642070726f706f73616040820152631b081a5960e21b606082015260800190565b60208082526032908201527f476f7665726e6f723a3a5f63617374566f74653a20766f746573206578636565604082015271191cc8195b1a59da589b1948185b5bdd5b9d60721b606082015260800190565b6020808252603f908201527f476f7665726e6f723a3a63616e63656c3a20796f752063616e6e6f742063616e60408201527f63656c2070726f706f73616c207769746820736f6d656f6e6520766f74656400606082015260800190565b602080825260409082018190527f476f7665726e6f723a3a657865637574653a2070726f706f73616c2063616e20908201527f6f6e6c7920626520657865637574656420696620697420697320717565756564606082015260800190565b60208082526041908201527f476f7665726e6f723a3a70726f706f73653a206e6f7420656e6f75676820626160408201527f6c616e636520746f206c6f636b2064434c4d3820776974682070726f706f73616060820152601b60fa1b608082015260a00190565b6020808252601190820152706164646974696f6e206f766572666c6f7760781b604082015260600190565b60208082526031908201527f476f7665726e6f723a3a5f5f61626469636174653a2073656e646572206d75736040820152703a1031329033b7bb1033bab0b93234b0b760791b606082015260800190565b6020808252603f908201527f476f7665726e6f723a3a5f71756575654f725265766572743a2070726f706f7360408201527f616c20616374696f6e20616c7265616479207175657565642061742065746100606082015260800190565b60208082526034908201527f476f7665726e6f723a3a5f5f61636365707441646d696e3a2073656e6465722060408201527336bab9ba1031329033b7bb1033bab0b93234b0b760611b606082015260800190565b60208082526031908201527f476f7665726e6f723a3a5f63617374566f74653a2070726f706f7365722063616040820152706e6e6f7420746f70206f666620766f746560781b606082015260800190565b60208082526047908201527f476f7665726e6f723a3a726566756e643a206e6f7420656c696769626c65206660408201527f6f7220726566756e642c20766f7465732063616e63656c20706572696f6420696060820152661cc8195b99195960ca1b608082015260a00190565b60208082526029908201527f476f7665726e6f723a3a726566756e643a206e6f7420656c696769626c6520666040820152681bdc881c99599d5b9960ba1b606082015260800190565b6020808252602c908201527f476f7665726e6f723a3a63616e63656c3a20796f752063616e6e6f742063616e60408201526b18d95b081c1c9bdc1bdcd85b60a21b606082015260800190565b60208082526030908201527f476f7665726e6f723a3a73657450726f706f73616c5468726573686f6c643a2060408201526f36bab9ba1031329033bab0b93234b0b760811b606082015260800190565b60208082526025908201527f476f7665726e6f723a3a5f63617374566f74653a20766f74696e6720697320636040820152641b1bdcd95960da1b606082015260800190565b6020808252601590820152747375627472616374696f6e20756e646572666c6f7760581b604082015260600190565b60208082526039908201527f476f7665726e6f723a3a726566756e643a2070726f706f736572206d6179206e60408201527f6f74206368616e67652068697320766f746520616d6f756e7400000000000000606082015260800190565b60208082526030908201527f476f7665726e6f723a3a726566756e643a20616c726561647920726566756e6460408201526f1959081d1a1a5cc81c1c9bdc1bdcd85b60821b606082015260800190565b6020808252603f908201527f476f7665726e6f723a3a71756575653a2070726f706f73616c2063616e206f6e60408201527f6c79206265207175657565642069662069742069732073756363656564656400606082015260800190565b6020808252602a908201527f476f7665726e6f723a3a63617374566f746542795369673a20696e76616c6964604082015269207369676e617475726560b01b606082015260800190565b60208082526041908201527f476f7665726e6f723a3a5f63617374566f74653a2063616e206f6e6c7920746f60408201527f70206f66662073616d6520766f746520776974686f757420726566756e64696e6060820152606760f81b608082015260a00190565b600060e08201905082511515825260208301511515602083015260408301516001600160601b038082166040850152806060860151166060850152505060808301511515608083015260a0830151151560a083015260c083015160c083015292915050565b8981526001600160a01b0389166020820152610120604082018190526000906147228382018b6138a4565b90508281036060840152614736818a613930565b9050828103608084015261474a81896138e7565b905082810360a084015261475e81886138e7565b90508560c08401528460e084015282810361010084015261477f8185613965565b9c9b505050505050505050505050565b60008f825260018060a01b038f1660208301528d60408301528c60608301528b60808301528a60a08301528960c08301528860e0830152876101008301528615156101208301526147e461014083018761395f565b6101c06101608301526147fb6101c0830186613965565b610180830194909452506101a001529c9b505050505050505050505050565b918252602082015260400190565b60405181810167ffffffffffffffff8111828210171561484457fe5b604052919050565b600067ffffffffffffffff82111561486057fe5b5060209081020190565b600067ffffffffffffffff82111561487e57fe5b50601f01601f191660200190565b60009081526020902090565b60005b838110156148b357818101518382015260200161489b565b83811115611df55750506000910152565b801515811461332657600080fd5b6001600160601b038116811461332657600080fdfea2646970667358221220f7b1a0a0de7b4f71b8de8f46badfb1fda20acd703e7871ca6b915f55a021f8ea64736f6c63430007060033",
  "linkReferences": {},
  "deployedLinkReferences": {}
}