{
  "_format": "hh-sol-artifact-1",
  "contractName": "Governor",
  "sourceName": "contracts/Governance/Governor.sol",
  "abi": [
    {
      "inputs": [
        {
          "internalType": "address",
          "name": "timelock_",
          "type": "address"
        },
        {
          "internalType": "address",
          "name": "dclm8_",
          "type": "address"
        },
        {
          "internalType": "address",
          "name": "guardian_",
          "type": "address"
        }
      ],
      "stateMutability": "nonpayable",
      "type": "constructor"
    },
    {
      "anonymous": false,
      "inputs": [
        {
          "indexed": false,
          "internalType": "uint256",
          "name": "id",
          "type": "uint256"
        }
      ],
      "name": "ProposalCanceled",
      "type": "event"
    },
    {
      "anonymous": false,
      "inputs": [
        {
          "indexed": false,
          "internalType": "uint256",
          "name": "id",
          "type": "uint256"
        },
        {
          "indexed": false,
          "internalType": "address",
          "name": "proposer",
          "type": "address"
        },
        {
          "indexed": false,
          "internalType": "address[]",
          "name": "targets",
          "type": "address[]"
        },
        {
          "indexed": false,
          "internalType": "uint256[]",
          "name": "values",
          "type": "uint256[]"
        },
        {
          "indexed": false,
          "internalType": "string[]",
          "name": "signatures",
          "type": "string[]"
        },
        {
          "indexed": false,
          "internalType": "bytes[]",
          "name": "calldatas",
          "type": "bytes[]"
        },
        {
          "indexed": false,
          "internalType": "uint256",
          "name": "startBlock",
          "type": "uint256"
        },
        {
          "indexed": false,
          "internalType": "uint256",
          "name": "endBlock",
          "type": "uint256"
        },
        {
          "indexed": false,
          "internalType": "string",
          "name": "description",
          "type": "string"
        }
      ],
      "name": "ProposalCreated",
      "type": "event"
    },
    {
      "anonymous": false,
      "inputs": [
        {
          "indexed": false,
          "internalType": "uint256",
          "name": "id",
          "type": "uint256"
        }
      ],
      "name": "ProposalExecuted",
      "type": "event"
    },
    {
      "anonymous": false,
      "inputs": [
        {
          "indexed": false,
          "internalType": "uint256",
          "name": "id",
          "type": "uint256"
        },
        {
          "indexed": false,
          "internalType": "uint256",
          "name": "eta",
          "type": "uint256"
        }
      ],
      "name": "ProposalQueued",
      "type": "event"
    },
    {
      "anonymous": false,
      "inputs": [
        {
          "indexed": false,
          "internalType": "address",
          "name": "voter",
          "type": "address"
        },
        {
          "indexed": false,
          "internalType": "uint256",
          "name": "proposalId",
          "type": "uint256"
        },
        {
          "indexed": false,
          "internalType": "bool",
          "name": "support",
          "type": "bool"
        },
        {
          "indexed": false,
          "internalType": "uint256",
          "name": "votes",
          "type": "uint256"
        }
      ],
      "name": "VoteCast",
      "type": "event"
    },
    {
      "inputs": [],
      "name": "BALLOT_TYPEHASH",
      "outputs": [
        {
          "internalType": "bytes32",
          "name": "",
          "type": "bytes32"
        }
      ],
      "stateMutability": "view",
      "type": "function"
    },
    {
      "inputs": [],
      "name": "DOMAIN_TYPEHASH",
      "outputs": [
        {
          "internalType": "bytes32",
          "name": "",
          "type": "bytes32"
        }
      ],
      "stateMutability": "view",
      "type": "function"
    },
    {
      "inputs": [],
      "name": "__abdicate",
      "outputs": [],
      "stateMutability": "nonpayable",
      "type": "function"
    },
    {
      "inputs": [],
      "name": "__acceptAdmin",
      "outputs": [],
      "stateMutability": "nonpayable",
      "type": "function"
    },
    {
      "inputs": [
        {
          "internalType": "address",
          "name": "newPendingAdmin",
          "type": "address"
        },
        {
          "internalType": "uint256",
          "name": "eta",
          "type": "uint256"
        }
      ],
      "name": "__executeSetTimelockPendingAdmin",
      "outputs": [],
      "stateMutability": "nonpayable",
      "type": "function"
    },
    {
      "inputs": [
        {
          "internalType": "address",
          "name": "newPendingAdmin",
          "type": "address"
        },
        {
          "internalType": "uint256",
          "name": "eta",
          "type": "uint256"
        }
      ],
      "name": "__queueSetTimelockPendingAdmin",
      "outputs": [],
      "stateMutability": "nonpayable",
      "type": "function"
    },
    {
      "inputs": [
        {
          "internalType": "uint256",
          "name": "proposalId",
          "type": "uint256"
        }
      ],
      "name": "cancel",
      "outputs": [],
      "stateMutability": "nonpayable",
      "type": "function"
    },
    {
      "inputs": [
        {
          "internalType": "uint256",
          "name": "proposalId",
          "type": "uint256"
        },
        {
          "internalType": "bool",
          "name": "support",
          "type": "bool"
        },
        {
          "internalType": "uint96",
          "name": "votes",
          "type": "uint96"
        }
      ],
      "name": "castVote",
      "outputs": [],
      "stateMutability": "nonpayable",
      "type": "function"
    },
    {
      "inputs": [
        {
          "internalType": "uint256",
          "name": "proposalId",
          "type": "uint256"
        },
        {
          "internalType": "bool",
          "name": "support",
          "type": "bool"
        },
        {
          "internalType": "uint8",
          "name": "v",
          "type": "uint8"
        },
        {
          "internalType": "bytes32",
          "name": "r",
          "type": "bytes32"
        },
        {
          "internalType": "bytes32",
          "name": "s",
          "type": "bytes32"
        },
        {
          "internalType": "uint96",
          "name": "votes",
          "type": "uint96"
        }
      ],
      "name": "castVoteBySig",
      "outputs": [],
      "stateMutability": "nonpayable",
      "type": "function"
    },
    {
      "inputs": [],
      "name": "dclm8",
      "outputs": [
        {
          "internalType": "contract Dclm8Interface",
          "name": "",
          "type": "address"
        }
      ],
      "stateMutability": "view",
      "type": "function"
    },
    {
      "inputs": [
        {
          "internalType": "uint256",
          "name": "proposalId",
          "type": "uint256"
        }
      ],
      "name": "execute",
      "outputs": [],
      "stateMutability": "payable",
      "type": "function"
    },
    {
      "inputs": [
        {
          "internalType": "uint256",
          "name": "proposalId",
          "type": "uint256"
        }
      ],
      "name": "getActions",
      "outputs": [
        {
          "internalType": "address[]",
          "name": "targets",
          "type": "address[]"
        },
        {
          "internalType": "uint256[]",
          "name": "values",
          "type": "uint256[]"
        },
        {
          "internalType": "string[]",
          "name": "signatures",
          "type": "string[]"
        },
        {
          "internalType": "bytes[]",
          "name": "calldatas",
          "type": "bytes[]"
        }
      ],
      "stateMutability": "view",
      "type": "function"
    },
    {
      "inputs": [
        {
          "internalType": "uint256",
          "name": "proposalId",
          "type": "uint256"
        }
      ],
      "name": "getDescription",
      "outputs": [
        {
          "internalType": "string",
          "name": "",
          "type": "string"
        }
      ],
      "stateMutability": "view",
      "type": "function"
    },
    {
      "inputs": [
        {
          "internalType": "uint256",
          "name": "proposalId",
          "type": "uint256"
        },
        {
          "internalType": "address",
          "name": "voter",
          "type": "address"
        }
      ],
      "name": "getReceipt",
      "outputs": [
        {
          "components": [
            {
              "internalType": "bool",
              "name": "hasVoted",
              "type": "bool"
            },
            {
              "internalType": "bool",
              "name": "support",
              "type": "bool"
            },
            {
              "internalType": "uint96",
              "name": "votes",
              "type": "uint96"
            },
            {
              "internalType": "uint96",
              "name": "rawVotes",
              "type": "uint96"
            },
            {
              "internalType": "bool",
              "name": "hasVotesRefunded",
              "type": "bool"
            },
            {
              "internalType": "bool",
              "name": "hasStakeRefunded",
              "type": "bool"
            }
          ],
          "internalType": "struct Governor.Receipt",
          "name": "",
          "type": "tuple"
        }
      ],
      "stateMutability": "view",
      "type": "function"
    },
    {
      "inputs": [],
      "name": "guardian",
      "outputs": [
        {
          "internalType": "address",
          "name": "",
          "type": "address"
        }
      ],
      "stateMutability": "view",
      "type": "function"
    },
    {
      "inputs": [
        {
          "internalType": "address",
          "name": "",
          "type": "address"
        }
      ],
      "name": "latestProposalIds",
      "outputs": [
        {
          "internalType": "uint256",
          "name": "",
          "type": "uint256"
        }
      ],
      "stateMutability": "view",
      "type": "function"
    },
    {
      "inputs": [],
      "name": "name",
      "outputs": [
        {
          "internalType": "string",
          "name": "",
          "type": "string"
        }
      ],
      "stateMutability": "view",
      "type": "function"
    },
    {
      "inputs": [],
      "name": "proposalCount",
      "outputs": [
        {
          "internalType": "uint256",
          "name": "",
          "type": "uint256"
        }
      ],
      "stateMutability": "view",
      "type": "function"
    },
    {
      "inputs": [],
      "name": "proposalMaxOperations",
      "outputs": [
        {
          "internalType": "uint256",
          "name": "",
          "type": "uint256"
        }
      ],
      "stateMutability": "pure",
      "type": "function"
    },
    {
      "inputs": [],
      "name": "proposalThreshold",
      "outputs": [
        {
          "internalType": "uint256",
          "name": "",
          "type": "uint256"
        }
      ],
      "stateMutability": "view",
      "type": "function"
    },
    {
      "inputs": [
        {
          "internalType": "uint256",
          "name": "",
          "type": "uint256"
        }
      ],
      "name": "proposals",
      "outputs": [
        {
          "internalType": "uint256",
          "name": "id",
          "type": "uint256"
        },
        {
          "internalType": "address",
          "name": "proposer",
          "type": "address"
        },
        {
          "internalType": "uint256",
          "name": "eta",
          "type": "uint256"
        },
        {
          "internalType": "uint256",
          "name": "startBlock",
          "type": "uint256"
        },
        {
          "internalType": "uint256",
          "name": "endBlock",
          "type": "uint256"
        },
        {
          "internalType": "uint256",
          "name": "forVotes",
          "type": "uint256"
        },
        {
          "internalType": "uint256",
          "name": "againstVotes",
          "type": "uint256"
        },
        {
          "internalType": "uint256",
          "name": "rawForVotes",
          "type": "uint256"
        },
        {
          "internalType": "uint256",
          "name": "rawAgainstVotes",
          "type": "uint256"
        },
        {
          "internalType": "bool",
          "name": "canceled",
          "type": "bool"
        },
        {
          "internalType": "bool",
          "name": "executed",
          "type": "bool"
        },
        {
          "internalType": "string",
          "name": "description",
          "type": "string"
        },
        {
          "internalType": "uint256",
          "name": "parentProposalId",
          "type": "uint256"
        }
      ],
      "stateMutability": "view",
      "type": "function"
    },
    {
      "inputs": [
        {
          "internalType": "address[]",
          "name": "targets",
          "type": "address[]"
        },
        {
          "internalType": "uint256[]",
          "name": "values",
          "type": "uint256[]"
        },
        {
          "internalType": "string[]",
          "name": "signatures",
          "type": "string[]"
        },
        {
          "internalType": "bytes[]",
          "name": "calldatas",
          "type": "bytes[]"
        },
        {
          "internalType": "string",
          "name": "description",
          "type": "string"
        }
      ],
      "name": "propose",
      "outputs": [
        {
          "internalType": "uint256",
          "name": "",
          "type": "uint256"
        }
      ],
      "stateMutability": "nonpayable",
      "type": "function"
    },
    {
      "inputs": [
        {
          "internalType": "address[]",
          "name": "targets",
          "type": "address[]"
        },
        {
          "internalType": "uint256[]",
          "name": "values",
          "type": "uint256[]"
        },
        {
          "internalType": "string[]",
          "name": "signatures",
          "type": "string[]"
        },
        {
          "internalType": "bytes[]",
          "name": "calldatas",
          "type": "bytes[]"
        },
        {
          "internalType": "string[]",
          "name": "descriptions",
          "type": "string[]"
        }
      ],
      "name": "proposeMultiAttribute",
      "outputs": [
        {
          "internalType": "uint256",
          "name": "",
          "type": "uint256"
        }
      ],
      "stateMutability": "nonpayable",
      "type": "function"
    },
    {
      "inputs": [
        {
          "internalType": "uint256",
          "name": "proposalId",
          "type": "uint256"
        }
      ],
      "name": "queue",
      "outputs": [],
      "stateMutability": "nonpayable",
      "type": "function"
    },
    {
      "inputs": [],
      "name": "quorumVotes",
      "outputs": [
        {
          "internalType": "uint256",
          "name": "",
          "type": "uint256"
        }
      ],
      "stateMutability": "view",
      "type": "function"
    },
    {
      "inputs": [
        {
          "internalType": "uint256",
          "name": "proposalId",
          "type": "uint256"
        }
      ],
      "name": "refund",
      "outputs": [],
      "stateMutability": "nonpayable",
      "type": "function"
    },
    {
      "inputs": [
        {
          "internalType": "uint256",
          "name": "_proposalThreshold",
          "type": "uint256"
        }
      ],
      "name": "setProposalThreshold",
      "outputs": [],
      "stateMutability": "nonpayable",
      "type": "function"
    },
    {
      "inputs": [
        {
          "internalType": "uint256",
          "name": "_quorum",
          "type": "uint256"
        }
      ],
      "name": "setQuorum",
      "outputs": [],
      "stateMutability": "nonpayable",
      "type": "function"
    },
    {
      "inputs": [
        {
          "internalType": "uint256",
          "name": "proposalId",
          "type": "uint256"
        }
      ],
      "name": "state",
      "outputs": [
        {
          "internalType": "enum Governor.ProposalState",
          "name": "",
          "type": "uint8"
        }
      ],
      "stateMutability": "view",
      "type": "function"
    },
    {
      "inputs": [],
      "name": "timelock",
      "outputs": [
        {
          "internalType": "contract TimelockInterface",
          "name": "",
          "type": "address"
        }
      ],
      "stateMutability": "view",
      "type": "function"
    },
    {
      "inputs": [],
      "name": "votingDelay",
      "outputs": [
        {
          "internalType": "uint256",
          "name": "",
          "type": "uint256"
        }
      ],
      "stateMutability": "pure",
      "type": "function"
    },
    {
      "inputs": [],
      "name": "votingPeriod",
      "outputs": [
        {
          "internalType": "uint256",
          "name": "",
          "type": "uint256"
        }
      ],
      "stateMutability": "pure",
      "type": "function"
    }
  ],
  "bytecode": "0x608060405264932622b00060005569152d02c7e14af68000006001553480156200002857600080fd5b5060405162003eef38038062003eef8339810160408190526200004b916200008e565b600280546001600160a01b039485166001600160a01b031991821617909155600380549385169382169390931790925560048054919093169116179055620000fa565b600080600060608486031215620000a3578283fd5b8351620000b081620000e1565b6020850151909350620000c381620000e1565b6040850151909250620000d681620000e1565b809150509250925092565b6001600160a01b0381168114620000f757600080fd5b50565b613de5806200010a6000396000f3fe6080604052600436106101e35760003560e01c8063760fbc1311610102578063da35c66411610095578063deaaa7cc11610064578063deaaa7cc14610541578063e23a9a5214610556578063ece40cc114610583578063fe0d94c1146105a3576101e3565b8063da35c664146104cc578063da95691a146104e1578063dbfa977f14610501578063ddf0b00914610521576101e3565b8063b58131b0116100d1578063b58131b01461046d578063b9a6196114610482578063c1ba4e5914610497578063d33219b4146104b7576101e3565b8063760fbc131461040e5780637bdbe4d014610423578063915006711461043857806394a08d5814610458576101e3565b8063328dd9821161017a578063452a932011610149578063452a93201461038c5780634925ec55146103ae5780635d254608146103ce57806372c3e0c3146103ee576101e3565b8063328dd982146102fa5780633932abb11461032a5780633e4f49e61461033f57806340e58ee51461036c576101e3565b806320606b70116101b657806320606b701461028e57806321f43e42146102a357806324bc1a64146102c5578063278ecde1146102da576101e3565b8063013cf08b146101e857806302a251a31461022a57806306fdde031461024c57806317977c611461026e575b600080fd5b3480156101f457600080fd5b50610208610203366004612e46565b6105b6565b6040516102219d9c9b9a99989796959493929190613c59565b60405180910390f35b34801561023657600080fd5b5061023f6106e1565b60405161022191906132aa565b34801561025857600080fd5b506102616106e7565b6040516102219190613321565b34801561027a57600080fd5b5061023f610289366004612bd8565b610714565b34801561029a57600080fd5b5061023f610726565b3480156102af57600080fd5b506102c36102be366004612bf3565b61074a565b005b3480156102d157600080fd5b5061023f610832565b3480156102e657600080fd5b506102c36102f5366004612e46565b610838565b34801561030657600080fd5b5061031a610315366004612e46565b610cf3565b6040516102219493929190613252565b34801561033657600080fd5b5061023f610f82565b34801561034b57600080fd5b5061035f61035a366004612e46565b610f87565b604051610221919061330d565b34801561037857600080fd5b506102c3610387366004612e46565b611125565b34801561039857600080fd5b506103a161138e565b60405161022191906130e1565b3480156103ba57600080fd5b506102616103c9366004612e46565b61139d565b3480156103da57600080fd5b506102c36103e9366004612e8a565b611441565b3480156103fa57600080fd5b5061023f610409366004612c1d565b6115f1565b34801561041a57600080fd5b506102c361161d565b34801561042f57600080fd5b5061023f611659565b34801561044457600080fd5b506102c3610453366004612bf3565b61165e565b34801561046457600080fd5b506103a1611734565b34801561047957600080fd5b5061023f611743565b34801561048e57600080fd5b506102c3611749565b3480156104a357600080fd5b506102c36104b2366004612e46565b6117dd565b3480156104c357600080fd5b506103a161180c565b3480156104d857600080fd5b5061023f61181b565b3480156104ed57600080fd5b5061023f6104fc366004612ce9565b611821565b34801561050d57600080fd5b506102c361051c366004612ef5565b611bdf565b34801561052d57600080fd5b506102c361053c366004612e46565b611beb565b34801561054d57600080fd5b5061023f611eec565b34801561056257600080fd5b50610576610571366004612e5e565b611f10565b6040516102219190613b66565b34801561058f57600080fd5b506102c361059e366004612e46565b611faf565b6102c36105b1366004612e46565b611fde565b60066020528060005260406000206000915090508060000154908060010160009054906101000a90046001600160a01b03169080600201549080600701549080600801549080600901549080600a01549080600b01549080600c01549080600d0160009054906101000a900460ff169080600d0160019054906101000a900460ff169080600e018054600181600116156101000203166002900480601f0160208091040260200160405190810160405280929190818152602001828054600181600116156101000203166002900480156106d15780601f106106a6576101008083540402835291602001916106d1565b820191906000526020600020905b8154815290600101906020018083116106b457829003601f168201915b50505050509080600f015490508d565b61168090565b6040518060400160405280601181526020017021a6269c102220a79023b7bb32b93737b960791b81525081565b60076020526000908152604090205481565b7f8cad95687ba82c2ce50e74f7b754645e5117c3a5bec8151c0726d5857980a86681565b6004546001600160a01b0316331461077d5760405162461bcd60e51b8152600401610774906135bc565b60405180910390fd5b6002546040516001600160a01b0390911690630825f38f9082906000906107a89087906020016130e1565b604051602081830303815290604052856040518563ffffffff1660e01b81526004016107d79493929190613130565b600060405180830381600087803b1580156107f157600080fd5b505af1158015610805573d6000803e3d6000fd5b505050506040513d6000823e601f3d908101601f1916820160405261082d9190810190612ddc565b505050565b60005490565b6000818152600660209081526040808320338452601181019092529091208054600160d01b900460ff16158061087757508054600160d81b900460ff16155b6108935760405162461bcd60e51b815260040161077490613a08565b80546001830154600091600160d81b900460ff169082906001600160a01b031633148015610969575060056108c787610f87565b60088111156108d257fe5b14806108f1575060066108e487610f87565b60088111156108ef57fe5b145b8061090f5750600861090287610f87565b600881111561090d57fe5b145b8061092d5750600461092087610f87565b600881111561092b57fe5b145b8061094b5750600361093e87610f87565b600881111561094957fe5b145b806109695750600261095c87610f87565b600881111561096757fe5b145b90508015610aa657600561097c87610f87565b600881111561098757fe5b14806109a65750600661099987610f87565b60088111156109a457fe5b145b806109c4575060086109b787610f87565b60088111156109c257fe5b145b156109f9578354600290600160701b90046001600160601b03166109e6611743565b01600302816109f157fe5b049250610a9d565b6000610a27610a20610a09611743565b8754600160701b90046001600160601b03166121a3565b60046121cf565b600354604051633969f74f60e11b81529192506001600160a01b0316906372d3ee9e90610a5a903090859060040161310e565b600060405180830381600087803b158015610a7457600080fd5b505af1158015610a88573d6000803e3d6000fd5b50505050806003026001600160601b03169350505b60019150610b27565b6001610ab187610f87565b6008811115610abc57fe5b1415610b12578354600090610ae290600160701b90046001600160601b031660146121cf565b8554909150610b0190600160701b90046001600160601b031682612204565b6001600160601b0316935050610b27565b8354600160701b90046001600160601b031692505b60008311610b475760405162461bcd60e51b81526004016107749061349e565b60006001610b5488610f87565b6008811115610b5f57fe5b14905060006003610b6f89610f87565b6008811115610b7a57fe5b1490508180610b865750805b80610b8e5750825b610baa5760405162461bcd60e51b8152600401610774906138b1565b60035460405163a9059cbb60e01b81526001600160a01b039091169063a9059cbb90610bdc90339089906004016130f5565b602060405180830381600087803b158015610bf657600080fd5b505af1158015610c0a573d6000803e3d6000fd5b505050506040513d601f19601f82011682018060405250810190610c2e9190612da8565b508115610cbc578554610100900460ff1615610c825760098701548654610c6491906201000090046001600160601b0316612204565b6009880155600b870154610c789086612204565b600b880155610cbc565b600a8701548654610ca291906201000090046001600160601b0316612204565b600a880155600c870154610cb69086612204565b600c8801555b50508354911515600160d81b0260ff60d81b1961ff01600160d81b0319909316600160d01b17929092169190911790925550505050565b60608060608060006006600087815260200190815260200160002090508060030181600401826005018360060183805480602002602001604051908101604052809291908181526020018280548015610d7557602002820191906000526020600020905b81546001600160a01b03168152600190910190602001808311610d57575b5050505050935082805480602002602001604051908101604052809291908181526020018280548015610dc757602002820191906000526020600020905b815481526020019060010190808311610db3575b5050505050925081805480602002602001604051908101604052809291908181526020016000905b82821015610e9a5760008481526020908190208301805460408051601f6002600019610100600187161502019094169390930492830185900485028101850190915281815292830182828015610e865780601f10610e5b57610100808354040283529160200191610e86565b820191906000526020600020905b815481529060010190602001808311610e6957829003601f168201915b505050505081526020019060010190610def565b50505050915080805480602002602001604051908101604052809291908181526020016000905b82821015610f6c5760008481526020908190208301805460408051601f6002600019610100600187161502019094169390930492830185900485028101850190915281815292830182828015610f585780601f10610f2d57610100808354040283529160200191610f58565b820191906000526020600020905b815481529060010190602001808311610f3b57829003601f168201915b505050505081526020019060010190610ec1565b5050505090509450945094509450509193509193565b600190565b60008160055410158015610f9b5750600082115b610fb75760405162461bcd60e51b815260040161077490613629565b6000828152600660205260409020600d81015460ff1615610fdc576002915050611120565b80600701544311610ff1576000915050611120565b80600801544311611006576001915050611120565b61100e610832565b81600a01548260090154011015611029576003915050611120565b80600a0154816009015411611042576004915050611120565b6002810154611055576005915050611120565b600d810154610100900460ff1615611071576008915050611120565b6111048160020154600260009054906101000a90046001600160a01b03166001600160a01b031663c1a287e26040518163ffffffff1660e01b815260040160206040518083038186803b1580156110c757600080fd5b505afa1580156110db573d6000803e3d6000fd5b505050506040513d601f19601f820116820180604052508101906110ff9190612dc4565b6121a3565b4210611114576007915050611120565b6006915050611120565b505b919050565b600061113082610f87565b9050600881600881111561114057fe5b141561115e5760405162461bcd60e51b815260040161077490613524565b60008281526006602052604090206004546001600160a01b03163314806112295750611188611743565b6003546001838101546001600160a01b039283169263782d6fe1929116906111b1904390612204565b6040518363ffffffff1660e01b81526004016111ce9291906130f5565b60206040518083038186803b1580156111e657600080fd5b505afa1580156111fa573d6000803e3d6000fd5b505050506040513d601f19601f8201168201806040525081019061121e9190612f36565b6001600160601b0316105b6112455760405162461bcd60e51b81526004016107749061394a565b600d8101805460ff1916600117905560005b6003820154811015611351576002546003830180546001600160a01b039092169163591fcdfe91908490811061128957fe5b6000918252602090912001546004850180546001600160a01b0390921691859081106112b157fe5b90600052602060002001548560050185815481106112cb57fe5b906000526020600020018660060186815481106112e457fe5b9060005260206000200187600201546040518663ffffffff1660e01b8152600401611313959493929190613219565b600060405180830381600087803b15801561132d57600080fd5b505af1158015611341573d6000803e3d6000fd5b5050600190920191506112579050565b507f789cf55be980739dad1d0699b93b58e806b51c9d96619bfa8fe0a28abaa7b30c8360405161138191906132aa565b60405180910390a1505050565b6004546001600160a01b031681565b600081815260066020908152604091829020600e0180548351601f60026000196101006001861615020190931692909204918201849004840281018401909452808452606093928301828280156114355780601f1061140a57610100808354040283529160200191611435565b820191906000526020600020905b81548152906001019060200180831161141857829003601f168201915b50505050509050919050565b60408051808201909152601181527021a6269c102220a79023b7bb32b93737b960791b60209091015260007f8cad95687ba82c2ce50e74f7b754645e5117c3a5bec8151c0726d5857980a8667f5c6c4638be9dacb7243638d3b44c65664c952613289876d97c23e080e4e9ff336114b661222c565b306040516020016114ca94939291906132b3565b60405160208183030381529060405280519060200120905060007f8e25870c07e0b0b3884c78da52790939a455c275406c44ae8b434b692fb916ee8888604051602001611519939291906132d7565b604051602081830303815290604052805190602001209050600082826040516020016115469291906130c6565b60405160208183030381529060405280519060200120905060006001828989896040516000815260200160405260405161158394939291906132ef565b6020604051602081039080840390855afa1580156115a5573d6000803e3d6000fd5b5050604051601f1901519150506001600160a01b0381166115d85760405162461bcd60e51b815260040161077490613ab5565b6115e4818b8b88612230565b505050505b505050505050565b600081518651146116145760405162461bcd60e51b8152600401610774906133d6565b95945050505050565b6004546001600160a01b031633146116475760405162461bcd60e51b8152600401610774906137af565b600480546001600160a01b0319169055565b600a90565b6004546001600160a01b031633146116885760405162461bcd60e51b815260040161077490613433565b6002546040516001600160a01b0390911690633a66f9019082906000906116b39087906020016130e1565b604051602081830303815290604052856040518563ffffffff1660e01b81526004016116e29493929190613130565b602060405180830381600087803b1580156116fc57600080fd5b505af1158015611710573d6000803e3d6000fd5b505050506040513d601f19601f8201168201806040525081019061082d9190612dc4565b6003546001600160a01b031681565b60015490565b6004546001600160a01b031633146117735760405162461bcd60e51b81526004016107749061385d565b600260009054906101000a90046001600160a01b03166001600160a01b0316630e18b6816040518163ffffffff1660e01b8152600401600060405180830381600087803b1580156117c357600080fd5b505af11580156117d7573d6000803e3d6000fd5b50505050565b6004546001600160a01b031633146118075760405162461bcd60e51b815260040161077490613391565b600055565b6002546001600160a01b031681565b60055481565b600061182b611743565b6003546001600160a01b031663782d6fe133611848436001612204565b6040518363ffffffff1660e01b81526004016118659291906130f5565b60206040518083038186803b15801561187d57600080fd5b505afa158015611891573d6000803e3d6000fd5b505050506040513d601f19601f820116820180604052508101906118b59190612f36565b6001600160601b031610156118dc5760405162461bcd60e51b815260040161077490613334565b845186511480156118ee575083518651145b80156118fb575082518651145b6119175760405162461bcd60e51b8152600401610774906133d6565b85516119355760405162461bcd60e51b815260040161077490613575565b61193d611659565b8651111561195d5760405162461bcd60e51b8152600401610774906134e1565b611965611743565b6003546040516370a0823160e01b81526001600160a01b03909116906370a08231906119959033906004016130e1565b60206040518083038186803b1580156119ad57600080fd5b505afa1580156119c1573d6000803e3d6000fd5b505050506040513d601f19601f820116820180604052508101906119e59190612dc4565b1015611a035760405162461bcd60e51b81526004016107749061371d565b6003546001600160a01b0316633b2d52ac33611a1d611743565b6040518363ffffffff1660e01b8152600401611a3a92919061310e565b600060405180830381600087803b158015611a5457600080fd5b505af1158015611a68573d6000803e3d6000fd5b505050506000611a7a436110ff610f82565b90506000611a8a826110ff6106e1565b600580546001908101918290556000828152600660209081526040822093845591830180546001600160a01b0319163317905560028301558a519293509091611adb916003840191908c019061273a565b508751611af190600483019060208b019061279f565b508651611b0790600583019060208a01906127e6565b508551611b1d906006830190602089019061283f565b506007810183905560088101829055600060098201819055600a8201819055600b8201819055600c820155600d8101805461ffff191690558451611b6a90600e8301906020880190612898565b50805460018201546001600160a01b031660009081526007602052604090819020829055517f7d84a6263ae0d98d3329bd7b46bb4e8d6f98cd35a7adb45c274c8b7fd5ebd5e091611bca9133908d908d908d908d908b908b908f90613bc1565b60405180910390a15498975050505050505050565b61082d33848484612230565b6005611bf682610f87565b6008811115611c0157fe5b14611c1e5760405162461bcd60e51b815260040161077490613a58565b6000818152600660205260409020600354600b820154600c8301546001600160a01b03909216916372d3ee9e913091611c6791611c5a916121a3565b611c62611743565b612204565b6040518363ffffffff1660e01b8152600401611c8492919061310e565b600060405180830381600087803b158015611c9e57600080fd5b505af1158015611cb2573d6000803e3d6000fd5b505050506000611d0a42600260009054906101000a90046001600160a01b03166001600160a01b0316636a42b8f86040518163ffffffff1660e01b815260040160206040518083038186803b1580156110c757600080fd5b905060005b6003830154811015611eb257611eaa836003018281548110611d2d57fe5b6000918252602090912001546004850180546001600160a01b039092169184908110611d5557fe5b9060005260206000200154856005018481548110611d6f57fe5b600091825260209182902001805460408051601f6002600019610100600187161502019094169390930492830185900485028101850190915281815292830182828015611dfd5780601f10611dd257610100808354040283529160200191611dfd565b820191906000526020600020905b815481529060010190602001808311611de057829003601f168201915b5050505050866006018581548110611e1157fe5b600091825260209182902001805460408051601f6002600019610100600187161502019094169390930492830185900485028101850190915281815292830182828015611e9f5780601f10611e7457610100808354040283529160200191611e9f565b820191906000526020600020905b815481529060010190602001808311611e8257829003601f168201915b50505050508661257b565b600101611d0f565b50600282018190556040517f9a2e42fd6722813d69113e7d0079d3d940171428df7373df9c7f7617cfda2892906113819085908490613cdb565b7f8e25870c07e0b0b3884c78da52790939a455c275406c44ae8b434b692fb916ee81565b611f18612905565b5060008281526006602090815260408083206001600160a01b0385168452601101825291829020825160c081018452905460ff80821615158352610100820481161515938301939093526001600160601b03620100008204811694830194909452600160701b81049093166060820152600160d01b8304821615156080820152600160d81b90920416151560a08201525b92915050565b6004546001600160a01b03163314611fd95760405162461bcd60e51b8152600401610774906138fa565b600155565b6006611fe982610f87565b6008811115611ff457fe5b146120115760405162461bcd60e51b8152600401610774906136bf565b6000818152600660205260408120600d8101805461ff001916610100179055905b6003820154811015612167576002546004830180546001600160a01b0390921691630825f38f91908490811061206457fe5b906000526020600020015484600301848154811061207e57fe5b6000918252602090912001546004860180546001600160a01b0390921691869081106120a657fe5b90600052602060002001548660050186815481106120c057fe5b906000526020600020018760060187815481106120d957fe5b9060005260206000200188600201546040518763ffffffff1660e01b8152600401612108959493929190613219565b6000604051808303818588803b15801561212157600080fd5b505af1158015612135573d6000803e3d6000fd5b50505050506040513d6000823e601f3d908101601f1916820160405261215e9190810190612ddc565b50600101612032565b507f712ae1383f79ac853f8d882153778e0260ef8f03b504e2866e0593e04d2b291f8260405161219791906132aa565b60405180910390a15050565b6000828201838110156121c85760405162461bcd60e51b815260040161077490613784565b9392505050565b60006121c883836040518060400160405280601081526020016f6469766973696f6e206279207a65726f60801b8152506126d2565b6000828211156122265760405162461bcd60e51b8152600401610774906139d9565b50900390565b4690565b600161223b84610f87565b600881111561224657fe5b146122635760405162461bcd60e51b815260040161077490613994565b60008381526006602090815260408083206001600160a01b038816845260118101909252909120805460ff161515600114156122c657805460ff610100909104161515841515146122c65760405162461bcd60e51b815260040161077490613aff565b8054600354600784015460405163782d6fe160e01b81526000936201000090046001600160601b0316926001600160a01b03169163782d6fe19161230e918c916004016130f5565b60206040518083038186803b15801561232657600080fd5b505afa15801561233a573d6000803e3d6000fd5b505050506040513d601f19601f8201168201806040525081019061235e9190612f36565b039050806001600160601b0316846001600160601b031611156123935760405162461bcd60e51b81526004016107749061366d565b60006123a7856001600160601b0316612709565b905085156123ed576123c68460090154826001600160601b03166121a3565b6009850155600b8401546123e3906001600160601b0387166121a3565b600b850155612427565b61240484600a0154826001600160601b03166121a3565b600a850155600c840154612421906001600160601b0387166121a3565b600c8501555b600354604051630ecb54ab60e21b81526001600160a01b0390911690633b2d52ac90612459908b90899060040161310e565b600060405180830381600087803b15801561247357600080fd5b505af1158015612487573d6000803e3d6000fd5b50508454600160ff199091161761ff00191661010089151502178086556124c392506201000090046001600160601b03908116915083166121a3565b83546dffffffffffffffffffffffff00001916620100006001600160601b03928316021780855561250091600160701b90910481169087166121a3565b835461ffff60d01b196001600160601b0392909216600160701b026bffffffffffffffffffffffff60701b19909116171683556040517f877856338e13f63d0c36822ff0ef736b80934cd90574a3a5bc9262c39d217c4690612569908a908a908a90869061319c565b60405180910390a15050505050505050565b6002546040516001600160a01b039091169063f2b06537906125a990889088908890889088906020016131cd565b604051602081830303815290604052805190602001206040518263ffffffff1660e01b81526004016125db91906132aa565b60206040518083038186803b1580156125f357600080fd5b505afa158015612607573d6000803e3d6000fd5b505050506040513d601f19601f8201168201806040525081019061262b9190612da8565b156126485760405162461bcd60e51b815260040161077490613800565b600254604051633a66f90160e01b81526001600160a01b0390911690633a66f9019061268090889088908890889088906004016131cd565b602060405180830381600087803b15801561269a57600080fd5b505af11580156126ae573d6000803e3d6000fd5b505050506040513d601f19601f820116820180604052508101906115e99190612dc4565b600081836126f35760405162461bcd60e51b81526004016107749190613321565b5060008385816126ff57fe5b0495945050505050565b80600260018201045b8181101561111e5780915060028182858161272957fe5b04018161273257fe5b049050612712565b82805482825590600052602060002090810192821561278f579160200282015b8281111561278f57825182546001600160a01b0319166001600160a01b0390911617825560209092019160019091019061275a565b5061279b92915061293a565b5090565b8280548282559060005260206000209081019282156127da579160200282015b828111156127da5782518255916020019190600101906127bf565b5061279b929150612959565b828054828255906000526020600020908101928215612833579160200282015b828111156128335782518051612823918491602090910190612898565b5091602001919060010190612806565b5061279b92915061296e565b82805482825590600052602060002090810192821561288c579160200282015b8281111561288c578251805161287c918491602090910190612898565b509160200191906001019061285f565b5061279b92915061298b565b828054600181600116156101000203166002900490600052602060002090601f016020900481019282601f106128d957805160ff19168380011785556127da565b828001600101855582156127da57918201828111156127da5782518255916020019190600101906127bf565b6040805160c081018252600080825260208201819052918101829052606081018290526080810182905260a081019190915290565b5b8082111561279b5780546001600160a01b031916815560010161293b565b5b8082111561279b576000815560010161295a565b8082111561279b57600061298282826129a8565b5060010161296e565b8082111561279b57600061299f82826129a8565b5060010161298b565b50805460018160011615610100020316600290046000825580601f106129ce57506129ec565b601f0160209004906000526020600020908101906129ec9190612959565b50565b80356001600160a01b0381168114611fa957600080fd5b600082601f830112612a16578081fd5b8135612a29612a2482613d10565b613ce9565b818152915060208083019084810181840286018201871015612a4a57600080fd5b60005b84811015612a7157612a5f88836129ef565b84529282019290820190600101612a4d565b505050505092915050565b600082601f830112612a8c578081fd5b8135612a9a612a2482613d10565b818152915060208083019084810160005b84811015612a7157612ac2888484358a0101612b8a565b84529282019290820190600101612aab565b600082601f830112612ae4578081fd5b8135612af2612a2482613d10565b818152915060208083019084810160005b84811015612a7157612b1a888484358a0101612b8a565b84529282019290820190600101612b03565b600082601f830112612b3c578081fd5b8135612b4a612a2482613d10565b818152915060208083019084810181840286018201871015612b6b57600080fd5b60005b84811015612a7157813584529282019290820190600101612b6e565b600082601f830112612b9a578081fd5b8135612ba8612a2482613d30565b9150808252836020828501011115612bbf57600080fd5b8060208401602084013760009082016020015292915050565b600060208284031215612be9578081fd5b6121c883836129ef565b60008060408385031215612c05578081fd5b612c0f84846129ef565b946020939093013593505050565b600080600080600060a08688031215612c34578081fd5b853567ffffffffffffffff80821115612c4b578283fd5b612c5789838a01612a06565b96506020880135915080821115612c6c578283fd5b612c7889838a01612b2c565b95506040880135915080821115612c8d578283fd5b612c9989838a01612ad4565b94506060880135915080821115612cae578283fd5b612cba89838a01612a7c565b93506080880135915080821115612ccf578283fd5b50612cdc88828901612ad4565b9150509295509295909350565b600080600080600060a08688031215612d00578081fd5b853567ffffffffffffffff80821115612d17578283fd5b612d2389838a01612a06565b96506020880135915080821115612d38578283fd5b612d4489838a01612b2c565b95506040880135915080821115612d59578283fd5b612d6589838a01612ad4565b94506060880135915080821115612d7a578283fd5b612d8689838a01612a7c565b93506080880135915080821115612d9b578283fd5b50612cdc88828901612b8a565b600060208284031215612db9578081fd5b81516121c881613d8c565b600060208284031215612dd5578081fd5b5051919050565b600060208284031215612ded578081fd5b815167ffffffffffffffff811115612e03578182fd5b8201601f81018413612e13578182fd5b8051612e21612a2482613d30565b818152856020838501011115612e35578384fd5b611614826020830160208601613d60565b600060208284031215612e57578081fd5b5035919050565b60008060408385031215612e70578182fd5b82359150612e8184602085016129ef565b90509250929050565b60008060008060008060c08789031215612ea2578384fd5b863595506020870135612eb481613d8c565b9450604087013560ff81168114612ec9578485fd5b9350606087013592506080870135915060a0870135612ee781613d9a565b809150509295509295509295565b600080600060608486031215612f09578081fd5b833592506020840135612f1b81613d8c565b91506040840135612f2b81613d9a565b809150509250925092565b600060208284031215612f47578081fd5b81516121c881613d9a565b6000815180845260208085019450808401835b83811015612f8a5781516001600160a01b031687529582019590820190600101612f65565b509495945050505050565b6000815180845260208085018081965082840281019150828601855b85811015612fdb578284038952612fc9848351613017565b98850198935090840190600101612fb1565b5091979650505050505050565b6000815180845260208085019450808401835b83811015612f8a57815187529582019590820190600101612ffb565b6000815180845261302f816020860160208601613d60565b601f01601f19169290920160200192915050565b60008154600180821660008114613061576001811461307f576130bd565b60028304607f16865260ff19831660208701526040860193506130bd565b6002830480875261308f86613d54565b60005b828110156130b35781546020828b0101528482019150602081019050613092565b8801602001955050505b50505092915050565b61190160f01b81526002810192909252602282015260420190565b6001600160a01b0391909116815260200190565b6001600160a01b03929092168252602082015260400190565b6001600160a01b039290921682526001600160601b0316602082015260400190565b600060018060a01b038616825284602083015260a06040830152601860a08301527f73657450656e64696e6741646d696e286164647265737329000000000000000060c083015260e0606083015261318b60e0830185613017565b905082608083015295945050505050565b6001600160a01b039490941684526020840192909252151560408301526001600160601b0316606082015260800190565b600060018060a01b038716825285602083015260a060408301526131f460a0830186613017565b82810360608401526132068186613017565b9150508260808301529695505050505050565b600060018060a01b038716825285602083015260a0604083015261324060a0830186613043565b82810360608401526132068186613043565b6000608082526132656080830187612f52565b82810360208401526132778187612fe8565b9050828103604084015261328b8186612f95565b9050828103606084015261329f8185612f95565b979650505050505050565b90815260200190565b938452602084019290925260408301526001600160a01b0316606082015260800190565b92835260208301919091521515604082015260600190565b93845260ff9290921660208401526040830152606082015260800190565b602081016009831061331b57fe5b91905290565b6000602082526121c86020830184613017565b6020808252603a908201527f476f7665726e6f723a3a70726f706f73653a2070726f706f73657220766f746560408201527f732062656c6f772070726f706f73616c207468726573686f6c64000000000000606082015260800190565b60208082526025908201527f476f7665726e6f723a3a73657451756f72756d3a206d75737420626520677561604082015264393234b0b760d91b606082015260800190565b6020808252603f908201527f476f7665726e6f723a3a70726f706f73653a2070726f706f73616c2066756e6360408201527f74696f6e20696e666f726d6174696f6e206172697479206d69736d6174636800606082015260800190565b60208082526045908201527f476f7665726e6f723a3a5f5f717565756553657454696d656c6f636b50656e6460408201527f696e6741646d696e3a2073656e646572206d75737420626520676f7620677561606082015264393234b0b760d91b608082015260a00190565b60208082526023908201527f476f7665726e6f723a3a726566756e643a206e6f7468696e6720746f207265666040820152621d5b9960ea1b606082015260800190565b60208082526023908201527f476f7665726e6f723a3a70726f706f73653a20746f6f206d616e7920616374696040820152626f6e7360e81b606082015260800190565b60208082526031908201527f476f7665726e6f723a3a63616e63656c3a2063616e6e6f742063616e63656c20604082015270195e1958dd5d1959081c1c9bdc1bdcd85b607a1b606082015260800190565b60208082526027908201527f476f7665726e6f723a3a70726f706f73653a206d7573742070726f7669646520604082015266616374696f6e7360c81b606082015260800190565b60208082526047908201527f476f7665726e6f723a3a5f5f6578656375746553657454696d656c6f636b506560408201527f6e64696e6741646d696e3a2073656e646572206d75737420626520676f7620676060820152663ab0b93234b0b760c91b608082015260a00190565b60208082526024908201527f476f7665726e6f723a3a73746174653a20696e76616c69642070726f706f73616040820152631b081a5960e21b606082015260800190565b60208082526032908201527f476f7665726e6f723a3a5f63617374566f74653a20766f746573206578636565604082015271191cc8195b1a59da589b1948185b5bdd5b9d60721b606082015260800190565b602080825260409082018190527f476f7665726e6f723a3a657865637574653a2070726f706f73616c2063616e20908201527f6f6e6c7920626520657865637574656420696620697420697320717565756564606082015260800190565b60208082526041908201527f476f7665726e6f723a3a70726f706f73653a206e6f7420656e6f75676820626160408201527f6c616e636520746f206c6f636b2064434c4d3820776974682070726f706f73616060820152601b60fa1b608082015260a00190565b6020808252601190820152706164646974696f6e206f766572666c6f7760781b604082015260600190565b60208082526031908201527f476f7665726e6f723a3a5f5f61626469636174653a2073656e646572206d75736040820152703a1031329033b7bb1033bab0b93234b0b760791b606082015260800190565b6020808252603f908201527f476f7665726e6f723a3a5f71756575654f725265766572743a2070726f706f7360408201527f616c20616374696f6e20616c7265616479207175657565642061742065746100606082015260800190565b60208082526034908201527f476f7665726e6f723a3a5f5f61636365707441646d696e3a2073656e6465722060408201527336bab9ba1031329033b7bb1033bab0b93234b0b760611b606082015260800190565b60208082526029908201527f476f7665726e6f723a3a726566756e643a206e6f7420656c696769626c6520666040820152681bdc881c99599d5b9960ba1b606082015260800190565b60208082526030908201527f476f7665726e6f723a3a73657450726f706f73616c5468726573686f6c643a2060408201526f36bab9ba1031329033bab0b93234b0b760811b606082015260800190565b6020808252602a908201527f476f7665726e6f723a3a63616e63656c3a2070726f706f7365722061626f7665604082015269081d1a1c995cda1bdb1960b21b606082015260800190565b60208082526025908201527f476f7665726e6f723a3a5f63617374566f74653a20766f74696e6720697320636040820152641b1bdcd95960da1b606082015260800190565b6020808252601590820152747375627472616374696f6e20756e646572666c6f7760581b604082015260600190565b60208082526030908201527f476f7665726e6f723a3a726566756e643a20616c726561647920726566756e6460408201526f1959081d1a1a5cc81c1c9bdc1bdcd85b60821b606082015260800190565b6020808252603f908201527f476f7665726e6f723a3a71756575653a2070726f706f73616c2063616e206f6e60408201527f6c79206265207175657565642069662069742069732073756363656564656400606082015260800190565b6020808252602a908201527f476f7665726e6f723a3a63617374566f746542795369673a20696e76616c6964604082015269207369676e617475726560b01b606082015260800190565b60208082526041908201527f476f7665726e6f723a3a5f63617374566f74653a2063616e206f6e6c7920746f60408201527f70206f66662073616d6520766f746520776974686f757420726566756e64696e6060820152606760f81b608082015260a00190565b600060c08201905082511515825260208301511515602083015260408301516001600160601b038082166040850152806060860151166060850152505060808301511515608083015260a0830151151560a083015292915050565b8981526001600160a01b038916602082015261012060408201819052600090613bec8382018b612f52565b90508281036060840152613c00818a612fe8565b90508281036080840152613c148189612f95565b905082810360a0840152613c288188612f95565b90508560c08401528460e0840152828103610100840152613c498185613017565b9c9b505050505050505050505050565b60006101a08f835260018060a01b038f1660208401528d60408401528c60608401528b60808401528a60a08401528960c08401528860e08401528761010084015286151561012084015285151561014084015280610160840152613cbf81840186613017565b915050826101808301529e9d5050505050505050505050505050565b918252602082015260400190565b60405181810167ffffffffffffffff81118282101715613d0857600080fd5b604052919050565b600067ffffffffffffffff821115613d26578081fd5b5060209081020190565b600067ffffffffffffffff821115613d46578081fd5b50601f01601f191660200190565b60009081526020902090565b60005b83811015613d7b578181015183820152602001613d63565b838111156117d75750506000910152565b80151581146129ec57600080fd5b6001600160601b03811681146129ec57600080fdfea26469706673582212200ddac994c4a6e03caee0d33c3d2fbf3f68ef958e88648d4933db53cc9b14282a64736f6c63430007000033",
  "linkReferences": {},
  "deployedLinkReferences": {}
}