{
  "_format": "hh-sol-artifact-1",
  "contractName": "Governor",
  "sourceName": "contracts/Governance/Governor.sol",
  "abi": [
    {
      "inputs": [
        {
          "internalType": "address",
          "name": "timelock_",
          "type": "address"
        },
        {
          "internalType": "address",
          "name": "daot_",
          "type": "address"
        },
        {
          "internalType": "address",
          "name": "guardian_",
          "type": "address"
        }
      ],
      "payable": false,
      "stateMutability": "nonpayable",
      "type": "constructor"
    },
    {
      "anonymous": false,
      "inputs": [
        {
          "indexed": false,
          "internalType": "uint256",
          "name": "id",
          "type": "uint256"
        }
      ],
      "name": "ProposalCanceled",
      "type": "event"
    },
    {
      "anonymous": false,
      "inputs": [
        {
          "indexed": false,
          "internalType": "uint256",
          "name": "id",
          "type": "uint256"
        },
        {
          "indexed": false,
          "internalType": "address",
          "name": "proposer",
          "type": "address"
        },
        {
          "indexed": false,
          "internalType": "address[]",
          "name": "targets",
          "type": "address[]"
        },
        {
          "indexed": false,
          "internalType": "uint256[]",
          "name": "values",
          "type": "uint256[]"
        },
        {
          "indexed": false,
          "internalType": "string[]",
          "name": "signatures",
          "type": "string[]"
        },
        {
          "indexed": false,
          "internalType": "bytes[]",
          "name": "calldatas",
          "type": "bytes[]"
        },
        {
          "indexed": false,
          "internalType": "uint256",
          "name": "startBlock",
          "type": "uint256"
        },
        {
          "indexed": false,
          "internalType": "uint256",
          "name": "endBlock",
          "type": "uint256"
        },
        {
          "indexed": false,
          "internalType": "string",
          "name": "description",
          "type": "string"
        }
      ],
      "name": "ProposalCreated",
      "type": "event"
    },
    {
      "anonymous": false,
      "inputs": [
        {
          "indexed": false,
          "internalType": "uint256",
          "name": "id",
          "type": "uint256"
        }
      ],
      "name": "ProposalExecuted",
      "type": "event"
    },
    {
      "anonymous": false,
      "inputs": [
        {
          "indexed": false,
          "internalType": "uint256",
          "name": "id",
          "type": "uint256"
        },
        {
          "indexed": false,
          "internalType": "uint256",
          "name": "eta",
          "type": "uint256"
        }
      ],
      "name": "ProposalQueued",
      "type": "event"
    },
    {
      "anonymous": false,
      "inputs": [
        {
          "indexed": false,
          "internalType": "address",
          "name": "voter",
          "type": "address"
        },
        {
          "indexed": false,
          "internalType": "uint256",
          "name": "proposalId",
          "type": "uint256"
        },
        {
          "indexed": false,
          "internalType": "bool",
          "name": "support",
          "type": "bool"
        },
        {
          "indexed": false,
          "internalType": "uint256",
          "name": "votes",
          "type": "uint256"
        }
      ],
      "name": "VoteCast",
      "type": "event"
    },
    {
      "constant": true,
      "inputs": [],
      "name": "BALLOT_TYPEHASH",
      "outputs": [
        {
          "internalType": "bytes32",
          "name": "",
          "type": "bytes32"
        }
      ],
      "payable": false,
      "stateMutability": "view",
      "type": "function"
    },
    {
      "constant": true,
      "inputs": [],
      "name": "DOMAIN_TYPEHASH",
      "outputs": [
        {
          "internalType": "bytes32",
          "name": "",
          "type": "bytes32"
        }
      ],
      "payable": false,
      "stateMutability": "view",
      "type": "function"
    },
    {
      "constant": false,
      "inputs": [],
      "name": "__abdicate",
      "outputs": [],
      "payable": false,
      "stateMutability": "nonpayable",
      "type": "function"
    },
    {
      "constant": false,
      "inputs": [],
      "name": "__acceptAdmin",
      "outputs": [],
      "payable": false,
      "stateMutability": "nonpayable",
      "type": "function"
    },
    {
      "constant": false,
      "inputs": [
        {
          "internalType": "address",
          "name": "newPendingAdmin",
          "type": "address"
        },
        {
          "internalType": "uint256",
          "name": "eta",
          "type": "uint256"
        }
      ],
      "name": "__executeSetTimelockPendingAdmin",
      "outputs": [],
      "payable": false,
      "stateMutability": "nonpayable",
      "type": "function"
    },
    {
      "constant": false,
      "inputs": [
        {
          "internalType": "address",
          "name": "newPendingAdmin",
          "type": "address"
        },
        {
          "internalType": "uint256",
          "name": "eta",
          "type": "uint256"
        }
      ],
      "name": "__queueSetTimelockPendingAdmin",
      "outputs": [],
      "payable": false,
      "stateMutability": "nonpayable",
      "type": "function"
    },
    {
      "constant": false,
      "inputs": [
        {
          "internalType": "uint256",
          "name": "proposalId",
          "type": "uint256"
        }
      ],
      "name": "cancel",
      "outputs": [],
      "payable": false,
      "stateMutability": "nonpayable",
      "type": "function"
    },
    {
      "constant": false,
      "inputs": [
        {
          "internalType": "uint256",
          "name": "proposalId",
          "type": "uint256"
        },
        {
          "internalType": "bool",
          "name": "support",
          "type": "bool"
        }
      ],
      "name": "castVote",
      "outputs": [],
      "payable": false,
      "stateMutability": "nonpayable",
      "type": "function"
    },
    {
      "constant": false,
      "inputs": [
        {
          "internalType": "uint256",
          "name": "proposalId",
          "type": "uint256"
        },
        {
          "internalType": "bool",
          "name": "support",
          "type": "bool"
        },
        {
          "internalType": "uint8",
          "name": "v",
          "type": "uint8"
        },
        {
          "internalType": "bytes32",
          "name": "r",
          "type": "bytes32"
        },
        {
          "internalType": "bytes32",
          "name": "s",
          "type": "bytes32"
        }
      ],
      "name": "castVoteBySig",
      "outputs": [],
      "payable": false,
      "stateMutability": "nonpayable",
      "type": "function"
    },
    {
      "constant": true,
      "inputs": [],
      "name": "daot",
      "outputs": [
        {
          "internalType": "contract DaotInterface",
          "name": "",
          "type": "address"
        }
      ],
      "payable": false,
      "stateMutability": "view",
      "type": "function"
    },
    {
      "constant": false,
      "inputs": [
        {
          "internalType": "uint256",
          "name": "proposalId",
          "type": "uint256"
        }
      ],
      "name": "execute",
      "outputs": [],
      "payable": true,
      "stateMutability": "payable",
      "type": "function"
    },
    {
      "constant": true,
      "inputs": [
        {
          "internalType": "uint256",
          "name": "proposalId",
          "type": "uint256"
        }
      ],
      "name": "getActions",
      "outputs": [
        {
          "internalType": "address[]",
          "name": "targets",
          "type": "address[]"
        },
        {
          "internalType": "uint256[]",
          "name": "values",
          "type": "uint256[]"
        },
        {
          "internalType": "string[]",
          "name": "signatures",
          "type": "string[]"
        },
        {
          "internalType": "bytes[]",
          "name": "calldatas",
          "type": "bytes[]"
        }
      ],
      "payable": false,
      "stateMutability": "view",
      "type": "function"
    },
    {
      "constant": true,
      "inputs": [
        {
          "internalType": "uint256",
          "name": "proposalId",
          "type": "uint256"
        }
      ],
      "name": "getEta",
      "outputs": [
        {
          "internalType": "uint256",
          "name": "",
          "type": "uint256"
        }
      ],
      "payable": false,
      "stateMutability": "view",
      "type": "function"
    },
    {
      "constant": true,
      "inputs": [
        {
          "internalType": "uint256",
          "name": "proposalId",
          "type": "uint256"
        },
        {
          "internalType": "address",
          "name": "voter",
          "type": "address"
        }
      ],
      "name": "getReceipt",
      "outputs": [
        {
          "components": [
            {
              "internalType": "bool",
              "name": "hasVoted",
              "type": "bool"
            },
            {
              "internalType": "bool",
              "name": "support",
              "type": "bool"
            },
            {
              "internalType": "uint96",
              "name": "votes",
              "type": "uint96"
            }
          ],
          "internalType": "struct Governor.Receipt",
          "name": "",
          "type": "tuple"
        }
      ],
      "payable": false,
      "stateMutability": "view",
      "type": "function"
    },
    {
      "constant": true,
      "inputs": [],
      "name": "guardian",
      "outputs": [
        {
          "internalType": "address",
          "name": "",
          "type": "address"
        }
      ],
      "payable": false,
      "stateMutability": "view",
      "type": "function"
    },
    {
      "constant": true,
      "inputs": [
        {
          "internalType": "address",
          "name": "",
          "type": "address"
        }
      ],
      "name": "latestProposalIds",
      "outputs": [
        {
          "internalType": "uint256",
          "name": "",
          "type": "uint256"
        }
      ],
      "payable": false,
      "stateMutability": "view",
      "type": "function"
    },
    {
      "constant": true,
      "inputs": [],
      "name": "name",
      "outputs": [
        {
          "internalType": "string",
          "name": "",
          "type": "string"
        }
      ],
      "payable": false,
      "stateMutability": "view",
      "type": "function"
    },
    {
      "constant": true,
      "inputs": [],
      "name": "proposalCount",
      "outputs": [
        {
          "internalType": "uint256",
          "name": "",
          "type": "uint256"
        }
      ],
      "payable": false,
      "stateMutability": "view",
      "type": "function"
    },
    {
      "constant": true,
      "inputs": [],
      "name": "proposalMaxOperations",
      "outputs": [
        {
          "internalType": "uint256",
          "name": "",
          "type": "uint256"
        }
      ],
      "payable": false,
      "stateMutability": "pure",
      "type": "function"
    },
    {
      "constant": true,
      "inputs": [],
      "name": "proposalThreshold",
      "outputs": [
        {
          "internalType": "uint256",
          "name": "",
          "type": "uint256"
        }
      ],
      "payable": false,
      "stateMutability": "pure",
      "type": "function"
    },
    {
      "constant": true,
      "inputs": [
        {
          "internalType": "uint256",
          "name": "",
          "type": "uint256"
        }
      ],
      "name": "proposals",
      "outputs": [
        {
          "internalType": "uint256",
          "name": "id",
          "type": "uint256"
        },
        {
          "internalType": "address",
          "name": "proposer",
          "type": "address"
        },
        {
          "internalType": "uint256",
          "name": "eta",
          "type": "uint256"
        },
        {
          "internalType": "uint256",
          "name": "startBlock",
          "type": "uint256"
        },
        {
          "internalType": "uint256",
          "name": "endBlock",
          "type": "uint256"
        },
        {
          "internalType": "uint256",
          "name": "forVotes",
          "type": "uint256"
        },
        {
          "internalType": "uint256",
          "name": "againstVotes",
          "type": "uint256"
        },
        {
          "internalType": "bool",
          "name": "canceled",
          "type": "bool"
        },
        {
          "internalType": "bool",
          "name": "executed",
          "type": "bool"
        }
      ],
      "payable": false,
      "stateMutability": "view",
      "type": "function"
    },
    {
      "constant": false,
      "inputs": [
        {
          "internalType": "address[]",
          "name": "targets",
          "type": "address[]"
        },
        {
          "internalType": "uint256[]",
          "name": "values",
          "type": "uint256[]"
        },
        {
          "internalType": "string[]",
          "name": "signatures",
          "type": "string[]"
        },
        {
          "internalType": "bytes[]",
          "name": "calldatas",
          "type": "bytes[]"
        },
        {
          "internalType": "string",
          "name": "description",
          "type": "string"
        }
      ],
      "name": "propose",
      "outputs": [
        {
          "internalType": "uint256",
          "name": "",
          "type": "uint256"
        }
      ],
      "payable": false,
      "stateMutability": "nonpayable",
      "type": "function"
    },
    {
      "constant": false,
      "inputs": [
        {
          "internalType": "uint256",
          "name": "proposalId",
          "type": "uint256"
        }
      ],
      "name": "queue",
      "outputs": [],
      "payable": false,
      "stateMutability": "nonpayable",
      "type": "function"
    },
    {
      "constant": true,
      "inputs": [],
      "name": "quorumVotes",
      "outputs": [
        {
          "internalType": "uint256",
          "name": "",
          "type": "uint256"
        }
      ],
      "payable": false,
      "stateMutability": "pure",
      "type": "function"
    },
    {
      "constant": true,
      "inputs": [
        {
          "internalType": "uint256",
          "name": "proposalId",
          "type": "uint256"
        }
      ],
      "name": "state",
      "outputs": [
        {
          "internalType": "enum Governor.ProposalState",
          "name": "",
          "type": "uint8"
        }
      ],
      "payable": false,
      "stateMutability": "view",
      "type": "function"
    },
    {
      "constant": true,
      "inputs": [],
      "name": "timelock",
      "outputs": [
        {
          "internalType": "contract TimelockInterface",
          "name": "",
          "type": "address"
        }
      ],
      "payable": false,
      "stateMutability": "view",
      "type": "function"
    },
    {
      "constant": true,
      "inputs": [],
      "name": "votingDelay",
      "outputs": [
        {
          "internalType": "uint256",
          "name": "",
          "type": "uint256"
        }
      ],
      "payable": false,
      "stateMutability": "pure",
      "type": "function"
    },
    {
      "constant": true,
      "inputs": [],
      "name": "votingPeriod",
      "outputs": [
        {
          "internalType": "uint256",
          "name": "",
          "type": "uint256"
        }
      ],
      "payable": false,
      "stateMutability": "pure",
      "type": "function"
    }
  ],
  "bytecode": "0x60806040523480156200001157600080fd5b50604051620054e2380380620054e2833981810160405262000037919081019062000119565b826000806101000a81548173ffffffffffffffffffffffffffffffffffffffff021916908373ffffffffffffffffffffffffffffffffffffffff16021790555081600160006101000a81548173ffffffffffffffffffffffffffffffffffffffff021916908373ffffffffffffffffffffffffffffffffffffffff16021790555080600260006101000a81548173ffffffffffffffffffffffffffffffffffffffff021916908373ffffffffffffffffffffffffffffffffffffffff160217905550505050620001bd565b6000815190506200011381620001a3565b92915050565b6000806000606084860312156200012f57600080fd5b60006200013f8682870162000102565b9350506020620001528682870162000102565b9250506040620001658682870162000102565b9150509250925092565b60006200017c8262000183565b9050919050565b600073ffffffffffffffffffffffffffffffffffffffff82169050919050565b620001ae816200016f565b8114620001ba57600080fd5b50565b61531580620001cd6000396000f3fe6080604052600436106101b75760003560e01c80634634c61f116100ec578063da35c6641161008a578063deaaa7cc11610064578063deaaa7cc146105f5578063e23a9a5214610620578063e53c14211461065d578063fe0d94c11461069a576101b7565b8063da35c66414610564578063da95691a1461058f578063ddf0b009146105cc576101b7565b806391500671116100c657806391500671146104ce578063b58131b0146104f7578063b9a6196114610522578063d33219b414610539576101b7565b80634634c61f14610463578063760fbc131461048c5780637bdbe4d0146104a3576101b7565b806324bc1a64116101595780633e4f49e6116101335780633e4f49e6146103a757806340e58ee5146103e4578063428217a21461040d578063452a932014610438576101b7565b806324bc1a6414610311578063328dd9821461033c5780633932abb11461037c576101b7565b806315373e3d1161019557806315373e3d1461025757806317977c611461028057806320606b70146102bd57806321f43e42146102e8576101b7565b8063013cf08b146101bc57806302a251a31461020157806306fdde031461022c575b600080fd5b3480156101c857600080fd5b506101e360048036036101de91908101906133e9565b6106b6565b6040516101f899989796959493929190614ce4565b60405180910390f35b34801561020d57600080fd5b5061021661073e565b6040516102239190614c19565b60405180910390f35b34801561023857600080fd5b50610241610748565b60405161024e919061493c565b60405180910390f35b34801561026357600080fd5b5061027e60048036036102799190810190613477565b610781565b005b34801561028c57600080fd5b506102a760048036036102a29190810190613202565b610790565b6040516102b49190614c19565b60405180910390f35b3480156102c957600080fd5b506102d26107a8565b6040516102df919061480f565b60405180910390f35b3480156102f457600080fd5b5061030f600480360361030a919081019061322b565b6107bf565b005b34801561031d57600080fd5b5061032661094c565b6040516103339190614c19565b60405180910390f35b34801561034857600080fd5b50610363600480360361035e91908101906133e9565b61095e565b60405161037394939291906147ae565b60405180910390f35b34801561038857600080fd5b50610391610c3b565b60405161039e9190614c19565b60405180910390f35b3480156103b357600080fd5b506103ce60048036036103c991908101906133e9565b610c44565b6040516103db9190614921565b60405180910390f35b3480156103f057600080fd5b5061040b600480360361040691908101906133e9565b610e28565b005b34801561041957600080fd5b506104226111c4565b60405161042f91906148eb565b60405180910390f35b34801561044457600080fd5b5061044d6111ea565b60405161045a91906145db565b60405180910390f35b34801561046f57600080fd5b5061048a600480360361048591908101906134b3565b611210565b005b34801561049857600080fd5b506104a16113df565b005b3480156104af57600080fd5b506104b86114b3565b6040516104c59190614c19565b60405180910390f35b3480156104da57600080fd5b506104f560048036036104f0919081019061322b565b6114bc565b005b34801561050357600080fd5b5061050c611644565b6040516105199190614c19565b60405180910390f35b34801561052e57600080fd5b50610537611656565b005b34801561054557600080fd5b5061054e611769565b60405161055b9190614906565b60405180910390f35b34801561057057600080fd5b5061057961178e565b6040516105869190614c19565b60405180910390f35b34801561059b57600080fd5b506105b660048036036105b19190810190613267565b611794565b6040516105c39190614c19565b60405180910390f35b3480156105d857600080fd5b506105f360048036036105ee91908101906133e9565b611d61565b005b34801561060157600080fd5b5061060a6120b0565b604051610617919061480f565b60405180910390f35b34801561062c57600080fd5b506106476004803603610642919081019061343b565b6120c7565b6040516106549190614bfe565b60405180910390f35b34801561066957600080fd5b50610684600480360361067f91908101906133e9565b6121a9565b6040516106919190614c19565b60405180910390f35b6106b460048036036106af91908101906133e9565b6121c9565b005b60046020528060005260406000206000915090508060000154908060010160009054906101000a900473ffffffffffffffffffffffffffffffffffffffff169080600201549080600701549080600801549080600901549080600a01549080600b0160009054906101000a900460ff169080600b0160019054906101000a900460ff16905089565b6000614380905090565b6040518060400160405280601781526020017f436f6d706f756e6420476f7665726e6f7220416c70686100000000000000000081525081565b61078c338383612416565b5050565b60056020528060005260406000206000915090505481565b6040516107b4906145b1565b604051809103902081565b600260009054906101000a900473ffffffffffffffffffffffffffffffffffffffff1673ffffffffffffffffffffffffffffffffffffffff163373ffffffffffffffffffffffffffffffffffffffff161461084f576040517f08c379a0000000000000000000000000000000000000000000000000000000008152600401610846906149be565b60405180910390fd5b6000809054906101000a900473ffffffffffffffffffffffffffffffffffffffff1673ffffffffffffffffffffffffffffffffffffffff16630825f38f6000809054906101000a900473ffffffffffffffffffffffffffffffffffffffff166000856040516020016108c191906145db565b604051602081830303815290604052856040518563ffffffff1660e01b81526004016108f0949392919061461f565b600060405180830381600087803b15801561090a57600080fd5b505af115801561091e573d6000803e3d6000fd5b505050506040513d6000823e3d601f19601f8201168201806040525061094791908101906133a8565b505050565b60006954b40b1f852bda000000905090565b60608060608060006004600087815260200190815260200160002090508060030181600401826005018360060183805480602002602001604051908101604052809291908181526020018280548015610a0c57602002820191906000526020600020905b8160009054906101000a900473ffffffffffffffffffffffffffffffffffffffff1673ffffffffffffffffffffffffffffffffffffffff16815260200190600101908083116109c2575b5050505050935082805480602002602001604051908101604052809291908181526020018280548015610a5e57602002820191906000526020600020905b815481526020019060010190808311610a4a575b5050505050925081805480602002602001604051908101604052809291908181526020016000905b82821015610b42578382906000526020600020018054600181600116156101000203166002900480601f016020809104026020016040519081016040528092919081815260200182805460018160011615610100020316600290048015610b2e5780601f10610b0357610100808354040283529160200191610b2e565b820191906000526020600020905b815481529060010190602001808311610b1157829003601f168201915b505050505081526020019060010190610a86565b50505050915080805480602002602001604051908101604052809291908181526020016000905b82821015610c25578382906000526020600020018054600181600116156101000203166002900480601f016020809104026020016040519081016040528092919081815260200182805460018160011615610100020316600290048015610c115780601f10610be657610100808354040283529160200191610c11565b820191906000526020600020905b815481529060010190602001808311610bf457829003601f168201915b505050505081526020019060010190610b69565b5050505090509450945094509450509193509193565b60006001905090565b60008160035410158015610c585750600082115b610c97576040517f08c379a0000000000000000000000000000000000000000000000000000000008152600401610c8e906149de565b60405180910390fd5b600060046000848152602001908152602001600020905080600b0160009054906101000a900460ff1615610ccf576002915050610e23565b80600701544311610ce4576000915050610e23565b80600801544311610cf9576001915050610e23565b80600a01548160090154111580610d1a5750610d1361094c565b8160090154105b15610d29576003915050610e23565b600081600201541415610d40576004915050610e23565b80600b0160019054906101000a900460ff1615610d61576007915050610e23565b610e0d81600201546000809054906101000a900473ffffffffffffffffffffffffffffffffffffffff1673ffffffffffffffffffffffffffffffffffffffff1663c1a287e26040518163ffffffff1660e01b815260040160206040518083038186803b158015610dd057600080fd5b505afa158015610de4573d6000803e3d6000fd5b505050506040513d601f19601f82011682018060405250610e089190810190613412565b6126e5565b4210610e1d576006915050610e23565b60059150505b919050565b6000610e3382610c44565b9050600780811115610e4157fe5b816007811115610e4d57fe5b1415610e8e576040517f08c379a0000000000000000000000000000000000000000000000000000000008152600401610e8590614b7e565b60405180910390fd5b6000600460008481526020019081526020016000209050600260009054906101000a900473ffffffffffffffffffffffffffffffffffffffff1673ffffffffffffffffffffffffffffffffffffffff163373ffffffffffffffffffffffffffffffffffffffff161480610fef5750610f04611644565b600160009054906101000a900473ffffffffffffffffffffffffffffffffffffffff1673ffffffffffffffffffffffffffffffffffffffff1663782d6fe18360010160009054906101000a900473ffffffffffffffffffffffffffffffffffffffff16610f7243600161273a565b6040518363ffffffff1660e01b8152600401610f8f92919061467e565b60206040518083038186803b158015610fa757600080fd5b505afa158015610fbb573d6000803e3d6000fd5b505050506040513d601f19601f82011682018060405250610fdf919081019061352a565b6bffffffffffffffffffffffff16105b61102e576040517f08c379a000000000000000000000000000000000000000000000000000000000815260040161102590614abe565b60405180910390fd5b600181600b0160006101000a81548160ff02191690831515021790555060008090505b8160030180549050811015611187576000809054906101000a900473ffffffffffffffffffffffffffffffffffffffff1673ffffffffffffffffffffffffffffffffffffffff1663591fcdfe8360030183815481106110ac57fe5b9060005260206000200160009054906101000a900473ffffffffffffffffffffffffffffffffffffffff168460040184815481106110e657fe5b906000526020600020015485600501858154811061110057fe5b9060005260206000200186600601868154811061111957fe5b9060005260206000200187600201546040518663ffffffff1660e01b815260040161114895949392919061474d565b600060405180830381600087803b15801561116257600080fd5b505af1158015611176573d6000803e3d6000fd5b505050508080600101915050611051565b507f789cf55be980739dad1d0699b93b58e806b51c9d96619bfa8fe0a28abaa7b30c836040516111b79190614c19565b60405180910390a1505050565b600160009054906101000a900473ffffffffffffffffffffffffffffffffffffffff1681565b600260009054906101000a900473ffffffffffffffffffffffffffffffffffffffff1681565b600060405161121e906145b1565b60405180910390206040518060400160405280601781526020017f436f6d706f756e6420476f7665726e6f7220416c7068610000000000000000008152508051906020012061126b61278a565b3060405160200161127f949392919061482a565b60405160208183030381529060405280519060200120905060006040516112a5906145c6565b604051809103902087876040516020016112c19392919061486f565b604051602081830303815290604052805190602001209050600082826040516020016112ee92919061457a565b60405160208183030381529060405280519060200120905060006001828888886040516000815260200160405260405161132b94939291906148a6565b6020604051602081039080840390855afa15801561134d573d6000803e3d6000fd5b505050602060405103519050600073ffffffffffffffffffffffffffffffffffffffff168173ffffffffffffffffffffffffffffffffffffffff1614156113c9576040517f08c379a00000000000000000000000000000000000000000000000000000000081526004016113c090614b3e565b60405180910390fd5b6113d4818a8a612416565b505050505050505050565b600260009054906101000a900473ffffffffffffffffffffffffffffffffffffffff1673ffffffffffffffffffffffffffffffffffffffff163373ffffffffffffffffffffffffffffffffffffffff161461146f576040517f08c379a000000000000000000000000000000000000000000000000000000000815260040161146690614bde565b60405180910390fd5b6000600260006101000a81548173ffffffffffffffffffffffffffffffffffffffff021916908373ffffffffffffffffffffffffffffffffffffffff160217905550565b6000600a905090565b600260009054906101000a900473ffffffffffffffffffffffffffffffffffffffff1673ffffffffffffffffffffffffffffffffffffffff163373ffffffffffffffffffffffffffffffffffffffff161461154c576040517f08c379a000000000000000000000000000000000000000000000000000000000815260040161154390614a3e565b60405180910390fd5b6000809054906101000a900473ffffffffffffffffffffffffffffffffffffffff1673ffffffffffffffffffffffffffffffffffffffff16633a66f9016000809054906101000a900473ffffffffffffffffffffffffffffffffffffffff166000856040516020016115be91906145db565b604051602081830303815290604052856040518563ffffffff1660e01b81526004016115ed949392919061461f565b602060405180830381600087803b15801561160757600080fd5b505af115801561161b573d6000803e3d6000fd5b505050506040513d601f19601f8201168201806040525061163f919081019061337f565b505050565b600069152d02c7e14af6800000905090565b600260009054906101000a900473ffffffffffffffffffffffffffffffffffffffff1673ffffffffffffffffffffffffffffffffffffffff163373ffffffffffffffffffffffffffffffffffffffff16146116e6576040517f08c379a00000000000000000000000000000000000000000000000000000000081526004016116dd9061495e565b60405180910390fd5b6000809054906101000a900473ffffffffffffffffffffffffffffffffffffffff1673ffffffffffffffffffffffffffffffffffffffff16630e18b6816040518163ffffffff1660e01b8152600401600060405180830381600087803b15801561174f57600080fd5b505af1158015611763573d6000803e3d6000fd5b50505050565b6000809054906101000a900473ffffffffffffffffffffffffffffffffffffffff1681565b60035481565b600061179e611644565b600160009054906101000a900473ffffffffffffffffffffffffffffffffffffffff1673ffffffffffffffffffffffffffffffffffffffff1663782d6fe1336117e843600161273a565b6040518363ffffffff1660e01b81526004016118059291906145f6565b60206040518083038186803b15801561181d57600080fd5b505afa158015611831573d6000803e3d6000fd5b505050506040513d601f19601f82011682018060405250611855919081019061352a565b6bffffffffffffffffffffffff16116118a3576040517f08c379a000000000000000000000000000000000000000000000000000000000815260040161189a90614b1e565b60405180910390fd5b845186511480156118b5575083518651145b80156118c2575082518651145b611901576040517f08c379a00000000000000000000000000000000000000000000000000000000081526004016118f890614a9e565b60405180910390fd5b600086511415611946576040517f08c379a000000000000000000000000000000000000000000000000000000000815260040161193d90614afe565b60405180910390fd5b61194e6114b3565b86511115611991576040517f08c379a000000000000000000000000000000000000000000000000000000000815260040161198890614a5e565b60405180910390fd5b6000600560003373ffffffffffffffffffffffffffffffffffffffff1673ffffffffffffffffffffffffffffffffffffffff16815260200190815260200160002054905060008114611aa05760006119e882610c44565b9050600160078111156119f757fe5b816007811115611a0357fe5b1415611a44576040517f08c379a0000000000000000000000000000000000000000000000000000000008152600401611a3b90614b5e565b60405180910390fd5b60006007811115611a5157fe5b816007811115611a5d57fe5b1415611a9e576040517f08c379a0000000000000000000000000000000000000000000000000000000008152600401611a9590614a1e565b60405180910390fd5b505b6000611ab343611aae610c3b565b6126e5565b90506000611ac882611ac361073e565b6126e5565b9050600360008154809291906001019190505550611ae461296b565b604051806101a0016040528060035481526020013373ffffffffffffffffffffffffffffffffffffffff168152602001600081526020018b81526020018a815260200189815260200188815260200184815260200183815260200160008152602001600081526020016000151581526020016000151581525090508060046000836000015181526020019081526020016000206000820151816000015560208201518160010160006101000a81548173ffffffffffffffffffffffffffffffffffffffff021916908373ffffffffffffffffffffffffffffffffffffffff160217905550604082015181600201556060820151816003019080519060200190611bee9291906129ed565b506080820151816004019080519060200190611c0b929190612a77565b5060a0820151816005019080519060200190611c28929190612ac4565b5060c0820151816006019080519060200190611c45929190612b24565b5060e082015181600701556101008201518160080155610120820151816009015561014082015181600a015561016082015181600b0160006101000a81548160ff02191690831515021790555061018082015181600b0160016101000a81548160ff021916908315150217905550905050806000015160056000836020015173ffffffffffffffffffffffffffffffffffffffff1673ffffffffffffffffffffffffffffffffffffffff168152602001908152602001600020819055507f7d84a6263ae0d98d3329bd7b46bb4e8d6f98cd35a7adb45c274c8b7fd5ebd5e08160000151338c8c8c8c89898e604051611d4599989796959493929190614c34565b60405180910390a1806000015194505050505095945050505050565b60046007811115611d6e57fe5b611d7782610c44565b6007811115611d8257fe5b14611dc2576040517f08c379a0000000000000000000000000000000000000000000000000000000008152600401611db99061497e565b60405180910390fd5b60006004600083815260200190815260200160002090506000611e83426000809054906101000a900473ffffffffffffffffffffffffffffffffffffffff1673ffffffffffffffffffffffffffffffffffffffff16636a42b8f86040518163ffffffff1660e01b815260040160206040518083038186803b158015611e4657600080fd5b505afa158015611e5a573d6000803e3d6000fd5b505050506040513d601f19601f82011682018060405250611e7e9190810190613412565b6126e5565b905060008090505b82600301805490508110156120685761205b836003018281548110611eac57fe5b9060005260206000200160009054906101000a900473ffffffffffffffffffffffffffffffffffffffff16846004018381548110611ee657fe5b9060005260206000200154856005018481548110611f0057fe5b906000526020600020018054600181600116156101000203166002900480601f016020809104026020016040519081016040528092919081815260200182805460018160011615610100020316600290048015611f9e5780601f10611f7357610100808354040283529160200191611f9e565b820191906000526020600020905b815481529060010190602001808311611f8157829003601f168201915b5050505050866006018581548110611fb257fe5b906000526020600020018054600181600116156101000203166002900480601f0160208091040260200160405190810160405280929190818152602001828054600181600116156101000203166002900480156120505780601f1061202557610100808354040283529160200191612050565b820191906000526020600020905b81548152906001019060200180831161203357829003601f168201915b505050505086612797565b8080600101915050611e8b565b508082600201819055507f9a2e42fd6722813d69113e7d0079d3d940171428df7373df9c7f7617cfda289283826040516120a3929190614d71565b60405180910390a1505050565b6040516120bc906145c6565b604051809103902081565b6120cf612b84565b60046000848152602001908152602001600020600c0160008373ffffffffffffffffffffffffffffffffffffffff1673ffffffffffffffffffffffffffffffffffffffff1681526020019081526020016000206040518060600160405290816000820160009054906101000a900460ff161515151581526020016000820160019054906101000a900460ff161515151581526020016000820160029054906101000a90046bffffffffffffffffffffffff166bffffffffffffffffffffffff166bffffffffffffffffffffffff1681525050905092915050565b600060046000838152602001908152602001600020600201549050919050565b600560078111156121d657fe5b6121df82610c44565b60078111156121ea57fe5b1461222a576040517f08c379a00000000000000000000000000000000000000000000000000000000081526004016122219061499e565b60405180910390fd5b6000600460008381526020019081526020016000209050600181600b0160016101000a81548160ff02191690831515021790555060008090505b81600301805490508110156123da576000809054906101000a900473ffffffffffffffffffffffffffffffffffffffff1673ffffffffffffffffffffffffffffffffffffffff16630825f38f8360040183815481106122bf57fe5b90600052602060002001548460030184815481106122d957fe5b9060005260206000200160009054906101000a900473ffffffffffffffffffffffffffffffffffffffff1685600401858154811061231357fe5b906000526020600020015486600501868154811061232d57fe5b9060005260206000200187600601878154811061234657fe5b9060005260206000200188600201546040518763ffffffff1660e01b815260040161237595949392919061474d565b6000604051808303818588803b15801561238e57600080fd5b505af11580156123a2573d6000803e3d6000fd5b50505050506040513d6000823e3d601f19601f820116820180604052506123cc91908101906133a8565b508080600101915050612264565b507f712ae1383f79ac853f8d882153778e0260ef8f03b504e2866e0593e04d2b291f8260405161240a9190614c19565b60405180910390a15050565b6001600781111561242357fe5b61242c83610c44565b600781111561243757fe5b14612477576040517f08c379a000000000000000000000000000000000000000000000000000000000815260040161246e90614b9e565b60405180910390fd5b6000600460008481526020019081526020016000209050600081600c0160008673ffffffffffffffffffffffffffffffffffffffff1673ffffffffffffffffffffffffffffffffffffffff1681526020019081526020016000209050600015158160000160009054906101000a900460ff1615151461252b576040517f08c379a0000000000000000000000000000000000000000000000000000000008152600401612522906149fe565b60405180910390fd5b6000600160009054906101000a900473ffffffffffffffffffffffffffffffffffffffff1673ffffffffffffffffffffffffffffffffffffffff1663782d6fe18785600701546040518363ffffffff1660e01b815260040161258e92919061467e565b60206040518083038186803b1580156125a657600080fd5b505afa1580156125ba573d6000803e3d6000fd5b505050506040513d601f19601f820116820180604052506125de919081019061352a565b9050831561260f576126028360090154826bffffffffffffffffffffffff166126e5565b8360090181905550612634565b61262b83600a0154826bffffffffffffffffffffffff166126e5565b83600a01819055505b60018260000160006101000a81548160ff021916908315150217905550838260000160016101000a81548160ff021916908315150217905550808260000160026101000a8154816bffffffffffffffffffffffff02191690836bffffffffffffffffffffffff1602179055507f877856338e13f63d0c36822ff0ef736b80934cd90574a3a5bc9262c39d217c46868686846040516126d594939291906146a7565b60405180910390a1505050505050565b600080828401905083811015612730576040517f08c379a000000000000000000000000000000000000000000000000000000000815260040161272790614a7e565b60405180910390fd5b8091505092915050565b60008282111561277f576040517f08c379a000000000000000000000000000000000000000000000000000000000815260040161277690614bbe565b60405180910390fd5b818303905092915050565b6000804690508091505090565b6000809054906101000a900473ffffffffffffffffffffffffffffffffffffffff1673ffffffffffffffffffffffffffffffffffffffff1663f2b0653786868686866040516020016127ed9594939291906146ec565b604051602081830303815290604052805190602001206040518263ffffffff1660e01b815260040161281f919061480f565b60206040518083038186803b15801561283757600080fd5b505afa15801561284b573d6000803e3d6000fd5b505050506040513d601f19601f8201168201806040525061286f9190810190613356565b156128af576040517f08c379a00000000000000000000000000000000000000000000000000000000081526004016128a690614ade565b60405180910390fd5b6000809054906101000a900473ffffffffffffffffffffffffffffffffffffffff1673ffffffffffffffffffffffffffffffffffffffff16633a66f90186868686866040518663ffffffff1660e01b81526004016129119594939291906146ec565b602060405180830381600087803b15801561292b57600080fd5b505af115801561293f573d6000803e3d6000fd5b505050506040513d601f19601f82011682018060405250612963919081019061337f565b505050505050565b604051806101a0016040528060008152602001600073ffffffffffffffffffffffffffffffffffffffff1681526020016000815260200160608152602001606081526020016060815260200160608152602001600081526020016000815260200160008152602001600081526020016000151581526020016000151581525090565b828054828255906000526020600020908101928215612a66579160200282015b82811115612a655782518260006101000a81548173ffffffffffffffffffffffffffffffffffffffff021916908373ffffffffffffffffffffffffffffffffffffffff16021790555091602001919060010190612a0d565b5b509050612a739190612bb7565b5090565b828054828255906000526020600020908101928215612ab3579160200282015b82811115612ab2578251825591602001919060010190612a97565b5b509050612ac09190612bfa565b5090565b828054828255906000526020600020908101928215612b13579160200282015b82811115612b12578251829080519060200190612b02929190612c1f565b5091602001919060010190612ae4565b5b509050612b209190612c9f565b5090565b828054828255906000526020600020908101928215612b73579160200282015b82811115612b72578251829080519060200190612b62929190612ccb565b5091602001919060010190612b44565b5b509050612b809190612d4b565b5090565b604051806060016040528060001515815260200160001515815260200160006bffffffffffffffffffffffff1681525090565b612bf791905b80821115612bf357600081816101000a81549073ffffffffffffffffffffffffffffffffffffffff021916905550600101612bbd565b5090565b90565b612c1c91905b80821115612c18576000816000905550600101612c00565b5090565b90565b828054600181600116156101000203166002900490600052602060002090601f016020900481019282601f10612c6057805160ff1916838001178555612c8e565b82800160010185558215612c8e579182015b82811115612c8d578251825591602001919060010190612c72565b5b509050612c9b9190612bfa565b5090565b612cc891905b80821115612cc45760008181612cbb9190612d77565b50600101612ca5565b5090565b90565b828054600181600116156101000203166002900490600052602060002090601f016020900481019282601f10612d0c57805160ff1916838001178555612d3a565b82800160010185558215612d3a579182015b82811115612d39578251825591602001919060010190612d1e565b5b509050612d479190612bfa565b5090565b612d7491905b80821115612d705760008181612d679190612dbf565b50600101612d51565b5090565b90565b50805460018160011615610100020316600290046000825580601f10612d9d5750612dbc565b601f016020900490600052602060002090810190612dbb9190612bfa565b5b50565b50805460018160011615610100020316600290046000825580601f10612de55750612e04565b601f016020900490600052602060002090810190612e039190612bfa565b5b50565b600081359050612e1681615248565b92915050565b600082601f830112612e2d57600080fd5b8135612e40612e3b82614dc7565b614d9a565b91508181835260208401935060208101905083856020840282011115612e6557600080fd5b60005b83811015612e955781612e7b8882612e07565b845260208401935060208301925050600181019050612e68565b5050505092915050565b600082601f830112612eb057600080fd5b8135612ec3612ebe82614def565b614d9a565b9150818183526020840193506020810190508360005b83811015612f095781358601612eef888261305e565b845260208401935060208301925050600181019050612ed9565b5050505092915050565b600082601f830112612f2457600080fd5b8135612f37612f3282614e17565b614d9a565b9150818183526020840193506020810190508360005b83811015612f7d5781358601612f638882613106565b845260208401935060208301925050600181019050612f4d565b5050505092915050565b600082601f830112612f9857600080fd5b8135612fab612fa682614e3f565b614d9a565b91508181835260208401935060208101905083856020840282011115612fd057600080fd5b60005b838110156130005781612fe688826131ae565b845260208401935060208301925050600181019050612fd3565b5050505092915050565b6000813590506130198161525f565b92915050565b60008151905061302e8161525f565b92915050565b60008135905061304381615276565b92915050565b60008151905061305881615276565b92915050565b600082601f83011261306f57600080fd5b813561308261307d82614e67565b614d9a565b9150808252602083016020830185838301111561309e57600080fd5b6130a98382846151de565b50505092915050565b600082601f8301126130c357600080fd5b81516130d66130d182614e93565b614d9a565b915080825260208301602083018583830111156130f257600080fd5b6130fd8382846151ed565b50505092915050565b600082601f83011261311757600080fd5b813561312a61312582614ebf565b614d9a565b9150808252602083016020830185838301111561314657600080fd5b6131518382846151de565b50505092915050565b600082601f83011261316b57600080fd5b813561317e61317982614eeb565b614d9a565b9150808252602083016020830185838301111561319a57600080fd5b6131a58382846151de565b50505092915050565b6000813590506131bd8161528d565b92915050565b6000815190506131d28161528d565b92915050565b6000813590506131e7816152a4565b92915050565b6000815190506131fc816152bb565b92915050565b60006020828403121561321457600080fd5b600061322284828501612e07565b91505092915050565b6000806040838503121561323e57600080fd5b600061324c85828601612e07565b925050602061325d858286016131ae565b9150509250929050565b600080600080600060a0868803121561327f57600080fd5b600086013567ffffffffffffffff81111561329957600080fd5b6132a588828901612e1c565b955050602086013567ffffffffffffffff8111156132c257600080fd5b6132ce88828901612f87565b945050604086013567ffffffffffffffff8111156132eb57600080fd5b6132f788828901612f13565b935050606086013567ffffffffffffffff81111561331457600080fd5b61332088828901612e9f565b925050608086013567ffffffffffffffff81111561333d57600080fd5b6133498882890161315a565b9150509295509295909350565b60006020828403121561336857600080fd5b60006133768482850161301f565b91505092915050565b60006020828403121561339157600080fd5b600061339f84828501613049565b91505092915050565b6000602082840312156133ba57600080fd5b600082015167ffffffffffffffff8111156133d457600080fd5b6133e0848285016130b2565b91505092915050565b6000602082840312156133fb57600080fd5b6000613409848285016131ae565b91505092915050565b60006020828403121561342457600080fd5b6000613432848285016131c3565b91505092915050565b6000806040838503121561344e57600080fd5b600061345c858286016131ae565b925050602061346d85828601612e07565b9150509250929050565b6000806040838503121561348a57600080fd5b6000613498858286016131ae565b92505060206134a98582860161300a565b9150509250929050565b600080600080600060a086880312156134cb57600080fd5b60006134d9888289016131ae565b95505060206134ea8882890161300a565b94505060406134fb888289016131d8565b935050606061350c88828901613034565b925050608061351d88828901613034565b9150509295509295909350565b60006020828403121561353c57600080fd5b600061354a848285016131ed565b91505092915050565b600061355f83836135ba565b60208301905092915050565b600061357783836137fb565b905092915050565b600061358b8383613938565b905092915050565b600061359f838361452f565b60208301905092915050565b6135b48161512a565b82525050565b6135c3816150a0565b82525050565b6135d2816150a0565b82525050565b60006135e382614f81565b6135ed818561500d565b93506135f883614f17565b8060005b838110156136295781516136108882613553565b975061361b83614fd9565b9250506001810190506135fc565b5085935050505092915050565b600061364182614f8c565b61364b818561501e565b93508360208202850161365d85614f27565b8060005b85811015613699578484038952815161367a858261356b565b945061368583614fe6565b925060208a01995050600181019050613661565b50829750879550505050505092915050565b60006136b682614f97565b6136c0818561502f565b9350836020820285016136d285614f37565b8060005b8581101561370e57848403895281516136ef858261357f565b94506136fa83614ff3565b925060208a019950506001810190506136d6565b50829750879550505050505092915050565b600061372b82614fa2565b6137358185615040565b935061374083614f47565b8060005b838110156137715781516137588882613593565b975061376383615000565b925050600181019050613744565b5085935050505092915050565b613787816150b2565b82525050565b613796816150b2565b82525050565b6137a5816150be565b82525050565b6137bc6137b7826150be565b615220565b82525050565b60006137cd82614fb8565b6137d78185615062565b93506137e78185602086016151ed565b6137f08161522a565b840191505092915050565b600061380682614fad565b6138108185615051565b93506138208185602086016151ed565b6138298161522a565b840191505092915050565b6000815460018116600081146138515760018114613877576138bb565b607f60028304166138628187615062565b955060ff1983168652602086019350506138bb565b600282046138858187615062565b955061389085614f57565b60005b828110156138b257815481890152600182019150602081019050613893565b80880195505050505b505092915050565b6138cc8161513c565b82525050565b6138db81615160565b82525050565b6138ea81615184565b82525050565b6138f981615196565b82525050565b600061390a82614fce565b6139148185615084565b93506139248185602086016151ed565b61392d8161522a565b840191505092915050565b600061394382614fc3565b61394d8185615073565b935061395d8185602086016151ed565b6139668161522a565b840191505092915050565b600061397c82614fc3565b6139868185615084565b93506139968185602086016151ed565b61399f8161522a565b840191505092915050565b6000815460018116600081146139c757600181146139ed57613a31565b607f60028304166139d88187615084565b955060ff198316865260208601935050613a31565b600282046139fb8187615084565b9550613a0685614f6c565b60005b82811015613a2857815481890152600182019150602081019050613a09565b80880195505050505b505092915050565b6000613a46603983615084565b91507f476f7665726e6f72416c7068613a3a5f5f61636365707441646d696e3a20736560008301527f6e646572206d75737420626520676f7620677561726469616e000000000000006020830152604082019050919050565b6000613aac604483615084565b91507f476f7665726e6f72416c7068613a3a71756575653a2070726f706f73616c206360008301527f616e206f6e6c792062652071756575656420696620697420697320737563636560208301527f65646564000000000000000000000000000000000000000000000000000000006040830152606082019050919050565b6000613b38604583615084565b91507f476f7665726e6f72416c7068613a3a657865637574653a2070726f706f73616c60008301527f2063616e206f6e6c79206265206578656375746564206966206974206973207160208301527f75657565640000000000000000000000000000000000000000000000000000006040830152606082019050919050565b6000613bc4600283615095565b91507f19010000000000000000000000000000000000000000000000000000000000006000830152600282019050919050565b6000613c04604c83615084565b91507f476f7665726e6f72416c7068613a3a5f5f6578656375746553657454696d656c60008301527f6f636b50656e64696e6741646d696e3a2073656e646572206d7573742062652060208301527f676f7620677561726469616e00000000000000000000000000000000000000006040830152606082019050919050565b6000613c90601883615084565b91507f73657450656e64696e6741646d696e28616464726573732900000000000000006000830152602082019050919050565b6000613cd0602983615084565b91507f476f7665726e6f72416c7068613a3a73746174653a20696e76616c696420707260008301527f6f706f73616c20696400000000000000000000000000000000000000000000006020830152604082019050919050565b6000613d36602d83615084565b91507f476f7665726e6f72416c7068613a3a5f63617374566f74653a20766f7465722060008301527f616c726561647920766f746564000000000000000000000000000000000000006020830152604082019050919050565b6000613d9c605983615084565b91507f476f7665726e6f72416c7068613a3a70726f706f73653a206f6e65206c69766560008301527f2070726f706f73616c207065722070726f706f7365722c20666f756e6420616e60208301527f20616c72656164792070656e64696e672070726f706f73616c000000000000006040830152606082019050919050565b6000613e28604a83615084565b91507f476f7665726e6f72416c7068613a3a5f5f717565756553657454696d656c6f6360008301527f6b50656e64696e6741646d696e3a2073656e646572206d75737420626520676f60208301527f7620677561726469616e000000000000000000000000000000000000000000006040830152606082019050919050565b6000613eb4602883615084565b91507f476f7665726e6f72416c7068613a3a70726f706f73653a20746f6f206d616e7960008301527f20616374696f6e730000000000000000000000000000000000000000000000006020830152604082019050919050565b6000613f1a601183615084565b91507f6164646974696f6e206f766572666c6f770000000000000000000000000000006000830152602082019050919050565b6000613f5a604383615095565b91507f454950373132446f6d61696e28737472696e67206e616d652c75696e7432353660008301527f20636861696e49642c6164647265737320766572696679696e67436f6e74726160208301527f63742900000000000000000000000000000000000000000000000000000000006040830152604382019050919050565b6000613fe6602783615095565b91507f42616c6c6f742875696e743235362070726f706f73616c49642c626f6f6c207360008301527f7570706f727429000000000000000000000000000000000000000000000000006020830152602782019050919050565b600061404c604483615084565b91507f476f7665726e6f72416c7068613a3a70726f706f73653a2070726f706f73616c60008301527f2066756e6374696f6e20696e666f726d6174696f6e206172697479206d69736d60208301527f61746368000000000000000000000000000000000000000000000000000000006040830152606082019050919050565b60006140d8602f83615084565b91507f476f7665726e6f72416c7068613a3a63616e63656c3a2070726f706f7365722060008301527f61626f7665207468726573686f6c6400000000000000000000000000000000006020830152604082019050919050565b600061413e604483615084565b91507f476f7665726e6f72416c7068613a3a5f71756575654f725265766572743a207060008301527f726f706f73616c20616374696f6e20616c72656164792071756575656420617460208301527f20657461000000000000000000000000000000000000000000000000000000006040830152606082019050919050565b60006141ca602c83615084565b91507f476f7665726e6f72416c7068613a3a70726f706f73653a206d7573742070726f60008301527f7669646520616374696f6e7300000000000000000000000000000000000000006020830152604082019050919050565b6000614230603f83615084565b91507f476f7665726e6f72416c7068613a3a70726f706f73653a2070726f706f73657260008301527f20766f7465732062656c6f772070726f706f73616c207468726573686f6c64006020830152604082019050919050565b6000614296602f83615084565b91507f476f7665726e6f72416c7068613a3a63617374566f746542795369673a20696e60008301527f76616c6964207369676e617475726500000000000000000000000000000000006020830152604082019050919050565b60006142fc605883615084565b91507f476f7665726e6f72416c7068613a3a70726f706f73653a206f6e65206c69766560008301527f2070726f706f73616c207065722070726f706f7365722c20666f756e6420616e60208301527f20616c7265616479206163746976652070726f706f73616c00000000000000006040830152606082019050919050565b6000614388603683615084565b91507f476f7665726e6f72416c7068613a3a63616e63656c3a2063616e6e6f7420636160008301527f6e63656c2065786563757465642070726f706f73616c000000000000000000006020830152604082019050919050565b60006143ee602a83615084565b91507f476f7665726e6f72416c7068613a3a5f63617374566f74653a20766f74696e6760008301527f20697320636c6f736564000000000000000000000000000000000000000000006020830152604082019050919050565b6000614454601583615084565b91507f7375627472616374696f6e20756e646572666c6f7700000000000000000000006000830152602082019050919050565b6000614494603683615084565b91507f476f7665726e6f72416c7068613a3a5f5f61626469636174653a2073656e646560008301527f72206d75737420626520676f7620677561726469616e000000000000000000006020830152604082019050919050565b606082016000820151614503600085018261377e565b506020820151614516602085018261377e565b506040820151614529604085018261456b565b50505050565b614538816150fb565b82525050565b614547816150fb565b82525050565b61455681615105565b82525050565b614565816151cc565b82525050565b61457481615112565b82525050565b600061458582613bb7565b915061459182856137ab565b6020820191506145a182846137ab565b6020820191508190509392505050565b60006145bc82613f4d565b9150819050919050565b60006145d182613fd9565b9150819050919050565b60006020820190506145f060008301846135c9565b92915050565b600060408201905061460b60008301856135ab565b614618602083018461453e565b9392505050565b600060a08201905061463460008301876135c9565b61464160208301866138f0565b818103604083015261465281613c83565b9050818103606083015261466681856137c2565b9050614675608083018461453e565b95945050505050565b600060408201905061469360008301856135c9565b6146a0602083018461453e565b9392505050565b60006080820190506146bc60008301876135c9565b6146c9602083018661453e565b6146d6604083018561378d565b6146e3606083018461455c565b95945050505050565b600060a08201905061470160008301886135c9565b61470e602083018761453e565b818103604083015261472081866138ff565b9050818103606083015261473481856137c2565b9050614743608083018461453e565b9695505050505050565b600060a08201905061476260008301886135c9565b61476f602083018761453e565b818103604083015261478181866139aa565b905081810360608301526147958185613834565b90506147a4608083018461453e565b9695505050505050565b600060808201905081810360008301526147c881876135d8565b905081810360208301526147dc8186613720565b905081810360408301526147f081856136ab565b905081810360608301526148048184613636565b905095945050505050565b6000602082019050614824600083018461379c565b92915050565b600060808201905061483f600083018761379c565b61484c602083018661379c565b614859604083018561453e565b61486660608301846135c9565b95945050505050565b6000606082019050614884600083018661379c565b614891602083018561453e565b61489e604083018461378d565b949350505050565b60006080820190506148bb600083018761379c565b6148c8602083018661454d565b6148d5604083018561379c565b6148e2606083018461379c565b95945050505050565b600060208201905061490060008301846138c3565b92915050565b600060208201905061491b60008301846138d2565b92915050565b600060208201905061493660008301846138e1565b92915050565b600060208201905081810360008301526149568184613971565b905092915050565b6000602082019050818103600083015261497781613a39565b9050919050565b6000602082019050818103600083015261499781613a9f565b9050919050565b600060208201905081810360008301526149b781613b2b565b9050919050565b600060208201905081810360008301526149d781613bf7565b9050919050565b600060208201905081810360008301526149f781613cc3565b9050919050565b60006020820190508181036000830152614a1781613d29565b9050919050565b60006020820190508181036000830152614a3781613d8f565b9050919050565b60006020820190508181036000830152614a5781613e1b565b9050919050565b60006020820190508181036000830152614a7781613ea7565b9050919050565b60006020820190508181036000830152614a9781613f0d565b9050919050565b60006020820190508181036000830152614ab78161403f565b9050919050565b60006020820190508181036000830152614ad7816140cb565b9050919050565b60006020820190508181036000830152614af781614131565b9050919050565b60006020820190508181036000830152614b17816141bd565b9050919050565b60006020820190508181036000830152614b3781614223565b9050919050565b60006020820190508181036000830152614b5781614289565b9050919050565b60006020820190508181036000830152614b77816142ef565b9050919050565b60006020820190508181036000830152614b978161437b565b9050919050565b60006020820190508181036000830152614bb7816143e1565b9050919050565b60006020820190508181036000830152614bd781614447565b9050919050565b60006020820190508181036000830152614bf781614487565b9050919050565b6000606082019050614c1360008301846144ed565b92915050565b6000602082019050614c2e600083018461453e565b92915050565b600061012082019050614c4a600083018c61453e565b614c57602083018b6135ab565b8181036040830152614c69818a6135d8565b90508181036060830152614c7d8189613720565b90508181036080830152614c9181886136ab565b905081810360a0830152614ca58187613636565b9050614cb460c083018661453e565b614cc160e083018561453e565b818103610100830152614cd481846138ff565b90509a9950505050505050505050565b600061012082019050614cfa600083018c61453e565b614d07602083018b6135c9565b614d14604083018a61453e565b614d21606083018961453e565b614d2e608083018861453e565b614d3b60a083018761453e565b614d4860c083018661453e565b614d5560e083018561378d565b614d6361010083018461378d565b9a9950505050505050505050565b6000604082019050614d86600083018561453e565b614d93602083018461453e565b9392505050565b6000604051905081810181811067ffffffffffffffff82111715614dbd57600080fd5b8060405250919050565b600067ffffffffffffffff821115614dde57600080fd5b602082029050602081019050919050565b600067ffffffffffffffff821115614e0657600080fd5b602082029050602081019050919050565b600067ffffffffffffffff821115614e2e57600080fd5b602082029050602081019050919050565b600067ffffffffffffffff821115614e5657600080fd5b602082029050602081019050919050565b600067ffffffffffffffff821115614e7e57600080fd5b601f19601f8301169050602081019050919050565b600067ffffffffffffffff821115614eaa57600080fd5b601f19601f8301169050602081019050919050565b600067ffffffffffffffff821115614ed657600080fd5b601f19601f8301169050602081019050919050565b600067ffffffffffffffff821115614f0257600080fd5b601f19601f8301169050602081019050919050565b6000819050602082019050919050565b6000819050602082019050919050565b6000819050602082019050919050565b6000819050602082019050919050565b60008190508160005260206000209050919050565b60008190508160005260206000209050919050565b600081519050919050565b600081519050919050565b600081519050919050565b600081519050919050565b600081519050919050565b600081519050919050565b600081519050919050565b600081519050919050565b6000602082019050919050565b6000602082019050919050565b6000602082019050919050565b6000602082019050919050565b600082825260208201905092915050565b600082825260208201905092915050565b600082825260208201905092915050565b600082825260208201905092915050565b600082825260208201905092915050565b600082825260208201905092915050565b600082825260208201905092915050565b600082825260208201905092915050565b600081905092915050565b60006150ab826150db565b9050919050565b60008115159050919050565b6000819050919050565b60008190506150d68261523b565b919050565b600073ffffffffffffffffffffffffffffffffffffffff82169050919050565b6000819050919050565b600060ff82169050919050565b60006bffffffffffffffffffffffff82169050919050565b6000615135826151a8565b9050919050565b60006151478261514e565b9050919050565b6000615159826150db565b9050919050565b600061516b82615172565b9050919050565b600061517d826150db565b9050919050565b600061518f826150c8565b9050919050565b60006151a1826150fb565b9050919050565b60006151b3826151ba565b9050919050565b60006151c5826150db565b9050919050565b60006151d782615112565b9050919050565b82818337600083830152505050565b60005b8381101561520b5780820151818401526020810190506151f0565b8381111561521a576000848401525b50505050565b6000819050919050565b6000601f19601f8301169050919050565b6008811061524557fe5b50565b615251816150a0565b811461525c57600080fd5b50565b615268816150b2565b811461527357600080fd5b50565b61527f816150be565b811461528a57600080fd5b50565b615296816150fb565b81146152a157600080fd5b50565b6152ad81615105565b81146152b857600080fd5b50565b6152c481615112565b81146152cf57600080fd5b5056fea365627a7a72315820be47b03a40c1bfaf9619833b99f59d13dc69007dc6c5c14ec842a1e39ed71ec86c6578706572696d656e74616cf564736f6c63430005100040",
  "linkReferences": {},
  "deployedLinkReferences": {}
}