{
  "_format": "hh-sol-artifact-1",
  "contractName": "Governor",
  "sourceName": "contracts/Governance/Governor.sol",
  "abi": [
    {
      "inputs": [
        {
          "internalType": "address",
          "name": "timelock_",
          "type": "address"
        },
        {
          "internalType": "address",
          "name": "dclm8_",
          "type": "address"
        },
        {
          "internalType": "address",
          "name": "guardian_",
          "type": "address"
        }
      ],
      "stateMutability": "nonpayable",
      "type": "constructor"
    },
    {
      "anonymous": false,
      "inputs": [
        {
          "indexed": false,
          "internalType": "uint256",
          "name": "id",
          "type": "uint256"
        }
      ],
      "name": "ProposalCanceled",
      "type": "event"
    },
    {
      "anonymous": false,
      "inputs": [
        {
          "indexed": false,
          "internalType": "uint256",
          "name": "id",
          "type": "uint256"
        },
        {
          "indexed": false,
          "internalType": "address",
          "name": "proposer",
          "type": "address"
        },
        {
          "indexed": false,
          "internalType": "address[]",
          "name": "targets",
          "type": "address[]"
        },
        {
          "indexed": false,
          "internalType": "uint256[]",
          "name": "values",
          "type": "uint256[]"
        },
        {
          "indexed": false,
          "internalType": "string[]",
          "name": "signatures",
          "type": "string[]"
        },
        {
          "indexed": false,
          "internalType": "bytes[]",
          "name": "calldatas",
          "type": "bytes[]"
        },
        {
          "indexed": false,
          "internalType": "uint256",
          "name": "startBlock",
          "type": "uint256"
        },
        {
          "indexed": false,
          "internalType": "uint256",
          "name": "endBlock",
          "type": "uint256"
        },
        {
          "indexed": false,
          "internalType": "string",
          "name": "description",
          "type": "string"
        }
      ],
      "name": "ProposalCreated",
      "type": "event"
    },
    {
      "anonymous": false,
      "inputs": [
        {
          "indexed": false,
          "internalType": "uint256",
          "name": "id",
          "type": "uint256"
        }
      ],
      "name": "ProposalExecuted",
      "type": "event"
    },
    {
      "anonymous": false,
      "inputs": [
        {
          "indexed": false,
          "internalType": "uint256",
          "name": "id",
          "type": "uint256"
        },
        {
          "indexed": false,
          "internalType": "uint256",
          "name": "eta",
          "type": "uint256"
        }
      ],
      "name": "ProposalQueued",
      "type": "event"
    },
    {
      "anonymous": false,
      "inputs": [
        {
          "indexed": false,
          "internalType": "address",
          "name": "voter",
          "type": "address"
        },
        {
          "indexed": false,
          "internalType": "uint256",
          "name": "proposalId",
          "type": "uint256"
        },
        {
          "indexed": false,
          "internalType": "bool",
          "name": "support",
          "type": "bool"
        },
        {
          "indexed": false,
          "internalType": "uint256",
          "name": "votes",
          "type": "uint256"
        }
      ],
      "name": "VoteCast",
      "type": "event"
    },
    {
      "inputs": [],
      "name": "BALLOT_TYPEHASH",
      "outputs": [
        {
          "internalType": "bytes32",
          "name": "",
          "type": "bytes32"
        }
      ],
      "stateMutability": "view",
      "type": "function"
    },
    {
      "inputs": [],
      "name": "DOMAIN_TYPEHASH",
      "outputs": [
        {
          "internalType": "bytes32",
          "name": "",
          "type": "bytes32"
        }
      ],
      "stateMutability": "view",
      "type": "function"
    },
    {
      "inputs": [],
      "name": "__abdicate",
      "outputs": [],
      "stateMutability": "nonpayable",
      "type": "function"
    },
    {
      "inputs": [],
      "name": "__acceptAdmin",
      "outputs": [],
      "stateMutability": "nonpayable",
      "type": "function"
    },
    {
      "inputs": [
        {
          "internalType": "address",
          "name": "newPendingAdmin",
          "type": "address"
        },
        {
          "internalType": "uint256",
          "name": "eta",
          "type": "uint256"
        }
      ],
      "name": "__executeSetTimelockPendingAdmin",
      "outputs": [],
      "stateMutability": "nonpayable",
      "type": "function"
    },
    {
      "inputs": [
        {
          "internalType": "address",
          "name": "newPendingAdmin",
          "type": "address"
        },
        {
          "internalType": "uint256",
          "name": "eta",
          "type": "uint256"
        }
      ],
      "name": "__queueSetTimelockPendingAdmin",
      "outputs": [],
      "stateMutability": "nonpayable",
      "type": "function"
    },
    {
      "inputs": [
        {
          "internalType": "uint256",
          "name": "proposalId",
          "type": "uint256"
        }
      ],
      "name": "cancel",
      "outputs": [],
      "stateMutability": "nonpayable",
      "type": "function"
    },
    {
      "inputs": [
        {
          "internalType": "uint256",
          "name": "proposalId",
          "type": "uint256"
        },
        {
          "internalType": "bool",
          "name": "support",
          "type": "bool"
        },
        {
          "internalType": "uint96",
          "name": "votes",
          "type": "uint96"
        }
      ],
      "name": "castVote",
      "outputs": [],
      "stateMutability": "nonpayable",
      "type": "function"
    },
    {
      "inputs": [
        {
          "internalType": "uint256",
          "name": "proposalId",
          "type": "uint256"
        },
        {
          "internalType": "bool",
          "name": "support",
          "type": "bool"
        },
        {
          "internalType": "uint8",
          "name": "v",
          "type": "uint8"
        },
        {
          "internalType": "bytes32",
          "name": "r",
          "type": "bytes32"
        },
        {
          "internalType": "bytes32",
          "name": "s",
          "type": "bytes32"
        },
        {
          "internalType": "uint96",
          "name": "votes",
          "type": "uint96"
        }
      ],
      "name": "castVoteBySig",
      "outputs": [],
      "stateMutability": "nonpayable",
      "type": "function"
    },
    {
      "inputs": [],
      "name": "dclm8",
      "outputs": [
        {
          "internalType": "contract Dclm8Interface",
          "name": "",
          "type": "address"
        }
      ],
      "stateMutability": "view",
      "type": "function"
    },
    {
      "inputs": [
        {
          "internalType": "uint256",
          "name": "proposalId",
          "type": "uint256"
        }
      ],
      "name": "execute",
      "outputs": [],
      "stateMutability": "payable",
      "type": "function"
    },
    {
      "inputs": [
        {
          "internalType": "uint256",
          "name": "proposalId",
          "type": "uint256"
        }
      ],
      "name": "getActions",
      "outputs": [
        {
          "internalType": "address[]",
          "name": "targets",
          "type": "address[]"
        },
        {
          "internalType": "uint256[]",
          "name": "values",
          "type": "uint256[]"
        },
        {
          "internalType": "string[]",
          "name": "signatures",
          "type": "string[]"
        },
        {
          "internalType": "bytes[]",
          "name": "calldatas",
          "type": "bytes[]"
        }
      ],
      "stateMutability": "view",
      "type": "function"
    },
    {
      "inputs": [
        {
          "internalType": "uint256",
          "name": "proposalId",
          "type": "uint256"
        }
      ],
      "name": "getDescription",
      "outputs": [
        {
          "internalType": "string",
          "name": "",
          "type": "string"
        }
      ],
      "stateMutability": "view",
      "type": "function"
    },
    {
      "inputs": [
        {
          "internalType": "uint256",
          "name": "proposalId",
          "type": "uint256"
        },
        {
          "internalType": "address",
          "name": "voter",
          "type": "address"
        }
      ],
      "name": "getReceipt",
      "outputs": [
        {
          "components": [
            {
              "internalType": "bool",
              "name": "hasVoted",
              "type": "bool"
            },
            {
              "internalType": "bool",
              "name": "support",
              "type": "bool"
            },
            {
              "internalType": "uint96",
              "name": "votes",
              "type": "uint96"
            },
            {
              "internalType": "uint96",
              "name": "rawVotes",
              "type": "uint96"
            },
            {
              "internalType": "bool",
              "name": "hasRefunded",
              "type": "bool"
            }
          ],
          "internalType": "struct Governor.Receipt",
          "name": "",
          "type": "tuple"
        }
      ],
      "stateMutability": "view",
      "type": "function"
    },
    {
      "inputs": [],
      "name": "guardian",
      "outputs": [
        {
          "internalType": "address",
          "name": "",
          "type": "address"
        }
      ],
      "stateMutability": "view",
      "type": "function"
    },
    {
      "inputs": [
        {
          "internalType": "address",
          "name": "",
          "type": "address"
        }
      ],
      "name": "latestProposalIds",
      "outputs": [
        {
          "internalType": "uint256",
          "name": "",
          "type": "uint256"
        }
      ],
      "stateMutability": "view",
      "type": "function"
    },
    {
      "inputs": [],
      "name": "name",
      "outputs": [
        {
          "internalType": "string",
          "name": "",
          "type": "string"
        }
      ],
      "stateMutability": "view",
      "type": "function"
    },
    {
      "inputs": [],
      "name": "proposalCount",
      "outputs": [
        {
          "internalType": "uint256",
          "name": "",
          "type": "uint256"
        }
      ],
      "stateMutability": "view",
      "type": "function"
    },
    {
      "inputs": [],
      "name": "proposalMaxOperations",
      "outputs": [
        {
          "internalType": "uint256",
          "name": "",
          "type": "uint256"
        }
      ],
      "stateMutability": "pure",
      "type": "function"
    },
    {
      "inputs": [],
      "name": "proposalThreshold",
      "outputs": [
        {
          "internalType": "uint256",
          "name": "",
          "type": "uint256"
        }
      ],
      "stateMutability": "view",
      "type": "function"
    },
    {
      "inputs": [
        {
          "internalType": "uint256",
          "name": "",
          "type": "uint256"
        }
      ],
      "name": "proposals",
      "outputs": [
        {
          "internalType": "uint256",
          "name": "id",
          "type": "uint256"
        },
        {
          "internalType": "address",
          "name": "proposer",
          "type": "address"
        },
        {
          "internalType": "uint256",
          "name": "eta",
          "type": "uint256"
        },
        {
          "internalType": "uint256",
          "name": "startBlock",
          "type": "uint256"
        },
        {
          "internalType": "uint256",
          "name": "endBlock",
          "type": "uint256"
        },
        {
          "internalType": "uint256",
          "name": "forVotes",
          "type": "uint256"
        },
        {
          "internalType": "uint256",
          "name": "againstVotes",
          "type": "uint256"
        },
        {
          "internalType": "uint256",
          "name": "rawForVotes",
          "type": "uint256"
        },
        {
          "internalType": "uint256",
          "name": "rawAgainstVotes",
          "type": "uint256"
        },
        {
          "internalType": "bool",
          "name": "canceled",
          "type": "bool"
        },
        {
          "internalType": "bool",
          "name": "executed",
          "type": "bool"
        },
        {
          "internalType": "string",
          "name": "description",
          "type": "string"
        }
      ],
      "stateMutability": "view",
      "type": "function"
    },
    {
      "inputs": [
        {
          "internalType": "address[]",
          "name": "targets",
          "type": "address[]"
        },
        {
          "internalType": "uint256[]",
          "name": "values",
          "type": "uint256[]"
        },
        {
          "internalType": "string[]",
          "name": "signatures",
          "type": "string[]"
        },
        {
          "internalType": "bytes[]",
          "name": "calldatas",
          "type": "bytes[]"
        },
        {
          "internalType": "string",
          "name": "description",
          "type": "string"
        }
      ],
      "name": "propose",
      "outputs": [
        {
          "internalType": "uint256",
          "name": "",
          "type": "uint256"
        }
      ],
      "stateMutability": "nonpayable",
      "type": "function"
    },
    {
      "inputs": [
        {
          "internalType": "uint256",
          "name": "proposalId",
          "type": "uint256"
        }
      ],
      "name": "queue",
      "outputs": [],
      "stateMutability": "nonpayable",
      "type": "function"
    },
    {
      "inputs": [],
      "name": "quorumVotes",
      "outputs": [
        {
          "internalType": "uint256",
          "name": "",
          "type": "uint256"
        }
      ],
      "stateMutability": "view",
      "type": "function"
    },
    {
      "inputs": [
        {
          "internalType": "uint256",
          "name": "proposalId",
          "type": "uint256"
        }
      ],
      "name": "refund",
      "outputs": [],
      "stateMutability": "nonpayable",
      "type": "function"
    },
    {
      "inputs": [
        {
          "internalType": "uint256",
          "name": "_proposalThreshold",
          "type": "uint256"
        }
      ],
      "name": "setProposalThreshold",
      "outputs": [],
      "stateMutability": "nonpayable",
      "type": "function"
    },
    {
      "inputs": [
        {
          "internalType": "uint256",
          "name": "_quorum",
          "type": "uint256"
        }
      ],
      "name": "setQuorum",
      "outputs": [],
      "stateMutability": "nonpayable",
      "type": "function"
    },
    {
      "inputs": [
        {
          "internalType": "uint256",
          "name": "proposalId",
          "type": "uint256"
        }
      ],
      "name": "state",
      "outputs": [
        {
          "internalType": "enum Governor.ProposalState",
          "name": "",
          "type": "uint8"
        }
      ],
      "stateMutability": "view",
      "type": "function"
    },
    {
      "inputs": [],
      "name": "timelock",
      "outputs": [
        {
          "internalType": "contract TimelockInterface",
          "name": "",
          "type": "address"
        }
      ],
      "stateMutability": "view",
      "type": "function"
    },
    {
      "inputs": [],
      "name": "votingDelay",
      "outputs": [
        {
          "internalType": "uint256",
          "name": "",
          "type": "uint256"
        }
      ],
      "stateMutability": "pure",
      "type": "function"
    },
    {
      "inputs": [],
      "name": "votingPeriod",
      "outputs": [
        {
          "internalType": "uint256",
          "name": "",
          "type": "uint256"
        }
      ],
      "stateMutability": "pure",
      "type": "function"
    }
  ],
  "bytecode": "0x608060405264932622b00060005569152d02c7e14af68000006001553480156200002857600080fd5b5060405162003e6e38038062003e6e8339810160408190526200004b916200008e565b600280546001600160a01b039485166001600160a01b031991821617909155600380549385169382169390931790925560048054919093169116179055620000fa565b600080600060608486031215620000a3578283fd5b8351620000b081620000e1565b6020850151909350620000c381620000e1565b6040850151909250620000d681620000e1565b809150509250925092565b6001600160a01b0381168114620000f757600080fd5b50565b613d64806200010a6000396000f3fe6080604052600436106101d85760003560e01c8063760fbc1311610102578063da35c66411610095578063deaaa7cc11610064578063deaaa7cc14610515578063e23a9a521461052a578063ece40cc114610557578063fe0d94c114610577576101d8565b8063da35c664146104a0578063da95691a146104b5578063dbfa977f146104d5578063ddf0b009146104f5576101d8565b8063b58131b0116100d1578063b58131b014610441578063b9a6196114610456578063c1ba4e591461046b578063d33219b41461048b576101d8565b8063760fbc13146103e25780637bdbe4d0146103f7578063915006711461040c57806394a08d581461042c576101d8565b8063278ecde11161017a57806340e58ee51161014957806340e58ee514610360578063452a9320146103805780634925ec55146103a25780635d254608146103c2576101d8565b8063278ecde1146102ce578063328dd982146102ee5780633932abb11461031e5780633e4f49e614610333576101d8565b806317977c61116101b657806317977c611461026257806320606b701461028257806321f43e421461029757806324bc1a64146102b9576101d8565b8063013cf08b146101dd57806302a251a31461021e57806306fdde0314610240575b600080fd5b3480156101e957600080fd5b506101fd6101f8366004612ce7565b61058a565b6040516102159c9b9a99989796959493929190613be1565b60405180910390f35b34801561022a57600080fd5b506102336106af565b604051610215919061314b565b34801561024c57600080fd5b506102556106b5565b60405161021591906131c2565b34801561026e57600080fd5b5061023361027d366004612b2f565b6106e2565b34801561028e57600080fd5b506102336106f4565b3480156102a357600080fd5b506102b76102b2366004612b4a565b610718565b005b3480156102c557600080fd5b50610233610800565b3480156102da57600080fd5b506102b76102e9366004612ce7565b610806565b3480156102fa57600080fd5b5061030e610309366004612ce7565b610c03565b60405161021594939291906130f3565b34801561032a57600080fd5b50610233610e92565b34801561033f57600080fd5b5061035361034e366004612ce7565b610e97565b60405161021591906131ae565b34801561036c57600080fd5b506102b761037b366004612ce7565b611029565b34801561038c57600080fd5b50610395611292565b6040516102159190612f82565b3480156103ae57600080fd5b506102556103bd366004612ce7565b6112a1565b3480156103ce57600080fd5b506102b76103dd366004612d2b565b611345565b3480156103ee57600080fd5b506102b76114f5565b34801561040357600080fd5b50610233611531565b34801561041857600080fd5b506102b7610427366004612b4a565b611536565b34801561043857600080fd5b5061039561160c565b34801561044d57600080fd5b5061023361161b565b34801561046257600080fd5b506102b7611621565b34801561047757600080fd5b506102b7610486366004612ce7565b6116b5565b34801561049757600080fd5b506103956116e4565b3480156104ac57600080fd5b506102336116f3565b3480156104c157600080fd5b506102336104d0366004612b74565b6116f9565b3480156104e157600080fd5b506102b76104f0366004612d96565b611b5e565b34801561050157600080fd5b506102b7610510366004612ce7565b611b6a565b34801561052157600080fd5b50610233611e5b565b34801561053657600080fd5b5061054a610545366004612cff565b611e7f565b6040516102159190613afa565b34801561056357600080fd5b506102b7610572366004612ce7565b611f0e565b6102b7610585366004612ce7565b611f3d565b60066020528060005260406000206000915090508060000154908060010160009054906101000a90046001600160a01b03169080600201549080600701549080600801549080600901549080600a01549080600b01549080600c01549080600d0160009054906101000a900460ff169080600d0160019054906101000a900460ff169080600e018054600181600116156101000203166002900480601f0160208091040260200160405190810160405280929190818152602001828054600181600116156101000203166002900480156106a55780601f1061067a576101008083540402835291602001916106a5565b820191906000526020600020905b81548152906001019060200180831161068857829003601f168201915b505050505090508c565b61168090565b6040518060400160405280601181526020017021a6269c102220a79023b7bb32b93737b960791b81525081565b60076020526000908152604090205481565b7f8cad95687ba82c2ce50e74f7b754645e5117c3a5bec8151c0726d5857980a86681565b6004546001600160a01b0316331461074b5760405162461bcd60e51b8152600401610742906134d7565b60405180910390fd5b6002546040516001600160a01b0390911690630825f38f908290600090610776908790602001612f82565b604051602081830303815290604052856040518563ffffffff1660e01b81526004016107a59493929190612fd1565b600060405180830381600087803b1580156107bf57600080fd5b505af11580156107d3573d6000803e3d6000fd5b505050506040513d6000823e601f3d908101601f191682016040526107fb9190810190612c74565b505050565b60005490565b6000818152600660209081526040808320338452600f81019092529091208054600160d01b900460ff161561084d5760405162461bcd60e51b81526004016107429061399c565b600080600461085b86610e97565b600781111561086657fe5b14806108855750600361087886610e97565b600781111561088357fe5b145b801561089d575060018401546001600160a01b031633145b905080156109aa5760036108b086610e97565b60078111156108bb57fe5b1480156108d257506108cb610800565b8460090154105b156109875760006108eb6108e461161b565b6004612102565b600354604051633969f74f60e11b81529192506001600160a01b0316906372d3ee9e9061091e9030908590600401612faf565b600060405180830381600087803b15801561093857600080fd5b505af115801561094c573d6000803e3d6000fd5b50508554600160701b90046001600160601b03169150610975905061096f61161b565b8361213e565b016001600160601b03169250506109a5565b8254600160701b90046001600160601b03166109a161161b565b0191505b6109bf565b8254600160701b90046001600160601b031691505b600082116109df5760405162461bcd60e51b81526004016107429061333f565b600060016109ec87610e97565b60078111156109f757fe5b14905060006003610a0788610e97565b6007811115610a1257fe5b148015610a295750610a22610800565b8660090154105b90508180610a345750805b80610a3c5750825b610a585760405162461bcd60e51b815260040161074290613845565b60035460405163a9059cbb60e01b81526001600160a01b039091169063a9059cbb90610a8a9033908890600401612f96565b602060405180830381600087803b158015610aa457600080fd5b505af1158015610ab8573d6000803e3d6000fd5b505050506040513d601f19601f82011682018060405250810190610adc9190612c40565b508115610b6a578454610100900460ff1615610b305760098601548554610b1291906201000090046001600160601b031661213e565b6009870155600b860154610b26908561213e565b600b870155610b6a565b600a8601548554610b5091906201000090046001600160601b031661213e565b600a870155600c860154610b64908561213e565b600c8701555b8454610b85906201000090046001600160601b03168061213e565b85546dffffffffffffffffffffffff00001916620100006001600160601b039283160217808755610bbf91600160701b909104168561213e565b855460ff60ff60d01b01196001600160601b0392909216600160701b026bffffffffffffffffffffffff60701b199091161716600160d01b17909455505050505050565b60608060608060006006600087815260200190815260200160002090508060030181600401826005018360060183805480602002602001604051908101604052809291908181526020018280548015610c8557602002820191906000526020600020905b81546001600160a01b03168152600190910190602001808311610c67575b5050505050935082805480602002602001604051908101604052809291908181526020018280548015610cd757602002820191906000526020600020905b815481526020019060010190808311610cc3575b5050505050925081805480602002602001604051908101604052809291908181526020016000905b82821015610daa5760008481526020908190208301805460408051601f6002600019610100600187161502019094169390930492830185900485028101850190915281815292830182828015610d965780601f10610d6b57610100808354040283529160200191610d96565b820191906000526020600020905b815481529060010190602001808311610d7957829003601f168201915b505050505081526020019060010190610cff565b50505050915080805480602002602001604051908101604052809291908181526020016000905b82821015610e7c5760008481526020908190208301805460408051601f6002600019610100600187161502019094169390930492830185900485028101850190915281815292830182828015610e685780601f10610e3d57610100808354040283529160200191610e68565b820191906000526020600020905b815481529060010190602001808311610e4b57829003601f168201915b505050505081526020019060010190610dd1565b5050505090509450945094509450509193509193565b600190565b60008160055410158015610eab5750600082115b610ec75760405162461bcd60e51b815260040161074290613544565b6000828152600660205260409020600d81015460ff1615610eec576002915050611024565b80600701544311610f01576000915050611024565b80600801544311610f16576001915050611024565b80600a01548160090154111580610f375750610f30610800565b8160090154105b15610f46576003915050611024565b6002810154610f59576004915050611024565b600d810154610100900460ff1615610f75576007915050611024565b6110088160020154600260009054906101000a90046001600160a01b03166001600160a01b031663c1a287e26040518163ffffffff1660e01b815260040160206040518083038186803b158015610fcb57600080fd5b505afa158015610fdf573d6000803e3d6000fd5b505050506040513d601f19601f820116820180604052508101906110039190612c5c565b612166565b4210611018576006915050611024565b6005915050611024565b505b919050565b600061103482610e97565b9050600781600781111561104457fe5b14156110625760405162461bcd60e51b8152600401610742906133c5565b60008281526006602052604090206004546001600160a01b031633148061112d575061108c61161b565b6003546001838101546001600160a01b039283169263782d6fe1929116906110b590439061213e565b6040518363ffffffff1660e01b81526004016110d2929190612f96565b60206040518083038186803b1580156110ea57600080fd5b505afa1580156110fe573d6000803e3d6000fd5b505050506040513d601f19601f820116820180604052508101906111229190612dd7565b6001600160601b0316105b6111495760405162461bcd60e51b8152600401610742906138de565b600d8101805460ff1916600117905560005b6003820154811015611255576002546003830180546001600160a01b039092169163591fcdfe91908490811061118d57fe5b6000918252602090912001546004850180546001600160a01b0390921691859081106111b557fe5b90600052602060002001548560050185815481106111cf57fe5b906000526020600020018660060186815481106111e857fe5b9060005260206000200187600201546040518663ffffffff1660e01b81526004016112179594939291906130ba565b600060405180830381600087803b15801561123157600080fd5b505af1158015611245573d6000803e3d6000fd5b50506001909201915061115b9050565b507f789cf55be980739dad1d0699b93b58e806b51c9d96619bfa8fe0a28abaa7b30c83604051611285919061314b565b60405180910390a1505050565b6004546001600160a01b031681565b600081815260066020908152604091829020600e0180548351601f60026000196101006001861615020190931692909204918201849004840281018401909452808452606093928301828280156113395780601f1061130e57610100808354040283529160200191611339565b820191906000526020600020905b81548152906001019060200180831161131c57829003601f168201915b50505050509050919050565b60408051808201909152601181527021a6269c102220a79023b7bb32b93737b960791b60209091015260007f8cad95687ba82c2ce50e74f7b754645e5117c3a5bec8151c0726d5857980a8667f5c6c4638be9dacb7243638d3b44c65664c952613289876d97c23e080e4e9ff336113ba61218b565b306040516020016113ce9493929190613154565b60405160208183030381529060405280519060200120905060007f8e25870c07e0b0b3884c78da52790939a455c275406c44ae8b434b692fb916ee888860405160200161141d93929190613178565b6040516020818303038152906040528051906020012090506000828260405160200161144a929190612f67565b6040516020818303038152906040528051906020012090506000600182898989604051600081526020016040526040516114879493929190613190565b6020604051602081039080840390855afa1580156114a9573d6000803e3d6000fd5b5050604051601f1901519150506001600160a01b0381166114dc5760405162461bcd60e51b815260040161074290613a49565b6114e8818b8b8861218f565b505050505b505050505050565b6004546001600160a01b0316331461151f5760405162461bcd60e51b815260040161074290613743565b600480546001600160a01b0319169055565b600a90565b6004546001600160a01b031633146115605760405162461bcd60e51b8152600401610742906132d4565b6002546040516001600160a01b0390911690633a66f90190829060009061158b908790602001612f82565b604051602081830303815290604052856040518563ffffffff1660e01b81526004016115ba9493929190612fd1565b602060405180830381600087803b1580156115d457600080fd5b505af11580156115e8573d6000803e3d6000fd5b505050506040513d601f19601f820116820180604052508101906107fb9190612c5c565b6003546001600160a01b031681565b60015490565b6004546001600160a01b0316331461164b5760405162461bcd60e51b8152600401610742906137f1565b600260009054906101000a90046001600160a01b03166001600160a01b0316630e18b6816040518163ffffffff1660e01b8152600401600060405180830381600087803b15801561169b57600080fd5b505af11580156116af573d6000803e3d6000fd5b50505050565b6004546001600160a01b031633146116df5760405162461bcd60e51b815260040161074290613232565b600055565b6002546001600160a01b031681565b60055481565b600061170361161b565b6003546001600160a01b031663782d6fe13361172043600161213e565b6040518363ffffffff1660e01b815260040161173d929190612f96565b60206040518083038186803b15801561175557600080fd5b505afa158015611769573d6000803e3d6000fd5b505050506040513d601f19601f8201168201806040525081019061178d9190612dd7565b6001600160601b031610156117b45760405162461bcd60e51b8152600401610742906131d5565b845186511480156117c6575083518651145b80156117d3575082518651145b6117ef5760405162461bcd60e51b815260040161074290613277565b855161180d5760405162461bcd60e51b815260040161074290613416565b611815611531565b865111156118355760405162461bcd60e51b815260040161074290613382565b3360009081526007602052604090205480156118b257600061185682610e97565b9050600181600781111561186657fe5b14156118845760405162461bcd60e51b815260040161074290613588565b600081600781111561189257fe5b14156118b05760405162461bcd60e51b81526004016107429061345d565b505b6118ba61161b565b6003546040516370a0823160e01b81526001600160a01b03909116906370a08231906118ea903390600401612f82565b60206040518083038186803b15801561190257600080fd5b505afa158015611916573d6000803e3d6000fd5b505050506040513d601f19601f8201168201806040525081019061193a9190612c5c565b10156119585760405162461bcd60e51b8152600401610742906136b1565b6003546001600160a01b0316633b2d52ac3361197261161b565b6040518363ffffffff1660e01b815260040161198f929190612faf565b600060405180830381600087803b1580156119a957600080fd5b505af11580156119bd573d6000803e3d6000fd5b5050505060006119cf43611003610e92565b905060006119df826110036106af565b600580546001908101918290556000828152600660209081526040822093845591830180546001600160a01b0319163317905560028301558b519293509091611a30916003840191908d0190612698565b508851611a4690600483019060208c01906126fd565b508751611a5c90600583019060208b0190612744565b508651611a7290600683019060208a019061279d565b506007810183905560088101829055600060098201819055600a8201819055600b8201819055600c820155600d8101805461ffff191690558551611abf90600e83019060208901906127f6565b508060000154600760008360010160009054906101000a90046001600160a01b03166001600160a01b03166001600160a01b03168152602001908152602001600020819055507f7d84a6263ae0d98d3329bd7b46bb4e8d6f98cd35a7adb45c274c8b7fd5ebd5e08160000154338c8c8c8c89898e604051611b4899989796959493929190613b49565b60405180910390a1549998505050505050505050565b6107fb3384848461218f565b6004611b7582610e97565b6007811115611b8057fe5b14611b9d5760405162461bcd60e51b8152600401610742906139ec565b6000818152600660205260409020600354600b820154600c8301546001600160a01b03909216916372d3ee9e913091611bd69190612166565b6040518363ffffffff1660e01b8152600401611bf3929190612faf565b600060405180830381600087803b158015611c0d57600080fd5b505af1158015611c21573d6000803e3d6000fd5b505050506000611c7942600260009054906101000a90046001600160a01b03166001600160a01b0316636a42b8f86040518163ffffffff1660e01b815260040160206040518083038186803b158015610fcb57600080fd5b905060005b6003830154811015611e2157611e19836003018281548110611c9c57fe5b6000918252602090912001546004850180546001600160a01b039092169184908110611cc457fe5b9060005260206000200154856005018481548110611cde57fe5b600091825260209182902001805460408051601f6002600019610100600187161502019094169390930492830185900485028101850190915281815292830182828015611d6c5780601f10611d4157610100808354040283529160200191611d6c565b820191906000526020600020905b815481529060010190602001808311611d4f57829003601f168201915b5050505050866006018581548110611d8057fe5b600091825260209182902001805460408051601f6002600019610100600187161502019094169390930492830185900485028101850190915281815292830182828015611e0e5780601f10611de357610100808354040283529160200191611e0e565b820191906000526020600020905b815481529060010190602001808311611df157829003601f168201915b5050505050866124d9565b600101611c7e565b50600282018190556040517f9a2e42fd6722813d69113e7d0079d3d940171428df7373df9c7f7617cfda2892906112859085908490613c5a565b7f8e25870c07e0b0b3884c78da52790939a455c275406c44ae8b434b692fb916ee81565b611e87612863565b5060008281526006602090815260408083206001600160a01b0385168452600f01825291829020825160a081018452905460ff80821615158352610100820481161515938301939093526001600160601b03620100008204811694830194909452600160701b81049093166060820152600160d01b90920416151560808201525b92915050565b6004546001600160a01b03163314611f385760405162461bcd60e51b81526004016107429061388e565b600155565b6005611f4882610e97565b6007811115611f5357fe5b14611f705760405162461bcd60e51b815260040161074290613653565b6000818152600660205260408120600d8101805461ff001916610100179055905b60038201548110156120c6576002546004830180546001600160a01b0390921691630825f38f919084908110611fc357fe5b9060005260206000200154846003018481548110611fdd57fe5b6000918252602090912001546004860180546001600160a01b03909216918690811061200557fe5b906000526020600020015486600501868154811061201f57fe5b9060005260206000200187600601878154811061203857fe5b9060005260206000200188600201546040518763ffffffff1660e01b81526004016120679594939291906130ba565b6000604051808303818588803b15801561208057600080fd5b505af1158015612094573d6000803e3d6000fd5b50505050506040513d6000823e601f3d908101601f191682016040526120bd9190810190612c74565b50600101611f91565b507f712ae1383f79ac853f8d882153778e0260ef8f03b504e2866e0593e04d2b291f826040516120f6919061314b565b60405180910390a15050565b600061213783836040518060400160405280601081526020016f6469766973696f6e206279207a65726f60801b815250612630565b9392505050565b6000828211156121605760405162461bcd60e51b81526004016107429061396d565b50900390565b6000828201838110156121375760405162461bcd60e51b815260040161074290613718565b4690565b600161219a84610e97565b60078111156121a557fe5b146121c25760405162461bcd60e51b815260040161074290613928565b60008381526006602090815260408083206001600160a01b0388168452600f8101909252909120805460ff1615156001141561222557805460ff610100909104161515841515146122255760405162461bcd60e51b815260040161074290613a93565b8054600354600784015460405163782d6fe160e01b81526000936201000090046001600160601b0316926001600160a01b03169163782d6fe19161226d918c91600401612f96565b60206040518083038186803b15801561228557600080fd5b505afa158015612299573d6000803e3d6000fd5b505050506040513d601f19601f820116820180604052508101906122bd9190612dd7565b039050806001600160601b0316846001600160601b031611156122f25760405162461bcd60e51b815260040161074290613601565b6000612306856001600160601b0316612667565b9050851561234c576123258460090154826001600160601b0316612166565b6009850155600b840154612342906001600160601b038716612166565b600b850155612386565b61236384600a0154826001600160601b0316612166565b600a850155600c840154612380906001600160601b038716612166565b600c8501555b600354604051630ecb54ab60e21b81526001600160a01b0390911690633b2d52ac906123b8908b908990600401612faf565b600060405180830381600087803b1580156123d257600080fd5b505af11580156123e6573d6000803e3d6000fd5b50508454600160ff199091161761ff001916610100891515021780865561242292506201000090046001600160601b0390811691508316612166565b83546dffffffffffffffffffffffff00001916620100006001600160601b03928316021780855561245f91600160701b9091048116908716612166565b835460ff60d01b196001600160601b0392909216600160701b026bffffffffffffffffffffffff60701b19909116171683556040517f877856338e13f63d0c36822ff0ef736b80934cd90574a3a5bc9262c39d217c46906124c7908a908a908a90869061303d565b60405180910390a15050505050505050565b6002546040516001600160a01b039091169063f2b0653790612507908890889088908890889060200161306e565b604051602081830303815290604052805190602001206040518263ffffffff1660e01b8152600401612539919061314b565b60206040518083038186803b15801561255157600080fd5b505afa158015612565573d6000803e3d6000fd5b505050506040513d601f19601f820116820180604052508101906125899190612c40565b156125a65760405162461bcd60e51b815260040161074290613794565b600254604051633a66f90160e01b81526001600160a01b0390911690633a66f901906125de908890889088908890889060040161306e565b602060405180830381600087803b1580156125f857600080fd5b505af115801561260c573d6000803e3d6000fd5b505050506040513d601f19601f820116820180604052508101906114ed9190612c5c565b600081836126515760405162461bcd60e51b815260040161074291906131c2565b50600083858161265d57fe5b0495945050505050565b80600260018201045b818110156110225780915060028182858161268757fe5b04018161269057fe5b049050612670565b8280548282559060005260206000209081019282156126ed579160200282015b828111156126ed57825182546001600160a01b0319166001600160a01b039091161782556020909201916001909101906126b8565b506126f9929150612891565b5090565b828054828255906000526020600020908101928215612738579160200282015b8281111561273857825182559160200191906001019061271d565b506126f99291506128b0565b828054828255906000526020600020908101928215612791579160200282015b8281111561279157825180516127819184916020909101906127f6565b5091602001919060010190612764565b506126f99291506128c5565b8280548282559060005260206000209081019282156127ea579160200282015b828111156127ea57825180516127da9184916020909101906127f6565b50916020019190600101906127bd565b506126f99291506128e2565b828054600181600116156101000203166002900490600052602060002090601f016020900481019282601f1061283757805160ff1916838001178555612738565b82800160010185558215612738579182018281111561273857825182559160200191906001019061271d565b6040805160a08101825260008082526020820181905291810182905260608101829052608081019190915290565b5b808211156126f95780546001600160a01b0319168155600101612892565b5b808211156126f957600081556001016128b1565b808211156126f95760006128d982826128ff565b506001016128c5565b808211156126f95760006128f682826128ff565b506001016128e2565b50805460018160011615610100020316600290046000825580601f106129255750612943565b601f01602090049060005260206000209081019061294391906128b0565b50565b80356001600160a01b0381168114611f0857600080fd5b600082601f83011261296d578081fd5b813561298061297b82613c8f565b613c68565b8181529150602080830190848101818402860182018710156129a157600080fd5b60005b848110156129c8576129b68883612946565b845292820192908201906001016129a4565b505050505092915050565b600082601f8301126129e3578081fd5b81356129f161297b82613c8f565b818152915060208083019084810160005b848110156129c857612a19888484358a0101612ae1565b84529282019290820190600101612a02565b600082601f830112612a3b578081fd5b8135612a4961297b82613c8f565b818152915060208083019084810160005b848110156129c857612a71888484358a0101612ae1565b84529282019290820190600101612a5a565b600082601f830112612a93578081fd5b8135612aa161297b82613c8f565b818152915060208083019084810181840286018201871015612ac257600080fd5b60005b848110156129c857813584529282019290820190600101612ac5565b600082601f830112612af1578081fd5b8135612aff61297b82613caf565b9150808252836020828501011115612b1657600080fd5b8060208401602084013760009082016020015292915050565b600060208284031215612b40578081fd5b6121378383612946565b60008060408385031215612b5c578081fd5b612b668484612946565b946020939093013593505050565b600080600080600060a08688031215612b8b578081fd5b853567ffffffffffffffff80821115612ba2578283fd5b612bae89838a0161295d565b96506020880135915080821115612bc3578283fd5b612bcf89838a01612a83565b95506040880135915080821115612be4578283fd5b612bf089838a01612a2b565b94506060880135915080821115612c05578283fd5b612c1189838a016129d3565b93506080880135915080821115612c26578283fd5b50612c3388828901612ae1565b9150509295509295909350565b600060208284031215612c51578081fd5b815161213781613d0b565b600060208284031215612c6d578081fd5b5051919050565b600060208284031215612c85578081fd5b815167ffffffffffffffff811115612c9b578182fd5b8201601f81018413612cab578182fd5b8051612cb961297b82613caf565b818152856020838501011115612ccd578384fd5b612cde826020830160208601613cdf565b95945050505050565b600060208284031215612cf8578081fd5b5035919050565b60008060408385031215612d11578182fd5b82359150612d228460208501612946565b90509250929050565b60008060008060008060c08789031215612d43578384fd5b863595506020870135612d5581613d0b565b9450604087013560ff81168114612d6a578485fd5b9350606087013592506080870135915060a0870135612d8881613d19565b809150509295509295509295565b600080600060608486031215612daa578081fd5b833592506020840135612dbc81613d0b565b91506040840135612dcc81613d19565b809150509250925092565b600060208284031215612de8578081fd5b815161213781613d19565b6000815180845260208085019450808401835b83811015612e2b5781516001600160a01b031687529582019590820190600101612e06565b509495945050505050565b6000815180845260208085018081965082840281019150828601855b85811015612e7c578284038952612e6a848351612eb8565b98850198935090840190600101612e52565b5091979650505050505050565b6000815180845260208085019450808401835b83811015612e2b57815187529582019590820190600101612e9c565b60008151808452612ed0816020860160208601613cdf565b601f01601f19169290920160200192915050565b60008154600180821660008114612f025760018114612f2057612f5e565b60028304607f16865260ff1983166020870152604086019350612f5e565b60028304808752612f3086613cd3565b60005b82811015612f545781546020828b0101528482019150602081019050612f33565b8801602001955050505b50505092915050565b61190160f01b81526002810192909252602282015260420190565b6001600160a01b0391909116815260200190565b6001600160a01b03929092168252602082015260400190565b6001600160a01b039290921682526001600160601b0316602082015260400190565b600060018060a01b038616825284602083015260a06040830152601860a08301527f73657450656e64696e6741646d696e286164647265737329000000000000000060c083015260e0606083015261302c60e0830185612eb8565b905082608083015295945050505050565b6001600160a01b039490941684526020840192909252151560408301526001600160601b0316606082015260800190565b600060018060a01b038716825285602083015260a0604083015261309560a0830186612eb8565b82810360608401526130a78186612eb8565b9150508260808301529695505050505050565b600060018060a01b038716825285602083015260a060408301526130e160a0830186612ee4565b82810360608401526130a78186612ee4565b6000608082526131066080830187612df3565b82810360208401526131188187612e89565b9050828103604084015261312c8186612e36565b905082810360608401526131408185612e36565b979650505050505050565b90815260200190565b938452602084019290925260408301526001600160a01b0316606082015260800190565b92835260208301919091521515604082015260600190565b93845260ff9290921660208401526040830152606082015260800190565b60208101600883106131bc57fe5b91905290565b6000602082526121376020830184612eb8565b6020808252603a908201527f476f7665726e6f723a3a70726f706f73653a2070726f706f73657220766f746560408201527f732062656c6f772070726f706f73616c207468726573686f6c64000000000000606082015260800190565b60208082526025908201527f476f7665726e6f723a3a73657451756f72756d3a206d75737420626520677561604082015264393234b0b760d91b606082015260800190565b6020808252603f908201527f476f7665726e6f723a3a70726f706f73653a2070726f706f73616c2066756e6360408201527f74696f6e20696e666f726d6174696f6e206172697479206d69736d6174636800606082015260800190565b60208082526045908201527f476f7665726e6f723a3a5f5f717565756553657454696d656c6f636b50656e6460408201527f696e6741646d696e3a2073656e646572206d75737420626520676f7620677561606082015264393234b0b760d91b608082015260a00190565b60208082526023908201527f476f7665726e6f723a3a726566756e643a206e6f7468696e6720746f207265666040820152621d5b9960ea1b606082015260800190565b60208082526023908201527f476f7665726e6f723a3a70726f706f73653a20746f6f206d616e7920616374696040820152626f6e7360e81b606082015260800190565b60208082526031908201527f476f7665726e6f723a3a63616e63656c3a2063616e6e6f742063616e63656c20604082015270195e1958dd5d1959081c1c9bdc1bdcd85b607a1b606082015260800190565b60208082526027908201527f476f7665726e6f723a3a70726f706f73653a206d7573742070726f7669646520604082015266616374696f6e7360c81b606082015260800190565b60208082526054908201527f476f7665726e6f723a3a70726f706f73653a206f6e65206c6976652070726f7060408201527f6f73616c207065722070726f706f7365722c20666f756e6420616e20616c726560608201527318591e481c195b991a5b99c81c1c9bdc1bdcd85b60621b608082015260a00190565b60208082526047908201527f476f7665726e6f723a3a5f5f6578656375746553657454696d656c6f636b506560408201527f6e64696e6741646d696e3a2073656e646572206d75737420626520676f7620676060820152663ab0b93234b0b760c91b608082015260a00190565b60208082526024908201527f476f7665726e6f723a3a73746174653a20696e76616c69642070726f706f73616040820152631b081a5960e21b606082015260800190565b60208082526053908201527f476f7665726e6f723a3a70726f706f73653a206f6e65206c6976652070726f7060408201527f6f73616c207065722070726f706f7365722c20666f756e6420616e20616c726560608201527218591e481858dd1a5d99481c1c9bdc1bdcd85b606a1b608082015260a00190565b60208082526032908201527f476f7665726e6f723a3a5f63617374566f74653a20766f746573206578636565604082015271191cc8195b1a59da589b1948185b5bdd5b9d60721b606082015260800190565b602080825260409082018190527f476f7665726e6f723a3a657865637574653a2070726f706f73616c2063616e20908201527f6f6e6c7920626520657865637574656420696620697420697320717565756564606082015260800190565b60208082526041908201527f476f7665726e6f723a3a70726f706f73653a206e6f7420656e6f75676820626160408201527f6c616e636520746f206c6f636b2064434c4d3820776974682070726f706f73616060820152601b60fa1b608082015260a00190565b6020808252601190820152706164646974696f6e206f766572666c6f7760781b604082015260600190565b60208082526031908201527f476f7665726e6f723a3a5f5f61626469636174653a2073656e646572206d75736040820152703a1031329033b7bb1033bab0b93234b0b760791b606082015260800190565b6020808252603f908201527f476f7665726e6f723a3a5f71756575654f725265766572743a2070726f706f7360408201527f616c20616374696f6e20616c7265616479207175657565642061742065746100606082015260800190565b60208082526034908201527f476f7665726e6f723a3a5f5f61636365707441646d696e3a2073656e6465722060408201527336bab9ba1031329033b7bb1033bab0b93234b0b760611b606082015260800190565b60208082526029908201527f476f7665726e6f723a3a726566756e643a206e6f7420656c696769626c6520666040820152681bdc881c99599d5b9960ba1b606082015260800190565b60208082526030908201527f476f7665726e6f723a3a73657450726f706f73616c5468726573686f6c643a2060408201526f36bab9ba1031329033bab0b93234b0b760811b606082015260800190565b6020808252602a908201527f476f7665726e6f723a3a63616e63656c3a2070726f706f7365722061626f7665604082015269081d1a1c995cda1bdb1960b21b606082015260800190565b60208082526025908201527f476f7665726e6f723a3a5f63617374566f74653a20766f74696e6720697320636040820152641b1bdcd95960da1b606082015260800190565b6020808252601590820152747375627472616374696f6e20756e646572666c6f7760581b604082015260600190565b60208082526030908201527f476f7665726e6f723a3a726566756e643a20616c726561647920726566756e6460408201526f1959081d1a1a5cc81c1c9bdc1bdcd85b60821b606082015260800190565b6020808252603f908201527f476f7665726e6f723a3a71756575653a2070726f706f73616c2063616e206f6e60408201527f6c79206265207175657565642069662069742069732073756363656564656400606082015260800190565b6020808252602a908201527f476f7665726e6f723a3a63617374566f746542795369673a20696e76616c6964604082015269207369676e617475726560b01b606082015260800190565b60208082526041908201527f476f7665726e6f723a3a5f63617374566f74653a2063616e206f6e6c7920746f60408201527f70206f66662073616d6520766f746520776974686f757420726566756e64696e6060820152606760f81b608082015260a00190565b600060a08201905082511515825260208301511515602083015260408301516001600160601b038082166040850152806060860151166060850152505060808301511515608083015292915050565b8981526001600160a01b038916602082015261012060408201819052600090613b748382018b612df3565b90508281036060840152613b88818a612e89565b90508281036080840152613b9c8189612e36565b905082810360a0840152613bb08188612e36565b90508560c08401528460e0840152828103610100840152613bd18185612eb8565b9c9b505050505050505050505050565b60006101808e835260018060a01b038e1660208401528c60408401528b60608401528a60808401528960a08401528860c08401528760e08401528661010084015285151561012084015284151561014084015280610160840152613c4781840185612eb8565b9f9e505050505050505050505050505050565b918252602082015260400190565b60405181810167ffffffffffffffff81118282101715613c8757600080fd5b604052919050565b600067ffffffffffffffff821115613ca5578081fd5b5060209081020190565b600067ffffffffffffffff821115613cc5578081fd5b50601f01601f191660200190565b60009081526020902090565b60005b83811015613cfa578181015183820152602001613ce2565b838111156116af5750506000910152565b801515811461294357600080fd5b6001600160601b038116811461294357600080fdfea2646970667358221220033fae05b0bb4edb36c178d01fec2f6fe2089a8caf551982c3d44bd038537b2964736f6c63430007000033",
  "linkReferences": {},
  "deployedLinkReferences": {}
}