{
  "_format": "hh-sol-artifact-1",
  "contractName": "Governor",
  "sourceName": "contracts/Governance/Governor.sol",
  "abi": [
    {
      "inputs": [
        {
          "internalType": "address",
          "name": "timelock_",
          "type": "address"
        },
        {
          "internalType": "address",
          "name": "dclm8_",
          "type": "address"
        },
        {
          "internalType": "address",
          "name": "guardian_",
          "type": "address"
        }
      ],
      "stateMutability": "nonpayable",
      "type": "constructor"
    },
    {
      "anonymous": false,
      "inputs": [
        {
          "indexed": false,
          "internalType": "uint256",
          "name": "id",
          "type": "uint256"
        }
      ],
      "name": "ProposalCanceled",
      "type": "event"
    },
    {
      "anonymous": false,
      "inputs": [
        {
          "indexed": false,
          "internalType": "uint256",
          "name": "id",
          "type": "uint256"
        },
        {
          "indexed": false,
          "internalType": "address",
          "name": "proposer",
          "type": "address"
        },
        {
          "indexed": false,
          "internalType": "address[]",
          "name": "targets",
          "type": "address[]"
        },
        {
          "indexed": false,
          "internalType": "uint256[]",
          "name": "values",
          "type": "uint256[]"
        },
        {
          "indexed": false,
          "internalType": "string[]",
          "name": "signatures",
          "type": "string[]"
        },
        {
          "indexed": false,
          "internalType": "bytes[]",
          "name": "calldatas",
          "type": "bytes[]"
        },
        {
          "indexed": false,
          "internalType": "uint256",
          "name": "startBlock",
          "type": "uint256"
        },
        {
          "indexed": false,
          "internalType": "uint256",
          "name": "endBlock",
          "type": "uint256"
        },
        {
          "indexed": false,
          "internalType": "string",
          "name": "description",
          "type": "string"
        }
      ],
      "name": "ProposalCreated",
      "type": "event"
    },
    {
      "anonymous": false,
      "inputs": [
        {
          "indexed": false,
          "internalType": "uint256",
          "name": "id",
          "type": "uint256"
        }
      ],
      "name": "ProposalExecuted",
      "type": "event"
    },
    {
      "anonymous": false,
      "inputs": [
        {
          "indexed": false,
          "internalType": "uint256",
          "name": "id",
          "type": "uint256"
        },
        {
          "indexed": false,
          "internalType": "uint256",
          "name": "eta",
          "type": "uint256"
        }
      ],
      "name": "ProposalQueued",
      "type": "event"
    },
    {
      "anonymous": false,
      "inputs": [
        {
          "indexed": false,
          "internalType": "address",
          "name": "voter",
          "type": "address"
        },
        {
          "indexed": false,
          "internalType": "uint256",
          "name": "proposalId",
          "type": "uint256"
        },
        {
          "indexed": false,
          "internalType": "bool",
          "name": "support",
          "type": "bool"
        },
        {
          "indexed": false,
          "internalType": "uint256",
          "name": "votes",
          "type": "uint256"
        }
      ],
      "name": "VoteCast",
      "type": "event"
    },
    {
      "inputs": [],
      "name": "BALLOT_TYPEHASH",
      "outputs": [
        {
          "internalType": "bytes32",
          "name": "",
          "type": "bytes32"
        }
      ],
      "stateMutability": "view",
      "type": "function"
    },
    {
      "inputs": [],
      "name": "DOMAIN_TYPEHASH",
      "outputs": [
        {
          "internalType": "bytes32",
          "name": "",
          "type": "bytes32"
        }
      ],
      "stateMutability": "view",
      "type": "function"
    },
    {
      "inputs": [],
      "name": "__abdicate",
      "outputs": [],
      "stateMutability": "nonpayable",
      "type": "function"
    },
    {
      "inputs": [],
      "name": "__acceptAdmin",
      "outputs": [],
      "stateMutability": "nonpayable",
      "type": "function"
    },
    {
      "inputs": [
        {
          "internalType": "address",
          "name": "newPendingAdmin",
          "type": "address"
        },
        {
          "internalType": "uint256",
          "name": "eta",
          "type": "uint256"
        }
      ],
      "name": "__executeSetTimelockPendingAdmin",
      "outputs": [],
      "stateMutability": "nonpayable",
      "type": "function"
    },
    {
      "inputs": [
        {
          "internalType": "address",
          "name": "newPendingAdmin",
          "type": "address"
        },
        {
          "internalType": "uint256",
          "name": "eta",
          "type": "uint256"
        }
      ],
      "name": "__queueSetTimelockPendingAdmin",
      "outputs": [],
      "stateMutability": "nonpayable",
      "type": "function"
    },
    {
      "inputs": [
        {
          "internalType": "uint256",
          "name": "proposalId",
          "type": "uint256"
        }
      ],
      "name": "cancel",
      "outputs": [],
      "stateMutability": "nonpayable",
      "type": "function"
    },
    {
      "inputs": [
        {
          "internalType": "uint256",
          "name": "proposalId",
          "type": "uint256"
        },
        {
          "internalType": "bool",
          "name": "support",
          "type": "bool"
        },
        {
          "internalType": "uint96",
          "name": "votes",
          "type": "uint96"
        }
      ],
      "name": "castVote",
      "outputs": [],
      "stateMutability": "nonpayable",
      "type": "function"
    },
    {
      "inputs": [
        {
          "internalType": "uint256",
          "name": "proposalId",
          "type": "uint256"
        },
        {
          "internalType": "bool",
          "name": "support",
          "type": "bool"
        },
        {
          "internalType": "uint8",
          "name": "v",
          "type": "uint8"
        },
        {
          "internalType": "bytes32",
          "name": "r",
          "type": "bytes32"
        },
        {
          "internalType": "bytes32",
          "name": "s",
          "type": "bytes32"
        },
        {
          "internalType": "uint96",
          "name": "votes",
          "type": "uint96"
        }
      ],
      "name": "castVoteBySig",
      "outputs": [],
      "stateMutability": "nonpayable",
      "type": "function"
    },
    {
      "inputs": [],
      "name": "dclm8",
      "outputs": [
        {
          "internalType": "contract Dclm8Interface",
          "name": "",
          "type": "address"
        }
      ],
      "stateMutability": "view",
      "type": "function"
    },
    {
      "inputs": [
        {
          "internalType": "uint256",
          "name": "proposalId",
          "type": "uint256"
        }
      ],
      "name": "execute",
      "outputs": [],
      "stateMutability": "payable",
      "type": "function"
    },
    {
      "inputs": [
        {
          "internalType": "uint256",
          "name": "proposalId",
          "type": "uint256"
        }
      ],
      "name": "getActions",
      "outputs": [
        {
          "internalType": "address[]",
          "name": "targets",
          "type": "address[]"
        },
        {
          "internalType": "uint256[]",
          "name": "values",
          "type": "uint256[]"
        },
        {
          "internalType": "string[]",
          "name": "signatures",
          "type": "string[]"
        },
        {
          "internalType": "bytes[]",
          "name": "calldatas",
          "type": "bytes[]"
        }
      ],
      "stateMutability": "view",
      "type": "function"
    },
    {
      "inputs": [
        {
          "internalType": "uint256",
          "name": "proposalId",
          "type": "uint256"
        }
      ],
      "name": "getDescription",
      "outputs": [
        {
          "internalType": "string",
          "name": "",
          "type": "string"
        }
      ],
      "stateMutability": "view",
      "type": "function"
    },
    {
      "inputs": [
        {
          "internalType": "uint256",
          "name": "proposalId",
          "type": "uint256"
        },
        {
          "internalType": "address",
          "name": "voter",
          "type": "address"
        }
      ],
      "name": "getReceipt",
      "outputs": [
        {
          "components": [
            {
              "internalType": "bool",
              "name": "hasVoted",
              "type": "bool"
            },
            {
              "internalType": "bool",
              "name": "support",
              "type": "bool"
            },
            {
              "internalType": "uint96",
              "name": "votes",
              "type": "uint96"
            },
            {
              "internalType": "uint96",
              "name": "rawVotes",
              "type": "uint96"
            },
            {
              "internalType": "bool",
              "name": "hasVotesRefunded",
              "type": "bool"
            },
            {
              "internalType": "bool",
              "name": "hasStakeRefunded",
              "type": "bool"
            },
            {
              "internalType": "uint256",
              "name": "endVotesCancelPeriodBlock",
              "type": "uint256"
            }
          ],
          "internalType": "struct Governor.Receipt",
          "name": "",
          "type": "tuple"
        }
      ],
      "stateMutability": "view",
      "type": "function"
    },
    {
      "inputs": [],
      "name": "guardian",
      "outputs": [
        {
          "internalType": "address",
          "name": "",
          "type": "address"
        }
      ],
      "stateMutability": "view",
      "type": "function"
    },
    {
      "inputs": [
        {
          "internalType": "address",
          "name": "",
          "type": "address"
        }
      ],
      "name": "latestProposalIds",
      "outputs": [
        {
          "internalType": "uint256",
          "name": "",
          "type": "uint256"
        }
      ],
      "stateMutability": "view",
      "type": "function"
    },
    {
      "inputs": [],
      "name": "name",
      "outputs": [
        {
          "internalType": "string",
          "name": "",
          "type": "string"
        }
      ],
      "stateMutability": "view",
      "type": "function"
    },
    {
      "inputs": [],
      "name": "proposalCount",
      "outputs": [
        {
          "internalType": "uint256",
          "name": "",
          "type": "uint256"
        }
      ],
      "stateMutability": "view",
      "type": "function"
    },
    {
      "inputs": [],
      "name": "proposalMaxOperations",
      "outputs": [
        {
          "internalType": "uint256",
          "name": "",
          "type": "uint256"
        }
      ],
      "stateMutability": "pure",
      "type": "function"
    },
    {
      "inputs": [],
      "name": "proposalThreshold",
      "outputs": [
        {
          "internalType": "uint256",
          "name": "",
          "type": "uint256"
        }
      ],
      "stateMutability": "view",
      "type": "function"
    },
    {
      "inputs": [
        {
          "internalType": "uint256",
          "name": "",
          "type": "uint256"
        }
      ],
      "name": "proposals",
      "outputs": [
        {
          "internalType": "uint256",
          "name": "id",
          "type": "uint256"
        },
        {
          "internalType": "address",
          "name": "proposer",
          "type": "address"
        },
        {
          "internalType": "uint256",
          "name": "eta",
          "type": "uint256"
        },
        {
          "internalType": "uint256",
          "name": "startBlock",
          "type": "uint256"
        },
        {
          "internalType": "uint256",
          "name": "endBlock",
          "type": "uint256"
        },
        {
          "internalType": "uint256",
          "name": "forVotes",
          "type": "uint256"
        },
        {
          "internalType": "uint256",
          "name": "againstVotes",
          "type": "uint256"
        },
        {
          "internalType": "uint256",
          "name": "rawForVotes",
          "type": "uint256"
        },
        {
          "internalType": "uint256",
          "name": "rawAgainstVotes",
          "type": "uint256"
        },
        {
          "internalType": "bool",
          "name": "canceled",
          "type": "bool"
        },
        {
          "internalType": "bool",
          "name": "executed",
          "type": "bool"
        },
        {
          "internalType": "string",
          "name": "description",
          "type": "string"
        },
        {
          "internalType": "uint256",
          "name": "parentProposalId",
          "type": "uint256"
        }
      ],
      "stateMutability": "view",
      "type": "function"
    },
    {
      "inputs": [
        {
          "internalType": "address[]",
          "name": "targets",
          "type": "address[]"
        },
        {
          "internalType": "uint256[]",
          "name": "values",
          "type": "uint256[]"
        },
        {
          "internalType": "string[]",
          "name": "signatures",
          "type": "string[]"
        },
        {
          "internalType": "bytes[]",
          "name": "calldatas",
          "type": "bytes[]"
        },
        {
          "internalType": "string",
          "name": "description",
          "type": "string"
        }
      ],
      "name": "propose",
      "outputs": [
        {
          "internalType": "uint256",
          "name": "",
          "type": "uint256"
        }
      ],
      "stateMutability": "nonpayable",
      "type": "function"
    },
    {
      "inputs": [
        {
          "internalType": "address[]",
          "name": "targets",
          "type": "address[]"
        },
        {
          "internalType": "uint256[]",
          "name": "values",
          "type": "uint256[]"
        },
        {
          "internalType": "string[]",
          "name": "signatures",
          "type": "string[]"
        },
        {
          "internalType": "bytes[]",
          "name": "calldatas",
          "type": "bytes[]"
        },
        {
          "internalType": "string[]",
          "name": "descriptions",
          "type": "string[]"
        }
      ],
      "name": "proposeMultiAttribute",
      "outputs": [
        {
          "internalType": "uint256",
          "name": "",
          "type": "uint256"
        }
      ],
      "stateMutability": "nonpayable",
      "type": "function"
    },
    {
      "inputs": [
        {
          "internalType": "uint256",
          "name": "proposalId",
          "type": "uint256"
        }
      ],
      "name": "queue",
      "outputs": [],
      "stateMutability": "nonpayable",
      "type": "function"
    },
    {
      "inputs": [],
      "name": "quorumVotes",
      "outputs": [
        {
          "internalType": "uint256",
          "name": "",
          "type": "uint256"
        }
      ],
      "stateMutability": "view",
      "type": "function"
    },
    {
      "inputs": [
        {
          "internalType": "uint256",
          "name": "proposalId",
          "type": "uint256"
        }
      ],
      "name": "refund",
      "outputs": [],
      "stateMutability": "nonpayable",
      "type": "function"
    },
    {
      "inputs": [
        {
          "internalType": "uint256",
          "name": "_proposalThreshold",
          "type": "uint256"
        }
      ],
      "name": "setProposalThreshold",
      "outputs": [],
      "stateMutability": "nonpayable",
      "type": "function"
    },
    {
      "inputs": [
        {
          "internalType": "uint256",
          "name": "_quorum",
          "type": "uint256"
        }
      ],
      "name": "setQuorum",
      "outputs": [],
      "stateMutability": "nonpayable",
      "type": "function"
    },
    {
      "inputs": [
        {
          "internalType": "uint256",
          "name": "proposalId",
          "type": "uint256"
        }
      ],
      "name": "state",
      "outputs": [
        {
          "internalType": "enum Governor.ProposalState",
          "name": "",
          "type": "uint8"
        }
      ],
      "stateMutability": "view",
      "type": "function"
    },
    {
      "inputs": [],
      "name": "timelock",
      "outputs": [
        {
          "internalType": "contract TimelockInterface",
          "name": "",
          "type": "address"
        }
      ],
      "stateMutability": "view",
      "type": "function"
    },
    {
      "inputs": [],
      "name": "votesCancelPeriod",
      "outputs": [
        {
          "internalType": "uint256",
          "name": "",
          "type": "uint256"
        }
      ],
      "stateMutability": "pure",
      "type": "function"
    },
    {
      "inputs": [],
      "name": "votingDelay",
      "outputs": [
        {
          "internalType": "uint256",
          "name": "",
          "type": "uint256"
        }
      ],
      "stateMutability": "pure",
      "type": "function"
    },
    {
      "inputs": [],
      "name": "votingPeriod",
      "outputs": [
        {
          "internalType": "uint256",
          "name": "",
          "type": "uint256"
        }
      ],
      "stateMutability": "pure",
      "type": "function"
    }
  ],
  "bytecode": "0x608060405264932622b00060005569152d02c7e14af68000006001553480156200002857600080fd5b506040516200427b3803806200427b8339810160408190526200004b916200008e565b600280546001600160a01b039485166001600160a01b031991821617909155600380549385169382169390931790925560048054919093169116179055620000fa565b600080600060608486031215620000a3578283fd5b8351620000b081620000e1565b6020850151909350620000c381620000e1565b6040850151909250620000d681620000e1565b809150509250925092565b6001600160a01b0381168114620000f757600080fd5b50565b614171806200010a6000396000f3fe6080604052600436106101ee5760003560e01c806372c3e0c31161010d578063d33219b4116100a0578063ddf0b0091161006f578063ddf0b00914610541578063deaaa7cc14610561578063e23a9a5214610576578063ece40cc1146105a3578063fe0d94c1146105c3576101ee565b8063d33219b4146104d7578063da35c664146104ec578063da95691a14610501578063dbfa977f14610521576101ee565b806394a08d58116100dc57806394a08d5814610478578063b58131b01461048d578063b9a61961146104a2578063c1ba4e59146104b7576101ee565b806372c3e0c31461040e578063760fbc131461042e5780637bdbe4d0146104435780639150067114610458576101ee565b8063328dd98211610185578063452a932011610154578063452a93201461039757806345982a23146103b95780634925ec55146103ce5780635d254608146103ee576101ee565b8063328dd982146103055780633932abb1146103355780633e4f49e61461034a57806340e58ee514610377576101ee565b806320606b70116101c157806320606b701461029957806321f43e42146102ae57806324bc1a64146102d0578063278ecde1146102e5576101ee565b8063013cf08b146101f357806302a251a31461023557806306fdde031461025757806317977c6114610279575b600080fd5b3480156101ff57600080fd5b5061021361020e36600461315f565b6105d6565b60405161022c9d9c9b9a99989796959493929190613fe5565b60405180910390f35b34801561024157600080fd5b5061024a610701565b60405161022c91906135c3565b34801561026357600080fd5b5061026c610707565b60405161022c919061363a565b34801561028557600080fd5b5061024a610294366004612ee8565b610734565b3480156102a557600080fd5b5061024a610746565b3480156102ba57600080fd5b506102ce6102c9366004612f03565b61076a565b005b3480156102dc57600080fd5b5061024a610852565b3480156102f157600080fd5b506102ce61030036600461315f565b610858565b34801561031157600080fd5b5061032561032036600461315f565b610da0565b60405161022c949392919061356b565b34801561034157600080fd5b5061024a61102f565b34801561035657600080fd5b5061036a61036536600461315f565b611034565b60405161022c9190613626565b34801561038357600080fd5b506102ce61039236600461315f565b6111d2565b3480156103a357600080fd5b506103ac6113a2565b60405161022c91906133fa565b3480156103c557600080fd5b5061024a6113b1565b3480156103da57600080fd5b5061026c6103e936600461315f565b6113b7565b3480156103fa57600080fd5b506102ce6104093660046131a3565b61145b565b34801561041a57600080fd5b5061024a610429366004612f2d565b61160b565b34801561043a57600080fd5b506102ce611894565b34801561044f57600080fd5b5061024a6118d0565b34801561046457600080fd5b506102ce610473366004612f03565b6118d5565b34801561048457600080fd5b506103ac6119ab565b34801561049957600080fd5b5061024a6119ba565b3480156104ae57600080fd5b506102ce6119c0565b3480156104c357600080fd5b506102ce6104d236600461315f565b611a54565b3480156104e357600080fd5b506103ac611a83565b3480156104f857600080fd5b5061024a611a92565b34801561050d57600080fd5b5061024a61051c366004612ff9565b611a98565b34801561052d57600080fd5b506102ce61053c36600461320e565b611e56565b34801561054d57600080fd5b506102ce61055c36600461315f565b611e62565b34801561056d57600080fd5b5061024a612163565b34801561058257600080fd5b50610596610591366004613177565b612187565b60405161022c9190613ee8565b3480156105af57600080fd5b506102ce6105be36600461315f565b612231565b6102ce6105d136600461315f565b612260565b60066020528060005260406000206000915090508060000154908060010160009054906101000a90046001600160a01b03169080600201549080600701549080600801549080600901549080600a01549080600b01549080600c01549080600d0160009054906101000a900460ff169080600d0160019054906101000a900460ff169080600e018054600181600116156101000203166002900480601f0160208091040260200160405190810160405280929190818152602001828054600181600116156101000203166002900480156106f15780601f106106c6576101008083540402835291602001916106f1565b820191906000526020600020905b8154815290600101906020018083116106d457829003601f168201915b50505050509080600f015490508d565b61168090565b6040518060400160405280601181526020017021a6269c102220a79023b7bb32b93737b960791b81525081565b60076020526000908152604090205481565b7f8cad95687ba82c2ce50e74f7b754645e5117c3a5bec8151c0726d5857980a86681565b6004546001600160a01b0316331461079d5760405162461bcd60e51b8152600401610794906138cf565b60405180910390fd5b6002546040516001600160a01b0390911690630825f38f9082906000906107c89087906020016133fa565b604051602081830303815290604052856040518563ffffffff1660e01b81526004016107f79493929190613449565b600060405180830381600087803b15801561081157600080fd5b505af1158015610825573d6000803e3d6000fd5b505050506040513d6000823e601f3d908101601f1916820160405261084d91908101906130ec565b505050565b60005490565b6000818152600660209081526040808320338452601181019092529091208054600160d01b900460ff16158061089757508054600160d81b900460ff16155b6108b35760405162461bcd60e51b815260040161079490613d8a565b60016108be84611034565b60088111156108c957fe5b14156108f35780600101544311156108f35760405162461bcd60e51b815260040161079490613bc4565b80546001830154600091600160d81b900460ff16906001600160a01b0316331480156109325750600461092586611034565b600881111561093057fe5b145b1561094f5760405162461bcd60e51b815260040161079490613c31565b60018401546000906001600160a01b031633148015610a165750600561097487611034565b600881111561097f57fe5b148061099e5750600661099187611034565b600881111561099c57fe5b145b806109bc575060086109af87611034565b60088111156109ba57fe5b145b806109da575060046109cd87611034565b60088111156109d857fe5b145b806109f8575060036109eb87611034565b60088111156109f657fe5b145b80610a1657506002610a0987611034565b6008811115610a1457fe5b145b90508015610b53576005610a2987611034565b6008811115610a3457fe5b1480610a5357506006610a4687611034565b6008811115610a5157fe5b145b80610a7157506008610a6487611034565b6008811115610a6f57fe5b145b15610aa6578354600290600160701b90046001600160601b0316610a936119ba565b0160030281610a9e57fe5b049250610b4a565b6000610ad4610acd610ab66119ba565b8754600160701b90046001600160601b0316612425565b6004612451565b600354604051633969f74f60e11b81529192506001600160a01b0316906372d3ee9e90610b079030908590600401613427565b600060405180830381600087803b158015610b2157600080fd5b505af1158015610b35573d6000803e3d6000fd5b50505050806003026001600160601b03169350505b60019150610bd4565b6001610b5e87611034565b6008811115610b6957fe5b1415610bbf578354600090610b8f90600160701b90046001600160601b03166014612451565b8554909150610bae90600160701b90046001600160601b031682612486565b6001600160601b0316935050610bd4565b8354600160701b90046001600160601b031692505b60008311610bf45760405162461bcd60e51b8152600401610794906137b7565b60006001610c0188611034565b6008811115610c0c57fe5b14905060006003610c1c89611034565b6008811115610c2757fe5b1490508180610c335750805b80610c3b5750825b610c575760405162461bcd60e51b815260040161079490613c31565b60035460405163a9059cbb60e01b81526001600160a01b039091169063a9059cbb90610c89903390899060040161340e565b602060405180830381600087803b158015610ca357600080fd5b505af1158015610cb7573d6000803e3d6000fd5b505050506040513d601f19601f82011682018060405250810190610cdb91906130b8565b508115610d69578554610100900460ff1615610d2f5760098701548654610d1191906201000090046001600160601b0316612486565b6009880155600b870154610d259086612486565b600b880155610d69565b600a8701548654610d4f91906201000090046001600160601b0316612486565b600a880155600c870154610d639086612486565b600c8801555b50508354911515600160d81b0260ff60d81b1961ff01600160d81b0319909316600160d01b17929092169190911790925550505050565b60608060608060006006600087815260200190815260200160002090508060030181600401826005018360060183805480602002602001604051908101604052809291908181526020018280548015610e2257602002820191906000526020600020905b81546001600160a01b03168152600190910190602001808311610e04575b5050505050935082805480602002602001604051908101604052809291908181526020018280548015610e7457602002820191906000526020600020905b815481526020019060010190808311610e60575b5050505050925081805480602002602001604051908101604052809291908181526020016000905b82821015610f475760008481526020908190208301805460408051601f6002600019610100600187161502019094169390930492830185900485028101850190915281815292830182828015610f335780601f10610f0857610100808354040283529160200191610f33565b820191906000526020600020905b815481529060010190602001808311610f1657829003601f168201915b505050505081526020019060010190610e9c565b50505050915080805480602002602001604051908101604052809291908181526020016000905b828210156110195760008481526020908190208301805460408051601f60026000196101006001871615020190941693909304928301859004850281018501909152818152928301828280156110055780601f10610fda57610100808354040283529160200191611005565b820191906000526020600020905b815481529060010190602001808311610fe857829003601f168201915b505050505081526020019060010190610f6e565b5050505090509450945094509450509193509193565b600190565b600081600554101580156110485750600082115b6110645760405162461bcd60e51b81526004016107949061393c565b6000828152600660205260409020600d81015460ff16156110895760029150506111cd565b8060070154431161109e5760009150506111cd565b806008015443116110b35760019150506111cd565b6110bb610852565b81600a015482600901540110156110d65760039150506111cd565b80600a01548160090154116110ef5760049150506111cd565b60028101546111025760059150506111cd565b600d810154610100900460ff161561111e5760089150506111cd565b6111b18160020154600260009054906101000a90046001600160a01b03166001600160a01b031663c1a287e26040518163ffffffff1660e01b815260040160206040518083038186803b15801561117457600080fd5b505afa158015611188573d6000803e3d6000fd5b505050506040513d601f19601f820116820180604052508101906111ac91906130d4565b612425565b42106111c15760079150506111cd565b60069150506111cd565b505b919050565b60006111dd82611034565b905060018160088111156111ed57fe5b1461120a5760405162461bcd60e51b81526004016107949061383d565b60008281526006602052604090206004546001600160a01b031633148061123d575060018101546001600160a01b031633145b6112595760405162461bcd60e51b815260040161079490613c7a565b600d8101805460ff1916600117905560005b6003820154811015611365576002546003830180546001600160a01b039092169163591fcdfe91908490811061129d57fe5b6000918252602090912001546004850180546001600160a01b0390921691859081106112c557fe5b90600052602060002001548560050185815481106112df57fe5b906000526020600020018660060186815481106112f857fe5b9060005260206000200187600201546040518663ffffffff1660e01b8152600401611327959493929190613532565b600060405180830381600087803b15801561134157600080fd5b505af1158015611355573d6000803e3d6000fd5b50506001909201915061126b9050565b507f789cf55be980739dad1d0699b93b58e806b51c9d96619bfa8fe0a28abaa7b30c8360405161139591906135c3565b60405180910390a1505050565b6004546001600160a01b031681565b61014090565b600081815260066020908152604091829020600e0180548351601f600260001961010060018616150201909316929092049182018490048402810184019094528084526060939283018282801561144f5780601f106114245761010080835404028352916020019161144f565b820191906000526020600020905b81548152906001019060200180831161143257829003601f168201915b50505050509050919050565b60408051808201909152601181527021a6269c102220a79023b7bb32b93737b960791b60209091015260007f8cad95687ba82c2ce50e74f7b754645e5117c3a5bec8151c0726d5857980a8667f5c6c4638be9dacb7243638d3b44c65664c952613289876d97c23e080e4e9ff336114d06124ae565b306040516020016114e494939291906135cc565b60405160208183030381529060405280519060200120905060007f8e25870c07e0b0b3884c78da52790939a455c275406c44ae8b434b692fb916ee8888604051602001611533939291906135f0565b604051602081830303815290604052805190602001209050600082826040516020016115609291906133df565b60405160208183030381529060405280519060200120905060006001828989896040516000815260200160405260405161159d9493929190613608565b6020604051602081039080840390855afa1580156115bf573d6000803e3d6000fd5b5050604051601f1901519150506001600160a01b0381166115f25760405162461bcd60e51b815260040161079490613e37565b6115fe818b8b886124b2565b505050505b505050505050565b6000815186511461162e5760405162461bcd60e51b8152600401610794906136ef565b6060865167ffffffffffffffff8111801561164857600080fd5b50604051908082528060200260200182016040528015611672578160200160208202803683370190505b50905060005b87518110156118695760408051600180825281830190925260609160208083019080368337505060408051600180825281830190925292935060609291506020808301908036833750506040805160018082528183019092529293506060929150602082015b60608152602001906001900390816116de57505060408051600180825281830190925291925060609190602082015b606081526020019060019003908161170d5790505090508b858151811061173057fe5b60200260200101518460008151811061174557fe5b60200260200101906001600160a01b031690816001600160a01b0316815250508a858151811061177157fe5b60200260200101518360008151811061178657fe5b60200260200101818152505089858151811061179e57fe5b6020026020010151826000815181106117b357fe5b60200260200101819052508885815181106117ca57fe5b6020026020010151816000815181106117df57fe5b6020026020010181905250600061180c858585858d8b815181106117ff57fe5b6020026020010151611a98565b90508087878151811061181b57fe5b6020908102919091010152851561185857600081815260066020526040812088519091899161184657fe5b602002602001015181600f0181905550505b505060019093019250611678915050565b506118738161280e565b8060008151811061188057fe5b602002602001015191505095945050505050565b6004546001600160a01b031633146118be5760405162461bcd60e51b815260040161079490613ac2565b600480546001600160a01b0319169055565b600a90565b6004546001600160a01b031633146118ff5760405162461bcd60e51b81526004016107949061374c565b6002546040516001600160a01b0390911690633a66f90190829060009061192a9087906020016133fa565b604051602081830303815290604052856040518563ffffffff1660e01b81526004016119599493929190613449565b602060405180830381600087803b15801561197357600080fd5b505af1158015611987573d6000803e3d6000fd5b505050506040513d601f19601f8201168201806040525081019061084d91906130d4565b6003546001600160a01b031681565b60015490565b6004546001600160a01b031633146119ea5760405162461bcd60e51b815260040161079490613b70565b600260009054906101000a90046001600160a01b03166001600160a01b0316630e18b6816040518163ffffffff1660e01b8152600401600060405180830381600087803b158015611a3a57600080fd5b505af1158015611a4e573d6000803e3d6000fd5b50505050565b6004546001600160a01b03163314611a7e5760405162461bcd60e51b8152600401610794906136aa565b600055565b6002546001600160a01b031681565b60055481565b6000611aa26119ba565b6003546001600160a01b031663782d6fe133611abf436001612486565b6040518363ffffffff1660e01b8152600401611adc92919061340e565b60206040518083038186803b158015611af457600080fd5b505afa158015611b08573d6000803e3d6000fd5b505050506040513d601f19601f82011682018060405250810190611b2c919061324f565b6001600160601b03161015611b535760405162461bcd60e51b81526004016107949061364d565b84518651148015611b65575083518651145b8015611b72575082518651145b611b8e5760405162461bcd60e51b8152600401610794906136ef565b8551611bac5760405162461bcd60e51b815260040161079490613888565b611bb46118d0565b86511115611bd45760405162461bcd60e51b8152600401610794906137fa565b611bdc6119ba565b6003546040516370a0823160e01b81526001600160a01b03909116906370a0823190611c0c9033906004016133fa565b60206040518083038186803b158015611c2457600080fd5b505afa158015611c38573d6000803e3d6000fd5b505050506040513d601f19601f82011682018060405250810190611c5c91906130d4565b1015611c7a5760405162461bcd60e51b815260040161079490613a30565b6003546001600160a01b0316633b2d52ac33611c946119ba565b6040518363ffffffff1660e01b8152600401611cb1929190613427565b600060405180830381600087803b158015611ccb57600080fd5b505af1158015611cdf573d6000803e3d6000fd5b505050506000611cf1436111ac61102f565b90506000611d01826111ac610701565b600580546001908101918290556000828152600660209081526040822093845591830180546001600160a01b0319163317905560028301558a519293509091611d52916003840191908c0190612a43565b508751611d6890600483019060208b0190612aa8565b508651611d7e90600583019060208a0190612aef565b508551611d949060068301906020890190612b48565b506007810183905560088101829055600060098201819055600a8201819055600b8201819055600c820155600d8101805461ffff191690558451611de190600e8301906020880190612ba1565b50805460018201546001600160a01b031660009081526007602052604090819020829055517f7d84a6263ae0d98d3329bd7b46bb4e8d6f98cd35a7adb45c274c8b7fd5ebd5e091611e419133908d908d908d908d908b908b908f90613f4d565b60405180910390a15498975050505050505050565b61084d338484846124b2565b6005611e6d82611034565b6008811115611e7857fe5b14611e955760405162461bcd60e51b815260040161079490613dda565b6000818152600660205260409020600354600b820154600c8301546001600160a01b03909216916372d3ee9e913091611ede91611ed191612425565b611ed96119ba565b612486565b6040518363ffffffff1660e01b8152600401611efb929190613427565b600060405180830381600087803b158015611f1557600080fd5b505af1158015611f29573d6000803e3d6000fd5b505050506000611f8142600260009054906101000a90046001600160a01b03166001600160a01b0316636a42b8f86040518163ffffffff1660e01b815260040160206040518083038186803b15801561117457600080fd5b905060005b600383015481101561212957612121836003018281548110611fa457fe5b6000918252602090912001546004850180546001600160a01b039092169184908110611fcc57fe5b9060005260206000200154856005018481548110611fe657fe5b600091825260209182902001805460408051601f60026000196101006001871615020190941693909304928301859004850281018501909152818152928301828280156120745780601f1061204957610100808354040283529160200191612074565b820191906000526020600020905b81548152906001019060200180831161205757829003601f168201915b505050505086600601858154811061208857fe5b600091825260209182902001805460408051601f60026000196101006001871615020190941693909304928301859004850281018501909152818152928301828280156121165780601f106120eb57610100808354040283529160200191612116565b820191906000526020600020905b8154815290600101906020018083116120f957829003601f168201915b505050505086612884565b600101611f86565b50600282018190556040517f9a2e42fd6722813d69113e7d0079d3d940171428df7373df9c7f7617cfda2892906113959085908490614067565b7f8e25870c07e0b0b3884c78da52790939a455c275406c44ae8b434b692fb916ee81565b61218f612c0e565b5060008281526006602090815260408083206001600160a01b0385168452601101825291829020825160e081018452815460ff80821615158352610100820481161515948301949094526001600160601b03620100008204811695830195909552600160701b81049094166060820152600160d01b8404831615156080820152600160d81b909304909116151560a08301526001015460c08201525b92915050565b6004546001600160a01b0316331461225b5760405162461bcd60e51b815260040161079490613cc6565b600155565b600661226b82611034565b600881111561227657fe5b146122935760405162461bcd60e51b8152600401610794906139d2565b6000818152600660205260408120600d8101805461ff001916610100179055905b60038201548110156123e9576002546004830180546001600160a01b0390921691630825f38f9190849081106122e657fe5b906000526020600020015484600301848154811061230057fe5b6000918252602090912001546004860180546001600160a01b03909216918690811061232857fe5b906000526020600020015486600501868154811061234257fe5b9060005260206000200187600601878154811061235b57fe5b9060005260206000200188600201546040518763ffffffff1660e01b815260040161238a959493929190613532565b6000604051808303818588803b1580156123a357600080fd5b505af11580156123b7573d6000803e3d6000fd5b50505050506040513d6000823e601f3d908101601f191682016040526123e091908101906130ec565b506001016122b4565b507f712ae1383f79ac853f8d882153778e0260ef8f03b504e2866e0593e04d2b291f8260405161241991906135c3565b60405180910390a15050565b60008282018381101561244a5760405162461bcd60e51b815260040161079490613a97565b9392505050565b600061244a83836040518060400160405280601081526020016f6469766973696f6e206279207a65726f60801b8152506129db565b6000828211156124a85760405162461bcd60e51b815260040161079490613d5b565b50900390565b4690565b60016124bd84611034565b60088111156124c857fe5b146124e55760405162461bcd60e51b815260040161079490613d16565b60008381526006602090815260408083206001600160a01b038816845260118101909252909120805460ff1615156001141561254857805460ff610100909104161515841515146125485760405162461bcd60e51b815260040161079490613e81565b8054600354600784015460405163782d6fe160e01b81526000936201000090046001600160601b0316926001600160a01b03169163782d6fe191612590918c9160040161340e565b60206040518083038186803b1580156125a857600080fd5b505afa1580156125bc573d6000803e3d6000fd5b505050506040513d601f19601f820116820180604052508101906125e0919061324f565b039050806001600160601b0316846001600160601b031611156126155760405162461bcd60e51b815260040161079490613980565b6000612629856001600160601b0316612a12565b9050851561266f576126488460090154826001600160601b0316612425565b6009850155600b840154612665906001600160601b038716612425565b600b8501556126a9565b61268684600a0154826001600160601b0316612425565b600a850155600c8401546126a3906001600160601b038716612425565b600c8501555b600354604051630ecb54ab60e21b81526001600160a01b0390911690633b2d52ac906126db908b908990600401613427565b600060405180830381600087803b1580156126f557600080fd5b505af1158015612709573d6000803e3d6000fd5b50508454600160ff199091161761ff001916610100891515021780865561274592506201000090046001600160601b0390811691508316612425565b83546dffffffffffffffffffffffff00001916620100006001600160601b03928316021780855561278291600160701b9091048116908716612425565b835461ffff60d01b196001600160601b0392909216600160701b026bffffffffffffffffffffffff60701b19909116171683556127c1436111ac6113b1565b60018401556040517f877856338e13f63d0c36822ff0ef736b80934cd90574a3a5bc9262c39d217c46906127fc908a908a908a9086906134b5565b60405180910390a15050505050505050565b6000600660008360008151811061282157fe5b6020026020010151815260200190815260200160002090506000600190505b825181101561084d578160100183828151811061285957fe5b6020908102919091018101518254600181810185556000948552929093209092019190915501612840565b6002546040516001600160a01b039091169063f2b06537906128b290889088908890889088906020016134e6565b604051602081830303815290604052805190602001206040518263ffffffff1660e01b81526004016128e491906135c3565b60206040518083038186803b1580156128fc57600080fd5b505afa158015612910573d6000803e3d6000fd5b505050506040513d601f19601f8201168201806040525081019061293491906130b8565b156129515760405162461bcd60e51b815260040161079490613b13565b600254604051633a66f90160e01b81526001600160a01b0390911690633a66f9019061298990889088908890889088906004016134e6565b602060405180830381600087803b1580156129a357600080fd5b505af11580156129b7573d6000803e3d6000fd5b505050506040513d601f19601f8201168201806040525081019061160391906130d4565b600081836129fc5760405162461bcd60e51b8152600401610794919061363a565b506000838581612a0857fe5b0495945050505050565b80600260018201045b818110156111cb57809150600281828581612a3257fe5b040181612a3b57fe5b049050612a1b565b828054828255906000526020600020908101928215612a98579160200282015b82811115612a9857825182546001600160a01b0319166001600160a01b03909116178255602090920191600190910190612a63565b50612aa4929150612c4a565b5090565b828054828255906000526020600020908101928215612ae3579160200282015b82811115612ae3578251825591602001919060010190612ac8565b50612aa4929150612c69565b828054828255906000526020600020908101928215612b3c579160200282015b82811115612b3c5782518051612b2c918491602090910190612ba1565b5091602001919060010190612b0f565b50612aa4929150612c7e565b828054828255906000526020600020908101928215612b95579160200282015b82811115612b955782518051612b85918491602090910190612ba1565b5091602001919060010190612b68565b50612aa4929150612c9b565b828054600181600116156101000203166002900490600052602060002090601f016020900481019282601f10612be257805160ff1916838001178555612ae3565b82800160010185558215612ae35791820182811115612ae3578251825591602001919060010190612ac8565b6040805160e081018252600080825260208201819052918101829052606081018290526080810182905260a0810182905260c081019190915290565b5b80821115612aa45780546001600160a01b0319168155600101612c4b565b5b80821115612aa45760008155600101612c6a565b80821115612aa4576000612c928282612cb8565b50600101612c7e565b80821115612aa4576000612caf8282612cb8565b50600101612c9b565b50805460018160011615610100020316600290046000825580601f10612cde5750612cfc565b601f016020900490600052602060002090810190612cfc9190612c69565b50565b80356001600160a01b038116811461222b57600080fd5b600082601f830112612d26578081fd5b8135612d39612d348261409c565b614075565b818152915060208083019084810181840286018201871015612d5a57600080fd5b60005b84811015612d8157612d6f8883612cff565b84529282019290820190600101612d5d565b505050505092915050565b600082601f830112612d9c578081fd5b8135612daa612d348261409c565b818152915060208083019084810160005b84811015612d8157612dd2888484358a0101612e9a565b84529282019290820190600101612dbb565b600082601f830112612df4578081fd5b8135612e02612d348261409c565b818152915060208083019084810160005b84811015612d8157612e2a888484358a0101612e9a565b84529282019290820190600101612e13565b600082601f830112612e4c578081fd5b8135612e5a612d348261409c565b818152915060208083019084810181840286018201871015612e7b57600080fd5b60005b84811015612d8157813584529282019290820190600101612e7e565b600082601f830112612eaa578081fd5b8135612eb8612d34826140bc565b9150808252836020828501011115612ecf57600080fd5b8060208401602084013760009082016020015292915050565b600060208284031215612ef9578081fd5b61244a8383612cff565b60008060408385031215612f15578081fd5b612f1f8484612cff565b946020939093013593505050565b600080600080600060a08688031215612f44578081fd5b853567ffffffffffffffff80821115612f5b578283fd5b612f6789838a01612d16565b96506020880135915080821115612f7c578283fd5b612f8889838a01612e3c565b95506040880135915080821115612f9d578283fd5b612fa989838a01612de4565b94506060880135915080821115612fbe578283fd5b612fca89838a01612d8c565b93506080880135915080821115612fdf578283fd5b50612fec88828901612de4565b9150509295509295909350565b600080600080600060a08688031215613010578081fd5b853567ffffffffffffffff80821115613027578283fd5b61303389838a01612d16565b96506020880135915080821115613048578283fd5b61305489838a01612e3c565b95506040880135915080821115613069578283fd5b61307589838a01612de4565b9450606088013591508082111561308a578283fd5b61309689838a01612d8c565b935060808801359150808211156130ab578283fd5b50612fec88828901612e9a565b6000602082840312156130c9578081fd5b815161244a81614118565b6000602082840312156130e5578081fd5b5051919050565b6000602082840312156130fd578081fd5b815167ffffffffffffffff811115613113578182fd5b8201601f81018413613123578182fd5b8051613131612d34826140bc565b818152856020838501011115613145578384fd5b6131568260208301602086016140ec565b95945050505050565b600060208284031215613170578081fd5b5035919050565b60008060408385031215613189578182fd5b8235915061319a8460208501612cff565b90509250929050565b60008060008060008060c087890312156131bb578384fd5b8635955060208701356131cd81614118565b9450604087013560ff811681146131e2578485fd5b9350606087013592506080870135915060a087013561320081614126565b809150509295509295509295565b600080600060608486031215613222578081fd5b83359250602084013561323481614118565b9150604084013561324481614126565b809150509250925092565b600060208284031215613260578081fd5b815161244a81614126565b6000815180845260208085019450808401835b838110156132a35781516001600160a01b03168752958201959082019060010161327e565b509495945050505050565b6000815180845260208085018081965082840281019150828601855b858110156132f45782840389526132e2848351613330565b988501989350908401906001016132ca565b5091979650505050505050565b6000815180845260208085019450808401835b838110156132a357815187529582019590820190600101613314565b600081518084526133488160208601602086016140ec565b601f01601f19169290920160200192915050565b6000815460018082166000811461337a5760018114613398576133d6565b60028304607f16865260ff19831660208701526040860193506133d6565b600283048087526133a8866140e0565b60005b828110156133cc5781546020828b01015284820191506020810190506133ab565b8801602001955050505b50505092915050565b61190160f01b81526002810192909252602282015260420190565b6001600160a01b0391909116815260200190565b6001600160a01b03929092168252602082015260400190565b6001600160a01b039290921682526001600160601b0316602082015260400190565b600060018060a01b038616825284602083015260a06040830152601860a08301527f73657450656e64696e6741646d696e286164647265737329000000000000000060c083015260e060608301526134a460e0830185613330565b905082608083015295945050505050565b6001600160a01b039490941684526020840192909252151560408301526001600160601b0316606082015260800190565b600060018060a01b038716825285602083015260a0604083015261350d60a0830186613330565b828103606084015261351f8186613330565b9150508260808301529695505050505050565b600060018060a01b038716825285602083015260a0604083015261355960a083018661335c565b828103606084015261351f818661335c565b60006080825261357e608083018761326b565b82810360208401526135908187613301565b905082810360408401526135a481866132ae565b905082810360608401526135b881856132ae565b979650505050505050565b90815260200190565b938452602084019290925260408301526001600160a01b0316606082015260800190565b92835260208301919091521515604082015260600190565b93845260ff9290921660208401526040830152606082015260800190565b602081016009831061363457fe5b91905290565b60006020825261244a6020830184613330565b6020808252603a908201527f476f7665726e6f723a3a70726f706f73653a2070726f706f73657220766f746560408201527f732062656c6f772070726f706f73616c207468726573686f6c64000000000000606082015260800190565b60208082526025908201527f476f7665726e6f723a3a73657451756f72756d3a206d75737420626520677561604082015264393234b0b760d91b606082015260800190565b6020808252603f908201527f476f7665726e6f723a3a70726f706f73653a2070726f706f73616c2066756e6360408201527f74696f6e20696e666f726d6174696f6e206172697479206d69736d6174636800606082015260800190565b60208082526045908201527f476f7665726e6f723a3a5f5f717565756553657454696d656c6f636b50656e6460408201527f696e6741646d696e3a2073656e646572206d75737420626520676f7620677561606082015264393234b0b760d91b608082015260a00190565b60208082526023908201527f476f7665726e6f723a3a726566756e643a206e6f7468696e6720746f207265666040820152621d5b9960ea1b606082015260800190565b60208082526023908201527f476f7665726e6f723a3a70726f706f73653a20746f6f206d616e7920616374696040820152626f6e7360e81b606082015260800190565b6020808252602b908201527f476f7665726e6f723a3a63616e63656c3a2070726f706f73616c2073686f756c60408201526a642062652061637469766560a81b606082015260800190565b60208082526027908201527f476f7665726e6f723a3a70726f706f73653a206d7573742070726f7669646520604082015266616374696f6e7360c81b606082015260800190565b60208082526047908201527f476f7665726e6f723a3a5f5f6578656375746553657454696d656c6f636b506560408201527f6e64696e6741646d696e3a2073656e646572206d75737420626520676f7620676060820152663ab0b93234b0b760c91b608082015260a00190565b60208082526024908201527f476f7665726e6f723a3a73746174653a20696e76616c69642070726f706f73616040820152631b081a5960e21b606082015260800190565b60208082526032908201527f476f7665726e6f723a3a5f63617374566f74653a20766f746573206578636565604082015271191cc8195b1a59da589b1948185b5bdd5b9d60721b606082015260800190565b602080825260409082018190527f476f7665726e6f723a3a657865637574653a2070726f706f73616c2063616e20908201527f6f6e6c7920626520657865637574656420696620697420697320717565756564606082015260800190565b60208082526041908201527f476f7665726e6f723a3a70726f706f73653a206e6f7420656e6f75676820626160408201527f6c616e636520746f206c6f636b2064434c4d3820776974682070726f706f73616060820152601b60fa1b608082015260a00190565b6020808252601190820152706164646974696f6e206f766572666c6f7760781b604082015260600190565b60208082526031908201527f476f7665726e6f723a3a5f5f61626469636174653a2073656e646572206d75736040820152703a1031329033b7bb1033bab0b93234b0b760791b606082015260800190565b6020808252603f908201527f476f7665726e6f723a3a5f71756575654f725265766572743a2070726f706f7360408201527f616c20616374696f6e20616c7265616479207175657565642061742065746100606082015260800190565b60208082526034908201527f476f7665726e6f723a3a5f5f61636365707441646d696e3a2073656e6465722060408201527336bab9ba1031329033b7bb1033bab0b93234b0b760611b606082015260800190565b60208082526047908201527f476f7665726e6f723a3a726566756e643a206e6f7420656c696769626c65206660408201527f6f7220726566756e642c20766f7465732063616e63656c20706572696f6420696060820152661cc8195b99195960ca1b608082015260a00190565b60208082526029908201527f476f7665726e6f723a3a726566756e643a206e6f7420656c696769626c6520666040820152681bdc881c99599d5b9960ba1b606082015260800190565b6020808252602c908201527f476f7665726e6f723a3a63616e63656c3a20796f752063616e6e6f742063616e60408201526b18d95b081c1c9bdc1bdcd85b60a21b606082015260800190565b60208082526030908201527f476f7665726e6f723a3a73657450726f706f73616c5468726573686f6c643a2060408201526f36bab9ba1031329033bab0b93234b0b760811b606082015260800190565b60208082526025908201527f476f7665726e6f723a3a5f63617374566f74653a20766f74696e6720697320636040820152641b1bdcd95960da1b606082015260800190565b6020808252601590820152747375627472616374696f6e20756e646572666c6f7760581b604082015260600190565b60208082526030908201527f476f7665726e6f723a3a726566756e643a20616c726561647920726566756e6460408201526f1959081d1a1a5cc81c1c9bdc1bdcd85b60821b606082015260800190565b6020808252603f908201527f476f7665726e6f723a3a71756575653a2070726f706f73616c2063616e206f6e60408201527f6c79206265207175657565642069662069742069732073756363656564656400606082015260800190565b6020808252602a908201527f476f7665726e6f723a3a63617374566f746542795369673a20696e76616c6964604082015269207369676e617475726560b01b606082015260800190565b60208082526041908201527f476f7665726e6f723a3a5f63617374566f74653a2063616e206f6e6c7920746f60408201527f70206f66662073616d6520766f746520776974686f757420726566756e64696e6060820152606760f81b608082015260a00190565b600060e08201905082511515825260208301511515602083015260408301516001600160601b038082166040850152806060860151166060850152505060808301511515608083015260a0830151151560a083015260c083015160c083015292915050565b8981526001600160a01b038916602082015261012060408201819052600090613f788382018b61326b565b90508281036060840152613f8c818a613301565b90508281036080840152613fa081896132ae565b905082810360a0840152613fb481886132ae565b90508560c08401528460e0840152828103610100840152613fd58185613330565b9c9b505050505050505050505050565b60006101a08f835260018060a01b038f1660208401528d60408401528c60608401528b60808401528a60a08401528960c08401528860e0840152876101008401528615156101208401528515156101408401528061016084015261404b81840186613330565b915050826101808301529e9d5050505050505050505050505050565b918252602082015260400190565b60405181810167ffffffffffffffff8111828210171561409457600080fd5b604052919050565b600067ffffffffffffffff8211156140b2578081fd5b5060209081020190565b600067ffffffffffffffff8211156140d2578081fd5b50601f01601f191660200190565b60009081526020902090565b60005b838110156141075781810151838201526020016140ef565b83811115611a4e5750506000910152565b8015158114612cfc57600080fd5b6001600160601b0381168114612cfc57600080fdfea2646970667358221220fc0075bb4e949396a3fd63dcfecf6230b9f7218a5d6c022dd166fe9e4a6ca25d64736f6c63430007000033",
  "linkReferences": {},
  "deployedLinkReferences": {}
}