{
  "_format": "hh-sol-artifact-1",
  "contractName": "Governor",
  "sourceName": "contracts/Governance/Governor.sol",
  "abi": [
    {
      "inputs": [
        {
          "internalType": "address",
          "name": "timelock_",
          "type": "address"
        },
        {
          "internalType": "address",
          "name": "dclm8_",
          "type": "address"
        },
        {
          "internalType": "address",
          "name": "guardian_",
          "type": "address"
        }
      ],
      "stateMutability": "nonpayable",
      "type": "constructor"
    },
    {
      "anonymous": false,
      "inputs": [
        {
          "indexed": false,
          "internalType": "uint256",
          "name": "id",
          "type": "uint256"
        }
      ],
      "name": "ProposalCanceled",
      "type": "event"
    },
    {
      "anonymous": false,
      "inputs": [
        {
          "indexed": false,
          "internalType": "uint256",
          "name": "id",
          "type": "uint256"
        },
        {
          "indexed": false,
          "internalType": "address",
          "name": "proposer",
          "type": "address"
        },
        {
          "indexed": false,
          "internalType": "address[]",
          "name": "targets",
          "type": "address[]"
        },
        {
          "indexed": false,
          "internalType": "uint256[]",
          "name": "values",
          "type": "uint256[]"
        },
        {
          "indexed": false,
          "internalType": "string[]",
          "name": "signatures",
          "type": "string[]"
        },
        {
          "indexed": false,
          "internalType": "bytes[]",
          "name": "calldatas",
          "type": "bytes[]"
        },
        {
          "indexed": false,
          "internalType": "uint256",
          "name": "startBlock",
          "type": "uint256"
        },
        {
          "indexed": false,
          "internalType": "uint256",
          "name": "endBlock",
          "type": "uint256"
        },
        {
          "indexed": false,
          "internalType": "string",
          "name": "description",
          "type": "string"
        }
      ],
      "name": "ProposalCreated",
      "type": "event"
    },
    {
      "anonymous": false,
      "inputs": [
        {
          "indexed": false,
          "internalType": "uint256",
          "name": "id",
          "type": "uint256"
        }
      ],
      "name": "ProposalExecuted",
      "type": "event"
    },
    {
      "anonymous": false,
      "inputs": [
        {
          "indexed": false,
          "internalType": "uint256",
          "name": "id",
          "type": "uint256"
        },
        {
          "indexed": false,
          "internalType": "uint256",
          "name": "eta",
          "type": "uint256"
        }
      ],
      "name": "ProposalQueued",
      "type": "event"
    },
    {
      "anonymous": false,
      "inputs": [
        {
          "indexed": false,
          "internalType": "address",
          "name": "voter",
          "type": "address"
        },
        {
          "indexed": false,
          "internalType": "uint256",
          "name": "proposalId",
          "type": "uint256"
        },
        {
          "indexed": false,
          "internalType": "bool",
          "name": "support",
          "type": "bool"
        },
        {
          "indexed": false,
          "internalType": "uint256",
          "name": "votes",
          "type": "uint256"
        }
      ],
      "name": "VoteCast",
      "type": "event"
    },
    {
      "inputs": [],
      "name": "BALLOT_TYPEHASH",
      "outputs": [
        {
          "internalType": "bytes32",
          "name": "",
          "type": "bytes32"
        }
      ],
      "stateMutability": "view",
      "type": "function"
    },
    {
      "inputs": [],
      "name": "DOMAIN_TYPEHASH",
      "outputs": [
        {
          "internalType": "bytes32",
          "name": "",
          "type": "bytes32"
        }
      ],
      "stateMutability": "view",
      "type": "function"
    },
    {
      "inputs": [],
      "name": "__abdicate",
      "outputs": [],
      "stateMutability": "nonpayable",
      "type": "function"
    },
    {
      "inputs": [],
      "name": "__acceptAdmin",
      "outputs": [],
      "stateMutability": "nonpayable",
      "type": "function"
    },
    {
      "inputs": [
        {
          "internalType": "address",
          "name": "newPendingAdmin",
          "type": "address"
        },
        {
          "internalType": "uint256",
          "name": "eta",
          "type": "uint256"
        }
      ],
      "name": "__executeSetTimelockPendingAdmin",
      "outputs": [],
      "stateMutability": "nonpayable",
      "type": "function"
    },
    {
      "inputs": [
        {
          "internalType": "address",
          "name": "newPendingAdmin",
          "type": "address"
        },
        {
          "internalType": "uint256",
          "name": "eta",
          "type": "uint256"
        }
      ],
      "name": "__queueSetTimelockPendingAdmin",
      "outputs": [],
      "stateMutability": "nonpayable",
      "type": "function"
    },
    {
      "inputs": [
        {
          "internalType": "uint256",
          "name": "proposalId",
          "type": "uint256"
        }
      ],
      "name": "cancel",
      "outputs": [],
      "stateMutability": "nonpayable",
      "type": "function"
    },
    {
      "inputs": [
        {
          "internalType": "uint256",
          "name": "proposalId",
          "type": "uint256"
        },
        {
          "internalType": "bool",
          "name": "support",
          "type": "bool"
        },
        {
          "internalType": "uint96",
          "name": "votes",
          "type": "uint96"
        }
      ],
      "name": "castVote",
      "outputs": [],
      "stateMutability": "nonpayable",
      "type": "function"
    },
    {
      "inputs": [
        {
          "internalType": "uint256",
          "name": "proposalId",
          "type": "uint256"
        },
        {
          "internalType": "bool",
          "name": "support",
          "type": "bool"
        },
        {
          "internalType": "uint8",
          "name": "v",
          "type": "uint8"
        },
        {
          "internalType": "bytes32",
          "name": "r",
          "type": "bytes32"
        },
        {
          "internalType": "bytes32",
          "name": "s",
          "type": "bytes32"
        },
        {
          "internalType": "uint96",
          "name": "votes",
          "type": "uint96"
        }
      ],
      "name": "castVoteBySig",
      "outputs": [],
      "stateMutability": "nonpayable",
      "type": "function"
    },
    {
      "inputs": [],
      "name": "dclm8",
      "outputs": [
        {
          "internalType": "contract Dclm8Interface",
          "name": "",
          "type": "address"
        }
      ],
      "stateMutability": "view",
      "type": "function"
    },
    {
      "inputs": [
        {
          "internalType": "uint256",
          "name": "proposalId",
          "type": "uint256"
        }
      ],
      "name": "execute",
      "outputs": [],
      "stateMutability": "payable",
      "type": "function"
    },
    {
      "inputs": [
        {
          "internalType": "uint256",
          "name": "proposalId",
          "type": "uint256"
        }
      ],
      "name": "getActions",
      "outputs": [
        {
          "internalType": "address[]",
          "name": "targets",
          "type": "address[]"
        },
        {
          "internalType": "uint256[]",
          "name": "values",
          "type": "uint256[]"
        },
        {
          "internalType": "string[]",
          "name": "signatures",
          "type": "string[]"
        },
        {
          "internalType": "bytes[]",
          "name": "calldatas",
          "type": "bytes[]"
        }
      ],
      "stateMutability": "view",
      "type": "function"
    },
    {
      "inputs": [
        {
          "internalType": "uint256",
          "name": "proposalId",
          "type": "uint256"
        }
      ],
      "name": "getDescription",
      "outputs": [
        {
          "internalType": "string",
          "name": "",
          "type": "string"
        }
      ],
      "stateMutability": "view",
      "type": "function"
    },
    {
      "inputs": [
        {
          "internalType": "uint256",
          "name": "proposalId",
          "type": "uint256"
        },
        {
          "internalType": "address",
          "name": "voter",
          "type": "address"
        }
      ],
      "name": "getReceipt",
      "outputs": [
        {
          "components": [
            {
              "internalType": "bool",
              "name": "hasVoted",
              "type": "bool"
            },
            {
              "internalType": "bool",
              "name": "support",
              "type": "bool"
            },
            {
              "internalType": "uint96",
              "name": "votes",
              "type": "uint96"
            }
          ],
          "internalType": "struct Governor.Receipt",
          "name": "",
          "type": "tuple"
        }
      ],
      "stateMutability": "view",
      "type": "function"
    },
    {
      "inputs": [],
      "name": "guardian",
      "outputs": [
        {
          "internalType": "address",
          "name": "",
          "type": "address"
        }
      ],
      "stateMutability": "view",
      "type": "function"
    },
    {
      "inputs": [
        {
          "internalType": "address",
          "name": "",
          "type": "address"
        }
      ],
      "name": "latestProposalIds",
      "outputs": [
        {
          "internalType": "uint256",
          "name": "",
          "type": "uint256"
        }
      ],
      "stateMutability": "view",
      "type": "function"
    },
    {
      "inputs": [],
      "name": "name",
      "outputs": [
        {
          "internalType": "string",
          "name": "",
          "type": "string"
        }
      ],
      "stateMutability": "view",
      "type": "function"
    },
    {
      "inputs": [],
      "name": "proposalCount",
      "outputs": [
        {
          "internalType": "uint256",
          "name": "",
          "type": "uint256"
        }
      ],
      "stateMutability": "view",
      "type": "function"
    },
    {
      "inputs": [],
      "name": "proposalMaxOperations",
      "outputs": [
        {
          "internalType": "uint256",
          "name": "",
          "type": "uint256"
        }
      ],
      "stateMutability": "pure",
      "type": "function"
    },
    {
      "inputs": [],
      "name": "proposalThreshold",
      "outputs": [
        {
          "internalType": "uint256",
          "name": "",
          "type": "uint256"
        }
      ],
      "stateMutability": "pure",
      "type": "function"
    },
    {
      "inputs": [
        {
          "internalType": "uint256",
          "name": "",
          "type": "uint256"
        }
      ],
      "name": "proposals",
      "outputs": [
        {
          "internalType": "uint256",
          "name": "id",
          "type": "uint256"
        },
        {
          "internalType": "address",
          "name": "proposer",
          "type": "address"
        },
        {
          "internalType": "uint256",
          "name": "eta",
          "type": "uint256"
        },
        {
          "internalType": "uint256",
          "name": "startBlock",
          "type": "uint256"
        },
        {
          "internalType": "uint256",
          "name": "endBlock",
          "type": "uint256"
        },
        {
          "internalType": "uint256",
          "name": "forVotes",
          "type": "uint256"
        },
        {
          "internalType": "uint256",
          "name": "againstVotes",
          "type": "uint256"
        },
        {
          "internalType": "bool",
          "name": "canceled",
          "type": "bool"
        },
        {
          "internalType": "bool",
          "name": "executed",
          "type": "bool"
        },
        {
          "internalType": "string",
          "name": "description",
          "type": "string"
        }
      ],
      "stateMutability": "view",
      "type": "function"
    },
    {
      "inputs": [
        {
          "internalType": "address[]",
          "name": "targets",
          "type": "address[]"
        },
        {
          "internalType": "uint256[]",
          "name": "values",
          "type": "uint256[]"
        },
        {
          "internalType": "string[]",
          "name": "signatures",
          "type": "string[]"
        },
        {
          "internalType": "bytes[]",
          "name": "calldatas",
          "type": "bytes[]"
        },
        {
          "internalType": "string",
          "name": "description",
          "type": "string"
        }
      ],
      "name": "propose",
      "outputs": [
        {
          "internalType": "uint256",
          "name": "",
          "type": "uint256"
        }
      ],
      "stateMutability": "nonpayable",
      "type": "function"
    },
    {
      "inputs": [
        {
          "internalType": "uint256",
          "name": "proposalId",
          "type": "uint256"
        }
      ],
      "name": "queue",
      "outputs": [],
      "stateMutability": "nonpayable",
      "type": "function"
    },
    {
      "inputs": [],
      "name": "quorumVotes",
      "outputs": [
        {
          "internalType": "uint256",
          "name": "",
          "type": "uint256"
        }
      ],
      "stateMutability": "view",
      "type": "function"
    },
    {
      "inputs": [
        {
          "internalType": "uint256",
          "name": "proposalId",
          "type": "uint256"
        }
      ],
      "name": "state",
      "outputs": [
        {
          "internalType": "enum Governor.ProposalState",
          "name": "",
          "type": "uint8"
        }
      ],
      "stateMutability": "view",
      "type": "function"
    },
    {
      "inputs": [],
      "name": "timelock",
      "outputs": [
        {
          "internalType": "contract TimelockInterface",
          "name": "",
          "type": "address"
        }
      ],
      "stateMutability": "view",
      "type": "function"
    },
    {
      "inputs": [],
      "name": "votingDelay",
      "outputs": [
        {
          "internalType": "uint256",
          "name": "",
          "type": "uint256"
        }
      ],
      "stateMutability": "pure",
      "type": "function"
    },
    {
      "inputs": [],
      "name": "votingPeriod",
      "outputs": [
        {
          "internalType": "uint256",
          "name": "",
          "type": "uint256"
        }
      ],
      "stateMutability": "pure",
      "type": "function"
    }
  ],
  "bytecode": "0x60806040523480156200001157600080fd5b506040516200363a3803806200363a833981016040819052620000349162000077565b600080546001600160a01b039485166001600160a01b031991821617909155600180549385169382169390931790925560028054919093169116179055620000e3565b6000806000606084860312156200008c578283fd5b83516200009981620000ca565b6020850151909350620000ac81620000ca565b6040850151909250620000bf81620000ca565b809150509250925092565b6001600160a01b0381168114620000e057600080fd5b50565b61354780620000f36000396000f3fe6080604052600436106101b75760003560e01c8063760fbc13116100ec578063da35c6641161008a578063ddf0b00911610064578063ddf0b00914610492578063deaaa7cc146104b2578063e23a9a52146104c7578063fe0d94c1146104f4576101b7565b8063da35c6641461043d578063da95691a14610452578063dbfa977f14610472576101b7565b806394a08d58116100c657806394a08d58146103e9578063b58131b0146103fe578063b9a6196114610413578063d33219b414610428576101b7565b8063760fbc131461039f5780637bdbe4d0146103b457806391500671146103c9576101b7565b8063328dd9821161015957806340e58ee51161013357806340e58ee51461031d578063452a93201461033d5780634925ec551461035f5780635d2546081461037f576101b7565b8063328dd982146102ab5780633932abb1146102db5780633e4f49e6146102f0576101b7565b806317977c611161019557806317977c611461023f57806320606b701461025f57806321f43e421461027457806324bc1a6414610296576101b7565b8063013cf08b146101bc57806302a251a3146101fb57806306fdde031461021d575b600080fd5b3480156101c857600080fd5b506101dc6101d7366004612670565b610507565b6040516101f29a999897969594939291906133bf565b60405180910390f35b34801561020757600080fd5b506102106105f6565b6040516101f29190612ad7565b34801561022957600080fd5b506102326105fd565b6040516101f29190612b4e565b34801561024b57600080fd5b5061021061025a36600461249a565b61062d565b34801561026b57600080fd5b5061021061063f565b34801561028057600080fd5b5061029461028f3660046124d2565b610663565b005b3480156102a257600080fd5b5061021061074a565b3480156102b757600080fd5b506102cb6102c6366004612670565b6108fd565b6040516101f29493929190612a7f565b3480156102e757600080fd5b50610210610b8c565b3480156102fc57600080fd5b5061031061030b366004612670565b610b91565b6040516101f29190612b3a565b34801561032957600080fd5b50610294610338366004612670565b610d1b565b34801561034957600080fd5b50610352610f84565b6040516101f2919061290e565b34801561036b57600080fd5b5061023261037a366004612670565b610f93565b34801561038b57600080fd5b5061029461039a3660046126b7565b611037565b3480156103ab57600080fd5b506102946111ea565b3480156103c057600080fd5b50610210611226565b3480156103d557600080fd5b506102946103e43660046124d2565b61122b565b3480156103f557600080fd5b50610352611300565b34801561040a57600080fd5b5061021061130f565b34801561041f57600080fd5b5061029461131d565b34801561043457600080fd5b506103526113a2565b34801561044957600080fd5b506102106113b1565b34801561045e57600080fd5b5061021061046d3660046124fd565b6113b7565b34801561047e57600080fd5b5061029461048d366004612722565b6116fd565b34801561049e57600080fd5b506102946104ad366004612670565b611709565b3480156104be57600080fd5b50610210611973565b3480156104d357600080fd5b506104e76104e2366004612688565b611997565b6040516101f291906132f9565b610294610502366004612670565b611a03565b6004602090815260009182526040918290208054600180830154600280850154600786015460088701546009880154600a890154600b8a0154600c8b0180548e516101009b8216158c026000190190911698909804601f81018e90048e0289018e01909e528d8852999c6001600160a01b039098169b959a949993989297919660ff8083169794909204909116949390929091908301828280156105ec5780601f106105c1576101008083540402835291602001916105ec565b820191906000526020600020905b8154815290600101906020018083116105cf57829003601f168201915b505050505090508a565b6143805b90565b6040518060400160405280601481526020017321b634b6b0ba32902220a79023b7bb32b93737b960611b81525081565b60056020526000908152604090205481565b7f8cad95687ba82c2ce50e74f7b754645e5117c3a5bec8151c0726d5857980a86681565b6002546001600160a01b031633146106965760405162461bcd60e51b815260040161068d90612e45565b60405180910390fd5b600080546040516001600160a01b0390911691630825f38f918391906106c090879060200161290e565b604051602081830303815290604052856040518563ffffffff1660e01b81526004016106ef949392919061293b565b600060405180830381600087803b15801561070957600080fd5b505af115801561071d573d6000803e3d6000fd5b505050506040513d6000823e601f3d908101601f1916820160405261074591908101906125fd565b505050565b600154604080516357406cef60e11b8152905160009283926001600160a01b03909116916370a0823191839163ae80d9de91600480820192602092909190829003018186803b15801561079c57600080fd5b505afa1580156107b0573d6000803e3d6000fd5b505050506040513d601f19601f820116820180604052508101906107d491906124b6565b6040518263ffffffff1660e01b81526004016107f0919061290e565b60206040518083038186803b15801561080857600080fd5b505afa15801561081c573d6000803e3d6000fd5b505050506040513d601f19601f8201168201806040525081019061084091906125e5565b90506000600160009054906101000a90046001600160a01b03166001600160a01b031663c4e41b226040518163ffffffff1660e01b815260040160206040518083038186803b15801561089257600080fd5b505afa1580156108a6573d6000803e3d6000fd5b505050506040513d601f19601f820116820180604052508101906108ca91906125e5565b905081810380156108ea576108e0816019611bc8565b93505050506105fa565b6954b40b1f852bda000000935050505090565b6060806060806000600460008781526020019081526020016000209050806003018160040182600501836006018380548060200260200160405190810160405280929190818152602001828054801561097f57602002820191906000526020600020905b81546001600160a01b03168152600190910190602001808311610961575b50505050509350828054806020026020016040519081016040528092919081815260200182805480156109d157602002820191906000526020600020905b8154815260200190600101908083116109bd575b5050505050925081805480602002602001604051908101604052809291908181526020016000905b82821015610aa45760008481526020908190208301805460408051601f6002600019610100600187161502019094169390930492830185900485028101850190915281815292830182828015610a905780601f10610a6557610100808354040283529160200191610a90565b820191906000526020600020905b815481529060010190602001808311610a7357829003601f168201915b5050505050815260200190600101906109f9565b50505050915080805480602002602001604051908101604052809291908181526020016000905b82821015610b765760008481526020908190208301805460408051601f6002600019610100600187161502019094169390930492830185900485028101850190915281815292830182828015610b625780601f10610b3757610100808354040283529160200191610b62565b820191906000526020600020905b815481529060010190602001808311610b4557829003601f168201915b505050505081526020019060010190610acb565b5050505090509450945094509450509193509193565b600190565b60008160035410158015610ba55750600082115b610bc15760405162461bcd60e51b815260040161068d90612eb2565b6000828152600460205260409020600b81015460ff1615610be6576002915050610d16565b80600701544311610bfb576000915050610d16565b80600801544311610c10576001915050610d16565b80600a01548160090154111580610c315750610c2a61074a565b8160090154105b15610c40576003915050610d16565b6002810154610c53576004915050610d16565b600b810154610100900460ff1615610c6f576007915050610d16565b610d00816002015460008054906101000a90046001600160a01b03166001600160a01b031663c1a287e26040518163ffffffff1660e01b815260040160206040518083038186803b158015610cc357600080fd5b505afa158015610cd7573d6000803e3d6000fd5b505050506040513d601f19601f82011682018060405250810190610cfb91906125e5565b611c04565b4210610d10576006915050610d16565b60059150505b919050565b6000610d2682610b91565b90506007816007811115610d3657fe5b1415610d545760405162461bcd60e51b815260040161068d90612d33565b60008281526004602052604090206002546001600160a01b0316331480610e1f5750610d7e61130f565b60018054838201546001600160a01b039182169263782d6fe19290911690610da7904390611c29565b6040518363ffffffff1660e01b8152600401610dc4929190612922565b60206040518083038186803b158015610ddc57600080fd5b505afa158015610df0573d6000803e3d6000fd5b505050506040513d601f19601f82011682018060405250810190610e149190612763565b6001600160601b0316105b610e3b5760405162461bcd60e51b815260040161068d90613194565b600b8101805460ff1916600117905560005b6003820154811015610f47576000546003830180546001600160a01b039092169163591fcdfe919084908110610e7f57fe5b6000918252602090912001546004850180546001600160a01b039092169185908110610ea757fe5b9060005260206000200154856005018581548110610ec157fe5b90600052602060002001866006018681548110610eda57fe5b9060005260206000200187600201546040518663ffffffff1660e01b8152600401610f09959493929190612a24565b600060405180830381600087803b158015610f2357600080fd5b505af1158015610f37573d6000803e3d6000fd5b505060019092019150610e4d9050565b507f789cf55be980739dad1d0699b93b58e806b51c9d96619bfa8fe0a28abaa7b30c83604051610f779190612ad7565b60405180910390a1505050565b6002546001600160a01b031681565b600081815260046020908152604091829020600c0180548351601f600260001961010060018616150201909316929092049182018490048402810184019094528084526060939283018282801561102b5780601f106110005761010080835404028352916020019161102b565b820191906000526020600020905b81548152906001019060200180831161100e57829003601f168201915b50505050509050919050565b60408051808201909152601481527321b634b6b0ba32902220a79023b7bb32b93737b960611b60209091015260007f8cad95687ba82c2ce50e74f7b754645e5117c3a5bec8151c0726d5857980a8667fc91d7024f1084cf2cbc672fa7c9487148f930f2547c197a0c5a286cc6f4923ea6110af611c51565b306040516020016110c39493929190612ae0565b60405160208183030381529060405280519060200120905060007f8e25870c07e0b0b3884c78da52790939a455c275406c44ae8b434b692fb916ee888860405160200161111293929190612b04565b6040516020818303038152906040528051906020012090506000828260405160200161113f9291906128f3565b60405160208183030381529060405280519060200120905060006001828989896040516000815260200160405260405161117c9493929190612b1c565b6020604051602081039080840390855afa15801561119e573d6000803e3d6000fd5b5050604051601f1901519150506001600160a01b0381166111d15760405162461bcd60e51b815260040161068d906132af565b6111dd818b8b88611c55565b505050505b505050505050565b6002546001600160a01b031633146112145760405162461bcd60e51b815260040161068d9061304a565b600280546001600160a01b0319169055565b600a90565b6002546001600160a01b031633146112555760405162461bcd60e51b815260040161068d90612c1b565b600080546040516001600160a01b0390911691633a66f9019183919061127f90879060200161290e565b604051602081830303815290604052856040518563ffffffff1660e01b81526004016112ae949392919061293b565b602060405180830381600087803b1580156112c857600080fd5b505af11580156112dc573d6000803e3d6000fd5b505050506040513d601f19601f8201168201806040525081019061074591906125e5565b6001546001600160a01b031681565b69152d02c7e14af680000090565b6002546001600160a01b031633146113475760405162461bcd60e51b815260040161068d906130f8565b6000805460408051630e18b68160e01b815290516001600160a01b0390921692630e18b6819260048084019382900301818387803b15801561138857600080fd5b505af115801561139c573d6000803e3d6000fd5b50505050565b6000546001600160a01b031681565b60035481565b60006113c161130f565b600180546001600160a01b03169063782d6fe19033906113e2904390611c29565b6040518363ffffffff1660e01b81526004016113ff929190612922565b60206040518083038186803b15801561141757600080fd5b505afa15801561142b573d6000803e3d6000fd5b505050506040513d601f19601f8201168201806040525081019061144f9190612763565b6001600160601b0316116114755760405162461bcd60e51b815260040161068d90612b61565b84518651148015611487575083518651145b8015611494575082518651145b6114b05760405162461bcd60e51b815260040161068d90612bbe565b85516114ce5760405162461bcd60e51b815260040161068d90612d84565b6114d6611226565b865111156114f65760405162461bcd60e51b815260040161068d90612cf0565b33600090815260056020526040902054801561157357600061151782610b91565b9050600181600781111561152757fe5b14156115455760405162461bcd60e51b815260040161068d90612ef6565b600081600781111561155357fe5b14156115715760405162461bcd60e51b815260040161068d90612dcb565b505b600061158143610cfb610b8c565b9050600061159182610cfb6105f6565b6003805460019081018083556000818152600460209081526040822092835592820180546001600160a01b0319163317905560028201558c51939450926115dd928401918d019061207f565b5088516115f390600483019060208c01906120e4565b50875161160990600583019060208b019061212b565b50865161161f90600683019060208a0190612184565b506007810183905560088101829055600060098201819055600a820155600b8101805461ffff19169055855161165e90600c83019060208901906121dd565b508060000154600560008360010160009054906101000a90046001600160a01b03166001600160a01b03166001600160a01b03168152602001908152602001600020819055507f7d84a6263ae0d98d3329bd7b46bb4e8d6f98cd35a7adb45c274c8b7fd5ebd5e08160000154338c8c8c8c89898e6040516116e799989796959493929190613327565b60405180910390a1549998505050505050505050565b61074533848484611c55565b600461171482610b91565b600781111561171f57fe5b1461173c5760405162461bcd60e51b815260040161068d90613252565b600081815260046020818152604080842084548251630d48571f60e31b815292519195946117919442946001600160a01b0390931693636a42b8f8938084019390829003018186803b158015610cc357600080fd5b905060005b6003830154811015611939576119318360030182815481106117b457fe5b6000918252602090912001546004850180546001600160a01b0390921691849081106117dc57fe5b90600052602060002001548560050184815481106117f657fe5b600091825260209182902001805460408051601f60026000196101006001871615020190941693909304928301859004850281018501909152818152928301828280156118845780601f1061185957610100808354040283529160200191611884565b820191906000526020600020905b81548152906001019060200180831161186757829003601f168201915b505050505086600601858154811061189857fe5b600091825260209182902001805460408051601f60026000196101006001871615020190941693909304928301859004850281018501909152818152928301828280156119265780601f106118fb57610100808354040283529160200191611926565b820191906000526020600020905b81548152906001019060200180831161190957829003601f168201915b505050505086611ef1565b600101611796565b50600282018190556040517f9a2e42fd6722813d69113e7d0079d3d940171428df7373df9c7f7617cfda289290610f779085908490613428565b7f8e25870c07e0b0b3884c78da52790939a455c275406c44ae8b434b692fb916ee81565b61199f61224a565b5060009182526004602090815260408084206001600160a01b03939093168452600d9092018152918190208151606081018352905460ff80821615158352610100820416151593820193909352620100009092046001600160601b03169082015290565b6005611a0e82610b91565b6007811115611a1957fe5b14611a365760405162461bcd60e51b815260040161068d90612fc1565b6000818152600460205260408120600b8101805461ff001916610100179055905b6003820154811015611b8c576000546004830180546001600160a01b0390921691630825f38f919084908110611a8957fe5b9060005260206000200154846003018481548110611aa357fe5b6000918252602090912001546004860180546001600160a01b039092169186908110611acb57fe5b9060005260206000200154866005018681548110611ae557fe5b90600052602060002001876006018781548110611afe57fe5b9060005260206000200188600201546040518763ffffffff1660e01b8152600401611b2d959493929190612a24565b6000604051808303818588803b158015611b4657600080fd5b505af1158015611b5a573d6000803e3d6000fd5b50505050506040513d6000823e601f3d908101601f19168201604052611b8391908101906125fd565b50600101611a57565b507f712ae1383f79ac853f8d882153778e0260ef8f03b504e2866e0593e04d2b291f82604051611bbc9190612ad7565b60405180910390a15050565b6000611bfd83836040518060400160405280601081526020016f6469766973696f6e206279207a65726f60801b815250612048565b9392505050565b600082820183811015611bfd5760405162461bcd60e51b815260040161068d9061301f565b600082821115611c4b5760405162461bcd60e51b815260040161068d90613223565b50900390565b4690565b6001611c6084610b91565b6007811115611c6b57fe5b14611c885760405162461bcd60e51b815260040161068d906131de565b60008381526004602090815260408083206001600160a01b0388168452600d8101909252909120805460ff1615611cd15760405162461bcd60e51b815260040161068d9061314c565b6000836001600160601b031611611cfa5760405162461bcd60e51b815260040161068d90612c86565b8054600154600784015460405163782d6fe160e01b81526000936201000090046001600160601b0316926001600160a01b03169163782d6fe191611d42918c91600401612922565b60206040518083038186803b158015611d5a57600080fd5b505afa158015611d6e573d6000803e3d6000fd5b505050506040513d601f19601f82011682018060405250810190611d929190612763565b039050806001600160601b0316846001600160601b03161115611dc75760405162461bcd60e51b815260040161068d90612f6f565b8415611dee57611de48360090154856001600160601b0316611c04565b6009840155611e0b565b611e0583600a0154856001600160601b0316611c04565b600a8401555b600154604051633969f74f60e11b81526001600160a01b03909116906372d3ee9e90611e3d908a908890600401612a5d565b600060405180830381600087803b158015611e5757600080fd5b505af1158015611e6b573d6000803e3d6000fd5b50508354600160ff199091161761ff00191661010088151502176dffffffffffffffffffffffff00001916620100006001600160601b0388160217845550506040517f877856338e13f63d0c36822ff0ef736b80934cd90574a3a5bc9262c39d217c4690611ee09089908990899089906129a7565b60405180910390a150505050505050565b6000546040516001600160a01b039091169063f2b0653790611f1f90889088908890889088906020016129d8565b604051602081830303815290604052805190602001206040518263ffffffff1660e01b8152600401611f519190612ad7565b60206040518083038186803b158015611f6957600080fd5b505afa158015611f7d573d6000803e3d6000fd5b505050506040513d601f19601f82011682018060405250810190611fa191906125c9565b15611fbe5760405162461bcd60e51b815260040161068d9061309b565b600054604051633a66f90160e01b81526001600160a01b0390911690633a66f90190611ff690889088908890889088906004016129d8565b602060405180830381600087803b15801561201057600080fd5b505af1158015612024573d6000803e3d6000fd5b505050506040513d601f19601f820116820180604052508101906111e291906125e5565b600081836120695760405162461bcd60e51b815260040161068d9190612b4e565b50600083858161207557fe5b0495945050505050565b8280548282559060005260206000209081019282156120d4579160200282015b828111156120d457825182546001600160a01b0319166001600160a01b0390911617825560209092019160019091019061209f565b506120e092915061226a565b5090565b82805482825590600052602060002090810192821561211f579160200282015b8281111561211f578251825591602001919060010190612104565b506120e0929150612289565b828054828255906000526020600020908101928215612178579160200282015b8281111561217857825180516121689184916020909101906121dd565b509160200191906001019061214b565b506120e092915061229e565b8280548282559060005260206000209081019282156121d1579160200282015b828111156121d157825180516121c19184916020909101906121dd565b50916020019190600101906121a4565b506120e09291506122bb565b828054600181600116156101000203166002900490600052602060002090601f016020900481019282601f1061221e57805160ff191683800117855561211f565b8280016001018555821561211f579182018281111561211f578251825591602001919060010190612104565b604080516060810182526000808252602082018190529181019190915290565b5b808211156120e05780546001600160a01b031916815560010161226b565b5b808211156120e0576000815560010161228a565b808211156120e05760006122b282826122d8565b5060010161229e565b808211156120e05760006122cf82826122d8565b506001016122bb565b50805460018160011615610100020316600290046000825580601f106122fe575061231c565b601f01602090049060005260206000209081019061231c9190612289565b50565b600082601f83011261232f578081fd5b813561234261233d8261345d565b613436565b81815291506020808301908481018184028601820187101561236357600080fd5b60005b8481101561238b578135612379816134d9565b84529282019290820190600101612366565b505050505092915050565b600082601f8301126123a6578081fd5b81356123b461233d8261345d565b818152915060208083019084810160005b8481101561238b576123dc888484358a010161244c565b845292820192908201906001016123c5565b600082601f8301126123fe578081fd5b813561240c61233d8261345d565b81815291506020808301908481018184028601820187101561242d57600080fd5b60005b8481101561238b57813584529282019290820190600101612430565b600082601f83011261245c578081fd5b813561246a61233d8261347d565b915080825283602082850101111561248157600080fd5b8060208401602084013760009082016020015292915050565b6000602082840312156124ab578081fd5b8135611bfd816134d9565b6000602082840312156124c7578081fd5b8151611bfd816134d9565b600080604083850312156124e4578081fd5b82356124ef816134d9565b946020939093013593505050565b600080600080600060a08688031215612514578081fd5b853567ffffffffffffffff8082111561252b578283fd5b61253789838a0161231f565b9650602088013591508082111561254c578283fd5b61255889838a016123ee565b9550604088013591508082111561256d578283fd5b61257989838a01612396565b9450606088013591508082111561258e578283fd5b61259a89838a01612396565b935060808801359150808211156125af578283fd5b506125bc8882890161244c565b9150509295509295909350565b6000602082840312156125da578081fd5b8151611bfd816134ee565b6000602082840312156125f6578081fd5b5051919050565b60006020828403121561260e578081fd5b815167ffffffffffffffff811115612624578182fd5b8201601f81018413612634578182fd5b805161264261233d8261347d565b818152856020838501011115612656578384fd5b6126678260208301602086016134ad565b95945050505050565b600060208284031215612681578081fd5b5035919050565b6000806040838503121561269a578182fd5b8235915060208301356126ac816134d9565b809150509250929050565b60008060008060008060c087890312156126cf578384fd5b8635955060208701356126e1816134ee565b9450604087013560ff811681146126f6578485fd5b9350606087013592506080870135915060a0870135612714816134fc565b809150509295509295509295565b600080600060608486031215612736578081fd5b833592506020840135612748816134ee565b91506040840135612758816134fc565b809150509250925092565b600060208284031215612774578081fd5b8151611bfd816134fc565b6000815180845260208085019450808401835b838110156127b75781516001600160a01b031687529582019590820190600101612792565b509495945050505050565b6000815180845260208085018081965082840281019150828601855b858110156128085782840389526127f6848351612844565b988501989350908401906001016127de565b5091979650505050505050565b6000815180845260208085019450808401835b838110156127b757815187529582019590820190600101612828565b6000815180845261285c8160208601602086016134ad565b601f01601f19169290920160200192915050565b6000815460018082166000811461288e57600181146128ac576128ea565b60028304607f16865260ff19831660208701526040860193506128ea565b600283048087526128bc866134a1565b60005b828110156128e05781546020828b01015284820191506020810190506128bf565b8801602001955050505b50505092915050565b61190160f01b81526002810192909252602282015260420190565b6001600160a01b0391909116815260200190565b6001600160a01b03929092168252602082015260400190565b600060018060a01b038616825284602083015260a06040830152601860a08301527f73657450656e64696e6741646d696e286164647265737329000000000000000060c083015260e0606083015261299660e0830185612844565b905082608083015295945050505050565b6001600160a01b039490941684526020840192909252151560408301526001600160601b0316606082015260800190565b600060018060a01b038716825285602083015260a060408301526129ff60a0830186612844565b8281036060840152612a118186612844565b9150508260808301529695505050505050565b600060018060a01b038716825285602083015260a06040830152612a4b60a0830186612870565b8281036060840152612a118186612870565b6001600160a01b039290921682526001600160601b0316602082015260400190565b600060808252612a92608083018761277f565b8281036020840152612aa48187612815565b90508281036040840152612ab881866127c2565b90508281036060840152612acc81856127c2565b979650505050505050565b90815260200190565b938452602084019290925260408301526001600160a01b0316606082015260800190565b92835260208301919091521515604082015260600190565b93845260ff9290921660208401526040830152606082015260800190565b6020810160088310612b4857fe5b91905290565b600060208252611bfd6020830184612844565b6020808252603a908201527f476f7665726e6f723a3a70726f706f73653a2070726f706f73657220766f746560408201527f732062656c6f772070726f706f73616c207468726573686f6c64000000000000606082015260800190565b6020808252603f908201527f476f7665726e6f723a3a70726f706f73653a2070726f706f73616c2066756e6360408201527f74696f6e20696e666f726d6174696f6e206172697479206d69736d6174636800606082015260800190565b60208082526045908201527f476f7665726e6f723a3a5f5f717565756553657454696d656c6f636b50656e6460408201527f696e6741646d696e3a2073656e646572206d75737420626520676f7620677561606082015264393234b0b760d91b608082015260a00190565b60208082526044908201527f476f7665726e6f723a3a5f63617374566f74653a206e6f20656c696769626c6560408201527f20766f746573207072696f7220746f2070726f706f73616c20737461727420626060820152636c6f636b60e01b608082015260a00190565b60208082526023908201527f476f7665726e6f723a3a70726f706f73653a20746f6f206d616e7920616374696040820152626f6e7360e81b606082015260800190565b60208082526031908201527f476f7665726e6f723a3a63616e63656c3a2063616e6e6f742063616e63656c20604082015270195e1958dd5d1959081c1c9bdc1bdcd85b607a1b606082015260800190565b60208082526027908201527f476f7665726e6f723a3a70726f706f73653a206d7573742070726f7669646520604082015266616374696f6e7360c81b606082015260800190565b60208082526054908201527f476f7665726e6f723a3a70726f706f73653a206f6e65206c6976652070726f7060408201527f6f73616c207065722070726f706f7365722c20666f756e6420616e20616c726560608201527318591e481c195b991a5b99c81c1c9bdc1bdcd85b60621b608082015260a00190565b60208082526047908201527f476f7665726e6f723a3a5f5f6578656375746553657454696d656c6f636b506560408201527f6e64696e6741646d696e3a2073656e646572206d75737420626520676f7620676060820152663ab0b93234b0b760c91b608082015260a00190565b60208082526024908201527f476f7665726e6f723a3a73746174653a20696e76616c69642070726f706f73616040820152631b081a5960e21b606082015260800190565b60208082526053908201527f476f7665726e6f723a3a70726f706f73653a206f6e65206c6976652070726f7060408201527f6f73616c207065722070726f706f7365722c20666f756e6420616e20616c726560608201527218591e481858dd1a5d99481c1c9bdc1bdcd85b606a1b608082015260a00190565b60208082526032908201527f476f7665726e6f723a3a5f63617374566f74653a20766f746573206578636565604082015271191cc8195b1a59da589b1948185b5bdd5b9d60721b606082015260800190565b602080825260409082018190527f476f7665726e6f723a3a657865637574653a2070726f706f73616c2063616e20908201527f6f6e6c7920626520657865637574656420696620697420697320717565756564606082015260800190565b6020808252601190820152706164646974696f6e206f766572666c6f7760781b604082015260600190565b60208082526031908201527f476f7665726e6f723a3a5f5f61626469636174653a2073656e646572206d75736040820152703a1031329033b7bb1033bab0b93234b0b760791b606082015260800190565b6020808252603f908201527f476f7665726e6f723a3a5f71756575654f725265766572743a2070726f706f7360408201527f616c20616374696f6e20616c7265616479207175657565642061742065746100606082015260800190565b60208082526034908201527f476f7665726e6f723a3a5f5f61636365707441646d696e3a2073656e6465722060408201527336bab9ba1031329033b7bb1033bab0b93234b0b760611b606082015260800190565b60208082526028908201527f476f7665726e6f723a3a5f63617374566f74653a20766f74657220616c726561604082015267191e481d9bdd195960c21b606082015260800190565b6020808252602a908201527f476f7665726e6f723a3a63616e63656c3a2070726f706f7365722061626f7665604082015269081d1a1c995cda1bdb1960b21b606082015260800190565b60208082526025908201527f476f7665726e6f723a3a5f63617374566f74653a20766f74696e6720697320636040820152641b1bdcd95960da1b606082015260800190565b6020808252601590820152747375627472616374696f6e20756e646572666c6f7760581b604082015260600190565b6020808252603f908201527f476f7665726e6f723a3a71756575653a2070726f706f73616c2063616e206f6e60408201527f6c79206265207175657565642069662069742069732073756363656564656400606082015260800190565b6020808252602a908201527f476f7665726e6f723a3a63617374566f746542795369673a20696e76616c6964604082015269207369676e617475726560b01b606082015260800190565b8151151581526020808301511515908201526040918201516001600160601b03169181019190915260600190565b8981526001600160a01b0389166020820152610120604082018190526000906133528382018b61277f565b90508281036060840152613366818a612815565b9050828103608084015261337a81896127c2565b905082810360a084015261338e81886127c2565b90508560c08401528460e08401528281036101008401526133af8185612844565b9c9b505050505050505050505050565b60006101408c835260018060a01b038c1660208401528a60408401528960608401528860808401528760a08401528660c084015285151560e08401528415156101008401528061012084015261341781840185612844565b9d9c50505050505050505050505050565b918252602082015260400190565b60405181810167ffffffffffffffff8111828210171561345557600080fd5b604052919050565b600067ffffffffffffffff821115613473578081fd5b5060209081020190565b600067ffffffffffffffff821115613493578081fd5b50601f01601f191660200190565b60009081526020902090565b60005b838110156134c85781810151838201526020016134b0565b8381111561139c5750506000910152565b6001600160a01b038116811461231c57600080fd5b801515811461231c57600080fd5b6001600160601b038116811461231c57600080fdfea2646970667358221220e76c2a2cbffba08ed3580b4d3f1099579dee9e68fb9492c726ad1d6c05fcd49564736f6c63430007000033",
  "linkReferences": {},
  "deployedLinkReferences": {}
}