{
  "_format": "hh-sol-artifact-1",
  "contractName": "Governor",
  "sourceName": "contracts/Governance/Governor.sol",
  "abi": [
    {
      "inputs": [
        {
          "internalType": "address",
          "name": "timelock_",
          "type": "address"
        },
        {
          "internalType": "address",
          "name": "dclm8_",
          "type": "address"
        },
        {
          "internalType": "address",
          "name": "guardian_",
          "type": "address"
        }
      ],
      "stateMutability": "nonpayable",
      "type": "constructor"
    },
    {
      "anonymous": false,
      "inputs": [
        {
          "indexed": false,
          "internalType": "uint256",
          "name": "id",
          "type": "uint256"
        }
      ],
      "name": "ProposalCanceled",
      "type": "event"
    },
    {
      "anonymous": false,
      "inputs": [
        {
          "indexed": false,
          "internalType": "uint256",
          "name": "id",
          "type": "uint256"
        },
        {
          "indexed": false,
          "internalType": "address",
          "name": "proposer",
          "type": "address"
        },
        {
          "indexed": false,
          "internalType": "address[]",
          "name": "targets",
          "type": "address[]"
        },
        {
          "indexed": false,
          "internalType": "uint256[]",
          "name": "values",
          "type": "uint256[]"
        },
        {
          "indexed": false,
          "internalType": "string[]",
          "name": "signatures",
          "type": "string[]"
        },
        {
          "indexed": false,
          "internalType": "bytes[]",
          "name": "calldatas",
          "type": "bytes[]"
        },
        {
          "indexed": false,
          "internalType": "uint256",
          "name": "startBlock",
          "type": "uint256"
        },
        {
          "indexed": false,
          "internalType": "uint256",
          "name": "endBlock",
          "type": "uint256"
        },
        {
          "indexed": false,
          "internalType": "string",
          "name": "description",
          "type": "string"
        }
      ],
      "name": "ProposalCreated",
      "type": "event"
    },
    {
      "anonymous": false,
      "inputs": [
        {
          "indexed": false,
          "internalType": "uint256",
          "name": "id",
          "type": "uint256"
        }
      ],
      "name": "ProposalExecuted",
      "type": "event"
    },
    {
      "anonymous": false,
      "inputs": [
        {
          "indexed": false,
          "internalType": "uint256",
          "name": "id",
          "type": "uint256"
        },
        {
          "indexed": false,
          "internalType": "uint256",
          "name": "eta",
          "type": "uint256"
        }
      ],
      "name": "ProposalQueued",
      "type": "event"
    },
    {
      "anonymous": false,
      "inputs": [
        {
          "indexed": false,
          "internalType": "address",
          "name": "voter",
          "type": "address"
        },
        {
          "indexed": false,
          "internalType": "uint256",
          "name": "proposalId",
          "type": "uint256"
        },
        {
          "indexed": false,
          "internalType": "bool",
          "name": "support",
          "type": "bool"
        },
        {
          "indexed": false,
          "internalType": "uint256",
          "name": "votes",
          "type": "uint256"
        }
      ],
      "name": "VoteCast",
      "type": "event"
    },
    {
      "inputs": [],
      "name": "BALLOT_TYPEHASH",
      "outputs": [
        {
          "internalType": "bytes32",
          "name": "",
          "type": "bytes32"
        }
      ],
      "stateMutability": "view",
      "type": "function"
    },
    {
      "inputs": [],
      "name": "DOMAIN_TYPEHASH",
      "outputs": [
        {
          "internalType": "bytes32",
          "name": "",
          "type": "bytes32"
        }
      ],
      "stateMutability": "view",
      "type": "function"
    },
    {
      "inputs": [],
      "name": "__abdicate",
      "outputs": [],
      "stateMutability": "nonpayable",
      "type": "function"
    },
    {
      "inputs": [],
      "name": "__acceptAdmin",
      "outputs": [],
      "stateMutability": "nonpayable",
      "type": "function"
    },
    {
      "inputs": [
        {
          "internalType": "address",
          "name": "newPendingAdmin",
          "type": "address"
        },
        {
          "internalType": "uint256",
          "name": "eta",
          "type": "uint256"
        }
      ],
      "name": "__executeSetTimelockPendingAdmin",
      "outputs": [],
      "stateMutability": "nonpayable",
      "type": "function"
    },
    {
      "inputs": [
        {
          "internalType": "address",
          "name": "newPendingAdmin",
          "type": "address"
        },
        {
          "internalType": "uint256",
          "name": "eta",
          "type": "uint256"
        }
      ],
      "name": "__queueSetTimelockPendingAdmin",
      "outputs": [],
      "stateMutability": "nonpayable",
      "type": "function"
    },
    {
      "inputs": [
        {
          "internalType": "uint256",
          "name": "proposalId",
          "type": "uint256"
        }
      ],
      "name": "cancel",
      "outputs": [],
      "stateMutability": "nonpayable",
      "type": "function"
    },
    {
      "inputs": [
        {
          "internalType": "uint256",
          "name": "proposalId",
          "type": "uint256"
        },
        {
          "internalType": "bool",
          "name": "support",
          "type": "bool"
        },
        {
          "internalType": "uint96",
          "name": "votes",
          "type": "uint96"
        }
      ],
      "name": "castVote",
      "outputs": [],
      "stateMutability": "nonpayable",
      "type": "function"
    },
    {
      "inputs": [
        {
          "internalType": "uint256",
          "name": "proposalId",
          "type": "uint256"
        },
        {
          "internalType": "bool",
          "name": "support",
          "type": "bool"
        },
        {
          "internalType": "uint8",
          "name": "v",
          "type": "uint8"
        },
        {
          "internalType": "bytes32",
          "name": "r",
          "type": "bytes32"
        },
        {
          "internalType": "bytes32",
          "name": "s",
          "type": "bytes32"
        },
        {
          "internalType": "uint96",
          "name": "votes",
          "type": "uint96"
        }
      ],
      "name": "castVoteBySig",
      "outputs": [],
      "stateMutability": "nonpayable",
      "type": "function"
    },
    {
      "inputs": [],
      "name": "dclm8",
      "outputs": [
        {
          "internalType": "contract Dclm8Interface",
          "name": "",
          "type": "address"
        }
      ],
      "stateMutability": "view",
      "type": "function"
    },
    {
      "inputs": [
        {
          "internalType": "uint256",
          "name": "proposalId",
          "type": "uint256"
        }
      ],
      "name": "execute",
      "outputs": [],
      "stateMutability": "payable",
      "type": "function"
    },
    {
      "inputs": [
        {
          "internalType": "uint256",
          "name": "proposalId",
          "type": "uint256"
        }
      ],
      "name": "getActions",
      "outputs": [
        {
          "internalType": "address[]",
          "name": "targets",
          "type": "address[]"
        },
        {
          "internalType": "uint256[]",
          "name": "values",
          "type": "uint256[]"
        },
        {
          "internalType": "string[]",
          "name": "signatures",
          "type": "string[]"
        },
        {
          "internalType": "bytes[]",
          "name": "calldatas",
          "type": "bytes[]"
        }
      ],
      "stateMutability": "view",
      "type": "function"
    },
    {
      "inputs": [
        {
          "internalType": "uint256",
          "name": "proposalId",
          "type": "uint256"
        }
      ],
      "name": "getDescription",
      "outputs": [
        {
          "internalType": "string",
          "name": "",
          "type": "string"
        }
      ],
      "stateMutability": "view",
      "type": "function"
    },
    {
      "inputs": [
        {
          "internalType": "uint256",
          "name": "proposalId",
          "type": "uint256"
        },
        {
          "internalType": "address",
          "name": "voter",
          "type": "address"
        }
      ],
      "name": "getReceipt",
      "outputs": [
        {
          "components": [
            {
              "internalType": "bool",
              "name": "hasVoted",
              "type": "bool"
            },
            {
              "internalType": "bool",
              "name": "support",
              "type": "bool"
            },
            {
              "internalType": "uint96",
              "name": "votes",
              "type": "uint96"
            },
            {
              "internalType": "uint96",
              "name": "rawVotes",
              "type": "uint96"
            }
          ],
          "internalType": "struct Governor.Receipt",
          "name": "",
          "type": "tuple"
        }
      ],
      "stateMutability": "view",
      "type": "function"
    },
    {
      "inputs": [],
      "name": "guardian",
      "outputs": [
        {
          "internalType": "address",
          "name": "",
          "type": "address"
        }
      ],
      "stateMutability": "view",
      "type": "function"
    },
    {
      "inputs": [
        {
          "internalType": "address",
          "name": "",
          "type": "address"
        }
      ],
      "name": "latestProposalIds",
      "outputs": [
        {
          "internalType": "uint256",
          "name": "",
          "type": "uint256"
        }
      ],
      "stateMutability": "view",
      "type": "function"
    },
    {
      "inputs": [],
      "name": "name",
      "outputs": [
        {
          "internalType": "string",
          "name": "",
          "type": "string"
        }
      ],
      "stateMutability": "view",
      "type": "function"
    },
    {
      "inputs": [],
      "name": "proposalCount",
      "outputs": [
        {
          "internalType": "uint256",
          "name": "",
          "type": "uint256"
        }
      ],
      "stateMutability": "view",
      "type": "function"
    },
    {
      "inputs": [],
      "name": "proposalMaxOperations",
      "outputs": [
        {
          "internalType": "uint256",
          "name": "",
          "type": "uint256"
        }
      ],
      "stateMutability": "pure",
      "type": "function"
    },
    {
      "inputs": [],
      "name": "proposalThreshold",
      "outputs": [
        {
          "internalType": "uint256",
          "name": "",
          "type": "uint256"
        }
      ],
      "stateMutability": "pure",
      "type": "function"
    },
    {
      "inputs": [
        {
          "internalType": "uint256",
          "name": "",
          "type": "uint256"
        }
      ],
      "name": "proposals",
      "outputs": [
        {
          "internalType": "uint256",
          "name": "id",
          "type": "uint256"
        },
        {
          "internalType": "address",
          "name": "proposer",
          "type": "address"
        },
        {
          "internalType": "uint256",
          "name": "eta",
          "type": "uint256"
        },
        {
          "internalType": "uint256",
          "name": "startBlock",
          "type": "uint256"
        },
        {
          "internalType": "uint256",
          "name": "endBlock",
          "type": "uint256"
        },
        {
          "internalType": "uint256",
          "name": "forVotes",
          "type": "uint256"
        },
        {
          "internalType": "uint256",
          "name": "againstVotes",
          "type": "uint256"
        },
        {
          "internalType": "uint256",
          "name": "rawForVotes",
          "type": "uint256"
        },
        {
          "internalType": "uint256",
          "name": "rawAgainstVotes",
          "type": "uint256"
        },
        {
          "internalType": "bool",
          "name": "canceled",
          "type": "bool"
        },
        {
          "internalType": "bool",
          "name": "executed",
          "type": "bool"
        },
        {
          "internalType": "string",
          "name": "description",
          "type": "string"
        }
      ],
      "stateMutability": "view",
      "type": "function"
    },
    {
      "inputs": [
        {
          "internalType": "address[]",
          "name": "targets",
          "type": "address[]"
        },
        {
          "internalType": "uint256[]",
          "name": "values",
          "type": "uint256[]"
        },
        {
          "internalType": "string[]",
          "name": "signatures",
          "type": "string[]"
        },
        {
          "internalType": "bytes[]",
          "name": "calldatas",
          "type": "bytes[]"
        },
        {
          "internalType": "string",
          "name": "description",
          "type": "string"
        }
      ],
      "name": "propose",
      "outputs": [
        {
          "internalType": "uint256",
          "name": "",
          "type": "uint256"
        }
      ],
      "stateMutability": "nonpayable",
      "type": "function"
    },
    {
      "inputs": [
        {
          "internalType": "uint256",
          "name": "proposalId",
          "type": "uint256"
        }
      ],
      "name": "queue",
      "outputs": [],
      "stateMutability": "nonpayable",
      "type": "function"
    },
    {
      "inputs": [],
      "name": "quorumVotes",
      "outputs": [
        {
          "internalType": "uint256",
          "name": "",
          "type": "uint256"
        }
      ],
      "stateMutability": "view",
      "type": "function"
    },
    {
      "inputs": [
        {
          "internalType": "uint256",
          "name": "proposalId",
          "type": "uint256"
        }
      ],
      "name": "state",
      "outputs": [
        {
          "internalType": "enum Governor.ProposalState",
          "name": "",
          "type": "uint8"
        }
      ],
      "stateMutability": "view",
      "type": "function"
    },
    {
      "inputs": [],
      "name": "timelock",
      "outputs": [
        {
          "internalType": "contract TimelockInterface",
          "name": "",
          "type": "address"
        }
      ],
      "stateMutability": "view",
      "type": "function"
    },
    {
      "inputs": [],
      "name": "votingDelay",
      "outputs": [
        {
          "internalType": "uint256",
          "name": "",
          "type": "uint256"
        }
      ],
      "stateMutability": "pure",
      "type": "function"
    },
    {
      "inputs": [],
      "name": "votingPeriod",
      "outputs": [
        {
          "internalType": "uint256",
          "name": "",
          "type": "uint256"
        }
      ],
      "stateMutability": "pure",
      "type": "function"
    }
  ],
  "bytecode": "0x60806040523480156200001157600080fd5b506040516200376138038062003761833981016040819052620000349162000077565b600080546001600160a01b039485166001600160a01b031991821617909155600180549385169382169390931790925560028054919093169116179055620000e3565b6000806000606084860312156200008c578283fd5b83516200009981620000ca565b6020850151909350620000ac81620000ca565b6040850151909250620000bf81620000ca565b809150509250925092565b6001600160a01b0381168114620000e057600080fd5b50565b61366e80620000f36000396000f3fe6080604052600436106101b75760003560e01c8063760fbc13116100ec578063da35c6641161008a578063ddf0b00911610064578063ddf0b00914610494578063deaaa7cc146104b4578063e23a9a52146104c9578063fe0d94c1146104f6576101b7565b8063da35c6641461043f578063da95691a14610454578063dbfa977f14610474576101b7565b806394a08d58116100c657806394a08d58146103eb578063b58131b014610400578063b9a6196114610415578063d33219b41461042a576101b7565b8063760fbc13146103a15780637bdbe4d0146103b657806391500671146103cb576101b7565b8063328dd9821161015957806340e58ee51161013357806340e58ee51461031f578063452a93201461033f5780634925ec55146103615780635d25460814610381576101b7565b8063328dd982146102ad5780633932abb1146102dd5780633e4f49e6146102f2576101b7565b806317977c611161019557806317977c611461024157806320606b701461026157806321f43e421461027657806324bc1a6414610298576101b7565b8063013cf08b146101bc57806302a251a3146101fd57806306fdde031461021f575b600080fd5b3480156101c857600080fd5b506101dc6101d7366004612777565b610509565b6040516101f49c9b9a999897969594939291906134d6565b60405180910390f35b34801561020957600080fd5b5061021261062e565b6040516101f49190612bde565b34801561022b57600080fd5b50610234610635565b6040516101f49190612c55565b34801561024d57600080fd5b5061021261025c3660046125a1565b610662565b34801561026d57600080fd5b50610212610674565b34801561028257600080fd5b506102966102913660046125d9565b610698565b005b3480156102a457600080fd5b5061021261077f565b3480156102b957600080fd5b506102cd6102c8366004612777565b610932565b6040516101f49493929190612b86565b3480156102e957600080fd5b50610212610bc1565b3480156102fe57600080fd5b5061031261030d366004612777565b610bc6565b6040516101f49190612c41565b34801561032b57600080fd5b5061029661033a366004612777565b610d56565b34801561034b57600080fd5b50610354610fbf565b6040516101f49190612a15565b34801561036d57600080fd5b5061023461037c366004612777565b610fce565b34801561038d57600080fd5b5061029661039c3660046127be565b611072565b3480156103ad57600080fd5b50610296611222565b3480156103c257600080fd5b5061021261125e565b3480156103d757600080fd5b506102966103e63660046125d9565b611263565b3480156103f757600080fd5b50610354611338565b34801561040c57600080fd5b50610212611347565b34801561042157600080fd5b50610296611355565b34801561043657600080fd5b506103546113da565b34801561044b57600080fd5b506102126113e9565b34801561046057600080fd5b5061021261046f366004612604565b6113ef565b34801561048057600080fd5b5061029661048f366004612829565b611743565b3480156104a057600080fd5b506102966104af366004612777565b61174f565b3480156104c057600080fd5b506102126119b9565b3480156104d557600080fd5b506104e96104e436600461278f565b6119dd565b6040516101f49190613400565b610296610504366004612777565b611a5b565b60046020528060005260406000206000915090508060000154908060010160009054906101000a90046001600160a01b03169080600201549080600701549080600801549080600901549080600a01549080600b01549080600c01549080600d0160009054906101000a900460ff169080600d0160019054906101000a900460ff169080600e018054600181600116156101000203166002900480601f0160208091040260200160405190810160405280929190818152602001828054600181600116156101000203166002900480156106245780601f106105f957610100808354040283529160200191610624565b820191906000526020600020905b81548152906001019060200180831161060757829003601f168201915b505050505090508c565b6143805b90565b6040518060400160405280601181526020017021a6269c102220a79023b7bb32b93737b960791b81525081565b60056020526000908152604090205481565b7f8cad95687ba82c2ce50e74f7b754645e5117c3a5bec8151c0726d5857980a86681565b6002546001600160a01b031633146106cb5760405162461bcd60e51b81526004016106c290612f4c565b60405180910390fd5b600080546040516001600160a01b0390911691630825f38f918391906106f5908790602001612a15565b604051602081830303815290604052856040518563ffffffff1660e01b81526004016107249493929190612a42565b600060405180830381600087803b15801561073e57600080fd5b505af1158015610752573d6000803e3d6000fd5b505050506040513d6000823e601f3d908101601f1916820160405261077a9190810190612704565b505050565b600154604080516357406cef60e11b8152905160009283926001600160a01b03909116916370a0823191839163ae80d9de91600480820192602092909190829003018186803b1580156107d157600080fd5b505afa1580156107e5573d6000803e3d6000fd5b505050506040513d601f19601f8201168201806040525081019061080991906125bd565b6040518263ffffffff1660e01b81526004016108259190612a15565b60206040518083038186803b15801561083d57600080fd5b505afa158015610851573d6000803e3d6000fd5b505050506040513d601f19601f8201168201806040525081019061087591906126ec565b9050600081600160009054906101000a90046001600160a01b03166001600160a01b031663c4e41b226040518163ffffffff1660e01b815260040160206040518083038186803b1580156108c857600080fd5b505afa1580156108dc573d6000803e3d6000fd5b505050506040513d601f19601f8201168201806040525081019061090091906126ec565b03905080156109255761091c610917826019611c20565b611c5c565b92505050610632565b649341498e019250505090565b606080606080600060046000878152602001908152602001600020905080600301816004018260050183600601838054806020026020016040519081016040528092919081815260200182805480156109b457602002820191906000526020600020905b81546001600160a01b03168152600190910190602001808311610996575b5050505050935082805480602002602001604051908101604052809291908181526020018280548015610a0657602002820191906000526020600020905b8154815260200190600101908083116109f2575b5050505050925081805480602002602001604051908101604052809291908181526020016000905b82821015610ad95760008481526020908190208301805460408051601f6002600019610100600187161502019094169390930492830185900485028101850190915281815292830182828015610ac55780601f10610a9a57610100808354040283529160200191610ac5565b820191906000526020600020905b815481529060010190602001808311610aa857829003601f168201915b505050505081526020019060010190610a2e565b50505050915080805480602002602001604051908101604052809291908181526020016000905b82821015610bab5760008481526020908190208301805460408051601f6002600019610100600187161502019094169390930492830185900485028101850190915281815292830182828015610b975780601f10610b6c57610100808354040283529160200191610b97565b820191906000526020600020905b815481529060010190602001808311610b7a57829003601f168201915b505050505081526020019060010190610b00565b5050505090509450945094509450509193509193565b600190565b60008160035410158015610bda5750600082115b610bf65760405162461bcd60e51b81526004016106c290612fb9565b6000828152600460205260409020600d81015460ff1615610c1b576002915050610d51565b80600701544311610c30576000915050610d51565b80600801544311610c45576001915050610d51565b80600a01548160090154111580610c665750610c5f61077f565b8160090154105b15610c75576003915050610d51565b6002810154610c88576004915050610d51565b600d810154610100900460ff1615610ca4576007915050610d51565b610d35816002015460008054906101000a90046001600160a01b03166001600160a01b031663c1a287e26040518163ffffffff1660e01b815260040160206040518083038186803b158015610cf857600080fd5b505afa158015610d0c573d6000803e3d6000fd5b505050506040513d601f19601f82011682018060405250810190610d3091906126ec565b611c8d565b4210610d45576006915050610d51565b6005915050610d51565b505b919050565b6000610d6182610bc6565b90506007816007811115610d7157fe5b1415610d8f5760405162461bcd60e51b81526004016106c290612e3a565b60008281526004602052604090206002546001600160a01b0316331480610e5a5750610db9611347565b60018054838201546001600160a01b039182169263782d6fe19290911690610de2904390611cb2565b6040518363ffffffff1660e01b8152600401610dff929190612a29565b60206040518083038186803b158015610e1757600080fd5b505afa158015610e2b573d6000803e3d6000fd5b505050506040513d601f19601f82011682018060405250810190610e4f919061286a565b6001600160601b0316105b610e765760405162461bcd60e51b81526004016106c29061329b565b600d8101805460ff1916600117905560005b6003820154811015610f82576000546003830180546001600160a01b039092169163591fcdfe919084908110610eba57fe5b6000918252602090912001546004850180546001600160a01b039092169185908110610ee257fe5b9060005260206000200154856005018581548110610efc57fe5b90600052602060002001866006018681548110610f1557fe5b9060005260206000200187600201546040518663ffffffff1660e01b8152600401610f44959493929190612b2b565b600060405180830381600087803b158015610f5e57600080fd5b505af1158015610f72573d6000803e3d6000fd5b505060019092019150610e889050565b507f789cf55be980739dad1d0699b93b58e806b51c9d96619bfa8fe0a28abaa7b30c83604051610fb29190612bde565b60405180910390a1505050565b6002546001600160a01b031681565b600081815260046020908152604091829020600e0180548351601f60026000196101006001861615020190931692909204918201849004840281018401909452808452606093928301828280156110665780601f1061103b57610100808354040283529160200191611066565b820191906000526020600020905b81548152906001019060200180831161104957829003601f168201915b50505050509050919050565b60408051808201909152601181527021a6269c102220a79023b7bb32b93737b960791b60209091015260007f8cad95687ba82c2ce50e74f7b754645e5117c3a5bec8151c0726d5857980a8667f5c6c4638be9dacb7243638d3b44c65664c952613289876d97c23e080e4e9ff336110e7611cda565b306040516020016110fb9493929190612be7565b60405160208183030381529060405280519060200120905060007f8e25870c07e0b0b3884c78da52790939a455c275406c44ae8b434b692fb916ee888860405160200161114a93929190612c0b565b604051602081830303815290604052805190602001209050600082826040516020016111779291906129fa565b6040516020818303038152906040528051906020012090506000600182898989604051600081526020016040526040516111b49493929190612c23565b6020604051602081039080840390855afa1580156111d6573d6000803e3d6000fd5b5050604051601f1901519150506001600160a01b0381166112095760405162461bcd60e51b81526004016106c2906133b6565b611215818b8b88611cde565b505050505b505050505050565b6002546001600160a01b0316331461124c5760405162461bcd60e51b81526004016106c290613151565b600280546001600160a01b0319169055565b600a90565b6002546001600160a01b0316331461128d5760405162461bcd60e51b81526004016106c290612d22565b600080546040516001600160a01b0390911691633a66f901918391906112b7908790602001612a15565b604051602081830303815290604052856040518563ffffffff1660e01b81526004016112e69493929190612a42565b602060405180830381600087803b15801561130057600080fd5b505af1158015611314573d6000803e3d6000fd5b505050506040513d601f19601f8201168201806040525081019061077a91906126ec565b6001546001600160a01b031681565b69152d02c7e14af680000090565b6002546001600160a01b0316331461137f5760405162461bcd60e51b81526004016106c2906131ff565b6000805460408051630e18b68160e01b815290516001600160a01b0390921692630e18b6819260048084019382900301818387803b1580156113c057600080fd5b505af11580156113d4573d6000803e3d6000fd5b50505050565b6000546001600160a01b031681565b60035481565b60006113f9611347565b600180546001600160a01b03169063782d6fe190339061141a904390611cb2565b6040518363ffffffff1660e01b8152600401611437929190612a29565b60206040518083038186803b15801561144f57600080fd5b505afa158015611463573d6000803e3d6000fd5b505050506040513d601f19601f82011682018060405250810190611487919061286a565b6001600160601b0316116114ad5760405162461bcd60e51b81526004016106c290612c68565b845186511480156114bf575083518651145b80156114cc575082518651145b6114e85760405162461bcd60e51b81526004016106c290612cc5565b85516115065760405162461bcd60e51b81526004016106c290612e8b565b61150e61125e565b8651111561152e5760405162461bcd60e51b81526004016106c290612df7565b3360009081526005602052604090205480156115ab57600061154f82610bc6565b9050600181600781111561155f57fe5b141561157d5760405162461bcd60e51b81526004016106c290612ffd565b600081600781111561158b57fe5b14156115a95760405162461bcd60e51b81526004016106c290612ed2565b505b60006115b943610d30610bc1565b905060006115c982610d3061062e565b6003805460019081018083556000818152600460209081526040822092835592820180546001600160a01b0319163317905560028201558c5193945092611615928401918d019061217f565b50885161162b90600483019060208c01906121e4565b50875161164190600583019060208b019061222b565b50865161165790600683019060208a0190612284565b506007810183905560088101829055600060098201819055600a8201819055600b8201819055600c820155600d8101805461ffff1916905585516116a490600e83019060208901906122dd565b508060000154600560008360010160009054906101000a90046001600160a01b03166001600160a01b03166001600160a01b03168152602001908152602001600020819055507f7d84a6263ae0d98d3329bd7b46bb4e8d6f98cd35a7adb45c274c8b7fd5ebd5e08160000154338c8c8c8c89898e60405161172d9998979695949392919061343e565b60405180910390a1549998505050505050505050565b61077a33848484611cde565b600461175a82610bc6565b600781111561176557fe5b146117825760405162461bcd60e51b81526004016106c290613359565b600081815260046020818152604080842084548251630d48571f60e31b815292519195946117d79442946001600160a01b0390931693636a42b8f8938084019390829003018186803b158015610cf857600080fd5b905060005b600383015481101561197f576119778360030182815481106117fa57fe5b6000918252602090912001546004850180546001600160a01b03909216918490811061182257fe5b906000526020600020015485600501848154811061183c57fe5b600091825260209182902001805460408051601f60026000196101006001871615020190941693909304928301859004850281018501909152818152928301828280156118ca5780601f1061189f576101008083540402835291602001916118ca565b820191906000526020600020905b8154815290600101906020018083116118ad57829003601f168201915b50505050508660060185815481106118de57fe5b600091825260209182902001805460408051601f600260001961010060018716150201909416939093049283018590048502810185019091528181529283018282801561196c5780601f106119415761010080835404028352916020019161196c565b820191906000526020600020905b81548152906001019060200180831161194f57829003601f168201915b505050505086611ff1565b6001016117dc565b50600282018190556040517f9a2e42fd6722813d69113e7d0079d3d940171428df7373df9c7f7617cfda289290610fb2908590849061354f565b7f8e25870c07e0b0b3884c78da52790939a455c275406c44ae8b434b692fb916ee81565b6119e561234a565b5060008281526004602090815260408083206001600160a01b0385168452600f018252918290208251608081018452905460ff808216151583526101008204161515928201929092526001600160601b03620100008304811693820193909352600160701b909104909116606082015292915050565b6005611a6682610bc6565b6007811115611a7157fe5b14611a8e5760405162461bcd60e51b81526004016106c2906130c8565b6000818152600460205260408120600d8101805461ff001916610100179055905b6003820154811015611be4576000546004830180546001600160a01b0390921691630825f38f919084908110611ae157fe5b9060005260206000200154846003018481548110611afb57fe5b6000918252602090912001546004860180546001600160a01b039092169186908110611b2357fe5b9060005260206000200154866005018681548110611b3d57fe5b90600052602060002001876006018781548110611b5657fe5b9060005260206000200188600201546040518763ffffffff1660e01b8152600401611b85959493929190612b2b565b6000604051808303818588803b158015611b9e57600080fd5b505af1158015611bb2573d6000803e3d6000fd5b50505050506040513d6000823e601f3d908101601f19168201604052611bdb9190810190612704565b50600101611aaf565b507f712ae1383f79ac853f8d882153778e0260ef8f03b504e2866e0593e04d2b291f82604051611c149190612bde565b60405180910390a15050565b6000611c5583836040518060400160405280601081526020016f6469766973696f6e206279207a65726f60801b815250612148565b9392505050565b80600260018201045b81811015610d4f57809150600281828581611c7c57fe5b040181611c8557fe5b049050611c65565b600082820183811015611c555760405162461bcd60e51b81526004016106c290613126565b600082821115611cd45760405162461bcd60e51b81526004016106c29061332a565b50900390565b4690565b6001611ce984610bc6565b6007811115611cf457fe5b14611d115760405162461bcd60e51b81526004016106c2906132e5565b60008381526004602090815260408083206001600160a01b0388168452600f8101909252909120805460ff1615611d5a5760405162461bcd60e51b81526004016106c290613253565b6000836001600160601b031611611d835760405162461bcd60e51b81526004016106c290612d8d565b8054600154600784015460405163782d6fe160e01b81526000936201000090046001600160601b0316926001600160a01b03169163782d6fe191611dcb918c91600401612a29565b60206040518083038186803b158015611de357600080fd5b505afa158015611df7573d6000803e3d6000fd5b505050506040513d601f19601f82011682018060405250810190611e1b919061286a565b039050806001600160601b0316846001600160601b03161115611e505760405162461bcd60e51b81526004016106c290613076565b6000611e64856001600160601b0316611c5c565b90508515611eaa57611e838460090154826001600160601b0316611c8d565b6009850155600b840154611ea0906001600160601b038716611c8d565b600b850155611ee4565b611ec184600a0154826001600160601b0316611c8d565b600a850155600c840154611ede906001600160601b038716611c8d565b600c8501555b600154604051633969f74f60e11b81526001600160a01b03909116906372d3ee9e90611f16908b908990600401612b64565b600060405180830381600087803b158015611f3057600080fd5b505af1158015611f44573d6000803e3d6000fd5b50508454600160ff199091161761ff00191661010089151502176dffffffffffffffffffffffff00001916620100006001600160601b0385811691909102919091176bffffffffffffffffffffffff60701b1916600160701b9189169190910217855550506040517f877856338e13f63d0c36822ff0ef736b80934cd90574a3a5bc9262c39d217c4690611fdf908a908a908a908690612aae565b60405180910390a15050505050505050565b6000546040516001600160a01b039091169063f2b065379061201f9088908890889088908890602001612adf565b604051602081830303815290604052805190602001206040518263ffffffff1660e01b81526004016120519190612bde565b60206040518083038186803b15801561206957600080fd5b505afa15801561207d573d6000803e3d6000fd5b505050506040513d601f19601f820116820180604052508101906120a191906126d0565b156120be5760405162461bcd60e51b81526004016106c2906131a2565b600054604051633a66f90160e01b81526001600160a01b0390911690633a66f901906120f69088908890889088908890600401612adf565b602060405180830381600087803b15801561211057600080fd5b505af1158015612124573d6000803e3d6000fd5b505050506040513d601f19601f8201168201806040525081019061121a91906126ec565b600081836121695760405162461bcd60e51b81526004016106c29190612c55565b50600083858161217557fe5b0495945050505050565b8280548282559060005260206000209081019282156121d4579160200282015b828111156121d457825182546001600160a01b0319166001600160a01b0390911617825560209092019160019091019061219f565b506121e0929150612371565b5090565b82805482825590600052602060002090810192821561221f579160200282015b8281111561221f578251825591602001919060010190612204565b506121e0929150612390565b828054828255906000526020600020908101928215612278579160200282015b8281111561227857825180516122689184916020909101906122dd565b509160200191906001019061224b565b506121e09291506123a5565b8280548282559060005260206000209081019282156122d1579160200282015b828111156122d157825180516122c19184916020909101906122dd565b50916020019190600101906122a4565b506121e09291506123c2565b828054600181600116156101000203166002900490600052602060002090601f016020900481019282601f1061231e57805160ff191683800117855561221f565b8280016001018555821561221f579182018281111561221f578251825591602001919060010190612204565b60408051608081018252600080825260208201819052918101829052606081019190915290565b5b808211156121e05780546001600160a01b0319168155600101612372565b5b808211156121e05760008155600101612391565b808211156121e05760006123b982826123df565b506001016123a5565b808211156121e05760006123d682826123df565b506001016123c2565b50805460018160011615610100020316600290046000825580601f106124055750612423565b601f0160209004906000526020600020908101906124239190612390565b50565b600082601f830112612436578081fd5b813561244961244482613584565b61355d565b81815291506020808301908481018184028601820187101561246a57600080fd5b60005b8481101561249257813561248081613600565b8452928201929082019060010161246d565b505050505092915050565b600082601f8301126124ad578081fd5b81356124bb61244482613584565b818152915060208083019084810160005b84811015612492576124e3888484358a0101612553565b845292820192908201906001016124cc565b600082601f830112612505578081fd5b813561251361244482613584565b81815291506020808301908481018184028601820187101561253457600080fd5b60005b8481101561249257813584529282019290820190600101612537565b600082601f830112612563578081fd5b8135612571612444826135a4565b915080825283602082850101111561258857600080fd5b8060208401602084013760009082016020015292915050565b6000602082840312156125b2578081fd5b8135611c5581613600565b6000602082840312156125ce578081fd5b8151611c5581613600565b600080604083850312156125eb578081fd5b82356125f681613600565b946020939093013593505050565b600080600080600060a0868803121561261b578081fd5b853567ffffffffffffffff80821115612632578283fd5b61263e89838a01612426565b96506020880135915080821115612653578283fd5b61265f89838a016124f5565b95506040880135915080821115612674578283fd5b61268089838a0161249d565b94506060880135915080821115612695578283fd5b6126a189838a0161249d565b935060808801359150808211156126b6578283fd5b506126c388828901612553565b9150509295509295909350565b6000602082840312156126e1578081fd5b8151611c5581613615565b6000602082840312156126fd578081fd5b5051919050565b600060208284031215612715578081fd5b815167ffffffffffffffff81111561272b578182fd5b8201601f8101841361273b578182fd5b8051612749612444826135a4565b81815285602083850101111561275d578384fd5b61276e8260208301602086016135d4565b95945050505050565b600060208284031215612788578081fd5b5035919050565b600080604083850312156127a1578182fd5b8235915060208301356127b381613600565b809150509250929050565b60008060008060008060c087890312156127d6578384fd5b8635955060208701356127e881613615565b9450604087013560ff811681146127fd578485fd5b9350606087013592506080870135915060a087013561281b81613623565b809150509295509295509295565b60008060006060848603121561283d578081fd5b83359250602084013561284f81613615565b9150604084013561285f81613623565b809150509250925092565b60006020828403121561287b578081fd5b8151611c5581613623565b6000815180845260208085019450808401835b838110156128be5781516001600160a01b031687529582019590820190600101612899565b509495945050505050565b6000815180845260208085018081965082840281019150828601855b8581101561290f5782840389526128fd84835161294b565b988501989350908401906001016128e5565b5091979650505050505050565b6000815180845260208085019450808401835b838110156128be5781518752958201959082019060010161292f565b600081518084526129638160208601602086016135d4565b601f01601f19169290920160200192915050565b6000815460018082166000811461299557600181146129b3576129f1565b60028304607f16865260ff19831660208701526040860193506129f1565b600283048087526129c3866135c8565b60005b828110156129e75781546020828b01015284820191506020810190506129c6565b8801602001955050505b50505092915050565b61190160f01b81526002810192909252602282015260420190565b6001600160a01b0391909116815260200190565b6001600160a01b03929092168252602082015260400190565b600060018060a01b038616825284602083015260a06040830152601860a08301527f73657450656e64696e6741646d696e286164647265737329000000000000000060c083015260e06060830152612a9d60e083018561294b565b905082608083015295945050505050565b6001600160a01b039490941684526020840192909252151560408301526001600160601b0316606082015260800190565b600060018060a01b038716825285602083015260a06040830152612b0660a083018661294b565b8281036060840152612b18818661294b565b9150508260808301529695505050505050565b600060018060a01b038716825285602083015260a06040830152612b5260a0830186612977565b8281036060840152612b188186612977565b6001600160a01b039290921682526001600160601b0316602082015260400190565b600060808252612b996080830187612886565b8281036020840152612bab818761291c565b90508281036040840152612bbf81866128c9565b90508281036060840152612bd381856128c9565b979650505050505050565b90815260200190565b938452602084019290925260408301526001600160a01b0316606082015260800190565b92835260208301919091521515604082015260600190565b93845260ff9290921660208401526040830152606082015260800190565b6020810160088310612c4f57fe5b91905290565b600060208252611c55602083018461294b565b6020808252603a908201527f476f7665726e6f723a3a70726f706f73653a2070726f706f73657220766f746560408201527f732062656c6f772070726f706f73616c207468726573686f6c64000000000000606082015260800190565b6020808252603f908201527f476f7665726e6f723a3a70726f706f73653a2070726f706f73616c2066756e6360408201527f74696f6e20696e666f726d6174696f6e206172697479206d69736d6174636800606082015260800190565b60208082526045908201527f476f7665726e6f723a3a5f5f717565756553657454696d656c6f636b50656e6460408201527f696e6741646d696e3a2073656e646572206d75737420626520676f7620677561606082015264393234b0b760d91b608082015260a00190565b60208082526044908201527f476f7665726e6f723a3a5f63617374566f74653a206e6f20656c696769626c6560408201527f20766f746573207072696f7220746f2070726f706f73616c20737461727420626060820152636c6f636b60e01b608082015260a00190565b60208082526023908201527f476f7665726e6f723a3a70726f706f73653a20746f6f206d616e7920616374696040820152626f6e7360e81b606082015260800190565b60208082526031908201527f476f7665726e6f723a3a63616e63656c3a2063616e6e6f742063616e63656c20604082015270195e1958dd5d1959081c1c9bdc1bdcd85b607a1b606082015260800190565b60208082526027908201527f476f7665726e6f723a3a70726f706f73653a206d7573742070726f7669646520604082015266616374696f6e7360c81b606082015260800190565b60208082526054908201527f476f7665726e6f723a3a70726f706f73653a206f6e65206c6976652070726f7060408201527f6f73616c207065722070726f706f7365722c20666f756e6420616e20616c726560608201527318591e481c195b991a5b99c81c1c9bdc1bdcd85b60621b608082015260a00190565b60208082526047908201527f476f7665726e6f723a3a5f5f6578656375746553657454696d656c6f636b506560408201527f6e64696e6741646d696e3a2073656e646572206d75737420626520676f7620676060820152663ab0b93234b0b760c91b608082015260a00190565b60208082526024908201527f476f7665726e6f723a3a73746174653a20696e76616c69642070726f706f73616040820152631b081a5960e21b606082015260800190565b60208082526053908201527f476f7665726e6f723a3a70726f706f73653a206f6e65206c6976652070726f7060408201527f6f73616c207065722070726f706f7365722c20666f756e6420616e20616c726560608201527218591e481858dd1a5d99481c1c9bdc1bdcd85b606a1b608082015260a00190565b60208082526032908201527f476f7665726e6f723a3a5f63617374566f74653a20766f746573206578636565604082015271191cc8195b1a59da589b1948185b5bdd5b9d60721b606082015260800190565b602080825260409082018190527f476f7665726e6f723a3a657865637574653a2070726f706f73616c2063616e20908201527f6f6e6c7920626520657865637574656420696620697420697320717565756564606082015260800190565b6020808252601190820152706164646974696f6e206f766572666c6f7760781b604082015260600190565b60208082526031908201527f476f7665726e6f723a3a5f5f61626469636174653a2073656e646572206d75736040820152703a1031329033b7bb1033bab0b93234b0b760791b606082015260800190565b6020808252603f908201527f476f7665726e6f723a3a5f71756575654f725265766572743a2070726f706f7360408201527f616c20616374696f6e20616c7265616479207175657565642061742065746100606082015260800190565b60208082526034908201527f476f7665726e6f723a3a5f5f61636365707441646d696e3a2073656e6465722060408201527336bab9ba1031329033b7bb1033bab0b93234b0b760611b606082015260800190565b60208082526028908201527f476f7665726e6f723a3a5f63617374566f74653a20766f74657220616c726561604082015267191e481d9bdd195960c21b606082015260800190565b6020808252602a908201527f476f7665726e6f723a3a63616e63656c3a2070726f706f7365722061626f7665604082015269081d1a1c995cda1bdb1960b21b606082015260800190565b60208082526025908201527f476f7665726e6f723a3a5f63617374566f74653a20766f74696e6720697320636040820152641b1bdcd95960da1b606082015260800190565b6020808252601590820152747375627472616374696f6e20756e646572666c6f7760581b604082015260600190565b6020808252603f908201527f476f7665726e6f723a3a71756575653a2070726f706f73616c2063616e206f6e60408201527f6c79206265207175657565642069662069742069732073756363656564656400606082015260800190565b6020808252602a908201527f476f7665726e6f723a3a63617374566f746542795369673a20696e76616c6964604082015269207369676e617475726560b01b606082015260800190565b8151151581526020808301511515908201526040808301516001600160601b0390811691830191909152606092830151169181019190915260800190565b8981526001600160a01b0389166020820152610120604082018190526000906134698382018b612886565b9050828103606084015261347d818a61291c565b9050828103608084015261349181896128c9565b905082810360a08401526134a581886128c9565b90508560c08401528460e08401528281036101008401526134c6818561294b565b9c9b505050505050505050505050565b60006101808e835260018060a01b038e1660208401528c60408401528b60608401528a60808401528960a08401528860c08401528760e0840152866101008401528515156101208401528415156101408401528061016084015261353c8184018561294b565b9f9e505050505050505050505050505050565b918252602082015260400190565b60405181810167ffffffffffffffff8111828210171561357c57600080fd5b604052919050565b600067ffffffffffffffff82111561359a578081fd5b5060209081020190565b600067ffffffffffffffff8211156135ba578081fd5b50601f01601f191660200190565b60009081526020902090565b60005b838110156135ef5781810151838201526020016135d7565b838111156113d45750506000910152565b6001600160a01b038116811461242357600080fd5b801515811461242357600080fd5b6001600160601b038116811461242357600080fdfea2646970667358221220156a574d254efe0bb0f33ea6898c7aa1da0d13b672bd43a9e35360e15507476364736f6c63430007000033",
  "linkReferences": {},
  "deployedLinkReferences": {}
}