{
  "_format": "hh-sol-artifact-1",
  "contractName": "Governor",
  "sourceName": "contracts/Governance/Governor.sol",
  "abi": [
    {
      "inputs": [
        {
          "internalType": "address",
          "name": "timelock_",
          "type": "address"
        },
        {
          "internalType": "address",
          "name": "dclm8_",
          "type": "address"
        },
        {
          "internalType": "address",
          "name": "guardian_",
          "type": "address"
        }
      ],
      "stateMutability": "nonpayable",
      "type": "constructor"
    },
    {
      "anonymous": false,
      "inputs": [
        {
          "indexed": false,
          "internalType": "uint256",
          "name": "id",
          "type": "uint256"
        }
      ],
      "name": "ProposalCanceled",
      "type": "event"
    },
    {
      "anonymous": false,
      "inputs": [
        {
          "indexed": false,
          "internalType": "uint256",
          "name": "id",
          "type": "uint256"
        },
        {
          "indexed": false,
          "internalType": "address",
          "name": "proposer",
          "type": "address"
        },
        {
          "indexed": false,
          "internalType": "address[]",
          "name": "targets",
          "type": "address[]"
        },
        {
          "indexed": false,
          "internalType": "uint256[]",
          "name": "values",
          "type": "uint256[]"
        },
        {
          "indexed": false,
          "internalType": "string[]",
          "name": "signatures",
          "type": "string[]"
        },
        {
          "indexed": false,
          "internalType": "bytes[]",
          "name": "calldatas",
          "type": "bytes[]"
        },
        {
          "indexed": false,
          "internalType": "uint256",
          "name": "startBlock",
          "type": "uint256"
        },
        {
          "indexed": false,
          "internalType": "uint256",
          "name": "endBlock",
          "type": "uint256"
        },
        {
          "indexed": false,
          "internalType": "string",
          "name": "description",
          "type": "string"
        }
      ],
      "name": "ProposalCreated",
      "type": "event"
    },
    {
      "anonymous": false,
      "inputs": [
        {
          "indexed": false,
          "internalType": "uint256",
          "name": "id",
          "type": "uint256"
        }
      ],
      "name": "ProposalExecuted",
      "type": "event"
    },
    {
      "anonymous": false,
      "inputs": [
        {
          "indexed": false,
          "internalType": "uint256",
          "name": "id",
          "type": "uint256"
        },
        {
          "indexed": false,
          "internalType": "uint256",
          "name": "eta",
          "type": "uint256"
        }
      ],
      "name": "ProposalQueued",
      "type": "event"
    },
    {
      "anonymous": false,
      "inputs": [
        {
          "indexed": false,
          "internalType": "address",
          "name": "voter",
          "type": "address"
        },
        {
          "indexed": false,
          "internalType": "uint256",
          "name": "proposalId",
          "type": "uint256"
        },
        {
          "indexed": false,
          "internalType": "bool",
          "name": "support",
          "type": "bool"
        },
        {
          "indexed": false,
          "internalType": "uint256",
          "name": "votes",
          "type": "uint256"
        }
      ],
      "name": "VoteCast",
      "type": "event"
    },
    {
      "inputs": [],
      "name": "BALLOT_TYPEHASH",
      "outputs": [
        {
          "internalType": "bytes32",
          "name": "",
          "type": "bytes32"
        }
      ],
      "stateMutability": "view",
      "type": "function"
    },
    {
      "inputs": [],
      "name": "DOMAIN_TYPEHASH",
      "outputs": [
        {
          "internalType": "bytes32",
          "name": "",
          "type": "bytes32"
        }
      ],
      "stateMutability": "view",
      "type": "function"
    },
    {
      "inputs": [],
      "name": "__abdicate",
      "outputs": [],
      "stateMutability": "nonpayable",
      "type": "function"
    },
    {
      "inputs": [],
      "name": "__acceptAdmin",
      "outputs": [],
      "stateMutability": "nonpayable",
      "type": "function"
    },
    {
      "inputs": [
        {
          "internalType": "address",
          "name": "newPendingAdmin",
          "type": "address"
        },
        {
          "internalType": "uint256",
          "name": "eta",
          "type": "uint256"
        }
      ],
      "name": "__executeSetTimelockPendingAdmin",
      "outputs": [],
      "stateMutability": "nonpayable",
      "type": "function"
    },
    {
      "inputs": [
        {
          "internalType": "address",
          "name": "newPendingAdmin",
          "type": "address"
        },
        {
          "internalType": "uint256",
          "name": "eta",
          "type": "uint256"
        }
      ],
      "name": "__queueSetTimelockPendingAdmin",
      "outputs": [],
      "stateMutability": "nonpayable",
      "type": "function"
    },
    {
      "inputs": [
        {
          "internalType": "uint256",
          "name": "proposalId",
          "type": "uint256"
        }
      ],
      "name": "cancel",
      "outputs": [],
      "stateMutability": "nonpayable",
      "type": "function"
    },
    {
      "inputs": [
        {
          "internalType": "uint256",
          "name": "proposalId",
          "type": "uint256"
        },
        {
          "internalType": "bool",
          "name": "support",
          "type": "bool"
        },
        {
          "internalType": "uint96",
          "name": "votes",
          "type": "uint96"
        }
      ],
      "name": "castVote",
      "outputs": [],
      "stateMutability": "nonpayable",
      "type": "function"
    },
    {
      "inputs": [
        {
          "internalType": "uint256",
          "name": "proposalId",
          "type": "uint256"
        },
        {
          "internalType": "bool",
          "name": "support",
          "type": "bool"
        },
        {
          "internalType": "uint8",
          "name": "v",
          "type": "uint8"
        },
        {
          "internalType": "bytes32",
          "name": "r",
          "type": "bytes32"
        },
        {
          "internalType": "bytes32",
          "name": "s",
          "type": "bytes32"
        },
        {
          "internalType": "uint96",
          "name": "votes",
          "type": "uint96"
        }
      ],
      "name": "castVoteBySig",
      "outputs": [],
      "stateMutability": "nonpayable",
      "type": "function"
    },
    {
      "inputs": [],
      "name": "dclm8",
      "outputs": [
        {
          "internalType": "contract Dclm8Interface",
          "name": "",
          "type": "address"
        }
      ],
      "stateMutability": "view",
      "type": "function"
    },
    {
      "inputs": [
        {
          "internalType": "uint256",
          "name": "proposalId",
          "type": "uint256"
        }
      ],
      "name": "execute",
      "outputs": [],
      "stateMutability": "payable",
      "type": "function"
    },
    {
      "inputs": [
        {
          "internalType": "uint256",
          "name": "proposalId",
          "type": "uint256"
        }
      ],
      "name": "getActions",
      "outputs": [
        {
          "internalType": "address[]",
          "name": "targets",
          "type": "address[]"
        },
        {
          "internalType": "uint256[]",
          "name": "values",
          "type": "uint256[]"
        },
        {
          "internalType": "string[]",
          "name": "signatures",
          "type": "string[]"
        },
        {
          "internalType": "bytes[]",
          "name": "calldatas",
          "type": "bytes[]"
        }
      ],
      "stateMutability": "view",
      "type": "function"
    },
    {
      "inputs": [
        {
          "internalType": "uint256",
          "name": "proposalId",
          "type": "uint256"
        }
      ],
      "name": "getDescription",
      "outputs": [
        {
          "internalType": "string",
          "name": "",
          "type": "string"
        }
      ],
      "stateMutability": "view",
      "type": "function"
    },
    {
      "inputs": [
        {
          "internalType": "uint256",
          "name": "proposalId",
          "type": "uint256"
        },
        {
          "internalType": "address",
          "name": "voter",
          "type": "address"
        }
      ],
      "name": "getReceipt",
      "outputs": [
        {
          "components": [
            {
              "internalType": "bool",
              "name": "hasVoted",
              "type": "bool"
            },
            {
              "internalType": "bool",
              "name": "support",
              "type": "bool"
            },
            {
              "internalType": "uint96",
              "name": "votes",
              "type": "uint96"
            },
            {
              "internalType": "uint96",
              "name": "rawVotes",
              "type": "uint96"
            },
            {
              "internalType": "bool",
              "name": "hasVotesRefunded",
              "type": "bool"
            },
            {
              "internalType": "bool",
              "name": "hasStakeRefunded",
              "type": "bool"
            }
          ],
          "internalType": "struct Governor.Receipt",
          "name": "",
          "type": "tuple"
        }
      ],
      "stateMutability": "view",
      "type": "function"
    },
    {
      "inputs": [],
      "name": "guardian",
      "outputs": [
        {
          "internalType": "address",
          "name": "",
          "type": "address"
        }
      ],
      "stateMutability": "view",
      "type": "function"
    },
    {
      "inputs": [
        {
          "internalType": "address",
          "name": "",
          "type": "address"
        }
      ],
      "name": "latestProposalIds",
      "outputs": [
        {
          "internalType": "uint256",
          "name": "",
          "type": "uint256"
        }
      ],
      "stateMutability": "view",
      "type": "function"
    },
    {
      "inputs": [],
      "name": "name",
      "outputs": [
        {
          "internalType": "string",
          "name": "",
          "type": "string"
        }
      ],
      "stateMutability": "view",
      "type": "function"
    },
    {
      "inputs": [],
      "name": "proposalCount",
      "outputs": [
        {
          "internalType": "uint256",
          "name": "",
          "type": "uint256"
        }
      ],
      "stateMutability": "view",
      "type": "function"
    },
    {
      "inputs": [],
      "name": "proposalMaxOperations",
      "outputs": [
        {
          "internalType": "uint256",
          "name": "",
          "type": "uint256"
        }
      ],
      "stateMutability": "pure",
      "type": "function"
    },
    {
      "inputs": [],
      "name": "proposalThreshold",
      "outputs": [
        {
          "internalType": "uint256",
          "name": "",
          "type": "uint256"
        }
      ],
      "stateMutability": "view",
      "type": "function"
    },
    {
      "inputs": [
        {
          "internalType": "uint256",
          "name": "",
          "type": "uint256"
        }
      ],
      "name": "proposals",
      "outputs": [
        {
          "internalType": "uint256",
          "name": "id",
          "type": "uint256"
        },
        {
          "internalType": "address",
          "name": "proposer",
          "type": "address"
        },
        {
          "internalType": "uint256",
          "name": "eta",
          "type": "uint256"
        },
        {
          "internalType": "uint256",
          "name": "startBlock",
          "type": "uint256"
        },
        {
          "internalType": "uint256",
          "name": "endBlock",
          "type": "uint256"
        },
        {
          "internalType": "uint256",
          "name": "forVotes",
          "type": "uint256"
        },
        {
          "internalType": "uint256",
          "name": "againstVotes",
          "type": "uint256"
        },
        {
          "internalType": "uint256",
          "name": "rawForVotes",
          "type": "uint256"
        },
        {
          "internalType": "uint256",
          "name": "rawAgainstVotes",
          "type": "uint256"
        },
        {
          "internalType": "bool",
          "name": "canceled",
          "type": "bool"
        },
        {
          "internalType": "bool",
          "name": "executed",
          "type": "bool"
        },
        {
          "internalType": "string",
          "name": "description",
          "type": "string"
        },
        {
          "internalType": "uint256",
          "name": "parentProposalId",
          "type": "uint256"
        }
      ],
      "stateMutability": "view",
      "type": "function"
    },
    {
      "inputs": [
        {
          "internalType": "address[]",
          "name": "targets",
          "type": "address[]"
        },
        {
          "internalType": "uint256[]",
          "name": "values",
          "type": "uint256[]"
        },
        {
          "internalType": "string[]",
          "name": "signatures",
          "type": "string[]"
        },
        {
          "internalType": "bytes[]",
          "name": "calldatas",
          "type": "bytes[]"
        },
        {
          "internalType": "string",
          "name": "description",
          "type": "string"
        }
      ],
      "name": "propose",
      "outputs": [
        {
          "internalType": "uint256",
          "name": "",
          "type": "uint256"
        }
      ],
      "stateMutability": "nonpayable",
      "type": "function"
    },
    {
      "inputs": [
        {
          "internalType": "address[]",
          "name": "targets",
          "type": "address[]"
        },
        {
          "internalType": "uint256[]",
          "name": "values",
          "type": "uint256[]"
        },
        {
          "internalType": "string[]",
          "name": "signatures",
          "type": "string[]"
        },
        {
          "internalType": "bytes[]",
          "name": "calldatas",
          "type": "bytes[]"
        },
        {
          "internalType": "string[]",
          "name": "descriptions",
          "type": "string[]"
        }
      ],
      "name": "proposeMultiAttribute",
      "outputs": [
        {
          "internalType": "uint256",
          "name": "",
          "type": "uint256"
        }
      ],
      "stateMutability": "nonpayable",
      "type": "function"
    },
    {
      "inputs": [
        {
          "internalType": "uint256",
          "name": "proposalId",
          "type": "uint256"
        }
      ],
      "name": "queue",
      "outputs": [],
      "stateMutability": "nonpayable",
      "type": "function"
    },
    {
      "inputs": [],
      "name": "quorumVotes",
      "outputs": [
        {
          "internalType": "uint256",
          "name": "",
          "type": "uint256"
        }
      ],
      "stateMutability": "view",
      "type": "function"
    },
    {
      "inputs": [
        {
          "internalType": "uint256",
          "name": "proposalId",
          "type": "uint256"
        }
      ],
      "name": "refund",
      "outputs": [],
      "stateMutability": "nonpayable",
      "type": "function"
    },
    {
      "inputs": [
        {
          "internalType": "uint256",
          "name": "_proposalThreshold",
          "type": "uint256"
        }
      ],
      "name": "setProposalThreshold",
      "outputs": [],
      "stateMutability": "nonpayable",
      "type": "function"
    },
    {
      "inputs": [
        {
          "internalType": "uint256",
          "name": "_quorum",
          "type": "uint256"
        }
      ],
      "name": "setQuorum",
      "outputs": [],
      "stateMutability": "nonpayable",
      "type": "function"
    },
    {
      "inputs": [
        {
          "internalType": "uint256",
          "name": "proposalId",
          "type": "uint256"
        }
      ],
      "name": "state",
      "outputs": [
        {
          "internalType": "enum Governor.ProposalState",
          "name": "",
          "type": "uint8"
        }
      ],
      "stateMutability": "view",
      "type": "function"
    },
    {
      "inputs": [],
      "name": "timelock",
      "outputs": [
        {
          "internalType": "contract TimelockInterface",
          "name": "",
          "type": "address"
        }
      ],
      "stateMutability": "view",
      "type": "function"
    },
    {
      "inputs": [],
      "name": "votingDelay",
      "outputs": [
        {
          "internalType": "uint256",
          "name": "",
          "type": "uint256"
        }
      ],
      "stateMutability": "pure",
      "type": "function"
    },
    {
      "inputs": [],
      "name": "votingPeriod",
      "outputs": [
        {
          "internalType": "uint256",
          "name": "",
          "type": "uint256"
        }
      ],
      "stateMutability": "pure",
      "type": "function"
    }
  ],
  "bytecode": "0x608060405264932622b00060005569152d02c7e14af68000006001553480156200002857600080fd5b5060405162003ec838038062003ec88339810160408190526200004b916200008e565b600280546001600160a01b039485166001600160a01b031991821617909155600380549385169382169390931790925560048054919093169116179055620000fa565b600080600060608486031215620000a3578283fd5b8351620000b081620000e1565b6020850151909350620000c381620000e1565b6040850151909250620000d681620000e1565b809150509250925092565b6001600160a01b0381168114620000f757600080fd5b50565b613dbe806200010a6000396000f3fe6080604052600436106101e35760003560e01c8063760fbc1311610102578063da35c66411610095578063deaaa7cc11610064578063deaaa7cc14610541578063e23a9a5214610556578063ece40cc114610583578063fe0d94c1146105a3576101e3565b8063da35c664146104cc578063da95691a146104e1578063dbfa977f14610501578063ddf0b00914610521576101e3565b8063b58131b0116100d1578063b58131b01461046d578063b9a6196114610482578063c1ba4e5914610497578063d33219b4146104b7576101e3565b8063760fbc131461040e5780637bdbe4d014610423578063915006711461043857806394a08d5814610458576101e3565b8063328dd9821161017a578063452a932011610149578063452a93201461038c5780634925ec55146103ae5780635d254608146103ce57806372c3e0c3146103ee576101e3565b8063328dd982146102fa5780633932abb11461032a5780633e4f49e61461033f57806340e58ee51461036c576101e3565b806320606b70116101b657806320606b701461028e57806321f43e42146102a357806324bc1a64146102c5578063278ecde1146102da576101e3565b8063013cf08b146101e857806302a251a31461022a57806306fdde031461024c57806317977c611461026e575b600080fd5b3480156101f457600080fd5b50610208610203366004612e1f565b6105b6565b6040516102219d9c9b9a99989796959493929190613c32565b60405180910390f35b34801561023657600080fd5b5061023f6106e1565b6040516102219190613283565b34801561025857600080fd5b506102616106e7565b60405161022191906132fa565b34801561027a57600080fd5b5061023f610289366004612bb1565b610714565b34801561029a57600080fd5b5061023f610726565b3480156102af57600080fd5b506102c36102be366004612bcc565b61074a565b005b3480156102d157600080fd5b5061023f610832565b3480156102e657600080fd5b506102c36102f5366004612e1f565b610838565b34801561030657600080fd5b5061031a610315366004612e1f565b610ccc565b604051610221949392919061322b565b34801561033657600080fd5b5061023f610f5b565b34801561034b57600080fd5b5061035f61035a366004612e1f565b610f60565b60405161022191906132e6565b34801561037857600080fd5b506102c3610387366004612e1f565b6110fe565b34801561039857600080fd5b506103a1611367565b60405161022191906130ba565b3480156103ba57600080fd5b506102616103c9366004612e1f565b611376565b3480156103da57600080fd5b506102c36103e9366004612e63565b61141a565b3480156103fa57600080fd5b5061023f610409366004612bf6565b6115ca565b34801561041a57600080fd5b506102c36115f6565b34801561042f57600080fd5b5061023f611632565b34801561044457600080fd5b506102c3610453366004612bcc565b611637565b34801561046457600080fd5b506103a161170d565b34801561047957600080fd5b5061023f61171c565b34801561048e57600080fd5b506102c3611722565b3480156104a357600080fd5b506102c36104b2366004612e1f565b6117b6565b3480156104c357600080fd5b506103a16117e5565b3480156104d857600080fd5b5061023f6117f4565b3480156104ed57600080fd5b5061023f6104fc366004612cc2565b6117fa565b34801561050d57600080fd5b506102c361051c366004612ece565b611bb8565b34801561052d57600080fd5b506102c361053c366004612e1f565b611bc4565b34801561054d57600080fd5b5061023f611ec5565b34801561056257600080fd5b50610576610571366004612e37565b611ee9565b6040516102219190613b3f565b34801561058f57600080fd5b506102c361059e366004612e1f565b611f88565b6102c36105b1366004612e1f565b611fb7565b60066020528060005260406000206000915090508060000154908060010160009054906101000a90046001600160a01b03169080600201549080600701549080600801549080600901549080600a01549080600b01549080600c01549080600d0160009054906101000a900460ff169080600d0160019054906101000a900460ff169080600e018054600181600116156101000203166002900480601f0160208091040260200160405190810160405280929190818152602001828054600181600116156101000203166002900480156106d15780601f106106a6576101008083540402835291602001916106d1565b820191906000526020600020905b8154815290600101906020018083116106b457829003601f168201915b50505050509080600f015490508d565b61168090565b6040518060400160405280601181526020017021a6269c102220a79023b7bb32b93737b960791b81525081565b60076020526000908152604090205481565b7f8cad95687ba82c2ce50e74f7b754645e5117c3a5bec8151c0726d5857980a86681565b6004546001600160a01b0316331461077d5760405162461bcd60e51b815260040161077490613595565b60405180910390fd5b6002546040516001600160a01b0390911690630825f38f9082906000906107a89087906020016130ba565b604051602081830303815290604052856040518563ffffffff1660e01b81526004016107d79493929190613109565b600060405180830381600087803b1580156107f157600080fd5b505af1158015610805573d6000803e3d6000fd5b505050506040513d6000823e601f3d908101601f1916820160405261082d9190810190612db5565b505050565b60005490565b6000818152600660209081526040808320338452601181019092529091208054600160d01b900460ff16158061087757508054600160d81b900460ff16155b6108935760405162461bcd60e51b8152600401610774906139e1565b80546001830154600091600160d81b900460ff169082906001600160a01b031633148015610969575060056108c787610f60565b60088111156108d257fe5b14806108f1575060066108e487610f60565b60088111156108ef57fe5b145b8061090f5750600861090287610f60565b600881111561090d57fe5b145b8061092d5750600461092087610f60565b600881111561092b57fe5b145b8061094b5750600361093e87610f60565b600881111561094957fe5b145b806109695750600261095c87610f60565b600881111561096757fe5b145b90508015610aa657600561097c87610f60565b600881111561098757fe5b14806109a65750600661099987610f60565b60088111156109a457fe5b145b806109c4575060086109b787610f60565b60088111156109c257fe5b145b156109f9578354600290600160701b90046001600160601b03166109e661171c565b01600302816109f157fe5b049250610a9d565b6000610a27610a20610a0961171c565b8754600160701b90046001600160601b031661217c565b60046121a8565b600354604051633969f74f60e11b81529192506001600160a01b0316906372d3ee9e90610a5a90309085906004016130e7565b600060405180830381600087803b158015610a7457600080fd5b505af1158015610a88573d6000803e3d6000fd5b50505050806003026001600160601b03169350505b60019150610b27565b6001610ab187610f60565b6008811115610abc57fe5b1415610b12578354600090610ae290600160701b90046001600160601b031660146121a8565b8554909150610b0190600160701b90046001600160601b0316826121dd565b6001600160601b0316935050610b27565b8354600160701b90046001600160601b031692505b60008311610b475760405162461bcd60e51b815260040161077490613477565b60006001610b5488610f60565b6008811115610b5f57fe5b1490508080610b6b5750815b610b875760405162461bcd60e51b81526004016107749061388a565b60035460405163a9059cbb60e01b81526001600160a01b039091169063a9059cbb90610bb990339088906004016130ce565b602060405180830381600087803b158015610bd357600080fd5b505af1158015610be7573d6000803e3d6000fd5b505050506040513d601f19601f82011682018060405250810190610c0b9190612d81565b508015610c99578454610100900460ff1615610c5f5760098601548554610c4191906201000090046001600160601b03166121dd565b6009870155600b860154610c5590856121dd565b600b870155610c99565b600a8601548554610c7f91906201000090046001600160601b03166121dd565b600a870155600c860154610c9390856121dd565b600c8701555b50508254901515600160d81b0260ff60d81b1961ff01600160d81b0319909216600160d01b179190911617909155505050565b60608060608060006006600087815260200190815260200160002090508060030181600401826005018360060183805480602002602001604051908101604052809291908181526020018280548015610d4e57602002820191906000526020600020905b81546001600160a01b03168152600190910190602001808311610d30575b5050505050935082805480602002602001604051908101604052809291908181526020018280548015610da057602002820191906000526020600020905b815481526020019060010190808311610d8c575b5050505050925081805480602002602001604051908101604052809291908181526020016000905b82821015610e735760008481526020908190208301805460408051601f6002600019610100600187161502019094169390930492830185900485028101850190915281815292830182828015610e5f5780601f10610e3457610100808354040283529160200191610e5f565b820191906000526020600020905b815481529060010190602001808311610e4257829003601f168201915b505050505081526020019060010190610dc8565b50505050915080805480602002602001604051908101604052809291908181526020016000905b82821015610f455760008481526020908190208301805460408051601f6002600019610100600187161502019094169390930492830185900485028101850190915281815292830182828015610f315780601f10610f0657610100808354040283529160200191610f31565b820191906000526020600020905b815481529060010190602001808311610f1457829003601f168201915b505050505081526020019060010190610e9a565b5050505090509450945094509450509193509193565b600190565b60008160055410158015610f745750600082115b610f905760405162461bcd60e51b815260040161077490613602565b6000828152600660205260409020600d81015460ff1615610fb55760029150506110f9565b80600701544311610fca5760009150506110f9565b80600801544311610fdf5760019150506110f9565b610fe7610832565b81600a015482600901540110156110025760039150506110f9565b80600a015481600901541161101b5760049150506110f9565b600281015461102e5760059150506110f9565b600d810154610100900460ff161561104a5760089150506110f9565b6110dd8160020154600260009054906101000a90046001600160a01b03166001600160a01b031663c1a287e26040518163ffffffff1660e01b815260040160206040518083038186803b1580156110a057600080fd5b505afa1580156110b4573d6000803e3d6000fd5b505050506040513d601f19601f820116820180604052508101906110d89190612d9d565b61217c565b42106110ed5760079150506110f9565b60069150506110f9565b505b919050565b600061110982610f60565b9050600881600881111561111957fe5b14156111375760405162461bcd60e51b8152600401610774906134fd565b60008281526006602052604090206004546001600160a01b0316331480611202575061116161171c565b6003546001838101546001600160a01b039283169263782d6fe19291169061118a9043906121dd565b6040518363ffffffff1660e01b81526004016111a79291906130ce565b60206040518083038186803b1580156111bf57600080fd5b505afa1580156111d3573d6000803e3d6000fd5b505050506040513d601f19601f820116820180604052508101906111f79190612f0f565b6001600160601b0316105b61121e5760405162461bcd60e51b815260040161077490613923565b600d8101805460ff1916600117905560005b600382015481101561132a576002546003830180546001600160a01b039092169163591fcdfe91908490811061126257fe5b6000918252602090912001546004850180546001600160a01b03909216918590811061128a57fe5b90600052602060002001548560050185815481106112a457fe5b906000526020600020018660060186815481106112bd57fe5b9060005260206000200187600201546040518663ffffffff1660e01b81526004016112ec9594939291906131f2565b600060405180830381600087803b15801561130657600080fd5b505af115801561131a573d6000803e3d6000fd5b5050600190920191506112309050565b507f789cf55be980739dad1d0699b93b58e806b51c9d96619bfa8fe0a28abaa7b30c8360405161135a9190613283565b60405180910390a1505050565b6004546001600160a01b031681565b600081815260066020908152604091829020600e0180548351601f600260001961010060018616150201909316929092049182018490048402810184019094528084526060939283018282801561140e5780601f106113e35761010080835404028352916020019161140e565b820191906000526020600020905b8154815290600101906020018083116113f157829003601f168201915b50505050509050919050565b60408051808201909152601181527021a6269c102220a79023b7bb32b93737b960791b60209091015260007f8cad95687ba82c2ce50e74f7b754645e5117c3a5bec8151c0726d5857980a8667f5c6c4638be9dacb7243638d3b44c65664c952613289876d97c23e080e4e9ff3361148f612205565b306040516020016114a3949392919061328c565b60405160208183030381529060405280519060200120905060007f8e25870c07e0b0b3884c78da52790939a455c275406c44ae8b434b692fb916ee88886040516020016114f2939291906132b0565b6040516020818303038152906040528051906020012090506000828260405160200161151f92919061309f565b60405160208183030381529060405280519060200120905060006001828989896040516000815260200160405260405161155c94939291906132c8565b6020604051602081039080840390855afa15801561157e573d6000803e3d6000fd5b5050604051601f1901519150506001600160a01b0381166115b15760405162461bcd60e51b815260040161077490613a8e565b6115bd818b8b88612209565b505050505b505050505050565b600081518651146115ed5760405162461bcd60e51b8152600401610774906133af565b95945050505050565b6004546001600160a01b031633146116205760405162461bcd60e51b815260040161077490613788565b600480546001600160a01b0319169055565b600a90565b6004546001600160a01b031633146116615760405162461bcd60e51b81526004016107749061340c565b6002546040516001600160a01b0390911690633a66f90190829060009061168c9087906020016130ba565b604051602081830303815290604052856040518563ffffffff1660e01b81526004016116bb9493929190613109565b602060405180830381600087803b1580156116d557600080fd5b505af11580156116e9573d6000803e3d6000fd5b505050506040513d601f19601f8201168201806040525081019061082d9190612d9d565b6003546001600160a01b031681565b60015490565b6004546001600160a01b0316331461174c5760405162461bcd60e51b815260040161077490613836565b600260009054906101000a90046001600160a01b03166001600160a01b0316630e18b6816040518163ffffffff1660e01b8152600401600060405180830381600087803b15801561179c57600080fd5b505af11580156117b0573d6000803e3d6000fd5b50505050565b6004546001600160a01b031633146117e05760405162461bcd60e51b81526004016107749061336a565b600055565b6002546001600160a01b031681565b60055481565b600061180461171c565b6003546001600160a01b031663782d6fe1336118214360016121dd565b6040518363ffffffff1660e01b815260040161183e9291906130ce565b60206040518083038186803b15801561185657600080fd5b505afa15801561186a573d6000803e3d6000fd5b505050506040513d601f19601f8201168201806040525081019061188e9190612f0f565b6001600160601b031610156118b55760405162461bcd60e51b81526004016107749061330d565b845186511480156118c7575083518651145b80156118d4575082518651145b6118f05760405162461bcd60e51b8152600401610774906133af565b855161190e5760405162461bcd60e51b81526004016107749061354e565b611916611632565b865111156119365760405162461bcd60e51b8152600401610774906134ba565b61193e61171c565b6003546040516370a0823160e01b81526001600160a01b03909116906370a082319061196e9033906004016130ba565b60206040518083038186803b15801561198657600080fd5b505afa15801561199a573d6000803e3d6000fd5b505050506040513d601f19601f820116820180604052508101906119be9190612d9d565b10156119dc5760405162461bcd60e51b8152600401610774906136f6565b6003546001600160a01b0316633b2d52ac336119f661171c565b6040518363ffffffff1660e01b8152600401611a139291906130e7565b600060405180830381600087803b158015611a2d57600080fd5b505af1158015611a41573d6000803e3d6000fd5b505050506000611a53436110d8610f5b565b90506000611a63826110d86106e1565b600580546001908101918290556000828152600660209081526040822093845591830180546001600160a01b0319163317905560028301558a519293509091611ab4916003840191908c0190612713565b508751611aca90600483019060208b0190612778565b508651611ae090600583019060208a01906127bf565b508551611af69060068301906020890190612818565b506007810183905560088101829055600060098201819055600a8201819055600b8201819055600c820155600d8101805461ffff191690558451611b4390600e8301906020880190612871565b50805460018201546001600160a01b031660009081526007602052604090819020829055517f7d84a6263ae0d98d3329bd7b46bb4e8d6f98cd35a7adb45c274c8b7fd5ebd5e091611ba39133908d908d908d908d908b908b908f90613b9a565b60405180910390a15498975050505050505050565b61082d33848484612209565b6005611bcf82610f60565b6008811115611bda57fe5b14611bf75760405162461bcd60e51b815260040161077490613a31565b6000818152600660205260409020600354600b820154600c8301546001600160a01b03909216916372d3ee9e913091611c4091611c339161217c565b611c3b61171c565b6121dd565b6040518363ffffffff1660e01b8152600401611c5d9291906130e7565b600060405180830381600087803b158015611c7757600080fd5b505af1158015611c8b573d6000803e3d6000fd5b505050506000611ce342600260009054906101000a90046001600160a01b03166001600160a01b0316636a42b8f86040518163ffffffff1660e01b815260040160206040518083038186803b1580156110a057600080fd5b905060005b6003830154811015611e8b57611e83836003018281548110611d0657fe5b6000918252602090912001546004850180546001600160a01b039092169184908110611d2e57fe5b9060005260206000200154856005018481548110611d4857fe5b600091825260209182902001805460408051601f6002600019610100600187161502019094169390930492830185900485028101850190915281815292830182828015611dd65780601f10611dab57610100808354040283529160200191611dd6565b820191906000526020600020905b815481529060010190602001808311611db957829003601f168201915b5050505050866006018581548110611dea57fe5b600091825260209182902001805460408051601f6002600019610100600187161502019094169390930492830185900485028101850190915281815292830182828015611e785780601f10611e4d57610100808354040283529160200191611e78565b820191906000526020600020905b815481529060010190602001808311611e5b57829003601f168201915b505050505086612554565b600101611ce8565b50600282018190556040517f9a2e42fd6722813d69113e7d0079d3d940171428df7373df9c7f7617cfda28929061135a9085908490613cb4565b7f8e25870c07e0b0b3884c78da52790939a455c275406c44ae8b434b692fb916ee81565b611ef16128de565b5060008281526006602090815260408083206001600160a01b0385168452601101825291829020825160c081018452905460ff80821615158352610100820481161515938301939093526001600160601b03620100008204811694830194909452600160701b81049093166060820152600160d01b8304821615156080820152600160d81b90920416151560a08201525b92915050565b6004546001600160a01b03163314611fb25760405162461bcd60e51b8152600401610774906138d3565b600155565b6006611fc282610f60565b6008811115611fcd57fe5b14611fea5760405162461bcd60e51b815260040161077490613698565b6000818152600660205260408120600d8101805461ff001916610100179055905b6003820154811015612140576002546004830180546001600160a01b0390921691630825f38f91908490811061203d57fe5b906000526020600020015484600301848154811061205757fe5b6000918252602090912001546004860180546001600160a01b03909216918690811061207f57fe5b906000526020600020015486600501868154811061209957fe5b906000526020600020018760060187815481106120b257fe5b9060005260206000200188600201546040518763ffffffff1660e01b81526004016120e19594939291906131f2565b6000604051808303818588803b1580156120fa57600080fd5b505af115801561210e573d6000803e3d6000fd5b50505050506040513d6000823e601f3d908101601f191682016040526121379190810190612db5565b5060010161200b565b507f712ae1383f79ac853f8d882153778e0260ef8f03b504e2866e0593e04d2b291f826040516121709190613283565b60405180910390a15050565b6000828201838110156121a15760405162461bcd60e51b81526004016107749061375d565b9392505050565b60006121a183836040518060400160405280601081526020016f6469766973696f6e206279207a65726f60801b8152506126ab565b6000828211156121ff5760405162461bcd60e51b8152600401610774906139b2565b50900390565b4690565b600161221484610f60565b600881111561221f57fe5b1461223c5760405162461bcd60e51b81526004016107749061396d565b60008381526006602090815260408083206001600160a01b038816845260118101909252909120805460ff1615156001141561229f57805460ff6101009091041615158415151461229f5760405162461bcd60e51b815260040161077490613ad8565b8054600354600784015460405163782d6fe160e01b81526000936201000090046001600160601b0316926001600160a01b03169163782d6fe1916122e7918c916004016130ce565b60206040518083038186803b1580156122ff57600080fd5b505afa158015612313573d6000803e3d6000fd5b505050506040513d601f19601f820116820180604052508101906123379190612f0f565b039050806001600160601b0316846001600160601b0316111561236c5760405162461bcd60e51b815260040161077490613646565b6000612380856001600160601b03166126e2565b905085156123c65761239f8460090154826001600160601b031661217c565b6009850155600b8401546123bc906001600160601b03871661217c565b600b850155612400565b6123dd84600a0154826001600160601b031661217c565b600a850155600c8401546123fa906001600160601b03871661217c565b600c8501555b600354604051630ecb54ab60e21b81526001600160a01b0390911690633b2d52ac90612432908b9089906004016130e7565b600060405180830381600087803b15801561244c57600080fd5b505af1158015612460573d6000803e3d6000fd5b50508454600160ff199091161761ff001916610100891515021780865561249c92506201000090046001600160601b039081169150831661217c565b83546dffffffffffffffffffffffff00001916620100006001600160601b0392831602178085556124d991600160701b909104811690871661217c565b835461ffff60d01b196001600160601b0392909216600160701b026bffffffffffffffffffffffff60701b19909116171683556040517f877856338e13f63d0c36822ff0ef736b80934cd90574a3a5bc9262c39d217c4690612542908a908a908a908690613175565b60405180910390a15050505050505050565b6002546040516001600160a01b039091169063f2b065379061258290889088908890889088906020016131a6565b604051602081830303815290604052805190602001206040518263ffffffff1660e01b81526004016125b49190613283565b60206040518083038186803b1580156125cc57600080fd5b505afa1580156125e0573d6000803e3d6000fd5b505050506040513d601f19601f820116820180604052508101906126049190612d81565b156126215760405162461bcd60e51b8152600401610774906137d9565b600254604051633a66f90160e01b81526001600160a01b0390911690633a66f9019061265990889088908890889088906004016131a6565b602060405180830381600087803b15801561267357600080fd5b505af1158015612687573d6000803e3d6000fd5b505050506040513d601f19601f820116820180604052508101906115c29190612d9d565b600081836126cc5760405162461bcd60e51b815260040161077491906132fa565b5060008385816126d857fe5b0495945050505050565b80600260018201045b818110156110f75780915060028182858161270257fe5b04018161270b57fe5b0490506126eb565b828054828255906000526020600020908101928215612768579160200282015b8281111561276857825182546001600160a01b0319166001600160a01b03909116178255602090920191600190910190612733565b50612774929150612913565b5090565b8280548282559060005260206000209081019282156127b3579160200282015b828111156127b3578251825591602001919060010190612798565b50612774929150612932565b82805482825590600052602060002090810192821561280c579160200282015b8281111561280c57825180516127fc918491602090910190612871565b50916020019190600101906127df565b50612774929150612947565b828054828255906000526020600020908101928215612865579160200282015b828111156128655782518051612855918491602090910190612871565b5091602001919060010190612838565b50612774929150612964565b828054600181600116156101000203166002900490600052602060002090601f016020900481019282601f106128b257805160ff19168380011785556127b3565b828001600101855582156127b357918201828111156127b3578251825591602001919060010190612798565b6040805160c081018252600080825260208201819052918101829052606081018290526080810182905260a081019190915290565b5b808211156127745780546001600160a01b0319168155600101612914565b5b808211156127745760008155600101612933565b8082111561277457600061295b8282612981565b50600101612947565b808211156127745760006129788282612981565b50600101612964565b50805460018160011615610100020316600290046000825580601f106129a757506129c5565b601f0160209004906000526020600020908101906129c59190612932565b50565b80356001600160a01b0381168114611f8257600080fd5b600082601f8301126129ef578081fd5b8135612a026129fd82613ce9565b613cc2565b818152915060208083019084810181840286018201871015612a2357600080fd5b60005b84811015612a4a57612a3888836129c8565b84529282019290820190600101612a26565b505050505092915050565b600082601f830112612a65578081fd5b8135612a736129fd82613ce9565b818152915060208083019084810160005b84811015612a4a57612a9b888484358a0101612b63565b84529282019290820190600101612a84565b600082601f830112612abd578081fd5b8135612acb6129fd82613ce9565b818152915060208083019084810160005b84811015612a4a57612af3888484358a0101612b63565b84529282019290820190600101612adc565b600082601f830112612b15578081fd5b8135612b236129fd82613ce9565b818152915060208083019084810181840286018201871015612b4457600080fd5b60005b84811015612a4a57813584529282019290820190600101612b47565b600082601f830112612b73578081fd5b8135612b816129fd82613d09565b9150808252836020828501011115612b9857600080fd5b8060208401602084013760009082016020015292915050565b600060208284031215612bc2578081fd5b6121a183836129c8565b60008060408385031215612bde578081fd5b612be884846129c8565b946020939093013593505050565b600080600080600060a08688031215612c0d578081fd5b853567ffffffffffffffff80821115612c24578283fd5b612c3089838a016129df565b96506020880135915080821115612c45578283fd5b612c5189838a01612b05565b95506040880135915080821115612c66578283fd5b612c7289838a01612aad565b94506060880135915080821115612c87578283fd5b612c9389838a01612a55565b93506080880135915080821115612ca8578283fd5b50612cb588828901612aad565b9150509295509295909350565b600080600080600060a08688031215612cd9578081fd5b853567ffffffffffffffff80821115612cf0578283fd5b612cfc89838a016129df565b96506020880135915080821115612d11578283fd5b612d1d89838a01612b05565b95506040880135915080821115612d32578283fd5b612d3e89838a01612aad565b94506060880135915080821115612d53578283fd5b612d5f89838a01612a55565b93506080880135915080821115612d74578283fd5b50612cb588828901612b63565b600060208284031215612d92578081fd5b81516121a181613d65565b600060208284031215612dae578081fd5b5051919050565b600060208284031215612dc6578081fd5b815167ffffffffffffffff811115612ddc578182fd5b8201601f81018413612dec578182fd5b8051612dfa6129fd82613d09565b818152856020838501011115612e0e578384fd5b6115ed826020830160208601613d39565b600060208284031215612e30578081fd5b5035919050565b60008060408385031215612e49578182fd5b82359150612e5a84602085016129c8565b90509250929050565b60008060008060008060c08789031215612e7b578384fd5b863595506020870135612e8d81613d65565b9450604087013560ff81168114612ea2578485fd5b9350606087013592506080870135915060a0870135612ec081613d73565b809150509295509295509295565b600080600060608486031215612ee2578081fd5b833592506020840135612ef481613d65565b91506040840135612f0481613d73565b809150509250925092565b600060208284031215612f20578081fd5b81516121a181613d73565b6000815180845260208085019450808401835b83811015612f635781516001600160a01b031687529582019590820190600101612f3e565b509495945050505050565b6000815180845260208085018081965082840281019150828601855b85811015612fb4578284038952612fa2848351612ff0565b98850198935090840190600101612f8a565b5091979650505050505050565b6000815180845260208085019450808401835b83811015612f6357815187529582019590820190600101612fd4565b60008151808452613008816020860160208601613d39565b601f01601f19169290920160200192915050565b6000815460018082166000811461303a576001811461305857613096565b60028304607f16865260ff1983166020870152604086019350613096565b6002830480875261306886613d2d565b60005b8281101561308c5781546020828b010152848201915060208101905061306b565b8801602001955050505b50505092915050565b61190160f01b81526002810192909252602282015260420190565b6001600160a01b0391909116815260200190565b6001600160a01b03929092168252602082015260400190565b6001600160a01b039290921682526001600160601b0316602082015260400190565b600060018060a01b038616825284602083015260a06040830152601860a08301527f73657450656e64696e6741646d696e286164647265737329000000000000000060c083015260e0606083015261316460e0830185612ff0565b905082608083015295945050505050565b6001600160a01b039490941684526020840192909252151560408301526001600160601b0316606082015260800190565b600060018060a01b038716825285602083015260a060408301526131cd60a0830186612ff0565b82810360608401526131df8186612ff0565b9150508260808301529695505050505050565b600060018060a01b038716825285602083015260a0604083015261321960a083018661301c565b82810360608401526131df818661301c565b60006080825261323e6080830187612f2b565b82810360208401526132508187612fc1565b905082810360408401526132648186612f6e565b905082810360608401526132788185612f6e565b979650505050505050565b90815260200190565b938452602084019290925260408301526001600160a01b0316606082015260800190565b92835260208301919091521515604082015260600190565b93845260ff9290921660208401526040830152606082015260800190565b60208101600983106132f457fe5b91905290565b6000602082526121a16020830184612ff0565b6020808252603a908201527f476f7665726e6f723a3a70726f706f73653a2070726f706f73657220766f746560408201527f732062656c6f772070726f706f73616c207468726573686f6c64000000000000606082015260800190565b60208082526025908201527f476f7665726e6f723a3a73657451756f72756d3a206d75737420626520677561604082015264393234b0b760d91b606082015260800190565b6020808252603f908201527f476f7665726e6f723a3a70726f706f73653a2070726f706f73616c2066756e6360408201527f74696f6e20696e666f726d6174696f6e206172697479206d69736d6174636800606082015260800190565b60208082526045908201527f476f7665726e6f723a3a5f5f717565756553657454696d656c6f636b50656e6460408201527f696e6741646d696e3a2073656e646572206d75737420626520676f7620677561606082015264393234b0b760d91b608082015260a00190565b60208082526023908201527f476f7665726e6f723a3a726566756e643a206e6f7468696e6720746f207265666040820152621d5b9960ea1b606082015260800190565b60208082526023908201527f476f7665726e6f723a3a70726f706f73653a20746f6f206d616e7920616374696040820152626f6e7360e81b606082015260800190565b60208082526031908201527f476f7665726e6f723a3a63616e63656c3a2063616e6e6f742063616e63656c20604082015270195e1958dd5d1959081c1c9bdc1bdcd85b607a1b606082015260800190565b60208082526027908201527f476f7665726e6f723a3a70726f706f73653a206d7573742070726f7669646520604082015266616374696f6e7360c81b606082015260800190565b60208082526047908201527f476f7665726e6f723a3a5f5f6578656375746553657454696d656c6f636b506560408201527f6e64696e6741646d696e3a2073656e646572206d75737420626520676f7620676060820152663ab0b93234b0b760c91b608082015260a00190565b60208082526024908201527f476f7665726e6f723a3a73746174653a20696e76616c69642070726f706f73616040820152631b081a5960e21b606082015260800190565b60208082526032908201527f476f7665726e6f723a3a5f63617374566f74653a20766f746573206578636565604082015271191cc8195b1a59da589b1948185b5bdd5b9d60721b606082015260800190565b602080825260409082018190527f476f7665726e6f723a3a657865637574653a2070726f706f73616c2063616e20908201527f6f6e6c7920626520657865637574656420696620697420697320717565756564606082015260800190565b60208082526041908201527f476f7665726e6f723a3a70726f706f73653a206e6f7420656e6f75676820626160408201527f6c616e636520746f206c6f636b2064434c4d3820776974682070726f706f73616060820152601b60fa1b608082015260a00190565b6020808252601190820152706164646974696f6e206f766572666c6f7760781b604082015260600190565b60208082526031908201527f476f7665726e6f723a3a5f5f61626469636174653a2073656e646572206d75736040820152703a1031329033b7bb1033bab0b93234b0b760791b606082015260800190565b6020808252603f908201527f476f7665726e6f723a3a5f71756575654f725265766572743a2070726f706f7360408201527f616c20616374696f6e20616c7265616479207175657565642061742065746100606082015260800190565b60208082526034908201527f476f7665726e6f723a3a5f5f61636365707441646d696e3a2073656e6465722060408201527336bab9ba1031329033b7bb1033bab0b93234b0b760611b606082015260800190565b60208082526029908201527f476f7665726e6f723a3a726566756e643a206e6f7420656c696769626c6520666040820152681bdc881c99599d5b9960ba1b606082015260800190565b60208082526030908201527f476f7665726e6f723a3a73657450726f706f73616c5468726573686f6c643a2060408201526f36bab9ba1031329033bab0b93234b0b760811b606082015260800190565b6020808252602a908201527f476f7665726e6f723a3a63616e63656c3a2070726f706f7365722061626f7665604082015269081d1a1c995cda1bdb1960b21b606082015260800190565b60208082526025908201527f476f7665726e6f723a3a5f63617374566f74653a20766f74696e6720697320636040820152641b1bdcd95960da1b606082015260800190565b6020808252601590820152747375627472616374696f6e20756e646572666c6f7760581b604082015260600190565b60208082526030908201527f476f7665726e6f723a3a726566756e643a20616c726561647920726566756e6460408201526f1959081d1a1a5cc81c1c9bdc1bdcd85b60821b606082015260800190565b6020808252603f908201527f476f7665726e6f723a3a71756575653a2070726f706f73616c2063616e206f6e60408201527f6c79206265207175657565642069662069742069732073756363656564656400606082015260800190565b6020808252602a908201527f476f7665726e6f723a3a63617374566f746542795369673a20696e76616c6964604082015269207369676e617475726560b01b606082015260800190565b60208082526041908201527f476f7665726e6f723a3a5f63617374566f74653a2063616e206f6e6c7920746f60408201527f70206f66662073616d6520766f746520776974686f757420726566756e64696e6060820152606760f81b608082015260a00190565b600060c08201905082511515825260208301511515602083015260408301516001600160601b038082166040850152806060860151166060850152505060808301511515608083015260a0830151151560a083015292915050565b8981526001600160a01b038916602082015261012060408201819052600090613bc58382018b612f2b565b90508281036060840152613bd9818a612fc1565b90508281036080840152613bed8189612f6e565b905082810360a0840152613c018188612f6e565b90508560c08401528460e0840152828103610100840152613c228185612ff0565b9c9b505050505050505050505050565b60006101a08f835260018060a01b038f1660208401528d60408401528c60608401528b60808401528a60a08401528960c08401528860e08401528761010084015286151561012084015285151561014084015280610160840152613c9881840186612ff0565b915050826101808301529e9d5050505050505050505050505050565b918252602082015260400190565b60405181810167ffffffffffffffff81118282101715613ce157600080fd5b604052919050565b600067ffffffffffffffff821115613cff578081fd5b5060209081020190565b600067ffffffffffffffff821115613d1f578081fd5b50601f01601f191660200190565b60009081526020902090565b60005b83811015613d54578181015183820152602001613d3c565b838111156117b05750506000910152565b80151581146129c557600080fd5b6001600160601b03811681146129c557600080fdfea26469706673582212203ea47708e722bc7a936df5d964e7d96bafa28d3a0784f61304b19cee8880e43064736f6c63430007000033",
  "linkReferences": {},
  "deployedLinkReferences": {}
}