{
  "_format": "hh-sol-artifact-1",
  "contractName": "Governor",
  "sourceName": "contracts/Governance/Governor.sol",
  "abi": [
    {
      "inputs": [
        {
          "internalType": "address",
          "name": "timelock_",
          "type": "address"
        },
        {
          "internalType": "address",
          "name": "dclm8_",
          "type": "address"
        },
        {
          "internalType": "address",
          "name": "guardian_",
          "type": "address"
        }
      ],
      "stateMutability": "nonpayable",
      "type": "constructor"
    },
    {
      "anonymous": false,
      "inputs": [
        {
          "indexed": false,
          "internalType": "uint256",
          "name": "id",
          "type": "uint256"
        }
      ],
      "name": "ProposalCanceled",
      "type": "event"
    },
    {
      "anonymous": false,
      "inputs": [
        {
          "indexed": false,
          "internalType": "uint256",
          "name": "id",
          "type": "uint256"
        },
        {
          "indexed": false,
          "internalType": "address",
          "name": "proposer",
          "type": "address"
        },
        {
          "indexed": false,
          "internalType": "address[]",
          "name": "targets",
          "type": "address[]"
        },
        {
          "indexed": false,
          "internalType": "uint256[]",
          "name": "values",
          "type": "uint256[]"
        },
        {
          "indexed": false,
          "internalType": "string[]",
          "name": "signatures",
          "type": "string[]"
        },
        {
          "indexed": false,
          "internalType": "bytes[]",
          "name": "calldatas",
          "type": "bytes[]"
        },
        {
          "indexed": false,
          "internalType": "uint256",
          "name": "startBlock",
          "type": "uint256"
        },
        {
          "indexed": false,
          "internalType": "uint256",
          "name": "endBlock",
          "type": "uint256"
        },
        {
          "indexed": false,
          "internalType": "string",
          "name": "description",
          "type": "string"
        }
      ],
      "name": "ProposalCreated",
      "type": "event"
    },
    {
      "anonymous": false,
      "inputs": [
        {
          "indexed": false,
          "internalType": "uint256",
          "name": "id",
          "type": "uint256"
        }
      ],
      "name": "ProposalExecuted",
      "type": "event"
    },
    {
      "anonymous": false,
      "inputs": [
        {
          "indexed": false,
          "internalType": "uint256",
          "name": "id",
          "type": "uint256"
        },
        {
          "indexed": false,
          "internalType": "uint256",
          "name": "eta",
          "type": "uint256"
        }
      ],
      "name": "ProposalQueued",
      "type": "event"
    },
    {
      "anonymous": false,
      "inputs": [
        {
          "indexed": false,
          "internalType": "address",
          "name": "voter",
          "type": "address"
        },
        {
          "indexed": false,
          "internalType": "uint256",
          "name": "proposalId",
          "type": "uint256"
        },
        {
          "indexed": false,
          "internalType": "bool",
          "name": "support",
          "type": "bool"
        },
        {
          "indexed": false,
          "internalType": "uint256",
          "name": "votes",
          "type": "uint256"
        }
      ],
      "name": "VoteCast",
      "type": "event"
    },
    {
      "inputs": [],
      "name": "BALLOT_TYPEHASH",
      "outputs": [
        {
          "internalType": "bytes32",
          "name": "",
          "type": "bytes32"
        }
      ],
      "stateMutability": "view",
      "type": "function"
    },
    {
      "inputs": [],
      "name": "DOMAIN_TYPEHASH",
      "outputs": [
        {
          "internalType": "bytes32",
          "name": "",
          "type": "bytes32"
        }
      ],
      "stateMutability": "view",
      "type": "function"
    },
    {
      "inputs": [],
      "name": "__abdicate",
      "outputs": [],
      "stateMutability": "nonpayable",
      "type": "function"
    },
    {
      "inputs": [],
      "name": "__acceptAdmin",
      "outputs": [],
      "stateMutability": "nonpayable",
      "type": "function"
    },
    {
      "inputs": [
        {
          "internalType": "address",
          "name": "newPendingAdmin",
          "type": "address"
        },
        {
          "internalType": "uint256",
          "name": "eta",
          "type": "uint256"
        }
      ],
      "name": "__executeSetTimelockPendingAdmin",
      "outputs": [],
      "stateMutability": "nonpayable",
      "type": "function"
    },
    {
      "inputs": [
        {
          "internalType": "address",
          "name": "newPendingAdmin",
          "type": "address"
        },
        {
          "internalType": "uint256",
          "name": "eta",
          "type": "uint256"
        }
      ],
      "name": "__queueSetTimelockPendingAdmin",
      "outputs": [],
      "stateMutability": "nonpayable",
      "type": "function"
    },
    {
      "inputs": [
        {
          "internalType": "uint256",
          "name": "proposalId",
          "type": "uint256"
        }
      ],
      "name": "cancel",
      "outputs": [],
      "stateMutability": "nonpayable",
      "type": "function"
    },
    {
      "inputs": [
        {
          "internalType": "uint256",
          "name": "proposalId",
          "type": "uint256"
        },
        {
          "internalType": "bool",
          "name": "support",
          "type": "bool"
        },
        {
          "internalType": "uint96",
          "name": "votes",
          "type": "uint96"
        }
      ],
      "name": "castVote",
      "outputs": [],
      "stateMutability": "nonpayable",
      "type": "function"
    },
    {
      "inputs": [
        {
          "internalType": "uint256",
          "name": "proposalId",
          "type": "uint256"
        },
        {
          "internalType": "bool",
          "name": "support",
          "type": "bool"
        },
        {
          "internalType": "uint8",
          "name": "v",
          "type": "uint8"
        },
        {
          "internalType": "bytes32",
          "name": "r",
          "type": "bytes32"
        },
        {
          "internalType": "bytes32",
          "name": "s",
          "type": "bytes32"
        },
        {
          "internalType": "uint96",
          "name": "votes",
          "type": "uint96"
        }
      ],
      "name": "castVoteBySig",
      "outputs": [],
      "stateMutability": "nonpayable",
      "type": "function"
    },
    {
      "inputs": [],
      "name": "dclm8",
      "outputs": [
        {
          "internalType": "contract Dclm8Interface",
          "name": "",
          "type": "address"
        }
      ],
      "stateMutability": "view",
      "type": "function"
    },
    {
      "inputs": [
        {
          "internalType": "uint256",
          "name": "proposalId",
          "type": "uint256"
        }
      ],
      "name": "execute",
      "outputs": [],
      "stateMutability": "payable",
      "type": "function"
    },
    {
      "inputs": [
        {
          "internalType": "uint256",
          "name": "proposalId",
          "type": "uint256"
        }
      ],
      "name": "getActions",
      "outputs": [
        {
          "internalType": "address[]",
          "name": "targets",
          "type": "address[]"
        },
        {
          "internalType": "uint256[]",
          "name": "values",
          "type": "uint256[]"
        },
        {
          "internalType": "string[]",
          "name": "signatures",
          "type": "string[]"
        },
        {
          "internalType": "bytes[]",
          "name": "calldatas",
          "type": "bytes[]"
        }
      ],
      "stateMutability": "view",
      "type": "function"
    },
    {
      "inputs": [
        {
          "internalType": "uint256",
          "name": "proposalId",
          "type": "uint256"
        }
      ],
      "name": "getDescription",
      "outputs": [
        {
          "internalType": "string",
          "name": "",
          "type": "string"
        }
      ],
      "stateMutability": "view",
      "type": "function"
    },
    {
      "inputs": [
        {
          "internalType": "uint256",
          "name": "proposalId",
          "type": "uint256"
        },
        {
          "internalType": "address",
          "name": "voter",
          "type": "address"
        }
      ],
      "name": "getReceipt",
      "outputs": [
        {
          "components": [
            {
              "internalType": "bool",
              "name": "hasVoted",
              "type": "bool"
            },
            {
              "internalType": "bool",
              "name": "support",
              "type": "bool"
            },
            {
              "internalType": "uint96",
              "name": "votes",
              "type": "uint96"
            },
            {
              "internalType": "uint96",
              "name": "rawVotes",
              "type": "uint96"
            },
            {
              "internalType": "bool",
              "name": "hasVotesRefunded",
              "type": "bool"
            },
            {
              "internalType": "bool",
              "name": "hasStakeRefunded",
              "type": "bool"
            },
            {
              "internalType": "uint256",
              "name": "endVotesCancelPeriodBlock",
              "type": "uint256"
            }
          ],
          "internalType": "struct Governor.Receipt",
          "name": "",
          "type": "tuple"
        }
      ],
      "stateMutability": "view",
      "type": "function"
    },
    {
      "inputs": [],
      "name": "guardian",
      "outputs": [
        {
          "internalType": "address",
          "name": "",
          "type": "address"
        }
      ],
      "stateMutability": "view",
      "type": "function"
    },
    {
      "inputs": [
        {
          "internalType": "address",
          "name": "",
          "type": "address"
        }
      ],
      "name": "latestProposalIds",
      "outputs": [
        {
          "internalType": "uint256",
          "name": "",
          "type": "uint256"
        }
      ],
      "stateMutability": "view",
      "type": "function"
    },
    {
      "inputs": [],
      "name": "name",
      "outputs": [
        {
          "internalType": "string",
          "name": "",
          "type": "string"
        }
      ],
      "stateMutability": "view",
      "type": "function"
    },
    {
      "inputs": [],
      "name": "proposalCount",
      "outputs": [
        {
          "internalType": "uint256",
          "name": "",
          "type": "uint256"
        }
      ],
      "stateMutability": "view",
      "type": "function"
    },
    {
      "inputs": [],
      "name": "proposalMaxOperations",
      "outputs": [
        {
          "internalType": "uint256",
          "name": "",
          "type": "uint256"
        }
      ],
      "stateMutability": "pure",
      "type": "function"
    },
    {
      "inputs": [],
      "name": "proposalThreshold",
      "outputs": [
        {
          "internalType": "uint256",
          "name": "",
          "type": "uint256"
        }
      ],
      "stateMutability": "view",
      "type": "function"
    },
    {
      "inputs": [
        {
          "internalType": "uint256",
          "name": "",
          "type": "uint256"
        }
      ],
      "name": "proposals",
      "outputs": [
        {
          "internalType": "uint256",
          "name": "id",
          "type": "uint256"
        },
        {
          "internalType": "address",
          "name": "proposer",
          "type": "address"
        },
        {
          "internalType": "uint256",
          "name": "eta",
          "type": "uint256"
        },
        {
          "internalType": "uint256",
          "name": "startBlock",
          "type": "uint256"
        },
        {
          "internalType": "uint256",
          "name": "endBlock",
          "type": "uint256"
        },
        {
          "internalType": "uint256",
          "name": "forVotes",
          "type": "uint256"
        },
        {
          "internalType": "uint256",
          "name": "againstVotes",
          "type": "uint256"
        },
        {
          "internalType": "uint256",
          "name": "rawForVotes",
          "type": "uint256"
        },
        {
          "internalType": "uint256",
          "name": "rawAgainstVotes",
          "type": "uint256"
        },
        {
          "internalType": "bool",
          "name": "canceled",
          "type": "bool"
        },
        {
          "internalType": "bool",
          "name": "executed",
          "type": "bool"
        },
        {
          "internalType": "string",
          "name": "description",
          "type": "string"
        },
        {
          "internalType": "uint256",
          "name": "parentProposalId",
          "type": "uint256"
        }
      ],
      "stateMutability": "view",
      "type": "function"
    },
    {
      "inputs": [
        {
          "internalType": "address[]",
          "name": "targets",
          "type": "address[]"
        },
        {
          "internalType": "uint256[]",
          "name": "values",
          "type": "uint256[]"
        },
        {
          "internalType": "string[]",
          "name": "signatures",
          "type": "string[]"
        },
        {
          "internalType": "bytes[]",
          "name": "calldatas",
          "type": "bytes[]"
        },
        {
          "internalType": "string",
          "name": "description",
          "type": "string"
        }
      ],
      "name": "propose",
      "outputs": [
        {
          "internalType": "uint256",
          "name": "",
          "type": "uint256"
        }
      ],
      "stateMutability": "nonpayable",
      "type": "function"
    },
    {
      "inputs": [
        {
          "internalType": "address[]",
          "name": "targets",
          "type": "address[]"
        },
        {
          "internalType": "uint256[]",
          "name": "values",
          "type": "uint256[]"
        },
        {
          "internalType": "string[]",
          "name": "signatures",
          "type": "string[]"
        },
        {
          "internalType": "bytes[]",
          "name": "calldatas",
          "type": "bytes[]"
        },
        {
          "internalType": "string[]",
          "name": "descriptions",
          "type": "string[]"
        }
      ],
      "name": "proposeMultiAttribute",
      "outputs": [
        {
          "internalType": "uint256",
          "name": "",
          "type": "uint256"
        }
      ],
      "stateMutability": "nonpayable",
      "type": "function"
    },
    {
      "inputs": [
        {
          "internalType": "uint256",
          "name": "proposalId",
          "type": "uint256"
        }
      ],
      "name": "queue",
      "outputs": [],
      "stateMutability": "nonpayable",
      "type": "function"
    },
    {
      "inputs": [],
      "name": "quorumVotes",
      "outputs": [
        {
          "internalType": "uint256",
          "name": "",
          "type": "uint256"
        }
      ],
      "stateMutability": "view",
      "type": "function"
    },
    {
      "inputs": [
        {
          "internalType": "uint256",
          "name": "proposalId",
          "type": "uint256"
        }
      ],
      "name": "refund",
      "outputs": [],
      "stateMutability": "nonpayable",
      "type": "function"
    },
    {
      "inputs": [
        {
          "internalType": "uint256",
          "name": "_proposalThreshold",
          "type": "uint256"
        }
      ],
      "name": "setProposalThreshold",
      "outputs": [],
      "stateMutability": "nonpayable",
      "type": "function"
    },
    {
      "inputs": [
        {
          "internalType": "uint256",
          "name": "_quorum",
          "type": "uint256"
        }
      ],
      "name": "setQuorum",
      "outputs": [],
      "stateMutability": "nonpayable",
      "type": "function"
    },
    {
      "inputs": [
        {
          "internalType": "uint256",
          "name": "proposalId",
          "type": "uint256"
        }
      ],
      "name": "state",
      "outputs": [
        {
          "internalType": "enum Governor.ProposalState",
          "name": "",
          "type": "uint8"
        }
      ],
      "stateMutability": "view",
      "type": "function"
    },
    {
      "inputs": [],
      "name": "timelock",
      "outputs": [
        {
          "internalType": "contract TimelockInterface",
          "name": "",
          "type": "address"
        }
      ],
      "stateMutability": "view",
      "type": "function"
    },
    {
      "inputs": [],
      "name": "votesCancelPeriod",
      "outputs": [
        {
          "internalType": "uint256",
          "name": "",
          "type": "uint256"
        }
      ],
      "stateMutability": "pure",
      "type": "function"
    },
    {
      "inputs": [],
      "name": "votingDelay",
      "outputs": [
        {
          "internalType": "uint256",
          "name": "",
          "type": "uint256"
        }
      ],
      "stateMutability": "pure",
      "type": "function"
    },
    {
      "inputs": [],
      "name": "votingPeriod",
      "outputs": [
        {
          "internalType": "uint256",
          "name": "",
          "type": "uint256"
        }
      ],
      "stateMutability": "pure",
      "type": "function"
    }
  ],
  "bytecode": "0x608060405264932622b00060005569152d02c7e14af68000006001553480156200002857600080fd5b5060405162003fef38038062003fef8339810160408190526200004b916200008e565b600280546001600160a01b039485166001600160a01b031991821617909155600380549385169382169390931790925560048054919093169116179055620000fa565b600080600060608486031215620000a3578283fd5b8351620000b081620000e1565b6020850151909350620000c381620000e1565b6040850151909250620000d681620000e1565b809150509250925092565b6001600160a01b0381168114620000f757600080fd5b50565b613ee5806200010a6000396000f3fe6080604052600436106101ee5760003560e01c806372c3e0c31161010d578063d33219b4116100a0578063ddf0b0091161006f578063ddf0b00914610541578063deaaa7cc14610561578063e23a9a5214610576578063ece40cc1146105a3578063fe0d94c1146105c3576101ee565b8063d33219b4146104d7578063da35c664146104ec578063da95691a14610501578063dbfa977f14610521576101ee565b806394a08d58116100dc57806394a08d5814610478578063b58131b01461048d578063b9a61961146104a2578063c1ba4e59146104b7576101ee565b806372c3e0c31461040e578063760fbc131461042e5780637bdbe4d0146104435780639150067114610458576101ee565b8063328dd98211610185578063452a932011610154578063452a93201461039757806345982a23146103b95780634925ec55146103ce5780635d254608146103ee576101ee565b8063328dd982146103055780633932abb1146103355780633e4f49e61461034a57806340e58ee514610377576101ee565b806320606b70116101c157806320606b701461029957806321f43e42146102ae57806324bc1a64146102d0578063278ecde1146102e5576101ee565b8063013cf08b146101f357806302a251a31461023557806306fdde031461025757806317977c6114610279575b600080fd5b3480156101ff57600080fd5b5061021361020e366004612ecf565b6105d6565b60405161022c9d9c9b9a99989796959493929190613d59565b60405180910390f35b34801561024157600080fd5b5061024a610701565b60405161022c9190613333565b34801561026357600080fd5b5061026c610707565b60405161022c91906133aa565b34801561028557600080fd5b5061024a610294366004612c61565b610734565b3480156102a557600080fd5b5061024a610746565b3480156102ba57600080fd5b506102ce6102c9366004612c7c565b61076a565b005b3480156102dc57600080fd5b5061024a610852565b3480156102f157600080fd5b506102ce610300366004612ecf565b610858565b34801561031157600080fd5b50610325610320366004612ecf565b610d53565b60405161022c94939291906132db565b34801561034157600080fd5b5061024a610fe2565b34801561035657600080fd5b5061036a610365366004612ecf565b610fe7565b60405161022c9190613396565b34801561038357600080fd5b506102ce610392366004612ecf565b611185565b3480156103a357600080fd5b506103ac6113ee565b60405161022c919061316a565b3480156103c557600080fd5b5061024a6113fd565b3480156103da57600080fd5b5061026c6103e9366004612ecf565b611403565b3480156103fa57600080fd5b506102ce610409366004612f13565b6114a7565b34801561041a57600080fd5b5061024a610429366004612ca6565b611657565b34801561043a57600080fd5b506102ce611683565b34801561044f57600080fd5b5061024a6116bf565b34801561046457600080fd5b506102ce610473366004612c7c565b6116c4565b34801561048457600080fd5b506103ac61179a565b34801561049957600080fd5b5061024a6117a9565b3480156104ae57600080fd5b506102ce6117af565b3480156104c357600080fd5b506102ce6104d2366004612ecf565b611843565b3480156104e357600080fd5b506103ac611872565b3480156104f857600080fd5b5061024a611881565b34801561050d57600080fd5b5061024a61051c366004612d72565b611887565b34801561052d57600080fd5b506102ce61053c366004612f7e565b611c45565b34801561054d57600080fd5b506102ce61055c366004612ecf565b611c51565b34801561056d57600080fd5b5061024a611f52565b34801561058257600080fd5b50610596610591366004612ee7565b611f76565b60405161022c9190613c5c565b3480156105af57600080fd5b506102ce6105be366004612ecf565b612020565b6102ce6105d1366004612ecf565b61204f565b60066020528060005260406000206000915090508060000154908060010160009054906101000a90046001600160a01b03169080600201549080600701549080600801549080600901549080600a01549080600b01549080600c01549080600d0160009054906101000a900460ff169080600d0160019054906101000a900460ff169080600e018054600181600116156101000203166002900480601f0160208091040260200160405190810160405280929190818152602001828054600181600116156101000203166002900480156106f15780601f106106c6576101008083540402835291602001916106f1565b820191906000526020600020905b8154815290600101906020018083116106d457829003601f168201915b50505050509080600f015490508d565b61168090565b6040518060400160405280601181526020017021a6269c102220a79023b7bb32b93737b960791b81525081565b60076020526000908152604090205481565b7f8cad95687ba82c2ce50e74f7b754645e5117c3a5bec8151c0726d5857980a86681565b6004546001600160a01b0316331461079d5760405162461bcd60e51b815260040161079490613645565b60405180910390fd5b6002546040516001600160a01b0390911690630825f38f9082906000906107c890879060200161316a565b604051602081830303815290604052856040518563ffffffff1660e01b81526004016107f794939291906131b9565b600060405180830381600087803b15801561081157600080fd5b505af1158015610825573d6000803e3d6000fd5b505050506040513d6000823e601f3d908101601f1916820160405261084d9190810190612e65565b505050565b60005490565b6000818152600660209081526040808320338452601181019092529091208054600160d01b900460ff16158061089757508054600160d81b900460ff16155b6108b35760405162461bcd60e51b815260040161079490613afe565b60016108be84610fe7565b60088111156108c957fe5b14156108f35780600101544311156108f35760405162461bcd60e51b81526004016107949061393a565b80546001830154600091600160d81b900460ff169082906001600160a01b0316331480156109c95750600561092787610fe7565b600881111561093257fe5b14806109515750600661094487610fe7565b600881111561094f57fe5b145b8061096f5750600861096287610fe7565b600881111561096d57fe5b145b8061098d5750600461098087610fe7565b600881111561098b57fe5b145b806109ab5750600361099e87610fe7565b60088111156109a957fe5b145b806109c9575060026109bc87610fe7565b60088111156109c757fe5b145b90508015610b065760056109dc87610fe7565b60088111156109e757fe5b1480610a06575060066109f987610fe7565b6008811115610a0457fe5b145b80610a2457506008610a1787610fe7565b6008811115610a2257fe5b145b15610a59578354600290600160701b90046001600160601b0316610a466117a9565b0160030281610a5157fe5b049250610afd565b6000610a87610a80610a696117a9565b8754600160701b90046001600160601b0316612214565b6004612240565b600354604051633969f74f60e11b81529192506001600160a01b0316906372d3ee9e90610aba9030908590600401613197565b600060405180830381600087803b158015610ad457600080fd5b505af1158015610ae8573d6000803e3d6000fd5b50505050806003026001600160601b03169350505b60019150610b87565b6001610b1187610fe7565b6008811115610b1c57fe5b1415610b72578354600090610b4290600160701b90046001600160601b03166014612240565b8554909150610b6190600160701b90046001600160601b031682612275565b6001600160601b0316935050610b87565b8354600160701b90046001600160601b031692505b60008311610ba75760405162461bcd60e51b815260040161079490613527565b60006001610bb488610fe7565b6008811115610bbf57fe5b14905060006003610bcf89610fe7565b6008811115610bda57fe5b1490508180610be65750805b80610bee5750825b610c0a5760405162461bcd60e51b8152600401610794906139a7565b60035460405163a9059cbb60e01b81526001600160a01b039091169063a9059cbb90610c3c903390899060040161317e565b602060405180830381600087803b158015610c5657600080fd5b505af1158015610c6a573d6000803e3d6000fd5b505050506040513d601f19601f82011682018060405250810190610c8e9190612e31565b508115610d1c578554610100900460ff1615610ce25760098701548654610cc491906201000090046001600160601b0316612275565b6009880155600b870154610cd89086612275565b600b880155610d1c565b600a8701548654610d0291906201000090046001600160601b0316612275565b600a880155600c870154610d169086612275565b600c8801555b50508354911515600160d81b0260ff60d81b1961ff01600160d81b0319909316600160d01b17929092169190911790925550505050565b60608060608060006006600087815260200190815260200160002090508060030181600401826005018360060183805480602002602001604051908101604052809291908181526020018280548015610dd557602002820191906000526020600020905b81546001600160a01b03168152600190910190602001808311610db7575b5050505050935082805480602002602001604051908101604052809291908181526020018280548015610e2757602002820191906000526020600020905b815481526020019060010190808311610e13575b5050505050925081805480602002602001604051908101604052809291908181526020016000905b82821015610efa5760008481526020908190208301805460408051601f6002600019610100600187161502019094169390930492830185900485028101850190915281815292830182828015610ee65780601f10610ebb57610100808354040283529160200191610ee6565b820191906000526020600020905b815481529060010190602001808311610ec957829003601f168201915b505050505081526020019060010190610e4f565b50505050915080805480602002602001604051908101604052809291908181526020016000905b82821015610fcc5760008481526020908190208301805460408051601f6002600019610100600187161502019094169390930492830185900485028101850190915281815292830182828015610fb85780601f10610f8d57610100808354040283529160200191610fb8565b820191906000526020600020905b815481529060010190602001808311610f9b57829003601f168201915b505050505081526020019060010190610f21565b5050505090509450945094509450509193509193565b600190565b60008160055410158015610ffb5750600082115b6110175760405162461bcd60e51b8152600401610794906136b2565b6000828152600660205260409020600d81015460ff161561103c576002915050611180565b80600701544311611051576000915050611180565b80600801544311611066576001915050611180565b61106e610852565b81600a01548260090154011015611089576003915050611180565b80600a01548160090154116110a2576004915050611180565b60028101546110b5576005915050611180565b600d810154610100900460ff16156110d1576008915050611180565b6111648160020154600260009054906101000a90046001600160a01b03166001600160a01b031663c1a287e26040518163ffffffff1660e01b815260040160206040518083038186803b15801561112757600080fd5b505afa15801561113b573d6000803e3d6000fd5b505050506040513d601f19601f8201168201806040525081019061115f9190612e4d565b612214565b4210611174576007915050611180565b6006915050611180565b505b919050565b600061119082610fe7565b905060088160088111156111a057fe5b14156111be5760405162461bcd60e51b8152600401610794906135ad565b60008281526006602052604090206004546001600160a01b031633148061128957506111e86117a9565b6003546001838101546001600160a01b039283169263782d6fe192911690611211904390612275565b6040518363ffffffff1660e01b815260040161122e92919061317e565b60206040518083038186803b15801561124657600080fd5b505afa15801561125a573d6000803e3d6000fd5b505050506040513d601f19601f8201168201806040525081019061127e9190612fbf565b6001600160601b0316105b6112a55760405162461bcd60e51b815260040161079490613a40565b600d8101805460ff1916600117905560005b60038201548110156113b1576002546003830180546001600160a01b039092169163591fcdfe9190849081106112e957fe5b6000918252602090912001546004850180546001600160a01b03909216918590811061131157fe5b906000526020600020015485600501858154811061132b57fe5b9060005260206000200186600601868154811061134457fe5b9060005260206000200187600201546040518663ffffffff1660e01b81526004016113739594939291906132a2565b600060405180830381600087803b15801561138d57600080fd5b505af11580156113a1573d6000803e3d6000fd5b5050600190920191506112b79050565b507f789cf55be980739dad1d0699b93b58e806b51c9d96619bfa8fe0a28abaa7b30c836040516113e19190613333565b60405180910390a1505050565b6004546001600160a01b031681565b61014090565b600081815260066020908152604091829020600e0180548351601f600260001961010060018616150201909316929092049182018490048402810184019094528084526060939283018282801561149b5780601f106114705761010080835404028352916020019161149b565b820191906000526020600020905b81548152906001019060200180831161147e57829003601f168201915b50505050509050919050565b60408051808201909152601181527021a6269c102220a79023b7bb32b93737b960791b60209091015260007f8cad95687ba82c2ce50e74f7b754645e5117c3a5bec8151c0726d5857980a8667f5c6c4638be9dacb7243638d3b44c65664c952613289876d97c23e080e4e9ff3361151c61229d565b30604051602001611530949392919061333c565b60405160208183030381529060405280519060200120905060007f8e25870c07e0b0b3884c78da52790939a455c275406c44ae8b434b692fb916ee888860405160200161157f93929190613360565b604051602081830303815290604052805190602001209050600082826040516020016115ac92919061314f565b6040516020818303038152906040528051906020012090506000600182898989604051600081526020016040526040516115e99493929190613378565b6020604051602081039080840390855afa15801561160b573d6000803e3d6000fd5b5050604051601f1901519150506001600160a01b03811661163e5760405162461bcd60e51b815260040161079490613bab565b61164a818b8b886122a1565b505050505b505050505050565b6000815186511461167a5760405162461bcd60e51b81526004016107949061345f565b95945050505050565b6004546001600160a01b031633146116ad5760405162461bcd60e51b815260040161079490613838565b600480546001600160a01b0319169055565b600a90565b6004546001600160a01b031633146116ee5760405162461bcd60e51b8152600401610794906134bc565b6002546040516001600160a01b0390911690633a66f90190829060009061171990879060200161316a565b604051602081830303815290604052856040518563ffffffff1660e01b815260040161174894939291906131b9565b602060405180830381600087803b15801561176257600080fd5b505af1158015611776573d6000803e3d6000fd5b505050506040513d601f19601f8201168201806040525081019061084d9190612e4d565b6003546001600160a01b031681565b60015490565b6004546001600160a01b031633146117d95760405162461bcd60e51b8152600401610794906138e6565b600260009054906101000a90046001600160a01b03166001600160a01b0316630e18b6816040518163ffffffff1660e01b8152600401600060405180830381600087803b15801561182957600080fd5b505af115801561183d573d6000803e3d6000fd5b50505050565b6004546001600160a01b0316331461186d5760405162461bcd60e51b81526004016107949061341a565b600055565b6002546001600160a01b031681565b60055481565b60006118916117a9565b6003546001600160a01b031663782d6fe1336118ae436001612275565b6040518363ffffffff1660e01b81526004016118cb92919061317e565b60206040518083038186803b1580156118e357600080fd5b505afa1580156118f7573d6000803e3d6000fd5b505050506040513d601f19601f8201168201806040525081019061191b9190612fbf565b6001600160601b031610156119425760405162461bcd60e51b8152600401610794906133bd565b84518651148015611954575083518651145b8015611961575082518651145b61197d5760405162461bcd60e51b81526004016107949061345f565b855161199b5760405162461bcd60e51b8152600401610794906135fe565b6119a36116bf565b865111156119c35760405162461bcd60e51b81526004016107949061356a565b6119cb6117a9565b6003546040516370a0823160e01b81526001600160a01b03909116906370a08231906119fb90339060040161316a565b60206040518083038186803b158015611a1357600080fd5b505afa158015611a27573d6000803e3d6000fd5b505050506040513d601f19601f82011682018060405250810190611a4b9190612e4d565b1015611a695760405162461bcd60e51b8152600401610794906137a6565b6003546001600160a01b0316633b2d52ac33611a836117a9565b6040518363ffffffff1660e01b8152600401611aa0929190613197565b600060405180830381600087803b158015611aba57600080fd5b505af1158015611ace573d6000803e3d6000fd5b505050506000611ae04361115f610fe2565b90506000611af08261115f610701565b600580546001908101918290556000828152600660209081526040822093845591830180546001600160a01b0319163317905560028301558a519293509091611b41916003840191908c01906127bc565b508751611b5790600483019060208b0190612821565b508651611b6d90600583019060208a0190612868565b508551611b8390600683019060208901906128c1565b506007810183905560088101829055600060098201819055600a8201819055600b8201819055600c820155600d8101805461ffff191690558451611bd090600e830190602088019061291a565b50805460018201546001600160a01b031660009081526007602052604090819020829055517f7d84a6263ae0d98d3329bd7b46bb4e8d6f98cd35a7adb45c274c8b7fd5ebd5e091611c309133908d908d908d908d908b908b908f90613cc1565b60405180910390a15498975050505050505050565b61084d338484846122a1565b6005611c5c82610fe7565b6008811115611c6757fe5b14611c845760405162461bcd60e51b815260040161079490613b4e565b6000818152600660205260409020600354600b820154600c8301546001600160a01b03909216916372d3ee9e913091611ccd91611cc091612214565b611cc86117a9565b612275565b6040518363ffffffff1660e01b8152600401611cea929190613197565b600060405180830381600087803b158015611d0457600080fd5b505af1158015611d18573d6000803e3d6000fd5b505050506000611d7042600260009054906101000a90046001600160a01b03166001600160a01b0316636a42b8f86040518163ffffffff1660e01b815260040160206040518083038186803b15801561112757600080fd5b905060005b6003830154811015611f1857611f10836003018281548110611d9357fe5b6000918252602090912001546004850180546001600160a01b039092169184908110611dbb57fe5b9060005260206000200154856005018481548110611dd557fe5b600091825260209182902001805460408051601f6002600019610100600187161502019094169390930492830185900485028101850190915281815292830182828015611e635780601f10611e3857610100808354040283529160200191611e63565b820191906000526020600020905b815481529060010190602001808311611e4657829003601f168201915b5050505050866006018581548110611e7757fe5b600091825260209182902001805460408051601f6002600019610100600187161502019094169390930492830185900485028101850190915281815292830182828015611f055780601f10611eda57610100808354040283529160200191611f05565b820191906000526020600020905b815481529060010190602001808311611ee857829003601f168201915b5050505050866125fd565b600101611d75565b50600282018190556040517f9a2e42fd6722813d69113e7d0079d3d940171428df7373df9c7f7617cfda2892906113e19085908490613ddb565b7f8e25870c07e0b0b3884c78da52790939a455c275406c44ae8b434b692fb916ee81565b611f7e612987565b5060008281526006602090815260408083206001600160a01b0385168452601101825291829020825160e081018452815460ff80821615158352610100820481161515948301949094526001600160601b03620100008204811695830195909552600160701b81049094166060820152600160d01b8404831615156080820152600160d81b909304909116151560a08301526001015460c08201525b92915050565b6004546001600160a01b0316331461204a5760405162461bcd60e51b8152600401610794906139f0565b600155565b600661205a82610fe7565b600881111561206557fe5b146120825760405162461bcd60e51b815260040161079490613748565b6000818152600660205260408120600d8101805461ff001916610100179055905b60038201548110156121d8576002546004830180546001600160a01b0390921691630825f38f9190849081106120d557fe5b90600052602060002001548460030184815481106120ef57fe5b6000918252602090912001546004860180546001600160a01b03909216918690811061211757fe5b906000526020600020015486600501868154811061213157fe5b9060005260206000200187600601878154811061214a57fe5b9060005260206000200188600201546040518763ffffffff1660e01b81526004016121799594939291906132a2565b6000604051808303818588803b15801561219257600080fd5b505af11580156121a6573d6000803e3d6000fd5b50505050506040513d6000823e601f3d908101601f191682016040526121cf9190810190612e65565b506001016120a3565b507f712ae1383f79ac853f8d882153778e0260ef8f03b504e2866e0593e04d2b291f826040516122089190613333565b60405180910390a15050565b6000828201838110156122395760405162461bcd60e51b81526004016107949061380d565b9392505050565b600061223983836040518060400160405280601081526020016f6469766973696f6e206279207a65726f60801b815250612754565b6000828211156122975760405162461bcd60e51b815260040161079490613acf565b50900390565b4690565b60016122ac84610fe7565b60088111156122b757fe5b146122d45760405162461bcd60e51b815260040161079490613a8a565b60008381526006602090815260408083206001600160a01b038816845260118101909252909120805460ff1615156001141561233757805460ff610100909104161515841515146123375760405162461bcd60e51b815260040161079490613bf5565b8054600354600784015460405163782d6fe160e01b81526000936201000090046001600160601b0316926001600160a01b03169163782d6fe19161237f918c9160040161317e565b60206040518083038186803b15801561239757600080fd5b505afa1580156123ab573d6000803e3d6000fd5b505050506040513d601f19601f820116820180604052508101906123cf9190612fbf565b039050806001600160601b0316846001600160601b031611156124045760405162461bcd60e51b8152600401610794906136f6565b6000612418856001600160601b031661278b565b9050851561245e576124378460090154826001600160601b0316612214565b6009850155600b840154612454906001600160601b038716612214565b600b850155612498565b61247584600a0154826001600160601b0316612214565b600a850155600c840154612492906001600160601b038716612214565b600c8501555b600354604051630ecb54ab60e21b81526001600160a01b0390911690633b2d52ac906124ca908b908990600401613197565b600060405180830381600087803b1580156124e457600080fd5b505af11580156124f8573d6000803e3d6000fd5b50508454600160ff199091161761ff001916610100891515021780865561253492506201000090046001600160601b0390811691508316612214565b83546dffffffffffffffffffffffff00001916620100006001600160601b03928316021780855561257191600160701b9091048116908716612214565b835461ffff60d01b196001600160601b0392909216600160701b026bffffffffffffffffffffffff60701b19909116171683556125b04361115f6113fd565b60018401556040517f877856338e13f63d0c36822ff0ef736b80934cd90574a3a5bc9262c39d217c46906125eb908a908a908a908690613225565b60405180910390a15050505050505050565b6002546040516001600160a01b039091169063f2b065379061262b9088908890889088908890602001613256565b604051602081830303815290604052805190602001206040518263ffffffff1660e01b815260040161265d9190613333565b60206040518083038186803b15801561267557600080fd5b505afa158015612689573d6000803e3d6000fd5b505050506040513d601f19601f820116820180604052508101906126ad9190612e31565b156126ca5760405162461bcd60e51b815260040161079490613889565b600254604051633a66f90160e01b81526001600160a01b0390911690633a66f901906127029088908890889088908890600401613256565b602060405180830381600087803b15801561271c57600080fd5b505af1158015612730573d6000803e3d6000fd5b505050506040513d601f19601f8201168201806040525081019061164f9190612e4d565b600081836127755760405162461bcd60e51b815260040161079491906133aa565b50600083858161278157fe5b0495945050505050565b80600260018201045b8181101561117e578091506002818285816127ab57fe5b0401816127b457fe5b049050612794565b828054828255906000526020600020908101928215612811579160200282015b8281111561281157825182546001600160a01b0319166001600160a01b039091161782556020909201916001909101906127dc565b5061281d9291506129c3565b5090565b82805482825590600052602060002090810192821561285c579160200282015b8281111561285c578251825591602001919060010190612841565b5061281d9291506129e2565b8280548282559060005260206000209081019282156128b5579160200282015b828111156128b557825180516128a591849160209091019061291a565b5091602001919060010190612888565b5061281d9291506129f7565b82805482825590600052602060002090810192821561290e579160200282015b8281111561290e57825180516128fe91849160209091019061291a565b50916020019190600101906128e1565b5061281d929150612a14565b828054600181600116156101000203166002900490600052602060002090601f016020900481019282601f1061295b57805160ff191683800117855561285c565b8280016001018555821561285c579182018281111561285c578251825591602001919060010190612841565b6040805160e081018252600080825260208201819052918101829052606081018290526080810182905260a0810182905260c081019190915290565b5b8082111561281d5780546001600160a01b03191681556001016129c4565b5b8082111561281d57600081556001016129e3565b8082111561281d576000612a0b8282612a31565b506001016129f7565b8082111561281d576000612a288282612a31565b50600101612a14565b50805460018160011615610100020316600290046000825580601f10612a575750612a75565b601f016020900490600052602060002090810190612a7591906129e2565b50565b80356001600160a01b038116811461201a57600080fd5b600082601f830112612a9f578081fd5b8135612ab2612aad82613e10565b613de9565b818152915060208083019084810181840286018201871015612ad357600080fd5b60005b84811015612afa57612ae88883612a78565b84529282019290820190600101612ad6565b505050505092915050565b600082601f830112612b15578081fd5b8135612b23612aad82613e10565b818152915060208083019084810160005b84811015612afa57612b4b888484358a0101612c13565b84529282019290820190600101612b34565b600082601f830112612b6d578081fd5b8135612b7b612aad82613e10565b818152915060208083019084810160005b84811015612afa57612ba3888484358a0101612c13565b84529282019290820190600101612b8c565b600082601f830112612bc5578081fd5b8135612bd3612aad82613e10565b818152915060208083019084810181840286018201871015612bf457600080fd5b60005b84811015612afa57813584529282019290820190600101612bf7565b600082601f830112612c23578081fd5b8135612c31612aad82613e30565b9150808252836020828501011115612c4857600080fd5b8060208401602084013760009082016020015292915050565b600060208284031215612c72578081fd5b6122398383612a78565b60008060408385031215612c8e578081fd5b612c988484612a78565b946020939093013593505050565b600080600080600060a08688031215612cbd578081fd5b853567ffffffffffffffff80821115612cd4578283fd5b612ce089838a01612a8f565b96506020880135915080821115612cf5578283fd5b612d0189838a01612bb5565b95506040880135915080821115612d16578283fd5b612d2289838a01612b5d565b94506060880135915080821115612d37578283fd5b612d4389838a01612b05565b93506080880135915080821115612d58578283fd5b50612d6588828901612b5d565b9150509295509295909350565b600080600080600060a08688031215612d89578081fd5b853567ffffffffffffffff80821115612da0578283fd5b612dac89838a01612a8f565b96506020880135915080821115612dc1578283fd5b612dcd89838a01612bb5565b95506040880135915080821115612de2578283fd5b612dee89838a01612b5d565b94506060880135915080821115612e03578283fd5b612e0f89838a01612b05565b93506080880135915080821115612e24578283fd5b50612d6588828901612c13565b600060208284031215612e42578081fd5b815161223981613e8c565b600060208284031215612e5e578081fd5b5051919050565b600060208284031215612e76578081fd5b815167ffffffffffffffff811115612e8c578182fd5b8201601f81018413612e9c578182fd5b8051612eaa612aad82613e30565b818152856020838501011115612ebe578384fd5b61167a826020830160208601613e60565b600060208284031215612ee0578081fd5b5035919050565b60008060408385031215612ef9578182fd5b82359150612f0a8460208501612a78565b90509250929050565b60008060008060008060c08789031215612f2b578384fd5b863595506020870135612f3d81613e8c565b9450604087013560ff81168114612f52578485fd5b9350606087013592506080870135915060a0870135612f7081613e9a565b809150509295509295509295565b600080600060608486031215612f92578081fd5b833592506020840135612fa481613e8c565b91506040840135612fb481613e9a565b809150509250925092565b600060208284031215612fd0578081fd5b815161223981613e9a565b6000815180845260208085019450808401835b838110156130135781516001600160a01b031687529582019590820190600101612fee565b509495945050505050565b6000815180845260208085018081965082840281019150828601855b858110156130645782840389526130528483516130a0565b9885019893509084019060010161303a565b5091979650505050505050565b6000815180845260208085019450808401835b8381101561301357815187529582019590820190600101613084565b600081518084526130b8816020860160208601613e60565b601f01601f19169290920160200192915050565b600081546001808216600081146130ea576001811461310857613146565b60028304607f16865260ff1983166020870152604086019350613146565b6002830480875261311886613e54565b60005b8281101561313c5781546020828b010152848201915060208101905061311b565b8801602001955050505b50505092915050565b61190160f01b81526002810192909252602282015260420190565b6001600160a01b0391909116815260200190565b6001600160a01b03929092168252602082015260400190565b6001600160a01b039290921682526001600160601b0316602082015260400190565b600060018060a01b038616825284602083015260a06040830152601860a08301527f73657450656e64696e6741646d696e286164647265737329000000000000000060c083015260e0606083015261321460e08301856130a0565b905082608083015295945050505050565b6001600160a01b039490941684526020840192909252151560408301526001600160601b0316606082015260800190565b600060018060a01b038716825285602083015260a0604083015261327d60a08301866130a0565b828103606084015261328f81866130a0565b9150508260808301529695505050505050565b600060018060a01b038716825285602083015260a060408301526132c960a08301866130cc565b828103606084015261328f81866130cc565b6000608082526132ee6080830187612fdb565b82810360208401526133008187613071565b90508281036040840152613314818661301e565b90508281036060840152613328818561301e565b979650505050505050565b90815260200190565b938452602084019290925260408301526001600160a01b0316606082015260800190565b92835260208301919091521515604082015260600190565b93845260ff9290921660208401526040830152606082015260800190565b60208101600983106133a457fe5b91905290565b60006020825261223960208301846130a0565b6020808252603a908201527f476f7665726e6f723a3a70726f706f73653a2070726f706f73657220766f746560408201527f732062656c6f772070726f706f73616c207468726573686f6c64000000000000606082015260800190565b60208082526025908201527f476f7665726e6f723a3a73657451756f72756d3a206d75737420626520677561604082015264393234b0b760d91b606082015260800190565b6020808252603f908201527f476f7665726e6f723a3a70726f706f73653a2070726f706f73616c2066756e6360408201527f74696f6e20696e666f726d6174696f6e206172697479206d69736d6174636800606082015260800190565b60208082526045908201527f476f7665726e6f723a3a5f5f717565756553657454696d656c6f636b50656e6460408201527f696e6741646d696e3a2073656e646572206d75737420626520676f7620677561606082015264393234b0b760d91b608082015260a00190565b60208082526023908201527f476f7665726e6f723a3a726566756e643a206e6f7468696e6720746f207265666040820152621d5b9960ea1b606082015260800190565b60208082526023908201527f476f7665726e6f723a3a70726f706f73653a20746f6f206d616e7920616374696040820152626f6e7360e81b606082015260800190565b60208082526031908201527f476f7665726e6f723a3a63616e63656c3a2063616e6e6f742063616e63656c20604082015270195e1958dd5d1959081c1c9bdc1bdcd85b607a1b606082015260800190565b60208082526027908201527f476f7665726e6f723a3a70726f706f73653a206d7573742070726f7669646520604082015266616374696f6e7360c81b606082015260800190565b60208082526047908201527f476f7665726e6f723a3a5f5f6578656375746553657454696d656c6f636b506560408201527f6e64696e6741646d696e3a2073656e646572206d75737420626520676f7620676060820152663ab0b93234b0b760c91b608082015260a00190565b60208082526024908201527f476f7665726e6f723a3a73746174653a20696e76616c69642070726f706f73616040820152631b081a5960e21b606082015260800190565b60208082526032908201527f476f7665726e6f723a3a5f63617374566f74653a20766f746573206578636565604082015271191cc8195b1a59da589b1948185b5bdd5b9d60721b606082015260800190565b602080825260409082018190527f476f7665726e6f723a3a657865637574653a2070726f706f73616c2063616e20908201527f6f6e6c7920626520657865637574656420696620697420697320717565756564606082015260800190565b60208082526041908201527f476f7665726e6f723a3a70726f706f73653a206e6f7420656e6f75676820626160408201527f6c616e636520746f206c6f636b2064434c4d3820776974682070726f706f73616060820152601b60fa1b608082015260a00190565b6020808252601190820152706164646974696f6e206f766572666c6f7760781b604082015260600190565b60208082526031908201527f476f7665726e6f723a3a5f5f61626469636174653a2073656e646572206d75736040820152703a1031329033b7bb1033bab0b93234b0b760791b606082015260800190565b6020808252603f908201527f476f7665726e6f723a3a5f71756575654f725265766572743a2070726f706f7360408201527f616c20616374696f6e20616c7265616479207175657565642061742065746100606082015260800190565b60208082526034908201527f476f7665726e6f723a3a5f5f61636365707441646d696e3a2073656e6465722060408201527336bab9ba1031329033b7bb1033bab0b93234b0b760611b606082015260800190565b60208082526047908201527f476f7665726e6f723a3a726566756e643a206e6f7420656c696769626c65206660408201527f6f7220726566756e642c20766f7465732063616e63656c20706572696f6420696060820152661cc8195b99195960ca1b608082015260a00190565b60208082526029908201527f476f7665726e6f723a3a726566756e643a206e6f7420656c696769626c6520666040820152681bdc881c99599d5b9960ba1b606082015260800190565b60208082526030908201527f476f7665726e6f723a3a73657450726f706f73616c5468726573686f6c643a2060408201526f36bab9ba1031329033bab0b93234b0b760811b606082015260800190565b6020808252602a908201527f476f7665726e6f723a3a63616e63656c3a2070726f706f7365722061626f7665604082015269081d1a1c995cda1bdb1960b21b606082015260800190565b60208082526025908201527f476f7665726e6f723a3a5f63617374566f74653a20766f74696e6720697320636040820152641b1bdcd95960da1b606082015260800190565b6020808252601590820152747375627472616374696f6e20756e646572666c6f7760581b604082015260600190565b60208082526030908201527f476f7665726e6f723a3a726566756e643a20616c726561647920726566756e6460408201526f1959081d1a1a5cc81c1c9bdc1bdcd85b60821b606082015260800190565b6020808252603f908201527f476f7665726e6f723a3a71756575653a2070726f706f73616c2063616e206f6e60408201527f6c79206265207175657565642069662069742069732073756363656564656400606082015260800190565b6020808252602a908201527f476f7665726e6f723a3a63617374566f746542795369673a20696e76616c6964604082015269207369676e617475726560b01b606082015260800190565b60208082526041908201527f476f7665726e6f723a3a5f63617374566f74653a2063616e206f6e6c7920746f60408201527f70206f66662073616d6520766f746520776974686f757420726566756e64696e6060820152606760f81b608082015260a00190565b600060e08201905082511515825260208301511515602083015260408301516001600160601b038082166040850152806060860151166060850152505060808301511515608083015260a0830151151560a083015260c083015160c083015292915050565b8981526001600160a01b038916602082015261012060408201819052600090613cec8382018b612fdb565b90508281036060840152613d00818a613071565b90508281036080840152613d14818961301e565b905082810360a0840152613d28818861301e565b90508560c08401528460e0840152828103610100840152613d4981856130a0565b9c9b505050505050505050505050565b60006101a08f835260018060a01b038f1660208401528d60408401528c60608401528b60808401528a60a08401528960c08401528860e08401528761010084015286151561012084015285151561014084015280610160840152613dbf818401866130a0565b915050826101808301529e9d5050505050505050505050505050565b918252602082015260400190565b60405181810167ffffffffffffffff81118282101715613e0857600080fd5b604052919050565b600067ffffffffffffffff821115613e26578081fd5b5060209081020190565b600067ffffffffffffffff821115613e46578081fd5b50601f01601f191660200190565b60009081526020902090565b60005b83811015613e7b578181015183820152602001613e63565b8381111561183d5750506000910152565b8015158114612a7557600080fd5b6001600160601b0381168114612a7557600080fdfea264697066735822122061624c8373f98c0d228d9c6b39b98d5cf27fa6f7c80db0ed4adc002520742b3a64736f6c63430007000033",
  "linkReferences": {},
  "deployedLinkReferences": {}
}