{
  "_format": "hh-sol-artifact-1",
  "contractName": "NetEmissionsTokenNetwork",
  "sourceName": "contracts/NetEmissionsTokenNetwork.sol",
  "abi": [
    {
      "inputs": [],
      "stateMutability": "nonpayable",
      "type": "constructor"
    },
    {
      "anonymous": false,
      "inputs": [
        {
          "indexed": true,
          "internalType": "address",
          "name": "account",
          "type": "address"
        },
        {
          "indexed": true,
          "internalType": "address",
          "name": "operator",
          "type": "address"
        },
        {
          "indexed": false,
          "internalType": "bool",
          "name": "approved",
          "type": "bool"
        }
      ],
      "name": "ApprovalForAll",
      "type": "event"
    },
    {
      "anonymous": false,
      "inputs": [
        {
          "indexed": true,
          "internalType": "address",
          "name": "account",
          "type": "address"
        }
      ],
      "name": "RegisteredDealer",
      "type": "event"
    },
    {
      "anonymous": false,
      "inputs": [
        {
          "indexed": true,
          "internalType": "bytes32",
          "name": "role",
          "type": "bytes32"
        },
        {
          "indexed": true,
          "internalType": "bytes32",
          "name": "previousAdminRole",
          "type": "bytes32"
        },
        {
          "indexed": true,
          "internalType": "bytes32",
          "name": "newAdminRole",
          "type": "bytes32"
        }
      ],
      "name": "RoleAdminChanged",
      "type": "event"
    },
    {
      "anonymous": false,
      "inputs": [
        {
          "indexed": true,
          "internalType": "bytes32",
          "name": "role",
          "type": "bytes32"
        },
        {
          "indexed": true,
          "internalType": "address",
          "name": "account",
          "type": "address"
        },
        {
          "indexed": true,
          "internalType": "address",
          "name": "sender",
          "type": "address"
        }
      ],
      "name": "RoleGranted",
      "type": "event"
    },
    {
      "anonymous": false,
      "inputs": [
        {
          "indexed": true,
          "internalType": "bytes32",
          "name": "role",
          "type": "bytes32"
        },
        {
          "indexed": true,
          "internalType": "address",
          "name": "account",
          "type": "address"
        },
        {
          "indexed": true,
          "internalType": "address",
          "name": "sender",
          "type": "address"
        }
      ],
      "name": "RoleRevoked",
      "type": "event"
    },
    {
      "anonymous": false,
      "inputs": [
        {
          "indexed": false,
          "internalType": "uint256",
          "name": "",
          "type": "uint256"
        }
      ],
      "name": "TokenCreated",
      "type": "event"
    },
    {
      "anonymous": false,
      "inputs": [
        {
          "indexed": true,
          "internalType": "address",
          "name": "operator",
          "type": "address"
        },
        {
          "indexed": true,
          "internalType": "address",
          "name": "from",
          "type": "address"
        },
        {
          "indexed": true,
          "internalType": "address",
          "name": "to",
          "type": "address"
        },
        {
          "indexed": false,
          "internalType": "uint256[]",
          "name": "ids",
          "type": "uint256[]"
        },
        {
          "indexed": false,
          "internalType": "uint256[]",
          "name": "values",
          "type": "uint256[]"
        }
      ],
      "name": "TransferBatch",
      "type": "event"
    },
    {
      "anonymous": false,
      "inputs": [
        {
          "indexed": true,
          "internalType": "address",
          "name": "operator",
          "type": "address"
        },
        {
          "indexed": true,
          "internalType": "address",
          "name": "from",
          "type": "address"
        },
        {
          "indexed": true,
          "internalType": "address",
          "name": "to",
          "type": "address"
        },
        {
          "indexed": false,
          "internalType": "uint256",
          "name": "id",
          "type": "uint256"
        },
        {
          "indexed": false,
          "internalType": "uint256",
          "name": "value",
          "type": "uint256"
        }
      ],
      "name": "TransferSingle",
      "type": "event"
    },
    {
      "anonymous": false,
      "inputs": [
        {
          "indexed": false,
          "internalType": "string",
          "name": "value",
          "type": "string"
        },
        {
          "indexed": true,
          "internalType": "uint256",
          "name": "id",
          "type": "uint256"
        }
      ],
      "name": "URI",
      "type": "event"
    },
    {
      "anonymous": false,
      "inputs": [
        {
          "indexed": true,
          "internalType": "address",
          "name": "account",
          "type": "address"
        }
      ],
      "name": "UnregisteredDealer",
      "type": "event"
    },
    {
      "inputs": [],
      "name": "DEFAULT_ADMIN_ROLE",
      "outputs": [
        {
          "internalType": "bytes32",
          "name": "",
          "type": "bytes32"
        }
      ],
      "stateMutability": "view",
      "type": "function"
    },
    {
      "inputs": [],
      "name": "REGISTERED_CONSUMER",
      "outputs": [
        {
          "internalType": "bytes32",
          "name": "",
          "type": "bytes32"
        }
      ],
      "stateMutability": "view",
      "type": "function"
    },
    {
      "inputs": [],
      "name": "REGISTERED_EMISSIONS_AUDITOR",
      "outputs": [
        {
          "internalType": "bytes32",
          "name": "",
          "type": "bytes32"
        }
      ],
      "stateMutability": "view",
      "type": "function"
    },
    {
      "inputs": [],
      "name": "REGISTERED_OFFSET_DEALER",
      "outputs": [
        {
          "internalType": "bytes32",
          "name": "",
          "type": "bytes32"
        }
      ],
      "stateMutability": "view",
      "type": "function"
    },
    {
      "inputs": [],
      "name": "REGISTERED_REC_DEALER",
      "outputs": [
        {
          "internalType": "bytes32",
          "name": "",
          "type": "bytes32"
        }
      ],
      "stateMutability": "view",
      "type": "function"
    },
    {
      "inputs": [
        {
          "internalType": "address",
          "name": "account",
          "type": "address"
        },
        {
          "internalType": "uint256",
          "name": "id",
          "type": "uint256"
        }
      ],
      "name": "balanceOf",
      "outputs": [
        {
          "internalType": "uint256",
          "name": "",
          "type": "uint256"
        }
      ],
      "stateMutability": "view",
      "type": "function"
    },
    {
      "inputs": [
        {
          "internalType": "address[]",
          "name": "accounts",
          "type": "address[]"
        },
        {
          "internalType": "uint256[]",
          "name": "ids",
          "type": "uint256[]"
        }
      ],
      "name": "balanceOfBatch",
      "outputs": [
        {
          "internalType": "uint256[]",
          "name": "",
          "type": "uint256[]"
        }
      ],
      "stateMutability": "view",
      "type": "function"
    },
    {
      "inputs": [
        {
          "internalType": "uint8",
          "name": "tokenTypeId",
          "type": "uint8"
        }
      ],
      "name": "getAvailableBalanceByTokenTypeId",
      "outputs": [
        {
          "internalType": "uint256",
          "name": "",
          "type": "uint256"
        }
      ],
      "stateMutability": "view",
      "type": "function"
    },
    {
      "inputs": [
        {
          "internalType": "address",
          "name": "account",
          "type": "address"
        },
        {
          "internalType": "uint256",
          "name": "tokenId",
          "type": "uint256"
        }
      ],
      "name": "getBalance",
      "outputs": [
        {
          "internalType": "uint256",
          "name": "",
          "type": "uint256"
        }
      ],
      "stateMutability": "view",
      "type": "function"
    },
    {
      "inputs": [
        {
          "internalType": "uint8",
          "name": "tokenTypeId",
          "type": "uint8"
        }
      ],
      "name": "getBothBalanceByTokenId",
      "outputs": [
        {
          "internalType": "uint256",
          "name": "",
          "type": "uint256"
        },
        {
          "internalType": "uint256",
          "name": "",
          "type": "uint256"
        }
      ],
      "stateMutability": "view",
      "type": "function"
    },
    {
      "inputs": [],
      "name": "getNumOfUniqueTokens",
      "outputs": [
        {
          "internalType": "uint256",
          "name": "",
          "type": "uint256"
        }
      ],
      "stateMutability": "view",
      "type": "function"
    },
    {
      "inputs": [
        {
          "internalType": "uint8",
          "name": "tokenTypeId",
          "type": "uint8"
        }
      ],
      "name": "getRetiredBalanceByTokenTypeId",
      "outputs": [
        {
          "internalType": "uint256",
          "name": "",
          "type": "uint256"
        }
      ],
      "stateMutability": "view",
      "type": "function"
    },
    {
      "inputs": [
        {
          "internalType": "bytes32",
          "name": "role",
          "type": "bytes32"
        }
      ],
      "name": "getRoleAdmin",
      "outputs": [
        {
          "internalType": "bytes32",
          "name": "",
          "type": "bytes32"
        }
      ],
      "stateMutability": "view",
      "type": "function"
    },
    {
      "inputs": [
        {
          "internalType": "bytes32",
          "name": "role",
          "type": "bytes32"
        },
        {
          "internalType": "uint256",
          "name": "index",
          "type": "uint256"
        }
      ],
      "name": "getRoleMember",
      "outputs": [
        {
          "internalType": "address",
          "name": "",
          "type": "address"
        }
      ],
      "stateMutability": "view",
      "type": "function"
    },
    {
      "inputs": [
        {
          "internalType": "bytes32",
          "name": "role",
          "type": "bytes32"
        }
      ],
      "name": "getRoleMemberCount",
      "outputs": [
        {
          "internalType": "uint256",
          "name": "",
          "type": "uint256"
        }
      ],
      "stateMutability": "view",
      "type": "function"
    },
    {
      "inputs": [
        {
          "internalType": "address",
          "name": "account",
          "type": "address"
        }
      ],
      "name": "getRoles",
      "outputs": [
        {
          "internalType": "bool",
          "name": "",
          "type": "bool"
        },
        {
          "internalType": "bool",
          "name": "",
          "type": "bool"
        },
        {
          "internalType": "bool",
          "name": "",
          "type": "bool"
        },
        {
          "internalType": "bool",
          "name": "",
          "type": "bool"
        },
        {
          "internalType": "bool",
          "name": "",
          "type": "bool"
        }
      ],
      "stateMutability": "view",
      "type": "function"
    },
    {
      "inputs": [
        {
          "internalType": "uint256",
          "name": "tokenId",
          "type": "uint256"
        }
      ],
      "name": "getTokenDetails",
      "outputs": [
        {
          "components": [
            {
              "internalType": "uint256",
              "name": "tokenId",
              "type": "uint256"
            },
            {
              "internalType": "uint8",
              "name": "tokenTypeId",
              "type": "uint8"
            },
            {
              "internalType": "address",
              "name": "issuer",
              "type": "address"
            },
            {
              "internalType": "address",
              "name": "issuee",
              "type": "address"
            },
            {
              "internalType": "string",
              "name": "uom",
              "type": "string"
            },
            {
              "internalType": "uint256",
              "name": "fromDate",
              "type": "uint256"
            },
            {
              "internalType": "uint256",
              "name": "thruDate",
              "type": "uint256"
            },
            {
              "internalType": "uint256",
              "name": "dateCreated",
              "type": "uint256"
            },
            {
              "internalType": "uint256",
              "name": "automaticRetireDate",
              "type": "uint256"
            },
            {
              "internalType": "string",
              "name": "metadata",
              "type": "string"
            },
            {
              "internalType": "string",
              "name": "manifest",
              "type": "string"
            },
            {
              "internalType": "string",
              "name": "description",
              "type": "string"
            },
            {
              "internalType": "bool",
              "name": "retired",
              "type": "bool"
            },
            {
              "internalType": "uint256",
              "name": "retiredAmount",
              "type": "uint256"
            }
          ],
          "internalType": "struct NetEmissionsTokenNetwork.CarbonTokenDetails",
          "name": "",
          "type": "tuple"
        }
      ],
      "stateMutability": "view",
      "type": "function"
    },
    {
      "inputs": [
        {
          "internalType": "uint256",
          "name": "tokenId",
          "type": "uint256"
        }
      ],
      "name": "getTokenRetiredAmount",
      "outputs": [
        {
          "internalType": "uint256",
          "name": "",
          "type": "uint256"
        }
      ],
      "stateMutability": "view",
      "type": "function"
    },
    {
      "inputs": [
        {
          "internalType": "uint256",
          "name": "tokenId",
          "type": "uint256"
        }
      ],
      "name": "getTokenType",
      "outputs": [
        {
          "internalType": "string",
          "name": "",
          "type": "string"
        }
      ],
      "stateMutability": "view",
      "type": "function"
    },
    {
      "inputs": [
        {
          "internalType": "bytes32",
          "name": "role",
          "type": "bytes32"
        },
        {
          "internalType": "address",
          "name": "account",
          "type": "address"
        }
      ],
      "name": "grantRole",
      "outputs": [],
      "stateMutability": "nonpayable",
      "type": "function"
    },
    {
      "inputs": [
        {
          "internalType": "bytes32",
          "name": "role",
          "type": "bytes32"
        },
        {
          "internalType": "address",
          "name": "account",
          "type": "address"
        }
      ],
      "name": "hasRole",
      "outputs": [
        {
          "internalType": "bool",
          "name": "",
          "type": "bool"
        }
      ],
      "stateMutability": "view",
      "type": "function"
    },
    {
      "inputs": [
        {
          "internalType": "address",
          "name": "account",
          "type": "address"
        },
        {
          "internalType": "address",
          "name": "operator",
          "type": "address"
        }
      ],
      "name": "isApprovedForAll",
      "outputs": [
        {
          "internalType": "bool",
          "name": "",
          "type": "bool"
        }
      ],
      "stateMutability": "view",
      "type": "function"
    },
    {
      "inputs": [
        {
          "internalType": "address",
          "name": "account",
          "type": "address"
        }
      ],
      "name": "isConsumerRegistered",
      "outputs": [
        {
          "internalType": "bool",
          "name": "",
          "type": "bool"
        }
      ],
      "stateMutability": "view",
      "type": "function"
    },
    {
      "inputs": [
        {
          "internalType": "address",
          "name": "account",
          "type": "address"
        }
      ],
      "name": "isDealerRegistered",
      "outputs": [
        {
          "internalType": "bool",
          "name": "",
          "type": "bool"
        }
      ],
      "stateMutability": "view",
      "type": "function"
    },
    {
      "inputs": [
        {
          "internalType": "uint256",
          "name": "tokenId",
          "type": "uint256"
        }
      ],
      "name": "isRetired",
      "outputs": [
        {
          "internalType": "bool",
          "name": "",
          "type": "bool"
        }
      ],
      "stateMutability": "view",
      "type": "function"
    },
    {
      "inputs": [
        {
          "internalType": "address",
          "name": "account",
          "type": "address"
        },
        {
          "internalType": "uint8",
          "name": "tokenTypeId",
          "type": "uint8"
        },
        {
          "internalType": "uint256",
          "name": "quantity",
          "type": "uint256"
        },
        {
          "internalType": "string",
          "name": "uom",
          "type": "string"
        },
        {
          "internalType": "uint256",
          "name": "fromDate",
          "type": "uint256"
        },
        {
          "internalType": "uint256",
          "name": "thruDate",
          "type": "uint256"
        },
        {
          "internalType": "uint256",
          "name": "automaticRetireDate",
          "type": "uint256"
        },
        {
          "internalType": "string",
          "name": "metadata",
          "type": "string"
        },
        {
          "internalType": "string",
          "name": "manifest",
          "type": "string"
        },
        {
          "internalType": "string",
          "name": "description",
          "type": "string"
        }
      ],
      "name": "issue",
      "outputs": [],
      "stateMutability": "nonpayable",
      "type": "function"
    },
    {
      "inputs": [
        {
          "internalType": "address",
          "name": "account",
          "type": "address"
        }
      ],
      "name": "registerConsumer",
      "outputs": [],
      "stateMutability": "nonpayable",
      "type": "function"
    },
    {
      "inputs": [
        {
          "internalType": "address",
          "name": "account",
          "type": "address"
        },
        {
          "internalType": "uint8",
          "name": "tokenTypeId",
          "type": "uint8"
        }
      ],
      "name": "registerDealer",
      "outputs": [],
      "stateMutability": "nonpayable",
      "type": "function"
    },
    {
      "inputs": [
        {
          "internalType": "bytes32",
          "name": "role",
          "type": "bytes32"
        },
        {
          "internalType": "address",
          "name": "account",
          "type": "address"
        }
      ],
      "name": "renounceRole",
      "outputs": [],
      "stateMutability": "nonpayable",
      "type": "function"
    },
    {
      "inputs": [
        {
          "internalType": "address",
          "name": "account",
          "type": "address"
        },
        {
          "internalType": "uint256",
          "name": "tokenId",
          "type": "uint256"
        },
        {
          "internalType": "uint256",
          "name": "amount",
          "type": "uint256"
        }
      ],
      "name": "retire",
      "outputs": [],
      "stateMutability": "nonpayable",
      "type": "function"
    },
    {
      "inputs": [
        {
          "internalType": "bytes32",
          "name": "role",
          "type": "bytes32"
        },
        {
          "internalType": "address",
          "name": "account",
          "type": "address"
        }
      ],
      "name": "revokeRole",
      "outputs": [],
      "stateMutability": "nonpayable",
      "type": "function"
    },
    {
      "inputs": [
        {
          "internalType": "address",
          "name": "from",
          "type": "address"
        },
        {
          "internalType": "address",
          "name": "to",
          "type": "address"
        },
        {
          "internalType": "uint256[]",
          "name": "ids",
          "type": "uint256[]"
        },
        {
          "internalType": "uint256[]",
          "name": "amounts",
          "type": "uint256[]"
        },
        {
          "internalType": "bytes",
          "name": "data",
          "type": "bytes"
        }
      ],
      "name": "safeBatchTransferFrom",
      "outputs": [],
      "stateMutability": "nonpayable",
      "type": "function"
    },
    {
      "inputs": [
        {
          "internalType": "address",
          "name": "from",
          "type": "address"
        },
        {
          "internalType": "address",
          "name": "to",
          "type": "address"
        },
        {
          "internalType": "uint256",
          "name": "id",
          "type": "uint256"
        },
        {
          "internalType": "uint256",
          "name": "amount",
          "type": "uint256"
        },
        {
          "internalType": "bytes",
          "name": "data",
          "type": "bytes"
        }
      ],
      "name": "safeTransferFrom",
      "outputs": [],
      "stateMutability": "nonpayable",
      "type": "function"
    },
    {
      "inputs": [
        {
          "internalType": "address",
          "name": "operator",
          "type": "address"
        },
        {
          "internalType": "bool",
          "name": "approved",
          "type": "bool"
        }
      ],
      "name": "setApprovalForAll",
      "outputs": [],
      "stateMutability": "nonpayable",
      "type": "function"
    },
    {
      "inputs": [
        {
          "internalType": "bytes4",
          "name": "interfaceId",
          "type": "bytes4"
        }
      ],
      "name": "supportsInterface",
      "outputs": [
        {
          "internalType": "bool",
          "name": "",
          "type": "bool"
        }
      ],
      "stateMutability": "view",
      "type": "function"
    },
    {
      "inputs": [
        {
          "internalType": "address",
          "name": "to",
          "type": "address"
        },
        {
          "internalType": "uint256",
          "name": "tokenId",
          "type": "uint256"
        },
        {
          "internalType": "uint256",
          "name": "value",
          "type": "uint256"
        }
      ],
      "name": "transfer",
      "outputs": [],
      "stateMutability": "nonpayable",
      "type": "function"
    },
    {
      "inputs": [
        {
          "internalType": "address",
          "name": "account",
          "type": "address"
        }
      ],
      "name": "unregisterConsumer",
      "outputs": [],
      "stateMutability": "nonpayable",
      "type": "function"
    },
    {
      "inputs": [
        {
          "internalType": "address",
          "name": "account",
          "type": "address"
        },
        {
          "internalType": "uint8",
          "name": "tokenTypeId",
          "type": "uint8"
        }
      ],
      "name": "unregisterDealer",
      "outputs": [],
      "stateMutability": "nonpayable",
      "type": "function"
    },
    {
      "inputs": [
        {
          "internalType": "uint256",
          "name": "",
          "type": "uint256"
        }
      ],
      "name": "uri",
      "outputs": [
        {
          "internalType": "string",
          "name": "",
          "type": "string"
        }
      ],
      "stateMutability": "view",
      "type": "function"
    }
  ],
  "bytecode": "0x6000600655601c60e09081527f52656e657761626c6520456e657267792043657274696669636174650000000061010052608090815260176101209081527f436172626f6e20456d697373696f6e73204f66667365740000000000000000006101405260a0526101a06040526011610160908152704175646974656420456d697373696f6e7360781b6101805260c0526200009f90600790600362000368565b50600060085560006009556000600a556000600b556000600c556000600d55348015620000cb57600080fd5b506040805180820190915260098152681b1bd8d85b1a1bdcdd60ba1b6020820152620001076301ffc9a760e01b6001600160e01b03620001bd16565b6200011b816001600160e01b036200021816565b62000136636cdb3d1360e11b6001600160e01b03620001bd16565b620001516303a24d0760e21b6001600160e01b03620001bd16565b50620001686000336001600160e01b036200023116565b620001936040516200017a90620004dd565b604051908190039020336001600160e01b036200023116565b620001a56040516200017a906200052f565b620001b76040516200017a9062000506565b6200058f565b6001600160e01b03198082161415620001f35760405162461bcd60e51b8152600401620001ea9062000558565b60405180910390fd5b6001600160e01b0319166000908152602081905260409020805460ff19166001179055565b80516200022d906003906020840190620003cc565b5050565b6200022d82826001600160e01b036200024616565b60008281526004602090815260409091206200026d91839062002476620002ca821b17901c565b156200022d57620002866001600160e01b03620002f316565b6001600160a01b0316816001600160a01b0316837f2f8788117e7eff1d82e926ec794901d17c78024a50270940304540a733656f0d60405160405180910390a45050565b6000620002ea836001600160a01b0384166001600160e01b03620002f816565b90505b92915050565b335b90565b60006200030f83836001600160e01b036200035016565b6200034757508154600181810184556000848152602080822090930184905584548482528286019093526040902091909155620002ed565b506000620002ed565b60009081526001919091016020526040902054151590565b828054828255906000526020600020908101928215620003ba579160200282015b82811115620003ba5782518051620003a9918491602090910190620003cc565b509160200191906001019062000389565b50620003c89291506200044d565b5090565b828054600181600116156101000203166002900490600052602060002090601f016020900481019282601f106200040f57805160ff19168380011785556200043f565b828001600101855582156200043f579182015b828111156200043f57825182559160200191906001019062000422565b50620003c892915062000475565b620002f591905b80821115620003c85760006200046b828262000492565b5060010162000454565b620002f591905b80821115620003c857600081556001016200047c565b50805460018160011615610100020316600290046000825580601f10620004ba5750620004da565b601f016020900490600052602060002090810190620004da919062000475565b50565b7f524547495354455245445f5245435f4445414c45520000000000000000000000815260150190565b7f524547495354455245445f454d495353494f4e535f41554449544f52000000008152601c0190565b7f524547495354455245445f4f46465345545f4445414c45520000000000000000815260180190565b6020808252601c908201527f4552433136353a20696e76616c696420696e7465726661636520696400000000604082015260600190565b613981806200059f6000396000f3fe608060405234801561001057600080fd5b506004361061023c5760003560e01c8063744906941161013b578063c1e03728116100b8578063d547741f1161007c578063d547741f14610508578063e2e564f21461051b578063e985e9c51461052e578063f242432a14610541578063fcba7948146105545761023c565b8063c1e037281461048b578063ca15c873146104ab578063ce6ccfaf146104be578063cf6ebee7146104e2578063d4949893146104f55761023c565b806391d14854116100ff57806391d14854146104375780639258d5c31461044a578063a217fddf1461045d578063a22cb46514610465578063b46a08d7146104785761023c565b806374490694146103d357806376aed2e1146103f457806376ce47551461040757806378e5c5921461040f5780639010d07c146104175761023c565b80632f2ff15d116101c95780634e1273f41161018d5780634e1273f41461037257806353dbe9821461039257806354e2557c146103a55780635ddb368f146103b857806369f7ef44146103c05761023c565b80632f2ff15d1461031357806331aa4b201461032657806333781a0e1461033957806336568abe1461034c57806344b22fdd1461035f5761023c565b80630e89341c116102105780630e89341c146102b25780631ef68ef7146102d2578063248a9ca3146102da5780632b04e840146102ed5780632eb2c2d6146103005761023c565b8062fdd58e1461024157806301ffc9a71461026a578063020c4f971461028a578063095bcdb61461029f575b600080fd5b61025461024f3660046129c7565b61055c565b6040516102619190612f11565b60405180910390f35b61027d610278366004612c62565b6105b8565b6040516102619190612edd565b61029d6102983660046129f1565b6105db565b005b61029d6102ad3660046129f1565b610735565b6102c56102c0366004612c05565b610881565b6040516102619190612f1a565b610254610919565b6102546102e8366004612c05565b610930565b6102546102fb3660046129c7565b610945565b61029d61030e36600461287d565b610958565b61029d610321366004612c1d565b610b6a565b61029d610334366004612a24565b610bb2565b61027d61034736600461282e565b610ca5565b61029d61035a366004612c1d565b610cc4565b61029d61036d36600461282e565b610d06565b610385610380366004612b43565b610dc3565b6040516102619190612e9c565b61029d6103a036600461282e565b610eec565b6102546103b3366004612c9a565b610fa9565b61025461100f565b61027d6103ce36600461282e565b611016565b6103e66103e1366004612c9a565b6110a7565b60405161026192919061387a565b6102c5610402366004612c05565b61111b565b610254611209565b610254611215565b61042a610425366004612c41565b611221565b6040516102619190612de6565b61027d610445366004612c1d565b61123f565b610254610458366004612c05565b61125d565b61025461129a565b61029d61047336600461298c565b61129f565b61029d610486366004612a4f565b61136d565b61049e610499366004612c05565b61164d565b604051610261919061375d565b6102546104b9366004612c05565b61196e565b6104d16104cc36600461282e565b611985565b604051610261959493929190612ee8565b61027d6104f0366004612c05565b611a2d565b610254610503366004612c9a565b611a6d565b61029d610516366004612c1d565b611ad3565b61029d610529366004612a24565b611b0d565b61027d61053c366004612849565b611bf5565b61029d61054f366004612927565b611c23565b610254611dbd565b60006001600160a01b03831661058d5760405162461bcd60e51b8152600401610584906130d6565b60405180910390fd5b5060008181526001602090815260408083206001600160a01b03861684529091529020545b92915050565b6001600160e01b0319811660009081526020819052604090205460ff165b919050565b60006105fa6040516105ec90612d54565b60405180910390203361123f565b9050600061060d6040516105ec90612dbd565b905060006106206040516105ec90612d94565b9050828061062b5750815b806106335750805b61064f5760405162461bcd60e51b8152600401610584906130a7565b61065885611dc9565b6106745760405162461bcd60e51b8152600401610584906131f3565b6000858152600560205260409020600b015460ff16156106a65760405162461bcd60e51b8152600401610584906133ea565b6000858152600560205260409020600b8101805460ff19166001908117909155600c82018054870190559081015460ff1614156106f357600c805485019055600880548590039055610722565b60008581526005602052604090206001015460ff166002141561072257600c8054850190556009805485900390555b61072d868686611de4565b505050505050565b60006107466040516105ec90612d75565b905060006107596040516105ec90612d54565b9050600061076c6040516105ec90612dbd565b9050600061077f6040516105ec90612d94565b9050838061078a5750825b806107925750815b8061079a5750805b6107b65760405162461bcd60e51b815260040161058490613172565b6107bf86611dc9565b6107db5760405162461bcd60e51b8152600401610584906131f3565b6107e486611a2d565b156108015760405162461bcd60e51b815260040161058490613532565b61080a87611f00565b6108265760405162461bcd60e51b8152600401610584906132be565b336001600160a01b038816141561084f5760405162461bcd60e51b81526004016105849061363f565b61087833888888604051806040016040528060048152602001630307830360e41b815250611c23565b50505050505050565b60038054604080516020601f600260001961010060018816150201909516949094049384018190048102820181019092528281526060939092909183018282801561090d5780601f106108e25761010080835404028352916020019161090d565b820191906000526020600020905b8154815290600101906020018083116108f057829003601f168201915b50505050509050919050565b60405161092590612dbd565b604051809103902081565b60009081526004602052604090206002015490565b6000610951838361055c565b9392505050565b81518351146109795760405162461bcd60e51b815260040161058490613685565b6001600160a01b03841661099f5760405162461bcd60e51b815260040161058490613353565b6109a7611f1a565b6001600160a01b0316856001600160a01b031614806109cd57506109cd8561053c611f1a565b6109e95760405162461bcd60e51b815260040161058490613398565b60006109f3611f1a565b9050610a0381878787878761072d565b60005b8451811015610b04576000858281518110610a1d57fe5b602002602001015190506000858381518110610a3557fe5b60200260200101519050610aa2816040518060600160405280602a8152602001613922602a91396001600086815260200190815260200160002060008d6001600160a01b03166001600160a01b0316815260200190815260200160002054611f1e9092919063ffffffff16565b60008381526001602090815260408083206001600160a01b038e811685529252808320939093558a1681522054610ad99082611f4a565b60009283526001602081815260408086206001600160a01b038d168752909152909320555001610a06565b50846001600160a01b0316866001600160a01b0316826001600160a01b03167f4a39dc06d4c0dbc64b70af90fd698a233a518aa5d07e595d983b8c0526c8f7fb8787604051610b54929190612eaf565b60405180910390a461072d818787878787611f6f565b600082815260046020526040902060020154610b8890610445611f1a565b610ba45760405162461bcd60e51b815260040161058490613058565b610bae828261212a565b5050565b610bbd60003361123f565b610bd95760405162461bcd60e51b81526004016105849061357d565b610be281612199565b610bfe5760405162461bcd60e51b8152600401610584906134fb565b8060ff1660011415610c2c57610c27604051610c1990612d54565b604051809103902083610b6a565b610c62565b8060ff1660021415610c4757610c27604051610c1990612dbd565b8060ff1660031415610c6257610c62604051610c1990612d94565b610c6d600083610b6a565b6040516001600160a01b038316907fa8377deee15954185683d55effd369508b4935978c8cb2bab790bf04c570181490600090a25050565b60006105b2604051610cb690612d75565b60405180910390208361123f565b610ccc611f1a565b6001600160a01b0316816001600160a01b031614610cfc5760405162461bcd60e51b81526004016105849061370e565b610bae82826121bf565b6000610d176040516105ec90612d54565b90506000610d2a6040516105ec90612dbd565b90506000610d3d6040516105ec90612d94565b90508280610d485750815b80610d505750805b610d6c5760405162461bcd60e51b8152600401610584906130a7565b610d89604051610d7b90612d75565b604051809103902085610b6a565b6040516001600160a01b038516907fa8377deee15954185683d55effd369508b4935978c8cb2bab790bf04c570181490600090a250505050565b60608151835114610de65760405162461bcd60e51b8152600401610584906135f6565b60608351604051908082528060200260200182016040528015610e13578160200160208202803883390190505b50905060005b8451811015610ee45760006001600160a01b0316858281518110610e3957fe5b60200260200101516001600160a01b03161415610e685760405162461bcd60e51b815260040161058490613121565b60016000858381518110610e7857fe5b602002602001015181526020019081526020016000206000868381518110610e9c57fe5b60200260200101516001600160a01b03166001600160a01b0316815260200190815260200160002054828281518110610ed157fe5b6020908102919091010152600101610e19565b509392505050565b6000610efd6040516105ec90612d54565b90506000610f106040516105ec90612dbd565b90506000610f236040516105ec90612d94565b90508280610f2e5750815b80610f365750805b610f525760405162461bcd60e51b8152600401610584906130a7565b610f6f604051610f6190612d75565b604051809103902085611ad3565b6040516001600160a01b038516907f98552ded770f1d05a505572f3387c108dbc6b566ea3d49f83cff3d1f1c72a04290600090a250505050565b6000610fb482612199565b610fd05760405162461bcd60e51b8152600401610584906134fb565b8160ff1660011415610fe557506008546105d6565b8160ff1660021415610ffa57506009546105d6565b8160ff16600314156105d65750600a546105d6565b6006545b90565b60008061103660405161102890612d54565b60405180910390208461123f565b9050600061105760405161104990612dbd565b60405180910390208561123f565b9050600061107860405161106a90612d94565b60405180910390208661123f565b905082806110835750815b8061108b5750805b1561109c57600193505050506105d6565b506000949350505050565b6000806110b383612199565b6110cf5760405162461bcd60e51b8152600401610584906134fb565b8260ff16600114156110e8575050600854600c54611116565b8260ff1660021415611101575050600954600c54611116565b8260ff1660031415611116575050600a54600d545b915091565b606061112682611dc9565b6111425760405162461bcd60e51b8152600401610584906131f3565b6000828152600560205260409020600101546007805460609260001960ff918216011690811061116e57fe5b600091825260209182902001805460408051601f60026000196101006001871615020190941693909304928301859004850281018501909152818152928301828280156111fc5780601f106111d1576101008083540402835291602001916111fc565b820191906000526020600020905b8154815290600101906020018083116111df57829003601f168201915b5093979650505050505050565b60405161092590612d94565b60405161092590612d75565b6000828152600460205260408120610951908363ffffffff61222e16565b6000828152600460205260408120610951908363ffffffff61223a16565b600061126882611dc9565b6112845760405162461bcd60e51b8152600401610584906131f3565b506000908152600560205260409020600c015490565b600081565b816001600160a01b03166112b1611f1a565b6001600160a01b031614156112d85760405162461bcd60e51b8152600401610584906135ad565b80600260006112e5611f1a565b6001600160a01b03908116825260208083019390935260409182016000908120918716808252919093529120805460ff191692151592909217909155611329611f1a565b6001600160a01b03167f17307eab39ab6107e8899845ad3d59bd9653f200f220920489ca2b5937696c31836040516113619190612edd565b60405180910390a35050565b600061137e6040516105ec90612d54565b905060006113916040516105ec90612dbd565b905060006113a46040516105ec90612d94565b905082806113af5750815b806113b75750805b6113d35760405162461bcd60e51b8152600401610584906130a7565b600680546001019081905560009081526005602052604090206113f58d612199565b6114115760405162461bcd60e51b8152600401610584906134b3565b8c60ff16600114156114615761142c6040516105ec90612d54565b6114485760405162461bcd60e51b81526004016105849061326c565b600b8101805460ff19169055600880548d019055611503565b8c60ff16600214156114b15761147c6040516105ec90612dbd565b6114985760405162461bcd60e51b815260040161058490612fc3565b600b8101805460ff19169055600980548d019055611503565b6114c06040516105ec90612d94565b6114dc5760405162461bcd60e51b815260040161058490613464565b600b8101805460ff19166001179055600c810180548d019055600d8054909c01909b5560009a5b606060065482600001819055508d8260010160006101000a81548160ff021916908360ff160217905550338260010160016101000a8154816001600160a01b0302191690836001600160a01b031602179055508e8260020160006101000a8154816001600160a01b0302191690836001600160a01b031602179055508b826003019080519060200190611597929190612611565b50600482018b9055600582018a905587516115bb90600884019060208b0190612611565b5086516115d190600984019060208a0190612611565b504260068301556007820189905585516115f490600a8401906020890190612611565b506116038f6006548f8461224f565b7f5871761b381266e7e47309f0821d5b396364ebb6371d878871cac5393cb93ea86006546040516116349190612f11565b60405180910390a1505050505050505050505050505050565b61165561268f565b61165e82611dc9565b61167a5760405162461bcd60e51b8152600401610584906131f3565b60008281526005602090815260409182902082516101c0810184528154815260018083015460ff811683860152610100908190046001600160a01b039081168488015260028086015490911660608501526003850180548851948116159093026000190190921604601f8101869004860283018601909652858252919492936080860193919291908301828280156117535780601f1061172857610100808354040283529160200191611753565b820191906000526020600020905b81548152906001019060200180831161173657829003601f168201915b5050505050815260200160048201548152602001600582015481526020016006820154815260200160078201548152602001600882018054600181600116156101000203166002900480601f01602080910402602001604051908101604052809291908181526020018280546001816001161561010002031660029004801561181d5780601f106117f25761010080835404028352916020019161181d565b820191906000526020600020905b81548152906001019060200180831161180057829003601f168201915b505050918352505060098201805460408051602060026001851615610100026000190190941693909304601f81018490048402820184019092528181529382019392918301828280156118b15780601f10611886576101008083540402835291602001916118b1565b820191906000526020600020905b81548152906001019060200180831161189457829003601f168201915b5050509183525050600a8201805460408051602060026001851615610100026000190190941693909304601f81018490048402820184019092528181529382019392918301828280156119455780601f1061191a57610100808354040283529160200191611945565b820191906000526020600020905b81548152906001019060200180831161192857829003601f168201915b5050509183525050600b82015460ff1615156020820152600c9091015460409091015292915050565b60008181526004602052604081206105b290612340565b60008080808080611996818861123f565b905060006119b76040516119a990612d54565b60405180910390208961123f565b905060006119d86040516119ca90612dbd565b60405180910390208a61123f565b905060006119f96040516119eb90612d94565b60405180910390208b61123f565b90506000611a1a604051611a0c90612d75565b60405180910390208c61123f565b949b939a50919850965091945092505050565b6000611a3882611dc9565b611a545760405162461bcd60e51b8152600401610584906131f3565b506000908152600560205260409020600b015460ff1690565b6000611a7882612199565b611a945760405162461bcd60e51b8152600401610584906134fb565b8160ff1660011415611aa95750600c546105d6565b8160ff1660021415611abe5750600c546105d6565b8160ff16600314156105d65750600d546105d6565b600082815260046020526040902060020154611af190610445611f1a565b610cfc5760405162461bcd60e51b815260040161058490613303565b611b1860003361123f565b611b345760405162461bcd60e51b81526004016105849061357d565b611b3d81612199565b611b595760405162461bcd60e51b8152600401610584906134fb565b8060ff1660011415611b8757611b82604051611b7490612d54565b604051809103902083611ad3565b611bbd565b8060ff1660021415611ba257611b82604051611b7490612dbd565b8060ff1660031415611bbd57611bbd604051611b7490612d94565b6040516001600160a01b038316907f98552ded770f1d05a505572f3387c108dbc6b566ea3d49f83cff3d1f1c72a04290600090a25050565b6001600160a01b03918216600090815260026020908152604080832093909416825291909152205460ff1690565b6001600160a01b038416611c495760405162461bcd60e51b815260040161058490613353565b611c51611f1a565b6001600160a01b0316856001600160a01b03161480611c775750611c778561053c611f1a565b611c935760405162461bcd60e51b815260040161058490613223565b6000611c9d611f1a565b9050611cbd818787611cae8861234b565b611cb78861234b565b8761072d565b611d0a836040518060600160405280602a8152602001613922602a913960008781526001602090815260408083206001600160a01b038d168452909152902054919063ffffffff611f1e16565b60008581526001602090815260408083206001600160a01b038b81168552925280832093909355871681522054611d419084611f4a565b60008581526001602090815260408083206001600160a01b03808b168086529190935292819020939093559151909188811691908416907fc3d58168c5ae7397731d063d5bbf3d657854427343f4c083240f7aacaa2d0f6290611da7908990899061387a565b60405180910390a461072d81878787878761238f565b60405161092590612d54565b60008160065410611ddc575060016105d6565b506000919050565b6001600160a01b038316611e0a5760405162461bcd60e51b815260040161058490613421565b6000611e14611f1a565b9050611e4481856000611e268761234b565b611e2f8761234b565b6040518060200160405280600081525061072d565b611e91826040518060600160405280602481526020016138fe6024913960008681526001602090815260408083206001600160a01b038b168452909152902054919063ffffffff611f1e16565b60008481526001602090815260408083206001600160a01b03808a16808652919093528184209490945551919291908416907fc3d58168c5ae7397731d063d5bbf3d657854427343f4c083240f7aacaa2d0f6290611ef2908890889061387a565b60405180910390a450505050565b6000611f0b82611016565b806105b257506105b282610ca5565b3390565b60008184841115611f425760405162461bcd60e51b81526004016105849190612f1a565b505050900390565b6000828201838110156109515760405162461bcd60e51b8152600401610584906131bc565b611f81846001600160a01b0316612470565b1561072d5760405163bc197c8160e01b81526001600160a01b0385169063bc197c8190611fba9089908990889088908890600401612dfa565b602060405180830381600087803b158015611fd457600080fd5b505af1925050508015612004575060408051601f3d908101601f1916820190925261200191810190612c7e565b60015b6120fa576040516000815260443d1015612020575060006120bd565b60046000803e60005160e01c6308c379a081146120415760009150506120bd565b60043d036004833e81513d602482011167ffffffffffffffff8211171561206d576000925050506120bd565b808301805167ffffffffffffffff81111561208f5760009450505050506120bd565b8060208301013d86018111156120ad576000955050505050506120bd565b601f01601f191660405250925050505b806120c857506120e2565b8060405162461bcd60e51b81526004016105849190612f1a565b60405162461bcd60e51b815260040161058490612f2d565b6001600160e01b0319811663bc197c8160e01b146108785760405162461bcd60e51b815260040161058490613010565b6000828152600460205260409020612148908263ffffffff61247616565b15610bae57612155611f1a565b6001600160a01b0316816001600160a01b0316837f2f8788117e7eff1d82e926ec794901d17c78024a50270940304540a733656f0d60405160405180910390a45050565b6000808260ff161180156121b2575060075460ff831611155b15611ddc575060016105d6565b60008281526004602052604090206121dd908263ffffffff61248b16565b15610bae576121ea611f1a565b6001600160a01b0316816001600160a01b0316837ff6391f5c32d9c69d2a47ea670b442974b53935d1edc7fd64eb21e047a839171b60405160405180910390a45050565b600061095183836124a0565b6000610951836001600160a01b0384166124e5565b6001600160a01b0384166122755760405162461bcd60e51b8152600401610584906136cd565b600061227f611f1a565b905061229181600087611cae8861234b565b60008481526001602090815260408083206001600160a01b03891684529091529020546122c4908463ffffffff611f4a16565b60008581526001602090815260408083206001600160a01b03808b16808652919093528184209490945551908416907fc3d58168c5ae7397731d063d5bbf3d657854427343f4c083240f7aacaa2d0f6290612322908990899061387a565b60405180910390a46123398160008787878761238f565b5050505050565b60006105b2826124fd565b60408051600180825281830190925260609182919060208083019080388339019050509050828160008151811061237e57fe5b602090810291909101015292915050565b6123a1846001600160a01b0316612470565b1561072d5760405163f23a6e6160e01b81526001600160a01b0385169063f23a6e61906123da9089908990889088908890600401612e57565b602060405180830381600087803b1580156123f457600080fd5b505af1925050508015612424575060408051601f3d908101601f1916820190925261242191810190612c7e565b60015b612440576040516000815260443d1015612020575060006120bd565b6001600160e01b0319811663f23a6e6160e01b146108785760405162461bcd60e51b815260040161058490613010565b3b151590565b6000610951836001600160a01b038416612501565b6000610951836001600160a01b03841661254b565b815460009082106124c35760405162461bcd60e51b815260040161058490612f81565b8260000182815481106124d257fe5b9060005260206000200154905092915050565b60009081526001919091016020526040902054151590565b5490565b600061250d83836124e5565b612543575081546001818101845560008481526020808220909301849055845484825282860190935260409020919091556105b2565b5060006105b2565b60008181526001830160205260408120548015612607578354600019808301919081019060009087908390811061257e57fe5b906000526020600020015490508087600001848154811061259b57fe5b6000918252602080832090910192909255828152600189810190925260409020908401905586548790806125cb57fe5b600190038181906000526020600020016000905590558660010160008781526020019081526020016000206000905560019450505050506105b2565b60009150506105b2565b828054600181600116156101000203166002900490600052602060002090601f016020900481019282601f1061265257805160ff191683800117855561267f565b8280016001018555821561267f579182015b8281111561267f578251825591602001919060010190612664565b5061268b929150612715565b5090565b604051806101c0016040528060008152602001600060ff16815260200160006001600160a01b0316815260200160006001600160a01b031681526020016060815260200160008152602001600081526020016000815260200160008152602001606081526020016060815260200160608152602001600015158152602001600081525090565b61101391905b8082111561268b576000815560010161271b565b80356001600160a01b03811681146105b257600080fd5b600082601f830112612756578081fd5b8135612769612764826138af565b613888565b81815291506020808301908481018184028601820187101561278a57600080fd5b60005b848110156127a95781358452928201929082019060010161278d565b505050505092915050565b600082601f8301126127c4578081fd5b813567ffffffffffffffff8111156127da578182fd5b6127ed601f8201601f1916602001613888565b915080825283602082850101111561280457600080fd5b8060208401602084013760009082016020015292915050565b803560ff811681146105b257600080fd5b60006020828403121561283f578081fd5b610951838361272f565b6000806040838503121561285b578081fd5b612865848461272f565b9150612874846020850161272f565b90509250929050565b600080600080600060a08688031215612894578081fd5b853561289f816138cf565b945060208601356128af816138cf565b9350604086013567ffffffffffffffff808211156128cb578283fd5b6128d789838a01612746565b945060608801359150808211156128ec578283fd5b6128f889838a01612746565b9350608088013591508082111561290d578283fd5b5061291a888289016127b4565b9150509295509295909350565b600080600080600060a0868803121561293e578081fd5b612948878761272f565b9450612957876020880161272f565b93506040860135925060608601359150608086013567ffffffffffffffff811115612980578182fd5b61291a888289016127b4565b6000806040838503121561299e578182fd5b6129a8848461272f565b9150602083013580151581146129bc578182fd5b809150509250929050565b600080604083850312156129d9578182fd5b6129e3848461272f565b946020939093013593505050565b600080600060608486031215612a05578283fd5b612a0f858561272f565b95602085013595506040909401359392505050565b60008060408385031215612a36578182fd5b612a40848461272f565b9150612874846020850161281d565b6000806000806000806000806000806101408b8d031215612a6e578485fd5b612a788c8c61272f565b9950612a878c60208d0161281d565b985060408b0135975060608b013567ffffffffffffffff80821115612aaa578687fd5b612ab68e838f016127b4565b985060808d0135975060a08d0135965060c08d0135955060e08d0135915080821115612ae0578485fd5b612aec8e838f016127b4565b94506101008d0135915080821115612b02578384fd5b612b0e8e838f016127b4565b93506101208d0135915080821115612b24578283fd5b50612b318d828e016127b4565b9150509295989b9194979a5092959850565b60008060408385031215612b55578182fd5b823567ffffffffffffffff80821115612b6c578384fd5b81850186601f820112612b7d578485fd5b80359250612b8d612764846138af565b80848252602080830192508084018a828389028701011115612bad578889fd5b8894505b86851015612bd757612bc38b8261272f565b845260019490940193928101928101612bb1565b509096508701359350505080821115612bee578283fd5b50612bfb85828601612746565b9150509250929050565b600060208284031215612c16578081fd5b5035919050565b60008060408385031215612c2f578182fd5b8235915060208301356129bc816138cf565b60008060408385031215612c53578182fd5b50508035926020909101359150565b600060208284031215612c73578081fd5b8135610951816138e7565b600060208284031215612c8f578081fd5b8151610951816138e7565b600060208284031215612cab578081fd5b610951838361281d565b6001600160a01b03169052565b6000815180845260208085019450808401835b83811015612cf157815187529582019590820190600101612cd5565b509495945050505050565b15159052565b60008151808452815b81811015612d2757602081850181015186830182015201612d0b565b81811115612d385782602083870101525b50601f01601f19169290920160200192915050565b60ff169052565b742922a3a4a9aa22a922a22fa922a1afa222a0a622a960591b815260150190565b722922a3a4a9aa22a922a22fa1a7a729aaa6a2a960691b815260130190565b7f524547495354455245445f454d495353494f4e535f41554449544f52000000008152601c0190565b7f524547495354455245445f4f46465345545f4445414c45520000000000000000815260180190565b6001600160a01b0391909116815260200190565b6001600160a01b0386811682528516602082015260a060408201819052600090612e2690830186612cc2565b8281036060840152612e388186612cc2565b8381036080850152612e4a8186612d02565b9998505050505050505050565b6001600160a01b03868116825285166020820152604081018490526060810183905260a060808201819052600090612e9190830184612d02565b979650505050505050565b6000602082526109516020830184612cc2565b600060408252612ec26040830185612cc2565b8281036020840152612ed48185612cc2565b95945050505050565b901515815260200190565b941515855292151560208501529015156040840152151560608301521515608082015260a00190565b90815260200190565b6000602082526109516020830184612d02565b60208082526034908201527f455243313135353a207472616e7366657220746f206e6f6e20455243313135356040820152732932b1b2b4bb32b91034b6b83632b6b2b73a32b960611b606082015260800190565b60208082526022908201527f456e756d657261626c655365743a20696e646578206f7574206f6620626f756e604082015261647360f01b606082015260800190565b6020808252602d908201527f596f7520617265206e6f74206120436172626f6e20456d697373696f6e73204f60408201526c333339b2ba103232b0b632b91760991b606082015260800190565b60208082526028908201527f455243313135353a204552433131353552656365697665722072656a656374656040820152676420746f6b656e7360c01b606082015260800190565b6020808252602f908201527f416363657373436f6e74726f6c3a2073656e646572206d75737420626520616e60408201526e0818591b5a5b881d1bc819dc985b9d608a1b606082015260800190565b6020808252601590820152742cb7ba9030b932903737ba1030903232b0b632b91760591b604082015260600190565b6020808252602b908201527f455243313135353a2062616c616e636520717565727920666f7220746865207a60408201526a65726f206164647265737360a81b606082015260800190565b60208082526031908201527f455243313135353a2062617463682062616c616e636520717565727920666f7260408201527020746865207a65726f206164647265737360781b606082015260800190565b6020808252602a908201527f596f75206d75737420626520656974686572206120636f6e73756d6572206f726040820152691030903232b0b632b91760b11b606082015260800190565b6020808252601b908201527f536166654d6174683a206164646974696f6e206f766572666c6f770000000000604082015260600190565b6020808252601690820152751d1bdad95b925908191bd95cc81b9bdd08195e1a5cdd60521b604082015260600190565b60208082526029908201527f455243313135353a2063616c6c6572206973206e6f74206f776e6572206e6f7260408201526808185c1c1c9bdd995960ba1b606082015260800190565b60208082526032908201527f596f7520617265206e6f7420612052656e657761626c6520456e65726779204360408201527132b93a34b334b1b0ba32903232b0b632b91760711b606082015260800190565b60208082526025908201527f526563697069656e74206d75737420626520636f6e73756d6572206f7220646560408201526430b632b91760d91b606082015260800190565b60208082526030908201527f416363657373436f6e74726f6c3a2073656e646572206d75737420626520616e60408201526f2061646d696e20746f207265766f6b6560801b606082015260800190565b60208082526025908201527f455243313135353a207472616e7366657220746f20746865207a65726f206164604082015264647265737360d81b606082015260800190565b60208082526032908201527f455243313135353a207472616e736665722063616c6c6572206973206e6f74206040820152711bdddb995c881b9bdc88185c1c1c9bdd995960721b606082015260800190565b60208082526018908201527f746f6b656e20697320616c726561647920726574697265640000000000000000604082015260600190565b60208082526023908201527f455243313135353a206275726e2066726f6d20746865207a65726f206164647260408201526265737360e81b606082015260800190565b6020808252602f908201527f596f7520617265206e6f7420616e204175646974656420456d697373696f6e7360408201526e1020b6b7bab73a103232b0b632b91760891b606082015260800190565b60208082526028908201527f4661696c656420746f2069737375653a20746f6b656e5479706549642069732060408201526734b73b30b634b21760c11b606082015260800190565b60208082526019908201527f546f6b656e207479706520646f6573206e6f7420657869737400000000000000604082015260600190565b6020808252602b908201527f546f6b656e20697320726574697265642e205472616e73666572206973206e6f60408201526a1d081c195c9b5a5d1d195960aa1b606082015260800190565b6020808252601690820152752cb7ba9030b932903737ba103a34329037bbb732b91760511b604082015260600190565b60208082526029908201527f455243313135353a2073657474696e6720617070726f76616c20737461747573604082015268103337b91039b2b63360b91b606082015260800190565b60208082526029908201527f455243313135353a206163636f756e747320616e6420696473206c656e677468604082015268040dad2e6dac2e8c6d60bb1b606082015260800190565b60208082526026908201527f53656e64657220616e642072656365697665722063616e6e6f74206265207468604082015265652073616d6560d01b606082015260800190565b60208082526028908201527f455243313135353a2069647320616e6420616d6f756e7473206c656e677468206040820152670dad2e6dac2e8c6d60c31b606082015260800190565b60208082526021908201527f455243313135353a206d696e7420746f20746865207a65726f206164647265736040820152607360f81b606082015260800190565b6020808252602f908201527f416363657373436f6e74726f6c3a2063616e206f6e6c792072656e6f756e636560408201526e103937b632b9903337b91039b2b63360891b606082015260800190565b60006020825282516020830152602083015161377c6040840182612d4d565b50604083015161378f6060840182612cb5565b5060608301516137a26080840182612cb5565b5060808301516101c08060a08501526137bf6101e0850183612d02565b60a086015160c086015260c086015160e086015260e08601519250610100838187015280870151935050610120838187015280870151935050601f196101408187840301818801526138118386612d02565b818901519550610160935082888203018489015261382f8187612d02565b91505082880151945061018092508187820301838801526138508186612d02565b9150508187015193506101a0915061386a82870185612cfc565b9501519301929092525090919050565b918252602082015260400190565b60405181810167ffffffffffffffff811182821017156138a757600080fd5b604052919050565b600067ffffffffffffffff8211156138c5578081fd5b5060209081020190565b6001600160a01b03811681146138e457600080fd5b50565b6001600160e01b0319811681146138e457600080fdfe455243313135353a206275726e20616d6f756e7420657863656564732062616c616e6365455243313135353a20696e73756666696369656e742062616c616e636520666f72207472616e73666572a264697066735822122036fd88ef33290de02a5c91d7df5a7384fbffc94d77c0a813c2c0410e178a4a7464736f6c63430006020033",
  "linkReferences": {},
  "deployedLinkReferences": {}
}