{
  "_format": "hh-sol-artifact-1",
  "contractName": "NetEmissionsTokenNetwork",
  "sourceName": "contracts/NetEmissionsTokenNetwork.sol",
  "abi": [
    {
      "inputs": [],
      "stateMutability": "nonpayable",
      "type": "constructor"
    },
    {
      "anonymous": false,
      "inputs": [
        {
          "indexed": true,
          "internalType": "address",
          "name": "account",
          "type": "address"
        },
        {
          "indexed": true,
          "internalType": "address",
          "name": "operator",
          "type": "address"
        },
        {
          "indexed": false,
          "internalType": "bool",
          "name": "approved",
          "type": "bool"
        }
      ],
      "name": "ApprovalForAll",
      "type": "event"
    },
    {
      "anonymous": false,
      "inputs": [
        {
          "indexed": true,
          "internalType": "address",
          "name": "account",
          "type": "address"
        }
      ],
      "name": "RegisteredDealer",
      "type": "event"
    },
    {
      "anonymous": false,
      "inputs": [
        {
          "indexed": true,
          "internalType": "bytes32",
          "name": "role",
          "type": "bytes32"
        },
        {
          "indexed": true,
          "internalType": "bytes32",
          "name": "previousAdminRole",
          "type": "bytes32"
        },
        {
          "indexed": true,
          "internalType": "bytes32",
          "name": "newAdminRole",
          "type": "bytes32"
        }
      ],
      "name": "RoleAdminChanged",
      "type": "event"
    },
    {
      "anonymous": false,
      "inputs": [
        {
          "indexed": true,
          "internalType": "bytes32",
          "name": "role",
          "type": "bytes32"
        },
        {
          "indexed": true,
          "internalType": "address",
          "name": "account",
          "type": "address"
        },
        {
          "indexed": true,
          "internalType": "address",
          "name": "sender",
          "type": "address"
        }
      ],
      "name": "RoleGranted",
      "type": "event"
    },
    {
      "anonymous": false,
      "inputs": [
        {
          "indexed": true,
          "internalType": "bytes32",
          "name": "role",
          "type": "bytes32"
        },
        {
          "indexed": true,
          "internalType": "address",
          "name": "account",
          "type": "address"
        },
        {
          "indexed": true,
          "internalType": "address",
          "name": "sender",
          "type": "address"
        }
      ],
      "name": "RoleRevoked",
      "type": "event"
    },
    {
      "anonymous": false,
      "inputs": [
        {
          "indexed": false,
          "internalType": "uint256",
          "name": "",
          "type": "uint256"
        }
      ],
      "name": "TokenCreated",
      "type": "event"
    },
    {
      "anonymous": false,
      "inputs": [
        {
          "indexed": true,
          "internalType": "address",
          "name": "operator",
          "type": "address"
        },
        {
          "indexed": true,
          "internalType": "address",
          "name": "from",
          "type": "address"
        },
        {
          "indexed": true,
          "internalType": "address",
          "name": "to",
          "type": "address"
        },
        {
          "indexed": false,
          "internalType": "uint256[]",
          "name": "ids",
          "type": "uint256[]"
        },
        {
          "indexed": false,
          "internalType": "uint256[]",
          "name": "values",
          "type": "uint256[]"
        }
      ],
      "name": "TransferBatch",
      "type": "event"
    },
    {
      "anonymous": false,
      "inputs": [
        {
          "indexed": true,
          "internalType": "address",
          "name": "operator",
          "type": "address"
        },
        {
          "indexed": true,
          "internalType": "address",
          "name": "from",
          "type": "address"
        },
        {
          "indexed": true,
          "internalType": "address",
          "name": "to",
          "type": "address"
        },
        {
          "indexed": false,
          "internalType": "uint256",
          "name": "id",
          "type": "uint256"
        },
        {
          "indexed": false,
          "internalType": "uint256",
          "name": "value",
          "type": "uint256"
        }
      ],
      "name": "TransferSingle",
      "type": "event"
    },
    {
      "anonymous": false,
      "inputs": [
        {
          "indexed": false,
          "internalType": "string",
          "name": "value",
          "type": "string"
        },
        {
          "indexed": true,
          "internalType": "uint256",
          "name": "id",
          "type": "uint256"
        }
      ],
      "name": "URI",
      "type": "event"
    },
    {
      "anonymous": false,
      "inputs": [
        {
          "indexed": true,
          "internalType": "address",
          "name": "account",
          "type": "address"
        }
      ],
      "name": "UnregisteredDealer",
      "type": "event"
    },
    {
      "inputs": [],
      "name": "DEFAULT_ADMIN_ROLE",
      "outputs": [
        {
          "internalType": "bytes32",
          "name": "",
          "type": "bytes32"
        }
      ],
      "stateMutability": "view",
      "type": "function"
    },
    {
      "inputs": [],
      "name": "REGISTERED_AE_DEALER",
      "outputs": [
        {
          "internalType": "bytes32",
          "name": "",
          "type": "bytes32"
        }
      ],
      "stateMutability": "view",
      "type": "function"
    },
    {
      "inputs": [],
      "name": "REGISTERED_CEO_DEALER",
      "outputs": [
        {
          "internalType": "bytes32",
          "name": "",
          "type": "bytes32"
        }
      ],
      "stateMutability": "view",
      "type": "function"
    },
    {
      "inputs": [],
      "name": "REGISTERED_CONSUMER",
      "outputs": [
        {
          "internalType": "bytes32",
          "name": "",
          "type": "bytes32"
        }
      ],
      "stateMutability": "view",
      "type": "function"
    },
    {
      "inputs": [],
      "name": "REGISTERED_REC_DEALER",
      "outputs": [
        {
          "internalType": "bytes32",
          "name": "",
          "type": "bytes32"
        }
      ],
      "stateMutability": "view",
      "type": "function"
    },
    {
      "inputs": [
        {
          "internalType": "address",
          "name": "account",
          "type": "address"
        },
        {
          "internalType": "uint256",
          "name": "id",
          "type": "uint256"
        }
      ],
      "name": "balanceOf",
      "outputs": [
        {
          "internalType": "uint256",
          "name": "",
          "type": "uint256"
        }
      ],
      "stateMutability": "view",
      "type": "function"
    },
    {
      "inputs": [
        {
          "internalType": "address[]",
          "name": "accounts",
          "type": "address[]"
        },
        {
          "internalType": "uint256[]",
          "name": "ids",
          "type": "uint256[]"
        }
      ],
      "name": "balanceOfBatch",
      "outputs": [
        {
          "internalType": "uint256[]",
          "name": "",
          "type": "uint256[]"
        }
      ],
      "stateMutability": "view",
      "type": "function"
    },
    {
      "inputs": [
        {
          "internalType": "uint8",
          "name": "tokenTypeId",
          "type": "uint8"
        }
      ],
      "name": "getAvailableBalanceByTokenTypeId",
      "outputs": [
        {
          "internalType": "uint256",
          "name": "",
          "type": "uint256"
        }
      ],
      "stateMutability": "view",
      "type": "function"
    },
    {
      "inputs": [
        {
          "internalType": "address",
          "name": "account",
          "type": "address"
        },
        {
          "internalType": "uint256",
          "name": "tokenId",
          "type": "uint256"
        }
      ],
      "name": "getBalance",
      "outputs": [
        {
          "internalType": "uint256",
          "name": "",
          "type": "uint256"
        }
      ],
      "stateMutability": "view",
      "type": "function"
    },
    {
      "inputs": [
        {
          "internalType": "uint8",
          "name": "tokenTypeId",
          "type": "uint8"
        }
      ],
      "name": "getBothBalanceByTokenId",
      "outputs": [
        {
          "internalType": "uint256",
          "name": "",
          "type": "uint256"
        },
        {
          "internalType": "uint256",
          "name": "",
          "type": "uint256"
        }
      ],
      "stateMutability": "view",
      "type": "function"
    },
    {
      "inputs": [],
      "name": "getNumOfUniqueTokens",
      "outputs": [
        {
          "internalType": "uint256",
          "name": "",
          "type": "uint256"
        }
      ],
      "stateMutability": "view",
      "type": "function"
    },
    {
      "inputs": [
        {
          "internalType": "uint8",
          "name": "tokenTypeId",
          "type": "uint8"
        }
      ],
      "name": "getRetiredBalanceByTokenTypeId",
      "outputs": [
        {
          "internalType": "uint256",
          "name": "",
          "type": "uint256"
        }
      ],
      "stateMutability": "view",
      "type": "function"
    },
    {
      "inputs": [
        {
          "internalType": "bytes32",
          "name": "role",
          "type": "bytes32"
        }
      ],
      "name": "getRoleAdmin",
      "outputs": [
        {
          "internalType": "bytes32",
          "name": "",
          "type": "bytes32"
        }
      ],
      "stateMutability": "view",
      "type": "function"
    },
    {
      "inputs": [
        {
          "internalType": "bytes32",
          "name": "role",
          "type": "bytes32"
        },
        {
          "internalType": "uint256",
          "name": "index",
          "type": "uint256"
        }
      ],
      "name": "getRoleMember",
      "outputs": [
        {
          "internalType": "address",
          "name": "",
          "type": "address"
        }
      ],
      "stateMutability": "view",
      "type": "function"
    },
    {
      "inputs": [
        {
          "internalType": "bytes32",
          "name": "role",
          "type": "bytes32"
        }
      ],
      "name": "getRoleMemberCount",
      "outputs": [
        {
          "internalType": "uint256",
          "name": "",
          "type": "uint256"
        }
      ],
      "stateMutability": "view",
      "type": "function"
    },
    {
      "inputs": [
        {
          "internalType": "address",
          "name": "account",
          "type": "address"
        }
      ],
      "name": "getRoles",
      "outputs": [
        {
          "internalType": "bool",
          "name": "",
          "type": "bool"
        },
        {
          "internalType": "bool",
          "name": "",
          "type": "bool"
        },
        {
          "internalType": "bool",
          "name": "",
          "type": "bool"
        },
        {
          "internalType": "bool",
          "name": "",
          "type": "bool"
        },
        {
          "internalType": "bool",
          "name": "",
          "type": "bool"
        }
      ],
      "stateMutability": "view",
      "type": "function"
    },
    {
      "inputs": [
        {
          "internalType": "uint256",
          "name": "tokenId",
          "type": "uint256"
        }
      ],
      "name": "getTokenRetiredAmount",
      "outputs": [
        {
          "internalType": "uint256",
          "name": "",
          "type": "uint256"
        }
      ],
      "stateMutability": "view",
      "type": "function"
    },
    {
      "inputs": [
        {
          "internalType": "uint256",
          "name": "tokenId",
          "type": "uint256"
        }
      ],
      "name": "getTokenType",
      "outputs": [
        {
          "internalType": "string",
          "name": "",
          "type": "string"
        }
      ],
      "stateMutability": "view",
      "type": "function"
    },
    {
      "inputs": [
        {
          "internalType": "bytes32",
          "name": "role",
          "type": "bytes32"
        },
        {
          "internalType": "address",
          "name": "account",
          "type": "address"
        }
      ],
      "name": "grantRole",
      "outputs": [],
      "stateMutability": "nonpayable",
      "type": "function"
    },
    {
      "inputs": [
        {
          "internalType": "bytes32",
          "name": "role",
          "type": "bytes32"
        },
        {
          "internalType": "address",
          "name": "account",
          "type": "address"
        }
      ],
      "name": "hasRole",
      "outputs": [
        {
          "internalType": "bool",
          "name": "",
          "type": "bool"
        }
      ],
      "stateMutability": "view",
      "type": "function"
    },
    {
      "inputs": [
        {
          "internalType": "address",
          "name": "account",
          "type": "address"
        },
        {
          "internalType": "address",
          "name": "operator",
          "type": "address"
        }
      ],
      "name": "isApprovedForAll",
      "outputs": [
        {
          "internalType": "bool",
          "name": "",
          "type": "bool"
        }
      ],
      "stateMutability": "view",
      "type": "function"
    },
    {
      "inputs": [
        {
          "internalType": "address",
          "name": "account",
          "type": "address"
        }
      ],
      "name": "isConsumerRegistered",
      "outputs": [
        {
          "internalType": "bool",
          "name": "",
          "type": "bool"
        }
      ],
      "stateMutability": "view",
      "type": "function"
    },
    {
      "inputs": [
        {
          "internalType": "address",
          "name": "account",
          "type": "address"
        }
      ],
      "name": "isDealerRegistered",
      "outputs": [
        {
          "internalType": "bool",
          "name": "",
          "type": "bool"
        }
      ],
      "stateMutability": "view",
      "type": "function"
    },
    {
      "inputs": [
        {
          "internalType": "uint256",
          "name": "tokenId",
          "type": "uint256"
        }
      ],
      "name": "isRetired",
      "outputs": [
        {
          "internalType": "bool",
          "name": "",
          "type": "bool"
        }
      ],
      "stateMutability": "view",
      "type": "function"
    },
    {
      "inputs": [
        {
          "internalType": "address",
          "name": "account",
          "type": "address"
        },
        {
          "internalType": "uint8",
          "name": "tokenTypeId",
          "type": "uint8"
        },
        {
          "internalType": "uint256",
          "name": "quantity",
          "type": "uint256"
        },
        {
          "internalType": "string",
          "name": "uom",
          "type": "string"
        },
        {
          "internalType": "uint256",
          "name": "fromDate",
          "type": "uint256"
        },
        {
          "internalType": "uint256",
          "name": "thruDate",
          "type": "uint256"
        },
        {
          "internalType": "uint256",
          "name": "automaticRetireDate",
          "type": "uint256"
        },
        {
          "internalType": "string",
          "name": "metadata",
          "type": "string"
        },
        {
          "internalType": "string",
          "name": "manifest",
          "type": "string"
        },
        {
          "internalType": "string",
          "name": "description",
          "type": "string"
        }
      ],
      "name": "issue",
      "outputs": [],
      "stateMutability": "nonpayable",
      "type": "function"
    },
    {
      "inputs": [
        {
          "internalType": "address",
          "name": "account",
          "type": "address"
        }
      ],
      "name": "registerConsumer",
      "outputs": [],
      "stateMutability": "nonpayable",
      "type": "function"
    },
    {
      "inputs": [
        {
          "internalType": "address",
          "name": "account",
          "type": "address"
        },
        {
          "internalType": "uint8",
          "name": "tokenTypeId",
          "type": "uint8"
        }
      ],
      "name": "registerDealer",
      "outputs": [],
      "stateMutability": "nonpayable",
      "type": "function"
    },
    {
      "inputs": [
        {
          "internalType": "bytes32",
          "name": "role",
          "type": "bytes32"
        },
        {
          "internalType": "address",
          "name": "account",
          "type": "address"
        }
      ],
      "name": "renounceRole",
      "outputs": [],
      "stateMutability": "nonpayable",
      "type": "function"
    },
    {
      "inputs": [
        {
          "internalType": "address",
          "name": "account",
          "type": "address"
        },
        {
          "internalType": "uint256",
          "name": "tokenId",
          "type": "uint256"
        },
        {
          "internalType": "uint256",
          "name": "amount",
          "type": "uint256"
        }
      ],
      "name": "retire",
      "outputs": [],
      "stateMutability": "nonpayable",
      "type": "function"
    },
    {
      "inputs": [
        {
          "internalType": "bytes32",
          "name": "role",
          "type": "bytes32"
        },
        {
          "internalType": "address",
          "name": "account",
          "type": "address"
        }
      ],
      "name": "revokeRole",
      "outputs": [],
      "stateMutability": "nonpayable",
      "type": "function"
    },
    {
      "inputs": [
        {
          "internalType": "address",
          "name": "from",
          "type": "address"
        },
        {
          "internalType": "address",
          "name": "to",
          "type": "address"
        },
        {
          "internalType": "uint256[]",
          "name": "ids",
          "type": "uint256[]"
        },
        {
          "internalType": "uint256[]",
          "name": "amounts",
          "type": "uint256[]"
        },
        {
          "internalType": "bytes",
          "name": "data",
          "type": "bytes"
        }
      ],
      "name": "safeBatchTransferFrom",
      "outputs": [],
      "stateMutability": "nonpayable",
      "type": "function"
    },
    {
      "inputs": [
        {
          "internalType": "address",
          "name": "from",
          "type": "address"
        },
        {
          "internalType": "address",
          "name": "to",
          "type": "address"
        },
        {
          "internalType": "uint256",
          "name": "id",
          "type": "uint256"
        },
        {
          "internalType": "uint256",
          "name": "amount",
          "type": "uint256"
        },
        {
          "internalType": "bytes",
          "name": "data",
          "type": "bytes"
        }
      ],
      "name": "safeTransferFrom",
      "outputs": [],
      "stateMutability": "nonpayable",
      "type": "function"
    },
    {
      "inputs": [
        {
          "internalType": "address",
          "name": "operator",
          "type": "address"
        },
        {
          "internalType": "bool",
          "name": "approved",
          "type": "bool"
        }
      ],
      "name": "setApprovalForAll",
      "outputs": [],
      "stateMutability": "nonpayable",
      "type": "function"
    },
    {
      "inputs": [
        {
          "internalType": "bytes4",
          "name": "interfaceId",
          "type": "bytes4"
        }
      ],
      "name": "supportsInterface",
      "outputs": [
        {
          "internalType": "bool",
          "name": "",
          "type": "bool"
        }
      ],
      "stateMutability": "view",
      "type": "function"
    },
    {
      "inputs": [
        {
          "internalType": "address",
          "name": "to",
          "type": "address"
        },
        {
          "internalType": "uint256",
          "name": "tokenId",
          "type": "uint256"
        },
        {
          "internalType": "uint256",
          "name": "value",
          "type": "uint256"
        }
      ],
      "name": "transfer",
      "outputs": [],
      "stateMutability": "nonpayable",
      "type": "function"
    },
    {
      "inputs": [
        {
          "internalType": "address",
          "name": "account",
          "type": "address"
        }
      ],
      "name": "unregisterConsumer",
      "outputs": [],
      "stateMutability": "nonpayable",
      "type": "function"
    },
    {
      "inputs": [
        {
          "internalType": "address",
          "name": "account",
          "type": "address"
        },
        {
          "internalType": "uint8",
          "name": "tokenTypeId",
          "type": "uint8"
        }
      ],
      "name": "unregisterDealer",
      "outputs": [],
      "stateMutability": "nonpayable",
      "type": "function"
    },
    {
      "inputs": [
        {
          "internalType": "uint256",
          "name": "",
          "type": "uint256"
        }
      ],
      "name": "uri",
      "outputs": [
        {
          "internalType": "string",
          "name": "",
          "type": "string"
        }
      ],
      "stateMutability": "view",
      "type": "function"
    }
  ],
  "bytecode": "0x6000600655601c60e09081527f52656e657761626c6520456e657267792043657274696669636174650000000061010052608090815260176101209081527f436172626f6e20456d697373696f6e73204f66667365740000000000000000006101405260a0526101a06040526011610160908152704175646974656420456d697373696f6e7360781b6101805260c0526200009f90600790600362000418565b50600060085560006009556000600a556000600b556000600c556000600d55348015620000cb57600080fd5b506040805180820190915260098152681b1bd8d85b1a1bdcdd60ba1b6020820152620001076301ffc9a760e01b6001600160e01b036200024316565b6200011b816001600160e01b03620002c816565b62000136636cdb3d1360e11b6001600160e01b036200024316565b620001516303a24d0760e21b6001600160e01b036200024316565b50620001686000336001600160e01b03620002e116565b604080517f524547495354455245445f5245435f4445414c4552000000000000000000000081529051908190036015019020620001af90336001600160e01b03620002e116565b604080517f524547495354455245445f43454f5f4445414c4552000000000000000000000081529051908190036015019020620001f690336001600160e01b03620002e116565b604080517f524547495354455245445f41455f4445414c4552000000000000000000000000815290519081900360140190206200023d90336001600160e01b03620002e116565b6200058d565b6001600160e01b03198082161415620002a3576040805162461bcd60e51b815260206004820152601c60248201527f4552433136353a20696e76616c696420696e7465726661636520696400000000604482015290519081900360640190fd5b6001600160e01b0319166000908152602081905260409020805460ff19166001179055565b8051620002dd9060039060208401906200047c565b5050565b620002dd82826001600160e01b03620002f616565b60008281526004602090815260409091206200031d9183906200367b6200037a821b17901c565b15620002dd57620003366001600160e01b03620003a316565b6001600160a01b0316816001600160a01b0316837f2f8788117e7eff1d82e926ec794901d17c78024a50270940304540a733656f0d60405160405180910390a45050565b60006200039a836001600160a01b0384166001600160e01b03620003a816565b90505b92915050565b335b90565b6000620003bf83836001600160e01b036200040016565b620003f7575081546001818101845560008481526020808220909301849055845484825282860190935260409020919091556200039d565b5060006200039d565b60009081526001919091016020526040902054151590565b8280548282559060005260206000209081019282156200046a579160200282015b828111156200046a5782518051620004599184916020909101906200047c565b509160200191906001019062000439565b5062000478929150620004fd565b5090565b828054600181600116156101000203166002900490600052602060002090601f016020900481019282601f10620004bf57805160ff1916838001178555620004ef565b82800160010185558215620004ef579182015b82811115620004ef578251825591602001919060010190620004d2565b506200047892915062000525565b620003a591905b80821115620004785760006200051b828262000542565b5060010162000504565b620003a591905b808211156200047857600081556001016200052c565b50805460018160011615610100020316600290046000825580601f106200056a57506200058a565b601f0160209004906000526020600020908101906200058a919062000525565b50565b613dcd806200059d6000396000f3fe608060405234801561001057600080fd5b50600436106102315760003560e01c80637449069411610130578063bcbefe79116100b8578063d547741f1161007c578063d547741f14610cad578063e2e564f214610cd9578063e985e9c514610d08578063f242432a14610d36578063fcba794814610dff57610231565b8063bcbefe7914610bf4578063ca15c87314610bfc578063ce6ccfaf14610c19578063cf6ebee714610c70578063d494989314610c8d57610231565b806391d14854116100ff57806391d14854146109105780639258d5c31461093c578063a217fddf14610959578063a22cb46514610961578063b46a08d71461098f57610231565b8063744906941461087357806376aed2e1146108ac57806378e5c592146108c95780639010d07c146108d157610231565b806331aa4b20116101be5780634e1273f4116101825780634e1273f41461068c57806353dbe982146107ff57806354e2557c146108255780635ddb368f1461084557806369f7ef441461084d57610231565b806331aa4b20146105dd57806333781a0e1461060c57806336568abe14610632578063429fcf8c1461065e57806344b22fdd1461066657610231565b80630e89341c116102055780630e89341c14610315578063248a9ca3146103a75780632b04e840146103c45780632eb2c2d6146103f05780632f2ff15d146105b157610231565b8062fdd58e1461023657806301ffc9a714610274578063020c4f97146102af578063095bcdb6146102e3575b600080fd5b6102626004803603604081101561024c57600080fd5b506001600160a01b038135169060200135610e07565b60408051918252519081900360200190f35b61029b6004803603602081101561028a57600080fd5b50356001600160e01b031916610e79565b604080519115158252519081900360200190f35b6102e1600480360360608110156102c557600080fd5b506001600160a01b038135169060208101359060400135610e9c565b005b6102e1600480360360608110156102f957600080fd5b506001600160a01b0381351690602081013590604001356110e6565b6103326004803603602081101561032b57600080fd5b503561135a565b6040805160208082528351818301528351919283929083019185019080838360005b8381101561036c578181015183820152602001610354565b50505050905090810190601f1680156103995780820380516001836020036101000a031916815260200191505b509250505060405180910390f35b610262600480360360208110156103bd57600080fd5b50356113f2565b610262600480360360408110156103da57600080fd5b506001600160a01b038135169060200135611407565b6102e1600480360360a081101561040657600080fd5b6001600160a01b038235811692602081013590911691810190606081016040820135600160201b81111561043957600080fd5b82018360208201111561044b57600080fd5b803590602001918460208302840111600160201b8311171561046c57600080fd5b9190808060200260200160405190810160405280939291908181526020018383602002808284376000920191909152509295949360208101935035915050600160201b8111156104bb57600080fd5b8201836020820111156104cd57600080fd5b803590602001918460208302840111600160201b831117156104ee57600080fd5b9190808060200260200160405190810160405280939291908181526020018383602002808284376000920191909152509295949360208101935035915050600160201b81111561053d57600080fd5b82018360208201111561054f57600080fd5b803590602001918460018302840111600160201b8311171561057057600080fd5b91908080601f01602080910402602001604051908101604052809392919081815260200183838082843760009201919091525092955061141a945050505050565b6102e1600480360360408110156105c757600080fd5b50803590602001356001600160a01b0316611710565b6102e1600480360360408110156105f357600080fd5b5080356001600160a01b0316906020013560ff1661177c565b61029b6004803603602081101561062257600080fd5b50356001600160a01b0316611903565b6102e16004803603604081101561064857600080fd5b50803590602001356001600160a01b0316611938565b610262611999565b6102e16004803603602081101561067c57600080fd5b50356001600160a01b03166119bc565b6107af600480360360408110156106a257600080fd5b810190602081018135600160201b8111156106bc57600080fd5b8201836020820111156106ce57600080fd5b803590602001918460208302840111600160201b831117156106ef57600080fd5b9190808060200260200160405190810160405280939291908181526020018383602002808284376000920191909152509295949360208101935035915050600160201b81111561073e57600080fd5b82018360208201111561075057600080fd5b803590602001918460208302840111600160201b8311171561077157600080fd5b919080806020026020016040519081016040528093929190818152602001838360200280828437600092019190915250929550611b13945050505050565b60408051602080825283518183015283519192839290830191858101910280838360005b838110156107eb5781810151838201526020016107d3565b505050509050019250505060405180910390f35b6102e16004803603602081101561081557600080fd5b50356001600160a01b0316611c7a565b6102626004803603602081101561083b57600080fd5b503560ff16611dd1565b610262611e5a565b61029b6004803603602081101561086357600080fd5b50356001600160a01b0316611e61565b6108936004803603602081101561088957600080fd5b503560ff16611f22565b6040805192835260208301919091528051918290030190f35b610332600480360360208110156108c257600080fd5b5035611fb9565b6102626120d5565b6108f4600480360360408110156108e757600080fd5b5080359060200135612100565b604080516001600160a01b039092168252519081900360200190f35b61029b6004803603604081101561092657600080fd5b50803590602001356001600160a01b031661211e565b6102626004803603602081101561095257600080fd5b503561213c565b6102626121a7565b6102e16004803603604081101561097757600080fd5b506001600160a01b03813516906020013515156121ac565b6102e160048036036101408110156109a657600080fd5b6001600160a01b038235169160ff6020820135169160408201359190810190608081016060820135600160201b8111156109df57600080fd5b8201836020820111156109f157600080fd5b803590602001918460018302840111600160201b83111715610a1257600080fd5b91908080601f0160208091040260200160405190810160405280939291908181526020018383808284376000920191909152509295843595602086013595604081013595509193509150608081019060600135600160201b811115610a7657600080fd5b820183602082011115610a8857600080fd5b803590602001918460018302840111600160201b83111715610aa957600080fd5b91908080601f0160208091040260200160405190810160405280939291908181526020018383808284376000920191909152509295949360208101935035915050600160201b811115610afb57600080fd5b820183602082011115610b0d57600080fd5b803590602001918460018302840111600160201b83111715610b2e57600080fd5b91908080601f0160208091040260200160405190810160405280939291908181526020018383808284376000920191909152509295949360208101935035915050600160201b811115610b8057600080fd5b820183602082011115610b9257600080fd5b803590602001918460018302840111600160201b83111715610bb357600080fd5b91908080601f01602080910402602001604051908101604052809392919081815260200183838082843760009201919091525092955061229b945050505050565b6102626126b0565b61026260048036036020811015610c1257600080fd5b50356126d3565b610c3f60048036036020811015610c2f57600080fd5b50356001600160a01b03166126ea565b6040805195151586529315156020860152911515848401521515606084015215156080830152519081900360a00190f35b61029b60048036036020811015610c8657600080fd5b50356127da565b61026260048036036020811015610ca357600080fd5b503560ff16612848565b6102e160048036036040811015610cc357600080fd5b50803590602001356001600160a01b03166128d1565b6102e160048036036040811015610cef57600080fd5b5080356001600160a01b0316906020013560ff1661292a565b61029b60048036036040811015610d1e57600080fd5b506001600160a01b0381358116916020013516612aa6565b6102e1600480360360a0811015610d4c57600080fd5b6001600160a01b03823581169260208101359091169160408201359160608101359181019060a081016080820135600160201b811115610d8b57600080fd5b820183602082011115610d9d57600080fd5b803590602001918460018302840111600160201b83111715610dbe57600080fd5b91908080601f016020809104026020016040519081016040528093929190818152602001838380828437600092019190915250929550612ad4945050505050565b610262612ca5565b60006001600160a01b038316610e4e5760405162461bcd60e51b815260040180806020018281038252602b8152602001806139c8602b913960400191505060405180910390fd5b5060008181526001602090815260408083206001600160a01b03861684529091529020545b92915050565b6001600160e01b0319811660009081526020819052604090205460ff165b919050565b60408051600080516020613b2283398151915281529051908190036015019020600090610ec9903361211e565b90506000610efa6040518080600080516020613b42833981519152815250601501905060405180910390203361211e565b90506000610f2b6040518080600080516020613c5d833981519152815250601401905060405180910390203361211e565b90508280610f365750815b80610f3e5750805b610f87576040805162461bcd60e51b81526020600482015260156024820152742cb7ba9030b932903737ba1030903232b0b632b91760591b604482015290519081900360640190fd5b610f9085612cc8565b610fda576040805162461bcd60e51b81526020600482015260166024820152751d1bdad95b925908191bd95cc81b9bdd08195e1a5cdd60521b604482015290519081900360640190fd5b6000858152600560205260409020600b015460ff1615611041576040805162461bcd60e51b815260206004820152601860248201527f746f6b656e20697320616c726561647920726574697265640000000000000000604482015290519081900360640190fd5b6000858152600560205260409020600b8101805460ff19166001908117909155600c82018054870190559081015460ff16141561108e57600c8054850190556008805485900390556110d3565b60008581526005602052604090206001015460ff16600214156110c157600c8054850190556009805485900390556110d3565b600d805485019055600a805485900390555b6110de868686612ce3565b505050505050565b60408051722922a3a4a9aa22a922a22fa1a7a729aaa6a2a960691b8152905190819003601301902060009061111b903361211e565b9050600061114c6040518080600080516020613b22833981519152815250601501905060405180910390203361211e565b9050600061117d6040518080600080516020613b42833981519152815250601501905060405180910390203361211e565b905060006111ae6040518080600080516020613c5d833981519152815250601401905060405180910390203361211e565b905083806111b95750825b806111c15750815b806111c95750805b6112045760405162461bcd60e51b815260040180806020018281038252602a815260200180613a48602a913960400191505060405180910390fd5b61120d86612cc8565b611257576040805162461bcd60e51b81526020600482015260166024820152751d1bdad95b925908191bd95cc81b9bdd08195e1a5cdd60521b604482015290519081900360640190fd5b611260866127da565b1561129c5760405162461bcd60e51b815260040180806020018281038252602b815260200180613c7d602b913960400191505060405180910390fd5b6112a587612e1c565b6112e05760405162461bcd60e51b8152600401808060200182810382526025815260200180613acd6025913960400191505060405180910390fd5b336001600160a01b03881614156113285760405162461bcd60e51b8152600401808060200182810382526026815260200180613cfa6026913960400191505060405180910390fd5b61135133888888604051806040016040528060048152602001630307830360e41b815250612ad4565b50505050505050565b60038054604080516020601f60026000196101006001881615020190951694909404938401819004810282018101909252828152606093909290918301828280156113e65780601f106113bb576101008083540402835291602001916113e6565b820191906000526020600020905b8154815290600101906020018083116113c957829003601f168201915b50505050509050919050565b60009081526004602052604090206002015490565b60006114138383610e07565b9392505050565b815183511461145a5760405162461bcd60e51b8152600401808060200182810382526028815260200180613d206028913960400191505060405180910390fd5b6001600160a01b03841661149f5760405162461bcd60e51b8152600401808060200182810382526025815260200180613b626025913960400191505060405180910390fd5b6114a7612e36565b6001600160a01b0316856001600160a01b031614806114d257506114d2856114cd612e36565b612aa6565b61150d5760405162461bcd60e51b8152600401808060200182810382526032815260200180613b876032913960400191505060405180910390fd5b6000611517612e36565b90506115278187878787876110de565b60005b845181101561162857600085828151811061154157fe5b60200260200101519050600085838151811061155957fe5b602002602001015190506115c6816040518060600160405280602a8152602001613bdc602a91396001600086815260200190815260200160002060008d6001600160a01b03166001600160a01b0316815260200190815260200160002054612e3a9092919063ffffffff16565b60008381526001602090815260408083206001600160a01b038e811685529252808320939093558a16815220546115fd9082612ed1565b60009283526001602081815260408086206001600160a01b038d16875290915290932055500161152a565b50846001600160a01b0316866001600160a01b0316826001600160a01b03167f4a39dc06d4c0dbc64b70af90fd698a233a518aa5d07e595d983b8c0526c8f7fb8787604051808060200180602001838103835285818151815260200191508051906020019060200280838360005b838110156116ae578181015183820152602001611696565b50505050905001838103825284818151815260200191508051906020019060200280838360005b838110156116ed5781810151838201526020016116d5565b5050505090500194505050505060405180910390a46110de818787878787612f2b565b6000828152600460205260409020600201546117339061172e612e36565b61211e565b61176e5760405162461bcd60e51b815260040180806020018281038252602f815260200180613999602f913960400191505060405180910390fd5b6117788282613260565b5050565b61178760003361211e565b6117d1576040805162461bcd60e51b81526020600482015260166024820152752cb7ba9030b932903737ba103a34329037bbb732b91760511b604482015290519081900360640190fd5b6117da816132cf565b611819576040805162461bcd60e51b81526020600482015260196024820152600080516020613902833981519152604482015290519081900360640190fd5b8060ff16600114156118545760408051600080516020613b228339815191528152905190819003601501902061184f9083611710565b6118c0565b8060ff166002141561188a5760408051600080516020613b428339815191528152905190819003601501902061184f9083611710565b8060ff16600314156118c05760408051600080516020613c5d833981519152815290519081900360140190206118c09083611710565b6118cb600083611710565b6040516001600160a01b038316907fa8377deee15954185683d55effd369508b4935978c8cb2bab790bf04c570181490600090a25050565b60408051722922a3a4a9aa22a922a22fa1a7a729aaa6a2a960691b81529051908190036013019020600090610e73908361211e565b611940612e36565b6001600160a01b0316816001600160a01b03161461198f5760405162461bcd60e51b815260040180806020018281038252602f815260200180613d69602f913960400191505060405180910390fd5b61177882826132f5565b60408051600080516020613b428339815191528152905190819003601501902081565b60408051600080516020613b22833981519152815290519081900360150190206000906119e9903361211e565b90506000611a1a6040518080600080516020613b42833981519152815250601501905060405180910390203361211e565b90506000611a4b6040518080600080516020613c5d833981519152815250601401905060405180910390203361211e565b90508280611a565750815b80611a5e5750805b611aa7576040805162461bcd60e51b81526020600482015260156024820152742cb7ba9030b932903737ba1030903232b0b632b91760591b604482015290519081900360640190fd5b60408051722922a3a4a9aa22a922a22fa1a7a729aaa6a2a960691b81529051908190036013019020611ad99085611710565b6040516001600160a01b038516907fa8377deee15954185683d55effd369508b4935978c8cb2bab790bf04c570181490600090a250505050565b60608151835114611b555760405162461bcd60e51b8152600401808060200182810382526029815260200180613cd16029913960400191505060405180910390fd5b60608351604051908082528060200260200182016040528015611b82578160200160208202803883390190505b50905060005b8451811015611c725760006001600160a01b0316858281518110611ba857fe5b60200260200101516001600160a01b03161415611bf65760405162461bcd60e51b81526004018080602001828103825260318152602001806139f36031913960400191505060405180910390fd5b60016000858381518110611c0657fe5b602002602001015181526020019081526020016000206000868381518110611c2a57fe5b60200260200101516001600160a01b03166001600160a01b0316815260200190815260200160002054828281518110611c5f57fe5b6020908102919091010152600101611b88565b509392505050565b60408051600080516020613b2283398151915281529051908190036015019020600090611ca7903361211e565b90506000611cd86040518080600080516020613b42833981519152815250601501905060405180910390203361211e565b90506000611d096040518080600080516020613c5d833981519152815250601401905060405180910390203361211e565b90508280611d145750815b80611d1c5750805b611d65576040805162461bcd60e51b81526020600482015260156024820152742cb7ba9030b932903737ba1030903232b0b632b91760591b604482015290519081900360640190fd5b60408051722922a3a4a9aa22a922a22fa1a7a729aaa6a2a960691b81529051908190036013019020611d9790856128d1565b6040516001600160a01b038516907f98552ded770f1d05a505572f3387c108dbc6b566ea3d49f83cff3d1f1c72a04290600090a250505050565b6000611ddc826132cf565b611e1b576040805162461bcd60e51b81526020600482015260196024820152600080516020613902833981519152604482015290519081900360640190fd5b8160ff1660011415611e305750600854610e97565b8160ff1660021415611e455750600954610e97565b8160ff1660031415610e975750600a54610e97565b6006545b90565b600080611e916040518080600080516020613b22833981519152815250601501905060405180910390208461211e565b90506000611ec26040518080600080516020613b42833981519152815250601501905060405180910390208561211e565b90506000611ef36040518080600080516020613c5d833981519152815250601401905060405180910390208661211e565b90508280611efe5750815b80611f065750805b15611f175760019350505050610e97565b506000949350505050565b600080611f2e836132cf565b611f6d576040805162461bcd60e51b81526020600482015260196024820152600080516020613902833981519152604482015290519081900360640190fd5b8260ff1660011415611f86575050600854600c54611fb4565b8260ff1660021415611f9f575050600954600c54611fb4565b8260ff1660031415611fb4575050600a54600d545b915091565b6060611fc482612cc8565b61200e576040805162461bcd60e51b81526020600482015260166024820152751d1bdad95b925908191bd95cc81b9bdd08195e1a5cdd60521b604482015290519081900360640190fd5b6000828152600560205260409020600101546007805460609260001960ff918216011690811061203a57fe5b600091825260209182902001805460408051601f60026000196101006001871615020190941693909304928301859004850281018501909152818152928301828280156120c85780601f1061209d576101008083540402835291602001916120c8565b820191906000526020600020905b8154815290600101906020018083116120ab57829003601f168201915b5093979650505050505050565b60408051722922a3a4a9aa22a922a22fa1a7a729aaa6a2a960691b8152905190819003601301902081565b6000828152600460205260408120611413908363ffffffff61336416565b6000828152600460205260408120611413908363ffffffff61337016565b600061214782612cc8565b612191576040805162461bcd60e51b81526020600482015260166024820152751d1bdad95b925908191bd95cc81b9bdd08195e1a5cdd60521b604482015290519081900360640190fd5b506000908152600560205260409020600c015490565b600081565b816001600160a01b03166121be612e36565b6001600160a01b031614156122045760405162461bcd60e51b8152600401808060200182810382526029815260200180613ca86029913960400191505060405180910390fd5b8060026000612211612e36565b6001600160a01b03908116825260208083019390935260409182016000908120918716808252919093529120805460ff191692151592909217909155612255612e36565b60408051841515815290516001600160a01b0392909216917f17307eab39ab6107e8899845ad3d59bd9653f200f220920489ca2b5937696c319181900360200190a35050565b60408051600080516020613b22833981519152815290519081900360150190206000906122c8903361211e565b905060006122f96040518080600080516020613b42833981519152815250601501905060405180910390203361211e565b9050600061232a6040518080600080516020613c5d833981519152815250601401905060405180910390203361211e565b905082806123355750815b8061233d5750805b612386576040805162461bcd60e51b81526020600482015260156024820152742cb7ba9030b932903737ba1030903232b0b632b91760591b604482015290519081900360640190fd5b61238f8c6132cf565b6123ca5760405162461bcd60e51b8152600401808060200182810382526028815260200180613c356028913960400191505060405180910390fd5b8b60ff16600114156124485760408051600080516020613b2283398151915281529051908190036015019020612400903361211e565b61243b5760405162461bcd60e51b8152600401808060200182810382526032815260200180613a9b6032913960400191505060405180910390fd5b600880548c019055612534565b8b60ff16600214156124c65760408051600080516020613b428339815191528152905190819003601501902061247e903361211e565b6124b95760405162461bcd60e51b815260040180806020018281038252602d815260200180613944602d913960400191505060405180910390fd5b600980548c019055612534565b60408051600080516020613c5d833981519152815290519081900360140190206124f0903361211e565b61252b5760405162461bcd60e51b815260040180806020018281038252602f815260200180613c06602f913960400191505060405180910390fd5b600a80548c0190555b606060016006600082825401925050819055506000600560006006548152602001908152602001600020905060065481600001819055508d8160010160006101000a81548160ff021916908360ff160217905550338160010160016101000a8154816001600160a01b0302191690836001600160a01b031602179055508e8160020160006101000a8154816001600160a01b0302191690836001600160a01b031602179055508b8160030190805190602001906125f2929190613835565b50600481018b9055600581018a9055875161261690600883019060208b0190613835565b50865161262c90600983019060208a0190613835565b50426006820155600b8101805460ff1916905560078101899055855161265b90600a8301906020890190613835565b5061266a8f6006548f85613385565b60065460408051918252517f5871761b381266e7e47309f0821d5b396364ebb6371d878871cac5393cb93ea89181900360200190a1505050505050505050505050505050565b60408051600080516020613c5d8339815191528152905190819003601401902081565b6000818152600460205260408120610e7390613493565b600080808080806126fb818861211e565b9050600061272c6040518080600080516020613b22833981519152815250601501905060405180910390208961211e565b9050600061275d6040518080600080516020613b42833981519152815250601501905060405180910390208a61211e565b9050600061278e6040518080600080516020613c5d833981519152815250601401905060405180910390208b61211e565b905060006127c76040518080722922a3a4a9aa22a922a22fa1a7a729aaa6a2a960691b815250601301905060405180910390208c61211e565b949b939a50919850965091945092505050565b60006127e582612cc8565b61282f576040805162461bcd60e51b81526020600482015260166024820152751d1bdad95b925908191bd95cc81b9bdd08195e1a5cdd60521b604482015290519081900360640190fd5b506000908152600560205260409020600b015460ff1690565b6000612853826132cf565b612892576040805162461bcd60e51b81526020600482015260196024820152600080516020613902833981519152604482015290519081900360640190fd5b8160ff16600114156128a75750600c54610e97565b8160ff16600214156128bc5750600c54610e97565b8160ff1660031415610e975750600d54610e97565b6000828152600460205260409020600201546128ef9061172e612e36565b61198f5760405162461bcd60e51b8152600401808060200182810382526030815260200180613af26030913960400191505060405180910390fd5b61293560003361211e565b61297f576040805162461bcd60e51b81526020600482015260166024820152752cb7ba9030b932903737ba103a34329037bbb732b91760511b604482015290519081900360640190fd5b612988816132cf565b6129c7576040805162461bcd60e51b81526020600482015260196024820152600080516020613902833981519152604482015290519081900360640190fd5b8060ff1660011415612a025760408051600080516020613b22833981519152815290519081900360150190206129fd90836128d1565b612a6e565b8060ff1660021415612a385760408051600080516020613b42833981519152815290519081900360150190206129fd90836128d1565b8060ff1660031415612a6e5760408051600080516020613c5d83398151915281529051908190036014019020612a6e90836128d1565b6040516001600160a01b038316907f98552ded770f1d05a505572f3387c108dbc6b566ea3d49f83cff3d1f1c72a04290600090a25050565b6001600160a01b03918216600090815260026020908152604080832093909416825291909152205460ff1690565b6001600160a01b038416612b195760405162461bcd60e51b8152600401808060200182810382526025815260200180613b626025913960400191505060405180910390fd5b612b21612e36565b6001600160a01b0316856001600160a01b03161480612b475750612b47856114cd612e36565b612b825760405162461bcd60e51b8152600401808060200182810382526029815260200180613a726029913960400191505060405180910390fd5b6000612b8c612e36565b9050612bac818787612b9d8861349e565b612ba68861349e565b876110de565b612bf9836040518060600160405280602a8152602001613bdc602a913960008781526001602090815260408083206001600160a01b038d168452909152902054919063ffffffff612e3a16565b60008581526001602090815260408083206001600160a01b038b81168552925280832093909355871681522054612c309084612ed1565b60008581526001602090815260408083206001600160a01b03808b168086529184529382902094909455805188815291820187905280518a8416938616927fc3d58168c5ae7397731d063d5bbf3d657854427343f4c083240f7aacaa2d0f6292908290030190a46110de8187878787876134e2565b60408051600080516020613b228339815191528152905190819003601501902081565b60008160065410612cdb57506001610e97565b506000919050565b6001600160a01b038316612d285760405162461bcd60e51b8152600401808060200182810382526023815260200180613bb96023913960400191505060405180910390fd5b6000612d32612e36565b9050612d6281856000612d448761349e565b612d4d8761349e565b604051806020016040528060008152506110de565b612daf82604051806060016040528060248152602001613a246024913960008681526001602090815260408083206001600160a01b038b168452909152902054919063ffffffff612e3a16565b60008481526001602090815260408083206001600160a01b03808a16808652918452828520959095558151888152928301879052815193949093908616927fc3d58168c5ae7397731d063d5bbf3d657854427343f4c083240f7aacaa2d0f6292908290030190a450505050565b6000612e2782611e61565b80610e735750610e7382611903565b3390565b60008184841115612ec95760405162461bcd60e51b81526004018080602001828103825283818151815260200191508051906020019080838360005b83811015612e8e578181015183820152602001612e76565b50505050905090810190601f168015612ebb5780820380516001836020036101000a031916815260200191505b509250505060405180910390fd5b505050900390565b600082820183811015611413576040805162461bcd60e51b815260206004820152601b60248201527f536166654d6174683a206164646974696f6e206f766572666c6f770000000000604482015290519081900360640190fd5b612f3d846001600160a01b0316613675565b156110de57836001600160a01b031663bc197c8187878686866040518663ffffffff1660e01b815260040180866001600160a01b03166001600160a01b03168152602001856001600160a01b03166001600160a01b03168152602001806020018060200180602001848103845287818151815260200191508051906020019060200280838360005b83811015612fdd578181015183820152602001612fc5565b50505050905001848103835286818151815260200191508051906020019060200280838360005b8381101561301c578181015183820152602001613004565b50505050905001848103825285818151815260200191508051906020019080838360005b83811015613058578181015183820152602001613040565b50505050905090810190601f1680156130855780820380516001836020036101000a031916815260200191505b5098505050505050505050602060405180830381600087803b1580156130aa57600080fd5b505af19250505080156130cf57506040513d60208110156130ca57600080fd5b505160015b613211576040516000815260443d10156130eb57506000613188565b60046000803e60005160e01c6308c379a0811461310c576000915050613188565b60043d036004833e81513d602482011167ffffffffffffffff8211171561313857600092505050613188565b808301805167ffffffffffffffff81111561315a576000945050505050613188565b8060208301013d860181111561317857600095505050505050613188565b601f01601f191660405250925050505b8061319357506131da565b60405162461bcd60e51b8152602060048201818152835160248401528351849391928392604401919085019080838360008315612e8e578181015183820152602001612e76565b60405162461bcd60e51b81526004018080602001828103825260348152602001806138ce6034913960400191505060405180910390fd5b6001600160e01b0319811663bc197c8160e01b146113515760405162461bcd60e51b81526004018080602001828103825260288152602001806139716028913960400191505060405180910390fd5b600082815260046020526040902061327e908263ffffffff61367b16565b156117785761328b612e36565b6001600160a01b0316816001600160a01b0316837f2f8788117e7eff1d82e926ec794901d17c78024a50270940304540a733656f0d60405160405180910390a45050565b6000808260ff161180156132e8575060075460ff831611155b15612cdb57506001610e97565b6000828152600460205260409020613313908263ffffffff61369016565b1561177857613320612e36565b6001600160a01b0316816001600160a01b0316837ff6391f5c32d9c69d2a47ea670b442974b53935d1edc7fd64eb21e047a839171b60405160405180910390a45050565b600061141383836136a5565b6000611413836001600160a01b038416613709565b6001600160a01b0384166133ca5760405162461bcd60e51b8152600401808060200182810382526021815260200180613d486021913960400191505060405180910390fd5b60006133d4612e36565b90506133e681600087612b9d8861349e565b60008481526001602090815260408083206001600160a01b0389168452909152902054613419908463ffffffff612ed116565b60008581526001602090815260408083206001600160a01b03808b16808652918452828520959095558151898152928301889052815190948616927fc3d58168c5ae7397731d063d5bbf3d657854427343f4c083240f7aacaa2d0f6292908290030190a461348c816000878787876134e2565b5050505050565b6000610e7382613721565b6040805160018082528183019092526060918291906020808301908038833901905050905082816000815181106134d157fe5b602090810291909101015292915050565b6134f4846001600160a01b0316613675565b156110de57836001600160a01b031663f23a6e6187878686866040518663ffffffff1660e01b815260040180866001600160a01b03166001600160a01b03168152602001856001600160a01b03166001600160a01b0316815260200184815260200183815260200180602001828103825283818151815260200191508051906020019080838360005b8381101561359557818101518382015260200161357d565b50505050905090810190601f1680156135c25780820380516001836020036101000a031916815260200191505b509650505050505050602060405180830381600087803b1580156135e557600080fd5b505af192505050801561360a57506040513d602081101561360557600080fd5b505160015b613626576040516000815260443d10156130eb57506000613188565b6001600160e01b0319811663f23a6e6160e01b146113515760405162461bcd60e51b81526004018080602001828103825260288152602001806139716028913960400191505060405180910390fd5b3b151590565b6000611413836001600160a01b038416613725565b6000611413836001600160a01b03841661376f565b815460009082106136e75760405162461bcd60e51b81526004018080602001828103825260228152602001806139226022913960400191505060405180910390fd5b8260000182815481106136f657fe5b9060005260206000200154905092915050565b60009081526001919091016020526040902054151590565b5490565b60006137318383613709565b61376757508154600181810184556000848152602080822090930184905584548482528286019093526040902091909155610e73565b506000610e73565b6000818152600183016020526040812054801561382b57835460001980830191908101906000908790839081106137a257fe5b90600052602060002001549050808760000184815481106137bf57fe5b6000918252602080832090910192909255828152600189810190925260409020908401905586548790806137ef57fe5b60019003818190600052602060002001600090559055866001016000878152602001908152602001600020600090556001945050505050610e73565b6000915050610e73565b828054600181600116156101000203166002900490600052602060002090601f016020900481019282601f1061387657805160ff19168380011785556138a3565b828001600101855582156138a3579182015b828111156138a3578251825591602001919060010190613888565b506138af9291506138b3565b5090565b611e5e91905b808211156138af57600081556001016138b956fe455243313135353a207472616e7366657220746f206e6f6e2045524331313535526563656976657220696d706c656d656e746572546f6b656e207479706520646f6573206e6f7420657869737400000000000000456e756d657261626c655365743a20696e646578206f7574206f6620626f756e6473596f7520617265206e6f74206120436172626f6e20456d697373696f6e73204f6666736574206465616c65722e455243313135353a204552433131353552656365697665722072656a656374656420746f6b656e73416363657373436f6e74726f6c3a2073656e646572206d75737420626520616e2061646d696e20746f206772616e74455243313135353a2062616c616e636520717565727920666f7220746865207a65726f2061646472657373455243313135353a2062617463682062616c616e636520717565727920666f7220746865207a65726f2061646472657373455243313135353a206275726e20616d6f756e7420657863656564732062616c616e6365596f75206d75737420626520656974686572206120636f6e73756d6572206f722061206465616c65722e455243313135353a2063616c6c6572206973206e6f74206f776e6572206e6f7220617070726f766564596f7520617265206e6f7420612052656e657761626c6520456e65726779204365727469666963617465206465616c65722e526563697069656e74206d75737420626520636f6e73756d6572206f72206465616c65722e416363657373436f6e74726f6c3a2073656e646572206d75737420626520616e2061646d696e20746f207265766f6b65524547495354455245445f5245435f4445414c45520000000000000000000000524547495354455245445f43454f5f4445414c45520000000000000000000000455243313135353a207472616e7366657220746f20746865207a65726f2061646472657373455243313135353a207472616e736665722063616c6c6572206973206e6f74206f776e6572206e6f7220617070726f766564455243313135353a206275726e2066726f6d20746865207a65726f2061646472657373455243313135353a20696e73756666696369656e742062616c616e636520666f72207472616e73666572596f7520617265206e6f7420616e204175646974656420456d697373696f6e7320416d6f756e74206465616c65722e4661696c656420746f2069737375653a20746f6b656e54797065496420697320696e76616c69642e524547495354455245445f41455f4445414c4552000000000000000000000000546f6b656e20697320726574697265642e205472616e73666572206973206e6f74207065726d6974746564455243313135353a2073657474696e6720617070726f76616c2073746174757320666f722073656c66455243313135353a206163636f756e747320616e6420696473206c656e677468206d69736d6174636853656e64657220616e642072656365697665722063616e6e6f74206265207468652073616d65455243313135353a2069647320616e6420616d6f756e7473206c656e677468206d69736d61746368455243313135353a206d696e7420746f20746865207a65726f2061646472657373416363657373436f6e74726f6c3a2063616e206f6e6c792072656e6f756e636520726f6c657320666f722073656c66a2646970667358221220715ab83f43e6ab4eb71d638afb03a15246ef8577e0901f3fada26482e0e5875664736f6c63430006020033",
  "linkReferences": {},
  "deployedLinkReferences": {}
}