{
  "_format": "hh-sol-artifact-1",
  "contractName": "NetEmissionsTokenNetwork",
  "sourceName": "contracts/NetEmissionsTokenNetwork.sol",
  "abi": [
    {
      "inputs": [],
      "stateMutability": "nonpayable",
      "type": "constructor"
    },
    {
      "anonymous": false,
      "inputs": [
        {
          "indexed": true,
          "internalType": "address",
          "name": "account",
          "type": "address"
        },
        {
          "indexed": true,
          "internalType": "address",
          "name": "operator",
          "type": "address"
        },
        {
          "indexed": false,
          "internalType": "bool",
          "name": "approved",
          "type": "bool"
        }
      ],
      "name": "ApprovalForAll",
      "type": "event"
    },
    {
      "anonymous": false,
      "inputs": [
        {
          "indexed": true,
          "internalType": "address",
          "name": "account",
          "type": "address"
        }
      ],
      "name": "RegisteredDealer",
      "type": "event"
    },
    {
      "anonymous": false,
      "inputs": [
        {
          "indexed": true,
          "internalType": "bytes32",
          "name": "role",
          "type": "bytes32"
        },
        {
          "indexed": true,
          "internalType": "bytes32",
          "name": "previousAdminRole",
          "type": "bytes32"
        },
        {
          "indexed": true,
          "internalType": "bytes32",
          "name": "newAdminRole",
          "type": "bytes32"
        }
      ],
      "name": "RoleAdminChanged",
      "type": "event"
    },
    {
      "anonymous": false,
      "inputs": [
        {
          "indexed": true,
          "internalType": "bytes32",
          "name": "role",
          "type": "bytes32"
        },
        {
          "indexed": true,
          "internalType": "address",
          "name": "account",
          "type": "address"
        },
        {
          "indexed": true,
          "internalType": "address",
          "name": "sender",
          "type": "address"
        }
      ],
      "name": "RoleGranted",
      "type": "event"
    },
    {
      "anonymous": false,
      "inputs": [
        {
          "indexed": true,
          "internalType": "bytes32",
          "name": "role",
          "type": "bytes32"
        },
        {
          "indexed": true,
          "internalType": "address",
          "name": "account",
          "type": "address"
        },
        {
          "indexed": true,
          "internalType": "address",
          "name": "sender",
          "type": "address"
        }
      ],
      "name": "RoleRevoked",
      "type": "event"
    },
    {
      "anonymous": false,
      "inputs": [
        {
          "indexed": false,
          "internalType": "uint256",
          "name": "",
          "type": "uint256"
        }
      ],
      "name": "TokenCreated",
      "type": "event"
    },
    {
      "anonymous": false,
      "inputs": [
        {
          "indexed": true,
          "internalType": "address",
          "name": "operator",
          "type": "address"
        },
        {
          "indexed": true,
          "internalType": "address",
          "name": "from",
          "type": "address"
        },
        {
          "indexed": true,
          "internalType": "address",
          "name": "to",
          "type": "address"
        },
        {
          "indexed": false,
          "internalType": "uint256[]",
          "name": "ids",
          "type": "uint256[]"
        },
        {
          "indexed": false,
          "internalType": "uint256[]",
          "name": "values",
          "type": "uint256[]"
        }
      ],
      "name": "TransferBatch",
      "type": "event"
    },
    {
      "anonymous": false,
      "inputs": [
        {
          "indexed": true,
          "internalType": "address",
          "name": "operator",
          "type": "address"
        },
        {
          "indexed": true,
          "internalType": "address",
          "name": "from",
          "type": "address"
        },
        {
          "indexed": true,
          "internalType": "address",
          "name": "to",
          "type": "address"
        },
        {
          "indexed": false,
          "internalType": "uint256",
          "name": "id",
          "type": "uint256"
        },
        {
          "indexed": false,
          "internalType": "uint256",
          "name": "value",
          "type": "uint256"
        }
      ],
      "name": "TransferSingle",
      "type": "event"
    },
    {
      "anonymous": false,
      "inputs": [
        {
          "indexed": false,
          "internalType": "string",
          "name": "value",
          "type": "string"
        },
        {
          "indexed": true,
          "internalType": "uint256",
          "name": "id",
          "type": "uint256"
        }
      ],
      "name": "URI",
      "type": "event"
    },
    {
      "anonymous": false,
      "inputs": [
        {
          "indexed": true,
          "internalType": "address",
          "name": "account",
          "type": "address"
        }
      ],
      "name": "UnregisteredDealer",
      "type": "event"
    },
    {
      "inputs": [],
      "name": "DEFAULT_ADMIN_ROLE",
      "outputs": [
        {
          "internalType": "bytes32",
          "name": "",
          "type": "bytes32"
        }
      ],
      "stateMutability": "view",
      "type": "function"
    },
    {
      "inputs": [],
      "name": "REGISTERED_CONSUMER",
      "outputs": [
        {
          "internalType": "bytes32",
          "name": "",
          "type": "bytes32"
        }
      ],
      "stateMutability": "view",
      "type": "function"
    },
    {
      "inputs": [],
      "name": "REGISTERED_EMISSIONS_AUDITOR",
      "outputs": [
        {
          "internalType": "bytes32",
          "name": "",
          "type": "bytes32"
        }
      ],
      "stateMutability": "view",
      "type": "function"
    },
    {
      "inputs": [],
      "name": "REGISTERED_OFFSET_DEALER",
      "outputs": [
        {
          "internalType": "bytes32",
          "name": "",
          "type": "bytes32"
        }
      ],
      "stateMutability": "view",
      "type": "function"
    },
    {
      "inputs": [],
      "name": "REGISTERED_REC_DEALER",
      "outputs": [
        {
          "internalType": "bytes32",
          "name": "",
          "type": "bytes32"
        }
      ],
      "stateMutability": "view",
      "type": "function"
    },
    {
      "inputs": [
        {
          "internalType": "address",
          "name": "account",
          "type": "address"
        },
        {
          "internalType": "uint256",
          "name": "id",
          "type": "uint256"
        }
      ],
      "name": "balanceOf",
      "outputs": [
        {
          "internalType": "uint256",
          "name": "",
          "type": "uint256"
        }
      ],
      "stateMutability": "view",
      "type": "function"
    },
    {
      "inputs": [
        {
          "internalType": "address[]",
          "name": "accounts",
          "type": "address[]"
        },
        {
          "internalType": "uint256[]",
          "name": "ids",
          "type": "uint256[]"
        }
      ],
      "name": "balanceOfBatch",
      "outputs": [
        {
          "internalType": "uint256[]",
          "name": "",
          "type": "uint256[]"
        }
      ],
      "stateMutability": "view",
      "type": "function"
    },
    {
      "inputs": [
        {
          "internalType": "uint8",
          "name": "tokenTypeId",
          "type": "uint8"
        }
      ],
      "name": "getAvailableBalanceByTokenTypeId",
      "outputs": [
        {
          "internalType": "uint256",
          "name": "",
          "type": "uint256"
        }
      ],
      "stateMutability": "view",
      "type": "function"
    },
    {
      "inputs": [
        {
          "internalType": "address",
          "name": "account",
          "type": "address"
        },
        {
          "internalType": "uint256",
          "name": "tokenId",
          "type": "uint256"
        }
      ],
      "name": "getBalance",
      "outputs": [
        {
          "internalType": "uint256",
          "name": "",
          "type": "uint256"
        }
      ],
      "stateMutability": "view",
      "type": "function"
    },
    {
      "inputs": [
        {
          "internalType": "uint8",
          "name": "tokenTypeId",
          "type": "uint8"
        }
      ],
      "name": "getBothBalanceByTokenId",
      "outputs": [
        {
          "internalType": "uint256",
          "name": "",
          "type": "uint256"
        },
        {
          "internalType": "uint256",
          "name": "",
          "type": "uint256"
        }
      ],
      "stateMutability": "view",
      "type": "function"
    },
    {
      "inputs": [
        {
          "internalType": "uint256",
          "name": "tokenId",
          "type": "uint256"
        }
      ],
      "name": "getIssuer",
      "outputs": [
        {
          "internalType": "address",
          "name": "",
          "type": "address"
        }
      ],
      "stateMutability": "view",
      "type": "function"
    },
    {
      "inputs": [],
      "name": "getNumOfUniqueTokens",
      "outputs": [
        {
          "internalType": "uint256",
          "name": "",
          "type": "uint256"
        }
      ],
      "stateMutability": "view",
      "type": "function"
    },
    {
      "inputs": [
        {
          "internalType": "uint8",
          "name": "tokenTypeId",
          "type": "uint8"
        }
      ],
      "name": "getRetiredBalanceByTokenTypeId",
      "outputs": [
        {
          "internalType": "uint256",
          "name": "",
          "type": "uint256"
        }
      ],
      "stateMutability": "view",
      "type": "function"
    },
    {
      "inputs": [
        {
          "internalType": "bytes32",
          "name": "role",
          "type": "bytes32"
        }
      ],
      "name": "getRoleAdmin",
      "outputs": [
        {
          "internalType": "bytes32",
          "name": "",
          "type": "bytes32"
        }
      ],
      "stateMutability": "view",
      "type": "function"
    },
    {
      "inputs": [
        {
          "internalType": "bytes32",
          "name": "role",
          "type": "bytes32"
        },
        {
          "internalType": "uint256",
          "name": "index",
          "type": "uint256"
        }
      ],
      "name": "getRoleMember",
      "outputs": [
        {
          "internalType": "address",
          "name": "",
          "type": "address"
        }
      ],
      "stateMutability": "view",
      "type": "function"
    },
    {
      "inputs": [
        {
          "internalType": "bytes32",
          "name": "role",
          "type": "bytes32"
        }
      ],
      "name": "getRoleMemberCount",
      "outputs": [
        {
          "internalType": "uint256",
          "name": "",
          "type": "uint256"
        }
      ],
      "stateMutability": "view",
      "type": "function"
    },
    {
      "inputs": [
        {
          "internalType": "address",
          "name": "account",
          "type": "address"
        }
      ],
      "name": "getRoles",
      "outputs": [
        {
          "internalType": "bool",
          "name": "",
          "type": "bool"
        },
        {
          "internalType": "bool",
          "name": "",
          "type": "bool"
        },
        {
          "internalType": "bool",
          "name": "",
          "type": "bool"
        },
        {
          "internalType": "bool",
          "name": "",
          "type": "bool"
        },
        {
          "internalType": "bool",
          "name": "",
          "type": "bool"
        }
      ],
      "stateMutability": "view",
      "type": "function"
    },
    {
      "inputs": [
        {
          "internalType": "uint256",
          "name": "tokenId",
          "type": "uint256"
        }
      ],
      "name": "getTokenDetails",
      "outputs": [
        {
          "components": [
            {
              "internalType": "uint256",
              "name": "tokenId",
              "type": "uint256"
            },
            {
              "internalType": "uint8",
              "name": "tokenTypeId",
              "type": "uint8"
            },
            {
              "internalType": "address",
              "name": "issuer",
              "type": "address"
            },
            {
              "internalType": "address",
              "name": "issuee",
              "type": "address"
            },
            {
              "internalType": "string",
              "name": "uom",
              "type": "string"
            },
            {
              "internalType": "uint256",
              "name": "fromDate",
              "type": "uint256"
            },
            {
              "internalType": "uint256",
              "name": "thruDate",
              "type": "uint256"
            },
            {
              "internalType": "uint256",
              "name": "dateCreated",
              "type": "uint256"
            },
            {
              "internalType": "uint256",
              "name": "automaticRetireDate",
              "type": "uint256"
            },
            {
              "internalType": "string",
              "name": "metadata",
              "type": "string"
            },
            {
              "internalType": "string",
              "name": "manifest",
              "type": "string"
            },
            {
              "internalType": "string",
              "name": "description",
              "type": "string"
            },
            {
              "internalType": "bool",
              "name": "retired",
              "type": "bool"
            },
            {
              "internalType": "uint256",
              "name": "retiredAmount",
              "type": "uint256"
            }
          ],
          "internalType": "struct NetEmissionsTokenNetwork.CarbonTokenDetails",
          "name": "",
          "type": "tuple"
        }
      ],
      "stateMutability": "view",
      "type": "function"
    },
    {
      "inputs": [
        {
          "internalType": "uint256",
          "name": "tokenId",
          "type": "uint256"
        }
      ],
      "name": "getTokenRetiredAmount",
      "outputs": [
        {
          "internalType": "uint256",
          "name": "",
          "type": "uint256"
        }
      ],
      "stateMutability": "view",
      "type": "function"
    },
    {
      "inputs": [
        {
          "internalType": "uint256",
          "name": "tokenId",
          "type": "uint256"
        }
      ],
      "name": "getTokenType",
      "outputs": [
        {
          "internalType": "string",
          "name": "",
          "type": "string"
        }
      ],
      "stateMutability": "view",
      "type": "function"
    },
    {
      "inputs": [
        {
          "internalType": "bytes32",
          "name": "role",
          "type": "bytes32"
        },
        {
          "internalType": "address",
          "name": "account",
          "type": "address"
        }
      ],
      "name": "grantRole",
      "outputs": [],
      "stateMutability": "nonpayable",
      "type": "function"
    },
    {
      "inputs": [
        {
          "internalType": "bytes32",
          "name": "role",
          "type": "bytes32"
        },
        {
          "internalType": "address",
          "name": "account",
          "type": "address"
        }
      ],
      "name": "hasRole",
      "outputs": [
        {
          "internalType": "bool",
          "name": "",
          "type": "bool"
        }
      ],
      "stateMutability": "view",
      "type": "function"
    },
    {
      "inputs": [
        {
          "internalType": "address",
          "name": "account",
          "type": "address"
        },
        {
          "internalType": "address",
          "name": "operator",
          "type": "address"
        }
      ],
      "name": "isApprovedForAll",
      "outputs": [
        {
          "internalType": "bool",
          "name": "",
          "type": "bool"
        }
      ],
      "stateMutability": "view",
      "type": "function"
    },
    {
      "inputs": [
        {
          "internalType": "address",
          "name": "account",
          "type": "address"
        }
      ],
      "name": "isConsumerRegistered",
      "outputs": [
        {
          "internalType": "bool",
          "name": "",
          "type": "bool"
        }
      ],
      "stateMutability": "view",
      "type": "function"
    },
    {
      "inputs": [
        {
          "internalType": "address",
          "name": "account",
          "type": "address"
        }
      ],
      "name": "isDealerRegistered",
      "outputs": [
        {
          "internalType": "bool",
          "name": "",
          "type": "bool"
        }
      ],
      "stateMutability": "view",
      "type": "function"
    },
    {
      "inputs": [
        {
          "internalType": "uint256",
          "name": "tokenId",
          "type": "uint256"
        }
      ],
      "name": "isRetired",
      "outputs": [
        {
          "internalType": "bool",
          "name": "",
          "type": "bool"
        }
      ],
      "stateMutability": "view",
      "type": "function"
    },
    {
      "inputs": [
        {
          "internalType": "address",
          "name": "account",
          "type": "address"
        },
        {
          "internalType": "uint8",
          "name": "tokenTypeId",
          "type": "uint8"
        },
        {
          "internalType": "uint256",
          "name": "quantity",
          "type": "uint256"
        },
        {
          "internalType": "string",
          "name": "uom",
          "type": "string"
        },
        {
          "internalType": "uint256",
          "name": "fromDate",
          "type": "uint256"
        },
        {
          "internalType": "uint256",
          "name": "thruDate",
          "type": "uint256"
        },
        {
          "internalType": "uint256",
          "name": "automaticRetireDate",
          "type": "uint256"
        },
        {
          "internalType": "string",
          "name": "metadata",
          "type": "string"
        },
        {
          "internalType": "string",
          "name": "manifest",
          "type": "string"
        },
        {
          "internalType": "string",
          "name": "description",
          "type": "string"
        }
      ],
      "name": "issue",
      "outputs": [],
      "stateMutability": "nonpayable",
      "type": "function"
    },
    {
      "inputs": [
        {
          "internalType": "address",
          "name": "account",
          "type": "address"
        }
      ],
      "name": "registerConsumer",
      "outputs": [],
      "stateMutability": "nonpayable",
      "type": "function"
    },
    {
      "inputs": [
        {
          "internalType": "address",
          "name": "account",
          "type": "address"
        },
        {
          "internalType": "uint8",
          "name": "tokenTypeId",
          "type": "uint8"
        }
      ],
      "name": "registerDealer",
      "outputs": [],
      "stateMutability": "nonpayable",
      "type": "function"
    },
    {
      "inputs": [
        {
          "internalType": "bytes32",
          "name": "role",
          "type": "bytes32"
        },
        {
          "internalType": "address",
          "name": "account",
          "type": "address"
        }
      ],
      "name": "renounceRole",
      "outputs": [],
      "stateMutability": "nonpayable",
      "type": "function"
    },
    {
      "inputs": [
        {
          "internalType": "address",
          "name": "account",
          "type": "address"
        },
        {
          "internalType": "uint256",
          "name": "tokenId",
          "type": "uint256"
        },
        {
          "internalType": "uint256",
          "name": "amount",
          "type": "uint256"
        }
      ],
      "name": "retire",
      "outputs": [],
      "stateMutability": "nonpayable",
      "type": "function"
    },
    {
      "inputs": [
        {
          "internalType": "bytes32",
          "name": "role",
          "type": "bytes32"
        },
        {
          "internalType": "address",
          "name": "account",
          "type": "address"
        }
      ],
      "name": "revokeRole",
      "outputs": [],
      "stateMutability": "nonpayable",
      "type": "function"
    },
    {
      "inputs": [
        {
          "internalType": "address",
          "name": "from",
          "type": "address"
        },
        {
          "internalType": "address",
          "name": "to",
          "type": "address"
        },
        {
          "internalType": "uint256[]",
          "name": "ids",
          "type": "uint256[]"
        },
        {
          "internalType": "uint256[]",
          "name": "amounts",
          "type": "uint256[]"
        },
        {
          "internalType": "bytes",
          "name": "data",
          "type": "bytes"
        }
      ],
      "name": "safeBatchTransferFrom",
      "outputs": [],
      "stateMutability": "nonpayable",
      "type": "function"
    },
    {
      "inputs": [
        {
          "internalType": "address",
          "name": "from",
          "type": "address"
        },
        {
          "internalType": "address",
          "name": "to",
          "type": "address"
        },
        {
          "internalType": "uint256",
          "name": "id",
          "type": "uint256"
        },
        {
          "internalType": "uint256",
          "name": "amount",
          "type": "uint256"
        },
        {
          "internalType": "bytes",
          "name": "data",
          "type": "bytes"
        }
      ],
      "name": "safeTransferFrom",
      "outputs": [],
      "stateMutability": "nonpayable",
      "type": "function"
    },
    {
      "inputs": [
        {
          "internalType": "address",
          "name": "operator",
          "type": "address"
        },
        {
          "internalType": "bool",
          "name": "approved",
          "type": "bool"
        }
      ],
      "name": "setApprovalForAll",
      "outputs": [],
      "stateMutability": "nonpayable",
      "type": "function"
    },
    {
      "inputs": [
        {
          "internalType": "bytes4",
          "name": "interfaceId",
          "type": "bytes4"
        }
      ],
      "name": "supportsInterface",
      "outputs": [
        {
          "internalType": "bool",
          "name": "",
          "type": "bool"
        }
      ],
      "stateMutability": "view",
      "type": "function"
    },
    {
      "inputs": [
        {
          "internalType": "address",
          "name": "to",
          "type": "address"
        },
        {
          "internalType": "uint256",
          "name": "tokenId",
          "type": "uint256"
        },
        {
          "internalType": "uint256",
          "name": "value",
          "type": "uint256"
        }
      ],
      "name": "transfer",
      "outputs": [],
      "stateMutability": "nonpayable",
      "type": "function"
    },
    {
      "inputs": [
        {
          "internalType": "address",
          "name": "account",
          "type": "address"
        }
      ],
      "name": "unregisterConsumer",
      "outputs": [],
      "stateMutability": "nonpayable",
      "type": "function"
    },
    {
      "inputs": [
        {
          "internalType": "address",
          "name": "account",
          "type": "address"
        },
        {
          "internalType": "uint8",
          "name": "tokenTypeId",
          "type": "uint8"
        }
      ],
      "name": "unregisterDealer",
      "outputs": [],
      "stateMutability": "nonpayable",
      "type": "function"
    },
    {
      "inputs": [
        {
          "internalType": "uint256",
          "name": "",
          "type": "uint256"
        }
      ],
      "name": "uri",
      "outputs": [
        {
          "internalType": "string",
          "name": "",
          "type": "string"
        }
      ],
      "stateMutability": "view",
      "type": "function"
    }
  ],
  "bytecode": "0x6000600655601c60e09081527f52656e657761626c6520456e657267792043657274696669636174650000000061010052608090815260176101209081527f436172626f6e20456d697373696f6e73204f66667365740000000000000000006101405260a0526101a06040526011610160908152704175646974656420456d697373696f6e7360781b6101805260c0526200009f90600790600362000368565b50600060085560006009556000600a556000600b556000600c556000600d55348015620000cb57600080fd5b506040805180820190915260098152681b1bd8d85b1a1bdcdd60ba1b6020820152620001076301ffc9a760e01b6001600160e01b03620001bd16565b6200011b816001600160e01b036200021816565b62000136636cdb3d1360e11b6001600160e01b03620001bd16565b620001516303a24d0760e21b6001600160e01b03620001bd16565b50620001686000336001600160e01b036200023116565b620001936040516200017a90620004dd565b604051908190039020336001600160e01b036200023116565b620001a56040516200017a906200052f565b620001b76040516200017a9062000506565b6200058f565b6001600160e01b03198082161415620001f35760405162461bcd60e51b8152600401620001ea9062000558565b60405180910390fd5b6001600160e01b0319166000908152602081905260409020805460ff19166001179055565b80516200022d906003906020840190620003cc565b5050565b6200022d82826001600160e01b036200024616565b60008281526004602090815260409091206200026d918390620024df620002ca821b17901c565b156200022d57620002866001600160e01b03620002f316565b6001600160a01b0316816001600160a01b0316837f2f8788117e7eff1d82e926ec794901d17c78024a50270940304540a733656f0d60405160405180910390a45050565b6000620002ea836001600160a01b0384166001600160e01b03620002f816565b90505b92915050565b335b90565b60006200030f83836001600160e01b036200035016565b6200034757508154600181810184556000848152602080822090930184905584548482528286019093526040902091909155620002ed565b506000620002ed565b60009081526001919091016020526040902054151590565b828054828255906000526020600020908101928215620003ba579160200282015b82811115620003ba5782518051620003a9918491602090910190620003cc565b509160200191906001019062000389565b50620003c89291506200044d565b5090565b828054600181600116156101000203166002900490600052602060002090601f016020900481019282601f106200040f57805160ff19168380011785556200043f565b828001600101855582156200043f579182015b828111156200043f57825182559160200191906001019062000422565b50620003c892915062000475565b620002f591905b80821115620003c85760006200046b828262000492565b5060010162000454565b620002f591905b80821115620003c857600081556001016200047c565b50805460018160011615610100020316600290046000825580601f10620004ba5750620004da565b601f016020900490600052602060002090810190620004da919062000475565b50565b7f524547495354455245445f5245435f4445414c45520000000000000000000000815260150190565b7f524547495354455245445f454d495353494f4e535f41554449544f52000000008152601c0190565b7f524547495354455245445f4f46465345545f4445414c45520000000000000000815260180190565b6020808252601c908201527f4552433136353a20696e76616c696420696e7465726661636520696400000000604082015260600190565b6139ea806200059f6000396000f3fe608060405234801561001057600080fd5b50600436106102475760003560e01c806376aed2e11161013b578063c1e03728116100b8578063d547741f1161007c578063d547741f14610526578063e2e564f214610539578063e985e9c51461054c578063f242432a1461055f578063fcba79481461057257610247565b8063c1e03728146104a9578063ca15c873146104c9578063ce6ccfaf146104dc578063cf6ebee714610500578063d49498931461051357610247565b806392089c46116100ff57806392089c46146104555780639258d5c314610468578063a217fddf1461047b578063a22cb46514610483578063b46a08d71461049657610247565b806376aed2e1146103ff57806376ce47551461041257806378e5c5921461041a5780639010d07c1461042257806391d148541461044257610247565b806331aa4b20116101c957806353dbe9821161018d57806353dbe9821461039d57806354e2557c146103b05780635ddb368f146103c357806369f7ef44146103cb57806374490694146103de57610247565b806331aa4b201461033157806333781a0e1461034457806336568abe1461035757806344b22fdd1461036a5780634e1273f41461037d57610247565b80631ef68ef7116102105780631ef68ef7146102dd578063248a9ca3146102e55780632b04e840146102f85780632eb2c2d61461030b5780632f2ff15d1461031e57610247565b8062fdd58e1461024c57806301ffc9a714610275578063020c4f9714610295578063095bcdb6146102aa5780630e89341c146102bd575b600080fd5b61025f61025a366004612a30565b61057a565b60405161026c9190612f7a565b60405180910390f35b610288610283366004612ccb565b6105d6565b60405161026c9190612f46565b6102a86102a3366004612a5a565b6105f9565b005b6102a86102b8366004612a5a565b610753565b6102d06102cb366004612c6e565b61089f565b60405161026c9190612f83565b61025f610937565b61025f6102f3366004612c6e565b61094e565b61025f610306366004612a30565b610963565b6102a86103193660046128e6565b610976565b6102a861032c366004612c86565b610b88565b6102a861033f366004612a8d565b610bd0565b610288610352366004612897565b610cc3565b6102a8610365366004612c86565b610ce2565b6102a8610378366004612897565b610d24565b61039061038b366004612bac565b610de1565b60405161026c9190612f05565b6102a86103ab366004612897565b610f0a565b61025f6103be366004612d03565b610fc7565b61025f61102d565b6102886103d9366004612897565b611034565b6103f16103ec366004612d03565b6110c5565b60405161026c9291906138e3565b6102d061040d366004612c6e565b611139565b61025f611227565b61025f611233565b610435610430366004612caa565b61123f565b60405161026c9190612e4f565b610288610450366004612c86565b61125d565b610435610463366004612c6e565b61127b565b61025f610476366004612c6e565b6112c6565b61025f611303565b6102a86104913660046129f5565b611308565b6102a86104a4366004612ab8565b6113d6565b6104bc6104b7366004612c6e565b6116b6565b60405161026c91906137c6565b61025f6104d7366004612c6e565b6119d7565b6104ef6104ea366004612897565b6119ee565b60405161026c959493929190612f51565b61028861050e366004612c6e565b611a96565b61025f610521366004612d03565b611ad6565b6102a8610534366004612c86565b611b3c565b6102a8610547366004612a8d565b611b76565b61028861055a3660046128b2565b611c5e565b6102a861056d366004612990565b611c8c565b61025f611e26565b60006001600160a01b0383166105ab5760405162461bcd60e51b81526004016105a29061313f565b60405180910390fd5b5060008181526001602090815260408083206001600160a01b03861684529091529020545b92915050565b6001600160e01b0319811660009081526020819052604090205460ff165b919050565b600061061860405161060a90612dbd565b60405180910390203361125d565b9050600061062b60405161060a90612e26565b9050600061063e60405161060a90612dfd565b905082806106495750815b806106515750805b61066d5760405162461bcd60e51b81526004016105a290613110565b61067685611e32565b6106925760405162461bcd60e51b81526004016105a29061325c565b6000858152600560205260409020600b015460ff16156106c45760405162461bcd60e51b81526004016105a290613453565b6000858152600560205260409020600b8101805460ff19166001908117909155600c82018054870190559081015460ff16141561071157600b805485019055600880548590039055610740565b60008581526005602052604090206001015460ff166002141561074057600c8054850190556009805485900390555b61074b868686611e4d565b505050505050565b600061076460405161060a90612dde565b9050600061077760405161060a90612dbd565b9050600061078a60405161060a90612e26565b9050600061079d60405161060a90612dfd565b905083806107a85750825b806107b05750815b806107b85750805b6107d45760405162461bcd60e51b81526004016105a2906131db565b6107dd86611e32565b6107f95760405162461bcd60e51b81526004016105a29061325c565b61080286611a96565b1561081f5760405162461bcd60e51b81526004016105a29061359b565b61082887611f69565b6108445760405162461bcd60e51b81526004016105a290613327565b336001600160a01b038816141561086d5760405162461bcd60e51b81526004016105a2906136a8565b61089633888888604051806040016040528060048152602001630307830360e41b815250611c8c565b50505050505050565b60038054604080516020601f600260001961010060018816150201909516949094049384018190048102820181019092528281526060939092909183018282801561092b5780601f106109005761010080835404028352916020019161092b565b820191906000526020600020905b81548152906001019060200180831161090e57829003601f168201915b50505050509050919050565b60405161094390612e26565b604051809103902081565b60009081526004602052604090206002015490565b600061096f838361057a565b9392505050565b81518351146109975760405162461bcd60e51b81526004016105a2906136ee565b6001600160a01b0384166109bd5760405162461bcd60e51b81526004016105a2906133bc565b6109c5611f83565b6001600160a01b0316856001600160a01b031614806109eb57506109eb8561055a611f83565b610a075760405162461bcd60e51b81526004016105a290613401565b6000610a11611f83565b9050610a2181878787878761074b565b60005b8451811015610b22576000858281518110610a3b57fe5b602002602001015190506000858381518110610a5357fe5b60200260200101519050610ac0816040518060600160405280602a815260200161398b602a91396001600086815260200190815260200160002060008d6001600160a01b03166001600160a01b0316815260200190815260200160002054611f879092919063ffffffff16565b60008381526001602090815260408083206001600160a01b038e811685529252808320939093558a1681522054610af79082611fb3565b60009283526001602081815260408086206001600160a01b038d168752909152909320555001610a24565b50846001600160a01b0316866001600160a01b0316826001600160a01b03167f4a39dc06d4c0dbc64b70af90fd698a233a518aa5d07e595d983b8c0526c8f7fb8787604051610b72929190612f18565b60405180910390a461074b818787878787611fd8565b600082815260046020526040902060020154610ba690610450611f83565b610bc25760405162461bcd60e51b81526004016105a2906130c1565b610bcc8282612193565b5050565b610bdb60003361125d565b610bf75760405162461bcd60e51b81526004016105a2906135e6565b610c0081612202565b610c1c5760405162461bcd60e51b81526004016105a290613564565b8060ff1660011415610c4a57610c45604051610c3790612dbd565b604051809103902083610b88565b610c80565b8060ff1660021415610c6557610c45604051610c3790612e26565b8060ff1660031415610c8057610c80604051610c3790612dfd565b610c8b600083610b88565b6040516001600160a01b038316907fa8377deee15954185683d55effd369508b4935978c8cb2bab790bf04c570181490600090a25050565b60006105d0604051610cd490612dde565b60405180910390208361125d565b610cea611f83565b6001600160a01b0316816001600160a01b031614610d1a5760405162461bcd60e51b81526004016105a290613777565b610bcc8282612228565b6000610d3560405161060a90612dbd565b90506000610d4860405161060a90612e26565b90506000610d5b60405161060a90612dfd565b90508280610d665750815b80610d6e5750805b610d8a5760405162461bcd60e51b81526004016105a290613110565b610da7604051610d9990612dde565b604051809103902085610b88565b6040516001600160a01b038516907fa8377deee15954185683d55effd369508b4935978c8cb2bab790bf04c570181490600090a250505050565b60608151835114610e045760405162461bcd60e51b81526004016105a29061365f565b60608351604051908082528060200260200182016040528015610e31578160200160208202803883390190505b50905060005b8451811015610f025760006001600160a01b0316858281518110610e5757fe5b60200260200101516001600160a01b03161415610e865760405162461bcd60e51b81526004016105a29061318a565b60016000858381518110610e9657fe5b602002602001015181526020019081526020016000206000868381518110610eba57fe5b60200260200101516001600160a01b03166001600160a01b0316815260200190815260200160002054828281518110610eef57fe5b6020908102919091010152600101610e37565b509392505050565b6000610f1b60405161060a90612dbd565b90506000610f2e60405161060a90612e26565b90506000610f4160405161060a90612dfd565b90508280610f4c5750815b80610f545750805b610f705760405162461bcd60e51b81526004016105a290613110565b610f8d604051610f7f90612dde565b604051809103902085611b3c565b6040516001600160a01b038516907f98552ded770f1d05a505572f3387c108dbc6b566ea3d49f83cff3d1f1c72a04290600090a250505050565b6000610fd282612202565b610fee5760405162461bcd60e51b81526004016105a290613564565b8160ff166001141561100357506008546105f4565b8160ff166002141561101857506009546105f4565b8160ff16600314156105f45750600a546105f4565b6006545b90565b60008061105460405161104690612dbd565b60405180910390208461125d565b9050600061107560405161106790612e26565b60405180910390208561125d565b9050600061109660405161108890612dfd565b60405180910390208661125d565b905082806110a15750815b806110a95750805b156110ba57600193505050506105f4565b506000949350505050565b6000806110d183612202565b6110ed5760405162461bcd60e51b81526004016105a290613564565b8260ff1660011415611106575050600854600b54611134565b8260ff166002141561111f575050600954600c54611134565b8260ff1660031415611134575050600a54600d545b915091565b606061114482611e32565b6111605760405162461bcd60e51b81526004016105a29061325c565b6000828152600560205260409020600101546007805460609260001960ff918216011690811061118c57fe5b600091825260209182902001805460408051601f600260001961010060018716150201909416939093049283018590048502810185019091528181529283018282801561121a5780601f106111ef5761010080835404028352916020019161121a565b820191906000526020600020905b8154815290600101906020018083116111fd57829003601f168201915b5093979650505050505050565b60405161094390612dfd565b60405161094390612dde565b600082815260046020526040812061096f908363ffffffff61229716565b600082815260046020526040812061096f908363ffffffff6122a316565b600061128682611e32565b6112a25760405162461bcd60e51b81526004016105a29061325c565b5060009081526005602052604090206001015461010090046001600160a01b031690565b60006112d182611e32565b6112ed5760405162461bcd60e51b81526004016105a29061325c565b506000908152600560205260409020600c015490565b600081565b816001600160a01b031661131a611f83565b6001600160a01b031614156113415760405162461bcd60e51b81526004016105a290613616565b806002600061134e611f83565b6001600160a01b03908116825260208083019390935260409182016000908120918716808252919093529120805460ff191692151592909217909155611392611f83565b6001600160a01b03167f17307eab39ab6107e8899845ad3d59bd9653f200f220920489ca2b5937696c31836040516113ca9190612f46565b60405180910390a35050565b60006113e760405161060a90612dbd565b905060006113fa60405161060a90612e26565b9050600061140d60405161060a90612dfd565b905082806114185750815b806114205750805b61143c5760405162461bcd60e51b81526004016105a290613110565b6006805460010190819055600090815260056020526040902061145e8d612202565b61147a5760405162461bcd60e51b81526004016105a29061351c565b8c60ff16600114156114ca5761149560405161060a90612dbd565b6114b15760405162461bcd60e51b81526004016105a2906132d5565b600b8101805460ff19169055600880548d01905561156c565b8c60ff166002141561151a576114e560405161060a90612e26565b6115015760405162461bcd60e51b81526004016105a29061302c565b600b8101805460ff19169055600980548d01905561156c565b61152960405161060a90612dfd565b6115455760405162461bcd60e51b81526004016105a2906134cd565b600b8101805460ff19166001179055600c810180548d019055600d8054909c01909b5560009a5b606060065482600001819055508d8260010160006101000a81548160ff021916908360ff160217905550338260010160016101000a8154816001600160a01b0302191690836001600160a01b031602179055508e8260020160006101000a8154816001600160a01b0302191690836001600160a01b031602179055508b82600301908051906020019061160092919061267a565b50600482018b9055600582018a9055875161162490600884019060208b019061267a565b50865161163a90600984019060208a019061267a565b5042600683015560078201899055855161165d90600a840190602089019061267a565b5061166c8f6006548f846122b8565b7f5871761b381266e7e47309f0821d5b396364ebb6371d878871cac5393cb93ea860065460405161169d9190612f7a565b60405180910390a1505050505050505050505050505050565b6116be6126f8565b6116c782611e32565b6116e35760405162461bcd60e51b81526004016105a29061325c565b60008281526005602090815260409182902082516101c0810184528154815260018083015460ff811683860152610100908190046001600160a01b039081168488015260028086015490911660608501526003850180548851948116159093026000190190921604601f8101869004860283018601909652858252919492936080860193919291908301828280156117bc5780601f10611791576101008083540402835291602001916117bc565b820191906000526020600020905b81548152906001019060200180831161179f57829003601f168201915b5050505050815260200160048201548152602001600582015481526020016006820154815260200160078201548152602001600882018054600181600116156101000203166002900480601f0160208091040260200160405190810160405280929190818152602001828054600181600116156101000203166002900480156118865780601f1061185b57610100808354040283529160200191611886565b820191906000526020600020905b81548152906001019060200180831161186957829003601f168201915b505050918352505060098201805460408051602060026001851615610100026000190190941693909304601f810184900484028201840190925281815293820193929183018282801561191a5780601f106118ef5761010080835404028352916020019161191a565b820191906000526020600020905b8154815290600101906020018083116118fd57829003601f168201915b5050509183525050600a8201805460408051602060026001851615610100026000190190941693909304601f81018490048402820184019092528181529382019392918301828280156119ae5780601f10611983576101008083540402835291602001916119ae565b820191906000526020600020905b81548152906001019060200180831161199157829003601f168201915b5050509183525050600b82015460ff1615156020820152600c9091015460409091015292915050565b60008181526004602052604081206105d0906123a9565b600080808080806119ff818861125d565b90506000611a20604051611a1290612dbd565b60405180910390208961125d565b90506000611a41604051611a3390612e26565b60405180910390208a61125d565b90506000611a62604051611a5490612dfd565b60405180910390208b61125d565b90506000611a83604051611a7590612dde565b60405180910390208c61125d565b949b939a50919850965091945092505050565b6000611aa182611e32565b611abd5760405162461bcd60e51b81526004016105a29061325c565b506000908152600560205260409020600b015460ff1690565b6000611ae182612202565b611afd5760405162461bcd60e51b81526004016105a290613564565b8160ff1660011415611b125750600c546105f4565b8160ff1660021415611b275750600c546105f4565b8160ff16600314156105f45750600d546105f4565b600082815260046020526040902060020154611b5a90610450611f83565b610d1a5760405162461bcd60e51b81526004016105a29061336c565b611b8160003361125d565b611b9d5760405162461bcd60e51b81526004016105a2906135e6565b611ba681612202565b611bc25760405162461bcd60e51b81526004016105a290613564565b8060ff1660011415611bf057611beb604051611bdd90612dbd565b604051809103902083611b3c565b611c26565b8060ff1660021415611c0b57611beb604051611bdd90612e26565b8060ff1660031415611c2657611c26604051611bdd90612dfd565b6040516001600160a01b038316907f98552ded770f1d05a505572f3387c108dbc6b566ea3d49f83cff3d1f1c72a04290600090a25050565b6001600160a01b03918216600090815260026020908152604080832093909416825291909152205460ff1690565b6001600160a01b038416611cb25760405162461bcd60e51b81526004016105a2906133bc565b611cba611f83565b6001600160a01b0316856001600160a01b03161480611ce05750611ce08561055a611f83565b611cfc5760405162461bcd60e51b81526004016105a29061328c565b6000611d06611f83565b9050611d26818787611d17886123b4565b611d20886123b4565b8761074b565b611d73836040518060600160405280602a815260200161398b602a913960008781526001602090815260408083206001600160a01b038d168452909152902054919063ffffffff611f8716565b60008581526001602090815260408083206001600160a01b038b81168552925280832093909355871681522054611daa9084611fb3565b60008581526001602090815260408083206001600160a01b03808b168086529190935292819020939093559151909188811691908416907fc3d58168c5ae7397731d063d5bbf3d657854427343f4c083240f7aacaa2d0f6290611e1090899089906138e3565b60405180910390a461074b8187878787876123f8565b60405161094390612dbd565b60008160065410611e45575060016105f4565b506000919050565b6001600160a01b038316611e735760405162461bcd60e51b81526004016105a29061348a565b6000611e7d611f83565b9050611ead81856000611e8f876123b4565b611e98876123b4565b6040518060200160405280600081525061074b565b611efa826040518060600160405280602481526020016139676024913960008681526001602090815260408083206001600160a01b038b168452909152902054919063ffffffff611f8716565b60008481526001602090815260408083206001600160a01b03808a16808652919093528184209490945551919291908416907fc3d58168c5ae7397731d063d5bbf3d657854427343f4c083240f7aacaa2d0f6290611f5b90889088906138e3565b60405180910390a450505050565b6000611f7482611034565b806105d057506105d082610cc3565b3390565b60008184841115611fab5760405162461bcd60e51b81526004016105a29190612f83565b505050900390565b60008282018381101561096f5760405162461bcd60e51b81526004016105a290613225565b611fea846001600160a01b03166124d9565b1561074b5760405163bc197c8160e01b81526001600160a01b0385169063bc197c81906120239089908990889088908890600401612e63565b602060405180830381600087803b15801561203d57600080fd5b505af192505050801561206d575060408051601f3d908101601f1916820190925261206a91810190612ce7565b60015b612163576040516000815260443d101561208957506000612126565b60046000803e60005160e01c6308c379a081146120aa576000915050612126565b60043d036004833e81513d602482011167ffffffffffffffff821117156120d657600092505050612126565b808301805167ffffffffffffffff8111156120f8576000945050505050612126565b8060208301013d860181111561211657600095505050505050612126565b601f01601f191660405250925050505b80612131575061214b565b8060405162461bcd60e51b81526004016105a29190612f83565b60405162461bcd60e51b81526004016105a290612f96565b6001600160e01b0319811663bc197c8160e01b146108965760405162461bcd60e51b81526004016105a290613079565b60008281526004602052604090206121b1908263ffffffff6124df16565b15610bcc576121be611f83565b6001600160a01b0316816001600160a01b0316837f2f8788117e7eff1d82e926ec794901d17c78024a50270940304540a733656f0d60405160405180910390a45050565b6000808260ff1611801561221b575060075460ff831611155b15611e45575060016105f4565b6000828152600460205260409020612246908263ffffffff6124f416565b15610bcc57612253611f83565b6001600160a01b0316816001600160a01b0316837ff6391f5c32d9c69d2a47ea670b442974b53935d1edc7fd64eb21e047a839171b60405160405180910390a45050565b600061096f8383612509565b600061096f836001600160a01b03841661254e565b6001600160a01b0384166122de5760405162461bcd60e51b81526004016105a290613736565b60006122e8611f83565b90506122fa81600087611d17886123b4565b60008481526001602090815260408083206001600160a01b038916845290915290205461232d908463ffffffff611fb316565b60008581526001602090815260408083206001600160a01b03808b16808652919093528184209490945551908416907fc3d58168c5ae7397731d063d5bbf3d657854427343f4c083240f7aacaa2d0f629061238b90899089906138e3565b60405180910390a46123a2816000878787876123f8565b5050505050565b60006105d082612566565b6040805160018082528183019092526060918291906020808301908038833901905050905082816000815181106123e757fe5b602090810291909101015292915050565b61240a846001600160a01b03166124d9565b1561074b5760405163f23a6e6160e01b81526001600160a01b0385169063f23a6e61906124439089908990889088908890600401612ec0565b602060405180830381600087803b15801561245d57600080fd5b505af192505050801561248d575060408051601f3d908101601f1916820190925261248a91810190612ce7565b60015b6124a9576040516000815260443d101561208957506000612126565b6001600160e01b0319811663f23a6e6160e01b146108965760405162461bcd60e51b81526004016105a290613079565b3b151590565b600061096f836001600160a01b03841661256a565b600061096f836001600160a01b0384166125b4565b8154600090821061252c5760405162461bcd60e51b81526004016105a290612fea565b82600001828154811061253b57fe5b9060005260206000200154905092915050565b60009081526001919091016020526040902054151590565b5490565b6000612576838361254e565b6125ac575081546001818101845560008481526020808220909301849055845484825282860190935260409020919091556105d0565b5060006105d0565b6000818152600183016020526040812054801561267057835460001980830191908101906000908790839081106125e757fe5b906000526020600020015490508087600001848154811061260457fe5b60009182526020808320909101929092558281526001898101909252604090209084019055865487908061263457fe5b600190038181906000526020600020016000905590558660010160008781526020019081526020016000206000905560019450505050506105d0565b60009150506105d0565b828054600181600116156101000203166002900490600052602060002090601f016020900481019282601f106126bb57805160ff19168380011785556126e8565b828001600101855582156126e8579182015b828111156126e85782518255916020019190600101906126cd565b506126f492915061277e565b5090565b604051806101c0016040528060008152602001600060ff16815260200160006001600160a01b0316815260200160006001600160a01b031681526020016060815260200160008152602001600081526020016000815260200160008152602001606081526020016060815260200160608152602001600015158152602001600081525090565b61103191905b808211156126f45760008155600101612784565b80356001600160a01b03811681146105d057600080fd5b600082601f8301126127bf578081fd5b81356127d26127cd82613918565b6138f1565b8181529150602080830190848101818402860182018710156127f357600080fd5b60005b84811015612812578135845292820192908201906001016127f6565b505050505092915050565b600082601f83011261282d578081fd5b813567ffffffffffffffff811115612843578182fd5b612856601f8201601f19166020016138f1565b915080825283602082850101111561286d57600080fd5b8060208401602084013760009082016020015292915050565b803560ff811681146105d057600080fd5b6000602082840312156128a8578081fd5b61096f8383612798565b600080604083850312156128c4578081fd5b6128ce8484612798565b91506128dd8460208501612798565b90509250929050565b600080600080600060a086880312156128fd578081fd5b853561290881613938565b9450602086013561291881613938565b9350604086013567ffffffffffffffff80821115612934578283fd5b61294089838a016127af565b94506060880135915080821115612955578283fd5b61296189838a016127af565b93506080880135915080821115612976578283fd5b506129838882890161281d565b9150509295509295909350565b600080600080600060a086880312156129a7578081fd5b6129b18787612798565b94506129c08760208801612798565b93506040860135925060608601359150608086013567ffffffffffffffff8111156129e9578182fd5b6129838882890161281d565b60008060408385031215612a07578182fd5b612a118484612798565b915060208301358015158114612a25578182fd5b809150509250929050565b60008060408385031215612a42578182fd5b612a4c8484612798565b946020939093013593505050565b600080600060608486031215612a6e578283fd5b612a788585612798565b95602085013595506040909401359392505050565b60008060408385031215612a9f578182fd5b612aa98484612798565b91506128dd8460208501612886565b6000806000806000806000806000806101408b8d031215612ad7578485fd5b612ae18c8c612798565b9950612af08c60208d01612886565b985060408b0135975060608b013567ffffffffffffffff80821115612b13578687fd5b612b1f8e838f0161281d565b985060808d0135975060a08d0135965060c08d0135955060e08d0135915080821115612b49578485fd5b612b558e838f0161281d565b94506101008d0135915080821115612b6b578384fd5b612b778e838f0161281d565b93506101208d0135915080821115612b8d578283fd5b50612b9a8d828e0161281d565b9150509295989b9194979a5092959850565b60008060408385031215612bbe578182fd5b823567ffffffffffffffff80821115612bd5578384fd5b81850186601f820112612be6578485fd5b80359250612bf66127cd84613918565b80848252602080830192508084018a828389028701011115612c16578889fd5b8894505b86851015612c4057612c2c8b82612798565b845260019490940193928101928101612c1a565b509096508701359350505080821115612c57578283fd5b50612c64858286016127af565b9150509250929050565b600060208284031215612c7f578081fd5b5035919050565b60008060408385031215612c98578182fd5b823591506020830135612a2581613938565b60008060408385031215612cbc578182fd5b50508035926020909101359150565b600060208284031215612cdc578081fd5b813561096f81613950565b600060208284031215612cf8578081fd5b815161096f81613950565b600060208284031215612d14578081fd5b61096f8383612886565b6001600160a01b03169052565b6000815180845260208085019450808401835b83811015612d5a57815187529582019590820190600101612d3e565b509495945050505050565b15159052565b60008151808452815b81811015612d9057602081850181015186830182015201612d74565b81811115612da15782602083870101525b50601f01601f19169290920160200192915050565b60ff169052565b742922a3a4a9aa22a922a22fa922a1afa222a0a622a960591b815260150190565b722922a3a4a9aa22a922a22fa1a7a729aaa6a2a960691b815260130190565b7f524547495354455245445f454d495353494f4e535f41554449544f52000000008152601c0190565b7f524547495354455245445f4f46465345545f4445414c45520000000000000000815260180190565b6001600160a01b0391909116815260200190565b6001600160a01b0386811682528516602082015260a060408201819052600090612e8f90830186612d2b565b8281036060840152612ea18186612d2b565b8381036080850152612eb38186612d6b565b9998505050505050505050565b6001600160a01b03868116825285166020820152604081018490526060810183905260a060808201819052600090612efa90830184612d6b565b979650505050505050565b60006020825261096f6020830184612d2b565b600060408252612f2b6040830185612d2b565b8281036020840152612f3d8185612d2b565b95945050505050565b901515815260200190565b941515855292151560208501529015156040840152151560608301521515608082015260a00190565b90815260200190565b60006020825261096f6020830184612d6b565b60208082526034908201527f455243313135353a207472616e7366657220746f206e6f6e20455243313135356040820152732932b1b2b4bb32b91034b6b83632b6b2b73a32b960611b606082015260800190565b60208082526022908201527f456e756d657261626c655365743a20696e646578206f7574206f6620626f756e604082015261647360f01b606082015260800190565b6020808252602d908201527f596f7520617265206e6f74206120436172626f6e20456d697373696f6e73204f60408201526c333339b2ba103232b0b632b91760991b606082015260800190565b60208082526028908201527f455243313135353a204552433131353552656365697665722072656a656374656040820152676420746f6b656e7360c01b606082015260800190565b6020808252602f908201527f416363657373436f6e74726f6c3a2073656e646572206d75737420626520616e60408201526e0818591b5a5b881d1bc819dc985b9d608a1b606082015260800190565b6020808252601590820152742cb7ba9030b932903737ba1030903232b0b632b91760591b604082015260600190565b6020808252602b908201527f455243313135353a2062616c616e636520717565727920666f7220746865207a60408201526a65726f206164647265737360a81b606082015260800190565b60208082526031908201527f455243313135353a2062617463682062616c616e636520717565727920666f7260408201527020746865207a65726f206164647265737360781b606082015260800190565b6020808252602a908201527f596f75206d75737420626520656974686572206120636f6e73756d6572206f726040820152691030903232b0b632b91760b11b606082015260800190565b6020808252601b908201527f536166654d6174683a206164646974696f6e206f766572666c6f770000000000604082015260600190565b6020808252601690820152751d1bdad95b925908191bd95cc81b9bdd08195e1a5cdd60521b604082015260600190565b60208082526029908201527f455243313135353a2063616c6c6572206973206e6f74206f776e6572206e6f7260408201526808185c1c1c9bdd995960ba1b606082015260800190565b60208082526032908201527f596f7520617265206e6f7420612052656e657761626c6520456e65726779204360408201527132b93a34b334b1b0ba32903232b0b632b91760711b606082015260800190565b60208082526025908201527f526563697069656e74206d75737420626520636f6e73756d6572206f7220646560408201526430b632b91760d91b606082015260800190565b60208082526030908201527f416363657373436f6e74726f6c3a2073656e646572206d75737420626520616e60408201526f2061646d696e20746f207265766f6b6560801b606082015260800190565b60208082526025908201527f455243313135353a207472616e7366657220746f20746865207a65726f206164604082015264647265737360d81b606082015260800190565b60208082526032908201527f455243313135353a207472616e736665722063616c6c6572206973206e6f74206040820152711bdddb995c881b9bdc88185c1c1c9bdd995960721b606082015260800190565b60208082526018908201527f746f6b656e20697320616c726561647920726574697265640000000000000000604082015260600190565b60208082526023908201527f455243313135353a206275726e2066726f6d20746865207a65726f206164647260408201526265737360e81b606082015260800190565b6020808252602f908201527f596f7520617265206e6f7420616e204175646974656420456d697373696f6e7360408201526e1020b6b7bab73a103232b0b632b91760891b606082015260800190565b60208082526028908201527f4661696c656420746f2069737375653a20746f6b656e5479706549642069732060408201526734b73b30b634b21760c11b606082015260800190565b60208082526019908201527f546f6b656e207479706520646f6573206e6f7420657869737400000000000000604082015260600190565b6020808252602b908201527f546f6b656e20697320726574697265642e205472616e73666572206973206e6f60408201526a1d081c195c9b5a5d1d195960aa1b606082015260800190565b6020808252601690820152752cb7ba9030b932903737ba103a34329037bbb732b91760511b604082015260600190565b60208082526029908201527f455243313135353a2073657474696e6720617070726f76616c20737461747573604082015268103337b91039b2b63360b91b606082015260800190565b60208082526029908201527f455243313135353a206163636f756e747320616e6420696473206c656e677468604082015268040dad2e6dac2e8c6d60bb1b606082015260800190565b60208082526026908201527f53656e64657220616e642072656365697665722063616e6e6f74206265207468604082015265652073616d6560d01b606082015260800190565b60208082526028908201527f455243313135353a2069647320616e6420616d6f756e7473206c656e677468206040820152670dad2e6dac2e8c6d60c31b606082015260800190565b60208082526021908201527f455243313135353a206d696e7420746f20746865207a65726f206164647265736040820152607360f81b606082015260800190565b6020808252602f908201527f416363657373436f6e74726f6c3a2063616e206f6e6c792072656e6f756e636560408201526e103937b632b9903337b91039b2b63360891b606082015260800190565b6000602082528251602083015260208301516137e56040840182612db6565b5060408301516137f86060840182612d1e565b50606083015161380b6080840182612d1e565b5060808301516101c08060a08501526138286101e0850183612d6b565b60a086015160c086015260c086015160e086015260e08601519250610100838187015280870151935050610120838187015280870151935050601f1961014081878403018188015261387a8386612d6b565b81890151955061016093508288820301848901526138988187612d6b565b91505082880151945061018092508187820301838801526138b98186612d6b565b9150508187015193506101a091506138d382870185612d65565b9501519301929092525090919050565b918252602082015260400190565b60405181810167ffffffffffffffff8111828210171561391057600080fd5b604052919050565b600067ffffffffffffffff82111561392e578081fd5b5060209081020190565b6001600160a01b038116811461394d57600080fd5b50565b6001600160e01b03198116811461394d57600080fdfe455243313135353a206275726e20616d6f756e7420657863656564732062616c616e6365455243313135353a20696e73756666696369656e742062616c616e636520666f72207472616e73666572a2646970667358221220ee93a4051b607f877081bc29f4495ce7cbc0afb34ca869896218a521247e87e364736f6c63430006020033",
  "linkReferences": {},
  "deployedLinkReferences": {}
}