{
  "_format": "hh-sol-artifact-1",
  "contractName": "NetEmissionsTokenNetwork",
  "sourceName": "contracts/NetEmissionsTokenNetwork.sol",
  "abi": [
    {
      "inputs": [
        {
          "internalType": "address",
          "name": "admin",
          "type": "address"
        }
      ],
      "stateMutability": "nonpayable",
      "type": "constructor"
    },
    {
      "anonymous": false,
      "inputs": [
        {
          "indexed": true,
          "internalType": "address",
          "name": "account",
          "type": "address"
        },
        {
          "indexed": true,
          "internalType": "address",
          "name": "operator",
          "type": "address"
        },
        {
          "indexed": false,
          "internalType": "bool",
          "name": "approved",
          "type": "bool"
        }
      ],
      "name": "ApprovalForAll",
      "type": "event"
    },
    {
      "anonymous": false,
      "inputs": [
        {
          "indexed": true,
          "internalType": "address",
          "name": "account",
          "type": "address"
        }
      ],
      "name": "RegisteredConsumer",
      "type": "event"
    },
    {
      "anonymous": false,
      "inputs": [
        {
          "indexed": true,
          "internalType": "address",
          "name": "account",
          "type": "address"
        }
      ],
      "name": "RegisteredDealer",
      "type": "event"
    },
    {
      "anonymous": false,
      "inputs": [
        {
          "indexed": true,
          "internalType": "bytes32",
          "name": "role",
          "type": "bytes32"
        },
        {
          "indexed": true,
          "internalType": "bytes32",
          "name": "previousAdminRole",
          "type": "bytes32"
        },
        {
          "indexed": true,
          "internalType": "bytes32",
          "name": "newAdminRole",
          "type": "bytes32"
        }
      ],
      "name": "RoleAdminChanged",
      "type": "event"
    },
    {
      "anonymous": false,
      "inputs": [
        {
          "indexed": true,
          "internalType": "bytes32",
          "name": "role",
          "type": "bytes32"
        },
        {
          "indexed": true,
          "internalType": "address",
          "name": "account",
          "type": "address"
        },
        {
          "indexed": true,
          "internalType": "address",
          "name": "sender",
          "type": "address"
        }
      ],
      "name": "RoleGranted",
      "type": "event"
    },
    {
      "anonymous": false,
      "inputs": [
        {
          "indexed": true,
          "internalType": "bytes32",
          "name": "role",
          "type": "bytes32"
        },
        {
          "indexed": true,
          "internalType": "address",
          "name": "account",
          "type": "address"
        },
        {
          "indexed": true,
          "internalType": "address",
          "name": "sender",
          "type": "address"
        }
      ],
      "name": "RoleRevoked",
      "type": "event"
    },
    {
      "anonymous": false,
      "inputs": [
        {
          "indexed": false,
          "internalType": "uint256",
          "name": "availableBalance",
          "type": "uint256"
        },
        {
          "indexed": false,
          "internalType": "uint256",
          "name": "retiredBalance",
          "type": "uint256"
        },
        {
          "indexed": false,
          "internalType": "uint256",
          "name": "tokenId",
          "type": "uint256"
        },
        {
          "indexed": false,
          "internalType": "uint8",
          "name": "tokenTypeId",
          "type": "uint8"
        },
        {
          "indexed": true,
          "internalType": "address",
          "name": "issuer",
          "type": "address"
        },
        {
          "indexed": true,
          "internalType": "address",
          "name": "issuee",
          "type": "address"
        },
        {
          "indexed": false,
          "internalType": "uint256",
          "name": "fromDate",
          "type": "uint256"
        },
        {
          "indexed": false,
          "internalType": "uint256",
          "name": "thruDate",
          "type": "uint256"
        },
        {
          "indexed": false,
          "internalType": "uint256",
          "name": "dateCreated",
          "type": "uint256"
        },
        {
          "indexed": false,
          "internalType": "uint256",
          "name": "automaticRetireDate",
          "type": "uint256"
        },
        {
          "indexed": false,
          "internalType": "string",
          "name": "metadata",
          "type": "string"
        },
        {
          "indexed": false,
          "internalType": "string",
          "name": "manifest",
          "type": "string"
        },
        {
          "indexed": false,
          "internalType": "string",
          "name": "description",
          "type": "string"
        }
      ],
      "name": "TokenCreated",
      "type": "event"
    },
    {
      "anonymous": false,
      "inputs": [
        {
          "indexed": true,
          "internalType": "address",
          "name": "account",
          "type": "address"
        },
        {
          "indexed": false,
          "internalType": "uint256",
          "name": "tokenId",
          "type": "uint256"
        },
        {
          "indexed": false,
          "internalType": "uint256",
          "name": "amount",
          "type": "uint256"
        }
      ],
      "name": "TokenRetired",
      "type": "event"
    },
    {
      "anonymous": false,
      "inputs": [
        {
          "indexed": true,
          "internalType": "address",
          "name": "operator",
          "type": "address"
        },
        {
          "indexed": true,
          "internalType": "address",
          "name": "from",
          "type": "address"
        },
        {
          "indexed": true,
          "internalType": "address",
          "name": "to",
          "type": "address"
        },
        {
          "indexed": false,
          "internalType": "uint256[]",
          "name": "ids",
          "type": "uint256[]"
        },
        {
          "indexed": false,
          "internalType": "uint256[]",
          "name": "values",
          "type": "uint256[]"
        }
      ],
      "name": "TransferBatch",
      "type": "event"
    },
    {
      "anonymous": false,
      "inputs": [
        {
          "indexed": true,
          "internalType": "address",
          "name": "operator",
          "type": "address"
        },
        {
          "indexed": true,
          "internalType": "address",
          "name": "from",
          "type": "address"
        },
        {
          "indexed": true,
          "internalType": "address",
          "name": "to",
          "type": "address"
        },
        {
          "indexed": false,
          "internalType": "uint256",
          "name": "id",
          "type": "uint256"
        },
        {
          "indexed": false,
          "internalType": "uint256",
          "name": "value",
          "type": "uint256"
        }
      ],
      "name": "TransferSingle",
      "type": "event"
    },
    {
      "anonymous": false,
      "inputs": [
        {
          "indexed": false,
          "internalType": "string",
          "name": "value",
          "type": "string"
        },
        {
          "indexed": true,
          "internalType": "uint256",
          "name": "id",
          "type": "uint256"
        }
      ],
      "name": "URI",
      "type": "event"
    },
    {
      "anonymous": false,
      "inputs": [
        {
          "indexed": true,
          "internalType": "address",
          "name": "account",
          "type": "address"
        }
      ],
      "name": "UnregisteredConsumer",
      "type": "event"
    },
    {
      "anonymous": false,
      "inputs": [
        {
          "indexed": true,
          "internalType": "address",
          "name": "account",
          "type": "address"
        }
      ],
      "name": "UnregisteredDealer",
      "type": "event"
    },
    {
      "inputs": [],
      "name": "DEFAULT_ADMIN_ROLE",
      "outputs": [
        {
          "internalType": "bytes32",
          "name": "",
          "type": "bytes32"
        }
      ],
      "stateMutability": "view",
      "type": "function"
    },
    {
      "inputs": [],
      "name": "REGISTERED_CONSUMER",
      "outputs": [
        {
          "internalType": "bytes32",
          "name": "",
          "type": "bytes32"
        }
      ],
      "stateMutability": "view",
      "type": "function"
    },
    {
      "inputs": [],
      "name": "REGISTERED_DEALER",
      "outputs": [
        {
          "internalType": "bytes32",
          "name": "",
          "type": "bytes32"
        }
      ],
      "stateMutability": "view",
      "type": "function"
    },
    {
      "inputs": [],
      "name": "REGISTERED_EMISSIONS_AUDITOR",
      "outputs": [
        {
          "internalType": "bytes32",
          "name": "",
          "type": "bytes32"
        }
      ],
      "stateMutability": "view",
      "type": "function"
    },
    {
      "inputs": [],
      "name": "REGISTERED_OFFSET_DEALER",
      "outputs": [
        {
          "internalType": "bytes32",
          "name": "",
          "type": "bytes32"
        }
      ],
      "stateMutability": "view",
      "type": "function"
    },
    {
      "inputs": [],
      "name": "REGISTERED_REC_DEALER",
      "outputs": [
        {
          "internalType": "bytes32",
          "name": "",
          "type": "bytes32"
        }
      ],
      "stateMutability": "view",
      "type": "function"
    },
    {
      "inputs": [
        {
          "internalType": "address",
          "name": "account",
          "type": "address"
        },
        {
          "internalType": "uint256",
          "name": "id",
          "type": "uint256"
        }
      ],
      "name": "balanceOf",
      "outputs": [
        {
          "internalType": "uint256",
          "name": "",
          "type": "uint256"
        }
      ],
      "stateMutability": "view",
      "type": "function"
    },
    {
      "inputs": [
        {
          "internalType": "address[]",
          "name": "accounts",
          "type": "address[]"
        },
        {
          "internalType": "uint256[]",
          "name": "ids",
          "type": "uint256[]"
        }
      ],
      "name": "balanceOfBatch",
      "outputs": [
        {
          "internalType": "uint256[]",
          "name": "",
          "type": "uint256[]"
        }
      ],
      "stateMutability": "view",
      "type": "function"
    },
    {
      "inputs": [
        {
          "internalType": "address",
          "name": "account",
          "type": "address"
        },
        {
          "internalType": "uint256",
          "name": "tokenId",
          "type": "uint256"
        }
      ],
      "name": "getAvailableAndRetired",
      "outputs": [
        {
          "internalType": "uint256",
          "name": "",
          "type": "uint256"
        },
        {
          "internalType": "uint256",
          "name": "",
          "type": "uint256"
        }
      ],
      "stateMutability": "view",
      "type": "function"
    },
    {
      "inputs": [
        {
          "internalType": "uint256",
          "name": "tokenId",
          "type": "uint256"
        }
      ],
      "name": "getHolders",
      "outputs": [
        {
          "internalType": "address[]",
          "name": "",
          "type": "address[]"
        }
      ],
      "stateMutability": "view",
      "type": "function"
    },
    {
      "inputs": [
        {
          "internalType": "uint256",
          "name": "tokenId",
          "type": "uint256"
        }
      ],
      "name": "getIssuer",
      "outputs": [
        {
          "internalType": "address",
          "name": "",
          "type": "address"
        }
      ],
      "stateMutability": "view",
      "type": "function"
    },
    {
      "inputs": [],
      "name": "getNumOfUniqueTokens",
      "outputs": [
        {
          "internalType": "uint256",
          "name": "",
          "type": "uint256"
        }
      ],
      "stateMutability": "view",
      "type": "function"
    },
    {
      "inputs": [
        {
          "internalType": "bytes32",
          "name": "role",
          "type": "bytes32"
        }
      ],
      "name": "getRoleAdmin",
      "outputs": [
        {
          "internalType": "bytes32",
          "name": "",
          "type": "bytes32"
        }
      ],
      "stateMutability": "view",
      "type": "function"
    },
    {
      "inputs": [
        {
          "internalType": "bytes32",
          "name": "role",
          "type": "bytes32"
        },
        {
          "internalType": "uint256",
          "name": "index",
          "type": "uint256"
        }
      ],
      "name": "getRoleMember",
      "outputs": [
        {
          "internalType": "address",
          "name": "",
          "type": "address"
        }
      ],
      "stateMutability": "view",
      "type": "function"
    },
    {
      "inputs": [
        {
          "internalType": "bytes32",
          "name": "role",
          "type": "bytes32"
        }
      ],
      "name": "getRoleMemberCount",
      "outputs": [
        {
          "internalType": "uint256",
          "name": "",
          "type": "uint256"
        }
      ],
      "stateMutability": "view",
      "type": "function"
    },
    {
      "inputs": [
        {
          "internalType": "address",
          "name": "account",
          "type": "address"
        }
      ],
      "name": "getRoles",
      "outputs": [
        {
          "internalType": "bool",
          "name": "",
          "type": "bool"
        },
        {
          "internalType": "bool",
          "name": "",
          "type": "bool"
        },
        {
          "internalType": "bool",
          "name": "",
          "type": "bool"
        },
        {
          "internalType": "bool",
          "name": "",
          "type": "bool"
        },
        {
          "internalType": "bool",
          "name": "",
          "type": "bool"
        }
      ],
      "stateMutability": "view",
      "type": "function"
    },
    {
      "inputs": [
        {
          "internalType": "uint256",
          "name": "tokenId",
          "type": "uint256"
        }
      ],
      "name": "getTokenDetails",
      "outputs": [
        {
          "components": [
            {
              "internalType": "uint256",
              "name": "tokenId",
              "type": "uint256"
            },
            {
              "internalType": "uint8",
              "name": "tokenTypeId",
              "type": "uint8"
            },
            {
              "internalType": "address",
              "name": "issuer",
              "type": "address"
            },
            {
              "internalType": "address",
              "name": "issuee",
              "type": "address"
            },
            {
              "internalType": "uint256",
              "name": "fromDate",
              "type": "uint256"
            },
            {
              "internalType": "uint256",
              "name": "thruDate",
              "type": "uint256"
            },
            {
              "internalType": "uint256",
              "name": "dateCreated",
              "type": "uint256"
            },
            {
              "internalType": "uint256",
              "name": "automaticRetireDate",
              "type": "uint256"
            },
            {
              "internalType": "string",
              "name": "metadata",
              "type": "string"
            },
            {
              "internalType": "string",
              "name": "manifest",
              "type": "string"
            },
            {
              "internalType": "string",
              "name": "description",
              "type": "string"
            }
          ],
          "internalType": "struct NetEmissionsTokenNetwork.Clm8TokenReturnDetails",
          "name": "",
          "type": "tuple"
        }
      ],
      "stateMutability": "view",
      "type": "function"
    },
    {
      "inputs": [
        {
          "internalType": "address",
          "name": "account",
          "type": "address"
        },
        {
          "internalType": "uint256",
          "name": "tokenId",
          "type": "uint256"
        }
      ],
      "name": "getTokenRetiredAmount",
      "outputs": [
        {
          "internalType": "uint256",
          "name": "",
          "type": "uint256"
        }
      ],
      "stateMutability": "view",
      "type": "function"
    },
    {
      "inputs": [
        {
          "internalType": "uint256",
          "name": "tokenId",
          "type": "uint256"
        }
      ],
      "name": "getTokenType",
      "outputs": [
        {
          "internalType": "string",
          "name": "",
          "type": "string"
        }
      ],
      "stateMutability": "view",
      "type": "function"
    },
    {
      "inputs": [
        {
          "internalType": "bytes32",
          "name": "role",
          "type": "bytes32"
        },
        {
          "internalType": "address",
          "name": "account",
          "type": "address"
        }
      ],
      "name": "grantRole",
      "outputs": [],
      "stateMutability": "nonpayable",
      "type": "function"
    },
    {
      "inputs": [
        {
          "internalType": "bytes32",
          "name": "role",
          "type": "bytes32"
        },
        {
          "internalType": "address",
          "name": "account",
          "type": "address"
        }
      ],
      "name": "hasRole",
      "outputs": [
        {
          "internalType": "bool",
          "name": "",
          "type": "bool"
        }
      ],
      "stateMutability": "view",
      "type": "function"
    },
    {
      "inputs": [
        {
          "internalType": "address",
          "name": "account",
          "type": "address"
        },
        {
          "internalType": "address",
          "name": "operator",
          "type": "address"
        }
      ],
      "name": "isApprovedForAll",
      "outputs": [
        {
          "internalType": "bool",
          "name": "",
          "type": "bool"
        }
      ],
      "stateMutability": "view",
      "type": "function"
    },
    {
      "inputs": [
        {
          "internalType": "address",
          "name": "account",
          "type": "address"
        }
      ],
      "name": "isConsumerRegistered",
      "outputs": [
        {
          "internalType": "bool",
          "name": "",
          "type": "bool"
        }
      ],
      "stateMutability": "view",
      "type": "function"
    },
    {
      "inputs": [
        {
          "internalType": "address",
          "name": "account",
          "type": "address"
        }
      ],
      "name": "isDealerRegistered",
      "outputs": [
        {
          "internalType": "bool",
          "name": "",
          "type": "bool"
        }
      ],
      "stateMutability": "view",
      "type": "function"
    },
    {
      "inputs": [
        {
          "internalType": "address",
          "name": "issuee",
          "type": "address"
        },
        {
          "internalType": "uint8",
          "name": "tokenTypeId",
          "type": "uint8"
        },
        {
          "internalType": "uint256",
          "name": "quantity",
          "type": "uint256"
        },
        {
          "internalType": "uint256",
          "name": "fromDate",
          "type": "uint256"
        },
        {
          "internalType": "uint256",
          "name": "thruDate",
          "type": "uint256"
        },
        {
          "internalType": "uint256",
          "name": "automaticRetireDate",
          "type": "uint256"
        },
        {
          "internalType": "string",
          "name": "metadata",
          "type": "string"
        },
        {
          "internalType": "string",
          "name": "manifest",
          "type": "string"
        },
        {
          "internalType": "string",
          "name": "description",
          "type": "string"
        }
      ],
      "name": "issue",
      "outputs": [],
      "stateMutability": "nonpayable",
      "type": "function"
    },
    {
      "inputs": [
        {
          "internalType": "address",
          "name": "issuee",
          "type": "address"
        },
        {
          "internalType": "address",
          "name": "issuer",
          "type": "address"
        },
        {
          "internalType": "uint8",
          "name": "tokenTypeId",
          "type": "uint8"
        },
        {
          "internalType": "uint256",
          "name": "quantity",
          "type": "uint256"
        },
        {
          "internalType": "uint256",
          "name": "fromDate",
          "type": "uint256"
        },
        {
          "internalType": "uint256",
          "name": "thruDate",
          "type": "uint256"
        },
        {
          "internalType": "uint256",
          "name": "automaticRetireDate",
          "type": "uint256"
        },
        {
          "internalType": "string",
          "name": "metadata",
          "type": "string"
        },
        {
          "internalType": "string",
          "name": "manifest",
          "type": "string"
        },
        {
          "internalType": "string",
          "name": "description",
          "type": "string"
        }
      ],
      "name": "issueOnBehalf",
      "outputs": [],
      "stateMutability": "nonpayable",
      "type": "function"
    },
    {
      "inputs": [],
      "name": "limitedMode",
      "outputs": [
        {
          "internalType": "bool",
          "name": "",
          "type": "bool"
        }
      ],
      "stateMutability": "view",
      "type": "function"
    },
    {
      "inputs": [
        {
          "internalType": "address",
          "name": "to",
          "type": "address"
        },
        {
          "internalType": "uint256",
          "name": "tokenId",
          "type": "uint256"
        },
        {
          "internalType": "uint256",
          "name": "quantity",
          "type": "uint256"
        }
      ],
      "name": "mint",
      "outputs": [],
      "stateMutability": "nonpayable",
      "type": "function"
    },
    {
      "inputs": [
        {
          "internalType": "address",
          "name": "account",
          "type": "address"
        }
      ],
      "name": "registerConsumer",
      "outputs": [],
      "stateMutability": "nonpayable",
      "type": "function"
    },
    {
      "inputs": [
        {
          "internalType": "address",
          "name": "account",
          "type": "address"
        },
        {
          "internalType": "uint8",
          "name": "tokenTypeId",
          "type": "uint8"
        }
      ],
      "name": "registerDealer",
      "outputs": [],
      "stateMutability": "nonpayable",
      "type": "function"
    },
    {
      "inputs": [
        {
          "internalType": "bytes32",
          "name": "role",
          "type": "bytes32"
        },
        {
          "internalType": "address",
          "name": "account",
          "type": "address"
        }
      ],
      "name": "renounceRole",
      "outputs": [],
      "stateMutability": "nonpayable",
      "type": "function"
    },
    {
      "inputs": [
        {
          "internalType": "uint256",
          "name": "tokenId",
          "type": "uint256"
        },
        {
          "internalType": "uint256",
          "name": "amount",
          "type": "uint256"
        }
      ],
      "name": "retire",
      "outputs": [],
      "stateMutability": "nonpayable",
      "type": "function"
    },
    {
      "inputs": [
        {
          "internalType": "bytes32",
          "name": "role",
          "type": "bytes32"
        },
        {
          "internalType": "address",
          "name": "account",
          "type": "address"
        }
      ],
      "name": "revokeRole",
      "outputs": [],
      "stateMutability": "nonpayable",
      "type": "function"
    },
    {
      "inputs": [
        {
          "internalType": "address",
          "name": "from",
          "type": "address"
        },
        {
          "internalType": "address",
          "name": "to",
          "type": "address"
        },
        {
          "internalType": "uint256[]",
          "name": "ids",
          "type": "uint256[]"
        },
        {
          "internalType": "uint256[]",
          "name": "amounts",
          "type": "uint256[]"
        },
        {
          "internalType": "bytes",
          "name": "data",
          "type": "bytes"
        }
      ],
      "name": "safeBatchTransferFrom",
      "outputs": [],
      "stateMutability": "nonpayable",
      "type": "function"
    },
    {
      "inputs": [
        {
          "internalType": "address",
          "name": "from",
          "type": "address"
        },
        {
          "internalType": "address",
          "name": "to",
          "type": "address"
        },
        {
          "internalType": "uint256",
          "name": "id",
          "type": "uint256"
        },
        {
          "internalType": "uint256",
          "name": "amount",
          "type": "uint256"
        },
        {
          "internalType": "bytes",
          "name": "data",
          "type": "bytes"
        }
      ],
      "name": "safeTransferFrom",
      "outputs": [],
      "stateMutability": "nonpayable",
      "type": "function"
    },
    {
      "inputs": [],
      "name": "selfDestruct",
      "outputs": [],
      "stateMutability": "nonpayable",
      "type": "function"
    },
    {
      "inputs": [
        {
          "internalType": "address",
          "name": "operator",
          "type": "address"
        },
        {
          "internalType": "bool",
          "name": "approved",
          "type": "bool"
        }
      ],
      "name": "setApprovalForAll",
      "outputs": [],
      "stateMutability": "nonpayable",
      "type": "function"
    },
    {
      "inputs": [
        {
          "internalType": "bool",
          "name": "_limitedMode",
          "type": "bool"
        }
      ],
      "name": "setLimitedMode",
      "outputs": [],
      "stateMutability": "nonpayable",
      "type": "function"
    },
    {
      "inputs": [
        {
          "internalType": "address",
          "name": "_timelock",
          "type": "address"
        }
      ],
      "name": "setTimelock",
      "outputs": [],
      "stateMutability": "nonpayable",
      "type": "function"
    },
    {
      "inputs": [
        {
          "internalType": "bytes4",
          "name": "interfaceId",
          "type": "bytes4"
        }
      ],
      "name": "supportsInterface",
      "outputs": [
        {
          "internalType": "bool",
          "name": "",
          "type": "bool"
        }
      ],
      "stateMutability": "view",
      "type": "function"
    },
    {
      "inputs": [
        {
          "internalType": "address",
          "name": "to",
          "type": "address"
        },
        {
          "internalType": "uint256",
          "name": "tokenId",
          "type": "uint256"
        },
        {
          "internalType": "uint256",
          "name": "value",
          "type": "uint256"
        }
      ],
      "name": "transfer",
      "outputs": [],
      "stateMutability": "nonpayable",
      "type": "function"
    },
    {
      "inputs": [
        {
          "internalType": "address",
          "name": "account",
          "type": "address"
        }
      ],
      "name": "unregisterConsumer",
      "outputs": [],
      "stateMutability": "nonpayable",
      "type": "function"
    },
    {
      "inputs": [
        {
          "internalType": "address",
          "name": "account",
          "type": "address"
        },
        {
          "internalType": "uint8",
          "name": "tokenTypeId",
          "type": "uint8"
        }
      ],
      "name": "unregisterDealer",
      "outputs": [],
      "stateMutability": "nonpayable",
      "type": "function"
    },
    {
      "inputs": [
        {
          "internalType": "uint256",
          "name": "",
          "type": "uint256"
        }
      ],
      "name": "uri",
      "outputs": [
        {
          "internalType": "string",
          "name": "",
          "type": "string"
        }
      ],
      "stateMutability": "view",
      "type": "function"
    }
  ],
  "bytecode": "0x6080604052600880546001600160a01b03191690553480156200002157600080fd5b5060405162004b8b38038062004b8b8339810160408190526200004491620003fb565b604080516020810190915260008152620000656301ffc9a760e01b6200018d565b6200007081620001e8565b62000082636cdb3d1360e11b6200018d565b620000946303a24d0760e21b6200018d565b50620000d07f5e1aa547d3dade8c68b013a47ad41c2bcc9b9e4b0765b0fb616780e15786e76a60008051602062004b6b83398151915262000201565b620000dd60008262000253565b620000f860008051602062004b6b8339815191528262000253565b620001247f2ab9f1da92e74aaa01eb75a871557505b11dd8d36832a34bb21bbee88b08d8608262000253565b620001507fede6574deba8f02ada7888448a497b08844d62e044ed533343a673be3ffcde5f8262000253565b6200017c7fe97dad3dbe5042e7384b1572cf966a15e089576a62b5126c5ef1d184ab18b12c8262000253565b506005805460ff1916905562000462565b6001600160e01b03198082161415620001c35760405162461bcd60e51b8152600401620001ba906200042b565b60405180910390fd5b6001600160e01b0319166000908152602081905260409020805460ff19166001179055565b8051620001fd9060039060208401906200035f565b5050565b600082815260046020526040808220600201549051839285917fbd79b86ffe0ab8e8776151514217cd7cacd52c909f66475c3af44e129f0b00ff9190a460009182526004602052604090912060020155565b620001fd828260008281526004602090815260409091206200028091839062001e02620002d4821b17901c565b15620001fd5762000290620002f4565b6001600160a01b0316816001600160a01b0316837f2f8788117e7eff1d82e926ec794901d17c78024a50270940304540a733656f0d60405160405180910390a45050565b6000620002eb836001600160a01b038416620002f8565b90505b92915050565b3390565b600062000306838362000347565b6200033e57508154600181810184556000848152602080822090930184905584548482528286019093526040902091909155620002ee565b506000620002ee565b60009081526001919091016020526040902054151590565b828054600181600116156101000203166002900490600052602060002090601f016020900481019282601f10620003a257805160ff1916838001178555620003d2565b82800160010185558215620003d2579182015b82811115620003d2578251825591602001919060010190620003b5565b50620003e0929150620003e4565b5090565b5b80821115620003e05760008155600101620003e5565b6000602082840312156200040d578081fd5b81516001600160a01b038116811462000424578182fd5b9392505050565b6020808252601c908201527f4552433136353a20696e76616c696420696e7465726661636520696400000000604082015260600190565b6146f980620004726000396000f3fe608060405234801561001057600080fd5b50600436106102735760003560e01c80637f157c9b11610151578063ca15c873116100c3578063e2e564f211610087578063e2e564f214610577578063e985e9c51461058a578063f000be981461059d578063f242432a146105b0578063fcba7948146105c3578063fd0c4a9a146105cb57610273565b8063ca15c87314610512578063ce6ccfaf14610525578063d547741f14610549578063dba851b01461055c578063ddc3e6eb1461056457610273565b80639cb8a26a116101155780639cb8a26a146104a9578063a0d975a7146104b1578063a217fddf146104c4578063a22cb465146104cc578063bdacb303146104df578063c1e03728146104f257610273565b80637f157c9b146104225780639010d07c1461044357806391d148541461046357806392089c4614610476578063927078691461048957610273565b806331aa4b20116101ea57806353dbe982116101ae57806353dbe982146103d15780635ddb368f146103e457806369f7ef44146103ec57806376aed2e1146103ff57806376ce47551461041257806378e5c5921461041a57610273565b806331aa4b201461036557806333781a0e1461037857806336568abe1461038b57806344b22fdd1461039e5780634e1273f4146103b157610273565b806318a50d7e1161023c57806318a50d7e146103095780631ef68ef714610311578063248a9ca314610319578063293a7f2e1461032c5780632eb2c2d61461033f5780632f2ff15d1461035257610273565b8062fdd58e1461027857806301ffc9a7146102a1578063095bcdb6146102c15780630e89341c146102d6578063156e29f6146102f6575b600080fd5b61028b61028636600461302b565b6105de565b60405161029891906135bf565b60405180910390f35b6102b46102af3660046132c1565b61063a565b604051610298919061358b565b6102d46102cf366004613055565b61065d565b005b6102e96102e4366004613264565b610782565b60405161029891906135c8565b6102d4610304366004613055565b61081a565b61028b6108a9565b61028b6108cd565b61028b610327366004613264565b6108df565b6102d461033a3660046132a0565b6108f4565b6102d461034d366004612dff565b610a75565b6102d461036036600461327c565b610c8f565b6102d4610373366004613088565b610cd7565b6102b4610386366004612db0565b610dea565b6102d461039936600461327c565b610e04565b6102d46103ac366004612db0565b610e46565b6103c46103bf366004613182565b610f4b565b604051610298919061354a565b6102d46103df366004612db0565b61108b565b61028b611190565b6102b46103fa366004612db0565b6111a2565b6102e961040d366004613264565b611224565b61028b61131d565b61028b61132f565b61043561043036600461302b565b611341565b604051610298929190614437565b6104566104513660046132a0565b6113d8565b604051610298919061342d565b6102b461047136600461327c565b6113f7565b610456610484366004613264565b61140f565b61049c610497366004613264565b611432565b60405161029891906134fd565b6102d46114fd565b61028b6104bf36600461302b565b611527565b61028b611576565b6102d46104da366004612ff0565b61157b565b6102d46104ed366004612db0565b611649565b610505610500366004613264565b611692565b604051610298919061435f565b61028b610520366004613264565b6118ec565b610538610533366004612db0565b611903565b604051610298959493929190613596565b6102d461055736600461327c565b611997565b6102b46119d1565b6102d4610572366004613244565b6119da565b6102d4610585366004613088565b611a14565b6102b4610598366004612dcb565b611b34565b6102d46105ab366004612f0e565b611b62565b6102d46105be366004612ea9565b611bbb565b61028b611d4f565b6102d46105d93660046130b3565b611d61565b60006001600160a01b03831661060f5760405162461bcd60e51b8152600401610606906137a6565b60405180910390fd5b5060008181526001602090815260408083206001600160a01b03861684529091529020545b92915050565b6001600160e01b0319811660009081526020819052604090205460ff165b919050565b600061067760008051602061463a833981519152336113f7565b90506000610693600080516020614684833981519152336113f7565b905060006106af60008051602061461a833981519152336113f7565b905060006106cb6000805160206146a4833981519152336113f7565b905083806106d65750825b806106de5750815b806106e65750805b6107025760405162461bcd60e51b8152600401610606906141fe565b61070b86611e17565b6107275760405162461bcd60e51b815260040161060690613dbf565b336001600160a01b03881614156107505760405162461bcd60e51b815260040161060690613cc7565b61077933888888604051806040016040528060048152602001630307830360e41b815250611bbb565b50505050505050565b60038054604080516020601f600260001961010060018816150201909516949094049384018190048102820181019092528281526060939092909183018282801561080e5780601f106107e35761010080835404028352916020019161080e565b820191906000526020600020905b8154815290600101906020018083116107f157829003601f168201915b50505050509050919050565b6108256000336113f7565b6108415760405162461bcd60e51b815260040161060690613a50565b61084a82611e17565b6108665760405162461bcd60e51b8152600401610606906138bd565b60055460ff16156108895760405162461bcd60e51b815260040161060690613d1d565b6108a483838360405180602001604052806000815250611e39565b505050565b7ff8890eedd7900ad88da6192fd03dbb69dbeee963b1a0ed738abe49ab3331aaf381565b60008051602061461a83398151915281565b60009081526004602052604090206002015490565b600061090e60008051602061463a833981519152336113f7565b9050600061092a600080516020614684833981519152336113f7565b9050600061094660008051602061461a833981519152336113f7565b905060006109626000805160206146a4833981519152336113f7565b9050838061096d5750825b806109755750815b8061097d5750805b6109995760405162461bcd60e51b8152600401610606906141fe565b6109a286611e17565b6109be5760405162461bcd60e51b815260040161060690613842565b6109c833876105de565b8511156109e75760405162461bcd60e51b815260040161060690613b3c565b6109f2338787611f24565b6000868152600760209081526040808320338452909152902054610a16908661203a565b60008781526007602090815260408083203380855292529182902092909255517f8f1b5ebb586d3d169e4ed07db9cd10ce0dd30c7b656171310eae7517c0b53cf990610a659089908990614437565b60405180910390a2505050505050565b8151835114610a965760405162461bcd60e51b815260040161060690614175565b6001600160a01b038416610abc5760405162461bcd60e51b815260040161060690613bed565b610ac461205f565b6001600160a01b0316856001600160a01b03161480610aea5750610aea8561059861205f565b610b065760405162461bcd60e51b815260040161060690613c32565b6000610b1061205f565b9050610b20818787878787612063565b60005b8451811015610c21576000858281518110610b3a57fe5b602002602001015190506000858381518110610b5257fe5b60200260200101519050610bbf816040518060600160405280602a815260200161465a602a91396001600086815260200190815260200160002060008d6001600160a01b03166001600160a01b03168152602001908152602001600020546121dc9092919063ffffffff16565b60008381526001602090815260408083206001600160a01b038e811685529252808320939093558a1681522054610bf6908261203a565b60009283526001602081815260408086206001600160a01b038d168752909152909320555001610b23565b50846001600160a01b0316866001600160a01b0316826001600160a01b03167f4a39dc06d4c0dbc64b70af90fd698a233a518aa5d07e595d983b8c0526c8f7fb8787604051610c7192919061355d565b60405180910390a4610c87818787878787612208565b505050505050565b600082815260046020526040902060020154610cad9061047161205f565b610cc95760405162461bcd60e51b81526004016106069061370e565b610cd38282612316565b5050565b610ce26000336113f7565b610cfe5760405162461bcd60e51b815260040161060690613a50565b610d078161237f565b610d235760405162461bcd60e51b815260040161060690613d6f565b8060ff1660011415610d4c57610d4760008051602061468483398151915283610c8f565b610d88565b8060ff1660021415610d7057610d4760008051602061461a83398151915283610c8f565b610d886000805160206146a483398151915283610c8f565b610db27ff8890eedd7900ad88da6192fd03dbb69dbeee963b1a0ed738abe49ab3331aaf383610c8f565b6040516001600160a01b038316907fa8377deee15954185683d55effd369508b4935978c8cb2bab790bf04c570181490600090a25050565b600061063460008051602061463a833981519152836113f7565b610e0c61205f565b6001600160a01b0316816001600160a01b031614610e3c5760405162461bcd60e51b81526004016106069061429f565b610cd382826123a4565b6000610e60600080516020614684833981519152336113f7565b90506000610e7c60008051602061461a833981519152336113f7565b90506000610e986000805160206146a4833981519152336113f7565b90508280610ea35750815b80610eab5750805b610ec75760405162461bcd60e51b81526004016106069061375d565b60055460ff1615610ef957610edd6000336113f7565b610ef95760405162461bcd60e51b815260040161060690613e05565b610f1160008051602061463a83398151915285610c8f565b6040516001600160a01b038516907f69a0adee259d26fe61f4776f7bea7f3a9737c7321256821b985f988545efd31990600090a250505050565b60608151835114610f6e5760405162461bcd60e51b8152600401610606906140dc565b6060835167ffffffffffffffff81118015610f8857600080fd5b50604051908082528060200260200182016040528015610fb2578160200160208202803683370190505b50905060005b84518110156110835760006001600160a01b0316858281518110610fd857fe5b60200260200101516001600160a01b031614156110075760405162461bcd60e51b8152600401610606906137f1565b6001600085838151811061101757fe5b60200260200101518152602001908152602001600020600086838151811061103b57fe5b60200260200101516001600160a01b03166001600160a01b031681526020019081526020016000205482828151811061107057fe5b6020908102919091010152600101610fb8565b509392505050565b60006110a5600080516020614684833981519152336113f7565b905060006110c160008051602061461a833981519152336113f7565b905060006110dd6000805160206146a4833981519152336113f7565b905082806110e85750815b806110f05750805b61110c5760405162461bcd60e51b81526004016106069061375d565b60055460ff161561113e576111226000336113f7565b61113e5760405162461bcd60e51b81526004016106069061399a565b61115660008051602061463a83398151915285611997565b6040516001600160a01b038516907f03a38088da75ee2d80f6c753f55f8fd17602ae17d8bd0ef44d5e1f28ab5af11f90600090a250505050565b600061119c600961240d565b90505b90565b6000806111bd600080516020614684833981519152846113f7565b905060006111d960008051602061461a833981519152856113f7565b905060006111f56000805160206146a4833981519152866113f7565b905082806112005750815b806112085750805b156112195760019350505050610658565b506000949350505050565b606061122f82611e17565b61124b5760405162461bcd60e51b815260040161060690613a06565b600082815260066020526040902060018082015460ff1614156112a357505060408051808201909152601c81527f52656e657761626c6520456e65726779204365727469666963617465000000006020820152610658565b600181015460ff16600214156112ee57505060408051808201909152601781527f436172626f6e20456d697373696f6e73204f66667365740000000000000000006020820152610658565b50506040805180820190915260118152704175646974656420456d697373696f6e7360781b6020820152919050565b6000805160206146a483398151915281565b60008051602061463a83398151915281565b600080600061135085856105de565b60405163a0d975a760e01b8152909150600090309063a0d975a79061137b90899089906004016134e4565b60206040518083038186803b15801561139357600080fd5b505afa1580156113a7573d6000803e3d6000fd5b505050506040513d601f19601f820116820180604052508101906113cb91906132f9565b9196919550909350505050565b60008281526004602052604081206113f09083612411565b9392505050565b60008281526004602052604081206113f0908361241d565b60009081526006602052604090206001015461010090046001600160a01b031690565b6000818152600660205260409020600a81015460609190829060ff1667ffffffffffffffff8111801561146457600080fd5b5060405190808252806020026020018201604052801561148e578160200160208202803683370190505b50905060015b600a83015460ff908116908216116110835760ff8082166000908152600b8501602052604090205483516001600160a01b0390911691849160001985019091169081106114dd57fe5b6001600160a01b0390921660209283029190910190910152600101611494565b6115086000336113f7565b6115245760405162461bcd60e51b815260040161060690613a50565b30ff5b600061153282611e17565b61154e5760405162461bcd60e51b815260040161060690613f18565b5060009081526007602090815260408083206001600160a01b03949094168352929052205490565b600081565b816001600160a01b031661158d61205f565b6001600160a01b031614156115b45760405162461bcd60e51b815260040161060690614093565b80600260006115c161205f565b6001600160a01b03908116825260208083019390935260409182016000908120918716808252919093529120805460ff19169215159290921790915561160561205f565b6001600160a01b03167f17307eab39ab6107e8899845ad3d59bd9653f200f220920489ca2b5937696c318360405161163d919061358b565b60405180910390a35050565b6116546000336113f7565b6116705760405162461bcd60e51b815260040161060690613a50565b600880546001600160a01b0319166001600160a01b0392909216919091179055565b61169a612baf565b6116a2612baf565b60008381526006602081815260408084208054865260018082015460ff811688860152610100908190046001600160a01b039081168986015260028085015490911660608a0152600384015460808a0152600484015460a08a0152600584015460c08a01528387015460e08a0152968a9052948452600790910180548351928116159095026000190190941694909404601f8101839004830285018301909152808452908301828280156117975780601f1061176c57610100808354040283529160200191611797565b820191906000526020600020905b81548152906001019060200180831161177a57829003601f168201915b50505050506101008281019190915260008481526006602090815260409182902060080180548351600260018316159096026000190190911694909404601f8101839004830285018301909352828452919083018282801561183a5780601f1061180f5761010080835404028352916020019161183a565b820191906000526020600020905b81548152906001019060200180831161181d57829003601f168201915b50505050506101208201526000838152600660209081526040918290206009018054835160026001831615610100026000190190921691909104601f81018490048402820184019094528381529290918301828280156118db5780601f106118b0576101008083540402835291602001916118db565b820191906000526020600020905b8154815290600101906020018083116118be57829003601f168201915b505050505061014082015292915050565b600081815260046020526040812061063490612432565b6000808080808061191481886113f7565b90506000611930600080516020614684833981519152896113f7565b9050600061194c60008051602061461a8339815191528a6113f7565b905060006119686000805160206146a48339815191528b6113f7565b9050600061198460008051602061463a8339815191528c6113f7565b949b939a50919850965091945092505050565b6000828152600460205260409020600201546119b59061047161205f565b610e3c5760405162461bcd60e51b815260040161060690613aec565b60055460ff1681565b6119e56000336113f7565b611a015760405162461bcd60e51b815260040161060690613a50565b6005805460ff1916911515919091179055565b611a1f6000336113f7565b611a3b5760405162461bcd60e51b815260040161060690613a50565b611a448161237f565b611a605760405162461bcd60e51b8152600401610606906138ff565b8060ff1660011415611a8957611a8460008051602061468483398151915283611997565b611ac5565b8060ff1660021415611aad57611a8460008051602061461a83398151915283611997565b611ac56000805160206146a483398151915283611997565b611ace826111a2565b611afc57611afc7ff8890eedd7900ad88da6192fd03dbb69dbeee963b1a0ed738abe49ab3331aaf383611997565b6040516001600160a01b038316907f98552ded770f1d05a505572f3387c108dbc6b566ea3d49f83cff3d1f1c72a04290600090a25050565b6001600160a01b03918216600090815260026020908152604080832093909416825291909152205460ff1690565b6008546001600160a01b0316331480611b815750611b816000336113f7565b611b9d5760405162461bcd60e51b81526004016106069061362f565b611baf8a8a8a8a8a8a8a8a8a8a61243d565b50505050505050505050565b6001600160a01b038416611be15760405162461bcd60e51b815260040161060690613bed565b611be961205f565b6001600160a01b0316856001600160a01b03161480611c0f5750611c0f8561059861205f565b611c2b5760405162461bcd60e51b815260040161060690613951565b6000611c3561205f565b9050611c55818787611c4688612909565b611c4f88612909565b87612063565b611c9c836040518060600160405280602a815260200161465a602a913960008781526001602090815260408083206001600160a01b038d16845290915290205491906121dc565b60008581526001602090815260408083206001600160a01b038b81168552925280832093909355871681522054611cd3908461203a565b60008581526001602090815260408083206001600160a01b03808b168086529190935292819020939093559151909188811691908416907fc3d58168c5ae7397731d063d5bbf3d657854427343f4c083240f7aacaa2d0f6290611d399089908990614437565b60405180910390a4610c8781878787878761294d565b60008051602061468483398151915281565b6000611d7b600080516020614684833981519152336113f7565b90506000611d9760008051602061461a833981519152336113f7565b90506000611db36000805160206146a4833981519152336113f7565b90508280611dbe5750815b80611dc65750805b611de25760405162461bcd60e51b81526004016106069061375d565b611df48c338d8d8d8d8d8d8d8d61243d565b505050505050505050505050565b60006113f0836001600160a01b038416612a1e565b600081611e24600961240d565b10611e3157506001610658565b506000919050565b6001600160a01b038416611e5f5760405162461bcd60e51b8152600401610606906141bd565b6000611e6961205f565b9050611e7b81600087611c4688612909565b60008481526001602090815260408083206001600160a01b0389168452909152902054611ea8908461203a565b60008581526001602090815260408083206001600160a01b03808b16808652919093528184209490945551908416907fc3d58168c5ae7397731d063d5bbf3d657854427343f4c083240f7aacaa2d0f6290611f069089908990614437565b60405180910390a4611f1d8160008787878761294d565b5050505050565b6001600160a01b038316611f4a5760405162461bcd60e51b815260040161060690613c84565b6000611f5461205f565b9050611f8481856000611f6687612909565b611f6f87612909565b60405180602001604052806000815250612063565b611fcb826040518060600160405280602481526020016145f66024913960008681526001602090815260408083206001600160a01b038b16845290915290205491906121dc565b60008481526001602090815260408083206001600160a01b03808a16808652919093528184209490945551919291908416907fc3d58168c5ae7397731d063d5bbf3d657854427343f4c083240f7aacaa2d0f629061202c9088908890614437565b60405180910390a450505050565b6000828201838110156113f05760405162461bcd60e51b815260040161060690613886565b3390565b612071868686868686610c87565b60005b83518110156107795760006006600086848151811061208f57fe5b602002602001015181526020019081526020016000209050600560009054906101000a900460ff1615612156576001600160a01b0386166120d057506121d4565b600181015460ff16600314612122576008546001600160a01b038981169116148061210157506121016000896113f7565b61211d5760405162461bcd60e51b8152600401610606906142ee565b612156565b61213a6000805160206146a4833981519152896113f7565b6121565760405162461bcd60e51b815260040161060690613f6b565b6001600160a01b0386161580159061218857506121868686848151811061217957fe5b60200260200101516105de565b155b156121d257600a8101805460ff198116600160ff9283160182161791829055166000908152600b82016020526040902080546001600160a01b0319166001600160a01b0388161790555b505b600101612074565b600081848411156122005760405162461bcd60e51b815260040161060691906135c8565b505050900390565b61221a846001600160a01b0316612a68565b15610c875760405163bc197c8160e01b81526001600160a01b0385169063bc197c81906122539089908990889088908890600401613441565b602060405180830381600087803b15801561226d57600080fd5b505af192505050801561229d575060408051601f3d908101601f1916820190925261229a918101906132dd565b60015b6122e6576122a9614522565b806122b457506122ce565b8060405162461bcd60e51b815260040161060691906135c8565b60405162461bcd60e51b8152600401610606906135db565b6001600160e01b0319811663bc197c8160e01b146107795760405162461bcd60e51b8152600401610606906136c6565b600082815260046020526040902061232e9082611e02565b15610cd35761233b61205f565b6001600160a01b0316816001600160a01b0316837f2f8788117e7eff1d82e926ec794901d17c78024a50270940304540a733656f0d60405160405180910390a45050565b6000808260ff16118015612397575060038260ff1611155b15611e3157506001610658565b60008281526004602052604090206123bc9082612a6e565b15610cd3576123c961205f565b6001600160a01b0316816001600160a01b0316837ff6391f5c32d9c69d2a47ea670b442974b53935d1edc7fd64eb21e047a839171b60405160405180910390a45050565b5490565b60006113f08383612a83565b60006113f0836001600160a01b038416612ac8565b60006106348261240d565b6124468861237f565b6124625760405162461bcd60e51b81526004016106069061425b565b60055460ff1615612574578760ff166001148061248257508760ff166002145b1561252f576008546001600160a01b031633146124b15760405162461bcd60e51b815260040161060690613eca565b6124bc60008b6113f7565b6124d85760405162461bcd60e51b81526004016106069061404c565b6124f06000805160206146848339815191528a6113f7565b8061250e575061250e60008051602061461a8339815191528a6113f7565b61252a5760405162461bcd60e51b815260040161060690613b90565b61256f565b8760ff166003141561256f576125536000805160206146a48339815191528a6113f7565b61256f5760405162461bcd60e51b815260040161060690613fee565b612634565b8760ff16600114156125b4576125986000805160206146848339815191528a6113f7565b61256f5760405162461bcd60e51b815260040161060690614125565b8760ff16600214156125f4576125d860008051602061461a8339815191528a6113f7565b61256f5760405162461bcd60e51b815260040161060690613a99565b8760ff1660031415612634576126186000805160206146a48339815191528a6113f7565b6126345760405162461bcd60e51b815260040161060690613e6d565b61263e6009612ae0565b60006006600061264e600961240d565b81526020019081526020016000209050612668600961240d565b8160000181905550888160010160006101000a81548160ff021916908360ff1602179055508a8160020160006101000a8154816001600160a01b0302191690836001600160a01b03160217905550898160010160016101000a8154816001600160a01b0302191690836001600160a01b031602179055508681600301819055508581600401819055508481600601819055504281600501819055508381600701908051906020019061271b929190612c1e565b5082516127319060088301906020860190612c1e565b5081516127479060098301906020850190612c1e565b5061276c8b612756600961240d565b8a60405180602001604052806000815250611e39565b8860ff16600314156127f05760028101548154612793916001600160a01b0316908a611f24565b8054600090815260076020908152604080832060028501546001600160a01b031684529091529020546127c6908961203a565b8154600090815260076020908152604080832060028601546001600160a01b031684529091529020555b8060020160009054906101000a90046001600160a01b03166001600160a01b03168160010160019054906101000a90046001600160a01b03166001600160a01b03167f99cc3eeb446560c9a2d2483bc5160735ec0fb1851aea3bde32e7a56c30c11da68a600760008660000154815260200190815260200160002060008660020160009054906101000a90046001600160a01b03166001600160a01b03166001600160a01b031681526020019081526020016000205485600001548660010160009054906101000a900460ff168760030154886004015489600601548a600501548b6007018c6008018d6009016040516128f49b9a99989796959493929190614445565b60405180910390a35050505050505050505050565b60408051600180825281830190925260609182919060208083019080368337019050509050828160008151811061293c57fe5b602090810291909101015292915050565b61295f846001600160a01b0316612a68565b15610c875760405163f23a6e6160e01b81526001600160a01b0385169063f23a6e6190612998908990899088908890889060040161349f565b602060405180830381600087803b1580156129b257600080fd5b505af19250505080156129e2575060408051601f3d908101601f191682019092526129df918101906132dd565b60015b6129ee576122a9614522565b6001600160e01b0319811663f23a6e6160e01b146107795760405162461bcd60e51b8152600401610606906136c6565b6000612a2a8383612ac8565b612a6057508154600181810184556000848152602080822090930184905584548482528286019093526040902091909155610634565b506000610634565b3b151590565b60006113f0836001600160a01b038416612ae9565b81546000908210612aa65760405162461bcd60e51b815260040161060690613684565b826000018281548110612ab557fe5b9060005260206000200154905092915050565b60009081526001919091016020526040902054151590565b80546001019055565b60008181526001830160205260408120548015612ba55783546000198083019190810190600090879083908110612b1c57fe5b9060005260206000200154905080876000018481548110612b3957fe5b600091825260208083209091019290925582815260018981019092526040902090840190558654879080612b6957fe5b60019003818190600052602060002001600090559055866001016000878152602001908152602001600020600090556001945050505050610634565b6000915050610634565b60405180610160016040528060008152602001600060ff16815260200160006001600160a01b0316815260200160006001600160a01b03168152602001600081526020016000815260200160008152602001600081526020016060815260200160608152602001606081525090565b828054600181600116156101000203166002900490600052602060002090601f016020900481019282601f10612c5f57805160ff1916838001178555612c8c565b82800160010185558215612c8c579182015b82811115612c8c578251825591602001919060010190612c71565b50612c98929150612c9c565b5090565b5b80821115612c985760008155600101612c9d565b80356001600160a01b038116811461063457600080fd5b600082601f830112612cd8578081fd5b8135612ceb612ce6826144f0565b6144c9565b818152915060208083019084810181840286018201871015612d0c57600080fd5b60005b84811015612d2b57813584529282019290820190600101612d0f565b505050505092915050565b600082601f830112612d46578081fd5b813567ffffffffffffffff811115612d5c578182fd5b612d6f601f8201601f19166020016144c9565b9150808252836020828501011115612d8657600080fd5b8060208401602084013760009082016020015292915050565b803560ff8116811461063457600080fd5b600060208284031215612dc1578081fd5b6113f08383612cb1565b60008060408385031215612ddd578081fd5b612de78484612cb1565b9150612df68460208501612cb1565b90509250929050565b600080600080600060a08688031215612e16578081fd5b8535612e21816145c7565b94506020860135612e31816145c7565b9350604086013567ffffffffffffffff80821115612e4d578283fd5b612e5989838a01612cc8565b94506060880135915080821115612e6e578283fd5b612e7a89838a01612cc8565b93506080880135915080821115612e8f578283fd5b50612e9c88828901612d36565b9150509295509295909350565b600080600080600060a08688031215612ec0578081fd5b612eca8787612cb1565b9450612ed98760208801612cb1565b93506040860135925060608601359150608086013567ffffffffffffffff811115612f02578182fd5b612e9c88828901612d36565b6000806000806000806000806000806101408b8d031215612f2d578485fd5b612f378c8c612cb1565b9950612f468c60208d01612cb1565b9850612f558c60408d01612d9f565b975060608b0135965060808b0135955060a08b0135945060c08b0135935060e08b013567ffffffffffffffff80821115612f8d578485fd5b612f998e838f01612d36565b94506101008d0135915080821115612faf578384fd5b612fbb8e838f01612d36565b93506101208d0135915080821115612fd1578283fd5b50612fde8d828e01612d36565b9150509295989b9194979a5092959850565b60008060408385031215613002578182fd5b61300c8484612cb1565b915060208301358015158114613020578182fd5b809150509250929050565b6000806040838503121561303d578182fd5b6130478484612cb1565b946020939093013593505050565b600080600060608486031215613069578081fd5b6130738585612cb1565b95602085013595506040909401359392505050565b6000806040838503121561309a578182fd5b6130a48484612cb1565b9150612df68460208501612d9f565b60008060008060008060008060006101208a8c0312156130d1578283fd5b6130db8b8b612cb1565b98506130ea8b60208c01612d9f565b975060408a0135965060608a0135955060808a0135945060a08a0135935060c08a013567ffffffffffffffff80821115613122578485fd5b61312e8d838e01612d36565b945060e08c0135915080821115613143578384fd5b61314f8d838e01612d36565b93506101008c0135915080821115613165578283fd5b506131728c828d01612d36565b9150509295985092959850929598565b60008060408385031215613194578182fd5b823567ffffffffffffffff808211156131ab578384fd5b818501915085601f8301126131be578384fd5b81356131cc612ce6826144f0565b80828252602080830192508086018a8283870289010111156131ec578889fd5b8896505b84871015613216576132028b82612cb1565b8452600196909601959281019281016131f0565b50909650870135935050508082111561322d578283fd5b5061323a85828601612cc8565b9150509250929050565b600060208284031215613255578081fd5b813580151581146113f0578182fd5b600060208284031215613275578081fd5b5035919050565b6000806040838503121561328e578182fd5b823591506020830135613020816145c7565b600080604083850312156132b2578182fd5b50508035926020909101359150565b6000602082840312156132d2578081fd5b81356113f0816145df565b6000602082840312156132ee578081fd5b81516113f0816145df565b60006020828403121561330a578081fd5b5051919050565b6001600160a01b03169052565b6000815180845260208085019450808401835b8381101561334d57815187529582019590820190600101613331565b509495945050505050565b60008151808452815b8181101561337d57602081850181015186830182015201613361565b8181111561338e5782602083870101525b50601f01601f19169290920160200192915050565b600081546001808216600081146133c157600181146133df5761341d565b60028304607f16865260ff198316602087015260408601935061341d565b600283048087526133ef86614510565b60005b828110156134135781546020828b01015284820191506020810190506133f2565b8801602001955050505b50505092915050565b60ff169052565b6001600160a01b0391909116815260200190565b6001600160a01b0386811682528516602082015260a06040820181905260009061346d9083018661331e565b828103606084015261347f818661331e565b905082810360808401526134938185613358565b98975050505050505050565b6001600160a01b03868116825285166020820152604081018490526060810183905260a0608082018190526000906134d990830184613358565b979650505050505050565b6001600160a01b03929092168252602082015260400190565b6020808252825182820181905260009190848201906040850190845b8181101561353e5783516001600160a01b031683529284019291840191600101613519565b50909695505050505050565b6000602082526113f0602083018461331e565b600060408252613570604083018561331e565b8281036020840152613582818561331e565b95945050505050565b901515815260200190565b941515855292151560208501529015156040840152151560608301521515608082015260a00190565b90815260200190565b6000602082526113f06020830184613358565b60208082526034908201527f455243313135353a207472616e7366657220746f206e6f6e20455243313135356040820152732932b1b2b4bb32b91034b6b83632b6b2b73a32b960611b606082015260800190565b60208082526035908201527f434c4d383a3a69737375654f6e426568616c663a2063616c6c206d757374206360408201527437b6b290333937b6902220a79037b91030b236b4b760591b606082015260800190565b60208082526022908201527f456e756d657261626c655365743a20696e646578206f7574206f6620626f756e604082015261647360f01b606082015260800190565b60208082526028908201527f455243313135353a204552433131353552656365697665722072656a656374656040820152676420746f6b656e7360c01b606082015260800190565b6020808252602f908201527f416363657373436f6e74726f6c3a2073656e646572206d75737420626520616e60408201526e0818591b5a5b881d1bc819dc985b9d608a1b606082015260800190565b60208082526029908201527f434c4d383a3a6f6e6c794465616c65723a206d73672e73656e646572206e6f746040820152681030903232b0b632b960b91b606082015260800190565b6020808252602b908201527f455243313135353a2062616c616e636520717565727920666f7220746865207a60408201526a65726f206164647265737360a81b606082015260800190565b60208082526031908201527f455243313135353a2062617463682062616c616e636520717565727920666f7260408201527020746865207a65726f206164647265737360781b606082015260800190565b60208082526024908201527f434c4d383a3a7265746972653a20746f6b656e496420646f6573206e6f7420656040820152631e1a5cdd60e21b606082015260800190565b6020808252601b908201527f536166654d6174683a206164646974696f6e206f766572666c6f770000000000604082015260600190565b60208082526022908201527f434c4d383a3a6d696e743a20746f6b656e496420646f6573206e6f74206578696040820152611cdd60f21b606082015260800190565b60208082526032908201527f434c4d383a3a756e72656769737465724465616c65723a20746f6b656e54797060408201527119525908191bd95cc81b9bdd08195e1a5cdd60721b606082015260800190565b60208082526029908201527f455243313135353a2063616c6c6572206973206e6f74206f776e6572206e6f7260408201526808185c1c1c9bdd995960ba1b606082015260800190565b60208082526046908201527f434c4d383a3a756e7265676973746572436f6e73756d6572286c696d6974656460408201527f293a206f6e6c792061646d696e2063616e20756e726567697374657220636f6e60608201526573756d65727360d01b608082015260a00190565b6020808252602a908201527f434c4d383a3a676574546f6b656e547970653a20746f6b656e496420646f6573604082015269081b9bdd08195e1a5cdd60b21b606082015260800190565b60208082526029908201527f434c4d383a3a6f6e6c7941646d696e3a206d73672e73656e646572206e6f74206040820152683a34329030b236b4b760b91b606082015260800190565b60208082526033908201527f434c4d383a3a5f69737375653a20697373756572206e6f7420612072656769736040820152723a32b932b21037b33339b2ba103232b0b632b960691b606082015260800190565b60208082526030908201527f416363657373436f6e74726f6c3a2073656e646572206d75737420626520616e60408201526f2061646d696e20746f207265766f6b6560801b606082015260800190565b60208082526034908201527f434c4d383a3a7265746972653a206e6f7420656e6f75676820617661696c61626040820152736c652062616c616e636520746f2072657469726560601b606082015260800190565b60208082526037908201527f434c4d383a3a5f6973737565286c696d69746564293a2070726f706f7365722060408201527f6e6f7420612072656769737465726564206465616c6572000000000000000000606082015260800190565b60208082526025908201527f455243313135353a207472616e7366657220746f20746865207a65726f206164604082015264647265737360d81b606082015260800190565b60208082526032908201527f455243313135353a207472616e736665722063616c6c6572206973206e6f74206040820152711bdddb995c881b9bdc88185c1c1c9bdd995960721b606082015260800190565b60208082526023908201527f455243313135353a206275726e2066726f6d20746865207a65726f206164647260408201526265737360e81b606082015260800190565b60208082526036908201527f434c4d383a3a7472616e736665723a2073656e64657220616e642072656365696040820152757665722063616e6e6f74206265207468652073616d6560501b606082015260800190565b60208082526032908201527f434c4d383a3a6d696e743a2063616e6e6f74206d696e74206e657720746f6b656040820152716e7320696e206c696d69746564206d6f646560701b606082015260800190565b60208082526030908201527f434c4d383a3a72656769737465724465616c65723a20746f6b656e547970654960408201526f1908191bd95cc81b9bdd08195e1a5cdd60821b606082015260800190565b60208082526026908201527f434c4d383a3a7472616e736665723a20746f6b656e496420646f6573206e6f7460408201526508195e1a5cdd60d21b606082015260800190565b60208082526042908201527f434c4d383a3a7265676973746572436f6e73756d6572286c696d69746564293a60408201527f206f6e6c792061646d696e2063616e20726567697374657220636f6e73756d65606082015261727360f01b608082015260a00190565b60208082526037908201527f434c4d383a3a5f69737375653a20697373756572206e6f74206120726567697360408201527f746572656420656d697373696f6e732061756469746f72000000000000000000606082015260800190565b6020808252602e908201527f434c4d383a3a5f6973737565286c696d69746564293a206d73672e73656e646560408201526d72206e6f742074696d656c6f636b60901b606082015260800190565b60208082526033908201527f434c4d383a3a676574546f6b656e52657469726564416d6f756e743a20746f6b604082015272195b925908191bd95cc81b9bdd08195e1a5cdd606a1b606082015260800190565b60208082526058908201527f434c4d383a3a5f6265666f7265546f6b656e5472616e73666572286c696d697460408201527f6564293a206f6e6c7920656d697373696f6e732061756469746f72732063616e60608201527f206973737565206175646974656420656d697373696f6e730000000000000000608082015260a00190565b602080825260409082018190527f434c4d383a3a5f6973737565286c696d69746564293a20697373756572206e6f908201527f742061207265676973746572656420656d697373696f6e732061756469746f72606082015260800190565b60208082526027908201527f434c4d383a3a5f6973737565286c696d69746564293a20697373756565206e6f6040820152663a1030b236b4b760c91b606082015260800190565b60208082526029908201527f455243313135353a2073657474696e6720617070726f76616c20737461747573604082015268103337b91039b2b63360b91b606082015260800190565b60208082526029908201527f455243313135353a206163636f756e747320616e6420696473206c656e677468604082015268040dad2e6dac2e8c6d60bb1b606082015260800190565b60208082526030908201527f434c4d383a3a5f69737375653a20697373756572206e6f74206120726567697360408201526f3a32b932b2102922a1903232b0b632b960811b606082015260800190565b60208082526028908201527f455243313135353a2069647320616e6420616d6f756e7473206c656e677468206040820152670dad2e6dac2e8c6d60c31b606082015260800190565b60208082526021908201527f455243313135353a206d696e7420746f20746865207a65726f206164647265736040820152607360f81b606082015260800190565b6020808252603d908201527f434c4d383a3a636f6e73756d65724f724465616c65723a206d73672e73656e6460408201527f6572206e6f74206120636f6e73756d6572206f722061206465616c6572000000606082015260800190565b60208082526024908201527f434c4d383a3a5f69737375653a20746f6b656e54797065496420697320696e76604082015263185b1a5960e21b606082015260800190565b6020808252602f908201527f416363657373436f6e74726f6c3a2063616e206f6e6c792072656e6f756e636560408201526e103937b632b9903337b91039b2b63360891b606082015260800190565b6020808252604b908201527f434c4d383a3a5f6265666f7265546f6b656e5472616e73666572286c696d697460408201527f6564293a206f6e6c792061646d696e20616e642044414f2063616e207472616e60608201526a7366657220746f6b656e7360a81b608082015260a00190565b60006020825282516020830152602083015161437e6040840182613426565b5060408301516143916060840182613311565b5060608301516143a46080840182613311565b50608083015160a083015260a083015160c083015260c083015160e083015260e083015161010081818501528085015191505061016061012081818601526143f0610180860184613358565b9250808601519050601f196101408187860301818801526144118584613358565b90880151878203909201848801529350905061442d8382613358565b9695505050505050565b918252602082015260400190565b60006101608d83528c60208401528b604084015260ff8b1660608401528960808401528860a08401528760c08401528660e08401528061010084015261448d818401876133a3565b90508281036101208401526144a281866133a3565b90508281036101408401526144b781856133a3565b9e9d5050505050505050505050505050565b60405181810167ffffffffffffffff811182821017156144e857600080fd5b604052919050565b600067ffffffffffffffff821115614506578081fd5b5060209081020190565b60009081526020902090565b60e01c90565b600060443d10156145325761119f565b600481823e6308c379a0614546825161451c565b146145505761119f565b6040513d600319016004823e80513d67ffffffffffffffff8160248401118184111715614580575050505061119f565b8284019250825191508082111561459a575050505061119f565b503d830160208284010111156145b25750505061119f565b601f01601f1916810160200160405291505090565b6001600160a01b03811681146145dc57600080fd5b50565b6001600160e01b0319811681146145dc57600080fdfe455243313135353a206275726e20616d6f756e7420657863656564732062616c616e6365ede6574deba8f02ada7888448a497b08844d62e044ed533343a673be3ffcde5f5e1aa547d3dade8c68b013a47ad41c2bcc9b9e4b0765b0fb616780e15786e76a455243313135353a20696e73756666696369656e742062616c616e636520666f72207472616e736665722ab9f1da92e74aaa01eb75a871557505b11dd8d36832a34bb21bbee88b08d860e97dad3dbe5042e7384b1572cf966a15e089576a62b5126c5ef1d184ab18b12ca26469706673582212204607780f4490d4d9f7f9df67cde154bf91c4a00618ec2aa802db5de5b2a698f564736f6c63430007000033f8890eedd7900ad88da6192fd03dbb69dbeee963b1a0ed738abe49ab3331aaf3",
  "linkReferences": {},
  "deployedLinkReferences": {}
}