{
  "_format": "hh-sol-artifact-1",
  "contractName": "NetEmissionsTokenNetwork",
  "sourceName": "contracts/NetEmissionsTokenNetwork.sol",
  "abi": [
    {
      "inputs": [],
      "stateMutability": "nonpayable",
      "type": "constructor"
    },
    {
      "anonymous": false,
      "inputs": [
        {
          "indexed": true,
          "internalType": "address",
          "name": "account",
          "type": "address"
        },
        {
          "indexed": true,
          "internalType": "address",
          "name": "operator",
          "type": "address"
        },
        {
          "indexed": false,
          "internalType": "bool",
          "name": "approved",
          "type": "bool"
        }
      ],
      "name": "ApprovalForAll",
      "type": "event"
    },
    {
      "anonymous": false,
      "inputs": [
        {
          "indexed": true,
          "internalType": "address",
          "name": "account",
          "type": "address"
        }
      ],
      "name": "RegisteredDealer",
      "type": "event"
    },
    {
      "anonymous": false,
      "inputs": [
        {
          "indexed": true,
          "internalType": "bytes32",
          "name": "role",
          "type": "bytes32"
        },
        {
          "indexed": true,
          "internalType": "bytes32",
          "name": "previousAdminRole",
          "type": "bytes32"
        },
        {
          "indexed": true,
          "internalType": "bytes32",
          "name": "newAdminRole",
          "type": "bytes32"
        }
      ],
      "name": "RoleAdminChanged",
      "type": "event"
    },
    {
      "anonymous": false,
      "inputs": [
        {
          "indexed": true,
          "internalType": "bytes32",
          "name": "role",
          "type": "bytes32"
        },
        {
          "indexed": true,
          "internalType": "address",
          "name": "account",
          "type": "address"
        },
        {
          "indexed": true,
          "internalType": "address",
          "name": "sender",
          "type": "address"
        }
      ],
      "name": "RoleGranted",
      "type": "event"
    },
    {
      "anonymous": false,
      "inputs": [
        {
          "indexed": true,
          "internalType": "bytes32",
          "name": "role",
          "type": "bytes32"
        },
        {
          "indexed": true,
          "internalType": "address",
          "name": "account",
          "type": "address"
        },
        {
          "indexed": true,
          "internalType": "address",
          "name": "sender",
          "type": "address"
        }
      ],
      "name": "RoleRevoked",
      "type": "event"
    },
    {
      "anonymous": false,
      "inputs": [
        {
          "indexed": false,
          "internalType": "uint256",
          "name": "",
          "type": "uint256"
        }
      ],
      "name": "TokenCreated",
      "type": "event"
    },
    {
      "anonymous": false,
      "inputs": [
        {
          "indexed": true,
          "internalType": "address",
          "name": "operator",
          "type": "address"
        },
        {
          "indexed": true,
          "internalType": "address",
          "name": "from",
          "type": "address"
        },
        {
          "indexed": true,
          "internalType": "address",
          "name": "to",
          "type": "address"
        },
        {
          "indexed": false,
          "internalType": "uint256[]",
          "name": "ids",
          "type": "uint256[]"
        },
        {
          "indexed": false,
          "internalType": "uint256[]",
          "name": "values",
          "type": "uint256[]"
        }
      ],
      "name": "TransferBatch",
      "type": "event"
    },
    {
      "anonymous": false,
      "inputs": [
        {
          "indexed": true,
          "internalType": "address",
          "name": "operator",
          "type": "address"
        },
        {
          "indexed": true,
          "internalType": "address",
          "name": "from",
          "type": "address"
        },
        {
          "indexed": true,
          "internalType": "address",
          "name": "to",
          "type": "address"
        },
        {
          "indexed": false,
          "internalType": "uint256",
          "name": "id",
          "type": "uint256"
        },
        {
          "indexed": false,
          "internalType": "uint256",
          "name": "value",
          "type": "uint256"
        }
      ],
      "name": "TransferSingle",
      "type": "event"
    },
    {
      "anonymous": false,
      "inputs": [
        {
          "indexed": false,
          "internalType": "string",
          "name": "value",
          "type": "string"
        },
        {
          "indexed": true,
          "internalType": "uint256",
          "name": "id",
          "type": "uint256"
        }
      ],
      "name": "URI",
      "type": "event"
    },
    {
      "anonymous": false,
      "inputs": [
        {
          "indexed": true,
          "internalType": "address",
          "name": "account",
          "type": "address"
        }
      ],
      "name": "UnregisteredDealer",
      "type": "event"
    },
    {
      "inputs": [],
      "name": "DEFAULT_ADMIN_ROLE",
      "outputs": [
        {
          "internalType": "bytes32",
          "name": "",
          "type": "bytes32"
        }
      ],
      "stateMutability": "view",
      "type": "function"
    },
    {
      "inputs": [],
      "name": "REGISTERED_CONSUMER",
      "outputs": [
        {
          "internalType": "bytes32",
          "name": "",
          "type": "bytes32"
        }
      ],
      "stateMutability": "view",
      "type": "function"
    },
    {
      "inputs": [],
      "name": "REGISTERED_EMISSIONS_AUDITOR",
      "outputs": [
        {
          "internalType": "bytes32",
          "name": "",
          "type": "bytes32"
        }
      ],
      "stateMutability": "view",
      "type": "function"
    },
    {
      "inputs": [],
      "name": "REGISTERED_OFFSET_DEALER",
      "outputs": [
        {
          "internalType": "bytes32",
          "name": "",
          "type": "bytes32"
        }
      ],
      "stateMutability": "view",
      "type": "function"
    },
    {
      "inputs": [],
      "name": "REGISTERED_REC_DEALER",
      "outputs": [
        {
          "internalType": "bytes32",
          "name": "",
          "type": "bytes32"
        }
      ],
      "stateMutability": "view",
      "type": "function"
    },
    {
      "inputs": [
        {
          "internalType": "address",
          "name": "account",
          "type": "address"
        },
        {
          "internalType": "uint256",
          "name": "id",
          "type": "uint256"
        }
      ],
      "name": "balanceOf",
      "outputs": [
        {
          "internalType": "uint256",
          "name": "",
          "type": "uint256"
        }
      ],
      "stateMutability": "view",
      "type": "function"
    },
    {
      "inputs": [
        {
          "internalType": "address[]",
          "name": "accounts",
          "type": "address[]"
        },
        {
          "internalType": "uint256[]",
          "name": "ids",
          "type": "uint256[]"
        }
      ],
      "name": "balanceOfBatch",
      "outputs": [
        {
          "internalType": "uint256[]",
          "name": "",
          "type": "uint256[]"
        }
      ],
      "stateMutability": "view",
      "type": "function"
    },
    {
      "inputs": [
        {
          "internalType": "address",
          "name": "account",
          "type": "address"
        },
        {
          "internalType": "uint256",
          "name": "tokenId",
          "type": "uint256"
        }
      ],
      "name": "getAvailableAndRetired",
      "outputs": [
        {
          "internalType": "uint256",
          "name": "",
          "type": "uint256"
        },
        {
          "internalType": "uint256",
          "name": "",
          "type": "uint256"
        }
      ],
      "stateMutability": "view",
      "type": "function"
    },
    {
      "inputs": [
        {
          "internalType": "uint256",
          "name": "tokenId",
          "type": "uint256"
        }
      ],
      "name": "getIssuer",
      "outputs": [
        {
          "internalType": "address",
          "name": "",
          "type": "address"
        }
      ],
      "stateMutability": "view",
      "type": "function"
    },
    {
      "inputs": [],
      "name": "getNumOfUniqueTokens",
      "outputs": [
        {
          "internalType": "uint256",
          "name": "",
          "type": "uint256"
        }
      ],
      "stateMutability": "view",
      "type": "function"
    },
    {
      "inputs": [
        {
          "internalType": "bytes32",
          "name": "role",
          "type": "bytes32"
        }
      ],
      "name": "getRoleAdmin",
      "outputs": [
        {
          "internalType": "bytes32",
          "name": "",
          "type": "bytes32"
        }
      ],
      "stateMutability": "view",
      "type": "function"
    },
    {
      "inputs": [
        {
          "internalType": "bytes32",
          "name": "role",
          "type": "bytes32"
        },
        {
          "internalType": "uint256",
          "name": "index",
          "type": "uint256"
        }
      ],
      "name": "getRoleMember",
      "outputs": [
        {
          "internalType": "address",
          "name": "",
          "type": "address"
        }
      ],
      "stateMutability": "view",
      "type": "function"
    },
    {
      "inputs": [
        {
          "internalType": "bytes32",
          "name": "role",
          "type": "bytes32"
        }
      ],
      "name": "getRoleMemberCount",
      "outputs": [
        {
          "internalType": "uint256",
          "name": "",
          "type": "uint256"
        }
      ],
      "stateMutability": "view",
      "type": "function"
    },
    {
      "inputs": [
        {
          "internalType": "address",
          "name": "account",
          "type": "address"
        }
      ],
      "name": "getRoles",
      "outputs": [
        {
          "internalType": "bool",
          "name": "",
          "type": "bool"
        },
        {
          "internalType": "bool",
          "name": "",
          "type": "bool"
        },
        {
          "internalType": "bool",
          "name": "",
          "type": "bool"
        },
        {
          "internalType": "bool",
          "name": "",
          "type": "bool"
        },
        {
          "internalType": "bool",
          "name": "",
          "type": "bool"
        }
      ],
      "stateMutability": "view",
      "type": "function"
    },
    {
      "inputs": [
        {
          "internalType": "uint256",
          "name": "tokenId",
          "type": "uint256"
        }
      ],
      "name": "getTokenDetails",
      "outputs": [
        {
          "components": [
            {
              "internalType": "uint256",
              "name": "tokenId",
              "type": "uint256"
            },
            {
              "internalType": "uint8",
              "name": "tokenTypeId",
              "type": "uint8"
            },
            {
              "internalType": "address",
              "name": "issuer",
              "type": "address"
            },
            {
              "internalType": "address",
              "name": "issuee",
              "type": "address"
            },
            {
              "internalType": "string",
              "name": "uom",
              "type": "string"
            },
            {
              "internalType": "uint256",
              "name": "fromDate",
              "type": "uint256"
            },
            {
              "internalType": "uint256",
              "name": "thruDate",
              "type": "uint256"
            },
            {
              "internalType": "uint256",
              "name": "dateCreated",
              "type": "uint256"
            },
            {
              "internalType": "uint256",
              "name": "automaticRetireDate",
              "type": "uint256"
            },
            {
              "internalType": "string",
              "name": "metadata",
              "type": "string"
            },
            {
              "internalType": "string",
              "name": "manifest",
              "type": "string"
            },
            {
              "internalType": "string",
              "name": "description",
              "type": "string"
            }
          ],
          "internalType": "struct NetEmissionsTokenNetwork.CarbonTokenDetails",
          "name": "",
          "type": "tuple"
        }
      ],
      "stateMutability": "view",
      "type": "function"
    },
    {
      "inputs": [
        {
          "internalType": "address",
          "name": "account",
          "type": "address"
        },
        {
          "internalType": "uint256",
          "name": "tokenId",
          "type": "uint256"
        }
      ],
      "name": "getTokenRetiredAmount",
      "outputs": [
        {
          "internalType": "uint256",
          "name": "",
          "type": "uint256"
        }
      ],
      "stateMutability": "view",
      "type": "function"
    },
    {
      "inputs": [
        {
          "internalType": "uint256",
          "name": "tokenId",
          "type": "uint256"
        }
      ],
      "name": "getTokenType",
      "outputs": [
        {
          "internalType": "string",
          "name": "",
          "type": "string"
        }
      ],
      "stateMutability": "view",
      "type": "function"
    },
    {
      "inputs": [
        {
          "internalType": "bytes32",
          "name": "role",
          "type": "bytes32"
        },
        {
          "internalType": "address",
          "name": "account",
          "type": "address"
        }
      ],
      "name": "grantRole",
      "outputs": [],
      "stateMutability": "nonpayable",
      "type": "function"
    },
    {
      "inputs": [
        {
          "internalType": "bytes32",
          "name": "role",
          "type": "bytes32"
        },
        {
          "internalType": "address",
          "name": "account",
          "type": "address"
        }
      ],
      "name": "hasRole",
      "outputs": [
        {
          "internalType": "bool",
          "name": "",
          "type": "bool"
        }
      ],
      "stateMutability": "view",
      "type": "function"
    },
    {
      "inputs": [
        {
          "internalType": "address",
          "name": "account",
          "type": "address"
        },
        {
          "internalType": "address",
          "name": "operator",
          "type": "address"
        }
      ],
      "name": "isApprovedForAll",
      "outputs": [
        {
          "internalType": "bool",
          "name": "",
          "type": "bool"
        }
      ],
      "stateMutability": "view",
      "type": "function"
    },
    {
      "inputs": [
        {
          "internalType": "address",
          "name": "account",
          "type": "address"
        }
      ],
      "name": "isConsumerRegistered",
      "outputs": [
        {
          "internalType": "bool",
          "name": "",
          "type": "bool"
        }
      ],
      "stateMutability": "view",
      "type": "function"
    },
    {
      "inputs": [
        {
          "internalType": "address",
          "name": "account",
          "type": "address"
        }
      ],
      "name": "isDealerRegistered",
      "outputs": [
        {
          "internalType": "bool",
          "name": "",
          "type": "bool"
        }
      ],
      "stateMutability": "view",
      "type": "function"
    },
    {
      "inputs": [
        {
          "internalType": "address",
          "name": "account",
          "type": "address"
        },
        {
          "internalType": "uint8",
          "name": "tokenTypeId",
          "type": "uint8"
        },
        {
          "internalType": "uint256",
          "name": "quantity",
          "type": "uint256"
        },
        {
          "internalType": "string",
          "name": "uom",
          "type": "string"
        },
        {
          "internalType": "uint256",
          "name": "fromDate",
          "type": "uint256"
        },
        {
          "internalType": "uint256",
          "name": "thruDate",
          "type": "uint256"
        },
        {
          "internalType": "uint256",
          "name": "automaticRetireDate",
          "type": "uint256"
        },
        {
          "internalType": "string",
          "name": "metadata",
          "type": "string"
        },
        {
          "internalType": "string",
          "name": "manifest",
          "type": "string"
        },
        {
          "internalType": "string",
          "name": "description",
          "type": "string"
        }
      ],
      "name": "issue",
      "outputs": [],
      "stateMutability": "nonpayable",
      "type": "function"
    },
    {
      "inputs": [
        {
          "internalType": "address",
          "name": "account",
          "type": "address"
        }
      ],
      "name": "registerConsumer",
      "outputs": [],
      "stateMutability": "nonpayable",
      "type": "function"
    },
    {
      "inputs": [
        {
          "internalType": "address",
          "name": "account",
          "type": "address"
        },
        {
          "internalType": "uint8",
          "name": "tokenTypeId",
          "type": "uint8"
        }
      ],
      "name": "registerDealer",
      "outputs": [],
      "stateMutability": "nonpayable",
      "type": "function"
    },
    {
      "inputs": [
        {
          "internalType": "bytes32",
          "name": "role",
          "type": "bytes32"
        },
        {
          "internalType": "address",
          "name": "account",
          "type": "address"
        }
      ],
      "name": "renounceRole",
      "outputs": [],
      "stateMutability": "nonpayable",
      "type": "function"
    },
    {
      "inputs": [
        {
          "internalType": "uint256",
          "name": "tokenId",
          "type": "uint256"
        },
        {
          "internalType": "uint256",
          "name": "amount",
          "type": "uint256"
        }
      ],
      "name": "retire",
      "outputs": [],
      "stateMutability": "nonpayable",
      "type": "function"
    },
    {
      "inputs": [
        {
          "internalType": "bytes32",
          "name": "role",
          "type": "bytes32"
        },
        {
          "internalType": "address",
          "name": "account",
          "type": "address"
        }
      ],
      "name": "revokeRole",
      "outputs": [],
      "stateMutability": "nonpayable",
      "type": "function"
    },
    {
      "inputs": [
        {
          "internalType": "address",
          "name": "from",
          "type": "address"
        },
        {
          "internalType": "address",
          "name": "to",
          "type": "address"
        },
        {
          "internalType": "uint256[]",
          "name": "ids",
          "type": "uint256[]"
        },
        {
          "internalType": "uint256[]",
          "name": "amounts",
          "type": "uint256[]"
        },
        {
          "internalType": "bytes",
          "name": "data",
          "type": "bytes"
        }
      ],
      "name": "safeBatchTransferFrom",
      "outputs": [],
      "stateMutability": "nonpayable",
      "type": "function"
    },
    {
      "inputs": [
        {
          "internalType": "address",
          "name": "from",
          "type": "address"
        },
        {
          "internalType": "address",
          "name": "to",
          "type": "address"
        },
        {
          "internalType": "uint256",
          "name": "id",
          "type": "uint256"
        },
        {
          "internalType": "uint256",
          "name": "amount",
          "type": "uint256"
        },
        {
          "internalType": "bytes",
          "name": "data",
          "type": "bytes"
        }
      ],
      "name": "safeTransferFrom",
      "outputs": [],
      "stateMutability": "nonpayable",
      "type": "function"
    },
    {
      "inputs": [
        {
          "internalType": "address",
          "name": "operator",
          "type": "address"
        },
        {
          "internalType": "bool",
          "name": "approved",
          "type": "bool"
        }
      ],
      "name": "setApprovalForAll",
      "outputs": [],
      "stateMutability": "nonpayable",
      "type": "function"
    },
    {
      "inputs": [
        {
          "internalType": "bytes4",
          "name": "interfaceId",
          "type": "bytes4"
        }
      ],
      "name": "supportsInterface",
      "outputs": [
        {
          "internalType": "bool",
          "name": "",
          "type": "bool"
        }
      ],
      "stateMutability": "view",
      "type": "function"
    },
    {
      "inputs": [
        {
          "internalType": "address",
          "name": "to",
          "type": "address"
        },
        {
          "internalType": "uint256",
          "name": "tokenId",
          "type": "uint256"
        },
        {
          "internalType": "uint256",
          "name": "value",
          "type": "uint256"
        }
      ],
      "name": "transfer",
      "outputs": [],
      "stateMutability": "nonpayable",
      "type": "function"
    },
    {
      "inputs": [
        {
          "internalType": "address",
          "name": "account",
          "type": "address"
        }
      ],
      "name": "unregisterConsumer",
      "outputs": [],
      "stateMutability": "nonpayable",
      "type": "function"
    },
    {
      "inputs": [
        {
          "internalType": "address",
          "name": "account",
          "type": "address"
        },
        {
          "internalType": "uint8",
          "name": "tokenTypeId",
          "type": "uint8"
        }
      ],
      "name": "unregisterDealer",
      "outputs": [],
      "stateMutability": "nonpayable",
      "type": "function"
    },
    {
      "inputs": [
        {
          "internalType": "uint256",
          "name": "",
          "type": "uint256"
        }
      ],
      "name": "uri",
      "outputs": [
        {
          "internalType": "string",
          "name": "",
          "type": "string"
        }
      ],
      "stateMutability": "view",
      "type": "function"
    }
  ],
  "bytecode": "0x6000600755601c60e09081527f52656e657761626c6520456e657267792043657274696669636174650000000061010052608090815260176101209081527f436172626f6e20456d697373696f6e73204f66667365740000000000000000006101405260a0526101a06040526011610160908152704175646974656420456d697373696f6e7360781b6101805260c0526200009f90600890600362000327565b50348015620000ad57600080fd5b506040805180820190915260098152681b1bd8d85b1a1bdcdd60ba1b6020820152620000e06301ffc9a760e01b620001a7565b620000eb8162000202565b620000fd636cdb3d1360e11b620001a7565b6200010f6303a24d0760e21b620001a7565b506200011d6000336200021b565b620001497f2ab9f1da92e74aaa01eb75a871557505b11dd8d36832a34bb21bbee88b08d860336200021b565b620001757fede6574deba8f02ada7888448a497b08844d62e044ed533343a673be3ffcde5f336200021b565b620001a17fe97dad3dbe5042e7384b1572cf966a15e089576a62b5126c5ef1d184ab18b12c336200021b565b620004c6565b6001600160e01b03198082161415620001dd5760405162461bcd60e51b8152600401620001d4906200048f565b60405180910390fd5b6001600160e01b0319166000908152602081905260409020805460ff19166001179055565b8051620002179060039060208401906200038b565b5050565b62000217828260008281526004602090815260409091206200024891839062001cfb6200029c821b17901c565b15620002175762000258620002bc565b6001600160a01b0316816001600160a01b0316837f2f8788117e7eff1d82e926ec794901d17c78024a50270940304540a733656f0d60405160405180910390a45050565b6000620002b3836001600160a01b038416620002c0565b90505b92915050565b3390565b6000620002ce83836200030f565b6200030657508154600181810184556000848152602080822090930184905584548482528286019093526040902091909155620002b6565b506000620002b6565b60009081526001919091016020526040902054151590565b82805482825590600052602060002090810192821562000379579160200282015b82811115620003795782518051620003689184916020909101906200038b565b509160200191906001019062000348565b50620003879291506200040c565b5090565b828054600181600116156101000203166002900490600052602060002090601f016020900481019282601f10620003ce57805160ff1916838001178555620003fe565b82800160010185558215620003fe579182015b82811115620003fe578251825591602001919060010190620003e1565b50620003879291506200042d565b808211156200038757600062000423828262000444565b506001016200040c565b5b808211156200038757600081556001016200042e565b50805460018160011615610100020316600290046000825580601f106200046c57506200048c565b601f0160209004906000526020600020908101906200048c91906200042d565b50565b6020808252601c908201527f4552433136353a20696e76616c696420696e7465726661636520696400000000604082015260600190565b61387080620004d66000396000f3fe608060405234801561001057600080fd5b506004361061021b5760003560e01c806376ce475511610125578063b46a08d7116100ad578063d547741f1161007c578063d547741f146104ae578063e2e564f2146104c1578063e985e9c5146104d4578063f242432a146104e7578063fcba7948146104fa5761021b565b8063b46a08d714610444578063c1e0372814610457578063ca15c87314610477578063ce6ccfaf1461048a5761021b565b806391d14854116100f457806391d14854146103f057806392089c4614610403578063a0d975a714610416578063a217fddf14610429578063a22cb465146104315761021b565b806376ce47551461039f57806378e5c592146103a75780637f157c9b146103af5780639010d07c146103d05761021b565b806331aa4b20116101a85780634e1273f4116101775780634e1273f41461033e57806353dbe9821461035e5780635ddb368f1461037157806369f7ef441461037957806376aed2e11461038c5761021b565b806331aa4b20146102f257806333781a0e1461030557806336568abe1461031857806344b22fdd1461032b5761021b565b80631ef68ef7116101ef5780631ef68ef71461029e578063248a9ca3146102a6578063293a7f2e146102b95780632eb2c2d6146102cc5780632f2ff15d146102df5761021b565b8062fdd58e1461022057806301ffc9a714610249578063095bcdb6146102695780630e89341c1461027e575b600080fd5b61023361022e36600461280f565b610502565b6040516102409190612cd8565b60405180910390f35b61025c610257366004612aaa565b61055e565b6040516102409190612ca4565b61027c610277366004612839565b610581565b005b61029161028c366004612a4d565b6106cb565b6040516102409190612ce1565b610233610763565b6102336102b4366004612a4d565b610775565b61027c6102c7366004612a89565b61078a565b61027c6102da3660046126c5565b610909565b61027c6102ed366004612a65565b610b23565b61027c61030036600461286c565b610b6b565b61025c610313366004612676565b610c6b565b61027c610326366004612a65565b610c85565b61027c610339366004612676565b610cc7565b61035161034c36600461298b565b610d9a565b6040516102409190612c63565b61027c61036c366004612676565b610eda565b610233610fad565b61025c610387366004612676565b610fb4565b61029161039a366004612a4d565b611036565b610233611124565b610233611136565b6103c26103bd36600461280f565b611148565b60405161024092919061363e565b6103e36103de366004612a89565b6111df565b6040516102409190612b93565b61025c6103fe366004612a65565b6111fe565b6103e3610411366004612a4d565b611216565b61023361042436600461280f565b611261565b6102336112b0565b61027c61043f3660046127d4565b6112b5565b61027c610452366004612897565b611383565b61046a610465366004612a4d565b611645565b6040516102409190613545565b610233610485366004612a4d565b61194d565b61049d610498366004612676565b611964565b604051610240959493929190612caf565b61027c6104bc366004612a65565b6119f8565b61027c6104cf36600461286c565b611a32565b61025c6104e2366004612691565b611b27565b61027c6104f536600461276f565b611b55565b610233611ce9565b60006001600160a01b0383166105335760405162461bcd60e51b815260040161052a90612ee3565b60405180910390fd5b5060008181526001602090815260408083206001600160a01b03861684529091529020545b92915050565b6001600160e01b0319811660009081526020819052604090205460ff165b919050565b600061059b6000805160206137b1833981519152336111fe565b905060006105b76000805160206137fb833981519152336111fe565b905060006105d3600080516020613791833981519152336111fe565b905060006105ef60008051602061381b833981519152336111fe565b905083806105fa5750825b806106025750815b8061060a5750805b6106265760405162461bcd60e51b815260040161052a90612f7f565b61062f86611d10565b61064b5760405162461bcd60e51b815260040161052a90613000565b61065487611d2b565b6106705760405162461bcd60e51b815260040161052a906130cb565b336001600160a01b03881614156106995760405162461bcd60e51b815260040161052a90613427565b6106c233888888604051806040016040528060048152602001630307830360e41b815250611b55565b50505050505050565b60038054604080516020601f60026000196101006001881615020190951694909404938401819004810282018101909252828152606093909290918301828280156107575780601f1061072c57610100808354040283529160200191610757565b820191906000526020600020905b81548152906001019060200180831161073a57829003601f168201915b50505050509050919050565b60008051602061379183398151915281565b60009081526004602052604090206002015490565b60006107a46000805160206137b1833981519152336111fe565b905060006107c06000805160206137fb833981519152336111fe565b905060006107dc600080516020613791833981519152336111fe565b905060006107f860008051602061381b833981519152336111fe565b905083806108035750825b8061080b5750815b806108135750805b61082f5760405162461bcd60e51b815260040161052a90612f7f565b61083886611d10565b6108545760405162461bcd60e51b815260040161052a90613000565b6000868152600560205260409020600201546001600160a01b0316331461088d5760405162461bcd60e51b815260040161052a90613160565b6108973387610502565b85106108b55760405162461bcd60e51b815260040161052a90612e1f565b6108c0338787611d45565b60008681526006602090815260408083203384529091529020546108e49086611e5b565b6000968752600660209081526040808920338a52909152909620959095555050505050565b815183511461092a5760405162461bcd60e51b815260040161052a9061346d565b6001600160a01b0384166109505760405162461bcd60e51b815260040161052a906131bd565b610958611e80565b6001600160a01b0316856001600160a01b0316148061097e575061097e856104e2611e80565b61099a5760405162461bcd60e51b815260040161052a90613202565b60006109a4611e80565b90506109b4818787878787610b1b565b60005b8451811015610ab55760008582815181106109ce57fe5b6020026020010151905060008583815181106109e657fe5b60200260200101519050610a53816040518060600160405280602a81526020016137d1602a91396001600086815260200190815260200160002060008d6001600160a01b03166001600160a01b0316815260200190815260200160002054611e849092919063ffffffff16565b60008381526001602090815260408083206001600160a01b038e811685529252808320939093558a1681522054610a8a9082611e5b565b60009283526001602081815260408086206001600160a01b038d1687529091529093205550016109b7565b50846001600160a01b0316866001600160a01b0316826001600160a01b03167f4a39dc06d4c0dbc64b70af90fd698a233a518aa5d07e595d983b8c0526c8f7fb8787604051610b05929190612c76565b60405180910390a4610b1b818787878787611eb0565b505050505050565b600082815260046020526040902060020154610b41906103fe611e80565b610b5d5760405162461bcd60e51b815260040161052a90612e65565b610b678282611fbe565b5050565b610b766000336111fe565b610b925760405162461bcd60e51b815260040161052a90613365565b610b9b81612027565b610bb75760405162461bcd60e51b815260040161052a9061332e565b8060ff1660011415610be057610bdb6000805160206137fb83398151915283610b23565b610c28565b8060ff1660021415610c0457610bdb60008051602061379183398151915283610b23565b8060ff1660031415610c2857610c2860008051602061381b83398151915283610b23565b610c33600083610b23565b6040516001600160a01b038316907fa8377deee15954185683d55effd369508b4935978c8cb2bab790bf04c570181490600090a25050565b60006105586000805160206137b1833981519152836111fe565b610c8d611e80565b6001600160a01b0316816001600160a01b031614610cbd5760405162461bcd60e51b815260040161052a906134f6565b610b67828261204d565b6000610ce16000805160206137fb833981519152336111fe565b90506000610cfd600080516020613791833981519152336111fe565b90506000610d1960008051602061381b833981519152336111fe565b90508280610d245750815b80610d2c5750805b610d485760405162461bcd60e51b815260040161052a90612eb4565b610d606000805160206137b183398151915285610b23565b6040516001600160a01b038516907fa8377deee15954185683d55effd369508b4935978c8cb2bab790bf04c570181490600090a250505050565b60608151835114610dbd5760405162461bcd60e51b815260040161052a906133de565b6060835167ffffffffffffffff81118015610dd757600080fd5b50604051908082528060200260200182016040528015610e01578160200160208202803683370190505b50905060005b8451811015610ed25760006001600160a01b0316858281518110610e2757fe5b60200260200101516001600160a01b03161415610e565760405162461bcd60e51b815260040161052a90612f2e565b60016000858381518110610e6657fe5b602002602001015181526020019081526020016000206000868381518110610e8a57fe5b60200260200101516001600160a01b03166001600160a01b0316815260200190815260200160002054828281518110610ebf57fe5b6020908102919091010152600101610e07565b509392505050565b6000610ef46000805160206137fb833981519152336111fe565b90506000610f10600080516020613791833981519152336111fe565b90506000610f2c60008051602061381b833981519152336111fe565b90508280610f375750815b80610f3f5750805b610f5b5760405162461bcd60e51b815260040161052a90612eb4565b610f736000805160206137b1833981519152856119f8565b6040516001600160a01b038516907f98552ded770f1d05a505572f3387c108dbc6b566ea3d49f83cff3d1f1c72a04290600090a250505050565b6007545b90565b600080610fcf6000805160206137fb833981519152846111fe565b90506000610feb600080516020613791833981519152856111fe565b9050600061100760008051602061381b833981519152866111fe565b905082806110125750815b8061101a5750805b1561102b576001935050505061057c565b506000949350505050565b606061104182611d10565b61105d5760405162461bcd60e51b815260040161052a90613000565b6000828152600560205260409020600101546008805460609260001960ff918216011690811061108957fe5b600091825260209182902001805460408051601f60026000196101006001871615020190941693909304928301859004850281018501909152818152928301828280156111175780601f106110ec57610100808354040283529160200191611117565b820191906000526020600020905b8154815290600101906020018083116110fa57829003601f168201915b5093979650505050505050565b60008051602061381b83398151915281565b6000805160206137b183398151915281565b60008060006111578585610502565b60405163a0d975a760e01b8152909150600090309063a0d975a7906111829089908990600401612c4a565b60206040518083038186803b15801561119a57600080fd5b505afa1580156111ae573d6000803e3d6000fd5b505050506040513d601f19601f820116820180604052508101906111d29190612ae2565b9196919550909350505050565b60008281526004602052604081206111f790836120b6565b9392505050565b60008281526004602052604081206111f790836120c2565b600061122182611d10565b61123d5760405162461bcd60e51b815260040161052a90613000565b5060009081526005602052604090206001015461010090046001600160a01b031690565b600061126c82611d10565b6112885760405162461bcd60e51b815260040161052a90613000565b5060009081526006602090815260408083206001600160a01b03949094168352929052205490565b600081565b816001600160a01b03166112c7611e80565b6001600160a01b031614156112ee5760405162461bcd60e51b815260040161052a90613395565b80600260006112fb611e80565b6001600160a01b03908116825260208083019390935260409182016000908120918716808252919093529120805460ff19169215159290921790915561133f611e80565b6001600160a01b03167f17307eab39ab6107e8899845ad3d59bd9653f200f220920489ca2b5937696c31836040516113779190612ca4565b60405180910390a35050565b600061139d6000805160206137fb833981519152336111fe565b905060006113b9600080516020613791833981519152336111fe565b905060006113d560008051602061381b833981519152336111fe565b905082806113e05750815b806113e85750805b6114045760405162461bcd60e51b815260040161052a90612eb4565b600780546001019081905560009081526005602052604090206114268d612027565b6114425760405162461bcd60e51b815260040161052a906132e6565b8c60ff1660011415611487576114666000805160206137fb833981519152336111fe565b6114825760405162461bcd60e51b815260040161052a90613079565b6114fb565b8c60ff16600214156114c7576114ab600080516020613791833981519152336111fe565b6114825760405162461bcd60e51b815260040161052a90612d8a565b6114df60008051602061381b833981519152336111fe565b6114fb5760405162461bcd60e51b815260040161052a90613297565b606060075482600001819055508d8260010160006101000a81548160ff021916908360ff160217905550338260010160016101000a8154816001600160a01b0302191690836001600160a01b031602179055508e8260020160006101000a8154816001600160a01b0302191690836001600160a01b031602179055508b82600301908051906020019061158f92919061246e565b50600482018b9055600582018a905587516115b390600884019060208b019061246e565b5086516115c990600984019060208a019061246e565b504260068301556007820189905585516115ec90600a840190602089019061246e565b506115fb8f6007548f846120d7565b7f5871761b381266e7e47309f0821d5b396364ebb6371d878871cac5393cb93ea860075460405161162c9190612cd8565b60405180910390a1505050505050505050505050505050565b61164d6124ec565b61165682611d10565b6116725760405162461bcd60e51b815260040161052a90613000565b6000828152600560209081526040918290208251610180810184528154815260018083015460ff811683860152610100908190046001600160a01b039081168488015260028086015490911660608501526003850180548851948116159093026000190190921604601f81018690048602830186019096528582529194929360808601939192919083018282801561174b5780601f106117205761010080835404028352916020019161174b565b820191906000526020600020905b81548152906001019060200180831161172e57829003601f168201915b5050505050815260200160048201548152602001600582015481526020016006820154815260200160078201548152602001600882018054600181600116156101000203166002900480601f0160208091040260200160405190810160405280929190818152602001828054600181600116156101000203166002900480156118155780601f106117ea57610100808354040283529160200191611815565b820191906000526020600020905b8154815290600101906020018083116117f857829003601f168201915b505050918352505060098201805460408051602060026001851615610100026000190190941693909304601f81018490048402820184019092528181529382019392918301828280156118a95780601f1061187e576101008083540402835291602001916118a9565b820191906000526020600020905b81548152906001019060200180831161188c57829003601f168201915b5050509183525050600a8201805460408051602060026001851615610100026000190190941693909304601f810184900484028201840190925281815293820193929183018282801561193d5780601f106119125761010080835404028352916020019161193d565b820191906000526020600020905b81548152906001019060200180831161192057829003601f168201915b5050505050815250509050919050565b6000818152600460205260408120610558906121c2565b6000808080808061197581886111fe565b905060006119916000805160206137fb833981519152896111fe565b905060006119ad6000805160206137918339815191528a6111fe565b905060006119c960008051602061381b8339815191528b6111fe565b905060006119e56000805160206137b18339815191528c6111fe565b949b939a50919850965091945092505050565b600082815260046020526040902060020154611a16906103fe611e80565b610cbd5760405162461bcd60e51b815260040161052a90613110565b611a3d6000336111fe565b611a595760405162461bcd60e51b815260040161052a90613365565b611a6281612027565b611a7e5760405162461bcd60e51b815260040161052a9061332e565b8060ff1660011415611aa757611aa26000805160206137fb833981519152836119f8565b611aef565b8060ff1660021415611acb57611aa2600080516020613791833981519152836119f8565b8060ff1660031415611aef57611aef60008051602061381b833981519152836119f8565b6040516001600160a01b038316907f98552ded770f1d05a505572f3387c108dbc6b566ea3d49f83cff3d1f1c72a04290600090a25050565b6001600160a01b03918216600090815260026020908152604080832093909416825291909152205460ff1690565b6001600160a01b038416611b7b5760405162461bcd60e51b815260040161052a906131bd565b611b83611e80565b6001600160a01b0316856001600160a01b03161480611ba95750611ba9856104e2611e80565b611bc55760405162461bcd60e51b815260040161052a90613030565b6000611bcf611e80565b9050611bef818787611be0886121cd565b611be9886121cd565b87610b1b565b611c36836040518060600160405280602a81526020016137d1602a913960008781526001602090815260408083206001600160a01b038d1684529091529020549190611e84565b60008581526001602090815260408083206001600160a01b038b81168552925280832093909355871681522054611c6d9084611e5b565b60008581526001602090815260408083206001600160a01b03808b168086529190935292819020939093559151909188811691908416907fc3d58168c5ae7397731d063d5bbf3d657854427343f4c083240f7aacaa2d0f6290611cd3908990899061363e565b60405180910390a4610b1b818787878787612211565b6000805160206137fb83398151915281565b60006111f7836001600160a01b0384166122e2565b60008160075410611d235750600161057c565b506000919050565b6000611d3682610fb4565b80610558575061055882610c6b565b6001600160a01b038316611d6b5760405162461bcd60e51b815260040161052a90613254565b6000611d75611e80565b9050611da581856000611d87876121cd565b611d90876121cd565b60405180602001604052806000815250610b1b565b611dec8260405180606001604052806024815260200161376d6024913960008681526001602090815260408083206001600160a01b038b1684529091529020549190611e84565b60008481526001602090815260408083206001600160a01b03808a16808652919093528184209490945551919291908416907fc3d58168c5ae7397731d063d5bbf3d657854427343f4c083240f7aacaa2d0f6290611e4d908890889061363e565b60405180910390a450505050565b6000828201838110156111f75760405162461bcd60e51b815260040161052a90612fc9565b3390565b60008184841115611ea85760405162461bcd60e51b815260040161052a9190612ce1565b505050900390565b611ec2846001600160a01b031661232c565b15610b1b5760405163bc197c8160e01b81526001600160a01b0385169063bc197c8190611efb9089908990889088908890600401612ba7565b602060405180830381600087803b158015611f1557600080fd5b505af1925050508015611f45575060408051601f3d908101601f19168201909252611f4291810190612ac6565b60015b611f8e57611f51613699565b80611f5c5750611f76565b8060405162461bcd60e51b815260040161052a9190612ce1565b60405162461bcd60e51b815260040161052a90612cf4565b6001600160e01b0319811663bc197c8160e01b146106c25760405162461bcd60e51b815260040161052a90612dd7565b6000828152600460205260409020611fd69082611cfb565b15610b6757611fe3611e80565b6001600160a01b0316816001600160a01b0316837f2f8788117e7eff1d82e926ec794901d17c78024a50270940304540a733656f0d60405160405180910390a45050565b6000808260ff16118015612040575060085460ff831611155b15611d235750600161057c565b60008281526004602052604090206120659082612332565b15610b6757612072611e80565b6001600160a01b0316816001600160a01b0316837ff6391f5c32d9c69d2a47ea670b442974b53935d1edc7fd64eb21e047a839171b60405160405180910390a45050565b60006111f78383612347565b60006111f7836001600160a01b03841661238c565b6001600160a01b0384166120fd5760405162461bcd60e51b815260040161052a906134b5565b6000612107611e80565b905061211981600087611be0886121cd565b60008481526001602090815260408083206001600160a01b03891684529091529020546121469084611e5b565b60008581526001602090815260408083206001600160a01b03808b16808652919093528184209490945551908416907fc3d58168c5ae7397731d063d5bbf3d657854427343f4c083240f7aacaa2d0f62906121a4908990899061363e565b60405180910390a46121bb81600087878787612211565b5050505050565b6000610558826123a4565b60408051600180825281830190925260609182919060208083019080368337019050509050828160008151811061220057fe5b602090810291909101015292915050565b612223846001600160a01b031661232c565b15610b1b5760405163f23a6e6160e01b81526001600160a01b0385169063f23a6e619061225c9089908990889088908890600401612c05565b602060405180830381600087803b15801561227657600080fd5b505af19250505080156122a6575060408051601f3d908101601f191682019092526122a391810190612ac6565b60015b6122b257611f51613699565b6001600160e01b0319811663f23a6e6160e01b146106c25760405162461bcd60e51b815260040161052a90612dd7565b60006122ee838361238c565b61232457508154600181810184556000848152602080822090930184905584548482528286019093526040902091909155610558565b506000610558565b3b151590565b60006111f7836001600160a01b0384166123a8565b8154600090821061236a5760405162461bcd60e51b815260040161052a90612d48565b82600001828154811061237957fe5b9060005260206000200154905092915050565b60009081526001919091016020526040902054151590565b5490565b6000818152600183016020526040812054801561246457835460001980830191908101906000908790839081106123db57fe5b90600052602060002001549050808760000184815481106123f857fe5b60009182526020808320909101929092558281526001898101909252604090209084019055865487908061242857fe5b60019003818190600052602060002001600090559055866001016000878152602001908152602001600020600090556001945050505050610558565b6000915050610558565b828054600181600116156101000203166002900490600052602060002090601f016020900481019282601f106124af57805160ff19168380011785556124dc565b828001600101855582156124dc579182015b828111156124dc5782518255916020019190600101906124c1565b506124e8929150612562565b5090565b60405180610180016040528060008152602001600060ff16815260200160006001600160a01b0316815260200160006001600160a01b0316815260200160608152602001600081526020016000815260200160008152602001600081526020016060815260200160608152602001606081525090565b5b808211156124e85760008155600101612563565b80356001600160a01b038116811461055857600080fd5b600082601f83011261259e578081fd5b81356125b16125ac82613673565b61364c565b8181529150602080830190848101818402860182018710156125d257600080fd5b60005b848110156125f1578135845292820192908201906001016125d5565b505050505092915050565b600082601f83011261260c578081fd5b813567ffffffffffffffff811115612622578182fd5b612635601f8201601f191660200161364c565b915080825283602082850101111561264c57600080fd5b8060208401602084013760009082016020015292915050565b803560ff8116811461055857600080fd5b600060208284031215612687578081fd5b6111f78383612577565b600080604083850312156126a3578081fd5b6126ad8484612577565b91506126bc8460208501612577565b90509250929050565b600080600080600060a086880312156126dc578081fd5b85356126e78161373e565b945060208601356126f78161373e565b9350604086013567ffffffffffffffff80821115612713578283fd5b61271f89838a0161258e565b94506060880135915080821115612734578283fd5b61274089838a0161258e565b93506080880135915080821115612755578283fd5b50612762888289016125fc565b9150509295509295909350565b600080600080600060a08688031215612786578081fd5b6127908787612577565b945061279f8760208801612577565b93506040860135925060608601359150608086013567ffffffffffffffff8111156127c8578182fd5b612762888289016125fc565b600080604083850312156127e6578182fd5b6127f08484612577565b915060208301358015158114612804578182fd5b809150509250929050565b60008060408385031215612821578182fd5b61282b8484612577565b946020939093013593505050565b60008060006060848603121561284d578283fd5b6128578585612577565b95602085013595506040909401359392505050565b6000806040838503121561287e578182fd5b6128888484612577565b91506126bc8460208501612665565b6000806000806000806000806000806101408b8d0312156128b6578788fd5b6128c08c8c612577565b99506128cf8c60208d01612665565b985060408b0135975060608b013567ffffffffffffffff808211156128f2578687fd5b6128fe8e838f016125fc565b985060808d0135975060a08d0135965060c08d0135955060e08d0135915080821115612928578485fd5b6129348e838f016125fc565b94506101008d013591508082111561294a578384fd5b6129568e838f016125fc565b93506101208d013591508082111561296c578283fd5b506129798d828e016125fc565b9150509295989b9194979a5092959850565b6000806040838503121561299d578182fd5b823567ffffffffffffffff808211156129b4578384fd5b818501915085601f8301126129c7578384fd5b81356129d56125ac82613673565b80828252602080830192508086018a8283870289010111156129f5578889fd5b8896505b84871015612a1f57612a0b8b82612577565b8452600196909601959281019281016129f9565b509096508701359350505080821115612a36578283fd5b50612a438582860161258e565b9150509250929050565b600060208284031215612a5e578081fd5b5035919050565b60008060408385031215612a77578182fd5b8235915060208301356128048161373e565b60008060408385031215612a9b578182fd5b50508035926020909101359150565b600060208284031215612abb578081fd5b81356111f781613756565b600060208284031215612ad7578081fd5b81516111f781613756565b600060208284031215612af3578081fd5b5051919050565b6001600160a01b03169052565b6000815180845260208085019450808401835b83811015612b3657815187529582019590820190600101612b1a565b509495945050505050565b60008151808452815b81811015612b6657602081850181015186830182015201612b4a565b81811115612b775782602083870101525b50601f01601f19169290920160200192915050565b60ff169052565b6001600160a01b0391909116815260200190565b6001600160a01b0386811682528516602082015260a060408201819052600090612bd390830186612b07565b8281036060840152612be58186612b07565b90508281036080840152612bf98185612b41565b98975050505050505050565b6001600160a01b03868116825285166020820152604081018490526060810183905260a060808201819052600090612c3f90830184612b41565b979650505050505050565b6001600160a01b03929092168252602082015260400190565b6000602082526111f76020830184612b07565b600060408252612c896040830185612b07565b8281036020840152612c9b8185612b07565b95945050505050565b901515815260200190565b941515855292151560208501529015156040840152151560608301521515608082015260a00190565b90815260200190565b6000602082526111f76020830184612b41565b60208082526034908201527f455243313135353a207472616e7366657220746f206e6f6e20455243313135356040820152732932b1b2b4bb32b91034b6b83632b6b2b73a32b960611b606082015260800190565b60208082526022908201527f456e756d657261626c655365743a20696e646578206f7574206f6620626f756e604082015261647360f01b606082015260800190565b6020808252602d908201527f596f7520617265206e6f74206120436172626f6e20456d697373696f6e73204f60408201526c333339b2ba103232b0b632b91760991b606082015260800190565b60208082526028908201527f455243313135353a204552433131353552656365697665722072656a656374656040820152676420746f6b656e7360c01b606082015260800190565b60208082526026908201527f4e6f7420656e6f75676820617661696c61626c652062616c616e636520746f2060408201526572657469726560d01b606082015260800190565b6020808252602f908201527f416363657373436f6e74726f6c3a2073656e646572206d75737420626520616e60408201526e0818591b5a5b881d1bc819dc985b9d608a1b606082015260800190565b6020808252601590820152742cb7ba9030b932903737ba1030903232b0b632b91760591b604082015260600190565b6020808252602b908201527f455243313135353a2062616c616e636520717565727920666f7220746865207a60408201526a65726f206164647265737360a81b606082015260800190565b60208082526031908201527f455243313135353a2062617463682062616c616e636520717565727920666f7260408201527020746865207a65726f206164647265737360781b606082015260800190565b6020808252602a908201527f596f75206d75737420626520656974686572206120636f6e73756d6572206f726040820152691030903232b0b632b91760b11b606082015260800190565b6020808252601b908201527f536166654d6174683a206164646974696f6e206f766572666c6f770000000000604082015260600190565b6020808252601690820152751d1bdad95b925908191bd95cc81b9bdd08195e1a5cdd60521b604082015260600190565b60208082526029908201527f455243313135353a2063616c6c6572206973206e6f74206f776e6572206e6f7260408201526808185c1c1c9bdd995960ba1b606082015260800190565b60208082526032908201527f596f7520617265206e6f7420612052656e657761626c6520456e65726779204360408201527132b93a34b334b1b0ba32903232b0b632b91760711b606082015260800190565b60208082526025908201527f526563697069656e74206d75737420626520636f6e73756d6572206f7220646560408201526430b632b91760d91b606082015260800190565b60208082526030908201527f416363657373436f6e74726f6c3a2073656e646572206d75737420626520616e60408201526f2061646d696e20746f207265766f6b6560801b606082015260800190565b60208082526039908201527f596f75206d75737420626520746865206f726967696e616c207265636970696560408201527f6e74206f662074686520746f6b656e20746f2072657469726500000000000000606082015260800190565b60208082526025908201527f455243313135353a207472616e7366657220746f20746865207a65726f206164604082015264647265737360d81b606082015260800190565b60208082526032908201527f455243313135353a207472616e736665722063616c6c6572206973206e6f74206040820152711bdddb995c881b9bdc88185c1c1c9bdd995960721b606082015260800190565b60208082526023908201527f455243313135353a206275726e2066726f6d20746865207a65726f206164647260408201526265737360e81b606082015260800190565b6020808252602f908201527f596f7520617265206e6f7420616e204175646974656420456d697373696f6e7360408201526e1020b6b7bab73a103232b0b632b91760891b606082015260800190565b60208082526028908201527f4661696c656420746f2069737375653a20746f6b656e5479706549642069732060408201526734b73b30b634b21760c11b606082015260800190565b60208082526019908201527f546f6b656e207479706520646f6573206e6f7420657869737400000000000000604082015260600190565b6020808252601690820152752cb7ba9030b932903737ba103a34329037bbb732b91760511b604082015260600190565b60208082526029908201527f455243313135353a2073657474696e6720617070726f76616c20737461747573604082015268103337b91039b2b63360b91b606082015260800190565b60208082526029908201527f455243313135353a206163636f756e747320616e6420696473206c656e677468604082015268040dad2e6dac2e8c6d60bb1b606082015260800190565b60208082526026908201527f53656e64657220616e642072656365697665722063616e6e6f74206265207468604082015265652073616d6560d01b606082015260800190565b60208082526028908201527f455243313135353a2069647320616e6420616d6f756e7473206c656e677468206040820152670dad2e6dac2e8c6d60c31b606082015260800190565b60208082526021908201527f455243313135353a206d696e7420746f20746865207a65726f206164647265736040820152607360f81b606082015260800190565b6020808252602f908201527f416363657373436f6e74726f6c3a2063616e206f6e6c792072656e6f756e636560408201526e103937b632b9903337b91039b2b63360891b606082015260800190565b6000602082528251602083015260208301516135646040840182612b8c565b5060408301516135776060840182612afa565b50606083015161358a6080840182612afa565b5060808301516101808060a08501526135a76101a0850183612b41565b915060a085015160c085015260c085015160e085015260e0850151610100818187015280870151915050610120818187015280870151915050601f196101408187860301818801526135f98584612b41565b9450808801519250506101608187860301818801526136188584612b41565b9088015187820390920184880152935090506136348382612b41565b9695505050505050565b918252602082015260400190565b60405181810167ffffffffffffffff8111828210171561366b57600080fd5b604052919050565b600067ffffffffffffffff821115613689578081fd5b5060209081020190565b60e01c90565b600060443d10156136a957610fb1565b600481823e6308c379a06136bd8251613693565b146136c757610fb1565b6040513d600319016004823e80513d67ffffffffffffffff81602484011181841117156136f75750505050610fb1565b828401925082519150808211156137115750505050610fb1565b503d8301602082840101111561372957505050610fb1565b601f01601f1916810160200160405291505090565b6001600160a01b038116811461375357600080fd5b50565b6001600160e01b03198116811461375357600080fdfe455243313135353a206275726e20616d6f756e7420657863656564732062616c616e6365ede6574deba8f02ada7888448a497b08844d62e044ed533343a673be3ffcde5f5e1aa547d3dade8c68b013a47ad41c2bcc9b9e4b0765b0fb616780e15786e76a455243313135353a20696e73756666696369656e742062616c616e636520666f72207472616e736665722ab9f1da92e74aaa01eb75a871557505b11dd8d36832a34bb21bbee88b08d860e97dad3dbe5042e7384b1572cf966a15e089576a62b5126c5ef1d184ab18b12ca264697066735822122020c2e842f3af2b87af57f75ef5373e07f72a0c39312ec35bc37e4928f2c48ab864736f6c63430007000033",
  "linkReferences": {},
  "deployedLinkReferences": {}
}