{
  "_format": "hh-sol-artifact-1",
  "contractName": "NetEmissionsTokenNetwork",
  "sourceName": "contracts/NetEmissionsTokenNetwork.sol",
  "abi": [
    {
      "anonymous": false,
      "inputs": [
        {
          "indexed": true,
          "internalType": "address",
          "name": "account",
          "type": "address"
        },
        {
          "indexed": true,
          "internalType": "address",
          "name": "operator",
          "type": "address"
        },
        {
          "indexed": false,
          "internalType": "bool",
          "name": "approved",
          "type": "bool"
        }
      ],
      "name": "ApprovalForAll",
      "type": "event"
    },
    {
      "anonymous": false,
      "inputs": [
        {
          "indexed": true,
          "internalType": "address",
          "name": "account",
          "type": "address"
        }
      ],
      "name": "RegisteredConsumer",
      "type": "event"
    },
    {
      "anonymous": false,
      "inputs": [
        {
          "indexed": true,
          "internalType": "address",
          "name": "account",
          "type": "address"
        }
      ],
      "name": "RegisteredDealer",
      "type": "event"
    },
    {
      "anonymous": false,
      "inputs": [
        {
          "indexed": true,
          "internalType": "bytes32",
          "name": "role",
          "type": "bytes32"
        },
        {
          "indexed": true,
          "internalType": "bytes32",
          "name": "previousAdminRole",
          "type": "bytes32"
        },
        {
          "indexed": true,
          "internalType": "bytes32",
          "name": "newAdminRole",
          "type": "bytes32"
        }
      ],
      "name": "RoleAdminChanged",
      "type": "event"
    },
    {
      "anonymous": false,
      "inputs": [
        {
          "indexed": true,
          "internalType": "bytes32",
          "name": "role",
          "type": "bytes32"
        },
        {
          "indexed": true,
          "internalType": "address",
          "name": "account",
          "type": "address"
        },
        {
          "indexed": true,
          "internalType": "address",
          "name": "sender",
          "type": "address"
        }
      ],
      "name": "RoleGranted",
      "type": "event"
    },
    {
      "anonymous": false,
      "inputs": [
        {
          "indexed": true,
          "internalType": "bytes32",
          "name": "role",
          "type": "bytes32"
        },
        {
          "indexed": true,
          "internalType": "address",
          "name": "account",
          "type": "address"
        },
        {
          "indexed": true,
          "internalType": "address",
          "name": "sender",
          "type": "address"
        }
      ],
      "name": "RoleRevoked",
      "type": "event"
    },
    {
      "anonymous": false,
      "inputs": [
        {
          "indexed": false,
          "internalType": "uint256",
          "name": "availableBalance",
          "type": "uint256"
        },
        {
          "indexed": false,
          "internalType": "uint256",
          "name": "retiredBalance",
          "type": "uint256"
        },
        {
          "indexed": false,
          "internalType": "uint256",
          "name": "tokenId",
          "type": "uint256"
        },
        {
          "indexed": false,
          "internalType": "uint8",
          "name": "tokenTypeId",
          "type": "uint8"
        },
        {
          "indexed": true,
          "internalType": "address",
          "name": "issuer",
          "type": "address"
        },
        {
          "indexed": true,
          "internalType": "address",
          "name": "issuee",
          "type": "address"
        },
        {
          "indexed": false,
          "internalType": "uint256",
          "name": "fromDate",
          "type": "uint256"
        },
        {
          "indexed": false,
          "internalType": "uint256",
          "name": "thruDate",
          "type": "uint256"
        },
        {
          "indexed": false,
          "internalType": "uint256",
          "name": "dateCreated",
          "type": "uint256"
        },
        {
          "indexed": false,
          "internalType": "uint256",
          "name": "automaticRetireDate",
          "type": "uint256"
        },
        {
          "indexed": false,
          "internalType": "string",
          "name": "metadata",
          "type": "string"
        },
        {
          "indexed": false,
          "internalType": "string",
          "name": "manifest",
          "type": "string"
        },
        {
          "indexed": false,
          "internalType": "string",
          "name": "description",
          "type": "string"
        }
      ],
      "name": "TokenCreated",
      "type": "event"
    },
    {
      "anonymous": false,
      "inputs": [
        {
          "indexed": true,
          "internalType": "address",
          "name": "account",
          "type": "address"
        },
        {
          "indexed": false,
          "internalType": "uint256",
          "name": "tokenId",
          "type": "uint256"
        },
        {
          "indexed": false,
          "internalType": "uint256",
          "name": "amount",
          "type": "uint256"
        }
      ],
      "name": "TokenRetired",
      "type": "event"
    },
    {
      "anonymous": false,
      "inputs": [
        {
          "indexed": true,
          "internalType": "address",
          "name": "operator",
          "type": "address"
        },
        {
          "indexed": true,
          "internalType": "address",
          "name": "from",
          "type": "address"
        },
        {
          "indexed": true,
          "internalType": "address",
          "name": "to",
          "type": "address"
        },
        {
          "indexed": false,
          "internalType": "uint256[]",
          "name": "ids",
          "type": "uint256[]"
        },
        {
          "indexed": false,
          "internalType": "uint256[]",
          "name": "values",
          "type": "uint256[]"
        }
      ],
      "name": "TransferBatch",
      "type": "event"
    },
    {
      "anonymous": false,
      "inputs": [
        {
          "indexed": true,
          "internalType": "address",
          "name": "operator",
          "type": "address"
        },
        {
          "indexed": true,
          "internalType": "address",
          "name": "from",
          "type": "address"
        },
        {
          "indexed": true,
          "internalType": "address",
          "name": "to",
          "type": "address"
        },
        {
          "indexed": false,
          "internalType": "uint256",
          "name": "id",
          "type": "uint256"
        },
        {
          "indexed": false,
          "internalType": "uint256",
          "name": "value",
          "type": "uint256"
        }
      ],
      "name": "TransferSingle",
      "type": "event"
    },
    {
      "anonymous": false,
      "inputs": [
        {
          "indexed": false,
          "internalType": "string",
          "name": "value",
          "type": "string"
        },
        {
          "indexed": true,
          "internalType": "uint256",
          "name": "id",
          "type": "uint256"
        }
      ],
      "name": "URI",
      "type": "event"
    },
    {
      "anonymous": false,
      "inputs": [
        {
          "indexed": true,
          "internalType": "address",
          "name": "account",
          "type": "address"
        }
      ],
      "name": "UnregisteredConsumer",
      "type": "event"
    },
    {
      "anonymous": false,
      "inputs": [
        {
          "indexed": true,
          "internalType": "address",
          "name": "account",
          "type": "address"
        }
      ],
      "name": "UnregisteredDealer",
      "type": "event"
    },
    {
      "inputs": [],
      "name": "DEFAULT_ADMIN_ROLE",
      "outputs": [
        {
          "internalType": "bytes32",
          "name": "",
          "type": "bytes32"
        }
      ],
      "stateMutability": "view",
      "type": "function"
    },
    {
      "inputs": [],
      "name": "REGISTERED_CONSUMER",
      "outputs": [
        {
          "internalType": "bytes32",
          "name": "",
          "type": "bytes32"
        }
      ],
      "stateMutability": "view",
      "type": "function"
    },
    {
      "inputs": [],
      "name": "REGISTERED_DEALER",
      "outputs": [
        {
          "internalType": "bytes32",
          "name": "",
          "type": "bytes32"
        }
      ],
      "stateMutability": "view",
      "type": "function"
    },
    {
      "inputs": [],
      "name": "REGISTERED_EMISSIONS_AUDITOR",
      "outputs": [
        {
          "internalType": "bytes32",
          "name": "",
          "type": "bytes32"
        }
      ],
      "stateMutability": "view",
      "type": "function"
    },
    {
      "inputs": [],
      "name": "REGISTERED_OFFSET_DEALER",
      "outputs": [
        {
          "internalType": "bytes32",
          "name": "",
          "type": "bytes32"
        }
      ],
      "stateMutability": "view",
      "type": "function"
    },
    {
      "inputs": [],
      "name": "REGISTERED_REC_DEALER",
      "outputs": [
        {
          "internalType": "bytes32",
          "name": "",
          "type": "bytes32"
        }
      ],
      "stateMutability": "view",
      "type": "function"
    },
    {
      "inputs": [],
      "name": "admin",
      "outputs": [
        {
          "internalType": "address",
          "name": "",
          "type": "address"
        }
      ],
      "stateMutability": "view",
      "type": "function"
    },
    {
      "inputs": [
        {
          "internalType": "address",
          "name": "account",
          "type": "address"
        },
        {
          "internalType": "uint256",
          "name": "id",
          "type": "uint256"
        }
      ],
      "name": "balanceOf",
      "outputs": [
        {
          "internalType": "uint256",
          "name": "",
          "type": "uint256"
        }
      ],
      "stateMutability": "view",
      "type": "function"
    },
    {
      "inputs": [
        {
          "internalType": "address[]",
          "name": "accounts",
          "type": "address[]"
        },
        {
          "internalType": "uint256[]",
          "name": "ids",
          "type": "uint256[]"
        }
      ],
      "name": "balanceOfBatch",
      "outputs": [
        {
          "internalType": "uint256[]",
          "name": "",
          "type": "uint256[]"
        }
      ],
      "stateMutability": "view",
      "type": "function"
    },
    {
      "inputs": [
        {
          "internalType": "address",
          "name": "account",
          "type": "address"
        },
        {
          "internalType": "uint256",
          "name": "tokenId",
          "type": "uint256"
        }
      ],
      "name": "getAvailableAndRetired",
      "outputs": [
        {
          "internalType": "uint256",
          "name": "",
          "type": "uint256"
        },
        {
          "internalType": "uint256",
          "name": "",
          "type": "uint256"
        }
      ],
      "stateMutability": "view",
      "type": "function"
    },
    {
      "inputs": [
        {
          "internalType": "uint256",
          "name": "tokenId",
          "type": "uint256"
        }
      ],
      "name": "getIssuer",
      "outputs": [
        {
          "internalType": "address",
          "name": "",
          "type": "address"
        }
      ],
      "stateMutability": "view",
      "type": "function"
    },
    {
      "inputs": [],
      "name": "getNumOfUniqueTokens",
      "outputs": [
        {
          "internalType": "uint256",
          "name": "",
          "type": "uint256"
        }
      ],
      "stateMutability": "view",
      "type": "function"
    },
    {
      "inputs": [
        {
          "internalType": "bytes32",
          "name": "role",
          "type": "bytes32"
        }
      ],
      "name": "getRoleAdmin",
      "outputs": [
        {
          "internalType": "bytes32",
          "name": "",
          "type": "bytes32"
        }
      ],
      "stateMutability": "view",
      "type": "function"
    },
    {
      "inputs": [
        {
          "internalType": "bytes32",
          "name": "role",
          "type": "bytes32"
        },
        {
          "internalType": "uint256",
          "name": "index",
          "type": "uint256"
        }
      ],
      "name": "getRoleMember",
      "outputs": [
        {
          "internalType": "address",
          "name": "",
          "type": "address"
        }
      ],
      "stateMutability": "view",
      "type": "function"
    },
    {
      "inputs": [
        {
          "internalType": "bytes32",
          "name": "role",
          "type": "bytes32"
        }
      ],
      "name": "getRoleMemberCount",
      "outputs": [
        {
          "internalType": "uint256",
          "name": "",
          "type": "uint256"
        }
      ],
      "stateMutability": "view",
      "type": "function"
    },
    {
      "inputs": [
        {
          "internalType": "address",
          "name": "account",
          "type": "address"
        }
      ],
      "name": "getRoles",
      "outputs": [
        {
          "internalType": "bool",
          "name": "",
          "type": "bool"
        },
        {
          "internalType": "bool",
          "name": "",
          "type": "bool"
        },
        {
          "internalType": "bool",
          "name": "",
          "type": "bool"
        },
        {
          "internalType": "bool",
          "name": "",
          "type": "bool"
        },
        {
          "internalType": "bool",
          "name": "",
          "type": "bool"
        }
      ],
      "stateMutability": "view",
      "type": "function"
    },
    {
      "inputs": [
        {
          "internalType": "uint256",
          "name": "tokenId",
          "type": "uint256"
        }
      ],
      "name": "getTokenDetails",
      "outputs": [
        {
          "components": [
            {
              "internalType": "uint256",
              "name": "tokenId",
              "type": "uint256"
            },
            {
              "internalType": "uint8",
              "name": "tokenTypeId",
              "type": "uint8"
            },
            {
              "internalType": "address",
              "name": "issuer",
              "type": "address"
            },
            {
              "internalType": "address",
              "name": "issuee",
              "type": "address"
            },
            {
              "internalType": "uint256",
              "name": "fromDate",
              "type": "uint256"
            },
            {
              "internalType": "uint256",
              "name": "thruDate",
              "type": "uint256"
            },
            {
              "internalType": "uint256",
              "name": "dateCreated",
              "type": "uint256"
            },
            {
              "internalType": "uint256",
              "name": "automaticRetireDate",
              "type": "uint256"
            },
            {
              "internalType": "string",
              "name": "metadata",
              "type": "string"
            },
            {
              "internalType": "string",
              "name": "manifest",
              "type": "string"
            },
            {
              "internalType": "string",
              "name": "description",
              "type": "string"
            },
            {
              "internalType": "uint256",
              "name": "totalIssued",
              "type": "uint256"
            },
            {
              "internalType": "uint256",
              "name": "totalRetired",
              "type": "uint256"
            }
          ],
          "internalType": "struct NetEmissionsTokenNetwork.CarbonTokenDetails",
          "name": "",
          "type": "tuple"
        }
      ],
      "stateMutability": "view",
      "type": "function"
    },
    {
      "inputs": [
        {
          "internalType": "address",
          "name": "account",
          "type": "address"
        },
        {
          "internalType": "uint256",
          "name": "tokenId",
          "type": "uint256"
        }
      ],
      "name": "getTokenRetiredAmount",
      "outputs": [
        {
          "internalType": "uint256",
          "name": "",
          "type": "uint256"
        }
      ],
      "stateMutability": "view",
      "type": "function"
    },
    {
      "inputs": [
        {
          "internalType": "uint256",
          "name": "tokenId",
          "type": "uint256"
        }
      ],
      "name": "getTokenType",
      "outputs": [
        {
          "internalType": "string",
          "name": "",
          "type": "string"
        }
      ],
      "stateMutability": "view",
      "type": "function"
    },
    {
      "inputs": [
        {
          "internalType": "bytes32",
          "name": "role",
          "type": "bytes32"
        },
        {
          "internalType": "address",
          "name": "account",
          "type": "address"
        }
      ],
      "name": "grantRole",
      "outputs": [],
      "stateMutability": "nonpayable",
      "type": "function"
    },
    {
      "inputs": [
        {
          "internalType": "bytes32",
          "name": "role",
          "type": "bytes32"
        },
        {
          "internalType": "address",
          "name": "account",
          "type": "address"
        }
      ],
      "name": "hasRole",
      "outputs": [
        {
          "internalType": "bool",
          "name": "",
          "type": "bool"
        }
      ],
      "stateMutability": "view",
      "type": "function"
    },
    {
      "inputs": [
        {
          "internalType": "address",
          "name": "_admin",
          "type": "address"
        }
      ],
      "name": "initialize",
      "outputs": [],
      "stateMutability": "nonpayable",
      "type": "function"
    },
    {
      "inputs": [
        {
          "internalType": "address",
          "name": "account",
          "type": "address"
        },
        {
          "internalType": "address",
          "name": "operator",
          "type": "address"
        }
      ],
      "name": "isApprovedForAll",
      "outputs": [
        {
          "internalType": "bool",
          "name": "",
          "type": "bool"
        }
      ],
      "stateMutability": "view",
      "type": "function"
    },
    {
      "inputs": [
        {
          "internalType": "address",
          "name": "account",
          "type": "address"
        }
      ],
      "name": "isConsumerRegistered",
      "outputs": [
        {
          "internalType": "bool",
          "name": "",
          "type": "bool"
        }
      ],
      "stateMutability": "view",
      "type": "function"
    },
    {
      "inputs": [
        {
          "internalType": "address",
          "name": "account",
          "type": "address"
        }
      ],
      "name": "isDealerRegistered",
      "outputs": [
        {
          "internalType": "bool",
          "name": "",
          "type": "bool"
        }
      ],
      "stateMutability": "view",
      "type": "function"
    },
    {
      "inputs": [
        {
          "internalType": "address",
          "name": "issuee",
          "type": "address"
        },
        {
          "internalType": "uint8",
          "name": "tokenTypeId",
          "type": "uint8"
        },
        {
          "internalType": "uint256",
          "name": "quantity",
          "type": "uint256"
        },
        {
          "internalType": "uint256",
          "name": "fromDate",
          "type": "uint256"
        },
        {
          "internalType": "uint256",
          "name": "thruDate",
          "type": "uint256"
        },
        {
          "internalType": "uint256",
          "name": "automaticRetireDate",
          "type": "uint256"
        },
        {
          "internalType": "string",
          "name": "metadata",
          "type": "string"
        },
        {
          "internalType": "string",
          "name": "manifest",
          "type": "string"
        },
        {
          "internalType": "string",
          "name": "description",
          "type": "string"
        }
      ],
      "name": "issue",
      "outputs": [],
      "stateMutability": "nonpayable",
      "type": "function"
    },
    {
      "inputs": [
        {
          "internalType": "address",
          "name": "issuee",
          "type": "address"
        },
        {
          "internalType": "address",
          "name": "issuer",
          "type": "address"
        },
        {
          "internalType": "uint8",
          "name": "tokenTypeId",
          "type": "uint8"
        },
        {
          "internalType": "uint256",
          "name": "quantity",
          "type": "uint256"
        },
        {
          "internalType": "uint256",
          "name": "fromDate",
          "type": "uint256"
        },
        {
          "internalType": "uint256",
          "name": "thruDate",
          "type": "uint256"
        },
        {
          "internalType": "uint256",
          "name": "automaticRetireDate",
          "type": "uint256"
        },
        {
          "internalType": "string",
          "name": "metadata",
          "type": "string"
        },
        {
          "internalType": "string",
          "name": "manifest",
          "type": "string"
        },
        {
          "internalType": "string",
          "name": "description",
          "type": "string"
        }
      ],
      "name": "issueOnBehalf",
      "outputs": [],
      "stateMutability": "nonpayable",
      "type": "function"
    },
    {
      "inputs": [],
      "name": "limitedMode",
      "outputs": [
        {
          "internalType": "bool",
          "name": "",
          "type": "bool"
        }
      ],
      "stateMutability": "view",
      "type": "function"
    },
    {
      "inputs": [
        {
          "internalType": "address",
          "name": "to",
          "type": "address"
        },
        {
          "internalType": "uint256",
          "name": "tokenId",
          "type": "uint256"
        },
        {
          "internalType": "uint256",
          "name": "quantity",
          "type": "uint256"
        }
      ],
      "name": "mint",
      "outputs": [],
      "stateMutability": "nonpayable",
      "type": "function"
    },
    {
      "inputs": [
        {
          "internalType": "address",
          "name": "account",
          "type": "address"
        }
      ],
      "name": "registerConsumer",
      "outputs": [],
      "stateMutability": "nonpayable",
      "type": "function"
    },
    {
      "inputs": [
        {
          "internalType": "address",
          "name": "account",
          "type": "address"
        },
        {
          "internalType": "uint8",
          "name": "tokenTypeId",
          "type": "uint8"
        }
      ],
      "name": "registerDealer",
      "outputs": [],
      "stateMutability": "nonpayable",
      "type": "function"
    },
    {
      "inputs": [
        {
          "internalType": "bytes32",
          "name": "role",
          "type": "bytes32"
        },
        {
          "internalType": "address",
          "name": "account",
          "type": "address"
        }
      ],
      "name": "renounceRole",
      "outputs": [],
      "stateMutability": "nonpayable",
      "type": "function"
    },
    {
      "inputs": [
        {
          "internalType": "uint256",
          "name": "tokenId",
          "type": "uint256"
        },
        {
          "internalType": "uint256",
          "name": "amount",
          "type": "uint256"
        }
      ],
      "name": "retire",
      "outputs": [],
      "stateMutability": "nonpayable",
      "type": "function"
    },
    {
      "inputs": [
        {
          "internalType": "bytes32",
          "name": "role",
          "type": "bytes32"
        },
        {
          "internalType": "address",
          "name": "account",
          "type": "address"
        }
      ],
      "name": "revokeRole",
      "outputs": [],
      "stateMutability": "nonpayable",
      "type": "function"
    },
    {
      "inputs": [
        {
          "internalType": "address",
          "name": "from",
          "type": "address"
        },
        {
          "internalType": "address",
          "name": "to",
          "type": "address"
        },
        {
          "internalType": "uint256[]",
          "name": "ids",
          "type": "uint256[]"
        },
        {
          "internalType": "uint256[]",
          "name": "amounts",
          "type": "uint256[]"
        },
        {
          "internalType": "bytes",
          "name": "data",
          "type": "bytes"
        }
      ],
      "name": "safeBatchTransferFrom",
      "outputs": [],
      "stateMutability": "nonpayable",
      "type": "function"
    },
    {
      "inputs": [
        {
          "internalType": "address",
          "name": "from",
          "type": "address"
        },
        {
          "internalType": "address",
          "name": "to",
          "type": "address"
        },
        {
          "internalType": "uint256",
          "name": "id",
          "type": "uint256"
        },
        {
          "internalType": "uint256",
          "name": "amount",
          "type": "uint256"
        },
        {
          "internalType": "bytes",
          "name": "data",
          "type": "bytes"
        }
      ],
      "name": "safeTransferFrom",
      "outputs": [],
      "stateMutability": "nonpayable",
      "type": "function"
    },
    {
      "inputs": [
        {
          "internalType": "address",
          "name": "operator",
          "type": "address"
        },
        {
          "internalType": "bool",
          "name": "approved",
          "type": "bool"
        }
      ],
      "name": "setApprovalForAll",
      "outputs": [],
      "stateMutability": "nonpayable",
      "type": "function"
    },
    {
      "inputs": [
        {
          "internalType": "bool",
          "name": "_limitedMode",
          "type": "bool"
        }
      ],
      "name": "setLimitedMode",
      "outputs": [],
      "stateMutability": "nonpayable",
      "type": "function"
    },
    {
      "inputs": [
        {
          "internalType": "address",
          "name": "_timelock",
          "type": "address"
        }
      ],
      "name": "setTimelock",
      "outputs": [],
      "stateMutability": "nonpayable",
      "type": "function"
    },
    {
      "inputs": [
        {
          "internalType": "bytes4",
          "name": "interfaceId",
          "type": "bytes4"
        }
      ],
      "name": "supportsInterface",
      "outputs": [
        {
          "internalType": "bool",
          "name": "",
          "type": "bool"
        }
      ],
      "stateMutability": "view",
      "type": "function"
    },
    {
      "inputs": [
        {
          "internalType": "address",
          "name": "to",
          "type": "address"
        },
        {
          "internalType": "uint256",
          "name": "tokenId",
          "type": "uint256"
        },
        {
          "internalType": "uint256",
          "name": "value",
          "type": "uint256"
        }
      ],
      "name": "transfer",
      "outputs": [],
      "stateMutability": "nonpayable",
      "type": "function"
    },
    {
      "inputs": [
        {
          "internalType": "address",
          "name": "account",
          "type": "address"
        }
      ],
      "name": "unregisterConsumer",
      "outputs": [],
      "stateMutability": "nonpayable",
      "type": "function"
    },
    {
      "inputs": [
        {
          "internalType": "address",
          "name": "account",
          "type": "address"
        },
        {
          "internalType": "uint8",
          "name": "tokenTypeId",
          "type": "uint8"
        }
      ],
      "name": "unregisterDealer",
      "outputs": [],
      "stateMutability": "nonpayable",
      "type": "function"
    },
    {
      "inputs": [
        {
          "internalType": "uint256",
          "name": "",
          "type": "uint256"
        }
      ],
      "name": "uri",
      "outputs": [
        {
          "internalType": "string",
          "name": "",
          "type": "string"
        }
      ],
      "stateMutability": "view",
      "type": "function"
    }
  ],
  "bytecode": "0x608060405234801561001057600080fd5b50614c1b806100206000396000f3fe608060405234801561001057600080fd5b50600436106102735760003560e01c80637f157c9b11610151578063ce6ccfaf116100c3578063e985e9c511610087578063e985e9c514610575578063f000be9814610588578063f242432a1461059b578063f851a440146105ae578063fcba7948146105b6578063fd0c4a9a146105be57610273565b8063ce6ccfaf14610510578063d547741f14610534578063dba851b014610547578063ddc3e6eb1461054f578063e2e564f21461056257610273565b8063a217fddf11610115578063a217fddf1461049c578063a22cb465146104a4578063bdacb303146104b7578063c1e03728146104ca578063c4d66de8146104ea578063ca15c873146104fd57610273565b80637f157c9b146104225780639010d07c1461044357806391d148541461046357806392089c4614610476578063a0d975a71461048957610273565b806331aa4b20116101ea57806353dbe982116101ae57806353dbe982146103d15780635ddb368f146103e457806369f7ef44146103ec57806376aed2e1146103ff57806376ce47551461041257806378e5c5921461041a57610273565b806331aa4b201461036557806333781a0e1461037857806336568abe1461038b57806344b22fdd1461039e5780634e1273f4146103b157610273565b806318a50d7e1161023c57806318a50d7e146103095780631ef68ef714610311578063248a9ca314610319578063293a7f2e1461032c5780632eb2c2d61461033f5780632f2ff15d1461035257610273565b8062fdd58e1461027857806301ffc9a7146102a1578063095bcdb6146102c15780630e89341c146102d6578063156e29f6146102f6575b600080fd5b61028b610286366004613873565b6105d1565b6040516102989190613cbe565b60405180910390f35b6102b46102af366004613af7565b610643565b6040516102989190613c8a565b6102d46102cf36600461389c565b610666565b005b6102e96102e4366004613a9c565b6107e6565b6040516102989190613cc7565b6102d461030436600461389c565b61087e565b61028b61090d565b61028b61091f565b61028b610327366004613a9c565b610931565b6102d461033a366004613ad6565b610946565b6102d461034d366004613662565b610a8f565b6102d4610360366004613ab4565b610d8d565b6102d46103733660046138ce565b610df4565b6102b4610386366004613616565b610ef5565b6102d4610399366004613ab4565b610f0f565b6102d46103ac366004613616565b610f70565b6103c46103bf3660046139c4565b611075565b6040516102989190613c46565b6102d46103df366004613616565b611161565b61028b611266565b6102b46103fa366004613616565b611278565b6102e961040d366004613a9c565b6112fa565b61028b6113f3565b61028b611405565b610435610430366004613873565b611417565b6040516102989291906146c9565b610456610451366004613ad6565b6114ae565b6040516102989190613c19565b6102b4610471366004613ab4565b6114cd565b610456610484366004613a9c565b6114e5565b61028b610497366004613873565b611508565b61028b611557565b6102d46104b236600461384a565b61155c565b6102d46104c5366004613616565b61164b565b6104dd6104d8366004613a9c565b611694565b60405161029891906145d5565b6102d46104f8366004613616565b6118e8565b61028b61050b366004613a9c565b611a67565b61052361051e366004613616565b611a7e565b604051610298959493929190613c95565b6102d4610542366004613ab4565b611b12565b6102b4611b6b565b6102d461055d366004613a82565b611b74565b6102d46105703660046138ce565b611bae565b6102b4610583366004613630565b611cbc565b6102d461059636600461376b565b611cea565b6102d46105a9366004613708565b611d43565b610456611f0e565b61028b611f22565b6102d46105cc3660046138f7565b611f34565b60006001600160a01b0383166106185760405162461bcd60e51b815260040180806020018281038252602b815260200180614902602b913960400191505060405180910390fd5b5060008181526065602090815260408083206001600160a01b03861684529091529020545b92915050565b6001600160e01b0319811660009081526033602052604090205460ff165b919050565b6000610680600080516020614a4f833981519152336114cd565b9050600061069c600080516020614b2e833981519152336114cd565b905060006106b860008051602061497a833981519152336114cd565b905060006106d4600080516020614b97833981519152336114cd565b905083806106df5750825b806106e75750815b806106ef5750805b6107145760405162461bcd60e51b815260040161070b906144c3565b60405180910390fd5b61071d86611fd5565b6107395760405162461bcd60e51b815260040161070b9061419f565b610751600080516020614a4f833981519152886114cd565b8061076f575061076f600080516020614a6f833981519152886114cd565b61078b5760405162461bcd60e51b815260040161070b90613dfe565b336001600160a01b03881614156107b45760405162461bcd60e51b815260040161070b906140a7565b6107dd33888888604051806040016040528060048152602001630307830360e41b815250611d43565b50505050505050565b60678054604080516020601f60026000196101006001881615020190951694909404938401819004810282018101909252828152606093909290918301828280156108725780601f1061084757610100808354040283529160200191610872565b820191906000526020600020905b81548152906001019060200180831161085557829003601f168201915b50505050509050919050565b6108896000336114cd565b6108a55760405162461bcd60e51b815260040161070b90613f5a565b6108ae82611fd5565b6108ca5760405162461bcd60e51b815260040161070b90613dbc565b60c95460ff16156108ed5760405162461bcd60e51b815260040161070b906140fd565b61090883838360405180602001604052806000815250611ff7565b505050565b600080516020614a6f83398151915281565b60008051602061497a83398151915281565b60009081526097602052604090206002015490565b6000610960600080516020614a4f833981519152336114cd565b9050600061097c600080516020614b2e833981519152336114cd565b9050600061099860008051602061497a833981519152336114cd565b905060006109b4600080516020614b97833981519152336114cd565b905083806109bf5750825b806109c75750815b806109cf5750805b6109eb5760405162461bcd60e51b815260040161070b906144c3565b6109f486611fd5565b610a105760405162461bcd60e51b815260040161070b90613d78565b610a1a33876105d1565b851115610a395760405162461bcd60e51b815260040161070b90613ff6565b610a443387876120ff565b336001600160a01b03167f8f1b5ebb586d3d169e4ed07db9cd10ce0dd30c7b656171310eae7517c0b53cf98787604051610a7f9291906146c9565b60405180910390a2505050505050565b8151835114610acf5760405162461bcd60e51b8152600401808060200182810382526028815260200180614b4e6028913960400191505060405180910390fd5b6001600160a01b038416610b145760405162461bcd60e51b81526004018080602001828103825260258152602001806149ca6025913960400191505060405180910390fd5b610b1c61218b565b6001600160a01b0316856001600160a01b03161480610b425750610b428561058361218b565b610b7d5760405162461bcd60e51b81526004018080602001828103825260328152602001806149ef6032913960400191505060405180910390fd5b6000610b8761218b565b9050610b9781878787878761218f565b60005b8451811015610c9d576000858281518110610bb157fe5b602002602001015190506000858381518110610bc957fe5b60200260200101519050610c36816040518060600160405280602a8152602001614ab2602a91396065600086815260200190815260200160002060008d6001600160a01b03166001600160a01b031681526020019081526020016000205461228c9092919063ffffffff16565b60008381526065602090815260408083206001600160a01b038e811685529252808320939093558a1681522054610c6d9082612323565b60009283526065602090815260408085206001600160a01b038c1686529091529092209190915550600101610b9a565b50846001600160a01b0316866001600160a01b0316826001600160a01b03167f4a39dc06d4c0dbc64b70af90fd698a233a518aa5d07e595d983b8c0526c8f7fb8787604051808060200180602001838103835285818151815260200191508051906020019060200280838360005b83811015610d23578181015183820152602001610d0b565b50505050905001838103825284818151815260200191508051906020019060200280838360005b83811015610d62578181015183820152602001610d4a565b5050505090500194505050505060405180910390a4610d8581878787878761237d565b505050505050565b600082815260976020526040902060020154610dab9061047161218b565b610de65760405162461bcd60e51b815260040180806020018281038252602f8152602001806148d3602f913960400191505060405180910390fd5b610df082826125f3565b5050565b610dff6000336114cd565b610e1b5760405162461bcd60e51b815260040161070b90613f5a565b610e248161265c565b610e405760405162461bcd60e51b815260040161070b9061414f565b8060ff1660011415610e6957610e64600080516020614b2e83398151915283610d8d565b610ea5565b8060ff1660021415610e8d57610e6460008051602061497a83398151915283610d8d565b610ea5600080516020614b9783398151915283610d8d565b610ebd600080516020614a6f83398151915283610d8d565b6040516001600160a01b038316907fa8377deee15954185683d55effd369508b4935978c8cb2bab790bf04c570181490600090a25050565b600061063d600080516020614a4f833981519152836114cd565b610f1761218b565b6001600160a01b0316816001600160a01b031614610f665760405162461bcd60e51b815260040180806020018281038252602f815260200180614bb7602f913960400191505060405180910390fd5b610df08282612681565b6000610f8a600080516020614b2e833981519152336114cd565b90506000610fa660008051602061497a833981519152336114cd565b90506000610fc2600080516020614b97833981519152336114cd565b90508280610fcd5750815b80610fd55750805b610ff15760405162461bcd60e51b815260040161070b90613d2f565b60c95460ff1615611023576110076000336114cd565b6110235760405162461bcd60e51b815260040161070b906141e5565b61103b600080516020614a4f83398151915285610d8d565b6040516001600160a01b038516907f69a0adee259d26fe61f4776f7bea7f3a9737c7321256821b985f988545efd31990600090a250505050565b606081518351146110b75760405162461bcd60e51b8152600401808060200182810382526029815260200180614b056029913960400191505060405180910390fd5b6000835167ffffffffffffffff811180156110d157600080fd5b506040519080825280602002602001820160405280156110fb578160200160208202803683370190505b50905060005b84518110156111595761113a85828151811061111957fe5b602002602001015185838151811061112d57fe5b60200260200101516105d1565b82828151811061114657fe5b6020908102919091010152600101611101565b509392505050565b600061117b600080516020614b2e833981519152336114cd565b9050600061119760008051602061497a833981519152336114cd565b905060006111b3600080516020614b97833981519152336114cd565b905082806111be5750815b806111c65750805b6111e25760405162461bcd60e51b815260040161070b90613d2f565b60c95460ff1615611214576111f86000336114cd565b6112145760405162461bcd60e51b815260040161070b90613ea4565b61122c600080516020614a4f83398151915285611b12565b6040516001600160a01b038516907f03a38088da75ee2d80f6c753f55f8fd17602ae17d8bd0ef44d5e1f28ab5af11f90600090a250505050565b600061127260cb6126ea565b90505b90565b600080611293600080516020614b2e833981519152846114cd565b905060006112af60008051602061497a833981519152856114cd565b905060006112cb600080516020614b97833981519152866114cd565b905082806112d65750815b806112de5750805b156112ef5760019350505050610661565b506000949350505050565b606061130582611fd5565b6113215760405162461bcd60e51b815260040161070b90613f10565b600082815260cc6020526040902060018082015460ff16141561137957505060408051808201909152601c81527f52656e657761626c6520456e65726779204365727469666963617465000000006020820152610661565b600181015460ff16600214156113c457505060408051808201909152601781527f436172626f6e20456d697373696f6e73204f66667365740000000000000000006020820152610661565b50506040805180820190915260118152704175646974656420456d697373696f6e7360781b6020820152919050565b600080516020614b9783398151915281565b600080516020614a4f83398151915281565b600080600061142685856105d1565b60405163a0d975a760e01b8152909150600090309063a0d975a7906114519089908990600401613c2d565b60206040518083038186803b15801561146957600080fd5b505afa15801561147d573d6000803e3d6000fd5b505050506040513d601f19601f820116820180604052508101906114a19190613b1f565b9196919550909350505050565b60008281526097602052604081206114c690836126ee565b9392505050565b60008281526097602052604081206114c690836126fa565b600090815260cc602052604090206001015461010090046001600160a01b031690565b600061151382611fd5565b61152f5760405162461bcd60e51b815260040161070b906142f8565b50600090815260cd602090815260408083206001600160a01b03949094168352929052205490565b600081565b816001600160a01b031661156e61218b565b6001600160a01b031614156115b45760405162461bcd60e51b8152600401808060200182810382526029815260200180614adc6029913960400191505060405180910390fd5b80606660006115c161218b565b6001600160a01b03908116825260208083019390935260409182016000908120918716808252919093529120805460ff19169215159290921790915561160561218b565b6001600160a01b03167f17307eab39ab6107e8899845ad3d59bd9653f200f220920489ca2b5937696c318360405180821515815260200191505060405180910390a35050565b6116566000336114cd565b6116725760405162461bcd60e51b815260040161070b90613f5a565b60ca80546001600160a01b0319166001600160a01b0392909216919091179055565b61169c6133ef565b600082815260cc602090815260409182902082516101a0810184528154815260018083015460ff811683860152610100908190046001600160a01b0390811684880152600280860154909116606085015260038501546080850152600485015460a0850152600585015460c0850152600685015460e08501526007850180548851948116158402600019011691909104601f810187900487028401870190975286835292959394908601939192919083018282801561179c5780601f106117715761010080835404028352916020019161179c565b820191906000526020600020905b81548152906001019060200180831161177f57829003601f168201915b505050918352505060088201805460408051602060026001851615610100026000190190941693909304601f81018490048402820184019092528181529382019392918301828280156118305780601f1061180557610100808354040283529160200191611830565b820191906000526020600020905b81548152906001019060200180831161181357829003601f168201915b505050918352505060098201805460408051602060026001851615610100026000190190941693909304601f81018490048402820184019092528181529382019392918301828280156118c45780601f10611899576101008083540402835291602001916118c4565b820191906000526020600020905b8154815290600101906020018083116118a757829003601f168201915b50505050508152602001600a8201548152602001600b820154815250509050919050565b600054610100900460ff1680611901575061190161270f565b8061190f575060005460ff16155b61194a5760405162461bcd60e51b815260040180806020018281038252602e815260200180614a21602e913960400191505060405180910390fd5b600054610100900460ff16158015611975576000805460ff1961ff0019909116610100171660011790555b61198d60405180602001604052806000815250612720565b6119b3600080516020614a4f833981519152600080516020614a6f8339815191526127db565b6119be600083610de6565b6119d6600080516020614a6f83398151915283610de6565b6119ee600080516020614b2e83398151915283610de6565b611a0660008051602061497a83398151915283610de6565b611a1e600080516020614b9783398151915283610de6565b60c9805460ca80546001600160a01b0319169055610100600160a81b0319166101006001600160a01b038516021760ff191690558015610df0576000805461ff00191690555050565b600081815260976020526040812061063d9061282d565b60008080808080611a8f81886114cd565b90506000611aab600080516020614b2e833981519152896114cd565b90506000611ac760008051602061497a8339815191528a6114cd565b90506000611ae3600080516020614b978339815191528b6114cd565b90506000611aff600080516020614a4f8339815191528c6114cd565b949b939a50919850965091945092505050565b600082815260976020526040902060020154611b309061047161218b565b610f665760405162461bcd60e51b815260040180806020018281038252603081526020018061499a6030913960400191505060405180910390fd5b60c95460ff1681565b611b7f6000336114cd565b611b9b5760405162461bcd60e51b815260040161070b90613f5a565b60c9805460ff1916911515919091179055565b611bb96000336114cd565b611bd55760405162461bcd60e51b815260040161070b90613f5a565b611bde8161265c565b611bfa5760405162461bcd60e51b815260040161070b90613e52565b8060ff1660011415611c2357611c1e600080516020614b2e83398151915283611b12565b611c5f565b8060ff1660021415611c4757611c1e60008051602061497a83398151915283611b12565b611c5f600080516020614b9783398151915283611b12565b611c6882611278565b611c8457611c84600080516020614a6f83398151915283611b12565b6040516001600160a01b038316907f98552ded770f1d05a505572f3387c108dbc6b566ea3d49f83cff3d1f1c72a04290600090a25050565b6001600160a01b03918216600090815260666020908152604080832093909416825291909152205460ff1690565b60ca546001600160a01b0316331480611d095750611d096000336114cd565b611d255760405162461bcd60e51b815260040161070b90613cda565b611d378a8a8a8a8a8a8a8a8a8a612838565b50505050505050505050565b6001600160a01b038416611d885760405162461bcd60e51b81526004018080602001828103825260258152602001806149ca6025913960400191505060405180910390fd5b611d9061218b565b6001600160a01b0316856001600160a01b03161480611db65750611db68561058361218b565b611df15760405162461bcd60e51b81526004018080602001828103825260298152602001806149516029913960400191505060405180910390fd5b6000611dfb61218b565b9050611e1b818787611e0c88612cb5565b611e1588612cb5565b8761218f565b611e62836040518060600160405280602a8152602001614ab2602a913960008781526065602090815260408083206001600160a01b038d168452909152902054919061228c565b60008581526065602090815260408083206001600160a01b038b81168552925280832093909355871681522054611e999084612323565b60008581526065602090815260408083206001600160a01b03808b168086529184529382902094909455805188815291820187905280518a8416938616927fc3d58168c5ae7397731d063d5bbf3d657854427343f4c083240f7aacaa2d0f6292908290030190a4610d85818787878787612cfa565b60c95461010090046001600160a01b031681565b600080516020614b2e83398151915281565b6000611f4e600080516020614b2e833981519152336114cd565b90506000611f6a60008051602061497a833981519152336114cd565b90506000611f86600080516020614b97833981519152336114cd565b90508280611f915750815b80611f995750805b611fb55760405162461bcd60e51b815260040161070b90613d2f565b611fc78c338d8d8d8d8d8d8d8d612838565b505050505050505050505050565b600081611fe260cb6126ea565b10611fef57506001610661565b506000919050565b6001600160a01b03841661203c5760405162461bcd60e51b8152600401808060200182810382526021815260200180614b766021913960400191505060405180910390fd5b600061204661218b565b905061205881600087611e0c88612cb5565b60008481526065602090815260408083206001600160a01b03891684529091529020546120859084612323565b60008581526065602090815260408083206001600160a01b03808b16808652918452828520959095558151898152928301889052815190948616927fc3d58168c5ae7397731d063d5bbf3d657854427343f4c083240f7aacaa2d0f6292908290030190a46120f881600087878787612cfa565b5050505050565b61210a838383612e6b565b600082815260cc60205260409020600b01546121269082612323565b600083815260cc60209081526040808320600b019390935560cd81528282206001600160a01b03871683529052205461215f9082612323565b600092835260cd602090815260408085206001600160a01b039096168552949052929091209190915550565b3390565b61219d868686868686610d85565b60005b83518110156107dd57600060cc60008684815181106121bb57fe5b60200260200101518152602001908152602001600020905060c960009054906101000a900460ff1615612282576001600160a01b0386166121fc5750612284565b600181015460ff1660031461224e5760ca546001600160a01b038981169116148061222d575061222d6000896114cd565b6122495760405162461bcd60e51b815260040161070b90614564565b612282565b612266600080516020614b97833981519152896114cd565b6122825760405162461bcd60e51b815260040161070b9061434b565b505b6001016121a0565b6000818484111561231b5760405162461bcd60e51b81526004018080602001828103825283818151815260200191508051906020019080838360005b838110156122e05781810151838201526020016122c8565b50505050905090810190601f16801561230d5780820380516001836020036101000a031916815260200191505b509250505060405180910390fd5b505050900390565b6000828201838110156114c6576040805162461bcd60e51b815260206004820152601b60248201527f536166654d6174683a206164646974696f6e206f766572666c6f770000000000604482015290519081900360640190fd5b61238f846001600160a01b0316612f9e565b15610d8557836001600160a01b031663bc197c8187878686866040518663ffffffff1660e01b815260040180866001600160a01b03168152602001856001600160a01b03168152602001806020018060200180602001848103845287818151815260200191508051906020019060200280838360005b8381101561241d578181015183820152602001612405565b50505050905001848103835286818151815260200191508051906020019060200280838360005b8381101561245c578181015183820152602001612444565b50505050905001848103825285818151815260200191508051906020019080838360005b83811015612498578181015183820152602001612480565b50505050905090810190601f1680156124c55780820380516001836020036101000a031916815260200191505b5098505050505050505050602060405180830381600087803b1580156124ea57600080fd5b505af192505050801561250f57506040513d602081101561250a57600080fd5b505160015b6125a45761251b6147af565b80612526575061256d565b60405162461bcd60e51b81526020600482018181528351602484015283518493919283926044019190850190808383600083156122e05781810151838201526020016122c8565b60405162461bcd60e51b81526004018080602001828103825260348152602001806148556034913960400191505060405180910390fd5b6001600160e01b0319811663bc197c8160e01b146107dd5760405162461bcd60e51b81526004018080602001828103825260288152602001806148ab6028913960400191505060405180910390fd5b600082815260976020526040902061260b9082612fa4565b15610df05761261861218b565b6001600160a01b0316816001600160a01b0316837f2f8788117e7eff1d82e926ec794901d17c78024a50270940304540a733656f0d60405160405180910390a45050565b6000808260ff16118015612674575060038260ff1611155b15611fef57506001610661565b60008281526097602052604090206126999082612fb9565b15610df0576126a661218b565b6001600160a01b0316816001600160a01b0316837ff6391f5c32d9c69d2a47ea670b442974b53935d1edc7fd64eb21e047a839171b60405160405180910390a45050565b5490565b60006114c68383612fce565b60006114c6836001600160a01b038416613032565b600061271a30612f9e565b15905090565b600054610100900460ff1680612739575061273961270f565b80612747575060005460ff16155b6127825760405162461bcd60e51b815260040180806020018281038252602e815260200180614a21602e913960400191505060405180910390fd5b600054610100900460ff161580156127ad576000805460ff1961ff0019909116610100171660011790555b6127b561304a565b6127bd6130ec565b6127c682613189565b8015610df0576000805461ff00191690555050565b600082815260976020526040808220600201549051839285917fbd79b86ffe0ab8e8776151514217cd7cacd52c909f66475c3af44e129f0b00ff9190a460009182526097602052604090912060020155565b600061063d826126ea565b6128418861265c565b61285d5760405162461bcd60e51b815260040161070b90614520565b60c95460ff161561296f578760ff166001148061287d57508760ff166002145b1561292a5760ca546001600160a01b031633146128ac5760405162461bcd60e51b815260040161070b906142aa565b6128b760008b6114cd565b6128d35760405162461bcd60e51b815260040161070b9061442c565b6128eb600080516020614b2e8339815191528a6114cd565b80612909575061290960008051602061497a8339815191528a6114cd565b6129255760405162461bcd60e51b815260040161070b9061404a565b61296a565b8760ff166003141561296a5761294e600080516020614b978339815191528a6114cd565b61296a5760405162461bcd60e51b815260040161070b906143ce565b612a2f565b8760ff16600114156129af57612993600080516020614b2e8339815191528a6114cd565b61296a5760405162461bcd60e51b815260040161070b90614473565b8760ff16600214156129ef576129d360008051602061497a8339815191528a6114cd565b61296a5760405162461bcd60e51b815260040161070b90613fa3565b8760ff1660031415612a2f57612a13600080516020614b978339815191528a6114cd565b612a2f5760405162461bcd60e51b815260040161070b9061424d565b612a3960cb61323f565b600060cc6000612a4960cb6126ea565b81526020019081526020016000209050612a6360cb6126ea565b8160000181905550888160010160006101000a81548160ff021916908360ff1602179055508a8160020160006101000a8154816001600160a01b0302191690836001600160a01b03160217905550898160010160016101000a8154816001600160a01b0302191690836001600160a01b0316021790555086816003018190555085816004018190555084816006018190555042816005018190555083816007019080519060200190612b1692919061346c565b508251612b2c906008830190602086019061346c565b508151612b42906009830190602085019061346c565b50600a81018890556000600b820155612b758b612b5f60cb6126ea565b8a60405180602001604052806000815250611ff7565b8860ff1660031415612b9c5760028101548154612b9c916001600160a01b0316908a6120ff565b8060020160009054906101000a90046001600160a01b03166001600160a01b03168160010160019054906101000a90046001600160a01b03166001600160a01b03167f99cc3eeb446560c9a2d2483bc5160735ec0fb1851aea3bde32e7a56c30c11da68a60cd60008660000154815260200190815260200160002060008660020160009054906101000a90046001600160a01b03166001600160a01b03166001600160a01b031681526020019081526020016000205485600001548660010160009054906101000a900460ff168760030154886004015489600601548a600501548b6007018c6008018d600901604051612ca09b9a999897969594939291906146d7565b60405180910390a35050505050505050505050565b60408051600180825281830190925260609160009190602080830190803683370190505090508281600081518110612ce957fe5b602090810291909101015292915050565b612d0c846001600160a01b0316612f9e565b15610d8557836001600160a01b031663f23a6e6187878686866040518663ffffffff1660e01b815260040180866001600160a01b03168152602001856001600160a01b0316815260200184815260200183815260200180602001828103825283818151815260200191508051906020019080838360005b83811015612d9b578181015183820152602001612d83565b50505050905090810190601f168015612dc85780820380516001836020036101000a031916815260200191505b509650505050505050602060405180830381600087803b158015612deb57600080fd5b505af1925050508015612e1057506040513d6020811015612e0b57600080fd5b505160015b612e1c5761251b6147af565b6001600160e01b0319811663f23a6e6160e01b146107dd5760405162461bcd60e51b81526004018080602001828103825260288152602001806148ab6028913960400191505060405180910390fd5b6001600160a01b038316612eb05760405162461bcd60e51b8152600401808060200182810382526023815260200180614a8f6023913960400191505060405180910390fd5b6000612eba61218b565b9050612eea81856000612ecc87612cb5565b612ed587612cb5565b6040518060200160405280600081525061218f565b612f318260405180606001604052806024815260200161492d6024913960008681526065602090815260408083206001600160a01b038b168452909152902054919061228c565b60008481526065602090815260408083206001600160a01b03808a16808652918452828520959095558151888152928301879052815193949093908616927fc3d58168c5ae7397731d063d5bbf3d657854427343f4c083240f7aacaa2d0f6292908290030190a450505050565b3b151590565b60006114c6836001600160a01b038416613248565b60006114c6836001600160a01b038416613292565b815460009082106130105760405162461bcd60e51b81526004018080602001828103825260228152602001806148896022913960400191505060405180910390fd5b82600001828154811061301f57fe5b9060005260206000200154905092915050565b60009081526001919091016020526040902054151590565b600054610100900460ff1680613063575061306361270f565b80613071575060005460ff16155b6130ac5760405162461bcd60e51b815260040180806020018281038252602e815260200180614a21602e913960400191505060405180910390fd5b600054610100900460ff161580156130d7576000805460ff1961ff0019909116610100171660011790555b80156130e9576000805461ff00191690555b50565b600054610100900460ff1680613105575061310561270f565b80613113575060005460ff16155b61314e5760405162461bcd60e51b815260040180806020018281038252602e815260200180614a21602e913960400191505060405180910390fd5b600054610100900460ff16158015613179576000805460ff1961ff0019909116610100171660011790555b6130d76301ffc9a760e01b613358565b600054610100900460ff16806131a257506131a261270f565b806131b0575060005460ff16155b6131eb5760405162461bcd60e51b815260040180806020018281038252602e815260200180614a21602e913960400191505060405180910390fd5b600054610100900460ff16158015613216576000805460ff1961ff0019909116610100171660011790555b61321f826133dc565b61322f636cdb3d1360e11b613358565b6127c66303a24d0760e21b613358565b80546001019055565b60006132548383613032565b61328a5750815460018181018455600084815260208082209093018490558454848252828601909352604090209190915561063d565b50600061063d565b6000818152600183016020526040812054801561334e57835460001980830191908101906000908790839081106132c557fe5b90600052602060002001549050808760000184815481106132e257fe5b60009182526020808320909101929092558281526001898101909252604090209084019055865487908061331257fe5b6001900381819060005260206000200160009055905586600101600087815260200190815260200160002060009055600194505050505061063d565b600091505061063d565b6001600160e01b031980821614156133b7576040805162461bcd60e51b815260206004820152601c60248201527f4552433136353a20696e76616c696420696e7465726661636520696400000000604482015290519081900360640190fd5b6001600160e01b0319166000908152603360205260409020805460ff19166001179055565b8051610df090606790602084019061346c565b604051806101a0016040528060008152602001600060ff16815260200160006001600160a01b0316815260200160006001600160a01b031681526020016000815260200160008152602001600081526020016000815260200160608152602001606081526020016060815260200160008152602001600081525090565b828054600181600116156101000203166002900490600052602060002090601f0160209004810192826134a257600085556134e8565b82601f106134bb57805160ff19168380011785556134e8565b828001600101855582156134e8579182015b828111156134e85782518255916020019190600101906134cd565b506134f49291506134f8565b5090565b5b808211156134f457600081556001016134f9565b80356001600160a01b038116811461066157600080fd5b600082601f830112613534578081fd5b813560206135496135448361477f565b61475b565b8281528181019085830183850287018401881015613565578586fd5b855b8581101561358357813584529284019290840190600101613567565b5090979650505050505050565b8035801515811461066157600080fd5b600082601f8301126135b0578081fd5b813567ffffffffffffffff8111156135c457fe5b6135d7601f8201601f191660200161475b565b8181528460208386010111156135eb578283fd5b816020850160208301379081016020019190915292915050565b803560ff8116811461066157600080fd5b600060208284031215613627578081fd5b6114c68261350d565b60008060408385031215613642578081fd5b61364b8361350d565b91506136596020840161350d565b90509250929050565b600080600080600060a08688031215613679578081fd5b6136828661350d565b94506136906020870161350d565b9350604086013567ffffffffffffffff808211156136ac578283fd5b6136b889838a01613524565b945060608801359150808211156136cd578283fd5b6136d989838a01613524565b935060808801359150808211156136ee578283fd5b506136fb888289016135a0565b9150509295509295909350565b600080600080600060a0868803121561371f578081fd5b6137288661350d565b94506137366020870161350d565b93506040860135925060608601359150608086013567ffffffffffffffff81111561375f578182fd5b6136fb888289016135a0565b6000806000806000806000806000806101408b8d03121561378a578485fd5b6137938b61350d565b99506137a160208c0161350d565b98506137af60408c01613605565b975060608b0135965060808b0135955060a08b0135945060c08b0135935060e08b013567ffffffffffffffff808211156137e7578485fd5b6137f38e838f016135a0565b94506101008d0135915080821115613809578384fd5b6138158e838f016135a0565b93506101208d013591508082111561382b578283fd5b506138388d828e016135a0565b9150509295989b9194979a5092959850565b6000806040838503121561385c578182fd5b6138658361350d565b915061365960208401613590565b60008060408385031215613885578182fd5b61388e8361350d565b946020939093013593505050565b6000806000606084860312156138b0578081fd5b6138b98461350d565b95602085013595506040909401359392505050565b600080604083850312156138e0578182fd5b6138e98361350d565b915061365960208401613605565b60008060008060008060008060006101208a8c031215613915578283fd5b61391e8a61350d565b985061392c60208b01613605565b975060408a0135965060608a0135955060808a0135945060a08a0135935060c08a013567ffffffffffffffff80821115613964578485fd5b6139708d838e016135a0565b945060e08c0135915080821115613985578384fd5b6139918d838e016135a0565b93506101008c01359150808211156139a7578283fd5b506139b48c828d016135a0565b9150509295985092959850929598565b600080604083850312156139d6578182fd5b823567ffffffffffffffff808211156139ed578384fd5b818501915085601f830112613a00578384fd5b81356020613a106135448361477f565b82815281810190858301838502870184018b1015613a2c578889fd5b8896505b84871015613a5557613a418161350d565b835260019690960195918301918301613a30565b5096505086013592505080821115613a6b578283fd5b50613a7885828601613524565b9150509250929050565b600060208284031215613a93578081fd5b6114c682613590565b600060208284031215613aad578081fd5b5035919050565b60008060408385031215613ac6578182fd5b823591506136596020840161350d565b60008060408385031215613ae8578182fd5b50508035926020909101359150565b600060208284031215613b08578081fd5b81356001600160e01b0319811681146114c6578182fd5b600060208284031215613b30578081fd5b5051919050565b6001600160a01b03169052565b60008151808452815b81811015613b6957602081850181015186830182015201613b4d565b81811115613b7a5782602083870101525b50601f01601f19169290920160200192915050565b60008154600180821660008114613bad5760018114613bcb57613c09565b60028304607f16865260ff1983166020870152604086019350613c09565b60028304808752613bdb8661479d565b60005b82811015613bff5781546020828b0101528482019150602081019050613bde565b8801602001955050505b50505092915050565b60ff169052565b6001600160a01b0391909116815260200190565b6001600160a01b03929092168252602082015260400190565b6020808252825182820181905260009190848201906040850190845b81811015613c7e57835183529284019291840191600101613c62565b50909695505050505050565b901515815260200190565b941515855292151560208501529015156040840152151560608301521515608082015260a00190565b90815260200190565b6000602082526114c66020830184613b44565b60208082526035908201527f434c4d383a3a69737375654f6e426568616c663a2063616c6c206d757374206360408201527437b6b290333937b6902220a79037b91030b236b4b760591b606082015260800190565b60208082526029908201527f434c4d383a3a6f6e6c794465616c65723a206d73672e73656e646572206e6f746040820152681030903232b0b632b960b91b606082015260800190565b60208082526024908201527f434c4d383a3a7265746972653a20746f6b656e496420646f6573206e6f7420656040820152631e1a5cdd60e21b606082015260800190565b60208082526022908201527f434c4d383a3a6d696e743a20746f6b656e496420646f6573206e6f74206578696040820152611cdd60f21b606082015260800190565b60208082526034908201527f434c4d383a3a7472616e736665723a20526563697069656e74206d7573742062604082015273329031b7b739bab6b2b91037b9103232b0b632b960611b606082015260800190565b60208082526032908201527f434c4d383a3a756e72656769737465724465616c65723a20746f6b656e54797060408201527119525908191bd95cc81b9bdd08195e1a5cdd60721b606082015260800190565b60208082526046908201527f434c4d383a3a756e7265676973746572436f6e73756d6572286c696d6974656460408201527f293a206f6e6c792061646d696e2063616e20756e726567697374657220636f6e60608201526573756d65727360d01b608082015260a00190565b6020808252602a908201527f434c4d383a3a676574546f6b656e547970653a20746f6b656e496420646f6573604082015269081b9bdd08195e1a5cdd60b21b606082015260800190565b60208082526029908201527f434c4d383a3a6f6e6c7941646d696e3a206d73672e73656e646572206e6f74206040820152683a34329030b236b4b760b91b606082015260800190565b60208082526033908201527f434c4d383a3a5f69737375653a20697373756572206e6f7420612072656769736040820152723a32b932b21037b33339b2ba103232b0b632b960691b606082015260800190565b60208082526034908201527f434c4d383a3a7265746972653a206e6f7420656e6f75676820617661696c61626040820152736c652062616c616e636520746f2072657469726560601b606082015260800190565b60208082526037908201527f434c4d383a3a5f6973737565286c696d69746564293a2070726f706f7365722060408201527f6e6f7420612072656769737465726564206465616c6572000000000000000000606082015260800190565b60208082526036908201527f434c4d383a3a7472616e736665723a2073656e64657220616e642072656365696040820152757665722063616e6e6f74206265207468652073616d6560501b606082015260800190565b60208082526032908201527f434c4d383a3a6d696e743a2063616e6e6f74206d696e74206e657720746f6b656040820152716e7320696e206c696d69746564206d6f646560701b606082015260800190565b60208082526030908201527f434c4d383a3a72656769737465724465616c65723a20746f6b656e547970654960408201526f1908191bd95cc81b9bdd08195e1a5cdd60821b606082015260800190565b60208082526026908201527f434c4d383a3a7472616e736665723a20746f6b656e496420646f6573206e6f7460408201526508195e1a5cdd60d21b606082015260800190565b60208082526042908201527f434c4d383a3a7265676973746572436f6e73756d6572286c696d69746564293a60408201527f206f6e6c792061646d696e2063616e20726567697374657220636f6e73756d65606082015261727360f01b608082015260a00190565b60208082526037908201527f434c4d383a3a5f69737375653a20697373756572206e6f74206120726567697360408201527f746572656420656d697373696f6e732061756469746f72000000000000000000606082015260800190565b6020808252602e908201527f434c4d383a3a5f6973737565286c696d69746564293a206d73672e73656e646560408201526d72206e6f742074696d656c6f636b60901b606082015260800190565b60208082526033908201527f434c4d383a3a676574546f6b656e52657469726564416d6f756e743a20746f6b604082015272195b925908191bd95cc81b9bdd08195e1a5cdd606a1b606082015260800190565b60208082526058908201527f434c4d383a3a5f6265666f7265546f6b656e5472616e73666572286c696d697460408201527f6564293a206f6e6c7920656d697373696f6e732061756469746f72732063616e60608201527f206973737565206175646974656420656d697373696f6e730000000000000000608082015260a00190565b602080825260409082018190527f434c4d383a3a5f6973737565286c696d69746564293a20697373756572206e6f908201527f742061207265676973746572656420656d697373696f6e732061756469746f72606082015260800190565b60208082526027908201527f434c4d383a3a5f6973737565286c696d69746564293a20697373756565206e6f6040820152663a1030b236b4b760c91b606082015260800190565b60208082526030908201527f434c4d383a3a5f69737375653a20697373756572206e6f74206120726567697360408201526f3a32b932b2102922a1903232b0b632b960811b606082015260800190565b6020808252603d908201527f434c4d383a3a636f6e73756d65724f724465616c65723a206d73672e73656e6460408201527f6572206e6f74206120636f6e73756d6572206f722061206465616c6572000000606082015260800190565b60208082526024908201527f434c4d383a3a5f69737375653a20746f6b656e54797065496420697320696e76604082015263185b1a5960e21b606082015260800190565b6020808252604b908201527f434c4d383a3a5f6265666f7265546f6b656e5472616e73666572286c696d697460408201527f6564293a206f6e6c792061646d696e20616e642044414f2063616e207472616e60608201526a7366657220746f6b656e7360a81b608082015260a00190565b6000602082528251602083015260208301516145f46040840182613c12565b5060408301516146076060840182613b37565b50606083015161461a6080840182613b37565b50608083015160a083015260a083015160c083015260c083015160e083015260e08301516101008181850152808501519150506101a061012081818601526146666101c0860184613b44565b9250808601519050601f196101408187860301818801526146878584613b44565b9450808801519250506101608187860301818801526146a68584613b44565b908801516101808881019190915290970151929095019190915250929392505050565b918252602082015260400190565b60006101608d83528c60208401528b604084015260ff8b1660608401528960808401528860a08401528760c08401528660e08401528061010084015261471f81840187613b8f565b90508281036101208401526147348186613b8f565b90508281036101408401526147498185613b8f565b9e9d5050505050505050505050505050565b60405181810167ffffffffffffffff8111828210171561477757fe5b604052919050565b600067ffffffffffffffff82111561479357fe5b5060209081020190565b60009081526020902090565b60e01c90565b600060443d10156147bf57611275565b600481823e6308c379a06147d382516147a9565b146147dd57611275565b6040513d600319016004823e80513d67ffffffffffffffff816024840111818411171561480d5750505050611275565b828401925082519150808211156148275750505050611275565b503d8301602082840101111561483f57505050611275565b601f01601f191681016020016040529150509056fe455243313135353a207472616e7366657220746f206e6f6e2045524331313535526563656976657220696d706c656d656e746572456e756d657261626c655365743a20696e646578206f7574206f6620626f756e6473455243313135353a204552433131353552656365697665722072656a656374656420746f6b656e73416363657373436f6e74726f6c3a2073656e646572206d75737420626520616e2061646d696e20746f206772616e74455243313135353a2062616c616e636520717565727920666f7220746865207a65726f2061646472657373455243313135353a206275726e20616d6f756e7420657863656564732062616c616e6365455243313135353a2063616c6c6572206973206e6f74206f776e6572206e6f7220617070726f766564ede6574deba8f02ada7888448a497b08844d62e044ed533343a673be3ffcde5f416363657373436f6e74726f6c3a2073656e646572206d75737420626520616e2061646d696e20746f207265766f6b65455243313135353a207472616e7366657220746f20746865207a65726f2061646472657373455243313135353a207472616e736665722063616c6c6572206973206e6f74206f776e6572206e6f7220617070726f766564496e697469616c697a61626c653a20636f6e747261637420697320616c726561647920696e697469616c697a65645e1aa547d3dade8c68b013a47ad41c2bcc9b9e4b0765b0fb616780e15786e76af8890eedd7900ad88da6192fd03dbb69dbeee963b1a0ed738abe49ab3331aaf3455243313135353a206275726e2066726f6d20746865207a65726f2061646472657373455243313135353a20696e73756666696369656e742062616c616e636520666f72207472616e73666572455243313135353a2073657474696e6720617070726f76616c2073746174757320666f722073656c66455243313135353a206163636f756e747320616e6420696473206c656e677468206d69736d617463682ab9f1da92e74aaa01eb75a871557505b11dd8d36832a34bb21bbee88b08d860455243313135353a2069647320616e6420616d6f756e7473206c656e677468206d69736d61746368455243313135353a206d696e7420746f20746865207a65726f2061646472657373e97dad3dbe5042e7384b1572cf966a15e089576a62b5126c5ef1d184ab18b12c416363657373436f6e74726f6c3a2063616e206f6e6c792072656e6f756e636520726f6c657320666f722073656c66a26469706673582212209475913d1686a2a4bd28cddf3f4be980db2e41a1fbc1c59fb6186240c1d92fc564736f6c63430007060033",
  "linkReferences": {},
  "deployedLinkReferences": {}
}