{
  "_format": "hh-sol-artifact-1",
  "contractName": "NetEmissionsTokenNetwork",
  "sourceName": "contracts/NetEmissionsTokenNetwork.sol",
  "abi": [
    {
      "anonymous": false,
      "inputs": [
        {
          "indexed": true,
          "internalType": "address",
          "name": "account",
          "type": "address"
        },
        {
          "indexed": true,
          "internalType": "address",
          "name": "operator",
          "type": "address"
        },
        {
          "indexed": false,
          "internalType": "bool",
          "name": "approved",
          "type": "bool"
        }
      ],
      "name": "ApprovalForAll",
      "type": "event"
    },
    {
      "anonymous": false,
      "inputs": [
        {
          "indexed": true,
          "internalType": "address",
          "name": "account",
          "type": "address"
        }
      ],
      "name": "RegisteredConsumer",
      "type": "event"
    },
    {
      "anonymous": false,
      "inputs": [
        {
          "indexed": true,
          "internalType": "address",
          "name": "account",
          "type": "address"
        }
      ],
      "name": "RegisteredDealer",
      "type": "event"
    },
    {
      "anonymous": false,
      "inputs": [
        {
          "indexed": true,
          "internalType": "address",
          "name": "account",
          "type": "address"
        }
      ],
      "name": "RegisteredIndustry",
      "type": "event"
    },
    {
      "anonymous": false,
      "inputs": [
        {
          "indexed": true,
          "internalType": "bytes32",
          "name": "role",
          "type": "bytes32"
        },
        {
          "indexed": true,
          "internalType": "bytes32",
          "name": "previousAdminRole",
          "type": "bytes32"
        },
        {
          "indexed": true,
          "internalType": "bytes32",
          "name": "newAdminRole",
          "type": "bytes32"
        }
      ],
      "name": "RoleAdminChanged",
      "type": "event"
    },
    {
      "anonymous": false,
      "inputs": [
        {
          "indexed": true,
          "internalType": "bytes32",
          "name": "role",
          "type": "bytes32"
        },
        {
          "indexed": true,
          "internalType": "address",
          "name": "account",
          "type": "address"
        },
        {
          "indexed": true,
          "internalType": "address",
          "name": "sender",
          "type": "address"
        }
      ],
      "name": "RoleGranted",
      "type": "event"
    },
    {
      "anonymous": false,
      "inputs": [
        {
          "indexed": true,
          "internalType": "bytes32",
          "name": "role",
          "type": "bytes32"
        },
        {
          "indexed": true,
          "internalType": "address",
          "name": "account",
          "type": "address"
        },
        {
          "indexed": true,
          "internalType": "address",
          "name": "sender",
          "type": "address"
        }
      ],
      "name": "RoleRevoked",
      "type": "event"
    },
    {
      "anonymous": false,
      "inputs": [
        {
          "indexed": false,
          "internalType": "uint256",
          "name": "availableBalance",
          "type": "uint256"
        },
        {
          "indexed": false,
          "internalType": "uint256",
          "name": "retiredBalance",
          "type": "uint256"
        },
        {
          "indexed": false,
          "internalType": "uint256",
          "name": "tokenId",
          "type": "uint256"
        },
        {
          "indexed": false,
          "internalType": "uint8",
          "name": "tokenTypeId",
          "type": "uint8"
        },
        {
          "indexed": true,
          "internalType": "address",
          "name": "issuedBy",
          "type": "address"
        },
        {
          "indexed": true,
          "internalType": "address",
          "name": "issuedFrom",
          "type": "address"
        },
        {
          "indexed": true,
          "internalType": "address",
          "name": "issuedTo",
          "type": "address"
        },
        {
          "indexed": false,
          "internalType": "uint256",
          "name": "fromDate",
          "type": "uint256"
        },
        {
          "indexed": false,
          "internalType": "uint256",
          "name": "thruDate",
          "type": "uint256"
        },
        {
          "indexed": false,
          "internalType": "uint256",
          "name": "dateCreated",
          "type": "uint256"
        },
        {
          "indexed": false,
          "internalType": "string",
          "name": "metadata",
          "type": "string"
        },
        {
          "indexed": false,
          "internalType": "string",
          "name": "manifest",
          "type": "string"
        },
        {
          "indexed": false,
          "internalType": "string",
          "name": "description",
          "type": "string"
        }
      ],
      "name": "TokenCreated",
      "type": "event"
    },
    {
      "anonymous": false,
      "inputs": [
        {
          "indexed": true,
          "internalType": "address",
          "name": "account",
          "type": "address"
        },
        {
          "indexed": false,
          "internalType": "uint256",
          "name": "tokenId",
          "type": "uint256"
        },
        {
          "indexed": false,
          "internalType": "uint256",
          "name": "amount",
          "type": "uint256"
        }
      ],
      "name": "TokenRetired",
      "type": "event"
    },
    {
      "anonymous": false,
      "inputs": [
        {
          "indexed": true,
          "internalType": "address",
          "name": "operator",
          "type": "address"
        },
        {
          "indexed": true,
          "internalType": "address",
          "name": "from",
          "type": "address"
        },
        {
          "indexed": true,
          "internalType": "address",
          "name": "to",
          "type": "address"
        },
        {
          "indexed": false,
          "internalType": "uint256[]",
          "name": "ids",
          "type": "uint256[]"
        },
        {
          "indexed": false,
          "internalType": "uint256[]",
          "name": "values",
          "type": "uint256[]"
        }
      ],
      "name": "TransferBatch",
      "type": "event"
    },
    {
      "anonymous": false,
      "inputs": [
        {
          "indexed": true,
          "internalType": "address",
          "name": "operator",
          "type": "address"
        },
        {
          "indexed": true,
          "internalType": "address",
          "name": "from",
          "type": "address"
        },
        {
          "indexed": true,
          "internalType": "address",
          "name": "to",
          "type": "address"
        },
        {
          "indexed": false,
          "internalType": "uint256",
          "name": "id",
          "type": "uint256"
        },
        {
          "indexed": false,
          "internalType": "uint256",
          "name": "value",
          "type": "uint256"
        }
      ],
      "name": "TransferSingle",
      "type": "event"
    },
    {
      "anonymous": false,
      "inputs": [
        {
          "indexed": false,
          "internalType": "string",
          "name": "value",
          "type": "string"
        },
        {
          "indexed": true,
          "internalType": "uint256",
          "name": "id",
          "type": "uint256"
        }
      ],
      "name": "URI",
      "type": "event"
    },
    {
      "anonymous": false,
      "inputs": [
        {
          "indexed": true,
          "internalType": "address",
          "name": "account",
          "type": "address"
        }
      ],
      "name": "UnregisteredConsumer",
      "type": "event"
    },
    {
      "anonymous": false,
      "inputs": [
        {
          "indexed": true,
          "internalType": "address",
          "name": "account",
          "type": "address"
        }
      ],
      "name": "UnregisteredDealer",
      "type": "event"
    },
    {
      "anonymous": false,
      "inputs": [
        {
          "indexed": true,
          "internalType": "address",
          "name": "account",
          "type": "address"
        }
      ],
      "name": "UnregisteredIndustry",
      "type": "event"
    },
    {
      "inputs": [],
      "name": "DEFAULT_ADMIN_ROLE",
      "outputs": [
        {
          "internalType": "bytes32",
          "name": "",
          "type": "bytes32"
        }
      ],
      "stateMutability": "view",
      "type": "function"
    },
    {
      "inputs": [],
      "name": "REGISTERED_CONSUMER",
      "outputs": [
        {
          "internalType": "bytes32",
          "name": "",
          "type": "bytes32"
        }
      ],
      "stateMutability": "view",
      "type": "function"
    },
    {
      "inputs": [],
      "name": "REGISTERED_DEALER",
      "outputs": [
        {
          "internalType": "bytes32",
          "name": "",
          "type": "bytes32"
        }
      ],
      "stateMutability": "view",
      "type": "function"
    },
    {
      "inputs": [],
      "name": "REGISTERED_EMISSIONS_AUDITOR",
      "outputs": [
        {
          "internalType": "bytes32",
          "name": "",
          "type": "bytes32"
        }
      ],
      "stateMutability": "view",
      "type": "function"
    },
    {
      "inputs": [],
      "name": "REGISTERED_INDUSTRY",
      "outputs": [
        {
          "internalType": "bytes32",
          "name": "",
          "type": "bytes32"
        }
      ],
      "stateMutability": "view",
      "type": "function"
    },
    {
      "inputs": [],
      "name": "REGISTERED_INDUSTRY_DEALER",
      "outputs": [
        {
          "internalType": "bytes32",
          "name": "",
          "type": "bytes32"
        }
      ],
      "stateMutability": "view",
      "type": "function"
    },
    {
      "inputs": [],
      "name": "REGISTERED_OFFSET_DEALER",
      "outputs": [
        {
          "internalType": "bytes32",
          "name": "",
          "type": "bytes32"
        }
      ],
      "stateMutability": "view",
      "type": "function"
    },
    {
      "inputs": [],
      "name": "REGISTERED_REC_DEALER",
      "outputs": [
        {
          "internalType": "bytes32",
          "name": "",
          "type": "bytes32"
        }
      ],
      "stateMutability": "view",
      "type": "function"
    },
    {
      "inputs": [
        {
          "internalType": "address",
          "name": "entity",
          "type": "address"
        }
      ],
      "name": "_consumerOrDealer",
      "outputs": [
        {
          "internalType": "bool",
          "name": "",
          "type": "bool"
        }
      ],
      "stateMutability": "view",
      "type": "function"
    },
    {
      "inputs": [],
      "name": "admin",
      "outputs": [
        {
          "internalType": "address",
          "name": "",
          "type": "address"
        }
      ],
      "stateMutability": "view",
      "type": "function"
    },
    {
      "inputs": [
        {
          "internalType": "address",
          "name": "account",
          "type": "address"
        },
        {
          "internalType": "uint256",
          "name": "id",
          "type": "uint256"
        }
      ],
      "name": "balanceOf",
      "outputs": [
        {
          "internalType": "uint256",
          "name": "",
          "type": "uint256"
        }
      ],
      "stateMutability": "view",
      "type": "function"
    },
    {
      "inputs": [
        {
          "internalType": "address[]",
          "name": "accounts",
          "type": "address[]"
        },
        {
          "internalType": "uint256[]",
          "name": "ids",
          "type": "uint256[]"
        }
      ],
      "name": "balanceOfBatch",
      "outputs": [
        {
          "internalType": "uint256[]",
          "name": "",
          "type": "uint256[]"
        }
      ],
      "stateMutability": "view",
      "type": "function"
    },
    {
      "inputs": [
        {
          "internalType": "address",
          "name": "account",
          "type": "address"
        },
        {
          "internalType": "uint256",
          "name": "tokenId",
          "type": "uint256"
        }
      ],
      "name": "getAvailableAndRetired",
      "outputs": [
        {
          "internalType": "uint256",
          "name": "",
          "type": "uint256"
        },
        {
          "internalType": "uint256",
          "name": "",
          "type": "uint256"
        }
      ],
      "stateMutability": "view",
      "type": "function"
    },
    {
      "inputs": [
        {
          "internalType": "uint256",
          "name": "tokenId",
          "type": "uint256"
        }
      ],
      "name": "getIssuedBy",
      "outputs": [
        {
          "internalType": "address",
          "name": "",
          "type": "address"
        }
      ],
      "stateMutability": "view",
      "type": "function"
    },
    {
      "inputs": [],
      "name": "getNumOfUniqueTokens",
      "outputs": [
        {
          "internalType": "uint256",
          "name": "",
          "type": "uint256"
        }
      ],
      "stateMutability": "view",
      "type": "function"
    },
    {
      "inputs": [
        {
          "internalType": "uint256",
          "name": "tokenId",
          "type": "uint256"
        },
        {
          "internalType": "address",
          "name": "account",
          "type": "address"
        }
      ],
      "name": "getRetiredBalances",
      "outputs": [
        {
          "internalType": "uint256",
          "name": "",
          "type": "uint256"
        }
      ],
      "stateMutability": "view",
      "type": "function"
    },
    {
      "inputs": [
        {
          "internalType": "bytes32",
          "name": "role",
          "type": "bytes32"
        }
      ],
      "name": "getRoleAdmin",
      "outputs": [
        {
          "internalType": "bytes32",
          "name": "",
          "type": "bytes32"
        }
      ],
      "stateMutability": "view",
      "type": "function"
    },
    {
      "inputs": [
        {
          "internalType": "address",
          "name": "account",
          "type": "address"
        }
      ],
      "name": "getRoles",
      "outputs": [
        {
          "components": [
            {
              "internalType": "bool",
              "name": "isAdmin",
              "type": "bool"
            },
            {
              "internalType": "bool",
              "name": "isConsumer",
              "type": "bool"
            },
            {
              "internalType": "bool",
              "name": "isRecDealer",
              "type": "bool"
            },
            {
              "internalType": "bool",
              "name": "isCeoDealer",
              "type": "bool"
            },
            {
              "internalType": "bool",
              "name": "isAeDealer",
              "type": "bool"
            },
            {
              "internalType": "bool",
              "name": "isIndustry",
              "type": "bool"
            },
            {
              "internalType": "bool",
              "name": "isIndustryDealer",
              "type": "bool"
            }
          ],
          "internalType": "struct NetEmissionsTokenNetwork.RolesInfo",
          "name": "",
          "type": "tuple"
        }
      ],
      "stateMutability": "view",
      "type": "function"
    },
    {
      "inputs": [
        {
          "internalType": "uint256",
          "name": "tokenId",
          "type": "uint256"
        }
      ],
      "name": "getTokenDetails",
      "outputs": [
        {
          "components": [
            {
              "internalType": "uint256",
              "name": "tokenId",
              "type": "uint256"
            },
            {
              "internalType": "uint8",
              "name": "tokenTypeId",
              "type": "uint8"
            },
            {
              "internalType": "address",
              "name": "issuedBy",
              "type": "address"
            },
            {
              "internalType": "address",
              "name": "issuedFrom",
              "type": "address"
            },
            {
              "internalType": "address",
              "name": "issuedTo",
              "type": "address"
            },
            {
              "internalType": "uint256",
              "name": "fromDate",
              "type": "uint256"
            },
            {
              "internalType": "uint256",
              "name": "thruDate",
              "type": "uint256"
            },
            {
              "internalType": "uint256",
              "name": "dateCreated",
              "type": "uint256"
            },
            {
              "internalType": "string",
              "name": "metadata",
              "type": "string"
            },
            {
              "internalType": "string",
              "name": "manifest",
              "type": "string"
            },
            {
              "internalType": "string",
              "name": "description",
              "type": "string"
            },
            {
              "internalType": "uint256",
              "name": "totalIssued",
              "type": "uint256"
            },
            {
              "internalType": "uint256",
              "name": "totalRetired",
              "type": "uint256"
            }
          ],
          "internalType": "struct NetEmissionsTokenNetwork.CarbonTokenDetails",
          "name": "",
          "type": "tuple"
        }
      ],
      "stateMutability": "view",
      "type": "function"
    },
    {
      "inputs": [
        {
          "internalType": "address",
          "name": "account",
          "type": "address"
        },
        {
          "internalType": "uint256",
          "name": "tokenId",
          "type": "uint256"
        }
      ],
      "name": "getTokenRetiredAmount",
      "outputs": [
        {
          "internalType": "uint256",
          "name": "",
          "type": "uint256"
        }
      ],
      "stateMutability": "view",
      "type": "function"
    },
    {
      "inputs": [
        {
          "internalType": "uint256",
          "name": "tokenId",
          "type": "uint256"
        }
      ],
      "name": "getTokenType",
      "outputs": [
        {
          "internalType": "string",
          "name": "",
          "type": "string"
        }
      ],
      "stateMutability": "view",
      "type": "function"
    },
    {
      "inputs": [
        {
          "internalType": "uint256",
          "name": "tokenId",
          "type": "uint256"
        }
      ],
      "name": "getTokenTypeId",
      "outputs": [
        {
          "internalType": "uint8",
          "name": "",
          "type": "uint8"
        }
      ],
      "stateMutability": "view",
      "type": "function"
    },
    {
      "inputs": [
        {
          "internalType": "address",
          "name": "_from",
          "type": "address"
        },
        {
          "internalType": "address",
          "name": "_to",
          "type": "address"
        },
        {
          "internalType": "uint256[]",
          "name": "_ids",
          "type": "uint256[]"
        },
        {
          "internalType": "uint256[]",
          "name": "_amounts",
          "type": "uint256[]"
        }
      ],
      "name": "getTransferHash",
      "outputs": [
        {
          "internalType": "bytes32",
          "name": "",
          "type": "bytes32"
        }
      ],
      "stateMutability": "view",
      "type": "function"
    },
    {
      "inputs": [
        {
          "internalType": "bytes32",
          "name": "role",
          "type": "bytes32"
        },
        {
          "internalType": "address",
          "name": "account",
          "type": "address"
        }
      ],
      "name": "grantRole",
      "outputs": [],
      "stateMutability": "nonpayable",
      "type": "function"
    },
    {
      "inputs": [
        {
          "internalType": "bytes32",
          "name": "role",
          "type": "bytes32"
        },
        {
          "internalType": "address",
          "name": "account",
          "type": "address"
        }
      ],
      "name": "hasRole",
      "outputs": [
        {
          "internalType": "bool",
          "name": "",
          "type": "bool"
        }
      ],
      "stateMutability": "view",
      "type": "function"
    },
    {
      "inputs": [
        {
          "internalType": "address",
          "name": "_admin",
          "type": "address"
        }
      ],
      "name": "initialize",
      "outputs": [],
      "stateMutability": "nonpayable",
      "type": "function"
    },
    {
      "inputs": [
        {
          "internalType": "address",
          "name": "account",
          "type": "address"
        },
        {
          "internalType": "address",
          "name": "operator",
          "type": "address"
        }
      ],
      "name": "isApprovedForAll",
      "outputs": [
        {
          "internalType": "bool",
          "name": "",
          "type": "bool"
        }
      ],
      "stateMutability": "view",
      "type": "function"
    },
    {
      "inputs": [
        {
          "internalType": "address",
          "name": "auditor",
          "type": "address"
        }
      ],
      "name": "isAuditor",
      "outputs": [
        {
          "internalType": "bool",
          "name": "",
          "type": "bool"
        }
      ],
      "stateMutability": "view",
      "type": "function"
    },
    {
      "inputs": [
        {
          "internalType": "address",
          "name": "account",
          "type": "address"
        }
      ],
      "name": "isConsumerRegistered",
      "outputs": [
        {
          "internalType": "bool",
          "name": "",
          "type": "bool"
        }
      ],
      "stateMutability": "view",
      "type": "function"
    },
    {
      "inputs": [
        {
          "internalType": "address",
          "name": "account",
          "type": "address"
        }
      ],
      "name": "isDealerRegistered",
      "outputs": [
        {
          "internalType": "bool",
          "name": "",
          "type": "bool"
        }
      ],
      "stateMutability": "view",
      "type": "function"
    },
    {
      "inputs": [
        {
          "internalType": "address",
          "name": "issuedFrom",
          "type": "address"
        },
        {
          "internalType": "address",
          "name": "issuedTo",
          "type": "address"
        },
        {
          "internalType": "uint8",
          "name": "tokenTypeId",
          "type": "uint8"
        },
        {
          "internalType": "uint256",
          "name": "quantity",
          "type": "uint256"
        },
        {
          "internalType": "uint256",
          "name": "fromDate",
          "type": "uint256"
        },
        {
          "internalType": "uint256",
          "name": "thruDate",
          "type": "uint256"
        },
        {
          "internalType": "string",
          "name": "metadata",
          "type": "string"
        },
        {
          "internalType": "string",
          "name": "manifest",
          "type": "string"
        },
        {
          "internalType": "string",
          "name": "description",
          "type": "string"
        }
      ],
      "name": "issue",
      "outputs": [],
      "stateMutability": "nonpayable",
      "type": "function"
    },
    {
      "inputs": [
        {
          "internalType": "address",
          "name": "issuedFrom",
          "type": "address"
        },
        {
          "internalType": "address",
          "name": "issuedTo",
          "type": "address"
        },
        {
          "internalType": "address",
          "name": "trackerAddress",
          "type": "address"
        },
        {
          "internalType": "uint256",
          "name": "trackerId",
          "type": "uint256"
        },
        {
          "internalType": "uint8",
          "name": "tokenTypeId",
          "type": "uint8"
        },
        {
          "internalType": "uint256",
          "name": "quantity",
          "type": "uint256"
        },
        {
          "internalType": "uint256",
          "name": "fromDate",
          "type": "uint256"
        },
        {
          "internalType": "uint256",
          "name": "thruDate",
          "type": "uint256"
        },
        {
          "internalType": "string",
          "name": "metadata",
          "type": "string"
        },
        {
          "internalType": "string",
          "name": "manifest",
          "type": "string"
        },
        {
          "internalType": "string",
          "name": "description",
          "type": "string"
        }
      ],
      "name": "issueAndTrack",
      "outputs": [],
      "stateMutability": "nonpayable",
      "type": "function"
    },
    {
      "inputs": [
        {
          "internalType": "address",
          "name": "issuedBy",
          "type": "address"
        },
        {
          "internalType": "address",
          "name": "issuedFrom",
          "type": "address"
        },
        {
          "internalType": "address",
          "name": "issuedTo",
          "type": "address"
        },
        {
          "internalType": "uint8",
          "name": "tokenTypeId",
          "type": "uint8"
        },
        {
          "internalType": "uint256",
          "name": "quantity",
          "type": "uint256"
        },
        {
          "internalType": "uint256",
          "name": "fromDate",
          "type": "uint256"
        },
        {
          "internalType": "uint256",
          "name": "thruDate",
          "type": "uint256"
        },
        {
          "internalType": "string",
          "name": "metadata",
          "type": "string"
        },
        {
          "internalType": "string",
          "name": "manifest",
          "type": "string"
        },
        {
          "internalType": "string",
          "name": "description",
          "type": "string"
        }
      ],
      "name": "issueOnBehalf",
      "outputs": [],
      "stateMutability": "nonpayable",
      "type": "function"
    },
    {
      "inputs": [],
      "name": "limitedMode",
      "outputs": [
        {
          "internalType": "bool",
          "name": "",
          "type": "bool"
        }
      ],
      "stateMutability": "view",
      "type": "function"
    },
    {
      "inputs": [
        {
          "internalType": "address",
          "name": "to",
          "type": "address"
        },
        {
          "internalType": "uint256",
          "name": "tokenId",
          "type": "uint256"
        },
        {
          "internalType": "uint256",
          "name": "quantity",
          "type": "uint256"
        }
      ],
      "name": "mint",
      "outputs": [],
      "stateMutability": "nonpayable",
      "type": "function"
    },
    {
      "inputs": [
        {
          "internalType": "address",
          "name": "account",
          "type": "address"
        }
      ],
      "name": "registerConsumer",
      "outputs": [],
      "stateMutability": "nonpayable",
      "type": "function"
    },
    {
      "inputs": [
        {
          "internalType": "address",
          "name": "account",
          "type": "address"
        },
        {
          "internalType": "uint8",
          "name": "tokenTypeId",
          "type": "uint8"
        }
      ],
      "name": "registerDealer",
      "outputs": [],
      "stateMutability": "nonpayable",
      "type": "function"
    },
    {
      "inputs": [
        {
          "internalType": "address",
          "name": "account",
          "type": "address"
        }
      ],
      "name": "registerIndustry",
      "outputs": [],
      "stateMutability": "nonpayable",
      "type": "function"
    },
    {
      "inputs": [
        {
          "internalType": "bytes32",
          "name": "role",
          "type": "bytes32"
        },
        {
          "internalType": "address",
          "name": "account",
          "type": "address"
        }
      ],
      "name": "renounceRole",
      "outputs": [],
      "stateMutability": "nonpayable",
      "type": "function"
    },
    {
      "inputs": [
        {
          "internalType": "uint256",
          "name": "tokenId",
          "type": "uint256"
        },
        {
          "internalType": "uint256",
          "name": "amount",
          "type": "uint256"
        }
      ],
      "name": "retire",
      "outputs": [],
      "stateMutability": "nonpayable",
      "type": "function"
    },
    {
      "inputs": [
        {
          "internalType": "bytes32",
          "name": "role",
          "type": "bytes32"
        },
        {
          "internalType": "address",
          "name": "account",
          "type": "address"
        }
      ],
      "name": "revokeRole",
      "outputs": [],
      "stateMutability": "nonpayable",
      "type": "function"
    },
    {
      "inputs": [
        {
          "internalType": "address",
          "name": "from",
          "type": "address"
        },
        {
          "internalType": "address",
          "name": "to",
          "type": "address"
        },
        {
          "internalType": "uint256[]",
          "name": "ids",
          "type": "uint256[]"
        },
        {
          "internalType": "uint256[]",
          "name": "amounts",
          "type": "uint256[]"
        },
        {
          "internalType": "bytes",
          "name": "data",
          "type": "bytes"
        }
      ],
      "name": "safeBatchTransferFrom",
      "outputs": [],
      "stateMutability": "nonpayable",
      "type": "function"
    },
    {
      "inputs": [
        {
          "internalType": "address",
          "name": "from",
          "type": "address"
        },
        {
          "internalType": "address",
          "name": "to",
          "type": "address"
        },
        {
          "internalType": "uint256",
          "name": "id",
          "type": "uint256"
        },
        {
          "internalType": "uint256",
          "name": "amount",
          "type": "uint256"
        },
        {
          "internalType": "bytes",
          "name": "data",
          "type": "bytes"
        }
      ],
      "name": "safeTransferFrom",
      "outputs": [],
      "stateMutability": "nonpayable",
      "type": "function"
    },
    {
      "inputs": [
        {
          "internalType": "address",
          "name": "operator",
          "type": "address"
        },
        {
          "internalType": "bool",
          "name": "approved",
          "type": "bool"
        }
      ],
      "name": "setApprovalForAll",
      "outputs": [],
      "stateMutability": "nonpayable",
      "type": "function"
    },
    {
      "inputs": [
        {
          "internalType": "bool",
          "name": "_limitedMode",
          "type": "bool"
        }
      ],
      "name": "setLimitedMode",
      "outputs": [],
      "stateMutability": "nonpayable",
      "type": "function"
    },
    {
      "inputs": [
        {
          "internalType": "address",
          "name": "_timelock",
          "type": "address"
        }
      ],
      "name": "setTimelock",
      "outputs": [],
      "stateMutability": "nonpayable",
      "type": "function"
    },
    {
      "inputs": [
        {
          "internalType": "bytes4",
          "name": "interfaceId",
          "type": "bytes4"
        }
      ],
      "name": "supportsInterface",
      "outputs": [
        {
          "internalType": "bool",
          "name": "",
          "type": "bool"
        }
      ],
      "stateMutability": "view",
      "type": "function"
    },
    {
      "inputs": [
        {
          "internalType": "address",
          "name": "to",
          "type": "address"
        },
        {
          "internalType": "uint256",
          "name": "tokenId",
          "type": "uint256"
        },
        {
          "internalType": "uint256",
          "name": "value",
          "type": "uint256"
        }
      ],
      "name": "transfer",
      "outputs": [],
      "stateMutability": "nonpayable",
      "type": "function"
    },
    {
      "inputs": [
        {
          "internalType": "address",
          "name": "account",
          "type": "address"
        }
      ],
      "name": "unregisterConsumer",
      "outputs": [],
      "stateMutability": "nonpayable",
      "type": "function"
    },
    {
      "inputs": [
        {
          "internalType": "address",
          "name": "account",
          "type": "address"
        },
        {
          "internalType": "uint8",
          "name": "tokenTypeId",
          "type": "uint8"
        }
      ],
      "name": "unregisterDealer",
      "outputs": [],
      "stateMutability": "nonpayable",
      "type": "function"
    },
    {
      "inputs": [
        {
          "internalType": "address",
          "name": "account",
          "type": "address"
        }
      ],
      "name": "unregisterIndustry",
      "outputs": [],
      "stateMutability": "nonpayable",
      "type": "function"
    },
    {
      "inputs": [
        {
          "internalType": "uint256",
          "name": "",
          "type": "uint256"
        }
      ],
      "name": "uri",
      "outputs": [
        {
          "internalType": "string",
          "name": "",
          "type": "string"
        }
      ],
      "stateMutability": "view",
      "type": "function"
    },
    {
      "inputs": [
        {
          "internalType": "bytes32",
          "name": "msgHash",
          "type": "bytes32"
        },
        {
          "internalType": "bytes",
          "name": "signature",
          "type": "bytes"
        },
        {
          "internalType": "address",
          "name": "signer",
          "type": "address"
        }
      ],
      "name": "verifySignature",
      "outputs": [
        {
          "internalType": "bool",
          "name": "",
          "type": "bool"
        }
      ],
      "stateMutability": "pure",
      "type": "function"
    }
  ],
  "bytecode": "0x608060405234801561001057600080fd5b5061594c80620000216000396000f3fe608060405234801561001057600080fd5b50600436106103265760003560e01c806376ce4755116101b8578063c4d66de811610104578063e985e9c5116100a2578063f851a4401161007c578063f851a440146107e1578063fbdf37ea146107f9578063fc0bbce31461080e578063fcba79481461082157610326565b8063e985e9c514610749578063ee04295614610785578063f242432a146107ce57610326565b8063d75cfd58116100de578063d75cfd58146106e0578063dba851b014610716578063ddc3e6eb14610723578063e2e564f21461073657610326565b8063c4d66de81461069a578063ce6ccfaf146106ad578063d547741f146106cd57610326565b806391d1485411610171578063a22cb4651161014b578063a22cb46514610641578063bdacb30314610654578063c03df97014610667578063c1e037281461067a57610326565b806391d1485414610613578063a0d975a714610626578063a217fddf1461063957610326565b806376ce47551461058657806378e5c5921461059b5780637aab1b88146105b05780637f157c9b146105c357806388e871b4146105eb578063907b6652146105fe57610326565b806331aa4b201161027757806349b90557116102305780635ddb368f1161020a5780635ddb368f1461054557806369f7ef441461054d57806371ccbe121461056057806376aed2e11461057357610326565b806349b90557146104ff5780634e1273f41461051257806353dbe9821461053257610326565b806331aa4b201461048d57806331cd4199146104a057806333781a0e146104b357806336568abe146104c65780633752eb75146104d957806344b22fdd146104ec57610326565b8063156e29f6116102e4578063248a9ca3116102be578063248a9ca314610431578063293a7f2e146104545780632eb2c2d6146104675780632f2ff15d1461047a57610326565b8063156e29f6146103f457806318a50d7e146104075780631ef68ef71461041c57610326565b8062fdd58e1461032b57806301ffc9a714610351578063033fd91914610374578063095bcdb6146103895780630e89341c1461039c578063127d5ad0146103bc575b600080fd5b61033e610339366004614bd6565b610836565b6040519081526020015b60405180910390f35b61036461035f366004614dda565b6108cf565b6040519015158152602001610348565b6103876103823660046146ef565b6108fc565b005b610387610397366004614c01565b6109f7565b6103af6103aa366004614d46565b610a89565b6040516103489190615189565b6103e26103ca366004614d46565b600090815260cc602052604090206001015460ff1690565b60405160ff9091168152602001610348565b610387610402366004614c01565b610b1d565b61033e6000805160206158b783398151915281565b61033e60008051602061585783398151915281565b61033e61043f366004614d46565b60009081526097602052604090206001015490565b610387610462366004614e2a565b610c2d565b6103876104753660046149c0565b610db2565b610387610488366004614d5e565b610e49565b61038761049b366004614c35565b610e70565b6103646104ae366004614d82565b611002565b6103646104c13660046146ef565b611085565b6103876104d4366004614d5e565b61109f565b6103876104e7366004614856565b61111d565b6103876104fa3660046146ef565b6111c4565b61036461050d3660046146ef565b6112ae565b610525610520366004614c60565b6112c8565b6040516103489190615148565b6103876105403660046146ef565b611429565b61033e611517565b61036461055b3660046146ef565b611528565b61038761056e36600461475f565b6115b1565b6103af610581366004614d46565b6119f4565b61033e6000805160206158f783398151915281565b61033e60008051602061589783398151915281565b61033e6105be36600461493b565b611bb4565b6105d66105d1366004614bd6565b611c29565b60408051928352602083019190915201610348565b6103876105f9366004614acf565b611ccb565b61033e60008051602061587783398151915281565b610364610621366004614d5e565b611cf0565b61033e610634366004614bd6565b611d1b565b61033e600081565b61038761064f366004614ba2565b611db6565b6103876106623660046146ef565b611dc1565b6103876106753660046146ef565b611e0a565b61068d610688366004614d46565b611f09565b60405161034891906153d0565b6103876106a83660046146ef565b6121e5565b6106c06106bb3660046146ef565b6123aa565b60405161034891906154d5565b6103876106db366004614d5e565b6124eb565b61033e6106ee366004614d5e565b600091825260cd602090815260408084206001600160a01b0393909316845291905290205490565b60c9546103649060ff1681565b610387610731366004614d2c565b612511565b610387610744366004614c35565b61254b565b610364610757366004614727565b6001600160a01b03918216600090815260666020908152604080832093909416825291909152205460ff1690565b6107b6610793366004614d46565b600090815260cc602052604090206001015461010090046001600160a01b031690565b6040516001600160a01b039091168152602001610348565b6103876107dc366004614a69565b6126d4565b60c9546107b69061010090046001600160a01b031681565b61033e60008051602061583783398151915281565b61036461081c3660046146ef565b61275b565b61033e6000805160206158d783398151915281565b60006001600160a01b0383166108a75760405162461bcd60e51b815260206004820152602b60248201527f455243313135353a2062616c616e636520717565727920666f7220746865207a60448201526a65726f206164647265737360a81b60648201526084015b60405180910390fd5b5060009081526065602090815260408083206001600160a01b03949094168352929052205490565b60006001600160e01b03198216637965db0b60e01b14806108f457506108f4826127b1565b90505b919050565b336001600160a01b03821614610914576109146127d6565b60c95460ff16156109a85761092a600033611cf0565b6109a85760405162461bcd60e51b815260206004820152604360248201527f434c4d383a3a7265676973746572496e647573747279286c696d69746564293a60448201527f206f6e6c792061646d696e2063616e20726567697374657220696e647573747260648201526269657360e81b608482015260a40161089e565b6109c06000805160206158378339815191528261284e565b6040516001600160a01b038216907f1230fb0cdc77da02d53e840f6f60d5e7f68646d7d1ccdd890860e05533b62f5390600090a250565b610a0082612858565b610a5b5760405162461bcd60e51b815260206004820152602660248201527f434c4d383a3a7472616e736665723a20746f6b656e496420646f6573206e6f7460448201526508195e1a5cdd60d21b606482015260840161089e565b610a8433848484604051806040016040528060048152602001630307830360e41b8152506126d4565b505050565b606060678054610a9890615697565b80601f0160208091040260200160405190810160405280929190818152602001828054610ac490615697565b8015610b115780601f10610ae657610100808354040283529160200191610b11565b820191906000526020600020905b815481529060010190602001808311610af457829003601f168201915b50505050509050919050565b610b28600033611cf0565b610b445760405162461bcd60e51b815260040161089e906151e4565b610b4d82612858565b610ba45760405162461bcd60e51b815260206004820152602260248201527f434c4d383a3a6d696e743a20746f6b656e496420646f6573206e6f74206578696044820152611cdd60f21b606482015260840161089e565b60c95460ff1615610c125760405162461bcd60e51b815260206004820152603260248201527f434c4d383a3a6d696e743a2063616e6e6f74206d696e74206e657720746f6b656044820152716e7320696e206c696d69746564206d6f646560701b606482015260840161089e565b610a8483838360405180602001604052806000815250612871565b3360008115610c5b57610c3f8261275b565b610c5b5760405162461bcd60e51b815260040161089e90615328565b6001600160a01b03811615610c8f57610c738161275b565b610c8f5760405162461bcd60e51b815260040161089e9061522d565b610c9884612858565b610cf05760405162461bcd60e51b8152602060048201526024808201527f434c4d383a3a7265746972653a20746f6b656e496420646f6573206e6f7420656044820152631e1a5cdd60e21b606482015260840161089e565b610cfa3385610836565b831115610d665760405162461bcd60e51b815260206004820152603460248201527f434c4d383a3a7265746972653a206e6f7420656e6f75676820617661696c61626044820152736c652062616c616e636520746f2072657469726560601b606482015260840161089e565b610d71338585612983565b604080518581526020810185905233917f8f1b5ebb586d3d169e4ed07db9cd10ce0dd30c7b656171310eae7517c0b53cf9910160405180910390a250505050565b6001600160a01b038516331480610dce5750610dce8533610757565b610e355760405162461bcd60e51b815260206004820152603260248201527f455243313135353a207472616e736665722063616c6c6572206973206e6f74206044820152711bdddb995c881b9bdc88185c1c1c9bdd995960721b606482015260840161089e565b610e428585858585612a0f565b5050505050565b600082815260976020526040902060010154610e6681335b612c19565b610a848383612c7d565b610e7b600033611cf0565b610e975760405162461bcd60e51b815260040161089e906151e4565b610ea081612d03565b610f055760405162461bcd60e51b815260206004820152603060248201527f434c4d383a3a72656769737465724465616c65723a20746f6b656e547970654960448201526f1908191bd95cc81b9bdd08195e1a5cdd60821b606482015260840161089e565b8060ff1660011415610f2e57610f296000805160206158d783398151915283610e49565b610fb2565b8060ff1660021415610f5257610f2960008051602061585783398151915283610e49565b8060ff1660031415610f7657610f296000805160206158f783398151915283610e49565b8060ff1660041415610fb257610f9a60008051602061583783398151915283610e49565b610fb260008051602061587783398151915283610e49565b610fca6000805160206158b783398151915283610e49565b6040516001600160a01b038316907fa8377deee15954185683d55effd369508b4935978c8cb2bab790bf04c570181490600090a25050565b60008061105c856040517f19457468657265756d205369676e6564204d6573736167653a0a3332000000006020820152603c8101829052600090605c01604051602081830303815290604052805190602001209050919050565b90506001600160a01b0383166110728286612d25565b6001600160a01b03161495945050505050565b60006108f460008051602061589783398151915283611cf0565b6001600160a01b038116331461110f5760405162461bcd60e51b815260206004820152602f60248201527f416363657373436f6e74726f6c3a2063616e206f6e6c792072656e6f756e636560448201526e103937b632b9903337b91039b2b63360891b606482015260840161089e565b6111198282612d41565b5050565b60ca546001600160a01b031633148061113c575061113c600033611cf0565b6111a65760405162461bcd60e51b815260206004820152603560248201527f434c4d383a3a69737375654f6e426568616c663a2063616c6c206d757374206360448201527437b6b290333937b6902220a79037b91030b236b4b760591b606482015260840161089e565b6111b88a8a8a8a8a8a8a8a8a8a612da8565b50505050505050505050565b6111cc6127d6565b60c95460ff161561125f576111e2600033611cf0565b61125f5760405162461bcd60e51b815260206004820152604260248201527f434c4d383a3a7265676973746572436f6e73756d6572286c696d69746564293a60448201527f206f6e6c792061646d696e2063616e20726567697374657220636f6e73756d65606482015261727360f01b608482015260a40161089e565b61127760008051602061589783398151915282610e49565b6040516001600160a01b038216907f69a0adee259d26fe61f4776f7bea7f3a9737c7321256821b985f988545efd31990600090a250565b60006108f46000805160206158f783398151915283611cf0565b6060815183511461132d5760405162461bcd60e51b815260206004820152602960248201527f455243313135353a206163636f756e747320616e6420696473206c656e677468604482015268040dad2e6dac2e8c6d60bb1b606482015260840161089e565b600083516001600160401b0381111561135657634e487b7160e01b600052604160045260246000fd5b60405190808252806020026020018201604052801561137f578160200160208202803683370190505b50905060005b8451811015611421576113e68582815181106113b157634e487b7160e01b600052603260045260246000fd5b60200260200101518583815181106113d957634e487b7160e01b600052603260045260246000fd5b6020026020010151610836565b82828151811061140657634e487b7160e01b600052603260045260246000fd5b602090810291909101015261141a816156f8565b9050611385565b509392505050565b6114316127d6565b60c95460ff16156114c857611447600033611cf0565b6114c85760405162461bcd60e51b815260206004820152604660248201527f434c4d383a3a756e7265676973746572436f6e73756d6572286c696d6974656460448201527f293a206f6e6c792061646d696e2063616e20756e726567697374657220636f6e60648201526573756d65727360d01b608482015260a40161089e565b6114e0600080516020615897833981519152826124eb565b6040516001600160a01b038216907f03a38088da75ee2d80f6c753f55f8fd17602ae17d8bd0ef44d5e1f28ab5af11f90600090a250565b600061152260cb5490565b90505b90565b60006115426000805160206158d783398151915283611cf0565b80611560575061156060008051602061585783398151915283611cf0565b8061157e575061157e6000805160206158f783398151915283611cf0565b8061159c575061159c60008051602061587783398151915283611cf0565b156115a9575060016108f7565b506000919050565b6115b96127d6565b6000899050306001600160a01b0316816001600160a01b031663e54a96466040518163ffffffff1660e01b815260040160206040518083038186803b15801561160157600080fd5b505afa158015611615573d6000803e3d6000fd5b505050506040513d601f19601f82011682018060405250810190611639919061470b565b6001600160a01b0316146116c35760405162461bcd60e51b8152602060048201526044602482018190527f434c4d383a3a6973737565416e64547261636b3a20747261636b657241646472908201527f65737320646f6573206e6f742062656c6f6e6720746f206164647265737328746064820152636869732960e01b608482015260a40161089e565b88816001600160a01b03166340e6c9706040518163ffffffff1660e01b815260040160206040518083038186803b1580156116fd57600080fd5b505afa158015611711573d6000803e3d6000fd5b505050506040513d601f19601f820116820180604052508101906117359190614e12565b10156117995760405162461bcd60e51b815260206004820152602d60248201527f434c4d383a3a6973737565416e64547261636b3a20747261636b65724964206460448201526c1bd95cc81b9bdd08195e1a5cdd609a1b606482015260840161089e565b6117b16000805160206158f783398151915233611cf0565b6118235760405162461bcd60e51b815260206004820152603a60248201527f434c4d383a3a6973737565416e64547261636b3a206d73672e73656e6465722060448201527f6973206e6f7420616e20617070726f7665642061756469746f72000000000000606482015260840161089e565b60408051600180825281830190925260009160208083019080368337505060408051600180825281830190925292935060009291506020808301908036833701905050905061187a338f8e8d8d8d8d8d8d8d612da8565b60408051602081019091526000815260cb54836000815181106118ad57634e487b7160e01b600052603260045260246000fd5b60200260200101818152505089826000815181106118db57634e487b7160e01b600052603260045260246000fd5b60209081029190910101528b61197a57836001600160a01b03166399228cda8f85858d8d876040518763ffffffff1660e01b8152600401611921969594939291906150e5565b602060405180830381600087803b15801561193b57600080fd5b505af115801561194f573d6000803e3d6000fd5b505050506040513d601f19601f820116820180604052508101906119739190614e12565b9b506119e3565b6040516363a2485760e01b81526001600160a01b038516906363a24857906119b0908f90879087908f908f908990600401615539565b600060405180830381600087803b1580156119ca57600080fd5b505af11580156119de573d6000803e3d6000fd5b505050505b505050505050505050505050505050565b60606119ff82612858565b611a5e5760405162461bcd60e51b815260206004820152602a60248201527f434c4d383a3a676574546f6b656e547970653a20746f6b656e496420646f6573604482015269081b9bdd08195e1a5cdd60b21b606482015260840161089e565b600082815260cc6020526040902060018082015460ff161415611ab657505060408051808201909152601c81527f52656e657761626c6520456e657267792043657274696669636174650000000060208201526108f7565b600181015460ff1660021415611b0157505060408051808201909152601781527f436172626f6e20456d697373696f6e73204f666673657400000000000000000060208201526108f7565b600181015460ff1660031415611b405750506040805180820190915260118152704175646974656420456d697373696f6e7360781b60208201526108f7565b600181015460ff1660041415611b7c57505060408051808201909152600e81526d21b0b93137b7102a3930b1b5b2b960911b60208201526108f7565b5050604080518082019091526014815273151bdad95b88191bd95cc81b9bdd08195e1a5cdd60621b60208201526108f7565b50919050565b6001600160a01b03808516600090815260ce602090815260408083209387168352929052908120548590859085908590611bf59063ffffffff166001615609565b604051602001611c09959493929190614f74565b604051602081830303815290604052805190602001209050949350505050565b6000806000611c388585610836565b60405163a0d975a760e01b81526001600160a01b038716600482015260248101869052909150600090309063a0d975a79060440160206040518083038186803b158015611c8457600080fd5b505afa158015611c98573d6000803e3d6000fd5b505050506040513d601f19601f82011682018060405250810190611cbc9190614e12565b919350909150505b9250929050565b611cd36127d6565b611ce5338a8a8a8a8a8a8a8a8a612da8565b505050505050505050565b60009182526097602090815260408084206001600160a01b0393909316845291905290205460ff1690565b6000611d2682612858565b611d8e5760405162461bcd60e51b815260206004820152603360248201527f434c4d383a3a676574546f6b656e52657469726564416d6f756e743a20746f6b604482015272195b925908191bd95cc81b9bdd08195e1a5cdd606a1b606482015260840161089e565b50600090815260cd602090815260408083206001600160a01b03949094168352929052205490565b61111933838361348a565b611dcc600033611cf0565b611de85760405162461bcd60e51b815260040161089e906151e4565b60ca80546001600160a01b0319166001600160a01b0392909216919091179055565b336001600160a01b03821614611e2257611e226127d6565b60c95460ff1615611eba57611e38600033611cf0565b611eba5760405162461bcd60e51b815260206004820152604760248201527f434c4d383a3a756e7265676973746572496e647573747279286c696d6974656460448201527f293a206f6e6c792061646d696e2063616e20756e726567697374657220696e646064820152667573747269657360c81b608482015260a40161089e565b611ed2600080516020615837833981519152826124eb565b6040516001600160a01b038216907fe2fd90a75c6850a2aeaad25eb28a5176ac5166c6e3e6dfe0284e34a628e90ef290600090a250565b611f92604051806101a0016040528060008152602001600060ff16815260200160006001600160a01b0316815260200160006001600160a01b0316815260200160006001600160a01b0316815260200160008152602001600081526020016000815260200160608152602001606081526020016060815260200160008152602001600081525090565b600082815260cc602090815260409182902082516101a08101845281548152600182015460ff8116938201939093526001600160a01b036101009384900481169482019490945260028201548416606082015260038201549093166080840152600481015460a0840152600581015460c0840152600681015460e0840152600781018054919284019161202490615697565b80601f016020809104026020016040519081016040528092919081815260200182805461205090615697565b801561209d5780601f106120725761010080835404028352916020019161209d565b820191906000526020600020905b81548152906001019060200180831161208057829003601f168201915b505050505081526020016008820180546120b690615697565b80601f01602080910402602001604051908101604052809291908181526020018280546120e290615697565b801561212f5780601f106121045761010080835404028352916020019161212f565b820191906000526020600020905b81548152906001019060200180831161211257829003601f168201915b5050505050815260200160098201805461214890615697565b80601f016020809104026020016040519081016040528092919081815260200182805461217490615697565b80156121c15780601f10612196576101008083540402835291602001916121c1565b820191906000526020600020905b8154815290600101906020018083116121a457829003601f168201915b50505050508152602001600a8201548152602001600b820154815250509050919050565b600054610100900460ff166122005760005460ff1615612204565b303b155b6122675760405162461bcd60e51b815260206004820152602e60248201527f496e697469616c697a61626c653a20636f6e747261637420697320616c72656160448201526d191e481a5b9a5d1a585b1a5e995960921b606482015260840161089e565b600054610100900460ff16158015612289576000805461ffff19166101011790555b6122a16040518060200160405280600081525061356b565b6122c76000805160206158978339815191526000805160206158b783398151915261359e565b6122d260008361284e565b6122ea6000805160206158b78339815191528361284e565b6123026000805160206158d78339815191528361284e565b61231a6000805160206158578339815191528361284e565b6123326000805160206158f78339815191528361284e565b61234a6000805160206158778339815191528361284e565b6123626000805160206158378339815191528361284e565b60c9805460ca80546001600160a01b03191690556001600160a81b0319166101006001600160a01b0385160260ff19161790558015611119576000805461ff00191690555050565b6040805160e081018252600080825260208201819052918101829052606081018290526080810182905260a0810182905260c08101919091526040805160e081018252600080825260208201819052918101829052606081018290526080810182905260a0810182905260c0810191909152612427600084611cf0565b151581526124436000805160206158d783398151915284611cf0565b1515604082015261246260008051602061585783398151915284611cf0565b151560608201526124816000805160206158f783398151915284611cf0565b151560808201526124a060008051602061583783398151915284611cf0565b151560a08201526124bf60008051602061589783398151915284611cf0565b151560208201526124de60008051602061587783398151915284611cf0565b151560c082015292915050565b6000828152609760205260409020600101546125078133610e61565b610a848383612d41565b61251c600033611cf0565b6125385760405162461bcd60e51b815260040161089e906151e4565b60c9805460ff1916911515919091179055565b612556600033611cf0565b6125725760405162461bcd60e51b815260040161089e906151e4565b61257b81612d03565b6125e25760405162461bcd60e51b815260206004820152603260248201527f434c4d383a3a756e72656769737465724465616c65723a20746f6b656e54797060448201527119525908191bd95cc81b9bdd08195e1a5cdd60721b606482015260840161089e565b8060ff166001141561260b576126066000805160206158d7833981519152836124eb565b612677565b8060ff166002141561262f57612606600080516020615857833981519152836124eb565b8060ff1660031415612653576126066000805160206158f7833981519152836124eb565b8060ff166004141561267757612677600080516020615877833981519152836124eb565b61268082611528565b61269c5761269c6000805160206158b7833981519152836124eb565b6040516001600160a01b038316907f98552ded770f1d05a505572f3387c108dbc6b566ea3d49f83cff3d1f1c72a04290600090a25050565b6001600160a01b0385163314806126f057506126f08533610757565b61274e5760405162461bcd60e51b815260206004820152602960248201527f455243313135353a2063616c6c6572206973206e6f74206f776e6572206e6f7260448201526808185c1c1c9bdd995960ba1b606482015260840161089e565b610e4285858585856135e9565b60006127756000805160206158b783398151915283611cf0565b80612793575061279360008051602061589783398151915283611cf0565b8061159c575061159c60008051602061583783398151915283611cf0565b60006001600160e01b03198216637965db0b60e01b14806108f457506108f48261370a565b6127ee6000805160206158b783398151915233611cf0565b61284c5760405162461bcd60e51b815260206004820152602960248201527f434c4d383a3a6f6e6c794465616c65723a206d73672e73656e646572206e6f746044820152681030903232b0b632b960b91b606482015260840161089e565b565b6111198282612c7d565b60008161286460cb5490565b106115a9575060016108f7565b6001600160a01b0384166128d15760405162461bcd60e51b815260206004820152602160248201527f455243313135353a206d696e7420746f20746865207a65726f206164647265736044820152607360f81b606482015260840161089e565b336128f1816000876128e28861375a565b6128eb8861375a565b876137b3565b60008481526065602090815260408083206001600160a01b0389168452909152812080548592906129239084906155f1565b909155505060408051858152602081018590526001600160a01b0380881692600092918516917fc3d58168c5ae7397731d063d5bbf3d657854427343f4c083240f7aacaa2d0f62910160405180910390a4610e4281600087878787613bcd565b61298e838383613d38565b600082815260cc60205260409020600b01546129aa9082613eb5565b600083815260cc60209081526040808320600b019390935560cd81528282206001600160a01b0387168352905220546129e39082613eb5565b600092835260cd602090815260408085206001600160a01b039096168552949052929091209190915550565b8151835114612a715760405162461bcd60e51b815260206004820152602860248201527f455243313135353a2069647320616e6420616d6f756e7473206c656e677468206044820152670dad2e6dac2e8c6d60c31b606482015260840161089e565b6001600160a01b038416612a975760405162461bcd60e51b815260040161089e90615299565b33612aa68187878787876137b3565b60005b8451811015612bab576000858281518110612ad457634e487b7160e01b600052603260045260246000fd5b602002602001015190506000858381518110612b0057634e487b7160e01b600052603260045260246000fd5b60209081029190910181015160008481526065835260408082206001600160a01b038e168352909352919091205490915081811015612b515760405162461bcd60e51b815260040161089e906152de565b60008381526065602090815260408083206001600160a01b038e8116855292528083208585039055908b16825281208054849290612b909084906155f1565b9250508190555050505080612ba4906156f8565b9050612aa9565b50846001600160a01b0316866001600160a01b0316826001600160a01b03167f4a39dc06d4c0dbc64b70af90fd698a233a518aa5d07e595d983b8c0526c8f7fb8787604051612bfb92919061515b565b60405180910390a4612c11818787878787613ec8565b505050505050565b612c238282611cf0565b61111957612c3b816001600160a01b03166014613f92565b612c46836020613f92565b604051602001612c57929190614fcd565b60408051601f198184030181529082905262461bcd60e51b825261089e91600401615189565b612c878282611cf0565b6111195760008281526097602090815260408083206001600160a01b03851684529091529020805460ff19166001179055612cbf3390565b6001600160a01b0316816001600160a01b0316837f2f8788117e7eff1d82e926ec794901d17c78024a50270940304540a733656f0d60405160405180910390a45050565b6000808260ff1611801561159c575060048260ff16116115a9575060016108f7565b6000806000612d348585614173565b91509150611421816141e0565b612d4b8282611cf0565b156111195760008281526097602090815260408083206001600160a01b0385168085529252808320805460ff1916905551339285917ff6391f5c32d9c69d2a47ea670b442974b53935d1edc7fd64eb21e047a839171b9190a45050565b612db187612d03565b612e095760405162461bcd60e51b8152602060048201526024808201527f434c4d383a3a5f69737375653a20746f6b656e54797065496420697320696e76604482015263185b1a5960e21b606482015260840161089e565b60c95460ff161561305e578660ff1660011480612e2957508660ff166002145b15612fb35760ca546001600160a01b03163314612e9f5760405162461bcd60e51b815260206004820152602e60248201527f434c4d383a3a5f6973737565286c696d69746564293a206d73672e73656e646560448201526d72206e6f742074696d656c6f636b60901b606482015260840161089e565b612eaa600089611cf0565b612f065760405162461bcd60e51b815260206004820152602760248201527f434c4d383a3a5f6973737565286c696d69746564293a20697373756565206e6f6044820152663a1030b236b4b760c91b606482015260840161089e565b612f1e6000805160206158d78339815191528b611cf0565b80612f3c5750612f3c6000805160206158578339815191528b611cf0565b612fae5760405162461bcd60e51b815260206004820152603760248201527f434c4d383a3a5f6973737565286c696d69746564293a2070726f706f7365722060448201527f6e6f7420612072656769737465726564206465616c6572000000000000000000606482015260840161089e565b613059565b8660ff1660031480612fc857508660ff166004145b1561305957612fe56000805160206158f78339815191528b611cf0565b613059576040805162461bcd60e51b81526020600482015260248101919091527f434c4d383a3a5f6973737565286c696d69746564293a20697373756572206e6f60448201527f742061207265676973746572656420656d697373696f6e732061756469746f72606482015260840161089e565b613217565b8660ff16600114156130e7576130826000805160206158d78339815191528b611cf0565b6130595760405162461bcd60e51b815260206004820152603060248201527f434c4d383a3a5f69737375653a20697373756572206e6f74206120726567697360448201526f3a32b932b2102922a1903232b0b632b960811b606482015260840161089e565b8660ff16600214156131735761310b6000805160206158578339815191528b611cf0565b6130595760405162461bcd60e51b815260206004820152603360248201527f434c4d383a3a5f69737375653a20697373756572206e6f7420612072656769736044820152723a32b932b21037b33339b2ba103232b0b632b960691b606482015260840161089e565b8660ff166003148061318857508660ff166004145b15613217576131a56000805160206158f78339815191528b611cf0565b6132175760405162461bcd60e51b815260206004820152603760248201527f434c4d383a3a5f69737375653a20697373756572206e6f74206120726567697360448201527f746572656420656d697373696f6e732061756469746f72000000000000000000606482015260840161089e565b61322560cb80546001019055565b600060cc600061323460cb5490565b8152602001908152602001600020905061324d60cb5490565b81556001810180546001600160a01b03808e16610100026001600160a81b031990921660ff8c1617919091179091556002820180548c83166001600160a01b031991821617909155600383018054928c1692909116919091179055600481018690556005810185905542600682015583516132d19060078301906020870190614548565b5082516132e79060088301906020860190614548565b5081516132fd9060098301906020850190614548565b50600a81018790556000600b82015561332f8961331960cb5490565b8960405180602001604052806000815250612871565b8760ff16600314156133565760038101548154613356916001600160a01b03169089612983565b8060030160009054906101000a90046001600160a01b03166001600160a01b03168160020160009054906101000a90046001600160a01b03166001600160a01b03168260010160019054906101000a90046001600160a01b03166001600160a01b03167fb8ad5d21459c6ed7d4702603e83b1d759ee9d681fe8f39ef2a1e9d9ba23771df8a60cd60008760000154815260200190815260200160002060008760030160009054906101000a90046001600160a01b03166001600160a01b03166001600160a01b031681526020019081526020016000205486600001548760010160009054906101000a900460ff16886004015489600501548a600601548b6007018c6008018d6009016040516134759a99989796959493929190615552565b60405180910390a45050505050505050505050565b816001600160a01b0316836001600160a01b031614156134fe5760405162461bcd60e51b815260206004820152602960248201527f455243313135353a2073657474696e6720617070726f76616c20737461747573604482015268103337b91039b2b63360b91b606482015260840161089e565b6001600160a01b03838116600081815260666020908152604080832094871680845294825291829020805460ff191686151590811790915591519182527f17307eab39ab6107e8899845ad3d59bd9653f200f220920489ca2b5937696c31910160405180910390a3505050565b600054610100900460ff166135925760405162461bcd60e51b815260040161089e90615385565b61359b816143e3565b50565b600082815260976020526040808220600101805490849055905190918391839186917fbd79b86ffe0ab8e8776151514217cd7cacd52c909f66475c3af44e129f0b00ff9190a4505050565b6001600160a01b03841661360f5760405162461bcd60e51b815260040161089e90615299565b3361361f8187876128e28861375a565b60008481526065602090815260408083206001600160a01b038a168452909152902054838110156136625760405162461bcd60e51b815260040161089e906152de565b60008581526065602090815260408083206001600160a01b038b81168552925280832087850390559088168252812080548692906136a19084906155f1565b909155505060408051868152602081018690526001600160a01b03808916928a821692918616917fc3d58168c5ae7397731d063d5bbf3d657854427343f4c083240f7aacaa2d0f62910160405180910390a4613701828888888888613bcd565b50505050505050565b60006001600160e01b03198216636cdb3d1360e11b148061373b57506001600160e01b031982166303a24d0760e21b145b806108f457506301ffc9a760e01b6001600160e01b03198316146108f4565b604080516001808252818301909252606091600091906020808301908036833701905050905082816000815181106137a257634e487b7160e01b600052603260045260246000fd5b602090810291909101015292915050565b84846001600160a01b038216156137e9576137cd8261275b565b6137e95760405162461bcd60e51b815260040161089e90615328565b6001600160a01b0381161561381d576138018161275b565b61381d5760405162461bcd60e51b815260040161089e9061522d565b856001600160a01b0316876001600160a01b031614156138b05760405162461bcd60e51b815260206004820152604260248201527f434c4d383a3a5f6265666f7265546f6b656e5472616e736665723a2073656e6460448201527f657220616e642072656365697665722063616e6e6f74206265207468652073616064820152616d6560f01b608482015260a40161089e565b6000805b8651811015613ac657600060cc60008984815181106138e357634e487b7160e01b600052603260045260246000fd5b60200260200101518152602001908152602001600020905060c960009054906101000a900460ff1615613ab2576001600160a01b0389166139245750613ab4565b60018082015460ff1614806139405750600181015460ff166002145b156139f25760ca546001600160a01b038c811691161480613967575061396760008c611cf0565b6139ed5760405162461bcd60e51b815260206004820152604b60248201527f434c4d383a3a5f6265666f7265546f6b656e5472616e73666572286c696d697460448201527f6564293a206f6e6c792061646d696e20616e642044414f2063616e207472616e60648201526a7366657220746f6b656e7360a81b608482015260a40161089e565b613ab2565b600181015460ff1660031415613ab257613a1a6000805160206158f78339815191528c611cf0565b613ab25760405162461bcd60e51b815260206004820152605860248201527f434c4d383a3a5f6265666f7265546f6b656e5472616e73666572286c696d697460448201527f6564293a206f6e6c7920656d697373696f6e732061756469746f72732063616e60648201527f206973737565206175646974656420656d697373696f6e730000000000000000608482015260a40161089e565b505b80613abe816156f8565b9150506138b4565b508015611ce5576000613adb89898989611bb4565b9050613ae881868a611002565b613b695760405162461bcd60e51b815260206004820152604660248201527f434c4d383a3a5f6265666f7265546f6b656e5472616e736665723a207265636560448201527f69766572277320617070726f76616c207369676e6174757265206973206e6f74606482015265081d985b1a5960d21b608482015260a40161089e565b6001600160a01b03808a16600090815260ce60209081526040808320938c168352929052908120805463ffffffff1691613ba283615713565b91906101000a81548163ffffffff021916908363ffffffff1602179055505050505050505050505050565b6001600160a01b0384163b15612c115760405163f23a6e6160e01b81526001600160a01b0385169063f23a6e6190613c1190899089908890889088906004016150a0565b602060405180830381600087803b158015613c2b57600080fd5b505af1925050508015613c5b575060408051601f3d908101601f19168201909252613c5891810190614df6565b60015b613d0857613c67615763565b806308c379a01415613ca15750613c7c61577a565b80613c875750613ca3565b8060405162461bcd60e51b815260040161089e9190615189565b505b60405162461bcd60e51b815260206004820152603460248201527f455243313135353a207472616e7366657220746f206e6f6e20455243313135356044820152732932b1b2b4bb32b91034b6b83632b6b2b73a32b960611b606482015260840161089e565b6001600160e01b0319811663f23a6e6160e01b146137015760405162461bcd60e51b815260040161089e9061519c565b6001600160a01b038316613d9a5760405162461bcd60e51b815260206004820152602360248201527f455243313135353a206275726e2066726f6d20746865207a65726f206164647260448201526265737360e81b606482015260840161089e565b33613dc981856000613dab8761375a565b613db48761375a565b604051806020016040528060008152506137b3565b60008381526065602090815260408083206001600160a01b038816845290915290205482811015613e485760405162461bcd60e51b8152602060048201526024808201527f455243313135353a206275726e20616d6f756e7420657863656564732062616c604482015263616e636560e01b606482015260840161089e565b60008481526065602090815260408083206001600160a01b03898116808652918452828520888703905582518981529384018890529092908616917fc3d58168c5ae7397731d063d5bbf3d657854427343f4c083240f7aacaa2d0f62910160405180910390a45050505050565b6000613ec182846155f1565b9392505050565b6001600160a01b0384163b15612c115760405163bc197c8160e01b81526001600160a01b0385169063bc197c8190613f0c9089908990889088908890600401615042565b602060405180830381600087803b158015613f2657600080fd5b505af1925050508015613f56575060408051601f3d908101601f19168201909252613f5391810190614df6565b60015b613f6257613c67615763565b6001600160e01b0319811663bc197c8160e01b146137015760405162461bcd60e51b815260040161089e9061519c565b60606000613fa1836002615631565b613fac9060026155f1565b6001600160401b03811115613fd157634e487b7160e01b600052604160045260246000fd5b6040519080825280601f01601f191660200182016040528015613ffb576020820181803683370190505b509050600360fc1b8160008151811061402457634e487b7160e01b600052603260045260246000fd5b60200101906001600160f81b031916908160001a905350600f60fb1b8160018151811061406157634e487b7160e01b600052603260045260246000fd5b60200101906001600160f81b031916908160001a9053506000614085846002615631565b6140909060016155f1565b90505b6001811115614124576f181899199a1a9b1b9c1cb0b131b232b360811b85600f16601081106140d257634e487b7160e01b600052603260045260246000fd5b1a60f81b8282815181106140f657634e487b7160e01b600052603260045260246000fd5b60200101906001600160f81b031916908160001a90535060049490941c9361411d81615680565b9050614093565b508315613ec15760405162461bcd60e51b815260206004820181905260248201527f537472696e67733a20686578206c656e67746820696e73756666696369656e74604482015260640161089e565b6000808251604114156141aa5760208301516040840151606085015160001a61419e87828585614413565b94509450505050611cc4565b8251604014156141d457602083015160408401516141c9868383614500565b935093505050611cc4565b50600090506002611cc4565b600081600481111561420257634e487b7160e01b600052602160045260246000fd5b141561420d5761359b565b600181600481111561422f57634e487b7160e01b600052602160045260246000fd5b141561427d5760405162461bcd60e51b815260206004820152601860248201527f45434453413a20696e76616c6964207369676e61747572650000000000000000604482015260640161089e565b600281600481111561429f57634e487b7160e01b600052602160045260246000fd5b14156142ed5760405162461bcd60e51b815260206004820152601f60248201527f45434453413a20696e76616c6964207369676e6174757265206c656e67746800604482015260640161089e565b600381600481111561430f57634e487b7160e01b600052602160045260246000fd5b14156143685760405162461bcd60e51b815260206004820152602260248201527f45434453413a20696e76616c6964207369676e6174757265202773272076616c604482015261756560f01b606482015260840161089e565b600481600481111561438a57634e487b7160e01b600052602160045260246000fd5b141561359b5760405162461bcd60e51b815260206004820152602260248201527f45434453413a20696e76616c6964207369676e6174757265202776272076616c604482015261756560f01b606482015260840161089e565b600054610100900460ff1661440a5760405162461bcd60e51b815260040161089e90615385565b61359b81614539565b6000807f7fffffffffffffffffffffffffffffff5d576e7357a4501ddfe92f46681b20a083111561444a57506000905060036144f7565b8460ff16601b1415801561446257508460ff16601c14155b1561447357506000905060046144f7565b6040805160008082526020820180845289905260ff881692820192909252606081018690526080810185905260019060a0016020604051602081039080840390855afa1580156144c7573d6000803e3d6000fd5b5050604051601f1901519150506001600160a01b0381166144f0576000600192509250506144f7565b9150600090505b94509492505050565b6000806001600160ff1b0383168161451d60ff86901c601b6155f1565b905061452b87828885614413565b935093505050935093915050565b80516111199060679060208401905b82805461455490615697565b90600052602060002090601f01602090048101928261457657600085556145bc565b82601f1061458f57805160ff19168380011785556145bc565b828001600101855582156145bc579182015b828111156145bc5782518255916020019190600101906145a1565b506145c89291506145cc565b5090565b5b808211156145c857600081556001016145cd565b80356108f78161580b565b600082601f8301126145fc578081fd5b81356020614609826155ce565b60405161461682826156cc565b8381528281019150858301600585901b87018401881015614635578586fd5b855b8581101561465357813584529284019290840190600101614637565b5090979650505050505050565b803580151581146108f757600080fd5b600082601f830112614680578081fd5b81356001600160401b038111156146995761469961574d565b6040516146b0601f8301601f1916602001826156cc565b8181528460208386010111156146c4578283fd5b816020850160208301379081016020019190915292915050565b803560ff811681146108f757600080fd5b600060208284031215614700578081fd5b8135613ec18161580b565b60006020828403121561471c578081fd5b8151613ec18161580b565b60008060408385031215614739578081fd5b82356147448161580b565b915060208301356147548161580b565b809150509250929050565b60008060008060008060008060008060006101608c8e031215614780578687fd5b6147898c6145e1565b9a5061479760208d016145e1565b99506147a560408d016145e1565b985060608c013597506147ba60808d016146de565b965060a08c0135955060c08c0135945060e08c013593506001600160401b03806101008e013511156147ea578384fd5b6147fb8e6101008f01358f01614670565b9350806101208e0135111561480e578283fd5b61481f8e6101208f01358f01614670565b9250806101408e01351115614832578182fd5b506148448d6101408e01358e01614670565b90509295989b509295989b9093969950565b6000806000806000806000806000806101408b8d031215614875578586fd5b61487e8b6145e1565b995061488c60208c016145e1565b985061489a60408c016145e1565b97506148a860608c016146de565b965060808b0135955060a08b0135945060c08b0135935060e08b01356001600160401b03808211156148d8578485fd5b6148e48e838f01614670565b94506101008d01359150808211156148fa578384fd5b6149068e838f01614670565b93506101208d013591508082111561491c578283fd5b506149298d828e01614670565b9150509295989b9194979a5092959850565b60008060008060808587031215614950578182fd5b843561495b8161580b565b9350602085013561496b8161580b565b925060408501356001600160401b0380821115614986578384fd5b614992888389016145ec565b935060608701359150808211156149a7578283fd5b506149b4878288016145ec565b91505092959194509250565b600080600080600060a086880312156149d7578283fd5b85356149e28161580b565b945060208601356149f28161580b565b935060408601356001600160401b0380821115614a0d578485fd5b614a1989838a016145ec565b94506060880135915080821115614a2e578283fd5b614a3a89838a016145ec565b93506080880135915080821115614a4f578283fd5b50614a5c88828901614670565b9150509295509295909350565b600080600080600060a08688031215614a80578283fd5b8535614a8b8161580b565b94506020860135614a9b8161580b565b9350604086013592506060860135915060808601356001600160401b03811115614ac3578182fd5b614a5c88828901614670565b60008060008060008060008060006101208a8c031215614aed578283fd5b614af68a6145e1565b9850614b0460208b016145e1565b9750614b1260408b016146de565b965060608a0135955060808a0135945060a08a0135935060c08a01356001600160401b0380821115614b42578485fd5b614b4e8d838e01614670565b945060e08c0135915080821115614b63578384fd5b614b6f8d838e01614670565b93506101008c0135915080821115614b85578283fd5b50614b928c828d01614670565b9150509295985092959850929598565b60008060408385031215614bb4578182fd5b8235614bbf8161580b565b9150614bcd60208401614660565b90509250929050565b60008060408385031215614be8578182fd5b8235614bf38161580b565b946020939093013593505050565b600080600060608486031215614c15578081fd5b8335614c208161580b565b95602085013595506040909401359392505050565b60008060408385031215614c47578182fd5b8235614c528161580b565b9150614bcd602084016146de565b60008060408385031215614c72578182fd5b82356001600160401b0380821115614c88578384fd5b818501915085601f830112614c9b578384fd5b81356020614ca8826155ce565b604051614cb582826156cc565b8381528281019150858301600585901b870184018b1015614cd4578889fd5b8896505b84871015614cff578035614ceb8161580b565b835260019690960195918301918301614cd8565b5096505086013592505080821115614d15578283fd5b50614d22858286016145ec565b9150509250929050565b600060208284031215614d3d578081fd5b613ec182614660565b600060208284031215614d57578081fd5b5035919050565b60008060408385031215614d70578182fd5b8235915060208301356147548161580b565b600080600060608486031215614d96578081fd5b8335925060208401356001600160401b03811115614db2578182fd5b614dbe86828701614670565b9250506040840135614dcf8161580b565b809150509250925092565b600060208284031215614deb578081fd5b8135613ec181615820565b600060208284031215614e07578081fd5b8151613ec181615820565b600060208284031215614e23578081fd5b5051919050565b60008060408385031215614e3c578182fd5b50508035926020909101359150565b6000815180845260208085019450808401835b83811015614e7a57815187529582019590820190600101614e5e565b509495945050505050565b80516000906020808401838315614e7a57815187529582019590820190600101614e5e565b60008151808452614ec2816020860160208601615650565b601f01601f19169290920160200192915050565b8054600090600181811c9080831680614ef057607f831692505b6020808410821415614f1057634e487b7160e01b86526022600452602486fd5b83885260208801828015614f2b5760018114614f3c57614f67565b60ff19871682528282019750614f67565b60008981526020902060005b87811015614f6157815484820152908601908401614f48565b83019850505b5050505050505092915050565b60006bffffffffffffffffffffffff19808860601b168352808760601b16601484015250614fae614fa86028840187614e85565b85614e85565b60e09390931b6001600160e01b03191683525050600401949350505050565b60007f416363657373436f6e74726f6c3a206163636f756e742000000000000000000082528351615005816017850160208801615650565b7001034b99036b4b9b9b4b733903937b6329607d1b6017918401918201528351615036816028840160208801615650565b01602801949350505050565b6001600160a01b0386811682528516602082015260a06040820181905260009061506e90830186614e4b565b82810360608401526150808186614e4b565b905082810360808401526150948185614eaa565b98975050505050505050565b6001600160a01b03868116825285166020820152604081018490526060810183905260a0608082018190526000906150da90830184614eaa565b979650505050505050565b6001600160a01b038716815260c06020820181905260009061510990830188614e4b565b828103604084015261511b8188614e4b565b905085606084015284608084015282810360a084015261513b8185614eaa565b9998505050505050505050565b600060208252613ec16020830184614e4b565b60006040825261516e6040830185614e4b565b82810360208401526151808185614e4b565b95945050505050565b600060208252613ec16020830184614eaa565b60208082526028908201527f455243313135353a204552433131353552656365697665722072656a656374656040820152676420746f6b656e7360c01b606082015260800190565b60208082526029908201527f434c4d383a3a6f6e6c7941646d696e3a206d73672e73656e646572206e6f74206040820152683a34329030b236b4b760b91b606082015260800190565b60208082526046908201527f434c4d383a3a636f6e73756d65724f724465616c65723a20726563697069656e60408201527f74206d75737420626520636f6e73756d65722c206465616c6572206f7220696e60608201526564757374727960d01b608082015260a00190565b60208082526025908201527f455243313135353a207472616e7366657220746f20746865207a65726f206164604082015264647265737360d81b606082015260800190565b6020808252602a908201527f455243313135353a20696e73756666696369656e742062616c616e636520666f60408201526939103a3930b739b332b960b11b606082015260800190565b60208082526039908201527f434c4d383a3a636f6e73756d65724f724465616c65723a2073656e646572206e60408201527f6f74206120636f6e73756d6572206f722061206465616c657200000000000000606082015260800190565b6020808252602b908201527f496e697469616c697a61626c653a20636f6e7472616374206973206e6f74206960408201526a6e697469616c697a696e6760a81b606082015260800190565b6000602082528251602083015260208301516153f1604084018260ff169052565b5060408301516001600160a01b03811660608401525060608301516001600160a01b03811660808401525060808301516001600160a01b03811660a08401525060a083015160c083015260c083015160e083015260e08301516101008181850152808501519150506101a061012081818601526154726101c0860184614eaa565b9250808601519050601f196101408187860301818801526154938584614eaa565b9450808801519250506101608187860301818801526154b28584614eaa565b908801516101808881019190915290970151929095019190915250929392505050565b600060e08201905082511515825260208301511515602083015260408301511515604083015260608301511515606083015260808301511515608083015260a0830151151560a083015260c083015161553260c084018215159052565b5092915050565b600087825260c0602083015261510960c0830188614e4b565b60006101408c83528b60208401528a604084015260ff8a1660608401528860808401528760a08401528660c08401528060e084015261559381840187614ed6565b90508281036101008401526155a88186614ed6565b90508281036101208401526155bd8185614ed6565b9d9c50505050505050505050505050565b60006001600160401b038211156155e7576155e761574d565b5060051b60200190565b6000821982111561560457615604615737565b500190565b600063ffffffff80831681851680830382111561562857615628615737565b01949350505050565b600081600019048311821515161561564b5761564b615737565b500290565b60005b8381101561566b578181015183820152602001615653565b8381111561567a576000848401525b50505050565b60008161568f5761568f615737565b506000190190565b600181811c908216806156ab57607f821691505b60208210811415611bae57634e487b7160e01b600052602260045260246000fd5b601f8201601f191681016001600160401b03811182821017156156f1576156f161574d565b6040525050565b600060001982141561570c5761570c615737565b5060010190565b600063ffffffff8083168181141561572d5761572d615737565b6001019392505050565b634e487b7160e01b600052601160045260246000fd5b634e487b7160e01b600052604160045260246000fd5b600060033d111561152557600481823e5160e01c90565b600060443d101561578a57611525565b6040516003193d81016004833e81513d6001600160401b0381602484011181841117156157bb575050505050611525565b82850191508151818111156157d557505050505050611525565b843d87010160208285010111156157f157505050505050611525565b615800602082860101876156cc565b509094505050505090565b6001600160a01b038116811461359b57600080fd5b6001600160e01b03198116811461359b57600080fdfe8305613dd3dbc3e0773e56336f52890c75fc1219c6ed3f363339b8ada04df289ede6574deba8f02ada7888448a497b08844d62e044ed533343a673be3ffcde5ff047c8eb56a4fb9b90290fc55ce546369985412ba2348c56342b7afbf87ec1a65e1aa547d3dade8c68b013a47ad41c2bcc9b9e4b0765b0fb616780e15786e76af8890eedd7900ad88da6192fd03dbb69dbeee963b1a0ed738abe49ab3331aaf32ab9f1da92e74aaa01eb75a871557505b11dd8d36832a34bb21bbee88b08d860e97dad3dbe5042e7384b1572cf966a15e089576a62b5126c5ef1d184ab18b12ca2646970667358221220e9e1afabe33309de3d29728f212c911432238cbd029dfaa4cee36abc0b634ba264736f6c63430008030033",
  "linkReferences": {},
  "deployedLinkReferences": {}
}