{
  "_format": "hh-sol-artifact-1",
  "contractName": "NetEmissionsTokenNetwork",
  "sourceName": "contracts/NetEmissionsTokenNetwork.sol",
  "abi": [
    {
      "anonymous": false,
      "inputs": [
        {
          "indexed": true,
          "internalType": "address",
          "name": "account",
          "type": "address"
        },
        {
          "indexed": true,
          "internalType": "address",
          "name": "operator",
          "type": "address"
        },
        {
          "indexed": false,
          "internalType": "bool",
          "name": "approved",
          "type": "bool"
        }
      ],
      "name": "ApprovalForAll",
      "type": "event"
    },
    {
      "anonymous": false,
      "inputs": [
        {
          "indexed": true,
          "internalType": "address",
          "name": "account",
          "type": "address"
        }
      ],
      "name": "RegisteredConsumer",
      "type": "event"
    },
    {
      "anonymous": false,
      "inputs": [
        {
          "indexed": true,
          "internalType": "address",
          "name": "account",
          "type": "address"
        }
      ],
      "name": "RegisteredDealer",
      "type": "event"
    },
    {
      "anonymous": false,
      "inputs": [
        {
          "indexed": true,
          "internalType": "address",
          "name": "account",
          "type": "address"
        }
      ],
      "name": "RegisteredIndustry",
      "type": "event"
    },
    {
      "anonymous": false,
      "inputs": [
        {
          "indexed": true,
          "internalType": "bytes32",
          "name": "role",
          "type": "bytes32"
        },
        {
          "indexed": true,
          "internalType": "bytes32",
          "name": "previousAdminRole",
          "type": "bytes32"
        },
        {
          "indexed": true,
          "internalType": "bytes32",
          "name": "newAdminRole",
          "type": "bytes32"
        }
      ],
      "name": "RoleAdminChanged",
      "type": "event"
    },
    {
      "anonymous": false,
      "inputs": [
        {
          "indexed": true,
          "internalType": "bytes32",
          "name": "role",
          "type": "bytes32"
        },
        {
          "indexed": true,
          "internalType": "address",
          "name": "account",
          "type": "address"
        },
        {
          "indexed": true,
          "internalType": "address",
          "name": "sender",
          "type": "address"
        }
      ],
      "name": "RoleGranted",
      "type": "event"
    },
    {
      "anonymous": false,
      "inputs": [
        {
          "indexed": true,
          "internalType": "bytes32",
          "name": "role",
          "type": "bytes32"
        },
        {
          "indexed": true,
          "internalType": "address",
          "name": "account",
          "type": "address"
        },
        {
          "indexed": true,
          "internalType": "address",
          "name": "sender",
          "type": "address"
        }
      ],
      "name": "RoleRevoked",
      "type": "event"
    },
    {
      "anonymous": false,
      "inputs": [
        {
          "indexed": false,
          "internalType": "uint256",
          "name": "availableBalance",
          "type": "uint256"
        },
        {
          "indexed": false,
          "internalType": "uint256",
          "name": "retiredBalance",
          "type": "uint256"
        },
        {
          "indexed": false,
          "internalType": "uint256",
          "name": "tokenId",
          "type": "uint256"
        },
        {
          "indexed": false,
          "internalType": "uint8",
          "name": "tokenTypeId",
          "type": "uint8"
        },
        {
          "indexed": true,
          "internalType": "address",
          "name": "issuedBy",
          "type": "address"
        },
        {
          "indexed": true,
          "internalType": "address",
          "name": "issuedFrom",
          "type": "address"
        },
        {
          "indexed": true,
          "internalType": "address",
          "name": "issuedTo",
          "type": "address"
        },
        {
          "indexed": false,
          "internalType": "uint256",
          "name": "fromDate",
          "type": "uint256"
        },
        {
          "indexed": false,
          "internalType": "uint256",
          "name": "thruDate",
          "type": "uint256"
        },
        {
          "indexed": false,
          "internalType": "uint256",
          "name": "dateCreated",
          "type": "uint256"
        },
        {
          "indexed": false,
          "internalType": "string",
          "name": "metadata",
          "type": "string"
        },
        {
          "indexed": false,
          "internalType": "string",
          "name": "manifest",
          "type": "string"
        },
        {
          "indexed": false,
          "internalType": "string",
          "name": "description",
          "type": "string"
        }
      ],
      "name": "TokenCreated",
      "type": "event"
    },
    {
      "anonymous": false,
      "inputs": [
        {
          "indexed": true,
          "internalType": "address",
          "name": "account",
          "type": "address"
        },
        {
          "indexed": false,
          "internalType": "uint256",
          "name": "tokenId",
          "type": "uint256"
        },
        {
          "indexed": false,
          "internalType": "uint256",
          "name": "amount",
          "type": "uint256"
        }
      ],
      "name": "TokenRetired",
      "type": "event"
    },
    {
      "anonymous": false,
      "inputs": [
        {
          "indexed": true,
          "internalType": "address",
          "name": "operator",
          "type": "address"
        },
        {
          "indexed": true,
          "internalType": "address",
          "name": "from",
          "type": "address"
        },
        {
          "indexed": true,
          "internalType": "address",
          "name": "to",
          "type": "address"
        },
        {
          "indexed": false,
          "internalType": "uint256[]",
          "name": "ids",
          "type": "uint256[]"
        },
        {
          "indexed": false,
          "internalType": "uint256[]",
          "name": "values",
          "type": "uint256[]"
        }
      ],
      "name": "TransferBatch",
      "type": "event"
    },
    {
      "anonymous": false,
      "inputs": [
        {
          "indexed": true,
          "internalType": "address",
          "name": "operator",
          "type": "address"
        },
        {
          "indexed": true,
          "internalType": "address",
          "name": "from",
          "type": "address"
        },
        {
          "indexed": true,
          "internalType": "address",
          "name": "to",
          "type": "address"
        },
        {
          "indexed": false,
          "internalType": "uint256",
          "name": "id",
          "type": "uint256"
        },
        {
          "indexed": false,
          "internalType": "uint256",
          "name": "value",
          "type": "uint256"
        }
      ],
      "name": "TransferSingle",
      "type": "event"
    },
    {
      "anonymous": false,
      "inputs": [
        {
          "indexed": false,
          "internalType": "string",
          "name": "value",
          "type": "string"
        },
        {
          "indexed": true,
          "internalType": "uint256",
          "name": "id",
          "type": "uint256"
        }
      ],
      "name": "URI",
      "type": "event"
    },
    {
      "anonymous": false,
      "inputs": [
        {
          "indexed": true,
          "internalType": "address",
          "name": "account",
          "type": "address"
        }
      ],
      "name": "UnregisteredConsumer",
      "type": "event"
    },
    {
      "anonymous": false,
      "inputs": [
        {
          "indexed": true,
          "internalType": "address",
          "name": "account",
          "type": "address"
        }
      ],
      "name": "UnregisteredDealer",
      "type": "event"
    },
    {
      "anonymous": false,
      "inputs": [
        {
          "indexed": true,
          "internalType": "address",
          "name": "account",
          "type": "address"
        }
      ],
      "name": "UnregisteredIndustry",
      "type": "event"
    },
    {
      "inputs": [],
      "name": "DEFAULT_ADMIN_ROLE",
      "outputs": [
        {
          "internalType": "bytes32",
          "name": "",
          "type": "bytes32"
        }
      ],
      "stateMutability": "view",
      "type": "function"
    },
    {
      "inputs": [],
      "name": "REGISTERED_CONSUMER",
      "outputs": [
        {
          "internalType": "bytes32",
          "name": "",
          "type": "bytes32"
        }
      ],
      "stateMutability": "view",
      "type": "function"
    },
    {
      "inputs": [],
      "name": "REGISTERED_DEALER",
      "outputs": [
        {
          "internalType": "bytes32",
          "name": "",
          "type": "bytes32"
        }
      ],
      "stateMutability": "view",
      "type": "function"
    },
    {
      "inputs": [],
      "name": "REGISTERED_EMISSIONS_AUDITOR",
      "outputs": [
        {
          "internalType": "bytes32",
          "name": "",
          "type": "bytes32"
        }
      ],
      "stateMutability": "view",
      "type": "function"
    },
    {
      "inputs": [],
      "name": "REGISTERED_INDUSTRY",
      "outputs": [
        {
          "internalType": "bytes32",
          "name": "",
          "type": "bytes32"
        }
      ],
      "stateMutability": "view",
      "type": "function"
    },
    {
      "inputs": [],
      "name": "REGISTERED_INDUSTRY_DEALER",
      "outputs": [
        {
          "internalType": "bytes32",
          "name": "",
          "type": "bytes32"
        }
      ],
      "stateMutability": "view",
      "type": "function"
    },
    {
      "inputs": [],
      "name": "REGISTERED_OFFSET_DEALER",
      "outputs": [
        {
          "internalType": "bytes32",
          "name": "",
          "type": "bytes32"
        }
      ],
      "stateMutability": "view",
      "type": "function"
    },
    {
      "inputs": [],
      "name": "REGISTERED_REC_DEALER",
      "outputs": [
        {
          "internalType": "bytes32",
          "name": "",
          "type": "bytes32"
        }
      ],
      "stateMutability": "view",
      "type": "function"
    },
    {
      "inputs": [
        {
          "internalType": "address",
          "name": "entity",
          "type": "address"
        }
      ],
      "name": "_consumerOrDealer",
      "outputs": [
        {
          "internalType": "bool",
          "name": "",
          "type": "bool"
        }
      ],
      "stateMutability": "view",
      "type": "function"
    },
    {
      "inputs": [],
      "name": "admin",
      "outputs": [
        {
          "internalType": "address",
          "name": "",
          "type": "address"
        }
      ],
      "stateMutability": "view",
      "type": "function"
    },
    {
      "inputs": [
        {
          "internalType": "address",
          "name": "account",
          "type": "address"
        },
        {
          "internalType": "uint256",
          "name": "id",
          "type": "uint256"
        }
      ],
      "name": "balanceOf",
      "outputs": [
        {
          "internalType": "uint256",
          "name": "",
          "type": "uint256"
        }
      ],
      "stateMutability": "view",
      "type": "function"
    },
    {
      "inputs": [
        {
          "internalType": "address[]",
          "name": "accounts",
          "type": "address[]"
        },
        {
          "internalType": "uint256[]",
          "name": "ids",
          "type": "uint256[]"
        }
      ],
      "name": "balanceOfBatch",
      "outputs": [
        {
          "internalType": "uint256[]",
          "name": "",
          "type": "uint256[]"
        }
      ],
      "stateMutability": "view",
      "type": "function"
    },
    {
      "inputs": [
        {
          "internalType": "address",
          "name": "account",
          "type": "address"
        },
        {
          "internalType": "uint256",
          "name": "tokenId",
          "type": "uint256"
        }
      ],
      "name": "getAvailableAndRetired",
      "outputs": [
        {
          "internalType": "uint256",
          "name": "",
          "type": "uint256"
        },
        {
          "internalType": "uint256",
          "name": "",
          "type": "uint256"
        }
      ],
      "stateMutability": "view",
      "type": "function"
    },
    {
      "inputs": [
        {
          "internalType": "address",
          "name": "account",
          "type": "address"
        },
        {
          "internalType": "uint256",
          "name": "tokenId",
          "type": "uint256"
        }
      ],
      "name": "getAvailableRetiredAndTransferred",
      "outputs": [
        {
          "internalType": "uint256",
          "name": "",
          "type": "uint256"
        },
        {
          "internalType": "uint256",
          "name": "",
          "type": "uint256"
        },
        {
          "internalType": "uint256",
          "name": "",
          "type": "uint256"
        }
      ],
      "stateMutability": "view",
      "type": "function"
    },
    {
      "inputs": [
        {
          "internalType": "uint256",
          "name": "tokenId",
          "type": "uint256"
        }
      ],
      "name": "getIssuer",
      "outputs": [
        {
          "internalType": "address",
          "name": "",
          "type": "address"
        }
      ],
      "stateMutability": "view",
      "type": "function"
    },
    {
      "inputs": [],
      "name": "getNumOfUniqueTokens",
      "outputs": [
        {
          "internalType": "uint256",
          "name": "",
          "type": "uint256"
        }
      ],
      "stateMutability": "view",
      "type": "function"
    },
    {
      "inputs": [
        {
          "internalType": "uint256",
          "name": "tokenId",
          "type": "uint256"
        },
        {
          "internalType": "address",
          "name": "account",
          "type": "address"
        }
      ],
      "name": "getRetiredBalances",
      "outputs": [
        {
          "internalType": "uint256",
          "name": "",
          "type": "uint256"
        }
      ],
      "stateMutability": "view",
      "type": "function"
    },
    {
      "inputs": [
        {
          "internalType": "bytes32",
          "name": "role",
          "type": "bytes32"
        }
      ],
      "name": "getRoleAdmin",
      "outputs": [
        {
          "internalType": "bytes32",
          "name": "",
          "type": "bytes32"
        }
      ],
      "stateMutability": "view",
      "type": "function"
    },
    {
      "inputs": [
        {
          "internalType": "address",
          "name": "account",
          "type": "address"
        }
      ],
      "name": "getRoles",
      "outputs": [
        {
          "components": [
            {
              "internalType": "bool",
              "name": "isAdmin",
              "type": "bool"
            },
            {
              "internalType": "bool",
              "name": "isConsumer",
              "type": "bool"
            },
            {
              "internalType": "bool",
              "name": "isRecDealer",
              "type": "bool"
            },
            {
              "internalType": "bool",
              "name": "isCeoDealer",
              "type": "bool"
            },
            {
              "internalType": "bool",
              "name": "isAeDealer",
              "type": "bool"
            },
            {
              "internalType": "bool",
              "name": "isIndustry",
              "type": "bool"
            },
            {
              "internalType": "bool",
              "name": "isIndustryDealer",
              "type": "bool"
            }
          ],
          "internalType": "struct NetEmissionsTokenNetwork.RolesInfo",
          "name": "",
          "type": "tuple"
        }
      ],
      "stateMutability": "view",
      "type": "function"
    },
    {
      "inputs": [
        {
          "internalType": "uint256",
          "name": "tokenId",
          "type": "uint256"
        }
      ],
      "name": "getTokenDetails",
      "outputs": [
        {
          "components": [
            {
              "internalType": "uint256",
              "name": "tokenId",
              "type": "uint256"
            },
            {
              "internalType": "uint8",
              "name": "tokenTypeId",
              "type": "uint8"
            },
            {
              "internalType": "address",
              "name": "issuedBy",
              "type": "address"
            },
            {
              "internalType": "address",
              "name": "issuedFrom",
              "type": "address"
            },
            {
              "internalType": "address",
              "name": "issuedTo",
              "type": "address"
            },
            {
              "internalType": "uint256",
              "name": "fromDate",
              "type": "uint256"
            },
            {
              "internalType": "uint256",
              "name": "thruDate",
              "type": "uint256"
            },
            {
              "internalType": "uint256",
              "name": "dateCreated",
              "type": "uint256"
            },
            {
              "internalType": "string",
              "name": "metadata",
              "type": "string"
            },
            {
              "internalType": "string",
              "name": "manifest",
              "type": "string"
            },
            {
              "internalType": "string",
              "name": "description",
              "type": "string"
            },
            {
              "internalType": "uint256",
              "name": "totalIssued",
              "type": "uint256"
            },
            {
              "internalType": "uint256",
              "name": "totalRetired",
              "type": "uint256"
            }
          ],
          "internalType": "struct NetEmissionsTokenNetwork.CarbonTokenDetails",
          "name": "",
          "type": "tuple"
        }
      ],
      "stateMutability": "view",
      "type": "function"
    },
    {
      "inputs": [
        {
          "internalType": "address",
          "name": "account",
          "type": "address"
        },
        {
          "internalType": "uint256",
          "name": "tokenId",
          "type": "uint256"
        }
      ],
      "name": "getTokenRetiredAmount",
      "outputs": [
        {
          "internalType": "uint256",
          "name": "",
          "type": "uint256"
        }
      ],
      "stateMutability": "view",
      "type": "function"
    },
    {
      "inputs": [
        {
          "internalType": "uint256",
          "name": "tokenId",
          "type": "uint256"
        }
      ],
      "name": "getTokenType",
      "outputs": [
        {
          "internalType": "string",
          "name": "",
          "type": "string"
        }
      ],
      "stateMutability": "view",
      "type": "function"
    },
    {
      "inputs": [
        {
          "internalType": "uint256",
          "name": "tokenId",
          "type": "uint256"
        }
      ],
      "name": "getTokenTypeId",
      "outputs": [
        {
          "internalType": "uint8",
          "name": "",
          "type": "uint8"
        }
      ],
      "stateMutability": "view",
      "type": "function"
    },
    {
      "inputs": [
        {
          "internalType": "address",
          "name": "_from",
          "type": "address"
        },
        {
          "internalType": "address",
          "name": "_to",
          "type": "address"
        },
        {
          "internalType": "uint256[]",
          "name": "_ids",
          "type": "uint256[]"
        },
        {
          "internalType": "uint256[]",
          "name": "_amounts",
          "type": "uint256[]"
        }
      ],
      "name": "getTransferHash",
      "outputs": [
        {
          "internalType": "bytes32",
          "name": "",
          "type": "bytes32"
        }
      ],
      "stateMutability": "view",
      "type": "function"
    },
    {
      "inputs": [
        {
          "internalType": "uint256",
          "name": "tokenId",
          "type": "uint256"
        },
        {
          "internalType": "address",
          "name": "account",
          "type": "address"
        }
      ],
      "name": "getTransferredBalances",
      "outputs": [
        {
          "internalType": "uint256",
          "name": "",
          "type": "uint256"
        }
      ],
      "stateMutability": "view",
      "type": "function"
    },
    {
      "inputs": [
        {
          "internalType": "bytes32",
          "name": "role",
          "type": "bytes32"
        },
        {
          "internalType": "address",
          "name": "account",
          "type": "address"
        }
      ],
      "name": "grantRole",
      "outputs": [],
      "stateMutability": "nonpayable",
      "type": "function"
    },
    {
      "inputs": [
        {
          "internalType": "bytes32",
          "name": "role",
          "type": "bytes32"
        },
        {
          "internalType": "address",
          "name": "account",
          "type": "address"
        }
      ],
      "name": "hasRole",
      "outputs": [
        {
          "internalType": "bool",
          "name": "",
          "type": "bool"
        }
      ],
      "stateMutability": "view",
      "type": "function"
    },
    {
      "inputs": [
        {
          "internalType": "address",
          "name": "_admin",
          "type": "address"
        }
      ],
      "name": "initialize",
      "outputs": [],
      "stateMutability": "nonpayable",
      "type": "function"
    },
    {
      "inputs": [
        {
          "internalType": "address",
          "name": "account",
          "type": "address"
        },
        {
          "internalType": "address",
          "name": "operator",
          "type": "address"
        }
      ],
      "name": "isApprovedForAll",
      "outputs": [
        {
          "internalType": "bool",
          "name": "",
          "type": "bool"
        }
      ],
      "stateMutability": "view",
      "type": "function"
    },
    {
      "inputs": [
        {
          "internalType": "address",
          "name": "auditor",
          "type": "address"
        }
      ],
      "name": "isAuditor",
      "outputs": [
        {
          "internalType": "bool",
          "name": "",
          "type": "bool"
        }
      ],
      "stateMutability": "view",
      "type": "function"
    },
    {
      "inputs": [
        {
          "internalType": "address",
          "name": "account",
          "type": "address"
        }
      ],
      "name": "isConsumerRegistered",
      "outputs": [
        {
          "internalType": "bool",
          "name": "",
          "type": "bool"
        }
      ],
      "stateMutability": "view",
      "type": "function"
    },
    {
      "inputs": [
        {
          "internalType": "address",
          "name": "account",
          "type": "address"
        }
      ],
      "name": "isDealerRegistered",
      "outputs": [
        {
          "internalType": "bool",
          "name": "",
          "type": "bool"
        }
      ],
      "stateMutability": "view",
      "type": "function"
    },
    {
      "inputs": [
        {
          "internalType": "address",
          "name": "issuedFrom",
          "type": "address"
        },
        {
          "internalType": "address",
          "name": "issuedTo",
          "type": "address"
        },
        {
          "internalType": "uint8",
          "name": "tokenTypeId",
          "type": "uint8"
        },
        {
          "internalType": "uint256",
          "name": "quantity",
          "type": "uint256"
        },
        {
          "internalType": "uint256",
          "name": "fromDate",
          "type": "uint256"
        },
        {
          "internalType": "uint256",
          "name": "thruDate",
          "type": "uint256"
        },
        {
          "internalType": "string",
          "name": "metadata",
          "type": "string"
        },
        {
          "internalType": "string",
          "name": "manifest",
          "type": "string"
        },
        {
          "internalType": "string",
          "name": "description",
          "type": "string"
        }
      ],
      "name": "issue",
      "outputs": [],
      "stateMutability": "nonpayable",
      "type": "function"
    },
    {
      "inputs": [
        {
          "internalType": "address",
          "name": "issuedBy",
          "type": "address"
        },
        {
          "internalType": "address",
          "name": "issuedFrom",
          "type": "address"
        },
        {
          "internalType": "address",
          "name": "issuedTo",
          "type": "address"
        },
        {
          "internalType": "uint8",
          "name": "tokenTypeId",
          "type": "uint8"
        },
        {
          "internalType": "uint256",
          "name": "quantity",
          "type": "uint256"
        },
        {
          "internalType": "uint256",
          "name": "fromDate",
          "type": "uint256"
        },
        {
          "internalType": "uint256",
          "name": "thruDate",
          "type": "uint256"
        },
        {
          "internalType": "string",
          "name": "metadata",
          "type": "string"
        },
        {
          "internalType": "string",
          "name": "manifest",
          "type": "string"
        },
        {
          "internalType": "string",
          "name": "description",
          "type": "string"
        }
      ],
      "name": "issueOnBehalf",
      "outputs": [],
      "stateMutability": "nonpayable",
      "type": "function"
    },
    {
      "inputs": [],
      "name": "limitedMode",
      "outputs": [
        {
          "internalType": "bool",
          "name": "",
          "type": "bool"
        }
      ],
      "stateMutability": "view",
      "type": "function"
    },
    {
      "inputs": [
        {
          "internalType": "address",
          "name": "to",
          "type": "address"
        },
        {
          "internalType": "uint256",
          "name": "tokenId",
          "type": "uint256"
        },
        {
          "internalType": "uint256",
          "name": "quantity",
          "type": "uint256"
        }
      ],
      "name": "mint",
      "outputs": [],
      "stateMutability": "nonpayable",
      "type": "function"
    },
    {
      "inputs": [
        {
          "internalType": "address",
          "name": "account",
          "type": "address"
        }
      ],
      "name": "registerConsumer",
      "outputs": [],
      "stateMutability": "nonpayable",
      "type": "function"
    },
    {
      "inputs": [
        {
          "internalType": "address",
          "name": "account",
          "type": "address"
        },
        {
          "internalType": "uint8",
          "name": "tokenTypeId",
          "type": "uint8"
        }
      ],
      "name": "registerDealer",
      "outputs": [],
      "stateMutability": "nonpayable",
      "type": "function"
    },
    {
      "inputs": [
        {
          "internalType": "address",
          "name": "account",
          "type": "address"
        }
      ],
      "name": "registerIndustry",
      "outputs": [],
      "stateMutability": "nonpayable",
      "type": "function"
    },
    {
      "inputs": [
        {
          "internalType": "bytes32",
          "name": "role",
          "type": "bytes32"
        },
        {
          "internalType": "address",
          "name": "account",
          "type": "address"
        }
      ],
      "name": "renounceRole",
      "outputs": [],
      "stateMutability": "nonpayable",
      "type": "function"
    },
    {
      "inputs": [
        {
          "internalType": "uint256",
          "name": "tokenId",
          "type": "uint256"
        },
        {
          "internalType": "uint256",
          "name": "amount",
          "type": "uint256"
        }
      ],
      "name": "retire",
      "outputs": [],
      "stateMutability": "nonpayable",
      "type": "function"
    },
    {
      "inputs": [
        {
          "internalType": "bytes32",
          "name": "role",
          "type": "bytes32"
        },
        {
          "internalType": "address",
          "name": "account",
          "type": "address"
        }
      ],
      "name": "revokeRole",
      "outputs": [],
      "stateMutability": "nonpayable",
      "type": "function"
    },
    {
      "inputs": [
        {
          "internalType": "address",
          "name": "from",
          "type": "address"
        },
        {
          "internalType": "address",
          "name": "to",
          "type": "address"
        },
        {
          "internalType": "uint256[]",
          "name": "ids",
          "type": "uint256[]"
        },
        {
          "internalType": "uint256[]",
          "name": "amounts",
          "type": "uint256[]"
        },
        {
          "internalType": "bytes",
          "name": "data",
          "type": "bytes"
        }
      ],
      "name": "safeBatchTransferFrom",
      "outputs": [],
      "stateMutability": "nonpayable",
      "type": "function"
    },
    {
      "inputs": [
        {
          "internalType": "address",
          "name": "from",
          "type": "address"
        },
        {
          "internalType": "address",
          "name": "to",
          "type": "address"
        },
        {
          "internalType": "uint256",
          "name": "id",
          "type": "uint256"
        },
        {
          "internalType": "uint256",
          "name": "amount",
          "type": "uint256"
        },
        {
          "internalType": "bytes",
          "name": "data",
          "type": "bytes"
        }
      ],
      "name": "safeTransferFrom",
      "outputs": [],
      "stateMutability": "nonpayable",
      "type": "function"
    },
    {
      "inputs": [
        {
          "internalType": "address",
          "name": "operator",
          "type": "address"
        },
        {
          "internalType": "bool",
          "name": "approved",
          "type": "bool"
        }
      ],
      "name": "setApprovalForAll",
      "outputs": [],
      "stateMutability": "nonpayable",
      "type": "function"
    },
    {
      "inputs": [
        {
          "internalType": "bool",
          "name": "_limitedMode",
          "type": "bool"
        }
      ],
      "name": "setLimitedMode",
      "outputs": [],
      "stateMutability": "nonpayable",
      "type": "function"
    },
    {
      "inputs": [
        {
          "internalType": "address",
          "name": "_timelock",
          "type": "address"
        }
      ],
      "name": "setTimelock",
      "outputs": [],
      "stateMutability": "nonpayable",
      "type": "function"
    },
    {
      "inputs": [
        {
          "internalType": "bytes4",
          "name": "interfaceId",
          "type": "bytes4"
        }
      ],
      "name": "supportsInterface",
      "outputs": [
        {
          "internalType": "bool",
          "name": "",
          "type": "bool"
        }
      ],
      "stateMutability": "view",
      "type": "function"
    },
    {
      "inputs": [
        {
          "internalType": "address",
          "name": "to",
          "type": "address"
        },
        {
          "internalType": "uint256",
          "name": "tokenId",
          "type": "uint256"
        },
        {
          "internalType": "uint256",
          "name": "value",
          "type": "uint256"
        }
      ],
      "name": "transfer",
      "outputs": [],
      "stateMutability": "nonpayable",
      "type": "function"
    },
    {
      "inputs": [
        {
          "internalType": "address",
          "name": "account",
          "type": "address"
        }
      ],
      "name": "unregisterConsumer",
      "outputs": [],
      "stateMutability": "nonpayable",
      "type": "function"
    },
    {
      "inputs": [
        {
          "internalType": "address",
          "name": "account",
          "type": "address"
        },
        {
          "internalType": "uint8",
          "name": "tokenTypeId",
          "type": "uint8"
        }
      ],
      "name": "unregisterDealer",
      "outputs": [],
      "stateMutability": "nonpayable",
      "type": "function"
    },
    {
      "inputs": [
        {
          "internalType": "address",
          "name": "account",
          "type": "address"
        }
      ],
      "name": "unregisterIndustry",
      "outputs": [],
      "stateMutability": "nonpayable",
      "type": "function"
    },
    {
      "inputs": [
        {
          "internalType": "uint256",
          "name": "",
          "type": "uint256"
        }
      ],
      "name": "uri",
      "outputs": [
        {
          "internalType": "string",
          "name": "",
          "type": "string"
        }
      ],
      "stateMutability": "view",
      "type": "function"
    },
    {
      "inputs": [
        {
          "internalType": "bytes32",
          "name": "msgHash",
          "type": "bytes32"
        },
        {
          "internalType": "bytes",
          "name": "signature",
          "type": "bytes"
        },
        {
          "internalType": "address",
          "name": "signer",
          "type": "address"
        }
      ],
      "name": "verifySignature",
      "outputs": [
        {
          "internalType": "bool",
          "name": "",
          "type": "bool"
        }
      ],
      "stateMutability": "pure",
      "type": "function"
    }
  ],
  "bytecode": "0x608060405234801561001057600080fd5b5061578a80620000216000396000f3fe608060405234801561001057600080fd5b50600436106103415760003560e01c806378e5c592116101b8578063c4d66de811610104578063e985e9c5116100a2578063f851a4401161007c578063f851a44014610848578063fbdf37ea14610860578063fc0bbce314610875578063fcba79481461088857610341565b8063e985e9c5146107c3578063f242432a146107ff578063f73e09e01461081257610341565b8063d75cfd58116100de578063d75cfd581461075a578063dba851b014610790578063ddc3e6eb1461079d578063e2e564f2146107b057610341565b8063c4d66de814610714578063ce6ccfaf14610727578063d547741f1461074757610341565b806392089c4611610171578063a22cb4651161014b578063a22cb465146106bb578063bdacb303146106ce578063c03df970146106e1578063c1e03728146106f457610341565b806392089c461461065c578063a0d975a7146106a0578063a217fddf146106b357610341565b806378e5c592146105d15780637aab1b88146105e65780637f157c9b146105f957806388e871b414610621578063907b66521461063457806391d148541461064957610341565b806331aa4b201161029257806349b90557116102305780635ddb368f1161020a5780635ddb368f1461058e57806369f7ef441461059657806376aed2e1146105a957806376ce4755146105bc57610341565b806349b90557146105485780634e1273f41461055b57806353dbe9821461057b57610341565b806336568abe1161026c57806336568abe146104e15780633752eb75146104f457806344b22fdd14610507578063496dd90b1461051a57610341565b806331aa4b20146104a857806331cd4199146104bb57806333781a0e146104ce57610341565b8063156e29f6116102ff578063248a9ca3116102d9578063248a9ca31461044c578063293a7f2e1461046f5780632eb2c2d6146104825780632f2ff15d1461049557610341565b8063156e29f61461040f57806318a50d7e146104225780631ef68ef71461043757610341565b8062fdd58e1461034657806301ffc9a71461036c578063033fd9191461038f578063095bcdb6146103a45780630e89341c146103b7578063127d5ad0146103d7575b600080fd5b6103596103543660046148fa565b61089d565b6040519081526020015b60405180910390f35b61037f61037a366004614af0565b610936565b6040519015158152602001610363565b6103a261039d366004614545565b610963565b005b6103a26103b2366004614923565b610a5e565b6103ca6103c5366004614a62565b610af0565b6040516103639190614e5f565b6103fd6103e5366004614a62565b600090815260cc602052604090206001015460ff1690565b60405160ff9091168152602001610363565b6103a261041d366004614923565b610b84565b6103596000805160206156d583398151915281565b61035960008051602061567583398151915281565b61035961045a366004614a62565b60009081526097602052604090206001015490565b6103a261047d366004614b40565b610c94565b6103a26104903660046146f7565b610e19565b6103a26104a3366004614a7a565b610eb0565b6103a26104b6366004614955565b610ed7565b61037f6104c9366004614a9c565b611069565b61037f6104dc366004614545565b6110ec565b6103a26104ef366004614a7a565b611106565b6103a2610502366004614591565b611184565b6103a2610515366004614545565b61122b565b61052d6105283660046148fa565b611315565b60408051938452602084019290925290820152606001610363565b61037f610556366004614545565b6113ce565b61056e61056936600461497e565b6113e8565b6040516103639190614e1e565b6103a2610589366004614545565b611549565b610359611637565b61037f6105a4366004614545565b611648565b6103ca6105b7366004614a62565b6116d1565b61035960008051602061573583398151915281565b6103596000805160206156b583398151915281565b6103596105f4366004614676565b611891565b61060c6106073660046148fa565b611906565b60408051928352602083019190915201610363565b6103a261062f3660046147fe565b6119a8565b61035960008051602061569583398151915281565b61037f610657366004614a7a565b6119cd565b61068861066a366004614a62565b600090815260cc60205260409020600201546001600160a01b031690565b6040516001600160a01b039091168152602001610363565b6103596106ae3660046148fa565b6119f8565b610359600081565b6103a26106c93660046148d1565b611a93565b6103a26106dc366004614545565b611a9e565b6103a26106ef366004614545565b611ae7565b610707610702366004614a62565b611be6565b604051610363919061521c565b6103a2610722366004614545565b611ec2565b61073a610735366004614545565b612087565b6040516103639190615321565b6103a2610755366004614a7a565b6121c8565b610359610768366004614a7a565b600091825260cd602090815260408084206001600160a01b0393909316845291905290205490565b60c95461037f9060ff1681565b6103a26107ab366004614a48565b6121ee565b6103a26107be366004614955565b612228565b61037f6107d136600461455f565b6001600160a01b03918216600090815260666020908152604080832093909416825291909152205460ff1690565b6103a261080d36600461479c565b6123b1565b610359610820366004614a7a565b600091825260ce602090815260408084206001600160a01b0393909316845291905290205490565b60c9546106889061010090046001600160a01b031681565b61035960008051602061565583398151915281565b61037f610883366004614545565b612438565b61035960008051602061571583398151915281565b60006001600160a01b03831661090e5760405162461bcd60e51b815260206004820152602b60248201527f455243313135353a2062616c616e636520717565727920666f7220746865207a60448201526a65726f206164647265737360a81b60648201526084015b60405180910390fd5b5060009081526065602090815260408083206001600160a01b03949094168352929052205490565b60006001600160e01b03198216637965db0b60e01b148061095b575061095b8261248e565b90505b919050565b336001600160a01b0382161461097b5761097b6124b3565b60c95460ff1615610a0f576109916000336119cd565b610a0f5760405162461bcd60e51b815260206004820152604360248201527f434c4d383a3a7265676973746572496e647573747279286c696d69746564293a60448201527f206f6e6c792061646d696e2063616e20726567697374657220696e647573747260648201526269657360e81b608482015260a401610905565b610a2760008051602061565583398151915282612549565b6040516001600160a01b038216907f1230fb0cdc77da02d53e840f6f60d5e7f68646d7d1ccdd890860e05533b62f5390600090a250565b610a6782612553565b610ac25760405162461bcd60e51b815260206004820152602660248201527f434c4d383a3a7472616e736665723a20746f6b656e496420646f6573206e6f7460448201526508195e1a5cdd60d21b6064820152608401610905565b610aeb33848484604051806040016040528060048152602001630307830360e41b8152506123b1565b505050565b606060678054610aff906154ca565b80601f0160208091040260200160405190810160405280929190818152602001828054610b2b906154ca565b8015610b785780601f10610b4d57610100808354040283529160200191610b78565b820191906000526020600020905b815481529060010190602001808311610b5b57829003601f168201915b50505050509050919050565b610b8f6000336119cd565b610bab5760405162461bcd60e51b815260040161090590614eba565b610bb482612553565b610c0b5760405162461bcd60e51b815260206004820152602260248201527f434c4d383a3a6d696e743a20746f6b656e496420646f6573206e6f74206578696044820152611cdd60f21b6064820152608401610905565b60c95460ff1615610c795760405162461bcd60e51b815260206004820152603260248201527f434c4d383a3a6d696e743a2063616e6e6f74206d696e74206e657720746f6b656044820152716e7320696e206c696d69746564206d6f646560701b6064820152608401610905565b610aeb8383836040518060200160405280600081525061256c565b3360008115610cc257610ca682612438565b610cc25760405162461bcd60e51b8152600401610905906150d8565b6001600160a01b03811615610cf657610cda81612438565b610cf65760405162461bcd60e51b815260040161090590614f44565b610cff84612553565b610d575760405162461bcd60e51b8152602060048201526024808201527f434c4d383a3a7265746972653a20746f6b656e496420646f6573206e6f7420656044820152631e1a5cdd60e21b6064820152608401610905565b610d61338561089d565b831115610dcd5760405162461bcd60e51b815260206004820152603460248201527f434c4d383a3a7265746972653a206e6f7420656e6f75676820617661696c61626044820152736c652062616c616e636520746f2072657469726560601b6064820152608401610905565b610dd833858561267e565b604080518581526020810185905233917f8f1b5ebb586d3d169e4ed07db9cd10ce0dd30c7b656171310eae7517c0b53cf9910160405180910390a250505050565b6001600160a01b038516331480610e355750610e3585336107d1565b610e9c5760405162461bcd60e51b815260206004820152603260248201527f455243313135353a207472616e736665722063616c6c6572206973206e6f74206044820152711bdddb995c881b9bdc88185c1c1c9bdd995960721b6064820152608401610905565b610ea9858585858561270a565b5050505050565b600082815260976020526040902060010154610ecd81335b612914565b610aeb8383612978565b610ee26000336119cd565b610efe5760405162461bcd60e51b815260040161090590614eba565b610f07816129fe565b610f6c5760405162461bcd60e51b815260206004820152603060248201527f434c4d383a3a72656769737465724465616c65723a20746f6b656e547970654960448201526f1908191bd95cc81b9bdd08195e1a5cdd60821b6064820152608401610905565b8060ff1660011415610f9557610f9060008051602061571583398151915283610eb0565b611019565b8060ff1660021415610fb957610f9060008051602061567583398151915283610eb0565b8060ff1660031415610fdd57610f9060008051602061573583398151915283610eb0565b8060ff16600414156110195761100160008051602061565583398151915283610eb0565b61101960008051602061569583398151915283610eb0565b6110316000805160206156d583398151915283610eb0565b6040516001600160a01b038316907fa8377deee15954185683d55effd369508b4935978c8cb2bab790bf04c570181490600090a25050565b6000806110c3856040517f19457468657265756d205369676e6564204d6573736167653a0a3332000000006020820152603c8101829052600090605c01604051602081830303815290604052805190602001209050919050565b90506001600160a01b0383166110d98286612a20565b6001600160a01b03161495945050505050565b600061095b6000805160206156b5833981519152836119cd565b6001600160a01b03811633146111765760405162461bcd60e51b815260206004820152602f60248201527f416363657373436f6e74726f6c3a2063616e206f6e6c792072656e6f756e636560448201526e103937b632b9903337b91039b2b63360891b6064820152608401610905565b6111808282612a3c565b5050565b60ca546001600160a01b03163314806111a357506111a36000336119cd565b61120d5760405162461bcd60e51b815260206004820152603560248201527f434c4d383a3a69737375654f6e426568616c663a2063616c6c206d757374206360448201527437b6b290333937b6902220a79037b91030b236b4b760591b6064820152608401610905565b61121f8a8a8a8a8a8a8a8a8a8a612aa3565b50505050505050505050565b6112336124b3565b60c95460ff16156112c6576112496000336119cd565b6112c65760405162461bcd60e51b815260206004820152604260248201527f434c4d383a3a7265676973746572436f6e73756d6572286c696d69746564293a60448201527f206f6e6c792061646d696e2063616e20726567697374657220636f6e73756d65606482015261727360f01b608482015260a401610905565b6112de6000805160206156b583398151915282610eb0565b6040516001600160a01b038216907f69a0adee259d26fe61f4776f7bea7f3a9737c7321256821b985f988545efd31990600090a250565b604051637f157c9b60e01b81526001600160a01b03831660048201526024810182905260009081908190819081903090637f157c9b90604401604080518083038186803b15801561136557600080fd5b505afa158015611379573d6000803e3d6000fd5b505050506040513d601f19601f8201168201806040525081019061139d9190614b61565b600097885260ce60209081526040808a206001600160a01b039b909b168a5299905297909620549597945050505050565b600061095b600080516020615735833981519152836119cd565b6060815183511461144d5760405162461bcd60e51b815260206004820152602960248201527f455243313135353a206163636f756e747320616e6420696473206c656e677468604482015268040dad2e6dac2e8c6d60bb1b6064820152608401610905565b600083516001600160401b0381111561147657634e487b7160e01b600052604160045260246000fd5b60405190808252806020026020018201604052801561149f578160200160208202803683370190505b50905060005b8451811015611541576115068582815181106114d157634e487b7160e01b600052603260045260246000fd5b60200260200101518583815181106114f957634e487b7160e01b600052603260045260246000fd5b602002602001015161089d565b82828151811061152657634e487b7160e01b600052603260045260246000fd5b602090810291909101015261153a8161552b565b90506114a5565b509392505050565b6115516124b3565b60c95460ff16156115e8576115676000336119cd565b6115e85760405162461bcd60e51b815260206004820152604660248201527f434c4d383a3a756e7265676973746572436f6e73756d6572286c696d6974656460448201527f293a206f6e6c792061646d696e2063616e20756e726567697374657220636f6e60648201526573756d65727360d01b608482015260a401610905565b6116006000805160206156b5833981519152826121c8565b6040516001600160a01b038216907f03a38088da75ee2d80f6c753f55f8fd17602ae17d8bd0ef44d5e1f28ab5af11f90600090a250565b600061164260cb5490565b90505b90565b6000611662600080516020615715833981519152836119cd565b806116805750611680600080516020615675833981519152836119cd565b8061169e575061169e600080516020615735833981519152836119cd565b806116bc57506116bc600080516020615695833981519152836119cd565b156116c95750600161095e565b506000919050565b60606116dc82612553565b61173b5760405162461bcd60e51b815260206004820152602a60248201527f434c4d383a3a676574546f6b656e547970653a20746f6b656e496420646f6573604482015269081b9bdd08195e1a5cdd60b21b6064820152608401610905565b600082815260cc6020526040902060018082015460ff16141561179357505060408051808201909152601c81527f52656e657761626c6520456e6572677920436572746966696361746500000000602082015261095e565b600181015460ff16600214156117de57505060408051808201909152601781527f436172626f6e20456d697373696f6e73204f6666736574000000000000000000602082015261095e565b600181015460ff166003141561181d5750506040805180820190915260118152704175646974656420456d697373696f6e7360781b602082015261095e565b600181015460ff166004141561185957505060408051808201909152600e81526d21b0b93137b7102a3930b1b5b2b960911b602082015261095e565b5050604080518082019091526014815273151bdad95b88191bd95cc81b9bdd08195e1a5cdd60621b602082015261095e565b50919050565b6001600160a01b03808516600090815260cf6020908152604080832093871683529290529081205485908590859085906118d29063ffffffff16600161543c565b6040516020016118e6959493929190614cad565b604051602081830303815290604052805190602001209050949350505050565b6000806000611915858561089d565b60405163a0d975a760e01b81526001600160a01b038716600482015260248101869052909150600090309063a0d975a79060440160206040518083038186803b15801561196157600080fd5b505afa158015611975573d6000803e3d6000fd5b505050506040513d601f19601f820116820180604052508101906119999190614b28565b919350909150505b9250929050565b6119b06124b3565b6119c2338a8a8a8a8a8a8a8a8a612aa3565b505050505050505050565b60009182526097602090815260408084206001600160a01b0393909316845291905290205460ff1690565b6000611a0382612553565b611a6b5760405162461bcd60e51b815260206004820152603360248201527f434c4d383a3a676574546f6b656e52657469726564416d6f756e743a20746f6b604482015272195b925908191bd95cc81b9bdd08195e1a5cdd606a1b6064820152608401610905565b50600090815260cd602090815260408083206001600160a01b03949094168352929052205490565b6111803383836131fe565b611aa96000336119cd565b611ac55760405162461bcd60e51b815260040161090590614eba565b60ca80546001600160a01b0319166001600160a01b0392909216919091179055565b336001600160a01b03821614611aff57611aff6124b3565b60c95460ff1615611b9757611b156000336119cd565b611b975760405162461bcd60e51b815260206004820152604760248201527f434c4d383a3a756e7265676973746572496e647573747279286c696d6974656460448201527f293a206f6e6c792061646d696e2063616e20756e726567697374657220696e646064820152667573747269657360c81b608482015260a401610905565b611baf600080516020615655833981519152826121c8565b6040516001600160a01b038216907fe2fd90a75c6850a2aeaad25eb28a5176ac5166c6e3e6dfe0284e34a628e90ef290600090a250565b611c6f604051806101a0016040528060008152602001600060ff16815260200160006001600160a01b0316815260200160006001600160a01b0316815260200160006001600160a01b0316815260200160008152602001600081526020016000815260200160608152602001606081526020016060815260200160008152602001600081525090565b600082815260cc602090815260409182902082516101a08101845281548152600182015460ff8116938201939093526001600160a01b036101009384900481169482019490945260028201548416606082015260038201549093166080840152600481015460a0840152600581015460c0840152600681015460e08401526007810180549192840191611d01906154ca565b80601f0160208091040260200160405190810160405280929190818152602001828054611d2d906154ca565b8015611d7a5780601f10611d4f57610100808354040283529160200191611d7a565b820191906000526020600020905b815481529060010190602001808311611d5d57829003601f168201915b50505050508152602001600882018054611d93906154ca565b80601f0160208091040260200160405190810160405280929190818152602001828054611dbf906154ca565b8015611e0c5780601f10611de157610100808354040283529160200191611e0c565b820191906000526020600020905b815481529060010190602001808311611def57829003601f168201915b50505050508152602001600982018054611e25906154ca565b80601f0160208091040260200160405190810160405280929190818152602001828054611e51906154ca565b8015611e9e5780601f10611e7357610100808354040283529160200191611e9e565b820191906000526020600020905b815481529060010190602001808311611e8157829003601f168201915b50505050508152602001600a8201548152602001600b820154815250509050919050565b600054610100900460ff16611edd5760005460ff1615611ee1565b303b155b611f445760405162461bcd60e51b815260206004820152602e60248201527f496e697469616c697a61626c653a20636f6e747261637420697320616c72656160448201526d191e481a5b9a5d1a585b1a5e995960921b6064820152608401610905565b600054610100900460ff16158015611f66576000805461ffff19166101011790555b611f7e604051806020016040528060008152506132df565b611fa46000805160206156b58339815191526000805160206156d5833981519152613312565b611faf600083612549565b611fc76000805160206156d583398151915283612549565b611fdf60008051602061571583398151915283612549565b611ff760008051602061567583398151915283612549565b61200f60008051602061573583398151915283612549565b61202760008051602061569583398151915283612549565b61203f60008051602061565583398151915283612549565b60c9805460ca80546001600160a01b03191690556001600160a81b0319166101006001600160a01b0385160260ff19161790558015611180576000805461ff00191690555050565b6040805160e081018252600080825260208201819052918101829052606081018290526080810182905260a0810182905260c08101919091526040805160e081018252600080825260208201819052918101829052606081018290526080810182905260a0810182905260c08101919091526121046000846119cd565b15158152612120600080516020615715833981519152846119cd565b1515604082015261213f600080516020615675833981519152846119cd565b1515606082015261215e600080516020615735833981519152846119cd565b1515608082015261217d600080516020615655833981519152846119cd565b151560a082015261219c6000805160206156b5833981519152846119cd565b151560208201526121bb600080516020615695833981519152846119cd565b151560c082015292915050565b6000828152609760205260409020600101546121e48133610ec8565b610aeb8383612a3c565b6121f96000336119cd565b6122155760405162461bcd60e51b815260040161090590614eba565b60c9805460ff1916911515919091179055565b6122336000336119cd565b61224f5760405162461bcd60e51b815260040161090590614eba565b612258816129fe565b6122bf5760405162461bcd60e51b815260206004820152603260248201527f434c4d383a3a756e72656769737465724465616c65723a20746f6b656e54797060448201527119525908191bd95cc81b9bdd08195e1a5cdd60721b6064820152608401610905565b8060ff16600114156122e8576122e3600080516020615715833981519152836121c8565b612354565b8060ff166002141561230c576122e3600080516020615675833981519152836121c8565b8060ff1660031415612330576122e3600080516020615735833981519152836121c8565b8060ff166004141561235457612354600080516020615695833981519152836121c8565b61235d82611648565b612379576123796000805160206156d5833981519152836121c8565b6040516001600160a01b038316907f98552ded770f1d05a505572f3387c108dbc6b566ea3d49f83cff3d1f1c72a04290600090a25050565b6001600160a01b0385163314806123cd57506123cd85336107d1565b61242b5760405162461bcd60e51b815260206004820152602960248201527f455243313135353a2063616c6c6572206973206e6f74206f776e6572206e6f7260448201526808185c1c1c9bdd995960ba1b6064820152608401610905565b610ea9858585858561335d565b60006124526000805160206156d5833981519152836119cd565b8061247057506124706000805160206156b5833981519152836119cd565b806116bc57506116bc600080516020615655833981519152836119cd565b60006001600160e01b03198216637965db0b60e01b148061095b575061095b8261347e565b6124cb6000805160206156d5833981519152336119cd565b806124e957506124e9600080516020615655833981519152336119cd565b6125475760405162461bcd60e51b815260206004820152602960248201527f434c4d383a3a6f6e6c794465616c65723a206d73672e73656e646572206e6f746044820152681030903232b0b632b960b91b6064820152608401610905565b565b6111808282612978565b60008161255f60cb5490565b106116c95750600161095e565b6001600160a01b0384166125cc5760405162461bcd60e51b815260206004820152602160248201527f455243313135353a206d696e7420746f20746865207a65726f206164647265736044820152607360f81b6064820152608401610905565b336125ec816000876125dd886134ce565b6125e6886134ce565b87613527565b60008481526065602090815260408083206001600160a01b03891684529091528120805485929061261e908490615424565b909155505060408051858152602081018590526001600160a01b0380881692600092918516917fc3d58168c5ae7397731d063d5bbf3d657854427343f4c083240f7aacaa2d0f62910160405180910390a4610ea981600087878787613a17565b612689838383613b82565b600082815260cc60205260409020600b01546126a59082613cff565b600083815260cc60209081526040808320600b019390935560cd81528282206001600160a01b0387168352905220546126de9082613cff565b600092835260cd602090815260408085206001600160a01b039096168552949052929091209190915550565b815183511461276c5760405162461bcd60e51b815260206004820152602860248201527f455243313135353a2069647320616e6420616d6f756e7473206c656e677468206044820152670dad2e6dac2e8c6d60c31b6064820152608401610905565b6001600160a01b0384166127925760405162461bcd60e51b81526004016109059061500d565b336127a1818787878787613527565b60005b84518110156128a65760008582815181106127cf57634e487b7160e01b600052603260045260246000fd5b6020026020010151905060008583815181106127fb57634e487b7160e01b600052603260045260246000fd5b60209081029190910181015160008481526065835260408082206001600160a01b038e16835290935291909120549091508181101561284c5760405162461bcd60e51b815260040161090590615052565b60008381526065602090815260408083206001600160a01b038e8116855292528083208585039055908b1682528120805484929061288b908490615424565b925050819055505050508061289f9061552b565b90506127a4565b50846001600160a01b0316866001600160a01b0316826001600160a01b03167f4a39dc06d4c0dbc64b70af90fd698a233a518aa5d07e595d983b8c0526c8f7fb87876040516128f6929190614e31565b60405180910390a461290c818787878787613d12565b505050505050565b61291e82826119cd565b61118057612936816001600160a01b03166014613ddc565b612941836020613ddc565b604051602001612952929190614d06565b60408051601f198184030181529082905262461bcd60e51b825261090591600401614e5f565b61298282826119cd565b6111805760008281526097602090815260408083206001600160a01b03851684529091529020805460ff191660011790556129ba3390565b6001600160a01b0316816001600160a01b0316837f2f8788117e7eff1d82e926ec794901d17c78024a50270940304540a733656f0d60405160405180910390a45050565b6000808260ff161180156116bc575060048260ff16116116c95750600161095e565b6000806000612a2f8585613fbd565b915091506115418161402a565b612a4682826119cd565b156111805760008281526097602090815260408083206001600160a01b0385168085529252808320805460ff1916905551339285917ff6391f5c32d9c69d2a47ea670b442974b53935d1edc7fd64eb21e047a839171b9190a45050565b612aac876129fe565b612b045760405162461bcd60e51b8152602060048201526024808201527f434c4d383a3a5f69737375653a20746f6b656e54797065496420697320696e76604482015263185b1a5960e21b6064820152608401610905565b60c95460ff1615612d23578660ff1660011480612b2457508660ff166002145b15612caa5760ca546001600160a01b03163314612b9a5760405162461bcd60e51b815260206004820152602e60248201527f434c4d383a3a5f6973737565286c696d69746564293a206d73672e73656e646560448201526d72206e6f742074696d656c6f636b60901b6064820152608401610905565b612ba56000896119cd565b612c015760405162461bcd60e51b815260206004820152602760248201527f434c4d383a3a5f6973737565286c696d69746564293a20697373756565206e6f6044820152663a1030b236b4b760c91b6064820152608401610905565b612c196000805160206157158339815191528a6119cd565b80612c375750612c376000805160206156758339815191528a6119cd565b612c535760405162461bcd60e51b815260040161090590614fb0565b612c6b6000805160206157158339815191528b6119cd565b80612c895750612c896000805160206156758339815191528b6119cd565b612ca55760405162461bcd60e51b815260040161090590614fb0565b612d1e565b8660ff1660031415612d1e57612cce6000805160206157358339815191528a6119cd565b612cea5760405162461bcd60e51b815260040161090590615180565b612d026000805160206157358339815191528b6119cd565b612d1e5760405162461bcd60e51b815260040161090590615180565b612e8f565b8660ff1660011415612d9757612d476000805160206157158339815191528a6119cd565b612d635760405162461bcd60e51b8152600401610905906151de565b612d7b6000805160206157158339815191528b6119cd565b612d1e5760405162461bcd60e51b8152600401610905906151de565b8660ff1660021415612e0b57612dbb6000805160206156758339815191528a6119cd565b612dd75760405162461bcd60e51b815260040161090590614f03565b612def6000805160206156758339815191528b6119cd565b612d1e5760405162461bcd60e51b815260040161090590614f03565b8660ff1660031415612e8f57612e2f6000805160206157358339815191528b6119cd565b612e8f5760405162461bcd60e51b815260206004820152603760248201526000805160206156f583398151915260448201527f746572656420656d697373696f6e732061756469746f720000000000000000006064820152608401610905565b8660ff1660041415612f8b57612eb36000805160206156558339815191528a6119cd565b612ecf5760405162461bcd60e51b81526004016109059061509c565b612ee76000805160206156558339815191528b6119cd565b612f035760405162461bcd60e51b81526004016109059061509c565b336001600160a01b038b1614612f8b5760405162461bcd60e51b815260206004820152604160248201527f434c4d383a3a5f69737375653a207265676973746572656420696e647573747260448201527f792063616e206f6e6c7920697373756520636172626f6e20746f20697473656c6064820152603360f91b608482015260a401610905565b612f9960cb80546001019055565b600060cc6000612fa860cb5490565b81526020019081526020016000209050612fc160cb5490565b81556001810180546001600160a01b03808e16610100026001600160a81b031990921660ff8c1617919091179091556002820180548c83166001600160a01b031991821617909155600383018054928c1692909116919091179055600481018690556005810185905542600682015583516130459060078301906020870190614392565b50825161305b9060088301906020860190614392565b5081516130719060098301906020850190614392565b50600a81018790556000600b8201556130a38961308d60cb5490565b896040518060200160405280600081525061256c565b8760ff16600314156130ca57600381015481546130ca916001600160a01b0316908961267e565b8060030160009054906101000a90046001600160a01b03166001600160a01b03168160020160009054906101000a90046001600160a01b03166001600160a01b03168260010160019054906101000a90046001600160a01b03166001600160a01b03167fb8ad5d21459c6ed7d4702603e83b1d759ee9d681fe8f39ef2a1e9d9ba23771df8a60cd60008760000154815260200190815260200160002060008760030160009054906101000a90046001600160a01b03166001600160a01b03166001600160a01b031681526020019081526020016000205486600001548760010160009054906101000a900460ff16886004015489600501548a600601548b6007018c6008018d6009016040516131e99a99989796959493929190615385565b60405180910390a45050505050505050505050565b816001600160a01b0316836001600160a01b031614156132725760405162461bcd60e51b815260206004820152602960248201527f455243313135353a2073657474696e6720617070726f76616c20737461747573604482015268103337b91039b2b63360b91b6064820152608401610905565b6001600160a01b03838116600081815260666020908152604080832094871680845294825291829020805460ff191686151590811790915591519182527f17307eab39ab6107e8899845ad3d59bd9653f200f220920489ca2b5937696c31910160405180910390a3505050565b600054610100900460ff166133065760405162461bcd60e51b815260040161090590615135565b61330f8161422d565b50565b600082815260976020526040808220600101805490849055905190918391839186917fbd79b86ffe0ab8e8776151514217cd7cacd52c909f66475c3af44e129f0b00ff9190a4505050565b6001600160a01b0384166133835760405162461bcd60e51b81526004016109059061500d565b336133938187876125dd886134ce565b60008481526065602090815260408083206001600160a01b038a168452909152902054838110156133d65760405162461bcd60e51b815260040161090590615052565b60008581526065602090815260408083206001600160a01b038b8116855292528083208785039055908816825281208054869290613415908490615424565b909155505060408051868152602081018690526001600160a01b03808916928a821692918616917fc3d58168c5ae7397731d063d5bbf3d657854427343f4c083240f7aacaa2d0f62910160405180910390a4613475828888888888613a17565b50505050505050565b60006001600160e01b03198216636cdb3d1360e11b14806134af57506001600160e01b031982166303a24d0760e21b145b8061095b57506301ffc9a760e01b6001600160e01b031983161461095b565b6040805160018082528183019092526060916000919060208083019080368337019050509050828160008151811061351657634e487b7160e01b600052603260045260246000fd5b602090810291909101015292915050565b84846001600160a01b0382161561355d5761354182612438565b61355d5760405162461bcd60e51b8152600401610905906150d8565b6001600160a01b038116156135915761357581612438565b6135915760405162461bcd60e51b815260040161090590614f44565b856001600160a01b0316876001600160a01b031614156136245760405162461bcd60e51b815260206004820152604260248201527f434c4d383a3a5f6265666f7265546f6b656e5472616e736665723a2073656e6460448201527f657220616e642072656365697665722063616e6e6f74206265207468652073616064820152616d6560f01b608482015260a401610905565b6000805b865181101561391057600060cc600089848151811061365757634e487b7160e01b600052603260045260246000fd5b60200260200101518152602001908152602001600020905060c960009054906101000a900460ff1615613826576001600160a01b03891661369857506138fe565b60018082015460ff1614806136b45750600181015460ff166002145b156137665760ca546001600160a01b038c8116911614806136db57506136db60008c6119cd565b6137615760405162461bcd60e51b815260206004820152604b60248201527f434c4d383a3a5f6265666f7265546f6b656e5472616e73666572286c696d697460448201527f6564293a206f6e6c792061646d696e20616e642044414f2063616e207472616e60648201526a7366657220746f6b656e7360a81b608482015260a401610905565b613826565b600181015460ff16600314156138265761378e6000805160206157358339815191528c6119cd565b6138265760405162461bcd60e51b815260206004820152605860248201527f434c4d383a3a5f6265666f7265546f6b656e5472616e73666572286c696d697460448201527f6564293a206f6e6c7920656d697373696f6e732061756469746f72732063616e60648201527f206973737565206175646974656420656d697373696f6e730000000000000000608482015260a401610905565b600181015460ff16600414801561384557506001600160a01b03891615155b801561385957506001600160a01b038a1615155b156138fc57600092506138d687838151811061388557634e487b7160e01b600052603260045260246000fd5b602002602001015160ce60008460000154815260200190815260200160002060008d6001600160a01b03166001600160a01b0316815260200190815260200160002054613cff90919063ffffffff16565b8154600090815260ce602090815260408083206001600160a01b038f1684529091529020555b505b806139088161552b565b915050613628565b5080156119c257600061392589898989611891565b905061393281868a611069565b6139b35760405162461bcd60e51b815260206004820152604660248201527f434c4d383a3a5f6265666f7265546f6b656e5472616e736665723a207265636560448201527f69766572277320617070726f76616c207369676e6174757265206973206e6f74606482015265081d985b1a5960d21b608482015260a401610905565b6001600160a01b03808a16600090815260cf60209081526040808320938c168352929052908120805463ffffffff16916139ec83615546565b91906101000a81548163ffffffff021916908363ffffffff1602179055505050505050505050505050565b6001600160a01b0384163b1561290c5760405163f23a6e6160e01b81526001600160a01b0385169063f23a6e6190613a5b9089908990889088908890600401614dd9565b602060405180830381600087803b158015613a7557600080fd5b505af1925050508015613aa5575060408051601f3d908101601f19168201909252613aa291810190614b0c565b60015b613b5257613ab1615596565b806308c379a01415613aeb5750613ac66155ad565b80613ad15750613aed565b8060405162461bcd60e51b81526004016109059190614e5f565b505b60405162461bcd60e51b815260206004820152603460248201527f455243313135353a207472616e7366657220746f206e6f6e20455243313135356044820152732932b1b2b4bb32b91034b6b83632b6b2b73a32b960611b6064820152608401610905565b6001600160e01b0319811663f23a6e6160e01b146134755760405162461bcd60e51b815260040161090590614e72565b6001600160a01b038316613be45760405162461bcd60e51b815260206004820152602360248201527f455243313135353a206275726e2066726f6d20746865207a65726f206164647260448201526265737360e81b6064820152608401610905565b33613c1381856000613bf5876134ce565b613bfe876134ce565b60405180602001604052806000815250613527565b60008381526065602090815260408083206001600160a01b038816845290915290205482811015613c925760405162461bcd60e51b8152602060048201526024808201527f455243313135353a206275726e20616d6f756e7420657863656564732062616c604482015263616e636560e01b6064820152608401610905565b60008481526065602090815260408083206001600160a01b03898116808652918452828520888703905582518981529384018890529092908616917fc3d58168c5ae7397731d063d5bbf3d657854427343f4c083240f7aacaa2d0f62910160405180910390a45050505050565b6000613d0b8284615424565b9392505050565b6001600160a01b0384163b1561290c5760405163bc197c8160e01b81526001600160a01b0385169063bc197c8190613d569089908990889088908890600401614d7b565b602060405180830381600087803b158015613d7057600080fd5b505af1925050508015613da0575060408051601f3d908101601f19168201909252613d9d91810190614b0c565b60015b613dac57613ab1615596565b6001600160e01b0319811663bc197c8160e01b146134755760405162461bcd60e51b815260040161090590614e72565b60606000613deb836002615464565b613df6906002615424565b6001600160401b03811115613e1b57634e487b7160e01b600052604160045260246000fd5b6040519080825280601f01601f191660200182016040528015613e45576020820181803683370190505b509050600360fc1b81600081518110613e6e57634e487b7160e01b600052603260045260246000fd5b60200101906001600160f81b031916908160001a905350600f60fb1b81600181518110613eab57634e487b7160e01b600052603260045260246000fd5b60200101906001600160f81b031916908160001a9053506000613ecf846002615464565b613eda906001615424565b90505b6001811115613f6e576f181899199a1a9b1b9c1cb0b131b232b360811b85600f1660108110613f1c57634e487b7160e01b600052603260045260246000fd5b1a60f81b828281518110613f4057634e487b7160e01b600052603260045260246000fd5b60200101906001600160f81b031916908160001a90535060049490941c93613f67816154b3565b9050613edd565b508315613d0b5760405162461bcd60e51b815260206004820181905260248201527f537472696e67733a20686578206c656e67746820696e73756666696369656e746044820152606401610905565b600080825160411415613ff45760208301516040840151606085015160001a613fe88782858561425d565b945094505050506119a1565b82516040141561401e576020830151604084015161401386838361434a565b9350935050506119a1565b506000905060026119a1565b600081600481111561404c57634e487b7160e01b600052602160045260246000fd5b14156140575761330f565b600181600481111561407957634e487b7160e01b600052602160045260246000fd5b14156140c75760405162461bcd60e51b815260206004820152601860248201527f45434453413a20696e76616c6964207369676e617475726500000000000000006044820152606401610905565b60028160048111156140e957634e487b7160e01b600052602160045260246000fd5b14156141375760405162461bcd60e51b815260206004820152601f60248201527f45434453413a20696e76616c6964207369676e6174757265206c656e677468006044820152606401610905565b600381600481111561415957634e487b7160e01b600052602160045260246000fd5b14156141b25760405162461bcd60e51b815260206004820152602260248201527f45434453413a20696e76616c6964207369676e6174757265202773272076616c604482015261756560f01b6064820152608401610905565b60048160048111156141d457634e487b7160e01b600052602160045260246000fd5b141561330f5760405162461bcd60e51b815260206004820152602260248201527f45434453413a20696e76616c6964207369676e6174757265202776272076616c604482015261756560f01b6064820152608401610905565b600054610100900460ff166142545760405162461bcd60e51b815260040161090590615135565b61330f81614383565b6000807f7fffffffffffffffffffffffffffffff5d576e7357a4501ddfe92f46681b20a08311156142945750600090506003614341565b8460ff16601b141580156142ac57508460ff16601c14155b156142bd5750600090506004614341565b6040805160008082526020820180845289905260ff881692820192909252606081018690526080810185905260019060a0016020604051602081039080840390855afa158015614311573d6000803e3d6000fd5b5050604051601f1901519150506001600160a01b03811661433a57600060019250925050614341565b9150600090505b94509492505050565b6000806001600160ff1b0383168161436760ff86901c601b615424565b90506143758782888561425d565b935093505050935093915050565b80516111809060679060208401905b82805461439e906154ca565b90600052602060002090601f0160209004810192826143c05760008555614406565b82601f106143d957805160ff1916838001178555614406565b82800160010185558215614406579182015b828111156144065782518255916020019190600101906143eb565b50614412929150614416565b5090565b5b808211156144125760008155600101614417565b80356001600160a01b038116811461095e57600080fd5b600082601f830112614452578081fd5b8135602061445f82615401565b60405161446c82826154ff565b8381528281019150858301600585901b8701840188101561448b578586fd5b855b858110156144a95781358452928401929084019060010161448d565b5090979650505050505050565b8035801515811461095e57600080fd5b600082601f8301126144d6578081fd5b81356001600160401b038111156144ef576144ef615580565b604051614506601f8301601f1916602001826154ff565b81815284602083860101111561451a578283fd5b816020850160208301379081016020019190915292915050565b803560ff8116811461095e57600080fd5b600060208284031215614556578081fd5b613d0b8261442b565b60008060408385031215614571578081fd5b61457a8361442b565b91506145886020840161442b565b90509250929050565b6000806000806000806000806000806101408b8d0312156145b0578586fd5b6145b98b61442b565b99506145c760208c0161442b565b98506145d560408c0161442b565b97506145e360608c01614534565b965060808b0135955060a08b0135945060c08b0135935060e08b01356001600160401b0380821115614613578485fd5b61461f8e838f016144c6565b94506101008d0135915080821115614635578384fd5b6146418e838f016144c6565b93506101208d0135915080821115614657578283fd5b506146648d828e016144c6565b9150509295989b9194979a5092959850565b6000806000806080858703121561468b578384fd5b6146948561442b565b93506146a26020860161442b565b925060408501356001600160401b03808211156146bd578384fd5b6146c988838901614442565b935060608701359150808211156146de578283fd5b506146eb87828801614442565b91505092959194509250565b600080600080600060a0868803121561470e578081fd5b6147178661442b565b94506147256020870161442b565b935060408601356001600160401b0380821115614740578283fd5b61474c89838a01614442565b94506060880135915080821115614761578283fd5b61476d89838a01614442565b93506080880135915080821115614782578283fd5b5061478f888289016144c6565b9150509295509295909350565b600080600080600060a086880312156147b3578283fd5b6147bc8661442b565b94506147ca6020870161442b565b9350604086013592506060860135915060808601356001600160401b038111156147f2578182fd5b61478f888289016144c6565b60008060008060008060008060006101208a8c03121561481c578283fd5b6148258a61442b565b985061483360208b0161442b565b975061484160408b01614534565b965060608a0135955060808a0135945060a08a0135935060c08a01356001600160401b0380821115614871578485fd5b61487d8d838e016144c6565b945060e08c0135915080821115614892578384fd5b61489e8d838e016144c6565b93506101008c01359150808211156148b4578283fd5b506148c18c828d016144c6565b9150509295985092959850929598565b600080604083850312156148e3578182fd5b6148ec8361442b565b9150614588602084016144b6565b6000806040838503121561490c578182fd5b6149158361442b565b946020939093013593505050565b600080600060608486031215614937578081fd5b6149408461442b565b95602085013595506040909401359392505050565b60008060408385031215614967578182fd5b6149708361442b565b915061458860208401614534565b60008060408385031215614990578182fd5b82356001600160401b03808211156149a6578384fd5b818501915085601f8301126149b9578384fd5b813560206149c682615401565b6040516149d382826154ff565b8381528281019150858301600585901b870184018b10156149f2578889fd5b8896505b84871015614a1b57614a078161442b565b8352600196909601959183019183016149f6565b5096505086013592505080821115614a31578283fd5b50614a3e85828601614442565b9150509250929050565b600060208284031215614a59578081fd5b613d0b826144b6565b600060208284031215614a73578081fd5b5035919050565b60008060408385031215614a8c578182fd5b823591506145886020840161442b565b600080600060608486031215614ab0578081fd5b8335925060208401356001600160401b03811115614acc578182fd5b614ad8868287016144c6565b925050614ae76040850161442b565b90509250925092565b600060208284031215614b01578081fd5b8135613d0b8161563e565b600060208284031215614b1d578081fd5b8151613d0b8161563e565b600060208284031215614b39578081fd5b5051919050565b60008060408385031215614b52578182fd5b50508035926020909101359150565b60008060408385031215614b73578182fd5b505080516020909101519092909150565b6000815180845260208085019450808401835b83811015614bb357815187529582019590820190600101614b97565b509495945050505050565b80516000906020808401838315614bb357815187529582019590820190600101614b97565b60008151808452614bfb816020860160208601615483565b601f01601f19169290920160200192915050565b8054600090600181811c9080831680614c2957607f831692505b6020808410821415614c4957634e487b7160e01b86526022600452602486fd5b83885260208801828015614c645760018114614c7557614ca0565b60ff19871682528282019750614ca0565b60008981526020902060005b87811015614c9a57815484820152908601908401614c81565b83019850505b5050505050505092915050565b60006bffffffffffffffffffffffff19808860601b168352808760601b16601484015250614ce7614ce16028840187614bbe565b85614bbe565b60e09390931b6001600160e01b03191683525050600401949350505050565b60007f416363657373436f6e74726f6c3a206163636f756e742000000000000000000082528351614d3e816017850160208801615483565b7001034b99036b4b9b9b4b733903937b6329607d1b6017918401918201528351614d6f816028840160208801615483565b01602801949350505050565b6001600160a01b0386811682528516602082015260a060408201819052600090614da790830186614b84565b8281036060840152614db98186614b84565b90508281036080840152614dcd8185614be3565b98975050505050505050565b6001600160a01b03868116825285166020820152604081018490526060810183905260a060808201819052600090614e1390830184614be3565b979650505050505050565b600060208252613d0b6020830184614b84565b600060408252614e446040830185614b84565b8281036020840152614e568185614b84565b95945050505050565b600060208252613d0b6020830184614be3565b60208082526028908201527f455243313135353a204552433131353552656365697665722072656a656374656040820152676420746f6b656e7360c01b606082015260800190565b60208082526029908201527f434c4d383a3a6f6e6c7941646d696e3a206d73672e73656e646572206e6f74206040820152683a34329030b236b4b760b91b606082015260800190565b60208082526033908201526000805160206156f58339815191526040820152723a32b932b21037b33339b2ba103232b0b632b960691b606082015260800190565b60208082526046908201527f434c4d383a3a636f6e73756d65724f724465616c65723a20726563697069656e60408201527f74206d75737420626520636f6e73756d65722c206465616c6572206f7220696e60608201526564757374727960d01b608082015260a00190565b60208082526037908201527f434c4d383a3a5f6973737565286c696d69746564293a2070726f706f7365722060408201527f6e6f7420612072656769737465726564206465616c6572000000000000000000606082015260800190565b60208082526025908201527f455243313135353a207472616e7366657220746f20746865207a65726f206164604082015264647265737360d81b606082015260800190565b6020808252602a908201527f455243313135353a20696e73756666696369656e742062616c616e636520666f60408201526939103a3930b739b332b960b11b606082015260800190565b6020808252602e908201526000805160206156f583398151915260408201526d746572656420696e64757374727960901b606082015260800190565b60208082526039908201527f434c4d383a3a636f6e73756d65724f724465616c65723a2073656e646572206e60408201527f6f74206120636f6e73756d6572206f722061206465616c657200000000000000606082015260800190565b6020808252602b908201527f496e697469616c697a61626c653a20636f6e7472616374206973206e6f74206960408201526a6e697469616c697a696e6760a81b606082015260800190565b602080825260409082018190527f434c4d383a3a5f6973737565286c696d69746564293a20697373756572206e6f908201527f742061207265676973746572656420656d697373696f6e732061756469746f72606082015260800190565b60208082526030908201526000805160206156f583398151915260408201526f3a32b932b2102922a1903232b0b632b960811b606082015260800190565b60006020825282516020830152602083015161523d604084018260ff169052565b5060408301516001600160a01b03811660608401525060608301516001600160a01b03811660808401525060808301516001600160a01b03811660a08401525060a083015160c083015260c083015160e083015260e08301516101008181850152808501519150506101a061012081818601526152be6101c0860184614be3565b9250808601519050601f196101408187860301818801526152df8584614be3565b9450808801519250506101608187860301818801526152fe8584614be3565b908801516101808881019190915290970151929095019190915250929392505050565b600060e08201905082511515825260208301511515602083015260408301511515604083015260608301511515606083015260808301511515608083015260a0830151151560a083015260c083015161537e60c084018215159052565b5092915050565b60006101408c83528b60208401528a604084015260ff8a1660608401528860808401528760a08401528660c08401528060e08401526153c681840187614c0f565b90508281036101008401526153db8186614c0f565b90508281036101208401526153f08185614c0f565b9d9c50505050505050505050505050565b60006001600160401b0382111561541a5761541a615580565b5060051b60200190565b600082198211156154375761543761556a565b500190565b600063ffffffff80831681851680830382111561545b5761545b61556a565b01949350505050565b600081600019048311821515161561547e5761547e61556a565b500290565b60005b8381101561549e578181015183820152602001615486565b838111156154ad576000848401525b50505050565b6000816154c2576154c261556a565b506000190190565b600181811c908216806154de57607f821691505b6020821081141561188b57634e487b7160e01b600052602260045260246000fd5b601f8201601f191681016001600160401b038111828210171561552457615524615580565b6040525050565b600060001982141561553f5761553f61556a565b5060010190565b600063ffffffff808316818114156155605761556061556a565b6001019392505050565b634e487b7160e01b600052601160045260246000fd5b634e487b7160e01b600052604160045260246000fd5b600060033d111561164557600481823e5160e01c90565b600060443d10156155bd57611645565b6040516003193d81016004833e81513d6001600160401b0381602484011181841117156155ee575050505050611645565b828501915081518181111561560857505050505050611645565b843d870101602082850101111561562457505050505050611645565b615633602082860101876154ff565b509094505050505090565b6001600160e01b03198116811461330f57600080fdfe8305613dd3dbc3e0773e56336f52890c75fc1219c6ed3f363339b8ada04df289ede6574deba8f02ada7888448a497b08844d62e044ed533343a673be3ffcde5ff047c8eb56a4fb9b90290fc55ce546369985412ba2348c56342b7afbf87ec1a65e1aa547d3dade8c68b013a47ad41c2bcc9b9e4b0765b0fb616780e15786e76af8890eedd7900ad88da6192fd03dbb69dbeee963b1a0ed738abe49ab3331aaf3434c4d383a3a5f69737375653a20697373756572206e6f7420612072656769732ab9f1da92e74aaa01eb75a871557505b11dd8d36832a34bb21bbee88b08d860e97dad3dbe5042e7384b1572cf966a15e089576a62b5126c5ef1d184ab18b12ca2646970667358221220dd0ace0ebd8cdf7bbf02f5bab8b4975fe79f77f09751f459779fb1c468d00ce564736f6c63430008030033",
  "linkReferences": {},
  "deployedLinkReferences": {}
}