{
  "_format": "hh-sol-artifact-1",
  "contractName": "NetEmissionsTokenNetwork",
  "sourceName": "contracts/NetEmissionsTokenNetwork.sol",
  "abi": [
    {
      "anonymous": false,
      "inputs": [
        {
          "indexed": true,
          "internalType": "address",
          "name": "account",
          "type": "address"
        },
        {
          "indexed": true,
          "internalType": "address",
          "name": "operator",
          "type": "address"
        },
        {
          "indexed": false,
          "internalType": "bool",
          "name": "approved",
          "type": "bool"
        }
      ],
      "name": "ApprovalForAll",
      "type": "event"
    },
    {
      "anonymous": false,
      "inputs": [
        {
          "indexed": true,
          "internalType": "address",
          "name": "account",
          "type": "address"
        }
      ],
      "name": "RegisteredConsumer",
      "type": "event"
    },
    {
      "anonymous": false,
      "inputs": [
        {
          "indexed": true,
          "internalType": "address",
          "name": "account",
          "type": "address"
        }
      ],
      "name": "RegisteredDealer",
      "type": "event"
    },
    {
      "anonymous": false,
      "inputs": [
        {
          "indexed": true,
          "internalType": "address",
          "name": "account",
          "type": "address"
        }
      ],
      "name": "RegisteredIndustry",
      "type": "event"
    },
    {
      "anonymous": false,
      "inputs": [
        {
          "indexed": true,
          "internalType": "bytes32",
          "name": "role",
          "type": "bytes32"
        },
        {
          "indexed": true,
          "internalType": "bytes32",
          "name": "previousAdminRole",
          "type": "bytes32"
        },
        {
          "indexed": true,
          "internalType": "bytes32",
          "name": "newAdminRole",
          "type": "bytes32"
        }
      ],
      "name": "RoleAdminChanged",
      "type": "event"
    },
    {
      "anonymous": false,
      "inputs": [
        {
          "indexed": true,
          "internalType": "bytes32",
          "name": "role",
          "type": "bytes32"
        },
        {
          "indexed": true,
          "internalType": "address",
          "name": "account",
          "type": "address"
        },
        {
          "indexed": true,
          "internalType": "address",
          "name": "sender",
          "type": "address"
        }
      ],
      "name": "RoleGranted",
      "type": "event"
    },
    {
      "anonymous": false,
      "inputs": [
        {
          "indexed": true,
          "internalType": "bytes32",
          "name": "role",
          "type": "bytes32"
        },
        {
          "indexed": true,
          "internalType": "address",
          "name": "account",
          "type": "address"
        },
        {
          "indexed": true,
          "internalType": "address",
          "name": "sender",
          "type": "address"
        }
      ],
      "name": "RoleRevoked",
      "type": "event"
    },
    {
      "anonymous": false,
      "inputs": [
        {
          "indexed": false,
          "internalType": "uint256",
          "name": "availableBalance",
          "type": "uint256"
        },
        {
          "indexed": false,
          "internalType": "uint256",
          "name": "retiredBalance",
          "type": "uint256"
        },
        {
          "indexed": false,
          "internalType": "uint256",
          "name": "tokenId",
          "type": "uint256"
        },
        {
          "indexed": false,
          "internalType": "uint8",
          "name": "tokenTypeId",
          "type": "uint8"
        },
        {
          "indexed": true,
          "internalType": "address",
          "name": "issuer",
          "type": "address"
        },
        {
          "indexed": true,
          "internalType": "address",
          "name": "issuee",
          "type": "address"
        },
        {
          "indexed": false,
          "internalType": "uint256",
          "name": "fromDate",
          "type": "uint256"
        },
        {
          "indexed": false,
          "internalType": "uint256",
          "name": "thruDate",
          "type": "uint256"
        },
        {
          "indexed": false,
          "internalType": "uint256",
          "name": "dateCreated",
          "type": "uint256"
        },
        {
          "indexed": false,
          "internalType": "string",
          "name": "metadata",
          "type": "string"
        },
        {
          "indexed": false,
          "internalType": "string",
          "name": "manifest",
          "type": "string"
        },
        {
          "indexed": false,
          "internalType": "string",
          "name": "description",
          "type": "string"
        }
      ],
      "name": "TokenCreated",
      "type": "event"
    },
    {
      "anonymous": false,
      "inputs": [
        {
          "indexed": true,
          "internalType": "address",
          "name": "account",
          "type": "address"
        },
        {
          "indexed": false,
          "internalType": "uint256",
          "name": "tokenId",
          "type": "uint256"
        },
        {
          "indexed": false,
          "internalType": "uint256",
          "name": "amount",
          "type": "uint256"
        }
      ],
      "name": "TokenRetired",
      "type": "event"
    },
    {
      "anonymous": false,
      "inputs": [
        {
          "indexed": true,
          "internalType": "address",
          "name": "operator",
          "type": "address"
        },
        {
          "indexed": true,
          "internalType": "address",
          "name": "from",
          "type": "address"
        },
        {
          "indexed": true,
          "internalType": "address",
          "name": "to",
          "type": "address"
        },
        {
          "indexed": false,
          "internalType": "uint256[]",
          "name": "ids",
          "type": "uint256[]"
        },
        {
          "indexed": false,
          "internalType": "uint256[]",
          "name": "values",
          "type": "uint256[]"
        }
      ],
      "name": "TransferBatch",
      "type": "event"
    },
    {
      "anonymous": false,
      "inputs": [
        {
          "indexed": true,
          "internalType": "address",
          "name": "operator",
          "type": "address"
        },
        {
          "indexed": true,
          "internalType": "address",
          "name": "from",
          "type": "address"
        },
        {
          "indexed": true,
          "internalType": "address",
          "name": "to",
          "type": "address"
        },
        {
          "indexed": false,
          "internalType": "uint256",
          "name": "id",
          "type": "uint256"
        },
        {
          "indexed": false,
          "internalType": "uint256",
          "name": "value",
          "type": "uint256"
        }
      ],
      "name": "TransferSingle",
      "type": "event"
    },
    {
      "anonymous": false,
      "inputs": [
        {
          "indexed": false,
          "internalType": "string",
          "name": "value",
          "type": "string"
        },
        {
          "indexed": true,
          "internalType": "uint256",
          "name": "id",
          "type": "uint256"
        }
      ],
      "name": "URI",
      "type": "event"
    },
    {
      "anonymous": false,
      "inputs": [
        {
          "indexed": true,
          "internalType": "address",
          "name": "account",
          "type": "address"
        }
      ],
      "name": "UnregisteredConsumer",
      "type": "event"
    },
    {
      "anonymous": false,
      "inputs": [
        {
          "indexed": true,
          "internalType": "address",
          "name": "account",
          "type": "address"
        }
      ],
      "name": "UnregisteredDealer",
      "type": "event"
    },
    {
      "anonymous": false,
      "inputs": [
        {
          "indexed": true,
          "internalType": "address",
          "name": "account",
          "type": "address"
        }
      ],
      "name": "UnregisteredIndustry",
      "type": "event"
    },
    {
      "inputs": [],
      "name": "DEFAULT_ADMIN_ROLE",
      "outputs": [
        {
          "internalType": "bytes32",
          "name": "",
          "type": "bytes32"
        }
      ],
      "stateMutability": "view",
      "type": "function"
    },
    {
      "inputs": [],
      "name": "REGISTERED_CONSUMER",
      "outputs": [
        {
          "internalType": "bytes32",
          "name": "",
          "type": "bytes32"
        }
      ],
      "stateMutability": "view",
      "type": "function"
    },
    {
      "inputs": [],
      "name": "REGISTERED_DEALER",
      "outputs": [
        {
          "internalType": "bytes32",
          "name": "",
          "type": "bytes32"
        }
      ],
      "stateMutability": "view",
      "type": "function"
    },
    {
      "inputs": [],
      "name": "REGISTERED_EMISSIONS_AUDITOR",
      "outputs": [
        {
          "internalType": "bytes32",
          "name": "",
          "type": "bytes32"
        }
      ],
      "stateMutability": "view",
      "type": "function"
    },
    {
      "inputs": [],
      "name": "REGISTERED_INDUSTRY",
      "outputs": [
        {
          "internalType": "bytes32",
          "name": "",
          "type": "bytes32"
        }
      ],
      "stateMutability": "view",
      "type": "function"
    },
    {
      "inputs": [],
      "name": "REGISTERED_INDUSTRY_DEALER",
      "outputs": [
        {
          "internalType": "bytes32",
          "name": "",
          "type": "bytes32"
        }
      ],
      "stateMutability": "view",
      "type": "function"
    },
    {
      "inputs": [],
      "name": "REGISTERED_OFFSET_DEALER",
      "outputs": [
        {
          "internalType": "bytes32",
          "name": "",
          "type": "bytes32"
        }
      ],
      "stateMutability": "view",
      "type": "function"
    },
    {
      "inputs": [],
      "name": "REGISTERED_REC_DEALER",
      "outputs": [
        {
          "internalType": "bytes32",
          "name": "",
          "type": "bytes32"
        }
      ],
      "stateMutability": "view",
      "type": "function"
    },
    {
      "inputs": [
        {
          "internalType": "address",
          "name": "entity",
          "type": "address"
        }
      ],
      "name": "_consumerOrDealer",
      "outputs": [
        {
          "internalType": "bool",
          "name": "",
          "type": "bool"
        }
      ],
      "stateMutability": "view",
      "type": "function"
    },
    {
      "inputs": [],
      "name": "admin",
      "outputs": [
        {
          "internalType": "address",
          "name": "",
          "type": "address"
        }
      ],
      "stateMutability": "view",
      "type": "function"
    },
    {
      "inputs": [
        {
          "internalType": "address",
          "name": "account",
          "type": "address"
        },
        {
          "internalType": "uint256",
          "name": "id",
          "type": "uint256"
        }
      ],
      "name": "balanceOf",
      "outputs": [
        {
          "internalType": "uint256",
          "name": "",
          "type": "uint256"
        }
      ],
      "stateMutability": "view",
      "type": "function"
    },
    {
      "inputs": [
        {
          "internalType": "address[]",
          "name": "accounts",
          "type": "address[]"
        },
        {
          "internalType": "uint256[]",
          "name": "ids",
          "type": "uint256[]"
        }
      ],
      "name": "balanceOfBatch",
      "outputs": [
        {
          "internalType": "uint256[]",
          "name": "",
          "type": "uint256[]"
        }
      ],
      "stateMutability": "view",
      "type": "function"
    },
    {
      "inputs": [
        {
          "internalType": "address",
          "name": "account",
          "type": "address"
        },
        {
          "internalType": "uint256",
          "name": "tokenId",
          "type": "uint256"
        }
      ],
      "name": "getAvailableAndRetired",
      "outputs": [
        {
          "internalType": "uint256",
          "name": "",
          "type": "uint256"
        },
        {
          "internalType": "uint256",
          "name": "",
          "type": "uint256"
        }
      ],
      "stateMutability": "view",
      "type": "function"
    },
    {
      "inputs": [
        {
          "internalType": "address",
          "name": "account",
          "type": "address"
        },
        {
          "internalType": "uint256",
          "name": "tokenId",
          "type": "uint256"
        }
      ],
      "name": "getAvailableRetiredAndTransferred",
      "outputs": [
        {
          "internalType": "uint256",
          "name": "",
          "type": "uint256"
        },
        {
          "internalType": "uint256",
          "name": "",
          "type": "uint256"
        },
        {
          "internalType": "uint256",
          "name": "",
          "type": "uint256"
        }
      ],
      "stateMutability": "view",
      "type": "function"
    },
    {
      "inputs": [
        {
          "internalType": "uint256",
          "name": "tokenId",
          "type": "uint256"
        }
      ],
      "name": "getIssuer",
      "outputs": [
        {
          "internalType": "address",
          "name": "",
          "type": "address"
        }
      ],
      "stateMutability": "view",
      "type": "function"
    },
    {
      "inputs": [],
      "name": "getNumOfUniqueTokens",
      "outputs": [
        {
          "internalType": "uint256",
          "name": "",
          "type": "uint256"
        }
      ],
      "stateMutability": "view",
      "type": "function"
    },
    {
      "inputs": [
        {
          "internalType": "uint256",
          "name": "tokenId",
          "type": "uint256"
        },
        {
          "internalType": "address",
          "name": "account",
          "type": "address"
        }
      ],
      "name": "getRetiredBalances",
      "outputs": [
        {
          "internalType": "uint256",
          "name": "",
          "type": "uint256"
        }
      ],
      "stateMutability": "view",
      "type": "function"
    },
    {
      "inputs": [
        {
          "internalType": "bytes32",
          "name": "role",
          "type": "bytes32"
        }
      ],
      "name": "getRoleAdmin",
      "outputs": [
        {
          "internalType": "bytes32",
          "name": "",
          "type": "bytes32"
        }
      ],
      "stateMutability": "view",
      "type": "function"
    },
    {
      "inputs": [
        {
          "internalType": "address",
          "name": "account",
          "type": "address"
        }
      ],
      "name": "getRoles",
      "outputs": [
        {
          "components": [
            {
              "internalType": "bool",
              "name": "isAdmin",
              "type": "bool"
            },
            {
              "internalType": "bool",
              "name": "isConsumer",
              "type": "bool"
            },
            {
              "internalType": "bool",
              "name": "isRecDealer",
              "type": "bool"
            },
            {
              "internalType": "bool",
              "name": "isCeoDealer",
              "type": "bool"
            },
            {
              "internalType": "bool",
              "name": "isAeDealer",
              "type": "bool"
            },
            {
              "internalType": "bool",
              "name": "isIndustry",
              "type": "bool"
            },
            {
              "internalType": "bool",
              "name": "isIndustryDealer",
              "type": "bool"
            }
          ],
          "internalType": "struct NetEmissionsTokenNetwork.RolesInfo",
          "name": "",
          "type": "tuple"
        }
      ],
      "stateMutability": "view",
      "type": "function"
    },
    {
      "inputs": [
        {
          "internalType": "uint256",
          "name": "tokenId",
          "type": "uint256"
        }
      ],
      "name": "getTokenDetails",
      "outputs": [
        {
          "components": [
            {
              "internalType": "uint256",
              "name": "tokenId",
              "type": "uint256"
            },
            {
              "internalType": "uint8",
              "name": "tokenTypeId",
              "type": "uint8"
            },
            {
              "internalType": "address",
              "name": "issuer",
              "type": "address"
            },
            {
              "internalType": "address",
              "name": "issuee",
              "type": "address"
            },
            {
              "internalType": "uint256",
              "name": "fromDate",
              "type": "uint256"
            },
            {
              "internalType": "uint256",
              "name": "thruDate",
              "type": "uint256"
            },
            {
              "internalType": "uint256",
              "name": "dateCreated",
              "type": "uint256"
            },
            {
              "internalType": "string",
              "name": "metadata",
              "type": "string"
            },
            {
              "internalType": "string",
              "name": "manifest",
              "type": "string"
            },
            {
              "internalType": "string",
              "name": "description",
              "type": "string"
            },
            {
              "internalType": "uint256",
              "name": "totalIssued",
              "type": "uint256"
            },
            {
              "internalType": "uint256",
              "name": "totalRetired",
              "type": "uint256"
            }
          ],
          "internalType": "struct NetEmissionsTokenNetwork.CarbonTokenDetails",
          "name": "",
          "type": "tuple"
        }
      ],
      "stateMutability": "view",
      "type": "function"
    },
    {
      "inputs": [
        {
          "internalType": "address",
          "name": "account",
          "type": "address"
        },
        {
          "internalType": "uint256",
          "name": "tokenId",
          "type": "uint256"
        }
      ],
      "name": "getTokenRetiredAmount",
      "outputs": [
        {
          "internalType": "uint256",
          "name": "",
          "type": "uint256"
        }
      ],
      "stateMutability": "view",
      "type": "function"
    },
    {
      "inputs": [
        {
          "internalType": "uint256",
          "name": "tokenId",
          "type": "uint256"
        }
      ],
      "name": "getTokenType",
      "outputs": [
        {
          "internalType": "string",
          "name": "",
          "type": "string"
        }
      ],
      "stateMutability": "view",
      "type": "function"
    },
    {
      "inputs": [
        {
          "internalType": "uint256",
          "name": "tokenId",
          "type": "uint256"
        }
      ],
      "name": "getTokenTypeId",
      "outputs": [
        {
          "internalType": "uint8",
          "name": "",
          "type": "uint8"
        }
      ],
      "stateMutability": "view",
      "type": "function"
    },
    {
      "inputs": [
        {
          "internalType": "address",
          "name": "_from",
          "type": "address"
        },
        {
          "internalType": "address",
          "name": "_to",
          "type": "address"
        },
        {
          "internalType": "uint256[]",
          "name": "_ids",
          "type": "uint256[]"
        },
        {
          "internalType": "uint256[]",
          "name": "_amounts",
          "type": "uint256[]"
        }
      ],
      "name": "getTransferHash",
      "outputs": [
        {
          "internalType": "bytes32",
          "name": "",
          "type": "bytes32"
        }
      ],
      "stateMutability": "view",
      "type": "function"
    },
    {
      "inputs": [
        {
          "internalType": "uint256",
          "name": "tokenId",
          "type": "uint256"
        },
        {
          "internalType": "address",
          "name": "account",
          "type": "address"
        }
      ],
      "name": "getTransferredBalances",
      "outputs": [
        {
          "internalType": "uint256",
          "name": "",
          "type": "uint256"
        }
      ],
      "stateMutability": "view",
      "type": "function"
    },
    {
      "inputs": [
        {
          "internalType": "bytes32",
          "name": "role",
          "type": "bytes32"
        },
        {
          "internalType": "address",
          "name": "account",
          "type": "address"
        }
      ],
      "name": "grantRole",
      "outputs": [],
      "stateMutability": "nonpayable",
      "type": "function"
    },
    {
      "inputs": [
        {
          "internalType": "bytes32",
          "name": "role",
          "type": "bytes32"
        },
        {
          "internalType": "address",
          "name": "account",
          "type": "address"
        }
      ],
      "name": "hasRole",
      "outputs": [
        {
          "internalType": "bool",
          "name": "",
          "type": "bool"
        }
      ],
      "stateMutability": "view",
      "type": "function"
    },
    {
      "inputs": [
        {
          "internalType": "address",
          "name": "_admin",
          "type": "address"
        }
      ],
      "name": "initialize",
      "outputs": [],
      "stateMutability": "nonpayable",
      "type": "function"
    },
    {
      "inputs": [
        {
          "internalType": "address",
          "name": "account",
          "type": "address"
        },
        {
          "internalType": "address",
          "name": "operator",
          "type": "address"
        }
      ],
      "name": "isApprovedForAll",
      "outputs": [
        {
          "internalType": "bool",
          "name": "",
          "type": "bool"
        }
      ],
      "stateMutability": "view",
      "type": "function"
    },
    {
      "inputs": [
        {
          "internalType": "address",
          "name": "auditor",
          "type": "address"
        }
      ],
      "name": "isAuditor",
      "outputs": [
        {
          "internalType": "bool",
          "name": "",
          "type": "bool"
        }
      ],
      "stateMutability": "view",
      "type": "function"
    },
    {
      "inputs": [
        {
          "internalType": "address",
          "name": "account",
          "type": "address"
        }
      ],
      "name": "isConsumerRegistered",
      "outputs": [
        {
          "internalType": "bool",
          "name": "",
          "type": "bool"
        }
      ],
      "stateMutability": "view",
      "type": "function"
    },
    {
      "inputs": [
        {
          "internalType": "address",
          "name": "account",
          "type": "address"
        }
      ],
      "name": "isDealerRegistered",
      "outputs": [
        {
          "internalType": "bool",
          "name": "",
          "type": "bool"
        }
      ],
      "stateMutability": "view",
      "type": "function"
    },
    {
      "inputs": [
        {
          "internalType": "address",
          "name": "issuee",
          "type": "address"
        },
        {
          "internalType": "uint8",
          "name": "tokenTypeId",
          "type": "uint8"
        },
        {
          "internalType": "uint256",
          "name": "quantity",
          "type": "uint256"
        },
        {
          "internalType": "uint256",
          "name": "fromDate",
          "type": "uint256"
        },
        {
          "internalType": "uint256",
          "name": "thruDate",
          "type": "uint256"
        },
        {
          "internalType": "string",
          "name": "metadata",
          "type": "string"
        },
        {
          "internalType": "string",
          "name": "manifest",
          "type": "string"
        },
        {
          "internalType": "string",
          "name": "description",
          "type": "string"
        }
      ],
      "name": "issue",
      "outputs": [],
      "stateMutability": "nonpayable",
      "type": "function"
    },
    {
      "inputs": [
        {
          "internalType": "address",
          "name": "issuee",
          "type": "address"
        },
        {
          "internalType": "address",
          "name": "issuer",
          "type": "address"
        },
        {
          "internalType": "uint8",
          "name": "tokenTypeId",
          "type": "uint8"
        },
        {
          "internalType": "uint256",
          "name": "quantity",
          "type": "uint256"
        },
        {
          "internalType": "uint256",
          "name": "fromDate",
          "type": "uint256"
        },
        {
          "internalType": "uint256",
          "name": "thruDate",
          "type": "uint256"
        },
        {
          "internalType": "string",
          "name": "metadata",
          "type": "string"
        },
        {
          "internalType": "string",
          "name": "manifest",
          "type": "string"
        },
        {
          "internalType": "string",
          "name": "description",
          "type": "string"
        }
      ],
      "name": "issueOnBehalf",
      "outputs": [],
      "stateMutability": "nonpayable",
      "type": "function"
    },
    {
      "inputs": [],
      "name": "limitedMode",
      "outputs": [
        {
          "internalType": "bool",
          "name": "",
          "type": "bool"
        }
      ],
      "stateMutability": "view",
      "type": "function"
    },
    {
      "inputs": [
        {
          "internalType": "address",
          "name": "to",
          "type": "address"
        },
        {
          "internalType": "uint256",
          "name": "tokenId",
          "type": "uint256"
        },
        {
          "internalType": "uint256",
          "name": "quantity",
          "type": "uint256"
        }
      ],
      "name": "mint",
      "outputs": [],
      "stateMutability": "nonpayable",
      "type": "function"
    },
    {
      "inputs": [
        {
          "internalType": "address",
          "name": "account",
          "type": "address"
        }
      ],
      "name": "registerConsumer",
      "outputs": [],
      "stateMutability": "nonpayable",
      "type": "function"
    },
    {
      "inputs": [
        {
          "internalType": "address",
          "name": "account",
          "type": "address"
        },
        {
          "internalType": "uint8",
          "name": "tokenTypeId",
          "type": "uint8"
        }
      ],
      "name": "registerDealer",
      "outputs": [],
      "stateMutability": "nonpayable",
      "type": "function"
    },
    {
      "inputs": [
        {
          "internalType": "address",
          "name": "account",
          "type": "address"
        }
      ],
      "name": "registerIndustry",
      "outputs": [],
      "stateMutability": "nonpayable",
      "type": "function"
    },
    {
      "inputs": [
        {
          "internalType": "bytes32",
          "name": "role",
          "type": "bytes32"
        },
        {
          "internalType": "address",
          "name": "account",
          "type": "address"
        }
      ],
      "name": "renounceRole",
      "outputs": [],
      "stateMutability": "nonpayable",
      "type": "function"
    },
    {
      "inputs": [
        {
          "internalType": "uint256",
          "name": "tokenId",
          "type": "uint256"
        },
        {
          "internalType": "uint256",
          "name": "amount",
          "type": "uint256"
        }
      ],
      "name": "retire",
      "outputs": [],
      "stateMutability": "nonpayable",
      "type": "function"
    },
    {
      "inputs": [
        {
          "internalType": "bytes32",
          "name": "role",
          "type": "bytes32"
        },
        {
          "internalType": "address",
          "name": "account",
          "type": "address"
        }
      ],
      "name": "revokeRole",
      "outputs": [],
      "stateMutability": "nonpayable",
      "type": "function"
    },
    {
      "inputs": [
        {
          "internalType": "address",
          "name": "from",
          "type": "address"
        },
        {
          "internalType": "address",
          "name": "to",
          "type": "address"
        },
        {
          "internalType": "uint256[]",
          "name": "ids",
          "type": "uint256[]"
        },
        {
          "internalType": "uint256[]",
          "name": "amounts",
          "type": "uint256[]"
        },
        {
          "internalType": "bytes",
          "name": "data",
          "type": "bytes"
        }
      ],
      "name": "safeBatchTransferFrom",
      "outputs": [],
      "stateMutability": "nonpayable",
      "type": "function"
    },
    {
      "inputs": [
        {
          "internalType": "address",
          "name": "from",
          "type": "address"
        },
        {
          "internalType": "address",
          "name": "to",
          "type": "address"
        },
        {
          "internalType": "uint256",
          "name": "id",
          "type": "uint256"
        },
        {
          "internalType": "uint256",
          "name": "amount",
          "type": "uint256"
        },
        {
          "internalType": "bytes",
          "name": "data",
          "type": "bytes"
        }
      ],
      "name": "safeTransferFrom",
      "outputs": [],
      "stateMutability": "nonpayable",
      "type": "function"
    },
    {
      "inputs": [
        {
          "internalType": "address",
          "name": "operator",
          "type": "address"
        },
        {
          "internalType": "bool",
          "name": "approved",
          "type": "bool"
        }
      ],
      "name": "setApprovalForAll",
      "outputs": [],
      "stateMutability": "nonpayable",
      "type": "function"
    },
    {
      "inputs": [
        {
          "internalType": "bool",
          "name": "_limitedMode",
          "type": "bool"
        }
      ],
      "name": "setLimitedMode",
      "outputs": [],
      "stateMutability": "nonpayable",
      "type": "function"
    },
    {
      "inputs": [
        {
          "internalType": "address",
          "name": "_timelock",
          "type": "address"
        }
      ],
      "name": "setTimelock",
      "outputs": [],
      "stateMutability": "nonpayable",
      "type": "function"
    },
    {
      "inputs": [
        {
          "internalType": "bytes4",
          "name": "interfaceId",
          "type": "bytes4"
        }
      ],
      "name": "supportsInterface",
      "outputs": [
        {
          "internalType": "bool",
          "name": "",
          "type": "bool"
        }
      ],
      "stateMutability": "view",
      "type": "function"
    },
    {
      "inputs": [
        {
          "internalType": "address",
          "name": "to",
          "type": "address"
        },
        {
          "internalType": "uint256",
          "name": "tokenId",
          "type": "uint256"
        },
        {
          "internalType": "uint256",
          "name": "value",
          "type": "uint256"
        }
      ],
      "name": "transfer",
      "outputs": [],
      "stateMutability": "nonpayable",
      "type": "function"
    },
    {
      "inputs": [
        {
          "internalType": "address",
          "name": "account",
          "type": "address"
        }
      ],
      "name": "unregisterConsumer",
      "outputs": [],
      "stateMutability": "nonpayable",
      "type": "function"
    },
    {
      "inputs": [
        {
          "internalType": "address",
          "name": "account",
          "type": "address"
        },
        {
          "internalType": "uint8",
          "name": "tokenTypeId",
          "type": "uint8"
        }
      ],
      "name": "unregisterDealer",
      "outputs": [],
      "stateMutability": "nonpayable",
      "type": "function"
    },
    {
      "inputs": [
        {
          "internalType": "uint256",
          "name": "",
          "type": "uint256"
        }
      ],
      "name": "uri",
      "outputs": [
        {
          "internalType": "string",
          "name": "",
          "type": "string"
        }
      ],
      "stateMutability": "view",
      "type": "function"
    },
    {
      "inputs": [
        {
          "internalType": "bytes32",
          "name": "msgHash",
          "type": "bytes32"
        },
        {
          "internalType": "bytes",
          "name": "signature",
          "type": "bytes"
        },
        {
          "internalType": "address",
          "name": "signer",
          "type": "address"
        }
      ],
      "name": "verifySignature",
      "outputs": [
        {
          "internalType": "bool",
          "name": "",
          "type": "bool"
        }
      ],
      "stateMutability": "pure",
      "type": "function"
    }
  ],
  "bytecode": "0x608060405234801561001057600080fd5b5061548a806100206000396000f3fe608060405234801561001057600080fd5b50600436106103265760003560e01c806376ce4755116101b8578063c4d66de811610104578063e985e9c5116100a2578063f851a4401161007c578063f851a4401461081f578063fbdf37ea14610837578063fc0bbce31461084c578063fcba79481461085f57610326565b8063e985e9c51461079a578063f242432a146107d6578063f73e09e0146107e957610326565b8063d75cfd58116100de578063d75cfd5814610731578063dba851b014610767578063ddc3e6eb14610774578063e2e564f21461078757610326565b8063c4d66de8146106eb578063ce6ccfaf146106fe578063d547741f1461071e57610326565b806391d1485411610171578063a217fddf1161014b578063a217fddf1461069d578063a22cb465146106a5578063bdacb303146106b8578063c1e03728146106cb57610326565b806391d148541461062e57806392089c4614610641578063a0d975a71461068a57610326565b806376ce4755146105a157806378e5c592146105b65780637aab1b88146105cb5780637e752d8b146105de5780637f157c9b146105f1578063907b66521461061957610326565b806331aa4b201161027757806349b90557116102305780635ddb368f1161020a5780635ddb368f146105605780635e5323841461056857806369f7ef441461057b57806376aed2e11461058e57610326565b806349b905571461051a5780634e1273f41461052d57806353dbe9821461054d57610326565b806331aa4b201461048d57806331cd4199146104a057806333781a0e146104b357806336568abe146104c657806344b22fdd146104d9578063496dd90b146104ec57610326565b8063156e29f6116102e4578063248a9ca3116102be578063248a9ca314610431578063293a7f2e146104545780632eb2c2d6146104675780632f2ff15d1461047a57610326565b8063156e29f6146103f457806318a50d7e146104075780631ef68ef71461041c57610326565b8062fdd58e1461032b57806301ffc9a714610351578063033fd91914610374578063095bcdb6146103895780630e89341c1461039c578063127d5ad0146103bc575b600080fd5b61033e6103393660046146c8565b610874565b6040519081526020015b60405180910390f35b61036461035f366004614980565b61090d565b6040519015158152602001610348565b6103876103823660046143f8565b61093a565b005b6103876103973660046146f1565b610a35565b6103af6103aa3660046148f2565b610ac7565b6040516103489190614cef565b6103e26103ca3660046148f2565b600090815260cc602052604090206001015460ff1690565b60405160ff9091168152602001610348565b6103876104023660046146f1565b610b5b565b61033e6000805160206153d583398151915281565b61033e60008051602061537583398151915281565b61033e61043f3660046148f2565b60009081526097602052604090206001015490565b6103876104623660046149d0565b610c6b565b6103876104753660046144c5565b610df0565b61038761048836600461490a565b610e87565b61038761049b366004614723565b610eae565b6103646104ae36600461492c565b611040565b6103646104c13660046143f8565b6110c3565b6103876104d436600461490a565b6110dd565b6103876104e73660046143f8565b61115b565b6104ff6104fa3660046146c8565b611245565b60408051938452602084019290925290820152606001610348565b6103646105283660046143f8565b6112fe565b61054061053b36600461480e565b611318565b6040516103489190614cae565b61038761055b3660046143f8565b611479565b61033e611567565b61038761057636600461474c565b611578565b6103646105893660046143f8565b61159b565b6103af61059c3660046148f2565b611624565b61033e60008051602061543583398151915281565b61033e6000805160206153b583398151915281565b61033e6105d9366004614444565b6117e4565b6103876105ec3660046145cc565b611859565b6106046105ff3660046146c8565b6118fe565b60408051928352602083019190915201610348565b61033e60008051602061539583398151915281565b61036461063c36600461490a565b6119a0565b61067261064f3660046148f2565b600090815260cc602052604090206001015461010090046001600160a01b031690565b6040516001600160a01b039091168152602001610348565b61033e6106983660046146c8565b6119cb565b61033e600081565b6103876106b336600461469f565b611a66565b6103876106c63660046143f8565b611a71565b6106de6106d93660046148f2565b611aba565b6040516103489190614f36565b6103876106f93660046143f8565b611d7a565b61071161070c3660046143f8565b611f3f565b6040516103489190615021565b61038761072c36600461490a565b612080565b61033e61073f36600461490a565b600091825260cd602090815260408084206001600160a01b0393909316845291905290205490565b60c9546103649060ff1681565b6103876107823660046148d8565b6120a6565b610387610795366004614723565b6120e0565b6103646107a8366004614412565b6001600160a01b03918216600090815260666020908152604080832093909416825291909152205460ff1690565b6103876107e436600461456a565b612269565b61033e6107f736600461490a565b600091825260ce602090815260408084206001600160a01b0393909316845291905290205490565b60c9546106729061010090046001600160a01b031681565b61033e60008051602061535583398151915281565b61036461085a3660046143f8565b6122f0565b61033e60008051602061541583398151915281565b60006001600160a01b0383166108e55760405162461bcd60e51b815260206004820152602b60248201527f455243313135353a2062616c616e636520717565727920666f7220746865207a60448201526a65726f206164647265737360a81b60648201526084015b60405180910390fd5b5060009081526065602090815260408083206001600160a01b03949094168352929052205490565b60006001600160e01b03198216637965db0b60e01b1480610932575061093282612346565b90505b919050565b336001600160a01b038216146109525761095261236b565b60c95460ff16156109e6576109686000336119a0565b6109e65760405162461bcd60e51b815260206004820152604360248201527f434c4d383a3a7265676973746572496e647573747279286c696d69746564293a60448201527f206f6e6c792061646d696e2063616e20726567697374657220696e647573747260648201526269657360e81b608482015260a4016108dc565b6109fe60008051602061535583398151915282612401565b6040516001600160a01b038216907f1230fb0cdc77da02d53e840f6f60d5e7f68646d7d1ccdd890860e05533b62f5390600090a250565b610a3e8261240b565b610a995760405162461bcd60e51b815260206004820152602660248201527f434c4d383a3a7472616e736665723a20746f6b656e496420646f6573206e6f7460448201526508195e1a5cdd60d21b60648201526084016108dc565b610ac233848484604051806040016040528060048152602001630307830360e41b815250612269565b505050565b606060678054610ad6906151ca565b80601f0160208091040260200160405190810160405280929190818152602001828054610b02906151ca565b8015610b4f5780601f10610b2457610100808354040283529160200191610b4f565b820191906000526020600020905b815481529060010190602001808311610b3257829003601f168201915b50505050509050919050565b610b666000336119a0565b610b825760405162461bcd60e51b81526004016108dc90614d4a565b610b8b8261240b565b610be25760405162461bcd60e51b815260206004820152602260248201527f434c4d383a3a6d696e743a20746f6b656e496420646f6573206e6f74206578696044820152611cdd60f21b60648201526084016108dc565b60c95460ff1615610c505760405162461bcd60e51b815260206004820152603260248201527f434c4d383a3a6d696e743a2063616e6e6f74206d696e74206e657720746f6b656044820152716e7320696e206c696d69746564206d6f646560701b60648201526084016108dc565b610ac283838360405180602001604052806000815250612424565b3360008115610c9957610c7d826122f0565b610c995760405162461bcd60e51b81526004016108dc90614e8e565b6001600160a01b03811615610ccd57610cb1816122f0565b610ccd5760405162461bcd60e51b81526004016108dc90614d93565b610cd68461240b565b610d2e5760405162461bcd60e51b8152602060048201526024808201527f434c4d383a3a7265746972653a20746f6b656e496420646f6573206e6f7420656044820152631e1a5cdd60e21b60648201526084016108dc565b610d383385610874565b831115610da45760405162461bcd60e51b815260206004820152603460248201527f434c4d383a3a7265746972653a206e6f7420656e6f75676820617661696c61626044820152736c652062616c616e636520746f2072657469726560601b60648201526084016108dc565b610daf338585612536565b604080518581526020810185905233917f8f1b5ebb586d3d169e4ed07db9cd10ce0dd30c7b656171310eae7517c0b53cf9910160405180910390a250505050565b6001600160a01b038516331480610e0c5750610e0c85336107a8565b610e735760405162461bcd60e51b815260206004820152603260248201527f455243313135353a207472616e736665722063616c6c6572206973206e6f74206044820152711bdddb995c881b9bdc88185c1c1c9bdd995960721b60648201526084016108dc565b610e8085858585856125c2565b5050505050565b600082815260976020526040902060010154610ea481335b6127cc565b610ac28383612830565b610eb96000336119a0565b610ed55760405162461bcd60e51b81526004016108dc90614d4a565b610ede816128b6565b610f435760405162461bcd60e51b815260206004820152603060248201527f434c4d383a3a72656769737465724465616c65723a20746f6b656e547970654960448201526f1908191bd95cc81b9bdd08195e1a5cdd60821b60648201526084016108dc565b8060ff1660011415610f6c57610f6760008051602061541583398151915283610e87565b610ff0565b8060ff1660021415610f9057610f6760008051602061537583398151915283610e87565b8060ff1660031415610fb457610f6760008051602061543583398151915283610e87565b8060ff1660041415610ff057610fd860008051602061535583398151915283610e87565b610ff060008051602061539583398151915283610e87565b6110086000805160206153d583398151915283610e87565b6040516001600160a01b038316907fa8377deee15954185683d55effd369508b4935978c8cb2bab790bf04c570181490600090a25050565b60008061109a856040517f19457468657265756d205369676e6564204d6573736167653a0a3332000000006020820152603c8101829052600090605c01604051602081830303815290604052805190602001209050919050565b90506001600160a01b0383166110b082866128d8565b6001600160a01b03161495945050505050565b60006109326000805160206153b5833981519152836119a0565b6001600160a01b038116331461114d5760405162461bcd60e51b815260206004820152602f60248201527f416363657373436f6e74726f6c3a2063616e206f6e6c792072656e6f756e636560448201526e103937b632b9903337b91039b2b63360891b60648201526084016108dc565b61115782826128f4565b5050565b61116361236b565b60c95460ff16156111f6576111796000336119a0565b6111f65760405162461bcd60e51b815260206004820152604260248201527f434c4d383a3a7265676973746572436f6e73756d6572286c696d69746564293a60448201527f206f6e6c792061646d696e2063616e20726567697374657220636f6e73756d65606482015261727360f01b608482015260a4016108dc565b61120e6000805160206153b583398151915282610e87565b6040516001600160a01b038216907f69a0adee259d26fe61f4776f7bea7f3a9737c7321256821b985f988545efd31990600090a250565b604051637f157c9b60e01b81526001600160a01b03831660048201526024810182905260009081908190819081903090637f157c9b90604401604080518083038186803b15801561129557600080fd5b505afa1580156112a9573d6000803e3d6000fd5b505050506040513d601f19601f820116820180604052508101906112cd91906149f1565b600097885260ce60209081526040808a206001600160a01b039b909b168a5299905297909620549597945050505050565b6000610932600080516020615435833981519152836119a0565b6060815183511461137d5760405162461bcd60e51b815260206004820152602960248201527f455243313135353a206163636f756e747320616e6420696473206c656e677468604482015268040dad2e6dac2e8c6d60bb1b60648201526084016108dc565b600083516001600160401b038111156113a657634e487b7160e01b600052604160045260246000fd5b6040519080825280602002602001820160405280156113cf578160200160208202803683370190505b50905060005b84518110156114715761143685828151811061140157634e487b7160e01b600052603260045260246000fd5b602002602001015185838151811061142957634e487b7160e01b600052603260045260246000fd5b6020026020010151610874565b82828151811061145657634e487b7160e01b600052603260045260246000fd5b602090810291909101015261146a8161522b565b90506113d5565b509392505050565b61148161236b565b60c95460ff1615611518576114976000336119a0565b6115185760405162461bcd60e51b815260206004820152604660248201527f434c4d383a3a756e7265676973746572436f6e73756d6572286c696d6974656460448201527f293a206f6e6c792061646d696e2063616e20756e726567697374657220636f6e60648201526573756d65727360d01b608482015260a4016108dc565b6115306000805160206153b583398151915282612080565b6040516001600160a01b038216907f03a38088da75ee2d80f6c753f55f8fd17602ae17d8bd0ef44d5e1f28ab5af11f90600090a250565b600061157260cb5490565b90505b90565b61158061236b565b61159188338989898989898961295b565b5050505050505050565b60006115b5600080516020615415833981519152836119a0565b806115d357506115d3600080516020615375833981519152836119a0565b806115f157506115f1600080516020615435833981519152836119a0565b8061160f575061160f600080516020615395833981519152836119a0565b1561161c57506001610935565b506000919050565b606061162f8261240b565b61168e5760405162461bcd60e51b815260206004820152602a60248201527f434c4d383a3a676574546f6b656e547970653a20746f6b656e496420646f6573604482015269081b9bdd08195e1a5cdd60b21b60648201526084016108dc565b600082815260cc6020526040902060018082015460ff1614156116e657505060408051808201909152601c81527f52656e657761626c6520456e65726779204365727469666963617465000000006020820152610935565b600181015460ff166002141561173157505060408051808201909152601781527f436172626f6e20456d697373696f6e73204f66667365740000000000000000006020820152610935565b600181015460ff16600314156117705750506040805180820190915260118152704175646974656420456d697373696f6e7360781b6020820152610935565b600181015460ff16600414156117ac57505060408051808201909152600e81526d21b0b93137b7102a3930b1b5b2b960911b6020820152610935565b5050604080518082019091526014815273151bdad95b88191bd95cc81b9bdd08195e1a5cdd60621b6020820152610935565b50919050565b6001600160a01b03808516600090815260cf6020908152604080832093871683529290529081205485908590859085906118259063ffffffff16600161513c565b604051602001611839959493929190614b3d565b604051602081830303815290604052805190602001209050949350505050565b60ca546001600160a01b031633148061187857506118786000336119a0565b6118e25760405162461bcd60e51b815260206004820152603560248201527f434c4d383a3a69737375654f6e426568616c663a2063616c6c206d757374206360448201527437b6b290333937b6902220a79037b91030b236b4b760591b60648201526084016108dc565b6118f389898989898989898961295b565b505050505050505050565b600080600061190d8585610874565b60405163a0d975a760e01b81526001600160a01b038716600482015260248101869052909150600090309063a0d975a79060440160206040518083038186803b15801561195957600080fd5b505afa15801561196d573d6000803e3d6000fd5b505050506040513d601f19601f8201168201806040525081019061199191906149b8565b919350909150505b9250929050565b60009182526097602090815260408084206001600160a01b0393909316845291905290205460ff1690565b60006119d68261240b565b611a3e5760405162461bcd60e51b815260206004820152603360248201527f434c4d383a3a676574546f6b656e52657469726564416d6f756e743a20746f6b604482015272195b925908191bd95cc81b9bdd08195e1a5cdd606a1b60648201526084016108dc565b50600090815260cd602090815260408083206001600160a01b03949094168352929052205490565b6111573383836130b1565b611a7c6000336119a0565b611a985760405162461bcd60e51b81526004016108dc90614d4a565b60ca80546001600160a01b0319166001600160a01b0392909216919091179055565b611b3360405180610180016040528060008152602001600060ff16815260200160006001600160a01b0316815260200160006001600160a01b0316815260200160008152602001600081526020016000815260200160608152602001606081526020016060815260200160008152602001600081525090565b600082815260cc602090815260409182902082516101808101845281548152600182015460ff8116938201939093526001600160a01b036101009093048316938101939093526002810154909116606083015260038101546080830152600481015460a0830152600581015460c083015260068101805460e084019190611bb9906151ca565b80601f0160208091040260200160405190810160405280929190818152602001828054611be5906151ca565b8015611c325780601f10611c0757610100808354040283529160200191611c32565b820191906000526020600020905b815481529060010190602001808311611c1557829003601f168201915b50505050508152602001600782018054611c4b906151ca565b80601f0160208091040260200160405190810160405280929190818152602001828054611c77906151ca565b8015611cc45780601f10611c9957610100808354040283529160200191611cc4565b820191906000526020600020905b815481529060010190602001808311611ca757829003601f168201915b50505050508152602001600882018054611cdd906151ca565b80601f0160208091040260200160405190810160405280929190818152602001828054611d09906151ca565b8015611d565780601f10611d2b57610100808354040283529160200191611d56565b820191906000526020600020905b815481529060010190602001808311611d3957829003601f168201915b5050505050815260200160098201548152602001600a820154815250509050919050565b600054610100900460ff16611d955760005460ff1615611d99565b303b155b611dfc5760405162461bcd60e51b815260206004820152602e60248201527f496e697469616c697a61626c653a20636f6e747261637420697320616c72656160448201526d191e481a5b9a5d1a585b1a5e995960921b60648201526084016108dc565b600054610100900460ff16158015611e1e576000805461ffff19166101011790555b611e3660405180602001604052806000815250613192565b611e5c6000805160206153b58339815191526000805160206153d58339815191526131c5565b611e67600083612401565b611e7f6000805160206153d583398151915283612401565b611e9760008051602061541583398151915283612401565b611eaf60008051602061537583398151915283612401565b611ec760008051602061543583398151915283612401565b611edf60008051602061539583398151915283612401565b611ef760008051602061535583398151915283612401565b60c9805460ca80546001600160a01b03191690556001600160a81b0319166101006001600160a01b0385160260ff19161790558015611157576000805461ff00191690555050565b6040805160e081018252600080825260208201819052918101829052606081018290526080810182905260a0810182905260c08101919091526040805160e081018252600080825260208201819052918101829052606081018290526080810182905260a0810182905260c0810191909152611fbc6000846119a0565b15158152611fd8600080516020615415833981519152846119a0565b15156040820152611ff7600080516020615375833981519152846119a0565b15156060820152612016600080516020615435833981519152846119a0565b15156080820152612035600080516020615355833981519152846119a0565b151560a08201526120546000805160206153b5833981519152846119a0565b15156020820152612073600080516020615395833981519152846119a0565b151560c082015292915050565b60008281526097602052604090206001015461209c8133610e9f565b610ac283836128f4565b6120b16000336119a0565b6120cd5760405162461bcd60e51b81526004016108dc90614d4a565b60c9805460ff1916911515919091179055565b6120eb6000336119a0565b6121075760405162461bcd60e51b81526004016108dc90614d4a565b612110816128b6565b6121775760405162461bcd60e51b815260206004820152603260248201527f434c4d383a3a756e72656769737465724465616c65723a20746f6b656e54797060448201527119525908191bd95cc81b9bdd08195e1a5cdd60721b60648201526084016108dc565b8060ff16600114156121a05761219b60008051602061541583398151915283612080565b61220c565b8060ff16600214156121c45761219b60008051602061537583398151915283612080565b8060ff16600314156121e85761219b60008051602061543583398151915283612080565b8060ff166004141561220c5761220c60008051602061539583398151915283612080565b6122158261159b565b612231576122316000805160206153d583398151915283612080565b6040516001600160a01b038316907f98552ded770f1d05a505572f3387c108dbc6b566ea3d49f83cff3d1f1c72a04290600090a25050565b6001600160a01b038516331480612285575061228585336107a8565b6122e35760405162461bcd60e51b815260206004820152602960248201527f455243313135353a2063616c6c6572206973206e6f74206f776e6572206e6f7260448201526808185c1c1c9bdd995960ba1b60648201526084016108dc565b610e808585858585613210565b600061230a6000805160206153d5833981519152836119a0565b8061232857506123286000805160206153b5833981519152836119a0565b8061160f575061160f600080516020615355833981519152836119a0565b60006001600160e01b03198216637965db0b60e01b1480610932575061093282613331565b6123836000805160206153d5833981519152336119a0565b806123a157506123a1600080516020615355833981519152336119a0565b6123ff5760405162461bcd60e51b815260206004820152602960248201527f434c4d383a3a6f6e6c794465616c65723a206d73672e73656e646572206e6f746044820152681030903232b0b632b960b91b60648201526084016108dc565b565b6111578282612830565b60008161241760cb5490565b1061161c57506001610935565b6001600160a01b0384166124845760405162461bcd60e51b815260206004820152602160248201527f455243313135353a206d696e7420746f20746865207a65726f206164647265736044820152607360f81b60648201526084016108dc565b336124a48160008761249588613381565b61249e88613381565b876133da565b60008481526065602090815260408083206001600160a01b0389168452909152812080548592906124d6908490615124565b909155505060408051858152602081018590526001600160a01b0380881692600092918516917fc3d58168c5ae7397731d063d5bbf3d657854427343f4c083240f7aacaa2d0f62910160405180910390a4610e80816000878787876138ca565b612541838383613a35565b600082815260cc60205260409020600a015461255d9082613bb2565b600083815260cc60209081526040808320600a019390935560cd81528282206001600160a01b0387168352905220546125969082613bb2565b600092835260cd602090815260408085206001600160a01b039096168552949052929091209190915550565b81518351146126245760405162461bcd60e51b815260206004820152602860248201527f455243313135353a2069647320616e6420616d6f756e7473206c656e677468206044820152670dad2e6dac2e8c6d60c31b60648201526084016108dc565b6001600160a01b03841661264a5760405162461bcd60e51b81526004016108dc90614dff565b336126598187878787876133da565b60005b845181101561275e57600085828151811061268757634e487b7160e01b600052603260045260246000fd5b6020026020010151905060008583815181106126b357634e487b7160e01b600052603260045260246000fd5b60209081029190910181015160008481526065835260408082206001600160a01b038e1683529093529190912054909150818110156127045760405162461bcd60e51b81526004016108dc90614e44565b60008381526065602090815260408083206001600160a01b038e8116855292528083208585039055908b16825281208054849290612743908490615124565b92505081905550505050806127579061522b565b905061265c565b50846001600160a01b0316866001600160a01b0316826001600160a01b03167f4a39dc06d4c0dbc64b70af90fd698a233a518aa5d07e595d983b8c0526c8f7fb87876040516127ae929190614cc1565b60405180910390a46127c4818787878787613bc5565b505050505050565b6127d682826119a0565b611157576127ee816001600160a01b03166014613c8f565b6127f9836020613c8f565b60405160200161280a929190614b96565b60408051601f198184030181529082905262461bcd60e51b82526108dc91600401614cef565b61283a82826119a0565b6111575760008281526097602090815260408083206001600160a01b03851684529091529020805460ff191660011790556128723390565b6001600160a01b0316816001600160a01b0316837f2f8788117e7eff1d82e926ec794901d17c78024a50270940304540a733656f0d60405160405180910390a45050565b6000808260ff1611801561160f575060048260ff161161161c57506001610935565b60008060006128e78585613e70565b9150915061147181613edd565b6128fe82826119a0565b156111575760008281526097602090815260408083206001600160a01b0385168085529252808320805460ff1916905551339285917ff6391f5c32d9c69d2a47ea670b442974b53935d1edc7fd64eb21e047a839171b9190a45050565b612964876128b6565b6129bc5760405162461bcd60e51b8152602060048201526024808201527f434c4d383a3a5f69737375653a20746f6b656e54797065496420697320696e76604482015263185b1a5960e21b60648201526084016108dc565b60c95460ff1615612c03578660ff16600114806129dc57508660ff166002145b15612b665760ca546001600160a01b03163314612a525760405162461bcd60e51b815260206004820152602e60248201527f434c4d383a3a5f6973737565286c696d69746564293a206d73672e73656e646560448201526d72206e6f742074696d656c6f636b60901b60648201526084016108dc565b612a5d60008a6119a0565b612ab95760405162461bcd60e51b815260206004820152602760248201527f434c4d383a3a5f6973737565286c696d69746564293a20697373756565206e6f6044820152663a1030b236b4b760c91b60648201526084016108dc565b612ad1600080516020615415833981519152896119a0565b80612aef5750612aef600080516020615375833981519152896119a0565b612b615760405162461bcd60e51b815260206004820152603760248201527f434c4d383a3a5f6973737565286c696d69746564293a2070726f706f7365722060448201527f6e6f7420612072656769737465726564206465616c657200000000000000000060648201526084016108dc565b612bfe565b8660ff1660031415612bfe57612b8a600080516020615435833981519152896119a0565b612bfe576040805162461bcd60e51b81526020600482015260248101919091527f434c4d383a3a5f6973737565286c696d69746564293a20697373756572206e6f60448201527f742061207265676973746572656420656d697373696f6e732061756469746f7260648201526084016108dc565b612d78565b8660ff1660011415612c7a57612c27600080516020615415833981519152896119a0565b612bfe5760405162461bcd60e51b815260206004820152603060248201526000805160206153f583398151915260448201526f3a32b932b2102922a1903232b0b632b960811b60648201526084016108dc565b8660ff1660021415612cf457612c9e600080516020615375833981519152896119a0565b612bfe5760405162461bcd60e51b815260206004820152603360248201526000805160206153f58339815191526044820152723a32b932b21037b33339b2ba103232b0b632b960691b60648201526084016108dc565b8660ff1660031415612d7857612d18600080516020615435833981519152896119a0565b612d785760405162461bcd60e51b815260206004820152603760248201526000805160206153f583398151915260448201527f746572656420656d697373696f6e732061756469746f7200000000000000000060648201526084016108dc565b8660ff1660041415612e7557612d9c600080516020615355833981519152896119a0565b612ded5760405162461bcd60e51b815260206004820152602e60248201526000805160206153f583398151915260448201526d746572656420696e64757374727960901b60648201526084016108dc565b336001600160a01b038a1614612e755760405162461bcd60e51b815260206004820152604160248201527f434c4d383a3a5f69737375653a207265676973746572656420696e647573747260448201527f792063616e206f6e6c7920697373756520636172626f6e20746f20697473656c6064820152603360f91b608482015260a4016108dc565b612e8360cb80546001019055565b600060cc6000612e9260cb5490565b81526020019081526020016000209050612eab60cb5490565b81556001810180546002830180546001600160a01b03808f166001600160a01b0319909216919091179091558b16610100026001600160a81b031990911660ff8b161717905560038101869055600481018590554260058201558351612f1a9060068301906020870190614245565b508251612f309060078301906020860190614245565b508151612f469060088301906020850190614245565b50600981018790556000600a820155612f788a612f6260cb5490565b8960405180602001604052806000815250612424565b8760ff1660031415612f9f5760028101548154612f9f916001600160a01b03169089612536565b8060020160009054906101000a90046001600160a01b03166001600160a01b03168160010160019054906101000a90046001600160a01b03166001600160a01b03167fde06d80d1bc821cc9dc0bfa600ff250c766a6841b2f404d7103ad55a85572acd8960cd60008660000154815260200190815260200160002060008660020160009054906101000a90046001600160a01b03166001600160a01b03166001600160a01b031681526020019081526020016000205485600001548660010160009054906101000a900460ff168760030154886004015489600501548a6006018b6007018c60080160405161309d9a99989796959493929190615085565b60405180910390a350505050505050505050565b816001600160a01b0316836001600160a01b031614156131255760405162461bcd60e51b815260206004820152602960248201527f455243313135353a2073657474696e6720617070726f76616c20737461747573604482015268103337b91039b2b63360b91b60648201526084016108dc565b6001600160a01b03838116600081815260666020908152604080832094871680845294825291829020805460ff191686151590811790915591519182527f17307eab39ab6107e8899845ad3d59bd9653f200f220920489ca2b5937696c31910160405180910390a3505050565b600054610100900460ff166131b95760405162461bcd60e51b81526004016108dc90614eeb565b6131c2816140e0565b50565b600082815260976020526040808220600101805490849055905190918391839186917fbd79b86ffe0ab8e8776151514217cd7cacd52c909f66475c3af44e129f0b00ff9190a4505050565b6001600160a01b0384166132365760405162461bcd60e51b81526004016108dc90614dff565b3361324681878761249588613381565b60008481526065602090815260408083206001600160a01b038a168452909152902054838110156132895760405162461bcd60e51b81526004016108dc90614e44565b60008581526065602090815260408083206001600160a01b038b81168552925280832087850390559088168252812080548692906132c8908490615124565b909155505060408051868152602081018690526001600160a01b03808916928a821692918616917fc3d58168c5ae7397731d063d5bbf3d657854427343f4c083240f7aacaa2d0f62910160405180910390a46133288288888888886138ca565b50505050505050565b60006001600160e01b03198216636cdb3d1360e11b148061336257506001600160e01b031982166303a24d0760e21b145b8061093257506301ffc9a760e01b6001600160e01b0319831614610932565b604080516001808252818301909252606091600091906020808301908036833701905050905082816000815181106133c957634e487b7160e01b600052603260045260246000fd5b602090810291909101015292915050565b84846001600160a01b03821615613410576133f4826122f0565b6134105760405162461bcd60e51b81526004016108dc90614e8e565b6001600160a01b0381161561344457613428816122f0565b6134445760405162461bcd60e51b81526004016108dc90614d93565b856001600160a01b0316876001600160a01b031614156134d75760405162461bcd60e51b815260206004820152604260248201527f434c4d383a3a5f6265666f7265546f6b656e5472616e736665723a2073656e6460448201527f657220616e642072656365697665722063616e6e6f74206265207468652073616064820152616d6560f01b608482015260a4016108dc565b6000805b86518110156137c357600060cc600089848151811061350a57634e487b7160e01b600052603260045260246000fd5b60200260200101518152602001908152602001600020905060c960009054906101000a900460ff16156136d9576001600160a01b03891661354b57506137b1565b60018082015460ff1614806135675750600181015460ff166002145b156136195760ca546001600160a01b038c81169116148061358e575061358e60008c6119a0565b6136145760405162461bcd60e51b815260206004820152604b60248201527f434c4d383a3a5f6265666f7265546f6b656e5472616e73666572286c696d697460448201527f6564293a206f6e6c792061646d696e20616e642044414f2063616e207472616e60648201526a7366657220746f6b656e7360a81b608482015260a4016108dc565b6136d9565b600181015460ff16600314156136d9576136416000805160206154358339815191528c6119a0565b6136d95760405162461bcd60e51b815260206004820152605860248201527f434c4d383a3a5f6265666f7265546f6b656e5472616e73666572286c696d697460448201527f6564293a206f6e6c7920656d697373696f6e732061756469746f72732063616e60648201527f206973737565206175646974656420656d697373696f6e730000000000000000608482015260a4016108dc565b600181015460ff1660041480156136f857506001600160a01b03891615155b801561370c57506001600160a01b038a1615155b156137af576000925061378987838151811061373857634e487b7160e01b600052603260045260246000fd5b602002602001015160ce60008460000154815260200190815260200160002060008d6001600160a01b03166001600160a01b0316815260200190815260200160002054613bb290919063ffffffff16565b8154600090815260ce602090815260408083206001600160a01b038f1684529091529020555b505b806137bb8161522b565b9150506134db565b5080156118f35760006137d8898989896117e4565b90506137e581868a611040565b6138665760405162461bcd60e51b815260206004820152604660248201527f434c4d383a3a5f6265666f7265546f6b656e5472616e736665723a207265636560448201527f69766572277320617070726f76616c207369676e6174757265206973206e6f74606482015265081d985b1a5960d21b608482015260a4016108dc565b6001600160a01b03808a16600090815260cf60209081526040808320938c168352929052908120805463ffffffff169161389f83615246565b91906101000a81548163ffffffff021916908363ffffffff1602179055505050505050505050505050565b6001600160a01b0384163b156127c45760405163f23a6e6160e01b81526001600160a01b0385169063f23a6e619061390e9089908990889088908890600401614c69565b602060405180830381600087803b15801561392857600080fd5b505af1925050508015613958575060408051601f3d908101601f191682019092526139559181019061499c565b60015b613a0557613964615296565b806308c379a0141561399e57506139796152ad565b8061398457506139a0565b8060405162461bcd60e51b81526004016108dc9190614cef565b505b60405162461bcd60e51b815260206004820152603460248201527f455243313135353a207472616e7366657220746f206e6f6e20455243313135356044820152732932b1b2b4bb32b91034b6b83632b6b2b73a32b960611b60648201526084016108dc565b6001600160e01b0319811663f23a6e6160e01b146133285760405162461bcd60e51b81526004016108dc90614d02565b6001600160a01b038316613a975760405162461bcd60e51b815260206004820152602360248201527f455243313135353a206275726e2066726f6d20746865207a65726f206164647260448201526265737360e81b60648201526084016108dc565b33613ac681856000613aa887613381565b613ab187613381565b604051806020016040528060008152506133da565b60008381526065602090815260408083206001600160a01b038816845290915290205482811015613b455760405162461bcd60e51b8152602060048201526024808201527f455243313135353a206275726e20616d6f756e7420657863656564732062616c604482015263616e636560e01b60648201526084016108dc565b60008481526065602090815260408083206001600160a01b03898116808652918452828520888703905582518981529384018890529092908616917fc3d58168c5ae7397731d063d5bbf3d657854427343f4c083240f7aacaa2d0f62910160405180910390a45050505050565b6000613bbe8284615124565b9392505050565b6001600160a01b0384163b156127c45760405163bc197c8160e01b81526001600160a01b0385169063bc197c8190613c099089908990889088908890600401614c0b565b602060405180830381600087803b158015613c2357600080fd5b505af1925050508015613c53575060408051601f3d908101601f19168201909252613c509181019061499c565b60015b613c5f57613964615296565b6001600160e01b0319811663bc197c8160e01b146133285760405162461bcd60e51b81526004016108dc90614d02565b60606000613c9e836002615164565b613ca9906002615124565b6001600160401b03811115613cce57634e487b7160e01b600052604160045260246000fd5b6040519080825280601f01601f191660200182016040528015613cf8576020820181803683370190505b509050600360fc1b81600081518110613d2157634e487b7160e01b600052603260045260246000fd5b60200101906001600160f81b031916908160001a905350600f60fb1b81600181518110613d5e57634e487b7160e01b600052603260045260246000fd5b60200101906001600160f81b031916908160001a9053506000613d82846002615164565b613d8d906001615124565b90505b6001811115613e21576f181899199a1a9b1b9c1cb0b131b232b360811b85600f1660108110613dcf57634e487b7160e01b600052603260045260246000fd5b1a60f81b828281518110613df357634e487b7160e01b600052603260045260246000fd5b60200101906001600160f81b031916908160001a90535060049490941c93613e1a816151b3565b9050613d90565b508315613bbe5760405162461bcd60e51b815260206004820181905260248201527f537472696e67733a20686578206c656e67746820696e73756666696369656e7460448201526064016108dc565b600080825160411415613ea75760208301516040840151606085015160001a613e9b87828585614110565b94509450505050611999565b825160401415613ed15760208301516040840151613ec68683836141fd565b935093505050611999565b50600090506002611999565b6000816004811115613eff57634e487b7160e01b600052602160045260246000fd5b1415613f0a576131c2565b6001816004811115613f2c57634e487b7160e01b600052602160045260246000fd5b1415613f7a5760405162461bcd60e51b815260206004820152601860248201527f45434453413a20696e76616c6964207369676e6174757265000000000000000060448201526064016108dc565b6002816004811115613f9c57634e487b7160e01b600052602160045260246000fd5b1415613fea5760405162461bcd60e51b815260206004820152601f60248201527f45434453413a20696e76616c6964207369676e6174757265206c656e6774680060448201526064016108dc565b600381600481111561400c57634e487b7160e01b600052602160045260246000fd5b14156140655760405162461bcd60e51b815260206004820152602260248201527f45434453413a20696e76616c6964207369676e6174757265202773272076616c604482015261756560f01b60648201526084016108dc565b600481600481111561408757634e487b7160e01b600052602160045260246000fd5b14156131c25760405162461bcd60e51b815260206004820152602260248201527f45434453413a20696e76616c6964207369676e6174757265202776272076616c604482015261756560f01b60648201526084016108dc565b600054610100900460ff166141075760405162461bcd60e51b81526004016108dc90614eeb565b6131c281614236565b6000807f7fffffffffffffffffffffffffffffff5d576e7357a4501ddfe92f46681b20a083111561414757506000905060036141f4565b8460ff16601b1415801561415f57508460ff16601c14155b1561417057506000905060046141f4565b6040805160008082526020820180845289905260ff881692820192909252606081018690526080810185905260019060a0016020604051602081039080840390855afa1580156141c4573d6000803e3d6000fd5b5050604051601f1901519150506001600160a01b0381166141ed576000600192509250506141f4565b9150600090505b94509492505050565b6000806001600160ff1b0383168161421a60ff86901c601b615124565b905061422887828885614110565b935093505050935093915050565b80516111579060679060208401905b828054614251906151ca565b90600052602060002090601f01602090048101928261427357600085556142b9565b82601f1061428c57805160ff19168380011785556142b9565b828001600101855582156142b9579182015b828111156142b957825182559160200191906001019061429e565b506142c59291506142c9565b5090565b5b808211156142c557600081556001016142ca565b80356001600160a01b038116811461093557600080fd5b600082601f830112614305578081fd5b8135602061431282615101565b60405161431f82826151ff565b8381528281019150858301600585901b8701840188101561433e578586fd5b855b8581101561435c57813584529284019290840190600101614340565b5090979650505050505050565b8035801515811461093557600080fd5b600082601f830112614389578081fd5b81356001600160401b038111156143a2576143a2615280565b6040516143b9601f8301601f1916602001826151ff565b8181528460208386010111156143cd578283fd5b816020850160208301379081016020019190915292915050565b803560ff8116811461093557600080fd5b600060208284031215614409578081fd5b613bbe826142de565b60008060408385031215614424578081fd5b61442d836142de565b915061443b602084016142de565b90509250929050565b60008060008060808587031215614459578182fd5b614462856142de565b9350614470602086016142de565b925060408501356001600160401b038082111561448b578384fd5b614497888389016142f5565b935060608701359150808211156144ac578283fd5b506144b9878288016142f5565b91505092959194509250565b600080600080600060a086880312156144dc578081fd5b6144e5866142de565b94506144f3602087016142de565b935060408601356001600160401b038082111561450e578283fd5b61451a89838a016142f5565b9450606088013591508082111561452f578283fd5b61453b89838a016142f5565b93506080880135915080821115614550578283fd5b5061455d88828901614379565b9150509295509295909350565b600080600080600060a08688031215614581578081fd5b61458a866142de565b9450614598602087016142de565b9350604086013592506060860135915060808601356001600160401b038111156145c0578182fd5b61455d88828901614379565b60008060008060008060008060006101208a8c0312156145ea578384fd5b6145f38a6142de565b985061460160208b016142de565b975061460f60408b016143e7565b965060608a0135955060808a0135945060a08a0135935060c08a01356001600160401b038082111561463f578485fd5b61464b8d838e01614379565b945060e08c0135915080821115614660578384fd5b61466c8d838e01614379565b93506101008c0135915080821115614682578283fd5b5061468f8c828d01614379565b9150509295985092959850929598565b600080604083850312156146b1578182fd5b6146ba836142de565b915061443b60208401614369565b600080604083850312156146da578182fd5b6146e3836142de565b946020939093013593505050565b600080600060608486031215614705578081fd5b61470e846142de565b95602085013595506040909401359392505050565b60008060408385031215614735578182fd5b61473e836142de565b915061443b602084016143e7565b600080600080600080600080610100898b031215614768578182fd5b614771896142de565b975061477f60208a016143e7565b965060408901359550606089013594506080890135935060a08901356001600160401b03808211156147af578384fd5b6147bb8c838d01614379565b945060c08b01359150808211156147d0578384fd5b6147dc8c838d01614379565b935060e08b01359150808211156147f1578283fd5b506147fe8b828c01614379565b9150509295985092959890939650565b60008060408385031215614820578182fd5b82356001600160401b0380821115614836578384fd5b818501915085601f830112614849578384fd5b8135602061485682615101565b60405161486382826151ff565b8381528281019150858301600585901b870184018b1015614882578889fd5b8896505b848710156148ab57614897816142de565b835260019690960195918301918301614886565b50965050860135925050808211156148c1578283fd5b506148ce858286016142f5565b9150509250929050565b6000602082840312156148e9578081fd5b613bbe82614369565b600060208284031215614903578081fd5b5035919050565b6000806040838503121561491c578182fd5b8235915061443b602084016142de565b600080600060608486031215614940578081fd5b8335925060208401356001600160401b0381111561495c578182fd5b61496886828701614379565b925050614977604085016142de565b90509250925092565b600060208284031215614991578081fd5b8135613bbe8161533e565b6000602082840312156149ad578081fd5b8151613bbe8161533e565b6000602082840312156149c9578081fd5b5051919050565b600080604083850312156149e2578182fd5b50508035926020909101359150565b60008060408385031215614a03578182fd5b505080516020909101519092909150565b6000815180845260208085019450808401835b83811015614a4357815187529582019590820190600101614a27565b509495945050505050565b80516000906020808401838315614a4357815187529582019590820190600101614a27565b60008151808452614a8b816020860160208601615183565b601f01601f19169290920160200192915050565b8054600090600181811c9080831680614ab957607f831692505b6020808410821415614ad957634e487b7160e01b86526022600452602486fd5b83885260208801828015614af45760018114614b0557614b30565b60ff19871682528282019750614b30565b60008981526020902060005b87811015614b2a57815484820152908601908401614b11565b83019850505b5050505050505092915050565b60006bffffffffffffffffffffffff19808860601b168352808760601b16601484015250614b77614b716028840187614a4e565b85614a4e565b60e09390931b6001600160e01b03191683525050600401949350505050565b60007f416363657373436f6e74726f6c3a206163636f756e742000000000000000000082528351614bce816017850160208801615183565b7001034b99036b4b9b9b4b733903937b6329607d1b6017918401918201528351614bff816028840160208801615183565b01602801949350505050565b6001600160a01b0386811682528516602082015260a060408201819052600090614c3790830186614a14565b8281036060840152614c498186614a14565b90508281036080840152614c5d8185614a73565b98975050505050505050565b6001600160a01b03868116825285166020820152604081018490526060810183905260a060808201819052600090614ca390830184614a73565b979650505050505050565b600060208252613bbe6020830184614a14565b600060408252614cd46040830185614a14565b8281036020840152614ce68185614a14565b95945050505050565b600060208252613bbe6020830184614a73565b60208082526028908201527f455243313135353a204552433131353552656365697665722072656a656374656040820152676420746f6b656e7360c01b606082015260800190565b60208082526029908201527f434c4d383a3a6f6e6c7941646d696e3a206d73672e73656e646572206e6f74206040820152683a34329030b236b4b760b91b606082015260800190565b60208082526046908201527f434c4d383a3a636f6e73756d65724f724465616c65723a20726563697069656e60408201527f74206d75737420626520636f6e73756d65722c206465616c6572206f7220696e60608201526564757374727960d01b608082015260a00190565b60208082526025908201527f455243313135353a207472616e7366657220746f20746865207a65726f206164604082015264647265737360d81b606082015260800190565b6020808252602a908201527f455243313135353a20696e73756666696369656e742062616c616e636520666f60408201526939103a3930b739b332b960b11b606082015260800190565b60208082526039908201527f434c4d383a3a636f6e73756d65724f724465616c65723a2073656e646572206e60408201527f6f74206120636f6e73756d6572206f722061206465616c657200000000000000606082015260800190565b6020808252602b908201527f496e697469616c697a61626c653a20636f6e7472616374206973206e6f74206960408201526a6e697469616c697a696e6760a81b606082015260800190565b600060208252825160208301526020830151614f57604084018260ff169052565b5060408301516001600160a01b03811660608401525060608301516001600160a01b038116608084015250608083015160a083015260a083015160c083015260c083015160e083015260e08301516101806101008181860152614fbe6101a0860184614a73565b9250808601519050601f19610120818786030181880152614fdf8584614a73565b945080880151925050610140818786030181880152614ffe8584614a73565b908801516101608881019190915290970151929095019190915250929392505050565b600060e08201905082511515825260208301511515602083015260408301511515604083015260608301511515606083015260808301511515608083015260a0830151151560a083015260c083015161507e60c084018215159052565b5092915050565b60006101408c83528b60208401528a604084015260ff8a1660608401528860808401528760a08401528660c08401528060e08401526150c681840187614a9f565b90508281036101008401526150db8186614a9f565b90508281036101208401526150f08185614a9f565b9d9c50505050505050505050505050565b60006001600160401b0382111561511a5761511a615280565b5060051b60200190565b600082198211156151375761513761526a565b500190565b600063ffffffff80831681851680830382111561515b5761515b61526a565b01949350505050565b600081600019048311821515161561517e5761517e61526a565b500290565b60005b8381101561519e578181015183820152602001615186565b838111156151ad576000848401525b50505050565b6000816151c2576151c261526a565b506000190190565b600181811c908216806151de57607f821691505b602082108114156117de57634e487b7160e01b600052602260045260246000fd5b601f8201601f191681016001600160401b038111828210171561522457615224615280565b6040525050565b600060001982141561523f5761523f61526a565b5060010190565b600063ffffffff808316818114156152605761526061526a565b6001019392505050565b634e487b7160e01b600052601160045260246000fd5b634e487b7160e01b600052604160045260246000fd5b600060033d111561157557600481823e5160e01c90565b600060443d10156152bd57611575565b6040516003193d81016004833e81513d6001600160401b0381602484011181841117156152ee575050505050611575565b828501915081518181111561530857505050505050611575565b843d870101602082850101111561532457505050505050611575565b615333602082860101876151ff565b509094505050505090565b6001600160e01b0319811681146131c257600080fdfe8305613dd3dbc3e0773e56336f52890c75fc1219c6ed3f363339b8ada04df289ede6574deba8f02ada7888448a497b08844d62e044ed533343a673be3ffcde5ff047c8eb56a4fb9b90290fc55ce546369985412ba2348c56342b7afbf87ec1a65e1aa547d3dade8c68b013a47ad41c2bcc9b9e4b0765b0fb616780e15786e76af8890eedd7900ad88da6192fd03dbb69dbeee963b1a0ed738abe49ab3331aaf3434c4d383a3a5f69737375653a20697373756572206e6f7420612072656769732ab9f1da92e74aaa01eb75a871557505b11dd8d36832a34bb21bbee88b08d860e97dad3dbe5042e7384b1572cf966a15e089576a62b5126c5ef1d184ab18b12ca2646970667358221220d55078ec6ae087d916d02c78371b6ca01e9357b57d093e0473a9afa67efda48464736f6c63430008030033",
  "linkReferences": {},
  "deployedLinkReferences": {}
}