{
  "_format": "hh-sol-artifact-1",
  "contractName": "NetEmissionsTokenNetwork",
  "sourceName": "contracts/NetEmissionsTokenNetwork.sol",
  "abi": [
    {
      "anonymous": false,
      "inputs": [
        {
          "indexed": true,
          "internalType": "address",
          "name": "account",
          "type": "address"
        },
        {
          "indexed": true,
          "internalType": "address",
          "name": "operator",
          "type": "address"
        },
        {
          "indexed": false,
          "internalType": "bool",
          "name": "approved",
          "type": "bool"
        }
      ],
      "name": "ApprovalForAll",
      "type": "event"
    },
    {
      "anonymous": false,
      "inputs": [
        {
          "indexed": true,
          "internalType": "address",
          "name": "account",
          "type": "address"
        }
      ],
      "name": "RegisteredConsumer",
      "type": "event"
    },
    {
      "anonymous": false,
      "inputs": [
        {
          "indexed": true,
          "internalType": "address",
          "name": "account",
          "type": "address"
        }
      ],
      "name": "RegisteredDealer",
      "type": "event"
    },
    {
      "anonymous": false,
      "inputs": [
        {
          "indexed": true,
          "internalType": "address",
          "name": "account",
          "type": "address"
        }
      ],
      "name": "RegisteredIndustry",
      "type": "event"
    },
    {
      "anonymous": false,
      "inputs": [
        {
          "indexed": true,
          "internalType": "bytes32",
          "name": "role",
          "type": "bytes32"
        },
        {
          "indexed": true,
          "internalType": "bytes32",
          "name": "previousAdminRole",
          "type": "bytes32"
        },
        {
          "indexed": true,
          "internalType": "bytes32",
          "name": "newAdminRole",
          "type": "bytes32"
        }
      ],
      "name": "RoleAdminChanged",
      "type": "event"
    },
    {
      "anonymous": false,
      "inputs": [
        {
          "indexed": true,
          "internalType": "bytes32",
          "name": "role",
          "type": "bytes32"
        },
        {
          "indexed": true,
          "internalType": "address",
          "name": "account",
          "type": "address"
        },
        {
          "indexed": true,
          "internalType": "address",
          "name": "sender",
          "type": "address"
        }
      ],
      "name": "RoleGranted",
      "type": "event"
    },
    {
      "anonymous": false,
      "inputs": [
        {
          "indexed": true,
          "internalType": "bytes32",
          "name": "role",
          "type": "bytes32"
        },
        {
          "indexed": true,
          "internalType": "address",
          "name": "account",
          "type": "address"
        },
        {
          "indexed": true,
          "internalType": "address",
          "name": "sender",
          "type": "address"
        }
      ],
      "name": "RoleRevoked",
      "type": "event"
    },
    {
      "anonymous": false,
      "inputs": [
        {
          "indexed": false,
          "internalType": "uint256",
          "name": "availableBalance",
          "type": "uint256"
        },
        {
          "indexed": false,
          "internalType": "uint256",
          "name": "retiredBalance",
          "type": "uint256"
        },
        {
          "indexed": false,
          "internalType": "uint256",
          "name": "tokenId",
          "type": "uint256"
        },
        {
          "indexed": false,
          "internalType": "uint8",
          "name": "tokenTypeId",
          "type": "uint8"
        },
        {
          "indexed": true,
          "internalType": "address",
          "name": "issuer",
          "type": "address"
        },
        {
          "indexed": true,
          "internalType": "address",
          "name": "issuee",
          "type": "address"
        },
        {
          "indexed": false,
          "internalType": "uint256",
          "name": "fromDate",
          "type": "uint256"
        },
        {
          "indexed": false,
          "internalType": "uint256",
          "name": "thruDate",
          "type": "uint256"
        },
        {
          "indexed": false,
          "internalType": "uint256",
          "name": "dateCreated",
          "type": "uint256"
        },
        {
          "indexed": false,
          "internalType": "string",
          "name": "metadata",
          "type": "string"
        },
        {
          "indexed": false,
          "internalType": "string",
          "name": "manifest",
          "type": "string"
        },
        {
          "indexed": false,
          "internalType": "string",
          "name": "description",
          "type": "string"
        }
      ],
      "name": "TokenCreated",
      "type": "event"
    },
    {
      "anonymous": false,
      "inputs": [
        {
          "indexed": true,
          "internalType": "address",
          "name": "account",
          "type": "address"
        },
        {
          "indexed": false,
          "internalType": "uint256",
          "name": "tokenId",
          "type": "uint256"
        },
        {
          "indexed": false,
          "internalType": "uint256",
          "name": "amount",
          "type": "uint256"
        }
      ],
      "name": "TokenRetired",
      "type": "event"
    },
    {
      "anonymous": false,
      "inputs": [
        {
          "indexed": true,
          "internalType": "address",
          "name": "operator",
          "type": "address"
        },
        {
          "indexed": true,
          "internalType": "address",
          "name": "from",
          "type": "address"
        },
        {
          "indexed": true,
          "internalType": "address",
          "name": "to",
          "type": "address"
        },
        {
          "indexed": false,
          "internalType": "uint256[]",
          "name": "ids",
          "type": "uint256[]"
        },
        {
          "indexed": false,
          "internalType": "uint256[]",
          "name": "values",
          "type": "uint256[]"
        }
      ],
      "name": "TransferBatch",
      "type": "event"
    },
    {
      "anonymous": false,
      "inputs": [
        {
          "indexed": true,
          "internalType": "address",
          "name": "operator",
          "type": "address"
        },
        {
          "indexed": true,
          "internalType": "address",
          "name": "from",
          "type": "address"
        },
        {
          "indexed": true,
          "internalType": "address",
          "name": "to",
          "type": "address"
        },
        {
          "indexed": false,
          "internalType": "uint256",
          "name": "id",
          "type": "uint256"
        },
        {
          "indexed": false,
          "internalType": "uint256",
          "name": "value",
          "type": "uint256"
        }
      ],
      "name": "TransferSingle",
      "type": "event"
    },
    {
      "anonymous": false,
      "inputs": [
        {
          "indexed": false,
          "internalType": "string",
          "name": "value",
          "type": "string"
        },
        {
          "indexed": true,
          "internalType": "uint256",
          "name": "id",
          "type": "uint256"
        }
      ],
      "name": "URI",
      "type": "event"
    },
    {
      "anonymous": false,
      "inputs": [
        {
          "indexed": true,
          "internalType": "address",
          "name": "account",
          "type": "address"
        }
      ],
      "name": "UnregisteredConsumer",
      "type": "event"
    },
    {
      "anonymous": false,
      "inputs": [
        {
          "indexed": true,
          "internalType": "address",
          "name": "account",
          "type": "address"
        }
      ],
      "name": "UnregisteredDealer",
      "type": "event"
    },
    {
      "anonymous": false,
      "inputs": [
        {
          "indexed": true,
          "internalType": "address",
          "name": "account",
          "type": "address"
        }
      ],
      "name": "UnregisteredIndustry",
      "type": "event"
    },
    {
      "inputs": [],
      "name": "DEFAULT_ADMIN_ROLE",
      "outputs": [
        {
          "internalType": "bytes32",
          "name": "",
          "type": "bytes32"
        }
      ],
      "stateMutability": "view",
      "type": "function"
    },
    {
      "inputs": [],
      "name": "REGISTERED_CONSUMER",
      "outputs": [
        {
          "internalType": "bytes32",
          "name": "",
          "type": "bytes32"
        }
      ],
      "stateMutability": "view",
      "type": "function"
    },
    {
      "inputs": [],
      "name": "REGISTERED_DEALER",
      "outputs": [
        {
          "internalType": "bytes32",
          "name": "",
          "type": "bytes32"
        }
      ],
      "stateMutability": "view",
      "type": "function"
    },
    {
      "inputs": [],
      "name": "REGISTERED_EMISSIONS_AUDITOR",
      "outputs": [
        {
          "internalType": "bytes32",
          "name": "",
          "type": "bytes32"
        }
      ],
      "stateMutability": "view",
      "type": "function"
    },
    {
      "inputs": [],
      "name": "REGISTERED_INDUSTRY",
      "outputs": [
        {
          "internalType": "bytes32",
          "name": "",
          "type": "bytes32"
        }
      ],
      "stateMutability": "view",
      "type": "function"
    },
    {
      "inputs": [],
      "name": "REGISTERED_INDUSTRY_DEALER",
      "outputs": [
        {
          "internalType": "bytes32",
          "name": "",
          "type": "bytes32"
        }
      ],
      "stateMutability": "view",
      "type": "function"
    },
    {
      "inputs": [],
      "name": "REGISTERED_OFFSET_DEALER",
      "outputs": [
        {
          "internalType": "bytes32",
          "name": "",
          "type": "bytes32"
        }
      ],
      "stateMutability": "view",
      "type": "function"
    },
    {
      "inputs": [],
      "name": "REGISTERED_REC_DEALER",
      "outputs": [
        {
          "internalType": "bytes32",
          "name": "",
          "type": "bytes32"
        }
      ],
      "stateMutability": "view",
      "type": "function"
    },
    {
      "inputs": [
        {
          "internalType": "address",
          "name": "entity",
          "type": "address"
        }
      ],
      "name": "_consumerOrDealer",
      "outputs": [
        {
          "internalType": "bool",
          "name": "",
          "type": "bool"
        }
      ],
      "stateMutability": "view",
      "type": "function"
    },
    {
      "inputs": [],
      "name": "admin",
      "outputs": [
        {
          "internalType": "address",
          "name": "",
          "type": "address"
        }
      ],
      "stateMutability": "view",
      "type": "function"
    },
    {
      "inputs": [
        {
          "internalType": "address",
          "name": "account",
          "type": "address"
        },
        {
          "internalType": "uint256",
          "name": "id",
          "type": "uint256"
        }
      ],
      "name": "balanceOf",
      "outputs": [
        {
          "internalType": "uint256",
          "name": "",
          "type": "uint256"
        }
      ],
      "stateMutability": "view",
      "type": "function"
    },
    {
      "inputs": [
        {
          "internalType": "address[]",
          "name": "accounts",
          "type": "address[]"
        },
        {
          "internalType": "uint256[]",
          "name": "ids",
          "type": "uint256[]"
        }
      ],
      "name": "balanceOfBatch",
      "outputs": [
        {
          "internalType": "uint256[]",
          "name": "",
          "type": "uint256[]"
        }
      ],
      "stateMutability": "view",
      "type": "function"
    },
    {
      "inputs": [
        {
          "internalType": "address",
          "name": "account",
          "type": "address"
        },
        {
          "internalType": "uint256",
          "name": "tokenId",
          "type": "uint256"
        }
      ],
      "name": "getAvailableAndRetired",
      "outputs": [
        {
          "internalType": "uint256",
          "name": "",
          "type": "uint256"
        },
        {
          "internalType": "uint256",
          "name": "",
          "type": "uint256"
        }
      ],
      "stateMutability": "view",
      "type": "function"
    },
    {
      "inputs": [
        {
          "internalType": "address",
          "name": "account",
          "type": "address"
        },
        {
          "internalType": "uint256",
          "name": "tokenId",
          "type": "uint256"
        }
      ],
      "name": "getAvailableRetiredAndTransferred",
      "outputs": [
        {
          "internalType": "uint256",
          "name": "",
          "type": "uint256"
        },
        {
          "internalType": "uint256",
          "name": "",
          "type": "uint256"
        },
        {
          "internalType": "uint256",
          "name": "",
          "type": "uint256"
        }
      ],
      "stateMutability": "view",
      "type": "function"
    },
    {
      "inputs": [
        {
          "internalType": "uint256",
          "name": "tokenId",
          "type": "uint256"
        }
      ],
      "name": "getIssuer",
      "outputs": [
        {
          "internalType": "address",
          "name": "",
          "type": "address"
        }
      ],
      "stateMutability": "view",
      "type": "function"
    },
    {
      "inputs": [],
      "name": "getNumOfUniqueTokens",
      "outputs": [
        {
          "internalType": "uint256",
          "name": "",
          "type": "uint256"
        }
      ],
      "stateMutability": "view",
      "type": "function"
    },
    {
      "inputs": [
        {
          "internalType": "uint256",
          "name": "tokenId",
          "type": "uint256"
        },
        {
          "internalType": "address",
          "name": "account",
          "type": "address"
        }
      ],
      "name": "getRetiredBalances",
      "outputs": [
        {
          "internalType": "uint256",
          "name": "",
          "type": "uint256"
        }
      ],
      "stateMutability": "view",
      "type": "function"
    },
    {
      "inputs": [
        {
          "internalType": "bytes32",
          "name": "role",
          "type": "bytes32"
        }
      ],
      "name": "getRoleAdmin",
      "outputs": [
        {
          "internalType": "bytes32",
          "name": "",
          "type": "bytes32"
        }
      ],
      "stateMutability": "view",
      "type": "function"
    },
    {
      "inputs": [
        {
          "internalType": "address",
          "name": "account",
          "type": "address"
        }
      ],
      "name": "getRoles",
      "outputs": [
        {
          "internalType": "bool",
          "name": "",
          "type": "bool"
        },
        {
          "internalType": "bool",
          "name": "",
          "type": "bool"
        },
        {
          "internalType": "bool",
          "name": "",
          "type": "bool"
        },
        {
          "internalType": "bool",
          "name": "",
          "type": "bool"
        },
        {
          "internalType": "bool",
          "name": "",
          "type": "bool"
        },
        {
          "internalType": "bool",
          "name": "",
          "type": "bool"
        }
      ],
      "stateMutability": "view",
      "type": "function"
    },
    {
      "inputs": [
        {
          "internalType": "uint256",
          "name": "tokenId",
          "type": "uint256"
        }
      ],
      "name": "getTokenDetails",
      "outputs": [
        {
          "components": [
            {
              "internalType": "uint256",
              "name": "tokenId",
              "type": "uint256"
            },
            {
              "internalType": "uint8",
              "name": "tokenTypeId",
              "type": "uint8"
            },
            {
              "internalType": "address",
              "name": "issuer",
              "type": "address"
            },
            {
              "internalType": "address",
              "name": "issuee",
              "type": "address"
            },
            {
              "internalType": "uint256",
              "name": "fromDate",
              "type": "uint256"
            },
            {
              "internalType": "uint256",
              "name": "thruDate",
              "type": "uint256"
            },
            {
              "internalType": "uint256",
              "name": "dateCreated",
              "type": "uint256"
            },
            {
              "internalType": "string",
              "name": "metadata",
              "type": "string"
            },
            {
              "internalType": "string",
              "name": "manifest",
              "type": "string"
            },
            {
              "internalType": "string",
              "name": "description",
              "type": "string"
            },
            {
              "internalType": "uint256",
              "name": "totalIssued",
              "type": "uint256"
            },
            {
              "internalType": "uint256",
              "name": "totalRetired",
              "type": "uint256"
            }
          ],
          "internalType": "struct NetEmissionsTokenNetwork.CarbonTokenDetails",
          "name": "",
          "type": "tuple"
        }
      ],
      "stateMutability": "view",
      "type": "function"
    },
    {
      "inputs": [
        {
          "internalType": "address",
          "name": "account",
          "type": "address"
        },
        {
          "internalType": "uint256",
          "name": "tokenId",
          "type": "uint256"
        }
      ],
      "name": "getTokenRetiredAmount",
      "outputs": [
        {
          "internalType": "uint256",
          "name": "",
          "type": "uint256"
        }
      ],
      "stateMutability": "view",
      "type": "function"
    },
    {
      "inputs": [
        {
          "internalType": "uint256",
          "name": "tokenId",
          "type": "uint256"
        }
      ],
      "name": "getTokenType",
      "outputs": [
        {
          "internalType": "string",
          "name": "",
          "type": "string"
        }
      ],
      "stateMutability": "view",
      "type": "function"
    },
    {
      "inputs": [
        {
          "internalType": "uint256",
          "name": "tokenId",
          "type": "uint256"
        }
      ],
      "name": "getTokenTypeId",
      "outputs": [
        {
          "internalType": "uint8",
          "name": "",
          "type": "uint8"
        }
      ],
      "stateMutability": "view",
      "type": "function"
    },
    {
      "inputs": [
        {
          "internalType": "address",
          "name": "_from",
          "type": "address"
        },
        {
          "internalType": "address",
          "name": "_to",
          "type": "address"
        },
        {
          "internalType": "uint256[]",
          "name": "_ids",
          "type": "uint256[]"
        },
        {
          "internalType": "uint256[]",
          "name": "_amounts",
          "type": "uint256[]"
        }
      ],
      "name": "getTransferHash",
      "outputs": [
        {
          "internalType": "bytes32",
          "name": "",
          "type": "bytes32"
        }
      ],
      "stateMutability": "view",
      "type": "function"
    },
    {
      "inputs": [
        {
          "internalType": "uint256",
          "name": "tokenId",
          "type": "uint256"
        },
        {
          "internalType": "address",
          "name": "account",
          "type": "address"
        }
      ],
      "name": "getTransferredBalances",
      "outputs": [
        {
          "internalType": "uint256",
          "name": "",
          "type": "uint256"
        }
      ],
      "stateMutability": "view",
      "type": "function"
    },
    {
      "inputs": [
        {
          "internalType": "bytes32",
          "name": "role",
          "type": "bytes32"
        },
        {
          "internalType": "address",
          "name": "account",
          "type": "address"
        }
      ],
      "name": "grantRole",
      "outputs": [],
      "stateMutability": "nonpayable",
      "type": "function"
    },
    {
      "inputs": [
        {
          "internalType": "bytes32",
          "name": "role",
          "type": "bytes32"
        },
        {
          "internalType": "address",
          "name": "account",
          "type": "address"
        }
      ],
      "name": "hasRole",
      "outputs": [
        {
          "internalType": "bool",
          "name": "",
          "type": "bool"
        }
      ],
      "stateMutability": "view",
      "type": "function"
    },
    {
      "inputs": [
        {
          "internalType": "address",
          "name": "_admin",
          "type": "address"
        }
      ],
      "name": "initialize",
      "outputs": [],
      "stateMutability": "nonpayable",
      "type": "function"
    },
    {
      "inputs": [
        {
          "internalType": "address",
          "name": "account",
          "type": "address"
        },
        {
          "internalType": "address",
          "name": "operator",
          "type": "address"
        }
      ],
      "name": "isApprovedForAll",
      "outputs": [
        {
          "internalType": "bool",
          "name": "",
          "type": "bool"
        }
      ],
      "stateMutability": "view",
      "type": "function"
    },
    {
      "inputs": [
        {
          "internalType": "address",
          "name": "auditor",
          "type": "address"
        }
      ],
      "name": "isAuditor",
      "outputs": [
        {
          "internalType": "bool",
          "name": "",
          "type": "bool"
        }
      ],
      "stateMutability": "view",
      "type": "function"
    },
    {
      "inputs": [
        {
          "internalType": "address",
          "name": "account",
          "type": "address"
        }
      ],
      "name": "isConsumerRegistered",
      "outputs": [
        {
          "internalType": "bool",
          "name": "",
          "type": "bool"
        }
      ],
      "stateMutability": "view",
      "type": "function"
    },
    {
      "inputs": [
        {
          "internalType": "address",
          "name": "account",
          "type": "address"
        }
      ],
      "name": "isDealerRegistered",
      "outputs": [
        {
          "internalType": "bool",
          "name": "",
          "type": "bool"
        }
      ],
      "stateMutability": "view",
      "type": "function"
    },
    {
      "inputs": [
        {
          "internalType": "address",
          "name": "issuee",
          "type": "address"
        },
        {
          "internalType": "uint8",
          "name": "tokenTypeId",
          "type": "uint8"
        },
        {
          "internalType": "uint256",
          "name": "quantity",
          "type": "uint256"
        },
        {
          "internalType": "uint256",
          "name": "fromDate",
          "type": "uint256"
        },
        {
          "internalType": "uint256",
          "name": "thruDate",
          "type": "uint256"
        },
        {
          "internalType": "string",
          "name": "metadata",
          "type": "string"
        },
        {
          "internalType": "string",
          "name": "manifest",
          "type": "string"
        },
        {
          "internalType": "string",
          "name": "description",
          "type": "string"
        }
      ],
      "name": "issue",
      "outputs": [],
      "stateMutability": "nonpayable",
      "type": "function"
    },
    {
      "inputs": [
        {
          "internalType": "address",
          "name": "issuee",
          "type": "address"
        },
        {
          "internalType": "address",
          "name": "issuer",
          "type": "address"
        },
        {
          "internalType": "uint8",
          "name": "tokenTypeId",
          "type": "uint8"
        },
        {
          "internalType": "uint256",
          "name": "quantity",
          "type": "uint256"
        },
        {
          "internalType": "uint256",
          "name": "fromDate",
          "type": "uint256"
        },
        {
          "internalType": "uint256",
          "name": "thruDate",
          "type": "uint256"
        },
        {
          "internalType": "string",
          "name": "metadata",
          "type": "string"
        },
        {
          "internalType": "string",
          "name": "manifest",
          "type": "string"
        },
        {
          "internalType": "string",
          "name": "description",
          "type": "string"
        }
      ],
      "name": "issueOnBehalf",
      "outputs": [],
      "stateMutability": "nonpayable",
      "type": "function"
    },
    {
      "inputs": [],
      "name": "limitedMode",
      "outputs": [
        {
          "internalType": "bool",
          "name": "",
          "type": "bool"
        }
      ],
      "stateMutability": "view",
      "type": "function"
    },
    {
      "inputs": [
        {
          "internalType": "address",
          "name": "to",
          "type": "address"
        },
        {
          "internalType": "uint256",
          "name": "tokenId",
          "type": "uint256"
        },
        {
          "internalType": "uint256",
          "name": "quantity",
          "type": "uint256"
        }
      ],
      "name": "mint",
      "outputs": [],
      "stateMutability": "nonpayable",
      "type": "function"
    },
    {
      "inputs": [
        {
          "internalType": "address",
          "name": "account",
          "type": "address"
        }
      ],
      "name": "registerConsumer",
      "outputs": [],
      "stateMutability": "nonpayable",
      "type": "function"
    },
    {
      "inputs": [
        {
          "internalType": "address",
          "name": "account",
          "type": "address"
        },
        {
          "internalType": "uint8",
          "name": "tokenTypeId",
          "type": "uint8"
        }
      ],
      "name": "registerDealer",
      "outputs": [],
      "stateMutability": "nonpayable",
      "type": "function"
    },
    {
      "inputs": [
        {
          "internalType": "address",
          "name": "account",
          "type": "address"
        }
      ],
      "name": "registerIndustry",
      "outputs": [],
      "stateMutability": "nonpayable",
      "type": "function"
    },
    {
      "inputs": [
        {
          "internalType": "bytes32",
          "name": "role",
          "type": "bytes32"
        },
        {
          "internalType": "address",
          "name": "account",
          "type": "address"
        }
      ],
      "name": "renounceRole",
      "outputs": [],
      "stateMutability": "nonpayable",
      "type": "function"
    },
    {
      "inputs": [
        {
          "internalType": "uint256",
          "name": "tokenId",
          "type": "uint256"
        },
        {
          "internalType": "uint256",
          "name": "amount",
          "type": "uint256"
        }
      ],
      "name": "retire",
      "outputs": [],
      "stateMutability": "nonpayable",
      "type": "function"
    },
    {
      "inputs": [
        {
          "internalType": "bytes32",
          "name": "role",
          "type": "bytes32"
        },
        {
          "internalType": "address",
          "name": "account",
          "type": "address"
        }
      ],
      "name": "revokeRole",
      "outputs": [],
      "stateMutability": "nonpayable",
      "type": "function"
    },
    {
      "inputs": [
        {
          "internalType": "address",
          "name": "from",
          "type": "address"
        },
        {
          "internalType": "address",
          "name": "to",
          "type": "address"
        },
        {
          "internalType": "uint256[]",
          "name": "ids",
          "type": "uint256[]"
        },
        {
          "internalType": "uint256[]",
          "name": "amounts",
          "type": "uint256[]"
        },
        {
          "internalType": "bytes",
          "name": "data",
          "type": "bytes"
        }
      ],
      "name": "safeBatchTransferFrom",
      "outputs": [],
      "stateMutability": "nonpayable",
      "type": "function"
    },
    {
      "inputs": [
        {
          "internalType": "address",
          "name": "from",
          "type": "address"
        },
        {
          "internalType": "address",
          "name": "to",
          "type": "address"
        },
        {
          "internalType": "uint256",
          "name": "id",
          "type": "uint256"
        },
        {
          "internalType": "uint256",
          "name": "amount",
          "type": "uint256"
        },
        {
          "internalType": "bytes",
          "name": "data",
          "type": "bytes"
        }
      ],
      "name": "safeTransferFrom",
      "outputs": [],
      "stateMutability": "nonpayable",
      "type": "function"
    },
    {
      "inputs": [
        {
          "internalType": "address",
          "name": "operator",
          "type": "address"
        },
        {
          "internalType": "bool",
          "name": "approved",
          "type": "bool"
        }
      ],
      "name": "setApprovalForAll",
      "outputs": [],
      "stateMutability": "nonpayable",
      "type": "function"
    },
    {
      "inputs": [
        {
          "internalType": "bool",
          "name": "_limitedMode",
          "type": "bool"
        }
      ],
      "name": "setLimitedMode",
      "outputs": [],
      "stateMutability": "nonpayable",
      "type": "function"
    },
    {
      "inputs": [
        {
          "internalType": "address",
          "name": "_timelock",
          "type": "address"
        }
      ],
      "name": "setTimelock",
      "outputs": [],
      "stateMutability": "nonpayable",
      "type": "function"
    },
    {
      "inputs": [
        {
          "internalType": "bytes4",
          "name": "interfaceId",
          "type": "bytes4"
        }
      ],
      "name": "supportsInterface",
      "outputs": [
        {
          "internalType": "bool",
          "name": "",
          "type": "bool"
        }
      ],
      "stateMutability": "view",
      "type": "function"
    },
    {
      "inputs": [
        {
          "internalType": "address",
          "name": "to",
          "type": "address"
        },
        {
          "internalType": "uint256",
          "name": "tokenId",
          "type": "uint256"
        },
        {
          "internalType": "uint256",
          "name": "value",
          "type": "uint256"
        }
      ],
      "name": "transfer",
      "outputs": [],
      "stateMutability": "nonpayable",
      "type": "function"
    },
    {
      "inputs": [
        {
          "internalType": "address",
          "name": "account",
          "type": "address"
        }
      ],
      "name": "unregisterConsumer",
      "outputs": [],
      "stateMutability": "nonpayable",
      "type": "function"
    },
    {
      "inputs": [
        {
          "internalType": "address",
          "name": "account",
          "type": "address"
        },
        {
          "internalType": "uint8",
          "name": "tokenTypeId",
          "type": "uint8"
        }
      ],
      "name": "unregisterDealer",
      "outputs": [],
      "stateMutability": "nonpayable",
      "type": "function"
    },
    {
      "inputs": [
        {
          "internalType": "uint256",
          "name": "",
          "type": "uint256"
        }
      ],
      "name": "uri",
      "outputs": [
        {
          "internalType": "string",
          "name": "",
          "type": "string"
        }
      ],
      "stateMutability": "view",
      "type": "function"
    },
    {
      "inputs": [
        {
          "internalType": "bytes32",
          "name": "msgHash",
          "type": "bytes32"
        },
        {
          "internalType": "bytes",
          "name": "signature",
          "type": "bytes"
        },
        {
          "internalType": "address",
          "name": "signer",
          "type": "address"
        }
      ],
      "name": "verifySignature",
      "outputs": [
        {
          "internalType": "bool",
          "name": "",
          "type": "bool"
        }
      ],
      "stateMutability": "pure",
      "type": "function"
    }
  ],
  "bytecode": "0x608060405234801561001057600080fd5b506153c5806100206000396000f3fe608060405234801561001057600080fd5b50600436106103265760003560e01c806376ce4755116101b8578063c4d66de811610104578063e985e9c5116100a2578063f851a4401161007c578063f851a4401461084b578063fbdf37ea14610863578063fc0bbce314610878578063fcba79481461088b57610326565b8063e985e9c5146107c6578063f242432a14610802578063f73e09e01461081557610326565b8063d75cfd58116100de578063d75cfd581461075d578063dba851b014610793578063ddc3e6eb146107a0578063e2e564f2146107b357610326565b8063c4d66de8146106eb578063ce6ccfaf146106fe578063d547741f1461074a57610326565b806391d1485411610171578063a217fddf1161014b578063a217fddf1461069d578063a22cb465146106a5578063bdacb303146106b8578063c1e03728146106cb57610326565b806391d148541461062e57806392089c4614610641578063a0d975a71461068a57610326565b806376ce4755146105a157806378e5c592146105b65780637aab1b88146105cb5780637e752d8b146105de5780637f157c9b146105f1578063907b66521461061957610326565b806331aa4b201161027757806349b90557116102305780635ddb368f1161020a5780635ddb368f146105605780635e5323841461056857806369f7ef441461057b57806376aed2e11461058e57610326565b806349b905571461051a5780634e1273f41461052d57806353dbe9821461054d57610326565b806331aa4b201461048d57806331cd4199146104a057806333781a0e146104b357806336568abe146104c657806344b22fdd146104d9578063496dd90b146104ec57610326565b8063156e29f6116102e4578063248a9ca3116102be578063248a9ca314610431578063293a7f2e146104545780632eb2c2d6146104675780632f2ff15d1461047a57610326565b8063156e29f6146103f457806318a50d7e146104075780631ef68ef71461041c57610326565b8062fdd58e1461032b57806301ffc9a714610351578063033fd91914610374578063095bcdb6146103895780630e89341c1461039c578063127d5ad0146103bc575b600080fd5b61033e610339366004614667565b6108a0565b6040519081526020015b60405180910390f35b61036461035f36600461491f565b610939565b6040519015158152602001610348565b610387610382366004614397565b610966565b005b610387610397366004614690565b610a61565b6103af6103aa366004614891565b610af3565b6040516103489190614c8e565b6103e26103ca366004614891565b600090815260cc602052604090206001015460ff1690565b60405160ff9091168152602001610348565b610387610402366004614690565b610b87565b61033e60008051602061531083398151915281565b61033e6000805160206152b083398151915281565b61033e61043f366004614891565b60009081526097602052604090206001015490565b61038761046236600461496f565b610c97565b610387610475366004614464565b610e1c565b6103876104883660046148a9565b610eb3565b61038761049b3660046146c2565b610eda565b6103646104ae3660046148cb565b61106c565b6103646104c1366004614397565b6110ef565b6103876104d43660046148a9565b611109565b6103876104e7366004614397565b611187565b6104ff6104fa366004614667565b611271565b60408051938452602084019290925290820152606001610348565b610364610528366004614397565b61132a565b61054061053b3660046147ad565b611344565b6040516103489190614c4d565b61038761055b366004614397565b6114a5565b61033e611593565b6103876105763660046146eb565b6115a4565b610364610589366004614397565b6115c7565b6103af61059c366004614891565b611650565b61033e60008051602061537083398151915281565b61033e6000805160206152f083398151915281565b61033e6105d93660046143e3565b611810565b6103876105ec36600461456b565b611885565b6106046105ff366004614667565b61192a565b60408051928352602083019190915201610348565b61033e6000805160206152d083398151915281565b61036461063c3660046148a9565b6119cc565b61067261064f366004614891565b600090815260cc602052604090206001015461010090046001600160a01b031690565b6040516001600160a01b039091168152602001610348565b61033e610698366004614667565b6119f7565b61033e600081565b6103876106b336600461463e565b611a92565b6103876106c6366004614397565b611a9d565b6106de6106d9366004614891565b611ae6565b6040516103489190614ed5565b6103876106f9366004614397565b611da6565b61071161070c366004614397565b611f6b565b604080519615158752941515602087015292151593850193909352151560608401529015156080830152151560a082015260c001610348565b6103876107583660046148a9565b61201f565b61033e61076b3660046148a9565b600091825260cd602090815260408084206001600160a01b0393909316845291905290205490565b60c9546103649060ff1681565b6103876107ae366004614877565b612045565b6103876107c13660046146c2565b61207f565b6103646107d43660046143b1565b6001600160a01b03918216600090815260666020908152604080832093909416825291909152205460ff1690565b610387610810366004614509565b612208565b61033e6108233660046148a9565b600091825260ce602090815260408084206001600160a01b0393909316845291905290205490565b60c9546106729061010090046001600160a01b031681565b61033e60008051602061529083398151915281565b610364610886366004614397565b61228f565b61033e60008051602061535083398151915281565b60006001600160a01b0383166109115760405162461bcd60e51b815260206004820152602b60248201527f455243313135353a2062616c616e636520717565727920666f7220746865207a60448201526a65726f206164647265737360a81b60648201526084015b60405180910390fd5b5060009081526065602090815260408083206001600160a01b03949094168352929052205490565b60006001600160e01b03198216637965db0b60e01b148061095e575061095e826122e5565b90505b919050565b336001600160a01b0382161461097e5761097e61230a565b60c95460ff1615610a12576109946000336119cc565b610a125760405162461bcd60e51b815260206004820152604360248201527f434c4d383a3a7265676973746572496e647573747279286c696d69746564293a60448201527f206f6e6c792061646d696e2063616e20726567697374657220696e647573747260648201526269657360e81b608482015260a401610908565b610a2a600080516020615290833981519152826123a0565b6040516001600160a01b038216907f1230fb0cdc77da02d53e840f6f60d5e7f68646d7d1ccdd890860e05533b62f5390600090a250565b610a6a826123aa565b610ac55760405162461bcd60e51b815260206004820152602660248201527f434c4d383a3a7472616e736665723a20746f6b656e496420646f6573206e6f7460448201526508195e1a5cdd60d21b6064820152608401610908565b610aee33848484604051806040016040528060048152602001630307830360e41b815250612208565b505050565b606060678054610b0290615105565b80601f0160208091040260200160405190810160405280929190818152602001828054610b2e90615105565b8015610b7b5780601f10610b5057610100808354040283529160200191610b7b565b820191906000526020600020905b815481529060010190602001808311610b5e57829003601f168201915b50505050509050919050565b610b926000336119cc565b610bae5760405162461bcd60e51b815260040161090890614ce9565b610bb7826123aa565b610c0e5760405162461bcd60e51b815260206004820152602260248201527f434c4d383a3a6d696e743a20746f6b656e496420646f6573206e6f74206578696044820152611cdd60f21b6064820152608401610908565b60c95460ff1615610c7c5760405162461bcd60e51b815260206004820152603260248201527f434c4d383a3a6d696e743a2063616e6e6f74206d696e74206e657720746f6b656044820152716e7320696e206c696d69746564206d6f646560701b6064820152608401610908565b610aee838383604051806020016040528060008152506123c3565b3360008115610cc557610ca98261228f565b610cc55760405162461bcd60e51b815260040161090890614e2d565b6001600160a01b03811615610cf957610cdd8161228f565b610cf95760405162461bcd60e51b815260040161090890614d32565b610d02846123aa565b610d5a5760405162461bcd60e51b8152602060048201526024808201527f434c4d383a3a7265746972653a20746f6b656e496420646f6573206e6f7420656044820152631e1a5cdd60e21b6064820152608401610908565b610d6433856108a0565b831115610dd05760405162461bcd60e51b815260206004820152603460248201527f434c4d383a3a7265746972653a206e6f7420656e6f75676820617661696c61626044820152736c652062616c616e636520746f2072657469726560601b6064820152608401610908565b610ddb3385856124d5565b604080518581526020810185905233917f8f1b5ebb586d3d169e4ed07db9cd10ce0dd30c7b656171310eae7517c0b53cf9910160405180910390a250505050565b6001600160a01b038516331480610e385750610e3885336107d4565b610e9f5760405162461bcd60e51b815260206004820152603260248201527f455243313135353a207472616e736665722063616c6c6572206973206e6f74206044820152711bdddb995c881b9bdc88185c1c1c9bdd995960721b6064820152608401610908565b610eac8585858585612561565b5050505050565b600082815260976020526040902060010154610ed081335b61276b565b610aee83836127cf565b610ee56000336119cc565b610f015760405162461bcd60e51b815260040161090890614ce9565b610f0a81612855565b610f6f5760405162461bcd60e51b815260206004820152603060248201527f434c4d383a3a72656769737465724465616c65723a20746f6b656e547970654960448201526f1908191bd95cc81b9bdd08195e1a5cdd60821b6064820152608401610908565b8060ff1660011415610f9857610f9360008051602061535083398151915283610eb3565b61101c565b8060ff1660021415610fbc57610f936000805160206152b083398151915283610eb3565b8060ff1660031415610fe057610f9360008051602061537083398151915283610eb3565b8060ff166004141561101c5761100460008051602061529083398151915283610eb3565b61101c6000805160206152d083398151915283610eb3565b61103460008051602061531083398151915283610eb3565b6040516001600160a01b038316907fa8377deee15954185683d55effd369508b4935978c8cb2bab790bf04c570181490600090a25050565b6000806110c6856040517f19457468657265756d205369676e6564204d6573736167653a0a3332000000006020820152603c8101829052600090605c01604051602081830303815290604052805190602001209050919050565b90506001600160a01b0383166110dc8286612877565b6001600160a01b03161495945050505050565b600061095e6000805160206152f0833981519152836119cc565b6001600160a01b03811633146111795760405162461bcd60e51b815260206004820152602f60248201527f416363657373436f6e74726f6c3a2063616e206f6e6c792072656e6f756e636560448201526e103937b632b9903337b91039b2b63360891b6064820152608401610908565b6111838282612893565b5050565b61118f61230a565b60c95460ff1615611222576111a56000336119cc565b6112225760405162461bcd60e51b815260206004820152604260248201527f434c4d383a3a7265676973746572436f6e73756d6572286c696d69746564293a60448201527f206f6e6c792061646d696e2063616e20726567697374657220636f6e73756d65606482015261727360f01b608482015260a401610908565b61123a6000805160206152f083398151915282610eb3565b6040516001600160a01b038216907f69a0adee259d26fe61f4776f7bea7f3a9737c7321256821b985f988545efd31990600090a250565b604051637f157c9b60e01b81526001600160a01b03831660048201526024810182905260009081908190819081903090637f157c9b90604401604080518083038186803b1580156112c157600080fd5b505afa1580156112d5573d6000803e3d6000fd5b505050506040513d601f19601f820116820180604052508101906112f99190614990565b600097885260ce60209081526040808a206001600160a01b039b909b168a5299905297909620549597945050505050565b600061095e600080516020615370833981519152836119cc565b606081518351146113a95760405162461bcd60e51b815260206004820152602960248201527f455243313135353a206163636f756e747320616e6420696473206c656e677468604482015268040dad2e6dac2e8c6d60bb1b6064820152608401610908565b600083516001600160401b038111156113d257634e487b7160e01b600052604160045260246000fd5b6040519080825280602002602001820160405280156113fb578160200160208202803683370190505b50905060005b845181101561149d5761146285828151811061142d57634e487b7160e01b600052603260045260246000fd5b602002602001015185838151811061145557634e487b7160e01b600052603260045260246000fd5b60200260200101516108a0565b82828151811061148257634e487b7160e01b600052603260045260246000fd5b602090810291909101015261149681615166565b9050611401565b509392505050565b6114ad61230a565b60c95460ff1615611544576114c36000336119cc565b6115445760405162461bcd60e51b815260206004820152604660248201527f434c4d383a3a756e7265676973746572436f6e73756d6572286c696d6974656460448201527f293a206f6e6c792061646d696e2063616e20756e726567697374657220636f6e60648201526573756d65727360d01b608482015260a401610908565b61155c6000805160206152f08339815191528261201f565b6040516001600160a01b038216907f03a38088da75ee2d80f6c753f55f8fd17602ae17d8bd0ef44d5e1f28ab5af11f90600090a250565b600061159e60cb5490565b90505b90565b6115ac61230a565b6115bd8833898989898989896128fa565b5050505050505050565b60006115e1600080516020615350833981519152836119cc565b806115ff57506115ff6000805160206152b0833981519152836119cc565b8061161d575061161d600080516020615370833981519152836119cc565b8061163b575061163b6000805160206152d0833981519152836119cc565b1561164857506001610961565b506000919050565b606061165b826123aa565b6116ba5760405162461bcd60e51b815260206004820152602a60248201527f434c4d383a3a676574546f6b656e547970653a20746f6b656e496420646f6573604482015269081b9bdd08195e1a5cdd60b21b6064820152608401610908565b600082815260cc6020526040902060018082015460ff16141561171257505060408051808201909152601c81527f52656e657761626c6520456e65726779204365727469666963617465000000006020820152610961565b600181015460ff166002141561175d57505060408051808201909152601781527f436172626f6e20456d697373696f6e73204f66667365740000000000000000006020820152610961565b600181015460ff166003141561179c5750506040805180820190915260118152704175646974656420456d697373696f6e7360781b6020820152610961565b600181015460ff16600414156117d857505060408051808201909152600e81526d21b0b93137b7102a3930b1b5b2b960911b6020820152610961565b5050604080518082019091526014815273151bdad95b88191bd95cc81b9bdd08195e1a5cdd60621b6020820152610961565b50919050565b6001600160a01b03808516600090815260cf6020908152604080832093871683529290529081205485908590859085906118519063ffffffff166001615077565b604051602001611865959493929190614adc565b604051602081830303815290604052805190602001209050949350505050565b60ca546001600160a01b03163314806118a457506118a46000336119cc565b61190e5760405162461bcd60e51b815260206004820152603560248201527f434c4d383a3a69737375654f6e426568616c663a2063616c6c206d757374206360448201527437b6b290333937b6902220a79037b91030b236b4b760591b6064820152608401610908565b61191f8989898989898989896128fa565b505050505050505050565b600080600061193985856108a0565b60405163a0d975a760e01b81526001600160a01b038716600482015260248101869052909150600090309063a0d975a79060440160206040518083038186803b15801561198557600080fd5b505afa158015611999573d6000803e3d6000fd5b505050506040513d601f19601f820116820180604052508101906119bd9190614957565b919350909150505b9250929050565b60009182526097602090815260408084206001600160a01b0393909316845291905290205460ff1690565b6000611a02826123aa565b611a6a5760405162461bcd60e51b815260206004820152603360248201527f434c4d383a3a676574546f6b656e52657469726564416d6f756e743a20746f6b604482015272195b925908191bd95cc81b9bdd08195e1a5cdd606a1b6064820152608401610908565b50600090815260cd602090815260408083206001600160a01b03949094168352929052205490565b611183338383613050565b611aa86000336119cc565b611ac45760405162461bcd60e51b815260040161090890614ce9565b60ca80546001600160a01b0319166001600160a01b0392909216919091179055565b611b5f60405180610180016040528060008152602001600060ff16815260200160006001600160a01b0316815260200160006001600160a01b0316815260200160008152602001600081526020016000815260200160608152602001606081526020016060815260200160008152602001600081525090565b600082815260cc602090815260409182902082516101808101845281548152600182015460ff8116938201939093526001600160a01b036101009093048316938101939093526002810154909116606083015260038101546080830152600481015460a0830152600581015460c083015260068101805460e084019190611be590615105565b80601f0160208091040260200160405190810160405280929190818152602001828054611c1190615105565b8015611c5e5780601f10611c3357610100808354040283529160200191611c5e565b820191906000526020600020905b815481529060010190602001808311611c4157829003601f168201915b50505050508152602001600782018054611c7790615105565b80601f0160208091040260200160405190810160405280929190818152602001828054611ca390615105565b8015611cf05780601f10611cc557610100808354040283529160200191611cf0565b820191906000526020600020905b815481529060010190602001808311611cd357829003601f168201915b50505050508152602001600882018054611d0990615105565b80601f0160208091040260200160405190810160405280929190818152602001828054611d3590615105565b8015611d825780601f10611d5757610100808354040283529160200191611d82565b820191906000526020600020905b815481529060010190602001808311611d6557829003601f168201915b5050505050815260200160098201548152602001600a820154815250509050919050565b600054610100900460ff16611dc15760005460ff1615611dc5565b303b155b611e285760405162461bcd60e51b815260206004820152602e60248201527f496e697469616c697a61626c653a20636f6e747261637420697320616c72656160448201526d191e481a5b9a5d1a585b1a5e995960921b6064820152608401610908565b600054610100900460ff16158015611e4a576000805461ffff19166101011790555b611e6260405180602001604052806000815250613131565b611e886000805160206152f0833981519152600080516020615310833981519152613164565b611e936000836123a0565b611eab600080516020615310833981519152836123a0565b611ec3600080516020615350833981519152836123a0565b611edb6000805160206152b0833981519152836123a0565b611ef3600080516020615370833981519152836123a0565b611f0b6000805160206152d0833981519152836123a0565b611f23600080516020615290833981519152836123a0565b60c9805460ca80546001600160a01b03191690556001600160a81b0319166101006001600160a01b0385160260ff19161790558015611183576000805461ff00191690555050565b6000808080808080611f7d81896119cc565b90506000611f996000805160206153508339815191528a6119cc565b90506000611fb56000805160206152b08339815191528b6119cc565b90506000611fd16000805160206153708339815191528c6119cc565b90506000611fed6000805160206152908339815191528d6119cc565b905060006120096000805160206152f08339815191528e6119cc565b959d949c50929a50909850965091945092505050565b60008281526097602052604090206001015461203b8133610ecb565b610aee8383612893565b6120506000336119cc565b61206c5760405162461bcd60e51b815260040161090890614ce9565b60c9805460ff1916911515919091179055565b61208a6000336119cc565b6120a65760405162461bcd60e51b815260040161090890614ce9565b6120af81612855565b6121165760405162461bcd60e51b815260206004820152603260248201527f434c4d383a3a756e72656769737465724465616c65723a20746f6b656e54797060448201527119525908191bd95cc81b9bdd08195e1a5cdd60721b6064820152608401610908565b8060ff166001141561213f5761213a6000805160206153508339815191528361201f565b6121ab565b8060ff16600214156121635761213a6000805160206152b08339815191528361201f565b8060ff16600314156121875761213a6000805160206153708339815191528361201f565b8060ff16600414156121ab576121ab6000805160206152d08339815191528361201f565b6121b4826115c7565b6121d0576121d06000805160206153108339815191528361201f565b6040516001600160a01b038316907f98552ded770f1d05a505572f3387c108dbc6b566ea3d49f83cff3d1f1c72a04290600090a25050565b6001600160a01b038516331480612224575061222485336107d4565b6122825760405162461bcd60e51b815260206004820152602960248201527f455243313135353a2063616c6c6572206973206e6f74206f776e6572206e6f7260448201526808185c1c1c9bdd995960ba1b6064820152608401610908565b610eac85858585856131af565b60006122a9600080516020615310833981519152836119cc565b806122c757506122c76000805160206152f0833981519152836119cc565b8061163b575061163b600080516020615290833981519152836119cc565b60006001600160e01b03198216637965db0b60e01b148061095e575061095e826132d0565b612322600080516020615310833981519152336119cc565b806123405750612340600080516020615290833981519152336119cc565b61239e5760405162461bcd60e51b815260206004820152602960248201527f434c4d383a3a6f6e6c794465616c65723a206d73672e73656e646572206e6f746044820152681030903232b0b632b960b91b6064820152608401610908565b565b61118382826127cf565b6000816123b660cb5490565b1061164857506001610961565b6001600160a01b0384166124235760405162461bcd60e51b815260206004820152602160248201527f455243313135353a206d696e7420746f20746865207a65726f206164647265736044820152607360f81b6064820152608401610908565b336124438160008761243488613320565b61243d88613320565b87613379565b60008481526065602090815260408083206001600160a01b03891684529091528120805485929061247590849061505f565b909155505060408051858152602081018590526001600160a01b0380881692600092918516917fc3d58168c5ae7397731d063d5bbf3d657854427343f4c083240f7aacaa2d0f62910160405180910390a4610eac81600087878787613869565b6124e08383836139d4565b600082815260cc60205260409020600a01546124fc9082613b51565b600083815260cc60209081526040808320600a019390935560cd81528282206001600160a01b0387168352905220546125359082613b51565b600092835260cd602090815260408085206001600160a01b039096168552949052929091209190915550565b81518351146125c35760405162461bcd60e51b815260206004820152602860248201527f455243313135353a2069647320616e6420616d6f756e7473206c656e677468206044820152670dad2e6dac2e8c6d60c31b6064820152608401610908565b6001600160a01b0384166125e95760405162461bcd60e51b815260040161090890614d9e565b336125f8818787878787613379565b60005b84518110156126fd57600085828151811061262657634e487b7160e01b600052603260045260246000fd5b60200260200101519050600085838151811061265257634e487b7160e01b600052603260045260246000fd5b60209081029190910181015160008481526065835260408082206001600160a01b038e1683529093529190912054909150818110156126a35760405162461bcd60e51b815260040161090890614de3565b60008381526065602090815260408083206001600160a01b038e8116855292528083208585039055908b168252812080548492906126e290849061505f565b92505081905550505050806126f690615166565b90506125fb565b50846001600160a01b0316866001600160a01b0316826001600160a01b03167f4a39dc06d4c0dbc64b70af90fd698a233a518aa5d07e595d983b8c0526c8f7fb878760405161274d929190614c60565b60405180910390a4612763818787878787613b64565b505050505050565b61277582826119cc565b6111835761278d816001600160a01b03166014613c2e565b612798836020613c2e565b6040516020016127a9929190614b35565b60408051601f198184030181529082905262461bcd60e51b825261090891600401614c8e565b6127d982826119cc565b6111835760008281526097602090815260408083206001600160a01b03851684529091529020805460ff191660011790556128113390565b6001600160a01b0316816001600160a01b0316837f2f8788117e7eff1d82e926ec794901d17c78024a50270940304540a733656f0d60405160405180910390a45050565b6000808260ff1611801561163b575060048260ff161161164857506001610961565b60008060006128868585613e0f565b9150915061149d81613e7c565b61289d82826119cc565b156111835760008281526097602090815260408083206001600160a01b0385168085529252808320805460ff1916905551339285917ff6391f5c32d9c69d2a47ea670b442974b53935d1edc7fd64eb21e047a839171b9190a45050565b61290387612855565b61295b5760405162461bcd60e51b8152602060048201526024808201527f434c4d383a3a5f69737375653a20746f6b656e54797065496420697320696e76604482015263185b1a5960e21b6064820152608401610908565b60c95460ff1615612ba2578660ff166001148061297b57508660ff166002145b15612b055760ca546001600160a01b031633146129f15760405162461bcd60e51b815260206004820152602e60248201527f434c4d383a3a5f6973737565286c696d69746564293a206d73672e73656e646560448201526d72206e6f742074696d656c6f636b60901b6064820152608401610908565b6129fc60008a6119cc565b612a585760405162461bcd60e51b815260206004820152602760248201527f434c4d383a3a5f6973737565286c696d69746564293a20697373756565206e6f6044820152663a1030b236b4b760c91b6064820152608401610908565b612a70600080516020615350833981519152896119cc565b80612a8e5750612a8e6000805160206152b0833981519152896119cc565b612b005760405162461bcd60e51b815260206004820152603760248201527f434c4d383a3a5f6973737565286c696d69746564293a2070726f706f7365722060448201527f6e6f7420612072656769737465726564206465616c65720000000000000000006064820152608401610908565b612b9d565b8660ff1660031415612b9d57612b29600080516020615370833981519152896119cc565b612b9d576040805162461bcd60e51b81526020600482015260248101919091527f434c4d383a3a5f6973737565286c696d69746564293a20697373756572206e6f60448201527f742061207265676973746572656420656d697373696f6e732061756469746f726064820152608401610908565b612d17565b8660ff1660011415612c1957612bc6600080516020615350833981519152896119cc565b612b9d5760405162461bcd60e51b8152602060048201526030602482015260008051602061533083398151915260448201526f3a32b932b2102922a1903232b0b632b960811b6064820152608401610908565b8660ff1660021415612c9357612c3d6000805160206152b0833981519152896119cc565b612b9d5760405162461bcd60e51b815260206004820152603360248201526000805160206153308339815191526044820152723a32b932b21037b33339b2ba103232b0b632b960691b6064820152608401610908565b8660ff1660031415612d1757612cb7600080516020615370833981519152896119cc565b612d175760405162461bcd60e51b8152602060048201526037602482015260008051602061533083398151915260448201527f746572656420656d697373696f6e732061756469746f720000000000000000006064820152608401610908565b8660ff1660041415612e1457612d3b600080516020615290833981519152896119cc565b612d8c5760405162461bcd60e51b815260206004820152602e602482015260008051602061533083398151915260448201526d746572656420696e64757374727960901b6064820152608401610908565b336001600160a01b038a1614612e145760405162461bcd60e51b815260206004820152604160248201527f434c4d383a3a5f69737375653a207265676973746572656420696e647573747260448201527f792063616e206f6e6c7920697373756520636172626f6e20746f20697473656c6064820152603360f91b608482015260a401610908565b612e2260cb80546001019055565b600060cc6000612e3160cb5490565b81526020019081526020016000209050612e4a60cb5490565b81556001810180546002830180546001600160a01b03808f166001600160a01b0319909216919091179091558b16610100026001600160a81b031990911660ff8b161717905560038101869055600481018590554260058201558351612eb990600683019060208701906141e4565b508251612ecf90600783019060208601906141e4565b508151612ee590600883019060208501906141e4565b50600981018790556000600a820155612f178a612f0160cb5490565b89604051806020016040528060008152506123c3565b8760ff1660031415612f3e5760028101548154612f3e916001600160a01b031690896124d5565b8060020160009054906101000a90046001600160a01b03166001600160a01b03168160010160019054906101000a90046001600160a01b03166001600160a01b03167fde06d80d1bc821cc9dc0bfa600ff250c766a6841b2f404d7103ad55a85572acd8960cd60008660000154815260200190815260200160002060008660020160009054906101000a90046001600160a01b03166001600160a01b03166001600160a01b031681526020019081526020016000205485600001548660010160009054906101000a900460ff168760030154886004015489600501548a6006018b6007018c60080160405161303c9a99989796959493929190614fc0565b60405180910390a350505050505050505050565b816001600160a01b0316836001600160a01b031614156130c45760405162461bcd60e51b815260206004820152602960248201527f455243313135353a2073657474696e6720617070726f76616c20737461747573604482015268103337b91039b2b63360b91b6064820152608401610908565b6001600160a01b03838116600081815260666020908152604080832094871680845294825291829020805460ff191686151590811790915591519182527f17307eab39ab6107e8899845ad3d59bd9653f200f220920489ca2b5937696c31910160405180910390a3505050565b600054610100900460ff166131585760405162461bcd60e51b815260040161090890614e8a565b6131618161407f565b50565b600082815260976020526040808220600101805490849055905190918391839186917fbd79b86ffe0ab8e8776151514217cd7cacd52c909f66475c3af44e129f0b00ff9190a4505050565b6001600160a01b0384166131d55760405162461bcd60e51b815260040161090890614d9e565b336131e581878761243488613320565b60008481526065602090815260408083206001600160a01b038a168452909152902054838110156132285760405162461bcd60e51b815260040161090890614de3565b60008581526065602090815260408083206001600160a01b038b811685529252808320878503905590881682528120805486929061326790849061505f565b909155505060408051868152602081018690526001600160a01b03808916928a821692918616917fc3d58168c5ae7397731d063d5bbf3d657854427343f4c083240f7aacaa2d0f62910160405180910390a46132c7828888888888613869565b50505050505050565b60006001600160e01b03198216636cdb3d1360e11b148061330157506001600160e01b031982166303a24d0760e21b145b8061095e57506301ffc9a760e01b6001600160e01b031983161461095e565b6040805160018082528183019092526060916000919060208083019080368337019050509050828160008151811061336857634e487b7160e01b600052603260045260246000fd5b602090810291909101015292915050565b84846001600160a01b038216156133af576133938261228f565b6133af5760405162461bcd60e51b815260040161090890614e2d565b6001600160a01b038116156133e3576133c78161228f565b6133e35760405162461bcd60e51b815260040161090890614d32565b856001600160a01b0316876001600160a01b031614156134765760405162461bcd60e51b815260206004820152604260248201527f434c4d383a3a5f6265666f7265546f6b656e5472616e736665723a2073656e6460448201527f657220616e642072656365697665722063616e6e6f74206265207468652073616064820152616d6560f01b608482015260a401610908565b6000805b865181101561376257600060cc60008984815181106134a957634e487b7160e01b600052603260045260246000fd5b60200260200101518152602001908152602001600020905060c960009054906101000a900460ff1615613678576001600160a01b0389166134ea5750613750565b60018082015460ff1614806135065750600181015460ff166002145b156135b85760ca546001600160a01b038c81169116148061352d575061352d60008c6119cc565b6135b35760405162461bcd60e51b815260206004820152604b60248201527f434c4d383a3a5f6265666f7265546f6b656e5472616e73666572286c696d697460448201527f6564293a206f6e6c792061646d696e20616e642044414f2063616e207472616e60648201526a7366657220746f6b656e7360a81b608482015260a401610908565b613678565b600181015460ff1660031415613678576135e06000805160206153708339815191528c6119cc565b6136785760405162461bcd60e51b815260206004820152605860248201527f434c4d383a3a5f6265666f7265546f6b656e5472616e73666572286c696d697460448201527f6564293a206f6e6c7920656d697373696f6e732061756469746f72732063616e60648201527f206973737565206175646974656420656d697373696f6e730000000000000000608482015260a401610908565b600181015460ff16600414801561369757506001600160a01b03891615155b80156136ab57506001600160a01b038a1615155b1561374e57600092506137288783815181106136d757634e487b7160e01b600052603260045260246000fd5b602002602001015160ce60008460000154815260200190815260200160002060008d6001600160a01b03166001600160a01b0316815260200190815260200160002054613b5190919063ffffffff16565b8154600090815260ce602090815260408083206001600160a01b038f1684529091529020555b505b8061375a81615166565b91505061347a565b50801561191f57600061377789898989611810565b905061378481868a61106c565b6138055760405162461bcd60e51b815260206004820152604660248201527f434c4d383a3a5f6265666f7265546f6b656e5472616e736665723a207265636560448201527f69766572277320617070726f76616c207369676e6174757265206973206e6f74606482015265081d985b1a5960d21b608482015260a401610908565b6001600160a01b03808a16600090815260cf60209081526040808320938c168352929052908120805463ffffffff169161383e83615181565b91906101000a81548163ffffffff021916908363ffffffff1602179055505050505050505050505050565b6001600160a01b0384163b156127635760405163f23a6e6160e01b81526001600160a01b0385169063f23a6e61906138ad9089908990889088908890600401614c08565b602060405180830381600087803b1580156138c757600080fd5b505af19250505080156138f7575060408051601f3d908101601f191682019092526138f49181019061493b565b60015b6139a4576139036151d1565b806308c379a0141561393d57506139186151e8565b80613923575061393f565b8060405162461bcd60e51b81526004016109089190614c8e565b505b60405162461bcd60e51b815260206004820152603460248201527f455243313135353a207472616e7366657220746f206e6f6e20455243313135356044820152732932b1b2b4bb32b91034b6b83632b6b2b73a32b960611b6064820152608401610908565b6001600160e01b0319811663f23a6e6160e01b146132c75760405162461bcd60e51b815260040161090890614ca1565b6001600160a01b038316613a365760405162461bcd60e51b815260206004820152602360248201527f455243313135353a206275726e2066726f6d20746865207a65726f206164647260448201526265737360e81b6064820152608401610908565b33613a6581856000613a4787613320565b613a5087613320565b60405180602001604052806000815250613379565b60008381526065602090815260408083206001600160a01b038816845290915290205482811015613ae45760405162461bcd60e51b8152602060048201526024808201527f455243313135353a206275726e20616d6f756e7420657863656564732062616c604482015263616e636560e01b6064820152608401610908565b60008481526065602090815260408083206001600160a01b03898116808652918452828520888703905582518981529384018890529092908616917fc3d58168c5ae7397731d063d5bbf3d657854427343f4c083240f7aacaa2d0f62910160405180910390a45050505050565b6000613b5d828461505f565b9392505050565b6001600160a01b0384163b156127635760405163bc197c8160e01b81526001600160a01b0385169063bc197c8190613ba89089908990889088908890600401614baa565b602060405180830381600087803b158015613bc257600080fd5b505af1925050508015613bf2575060408051601f3d908101601f19168201909252613bef9181019061493b565b60015b613bfe576139036151d1565b6001600160e01b0319811663bc197c8160e01b146132c75760405162461bcd60e51b815260040161090890614ca1565b60606000613c3d83600261509f565b613c4890600261505f565b6001600160401b03811115613c6d57634e487b7160e01b600052604160045260246000fd5b6040519080825280601f01601f191660200182016040528015613c97576020820181803683370190505b509050600360fc1b81600081518110613cc057634e487b7160e01b600052603260045260246000fd5b60200101906001600160f81b031916908160001a905350600f60fb1b81600181518110613cfd57634e487b7160e01b600052603260045260246000fd5b60200101906001600160f81b031916908160001a9053506000613d2184600261509f565b613d2c90600161505f565b90505b6001811115613dc0576f181899199a1a9b1b9c1cb0b131b232b360811b85600f1660108110613d6e57634e487b7160e01b600052603260045260246000fd5b1a60f81b828281518110613d9257634e487b7160e01b600052603260045260246000fd5b60200101906001600160f81b031916908160001a90535060049490941c93613db9816150ee565b9050613d2f565b508315613b5d5760405162461bcd60e51b815260206004820181905260248201527f537472696e67733a20686578206c656e67746820696e73756666696369656e746044820152606401610908565b600080825160411415613e465760208301516040840151606085015160001a613e3a878285856140af565b945094505050506119c5565b825160401415613e705760208301516040840151613e6586838361419c565b9350935050506119c5565b506000905060026119c5565b6000816004811115613e9e57634e487b7160e01b600052602160045260246000fd5b1415613ea957613161565b6001816004811115613ecb57634e487b7160e01b600052602160045260246000fd5b1415613f195760405162461bcd60e51b815260206004820152601860248201527f45434453413a20696e76616c6964207369676e617475726500000000000000006044820152606401610908565b6002816004811115613f3b57634e487b7160e01b600052602160045260246000fd5b1415613f895760405162461bcd60e51b815260206004820152601f60248201527f45434453413a20696e76616c6964207369676e6174757265206c656e677468006044820152606401610908565b6003816004811115613fab57634e487b7160e01b600052602160045260246000fd5b14156140045760405162461bcd60e51b815260206004820152602260248201527f45434453413a20696e76616c6964207369676e6174757265202773272076616c604482015261756560f01b6064820152608401610908565b600481600481111561402657634e487b7160e01b600052602160045260246000fd5b14156131615760405162461bcd60e51b815260206004820152602260248201527f45434453413a20696e76616c6964207369676e6174757265202776272076616c604482015261756560f01b6064820152608401610908565b600054610100900460ff166140a65760405162461bcd60e51b815260040161090890614e8a565b613161816141d5565b6000807f7fffffffffffffffffffffffffffffff5d576e7357a4501ddfe92f46681b20a08311156140e65750600090506003614193565b8460ff16601b141580156140fe57508460ff16601c14155b1561410f5750600090506004614193565b6040805160008082526020820180845289905260ff881692820192909252606081018690526080810185905260019060a0016020604051602081039080840390855afa158015614163573d6000803e3d6000fd5b5050604051601f1901519150506001600160a01b03811661418c57600060019250925050614193565b9150600090505b94509492505050565b6000806001600160ff1b038316816141b960ff86901c601b61505f565b90506141c7878288856140af565b935093505050935093915050565b80516111839060679060208401905b8280546141f090615105565b90600052602060002090601f0160209004810192826142125760008555614258565b82601f1061422b57805160ff1916838001178555614258565b82800160010185558215614258579182015b8281111561425857825182559160200191906001019061423d565b50614264929150614268565b5090565b5b808211156142645760008155600101614269565b80356001600160a01b038116811461096157600080fd5b600082601f8301126142a4578081fd5b813560206142b18261503c565b6040516142be828261513a565b8381528281019150858301600585901b870184018810156142dd578586fd5b855b858110156142fb578135845292840192908401906001016142df565b5090979650505050505050565b8035801515811461096157600080fd5b600082601f830112614328578081fd5b81356001600160401b03811115614341576143416151bb565b604051614358601f8301601f19166020018261513a565b81815284602083860101111561436c578283fd5b816020850160208301379081016020019190915292915050565b803560ff8116811461096157600080fd5b6000602082840312156143a8578081fd5b613b5d8261427d565b600080604083850312156143c3578081fd5b6143cc8361427d565b91506143da6020840161427d565b90509250929050565b600080600080608085870312156143f8578182fd5b6144018561427d565b935061440f6020860161427d565b925060408501356001600160401b038082111561442a578384fd5b61443688838901614294565b9350606087013591508082111561444b578283fd5b5061445887828801614294565b91505092959194509250565b600080600080600060a0868803121561447b578081fd5b6144848661427d565b94506144926020870161427d565b935060408601356001600160401b03808211156144ad578283fd5b6144b989838a01614294565b945060608801359150808211156144ce578283fd5b6144da89838a01614294565b935060808801359150808211156144ef578283fd5b506144fc88828901614318565b9150509295509295909350565b600080600080600060a08688031215614520578081fd5b6145298661427d565b94506145376020870161427d565b9350604086013592506060860135915060808601356001600160401b0381111561455f578182fd5b6144fc88828901614318565b60008060008060008060008060006101208a8c031215614589578384fd5b6145928a61427d565b98506145a060208b0161427d565b97506145ae60408b01614386565b965060608a0135955060808a0135945060a08a0135935060c08a01356001600160401b03808211156145de578485fd5b6145ea8d838e01614318565b945060e08c01359150808211156145ff578384fd5b61460b8d838e01614318565b93506101008c0135915080821115614621578283fd5b5061462e8c828d01614318565b9150509295985092959850929598565b60008060408385031215614650578182fd5b6146598361427d565b91506143da60208401614308565b60008060408385031215614679578182fd5b6146828361427d565b946020939093013593505050565b6000806000606084860312156146a4578081fd5b6146ad8461427d565b95602085013595506040909401359392505050565b600080604083850312156146d4578182fd5b6146dd8361427d565b91506143da60208401614386565b600080600080600080600080610100898b031215614707578182fd5b6147108961427d565b975061471e60208a01614386565b965060408901359550606089013594506080890135935060a08901356001600160401b038082111561474e578384fd5b61475a8c838d01614318565b945060c08b013591508082111561476f578384fd5b61477b8c838d01614318565b935060e08b0135915080821115614790578283fd5b5061479d8b828c01614318565b9150509295985092959890939650565b600080604083850312156147bf578182fd5b82356001600160401b03808211156147d5578384fd5b818501915085601f8301126147e8578384fd5b813560206147f58261503c565b604051614802828261513a565b8381528281019150858301600585901b870184018b1015614821578889fd5b8896505b8487101561484a576148368161427d565b835260019690960195918301918301614825565b5096505086013592505080821115614860578283fd5b5061486d85828601614294565b9150509250929050565b600060208284031215614888578081fd5b613b5d82614308565b6000602082840312156148a2578081fd5b5035919050565b600080604083850312156148bb578182fd5b823591506143da6020840161427d565b6000806000606084860312156148df578081fd5b8335925060208401356001600160401b038111156148fb578182fd5b61490786828701614318565b9250506149166040850161427d565b90509250925092565b600060208284031215614930578081fd5b8135613b5d81615279565b60006020828403121561494c578081fd5b8151613b5d81615279565b600060208284031215614968578081fd5b5051919050565b60008060408385031215614981578182fd5b50508035926020909101359150565b600080604083850312156149a2578182fd5b505080516020909101519092909150565b6000815180845260208085019450808401835b838110156149e2578151875295820195908201906001016149c6565b509495945050505050565b805160009060208084018383156149e2578151875295820195908201906001016149c6565b60008151808452614a2a8160208601602086016150be565b601f01601f19169290920160200192915050565b8054600090600181811c9080831680614a5857607f831692505b6020808410821415614a7857634e487b7160e01b86526022600452602486fd5b83885260208801828015614a935760018114614aa457614acf565b60ff19871682528282019750614acf565b60008981526020902060005b87811015614ac957815484820152908601908401614ab0565b83019850505b5050505050505092915050565b60006bffffffffffffffffffffffff19808860601b168352808760601b16601484015250614b16614b1060288401876149ed565b856149ed565b60e09390931b6001600160e01b03191683525050600401949350505050565b60007f416363657373436f6e74726f6c3a206163636f756e742000000000000000000082528351614b6d8160178501602088016150be565b7001034b99036b4b9b9b4b733903937b6329607d1b6017918401918201528351614b9e8160288401602088016150be565b01602801949350505050565b6001600160a01b0386811682528516602082015260a060408201819052600090614bd6908301866149b3565b8281036060840152614be881866149b3565b90508281036080840152614bfc8185614a12565b98975050505050505050565b6001600160a01b03868116825285166020820152604081018490526060810183905260a060808201819052600090614c4290830184614a12565b979650505050505050565b600060208252613b5d60208301846149b3565b600060408252614c7360408301856149b3565b8281036020840152614c8581856149b3565b95945050505050565b600060208252613b5d6020830184614a12565b60208082526028908201527f455243313135353a204552433131353552656365697665722072656a656374656040820152676420746f6b656e7360c01b606082015260800190565b60208082526029908201527f434c4d383a3a6f6e6c7941646d696e3a206d73672e73656e646572206e6f74206040820152683a34329030b236b4b760b91b606082015260800190565b60208082526046908201527f434c4d383a3a636f6e73756d65724f724465616c65723a20726563697069656e60408201527f74206d75737420626520636f6e73756d65722c206465616c6572206f7220696e60608201526564757374727960d01b608082015260a00190565b60208082526025908201527f455243313135353a207472616e7366657220746f20746865207a65726f206164604082015264647265737360d81b606082015260800190565b6020808252602a908201527f455243313135353a20696e73756666696369656e742062616c616e636520666f60408201526939103a3930b739b332b960b11b606082015260800190565b60208082526039908201527f434c4d383a3a636f6e73756d65724f724465616c65723a2073656e646572206e60408201527f6f74206120636f6e73756d6572206f722061206465616c657200000000000000606082015260800190565b6020808252602b908201527f496e697469616c697a61626c653a20636f6e7472616374206973206e6f74206960408201526a6e697469616c697a696e6760a81b606082015260800190565b600060208252825160208301526020830151614ef6604084018260ff169052565b5060408301516001600160a01b03811660608401525060608301516001600160a01b038116608084015250608083015160a083015260a083015160c083015260c083015160e083015260e08301516101806101008181860152614f5d6101a0860184614a12565b9250808601519050601f19610120818786030181880152614f7e8584614a12565b945080880151925050610140818786030181880152614f9d8584614a12565b908801516101608881019190915290970151929095019190915250929392505050565b60006101408c83528b60208401528a604084015260ff8a1660608401528860808401528760a08401528660c08401528060e084015261500181840187614a3e565b90508281036101008401526150168186614a3e565b905082810361012084015261502b8185614a3e565b9d9c50505050505050505050505050565b60006001600160401b03821115615055576150556151bb565b5060051b60200190565b60008219821115615072576150726151a5565b500190565b600063ffffffff808316818516808303821115615096576150966151a5565b01949350505050565b60008160001904831182151516156150b9576150b96151a5565b500290565b60005b838110156150d95781810151838201526020016150c1565b838111156150e8576000848401525b50505050565b6000816150fd576150fd6151a5565b506000190190565b600181811c9082168061511957607f821691505b6020821081141561180a57634e487b7160e01b600052602260045260246000fd5b601f8201601f191681016001600160401b038111828210171561515f5761515f6151bb565b6040525050565b600060001982141561517a5761517a6151a5565b5060010190565b600063ffffffff8083168181141561519b5761519b6151a5565b6001019392505050565b634e487b7160e01b600052601160045260246000fd5b634e487b7160e01b600052604160045260246000fd5b600060033d11156115a157600481823e5160e01c90565b600060443d10156151f8576115a1565b6040516003193d81016004833e81513d6001600160401b0381602484011181841117156152295750505050506115a1565b8285019150815181811115615243575050505050506115a1565b843d870101602082850101111561525f575050505050506115a1565b61526e6020828601018761513a565b509094505050505090565b6001600160e01b03198116811461316157600080fdfe8305613dd3dbc3e0773e56336f52890c75fc1219c6ed3f363339b8ada04df289ede6574deba8f02ada7888448a497b08844d62e044ed533343a673be3ffcde5ff047c8eb56a4fb9b90290fc55ce546369985412ba2348c56342b7afbf87ec1a65e1aa547d3dade8c68b013a47ad41c2bcc9b9e4b0765b0fb616780e15786e76af8890eedd7900ad88da6192fd03dbb69dbeee963b1a0ed738abe49ab3331aaf3434c4d383a3a5f69737375653a20697373756572206e6f7420612072656769732ab9f1da92e74aaa01eb75a871557505b11dd8d36832a34bb21bbee88b08d860e97dad3dbe5042e7384b1572cf966a15e089576a62b5126c5ef1d184ab18b12ca2646970667358221220baa602aa4cb1077c6c6caaccef4d76b3be14e4beca94e6002f88d358b2a484be64736f6c63430008030033",
  "linkReferences": {},
  "deployedLinkReferences": {}
}