{
  "_format": "hh-sol-artifact-1",
  "contractName": "NetEmissionsTokenNetwork",
  "sourceName": "contracts/NetEmissionsTokenNetwork.sol",
  "abi": [
    {
      "anonymous": false,
      "inputs": [
        {
          "indexed": true,
          "internalType": "address",
          "name": "account",
          "type": "address"
        },
        {
          "indexed": true,
          "internalType": "address",
          "name": "operator",
          "type": "address"
        },
        {
          "indexed": false,
          "internalType": "bool",
          "name": "approved",
          "type": "bool"
        }
      ],
      "name": "ApprovalForAll",
      "type": "event"
    },
    {
      "anonymous": false,
      "inputs": [
        {
          "indexed": true,
          "internalType": "address",
          "name": "account",
          "type": "address"
        }
      ],
      "name": "RegisteredConsumer",
      "type": "event"
    },
    {
      "anonymous": false,
      "inputs": [
        {
          "indexed": true,
          "internalType": "address",
          "name": "account",
          "type": "address"
        }
      ],
      "name": "RegisteredDealer",
      "type": "event"
    },
    {
      "anonymous": false,
      "inputs": [
        {
          "indexed": true,
          "internalType": "address",
          "name": "account",
          "type": "address"
        }
      ],
      "name": "RegisteredIndustry",
      "type": "event"
    },
    {
      "anonymous": false,
      "inputs": [
        {
          "indexed": true,
          "internalType": "bytes32",
          "name": "role",
          "type": "bytes32"
        },
        {
          "indexed": true,
          "internalType": "bytes32",
          "name": "previousAdminRole",
          "type": "bytes32"
        },
        {
          "indexed": true,
          "internalType": "bytes32",
          "name": "newAdminRole",
          "type": "bytes32"
        }
      ],
      "name": "RoleAdminChanged",
      "type": "event"
    },
    {
      "anonymous": false,
      "inputs": [
        {
          "indexed": true,
          "internalType": "bytes32",
          "name": "role",
          "type": "bytes32"
        },
        {
          "indexed": true,
          "internalType": "address",
          "name": "account",
          "type": "address"
        },
        {
          "indexed": true,
          "internalType": "address",
          "name": "sender",
          "type": "address"
        }
      ],
      "name": "RoleGranted",
      "type": "event"
    },
    {
      "anonymous": false,
      "inputs": [
        {
          "indexed": true,
          "internalType": "bytes32",
          "name": "role",
          "type": "bytes32"
        },
        {
          "indexed": true,
          "internalType": "address",
          "name": "account",
          "type": "address"
        },
        {
          "indexed": true,
          "internalType": "address",
          "name": "sender",
          "type": "address"
        }
      ],
      "name": "RoleRevoked",
      "type": "event"
    },
    {
      "anonymous": false,
      "inputs": [
        {
          "indexed": false,
          "internalType": "uint256",
          "name": "availableBalance",
          "type": "uint256"
        },
        {
          "indexed": false,
          "internalType": "uint256",
          "name": "retiredBalance",
          "type": "uint256"
        },
        {
          "indexed": false,
          "internalType": "uint256",
          "name": "tokenId",
          "type": "uint256"
        },
        {
          "indexed": false,
          "internalType": "uint8",
          "name": "tokenTypeId",
          "type": "uint8"
        },
        {
          "indexed": true,
          "internalType": "address",
          "name": "issuer",
          "type": "address"
        },
        {
          "indexed": true,
          "internalType": "address",
          "name": "issuee",
          "type": "address"
        },
        {
          "indexed": false,
          "internalType": "uint256",
          "name": "fromDate",
          "type": "uint256"
        },
        {
          "indexed": false,
          "internalType": "uint256",
          "name": "thruDate",
          "type": "uint256"
        },
        {
          "indexed": false,
          "internalType": "uint256",
          "name": "dateCreated",
          "type": "uint256"
        },
        {
          "indexed": false,
          "internalType": "uint256",
          "name": "automaticRetireDate",
          "type": "uint256"
        },
        {
          "indexed": false,
          "internalType": "string",
          "name": "metadata",
          "type": "string"
        },
        {
          "indexed": false,
          "internalType": "string",
          "name": "manifest",
          "type": "string"
        },
        {
          "indexed": false,
          "internalType": "string",
          "name": "description",
          "type": "string"
        }
      ],
      "name": "TokenCreated",
      "type": "event"
    },
    {
      "anonymous": false,
      "inputs": [
        {
          "indexed": true,
          "internalType": "address",
          "name": "account",
          "type": "address"
        },
        {
          "indexed": false,
          "internalType": "uint256",
          "name": "tokenId",
          "type": "uint256"
        },
        {
          "indexed": false,
          "internalType": "uint256",
          "name": "amount",
          "type": "uint256"
        }
      ],
      "name": "TokenRetired",
      "type": "event"
    },
    {
      "anonymous": false,
      "inputs": [
        {
          "indexed": true,
          "internalType": "address",
          "name": "operator",
          "type": "address"
        },
        {
          "indexed": true,
          "internalType": "address",
          "name": "from",
          "type": "address"
        },
        {
          "indexed": true,
          "internalType": "address",
          "name": "to",
          "type": "address"
        },
        {
          "indexed": false,
          "internalType": "uint256[]",
          "name": "ids",
          "type": "uint256[]"
        },
        {
          "indexed": false,
          "internalType": "uint256[]",
          "name": "values",
          "type": "uint256[]"
        }
      ],
      "name": "TransferBatch",
      "type": "event"
    },
    {
      "anonymous": false,
      "inputs": [
        {
          "indexed": true,
          "internalType": "address",
          "name": "operator",
          "type": "address"
        },
        {
          "indexed": true,
          "internalType": "address",
          "name": "from",
          "type": "address"
        },
        {
          "indexed": true,
          "internalType": "address",
          "name": "to",
          "type": "address"
        },
        {
          "indexed": false,
          "internalType": "uint256",
          "name": "id",
          "type": "uint256"
        },
        {
          "indexed": false,
          "internalType": "uint256",
          "name": "value",
          "type": "uint256"
        }
      ],
      "name": "TransferSingle",
      "type": "event"
    },
    {
      "anonymous": false,
      "inputs": [
        {
          "indexed": false,
          "internalType": "string",
          "name": "value",
          "type": "string"
        },
        {
          "indexed": true,
          "internalType": "uint256",
          "name": "id",
          "type": "uint256"
        }
      ],
      "name": "URI",
      "type": "event"
    },
    {
      "anonymous": false,
      "inputs": [
        {
          "indexed": true,
          "internalType": "address",
          "name": "account",
          "type": "address"
        }
      ],
      "name": "UnregisteredConsumer",
      "type": "event"
    },
    {
      "anonymous": false,
      "inputs": [
        {
          "indexed": true,
          "internalType": "address",
          "name": "account",
          "type": "address"
        }
      ],
      "name": "UnregisteredDealer",
      "type": "event"
    },
    {
      "anonymous": false,
      "inputs": [
        {
          "indexed": true,
          "internalType": "address",
          "name": "account",
          "type": "address"
        }
      ],
      "name": "UnregisteredIndustry",
      "type": "event"
    },
    {
      "inputs": [],
      "name": "DEFAULT_ADMIN_ROLE",
      "outputs": [
        {
          "internalType": "bytes32",
          "name": "",
          "type": "bytes32"
        }
      ],
      "stateMutability": "view",
      "type": "function"
    },
    {
      "inputs": [],
      "name": "REGISTERED_CONSUMER",
      "outputs": [
        {
          "internalType": "bytes32",
          "name": "",
          "type": "bytes32"
        }
      ],
      "stateMutability": "view",
      "type": "function"
    },
    {
      "inputs": [],
      "name": "REGISTERED_DEALER",
      "outputs": [
        {
          "internalType": "bytes32",
          "name": "",
          "type": "bytes32"
        }
      ],
      "stateMutability": "view",
      "type": "function"
    },
    {
      "inputs": [],
      "name": "REGISTERED_EMISSIONS_AUDITOR",
      "outputs": [
        {
          "internalType": "bytes32",
          "name": "",
          "type": "bytes32"
        }
      ],
      "stateMutability": "view",
      "type": "function"
    },
    {
      "inputs": [],
      "name": "REGISTERED_INDUSTRY",
      "outputs": [
        {
          "internalType": "bytes32",
          "name": "",
          "type": "bytes32"
        }
      ],
      "stateMutability": "view",
      "type": "function"
    },
    {
      "inputs": [],
      "name": "REGISTERED_INDUSTRY_DEALER",
      "outputs": [
        {
          "internalType": "bytes32",
          "name": "",
          "type": "bytes32"
        }
      ],
      "stateMutability": "view",
      "type": "function"
    },
    {
      "inputs": [],
      "name": "REGISTERED_OFFSET_DEALER",
      "outputs": [
        {
          "internalType": "bytes32",
          "name": "",
          "type": "bytes32"
        }
      ],
      "stateMutability": "view",
      "type": "function"
    },
    {
      "inputs": [],
      "name": "REGISTERED_REC_DEALER",
      "outputs": [
        {
          "internalType": "bytes32",
          "name": "",
          "type": "bytes32"
        }
      ],
      "stateMutability": "view",
      "type": "function"
    },
    {
      "inputs": [
        {
          "internalType": "address",
          "name": "entity",
          "type": "address"
        }
      ],
      "name": "_consumerOrDealer",
      "outputs": [
        {
          "internalType": "bool",
          "name": "",
          "type": "bool"
        }
      ],
      "stateMutability": "view",
      "type": "function"
    },
    {
      "inputs": [],
      "name": "admin",
      "outputs": [
        {
          "internalType": "address",
          "name": "",
          "type": "address"
        }
      ],
      "stateMutability": "view",
      "type": "function"
    },
    {
      "inputs": [
        {
          "internalType": "address",
          "name": "account",
          "type": "address"
        },
        {
          "internalType": "uint256",
          "name": "id",
          "type": "uint256"
        }
      ],
      "name": "balanceOf",
      "outputs": [
        {
          "internalType": "uint256",
          "name": "",
          "type": "uint256"
        }
      ],
      "stateMutability": "view",
      "type": "function"
    },
    {
      "inputs": [
        {
          "internalType": "address[]",
          "name": "accounts",
          "type": "address[]"
        },
        {
          "internalType": "uint256[]",
          "name": "ids",
          "type": "uint256[]"
        }
      ],
      "name": "balanceOfBatch",
      "outputs": [
        {
          "internalType": "uint256[]",
          "name": "",
          "type": "uint256[]"
        }
      ],
      "stateMutability": "view",
      "type": "function"
    },
    {
      "inputs": [
        {
          "internalType": "address",
          "name": "account",
          "type": "address"
        },
        {
          "internalType": "uint256",
          "name": "tokenId",
          "type": "uint256"
        }
      ],
      "name": "getAvailableAndRetired",
      "outputs": [
        {
          "internalType": "uint256",
          "name": "",
          "type": "uint256"
        },
        {
          "internalType": "uint256",
          "name": "",
          "type": "uint256"
        }
      ],
      "stateMutability": "view",
      "type": "function"
    },
    {
      "inputs": [
        {
          "internalType": "uint256",
          "name": "tokenId",
          "type": "uint256"
        }
      ],
      "name": "getIssuer",
      "outputs": [
        {
          "internalType": "address",
          "name": "",
          "type": "address"
        }
      ],
      "stateMutability": "view",
      "type": "function"
    },
    {
      "inputs": [],
      "name": "getNumOfUniqueTokens",
      "outputs": [
        {
          "internalType": "uint256",
          "name": "",
          "type": "uint256"
        }
      ],
      "stateMutability": "view",
      "type": "function"
    },
    {
      "inputs": [
        {
          "internalType": "uint256",
          "name": "tokenId",
          "type": "uint256"
        },
        {
          "internalType": "address",
          "name": "account",
          "type": "address"
        }
      ],
      "name": "getRetiredBalances",
      "outputs": [
        {
          "internalType": "uint256",
          "name": "",
          "type": "uint256"
        }
      ],
      "stateMutability": "view",
      "type": "function"
    },
    {
      "inputs": [
        {
          "internalType": "bytes32",
          "name": "role",
          "type": "bytes32"
        }
      ],
      "name": "getRoleAdmin",
      "outputs": [
        {
          "internalType": "bytes32",
          "name": "",
          "type": "bytes32"
        }
      ],
      "stateMutability": "view",
      "type": "function"
    },
    {
      "inputs": [
        {
          "internalType": "address",
          "name": "account",
          "type": "address"
        }
      ],
      "name": "getRoles",
      "outputs": [
        {
          "internalType": "bool",
          "name": "",
          "type": "bool"
        },
        {
          "internalType": "bool",
          "name": "",
          "type": "bool"
        },
        {
          "internalType": "bool",
          "name": "",
          "type": "bool"
        },
        {
          "internalType": "bool",
          "name": "",
          "type": "bool"
        },
        {
          "internalType": "bool",
          "name": "",
          "type": "bool"
        },
        {
          "internalType": "bool",
          "name": "",
          "type": "bool"
        }
      ],
      "stateMutability": "view",
      "type": "function"
    },
    {
      "inputs": [
        {
          "internalType": "uint256",
          "name": "tokenId",
          "type": "uint256"
        }
      ],
      "name": "getTokenDetails",
      "outputs": [
        {
          "components": [
            {
              "internalType": "uint256",
              "name": "tokenId",
              "type": "uint256"
            },
            {
              "internalType": "uint8",
              "name": "tokenTypeId",
              "type": "uint8"
            },
            {
              "internalType": "address",
              "name": "issuer",
              "type": "address"
            },
            {
              "internalType": "address",
              "name": "issuee",
              "type": "address"
            },
            {
              "internalType": "uint256",
              "name": "fromDate",
              "type": "uint256"
            },
            {
              "internalType": "uint256",
              "name": "thruDate",
              "type": "uint256"
            },
            {
              "internalType": "uint256",
              "name": "dateCreated",
              "type": "uint256"
            },
            {
              "internalType": "uint256",
              "name": "automaticRetireDate",
              "type": "uint256"
            },
            {
              "internalType": "string",
              "name": "metadata",
              "type": "string"
            },
            {
              "internalType": "string",
              "name": "manifest",
              "type": "string"
            },
            {
              "internalType": "string",
              "name": "description",
              "type": "string"
            },
            {
              "internalType": "uint256",
              "name": "totalIssued",
              "type": "uint256"
            },
            {
              "internalType": "uint256",
              "name": "totalRetired",
              "type": "uint256"
            }
          ],
          "internalType": "struct NetEmissionsTokenNetwork.CarbonTokenDetails",
          "name": "",
          "type": "tuple"
        }
      ],
      "stateMutability": "view",
      "type": "function"
    },
    {
      "inputs": [
        {
          "internalType": "address",
          "name": "account",
          "type": "address"
        },
        {
          "internalType": "uint256",
          "name": "tokenId",
          "type": "uint256"
        }
      ],
      "name": "getTokenRetiredAmount",
      "outputs": [
        {
          "internalType": "uint256",
          "name": "",
          "type": "uint256"
        }
      ],
      "stateMutability": "view",
      "type": "function"
    },
    {
      "inputs": [
        {
          "internalType": "uint256",
          "name": "tokenId",
          "type": "uint256"
        }
      ],
      "name": "getTokenType",
      "outputs": [
        {
          "internalType": "string",
          "name": "",
          "type": "string"
        }
      ],
      "stateMutability": "view",
      "type": "function"
    },
    {
      "inputs": [
        {
          "internalType": "uint256",
          "name": "tokenId",
          "type": "uint256"
        }
      ],
      "name": "getTokenTypeId",
      "outputs": [
        {
          "internalType": "uint8",
          "name": "",
          "type": "uint8"
        }
      ],
      "stateMutability": "view",
      "type": "function"
    },
    {
      "inputs": [
        {
          "internalType": "address",
          "name": "_from",
          "type": "address"
        },
        {
          "internalType": "address",
          "name": "_to",
          "type": "address"
        },
        {
          "internalType": "uint256[]",
          "name": "_ids",
          "type": "uint256[]"
        },
        {
          "internalType": "uint256[]",
          "name": "_amounts",
          "type": "uint256[]"
        }
      ],
      "name": "getTransferHash",
      "outputs": [
        {
          "internalType": "bytes32",
          "name": "",
          "type": "bytes32"
        }
      ],
      "stateMutability": "view",
      "type": "function"
    },
    {
      "inputs": [
        {
          "internalType": "uint256",
          "name": "tokenId",
          "type": "uint256"
        },
        {
          "internalType": "address",
          "name": "account",
          "type": "address"
        }
      ],
      "name": "getTransferredBalances",
      "outputs": [
        {
          "internalType": "uint256",
          "name": "",
          "type": "uint256"
        }
      ],
      "stateMutability": "view",
      "type": "function"
    },
    {
      "inputs": [
        {
          "internalType": "bytes32",
          "name": "role",
          "type": "bytes32"
        },
        {
          "internalType": "address",
          "name": "account",
          "type": "address"
        }
      ],
      "name": "grantRole",
      "outputs": [],
      "stateMutability": "nonpayable",
      "type": "function"
    },
    {
      "inputs": [
        {
          "internalType": "bytes32",
          "name": "role",
          "type": "bytes32"
        },
        {
          "internalType": "address",
          "name": "account",
          "type": "address"
        }
      ],
      "name": "hasRole",
      "outputs": [
        {
          "internalType": "bool",
          "name": "",
          "type": "bool"
        }
      ],
      "stateMutability": "view",
      "type": "function"
    },
    {
      "inputs": [
        {
          "internalType": "address",
          "name": "_admin",
          "type": "address"
        }
      ],
      "name": "initialize",
      "outputs": [],
      "stateMutability": "nonpayable",
      "type": "function"
    },
    {
      "inputs": [
        {
          "internalType": "address",
          "name": "account",
          "type": "address"
        },
        {
          "internalType": "address",
          "name": "operator",
          "type": "address"
        }
      ],
      "name": "isApprovedForAll",
      "outputs": [
        {
          "internalType": "bool",
          "name": "",
          "type": "bool"
        }
      ],
      "stateMutability": "view",
      "type": "function"
    },
    {
      "inputs": [
        {
          "internalType": "address",
          "name": "auditor",
          "type": "address"
        }
      ],
      "name": "isAuditor",
      "outputs": [
        {
          "internalType": "bool",
          "name": "",
          "type": "bool"
        }
      ],
      "stateMutability": "view",
      "type": "function"
    },
    {
      "inputs": [
        {
          "internalType": "address",
          "name": "account",
          "type": "address"
        }
      ],
      "name": "isConsumerRegistered",
      "outputs": [
        {
          "internalType": "bool",
          "name": "",
          "type": "bool"
        }
      ],
      "stateMutability": "view",
      "type": "function"
    },
    {
      "inputs": [
        {
          "internalType": "address",
          "name": "account",
          "type": "address"
        }
      ],
      "name": "isDealerRegistered",
      "outputs": [
        {
          "internalType": "bool",
          "name": "",
          "type": "bool"
        }
      ],
      "stateMutability": "view",
      "type": "function"
    },
    {
      "inputs": [
        {
          "internalType": "address",
          "name": "issuee",
          "type": "address"
        },
        {
          "internalType": "uint8",
          "name": "tokenTypeId",
          "type": "uint8"
        },
        {
          "internalType": "uint256",
          "name": "quantity",
          "type": "uint256"
        },
        {
          "internalType": "uint256",
          "name": "fromDate",
          "type": "uint256"
        },
        {
          "internalType": "uint256",
          "name": "thruDate",
          "type": "uint256"
        },
        {
          "internalType": "uint256",
          "name": "automaticRetireDate",
          "type": "uint256"
        },
        {
          "internalType": "string",
          "name": "metadata",
          "type": "string"
        },
        {
          "internalType": "string",
          "name": "manifest",
          "type": "string"
        },
        {
          "internalType": "string",
          "name": "description",
          "type": "string"
        }
      ],
      "name": "issue",
      "outputs": [],
      "stateMutability": "nonpayable",
      "type": "function"
    },
    {
      "inputs": [
        {
          "internalType": "address",
          "name": "issuee",
          "type": "address"
        },
        {
          "internalType": "address",
          "name": "issuer",
          "type": "address"
        },
        {
          "internalType": "uint8",
          "name": "tokenTypeId",
          "type": "uint8"
        },
        {
          "internalType": "uint256",
          "name": "quantity",
          "type": "uint256"
        },
        {
          "internalType": "uint256",
          "name": "fromDate",
          "type": "uint256"
        },
        {
          "internalType": "uint256",
          "name": "thruDate",
          "type": "uint256"
        },
        {
          "internalType": "uint256",
          "name": "automaticRetireDate",
          "type": "uint256"
        },
        {
          "internalType": "string",
          "name": "metadata",
          "type": "string"
        },
        {
          "internalType": "string",
          "name": "manifest",
          "type": "string"
        },
        {
          "internalType": "string",
          "name": "description",
          "type": "string"
        }
      ],
      "name": "issueOnBehalf",
      "outputs": [],
      "stateMutability": "nonpayable",
      "type": "function"
    },
    {
      "inputs": [],
      "name": "limitedMode",
      "outputs": [
        {
          "internalType": "bool",
          "name": "",
          "type": "bool"
        }
      ],
      "stateMutability": "view",
      "type": "function"
    },
    {
      "inputs": [
        {
          "internalType": "address",
          "name": "to",
          "type": "address"
        },
        {
          "internalType": "uint256",
          "name": "tokenId",
          "type": "uint256"
        },
        {
          "internalType": "uint256",
          "name": "quantity",
          "type": "uint256"
        }
      ],
      "name": "mint",
      "outputs": [],
      "stateMutability": "nonpayable",
      "type": "function"
    },
    {
      "inputs": [
        {
          "internalType": "address",
          "name": "account",
          "type": "address"
        }
      ],
      "name": "registerConsumer",
      "outputs": [],
      "stateMutability": "nonpayable",
      "type": "function"
    },
    {
      "inputs": [
        {
          "internalType": "address",
          "name": "account",
          "type": "address"
        },
        {
          "internalType": "uint8",
          "name": "tokenTypeId",
          "type": "uint8"
        }
      ],
      "name": "registerDealer",
      "outputs": [],
      "stateMutability": "nonpayable",
      "type": "function"
    },
    {
      "inputs": [
        {
          "internalType": "address",
          "name": "account",
          "type": "address"
        }
      ],
      "name": "registerIndustry",
      "outputs": [],
      "stateMutability": "nonpayable",
      "type": "function"
    },
    {
      "inputs": [
        {
          "internalType": "bytes32",
          "name": "role",
          "type": "bytes32"
        },
        {
          "internalType": "address",
          "name": "account",
          "type": "address"
        }
      ],
      "name": "renounceRole",
      "outputs": [],
      "stateMutability": "nonpayable",
      "type": "function"
    },
    {
      "inputs": [
        {
          "internalType": "uint256",
          "name": "tokenId",
          "type": "uint256"
        },
        {
          "internalType": "uint256",
          "name": "amount",
          "type": "uint256"
        }
      ],
      "name": "retire",
      "outputs": [],
      "stateMutability": "nonpayable",
      "type": "function"
    },
    {
      "inputs": [
        {
          "internalType": "bytes32",
          "name": "role",
          "type": "bytes32"
        },
        {
          "internalType": "address",
          "name": "account",
          "type": "address"
        }
      ],
      "name": "revokeRole",
      "outputs": [],
      "stateMutability": "nonpayable",
      "type": "function"
    },
    {
      "inputs": [
        {
          "internalType": "address",
          "name": "from",
          "type": "address"
        },
        {
          "internalType": "address",
          "name": "to",
          "type": "address"
        },
        {
          "internalType": "uint256[]",
          "name": "ids",
          "type": "uint256[]"
        },
        {
          "internalType": "uint256[]",
          "name": "amounts",
          "type": "uint256[]"
        },
        {
          "internalType": "bytes",
          "name": "data",
          "type": "bytes"
        }
      ],
      "name": "safeBatchTransferFrom",
      "outputs": [],
      "stateMutability": "nonpayable",
      "type": "function"
    },
    {
      "inputs": [
        {
          "internalType": "address",
          "name": "from",
          "type": "address"
        },
        {
          "internalType": "address",
          "name": "to",
          "type": "address"
        },
        {
          "internalType": "uint256",
          "name": "id",
          "type": "uint256"
        },
        {
          "internalType": "uint256",
          "name": "amount",
          "type": "uint256"
        },
        {
          "internalType": "bytes",
          "name": "data",
          "type": "bytes"
        }
      ],
      "name": "safeTransferFrom",
      "outputs": [],
      "stateMutability": "nonpayable",
      "type": "function"
    },
    {
      "inputs": [
        {
          "internalType": "address",
          "name": "operator",
          "type": "address"
        },
        {
          "internalType": "bool",
          "name": "approved",
          "type": "bool"
        }
      ],
      "name": "setApprovalForAll",
      "outputs": [],
      "stateMutability": "nonpayable",
      "type": "function"
    },
    {
      "inputs": [
        {
          "internalType": "bool",
          "name": "_limitedMode",
          "type": "bool"
        }
      ],
      "name": "setLimitedMode",
      "outputs": [],
      "stateMutability": "nonpayable",
      "type": "function"
    },
    {
      "inputs": [
        {
          "internalType": "address",
          "name": "_timelock",
          "type": "address"
        }
      ],
      "name": "setTimelock",
      "outputs": [],
      "stateMutability": "nonpayable",
      "type": "function"
    },
    {
      "inputs": [
        {
          "internalType": "bytes4",
          "name": "interfaceId",
          "type": "bytes4"
        }
      ],
      "name": "supportsInterface",
      "outputs": [
        {
          "internalType": "bool",
          "name": "",
          "type": "bool"
        }
      ],
      "stateMutability": "view",
      "type": "function"
    },
    {
      "inputs": [
        {
          "internalType": "address",
          "name": "to",
          "type": "address"
        },
        {
          "internalType": "uint256",
          "name": "tokenId",
          "type": "uint256"
        },
        {
          "internalType": "uint256",
          "name": "value",
          "type": "uint256"
        }
      ],
      "name": "transfer",
      "outputs": [],
      "stateMutability": "nonpayable",
      "type": "function"
    },
    {
      "inputs": [
        {
          "internalType": "address",
          "name": "account",
          "type": "address"
        }
      ],
      "name": "unregisterConsumer",
      "outputs": [],
      "stateMutability": "nonpayable",
      "type": "function"
    },
    {
      "inputs": [
        {
          "internalType": "address",
          "name": "account",
          "type": "address"
        },
        {
          "internalType": "uint8",
          "name": "tokenTypeId",
          "type": "uint8"
        }
      ],
      "name": "unregisterDealer",
      "outputs": [],
      "stateMutability": "nonpayable",
      "type": "function"
    },
    {
      "inputs": [
        {
          "internalType": "uint256",
          "name": "",
          "type": "uint256"
        }
      ],
      "name": "uri",
      "outputs": [
        {
          "internalType": "string",
          "name": "",
          "type": "string"
        }
      ],
      "stateMutability": "view",
      "type": "function"
    },
    {
      "inputs": [
        {
          "internalType": "bytes32",
          "name": "msgHash",
          "type": "bytes32"
        },
        {
          "internalType": "bytes",
          "name": "signature",
          "type": "bytes"
        },
        {
          "internalType": "address",
          "name": "signer",
          "type": "address"
        }
      ],
      "name": "verifySignature",
      "outputs": [
        {
          "internalType": "bool",
          "name": "",
          "type": "bool"
        }
      ],
      "stateMutability": "pure",
      "type": "function"
    }
  ],
  "bytecode": "0x608060405234801561001057600080fd5b5061537f806100206000396000f3fe608060405234801561001057600080fd5b506004361061030b5760003560e01c80637aab1b881161019d578063d75cfd58116100e9578063f242432a116100a2578063fbdf37ea1161007c578063fbdf37ea14610807578063fc0bbce31461081c578063fcba79481461082f578063fd0c4a9a146108445761030b565b8063f242432a146107a6578063f73e09e0146107b9578063f851a440146107ef5761030b565b8063d75cfd58146106ee578063dba851b014610724578063ddc3e6eb14610731578063e2e564f214610744578063e985e9c514610757578063f000be98146107935761030b565b8063a217fddf11610156578063c1e0372811610130578063c1e037281461065c578063c4d66de81461067c578063ce6ccfaf1461068f578063d547741f146106db5761030b565b8063a217fddf1461062e578063a22cb46514610636578063bdacb303146106495761030b565b80637aab1b881461056f5780637f157c9b14610582578063907b6652146105aa57806391d14854146105bf57806392089c46146105d2578063a0d975a71461061b5761030b565b806331aa4b201161025c5780634e1273f41161021557806369f7ef44116101ef57806369f7ef441461051f57806376aed2e11461053257806376ce47551461054557806378e5c5921461055a5761030b565b80634e1273f4146104e457806353dbe982146105045780635ddb368f146105175761030b565b806331aa4b201461047257806331cd41991461048557806333781a0e1461049857806336568abe146104ab57806344b22fdd146104be57806349b90557146104d15761030b565b8063156e29f6116102c9578063248a9ca3116102a3578063248a9ca314610416578063293a7f2e146104395780632eb2c2d61461044c5780632f2ff15d1461045f5761030b565b8063156e29f6146103d957806318a50d7e146103ec5780631ef68ef7146104015761030b565b8062fdd58e1461031057806301ffc9a714610336578063033fd91914610359578063095bcdb61461036e5780630e89341c14610381578063127d5ad0146103a1575b600080fd5b61032361031e366004614623565b610857565b6040519081526020015b60405180910390f35b6103496103443660046148e5565b6108f0565b604051901515815260200161032d565b61036c610367366004614348565b61091d565b005b61036c61037c36600461464c565b610a18565b61039461038f366004614857565b610aaa565b60405161032d9190614c31565b6103c76103af366004614857565b600090815260cc602052604090206001015460ff1690565b60405160ff909116815260200161032d565b61036c6103e736600461464c565b610b3e565b6103236000805160206152ca83398151915281565b61032360008051602061526a83398151915281565b610323610424366004614857565b60009081526097602052604090206001015490565b61036c610447366004614935565b610c4e565b61036c61045a366004614415565b610dd3565b61036c61046d36600461486f565b610e6a565b61036c61048036600461467e565b610e91565b610349610493366004614891565b611023565b6103496104a6366004614348565b6110a6565b61036c6104b936600461486f565b6110c0565b61036c6104cc366004614348565b61113e565b6103496104df366004614348565b611228565b6104f76104f2366004614773565b611242565b60405161032d9190614bf0565b61036c610512366004614348565b6113a3565b610323611491565b61034961052d366004614348565b6114a2565b610394610540366004614857565b61152b565b61032360008051602061532a83398151915281565b6103236000805160206152aa83398151915281565b61032361057d366004614394565b6116eb565b610595610590366004614623565b611760565b6040805192835260208301919091520161032d565b61032360008051602061528a83398151915281565b6103496105cd36600461486f565b611802565b6106036105e0366004614857565b600090815260cc602052604090206001015461010090046001600160a01b031690565b6040516001600160a01b03909116815260200161032d565b610323610629366004614623565b61182d565b610323600081565b61036c6106443660046145fa565b6118c8565b61036c610657366004614348565b6118d3565b61066f61066a366004614857565b61191c565b60405161032d9190614e78565b61036c61068a366004614348565b611bed565b6106a261069d366004614348565b611db2565b604080519615158752941515602087015292151593850193909352151560608401529015156080830152151560a082015260c00161032d565b61036c6106e936600461486f565b611e66565b6103236106fc36600461486f565b600091825260cd602090815260408084206001600160a01b0393909316845291905290205490565b60c9546103499060ff1681565b61036c61073f36600461483d565b611e8c565b61036c61075236600461467e565b611ec6565b610349610765366004614362565b6001600160a01b03918216600090815260666020908152604080832093909416825291909152205460ff1690565b61036c6107a136600461451c565b61204f565b61036c6107b43660046144ba565b6120f6565b6103236107c736600461486f565b600091825260ce602090815260408084206001600160a01b0393909316845291905290205490565b60c9546106039061010090046001600160a01b031681565b61032360008051602061524a83398151915281565b61034961082a366004614348565b61217d565b61032360008051602061530a83398151915281565b61036c6108523660046146a7565b6121d3565b60006001600160a01b0383166108c85760405162461bcd60e51b815260206004820152602b60248201527f455243313135353a2062616c616e636520717565727920666f7220746865207a60448201526a65726f206164647265737360a81b60648201526084015b60405180910390fd5b5060009081526065602090815260408083206001600160a01b03949094168352929052205490565b60006001600160e01b03198216637965db0b60e01b14806109155750610915826121f8565b90505b919050565b336001600160a01b038216146109355761093561221d565b60c95460ff16156109c95761094b600033611802565b6109c95760405162461bcd60e51b815260206004820152604360248201527f434c4d383a3a7265676973746572496e647573747279286c696d69746564293a60448201527f206f6e6c792061646d696e2063616e20726567697374657220696e647573747260648201526269657360e81b608482015260a4016108bf565b6109e160008051602061524a833981519152826122b3565b6040516001600160a01b038216907f1230fb0cdc77da02d53e840f6f60d5e7f68646d7d1ccdd890860e05533b62f5390600090a250565b610a21826122bd565b610a7c5760405162461bcd60e51b815260206004820152602660248201527f434c4d383a3a7472616e736665723a20746f6b656e496420646f6573206e6f7460448201526508195e1a5cdd60d21b60648201526084016108bf565b610aa533848484604051806040016040528060048152602001630307830360e41b8152506120f6565b505050565b606060678054610ab9906150bf565b80601f0160208091040260200160405190810160405280929190818152602001828054610ae5906150bf565b8015610b325780601f10610b0757610100808354040283529160200191610b32565b820191906000526020600020905b815481529060010190602001808311610b1557829003601f168201915b50505050509050919050565b610b49600033611802565b610b655760405162461bcd60e51b81526004016108bf90614c8c565b610b6e826122bd565b610bc55760405162461bcd60e51b815260206004820152602260248201527f434c4d383a3a6d696e743a20746f6b656e496420646f6573206e6f74206578696044820152611cdd60f21b60648201526084016108bf565b60c95460ff1615610c335760405162461bcd60e51b815260206004820152603260248201527f434c4d383a3a6d696e743a2063616e6e6f74206d696e74206e657720746f6b656044820152716e7320696e206c696d69746564206d6f646560701b60648201526084016108bf565b610aa5838383604051806020016040528060008152506122d6565b3360008115610c7c57610c608261217d565b610c7c5760405162461bcd60e51b81526004016108bf90614dd0565b6001600160a01b03811615610cb057610c948161217d565b610cb05760405162461bcd60e51b81526004016108bf90614cd5565b610cb9846122bd565b610d115760405162461bcd60e51b8152602060048201526024808201527f434c4d383a3a7265746972653a20746f6b656e496420646f6573206e6f7420656044820152631e1a5cdd60e21b60648201526084016108bf565b610d1b3385610857565b831115610d875760405162461bcd60e51b815260206004820152603460248201527f434c4d383a3a7265746972653a206e6f7420656e6f75676820617661696c61626044820152736c652062616c616e636520746f2072657469726560601b60648201526084016108bf565b610d923385856123e8565b604080518581526020810185905233917f8f1b5ebb586d3d169e4ed07db9cd10ce0dd30c7b656171310eae7517c0b53cf9910160405180910390a250505050565b6001600160a01b038516331480610def5750610def8533610765565b610e565760405162461bcd60e51b815260206004820152603260248201527f455243313135353a207472616e736665722063616c6c6572206973206e6f74206044820152711bdddb995c881b9bdc88185c1c1c9bdd995960721b60648201526084016108bf565b610e638585858585612474565b5050505050565b600082815260976020526040902060010154610e8781335b61267e565b610aa583836126e2565b610e9c600033611802565b610eb85760405162461bcd60e51b81526004016108bf90614c8c565b610ec181612768565b610f265760405162461bcd60e51b815260206004820152603060248201527f434c4d383a3a72656769737465724465616c65723a20746f6b656e547970654960448201526f1908191bd95cc81b9bdd08195e1a5cdd60821b60648201526084016108bf565b8060ff1660011415610f4f57610f4a60008051602061530a83398151915283610e6a565b610fd3565b8060ff1660021415610f7357610f4a60008051602061526a83398151915283610e6a565b8060ff1660031415610f9757610f4a60008051602061532a83398151915283610e6a565b8060ff1660041415610fd357610fbb60008051602061524a83398151915283610e6a565b610fd360008051602061528a83398151915283610e6a565b610feb6000805160206152ca83398151915283610e6a565b6040516001600160a01b038316907fa8377deee15954185683d55effd369508b4935978c8cb2bab790bf04c570181490600090a25050565b60008061107d856040517f19457468657265756d205369676e6564204d6573736167653a0a3332000000006020820152603c8101829052600090605c01604051602081830303815290604052805190602001209050919050565b90506001600160a01b038316611093828661278a565b6001600160a01b03161495945050505050565b60006109156000805160206152aa83398151915283611802565b6001600160a01b03811633146111305760405162461bcd60e51b815260206004820152602f60248201527f416363657373436f6e74726f6c3a2063616e206f6e6c792072656e6f756e636560448201526e103937b632b9903337b91039b2b63360891b60648201526084016108bf565b61113a82826127a6565b5050565b61114661221d565b60c95460ff16156111d95761115c600033611802565b6111d95760405162461bcd60e51b815260206004820152604260248201527f434c4d383a3a7265676973746572436f6e73756d6572286c696d69746564293a60448201527f206f6e6c792061646d696e2063616e20726567697374657220636f6e73756d65606482015261727360f01b608482015260a4016108bf565b6111f16000805160206152aa83398151915282610e6a565b6040516001600160a01b038216907f69a0adee259d26fe61f4776f7bea7f3a9737c7321256821b985f988545efd31990600090a250565b600061091560008051602061532a83398151915283611802565b606081518351146112a75760405162461bcd60e51b815260206004820152602960248201527f455243313135353a206163636f756e747320616e6420696473206c656e677468604482015268040dad2e6dac2e8c6d60bb1b60648201526084016108bf565b600083516001600160401b038111156112d057634e487b7160e01b600052604160045260246000fd5b6040519080825280602002602001820160405280156112f9578160200160208202803683370190505b50905060005b845181101561139b5761136085828151811061132b57634e487b7160e01b600052603260045260246000fd5b602002602001015185838151811061135357634e487b7160e01b600052603260045260246000fd5b6020026020010151610857565b82828151811061138057634e487b7160e01b600052603260045260246000fd5b602090810291909101015261139481615120565b90506112ff565b509392505050565b6113ab61221d565b60c95460ff1615611442576113c1600033611802565b6114425760405162461bcd60e51b815260206004820152604660248201527f434c4d383a3a756e7265676973746572436f6e73756d6572286c696d6974656460448201527f293a206f6e6c792061646d696e2063616e20756e726567697374657220636f6e60648201526573756d65727360d01b608482015260a4016108bf565b61145a6000805160206152aa83398151915282611e66565b6040516001600160a01b038216907f03a38088da75ee2d80f6c753f55f8fd17602ae17d8bd0ef44d5e1f28ab5af11f90600090a250565b600061149c60cb5490565b90505b90565b60006114bc60008051602061530a83398151915283611802565b806114da57506114da60008051602061526a83398151915283611802565b806114f857506114f860008051602061532a83398151915283611802565b80611516575061151660008051602061528a83398151915283611802565b1561152357506001610918565b506000919050565b6060611536826122bd565b6115955760405162461bcd60e51b815260206004820152602a60248201527f434c4d383a3a676574546f6b656e547970653a20746f6b656e496420646f6573604482015269081b9bdd08195e1a5cdd60b21b60648201526084016108bf565b600082815260cc6020526040902060018082015460ff1614156115ed57505060408051808201909152601c81527f52656e657761626c6520456e65726779204365727469666963617465000000006020820152610918565b600181015460ff166002141561163857505060408051808201909152601781527f436172626f6e20456d697373696f6e73204f66667365740000000000000000006020820152610918565b600181015460ff16600314156116775750506040805180820190915260118152704175646974656420456d697373696f6e7360781b6020820152610918565b600181015460ff16600414156116b357505060408051808201909152600e81526d21b0b93137b7102a3930b1b5b2b960911b6020820152610918565b5050604080518082019091526014815273151bdad95b88191bd95cc81b9bdd08195e1a5cdd60621b6020820152610918565b50919050565b6001600160a01b03808516600090815260cf60209081526040808320938716835292905290812054859085908590859061172c9063ffffffff166001615031565b604051602001611740959493929190614a7f565b604051602081830303815290604052805190602001209050949350505050565b600080600061176f8585610857565b60405163a0d975a760e01b81526001600160a01b038716600482015260248101869052909150600090309063a0d975a79060440160206040518083038186803b1580156117bb57600080fd5b505afa1580156117cf573d6000803e3d6000fd5b505050506040513d601f19601f820116820180604052508101906117f3919061491d565b919350909150505b9250929050565b60009182526097602090815260408084206001600160a01b0393909316845291905290205460ff1690565b6000611838826122bd565b6118a05760405162461bcd60e51b815260206004820152603360248201527f434c4d383a3a676574546f6b656e52657469726564416d6f756e743a20746f6b604482015272195b925908191bd95cc81b9bdd08195e1a5cdd606a1b60648201526084016108bf565b50600090815260cd602090815260408083206001600160a01b03949094168352929052205490565b61113a33838361280d565b6118de600033611802565b6118fa5760405162461bcd60e51b81526004016108bf90614c8c565b60ca80546001600160a01b0319166001600160a01b0392909216919091179055565b61199c604051806101a0016040528060008152602001600060ff16815260200160006001600160a01b0316815260200160006001600160a01b031681526020016000815260200160008152602001600081526020016000815260200160608152602001606081526020016060815260200160008152602001600081525090565b600082815260cc602090815260409182902082516101a08101845281548152600182015460ff8116938201939093526001600160a01b03610100938490048116948201949094526002820154909316606084015260038101546080840152600481015460a0840152600581015460c0840152600681015460e08401526007810180549192840191611a2c906150bf565b80601f0160208091040260200160405190810160405280929190818152602001828054611a58906150bf565b8015611aa55780601f10611a7a57610100808354040283529160200191611aa5565b820191906000526020600020905b815481529060010190602001808311611a8857829003601f168201915b50505050508152602001600882018054611abe906150bf565b80601f0160208091040260200160405190810160405280929190818152602001828054611aea906150bf565b8015611b375780601f10611b0c57610100808354040283529160200191611b37565b820191906000526020600020905b815481529060010190602001808311611b1a57829003601f168201915b50505050508152602001600982018054611b50906150bf565b80601f0160208091040260200160405190810160405280929190818152602001828054611b7c906150bf565b8015611bc95780601f10611b9e57610100808354040283529160200191611bc9565b820191906000526020600020905b815481529060010190602001808311611bac57829003601f168201915b50505050508152602001600a8201548152602001600b820154815250509050919050565b600054610100900460ff16611c085760005460ff1615611c0c565b303b155b611c6f5760405162461bcd60e51b815260206004820152602e60248201527f496e697469616c697a61626c653a20636f6e747261637420697320616c72656160448201526d191e481a5b9a5d1a585b1a5e995960921b60648201526084016108bf565b600054610100900460ff16158015611c91576000805461ffff19166101011790555b611ca9604051806020016040528060008152506128ee565b611ccf6000805160206152aa8339815191526000805160206152ca833981519152612931565b611cda6000836122b3565b611cf26000805160206152ca833981519152836122b3565b611d0a60008051602061530a833981519152836122b3565b611d2260008051602061526a833981519152836122b3565b611d3a60008051602061532a833981519152836122b3565b611d5260008051602061528a833981519152836122b3565b611d6a60008051602061524a833981519152836122b3565b60c9805460ca80546001600160a01b03191690556001600160a81b0319166101006001600160a01b0385160260ff1916179055801561113a576000805461ff00191690555050565b6000808080808080611dc48189611802565b90506000611de060008051602061530a8339815191528a611802565b90506000611dfc60008051602061526a8339815191528b611802565b90506000611e1860008051602061532a8339815191528c611802565b90506000611e3460008051602061524a8339815191528d611802565b90506000611e506000805160206152aa8339815191528e611802565b959d949c50929a50909850965091945092505050565b600082815260976020526040902060010154611e828133610e82565b610aa583836127a6565b611e97600033611802565b611eb35760405162461bcd60e51b81526004016108bf90614c8c565b60c9805460ff1916911515919091179055565b611ed1600033611802565b611eed5760405162461bcd60e51b81526004016108bf90614c8c565b611ef681612768565b611f5d5760405162461bcd60e51b815260206004820152603260248201527f434c4d383a3a756e72656769737465724465616c65723a20746f6b656e54797060448201527119525908191bd95cc81b9bdd08195e1a5cdd60721b60648201526084016108bf565b8060ff1660011415611f8657611f8160008051602061530a83398151915283611e66565b611ff2565b8060ff1660021415611faa57611f8160008051602061526a83398151915283611e66565b8060ff1660031415611fce57611f8160008051602061532a83398151915283611e66565b8060ff1660041415611ff257611ff260008051602061528a83398151915283611e66565b611ffb826114a2565b612017576120176000805160206152ca83398151915283611e66565b6040516001600160a01b038316907f98552ded770f1d05a505572f3387c108dbc6b566ea3d49f83cff3d1f1c72a04290600090a25050565b60ca546001600160a01b031633148061206e575061206e600033611802565b6120d85760405162461bcd60e51b815260206004820152603560248201527f434c4d383a3a69737375654f6e426568616c663a2063616c6c206d757374206360448201527437b6b290333937b6902220a79037b91030b236b4b760591b60648201526084016108bf565b6120ea8a8a8a8a8a8a8a8a8a8a61297c565b50505050505050505050565b6001600160a01b03851633148061211257506121128533610765565b6121705760405162461bcd60e51b815260206004820152602960248201527f455243313135353a2063616c6c6572206973206e6f74206f776e6572206e6f7260448201526808185c1c1c9bdd995960ba1b60648201526084016108bf565b610e63858585858561311d565b60006121976000805160206152ca83398151915283611802565b806121b557506121b56000805160206152aa83398151915283611802565b80611516575061151660008051602061524a83398151915283611802565b6121db61221d565b6121ed89338a8a8a8a8a8a8a8a61297c565b505050505050505050565b60006001600160e01b03198216637965db0b60e01b148061091557506109158261323e565b6122356000805160206152ca83398151915233611802565b80612253575061225360008051602061524a83398151915233611802565b6122b15760405162461bcd60e51b815260206004820152602960248201527f434c4d383a3a6f6e6c794465616c65723a206d73672e73656e646572206e6f746044820152681030903232b0b632b960b91b60648201526084016108bf565b565b61113a82826126e2565b6000816122c960cb5490565b1061152357506001610918565b6001600160a01b0384166123365760405162461bcd60e51b815260206004820152602160248201527f455243313135353a206d696e7420746f20746865207a65726f206164647265736044820152607360f81b60648201526084016108bf565b33612356816000876123478861328e565b6123508861328e565b876132e7565b60008481526065602090815260408083206001600160a01b038916845290915281208054859290612388908490615019565b909155505060408051858152602081018590526001600160a01b0380881692600092918516917fc3d58168c5ae7397731d063d5bbf3d657854427343f4c083240f7aacaa2d0f62910160405180910390a4610e63816000878787876137fd565b6123f3838383613968565b600082815260cc60205260409020600b015461240f9082613ae5565b600083815260cc60209081526040808320600b019390935560cd81528282206001600160a01b0387168352905220546124489082613ae5565b600092835260cd602090815260408085206001600160a01b039096168552949052929091209190915550565b81518351146124d65760405162461bcd60e51b815260206004820152602860248201527f455243313135353a2069647320616e6420616d6f756e7473206c656e677468206044820152670dad2e6dac2e8c6d60c31b60648201526084016108bf565b6001600160a01b0384166124fc5760405162461bcd60e51b81526004016108bf90614d41565b3361250b8187878787876132e7565b60005b845181101561261057600085828151811061253957634e487b7160e01b600052603260045260246000fd5b60200260200101519050600085838151811061256557634e487b7160e01b600052603260045260246000fd5b60209081029190910181015160008481526065835260408082206001600160a01b038e1683529093529190912054909150818110156125b65760405162461bcd60e51b81526004016108bf90614d86565b60008381526065602090815260408083206001600160a01b038e8116855292528083208585039055908b168252812080548492906125f5908490615019565b925050819055505050508061260990615120565b905061250e565b50846001600160a01b0316866001600160a01b0316826001600160a01b03167f4a39dc06d4c0dbc64b70af90fd698a233a518aa5d07e595d983b8c0526c8f7fb8787604051612660929190614c03565b60405180910390a4612676818787878787613af8565b505050505050565b6126888282611802565b61113a576126a0816001600160a01b03166014613bc2565b6126ab836020613bc2565b6040516020016126bc929190614ad8565b60408051601f198184030181529082905262461bcd60e51b82526108bf91600401614c31565b6126ec8282611802565b61113a5760008281526097602090815260408083206001600160a01b03851684529091529020805460ff191660011790556127243390565b6001600160a01b0316816001600160a01b0316837f2f8788117e7eff1d82e926ec794901d17c78024a50270940304540a733656f0d60405160405180910390a45050565b6000808260ff16118015611516575060048260ff161161152357506001610918565b60008060006127998585613da3565b9150915061139b81613e10565b6127b08282611802565b1561113a5760008281526097602090815260408083206001600160a01b0385168085529252808320805460ff1916905551339285917ff6391f5c32d9c69d2a47ea670b442974b53935d1edc7fd64eb21e047a839171b9190a45050565b816001600160a01b0316836001600160a01b031614156128815760405162461bcd60e51b815260206004820152602960248201527f455243313135353a2073657474696e6720617070726f76616c20737461747573604482015268103337b91039b2b63360b91b60648201526084016108bf565b6001600160a01b03838116600081815260666020908152604080832094871680845294825291829020805460ff191686151590811790915591519182527f17307eab39ab6107e8899845ad3d59bd9653f200f220920489ca2b5937696c31910160405180910390a3505050565b600054610100900460ff166129155760405162461bcd60e51b81526004016108bf90614e2d565b61291d614013565b612925614013565b61292e8161403a565b50565b600082815260976020526040808220600101805490849055905190918391839186917fbd79b86ffe0ab8e8776151514217cd7cacd52c909f66475c3af44e129f0b00ff9190a4505050565b61298588612768565b6129dd5760405162461bcd60e51b8152602060048201526024808201527f434c4d383a3a5f69737375653a20746f6b656e54797065496420697320696e76604482015263185b1a5960e21b60648201526084016108bf565b60c95460ff1615612c24578760ff16600114806129fd57508760ff166002145b15612b875760ca546001600160a01b03163314612a735760405162461bcd60e51b815260206004820152602e60248201527f434c4d383a3a5f6973737565286c696d69746564293a206d73672e73656e646560448201526d72206e6f742074696d656c6f636b60901b60648201526084016108bf565b612a7e60008b611802565b612ada5760405162461bcd60e51b815260206004820152602760248201527f434c4d383a3a5f6973737565286c696d69746564293a20697373756565206e6f6044820152663a1030b236b4b760c91b60648201526084016108bf565b612af260008051602061530a8339815191528a611802565b80612b105750612b1060008051602061526a8339815191528a611802565b612b825760405162461bcd60e51b815260206004820152603760248201527f434c4d383a3a5f6973737565286c696d69746564293a2070726f706f7365722060448201527f6e6f7420612072656769737465726564206465616c657200000000000000000060648201526084016108bf565b612c1f565b8760ff1660031415612c1f57612bab60008051602061532a8339815191528a611802565b612c1f576040805162461bcd60e51b81526020600482015260248101919091527f434c4d383a3a5f6973737565286c696d69746564293a20697373756572206e6f60448201527f742061207265676973746572656420656d697373696f6e732061756469746f7260648201526084016108bf565b612d99565b8760ff1660011415612c9b57612c4860008051602061530a8339815191528a611802565b612c1f5760405162461bcd60e51b815260206004820152603060248201526000805160206152ea83398151915260448201526f3a32b932b2102922a1903232b0b632b960811b60648201526084016108bf565b8760ff1660021415612d1557612cbf60008051602061526a8339815191528a611802565b612c1f5760405162461bcd60e51b815260206004820152603360248201526000805160206152ea8339815191526044820152723a32b932b21037b33339b2ba103232b0b632b960691b60648201526084016108bf565b8760ff1660031415612d9957612d3960008051602061532a8339815191528a611802565b612d995760405162461bcd60e51b815260206004820152603760248201526000805160206152ea83398151915260448201527f746572656420656d697373696f6e732061756469746f7200000000000000000060648201526084016108bf565b8760ff1660041415612e9657612dbd60008051602061524a8339815191528a611802565b612e0e5760405162461bcd60e51b815260206004820152602e60248201526000805160206152ea83398151915260448201526d746572656420696e64757374727960901b60648201526084016108bf565b336001600160a01b038b1614612e965760405162461bcd60e51b815260206004820152604160248201527f434c4d383a3a5f69737375653a207265676973746572656420696e647573747260448201527f792063616e206f6e6c7920697373756520636172626f6e20746f20697473656c6064820152603360f91b608482015260a4016108bf565b612ea460cb80546001019055565b600060cc6000612eb360cb5490565b81526020019081526020016000209050612ecc60cb5490565b8160000181905550888160010160006101000a81548160ff021916908360ff1602179055508a8160020160006101000a8154816001600160a01b0302191690836001600160a01b03160217905550898160010160016101000a8154816001600160a01b0302191690836001600160a01b0316021790555086816003018190555085816004018190555084816006018190555042816005018190555083816007019080519060200190612f7f929190614195565b508251612f959060088301906020860190614195565b508151612fab9060098301906020850190614195565b50600a81018890556000600b820155612fdd8b612fc760cb5490565b8a604051806020016040528060008152506122d6565b8860ff16600314156130045760028101548154613004916001600160a01b0316908a6123e8565b8060020160009054906101000a90046001600160a01b03166001600160a01b03168160010160019054906101000a90046001600160a01b03166001600160a01b03167f99cc3eeb446560c9a2d2483bc5160735ec0fb1851aea3bde32e7a56c30c11da68a60cd60008660000154815260200190815260200160002060008660020160009054906101000a90046001600160a01b03166001600160a01b03166001600160a01b031681526020019081526020016000205485600001548660010160009054906101000a900460ff168760030154886004015489600501548a600601548b6007018c6008018d6009016040516131089b9a99989796959493929190614f72565b60405180910390a35050505050505050505050565b6001600160a01b0384166131435760405162461bcd60e51b81526004016108bf90614d41565b336131538187876123478861328e565b60008481526065602090815260408083206001600160a01b038a168452909152902054838110156131965760405162461bcd60e51b81526004016108bf90614d86565b60008581526065602090815260408083206001600160a01b038b81168552925280832087850390559088168252812080548692906131d5908490615019565b909155505060408051868152602081018690526001600160a01b03808916928a821692918616917fc3d58168c5ae7397731d063d5bbf3d657854427343f4c083240f7aacaa2d0f62910160405180910390a46132358288888888886137fd565b50505050505050565b60006001600160e01b03198216636cdb3d1360e11b148061326f57506001600160e01b031982166303a24d0760e21b145b8061091557506301ffc9a760e01b6001600160e01b0319831614610915565b604080516001808252818301909252606091600091906020808301908036833701905050905082816000815181106132d657634e487b7160e01b600052603260045260246000fd5b602090810291909101015292915050565b84846001600160a01b0382161561331d576133018261217d565b61331d5760405162461bcd60e51b81526004016108bf90614dd0565b6001600160a01b03811615613351576133358161217d565b6133515760405162461bcd60e51b81526004016108bf90614cd5565b856001600160a01b0316876001600160a01b031614156133e45760405162461bcd60e51b815260206004820152604260248201527f434c4d383a3a5f6265666f7265546f6b656e5472616e736665723a2073656e6460448201527f657220616e642072656365697665722063616e6e6f74206265207468652073616064820152616d6560f01b608482015260a4016108bf565b6000805b86518110156136f657600060cc600089848151811061341757634e487b7160e01b600052603260045260246000fd5b60200260200101518152602001908152602001600020905060c960009054906101000a900460ff16156135e6576001600160a01b03891661345857506136e4565b60018082015460ff1614806134745750600181015460ff166002145b156135265760ca546001600160a01b038c81169116148061349b575061349b60008c611802565b6135215760405162461bcd60e51b815260206004820152604b60248201527f434c4d383a3a5f6265666f7265546f6b656e5472616e73666572286c696d697460448201527f6564293a206f6e6c792061646d696e20616e642044414f2063616e207472616e60648201526a7366657220746f6b656e7360a81b608482015260a4016108bf565b6135e6565b600181015460ff16600314156135e65761354e60008051602061532a8339815191528c611802565b6135e65760405162461bcd60e51b815260206004820152605860248201527f434c4d383a3a5f6265666f7265546f6b656e5472616e73666572286c696d697460448201527f6564293a206f6e6c7920656d697373696f6e732061756469746f72732063616e60648201527f206973737565206175646974656420656d697373696f6e730000000000000000608482015260a4016108bf565b600181015460ff16600414801561360557506001600160a01b03891615155b801561361957506001600160a01b038a1615155b1561362357600192505b6001600160a01b038a161580159061364357506001600160a01b03891615155b156136e2576136bc87838151811061366b57634e487b7160e01b600052603260045260246000fd5b602002602001015160ce60008460000154815260200190815260200160002060008d6001600160a01b03166001600160a01b0316815260200190815260200160002054613ae590919063ffffffff16565b8154600090815260ce602090815260408083206001600160a01b038f1684529091529020555b505b806136ee81615120565b9150506133e8565b5080156121ed57600061370b898989896116eb565b905061371881868a611023565b6137995760405162461bcd60e51b815260206004820152604660248201527f434c4d383a3a5f6265666f7265546f6b656e5472616e736665723a207265636560448201527f69766572277320617070726f76616c207369676e6174757265206973206e6f74606482015265081d985b1a5960d21b608482015260a4016108bf565b6001600160a01b03808a16600090815260cf60209081526040808320938c168352929052908120805463ffffffff16916137d28361513b565b91906101000a81548163ffffffff021916908363ffffffff1602179055505050505050505050505050565b6001600160a01b0384163b156126765760405163f23a6e6160e01b81526001600160a01b0385169063f23a6e61906138419089908990889088908890600401614bab565b602060405180830381600087803b15801561385b57600080fd5b505af192505050801561388b575060408051601f3d908101601f1916820190925261388891810190614901565b60015b6139385761389761518b565b806308c379a014156138d157506138ac6151a2565b806138b757506138d3565b8060405162461bcd60e51b81526004016108bf9190614c31565b505b60405162461bcd60e51b815260206004820152603460248201527f455243313135353a207472616e7366657220746f206e6f6e20455243313135356044820152732932b1b2b4bb32b91034b6b83632b6b2b73a32b960611b60648201526084016108bf565b6001600160e01b0319811663f23a6e6160e01b146132355760405162461bcd60e51b81526004016108bf90614c44565b6001600160a01b0383166139ca5760405162461bcd60e51b815260206004820152602360248201527f455243313135353a206275726e2066726f6d20746865207a65726f206164647260448201526265737360e81b60648201526084016108bf565b336139f9818560006139db8761328e565b6139e48761328e565b604051806020016040528060008152506132e7565b60008381526065602090815260408083206001600160a01b038816845290915290205482811015613a785760405162461bcd60e51b8152602060048201526024808201527f455243313135353a206275726e20616d6f756e7420657863656564732062616c604482015263616e636560e01b60648201526084016108bf565b60008481526065602090815260408083206001600160a01b03898116808652918452828520888703905582518981529384018890529092908616917fc3d58168c5ae7397731d063d5bbf3d657854427343f4c083240f7aacaa2d0f62910160405180910390a45050505050565b6000613af18284615019565b9392505050565b6001600160a01b0384163b156126765760405163bc197c8160e01b81526001600160a01b0385169063bc197c8190613b3c9089908990889088908890600401614b4d565b602060405180830381600087803b158015613b5657600080fd5b505af1925050508015613b86575060408051601f3d908101601f19168201909252613b8391810190614901565b60015b613b925761389761518b565b6001600160e01b0319811663bc197c8160e01b146132355760405162461bcd60e51b81526004016108bf90614c44565b60606000613bd1836002615059565b613bdc906002615019565b6001600160401b03811115613c0157634e487b7160e01b600052604160045260246000fd5b6040519080825280601f01601f191660200182016040528015613c2b576020820181803683370190505b509050600360fc1b81600081518110613c5457634e487b7160e01b600052603260045260246000fd5b60200101906001600160f81b031916908160001a905350600f60fb1b81600181518110613c9157634e487b7160e01b600052603260045260246000fd5b60200101906001600160f81b031916908160001a9053506000613cb5846002615059565b613cc0906001615019565b90505b6001811115613d54576f181899199a1a9b1b9c1cb0b131b232b360811b85600f1660108110613d0257634e487b7160e01b600052603260045260246000fd5b1a60f81b828281518110613d2657634e487b7160e01b600052603260045260246000fd5b60200101906001600160f81b031916908160001a90535060049490941c93613d4d816150a8565b9050613cc3565b508315613af15760405162461bcd60e51b815260206004820181905260248201527f537472696e67733a20686578206c656e67746820696e73756666696369656e7460448201526064016108bf565b600080825160411415613dda5760208301516040840151606085015160001a613dce8782858561406a565b945094505050506117fb565b825160401415613e045760208301516040840151613df9868383614157565b9350935050506117fb565b506000905060026117fb565b6000816004811115613e3257634e487b7160e01b600052602160045260246000fd5b1415613e3d5761292e565b6001816004811115613e5f57634e487b7160e01b600052602160045260246000fd5b1415613ead5760405162461bcd60e51b815260206004820152601860248201527f45434453413a20696e76616c6964207369676e6174757265000000000000000060448201526064016108bf565b6002816004811115613ecf57634e487b7160e01b600052602160045260246000fd5b1415613f1d5760405162461bcd60e51b815260206004820152601f60248201527f45434453413a20696e76616c6964207369676e6174757265206c656e6774680060448201526064016108bf565b6003816004811115613f3f57634e487b7160e01b600052602160045260246000fd5b1415613f985760405162461bcd60e51b815260206004820152602260248201527f45434453413a20696e76616c6964207369676e6174757265202773272076616c604482015261756560f01b60648201526084016108bf565b6004816004811115613fba57634e487b7160e01b600052602160045260246000fd5b141561292e5760405162461bcd60e51b815260206004820152602260248201527f45434453413a20696e76616c6964207369676e6174757265202776272076616c604482015261756560f01b60648201526084016108bf565b600054610100900460ff166122b15760405162461bcd60e51b81526004016108bf90614e2d565b600054610100900460ff166140615760405162461bcd60e51b81526004016108bf90614e2d565b61292e81614186565b6000807f7fffffffffffffffffffffffffffffff5d576e7357a4501ddfe92f46681b20a08311156140a1575060009050600361414e565b8460ff16601b141580156140b957508460ff16601c14155b156140ca575060009050600461414e565b6040805160008082526020820180845289905260ff881692820192909252606081018690526080810185905260019060a0016020604051602081039080840390855afa15801561411e573d6000803e3d6000fd5b5050604051601f1901519150506001600160a01b0381166141475760006001925092505061414e565b9150600090505b94509492505050565b6000806001600160ff1b03831660ff84901c601b016141788782888561406a565b935093505050935093915050565b805161113a9060679060208401905b8280546141a1906150bf565b90600052602060002090601f0160209004810192826141c35760008555614209565b82601f106141dc57805160ff1916838001178555614209565b82800160010185558215614209579182015b828111156142095782518255916020019190600101906141ee565b50614215929150614219565b5090565b5b80821115614215576000815560010161421a565b80356001600160a01b038116811461091857600080fd5b600082601f830112614255578081fd5b8135602061426282614ff6565b60405161426f82826150f4565b8381528281019150858301600585901b8701840188101561428e578586fd5b855b858110156142ac57813584529284019290840190600101614290565b5090979650505050505050565b8035801515811461091857600080fd5b600082601f8301126142d9578081fd5b81356001600160401b038111156142f2576142f2615175565b604051614309601f8301601f1916602001826150f4565b81815284602083860101111561431d578283fd5b816020850160208301379081016020019190915292915050565b803560ff8116811461091857600080fd5b600060208284031215614359578081fd5b613af18261422e565b60008060408385031215614374578081fd5b61437d8361422e565b915061438b6020840161422e565b90509250929050565b600080600080608085870312156143a9578182fd5b6143b28561422e565b93506143c06020860161422e565b925060408501356001600160401b03808211156143db578384fd5b6143e788838901614245565b935060608701359150808211156143fc578283fd5b5061440987828801614245565b91505092959194509250565b600080600080600060a0868803121561442c578081fd5b6144358661422e565b94506144436020870161422e565b935060408601356001600160401b038082111561445e578283fd5b61446a89838a01614245565b9450606088013591508082111561447f578283fd5b61448b89838a01614245565b935060808801359150808211156144a0578283fd5b506144ad888289016142c9565b9150509295509295909350565b600080600080600060a086880312156144d1578081fd5b6144da8661422e565b94506144e86020870161422e565b9350604086013592506060860135915060808601356001600160401b03811115614510578182fd5b6144ad888289016142c9565b6000806000806000806000806000806101408b8d03121561453b578485fd5b6145448b61422e565b995061455260208c0161422e565b985061456060408c01614337565b975060608b0135965060808b0135955060a08b0135945060c08b0135935060e08b01356001600160401b0380821115614597578485fd5b6145a38e838f016142c9565b94506101008d01359150808211156145b9578384fd5b6145c58e838f016142c9565b93506101208d01359150808211156145db578283fd5b506145e88d828e016142c9565b9150509295989b9194979a5092959850565b6000806040838503121561460c578182fd5b6146158361422e565b915061438b602084016142b9565b60008060408385031215614635578182fd5b61463e8361422e565b946020939093013593505050565b600080600060608486031215614660578081fd5b6146698461422e565b95602085013595506040909401359392505050565b60008060408385031215614690578182fd5b6146998361422e565b915061438b60208401614337565b60008060008060008060008060006101208a8c0312156146c5578283fd5b6146ce8a61422e565b98506146dc60208b01614337565b975060408a0135965060608a0135955060808a0135945060a08a0135935060c08a01356001600160401b0380821115614713578485fd5b61471f8d838e016142c9565b945060e08c0135915080821115614734578384fd5b6147408d838e016142c9565b93506101008c0135915080821115614756578283fd5b506147638c828d016142c9565b9150509295985092959850929598565b60008060408385031215614785578182fd5b82356001600160401b038082111561479b578384fd5b818501915085601f8301126147ae578384fd5b813560206147bb82614ff6565b6040516147c882826150f4565b8381528281019150858301600585901b870184018b10156147e7578889fd5b8896505b84871015614810576147fc8161422e565b8352600196909601959183019183016147eb565b5096505086013592505080821115614826578283fd5b5061483385828601614245565b9150509250929050565b60006020828403121561484e578081fd5b613af1826142b9565b600060208284031215614868578081fd5b5035919050565b60008060408385031215614881578182fd5b8235915061438b6020840161422e565b6000806000606084860312156148a5578081fd5b8335925060208401356001600160401b038111156148c1578182fd5b6148cd868287016142c9565b9250506148dc6040850161422e565b90509250925092565b6000602082840312156148f6578081fd5b8135613af181615233565b600060208284031215614912578081fd5b8151613af181615233565b60006020828403121561492e578081fd5b5051919050565b60008060408385031215614947578182fd5b50508035926020909101359150565b6000815180845260208085019450808401835b8381101561498557815187529582019590820190600101614969565b509495945050505050565b8051600090602080840183831561498557815187529582019590820190600101614969565b600081518084526149cd816020860160208601615078565b601f01601f19169290920160200192915050565b8054600090600181811c90808316806149fb57607f831692505b6020808410821415614a1b57634e487b7160e01b86526022600452602486fd5b83885260208801828015614a365760018114614a4757614a72565b60ff19871682528282019750614a72565b60008981526020902060005b87811015614a6c57815484820152908601908401614a53565b83019850505b5050505050505092915050565b60006bffffffffffffffffffffffff19808860601b168352808760601b16601484015250614ab9614ab36028840187614990565b85614990565b60e09390931b6001600160e01b03191683525050600401949350505050565b60007f416363657373436f6e74726f6c3a206163636f756e742000000000000000000082528351614b10816017850160208801615078565b7001034b99036b4b9b9b4b733903937b6329607d1b6017918401918201528351614b41816028840160208801615078565b01602801949350505050565b6001600160a01b0386811682528516602082015260a060408201819052600090614b7990830186614956565b8281036060840152614b8b8186614956565b90508281036080840152614b9f81856149b5565b98975050505050505050565b6001600160a01b03868116825285166020820152604081018490526060810183905260a060808201819052600090614be5908301846149b5565b979650505050505050565b600060208252613af16020830184614956565b600060408252614c166040830185614956565b8281036020840152614c288185614956565b95945050505050565b600060208252613af160208301846149b5565b60208082526028908201527f455243313135353a204552433131353552656365697665722072656a656374656040820152676420746f6b656e7360c01b606082015260800190565b60208082526029908201527f434c4d383a3a6f6e6c7941646d696e3a206d73672e73656e646572206e6f74206040820152683a34329030b236b4b760b91b606082015260800190565b60208082526046908201527f434c4d383a3a636f6e73756d65724f724465616c65723a20726563697069656e60408201527f74206d75737420626520636f6e73756d65722c206465616c6572206f7220696e60608201526564757374727960d01b608082015260a00190565b60208082526025908201527f455243313135353a207472616e7366657220746f20746865207a65726f206164604082015264647265737360d81b606082015260800190565b6020808252602a908201527f455243313135353a20696e73756666696369656e742062616c616e636520666f60408201526939103a3930b739b332b960b11b606082015260800190565b60208082526039908201527f434c4d383a3a636f6e73756d65724f724465616c65723a2073656e646572206e60408201527f6f74206120636f6e73756d6572206f722061206465616c657200000000000000606082015260800190565b6020808252602b908201527f496e697469616c697a61626c653a20636f6e7472616374206973206e6f74206960408201526a6e697469616c697a696e6760a81b606082015260800190565b600060208252825160208301526020830151614e99604084018260ff169052565b5060408301516001600160a01b03811660608401525060608301516001600160a01b038116608084015250608083015160a083015260a083015160c083015260c083015160e083015260e08301516101008181850152808501519150506101a06101208181860152614f0f6101c08601846149b5565b9250808601519050601f19610140818786030181880152614f3085846149b5565b945080880151925050610160818786030181880152614f4f85846149b5565b908801516101808881019190915290970151929095019190915250929392505050565b60006101608d83528c60208401528b604084015260ff8b1660608401528960808401528860a08401528760c08401528660e084015280610100840152614fba818401876149e1565b9050828103610120840152614fcf81866149e1565b9050828103610140840152614fe481856149e1565b9e9d5050505050505050505050505050565b60006001600160401b0382111561500f5761500f615175565b5060051b60200190565b6000821982111561502c5761502c61515f565b500190565b600063ffffffff8083168185168083038211156150505761505061515f565b01949350505050565b60008160001904831182151516156150735761507361515f565b500290565b60005b8381101561509357818101518382015260200161507b565b838111156150a2576000848401525b50505050565b6000816150b7576150b761515f565b506000190190565b600181811c908216806150d357607f821691505b602082108114156116e557634e487b7160e01b600052602260045260246000fd5b601f8201601f191681016001600160401b038111828210171561511957615119615175565b6040525050565b60006000198214156151345761513461515f565b5060010190565b600063ffffffff808316818114156151555761515561515f565b6001019392505050565b634e487b7160e01b600052601160045260246000fd5b634e487b7160e01b600052604160045260246000fd5b600060033d111561149f57600481823e5160e01c90565b600060443d10156151b25761149f565b6040516003193d81016004833e81513d6001600160401b0381602484011181841117156151e357505050505061149f565b82850191508151818111156151fd5750505050505061149f565b843d87010160208285010111156152195750505050505061149f565b615228602082860101876150f4565b509094505050505090565b6001600160e01b03198116811461292e57600080fdfe8305613dd3dbc3e0773e56336f52890c75fc1219c6ed3f363339b8ada04df289ede6574deba8f02ada7888448a497b08844d62e044ed533343a673be3ffcde5ff047c8eb56a4fb9b90290fc55ce546369985412ba2348c56342b7afbf87ec1a65e1aa547d3dade8c68b013a47ad41c2bcc9b9e4b0765b0fb616780e15786e76af8890eedd7900ad88da6192fd03dbb69dbeee963b1a0ed738abe49ab3331aaf3434c4d383a3a5f69737375653a20697373756572206e6f7420612072656769732ab9f1da92e74aaa01eb75a871557505b11dd8d36832a34bb21bbee88b08d860e97dad3dbe5042e7384b1572cf966a15e089576a62b5126c5ef1d184ab18b12ca26469706673582212201b4d023118999061ddc363d5900b4fd1e3bea6b8705f69d3d98eab8d3345639464736f6c63430008030033",
  "linkReferences": {},
  "deployedLinkReferences": {}
}