{
  "_format": "hh-sol-artifact-1",
  "contractName": "NetEmissionsTokenNetwork",
  "sourceName": "contracts/NetEmissionsTokenNetwork.sol",
  "abi": [
    {
      "anonymous": false,
      "inputs": [
        {
          "indexed": true,
          "internalType": "address",
          "name": "account",
          "type": "address"
        },
        {
          "indexed": true,
          "internalType": "address",
          "name": "operator",
          "type": "address"
        },
        {
          "indexed": false,
          "internalType": "bool",
          "name": "approved",
          "type": "bool"
        }
      ],
      "name": "ApprovalForAll",
      "type": "event"
    },
    {
      "anonymous": false,
      "inputs": [
        {
          "indexed": true,
          "internalType": "address",
          "name": "account",
          "type": "address"
        }
      ],
      "name": "RegisteredConsumer",
      "type": "event"
    },
    {
      "anonymous": false,
      "inputs": [
        {
          "indexed": true,
          "internalType": "address",
          "name": "account",
          "type": "address"
        }
      ],
      "name": "RegisteredDealer",
      "type": "event"
    },
    {
      "anonymous": false,
      "inputs": [
        {
          "indexed": true,
          "internalType": "address",
          "name": "account",
          "type": "address"
        }
      ],
      "name": "RegisteredIndustry",
      "type": "event"
    },
    {
      "anonymous": false,
      "inputs": [
        {
          "indexed": true,
          "internalType": "bytes32",
          "name": "role",
          "type": "bytes32"
        },
        {
          "indexed": true,
          "internalType": "bytes32",
          "name": "previousAdminRole",
          "type": "bytes32"
        },
        {
          "indexed": true,
          "internalType": "bytes32",
          "name": "newAdminRole",
          "type": "bytes32"
        }
      ],
      "name": "RoleAdminChanged",
      "type": "event"
    },
    {
      "anonymous": false,
      "inputs": [
        {
          "indexed": true,
          "internalType": "bytes32",
          "name": "role",
          "type": "bytes32"
        },
        {
          "indexed": true,
          "internalType": "address",
          "name": "account",
          "type": "address"
        },
        {
          "indexed": true,
          "internalType": "address",
          "name": "sender",
          "type": "address"
        }
      ],
      "name": "RoleGranted",
      "type": "event"
    },
    {
      "anonymous": false,
      "inputs": [
        {
          "indexed": true,
          "internalType": "bytes32",
          "name": "role",
          "type": "bytes32"
        },
        {
          "indexed": true,
          "internalType": "address",
          "name": "account",
          "type": "address"
        },
        {
          "indexed": true,
          "internalType": "address",
          "name": "sender",
          "type": "address"
        }
      ],
      "name": "RoleRevoked",
      "type": "event"
    },
    {
      "anonymous": false,
      "inputs": [
        {
          "indexed": false,
          "internalType": "uint256",
          "name": "availableBalance",
          "type": "uint256"
        },
        {
          "indexed": false,
          "internalType": "uint256",
          "name": "retiredBalance",
          "type": "uint256"
        },
        {
          "indexed": false,
          "internalType": "uint256",
          "name": "tokenId",
          "type": "uint256"
        },
        {
          "indexed": false,
          "internalType": "uint8",
          "name": "tokenTypeId",
          "type": "uint8"
        },
        {
          "indexed": true,
          "internalType": "address",
          "name": "issuer",
          "type": "address"
        },
        {
          "indexed": true,
          "internalType": "address",
          "name": "issuee",
          "type": "address"
        },
        {
          "indexed": false,
          "internalType": "uint256",
          "name": "fromDate",
          "type": "uint256"
        },
        {
          "indexed": false,
          "internalType": "uint256",
          "name": "thruDate",
          "type": "uint256"
        },
        {
          "indexed": false,
          "internalType": "uint256",
          "name": "dateCreated",
          "type": "uint256"
        },
        {
          "indexed": false,
          "internalType": "uint256",
          "name": "automaticRetireDate",
          "type": "uint256"
        },
        {
          "indexed": false,
          "internalType": "string",
          "name": "metadata",
          "type": "string"
        },
        {
          "indexed": false,
          "internalType": "string",
          "name": "manifest",
          "type": "string"
        },
        {
          "indexed": false,
          "internalType": "string",
          "name": "description",
          "type": "string"
        }
      ],
      "name": "TokenCreated",
      "type": "event"
    },
    {
      "anonymous": false,
      "inputs": [
        {
          "indexed": true,
          "internalType": "address",
          "name": "account",
          "type": "address"
        },
        {
          "indexed": false,
          "internalType": "uint256",
          "name": "tokenId",
          "type": "uint256"
        },
        {
          "indexed": false,
          "internalType": "uint256",
          "name": "amount",
          "type": "uint256"
        }
      ],
      "name": "TokenRetired",
      "type": "event"
    },
    {
      "anonymous": false,
      "inputs": [
        {
          "indexed": true,
          "internalType": "address",
          "name": "operator",
          "type": "address"
        },
        {
          "indexed": true,
          "internalType": "address",
          "name": "from",
          "type": "address"
        },
        {
          "indexed": true,
          "internalType": "address",
          "name": "to",
          "type": "address"
        },
        {
          "indexed": false,
          "internalType": "uint256[]",
          "name": "ids",
          "type": "uint256[]"
        },
        {
          "indexed": false,
          "internalType": "uint256[]",
          "name": "values",
          "type": "uint256[]"
        }
      ],
      "name": "TransferBatch",
      "type": "event"
    },
    {
      "anonymous": false,
      "inputs": [
        {
          "indexed": true,
          "internalType": "address",
          "name": "operator",
          "type": "address"
        },
        {
          "indexed": true,
          "internalType": "address",
          "name": "from",
          "type": "address"
        },
        {
          "indexed": true,
          "internalType": "address",
          "name": "to",
          "type": "address"
        },
        {
          "indexed": false,
          "internalType": "uint256",
          "name": "id",
          "type": "uint256"
        },
        {
          "indexed": false,
          "internalType": "uint256",
          "name": "value",
          "type": "uint256"
        }
      ],
      "name": "TransferSingle",
      "type": "event"
    },
    {
      "anonymous": false,
      "inputs": [
        {
          "indexed": false,
          "internalType": "string",
          "name": "value",
          "type": "string"
        },
        {
          "indexed": true,
          "internalType": "uint256",
          "name": "id",
          "type": "uint256"
        }
      ],
      "name": "URI",
      "type": "event"
    },
    {
      "anonymous": false,
      "inputs": [
        {
          "indexed": true,
          "internalType": "address",
          "name": "account",
          "type": "address"
        }
      ],
      "name": "UnregisteredConsumer",
      "type": "event"
    },
    {
      "anonymous": false,
      "inputs": [
        {
          "indexed": true,
          "internalType": "address",
          "name": "account",
          "type": "address"
        }
      ],
      "name": "UnregisteredDealer",
      "type": "event"
    },
    {
      "anonymous": false,
      "inputs": [
        {
          "indexed": true,
          "internalType": "address",
          "name": "account",
          "type": "address"
        }
      ],
      "name": "UnregisteredIndustry",
      "type": "event"
    },
    {
      "inputs": [],
      "name": "DEFAULT_ADMIN_ROLE",
      "outputs": [
        {
          "internalType": "bytes32",
          "name": "",
          "type": "bytes32"
        }
      ],
      "stateMutability": "view",
      "type": "function"
    },
    {
      "inputs": [],
      "name": "REGISTERED_CONSUMER",
      "outputs": [
        {
          "internalType": "bytes32",
          "name": "",
          "type": "bytes32"
        }
      ],
      "stateMutability": "view",
      "type": "function"
    },
    {
      "inputs": [],
      "name": "REGISTERED_DEALER",
      "outputs": [
        {
          "internalType": "bytes32",
          "name": "",
          "type": "bytes32"
        }
      ],
      "stateMutability": "view",
      "type": "function"
    },
    {
      "inputs": [],
      "name": "REGISTERED_EMISSIONS_AUDITOR",
      "outputs": [
        {
          "internalType": "bytes32",
          "name": "",
          "type": "bytes32"
        }
      ],
      "stateMutability": "view",
      "type": "function"
    },
    {
      "inputs": [],
      "name": "REGISTERED_INDUSTRY",
      "outputs": [
        {
          "internalType": "bytes32",
          "name": "",
          "type": "bytes32"
        }
      ],
      "stateMutability": "view",
      "type": "function"
    },
    {
      "inputs": [],
      "name": "REGISTERED_INDUSTRY_DEALER",
      "outputs": [
        {
          "internalType": "bytes32",
          "name": "",
          "type": "bytes32"
        }
      ],
      "stateMutability": "view",
      "type": "function"
    },
    {
      "inputs": [],
      "name": "REGISTERED_OFFSET_DEALER",
      "outputs": [
        {
          "internalType": "bytes32",
          "name": "",
          "type": "bytes32"
        }
      ],
      "stateMutability": "view",
      "type": "function"
    },
    {
      "inputs": [],
      "name": "REGISTERED_REC_DEALER",
      "outputs": [
        {
          "internalType": "bytes32",
          "name": "",
          "type": "bytes32"
        }
      ],
      "stateMutability": "view",
      "type": "function"
    },
    {
      "inputs": [
        {
          "internalType": "address",
          "name": "entity",
          "type": "address"
        }
      ],
      "name": "_consumerOrDealer",
      "outputs": [
        {
          "internalType": "bool",
          "name": "",
          "type": "bool"
        }
      ],
      "stateMutability": "view",
      "type": "function"
    },
    {
      "inputs": [],
      "name": "admin",
      "outputs": [
        {
          "internalType": "address",
          "name": "",
          "type": "address"
        }
      ],
      "stateMutability": "view",
      "type": "function"
    },
    {
      "inputs": [
        {
          "internalType": "address",
          "name": "account",
          "type": "address"
        },
        {
          "internalType": "uint256",
          "name": "id",
          "type": "uint256"
        }
      ],
      "name": "balanceOf",
      "outputs": [
        {
          "internalType": "uint256",
          "name": "",
          "type": "uint256"
        }
      ],
      "stateMutability": "view",
      "type": "function"
    },
    {
      "inputs": [
        {
          "internalType": "address[]",
          "name": "accounts",
          "type": "address[]"
        },
        {
          "internalType": "uint256[]",
          "name": "ids",
          "type": "uint256[]"
        }
      ],
      "name": "balanceOfBatch",
      "outputs": [
        {
          "internalType": "uint256[]",
          "name": "",
          "type": "uint256[]"
        }
      ],
      "stateMutability": "view",
      "type": "function"
    },
    {
      "inputs": [
        {
          "internalType": "address",
          "name": "account",
          "type": "address"
        },
        {
          "internalType": "uint256",
          "name": "tokenId",
          "type": "uint256"
        }
      ],
      "name": "getAvailableAndRetired",
      "outputs": [
        {
          "internalType": "uint256",
          "name": "",
          "type": "uint256"
        },
        {
          "internalType": "uint256",
          "name": "",
          "type": "uint256"
        }
      ],
      "stateMutability": "view",
      "type": "function"
    },
    {
      "inputs": [
        {
          "internalType": "address",
          "name": "account",
          "type": "address"
        },
        {
          "internalType": "uint256",
          "name": "tokenId",
          "type": "uint256"
        }
      ],
      "name": "getAvailableRetiredAndTransferred",
      "outputs": [
        {
          "internalType": "uint256",
          "name": "",
          "type": "uint256"
        },
        {
          "internalType": "uint256",
          "name": "",
          "type": "uint256"
        },
        {
          "internalType": "uint256",
          "name": "",
          "type": "uint256"
        }
      ],
      "stateMutability": "view",
      "type": "function"
    },
    {
      "inputs": [
        {
          "internalType": "uint256",
          "name": "tokenId",
          "type": "uint256"
        }
      ],
      "name": "getIssuer",
      "outputs": [
        {
          "internalType": "address",
          "name": "",
          "type": "address"
        }
      ],
      "stateMutability": "view",
      "type": "function"
    },
    {
      "inputs": [],
      "name": "getNumOfUniqueTokens",
      "outputs": [
        {
          "internalType": "uint256",
          "name": "",
          "type": "uint256"
        }
      ],
      "stateMutability": "view",
      "type": "function"
    },
    {
      "inputs": [
        {
          "internalType": "uint256",
          "name": "tokenId",
          "type": "uint256"
        },
        {
          "internalType": "address",
          "name": "account",
          "type": "address"
        }
      ],
      "name": "getRetiredBalances",
      "outputs": [
        {
          "internalType": "uint256",
          "name": "",
          "type": "uint256"
        }
      ],
      "stateMutability": "view",
      "type": "function"
    },
    {
      "inputs": [
        {
          "internalType": "bytes32",
          "name": "role",
          "type": "bytes32"
        }
      ],
      "name": "getRoleAdmin",
      "outputs": [
        {
          "internalType": "bytes32",
          "name": "",
          "type": "bytes32"
        }
      ],
      "stateMutability": "view",
      "type": "function"
    },
    {
      "inputs": [
        {
          "internalType": "address",
          "name": "account",
          "type": "address"
        }
      ],
      "name": "getRoles",
      "outputs": [
        {
          "internalType": "bool",
          "name": "",
          "type": "bool"
        },
        {
          "internalType": "bool",
          "name": "",
          "type": "bool"
        },
        {
          "internalType": "bool",
          "name": "",
          "type": "bool"
        },
        {
          "internalType": "bool",
          "name": "",
          "type": "bool"
        },
        {
          "internalType": "bool",
          "name": "",
          "type": "bool"
        },
        {
          "internalType": "bool",
          "name": "",
          "type": "bool"
        }
      ],
      "stateMutability": "view",
      "type": "function"
    },
    {
      "inputs": [
        {
          "internalType": "uint256",
          "name": "tokenId",
          "type": "uint256"
        }
      ],
      "name": "getTokenDetails",
      "outputs": [
        {
          "components": [
            {
              "internalType": "uint256",
              "name": "tokenId",
              "type": "uint256"
            },
            {
              "internalType": "uint8",
              "name": "tokenTypeId",
              "type": "uint8"
            },
            {
              "internalType": "address",
              "name": "issuer",
              "type": "address"
            },
            {
              "internalType": "address",
              "name": "issuee",
              "type": "address"
            },
            {
              "internalType": "uint256",
              "name": "fromDate",
              "type": "uint256"
            },
            {
              "internalType": "uint256",
              "name": "thruDate",
              "type": "uint256"
            },
            {
              "internalType": "uint256",
              "name": "dateCreated",
              "type": "uint256"
            },
            {
              "internalType": "uint256",
              "name": "automaticRetireDate",
              "type": "uint256"
            },
            {
              "internalType": "string",
              "name": "metadata",
              "type": "string"
            },
            {
              "internalType": "string",
              "name": "manifest",
              "type": "string"
            },
            {
              "internalType": "string",
              "name": "description",
              "type": "string"
            },
            {
              "internalType": "uint256",
              "name": "totalIssued",
              "type": "uint256"
            },
            {
              "internalType": "uint256",
              "name": "totalRetired",
              "type": "uint256"
            }
          ],
          "internalType": "struct NetEmissionsTokenNetwork.CarbonTokenDetails",
          "name": "",
          "type": "tuple"
        }
      ],
      "stateMutability": "view",
      "type": "function"
    },
    {
      "inputs": [
        {
          "internalType": "address",
          "name": "account",
          "type": "address"
        },
        {
          "internalType": "uint256",
          "name": "tokenId",
          "type": "uint256"
        }
      ],
      "name": "getTokenRetiredAmount",
      "outputs": [
        {
          "internalType": "uint256",
          "name": "",
          "type": "uint256"
        }
      ],
      "stateMutability": "view",
      "type": "function"
    },
    {
      "inputs": [
        {
          "internalType": "uint256",
          "name": "tokenId",
          "type": "uint256"
        }
      ],
      "name": "getTokenType",
      "outputs": [
        {
          "internalType": "string",
          "name": "",
          "type": "string"
        }
      ],
      "stateMutability": "view",
      "type": "function"
    },
    {
      "inputs": [
        {
          "internalType": "uint256",
          "name": "tokenId",
          "type": "uint256"
        }
      ],
      "name": "getTokenTypeId",
      "outputs": [
        {
          "internalType": "uint8",
          "name": "",
          "type": "uint8"
        }
      ],
      "stateMutability": "view",
      "type": "function"
    },
    {
      "inputs": [
        {
          "internalType": "address",
          "name": "_from",
          "type": "address"
        },
        {
          "internalType": "address",
          "name": "_to",
          "type": "address"
        },
        {
          "internalType": "uint256[]",
          "name": "_ids",
          "type": "uint256[]"
        },
        {
          "internalType": "uint256[]",
          "name": "_amounts",
          "type": "uint256[]"
        }
      ],
      "name": "getTransferHash",
      "outputs": [
        {
          "internalType": "bytes32",
          "name": "",
          "type": "bytes32"
        }
      ],
      "stateMutability": "view",
      "type": "function"
    },
    {
      "inputs": [
        {
          "internalType": "uint256",
          "name": "tokenId",
          "type": "uint256"
        },
        {
          "internalType": "address",
          "name": "account",
          "type": "address"
        }
      ],
      "name": "getTransferredBalances",
      "outputs": [
        {
          "internalType": "uint256",
          "name": "",
          "type": "uint256"
        }
      ],
      "stateMutability": "view",
      "type": "function"
    },
    {
      "inputs": [
        {
          "internalType": "bytes32",
          "name": "role",
          "type": "bytes32"
        },
        {
          "internalType": "address",
          "name": "account",
          "type": "address"
        }
      ],
      "name": "grantRole",
      "outputs": [],
      "stateMutability": "nonpayable",
      "type": "function"
    },
    {
      "inputs": [
        {
          "internalType": "bytes32",
          "name": "role",
          "type": "bytes32"
        },
        {
          "internalType": "address",
          "name": "account",
          "type": "address"
        }
      ],
      "name": "hasRole",
      "outputs": [
        {
          "internalType": "bool",
          "name": "",
          "type": "bool"
        }
      ],
      "stateMutability": "view",
      "type": "function"
    },
    {
      "inputs": [
        {
          "internalType": "address",
          "name": "_admin",
          "type": "address"
        }
      ],
      "name": "initialize",
      "outputs": [],
      "stateMutability": "nonpayable",
      "type": "function"
    },
    {
      "inputs": [
        {
          "internalType": "address",
          "name": "account",
          "type": "address"
        },
        {
          "internalType": "address",
          "name": "operator",
          "type": "address"
        }
      ],
      "name": "isApprovedForAll",
      "outputs": [
        {
          "internalType": "bool",
          "name": "",
          "type": "bool"
        }
      ],
      "stateMutability": "view",
      "type": "function"
    },
    {
      "inputs": [
        {
          "internalType": "address",
          "name": "auditor",
          "type": "address"
        }
      ],
      "name": "isAuditor",
      "outputs": [
        {
          "internalType": "bool",
          "name": "",
          "type": "bool"
        }
      ],
      "stateMutability": "view",
      "type": "function"
    },
    {
      "inputs": [
        {
          "internalType": "address",
          "name": "account",
          "type": "address"
        }
      ],
      "name": "isConsumerRegistered",
      "outputs": [
        {
          "internalType": "bool",
          "name": "",
          "type": "bool"
        }
      ],
      "stateMutability": "view",
      "type": "function"
    },
    {
      "inputs": [
        {
          "internalType": "address",
          "name": "account",
          "type": "address"
        }
      ],
      "name": "isDealerRegistered",
      "outputs": [
        {
          "internalType": "bool",
          "name": "",
          "type": "bool"
        }
      ],
      "stateMutability": "view",
      "type": "function"
    },
    {
      "inputs": [
        {
          "internalType": "address",
          "name": "issuee",
          "type": "address"
        },
        {
          "internalType": "uint8",
          "name": "tokenTypeId",
          "type": "uint8"
        },
        {
          "internalType": "uint256",
          "name": "quantity",
          "type": "uint256"
        },
        {
          "internalType": "uint256",
          "name": "fromDate",
          "type": "uint256"
        },
        {
          "internalType": "uint256",
          "name": "thruDate",
          "type": "uint256"
        },
        {
          "internalType": "uint256",
          "name": "automaticRetireDate",
          "type": "uint256"
        },
        {
          "internalType": "string",
          "name": "metadata",
          "type": "string"
        },
        {
          "internalType": "string",
          "name": "manifest",
          "type": "string"
        },
        {
          "internalType": "string",
          "name": "description",
          "type": "string"
        }
      ],
      "name": "issue",
      "outputs": [],
      "stateMutability": "nonpayable",
      "type": "function"
    },
    {
      "inputs": [
        {
          "internalType": "address",
          "name": "issuee",
          "type": "address"
        },
        {
          "internalType": "address",
          "name": "issuer",
          "type": "address"
        },
        {
          "internalType": "uint8",
          "name": "tokenTypeId",
          "type": "uint8"
        },
        {
          "internalType": "uint256",
          "name": "quantity",
          "type": "uint256"
        },
        {
          "internalType": "uint256",
          "name": "fromDate",
          "type": "uint256"
        },
        {
          "internalType": "uint256",
          "name": "thruDate",
          "type": "uint256"
        },
        {
          "internalType": "uint256",
          "name": "automaticRetireDate",
          "type": "uint256"
        },
        {
          "internalType": "string",
          "name": "metadata",
          "type": "string"
        },
        {
          "internalType": "string",
          "name": "manifest",
          "type": "string"
        },
        {
          "internalType": "string",
          "name": "description",
          "type": "string"
        }
      ],
      "name": "issueOnBehalf",
      "outputs": [],
      "stateMutability": "nonpayable",
      "type": "function"
    },
    {
      "inputs": [],
      "name": "limitedMode",
      "outputs": [
        {
          "internalType": "bool",
          "name": "",
          "type": "bool"
        }
      ],
      "stateMutability": "view",
      "type": "function"
    },
    {
      "inputs": [
        {
          "internalType": "address",
          "name": "to",
          "type": "address"
        },
        {
          "internalType": "uint256",
          "name": "tokenId",
          "type": "uint256"
        },
        {
          "internalType": "uint256",
          "name": "quantity",
          "type": "uint256"
        }
      ],
      "name": "mint",
      "outputs": [],
      "stateMutability": "nonpayable",
      "type": "function"
    },
    {
      "inputs": [
        {
          "internalType": "address",
          "name": "account",
          "type": "address"
        }
      ],
      "name": "registerConsumer",
      "outputs": [],
      "stateMutability": "nonpayable",
      "type": "function"
    },
    {
      "inputs": [
        {
          "internalType": "address",
          "name": "account",
          "type": "address"
        },
        {
          "internalType": "uint8",
          "name": "tokenTypeId",
          "type": "uint8"
        }
      ],
      "name": "registerDealer",
      "outputs": [],
      "stateMutability": "nonpayable",
      "type": "function"
    },
    {
      "inputs": [
        {
          "internalType": "address",
          "name": "account",
          "type": "address"
        }
      ],
      "name": "registerIndustry",
      "outputs": [],
      "stateMutability": "nonpayable",
      "type": "function"
    },
    {
      "inputs": [
        {
          "internalType": "bytes32",
          "name": "role",
          "type": "bytes32"
        },
        {
          "internalType": "address",
          "name": "account",
          "type": "address"
        }
      ],
      "name": "renounceRole",
      "outputs": [],
      "stateMutability": "nonpayable",
      "type": "function"
    },
    {
      "inputs": [
        {
          "internalType": "uint256",
          "name": "tokenId",
          "type": "uint256"
        },
        {
          "internalType": "uint256",
          "name": "amount",
          "type": "uint256"
        }
      ],
      "name": "retire",
      "outputs": [],
      "stateMutability": "nonpayable",
      "type": "function"
    },
    {
      "inputs": [
        {
          "internalType": "bytes32",
          "name": "role",
          "type": "bytes32"
        },
        {
          "internalType": "address",
          "name": "account",
          "type": "address"
        }
      ],
      "name": "revokeRole",
      "outputs": [],
      "stateMutability": "nonpayable",
      "type": "function"
    },
    {
      "inputs": [
        {
          "internalType": "address",
          "name": "from",
          "type": "address"
        },
        {
          "internalType": "address",
          "name": "to",
          "type": "address"
        },
        {
          "internalType": "uint256[]",
          "name": "ids",
          "type": "uint256[]"
        },
        {
          "internalType": "uint256[]",
          "name": "amounts",
          "type": "uint256[]"
        },
        {
          "internalType": "bytes",
          "name": "data",
          "type": "bytes"
        }
      ],
      "name": "safeBatchTransferFrom",
      "outputs": [],
      "stateMutability": "nonpayable",
      "type": "function"
    },
    {
      "inputs": [
        {
          "internalType": "address",
          "name": "from",
          "type": "address"
        },
        {
          "internalType": "address",
          "name": "to",
          "type": "address"
        },
        {
          "internalType": "uint256",
          "name": "id",
          "type": "uint256"
        },
        {
          "internalType": "uint256",
          "name": "amount",
          "type": "uint256"
        },
        {
          "internalType": "bytes",
          "name": "data",
          "type": "bytes"
        }
      ],
      "name": "safeTransferFrom",
      "outputs": [],
      "stateMutability": "nonpayable",
      "type": "function"
    },
    {
      "inputs": [
        {
          "internalType": "address",
          "name": "operator",
          "type": "address"
        },
        {
          "internalType": "bool",
          "name": "approved",
          "type": "bool"
        }
      ],
      "name": "setApprovalForAll",
      "outputs": [],
      "stateMutability": "nonpayable",
      "type": "function"
    },
    {
      "inputs": [
        {
          "internalType": "bool",
          "name": "_limitedMode",
          "type": "bool"
        }
      ],
      "name": "setLimitedMode",
      "outputs": [],
      "stateMutability": "nonpayable",
      "type": "function"
    },
    {
      "inputs": [
        {
          "internalType": "address",
          "name": "_timelock",
          "type": "address"
        }
      ],
      "name": "setTimelock",
      "outputs": [],
      "stateMutability": "nonpayable",
      "type": "function"
    },
    {
      "inputs": [
        {
          "internalType": "bytes4",
          "name": "interfaceId",
          "type": "bytes4"
        }
      ],
      "name": "supportsInterface",
      "outputs": [
        {
          "internalType": "bool",
          "name": "",
          "type": "bool"
        }
      ],
      "stateMutability": "view",
      "type": "function"
    },
    {
      "inputs": [
        {
          "internalType": "address",
          "name": "to",
          "type": "address"
        },
        {
          "internalType": "uint256",
          "name": "tokenId",
          "type": "uint256"
        },
        {
          "internalType": "uint256",
          "name": "value",
          "type": "uint256"
        }
      ],
      "name": "transfer",
      "outputs": [],
      "stateMutability": "nonpayable",
      "type": "function"
    },
    {
      "inputs": [
        {
          "internalType": "address",
          "name": "account",
          "type": "address"
        }
      ],
      "name": "unregisterConsumer",
      "outputs": [],
      "stateMutability": "nonpayable",
      "type": "function"
    },
    {
      "inputs": [
        {
          "internalType": "address",
          "name": "account",
          "type": "address"
        },
        {
          "internalType": "uint8",
          "name": "tokenTypeId",
          "type": "uint8"
        }
      ],
      "name": "unregisterDealer",
      "outputs": [],
      "stateMutability": "nonpayable",
      "type": "function"
    },
    {
      "inputs": [
        {
          "internalType": "uint256",
          "name": "",
          "type": "uint256"
        }
      ],
      "name": "uri",
      "outputs": [
        {
          "internalType": "string",
          "name": "",
          "type": "string"
        }
      ],
      "stateMutability": "view",
      "type": "function"
    },
    {
      "inputs": [
        {
          "internalType": "bytes32",
          "name": "msgHash",
          "type": "bytes32"
        },
        {
          "internalType": "bytes",
          "name": "signature",
          "type": "bytes"
        },
        {
          "internalType": "address",
          "name": "signer",
          "type": "address"
        }
      ],
      "name": "verifySignature",
      "outputs": [
        {
          "internalType": "bool",
          "name": "",
          "type": "bool"
        }
      ],
      "stateMutability": "pure",
      "type": "function"
    }
  ],
  "bytecode": "0x608060405234801561001057600080fd5b5061547e806100206000396000f3fe608060405234801561001057600080fd5b50600436106103265760003560e01c806378e5c592116101b8578063d547741f11610104578063f242432a116100a2578063fbdf37ea1161007c578063fbdf37ea14610850578063fc0bbce314610865578063fcba794814610878578063fd0c4a9a1461088d57610326565b8063f242432a146107ef578063f73e09e014610802578063f851a4401461083857610326565b8063ddc3e6eb116100de578063ddc3e6eb1461077a578063e2e564f21461078d578063e985e9c5146107a0578063f000be98146107dc57610326565b8063d547741f14610724578063d75cfd5814610737578063dba851b01461076d57610326565b8063a0d975a711610171578063bdacb3031161014b578063bdacb30314610692578063c1e03728146106a5578063c4d66de8146106c5578063ce6ccfaf146106d857610326565b8063a0d975a714610664578063a217fddf14610677578063a22cb4651461067f57610326565b806378e5c592146105a35780637aab1b88146105b85780637f157c9b146105cb578063907b6652146105f357806391d148541461060857806392089c461461061b57610326565b806331aa4b201161027757806349b90557116102305780635ddb368f1161020a5780635ddb368f1461056057806369f7ef441461056857806376aed2e11461057b57806376ce47551461058e57610326565b806349b905571461051a5780634e1273f41461052d57806353dbe9821461054d57610326565b806331aa4b201461048d57806331cd4199146104a057806333781a0e146104b357806336568abe146104c657806344b22fdd146104d9578063496dd90b146104ec57610326565b8063156e29f6116102e4578063248a9ca3116102be578063248a9ca314610431578063293a7f2e146104545780632eb2c2d6146104675780632f2ff15d1461047a57610326565b8063156e29f6146103f457806318a50d7e146104075780631ef68ef71461041c57610326565b8062fdd58e1461032b57806301ffc9a714610351578063033fd91914610374578063095bcdb6146103895780630e89341c1461039c578063127d5ad0146103bc575b600080fd5b61033e6103393660046146ff565b6108a0565b6040519081526020015b60405180910390f35b61036461035f3660046149c1565b610939565b6040519015158152602001610348565b610387610382366004614424565b610966565b005b610387610397366004614728565b610a61565b6103af6103aa366004614933565b610af3565b6040516103489190614d30565b6103e26103ca366004614933565b600090815260cc602052604090206001015460ff1690565b60405160ff9091168152602001610348565b610387610402366004614728565b610b87565b61033e6000805160206153c983398151915281565b61033e60008051602061536983398151915281565b61033e61043f366004614933565b60009081526097602052604090206001015490565b610387610462366004614a11565b610c97565b6103876104753660046144f1565b610e1c565b61038761048836600461494b565b610eb3565b61038761049b36600461475a565b610eda565b6103646104ae36600461496d565b61106c565b6103646104c1366004614424565b6110ef565b6103876104d436600461494b565b611109565b6103876104e7366004614424565b611187565b6104ff6104fa3660046146ff565b611271565b60408051938452602084019290925290820152606001610348565b610364610528366004614424565b61132a565b61054061053b36600461484f565b611344565b6040516103489190614cef565b61038761055b366004614424565b6114a5565b61033e611593565b610364610576366004614424565b6115a4565b6103af610589366004614933565b61162d565b61033e60008051602061542983398151915281565b61033e6000805160206153a983398151915281565b61033e6105c6366004614470565b6117ed565b6105de6105d93660046146ff565b611862565b60408051928352602083019190915201610348565b61033e60008051602061538983398151915281565b61036461061636600461494b565b611904565b61064c610629366004614933565b600090815260cc602052604090206001015461010090046001600160a01b031690565b6040516001600160a01b039091168152602001610348565b61033e6106723660046146ff565b61192f565b61033e600081565b61038761068d3660046146d6565b6119ca565b6103876106a0366004614424565b6119d5565b6106b86106b3366004614933565b611a1e565b6040516103489190614f77565b6103876106d3366004614424565b611cef565b6106eb6106e6366004614424565b611eb4565b604080519615158752941515602087015292151593850193909352151560608401529015156080830152151560a082015260c001610348565b61038761073236600461494b565b611f68565b61033e61074536600461494b565b600091825260cd602090815260408084206001600160a01b0393909316845291905290205490565b60c9546103649060ff1681565b610387610788366004614919565b611f8e565b61038761079b36600461475a565b611fc8565b6103646107ae36600461443e565b6001600160a01b03918216600090815260666020908152604080832093909416825291909152205460ff1690565b6103876107ea3660046145f8565b612151565b6103876107fd366004614596565b6121f8565b61033e61081036600461494b565b600091825260ce602090815260408084206001600160a01b0393909316845291905290205490565b60c95461064c9061010090046001600160a01b031681565b61033e60008051602061534983398151915281565b610364610873366004614424565b61227f565b61033e60008051602061540983398151915281565b61038761089b366004614783565b6122d5565b60006001600160a01b0383166109115760405162461bcd60e51b815260206004820152602b60248201527f455243313135353a2062616c616e636520717565727920666f7220746865207a60448201526a65726f206164647265737360a81b60648201526084015b60405180910390fd5b5060009081526065602090815260408083206001600160a01b03949094168352929052205490565b60006001600160e01b03198216637965db0b60e01b148061095e575061095e826122fa565b90505b919050565b336001600160a01b0382161461097e5761097e61231f565b60c95460ff1615610a1257610994600033611904565b610a125760405162461bcd60e51b815260206004820152604360248201527f434c4d383a3a7265676973746572496e647573747279286c696d69746564293a60448201527f206f6e6c792061646d696e2063616e20726567697374657220696e647573747260648201526269657360e81b608482015260a401610908565b610a2a600080516020615349833981519152826123b5565b6040516001600160a01b038216907f1230fb0cdc77da02d53e840f6f60d5e7f68646d7d1ccdd890860e05533b62f5390600090a250565b610a6a826123bf565b610ac55760405162461bcd60e51b815260206004820152602660248201527f434c4d383a3a7472616e736665723a20746f6b656e496420646f6573206e6f7460448201526508195e1a5cdd60d21b6064820152608401610908565b610aee33848484604051806040016040528060048152602001630307830360e41b8152506121f8565b505050565b606060678054610b02906151be565b80601f0160208091040260200160405190810160405280929190818152602001828054610b2e906151be565b8015610b7b5780601f10610b5057610100808354040283529160200191610b7b565b820191906000526020600020905b815481529060010190602001808311610b5e57829003601f168201915b50505050509050919050565b610b92600033611904565b610bae5760405162461bcd60e51b815260040161090890614d8b565b610bb7826123bf565b610c0e5760405162461bcd60e51b815260206004820152602260248201527f434c4d383a3a6d696e743a20746f6b656e496420646f6573206e6f74206578696044820152611cdd60f21b6064820152608401610908565b60c95460ff1615610c7c5760405162461bcd60e51b815260206004820152603260248201527f434c4d383a3a6d696e743a2063616e6e6f74206d696e74206e657720746f6b656044820152716e7320696e206c696d69746564206d6f646560701b6064820152608401610908565b610aee838383604051806020016040528060008152506123d8565b3360008115610cc557610ca98261227f565b610cc55760405162461bcd60e51b815260040161090890614ecf565b6001600160a01b03811615610cf957610cdd8161227f565b610cf95760405162461bcd60e51b815260040161090890614dd4565b610d02846123bf565b610d5a5760405162461bcd60e51b8152602060048201526024808201527f434c4d383a3a7265746972653a20746f6b656e496420646f6573206e6f7420656044820152631e1a5cdd60e21b6064820152608401610908565b610d6433856108a0565b831115610dd05760405162461bcd60e51b815260206004820152603460248201527f434c4d383a3a7265746972653a206e6f7420656e6f75676820617661696c61626044820152736c652062616c616e636520746f2072657469726560601b6064820152608401610908565b610ddb3385856124ea565b604080518581526020810185905233917f8f1b5ebb586d3d169e4ed07db9cd10ce0dd30c7b656171310eae7517c0b53cf9910160405180910390a250505050565b6001600160a01b038516331480610e385750610e3885336107ae565b610e9f5760405162461bcd60e51b815260206004820152603260248201527f455243313135353a207472616e736665722063616c6c6572206973206e6f74206044820152711bdddb995c881b9bdc88185c1c1c9bdd995960721b6064820152608401610908565b610eac8585858585612576565b5050505050565b600082815260976020526040902060010154610ed081335b612780565b610aee83836127e4565b610ee5600033611904565b610f015760405162461bcd60e51b815260040161090890614d8b565b610f0a8161286a565b610f6f5760405162461bcd60e51b815260206004820152603060248201527f434c4d383a3a72656769737465724465616c65723a20746f6b656e547970654960448201526f1908191bd95cc81b9bdd08195e1a5cdd60821b6064820152608401610908565b8060ff1660011415610f9857610f9360008051602061540983398151915283610eb3565b61101c565b8060ff1660021415610fbc57610f9360008051602061536983398151915283610eb3565b8060ff1660031415610fe057610f9360008051602061542983398151915283610eb3565b8060ff166004141561101c5761100460008051602061534983398151915283610eb3565b61101c60008051602061538983398151915283610eb3565b6110346000805160206153c983398151915283610eb3565b6040516001600160a01b038316907fa8377deee15954185683d55effd369508b4935978c8cb2bab790bf04c570181490600090a25050565b6000806110c6856040517f19457468657265756d205369676e6564204d6573736167653a0a3332000000006020820152603c8101829052600090605c01604051602081830303815290604052805190602001209050919050565b90506001600160a01b0383166110dc828661288c565b6001600160a01b03161495945050505050565b600061095e6000805160206153a983398151915283611904565b6001600160a01b03811633146111795760405162461bcd60e51b815260206004820152602f60248201527f416363657373436f6e74726f6c3a2063616e206f6e6c792072656e6f756e636560448201526e103937b632b9903337b91039b2b63360891b6064820152608401610908565b61118382826128a8565b5050565b61118f61231f565b60c95460ff1615611222576111a5600033611904565b6112225760405162461bcd60e51b815260206004820152604260248201527f434c4d383a3a7265676973746572436f6e73756d6572286c696d69746564293a60448201527f206f6e6c792061646d696e2063616e20726567697374657220636f6e73756d65606482015261727360f01b608482015260a401610908565b61123a6000805160206153a983398151915282610eb3565b6040516001600160a01b038216907f69a0adee259d26fe61f4776f7bea7f3a9737c7321256821b985f988545efd31990600090a250565b604051637f157c9b60e01b81526001600160a01b03831660048201526024810182905260009081908190819081903090637f157c9b90604401604080518083038186803b1580156112c157600080fd5b505afa1580156112d5573d6000803e3d6000fd5b505050506040513d601f19601f820116820180604052508101906112f99190614a32565b600097885260ce60209081526040808a206001600160a01b039b909b168a5299905297909620549597945050505050565b600061095e60008051602061542983398151915283611904565b606081518351146113a95760405162461bcd60e51b815260206004820152602960248201527f455243313135353a206163636f756e747320616e6420696473206c656e677468604482015268040dad2e6dac2e8c6d60bb1b6064820152608401610908565b600083516001600160401b038111156113d257634e487b7160e01b600052604160045260246000fd5b6040519080825280602002602001820160405280156113fb578160200160208202803683370190505b50905060005b845181101561149d5761146285828151811061142d57634e487b7160e01b600052603260045260246000fd5b602002602001015185838151811061145557634e487b7160e01b600052603260045260246000fd5b60200260200101516108a0565b82828151811061148257634e487b7160e01b600052603260045260246000fd5b60209081029190910101526114968161521f565b9050611401565b509392505050565b6114ad61231f565b60c95460ff1615611544576114c3600033611904565b6115445760405162461bcd60e51b815260206004820152604660248201527f434c4d383a3a756e7265676973746572436f6e73756d6572286c696d6974656460448201527f293a206f6e6c792061646d696e2063616e20756e726567697374657220636f6e60648201526573756d65727360d01b608482015260a401610908565b61155c6000805160206153a983398151915282611f68565b6040516001600160a01b038216907f03a38088da75ee2d80f6c753f55f8fd17602ae17d8bd0ef44d5e1f28ab5af11f90600090a250565b600061159e60cb5490565b90505b90565b60006115be60008051602061540983398151915283611904565b806115dc57506115dc60008051602061536983398151915283611904565b806115fa57506115fa60008051602061542983398151915283611904565b80611618575061161860008051602061538983398151915283611904565b1561162557506001610961565b506000919050565b6060611638826123bf565b6116975760405162461bcd60e51b815260206004820152602a60248201527f434c4d383a3a676574546f6b656e547970653a20746f6b656e496420646f6573604482015269081b9bdd08195e1a5cdd60b21b6064820152608401610908565b600082815260cc6020526040902060018082015460ff1614156116ef57505060408051808201909152601c81527f52656e657761626c6520456e65726779204365727469666963617465000000006020820152610961565b600181015460ff166002141561173a57505060408051808201909152601781527f436172626f6e20456d697373696f6e73204f66667365740000000000000000006020820152610961565b600181015460ff16600314156117795750506040805180820190915260118152704175646974656420456d697373696f6e7360781b6020820152610961565b600181015460ff16600414156117b557505060408051808201909152600e81526d21b0b93137b7102a3930b1b5b2b960911b6020820152610961565b5050604080518082019091526014815273151bdad95b88191bd95cc81b9bdd08195e1a5cdd60621b6020820152610961565b50919050565b6001600160a01b03808516600090815260cf60209081526040808320938716835292905290812054859085908590859061182e9063ffffffff166001615130565b604051602001611842959493929190614b7e565b604051602081830303815290604052805190602001209050949350505050565b600080600061187185856108a0565b60405163a0d975a760e01b81526001600160a01b038716600482015260248101869052909150600090309063a0d975a79060440160206040518083038186803b1580156118bd57600080fd5b505afa1580156118d1573d6000803e3d6000fd5b505050506040513d601f19601f820116820180604052508101906118f591906149f9565b919350909150505b9250929050565b60009182526097602090815260408084206001600160a01b0393909316845291905290205460ff1690565b600061193a826123bf565b6119a25760405162461bcd60e51b815260206004820152603360248201527f434c4d383a3a676574546f6b656e52657469726564416d6f756e743a20746f6b604482015272195b925908191bd95cc81b9bdd08195e1a5cdd606a1b6064820152608401610908565b50600090815260cd602090815260408083206001600160a01b03949094168352929052205490565b61118333838361290f565b6119e0600033611904565b6119fc5760405162461bcd60e51b815260040161090890614d8b565b60ca80546001600160a01b0319166001600160a01b0392909216919091179055565b611a9e604051806101a0016040528060008152602001600060ff16815260200160006001600160a01b0316815260200160006001600160a01b031681526020016000815260200160008152602001600081526020016000815260200160608152602001606081526020016060815260200160008152602001600081525090565b600082815260cc602090815260409182902082516101a08101845281548152600182015460ff8116938201939093526001600160a01b03610100938490048116948201949094526002820154909316606084015260038101546080840152600481015460a0840152600581015460c0840152600681015460e08401526007810180549192840191611b2e906151be565b80601f0160208091040260200160405190810160405280929190818152602001828054611b5a906151be565b8015611ba75780601f10611b7c57610100808354040283529160200191611ba7565b820191906000526020600020905b815481529060010190602001808311611b8a57829003601f168201915b50505050508152602001600882018054611bc0906151be565b80601f0160208091040260200160405190810160405280929190818152602001828054611bec906151be565b8015611c395780601f10611c0e57610100808354040283529160200191611c39565b820191906000526020600020905b815481529060010190602001808311611c1c57829003601f168201915b50505050508152602001600982018054611c52906151be565b80601f0160208091040260200160405190810160405280929190818152602001828054611c7e906151be565b8015611ccb5780601f10611ca057610100808354040283529160200191611ccb565b820191906000526020600020905b815481529060010190602001808311611cae57829003601f168201915b50505050508152602001600a8201548152602001600b820154815250509050919050565b600054610100900460ff16611d0a5760005460ff1615611d0e565b303b155b611d715760405162461bcd60e51b815260206004820152602e60248201527f496e697469616c697a61626c653a20636f6e747261637420697320616c72656160448201526d191e481a5b9a5d1a585b1a5e995960921b6064820152608401610908565b600054610100900460ff16158015611d93576000805461ffff19166101011790555b611dab604051806020016040528060008152506129f0565b611dd16000805160206153a98339815191526000805160206153c9833981519152612a33565b611ddc6000836123b5565b611df46000805160206153c9833981519152836123b5565b611e0c600080516020615409833981519152836123b5565b611e24600080516020615369833981519152836123b5565b611e3c600080516020615429833981519152836123b5565b611e54600080516020615389833981519152836123b5565b611e6c600080516020615349833981519152836123b5565b60c9805460ca80546001600160a01b03191690556001600160a81b0319166101006001600160a01b0385160260ff19161790558015611183576000805461ff00191690555050565b6000808080808080611ec68189611904565b90506000611ee26000805160206154098339815191528a611904565b90506000611efe6000805160206153698339815191528b611904565b90506000611f1a6000805160206154298339815191528c611904565b90506000611f366000805160206153498339815191528d611904565b90506000611f526000805160206153a98339815191528e611904565b959d949c50929a50909850965091945092505050565b600082815260976020526040902060010154611f848133610ecb565b610aee83836128a8565b611f99600033611904565b611fb55760405162461bcd60e51b815260040161090890614d8b565b60c9805460ff1916911515919091179055565b611fd3600033611904565b611fef5760405162461bcd60e51b815260040161090890614d8b565b611ff88161286a565b61205f5760405162461bcd60e51b815260206004820152603260248201527f434c4d383a3a756e72656769737465724465616c65723a20746f6b656e54797060448201527119525908191bd95cc81b9bdd08195e1a5cdd60721b6064820152608401610908565b8060ff16600114156120885761208360008051602061540983398151915283611f68565b6120f4565b8060ff16600214156120ac5761208360008051602061536983398151915283611f68565b8060ff16600314156120d05761208360008051602061542983398151915283611f68565b8060ff16600414156120f4576120f460008051602061538983398151915283611f68565b6120fd826115a4565b612119576121196000805160206153c983398151915283611f68565b6040516001600160a01b038316907f98552ded770f1d05a505572f3387c108dbc6b566ea3d49f83cff3d1f1c72a04290600090a25050565b60ca546001600160a01b03163314806121705750612170600033611904565b6121da5760405162461bcd60e51b815260206004820152603560248201527f434c4d383a3a69737375654f6e426568616c663a2063616c6c206d757374206360448201527437b6b290333937b6902220a79037b91030b236b4b760591b6064820152608401610908565b6121ec8a8a8a8a8a8a8a8a8a8a612a7e565b50505050505050505050565b6001600160a01b038516331480612214575061221485336107ae565b6122725760405162461bcd60e51b815260206004820152602960248201527f455243313135353a2063616c6c6572206973206e6f74206f776e6572206e6f7260448201526808185c1c1c9bdd995960ba1b6064820152608401610908565b610eac858585858561321f565b60006122996000805160206153c983398151915283611904565b806122b757506122b76000805160206153a983398151915283611904565b80611618575061161860008051602061534983398151915283611904565b6122dd61231f565b6122ef89338a8a8a8a8a8a8a8a612a7e565b505050505050505050565b60006001600160e01b03198216637965db0b60e01b148061095e575061095e82613340565b6123376000805160206153c983398151915233611904565b80612355575061235560008051602061534983398151915233611904565b6123b35760405162461bcd60e51b815260206004820152602960248201527f434c4d383a3a6f6e6c794465616c65723a206d73672e73656e646572206e6f746044820152681030903232b0b632b960b91b6064820152608401610908565b565b61118382826127e4565b6000816123cb60cb5490565b1061162557506001610961565b6001600160a01b0384166124385760405162461bcd60e51b815260206004820152602160248201527f455243313135353a206d696e7420746f20746865207a65726f206164647265736044820152607360f81b6064820152608401610908565b336124588160008761244988613390565b61245288613390565b876133e9565b60008481526065602090815260408083206001600160a01b03891684529091528120805485929061248a908490615118565b909155505060408051858152602081018590526001600160a01b0380881692600092918516917fc3d58168c5ae7397731d063d5bbf3d657854427343f4c083240f7aacaa2d0f62910160405180910390a4610eac816000878787876138d9565b6124f5838383613a44565b600082815260cc60205260409020600b01546125119082613bc1565b600083815260cc60209081526040808320600b019390935560cd81528282206001600160a01b03871683529052205461254a9082613bc1565b600092835260cd602090815260408085206001600160a01b039096168552949052929091209190915550565b81518351146125d85760405162461bcd60e51b815260206004820152602860248201527f455243313135353a2069647320616e6420616d6f756e7473206c656e677468206044820152670dad2e6dac2e8c6d60c31b6064820152608401610908565b6001600160a01b0384166125fe5760405162461bcd60e51b815260040161090890614e40565b3361260d8187878787876133e9565b60005b845181101561271257600085828151811061263b57634e487b7160e01b600052603260045260246000fd5b60200260200101519050600085838151811061266757634e487b7160e01b600052603260045260246000fd5b60209081029190910181015160008481526065835260408082206001600160a01b038e1683529093529190912054909150818110156126b85760405162461bcd60e51b815260040161090890614e85565b60008381526065602090815260408083206001600160a01b038e8116855292528083208585039055908b168252812080548492906126f7908490615118565b925050819055505050508061270b9061521f565b9050612610565b50846001600160a01b0316866001600160a01b0316826001600160a01b03167f4a39dc06d4c0dbc64b70af90fd698a233a518aa5d07e595d983b8c0526c8f7fb8787604051612762929190614d02565b60405180910390a4612778818787878787613bd4565b505050505050565b61278a8282611904565b611183576127a2816001600160a01b03166014613c9e565b6127ad836020613c9e565b6040516020016127be929190614bd7565b60408051601f198184030181529082905262461bcd60e51b825261090891600401614d30565b6127ee8282611904565b6111835760008281526097602090815260408083206001600160a01b03851684529091529020805460ff191660011790556128263390565b6001600160a01b0316816001600160a01b0316837f2f8788117e7eff1d82e926ec794901d17c78024a50270940304540a733656f0d60405160405180910390a45050565b6000808260ff16118015611618575060048260ff161161162557506001610961565b600080600061289b8585613e7f565b9150915061149d81613eec565b6128b28282611904565b156111835760008281526097602090815260408083206001600160a01b0385168085529252808320805460ff1916905551339285917ff6391f5c32d9c69d2a47ea670b442974b53935d1edc7fd64eb21e047a839171b9190a45050565b816001600160a01b0316836001600160a01b031614156129835760405162461bcd60e51b815260206004820152602960248201527f455243313135353a2073657474696e6720617070726f76616c20737461747573604482015268103337b91039b2b63360b91b6064820152608401610908565b6001600160a01b03838116600081815260666020908152604080832094871680845294825291829020805460ff191686151590811790915591519182527f17307eab39ab6107e8899845ad3d59bd9653f200f220920489ca2b5937696c31910160405180910390a3505050565b600054610100900460ff16612a175760405162461bcd60e51b815260040161090890614f2c565b612a1f6140ef565b612a276140ef565b612a3081614116565b50565b600082815260976020526040808220600101805490849055905190918391839186917fbd79b86ffe0ab8e8776151514217cd7cacd52c909f66475c3af44e129f0b00ff9190a4505050565b612a878861286a565b612adf5760405162461bcd60e51b8152602060048201526024808201527f434c4d383a3a5f69737375653a20746f6b656e54797065496420697320696e76604482015263185b1a5960e21b6064820152608401610908565b60c95460ff1615612d26578760ff1660011480612aff57508760ff166002145b15612c895760ca546001600160a01b03163314612b755760405162461bcd60e51b815260206004820152602e60248201527f434c4d383a3a5f6973737565286c696d69746564293a206d73672e73656e646560448201526d72206e6f742074696d656c6f636b60901b6064820152608401610908565b612b8060008b611904565b612bdc5760405162461bcd60e51b815260206004820152602760248201527f434c4d383a3a5f6973737565286c696d69746564293a20697373756565206e6f6044820152663a1030b236b4b760c91b6064820152608401610908565b612bf46000805160206154098339815191528a611904565b80612c125750612c126000805160206153698339815191528a611904565b612c845760405162461bcd60e51b815260206004820152603760248201527f434c4d383a3a5f6973737565286c696d69746564293a2070726f706f7365722060448201527f6e6f7420612072656769737465726564206465616c65720000000000000000006064820152608401610908565b612d21565b8760ff1660031415612d2157612cad6000805160206154298339815191528a611904565b612d21576040805162461bcd60e51b81526020600482015260248101919091527f434c4d383a3a5f6973737565286c696d69746564293a20697373756572206e6f60448201527f742061207265676973746572656420656d697373696f6e732061756469746f726064820152608401610908565b612e9b565b8760ff1660011415612d9d57612d4a6000805160206154098339815191528a611904565b612d215760405162461bcd60e51b815260206004820152603060248201526000805160206153e983398151915260448201526f3a32b932b2102922a1903232b0b632b960811b6064820152608401610908565b8760ff1660021415612e1757612dc16000805160206153698339815191528a611904565b612d215760405162461bcd60e51b815260206004820152603360248201526000805160206153e98339815191526044820152723a32b932b21037b33339b2ba103232b0b632b960691b6064820152608401610908565b8760ff1660031415612e9b57612e3b6000805160206154298339815191528a611904565b612e9b5760405162461bcd60e51b815260206004820152603760248201526000805160206153e983398151915260448201527f746572656420656d697373696f6e732061756469746f720000000000000000006064820152608401610908565b8760ff1660041415612f9857612ebf6000805160206153498339815191528a611904565b612f105760405162461bcd60e51b815260206004820152602e60248201526000805160206153e983398151915260448201526d746572656420696e64757374727960901b6064820152608401610908565b336001600160a01b038b1614612f985760405162461bcd60e51b815260206004820152604160248201527f434c4d383a3a5f69737375653a207265676973746572656420696e647573747260448201527f792063616e206f6e6c7920697373756520636172626f6e20746f20697473656c6064820152603360f91b608482015260a401610908565b612fa660cb80546001019055565b600060cc6000612fb560cb5490565b81526020019081526020016000209050612fce60cb5490565b8160000181905550888160010160006101000a81548160ff021916908360ff1602179055508a8160020160006101000a8154816001600160a01b0302191690836001600160a01b03160217905550898160010160016101000a8154816001600160a01b0302191690836001600160a01b0316021790555086816003018190555085816004018190555084816006018190555042816005018190555083816007019080519060200190613081929190614271565b5082516130979060088301906020860190614271565b5081516130ad9060098301906020850190614271565b50600a81018890556000600b8201556130df8b6130c960cb5490565b8a604051806020016040528060008152506123d8565b8860ff16600314156131065760028101548154613106916001600160a01b0316908a6124ea565b8060020160009054906101000a90046001600160a01b03166001600160a01b03168160010160019054906101000a90046001600160a01b03166001600160a01b03167f99cc3eeb446560c9a2d2483bc5160735ec0fb1851aea3bde32e7a56c30c11da68a60cd60008660000154815260200190815260200160002060008660020160009054906101000a90046001600160a01b03166001600160a01b03166001600160a01b031681526020019081526020016000205485600001548660010160009054906101000a900460ff168760030154886004015489600501548a600601548b6007018c6008018d60090160405161320a9b9a99989796959493929190615071565b60405180910390a35050505050505050505050565b6001600160a01b0384166132455760405162461bcd60e51b815260040161090890614e40565b3361325581878761244988613390565b60008481526065602090815260408083206001600160a01b038a168452909152902054838110156132985760405162461bcd60e51b815260040161090890614e85565b60008581526065602090815260408083206001600160a01b038b81168552925280832087850390559088168252812080548692906132d7908490615118565b909155505060408051868152602081018690526001600160a01b03808916928a821692918616917fc3d58168c5ae7397731d063d5bbf3d657854427343f4c083240f7aacaa2d0f62910160405180910390a46133378288888888886138d9565b50505050505050565b60006001600160e01b03198216636cdb3d1360e11b148061337157506001600160e01b031982166303a24d0760e21b145b8061095e57506301ffc9a760e01b6001600160e01b031983161461095e565b604080516001808252818301909252606091600091906020808301908036833701905050905082816000815181106133d857634e487b7160e01b600052603260045260246000fd5b602090810291909101015292915050565b84846001600160a01b0382161561341f576134038261227f565b61341f5760405162461bcd60e51b815260040161090890614ecf565b6001600160a01b03811615613453576134378161227f565b6134535760405162461bcd60e51b815260040161090890614dd4565b856001600160a01b0316876001600160a01b031614156134e65760405162461bcd60e51b815260206004820152604260248201527f434c4d383a3a5f6265666f7265546f6b656e5472616e736665723a2073656e6460448201527f657220616e642072656365697665722063616e6e6f74206265207468652073616064820152616d6560f01b608482015260a401610908565b6000805b86518110156137d257600060cc600089848151811061351957634e487b7160e01b600052603260045260246000fd5b60200260200101518152602001908152602001600020905060c960009054906101000a900460ff16156136e8576001600160a01b03891661355a57506137c0565b60018082015460ff1614806135765750600181015460ff166002145b156136285760ca546001600160a01b038c81169116148061359d575061359d60008c611904565b6136235760405162461bcd60e51b815260206004820152604b60248201527f434c4d383a3a5f6265666f7265546f6b656e5472616e73666572286c696d697460448201527f6564293a206f6e6c792061646d696e20616e642044414f2063616e207472616e60648201526a7366657220746f6b656e7360a81b608482015260a401610908565b6136e8565b600181015460ff16600314156136e8576136506000805160206154298339815191528c611904565b6136e85760405162461bcd60e51b815260206004820152605860248201527f434c4d383a3a5f6265666f7265546f6b656e5472616e73666572286c696d697460448201527f6564293a206f6e6c7920656d697373696f6e732061756469746f72732063616e60648201527f206973737565206175646974656420656d697373696f6e730000000000000000608482015260a401610908565b600181015460ff16600414801561370757506001600160a01b03891615155b801561371b57506001600160a01b038a1615155b156137be576000925061379887838151811061374757634e487b7160e01b600052603260045260246000fd5b602002602001015160ce60008460000154815260200190815260200160002060008d6001600160a01b03166001600160a01b0316815260200190815260200160002054613bc190919063ffffffff16565b8154600090815260ce602090815260408083206001600160a01b038f1684529091529020555b505b806137ca8161521f565b9150506134ea565b5080156122ef5760006137e7898989896117ed565b90506137f481868a61106c565b6138755760405162461bcd60e51b815260206004820152604660248201527f434c4d383a3a5f6265666f7265546f6b656e5472616e736665723a207265636560448201527f69766572277320617070726f76616c207369676e6174757265206973206e6f74606482015265081d985b1a5960d21b608482015260a401610908565b6001600160a01b03808a16600090815260cf60209081526040808320938c168352929052908120805463ffffffff16916138ae8361523a565b91906101000a81548163ffffffff021916908363ffffffff1602179055505050505050505050505050565b6001600160a01b0384163b156127785760405163f23a6e6160e01b81526001600160a01b0385169063f23a6e619061391d9089908990889088908890600401614caa565b602060405180830381600087803b15801561393757600080fd5b505af1925050508015613967575060408051601f3d908101601f19168201909252613964918101906149dd565b60015b613a145761397361528a565b806308c379a014156139ad57506139886152a1565b8061399357506139af565b8060405162461bcd60e51b81526004016109089190614d30565b505b60405162461bcd60e51b815260206004820152603460248201527f455243313135353a207472616e7366657220746f206e6f6e20455243313135356044820152732932b1b2b4bb32b91034b6b83632b6b2b73a32b960611b6064820152608401610908565b6001600160e01b0319811663f23a6e6160e01b146133375760405162461bcd60e51b815260040161090890614d43565b6001600160a01b038316613aa65760405162461bcd60e51b815260206004820152602360248201527f455243313135353a206275726e2066726f6d20746865207a65726f206164647260448201526265737360e81b6064820152608401610908565b33613ad581856000613ab787613390565b613ac087613390565b604051806020016040528060008152506133e9565b60008381526065602090815260408083206001600160a01b038816845290915290205482811015613b545760405162461bcd60e51b8152602060048201526024808201527f455243313135353a206275726e20616d6f756e7420657863656564732062616c604482015263616e636560e01b6064820152608401610908565b60008481526065602090815260408083206001600160a01b03898116808652918452828520888703905582518981529384018890529092908616917fc3d58168c5ae7397731d063d5bbf3d657854427343f4c083240f7aacaa2d0f62910160405180910390a45050505050565b6000613bcd8284615118565b9392505050565b6001600160a01b0384163b156127785760405163bc197c8160e01b81526001600160a01b0385169063bc197c8190613c189089908990889088908890600401614c4c565b602060405180830381600087803b158015613c3257600080fd5b505af1925050508015613c62575060408051601f3d908101601f19168201909252613c5f918101906149dd565b60015b613c6e5761397361528a565b6001600160e01b0319811663bc197c8160e01b146133375760405162461bcd60e51b815260040161090890614d43565b60606000613cad836002615158565b613cb8906002615118565b6001600160401b03811115613cdd57634e487b7160e01b600052604160045260246000fd5b6040519080825280601f01601f191660200182016040528015613d07576020820181803683370190505b509050600360fc1b81600081518110613d3057634e487b7160e01b600052603260045260246000fd5b60200101906001600160f81b031916908160001a905350600f60fb1b81600181518110613d6d57634e487b7160e01b600052603260045260246000fd5b60200101906001600160f81b031916908160001a9053506000613d91846002615158565b613d9c906001615118565b90505b6001811115613e30576f181899199a1a9b1b9c1cb0b131b232b360811b85600f1660108110613dde57634e487b7160e01b600052603260045260246000fd5b1a60f81b828281518110613e0257634e487b7160e01b600052603260045260246000fd5b60200101906001600160f81b031916908160001a90535060049490941c93613e29816151a7565b9050613d9f565b508315613bcd5760405162461bcd60e51b815260206004820181905260248201527f537472696e67733a20686578206c656e67746820696e73756666696369656e746044820152606401610908565b600080825160411415613eb65760208301516040840151606085015160001a613eaa87828585614146565b945094505050506118fd565b825160401415613ee05760208301516040840151613ed5868383614233565b9350935050506118fd565b506000905060026118fd565b6000816004811115613f0e57634e487b7160e01b600052602160045260246000fd5b1415613f1957612a30565b6001816004811115613f3b57634e487b7160e01b600052602160045260246000fd5b1415613f895760405162461bcd60e51b815260206004820152601860248201527f45434453413a20696e76616c6964207369676e617475726500000000000000006044820152606401610908565b6002816004811115613fab57634e487b7160e01b600052602160045260246000fd5b1415613ff95760405162461bcd60e51b815260206004820152601f60248201527f45434453413a20696e76616c6964207369676e6174757265206c656e677468006044820152606401610908565b600381600481111561401b57634e487b7160e01b600052602160045260246000fd5b14156140745760405162461bcd60e51b815260206004820152602260248201527f45434453413a20696e76616c6964207369676e6174757265202773272076616c604482015261756560f01b6064820152608401610908565b600481600481111561409657634e487b7160e01b600052602160045260246000fd5b1415612a305760405162461bcd60e51b815260206004820152602260248201527f45434453413a20696e76616c6964207369676e6174757265202776272076616c604482015261756560f01b6064820152608401610908565b600054610100900460ff166123b35760405162461bcd60e51b815260040161090890614f2c565b600054610100900460ff1661413d5760405162461bcd60e51b815260040161090890614f2c565b612a3081614262565b6000807f7fffffffffffffffffffffffffffffff5d576e7357a4501ddfe92f46681b20a083111561417d575060009050600361422a565b8460ff16601b1415801561419557508460ff16601c14155b156141a6575060009050600461422a565b6040805160008082526020820180845289905260ff881692820192909252606081018690526080810185905260019060a0016020604051602081039080840390855afa1580156141fa573d6000803e3d6000fd5b5050604051601f1901519150506001600160a01b0381166142235760006001925092505061422a565b9150600090505b94509492505050565b6000806001600160ff1b03831660ff84901c601b0161425487828885614146565b935093505050935093915050565b80516111839060679060208401905b82805461427d906151be565b90600052602060002090601f01602090048101928261429f57600085556142e5565b82601f106142b857805160ff19168380011785556142e5565b828001600101855582156142e5579182015b828111156142e55782518255916020019190600101906142ca565b506142f19291506142f5565b5090565b5b808211156142f157600081556001016142f6565b80356001600160a01b038116811461096157600080fd5b600082601f830112614331578081fd5b8135602061433e826150f5565b60405161434b82826151f3565b8381528281019150858301600585901b8701840188101561436a578586fd5b855b858110156143885781358452928401929084019060010161436c565b5090979650505050505050565b8035801515811461096157600080fd5b600082601f8301126143b5578081fd5b81356001600160401b038111156143ce576143ce615274565b6040516143e5601f8301601f1916602001826151f3565b8181528460208386010111156143f9578283fd5b816020850160208301379081016020019190915292915050565b803560ff8116811461096157600080fd5b600060208284031215614435578081fd5b613bcd8261430a565b60008060408385031215614450578081fd5b6144598361430a565b91506144676020840161430a565b90509250929050565b60008060008060808587031215614485578182fd5b61448e8561430a565b935061449c6020860161430a565b925060408501356001600160401b03808211156144b7578384fd5b6144c388838901614321565b935060608701359150808211156144d8578283fd5b506144e587828801614321565b91505092959194509250565b600080600080600060a08688031215614508578081fd5b6145118661430a565b945061451f6020870161430a565b935060408601356001600160401b038082111561453a578283fd5b61454689838a01614321565b9450606088013591508082111561455b578283fd5b61456789838a01614321565b9350608088013591508082111561457c578283fd5b50614589888289016143a5565b9150509295509295909350565b600080600080600060a086880312156145ad578081fd5b6145b68661430a565b94506145c46020870161430a565b9350604086013592506060860135915060808601356001600160401b038111156145ec578182fd5b614589888289016143a5565b6000806000806000806000806000806101408b8d031215614617578485fd5b6146208b61430a565b995061462e60208c0161430a565b985061463c60408c01614413565b975060608b0135965060808b0135955060a08b0135945060c08b0135935060e08b01356001600160401b0380821115614673578485fd5b61467f8e838f016143a5565b94506101008d0135915080821115614695578384fd5b6146a18e838f016143a5565b93506101208d01359150808211156146b7578283fd5b506146c48d828e016143a5565b9150509295989b9194979a5092959850565b600080604083850312156146e8578182fd5b6146f18361430a565b915061446760208401614395565b60008060408385031215614711578182fd5b61471a8361430a565b946020939093013593505050565b60008060006060848603121561473c578081fd5b6147458461430a565b95602085013595506040909401359392505050565b6000806040838503121561476c578182fd5b6147758361430a565b915061446760208401614413565b60008060008060008060008060006101208a8c0312156147a1578283fd5b6147aa8a61430a565b98506147b860208b01614413565b975060408a0135965060608a0135955060808a0135945060a08a0135935060c08a01356001600160401b03808211156147ef578485fd5b6147fb8d838e016143a5565b945060e08c0135915080821115614810578384fd5b61481c8d838e016143a5565b93506101008c0135915080821115614832578283fd5b5061483f8c828d016143a5565b9150509295985092959850929598565b60008060408385031215614861578182fd5b82356001600160401b0380821115614877578384fd5b818501915085601f83011261488a578384fd5b81356020614897826150f5565b6040516148a482826151f3565b8381528281019150858301600585901b870184018b10156148c3578889fd5b8896505b848710156148ec576148d88161430a565b8352600196909601959183019183016148c7565b5096505086013592505080821115614902578283fd5b5061490f85828601614321565b9150509250929050565b60006020828403121561492a578081fd5b613bcd82614395565b600060208284031215614944578081fd5b5035919050565b6000806040838503121561495d578182fd5b823591506144676020840161430a565b600080600060608486031215614981578081fd5b8335925060208401356001600160401b0381111561499d578182fd5b6149a9868287016143a5565b9250506149b86040850161430a565b90509250925092565b6000602082840312156149d2578081fd5b8135613bcd81615332565b6000602082840312156149ee578081fd5b8151613bcd81615332565b600060208284031215614a0a578081fd5b5051919050565b60008060408385031215614a23578182fd5b50508035926020909101359150565b60008060408385031215614a44578182fd5b505080516020909101519092909150565b6000815180845260208085019450808401835b83811015614a8457815187529582019590820190600101614a68565b509495945050505050565b80516000906020808401838315614a8457815187529582019590820190600101614a68565b60008151808452614acc816020860160208601615177565b601f01601f19169290920160200192915050565b8054600090600181811c9080831680614afa57607f831692505b6020808410821415614b1a57634e487b7160e01b86526022600452602486fd5b83885260208801828015614b355760018114614b4657614b71565b60ff19871682528282019750614b71565b60008981526020902060005b87811015614b6b57815484820152908601908401614b52565b83019850505b5050505050505092915050565b60006bffffffffffffffffffffffff19808860601b168352808760601b16601484015250614bb8614bb26028840187614a8f565b85614a8f565b60e09390931b6001600160e01b03191683525050600401949350505050565b60007f416363657373436f6e74726f6c3a206163636f756e742000000000000000000082528351614c0f816017850160208801615177565b7001034b99036b4b9b9b4b733903937b6329607d1b6017918401918201528351614c40816028840160208801615177565b01602801949350505050565b6001600160a01b0386811682528516602082015260a060408201819052600090614c7890830186614a55565b8281036060840152614c8a8186614a55565b90508281036080840152614c9e8185614ab4565b98975050505050505050565b6001600160a01b03868116825285166020820152604081018490526060810183905260a060808201819052600090614ce490830184614ab4565b979650505050505050565b600060208252613bcd6020830184614a55565b600060408252614d156040830185614a55565b8281036020840152614d278185614a55565b95945050505050565b600060208252613bcd6020830184614ab4565b60208082526028908201527f455243313135353a204552433131353552656365697665722072656a656374656040820152676420746f6b656e7360c01b606082015260800190565b60208082526029908201527f434c4d383a3a6f6e6c7941646d696e3a206d73672e73656e646572206e6f74206040820152683a34329030b236b4b760b91b606082015260800190565b60208082526046908201527f434c4d383a3a636f6e73756d65724f724465616c65723a20726563697069656e60408201527f74206d75737420626520636f6e73756d65722c206465616c6572206f7220696e60608201526564757374727960d01b608082015260a00190565b60208082526025908201527f455243313135353a207472616e7366657220746f20746865207a65726f206164604082015264647265737360d81b606082015260800190565b6020808252602a908201527f455243313135353a20696e73756666696369656e742062616c616e636520666f60408201526939103a3930b739b332b960b11b606082015260800190565b60208082526039908201527f434c4d383a3a636f6e73756d65724f724465616c65723a2073656e646572206e60408201527f6f74206120636f6e73756d6572206f722061206465616c657200000000000000606082015260800190565b6020808252602b908201527f496e697469616c697a61626c653a20636f6e7472616374206973206e6f74206960408201526a6e697469616c697a696e6760a81b606082015260800190565b600060208252825160208301526020830151614f98604084018260ff169052565b5060408301516001600160a01b03811660608401525060608301516001600160a01b038116608084015250608083015160a083015260a083015160c083015260c083015160e083015260e08301516101008181850152808501519150506101a0610120818186015261500e6101c0860184614ab4565b9250808601519050601f1961014081878603018188015261502f8584614ab4565b94508088015192505061016081878603018188015261504e8584614ab4565b908801516101808881019190915290970151929095019190915250929392505050565b60006101608d83528c60208401528b604084015260ff8b1660608401528960808401528860a08401528760c08401528660e0840152806101008401526150b981840187614ae0565b90508281036101208401526150ce8186614ae0565b90508281036101408401526150e38185614ae0565b9e9d5050505050505050505050505050565b60006001600160401b0382111561510e5761510e615274565b5060051b60200190565b6000821982111561512b5761512b61525e565b500190565b600063ffffffff80831681851680830382111561514f5761514f61525e565b01949350505050565b60008160001904831182151516156151725761517261525e565b500290565b60005b8381101561519257818101518382015260200161517a565b838111156151a1576000848401525b50505050565b6000816151b6576151b661525e565b506000190190565b600181811c908216806151d257607f821691505b602082108114156117e757634e487b7160e01b600052602260045260246000fd5b601f8201601f191681016001600160401b038111828210171561521857615218615274565b6040525050565b60006000198214156152335761523361525e565b5060010190565b600063ffffffff808316818114156152545761525461525e565b6001019392505050565b634e487b7160e01b600052601160045260246000fd5b634e487b7160e01b600052604160045260246000fd5b600060033d11156115a157600481823e5160e01c90565b600060443d10156152b1576115a1565b6040516003193d81016004833e81513d6001600160401b0381602484011181841117156152e25750505050506115a1565b82850191508151818111156152fc575050505050506115a1565b843d8701016020828501011115615318575050505050506115a1565b615327602082860101876151f3565b509094505050505090565b6001600160e01b031981168114612a3057600080fdfe8305613dd3dbc3e0773e56336f52890c75fc1219c6ed3f363339b8ada04df289ede6574deba8f02ada7888448a497b08844d62e044ed533343a673be3ffcde5ff047c8eb56a4fb9b90290fc55ce546369985412ba2348c56342b7afbf87ec1a65e1aa547d3dade8c68b013a47ad41c2bcc9b9e4b0765b0fb616780e15786e76af8890eedd7900ad88da6192fd03dbb69dbeee963b1a0ed738abe49ab3331aaf3434c4d383a3a5f69737375653a20697373756572206e6f7420612072656769732ab9f1da92e74aaa01eb75a871557505b11dd8d36832a34bb21bbee88b08d860e97dad3dbe5042e7384b1572cf966a15e089576a62b5126c5ef1d184ab18b12ca26469706673582212201baf9930c29960d0ce570ab39db5a1881cf8fb0c1b759295e78e091b695d340064736f6c63430008030033",
  "linkReferences": {},
  "deployedLinkReferences": {}
}