{
  "_format": "hh-sol-artifact-1",
  "contractName": "NetEmissionsTokenNetwork",
  "sourceName": "contracts/NetEmissionsTokenNetwork.sol",
  "abi": [
    {
      "anonymous": false,
      "inputs": [
        {
          "indexed": true,
          "internalType": "address",
          "name": "account",
          "type": "address"
        },
        {
          "indexed": true,
          "internalType": "address",
          "name": "operator",
          "type": "address"
        },
        {
          "indexed": false,
          "internalType": "bool",
          "name": "approved",
          "type": "bool"
        }
      ],
      "name": "ApprovalForAll",
      "type": "event"
    },
    {
      "anonymous": false,
      "inputs": [
        {
          "indexed": false,
          "internalType": "uint8",
          "name": "version",
          "type": "uint8"
        }
      ],
      "name": "Initialized",
      "type": "event"
    },
    {
      "anonymous": false,
      "inputs": [
        {
          "indexed": true,
          "internalType": "address",
          "name": "account",
          "type": "address"
        }
      ],
      "name": "RegisteredConsumer",
      "type": "event"
    },
    {
      "anonymous": false,
      "inputs": [
        {
          "indexed": true,
          "internalType": "address",
          "name": "account",
          "type": "address"
        }
      ],
      "name": "RegisteredDealer",
      "type": "event"
    },
    {
      "anonymous": false,
      "inputs": [
        {
          "indexed": true,
          "internalType": "address",
          "name": "account",
          "type": "address"
        }
      ],
      "name": "RegisteredIndustry",
      "type": "event"
    },
    {
      "anonymous": false,
      "inputs": [
        {
          "indexed": true,
          "internalType": "bytes32",
          "name": "role",
          "type": "bytes32"
        },
        {
          "indexed": true,
          "internalType": "bytes32",
          "name": "previousAdminRole",
          "type": "bytes32"
        },
        {
          "indexed": true,
          "internalType": "bytes32",
          "name": "newAdminRole",
          "type": "bytes32"
        }
      ],
      "name": "RoleAdminChanged",
      "type": "event"
    },
    {
      "anonymous": false,
      "inputs": [
        {
          "indexed": true,
          "internalType": "bytes32",
          "name": "role",
          "type": "bytes32"
        },
        {
          "indexed": true,
          "internalType": "address",
          "name": "account",
          "type": "address"
        },
        {
          "indexed": true,
          "internalType": "address",
          "name": "sender",
          "type": "address"
        }
      ],
      "name": "RoleGranted",
      "type": "event"
    },
    {
      "anonymous": false,
      "inputs": [
        {
          "indexed": true,
          "internalType": "bytes32",
          "name": "role",
          "type": "bytes32"
        },
        {
          "indexed": true,
          "internalType": "address",
          "name": "account",
          "type": "address"
        },
        {
          "indexed": true,
          "internalType": "address",
          "name": "sender",
          "type": "address"
        }
      ],
      "name": "RoleRevoked",
      "type": "event"
    },
    {
      "anonymous": false,
      "inputs": [
        {
          "indexed": false,
          "internalType": "uint256",
          "name": "availableBalance",
          "type": "uint256"
        },
        {
          "indexed": false,
          "internalType": "uint256",
          "name": "retiredBalance",
          "type": "uint256"
        },
        {
          "indexed": false,
          "internalType": "uint256",
          "name": "tokenId",
          "type": "uint256"
        },
        {
          "indexed": false,
          "internalType": "uint8",
          "name": "tokenTypeId",
          "type": "uint8"
        },
        {
          "indexed": true,
          "internalType": "address",
          "name": "issuedBy",
          "type": "address"
        },
        {
          "indexed": true,
          "internalType": "uint160",
          "name": "issuedFrom",
          "type": "uint160"
        },
        {
          "indexed": true,
          "internalType": "address",
          "name": "issuedTo",
          "type": "address"
        },
        {
          "indexed": false,
          "internalType": "uint256",
          "name": "fromDate",
          "type": "uint256"
        },
        {
          "indexed": false,
          "internalType": "uint256",
          "name": "thruDate",
          "type": "uint256"
        },
        {
          "indexed": false,
          "internalType": "uint256",
          "name": "dateCreated",
          "type": "uint256"
        },
        {
          "indexed": false,
          "internalType": "string",
          "name": "metadata",
          "type": "string"
        },
        {
          "indexed": false,
          "internalType": "string",
          "name": "manifest",
          "type": "string"
        },
        {
          "indexed": false,
          "internalType": "string",
          "name": "description",
          "type": "string"
        }
      ],
      "name": "TokenCreated",
      "type": "event"
    },
    {
      "anonymous": false,
      "inputs": [
        {
          "indexed": true,
          "internalType": "address",
          "name": "account",
          "type": "address"
        },
        {
          "indexed": false,
          "internalType": "uint256",
          "name": "tokenId",
          "type": "uint256"
        },
        {
          "indexed": false,
          "internalType": "uint256",
          "name": "amount",
          "type": "uint256"
        }
      ],
      "name": "TokenRetired",
      "type": "event"
    },
    {
      "anonymous": false,
      "inputs": [
        {
          "indexed": true,
          "internalType": "address",
          "name": "operator",
          "type": "address"
        },
        {
          "indexed": true,
          "internalType": "address",
          "name": "from",
          "type": "address"
        },
        {
          "indexed": true,
          "internalType": "address",
          "name": "to",
          "type": "address"
        },
        {
          "indexed": false,
          "internalType": "uint256[]",
          "name": "ids",
          "type": "uint256[]"
        },
        {
          "indexed": false,
          "internalType": "uint256[]",
          "name": "values",
          "type": "uint256[]"
        }
      ],
      "name": "TransferBatch",
      "type": "event"
    },
    {
      "anonymous": false,
      "inputs": [
        {
          "indexed": true,
          "internalType": "address",
          "name": "operator",
          "type": "address"
        },
        {
          "indexed": true,
          "internalType": "address",
          "name": "from",
          "type": "address"
        },
        {
          "indexed": true,
          "internalType": "address",
          "name": "to",
          "type": "address"
        },
        {
          "indexed": false,
          "internalType": "uint256",
          "name": "id",
          "type": "uint256"
        },
        {
          "indexed": false,
          "internalType": "uint256",
          "name": "value",
          "type": "uint256"
        }
      ],
      "name": "TransferSingle",
      "type": "event"
    },
    {
      "anonymous": false,
      "inputs": [
        {
          "indexed": false,
          "internalType": "string",
          "name": "value",
          "type": "string"
        },
        {
          "indexed": true,
          "internalType": "uint256",
          "name": "id",
          "type": "uint256"
        }
      ],
      "name": "URI",
      "type": "event"
    },
    {
      "anonymous": false,
      "inputs": [
        {
          "indexed": true,
          "internalType": "address",
          "name": "account",
          "type": "address"
        }
      ],
      "name": "UnregisteredConsumer",
      "type": "event"
    },
    {
      "anonymous": false,
      "inputs": [
        {
          "indexed": true,
          "internalType": "address",
          "name": "account",
          "type": "address"
        }
      ],
      "name": "UnregisteredDealer",
      "type": "event"
    },
    {
      "anonymous": false,
      "inputs": [
        {
          "indexed": true,
          "internalType": "address",
          "name": "account",
          "type": "address"
        }
      ],
      "name": "UnregisteredIndustry",
      "type": "event"
    },
    {
      "inputs": [],
      "name": "DEFAULT_ADMIN_ROLE",
      "outputs": [
        {
          "internalType": "bytes32",
          "name": "",
          "type": "bytes32"
        }
      ],
      "stateMutability": "view",
      "type": "function"
    },
    {
      "inputs": [],
      "name": "REGISTERED_CONSUMER",
      "outputs": [
        {
          "internalType": "bytes32",
          "name": "",
          "type": "bytes32"
        }
      ],
      "stateMutability": "view",
      "type": "function"
    },
    {
      "inputs": [],
      "name": "REGISTERED_DEALER",
      "outputs": [
        {
          "internalType": "bytes32",
          "name": "",
          "type": "bytes32"
        }
      ],
      "stateMutability": "view",
      "type": "function"
    },
    {
      "inputs": [],
      "name": "REGISTERED_EMISSIONS_AUDITOR",
      "outputs": [
        {
          "internalType": "bytes32",
          "name": "",
          "type": "bytes32"
        }
      ],
      "stateMutability": "view",
      "type": "function"
    },
    {
      "inputs": [],
      "name": "REGISTERED_INDUSTRY",
      "outputs": [
        {
          "internalType": "bytes32",
          "name": "",
          "type": "bytes32"
        }
      ],
      "stateMutability": "view",
      "type": "function"
    },
    {
      "inputs": [],
      "name": "REGISTERED_INDUSTRY_DEALER",
      "outputs": [
        {
          "internalType": "bytes32",
          "name": "",
          "type": "bytes32"
        }
      ],
      "stateMutability": "view",
      "type": "function"
    },
    {
      "inputs": [],
      "name": "REGISTERED_OFFSET_DEALER",
      "outputs": [
        {
          "internalType": "bytes32",
          "name": "",
          "type": "bytes32"
        }
      ],
      "stateMutability": "view",
      "type": "function"
    },
    {
      "inputs": [],
      "name": "REGISTERED_REC_DEALER",
      "outputs": [
        {
          "internalType": "bytes32",
          "name": "",
          "type": "bytes32"
        }
      ],
      "stateMutability": "view",
      "type": "function"
    },
    {
      "inputs": [
        {
          "internalType": "address",
          "name": "entity",
          "type": "address"
        }
      ],
      "name": "_consumerOrDealer",
      "outputs": [
        {
          "internalType": "bool",
          "name": "",
          "type": "bool"
        }
      ],
      "stateMutability": "view",
      "type": "function"
    },
    {
      "inputs": [],
      "name": "admin",
      "outputs": [
        {
          "internalType": "address",
          "name": "",
          "type": "address"
        }
      ],
      "stateMutability": "view",
      "type": "function"
    },
    {
      "inputs": [
        {
          "internalType": "address",
          "name": "account",
          "type": "address"
        },
        {
          "internalType": "uint256",
          "name": "id",
          "type": "uint256"
        }
      ],
      "name": "balanceOf",
      "outputs": [
        {
          "internalType": "uint256",
          "name": "",
          "type": "uint256"
        }
      ],
      "stateMutability": "view",
      "type": "function"
    },
    {
      "inputs": [
        {
          "internalType": "address[]",
          "name": "accounts",
          "type": "address[]"
        },
        {
          "internalType": "uint256[]",
          "name": "ids",
          "type": "uint256[]"
        }
      ],
      "name": "balanceOfBatch",
      "outputs": [
        {
          "internalType": "uint256[]",
          "name": "",
          "type": "uint256[]"
        }
      ],
      "stateMutability": "view",
      "type": "function"
    },
    {
      "inputs": [
        {
          "internalType": "address",
          "name": "account",
          "type": "address"
        },
        {
          "internalType": "uint256",
          "name": "tokenId",
          "type": "uint256"
        }
      ],
      "name": "getAvailableAndRetired",
      "outputs": [
        {
          "internalType": "uint256",
          "name": "",
          "type": "uint256"
        },
        {
          "internalType": "uint256",
          "name": "",
          "type": "uint256"
        }
      ],
      "stateMutability": "view",
      "type": "function"
    },
    {
      "inputs": [
        {
          "internalType": "uint256",
          "name": "tokenId",
          "type": "uint256"
        }
      ],
      "name": "getIssuedBy",
      "outputs": [
        {
          "internalType": "address",
          "name": "",
          "type": "address"
        }
      ],
      "stateMutability": "view",
      "type": "function"
    },
    {
      "inputs": [
        {
          "internalType": "uint256",
          "name": "tokenId",
          "type": "uint256"
        }
      ],
      "name": "getIssuedFrom",
      "outputs": [
        {
          "internalType": "uint160",
          "name": "",
          "type": "uint160"
        }
      ],
      "stateMutability": "view",
      "type": "function"
    },
    {
      "inputs": [],
      "name": "getNumOfUniqueTokens",
      "outputs": [
        {
          "internalType": "uint256",
          "name": "",
          "type": "uint256"
        }
      ],
      "stateMutability": "view",
      "type": "function"
    },
    {
      "inputs": [
        {
          "internalType": "uint256",
          "name": "tokenId",
          "type": "uint256"
        },
        {
          "internalType": "address",
          "name": "account",
          "type": "address"
        }
      ],
      "name": "getRetiredBalances",
      "outputs": [
        {
          "internalType": "uint256",
          "name": "",
          "type": "uint256"
        }
      ],
      "stateMutability": "view",
      "type": "function"
    },
    {
      "inputs": [
        {
          "internalType": "bytes32",
          "name": "role",
          "type": "bytes32"
        }
      ],
      "name": "getRoleAdmin",
      "outputs": [
        {
          "internalType": "bytes32",
          "name": "",
          "type": "bytes32"
        }
      ],
      "stateMutability": "view",
      "type": "function"
    },
    {
      "inputs": [
        {
          "internalType": "address",
          "name": "account",
          "type": "address"
        }
      ],
      "name": "getRoles",
      "outputs": [
        {
          "components": [
            {
              "internalType": "bool",
              "name": "isAdmin",
              "type": "bool"
            },
            {
              "internalType": "bool",
              "name": "isConsumer",
              "type": "bool"
            },
            {
              "internalType": "bool",
              "name": "isRecDealer",
              "type": "bool"
            },
            {
              "internalType": "bool",
              "name": "isCeoDealer",
              "type": "bool"
            },
            {
              "internalType": "bool",
              "name": "isAeDealer",
              "type": "bool"
            },
            {
              "internalType": "bool",
              "name": "isIndustry",
              "type": "bool"
            },
            {
              "internalType": "bool",
              "name": "isIndustryDealer",
              "type": "bool"
            }
          ],
          "internalType": "struct NetEmissionsTokenNetwork.RolesInfo",
          "name": "",
          "type": "tuple"
        }
      ],
      "stateMutability": "view",
      "type": "function"
    },
    {
      "inputs": [
        {
          "internalType": "uint256",
          "name": "tokenId",
          "type": "uint256"
        }
      ],
      "name": "getTokenDetails",
      "outputs": [
        {
          "components": [
            {
              "internalType": "uint256",
              "name": "tokenId",
              "type": "uint256"
            },
            {
              "internalType": "uint8",
              "name": "tokenTypeId",
              "type": "uint8"
            },
            {
              "internalType": "address",
              "name": "issuedBy",
              "type": "address"
            },
            {
              "internalType": "uint160",
              "name": "issuedFrom",
              "type": "uint160"
            },
            {
              "internalType": "address",
              "name": "issuedTo",
              "type": "address"
            },
            {
              "internalType": "uint256",
              "name": "fromDate",
              "type": "uint256"
            },
            {
              "internalType": "uint256",
              "name": "thruDate",
              "type": "uint256"
            },
            {
              "internalType": "uint256",
              "name": "dateCreated",
              "type": "uint256"
            },
            {
              "internalType": "string",
              "name": "metadata",
              "type": "string"
            },
            {
              "internalType": "string",
              "name": "manifest",
              "type": "string"
            },
            {
              "internalType": "string",
              "name": "description",
              "type": "string"
            },
            {
              "internalType": "uint256",
              "name": "totalIssued",
              "type": "uint256"
            },
            {
              "internalType": "uint256",
              "name": "totalRetired",
              "type": "uint256"
            }
          ],
          "internalType": "struct NetEmissionsTokenNetwork.CarbonTokenDetails",
          "name": "",
          "type": "tuple"
        }
      ],
      "stateMutability": "view",
      "type": "function"
    },
    {
      "inputs": [
        {
          "internalType": "address",
          "name": "account",
          "type": "address"
        },
        {
          "internalType": "uint256",
          "name": "tokenId",
          "type": "uint256"
        }
      ],
      "name": "getTokenRetiredAmount",
      "outputs": [
        {
          "internalType": "uint256",
          "name": "",
          "type": "uint256"
        }
      ],
      "stateMutability": "view",
      "type": "function"
    },
    {
      "inputs": [
        {
          "internalType": "uint256",
          "name": "tokenId",
          "type": "uint256"
        }
      ],
      "name": "getTokenType",
      "outputs": [
        {
          "internalType": "string",
          "name": "",
          "type": "string"
        }
      ],
      "stateMutability": "view",
      "type": "function"
    },
    {
      "inputs": [
        {
          "internalType": "uint256",
          "name": "tokenId",
          "type": "uint256"
        }
      ],
      "name": "getTokenTypeId",
      "outputs": [
        {
          "internalType": "uint8",
          "name": "",
          "type": "uint8"
        }
      ],
      "stateMutability": "view",
      "type": "function"
    },
    {
      "inputs": [
        {
          "internalType": "address",
          "name": "_from",
          "type": "address"
        },
        {
          "internalType": "address",
          "name": "_to",
          "type": "address"
        },
        {
          "internalType": "uint256[]",
          "name": "_ids",
          "type": "uint256[]"
        },
        {
          "internalType": "uint256[]",
          "name": "_amounts",
          "type": "uint256[]"
        }
      ],
      "name": "getTransferHash",
      "outputs": [
        {
          "internalType": "bytes32",
          "name": "",
          "type": "bytes32"
        }
      ],
      "stateMutability": "view",
      "type": "function"
    },
    {
      "inputs": [
        {
          "internalType": "bytes32",
          "name": "role",
          "type": "bytes32"
        },
        {
          "internalType": "address",
          "name": "account",
          "type": "address"
        }
      ],
      "name": "grantRole",
      "outputs": [],
      "stateMutability": "nonpayable",
      "type": "function"
    },
    {
      "inputs": [
        {
          "internalType": "bytes32",
          "name": "role",
          "type": "bytes32"
        },
        {
          "internalType": "address",
          "name": "account",
          "type": "address"
        }
      ],
      "name": "hasRole",
      "outputs": [
        {
          "internalType": "bool",
          "name": "",
          "type": "bool"
        }
      ],
      "stateMutability": "view",
      "type": "function"
    },
    {
      "inputs": [
        {
          "internalType": "address",
          "name": "_admin",
          "type": "address"
        }
      ],
      "name": "initialize",
      "outputs": [],
      "stateMutability": "nonpayable",
      "type": "function"
    },
    {
      "inputs": [
        {
          "internalType": "address",
          "name": "account",
          "type": "address"
        },
        {
          "internalType": "address",
          "name": "operator",
          "type": "address"
        }
      ],
      "name": "isApprovedForAll",
      "outputs": [
        {
          "internalType": "bool",
          "name": "",
          "type": "bool"
        }
      ],
      "stateMutability": "view",
      "type": "function"
    },
    {
      "inputs": [
        {
          "internalType": "address",
          "name": "auditor",
          "type": "address"
        }
      ],
      "name": "isAuditor",
      "outputs": [
        {
          "internalType": "bool",
          "name": "",
          "type": "bool"
        }
      ],
      "stateMutability": "view",
      "type": "function"
    },
    {
      "inputs": [
        {
          "internalType": "address",
          "name": "account",
          "type": "address"
        }
      ],
      "name": "isConsumerRegistered",
      "outputs": [
        {
          "internalType": "bool",
          "name": "",
          "type": "bool"
        }
      ],
      "stateMutability": "view",
      "type": "function"
    },
    {
      "inputs": [
        {
          "internalType": "address",
          "name": "account",
          "type": "address"
        }
      ],
      "name": "isDealerRegistered",
      "outputs": [
        {
          "internalType": "bool",
          "name": "",
          "type": "bool"
        }
      ],
      "stateMutability": "view",
      "type": "function"
    },
    {
      "inputs": [
        {
          "internalType": "address",
          "name": "industry",
          "type": "address"
        }
      ],
      "name": "isIndustry",
      "outputs": [
        {
          "internalType": "bool",
          "name": "",
          "type": "bool"
        }
      ],
      "stateMutability": "view",
      "type": "function"
    },
    {
      "inputs": [
        {
          "internalType": "uint160",
          "name": "issuedFrom",
          "type": "uint160"
        },
        {
          "internalType": "address",
          "name": "issuedTo",
          "type": "address"
        },
        {
          "internalType": "uint8",
          "name": "tokenTypeId",
          "type": "uint8"
        },
        {
          "internalType": "uint256",
          "name": "quantity",
          "type": "uint256"
        },
        {
          "internalType": "uint256",
          "name": "fromDate",
          "type": "uint256"
        },
        {
          "internalType": "uint256",
          "name": "thruDate",
          "type": "uint256"
        },
        {
          "internalType": "string",
          "name": "metadata",
          "type": "string"
        },
        {
          "internalType": "string",
          "name": "manifest",
          "type": "string"
        },
        {
          "internalType": "string",
          "name": "description",
          "type": "string"
        }
      ],
      "name": "issue",
      "outputs": [],
      "stateMutability": "nonpayable",
      "type": "function"
    },
    {
      "inputs": [
        {
          "internalType": "uint160",
          "name": "issuedFrom",
          "type": "uint160"
        },
        {
          "internalType": "address",
          "name": "issuedTo",
          "type": "address"
        },
        {
          "internalType": "address",
          "name": "trackerAddress",
          "type": "address"
        },
        {
          "internalType": "uint256",
          "name": "trackerId",
          "type": "uint256"
        },
        {
          "internalType": "uint8",
          "name": "tokenTypeId",
          "type": "uint8"
        },
        {
          "internalType": "uint256",
          "name": "quantity",
          "type": "uint256"
        },
        {
          "internalType": "uint256",
          "name": "fromDate",
          "type": "uint256"
        },
        {
          "internalType": "uint256",
          "name": "thruDate",
          "type": "uint256"
        },
        {
          "internalType": "string",
          "name": "metadata",
          "type": "string"
        },
        {
          "internalType": "string",
          "name": "manifest",
          "type": "string"
        },
        {
          "internalType": "string",
          "name": "description",
          "type": "string"
        }
      ],
      "name": "issueAndTrack",
      "outputs": [],
      "stateMutability": "nonpayable",
      "type": "function"
    },
    {
      "inputs": [
        {
          "internalType": "address",
          "name": "issuedBy",
          "type": "address"
        },
        {
          "internalType": "uint160",
          "name": "issuedFrom",
          "type": "uint160"
        },
        {
          "internalType": "address",
          "name": "issuedTo",
          "type": "address"
        },
        {
          "internalType": "uint8",
          "name": "tokenTypeId",
          "type": "uint8"
        },
        {
          "internalType": "uint256",
          "name": "quantity",
          "type": "uint256"
        },
        {
          "internalType": "uint256",
          "name": "fromDate",
          "type": "uint256"
        },
        {
          "internalType": "uint256",
          "name": "thruDate",
          "type": "uint256"
        },
        {
          "internalType": "string",
          "name": "metadata",
          "type": "string"
        },
        {
          "internalType": "string",
          "name": "manifest",
          "type": "string"
        },
        {
          "internalType": "string",
          "name": "description",
          "type": "string"
        }
      ],
      "name": "issueOnBehalf",
      "outputs": [],
      "stateMutability": "nonpayable",
      "type": "function"
    },
    {
      "inputs": [],
      "name": "limitedMode",
      "outputs": [
        {
          "internalType": "bool",
          "name": "",
          "type": "bool"
        }
      ],
      "stateMutability": "view",
      "type": "function"
    },
    {
      "inputs": [
        {
          "internalType": "address",
          "name": "to",
          "type": "address"
        },
        {
          "internalType": "uint256",
          "name": "tokenId",
          "type": "uint256"
        },
        {
          "internalType": "uint256",
          "name": "quantity",
          "type": "uint256"
        }
      ],
      "name": "mint",
      "outputs": [],
      "stateMutability": "nonpayable",
      "type": "function"
    },
    {
      "inputs": [
        {
          "internalType": "address",
          "name": "account",
          "type": "address"
        }
      ],
      "name": "registerConsumer",
      "outputs": [],
      "stateMutability": "nonpayable",
      "type": "function"
    },
    {
      "inputs": [
        {
          "internalType": "address",
          "name": "account",
          "type": "address"
        },
        {
          "internalType": "uint8",
          "name": "tokenTypeId",
          "type": "uint8"
        }
      ],
      "name": "registerDealer",
      "outputs": [],
      "stateMutability": "nonpayable",
      "type": "function"
    },
    {
      "inputs": [
        {
          "internalType": "address",
          "name": "account",
          "type": "address"
        }
      ],
      "name": "registerIndustry",
      "outputs": [],
      "stateMutability": "nonpayable",
      "type": "function"
    },
    {
      "inputs": [
        {
          "internalType": "bytes32",
          "name": "role",
          "type": "bytes32"
        },
        {
          "internalType": "address",
          "name": "account",
          "type": "address"
        }
      ],
      "name": "renounceRole",
      "outputs": [],
      "stateMutability": "nonpayable",
      "type": "function"
    },
    {
      "inputs": [
        {
          "internalType": "uint256",
          "name": "tokenId",
          "type": "uint256"
        },
        {
          "internalType": "uint256",
          "name": "amount",
          "type": "uint256"
        }
      ],
      "name": "retire",
      "outputs": [],
      "stateMutability": "nonpayable",
      "type": "function"
    },
    {
      "inputs": [
        {
          "internalType": "bytes32",
          "name": "role",
          "type": "bytes32"
        },
        {
          "internalType": "address",
          "name": "account",
          "type": "address"
        }
      ],
      "name": "revokeRole",
      "outputs": [],
      "stateMutability": "nonpayable",
      "type": "function"
    },
    {
      "inputs": [
        {
          "internalType": "address",
          "name": "from",
          "type": "address"
        },
        {
          "internalType": "address",
          "name": "to",
          "type": "address"
        },
        {
          "internalType": "uint256[]",
          "name": "ids",
          "type": "uint256[]"
        },
        {
          "internalType": "uint256[]",
          "name": "amounts",
          "type": "uint256[]"
        },
        {
          "internalType": "bytes",
          "name": "data",
          "type": "bytes"
        }
      ],
      "name": "safeBatchTransferFrom",
      "outputs": [],
      "stateMutability": "nonpayable",
      "type": "function"
    },
    {
      "inputs": [
        {
          "internalType": "address",
          "name": "from",
          "type": "address"
        },
        {
          "internalType": "address",
          "name": "to",
          "type": "address"
        },
        {
          "internalType": "uint256",
          "name": "id",
          "type": "uint256"
        },
        {
          "internalType": "uint256",
          "name": "amount",
          "type": "uint256"
        },
        {
          "internalType": "bytes",
          "name": "data",
          "type": "bytes"
        }
      ],
      "name": "safeTransferFrom",
      "outputs": [],
      "stateMutability": "nonpayable",
      "type": "function"
    },
    {
      "inputs": [
        {
          "internalType": "address",
          "name": "operator",
          "type": "address"
        },
        {
          "internalType": "bool",
          "name": "approved",
          "type": "bool"
        }
      ],
      "name": "setApprovalForAll",
      "outputs": [],
      "stateMutability": "nonpayable",
      "type": "function"
    },
    {
      "inputs": [
        {
          "internalType": "bool",
          "name": "_limitedMode",
          "type": "bool"
        }
      ],
      "name": "setLimitedMode",
      "outputs": [],
      "stateMutability": "nonpayable",
      "type": "function"
    },
    {
      "inputs": [
        {
          "internalType": "address",
          "name": "_timelock",
          "type": "address"
        }
      ],
      "name": "setTimelock",
      "outputs": [],
      "stateMutability": "nonpayable",
      "type": "function"
    },
    {
      "inputs": [
        {
          "internalType": "bytes4",
          "name": "interfaceId",
          "type": "bytes4"
        }
      ],
      "name": "supportsInterface",
      "outputs": [
        {
          "internalType": "bool",
          "name": "",
          "type": "bool"
        }
      ],
      "stateMutability": "view",
      "type": "function"
    },
    {
      "inputs": [
        {
          "internalType": "address",
          "name": "to",
          "type": "address"
        },
        {
          "internalType": "uint256",
          "name": "tokenId",
          "type": "uint256"
        },
        {
          "internalType": "uint256",
          "name": "value",
          "type": "uint256"
        }
      ],
      "name": "transfer",
      "outputs": [],
      "stateMutability": "nonpayable",
      "type": "function"
    },
    {
      "inputs": [
        {
          "internalType": "address",
          "name": "account",
          "type": "address"
        }
      ],
      "name": "unregisterConsumer",
      "outputs": [],
      "stateMutability": "nonpayable",
      "type": "function"
    },
    {
      "inputs": [
        {
          "internalType": "address",
          "name": "account",
          "type": "address"
        },
        {
          "internalType": "uint8",
          "name": "tokenTypeId",
          "type": "uint8"
        }
      ],
      "name": "unregisterDealer",
      "outputs": [],
      "stateMutability": "nonpayable",
      "type": "function"
    },
    {
      "inputs": [
        {
          "internalType": "address",
          "name": "account",
          "type": "address"
        }
      ],
      "name": "unregisterIndustry",
      "outputs": [],
      "stateMutability": "nonpayable",
      "type": "function"
    },
    {
      "inputs": [
        {
          "internalType": "uint256",
          "name": "",
          "type": "uint256"
        }
      ],
      "name": "uri",
      "outputs": [
        {
          "internalType": "string",
          "name": "",
          "type": "string"
        }
      ],
      "stateMutability": "view",
      "type": "function"
    },
    {
      "inputs": [
        {
          "internalType": "bytes32",
          "name": "msgHash",
          "type": "bytes32"
        },
        {
          "internalType": "bytes",
          "name": "signature",
          "type": "bytes"
        },
        {
          "internalType": "address",
          "name": "signer",
          "type": "address"
        }
      ],
      "name": "verifySignature",
      "outputs": [
        {
          "internalType": "bool",
          "name": "",
          "type": "bool"
        }
      ],
      "stateMutability": "pure",
      "type": "function"
    }
  ],
  "bytecode": "0x608060405234801561001057600080fd5b50615aa380620000216000396000f3fe608060405234801561001057600080fd5b506004361061035c5760003560e01c80637f157c9b116101d3578063ce6ccfaf11610104578063ee042956116100a2578063f984b2341161007c578063f984b2341461085b578063fbdf37ea1461086e578063fc0bbce314610883578063fcba7948146108965761035c565b8063ee042956146107ff578063f242432a14610830578063f851a440146108435761035c565b8063dba851b0116100de578063dba851b014610790578063ddc3e6eb1461079d578063e2e564f2146107b0578063e985e9c5146107c35761035c565b8063ce6ccfaf14610727578063d547741f14610747578063d75cfd581461075a5761035c565b8063a217fddf11610171578063bdacb3031161014b578063bdacb303146106ce578063c03df970146106e1578063c1e03728146106f4578063c4d66de8146107145761035c565b8063a217fddf1461066f578063a22cb46514610677578063b5ff2c881461068a5761035c565b8063907b6652116101ad578063907b66521461062157806391d14854146106365780639e99a45314610649578063a0d975a71461065c5761035c565b80637f157c9b146105d35780638874cfcc146105fb5780638ef5eec31461060e5761035c565b806331aa4b20116102ad57806353dbe9821161024b57806376aed2e11161022557806376aed2e11461058357806376ce47551461059657806378e5c592146105ab5780637aab1b88146105c05761035c565b806353dbe982146105555780635ddb368f1461056857806369f7ef44146105705761035c565b806336568abe1161028757806336568abe146104fc57806344b22fdd1461050f57806349b90557146105225780634e1273f4146105355761035c565b806331aa4b20146104c357806331cd4199146104d657806333781a0e146104e95761035c565b8063156e29f61161031a578063248a9ca3116102f4578063248a9ca314610467578063293a7f2e1461048a5780632eb2c2d61461049d5780632f2ff15d146104b05761035c565b8063156e29f61461042a57806318a50d7e1461043d5780631ef68ef7146104525761035c565b8062fdd58e1461036157806301ffc9a714610387578063033fd919146103aa578063095bcdb6146103bf5780630e89341c146103d2578063127d5ad0146103f2575b600080fd5b61037461036f366004614b15565b6108ab565b6040519081526020015b60405180910390f35b61039a610395366004614d19565b610944565b604051901515815260200161037e565b6103bd6103b83660046147f8565b610971565b005b6103bd6103cd366004614b40565b610a6c565b6103e56103e0366004614c85565b610afe565b60405161037e9190615292565b610418610400366004614c85565b600090815260cc602052604090206001015460ff1690565b60405160ff909116815260200161037e565b6103bd610438366004614b40565b610b92565b610374600080516020615a0e83398151915281565b6103746000805160206159ae83398151915281565b610374610475366004614c85565b60009081526097602052604090206001015490565b6103bd610498366004614f33565b610ca2565b6103bd6104ab3660046148ed565b610e27565b6103bd6104be366004614c9d565b610ebe565b6103bd6104d1366004614b74565b610ee3565b61039a6104e4366004614cc1565b611075565b61039a6104f73660046147f8565b6110f8565b6103bd61050a366004614c9d565b611112565b6103bd61051d3660046147f8565b611190565b61039a6105303660046147f8565b61127a565b610548610543366004614b9f565b611294565b60405161037e9190615251565b6103bd6105633660046147f8565b6113f5565b6103746114e3565b61039a61057e3660046147f8565b6114f4565b6103e5610591366004614c85565b61157d565b610374600080516020615a4e83398151915281565b6103746000805160206159ee83398151915281565b6103746105ce366004614868565b61173d565b6105e66105e1366004614b15565b6117b2565b6040805192835260208301919091520161037e565b6103bd610609366004614e48565b611854565b6103bd61061c366004614d51565b611879565b6103746000805160206159ce83398151915281565b61039a610644366004614c9d565b611cbc565b6103bd610657366004614a30565b611ce7565b61037461066a366004614b15565b611d8e565b610374600081565b6103bd6106853660046149fc565b611e29565b6106b6610698366004614c85565b600090815260cc60205260409020600201546001600160a01b031690565b6040516001600160a01b03909116815260200161037e565b6103bd6106dc3660046147f8565b611e34565b6103bd6106ef3660046147f8565b611e7d565b610707610702366004614c85565b611f7c565b60405161037e9190615527565b6103bd6107223660046147f8565b612258565b61073a6107353660046147f8565b6123d1565b60405161037e919061562c565b6103bd610755366004614c9d565b612512565b610374610768366004614c9d565b600091825260cd602090815260408084206001600160a01b0393909316845291905290205490565b60c95461039a9060ff1681565b6103bd6107ab366004614c6b565b612537565b6103bd6107be366004614b74565b612571565b61039a6107d1366004614830565b6001600160a01b03918216600090815260666020908152604080832093909416825291909152205460ff1690565b6106b661080d366004614c85565b600090815260cc602052604090206001015461010090046001600160a01b031690565b6103bd61083e366004614996565b6126fa565b60c9546106b69061010090046001600160a01b031681565b61039a6108693660046147f8565b612781565b61037460008051602061598e83398151915281565b61039a6108913660046147f8565b61279b565b610374600080516020615a2e83398151915281565b60006001600160a01b03831661091c5760405162461bcd60e51b815260206004820152602b60248201527f455243313135353a2062616c616e636520717565727920666f7220746865207a60448201526a65726f206164647265737360a81b60648201526084015b60405180910390fd5b5060009081526065602090815260408083206001600160a01b03949094168352929052205490565b60006001600160e01b03198216637965db0b60e01b14806109695750610969826127f1565b90505b919050565b336001600160a01b0382161461098957610989612816565b60c95460ff1615610a1d5761099f600033611cbc565b610a1d5760405162461bcd60e51b815260206004820152604360248201527f434c4d383a3a7265676973746572496e647573747279286c696d69746564293a60448201527f206f6e6c792061646d696e2063616e20726567697374657220696e647573747260648201526269657360e81b608482015260a401610913565b610a3560008051602061598e8339815191528261288e565b6040516001600160a01b038216907f1230fb0cdc77da02d53e840f6f60d5e7f68646d7d1ccdd890860e05533b62f5390600090a250565b610a7582612898565b610ad05760405162461bcd60e51b815260206004820152602660248201527f434c4d383a3a7472616e736665723a20746f6b656e496420646f6573206e6f7460448201526508195e1a5cdd60d21b6064820152608401610913565b610af933848484604051806040016040528060048152602001630307830360e41b8152506126fa565b505050565b606060678054610b0d906157ee565b80601f0160208091040260200160405190810160405280929190818152602001828054610b39906157ee565b8015610b865780601f10610b5b57610100808354040283529160200191610b86565b820191906000526020600020905b815481529060010190602001808311610b6957829003601f168201915b50505050509050919050565b610b9d600033611cbc565b610bb95760405162461bcd60e51b8152600401610913906152ed565b610bc282612898565b610c195760405162461bcd60e51b815260206004820152602260248201527f434c4d383a3a6d696e743a20746f6b656e496420646f6573206e6f74206578696044820152611cdd60f21b6064820152608401610913565b60c95460ff1615610c875760405162461bcd60e51b815260206004820152603260248201527f434c4d383a3a6d696e743a2063616e6e6f74206d696e74206e657720746f6b656044820152716e7320696e206c696d69746564206d6f646560701b6064820152608401610913565b610af9838383604051806020016040528060008152506128b1565b3360008115610cd057610cb48261279b565b610cd05760405162461bcd60e51b81526004016109139061547f565b6001600160a01b03811615610d0457610ce88161279b565b610d045760405162461bcd60e51b815260040161091390615336565b610d0d84612898565b610d655760405162461bcd60e51b8152602060048201526024808201527f434c4d383a3a7265746972653a20746f6b656e496420646f6573206e6f7420656044820152631e1a5cdd60e21b6064820152608401610913565b610d6f33856108ab565b831115610ddb5760405162461bcd60e51b815260206004820152603460248201527f434c4d383a3a7265746972653a206e6f7420656e6f75676820617661696c61626044820152736c652062616c616e636520746f2072657469726560601b6064820152608401610913565b610de63385856129d6565b604080518581526020810185905233917f8f1b5ebb586d3d169e4ed07db9cd10ce0dd30c7b656171310eae7517c0b53cf9910160405180910390a250505050565b6001600160a01b038516331480610e435750610e4385336107d1565b610eaa5760405162461bcd60e51b815260206004820152603260248201527f455243313135353a207472616e736665722063616c6c6572206973206e6f74206044820152711bdddb995c881b9bdc88185c1c1c9bdd995960721b6064820152608401610913565b610eb78585858585612a62565b5050505050565b600082815260976020526040902060010154610ed981612c6c565b610af98383612c79565b610eee600033611cbc565b610f0a5760405162461bcd60e51b8152600401610913906152ed565b610f1381612cff565b610f785760405162461bcd60e51b815260206004820152603060248201527f434c4d383a3a72656769737465724465616c65723a20746f6b656e547970654960448201526f1908191bd95cc81b9bdd08195e1a5cdd60821b6064820152608401610913565b8060ff1660011415610fa157610f9c600080516020615a2e83398151915283610ebe565b611025565b8060ff1660021415610fc557610f9c6000805160206159ae83398151915283610ebe565b8060ff1660031415610fe957610f9c600080516020615a4e83398151915283610ebe565b8060ff16600414156110255761100d60008051602061598e83398151915283610ebe565b6110256000805160206159ce83398151915283610ebe565b61103d600080516020615a0e83398151915283610ebe565b6040516001600160a01b038316907fa8377deee15954185683d55effd369508b4935978c8cb2bab790bf04c570181490600090a25050565b6000806110cf856040517f19457468657265756d205369676e6564204d6573736167653a0a3332000000006020820152603c8101829052600090605c01604051602081830303815290604052805190602001209050919050565b90506001600160a01b0383166110e58286612d21565b6001600160a01b03161495945050505050565b60006109696000805160206159ee83398151915283611cbc565b6001600160a01b03811633146111825760405162461bcd60e51b815260206004820152602f60248201527f416363657373436f6e74726f6c3a2063616e206f6e6c792072656e6f756e636560448201526e103937b632b9903337b91039b2b63360891b6064820152608401610913565b61118c8282612d3d565b5050565b611198612816565b60c95460ff161561122b576111ae600033611cbc565b61122b5760405162461bcd60e51b815260206004820152604260248201527f434c4d383a3a7265676973746572436f6e73756d6572286c696d69746564293a60448201527f206f6e6c792061646d696e2063616e20726567697374657220636f6e73756d65606482015261727360f01b608482015260a401610913565b6112436000805160206159ee83398151915282610ebe565b6040516001600160a01b038216907f69a0adee259d26fe61f4776f7bea7f3a9737c7321256821b985f988545efd31990600090a250565b6000610969600080516020615a4e83398151915283611cbc565b606081518351146112f95760405162461bcd60e51b815260206004820152602960248201527f455243313135353a206163636f756e747320616e6420696473206c656e677468604482015268040dad2e6dac2e8c6d60bb1b6064820152608401610913565b600083516001600160401b0381111561132257634e487b7160e01b600052604160045260246000fd5b60405190808252806020026020018201604052801561134b578160200160208202803683370190505b50905060005b84518110156113ed576113b285828151811061137d57634e487b7160e01b600052603260045260246000fd5b60200260200101518583815181106113a557634e487b7160e01b600052603260045260246000fd5b60200260200101516108ab565b8282815181106113d257634e487b7160e01b600052603260045260246000fd5b60209081029190910101526113e68161584f565b9050611351565b509392505050565b6113fd612816565b60c95460ff161561149457611413600033611cbc565b6114945760405162461bcd60e51b815260206004820152604660248201527f434c4d383a3a756e7265676973746572436f6e73756d6572286c696d6974656460448201527f293a206f6e6c792061646d696e2063616e20756e726567697374657220636f6e60648201526573756d65727360d01b608482015260a401610913565b6114ac6000805160206159ee83398151915282612512565b6040516001600160a01b038216907f03a38088da75ee2d80f6c753f55f8fd17602ae17d8bd0ef44d5e1f28ab5af11f90600090a250565b60006114ee60cb5490565b90505b90565b600061150e600080516020615a2e83398151915283611cbc565b8061152c575061152c6000805160206159ae83398151915283611cbc565b8061154a575061154a600080516020615a4e83398151915283611cbc565b8061156857506115686000805160206159ce83398151915283611cbc565b156115755750600161096c565b506000919050565b606061158882612898565b6115e75760405162461bcd60e51b815260206004820152602a60248201527f434c4d383a3a676574546f6b656e547970653a20746f6b656e496420646f6573604482015269081b9bdd08195e1a5cdd60b21b6064820152608401610913565b600082815260cc6020526040902060018082015460ff16141561163f57505060408051808201909152601c81527f52656e657761626c6520456e6572677920436572746966696361746500000000602082015261096c565b600181015460ff166002141561168a57505060408051808201909152601781527f436172626f6e20456d697373696f6e73204f6666736574000000000000000000602082015261096c565b600181015460ff16600314156116c95750506040805180820190915260118152704175646974656420456d697373696f6e7360781b602082015261096c565b600181015460ff166004141561170557505060408051808201909152600e81526d21b0b93137b7102a3930b1b5b2b960911b602082015261096c565b5050604080518082019091526014815273151bdad95b88191bd95cc81b9bdd08195e1a5cdd60621b602082015261096c565b50919050565b6001600160a01b03808516600090815260ce60209081526040808320938716835292905290812054859085908590859061177e9063ffffffff166001615760565b60405160200161179295949392919061507d565b604051602081830303815290604052805190602001209050949350505050565b60008060006117c185856108ab565b60405163a0d975a760e01b81526001600160a01b038716600482015260248101869052909150600090309063a0d975a79060440160206040518083038186803b15801561180d57600080fd5b505afa158015611821573d6000803e3d6000fd5b505050506040513d601f19601f820116820180604052508101906118459190614f1b565b919350909150505b9250929050565b61185c612816565b61186e338a8a8a8a8a8a8a8a8a612da4565b505050505050505050565b611881612816565b6000899050306001600160a01b0316816001600160a01b031663e54a96466040518163ffffffff1660e01b815260040160206040518083038186803b1580156118c957600080fd5b505afa1580156118dd573d6000803e3d6000fd5b505050506040513d601f19601f820116820180604052508101906119019190614814565b6001600160a01b03161461198b5760405162461bcd60e51b8152602060048201526044602482018190527f434c4d383a3a6973737565416e64547261636b3a20747261636b657241646472908201527f65737320646f6573206e6f742062656c6f6e6720746f206164647265737328746064820152636869732960e01b608482015260a401610913565b88816001600160a01b03166340e6c9706040518163ffffffff1660e01b815260040160206040518083038186803b1580156119c557600080fd5b505afa1580156119d9573d6000803e3d6000fd5b505050506040513d601f19601f820116820180604052508101906119fd9190614f1b565b1015611a615760405162461bcd60e51b815260206004820152602d60248201527f434c4d383a3a6973737565416e64547261636b3a20747261636b65724964206460448201526c1bd95cc81b9bdd08195e1a5cdd609a1b6064820152608401610913565b611a79600080516020615a4e83398151915233611cbc565b611aeb5760405162461bcd60e51b815260206004820152603a60248201527f434c4d383a3a6973737565416e64547261636b3a206d73672e73656e6465722060448201527f6973206e6f7420616e20617070726f7665642061756469746f720000000000006064820152608401610913565b604080516001808252818301909252600091602080830190803683375050604080516001808252818301909252929350600092915060208083019080368337019050509050611b42338f8e8d8d8d8d8d8d8d612da4565b60408051602081019091526000815260cb5483600081518110611b7557634e487b7160e01b600052603260045260246000fd5b6020026020010181815250508982600081518110611ba357634e487b7160e01b600052603260045260246000fd5b60209081029190910101528b611c4257836001600160a01b03166399228cda8f85858d8d876040518763ffffffff1660e01b8152600401611be9969594939291906151ee565b602060405180830381600087803b158015611c0357600080fd5b505af1158015611c17573d6000803e3d6000fd5b505050506040513d601f19601f82011682018060405250810190611c3b9190614f1b565b9b50611cab565b6040516363a2485760e01b81526001600160a01b038516906363a2485790611c78908f90879087908f908f908990600401615690565b600060405180830381600087803b158015611c9257600080fd5b505af1158015611ca6573d6000803e3d6000fd5b505050505b505050505050505050505050505050565b60009182526097602090815260408084206001600160a01b0393909316845291905290205460ff1690565b60ca546001600160a01b0316331480611d065750611d06600033611cbc565b611d705760405162461bcd60e51b815260206004820152603560248201527f434c4d383a3a69737375654f6e426568616c663a2063616c6c206d757374206360448201527437b6b290333937b6902220a79037b91030b236b4b760591b6064820152608401610913565b611d828a8a8a8a8a8a8a8a8a8a612da4565b50505050505050505050565b6000611d9982612898565b611e015760405162461bcd60e51b815260206004820152603360248201527f434c4d383a3a676574546f6b656e52657469726564416d6f756e743a20746f6b604482015272195b925908191bd95cc81b9bdd08195e1a5cdd606a1b6064820152608401610913565b50600090815260cd602090815260408083206001600160a01b03949094168352929052205490565b61118c338383613486565b611e3f600033611cbc565b611e5b5760405162461bcd60e51b8152600401610913906152ed565b60ca80546001600160a01b0319166001600160a01b0392909216919091179055565b336001600160a01b03821614611e9557611e95612816565b60c95460ff1615611f2d57611eab600033611cbc565b611f2d5760405162461bcd60e51b815260206004820152604760248201527f434c4d383a3a756e7265676973746572496e647573747279286c696d6974656460448201527f293a206f6e6c792061646d696e2063616e20756e726567697374657220696e646064820152667573747269657360c81b608482015260a401610913565b611f4560008051602061598e83398151915282612512565b6040516001600160a01b038216907fe2fd90a75c6850a2aeaad25eb28a5176ac5166c6e3e6dfe0284e34a628e90ef290600090a250565b612005604051806101a0016040528060008152602001600060ff16815260200160006001600160a01b0316815260200160006001600160a01b0316815260200160006001600160a01b0316815260200160008152602001600081526020016000815260200160608152602001606081526020016060815260200160008152602001600081525090565b600082815260cc602090815260409182902082516101a08101845281548152600182015460ff8116938201939093526001600160a01b036101009384900481169482019490945260028201548416606082015260038201549093166080840152600481015460a0840152600581015460c0840152600681015460e08401526007810180549192840191612097906157ee565b80601f01602080910402602001604051908101604052809291908181526020018280546120c3906157ee565b80156121105780601f106120e557610100808354040283529160200191612110565b820191906000526020600020905b8154815290600101906020018083116120f357829003601f168201915b50505050508152602001600882018054612129906157ee565b80601f0160208091040260200160405190810160405280929190818152602001828054612155906157ee565b80156121a25780601f10612177576101008083540402835291602001916121a2565b820191906000526020600020905b81548152906001019060200180831161218557829003601f168201915b505050505081526020016009820180546121bb906157ee565b80601f01602080910402602001604051908101604052809291908181526020018280546121e7906157ee565b80156122345780601f1061220957610100808354040283529160200191612234565b820191906000526020600020905b81548152906001019060200180831161221757829003601f168201915b50505050508152602001600a8201548152602001600b820154815250509050919050565b60006122646001613567565b9050801561227c576000805461ff0019166101001790555b612294604051806020016040528060008152506135ec565b6122ba6000805160206159ee833981519152600080516020615a0e83398151915261361c565b6122c560008361288e565b6122dd600080516020615a0e8339815191528361288e565b6122f5600080516020615a2e8339815191528361288e565b61230d6000805160206159ae8339815191528361288e565b612325600080516020615a4e8339815191528361288e565b61233d6000805160206159ce8339815191528361288e565b61235560008051602061598e8339815191528361288e565b60c9805460ca80546001600160a01b03191690556001600160a81b0319166101006001600160a01b0385160260ff1916179055801561118c576000805461ff0019169055604051600181527f7f26b83ff96e1f2b6a682f133852f6798a09c465da95921460cefb38474024989060200160405180910390a15050565b6040805160e081018252600080825260208201819052918101829052606081018290526080810182905260a0810182905260c08101919091526040805160e081018252600080825260208201819052918101829052606081018290526080810182905260a0810182905260c081019190915261244e600084611cbc565b1515815261246a600080516020615a2e83398151915284611cbc565b151560408201526124896000805160206159ae83398151915284611cbc565b151560608201526124a8600080516020615a4e83398151915284611cbc565b151560808201526124c760008051602061598e83398151915284611cbc565b151560a08201526124e66000805160206159ee83398151915284611cbc565b151560208201526125056000805160206159ce83398151915284611cbc565b151560c082015292915050565b60008281526097602052604090206001015461252d81612c6c565b610af98383612d3d565b612542600033611cbc565b61255e5760405162461bcd60e51b8152600401610913906152ed565b60c9805460ff1916911515919091179055565b61257c600033611cbc565b6125985760405162461bcd60e51b8152600401610913906152ed565b6125a181612cff565b6126085760405162461bcd60e51b815260206004820152603260248201527f434c4d383a3a756e72656769737465724465616c65723a20746f6b656e54797060448201527119525908191bd95cc81b9bdd08195e1a5cdd60721b6064820152608401610913565b8060ff16600114156126315761262c600080516020615a2e83398151915283612512565b61269d565b8060ff16600214156126555761262c6000805160206159ae83398151915283612512565b8060ff16600314156126795761262c600080516020615a4e83398151915283612512565b8060ff166004141561269d5761269d6000805160206159ce83398151915283612512565b6126a6826114f4565b6126c2576126c2600080516020615a0e83398151915283612512565b6040516001600160a01b038316907f98552ded770f1d05a505572f3387c108dbc6b566ea3d49f83cff3d1f1c72a04290600090a25050565b6001600160a01b038516331480612716575061271685336107d1565b6127745760405162461bcd60e51b815260206004820152602960248201527f455243313135353a2063616c6c6572206973206e6f74206f776e6572206e6f7260448201526808185c1c1c9bdd995960ba1b6064820152608401610913565b610eb78585858585613667565b600061096960008051602061598e83398151915283611cbc565b60006127b5600080516020615a0e83398151915283611cbc565b806127d357506127d36000805160206159ee83398151915283611cbc565b80611568575061156860008051602061598e83398151915283611cbc565b60006001600160e01b03198216637965db0b60e01b1480610969575061096982613798565b61282e600080516020615a0e83398151915233611cbc565b61288c5760405162461bcd60e51b815260206004820152602960248201527f434c4d383a3a6f6e6c794465616c65723a206d73672e73656e646572206e6f746044820152681030903232b0b632b960b91b6064820152608401610913565b565b61118c8282612c79565b6000816128a460cb5490565b106115755750600161096c565b6001600160a01b0384166129115760405162461bcd60e51b815260206004820152602160248201527f455243313135353a206d696e7420746f20746865207a65726f206164647265736044820152607360f81b6064820152608401610913565b33600061291d856137e8565b9050600061292a856137e8565b905061293b83600089858589613841565b60008681526065602090815260408083206001600160a01b038b1684529091528120805487929061296d908490615748565b909155505060408051878152602081018790526001600160a01b03808a1692600092918716917fc3d58168c5ae7397731d063d5bbf3d657854427343f4c083240f7aacaa2d0f62910160405180910390a46129cd83600089898989613c5b565b50505050505050565b6129e1838383613dc6565b600082815260cc60205260409020600b01546129fd9082613f5a565b600083815260cc60209081526040808320600b019390935560cd81528282206001600160a01b038716835290522054612a369082613f5a565b600092835260cd602090815260408085206001600160a01b039096168552949052929091209190915550565b8151835114612ac45760405162461bcd60e51b815260206004820152602860248201527f455243313135353a2069647320616e6420616d6f756e7473206c656e677468206044820152670dad2e6dac2e8c6d60c31b6064820152608401610913565b6001600160a01b038416612aea5760405162461bcd60e51b8152600401610913906153a2565b33612af9818787878787613841565b60005b8451811015612bfe576000858281518110612b2757634e487b7160e01b600052603260045260246000fd5b602002602001015190506000858381518110612b5357634e487b7160e01b600052603260045260246000fd5b60209081029190910181015160008481526065835260408082206001600160a01b038e168352909352919091205490915081811015612ba45760405162461bcd60e51b815260040161091390615435565b60008381526065602090815260408083206001600160a01b038e8116855292528083208585039055908b16825281208054849290612be3908490615748565b9250508190555050505080612bf79061584f565b9050612afc565b50846001600160a01b0316866001600160a01b0316826001600160a01b03167f4a39dc06d4c0dbc64b70af90fd698a233a518aa5d07e595d983b8c0526c8f7fb8787604051612c4e929190615264565b60405180910390a4612c64818787878787613f6d565b505050505050565b612c768133614037565b50565b612c838282611cbc565b61118c5760008281526097602090815260408083206001600160a01b03851684529091529020805460ff19166001179055612cbb3390565b6001600160a01b0316816001600160a01b0316837f2f8788117e7eff1d82e926ec794901d17c78024a50270940304540a733656f0d60405160405180910390a45050565b6000808260ff16118015611568575060048260ff16116115755750600161096c565b6000806000612d30858561409b565b915091506113ed81614108565b612d478282611cbc565b1561118c5760008281526097602090815260408083206001600160a01b0385168085529252808320805460ff1916905551339285917ff6391f5c32d9c69d2a47ea670b442974b53935d1edc7fd64eb21e047a839171b9190a45050565b612dad87612cff565b612e055760405162461bcd60e51b8152602060048201526024808201527f434c4d383a3a5f69737375653a20746f6b656e54797065496420697320696e76604482015263185b1a5960e21b6064820152608401610913565b60c95460ff161561305a578660ff1660011480612e2557508660ff166002145b15612faf5760ca546001600160a01b03163314612e9b5760405162461bcd60e51b815260206004820152602e60248201527f434c4d383a3a5f6973737565286c696d69746564293a206d73672e73656e646560448201526d72206e6f742074696d656c6f636b60901b6064820152608401610913565b612ea6600089611cbc565b612f025760405162461bcd60e51b815260206004820152602760248201527f434c4d383a3a5f6973737565286c696d69746564293a20697373756565206e6f6044820152663a1030b236b4b760c91b6064820152608401610913565b612f1a600080516020615a2e8339815191528b611cbc565b80612f385750612f386000805160206159ae8339815191528b611cbc565b612faa5760405162461bcd60e51b815260206004820152603760248201527f434c4d383a3a5f6973737565286c696d69746564293a2070726f706f7365722060448201527f6e6f7420612072656769737465726564206465616c65720000000000000000006064820152608401610913565b613055565b8660ff1660031480612fc457508660ff166004145b1561305557612fe1600080516020615a4e8339815191528b611cbc565b613055576040805162461bcd60e51b81526020600482015260248101919091527f434c4d383a3a5f6973737565286c696d69746564293a20697373756572206e6f60448201527f742061207265676973746572656420656d697373696f6e732061756469746f726064820152608401610913565b613213565b8660ff16600114156130e35761307e600080516020615a2e8339815191528b611cbc565b6130555760405162461bcd60e51b815260206004820152603060248201527f434c4d383a3a5f69737375653a20697373756572206e6f74206120726567697360448201526f3a32b932b2102922a1903232b0b632b960811b6064820152608401610913565b8660ff166002141561316f576131076000805160206159ae8339815191528b611cbc565b6130555760405162461bcd60e51b815260206004820152603360248201527f434c4d383a3a5f69737375653a20697373756572206e6f7420612072656769736044820152723a32b932b21037b33339b2ba103232b0b632b960691b6064820152608401610913565b8660ff166003148061318457508660ff166004145b15613213576131a1600080516020615a4e8339815191528b611cbc565b6132135760405162461bcd60e51b815260206004820152603760248201527f434c4d383a3a5f69737375653a20697373756572206e6f74206120726567697360448201527f746572656420656d697373696f6e732061756469746f720000000000000000006064820152608401610913565b61322160cb80546001019055565b600060cc600061323060cb5490565b8152602001908152602001600020905061324960cb5490565b81556001810180546001600160a01b03808e16610100026001600160a81b031990921660ff8c1617919091179091556002820180548c83166001600160a01b031991821617909155600383018054928c1692909116919091179055600481018690556005810185905542600682015583516132cd9060078301906020870190614651565b5082516132e39060088301906020860190614651565b5081516132f99060098301906020850190614651565b50600a81018790556000600b82015561332b8961331560cb5490565b89604051806020016040528060008152506128b1565b8760ff16600314156133525760038101548154613352916001600160a01b031690896129d6565b8060030160009054906101000a90046001600160a01b03166001600160a01b03168160020160009054906101000a90046001600160a01b03166001600160a01b03168260010160019054906101000a90046001600160a01b03166001600160a01b03167f277df7a34faa63a95e8df4966065d731b45aec92af9a3da4039d7a71fa529e838a60cd60008760000154815260200190815260200160002060008760030160009054906101000a90046001600160a01b03166001600160a01b03166001600160a01b031681526020019081526020016000205486600001548760010160009054906101000a900460ff16886004015489600501548a600601548b6007018c6008018d6009016040516134719a999897969594939291906156a9565b60405180910390a45050505050505050505050565b816001600160a01b0316836001600160a01b031614156134fa5760405162461bcd60e51b815260206004820152602960248201527f455243313135353a2073657474696e6720617070726f76616c20737461747573604482015268103337b91039b2b63360b91b6064820152608401610913565b6001600160a01b03838116600081815260666020908152604080832094871680845294825291829020805460ff191686151590811790915591519182527f17307eab39ab6107e8899845ad3d59bd9653f200f220920489ca2b5937696c31910160405180910390a3505050565b60008054610100900460ff16156135ae578160ff16600114801561358a5750303b155b6135a65760405162461bcd60e51b8152600401610913906153e7565b50600061096c565b60005460ff8084169116106135d55760405162461bcd60e51b8152600401610913906153e7565b506000805460ff191660ff8316179055600161096c565b600054610100900460ff166136135760405162461bcd60e51b8152600401610913906154dc565b612c768161430b565b600082815260976020526040808220600101805490849055905190918391839186917fbd79b86ffe0ab8e8776151514217cd7cacd52c909f66475c3af44e129f0b00ff9190a4505050565b6001600160a01b03841661368d5760405162461bcd60e51b8152600401610913906153a2565b336000613699856137e8565b905060006136a6856137e8565b90506136b6838989858589613841565b60008681526065602090815260408083206001600160a01b038c168452909152902054858110156136f95760405162461bcd60e51b815260040161091390615435565b60008781526065602090815260408083206001600160a01b038d8116855292528083208985039055908a16825281208054889290613738908490615748565b909155505060408051888152602081018890526001600160a01b03808b16928c821692918816917fc3d58168c5ae7397731d063d5bbf3d657854427343f4c083240f7aacaa2d0f62910160405180910390a461186e848a8a8a8a8a613c5b565b60006001600160e01b03198216636cdb3d1360e11b14806137c957506001600160e01b031982166303a24d0760e21b145b8061096957506301ffc9a760e01b6001600160e01b0319831614610969565b6040805160018082528183019092526060916000919060208083019080368337019050509050828160008151811061383057634e487b7160e01b600052603260045260246000fd5b602090810291909101015292915050565b84846001600160a01b038216156138775761385b8261279b565b6138775760405162461bcd60e51b81526004016109139061547f565b6001600160a01b038116156138ab5761388f8161279b565b6138ab5760405162461bcd60e51b815260040161091390615336565b856001600160a01b0316876001600160a01b0316141561393e5760405162461bcd60e51b815260206004820152604260248201527f434c4d383a3a5f6265666f7265546f6b656e5472616e736665723a2073656e6460448201527f657220616e642072656365697665722063616e6e6f74206265207468652073616064820152616d6560f01b608482015260a401610913565b6000805b8651811015613b5457600060cc600089848151811061397157634e487b7160e01b600052603260045260246000fd5b60200260200101518152602001908152602001600020905060c960009054906101000a900460ff1615613b40576001600160a01b0389166139b25750613b42565b60018082015460ff1614806139ce5750600181015460ff166002145b15613a805760ca546001600160a01b038c8116911614806139f557506139f560008c611cbc565b613a7b5760405162461bcd60e51b815260206004820152604b60248201527f434c4d383a3a5f6265666f7265546f6b656e5472616e73666572286c696d697460448201527f6564293a206f6e6c792061646d696e20616e642044414f2063616e207472616e60648201526a7366657220746f6b656e7360a81b608482015260a401610913565b613b40565b600181015460ff1660031415613b4057613aa8600080516020615a4e8339815191528c611cbc565b613b405760405162461bcd60e51b815260206004820152605860248201527f434c4d383a3a5f6265666f7265546f6b656e5472616e73666572286c696d697460448201527f6564293a206f6e6c7920656d697373696f6e732061756469746f72732063616e60648201527f206973737565206175646974656420656d697373696f6e730000000000000000608482015260a401610913565b505b80613b4c8161584f565b915050613942565b50801561186e576000613b698989898961173d565b9050613b7681868a611075565b613bf75760405162461bcd60e51b815260206004820152604660248201527f434c4d383a3a5f6265666f7265546f6b656e5472616e736665723a207265636560448201527f69766572277320617070726f76616c207369676e6174757265206973206e6f74606482015265081d985b1a5960d21b608482015260a401610913565b6001600160a01b03808a16600090815260ce60209081526040808320938c168352929052908120805463ffffffff1691613c308361586a565b91906101000a81548163ffffffff021916908363ffffffff1602179055505050505050505050505050565b6001600160a01b0384163b15612c645760405163f23a6e6160e01b81526001600160a01b0385169063f23a6e6190613c9f90899089908890889088906004016151a9565b602060405180830381600087803b158015613cb957600080fd5b505af1925050508015613ce9575060408051601f3d908101601f19168201909252613ce691810190614d35565b60015b613d9657613cf56158ba565b806308c379a01415613d2f5750613d0a6158d1565b80613d155750613d31565b8060405162461bcd60e51b81526004016109139190615292565b505b60405162461bcd60e51b815260206004820152603460248201527f455243313135353a207472616e7366657220746f206e6f6e20455243313135356044820152732932b1b2b4bb32b91034b6b83632b6b2b73a32b960611b6064820152608401610913565b6001600160e01b0319811663f23a6e6160e01b146129cd5760405162461bcd60e51b8152600401610913906152a5565b6001600160a01b038316613e285760405162461bcd60e51b815260206004820152602360248201527f455243313135353a206275726e2066726f6d20746865207a65726f206164647260448201526265737360e81b6064820152608401610913565b336000613e34846137e8565b90506000613e41846137e8565b9050613e6183876000858560405180602001604052806000815250613841565b60008581526065602090815260408083206001600160a01b038a16845290915290205484811015613ee05760405162461bcd60e51b8152602060048201526024808201527f455243313135353a206275726e20616d6f756e7420657863656564732062616c604482015263616e636560e01b6064820152608401610913565b60008681526065602090815260408083206001600160a01b038b81168086529184528285208a8703905582518b81529384018a90529092908816917fc3d58168c5ae7397731d063d5bbf3d657854427343f4c083240f7aacaa2d0f62910160405180910390a46040805160208101909152600090526129cd565b6000613f668284615748565b9392505050565b6001600160a01b0384163b15612c645760405163bc197c8160e01b81526001600160a01b0385169063bc197c8190613fb1908990899088908890889060040161514b565b602060405180830381600087803b158015613fcb57600080fd5b505af1925050508015613ffb575060408051601f3d908101601f19168201909252613ff891810190614d35565b60015b61400757613cf56158ba565b6001600160e01b0319811663bc197c8160e01b146129cd5760405162461bcd60e51b8152600401610913906152a5565b6140418282611cbc565b61118c57614059816001600160a01b0316601461433b565b61406483602061433b565b6040516020016140759291906150d6565b60408051601f198184030181529082905262461bcd60e51b825261091391600401615292565b6000808251604114156140d25760208301516040840151606085015160001a6140c68782858561451c565b9450945050505061184d565b8251604014156140fc57602083015160408401516140f1868383614609565b93509350505061184d565b5060009050600261184d565b600081600481111561412a57634e487b7160e01b600052602160045260246000fd5b141561413557612c76565b600181600481111561415757634e487b7160e01b600052602160045260246000fd5b14156141a55760405162461bcd60e51b815260206004820152601860248201527f45434453413a20696e76616c6964207369676e617475726500000000000000006044820152606401610913565b60028160048111156141c757634e487b7160e01b600052602160045260246000fd5b14156142155760405162461bcd60e51b815260206004820152601f60248201527f45434453413a20696e76616c6964207369676e6174757265206c656e677468006044820152606401610913565b600381600481111561423757634e487b7160e01b600052602160045260246000fd5b14156142905760405162461bcd60e51b815260206004820152602260248201527f45434453413a20696e76616c6964207369676e6174757265202773272076616c604482015261756560f01b6064820152608401610913565b60048160048111156142b257634e487b7160e01b600052602160045260246000fd5b1415612c765760405162461bcd60e51b815260206004820152602260248201527f45434453413a20696e76616c6964207369676e6174757265202776272076616c604482015261756560f01b6064820152608401610913565b600054610100900460ff166143325760405162461bcd60e51b8152600401610913906154dc565b612c7681614642565b6060600061434a836002615788565b614355906002615748565b6001600160401b0381111561437a57634e487b7160e01b600052604160045260246000fd5b6040519080825280601f01601f1916602001820160405280156143a4576020820181803683370190505b509050600360fc1b816000815181106143cd57634e487b7160e01b600052603260045260246000fd5b60200101906001600160f81b031916908160001a905350600f60fb1b8160018151811061440a57634e487b7160e01b600052603260045260246000fd5b60200101906001600160f81b031916908160001a905350600061442e846002615788565b614439906001615748565b90505b60018111156144cd576f181899199a1a9b1b9c1cb0b131b232b360811b85600f166010811061447b57634e487b7160e01b600052603260045260246000fd5b1a60f81b82828151811061449f57634e487b7160e01b600052603260045260246000fd5b60200101906001600160f81b031916908160001a90535060049490941c936144c6816157d7565b905061443c565b508315613f665760405162461bcd60e51b815260206004820181905260248201527f537472696e67733a20686578206c656e67746820696e73756666696369656e746044820152606401610913565b6000807f7fffffffffffffffffffffffffffffff5d576e7357a4501ddfe92f46681b20a08311156145535750600090506003614600565b8460ff16601b1415801561456b57508460ff16601c14155b1561457c5750600090506004614600565b6040805160008082526020820180845289905260ff881692820192909252606081018690526080810185905260019060a0016020604051602081039080840390855afa1580156145d0573d6000803e3d6000fd5b5050604051601f1901519150506001600160a01b0381166145f957600060019250925050614600565b9150600090505b94509492505050565b6000806001600160ff1b0383168161462660ff86901c601b615748565b90506146348782888561451c565b935093505050935093915050565b805161118c9060679060208401905b82805461465d906157ee565b90600052602060002090601f01602090048101928261467f57600085556146c5565b82601f1061469857805160ff19168380011785556146c5565b828001600101855582156146c5579182015b828111156146c55782518255916020019190600101906146aa565b506146d19291506146d5565b5090565b5b808211156146d157600081556001016146d6565b803561096c81615962565b600082601f830112614705578081fd5b8135602061471282615725565b60405161471f8282615823565b8381528281019150858301600585901b8701840188101561473e578586fd5b855b8581101561475c57813584529284019290840190600101614740565b5090979650505050505050565b8035801515811461096c57600080fd5b600082601f830112614789578081fd5b81356001600160401b038111156147a2576147a26158a4565b6040516147b9601f8301601f191660200182615823565b8181528460208386010111156147cd578283fd5b816020850160208301379081016020019190915292915050565b803560ff8116811461096c57600080fd5b600060208284031215614809578081fd5b8135613f6681615962565b600060208284031215614825578081fd5b8151613f6681615962565b60008060408385031215614842578081fd5b823561484d81615962565b9150602083013561485d81615962565b809150509250929050565b6000806000806080858703121561487d578182fd5b843561488881615962565b9350602085013561489881615962565b925060408501356001600160401b03808211156148b3578384fd5b6148bf888389016146f5565b935060608701359150808211156148d4578283fd5b506148e1878288016146f5565b91505092959194509250565b600080600080600060a08688031215614904578081fd5b853561490f81615962565b9450602086013561491f81615962565b935060408601356001600160401b038082111561493a578283fd5b61494689838a016146f5565b9450606088013591508082111561495b578283fd5b61496789838a016146f5565b9350608088013591508082111561497c578283fd5b5061498988828901614779565b9150509295509295909350565b600080600080600060a086880312156149ad578081fd5b85356149b881615962565b945060208601356149c881615962565b9350604086013592506060860135915060808601356001600160401b038111156149f0578182fd5b61498988828901614779565b60008060408385031215614a0e578182fd5b8235614a1981615962565b9150614a2760208401614769565b90509250929050565b6000806000806000806000806000806101408b8d031215614a4f578788fd5b614a588b6146ea565b9950614a6660208c016146ea565b9850614a7460408c016146ea565b9750614a8260608c016147e7565b965060808b0135955060a08b0135945060c08b0135935060e08b01356001600160401b0380821115614ab2578485fd5b614abe8e838f01614779565b94506101008d0135915080821115614ad4578384fd5b614ae08e838f01614779565b93506101208d0135915080821115614af6578283fd5b50614b038d828e01614779565b9150509295989b9194979a5092959850565b60008060408385031215614b27578182fd5b8235614b3281615962565b946020939093013593505050565b600080600060608486031215614b54578081fd5b8335614b5f81615962565b95602085013595506040909401359392505050565b60008060408385031215614b86578182fd5b8235614b9181615962565b9150614a27602084016147e7565b60008060408385031215614bb1578182fd5b82356001600160401b0380821115614bc7578384fd5b818501915085601f830112614bda578384fd5b81356020614be782615725565b604051614bf48282615823565b8381528281019150858301600585901b870184018b1015614c13578889fd5b8896505b84871015614c3e578035614c2a81615962565b835260019690960195918301918301614c17565b5096505086013592505080821115614c54578283fd5b50614c61858286016146f5565b9150509250929050565b600060208284031215614c7c578081fd5b613f6682614769565b600060208284031215614c96578081fd5b5035919050565b60008060408385031215614caf578182fd5b82359150602083013561485d81615962565b600080600060608486031215614cd5578081fd5b8335925060208401356001600160401b03811115614cf1578182fd5b614cfd86828701614779565b9250506040840135614d0e81615962565b809150509250925092565b600060208284031215614d2a578081fd5b8135613f6681615977565b600060208284031215614d46578081fd5b8151613f6681615977565b60008060008060008060008060008060006101608c8e031215614d72578485fd5b614d7b8c6146ea565b9a50614d8960208d016146ea565b9950614d9760408d016146ea565b985060608c01359750614dac60808d016147e7565b965060a08c0135955060c08c0135945060e08c013593506001600160401b03806101008e01351115614ddc578182fd5b614ded8e6101008f01358f01614779565b9350806101208e01351115614e00578182fd5b614e118e6101208f01358f01614779565b9250806101408e01351115614e24578182fd5b50614e368d6101408e01358e01614779565b90509295989b509295989b9093969950565b60008060008060008060008060006101208a8c031215614e66578283fd5b614e6f8a6146ea565b9850614e7d60208b016146ea565b9750614e8b60408b016147e7565b965060608a0135955060808a0135945060a08a0135935060c08a01356001600160401b0380821115614ebb578485fd5b614ec78d838e01614779565b945060e08c0135915080821115614edc578384fd5b614ee88d838e01614779565b93506101008c0135915080821115614efe578283fd5b50614f0b8c828d01614779565b9150509295985092959850929598565b600060208284031215614f2c578081fd5b5051919050565b60008060408385031215614f45578182fd5b50508035926020909101359150565b6000815180845260208085019450808401835b83811015614f8357815187529582019590820190600101614f67565b509495945050505050565b80516000906020808401838315614f8357815187529582019590820190600101614f67565b60008151808452614fcb8160208601602086016157a7565b601f01601f19169290920160200192915050565b8054600090600181811c9080831680614ff957607f831692505b602080841082141561501957634e487b7160e01b86526022600452602486fd5b83885260208801828015615034576001811461504557615070565b60ff19871682528282019750615070565b60008981526020902060005b8781101561506a57815484820152908601908401615051565b83019850505b5050505050505092915050565b60006bffffffffffffffffffffffff19808860601b168352808760601b166014840152506150b76150b16028840187614f8e565b85614f8e565b60e09390931b6001600160e01b03191683525050600401949350505050565b60007f416363657373436f6e74726f6c3a206163636f756e74200000000000000000008252835161510e8160178501602088016157a7565b7001034b99036b4b9b9b4b733903937b6329607d1b601791840191820152835161513f8160288401602088016157a7565b01602801949350505050565b6001600160a01b0386811682528516602082015260a06040820181905260009061517790830186614f54565b82810360608401526151898186614f54565b9050828103608084015261519d8185614fb3565b98975050505050505050565b6001600160a01b03868116825285166020820152604081018490526060810183905260a0608082018190526000906151e390830184614fb3565b979650505050505050565b6001600160a01b038716815260c06020820181905260009061521290830188614f54565b82810360408401526152248188614f54565b905085606084015284608084015282810360a08401526152448185614fb3565b9998505050505050505050565b600060208252613f666020830184614f54565b6000604082526152776040830185614f54565b82810360208401526152898185614f54565b95945050505050565b600060208252613f666020830184614fb3565b60208082526028908201527f455243313135353a204552433131353552656365697665722072656a656374656040820152676420746f6b656e7360c01b606082015260800190565b60208082526029908201527f434c4d383a3a6f6e6c7941646d696e3a206d73672e73656e646572206e6f74206040820152683a34329030b236b4b760b91b606082015260800190565b60208082526046908201527f434c4d383a3a636f6e73756d65724f724465616c65723a20726563697069656e60408201527f74206d75737420626520636f6e73756d65722c206465616c6572206f7220696e60608201526564757374727960d01b608082015260a00190565b60208082526025908201527f455243313135353a207472616e7366657220746f20746865207a65726f206164604082015264647265737360d81b606082015260800190565b6020808252602e908201527f496e697469616c697a61626c653a20636f6e747261637420697320616c72656160408201526d191e481a5b9a5d1a585b1a5e995960921b606082015260800190565b6020808252602a908201527f455243313135353a20696e73756666696369656e742062616c616e636520666f60408201526939103a3930b739b332b960b11b606082015260800190565b60208082526039908201527f434c4d383a3a636f6e73756d65724f724465616c65723a2073656e646572206e60408201527f6f74206120636f6e73756d6572206f722061206465616c657200000000000000606082015260800190565b6020808252602b908201527f496e697469616c697a61626c653a20636f6e7472616374206973206e6f74206960408201526a6e697469616c697a696e6760a81b606082015260800190565b600060208252825160208301526020830151615548604084018260ff169052565b5060408301516001600160a01b03811660608401525060608301516001600160a01b03811660808401525060808301516001600160a01b03811660a08401525060a083015160c083015260c083015160e083015260e08301516101008181850152808501519150506101a061012081818601526155c96101c0860184614fb3565b9250808601519050601f196101408187860301818801526155ea8584614fb3565b9450808801519250506101608187860301818801526156098584614fb3565b908801516101808881019190915290970151929095019190915250929392505050565b600060e08201905082511515825260208301511515602083015260408301511515604083015260608301511515606083015260808301511515608083015260a0830151151560a083015260c083015161568960c084018215159052565b5092915050565b600087825260c0602083015261521260c0830188614f54565b60006101408c83528b60208401528a604084015260ff8a1660608401528860808401528760a08401528660c08401528060e08401526156ea81840187614fdf565b90508281036101008401526156ff8186614fdf565b90508281036101208401526157148185614fdf565b9d9c50505050505050505050505050565b60006001600160401b0382111561573e5761573e6158a4565b5060051b60200190565b6000821982111561575b5761575b61588e565b500190565b600063ffffffff80831681851680830382111561577f5761577f61588e565b01949350505050565b60008160001904831182151516156157a2576157a261588e565b500290565b60005b838110156157c25781810151838201526020016157aa565b838111156157d1576000848401525b50505050565b6000816157e6576157e661588e565b506000190190565b600181811c9082168061580257607f821691505b6020821081141561173757634e487b7160e01b600052602260045260246000fd5b601f8201601f191681016001600160401b0381118282101715615848576158486158a4565b6040525050565b60006000198214156158635761586361588e565b5060010190565b600063ffffffff808316818114156158845761588461588e565b6001019392505050565b634e487b7160e01b600052601160045260246000fd5b634e487b7160e01b600052604160045260246000fd5b600060033d11156114f157600481823e5160e01c90565b600060443d10156158e1576114f1565b6040516003193d81016004833e81513d6001600160401b0381602484011181841117156159125750505050506114f1565b828501915081518181111561592c575050505050506114f1565b843d8701016020828501011115615948575050505050506114f1565b61595760208286010187615823565b509094505050505090565b6001600160a01b0381168114612c7657600080fd5b6001600160e01b031981168114612c7657600080fdfe8305613dd3dbc3e0773e56336f52890c75fc1219c6ed3f363339b8ada04df289ede6574deba8f02ada7888448a497b08844d62e044ed533343a673be3ffcde5ff047c8eb56a4fb9b90290fc55ce546369985412ba2348c56342b7afbf87ec1a65e1aa547d3dade8c68b013a47ad41c2bcc9b9e4b0765b0fb616780e15786e76af8890eedd7900ad88da6192fd03dbb69dbeee963b1a0ed738abe49ab3331aaf32ab9f1da92e74aaa01eb75a871557505b11dd8d36832a34bb21bbee88b08d860e97dad3dbe5042e7384b1572cf966a15e089576a62b5126c5ef1d184ab18b12ca2646970667358221220bf99c76c7990f0e7e5437e30f4508f5ce4c451d033add6704e01afebcba6e09464736f6c63430008030033",
  "linkReferences": {},
  "deployedLinkReferences": {}
}