{
  "_format": "hh-sol-artifact-1",
  "contractName": "NetEmissionsTokenNetwork",
  "sourceName": "contracts/NetEmissionsTokenNetwork.sol",
  "abi": [
    {
      "anonymous": false,
      "inputs": [
        {
          "indexed": true,
          "internalType": "address",
          "name": "account",
          "type": "address"
        },
        {
          "indexed": true,
          "internalType": "address",
          "name": "operator",
          "type": "address"
        },
        {
          "indexed": false,
          "internalType": "bool",
          "name": "approved",
          "type": "bool"
        }
      ],
      "name": "ApprovalForAll",
      "type": "event"
    },
    {
      "anonymous": false,
      "inputs": [
        {
          "indexed": true,
          "internalType": "address",
          "name": "account",
          "type": "address"
        }
      ],
      "name": "RegisteredConsumer",
      "type": "event"
    },
    {
      "anonymous": false,
      "inputs": [
        {
          "indexed": true,
          "internalType": "address",
          "name": "account",
          "type": "address"
        }
      ],
      "name": "RegisteredDealer",
      "type": "event"
    },
    {
      "anonymous": false,
      "inputs": [
        {
          "indexed": true,
          "internalType": "address",
          "name": "account",
          "type": "address"
        }
      ],
      "name": "RegisteredIndustry",
      "type": "event"
    },
    {
      "anonymous": false,
      "inputs": [
        {
          "indexed": true,
          "internalType": "bytes32",
          "name": "role",
          "type": "bytes32"
        },
        {
          "indexed": true,
          "internalType": "bytes32",
          "name": "previousAdminRole",
          "type": "bytes32"
        },
        {
          "indexed": true,
          "internalType": "bytes32",
          "name": "newAdminRole",
          "type": "bytes32"
        }
      ],
      "name": "RoleAdminChanged",
      "type": "event"
    },
    {
      "anonymous": false,
      "inputs": [
        {
          "indexed": true,
          "internalType": "bytes32",
          "name": "role",
          "type": "bytes32"
        },
        {
          "indexed": true,
          "internalType": "address",
          "name": "account",
          "type": "address"
        },
        {
          "indexed": true,
          "internalType": "address",
          "name": "sender",
          "type": "address"
        }
      ],
      "name": "RoleGranted",
      "type": "event"
    },
    {
      "anonymous": false,
      "inputs": [
        {
          "indexed": true,
          "internalType": "bytes32",
          "name": "role",
          "type": "bytes32"
        },
        {
          "indexed": true,
          "internalType": "address",
          "name": "account",
          "type": "address"
        },
        {
          "indexed": true,
          "internalType": "address",
          "name": "sender",
          "type": "address"
        }
      ],
      "name": "RoleRevoked",
      "type": "event"
    },
    {
      "anonymous": false,
      "inputs": [
        {
          "indexed": false,
          "internalType": "uint256",
          "name": "availableBalance",
          "type": "uint256"
        },
        {
          "indexed": false,
          "internalType": "uint256",
          "name": "retiredBalance",
          "type": "uint256"
        },
        {
          "indexed": false,
          "internalType": "uint256",
          "name": "tokenId",
          "type": "uint256"
        },
        {
          "indexed": false,
          "internalType": "uint8",
          "name": "tokenTypeId",
          "type": "uint8"
        },
        {
          "indexed": true,
          "internalType": "address",
          "name": "issuer",
          "type": "address"
        },
        {
          "indexed": true,
          "internalType": "address",
          "name": "issuee",
          "type": "address"
        },
        {
          "indexed": false,
          "internalType": "uint256",
          "name": "fromDate",
          "type": "uint256"
        },
        {
          "indexed": false,
          "internalType": "uint256",
          "name": "thruDate",
          "type": "uint256"
        },
        {
          "indexed": false,
          "internalType": "uint256",
          "name": "dateCreated",
          "type": "uint256"
        },
        {
          "indexed": false,
          "internalType": "string",
          "name": "metadata",
          "type": "string"
        },
        {
          "indexed": false,
          "internalType": "string",
          "name": "manifest",
          "type": "string"
        },
        {
          "indexed": false,
          "internalType": "string",
          "name": "description",
          "type": "string"
        }
      ],
      "name": "TokenCreated",
      "type": "event"
    },
    {
      "anonymous": false,
      "inputs": [
        {
          "indexed": true,
          "internalType": "address",
          "name": "account",
          "type": "address"
        },
        {
          "indexed": false,
          "internalType": "uint256",
          "name": "tokenId",
          "type": "uint256"
        },
        {
          "indexed": false,
          "internalType": "uint256",
          "name": "amount",
          "type": "uint256"
        }
      ],
      "name": "TokenRetired",
      "type": "event"
    },
    {
      "anonymous": false,
      "inputs": [
        {
          "indexed": true,
          "internalType": "address",
          "name": "operator",
          "type": "address"
        },
        {
          "indexed": true,
          "internalType": "address",
          "name": "from",
          "type": "address"
        },
        {
          "indexed": true,
          "internalType": "address",
          "name": "to",
          "type": "address"
        },
        {
          "indexed": false,
          "internalType": "uint256[]",
          "name": "ids",
          "type": "uint256[]"
        },
        {
          "indexed": false,
          "internalType": "uint256[]",
          "name": "values",
          "type": "uint256[]"
        }
      ],
      "name": "TransferBatch",
      "type": "event"
    },
    {
      "anonymous": false,
      "inputs": [
        {
          "indexed": true,
          "internalType": "address",
          "name": "operator",
          "type": "address"
        },
        {
          "indexed": true,
          "internalType": "address",
          "name": "from",
          "type": "address"
        },
        {
          "indexed": true,
          "internalType": "address",
          "name": "to",
          "type": "address"
        },
        {
          "indexed": false,
          "internalType": "uint256",
          "name": "id",
          "type": "uint256"
        },
        {
          "indexed": false,
          "internalType": "uint256",
          "name": "value",
          "type": "uint256"
        }
      ],
      "name": "TransferSingle",
      "type": "event"
    },
    {
      "anonymous": false,
      "inputs": [
        {
          "indexed": false,
          "internalType": "string",
          "name": "value",
          "type": "string"
        },
        {
          "indexed": true,
          "internalType": "uint256",
          "name": "id",
          "type": "uint256"
        }
      ],
      "name": "URI",
      "type": "event"
    },
    {
      "anonymous": false,
      "inputs": [
        {
          "indexed": true,
          "internalType": "address",
          "name": "account",
          "type": "address"
        }
      ],
      "name": "UnregisteredConsumer",
      "type": "event"
    },
    {
      "anonymous": false,
      "inputs": [
        {
          "indexed": true,
          "internalType": "address",
          "name": "account",
          "type": "address"
        }
      ],
      "name": "UnregisteredDealer",
      "type": "event"
    },
    {
      "anonymous": false,
      "inputs": [
        {
          "indexed": true,
          "internalType": "address",
          "name": "account",
          "type": "address"
        }
      ],
      "name": "UnregisteredIndustry",
      "type": "event"
    },
    {
      "inputs": [],
      "name": "DEFAULT_ADMIN_ROLE",
      "outputs": [
        {
          "internalType": "bytes32",
          "name": "",
          "type": "bytes32"
        }
      ],
      "stateMutability": "view",
      "type": "function"
    },
    {
      "inputs": [],
      "name": "REGISTERED_CONSUMER",
      "outputs": [
        {
          "internalType": "bytes32",
          "name": "",
          "type": "bytes32"
        }
      ],
      "stateMutability": "view",
      "type": "function"
    },
    {
      "inputs": [],
      "name": "REGISTERED_DEALER",
      "outputs": [
        {
          "internalType": "bytes32",
          "name": "",
          "type": "bytes32"
        }
      ],
      "stateMutability": "view",
      "type": "function"
    },
    {
      "inputs": [],
      "name": "REGISTERED_EMISSIONS_AUDITOR",
      "outputs": [
        {
          "internalType": "bytes32",
          "name": "",
          "type": "bytes32"
        }
      ],
      "stateMutability": "view",
      "type": "function"
    },
    {
      "inputs": [],
      "name": "REGISTERED_INDUSTRY",
      "outputs": [
        {
          "internalType": "bytes32",
          "name": "",
          "type": "bytes32"
        }
      ],
      "stateMutability": "view",
      "type": "function"
    },
    {
      "inputs": [],
      "name": "REGISTERED_INDUSTRY_DEALER",
      "outputs": [
        {
          "internalType": "bytes32",
          "name": "",
          "type": "bytes32"
        }
      ],
      "stateMutability": "view",
      "type": "function"
    },
    {
      "inputs": [],
      "name": "REGISTERED_OFFSET_DEALER",
      "outputs": [
        {
          "internalType": "bytes32",
          "name": "",
          "type": "bytes32"
        }
      ],
      "stateMutability": "view",
      "type": "function"
    },
    {
      "inputs": [],
      "name": "REGISTERED_REC_DEALER",
      "outputs": [
        {
          "internalType": "bytes32",
          "name": "",
          "type": "bytes32"
        }
      ],
      "stateMutability": "view",
      "type": "function"
    },
    {
      "inputs": [
        {
          "internalType": "address",
          "name": "entity",
          "type": "address"
        }
      ],
      "name": "_consumerOrDealer",
      "outputs": [
        {
          "internalType": "bool",
          "name": "",
          "type": "bool"
        }
      ],
      "stateMutability": "view",
      "type": "function"
    },
    {
      "inputs": [],
      "name": "admin",
      "outputs": [
        {
          "internalType": "address",
          "name": "",
          "type": "address"
        }
      ],
      "stateMutability": "view",
      "type": "function"
    },
    {
      "inputs": [
        {
          "internalType": "address",
          "name": "account",
          "type": "address"
        },
        {
          "internalType": "uint256",
          "name": "id",
          "type": "uint256"
        }
      ],
      "name": "balanceOf",
      "outputs": [
        {
          "internalType": "uint256",
          "name": "",
          "type": "uint256"
        }
      ],
      "stateMutability": "view",
      "type": "function"
    },
    {
      "inputs": [
        {
          "internalType": "address[]",
          "name": "accounts",
          "type": "address[]"
        },
        {
          "internalType": "uint256[]",
          "name": "ids",
          "type": "uint256[]"
        }
      ],
      "name": "balanceOfBatch",
      "outputs": [
        {
          "internalType": "uint256[]",
          "name": "",
          "type": "uint256[]"
        }
      ],
      "stateMutability": "view",
      "type": "function"
    },
    {
      "inputs": [
        {
          "internalType": "address",
          "name": "account",
          "type": "address"
        },
        {
          "internalType": "uint256",
          "name": "tokenId",
          "type": "uint256"
        }
      ],
      "name": "getAvailableAndRetired",
      "outputs": [
        {
          "internalType": "uint256",
          "name": "",
          "type": "uint256"
        },
        {
          "internalType": "uint256",
          "name": "",
          "type": "uint256"
        }
      ],
      "stateMutability": "view",
      "type": "function"
    },
    {
      "inputs": [
        {
          "internalType": "address",
          "name": "account",
          "type": "address"
        },
        {
          "internalType": "uint256",
          "name": "tokenId",
          "type": "uint256"
        }
      ],
      "name": "getAvailableRetiredAndTransferred",
      "outputs": [
        {
          "internalType": "uint256",
          "name": "",
          "type": "uint256"
        },
        {
          "internalType": "uint256",
          "name": "",
          "type": "uint256"
        },
        {
          "internalType": "uint256",
          "name": "",
          "type": "uint256"
        }
      ],
      "stateMutability": "view",
      "type": "function"
    },
    {
      "inputs": [
        {
          "internalType": "uint256",
          "name": "tokenId",
          "type": "uint256"
        }
      ],
      "name": "getIssuer",
      "outputs": [
        {
          "internalType": "address",
          "name": "",
          "type": "address"
        }
      ],
      "stateMutability": "view",
      "type": "function"
    },
    {
      "inputs": [],
      "name": "getNumOfUniqueTokens",
      "outputs": [
        {
          "internalType": "uint256",
          "name": "",
          "type": "uint256"
        }
      ],
      "stateMutability": "view",
      "type": "function"
    },
    {
      "inputs": [
        {
          "internalType": "uint256",
          "name": "tokenId",
          "type": "uint256"
        },
        {
          "internalType": "address",
          "name": "account",
          "type": "address"
        }
      ],
      "name": "getRetiredBalances",
      "outputs": [
        {
          "internalType": "uint256",
          "name": "",
          "type": "uint256"
        }
      ],
      "stateMutability": "view",
      "type": "function"
    },
    {
      "inputs": [
        {
          "internalType": "bytes32",
          "name": "role",
          "type": "bytes32"
        }
      ],
      "name": "getRoleAdmin",
      "outputs": [
        {
          "internalType": "bytes32",
          "name": "",
          "type": "bytes32"
        }
      ],
      "stateMutability": "view",
      "type": "function"
    },
    {
      "inputs": [
        {
          "internalType": "address",
          "name": "account",
          "type": "address"
        }
      ],
      "name": "getRoles",
      "outputs": [
        {
          "components": [
            {
              "internalType": "bool",
              "name": "isAdmin",
              "type": "bool"
            },
            {
              "internalType": "bool",
              "name": "isConsumer",
              "type": "bool"
            },
            {
              "internalType": "bool",
              "name": "isRecDealer",
              "type": "bool"
            },
            {
              "internalType": "bool",
              "name": "isCeoDealer",
              "type": "bool"
            },
            {
              "internalType": "bool",
              "name": "isAeDealer",
              "type": "bool"
            },
            {
              "internalType": "bool",
              "name": "isIndustry",
              "type": "bool"
            },
            {
              "internalType": "bool",
              "name": "isIndustryDealer",
              "type": "bool"
            }
          ],
          "internalType": "struct NetEmissionsTokenNetwork.RolesInfo",
          "name": "",
          "type": "tuple"
        }
      ],
      "stateMutability": "view",
      "type": "function"
    },
    {
      "inputs": [
        {
          "internalType": "uint256",
          "name": "tokenId",
          "type": "uint256"
        }
      ],
      "name": "getTokenDetails",
      "outputs": [
        {
          "components": [
            {
              "internalType": "uint256",
              "name": "tokenId",
              "type": "uint256"
            },
            {
              "internalType": "uint8",
              "name": "tokenTypeId",
              "type": "uint8"
            },
            {
              "internalType": "address",
              "name": "issuer",
              "type": "address"
            },
            {
              "internalType": "address",
              "name": "issuee",
              "type": "address"
            },
            {
              "internalType": "uint256",
              "name": "fromDate",
              "type": "uint256"
            },
            {
              "internalType": "uint256",
              "name": "thruDate",
              "type": "uint256"
            },
            {
              "internalType": "uint256",
              "name": "dateCreated",
              "type": "uint256"
            },
            {
              "internalType": "string",
              "name": "metadata",
              "type": "string"
            },
            {
              "internalType": "string",
              "name": "manifest",
              "type": "string"
            },
            {
              "internalType": "string",
              "name": "description",
              "type": "string"
            },
            {
              "internalType": "uint256",
              "name": "totalIssued",
              "type": "uint256"
            },
            {
              "internalType": "uint256",
              "name": "totalRetired",
              "type": "uint256"
            }
          ],
          "internalType": "struct NetEmissionsTokenNetwork.CarbonTokenDetails",
          "name": "",
          "type": "tuple"
        }
      ],
      "stateMutability": "view",
      "type": "function"
    },
    {
      "inputs": [
        {
          "internalType": "address",
          "name": "account",
          "type": "address"
        },
        {
          "internalType": "uint256",
          "name": "tokenId",
          "type": "uint256"
        }
      ],
      "name": "getTokenRetiredAmount",
      "outputs": [
        {
          "internalType": "uint256",
          "name": "",
          "type": "uint256"
        }
      ],
      "stateMutability": "view",
      "type": "function"
    },
    {
      "inputs": [
        {
          "internalType": "uint256",
          "name": "tokenId",
          "type": "uint256"
        }
      ],
      "name": "getTokenType",
      "outputs": [
        {
          "internalType": "string",
          "name": "",
          "type": "string"
        }
      ],
      "stateMutability": "view",
      "type": "function"
    },
    {
      "inputs": [
        {
          "internalType": "uint256",
          "name": "tokenId",
          "type": "uint256"
        }
      ],
      "name": "getTokenTypeId",
      "outputs": [
        {
          "internalType": "uint8",
          "name": "",
          "type": "uint8"
        }
      ],
      "stateMutability": "view",
      "type": "function"
    },
    {
      "inputs": [
        {
          "internalType": "address",
          "name": "_from",
          "type": "address"
        },
        {
          "internalType": "address",
          "name": "_to",
          "type": "address"
        },
        {
          "internalType": "uint256[]",
          "name": "_ids",
          "type": "uint256[]"
        },
        {
          "internalType": "uint256[]",
          "name": "_amounts",
          "type": "uint256[]"
        }
      ],
      "name": "getTransferHash",
      "outputs": [
        {
          "internalType": "bytes32",
          "name": "",
          "type": "bytes32"
        }
      ],
      "stateMutability": "view",
      "type": "function"
    },
    {
      "inputs": [
        {
          "internalType": "uint256",
          "name": "tokenId",
          "type": "uint256"
        },
        {
          "internalType": "address",
          "name": "account",
          "type": "address"
        }
      ],
      "name": "getTransferredBalances",
      "outputs": [
        {
          "internalType": "uint256",
          "name": "",
          "type": "uint256"
        }
      ],
      "stateMutability": "view",
      "type": "function"
    },
    {
      "inputs": [
        {
          "internalType": "bytes32",
          "name": "role",
          "type": "bytes32"
        },
        {
          "internalType": "address",
          "name": "account",
          "type": "address"
        }
      ],
      "name": "grantRole",
      "outputs": [],
      "stateMutability": "nonpayable",
      "type": "function"
    },
    {
      "inputs": [
        {
          "internalType": "bytes32",
          "name": "role",
          "type": "bytes32"
        },
        {
          "internalType": "address",
          "name": "account",
          "type": "address"
        }
      ],
      "name": "hasRole",
      "outputs": [
        {
          "internalType": "bool",
          "name": "",
          "type": "bool"
        }
      ],
      "stateMutability": "view",
      "type": "function"
    },
    {
      "inputs": [
        {
          "internalType": "address",
          "name": "_admin",
          "type": "address"
        }
      ],
      "name": "initialize",
      "outputs": [],
      "stateMutability": "nonpayable",
      "type": "function"
    },
    {
      "inputs": [
        {
          "internalType": "address",
          "name": "account",
          "type": "address"
        },
        {
          "internalType": "address",
          "name": "operator",
          "type": "address"
        }
      ],
      "name": "isApprovedForAll",
      "outputs": [
        {
          "internalType": "bool",
          "name": "",
          "type": "bool"
        }
      ],
      "stateMutability": "view",
      "type": "function"
    },
    {
      "inputs": [
        {
          "internalType": "address",
          "name": "auditor",
          "type": "address"
        }
      ],
      "name": "isAuditor",
      "outputs": [
        {
          "internalType": "bool",
          "name": "",
          "type": "bool"
        }
      ],
      "stateMutability": "view",
      "type": "function"
    },
    {
      "inputs": [
        {
          "internalType": "address",
          "name": "account",
          "type": "address"
        }
      ],
      "name": "isConsumerRegistered",
      "outputs": [
        {
          "internalType": "bool",
          "name": "",
          "type": "bool"
        }
      ],
      "stateMutability": "view",
      "type": "function"
    },
    {
      "inputs": [
        {
          "internalType": "address",
          "name": "account",
          "type": "address"
        }
      ],
      "name": "isDealerRegistered",
      "outputs": [
        {
          "internalType": "bool",
          "name": "",
          "type": "bool"
        }
      ],
      "stateMutability": "view",
      "type": "function"
    },
    {
      "inputs": [
        {
          "internalType": "address",
          "name": "issuee",
          "type": "address"
        },
        {
          "internalType": "uint8",
          "name": "tokenTypeId",
          "type": "uint8"
        },
        {
          "internalType": "uint256",
          "name": "quantity",
          "type": "uint256"
        },
        {
          "internalType": "uint256",
          "name": "fromDate",
          "type": "uint256"
        },
        {
          "internalType": "uint256",
          "name": "thruDate",
          "type": "uint256"
        },
        {
          "internalType": "string",
          "name": "metadata",
          "type": "string"
        },
        {
          "internalType": "string",
          "name": "manifest",
          "type": "string"
        },
        {
          "internalType": "string",
          "name": "description",
          "type": "string"
        }
      ],
      "name": "issue",
      "outputs": [],
      "stateMutability": "nonpayable",
      "type": "function"
    },
    {
      "inputs": [
        {
          "internalType": "address",
          "name": "issuee",
          "type": "address"
        },
        {
          "internalType": "address",
          "name": "issuer",
          "type": "address"
        },
        {
          "internalType": "uint8",
          "name": "tokenTypeId",
          "type": "uint8"
        },
        {
          "internalType": "uint256",
          "name": "quantity",
          "type": "uint256"
        },
        {
          "internalType": "uint256",
          "name": "fromDate",
          "type": "uint256"
        },
        {
          "internalType": "uint256",
          "name": "thruDate",
          "type": "uint256"
        },
        {
          "internalType": "string",
          "name": "metadata",
          "type": "string"
        },
        {
          "internalType": "string",
          "name": "manifest",
          "type": "string"
        },
        {
          "internalType": "string",
          "name": "description",
          "type": "string"
        }
      ],
      "name": "issueOnBehalf",
      "outputs": [],
      "stateMutability": "nonpayable",
      "type": "function"
    },
    {
      "inputs": [],
      "name": "limitedMode",
      "outputs": [
        {
          "internalType": "bool",
          "name": "",
          "type": "bool"
        }
      ],
      "stateMutability": "view",
      "type": "function"
    },
    {
      "inputs": [
        {
          "internalType": "address",
          "name": "to",
          "type": "address"
        },
        {
          "internalType": "uint256",
          "name": "tokenId",
          "type": "uint256"
        },
        {
          "internalType": "uint256",
          "name": "quantity",
          "type": "uint256"
        }
      ],
      "name": "mint",
      "outputs": [],
      "stateMutability": "nonpayable",
      "type": "function"
    },
    {
      "inputs": [
        {
          "internalType": "address",
          "name": "account",
          "type": "address"
        }
      ],
      "name": "registerConsumer",
      "outputs": [],
      "stateMutability": "nonpayable",
      "type": "function"
    },
    {
      "inputs": [
        {
          "internalType": "address",
          "name": "account",
          "type": "address"
        },
        {
          "internalType": "uint8",
          "name": "tokenTypeId",
          "type": "uint8"
        }
      ],
      "name": "registerDealer",
      "outputs": [],
      "stateMutability": "nonpayable",
      "type": "function"
    },
    {
      "inputs": [
        {
          "internalType": "address",
          "name": "account",
          "type": "address"
        }
      ],
      "name": "registerIndustry",
      "outputs": [],
      "stateMutability": "nonpayable",
      "type": "function"
    },
    {
      "inputs": [
        {
          "internalType": "bytes32",
          "name": "role",
          "type": "bytes32"
        },
        {
          "internalType": "address",
          "name": "account",
          "type": "address"
        }
      ],
      "name": "renounceRole",
      "outputs": [],
      "stateMutability": "nonpayable",
      "type": "function"
    },
    {
      "inputs": [
        {
          "internalType": "uint256",
          "name": "tokenId",
          "type": "uint256"
        },
        {
          "internalType": "uint256",
          "name": "amount",
          "type": "uint256"
        }
      ],
      "name": "retire",
      "outputs": [],
      "stateMutability": "nonpayable",
      "type": "function"
    },
    {
      "inputs": [
        {
          "internalType": "bytes32",
          "name": "role",
          "type": "bytes32"
        },
        {
          "internalType": "address",
          "name": "account",
          "type": "address"
        }
      ],
      "name": "revokeRole",
      "outputs": [],
      "stateMutability": "nonpayable",
      "type": "function"
    },
    {
      "inputs": [
        {
          "internalType": "address",
          "name": "from",
          "type": "address"
        },
        {
          "internalType": "address",
          "name": "to",
          "type": "address"
        },
        {
          "internalType": "uint256[]",
          "name": "ids",
          "type": "uint256[]"
        },
        {
          "internalType": "uint256[]",
          "name": "amounts",
          "type": "uint256[]"
        },
        {
          "internalType": "bytes",
          "name": "data",
          "type": "bytes"
        }
      ],
      "name": "safeBatchTransferFrom",
      "outputs": [],
      "stateMutability": "nonpayable",
      "type": "function"
    },
    {
      "inputs": [
        {
          "internalType": "address",
          "name": "from",
          "type": "address"
        },
        {
          "internalType": "address",
          "name": "to",
          "type": "address"
        },
        {
          "internalType": "uint256",
          "name": "id",
          "type": "uint256"
        },
        {
          "internalType": "uint256",
          "name": "amount",
          "type": "uint256"
        },
        {
          "internalType": "bytes",
          "name": "data",
          "type": "bytes"
        }
      ],
      "name": "safeTransferFrom",
      "outputs": [],
      "stateMutability": "nonpayable",
      "type": "function"
    },
    {
      "inputs": [
        {
          "internalType": "address",
          "name": "operator",
          "type": "address"
        },
        {
          "internalType": "bool",
          "name": "approved",
          "type": "bool"
        }
      ],
      "name": "setApprovalForAll",
      "outputs": [],
      "stateMutability": "nonpayable",
      "type": "function"
    },
    {
      "inputs": [
        {
          "internalType": "bool",
          "name": "_limitedMode",
          "type": "bool"
        }
      ],
      "name": "setLimitedMode",
      "outputs": [],
      "stateMutability": "nonpayable",
      "type": "function"
    },
    {
      "inputs": [
        {
          "internalType": "address",
          "name": "_timelock",
          "type": "address"
        }
      ],
      "name": "setTimelock",
      "outputs": [],
      "stateMutability": "nonpayable",
      "type": "function"
    },
    {
      "inputs": [
        {
          "internalType": "bytes4",
          "name": "interfaceId",
          "type": "bytes4"
        }
      ],
      "name": "supportsInterface",
      "outputs": [
        {
          "internalType": "bool",
          "name": "",
          "type": "bool"
        }
      ],
      "stateMutability": "view",
      "type": "function"
    },
    {
      "inputs": [
        {
          "internalType": "address",
          "name": "to",
          "type": "address"
        },
        {
          "internalType": "uint256",
          "name": "tokenId",
          "type": "uint256"
        },
        {
          "internalType": "uint256",
          "name": "value",
          "type": "uint256"
        }
      ],
      "name": "transfer",
      "outputs": [],
      "stateMutability": "nonpayable",
      "type": "function"
    },
    {
      "inputs": [
        {
          "internalType": "address",
          "name": "account",
          "type": "address"
        }
      ],
      "name": "unregisterConsumer",
      "outputs": [],
      "stateMutability": "nonpayable",
      "type": "function"
    },
    {
      "inputs": [
        {
          "internalType": "address",
          "name": "account",
          "type": "address"
        },
        {
          "internalType": "uint8",
          "name": "tokenTypeId",
          "type": "uint8"
        }
      ],
      "name": "unregisterDealer",
      "outputs": [],
      "stateMutability": "nonpayable",
      "type": "function"
    },
    {
      "inputs": [
        {
          "internalType": "address",
          "name": "account",
          "type": "address"
        }
      ],
      "name": "unregisterIndustry",
      "outputs": [],
      "stateMutability": "nonpayable",
      "type": "function"
    },
    {
      "inputs": [
        {
          "internalType": "uint256",
          "name": "",
          "type": "uint256"
        }
      ],
      "name": "uri",
      "outputs": [
        {
          "internalType": "string",
          "name": "",
          "type": "string"
        }
      ],
      "stateMutability": "view",
      "type": "function"
    },
    {
      "inputs": [
        {
          "internalType": "bytes32",
          "name": "msgHash",
          "type": "bytes32"
        },
        {
          "internalType": "bytes",
          "name": "signature",
          "type": "bytes"
        },
        {
          "internalType": "address",
          "name": "signer",
          "type": "address"
        }
      ],
      "name": "verifySignature",
      "outputs": [
        {
          "internalType": "bool",
          "name": "",
          "type": "bool"
        }
      ],
      "stateMutability": "pure",
      "type": "function"
    }
  ],
  "bytecode": "0x608060405234801561001057600080fd5b506155b7806100206000396000f3fe608060405234801561001057600080fd5b50600436106103415760003560e01c806378e5c592116101b8578063c4d66de811610104578063e985e9c5116100a2578063f851a4401161007c578063f851a4401461084d578063fbdf37ea14610865578063fc0bbce31461087a578063fcba79481461088d57610341565b8063e985e9c5146107c8578063f242432a14610804578063f73e09e01461081757610341565b8063d75cfd58116100de578063d75cfd581461075f578063dba851b014610795578063ddc3e6eb146107a2578063e2e564f2146107b557610341565b8063c4d66de814610719578063ce6ccfaf1461072c578063d547741f1461074c57610341565b806392089c4611610171578063a22cb4651161014b578063a22cb465146106c0578063bdacb303146106d3578063c03df970146106e6578063c1e03728146106f957610341565b806392089c461461065c578063a0d975a7146106a5578063a217fddf146106b857610341565b806378e5c592146105d15780637aab1b88146105e65780637e752d8b146105f95780637f157c9b1461060c578063907b66521461063457806391d148541461064957610341565b806331aa4b20116102925780634e1273f4116102305780635e5323841161020a5780635e5323841461058357806369f7ef441461059657806376aed2e1146105a957806376ce4755146105bc57610341565b80634e1273f41461054857806353dbe982146105685780635ddb368f1461057b57610341565b806336568abe1161026c57806336568abe146104e157806344b22fdd146104f4578063496dd90b1461050757806349b905571461053557610341565b806331aa4b20146104a857806331cd4199146104bb57806333781a0e146104ce57610341565b8063156e29f6116102ff578063248a9ca3116102d9578063248a9ca31461044c578063293a7f2e1461046f5780632eb2c2d6146104825780632f2ff15d1461049557610341565b8063156e29f61461040f57806318a50d7e146104225780631ef68ef71461043757610341565b8062fdd58e1461034657806301ffc9a71461036c578063033fd9191461038f578063095bcdb6146103a45780630e89341c146103b7578063127d5ad0146103d7575b600080fd5b6103596103543660046147f5565b6108a2565b6040519081526020015b60405180910390f35b61037f61037a366004614aad565b61093b565b6040519015158152602001610363565b6103a261039d366004614525565b610968565b005b6103a26103b236600461481e565b610a63565b6103ca6103c5366004614a1f565b610af5565b6040516103639190614e1c565b6103fd6103e5366004614a1f565b600090815260cc602052604090206001015460ff1690565b60405160ff9091168152602001610363565b6103a261041d36600461481e565b610b89565b61035960008051602061550283398151915281565b6103596000805160206154a283398151915281565b61035961045a366004614a1f565b60009081526097602052604090206001015490565b6103a261047d366004614afd565b610c99565b6103a26104903660046145f2565b610e1e565b6103a26104a3366004614a37565b610eb5565b6103a26104b6366004614850565b610edc565b61037f6104c9366004614a59565b61106e565b61037f6104dc366004614525565b6110f1565b6103a26104ef366004614a37565b61110b565b6103a2610502366004614525565b611189565b61051a6105153660046147f5565b611273565b60408051938452602084019290925290820152606001610363565b61037f610543366004614525565b61132c565b61055b61055636600461493b565b611346565b6040516103639190614ddb565b6103a2610576366004614525565b6114a7565b610359611595565b6103a2610591366004614879565b6115a6565b61037f6105a4366004614525565b6115c9565b6103ca6105b7366004614a1f565b611652565b61035960008051602061556283398151915281565b6103596000805160206154e283398151915281565b6103596105f4366004614571565b611812565b6103a26106073660046146f9565b611887565b61061f61061a3660046147f5565b61192c565b60408051928352602083019190915201610363565b6103596000805160206154c283398151915281565b61037f610657366004614a37565b6119ce565b61068d61066a366004614a1f565b600090815260cc602052604090206001015461010090046001600160a01b031690565b6040516001600160a01b039091168152602001610363565b6103596106b33660046147f5565b6119f9565b610359600081565b6103a26106ce3660046147cc565b611a94565b6103a26106e1366004614525565b611a9f565b6103a26106f4366004614525565b611ae8565b61070c610707366004614a1f565b611be7565b6040516103639190615063565b6103a2610727366004614525565b611ea7565b61073f61073a366004614525565b61206c565b604051610363919061514e565b6103a261075a366004614a37565b6121ad565b61035961076d366004614a37565b600091825260cd602090815260408084206001600160a01b0393909316845291905290205490565b60c95461037f9060ff1681565b6103a26107b0366004614a05565b6121d3565b6103a26107c3366004614850565b61220d565b61037f6107d636600461453f565b6001600160a01b03918216600090815260666020908152604080832093909416825291909152205460ff1690565b6103a2610812366004614697565b612396565b610359610825366004614a37565b600091825260ce602090815260408084206001600160a01b0393909316845291905290205490565b60c95461068d9061010090046001600160a01b031681565b61035960008051602061548283398151915281565b61037f610888366004614525565b61241d565b61035960008051602061554283398151915281565b60006001600160a01b0383166109135760405162461bcd60e51b815260206004820152602b60248201527f455243313135353a2062616c616e636520717565727920666f7220746865207a60448201526a65726f206164647265737360a81b60648201526084015b60405180910390fd5b5060009081526065602090815260408083206001600160a01b03949094168352929052205490565b60006001600160e01b03198216637965db0b60e01b1480610960575061096082612473565b90505b919050565b336001600160a01b0382161461098057610980612498565b60c95460ff1615610a14576109966000336119ce565b610a145760405162461bcd60e51b815260206004820152604360248201527f434c4d383a3a7265676973746572496e647573747279286c696d69746564293a60448201527f206f6e6c792061646d696e2063616e20726567697374657220696e647573747260648201526269657360e81b608482015260a40161090a565b610a2c6000805160206154828339815191528261252e565b6040516001600160a01b038216907f1230fb0cdc77da02d53e840f6f60d5e7f68646d7d1ccdd890860e05533b62f5390600090a250565b610a6c82612538565b610ac75760405162461bcd60e51b815260206004820152602660248201527f434c4d383a3a7472616e736665723a20746f6b656e496420646f6573206e6f7460448201526508195e1a5cdd60d21b606482015260840161090a565b610af033848484604051806040016040528060048152602001630307830360e41b815250612396565b505050565b606060678054610b04906152f7565b80601f0160208091040260200160405190810160405280929190818152602001828054610b30906152f7565b8015610b7d5780601f10610b5257610100808354040283529160200191610b7d565b820191906000526020600020905b815481529060010190602001808311610b6057829003601f168201915b50505050509050919050565b610b946000336119ce565b610bb05760405162461bcd60e51b815260040161090a90614e77565b610bb982612538565b610c105760405162461bcd60e51b815260206004820152602260248201527f434c4d383a3a6d696e743a20746f6b656e496420646f6573206e6f74206578696044820152611cdd60f21b606482015260840161090a565b60c95460ff1615610c7e5760405162461bcd60e51b815260206004820152603260248201527f434c4d383a3a6d696e743a2063616e6e6f74206d696e74206e657720746f6b656044820152716e7320696e206c696d69746564206d6f646560701b606482015260840161090a565b610af083838360405180602001604052806000815250612551565b3360008115610cc757610cab8261241d565b610cc75760405162461bcd60e51b815260040161090a90614fbb565b6001600160a01b03811615610cfb57610cdf8161241d565b610cfb5760405162461bcd60e51b815260040161090a90614ec0565b610d0484612538565b610d5c5760405162461bcd60e51b8152602060048201526024808201527f434c4d383a3a7265746972653a20746f6b656e496420646f6573206e6f7420656044820152631e1a5cdd60e21b606482015260840161090a565b610d6633856108a2565b831115610dd25760405162461bcd60e51b815260206004820152603460248201527f434c4d383a3a7265746972653a206e6f7420656e6f75676820617661696c61626044820152736c652062616c616e636520746f2072657469726560601b606482015260840161090a565b610ddd338585612663565b604080518581526020810185905233917f8f1b5ebb586d3d169e4ed07db9cd10ce0dd30c7b656171310eae7517c0b53cf9910160405180910390a250505050565b6001600160a01b038516331480610e3a5750610e3a85336107d6565b610ea15760405162461bcd60e51b815260206004820152603260248201527f455243313135353a207472616e736665722063616c6c6572206973206e6f74206044820152711bdddb995c881b9bdc88185c1c1c9bdd995960721b606482015260840161090a565b610eae85858585856126ef565b5050505050565b600082815260976020526040902060010154610ed281335b6128f9565b610af0838361295d565b610ee76000336119ce565b610f035760405162461bcd60e51b815260040161090a90614e77565b610f0c816129e3565b610f715760405162461bcd60e51b815260206004820152603060248201527f434c4d383a3a72656769737465724465616c65723a20746f6b656e547970654960448201526f1908191bd95cc81b9bdd08195e1a5cdd60821b606482015260840161090a565b8060ff1660011415610f9a57610f9560008051602061554283398151915283610eb5565b61101e565b8060ff1660021415610fbe57610f956000805160206154a283398151915283610eb5565b8060ff1660031415610fe257610f9560008051602061556283398151915283610eb5565b8060ff166004141561101e5761100660008051602061548283398151915283610eb5565b61101e6000805160206154c283398151915283610eb5565b61103660008051602061550283398151915283610eb5565b6040516001600160a01b038316907fa8377deee15954185683d55effd369508b4935978c8cb2bab790bf04c570181490600090a25050565b6000806110c8856040517f19457468657265756d205369676e6564204d6573736167653a0a3332000000006020820152603c8101829052600090605c01604051602081830303815290604052805190602001209050919050565b90506001600160a01b0383166110de8286612a05565b6001600160a01b03161495945050505050565b60006109606000805160206154e2833981519152836119ce565b6001600160a01b038116331461117b5760405162461bcd60e51b815260206004820152602f60248201527f416363657373436f6e74726f6c3a2063616e206f6e6c792072656e6f756e636560448201526e103937b632b9903337b91039b2b63360891b606482015260840161090a565b6111858282612a21565b5050565b611191612498565b60c95460ff1615611224576111a76000336119ce565b6112245760405162461bcd60e51b815260206004820152604260248201527f434c4d383a3a7265676973746572436f6e73756d6572286c696d69746564293a60448201527f206f6e6c792061646d696e2063616e20726567697374657220636f6e73756d65606482015261727360f01b608482015260a40161090a565b61123c6000805160206154e283398151915282610eb5565b6040516001600160a01b038216907f69a0adee259d26fe61f4776f7bea7f3a9737c7321256821b985f988545efd31990600090a250565b604051637f157c9b60e01b81526001600160a01b03831660048201526024810182905260009081908190819081903090637f157c9b90604401604080518083038186803b1580156112c357600080fd5b505afa1580156112d7573d6000803e3d6000fd5b505050506040513d601f19601f820116820180604052508101906112fb9190614b1e565b600097885260ce60209081526040808a206001600160a01b039b909b168a5299905297909620549597945050505050565b6000610960600080516020615562833981519152836119ce565b606081518351146113ab5760405162461bcd60e51b815260206004820152602960248201527f455243313135353a206163636f756e747320616e6420696473206c656e677468604482015268040dad2e6dac2e8c6d60bb1b606482015260840161090a565b600083516001600160401b038111156113d457634e487b7160e01b600052604160045260246000fd5b6040519080825280602002602001820160405280156113fd578160200160208202803683370190505b50905060005b845181101561149f5761146485828151811061142f57634e487b7160e01b600052603260045260246000fd5b602002602001015185838151811061145757634e487b7160e01b600052603260045260246000fd5b60200260200101516108a2565b82828151811061148457634e487b7160e01b600052603260045260246000fd5b602090810291909101015261149881615358565b9050611403565b509392505050565b6114af612498565b60c95460ff1615611546576114c56000336119ce565b6115465760405162461bcd60e51b815260206004820152604660248201527f434c4d383a3a756e7265676973746572436f6e73756d6572286c696d6974656460448201527f293a206f6e6c792061646d696e2063616e20756e726567697374657220636f6e60648201526573756d65727360d01b608482015260a40161090a565b61155e6000805160206154e2833981519152826121ad565b6040516001600160a01b038216907f03a38088da75ee2d80f6c753f55f8fd17602ae17d8bd0ef44d5e1f28ab5af11f90600090a250565b60006115a060cb5490565b90505b90565b6115ae612498565b6115bf883389898989898989612a88565b5050505050505050565b60006115e3600080516020615542833981519152836119ce565b8061160157506116016000805160206154a2833981519152836119ce565b8061161f575061161f600080516020615562833981519152836119ce565b8061163d575061163d6000805160206154c2833981519152836119ce565b1561164a57506001610963565b506000919050565b606061165d82612538565b6116bc5760405162461bcd60e51b815260206004820152602a60248201527f434c4d383a3a676574546f6b656e547970653a20746f6b656e496420646f6573604482015269081b9bdd08195e1a5cdd60b21b606482015260840161090a565b600082815260cc6020526040902060018082015460ff16141561171457505060408051808201909152601c81527f52656e657761626c6520456e65726779204365727469666963617465000000006020820152610963565b600181015460ff166002141561175f57505060408051808201909152601781527f436172626f6e20456d697373696f6e73204f66667365740000000000000000006020820152610963565b600181015460ff166003141561179e5750506040805180820190915260118152704175646974656420456d697373696f6e7360781b6020820152610963565b600181015460ff16600414156117da57505060408051808201909152600e81526d21b0b93137b7102a3930b1b5b2b960911b6020820152610963565b5050604080518082019091526014815273151bdad95b88191bd95cc81b9bdd08195e1a5cdd60621b6020820152610963565b50919050565b6001600160a01b03808516600090815260cf6020908152604080832093871683529290529081205485908590859085906118539063ffffffff166001615269565b604051602001611867959493929190614c6a565b604051602081830303815290604052805190602001209050949350505050565b60ca546001600160a01b03163314806118a657506118a66000336119ce565b6119105760405162461bcd60e51b815260206004820152603560248201527f434c4d383a3a69737375654f6e426568616c663a2063616c6c206d757374206360448201527437b6b290333937b6902220a79037b91030b236b4b760591b606482015260840161090a565b611921898989898989898989612a88565b505050505050505050565b600080600061193b85856108a2565b60405163a0d975a760e01b81526001600160a01b038716600482015260248101869052909150600090309063a0d975a79060440160206040518083038186803b15801561198757600080fd5b505afa15801561199b573d6000803e3d6000fd5b505050506040513d601f19601f820116820180604052508101906119bf9190614ae5565b919350909150505b9250929050565b60009182526097602090815260408084206001600160a01b0393909316845291905290205460ff1690565b6000611a0482612538565b611a6c5760405162461bcd60e51b815260206004820152603360248201527f434c4d383a3a676574546f6b656e52657469726564416d6f756e743a20746f6b604482015272195b925908191bd95cc81b9bdd08195e1a5cdd606a1b606482015260840161090a565b50600090815260cd602090815260408083206001600160a01b03949094168352929052205490565b6111853383836131de565b611aaa6000336119ce565b611ac65760405162461bcd60e51b815260040161090a90614e77565b60ca80546001600160a01b0319166001600160a01b0392909216919091179055565b336001600160a01b03821614611b0057611b00612498565b60c95460ff1615611b9857611b166000336119ce565b611b985760405162461bcd60e51b815260206004820152604760248201527f434c4d383a3a756e7265676973746572496e647573747279286c696d6974656460448201527f293a206f6e6c792061646d696e2063616e20756e726567697374657220696e646064820152667573747269657360c81b608482015260a40161090a565b611bb0600080516020615482833981519152826121ad565b6040516001600160a01b038216907fe2fd90a75c6850a2aeaad25eb28a5176ac5166c6e3e6dfe0284e34a628e90ef290600090a250565b611c6060405180610180016040528060008152602001600060ff16815260200160006001600160a01b0316815260200160006001600160a01b0316815260200160008152602001600081526020016000815260200160608152602001606081526020016060815260200160008152602001600081525090565b600082815260cc602090815260409182902082516101808101845281548152600182015460ff8116938201939093526001600160a01b036101009093048316938101939093526002810154909116606083015260038101546080830152600481015460a0830152600581015460c083015260068101805460e084019190611ce6906152f7565b80601f0160208091040260200160405190810160405280929190818152602001828054611d12906152f7565b8015611d5f5780601f10611d3457610100808354040283529160200191611d5f565b820191906000526020600020905b815481529060010190602001808311611d4257829003601f168201915b50505050508152602001600782018054611d78906152f7565b80601f0160208091040260200160405190810160405280929190818152602001828054611da4906152f7565b8015611df15780601f10611dc657610100808354040283529160200191611df1565b820191906000526020600020905b815481529060010190602001808311611dd457829003601f168201915b50505050508152602001600882018054611e0a906152f7565b80601f0160208091040260200160405190810160405280929190818152602001828054611e36906152f7565b8015611e835780601f10611e5857610100808354040283529160200191611e83565b820191906000526020600020905b815481529060010190602001808311611e6657829003601f168201915b5050505050815260200160098201548152602001600a820154815250509050919050565b600054610100900460ff16611ec25760005460ff1615611ec6565b303b155b611f295760405162461bcd60e51b815260206004820152602e60248201527f496e697469616c697a61626c653a20636f6e747261637420697320616c72656160448201526d191e481a5b9a5d1a585b1a5e995960921b606482015260840161090a565b600054610100900460ff16158015611f4b576000805461ffff19166101011790555b611f63604051806020016040528060008152506132bf565b611f896000805160206154e28339815191526000805160206155028339815191526132f2565b611f9460008361252e565b611fac6000805160206155028339815191528361252e565b611fc46000805160206155428339815191528361252e565b611fdc6000805160206154a28339815191528361252e565b611ff46000805160206155628339815191528361252e565b61200c6000805160206154c28339815191528361252e565b6120246000805160206154828339815191528361252e565b60c9805460ca80546001600160a01b03191690556001600160a81b0319166101006001600160a01b0385160260ff19161790558015611185576000805461ff00191690555050565b6040805160e081018252600080825260208201819052918101829052606081018290526080810182905260a0810182905260c08101919091526040805160e081018252600080825260208201819052918101829052606081018290526080810182905260a0810182905260c08101919091526120e96000846119ce565b15158152612105600080516020615542833981519152846119ce565b151560408201526121246000805160206154a2833981519152846119ce565b15156060820152612143600080516020615562833981519152846119ce565b15156080820152612162600080516020615482833981519152846119ce565b151560a08201526121816000805160206154e2833981519152846119ce565b151560208201526121a06000805160206154c2833981519152846119ce565b151560c082015292915050565b6000828152609760205260409020600101546121c98133610ecd565b610af08383612a21565b6121de6000336119ce565b6121fa5760405162461bcd60e51b815260040161090a90614e77565b60c9805460ff1916911515919091179055565b6122186000336119ce565b6122345760405162461bcd60e51b815260040161090a90614e77565b61223d816129e3565b6122a45760405162461bcd60e51b815260206004820152603260248201527f434c4d383a3a756e72656769737465724465616c65723a20746f6b656e54797060448201527119525908191bd95cc81b9bdd08195e1a5cdd60721b606482015260840161090a565b8060ff16600114156122cd576122c8600080516020615542833981519152836121ad565b612339565b8060ff16600214156122f1576122c86000805160206154a2833981519152836121ad565b8060ff1660031415612315576122c8600080516020615562833981519152836121ad565b8060ff1660041415612339576123396000805160206154c2833981519152836121ad565b612342826115c9565b61235e5761235e600080516020615502833981519152836121ad565b6040516001600160a01b038316907f98552ded770f1d05a505572f3387c108dbc6b566ea3d49f83cff3d1f1c72a04290600090a25050565b6001600160a01b0385163314806123b257506123b285336107d6565b6124105760405162461bcd60e51b815260206004820152602960248201527f455243313135353a2063616c6c6572206973206e6f74206f776e6572206e6f7260448201526808185c1c1c9bdd995960ba1b606482015260840161090a565b610eae858585858561333d565b6000612437600080516020615502833981519152836119ce565b8061245557506124556000805160206154e2833981519152836119ce565b8061163d575061163d600080516020615482833981519152836119ce565b60006001600160e01b03198216637965db0b60e01b148061096057506109608261345e565b6124b0600080516020615502833981519152336119ce565b806124ce57506124ce600080516020615482833981519152336119ce565b61252c5760405162461bcd60e51b815260206004820152602960248201527f434c4d383a3a6f6e6c794465616c65723a206d73672e73656e646572206e6f746044820152681030903232b0b632b960b91b606482015260840161090a565b565b611185828261295d565b60008161254460cb5490565b1061164a57506001610963565b6001600160a01b0384166125b15760405162461bcd60e51b815260206004820152602160248201527f455243313135353a206d696e7420746f20746865207a65726f206164647265736044820152607360f81b606482015260840161090a565b336125d1816000876125c2886134ae565b6125cb886134ae565b87613507565b60008481526065602090815260408083206001600160a01b038916845290915281208054859290612603908490615251565b909155505060408051858152602081018590526001600160a01b0380881692600092918516917fc3d58168c5ae7397731d063d5bbf3d657854427343f4c083240f7aacaa2d0f62910160405180910390a4610eae816000878787876139f7565b61266e838383613b62565b600082815260cc60205260409020600a015461268a9082613cdf565b600083815260cc60209081526040808320600a019390935560cd81528282206001600160a01b0387168352905220546126c39082613cdf565b600092835260cd602090815260408085206001600160a01b039096168552949052929091209190915550565b81518351146127515760405162461bcd60e51b815260206004820152602860248201527f455243313135353a2069647320616e6420616d6f756e7473206c656e677468206044820152670dad2e6dac2e8c6d60c31b606482015260840161090a565b6001600160a01b0384166127775760405162461bcd60e51b815260040161090a90614f2c565b33612786818787878787613507565b60005b845181101561288b5760008582815181106127b457634e487b7160e01b600052603260045260246000fd5b6020026020010151905060008583815181106127e057634e487b7160e01b600052603260045260246000fd5b60209081029190910181015160008481526065835260408082206001600160a01b038e1683529093529190912054909150818110156128315760405162461bcd60e51b815260040161090a90614f71565b60008381526065602090815260408083206001600160a01b038e8116855292528083208585039055908b16825281208054849290612870908490615251565b925050819055505050508061288490615358565b9050612789565b50846001600160a01b0316866001600160a01b0316826001600160a01b03167f4a39dc06d4c0dbc64b70af90fd698a233a518aa5d07e595d983b8c0526c8f7fb87876040516128db929190614dee565b60405180910390a46128f1818787878787613cf2565b505050505050565b61290382826119ce565b6111855761291b816001600160a01b03166014613dbc565b612926836020613dbc565b604051602001612937929190614cc3565b60408051601f198184030181529082905262461bcd60e51b825261090a91600401614e1c565b61296782826119ce565b6111855760008281526097602090815260408083206001600160a01b03851684529091529020805460ff1916600117905561299f3390565b6001600160a01b0316816001600160a01b0316837f2f8788117e7eff1d82e926ec794901d17c78024a50270940304540a733656f0d60405160405180910390a45050565b6000808260ff1611801561163d575060048260ff161161164a57506001610963565b6000806000612a148585613f9d565b9150915061149f8161400a565b612a2b82826119ce565b156111855760008281526097602090815260408083206001600160a01b0385168085529252808320805460ff1916905551339285917ff6391f5c32d9c69d2a47ea670b442974b53935d1edc7fd64eb21e047a839171b9190a45050565b612a91876129e3565b612ae95760405162461bcd60e51b8152602060048201526024808201527f434c4d383a3a5f69737375653a20746f6b656e54797065496420697320696e76604482015263185b1a5960e21b606482015260840161090a565b60c95460ff1615612d30578660ff1660011480612b0957508660ff166002145b15612c935760ca546001600160a01b03163314612b7f5760405162461bcd60e51b815260206004820152602e60248201527f434c4d383a3a5f6973737565286c696d69746564293a206d73672e73656e646560448201526d72206e6f742074696d656c6f636b60901b606482015260840161090a565b612b8a60008a6119ce565b612be65760405162461bcd60e51b815260206004820152602760248201527f434c4d383a3a5f6973737565286c696d69746564293a20697373756565206e6f6044820152663a1030b236b4b760c91b606482015260840161090a565b612bfe600080516020615542833981519152896119ce565b80612c1c5750612c1c6000805160206154a2833981519152896119ce565b612c8e5760405162461bcd60e51b815260206004820152603760248201527f434c4d383a3a5f6973737565286c696d69746564293a2070726f706f7365722060448201527f6e6f7420612072656769737465726564206465616c6572000000000000000000606482015260840161090a565b612d2b565b8660ff1660031415612d2b57612cb7600080516020615562833981519152896119ce565b612d2b576040805162461bcd60e51b81526020600482015260248101919091527f434c4d383a3a5f6973737565286c696d69746564293a20697373756572206e6f60448201527f742061207265676973746572656420656d697373696f6e732061756469746f72606482015260840161090a565b612ea5565b8660ff1660011415612da757612d54600080516020615542833981519152896119ce565b612d2b5760405162461bcd60e51b8152602060048201526030602482015260008051602061552283398151915260448201526f3a32b932b2102922a1903232b0b632b960811b606482015260840161090a565b8660ff1660021415612e2157612dcb6000805160206154a2833981519152896119ce565b612d2b5760405162461bcd60e51b815260206004820152603360248201526000805160206155228339815191526044820152723a32b932b21037b33339b2ba103232b0b632b960691b606482015260840161090a565b8660ff1660031415612ea557612e45600080516020615562833981519152896119ce565b612ea55760405162461bcd60e51b8152602060048201526037602482015260008051602061552283398151915260448201527f746572656420656d697373696f6e732061756469746f72000000000000000000606482015260840161090a565b8660ff1660041415612fa257612ec9600080516020615482833981519152896119ce565b612f1a5760405162461bcd60e51b815260206004820152602e602482015260008051602061552283398151915260448201526d746572656420696e64757374727960901b606482015260840161090a565b336001600160a01b038a1614612fa25760405162461bcd60e51b815260206004820152604160248201527f434c4d383a3a5f69737375653a207265676973746572656420696e647573747260448201527f792063616e206f6e6c7920697373756520636172626f6e20746f20697473656c6064820152603360f91b608482015260a40161090a565b612fb060cb80546001019055565b600060cc6000612fbf60cb5490565b81526020019081526020016000209050612fd860cb5490565b81556001810180546002830180546001600160a01b03808f166001600160a01b0319909216919091179091558b16610100026001600160a81b031990911660ff8b1617179055600381018690556004810185905542600582015583516130479060068301906020870190614372565b50825161305d9060078301906020860190614372565b5081516130739060088301906020850190614372565b50600981018790556000600a8201556130a58a61308f60cb5490565b8960405180602001604052806000815250612551565b8760ff16600314156130cc57600281015481546130cc916001600160a01b03169089612663565b8060020160009054906101000a90046001600160a01b03166001600160a01b03168160010160019054906101000a90046001600160a01b03166001600160a01b03167fde06d80d1bc821cc9dc0bfa600ff250c766a6841b2f404d7103ad55a85572acd8960cd60008660000154815260200190815260200160002060008660020160009054906101000a90046001600160a01b03166001600160a01b03166001600160a01b031681526020019081526020016000205485600001548660010160009054906101000a900460ff168760030154886004015489600501548a6006018b6007018c6008016040516131ca9a999897969594939291906151b2565b60405180910390a350505050505050505050565b816001600160a01b0316836001600160a01b031614156132525760405162461bcd60e51b815260206004820152602960248201527f455243313135353a2073657474696e6720617070726f76616c20737461747573604482015268103337b91039b2b63360b91b606482015260840161090a565b6001600160a01b03838116600081815260666020908152604080832094871680845294825291829020805460ff191686151590811790915591519182527f17307eab39ab6107e8899845ad3d59bd9653f200f220920489ca2b5937696c31910160405180910390a3505050565b600054610100900460ff166132e65760405162461bcd60e51b815260040161090a90615018565b6132ef8161420d565b50565b600082815260976020526040808220600101805490849055905190918391839186917fbd79b86ffe0ab8e8776151514217cd7cacd52c909f66475c3af44e129f0b00ff9190a4505050565b6001600160a01b0384166133635760405162461bcd60e51b815260040161090a90614f2c565b336133738187876125c2886134ae565b60008481526065602090815260408083206001600160a01b038a168452909152902054838110156133b65760405162461bcd60e51b815260040161090a90614f71565b60008581526065602090815260408083206001600160a01b038b81168552925280832087850390559088168252812080548692906133f5908490615251565b909155505060408051868152602081018690526001600160a01b03808916928a821692918616917fc3d58168c5ae7397731d063d5bbf3d657854427343f4c083240f7aacaa2d0f62910160405180910390a46134558288888888886139f7565b50505050505050565b60006001600160e01b03198216636cdb3d1360e11b148061348f57506001600160e01b031982166303a24d0760e21b145b8061096057506301ffc9a760e01b6001600160e01b0319831614610960565b604080516001808252818301909252606091600091906020808301908036833701905050905082816000815181106134f657634e487b7160e01b600052603260045260246000fd5b602090810291909101015292915050565b84846001600160a01b0382161561353d576135218261241d565b61353d5760405162461bcd60e51b815260040161090a90614fbb565b6001600160a01b03811615613571576135558161241d565b6135715760405162461bcd60e51b815260040161090a90614ec0565b856001600160a01b0316876001600160a01b031614156136045760405162461bcd60e51b815260206004820152604260248201527f434c4d383a3a5f6265666f7265546f6b656e5472616e736665723a2073656e6460448201527f657220616e642072656365697665722063616e6e6f74206265207468652073616064820152616d6560f01b608482015260a40161090a565b6000805b86518110156138f057600060cc600089848151811061363757634e487b7160e01b600052603260045260246000fd5b60200260200101518152602001908152602001600020905060c960009054906101000a900460ff1615613806576001600160a01b03891661367857506138de565b60018082015460ff1614806136945750600181015460ff166002145b156137465760ca546001600160a01b038c8116911614806136bb57506136bb60008c6119ce565b6137415760405162461bcd60e51b815260206004820152604b60248201527f434c4d383a3a5f6265666f7265546f6b656e5472616e73666572286c696d697460448201527f6564293a206f6e6c792061646d696e20616e642044414f2063616e207472616e60648201526a7366657220746f6b656e7360a81b608482015260a40161090a565b613806565b600181015460ff16600314156138065761376e6000805160206155628339815191528c6119ce565b6138065760405162461bcd60e51b815260206004820152605860248201527f434c4d383a3a5f6265666f7265546f6b656e5472616e73666572286c696d697460448201527f6564293a206f6e6c7920656d697373696f6e732061756469746f72732063616e60648201527f206973737565206175646974656420656d697373696f6e730000000000000000608482015260a40161090a565b600181015460ff16600414801561382557506001600160a01b03891615155b801561383957506001600160a01b038a1615155b156138dc57600092506138b687838151811061386557634e487b7160e01b600052603260045260246000fd5b602002602001015160ce60008460000154815260200190815260200160002060008d6001600160a01b03166001600160a01b0316815260200190815260200160002054613cdf90919063ffffffff16565b8154600090815260ce602090815260408083206001600160a01b038f1684529091529020555b505b806138e881615358565b915050613608565b50801561192157600061390589898989611812565b905061391281868a61106e565b6139935760405162461bcd60e51b815260206004820152604660248201527f434c4d383a3a5f6265666f7265546f6b656e5472616e736665723a207265636560448201527f69766572277320617070726f76616c207369676e6174757265206973206e6f74606482015265081d985b1a5960d21b608482015260a40161090a565b6001600160a01b03808a16600090815260cf60209081526040808320938c168352929052908120805463ffffffff16916139cc83615373565b91906101000a81548163ffffffff021916908363ffffffff1602179055505050505050505050505050565b6001600160a01b0384163b156128f15760405163f23a6e6160e01b81526001600160a01b0385169063f23a6e6190613a3b9089908990889088908890600401614d96565b602060405180830381600087803b158015613a5557600080fd5b505af1925050508015613a85575060408051601f3d908101601f19168201909252613a8291810190614ac9565b60015b613b3257613a916153c3565b806308c379a01415613acb5750613aa66153da565b80613ab15750613acd565b8060405162461bcd60e51b815260040161090a9190614e1c565b505b60405162461bcd60e51b815260206004820152603460248201527f455243313135353a207472616e7366657220746f206e6f6e20455243313135356044820152732932b1b2b4bb32b91034b6b83632b6b2b73a32b960611b606482015260840161090a565b6001600160e01b0319811663f23a6e6160e01b146134555760405162461bcd60e51b815260040161090a90614e2f565b6001600160a01b038316613bc45760405162461bcd60e51b815260206004820152602360248201527f455243313135353a206275726e2066726f6d20746865207a65726f206164647260448201526265737360e81b606482015260840161090a565b33613bf381856000613bd5876134ae565b613bde876134ae565b60405180602001604052806000815250613507565b60008381526065602090815260408083206001600160a01b038816845290915290205482811015613c725760405162461bcd60e51b8152602060048201526024808201527f455243313135353a206275726e20616d6f756e7420657863656564732062616c604482015263616e636560e01b606482015260840161090a565b60008481526065602090815260408083206001600160a01b03898116808652918452828520888703905582518981529384018890529092908616917fc3d58168c5ae7397731d063d5bbf3d657854427343f4c083240f7aacaa2d0f62910160405180910390a45050505050565b6000613ceb8284615251565b9392505050565b6001600160a01b0384163b156128f15760405163bc197c8160e01b81526001600160a01b0385169063bc197c8190613d369089908990889088908890600401614d38565b602060405180830381600087803b158015613d5057600080fd5b505af1925050508015613d80575060408051601f3d908101601f19168201909252613d7d91810190614ac9565b60015b613d8c57613a916153c3565b6001600160e01b0319811663bc197c8160e01b146134555760405162461bcd60e51b815260040161090a90614e2f565b60606000613dcb836002615291565b613dd6906002615251565b6001600160401b03811115613dfb57634e487b7160e01b600052604160045260246000fd5b6040519080825280601f01601f191660200182016040528015613e25576020820181803683370190505b509050600360fc1b81600081518110613e4e57634e487b7160e01b600052603260045260246000fd5b60200101906001600160f81b031916908160001a905350600f60fb1b81600181518110613e8b57634e487b7160e01b600052603260045260246000fd5b60200101906001600160f81b031916908160001a9053506000613eaf846002615291565b613eba906001615251565b90505b6001811115613f4e576f181899199a1a9b1b9c1cb0b131b232b360811b85600f1660108110613efc57634e487b7160e01b600052603260045260246000fd5b1a60f81b828281518110613f2057634e487b7160e01b600052603260045260246000fd5b60200101906001600160f81b031916908160001a90535060049490941c93613f47816152e0565b9050613ebd565b508315613ceb5760405162461bcd60e51b815260206004820181905260248201527f537472696e67733a20686578206c656e67746820696e73756666696369656e74604482015260640161090a565b600080825160411415613fd45760208301516040840151606085015160001a613fc88782858561423d565b945094505050506119c7565b825160401415613ffe5760208301516040840151613ff386838361432a565b9350935050506119c7565b506000905060026119c7565b600081600481111561402c57634e487b7160e01b600052602160045260246000fd5b1415614037576132ef565b600181600481111561405957634e487b7160e01b600052602160045260246000fd5b14156140a75760405162461bcd60e51b815260206004820152601860248201527f45434453413a20696e76616c6964207369676e61747572650000000000000000604482015260640161090a565b60028160048111156140c957634e487b7160e01b600052602160045260246000fd5b14156141175760405162461bcd60e51b815260206004820152601f60248201527f45434453413a20696e76616c6964207369676e6174757265206c656e67746800604482015260640161090a565b600381600481111561413957634e487b7160e01b600052602160045260246000fd5b14156141925760405162461bcd60e51b815260206004820152602260248201527f45434453413a20696e76616c6964207369676e6174757265202773272076616c604482015261756560f01b606482015260840161090a565b60048160048111156141b457634e487b7160e01b600052602160045260246000fd5b14156132ef5760405162461bcd60e51b815260206004820152602260248201527f45434453413a20696e76616c6964207369676e6174757265202776272076616c604482015261756560f01b606482015260840161090a565b600054610100900460ff166142345760405162461bcd60e51b815260040161090a90615018565b6132ef81614363565b6000807f7fffffffffffffffffffffffffffffff5d576e7357a4501ddfe92f46681b20a08311156142745750600090506003614321565b8460ff16601b1415801561428c57508460ff16601c14155b1561429d5750600090506004614321565b6040805160008082526020820180845289905260ff881692820192909252606081018690526080810185905260019060a0016020604051602081039080840390855afa1580156142f1573d6000803e3d6000fd5b5050604051601f1901519150506001600160a01b03811661431a57600060019250925050614321565b9150600090505b94509492505050565b6000806001600160ff1b0383168161434760ff86901c601b615251565b90506143558782888561423d565b935093505050935093915050565b80516111859060679060208401905b82805461437e906152f7565b90600052602060002090601f0160209004810192826143a057600085556143e6565b82601f106143b957805160ff19168380011785556143e6565b828001600101855582156143e6579182015b828111156143e65782518255916020019190600101906143cb565b506143f29291506143f6565b5090565b5b808211156143f257600081556001016143f7565b80356001600160a01b038116811461096357600080fd5b600082601f830112614432578081fd5b8135602061443f8261522e565b60405161444c828261532c565b8381528281019150858301600585901b8701840188101561446b578586fd5b855b858110156144895781358452928401929084019060010161446d565b5090979650505050505050565b8035801515811461096357600080fd5b600082601f8301126144b6578081fd5b81356001600160401b038111156144cf576144cf6153ad565b6040516144e6601f8301601f19166020018261532c565b8181528460208386010111156144fa578283fd5b816020850160208301379081016020019190915292915050565b803560ff8116811461096357600080fd5b600060208284031215614536578081fd5b613ceb8261440b565b60008060408385031215614551578081fd5b61455a8361440b565b91506145686020840161440b565b90509250929050565b60008060008060808587031215614586578182fd5b61458f8561440b565b935061459d6020860161440b565b925060408501356001600160401b03808211156145b8578384fd5b6145c488838901614422565b935060608701359150808211156145d9578283fd5b506145e687828801614422565b91505092959194509250565b600080600080600060a08688031215614609578081fd5b6146128661440b565b94506146206020870161440b565b935060408601356001600160401b038082111561463b578283fd5b61464789838a01614422565b9450606088013591508082111561465c578283fd5b61466889838a01614422565b9350608088013591508082111561467d578283fd5b5061468a888289016144a6565b9150509295509295909350565b600080600080600060a086880312156146ae578081fd5b6146b78661440b565b94506146c56020870161440b565b9350604086013592506060860135915060808601356001600160401b038111156146ed578182fd5b61468a888289016144a6565b60008060008060008060008060006101208a8c031215614717578384fd5b6147208a61440b565b985061472e60208b0161440b565b975061473c60408b01614514565b965060608a0135955060808a0135945060a08a0135935060c08a01356001600160401b038082111561476c578485fd5b6147788d838e016144a6565b945060e08c013591508082111561478d578384fd5b6147998d838e016144a6565b93506101008c01359150808211156147af578283fd5b506147bc8c828d016144a6565b9150509295985092959850929598565b600080604083850312156147de578182fd5b6147e78361440b565b915061456860208401614496565b60008060408385031215614807578182fd5b6148108361440b565b946020939093013593505050565b600080600060608486031215614832578081fd5b61483b8461440b565b95602085013595506040909401359392505050565b60008060408385031215614862578182fd5b61486b8361440b565b915061456860208401614514565b600080600080600080600080610100898b031215614895578182fd5b61489e8961440b565b97506148ac60208a01614514565b965060408901359550606089013594506080890135935060a08901356001600160401b03808211156148dc578384fd5b6148e88c838d016144a6565b945060c08b01359150808211156148fd578384fd5b6149098c838d016144a6565b935060e08b013591508082111561491e578283fd5b5061492b8b828c016144a6565b9150509295985092959890939650565b6000806040838503121561494d578182fd5b82356001600160401b0380821115614963578384fd5b818501915085601f830112614976578384fd5b813560206149838261522e565b604051614990828261532c565b8381528281019150858301600585901b870184018b10156149af578889fd5b8896505b848710156149d8576149c48161440b565b8352600196909601959183019183016149b3565b50965050860135925050808211156149ee578283fd5b506149fb85828601614422565b9150509250929050565b600060208284031215614a16578081fd5b613ceb82614496565b600060208284031215614a30578081fd5b5035919050565b60008060408385031215614a49578182fd5b823591506145686020840161440b565b600080600060608486031215614a6d578081fd5b8335925060208401356001600160401b03811115614a89578182fd5b614a95868287016144a6565b925050614aa46040850161440b565b90509250925092565b600060208284031215614abe578081fd5b8135613ceb8161546b565b600060208284031215614ada578081fd5b8151613ceb8161546b565b600060208284031215614af6578081fd5b5051919050565b60008060408385031215614b0f578182fd5b50508035926020909101359150565b60008060408385031215614b30578182fd5b505080516020909101519092909150565b6000815180845260208085019450808401835b83811015614b7057815187529582019590820190600101614b54565b509495945050505050565b80516000906020808401838315614b7057815187529582019590820190600101614b54565b60008151808452614bb88160208601602086016152b0565b601f01601f19169290920160200192915050565b8054600090600181811c9080831680614be657607f831692505b6020808410821415614c0657634e487b7160e01b86526022600452602486fd5b83885260208801828015614c215760018114614c3257614c5d565b60ff19871682528282019750614c5d565b60008981526020902060005b87811015614c5757815484820152908601908401614c3e565b83019850505b5050505050505092915050565b60006bffffffffffffffffffffffff19808860601b168352808760601b16601484015250614ca4614c9e6028840187614b7b565b85614b7b565b60e09390931b6001600160e01b03191683525050600401949350505050565b60007f416363657373436f6e74726f6c3a206163636f756e742000000000000000000082528351614cfb8160178501602088016152b0565b7001034b99036b4b9b9b4b733903937b6329607d1b6017918401918201528351614d2c8160288401602088016152b0565b01602801949350505050565b6001600160a01b0386811682528516602082015260a060408201819052600090614d6490830186614b41565b8281036060840152614d768186614b41565b90508281036080840152614d8a8185614ba0565b98975050505050505050565b6001600160a01b03868116825285166020820152604081018490526060810183905260a060808201819052600090614dd090830184614ba0565b979650505050505050565b600060208252613ceb6020830184614b41565b600060408252614e016040830185614b41565b8281036020840152614e138185614b41565b95945050505050565b600060208252613ceb6020830184614ba0565b60208082526028908201527f455243313135353a204552433131353552656365697665722072656a656374656040820152676420746f6b656e7360c01b606082015260800190565b60208082526029908201527f434c4d383a3a6f6e6c7941646d696e3a206d73672e73656e646572206e6f74206040820152683a34329030b236b4b760b91b606082015260800190565b60208082526046908201527f434c4d383a3a636f6e73756d65724f724465616c65723a20726563697069656e60408201527f74206d75737420626520636f6e73756d65722c206465616c6572206f7220696e60608201526564757374727960d01b608082015260a00190565b60208082526025908201527f455243313135353a207472616e7366657220746f20746865207a65726f206164604082015264647265737360d81b606082015260800190565b6020808252602a908201527f455243313135353a20696e73756666696369656e742062616c616e636520666f60408201526939103a3930b739b332b960b11b606082015260800190565b60208082526039908201527f434c4d383a3a636f6e73756d65724f724465616c65723a2073656e646572206e60408201527f6f74206120636f6e73756d6572206f722061206465616c657200000000000000606082015260800190565b6020808252602b908201527f496e697469616c697a61626c653a20636f6e7472616374206973206e6f74206960408201526a6e697469616c697a696e6760a81b606082015260800190565b600060208252825160208301526020830151615084604084018260ff169052565b5060408301516001600160a01b03811660608401525060608301516001600160a01b038116608084015250608083015160a083015260a083015160c083015260c083015160e083015260e083015161018061010081818601526150eb6101a0860184614ba0565b9250808601519050601f1961012081878603018188015261510c8584614ba0565b94508088015192505061014081878603018188015261512b8584614ba0565b908801516101608881019190915290970151929095019190915250929392505050565b600060e08201905082511515825260208301511515602083015260408301511515604083015260608301511515606083015260808301511515608083015260a0830151151560a083015260c08301516151ab60c084018215159052565b5092915050565b60006101408c83528b60208401528a604084015260ff8a1660608401528860808401528760a08401528660c08401528060e08401526151f381840187614bcc565b90508281036101008401526152088186614bcc565b905082810361012084015261521d8185614bcc565b9d9c50505050505050505050505050565b60006001600160401b03821115615247576152476153ad565b5060051b60200190565b6000821982111561526457615264615397565b500190565b600063ffffffff80831681851680830382111561528857615288615397565b01949350505050565b60008160001904831182151516156152ab576152ab615397565b500290565b60005b838110156152cb5781810151838201526020016152b3565b838111156152da576000848401525b50505050565b6000816152ef576152ef615397565b506000190190565b600181811c9082168061530b57607f821691505b6020821081141561180c57634e487b7160e01b600052602260045260246000fd5b601f8201601f191681016001600160401b0381118282101715615351576153516153ad565b6040525050565b600060001982141561536c5761536c615397565b5060010190565b600063ffffffff8083168181141561538d5761538d615397565b6001019392505050565b634e487b7160e01b600052601160045260246000fd5b634e487b7160e01b600052604160045260246000fd5b600060033d11156115a357600481823e5160e01c90565b600060443d10156153ea576115a3565b6040516003193d81016004833e81513d6001600160401b03816024840111818411171561541b5750505050506115a3565b8285019150815181811115615435575050505050506115a3565b843d8701016020828501011115615451575050505050506115a3565b6154606020828601018761532c565b509094505050505090565b6001600160e01b0319811681146132ef57600080fdfe8305613dd3dbc3e0773e56336f52890c75fc1219c6ed3f363339b8ada04df289ede6574deba8f02ada7888448a497b08844d62e044ed533343a673be3ffcde5ff047c8eb56a4fb9b90290fc55ce546369985412ba2348c56342b7afbf87ec1a65e1aa547d3dade8c68b013a47ad41c2bcc9b9e4b0765b0fb616780e15786e76af8890eedd7900ad88da6192fd03dbb69dbeee963b1a0ed738abe49ab3331aaf3434c4d383a3a5f69737375653a20697373756572206e6f7420612072656769732ab9f1da92e74aaa01eb75a871557505b11dd8d36832a34bb21bbee88b08d860e97dad3dbe5042e7384b1572cf966a15e089576a62b5126c5ef1d184ab18b12ca2646970667358221220518cc6269d32d4cfe770db056113d801decf44ff2d2cbe2e608287681f42e90564736f6c63430008030033",
  "linkReferences": {},
  "deployedLinkReferences": {}
}