{
  "_format": "hh-sol-artifact-1",
  "contractName": "NetEmissionsTokenNetwork",
  "sourceName": "contracts/NetEmissionsTokenNetwork.sol",
  "abi": [
    {
      "inputs": [
        {
          "internalType": "address",
          "name": "admin",
          "type": "address"
        }
      ],
      "stateMutability": "nonpayable",
      "type": "constructor"
    },
    {
      "anonymous": false,
      "inputs": [
        {
          "indexed": true,
          "internalType": "address",
          "name": "account",
          "type": "address"
        },
        {
          "indexed": true,
          "internalType": "address",
          "name": "operator",
          "type": "address"
        },
        {
          "indexed": false,
          "internalType": "bool",
          "name": "approved",
          "type": "bool"
        }
      ],
      "name": "ApprovalForAll",
      "type": "event"
    },
    {
      "anonymous": false,
      "inputs": [
        {
          "indexed": true,
          "internalType": "address",
          "name": "account",
          "type": "address"
        }
      ],
      "name": "RegisteredConsumer",
      "type": "event"
    },
    {
      "anonymous": false,
      "inputs": [
        {
          "indexed": true,
          "internalType": "address",
          "name": "account",
          "type": "address"
        }
      ],
      "name": "RegisteredDealer",
      "type": "event"
    },
    {
      "anonymous": false,
      "inputs": [
        {
          "indexed": true,
          "internalType": "bytes32",
          "name": "role",
          "type": "bytes32"
        },
        {
          "indexed": true,
          "internalType": "bytes32",
          "name": "previousAdminRole",
          "type": "bytes32"
        },
        {
          "indexed": true,
          "internalType": "bytes32",
          "name": "newAdminRole",
          "type": "bytes32"
        }
      ],
      "name": "RoleAdminChanged",
      "type": "event"
    },
    {
      "anonymous": false,
      "inputs": [
        {
          "indexed": true,
          "internalType": "bytes32",
          "name": "role",
          "type": "bytes32"
        },
        {
          "indexed": true,
          "internalType": "address",
          "name": "account",
          "type": "address"
        },
        {
          "indexed": true,
          "internalType": "address",
          "name": "sender",
          "type": "address"
        }
      ],
      "name": "RoleGranted",
      "type": "event"
    },
    {
      "anonymous": false,
      "inputs": [
        {
          "indexed": true,
          "internalType": "bytes32",
          "name": "role",
          "type": "bytes32"
        },
        {
          "indexed": true,
          "internalType": "address",
          "name": "account",
          "type": "address"
        },
        {
          "indexed": true,
          "internalType": "address",
          "name": "sender",
          "type": "address"
        }
      ],
      "name": "RoleRevoked",
      "type": "event"
    },
    {
      "anonymous": false,
      "inputs": [
        {
          "indexed": false,
          "internalType": "uint256",
          "name": "availableBalance",
          "type": "uint256"
        },
        {
          "indexed": false,
          "internalType": "uint256",
          "name": "retiredBalance",
          "type": "uint256"
        },
        {
          "indexed": false,
          "internalType": "uint256",
          "name": "tokenId",
          "type": "uint256"
        },
        {
          "indexed": false,
          "internalType": "uint8",
          "name": "tokenTypeId",
          "type": "uint8"
        },
        {
          "indexed": true,
          "internalType": "address",
          "name": "issuer",
          "type": "address"
        },
        {
          "indexed": true,
          "internalType": "address",
          "name": "issuee",
          "type": "address"
        },
        {
          "indexed": false,
          "internalType": "uint256",
          "name": "fromDate",
          "type": "uint256"
        },
        {
          "indexed": false,
          "internalType": "uint256",
          "name": "thruDate",
          "type": "uint256"
        },
        {
          "indexed": false,
          "internalType": "uint256",
          "name": "dateCreated",
          "type": "uint256"
        },
        {
          "indexed": false,
          "internalType": "uint256",
          "name": "automaticRetireDate",
          "type": "uint256"
        },
        {
          "indexed": false,
          "internalType": "string",
          "name": "metadata",
          "type": "string"
        },
        {
          "indexed": false,
          "internalType": "string",
          "name": "manifest",
          "type": "string"
        },
        {
          "indexed": false,
          "internalType": "string",
          "name": "description",
          "type": "string"
        }
      ],
      "name": "TokenCreated",
      "type": "event"
    },
    {
      "anonymous": false,
      "inputs": [
        {
          "indexed": true,
          "internalType": "address",
          "name": "account",
          "type": "address"
        },
        {
          "indexed": false,
          "internalType": "uint256",
          "name": "tokenId",
          "type": "uint256"
        },
        {
          "indexed": false,
          "internalType": "uint256",
          "name": "amount",
          "type": "uint256"
        }
      ],
      "name": "TokenRetired",
      "type": "event"
    },
    {
      "anonymous": false,
      "inputs": [
        {
          "indexed": true,
          "internalType": "address",
          "name": "operator",
          "type": "address"
        },
        {
          "indexed": true,
          "internalType": "address",
          "name": "from",
          "type": "address"
        },
        {
          "indexed": true,
          "internalType": "address",
          "name": "to",
          "type": "address"
        },
        {
          "indexed": false,
          "internalType": "uint256[]",
          "name": "ids",
          "type": "uint256[]"
        },
        {
          "indexed": false,
          "internalType": "uint256[]",
          "name": "values",
          "type": "uint256[]"
        }
      ],
      "name": "TransferBatch",
      "type": "event"
    },
    {
      "anonymous": false,
      "inputs": [
        {
          "indexed": true,
          "internalType": "address",
          "name": "operator",
          "type": "address"
        },
        {
          "indexed": true,
          "internalType": "address",
          "name": "from",
          "type": "address"
        },
        {
          "indexed": true,
          "internalType": "address",
          "name": "to",
          "type": "address"
        },
        {
          "indexed": false,
          "internalType": "uint256",
          "name": "id",
          "type": "uint256"
        },
        {
          "indexed": false,
          "internalType": "uint256",
          "name": "value",
          "type": "uint256"
        }
      ],
      "name": "TransferSingle",
      "type": "event"
    },
    {
      "anonymous": false,
      "inputs": [
        {
          "indexed": false,
          "internalType": "string",
          "name": "value",
          "type": "string"
        },
        {
          "indexed": true,
          "internalType": "uint256",
          "name": "id",
          "type": "uint256"
        }
      ],
      "name": "URI",
      "type": "event"
    },
    {
      "anonymous": false,
      "inputs": [
        {
          "indexed": true,
          "internalType": "address",
          "name": "account",
          "type": "address"
        }
      ],
      "name": "UnregisteredConsumer",
      "type": "event"
    },
    {
      "anonymous": false,
      "inputs": [
        {
          "indexed": true,
          "internalType": "address",
          "name": "account",
          "type": "address"
        }
      ],
      "name": "UnregisteredDealer",
      "type": "event"
    },
    {
      "inputs": [],
      "name": "DEFAULT_ADMIN_ROLE",
      "outputs": [
        {
          "internalType": "bytes32",
          "name": "",
          "type": "bytes32"
        }
      ],
      "stateMutability": "view",
      "type": "function"
    },
    {
      "inputs": [],
      "name": "REGISTERED_CONSUMER",
      "outputs": [
        {
          "internalType": "bytes32",
          "name": "",
          "type": "bytes32"
        }
      ],
      "stateMutability": "view",
      "type": "function"
    },
    {
      "inputs": [],
      "name": "REGISTERED_DEALER",
      "outputs": [
        {
          "internalType": "bytes32",
          "name": "",
          "type": "bytes32"
        }
      ],
      "stateMutability": "view",
      "type": "function"
    },
    {
      "inputs": [],
      "name": "REGISTERED_EMISSIONS_AUDITOR",
      "outputs": [
        {
          "internalType": "bytes32",
          "name": "",
          "type": "bytes32"
        }
      ],
      "stateMutability": "view",
      "type": "function"
    },
    {
      "inputs": [],
      "name": "REGISTERED_OFFSET_DEALER",
      "outputs": [
        {
          "internalType": "bytes32",
          "name": "",
          "type": "bytes32"
        }
      ],
      "stateMutability": "view",
      "type": "function"
    },
    {
      "inputs": [],
      "name": "REGISTERED_REC_DEALER",
      "outputs": [
        {
          "internalType": "bytes32",
          "name": "",
          "type": "bytes32"
        }
      ],
      "stateMutability": "view",
      "type": "function"
    },
    {
      "inputs": [
        {
          "internalType": "address",
          "name": "account",
          "type": "address"
        },
        {
          "internalType": "uint256",
          "name": "id",
          "type": "uint256"
        }
      ],
      "name": "balanceOf",
      "outputs": [
        {
          "internalType": "uint256",
          "name": "",
          "type": "uint256"
        }
      ],
      "stateMutability": "view",
      "type": "function"
    },
    {
      "inputs": [
        {
          "internalType": "address[]",
          "name": "accounts",
          "type": "address[]"
        },
        {
          "internalType": "uint256[]",
          "name": "ids",
          "type": "uint256[]"
        }
      ],
      "name": "balanceOfBatch",
      "outputs": [
        {
          "internalType": "uint256[]",
          "name": "",
          "type": "uint256[]"
        }
      ],
      "stateMutability": "view",
      "type": "function"
    },
    {
      "inputs": [
        {
          "internalType": "address",
          "name": "account",
          "type": "address"
        },
        {
          "internalType": "uint256",
          "name": "tokenId",
          "type": "uint256"
        }
      ],
      "name": "getAvailableAndRetired",
      "outputs": [
        {
          "internalType": "uint256",
          "name": "",
          "type": "uint256"
        },
        {
          "internalType": "uint256",
          "name": "",
          "type": "uint256"
        }
      ],
      "stateMutability": "view",
      "type": "function"
    },
    {
      "inputs": [
        {
          "internalType": "uint256",
          "name": "tokenId",
          "type": "uint256"
        }
      ],
      "name": "getHolders",
      "outputs": [
        {
          "internalType": "address[]",
          "name": "",
          "type": "address[]"
        }
      ],
      "stateMutability": "view",
      "type": "function"
    },
    {
      "inputs": [
        {
          "internalType": "uint256",
          "name": "tokenId",
          "type": "uint256"
        }
      ],
      "name": "getIssuer",
      "outputs": [
        {
          "internalType": "address",
          "name": "",
          "type": "address"
        }
      ],
      "stateMutability": "view",
      "type": "function"
    },
    {
      "inputs": [],
      "name": "getNumOfUniqueTokens",
      "outputs": [
        {
          "internalType": "uint256",
          "name": "",
          "type": "uint256"
        }
      ],
      "stateMutability": "view",
      "type": "function"
    },
    {
      "inputs": [
        {
          "internalType": "bytes32",
          "name": "role",
          "type": "bytes32"
        }
      ],
      "name": "getRoleAdmin",
      "outputs": [
        {
          "internalType": "bytes32",
          "name": "",
          "type": "bytes32"
        }
      ],
      "stateMutability": "view",
      "type": "function"
    },
    {
      "inputs": [
        {
          "internalType": "bytes32",
          "name": "role",
          "type": "bytes32"
        },
        {
          "internalType": "uint256",
          "name": "index",
          "type": "uint256"
        }
      ],
      "name": "getRoleMember",
      "outputs": [
        {
          "internalType": "address",
          "name": "",
          "type": "address"
        }
      ],
      "stateMutability": "view",
      "type": "function"
    },
    {
      "inputs": [
        {
          "internalType": "bytes32",
          "name": "role",
          "type": "bytes32"
        }
      ],
      "name": "getRoleMemberCount",
      "outputs": [
        {
          "internalType": "uint256",
          "name": "",
          "type": "uint256"
        }
      ],
      "stateMutability": "view",
      "type": "function"
    },
    {
      "inputs": [
        {
          "internalType": "address",
          "name": "account",
          "type": "address"
        }
      ],
      "name": "getRoles",
      "outputs": [
        {
          "internalType": "bool",
          "name": "",
          "type": "bool"
        },
        {
          "internalType": "bool",
          "name": "",
          "type": "bool"
        },
        {
          "internalType": "bool",
          "name": "",
          "type": "bool"
        },
        {
          "internalType": "bool",
          "name": "",
          "type": "bool"
        },
        {
          "internalType": "bool",
          "name": "",
          "type": "bool"
        }
      ],
      "stateMutability": "view",
      "type": "function"
    },
    {
      "inputs": [
        {
          "internalType": "uint256",
          "name": "tokenId",
          "type": "uint256"
        }
      ],
      "name": "getTokenDetails",
      "outputs": [
        {
          "components": [
            {
              "internalType": "uint256",
              "name": "tokenId",
              "type": "uint256"
            },
            {
              "internalType": "uint8",
              "name": "tokenTypeId",
              "type": "uint8"
            },
            {
              "internalType": "address",
              "name": "issuer",
              "type": "address"
            },
            {
              "internalType": "address",
              "name": "issuee",
              "type": "address"
            },
            {
              "internalType": "uint256",
              "name": "fromDate",
              "type": "uint256"
            },
            {
              "internalType": "uint256",
              "name": "thruDate",
              "type": "uint256"
            },
            {
              "internalType": "uint256",
              "name": "dateCreated",
              "type": "uint256"
            },
            {
              "internalType": "uint256",
              "name": "automaticRetireDate",
              "type": "uint256"
            },
            {
              "internalType": "string",
              "name": "metadata",
              "type": "string"
            },
            {
              "internalType": "string",
              "name": "manifest",
              "type": "string"
            },
            {
              "internalType": "string",
              "name": "description",
              "type": "string"
            }
          ],
          "internalType": "struct NetEmissionsTokenNetwork.Clm8TokenReturnDetails",
          "name": "",
          "type": "tuple"
        }
      ],
      "stateMutability": "view",
      "type": "function"
    },
    {
      "inputs": [
        {
          "internalType": "address",
          "name": "account",
          "type": "address"
        },
        {
          "internalType": "uint256",
          "name": "tokenId",
          "type": "uint256"
        }
      ],
      "name": "getTokenRetiredAmount",
      "outputs": [
        {
          "internalType": "uint256",
          "name": "",
          "type": "uint256"
        }
      ],
      "stateMutability": "view",
      "type": "function"
    },
    {
      "inputs": [
        {
          "internalType": "uint256",
          "name": "tokenId",
          "type": "uint256"
        }
      ],
      "name": "getTokenType",
      "outputs": [
        {
          "internalType": "string",
          "name": "",
          "type": "string"
        }
      ],
      "stateMutability": "view",
      "type": "function"
    },
    {
      "inputs": [
        {
          "internalType": "bytes32",
          "name": "role",
          "type": "bytes32"
        },
        {
          "internalType": "address",
          "name": "account",
          "type": "address"
        }
      ],
      "name": "grantRole",
      "outputs": [],
      "stateMutability": "nonpayable",
      "type": "function"
    },
    {
      "inputs": [
        {
          "internalType": "bytes32",
          "name": "role",
          "type": "bytes32"
        },
        {
          "internalType": "address",
          "name": "account",
          "type": "address"
        }
      ],
      "name": "hasRole",
      "outputs": [
        {
          "internalType": "bool",
          "name": "",
          "type": "bool"
        }
      ],
      "stateMutability": "view",
      "type": "function"
    },
    {
      "inputs": [
        {
          "internalType": "address",
          "name": "account",
          "type": "address"
        },
        {
          "internalType": "address",
          "name": "operator",
          "type": "address"
        }
      ],
      "name": "isApprovedForAll",
      "outputs": [
        {
          "internalType": "bool",
          "name": "",
          "type": "bool"
        }
      ],
      "stateMutability": "view",
      "type": "function"
    },
    {
      "inputs": [
        {
          "internalType": "address",
          "name": "account",
          "type": "address"
        }
      ],
      "name": "isConsumerRegistered",
      "outputs": [
        {
          "internalType": "bool",
          "name": "",
          "type": "bool"
        }
      ],
      "stateMutability": "view",
      "type": "function"
    },
    {
      "inputs": [
        {
          "internalType": "address",
          "name": "account",
          "type": "address"
        }
      ],
      "name": "isDealerRegistered",
      "outputs": [
        {
          "internalType": "bool",
          "name": "",
          "type": "bool"
        }
      ],
      "stateMutability": "view",
      "type": "function"
    },
    {
      "inputs": [
        {
          "internalType": "address",
          "name": "issuee",
          "type": "address"
        },
        {
          "internalType": "uint8",
          "name": "tokenTypeId",
          "type": "uint8"
        },
        {
          "internalType": "uint256",
          "name": "quantity",
          "type": "uint256"
        },
        {
          "internalType": "uint256",
          "name": "fromDate",
          "type": "uint256"
        },
        {
          "internalType": "uint256",
          "name": "thruDate",
          "type": "uint256"
        },
        {
          "internalType": "uint256",
          "name": "automaticRetireDate",
          "type": "uint256"
        },
        {
          "internalType": "string",
          "name": "metadata",
          "type": "string"
        },
        {
          "internalType": "string",
          "name": "manifest",
          "type": "string"
        },
        {
          "internalType": "string",
          "name": "description",
          "type": "string"
        }
      ],
      "name": "issue",
      "outputs": [],
      "stateMutability": "nonpayable",
      "type": "function"
    },
    {
      "inputs": [
        {
          "internalType": "address",
          "name": "issuee",
          "type": "address"
        },
        {
          "internalType": "address",
          "name": "issuer",
          "type": "address"
        },
        {
          "internalType": "uint8",
          "name": "tokenTypeId",
          "type": "uint8"
        },
        {
          "internalType": "uint256",
          "name": "quantity",
          "type": "uint256"
        },
        {
          "internalType": "uint256",
          "name": "fromDate",
          "type": "uint256"
        },
        {
          "internalType": "uint256",
          "name": "thruDate",
          "type": "uint256"
        },
        {
          "internalType": "uint256",
          "name": "automaticRetireDate",
          "type": "uint256"
        },
        {
          "internalType": "string",
          "name": "metadata",
          "type": "string"
        },
        {
          "internalType": "string",
          "name": "manifest",
          "type": "string"
        },
        {
          "internalType": "string",
          "name": "description",
          "type": "string"
        }
      ],
      "name": "issueOnBehalf",
      "outputs": [],
      "stateMutability": "nonpayable",
      "type": "function"
    },
    {
      "inputs": [
        {
          "internalType": "address",
          "name": "to",
          "type": "address"
        },
        {
          "internalType": "uint256",
          "name": "tokenId",
          "type": "uint256"
        },
        {
          "internalType": "uint256",
          "name": "quantity",
          "type": "uint256"
        }
      ],
      "name": "mint",
      "outputs": [],
      "stateMutability": "nonpayable",
      "type": "function"
    },
    {
      "inputs": [
        {
          "internalType": "address",
          "name": "account",
          "type": "address"
        }
      ],
      "name": "registerConsumer",
      "outputs": [],
      "stateMutability": "nonpayable",
      "type": "function"
    },
    {
      "inputs": [
        {
          "internalType": "address",
          "name": "account",
          "type": "address"
        },
        {
          "internalType": "uint8",
          "name": "tokenTypeId",
          "type": "uint8"
        }
      ],
      "name": "registerDealer",
      "outputs": [],
      "stateMutability": "nonpayable",
      "type": "function"
    },
    {
      "inputs": [
        {
          "internalType": "bytes32",
          "name": "role",
          "type": "bytes32"
        },
        {
          "internalType": "address",
          "name": "account",
          "type": "address"
        }
      ],
      "name": "renounceRole",
      "outputs": [],
      "stateMutability": "nonpayable",
      "type": "function"
    },
    {
      "inputs": [
        {
          "internalType": "uint256",
          "name": "tokenId",
          "type": "uint256"
        },
        {
          "internalType": "uint256",
          "name": "amount",
          "type": "uint256"
        }
      ],
      "name": "retire",
      "outputs": [],
      "stateMutability": "nonpayable",
      "type": "function"
    },
    {
      "inputs": [
        {
          "internalType": "bytes32",
          "name": "role",
          "type": "bytes32"
        },
        {
          "internalType": "address",
          "name": "account",
          "type": "address"
        }
      ],
      "name": "revokeRole",
      "outputs": [],
      "stateMutability": "nonpayable",
      "type": "function"
    },
    {
      "inputs": [
        {
          "internalType": "address",
          "name": "from",
          "type": "address"
        },
        {
          "internalType": "address",
          "name": "to",
          "type": "address"
        },
        {
          "internalType": "uint256[]",
          "name": "ids",
          "type": "uint256[]"
        },
        {
          "internalType": "uint256[]",
          "name": "amounts",
          "type": "uint256[]"
        },
        {
          "internalType": "bytes",
          "name": "data",
          "type": "bytes"
        }
      ],
      "name": "safeBatchTransferFrom",
      "outputs": [],
      "stateMutability": "nonpayable",
      "type": "function"
    },
    {
      "inputs": [
        {
          "internalType": "address",
          "name": "from",
          "type": "address"
        },
        {
          "internalType": "address",
          "name": "to",
          "type": "address"
        },
        {
          "internalType": "uint256",
          "name": "id",
          "type": "uint256"
        },
        {
          "internalType": "uint256",
          "name": "amount",
          "type": "uint256"
        },
        {
          "internalType": "bytes",
          "name": "data",
          "type": "bytes"
        }
      ],
      "name": "safeTransferFrom",
      "outputs": [],
      "stateMutability": "nonpayable",
      "type": "function"
    },
    {
      "inputs": [],
      "name": "selfDestruct",
      "outputs": [],
      "stateMutability": "nonpayable",
      "type": "function"
    },
    {
      "inputs": [
        {
          "internalType": "address",
          "name": "operator",
          "type": "address"
        },
        {
          "internalType": "bool",
          "name": "approved",
          "type": "bool"
        }
      ],
      "name": "setApprovalForAll",
      "outputs": [],
      "stateMutability": "nonpayable",
      "type": "function"
    },
    {
      "inputs": [
        {
          "internalType": "bool",
          "name": "_limitedMode",
          "type": "bool"
        }
      ],
      "name": "setLimitedMode",
      "outputs": [],
      "stateMutability": "nonpayable",
      "type": "function"
    },
    {
      "inputs": [
        {
          "internalType": "address",
          "name": "_timelock",
          "type": "address"
        }
      ],
      "name": "setTimelock",
      "outputs": [],
      "stateMutability": "nonpayable",
      "type": "function"
    },
    {
      "inputs": [
        {
          "internalType": "bytes4",
          "name": "interfaceId",
          "type": "bytes4"
        }
      ],
      "name": "supportsInterface",
      "outputs": [
        {
          "internalType": "bool",
          "name": "",
          "type": "bool"
        }
      ],
      "stateMutability": "view",
      "type": "function"
    },
    {
      "inputs": [
        {
          "internalType": "address",
          "name": "to",
          "type": "address"
        },
        {
          "internalType": "uint256",
          "name": "tokenId",
          "type": "uint256"
        },
        {
          "internalType": "uint256",
          "name": "value",
          "type": "uint256"
        }
      ],
      "name": "transfer",
      "outputs": [],
      "stateMutability": "nonpayable",
      "type": "function"
    },
    {
      "inputs": [
        {
          "internalType": "address",
          "name": "account",
          "type": "address"
        }
      ],
      "name": "unregisterConsumer",
      "outputs": [],
      "stateMutability": "nonpayable",
      "type": "function"
    },
    {
      "inputs": [
        {
          "internalType": "address",
          "name": "account",
          "type": "address"
        },
        {
          "internalType": "uint8",
          "name": "tokenTypeId",
          "type": "uint8"
        }
      ],
      "name": "unregisterDealer",
      "outputs": [],
      "stateMutability": "nonpayable",
      "type": "function"
    },
    {
      "inputs": [
        {
          "internalType": "uint256",
          "name": "",
          "type": "uint256"
        }
      ],
      "name": "uri",
      "outputs": [
        {
          "internalType": "string",
          "name": "",
          "type": "string"
        }
      ],
      "stateMutability": "view",
      "type": "function"
    }
  ],
  "bytecode": "0x600880546001600160a01b0319169055601c60e09081527f52656e657761626c6520456e657267792043657274696669636174650000000061010052608090815260176101209081527f436172626f6e20456d697373696f6e73204f66667365740000000000000000006101405260a0526101a06040526011610160908152704175646974656420456d697373696f6e7360781b6101805260c052620000aa90600a906003620003f6565b50348015620000b857600080fd5b5060405162004b1638038062004b16833981016040819052620000db916200055e565b604080516020810190915260008152620000fc6301ffc9a760e01b62000224565b62000107816200027f565b62000119636cdb3d1360e11b62000224565b6200012b6303a24d0760e21b62000224565b50620001677f5e1aa547d3dade8c68b013a47ad41c2bcc9b9e4b0765b0fb616780e15786e76a60008051602062004af683398151915262000298565b62000174600082620002ea565b6200018f60008051602062004af683398151915282620002ea565b620001bb7f2ab9f1da92e74aaa01eb75a871557505b11dd8d36832a34bb21bbee88b08d86082620002ea565b620001e77fede6574deba8f02ada7888448a497b08844d62e044ed533343a673be3ffcde5f82620002ea565b620002137fe97dad3dbe5042e7384b1572cf966a15e089576a62b5126c5ef1d184ab18b12c82620002ea565b506005805460ff19169055620005c5565b6001600160e01b031980821614156200025a5760405162461bcd60e51b815260040162000251906200058e565b60405180910390fd5b6001600160e01b0319166000908152602081905260409020805460ff19166001179055565b8051620002949060039060208401906200045a565b5050565b600082815260046020526040808220600201549051839285917fbd79b86ffe0ab8e8776151514217cd7cacd52c909f66475c3af44e129f0b00ff9190a460009182526004602052604090912060020155565b62000294828260008281526004602090815260409091206200031791839062001e016200036b821b17901c565b156200029457620003276200038b565b6001600160a01b0316816001600160a01b0316837f2f8788117e7eff1d82e926ec794901d17c78024a50270940304540a733656f0d60405160405180910390a45050565b600062000382836001600160a01b0384166200038f565b90505b92915050565b3390565b60006200039d8383620003de565b620003d55750815460018181018455600084815260208082209093018490558454848252828601909352604090209190915562000385565b50600062000385565b60009081526001919091016020526040902054151590565b82805482825590600052602060002090810192821562000448579160200282015b82811115620004485782518051620004379184916020909101906200045a565b509160200191906001019062000417565b5062000456929150620004db565b5090565b828054600181600116156101000203166002900490600052602060002090601f016020900481019282601f106200049d57805160ff1916838001178555620004cd565b82800160010185558215620004cd579182015b82811115620004cd578251825591602001919060010190620004b0565b5062000456929150620004fc565b8082111562000456576000620004f2828262000513565b50600101620004db565b5b80821115620004565760008155600101620004fd565b50805460018160011615610100020316600290046000825580601f106200053b57506200055b565b601f0160209004906000526020600020908101906200055b9190620004fc565b50565b60006020828403121562000570578081fd5b81516001600160a01b038116811462000587578182fd5b9392505050565b6020808252601c908201527f4552433136353a20696e76616c696420696e7465726661636520696400000000604082015260600190565b61452180620005d56000396000f3fe608060405234801561001057600080fd5b50600436106102685760003560e01c806378e5c59211610151578063c1e03728116100c3578063e2e564f211610087578063e2e564f214610564578063e985e9c514610577578063f000be981461058a578063f242432a1461059d578063fcba7948146105b0578063fd0c4a9a146105b857610268565b8063c1e03728146104e7578063ca15c87314610507578063ce6ccfaf1461051a578063d547741f1461053e578063ddc3e6eb1461055157610268565b80639270786911610115578063927078691461047e5780639cb8a26a1461049e578063a0d975a7146104a6578063a217fddf146104b9578063a22cb465146104c1578063bdacb303146104d457610268565b806378e5c5921461040f5780637f157c9b146104175780639010d07c1461043857806391d148541461045857806392089c461461046b57610268565b80632f2ff15d116101ea5780634e1273f4116101ae5780634e1273f4146103a657806353dbe982146103c65780635ddb368f146103d957806369f7ef44146103e157806376aed2e1146103f457806376ce47551461040757610268565b80632f2ff15d1461034757806331aa4b201461035a57806333781a0e1461036d57806336568abe1461038057806344b22fdd1461039357610268565b806318a50d7e1161023157806318a50d7e146102fe5780631ef68ef714610306578063248a9ca31461030e578063293a7f2e146103215780632eb2c2d61461033457610268565b8062fdd58e1461026d57806301ffc9a714610296578063095bcdb6146102b65780630e89341c146102cb578063156e29f6146102eb575b600080fd5b61028061027b366004612f3a565b6105cb565b60405161028d91906134ce565b60405180910390f35b6102a96102a43660046131d0565b610627565b60405161028d919061349a565b6102c96102c4366004612f64565b61064a565b005b6102de6102d9366004613173565b61076f565b60405161028d91906134d7565b6102c96102f9366004612f64565b610807565b610280610896565b6102806108ba565b61028061031c366004613173565b6108cc565b6102c961032f3660046131af565b6108e1565b6102c9610342366004612d0e565b610a62565b6102c961035536600461318b565b610c7c565b6102c9610368366004612f97565b610cc4565b6102a961037b366004612cbf565b610dd7565b6102c961038e36600461318b565b610df1565b6102c96103a1366004612cbf565b610e33565b6103b96103b4366004613091565b610f38565b60405161028d9190613459565b6102c96103d4366004612cbf565b611078565b61028061117d565b6102a96103ef366004612cbf565b61118f565b6102de610402366004613173565b611211565b6102806112ff565b610280611311565b61042a610425366004612f3a565b611323565b60405161028d92919061425f565b61044b6104463660046131af565b6113ba565b60405161028d919061333c565b6102a961046636600461318b565b6113d9565b61044b610479366004613173565b6113f1565b61049161048c366004613173565b611414565b60405161028d919061340c565b6102c96114df565b6102806104b4366004612f3a565b611509565b610280611558565b6102c96104cf366004612eff565b61155d565b6102c96104e2366004612cbf565b61162b565b6104fa6104f5366004613173565b611674565b60405161028d9190614187565b610280610515366004613173565b6118ce565b61052d610528366004612cbf565b6118e5565b60405161028d9594939291906134a5565b6102c961054c36600461318b565b611979565b6102c961055f366004613153565b6119b3565b6102c9610572366004612f97565b6119ed565b6102a9610585366004612cda565b611b0d565b6102c9610598366004612e1d565b611b3b565b6102c96105ab366004612db8565b611bba565b610280611d4e565b6102c96105c6366004612fc2565b611d60565b60006001600160a01b0383166105fc5760405162461bcd60e51b81526004016105f3906136ae565b60405180910390fd5b5060008181526001602090815260408083206001600160a01b03861684529091529020545b92915050565b6001600160e01b0319811660009081526020819052604090205460ff165b919050565b6000610664600080516020614462833981519152336113d9565b905060006106806000805160206144ac833981519152336113d9565b9050600061069c600080516020614442833981519152336113d9565b905060006106b86000805160206144cc833981519152336113d9565b905083806106c35750825b806106cb5750815b806106d35750805b6106ef5760405162461bcd60e51b81526004016105f390614097565b6106f886611e16565b6107145760405162461bcd60e51b81526004016105f390613d39565b336001600160a01b038816141561073d5760405162461bcd60e51b81526004016105f390613bbe565b61076633888888604051806040016040528060048152602001630307830360e41b815250611bba565b50505050505050565b60038054604080516020601f60026000196101006001881615020190951694909404938401819004810282018101909252828152606093909290918301828280156107fb5780601f106107d0576101008083540402835291602001916107fb565b820191906000526020600020905b8154815290600101906020018083116107de57829003601f168201915b50505050509050919050565b6108126000336113d9565b61082e5760405162461bcd60e51b81526004016105f3906139a4565b61083782611e16565b6108535760405162461bcd60e51b81526004016105f3906137c5565b60055460ff16156108765760405162461bcd60e51b81526004016105f390613c14565b61089183838360405180602001604052806000815250611e38565b505050565b7ff8890eedd7900ad88da6192fd03dbb69dbeee963b1a0ed738abe49ab3331aaf381565b60008051602061444283398151915281565b60009081526004602052604090206002015490565b60006108fb600080516020614462833981519152336113d9565b905060006109176000805160206144ac833981519152336113d9565b90506000610933600080516020614442833981519152336113d9565b9050600061094f6000805160206144cc833981519152336113d9565b9050838061095a5750825b806109625750815b8061096a5750805b6109865760405162461bcd60e51b81526004016105f390614097565b61098f86611e16565b6109ab5760405162461bcd60e51b81526004016105f39061374a565b6109b533876105cb565b8511156109d45760405162461bcd60e51b81526004016105f390613a90565b6109df338787611f23565b6000868152600760209081526040808320338452909152902054610a039086612039565b60008781526007602090815260408083203380855292529182902092909255517f8f1b5ebb586d3d169e4ed07db9cd10ce0dd30c7b656171310eae7517c0b53cf990610a52908990899061425f565b60405180910390a2505050505050565b8151835114610a835760405162461bcd60e51b81526004016105f39061400e565b6001600160a01b038416610aa95760405162461bcd60e51b81526004016105f390613ae4565b610ab161205e565b6001600160a01b0316856001600160a01b03161480610ad75750610ad78561058561205e565b610af35760405162461bcd60e51b81526004016105f390613b29565b6000610afd61205e565b9050610b0d818787878787612062565b60005b8451811015610c0e576000858281518110610b2757fe5b602002602001015190506000858381518110610b3f57fe5b60200260200101519050610bac816040518060600160405280602a8152602001614482602a91396001600086815260200190815260200160002060008d6001600160a01b03166001600160a01b03168152602001908152602001600020546121819092919063ffffffff16565b60008381526001602090815260408083206001600160a01b038e811685529252808320939093558a1681522054610be39082612039565b60009283526001602081815260408086206001600160a01b038d168752909152909320555001610b10565b50846001600160a01b0316866001600160a01b0316826001600160a01b03167f4a39dc06d4c0dbc64b70af90fd698a233a518aa5d07e595d983b8c0526c8f7fb8787604051610c5e92919061346c565b60405180910390a4610c748187878787876121ad565b505050505050565b600082815260046020526040902060020154610c9a9061046661205e565b610cb65760405162461bcd60e51b81526004016105f3906135c8565b610cc082826122bb565b5050565b610ccf6000336113d9565b610ceb5760405162461bcd60e51b81526004016105f3906139a4565b610cf481612324565b610d105760405162461bcd60e51b81526004016105f390613c66565b8060ff1660011415610d3957610d346000805160206144ac83398151915283610c7c565b610d75565b8060ff1660021415610d5d57610d3460008051602061444283398151915283610c7c565b610d756000805160206144cc83398151915283610c7c565b610d9f7ff8890eedd7900ad88da6192fd03dbb69dbeee963b1a0ed738abe49ab3331aaf383610c7c565b6040516001600160a01b038316907fa8377deee15954185683d55effd369508b4935978c8cb2bab790bf04c570181490600090a25050565b6000610621600080516020614462833981519152836113d9565b610df961205e565b6001600160a01b0316816001600160a01b031614610e295760405162461bcd60e51b81526004016105f390614138565b610cc0828261234a565b6000610e4d6000805160206144ac833981519152336113d9565b90506000610e69600080516020614442833981519152336113d9565b90506000610e856000805160206144cc833981519152336113d9565b90508280610e905750815b80610e985750805b610eb45760405162461bcd60e51b81526004016105f390613617565b60055460ff1615610ee657610eca6000336113d9565b610ee65760405162461bcd60e51b81526004016105f390613d7f565b610efe60008051602061446283398151915285610c7c565b6040516001600160a01b038516907f69a0adee259d26fe61f4776f7bea7f3a9737c7321256821b985f988545efd31990600090a250505050565b60608151835114610f5b5760405162461bcd60e51b81526004016105f390613f75565b6060835167ffffffffffffffff81118015610f7557600080fd5b50604051908082528060200260200182016040528015610f9f578160200160208202803683370190505b50905060005b84518110156110705760006001600160a01b0316858281518110610fc557fe5b60200260200101516001600160a01b03161415610ff45760405162461bcd60e51b81526004016105f3906136f9565b6001600085838151811061100457fe5b60200260200101518152602001908152602001600020600086838151811061102857fe5b60200260200101516001600160a01b03166001600160a01b031681526020019081526020016000205482828151811061105d57fe5b6020908102919091010152600101610fa5565b509392505050565b60006110926000805160206144ac833981519152336113d9565b905060006110ae600080516020614442833981519152336113d9565b905060006110ca6000805160206144cc833981519152336113d9565b905082806110d55750815b806110dd5750805b6110f95760405162461bcd60e51b81526004016105f390613617565b60055460ff161561112b5761110f6000336113d9565b61112b5760405162461bcd60e51b81526004016105f3906138a2565b61114360008051602061446283398151915285611979565b6040516001600160a01b038516907f03a38088da75ee2d80f6c753f55f8fd17602ae17d8bd0ef44d5e1f28ab5af11f90600090a250505050565b600061118960096123b3565b90505b90565b6000806111aa6000805160206144ac833981519152846113d9565b905060006111c6600080516020614442833981519152856113d9565b905060006111e26000805160206144cc833981519152866113d9565b905082806111ed5750815b806111f55750805b156112065760019350505050610645565b506000949350505050565b606061121c82611e16565b6112385760405162461bcd60e51b81526004016105f39061395a565b600082815260066020526040902060010154600a805460609260001960ff918216011690811061126457fe5b600091825260209182902001805460408051601f60026000196101006001871615020190941693909304928301859004850281018501909152818152928301828280156112f25780601f106112c7576101008083540402835291602001916112f2565b820191906000526020600020905b8154815290600101906020018083116112d557829003601f168201915b5093979650505050505050565b6000805160206144cc83398151915281565b60008051602061446283398151915281565b600080600061133285856105cb565b60405163a0d975a760e01b8152909150600090309063a0d975a79061135d90899089906004016133f3565b60206040518083038186803b15801561137557600080fd5b505afa158015611389573d6000803e3d6000fd5b505050506040513d601f19601f820116820180604052508101906113ad9190613208565b9196919550909350505050565b60008281526004602052604081206113d290836123b7565b9392505050565b60008281526004602052604081206113d290836123c3565b60009081526006602052604090206001015461010090046001600160a01b031690565b6000818152600660205260409020600a81015460609190829060ff1667ffffffffffffffff8111801561144657600080fd5b50604051908082528060200260200182016040528015611470578160200160208202803683370190505b50905060015b600a83015460ff908116908216116110705760ff8082166000908152600b8501602052604090205483516001600160a01b0390911691849160001985019091169081106114bf57fe5b6001600160a01b0390921660209283029190910190910152600101611476565b6114ea6000336113d9565b6115065760405162461bcd60e51b81526004016105f3906139a4565b30ff5b600061151482611e16565b6115305760405162461bcd60e51b81526004016105f390613e92565b5060009081526007602090815260408083206001600160a01b03949094168352929052205490565b600081565b816001600160a01b031661156f61205e565b6001600160a01b031614156115965760405162461bcd60e51b81526004016105f390613f2c565b80600260006115a361205e565b6001600160a01b03908116825260208083019390935260409182016000908120918716808252919093529120805460ff1916921515929092179091556115e761205e565b6001600160a01b03167f17307eab39ab6107e8899845ad3d59bd9653f200f220920489ca2b5937696c318360405161161f919061349a565b60405180910390a35050565b6116366000336113d9565b6116525760405162461bcd60e51b81526004016105f3906139a4565b600880546001600160a01b0319166001600160a01b0392909216919091179055565b61167c612abe565b611684612abe565b60008381526006602081815260408084208054865260018082015460ff811688860152610100908190046001600160a01b039081168986015260028085015490911660608a0152600384015460808a0152600484015460a08a0152600584015460c08a01528387015460e08a0152968a9052948452600790910180548351928116159095026000190190941694909404601f8101839004830285018301909152808452908301828280156117795780601f1061174e57610100808354040283529160200191611779565b820191906000526020600020905b81548152906001019060200180831161175c57829003601f168201915b50505050506101008281019190915260008481526006602090815260409182902060080180548351600260018316159096026000190190911694909404601f8101839004830285018301909352828452919083018282801561181c5780601f106117f15761010080835404028352916020019161181c565b820191906000526020600020905b8154815290600101906020018083116117ff57829003601f168201915b50505050506101208201526000838152600660209081526040918290206009018054835160026001831615610100026000190190921691909104601f81018490048402820184019094528381529290918301828280156118bd5780601f10611892576101008083540402835291602001916118bd565b820191906000526020600020905b8154815290600101906020018083116118a057829003601f168201915b505050505061014082015292915050565b6000818152600460205260408120610621906123d8565b600080808080806118f681886113d9565b905060006119126000805160206144ac833981519152896113d9565b9050600061192e6000805160206144428339815191528a6113d9565b9050600061194a6000805160206144cc8339815191528b6113d9565b905060006119666000805160206144628339815191528c6113d9565b949b939a50919850965091945092505050565b6000828152600460205260409020600201546119979061046661205e565b610e295760405162461bcd60e51b81526004016105f390613a40565b6119be6000336113d9565b6119da5760405162461bcd60e51b81526004016105f3906139a4565b6005805460ff1916911515919091179055565b6119f86000336113d9565b611a145760405162461bcd60e51b81526004016105f3906139a4565b611a1d81612324565b611a395760405162461bcd60e51b81526004016105f390613807565b8060ff1660011415611a6257611a5d6000805160206144ac83398151915283611979565b611a9e565b8060ff1660021415611a8657611a5d60008051602061444283398151915283611979565b611a9e6000805160206144cc83398151915283611979565b611aa78261118f565b611ad557611ad57ff8890eedd7900ad88da6192fd03dbb69dbeee963b1a0ed738abe49ab3331aaf383611979565b6040516001600160a01b038316907f98552ded770f1d05a505572f3387c108dbc6b566ea3d49f83cff3d1f1c72a04290600090a25050565b6001600160a01b03918216600090815260026020908152604080832093909416825291909152205460ff1690565b60055460ff1615611b75576008546001600160a01b03163314611b705760405162461bcd60e51b81526004016105f39061390e565b611b9c565b611b806000336113d9565b611b9c5760405162461bcd60e51b81526004016105f390613660565b611bae8a8a8a8a8a8a8a8a8a8a6123e3565b50505050505050505050565b6001600160a01b038416611be05760405162461bcd60e51b81526004016105f390613ae4565b611be861205e565b6001600160a01b0316856001600160a01b03161480611c0e5750611c0e8561058561205e565b611c2a5760405162461bcd60e51b81526004016105f390613859565b6000611c3461205e565b9050611c54818787611c4588612818565b611c4e88612818565b87612062565b611c9b836040518060600160405280602a8152602001614482602a913960008781526001602090815260408083206001600160a01b038d1684529091529020549190612181565b60008581526001602090815260408083206001600160a01b038b81168552925280832093909355871681522054611cd29084612039565b60008581526001602090815260408083206001600160a01b03808b168086529190935292819020939093559151909188811691908416907fc3d58168c5ae7397731d063d5bbf3d657854427343f4c083240f7aacaa2d0f6290611d38908990899061425f565b60405180910390a4610c7481878787878761285c565b6000805160206144ac83398151915281565b6000611d7a6000805160206144ac833981519152336113d9565b90506000611d96600080516020614442833981519152336113d9565b90506000611db26000805160206144cc833981519152336113d9565b90508280611dbd5750815b80611dc55750805b611de15760405162461bcd60e51b81526004016105f390613617565b611df38c338d8d8d8d8d8d8d8d6123e3565b505050505050505050505050565b60006113d2836001600160a01b03841661292d565b600081611e2360096123b3565b10611e3057506001610645565b506000919050565b6001600160a01b038416611e5e5760405162461bcd60e51b81526004016105f390614056565b6000611e6861205e565b9050611e7a81600087611c4588612818565b60008481526001602090815260408083206001600160a01b0389168452909152902054611ea79084612039565b60008581526001602090815260408083206001600160a01b03808b16808652919093528184209490945551908416907fc3d58168c5ae7397731d063d5bbf3d657854427343f4c083240f7aacaa2d0f6290611f05908990899061425f565b60405180910390a4611f1c8160008787878761285c565b5050505050565b6001600160a01b038316611f495760405162461bcd60e51b81526004016105f390613b7b565b6000611f5361205e565b9050611f8381856000611f6587612818565b611f6e87612818565b60405180602001604052806000815250612062565b611fca8260405180606001604052806024815260200161441e6024913960008681526001602090815260408083206001600160a01b038b1684529091529020549190612181565b60008481526001602090815260408083206001600160a01b03808a16808652919093528184209490945551919291908416907fc3d58168c5ae7397731d063d5bbf3d657854427343f4c083240f7aacaa2d0f629061202b908890889061425f565b60405180910390a450505050565b6000828201838110156113d25760405162461bcd60e51b81526004016105f39061378e565b3390565b60055460ff16156120c9576008546001600160a01b038781169116148061208f575061208f6000876113d9565b806120ad57506120ad6000805160206144cc833981519152876113d9565b6120c95760405162461bcd60e51b81526004016105f390613cb6565b6001600160a01b0384166120dc57610c74565b60005b8351811015610766576000600660008684815181106120fa57fe5b60200260200101518152602001908152602001600020905061212f8686848151811061212257fe5b60200260200101516105cb565b61217857600a8101805460ff198116600160ff9283160182161791829055166000908152600b82016020526040902080546001600160a01b0319166001600160a01b0388161790555b506001016120df565b600081848411156121a55760405162461bcd60e51b81526004016105f391906134d7565b505050900390565b6121bf846001600160a01b0316612977565b15610c745760405163bc197c8160e01b81526001600160a01b0385169063bc197c81906121f89089908990889088908890600401613350565b602060405180830381600087803b15801561221257600080fd5b505af1925050508015612242575060408051601f3d908101601f1916820190925261223f918101906131ec565b60015b61228b5761224e61434a565b806122595750612273565b8060405162461bcd60e51b81526004016105f391906134d7565b60405162461bcd60e51b81526004016105f3906134ea565b6001600160e01b0319811663bc197c8160e01b146107665760405162461bcd60e51b81526004016105f390613580565b60008281526004602052604090206122d39082611e01565b15610cc0576122e061205e565b6001600160a01b0316816001600160a01b0316837f2f8788117e7eff1d82e926ec794901d17c78024a50270940304540a733656f0d60405160405180910390a45050565b6000808260ff1611801561233d5750600a5460ff831611155b15611e3057506001610645565b6000828152600460205260409020612362908261297d565b15610cc05761236f61205e565b6001600160a01b0316816001600160a01b0316837ff6391f5c32d9c69d2a47ea670b442974b53935d1edc7fd64eb21e047a839171b60405160405180910390a45050565b5490565b60006113d28383612992565b60006113d2836001600160a01b0384166129d7565b6000610621826123b3565b6123ec88612324565b6124085760405162461bcd60e51b81526004016105f3906140f4565b60055460ff1615612483578760ff166001148061242857508760ff166002145b1561247e576008546001600160a01b031633146124575760405162461bcd60e51b81526004016105f390613e44565b61246260008b6113d9565b61247e5760405162461bcd60e51b81526004016105f390613ee5565b612503565b8760ff16600114156124c3576124a76000805160206144ac8339815191528a6113d9565b61247e5760405162461bcd60e51b81526004016105f390613fbe565b8760ff1660021415612503576124e76000805160206144428339815191528a6113d9565b6125035760405162461bcd60e51b81526004016105f3906139ed565b8760ff1660031415612543576125276000805160206144cc8339815191528a6113d9565b6125435760405162461bcd60e51b81526004016105f390613de7565b61254d60096129ef565b60006006600061255d60096123b3565b8152602001908152602001600020905061257760096123b3565b8160000181905550888160010160006101000a81548160ff021916908360ff1602179055508a8160020160006101000a8154816001600160a01b0302191690836001600160a01b03160217905550898160010160016101000a8154816001600160a01b0302191690836001600160a01b031602179055508681600301819055508581600401819055508481600601819055504281600501819055508381600701908051906020019061262a929190612b2d565b5082516126409060088301906020860190612b2d565b5081516126569060098301906020850190612b2d565b5061267b8b61266560096123b3565b8a60405180602001604052806000815250611e38565b8860ff16600314156126ff57600281015481546126a2916001600160a01b0316908a611f23565b8054600090815260076020908152604080832060028501546001600160a01b031684529091529020546126d59089612039565b8154600090815260076020908152604080832060028601546001600160a01b031684529091529020555b8060020160009054906101000a90046001600160a01b03166001600160a01b03168160010160019054906101000a90046001600160a01b03166001600160a01b03167f99cc3eeb446560c9a2d2483bc5160735ec0fb1851aea3bde32e7a56c30c11da68a600760008660000154815260200190815260200160002060008660020160009054906101000a90046001600160a01b03166001600160a01b03166001600160a01b031681526020019081526020016000205485600001548660010160009054906101000a900460ff168760030154886004015489600601548a600501548b6007018c6008018d6009016040516128039b9a9998979695949392919061426d565b60405180910390a35050505050505050505050565b60408051600180825281830190925260609182919060208083019080368337019050509050828160008151811061284b57fe5b602090810291909101015292915050565b61286e846001600160a01b0316612977565b15610c745760405163f23a6e6160e01b81526001600160a01b0385169063f23a6e61906128a790899089908890889088906004016133ae565b602060405180830381600087803b1580156128c157600080fd5b505af19250505080156128f1575060408051601f3d908101601f191682019092526128ee918101906131ec565b60015b6128fd5761224e61434a565b6001600160e01b0319811663f23a6e6160e01b146107665760405162461bcd60e51b81526004016105f390613580565b600061293983836129d7565b61296f57508154600181810184556000848152602080822090930184905584548482528286019093526040902091909155610621565b506000610621565b3b151590565b60006113d2836001600160a01b0384166129f8565b815460009082106129b55760405162461bcd60e51b81526004016105f39061353e565b8260000182815481106129c457fe5b9060005260206000200154905092915050565b60009081526001919091016020526040902054151590565b80546001019055565b60008181526001830160205260408120548015612ab45783546000198083019190810190600090879083908110612a2b57fe5b9060005260206000200154905080876000018481548110612a4857fe5b600091825260208083209091019290925582815260018981019092526040902090840190558654879080612a7857fe5b60019003818190600052602060002001600090559055866001016000878152602001908152602001600020600090556001945050505050610621565b6000915050610621565b60405180610160016040528060008152602001600060ff16815260200160006001600160a01b0316815260200160006001600160a01b03168152602001600081526020016000815260200160008152602001600081526020016060815260200160608152602001606081525090565b828054600181600116156101000203166002900490600052602060002090601f016020900481019282601f10612b6e57805160ff1916838001178555612b9b565b82800160010185558215612b9b579182015b82811115612b9b578251825591602001919060010190612b80565b50612ba7929150612bab565b5090565b5b80821115612ba75760008155600101612bac565b80356001600160a01b038116811461062157600080fd5b600082601f830112612be7578081fd5b8135612bfa612bf582614318565b6142f1565b818152915060208083019084810181840286018201871015612c1b57600080fd5b60005b84811015612c3a57813584529282019290820190600101612c1e565b505050505092915050565b600082601f830112612c55578081fd5b813567ffffffffffffffff811115612c6b578182fd5b612c7e601f8201601f19166020016142f1565b9150808252836020828501011115612c9557600080fd5b8060208401602084013760009082016020015292915050565b803560ff8116811461062157600080fd5b600060208284031215612cd0578081fd5b6113d28383612bc0565b60008060408385031215612cec578081fd5b612cf68484612bc0565b9150612d058460208501612bc0565b90509250929050565b600080600080600060a08688031215612d25578081fd5b8535612d30816143ef565b94506020860135612d40816143ef565b9350604086013567ffffffffffffffff80821115612d5c578283fd5b612d6889838a01612bd7565b94506060880135915080821115612d7d578283fd5b612d8989838a01612bd7565b93506080880135915080821115612d9e578283fd5b50612dab88828901612c45565b9150509295509295909350565b600080600080600060a08688031215612dcf578081fd5b612dd98787612bc0565b9450612de88760208801612bc0565b93506040860135925060608601359150608086013567ffffffffffffffff811115612e11578182fd5b612dab88828901612c45565b6000806000806000806000806000806101408b8d031215612e3c578485fd5b612e468c8c612bc0565b9950612e558c60208d01612bc0565b9850612e648c60408d01612cae565b975060608b0135965060808b0135955060a08b0135945060c08b0135935060e08b013567ffffffffffffffff80821115612e9c578485fd5b612ea88e838f01612c45565b94506101008d0135915080821115612ebe578384fd5b612eca8e838f01612c45565b93506101208d0135915080821115612ee0578283fd5b50612eed8d828e01612c45565b9150509295989b9194979a5092959850565b60008060408385031215612f11578182fd5b612f1b8484612bc0565b915060208301358015158114612f2f578182fd5b809150509250929050565b60008060408385031215612f4c578182fd5b612f568484612bc0565b946020939093013593505050565b600080600060608486031215612f78578081fd5b612f828585612bc0565b95602085013595506040909401359392505050565b60008060408385031215612fa9578182fd5b612fb38484612bc0565b9150612d058460208501612cae565b60008060008060008060008060006101208a8c031215612fe0578283fd5b612fea8b8b612bc0565b9850612ff98b60208c01612cae565b975060408a0135965060608a0135955060808a0135945060a08a0135935060c08a013567ffffffffffffffff80821115613031578485fd5b61303d8d838e01612c45565b945060e08c0135915080821115613052578384fd5b61305e8d838e01612c45565b93506101008c0135915080821115613074578283fd5b506130818c828d01612c45565b9150509295985092959850929598565b600080604083850312156130a3578182fd5b823567ffffffffffffffff808211156130ba578384fd5b818501915085601f8301126130cd578384fd5b81356130db612bf582614318565b80828252602080830192508086018a8283870289010111156130fb578889fd5b8896505b84871015613125576131118b82612bc0565b8452600196909601959281019281016130ff565b50909650870135935050508082111561313c578283fd5b5061314985828601612bd7565b9150509250929050565b600060208284031215613164578081fd5b813580151581146113d2578182fd5b600060208284031215613184578081fd5b5035919050565b6000806040838503121561319d578182fd5b823591506020830135612f2f816143ef565b600080604083850312156131c1578182fd5b50508035926020909101359150565b6000602082840312156131e1578081fd5b81356113d281614407565b6000602082840312156131fd578081fd5b81516113d281614407565b600060208284031215613219578081fd5b5051919050565b6001600160a01b03169052565b6000815180845260208085019450808401835b8381101561325c57815187529582019590820190600101613240565b509495945050505050565b60008151808452815b8181101561328c57602081850181015186830182015201613270565b8181111561329d5782602083870101525b50601f01601f19169290920160200192915050565b600081546001808216600081146132d057600181146132ee5761332c565b60028304607f16865260ff198316602087015260408601935061332c565b600283048087526132fe86614338565b60005b828110156133225781546020828b0101528482019150602081019050613301565b8801602001955050505b50505092915050565b60ff169052565b6001600160a01b0391909116815260200190565b6001600160a01b0386811682528516602082015260a06040820181905260009061337c9083018661322d565b828103606084015261338e818661322d565b905082810360808401526133a28185613267565b98975050505050505050565b6001600160a01b03868116825285166020820152604081018490526060810183905260a0608082018190526000906133e890830184613267565b979650505050505050565b6001600160a01b03929092168252602082015260400190565b6020808252825182820181905260009190848201906040850190845b8181101561344d5783516001600160a01b031683529284019291840191600101613428565b50909695505050505050565b6000602082526113d2602083018461322d565b60006040825261347f604083018561322d565b8281036020840152613491818561322d565b95945050505050565b901515815260200190565b941515855292151560208501529015156040840152151560608301521515608082015260a00190565b90815260200190565b6000602082526113d26020830184613267565b60208082526034908201527f455243313135353a207472616e7366657220746f206e6f6e20455243313135356040820152732932b1b2b4bb32b91034b6b83632b6b2b73a32b960611b606082015260800190565b60208082526022908201527f456e756d657261626c655365743a20696e646578206f7574206f6620626f756e604082015261647360f01b606082015260800190565b60208082526028908201527f455243313135353a204552433131353552656365697665722072656a656374656040820152676420746f6b656e7360c01b606082015260800190565b6020808252602f908201527f416363657373436f6e74726f6c3a2073656e646572206d75737420626520616e60408201526e0818591b5a5b881d1bc819dc985b9d608a1b606082015260800190565b60208082526029908201527f434c4d383a3a6f6e6c794465616c65723a206d73672e73656e646572206e6f746040820152681030903232b0b632b960b91b606082015260800190565b6020808252602e908201527f434c4d383a3a69737375654f6e426568616c663a2063616c6c206d757374206360408201526d37b6b290333937b69030b236b4b760911b606082015260800190565b6020808252602b908201527f455243313135353a2062616c616e636520717565727920666f7220746865207a60408201526a65726f206164647265737360a81b606082015260800190565b60208082526031908201527f455243313135353a2062617463682062616c616e636520717565727920666f7260408201527020746865207a65726f206164647265737360781b606082015260800190565b60208082526024908201527f434c4d383a3a7265746972653a20746f6b656e496420646f6573206e6f7420656040820152631e1a5cdd60e21b606082015260800190565b6020808252601b908201527f536166654d6174683a206164646974696f6e206f766572666c6f770000000000604082015260600190565b60208082526022908201527f434c4d383a3a6d696e743a20746f6b656e496420646f6573206e6f74206578696040820152611cdd60f21b606082015260800190565b60208082526032908201527f434c4d383a3a756e72656769737465724465616c65723a20746f6b656e54797060408201527119525908191bd95cc81b9bdd08195e1a5cdd60721b606082015260800190565b60208082526029908201527f455243313135353a2063616c6c6572206973206e6f74206f776e6572206e6f7260408201526808185c1c1c9bdd995960ba1b606082015260800190565b60208082526046908201527f434c4d383a3a756e7265676973746572436f6e73756d6572286c696d6974656460408201527f293a206f6e6c792061646d696e2063616e20756e726567697374657220636f6e60608201526573756d65727360d01b608082015260a00190565b6020808252602c908201527f434c4d383a3a69737375654f6e426568616c663a2063616c6c206d757374206360408201526b6f6d652066726f6d2044414f60a01b606082015260800190565b6020808252602a908201527f434c4d383a3a676574546f6b656e547970653a20746f6b656e496420646f6573604082015269081b9bdd08195e1a5cdd60b21b606082015260800190565b60208082526029908201527f434c4d383a3a6f6e6c7941646d696e3a206d73672e73656e646572206e6f74206040820152683a34329030b236b4b760b91b606082015260800190565b60208082526033908201527f434c4d383a3a5f69737375653a20697373756572206e6f7420612072656769736040820152723a32b932b21037b33339b2ba103232b0b632b960691b606082015260800190565b60208082526030908201527f416363657373436f6e74726f6c3a2073656e646572206d75737420626520616e60408201526f2061646d696e20746f207265766f6b6560801b606082015260800190565b60208082526034908201527f434c4d383a3a7265746972653a206e6f7420656e6f75676820617661696c61626040820152736c652062616c616e636520746f2072657469726560601b606082015260800190565b60208082526025908201527f455243313135353a207472616e7366657220746f20746865207a65726f206164604082015264647265737360d81b606082015260800190565b60208082526032908201527f455243313135353a207472616e736665722063616c6c6572206973206e6f74206040820152711bdddb995c881b9bdc88185c1c1c9bdd995960721b606082015260800190565b60208082526023908201527f455243313135353a206275726e2066726f6d20746865207a65726f206164647260408201526265737360e81b606082015260800190565b60208082526036908201527f434c4d383a3a7472616e736665723a2073656e64657220616e642072656365696040820152757665722063616e6e6f74206265207468652073616d6560501b606082015260800190565b60208082526032908201527f434c4d383a3a6d696e743a2063616e6e6f74206d696e74206e657720746f6b656040820152716e7320696e206c696d69746564206d6f646560701b606082015260800190565b60208082526030908201527f434c4d383a3a72656769737465724465616c65723a20746f6b656e547970654960408201526f1908191bd95cc81b9bdd08195e1a5cdd60821b606082015260800190565b6020808252605a908201527f434c4d383a3a5f6265666f7265546f6b656e5472616e73666572286c696d697460408201527f6564293a206f6e6c792061646d696e20616e6420656d697373696f6e7320617560608201527f6469746f72732063616e207472616e7366657220746f6b656e73000000000000608082015260a00190565b60208082526026908201527f434c4d383a3a7472616e736665723a20746f6b656e496420646f6573206e6f7460408201526508195e1a5cdd60d21b606082015260800190565b60208082526042908201527f434c4d383a3a7265676973746572436f6e73756d6572286c696d69746564293a60408201527f206f6e6c792061646d696e2063616e20726567697374657220636f6e73756d65606082015261727360f01b608082015260a00190565b60208082526037908201527f434c4d383a3a5f69737375653a20697373756572206e6f74206120726567697360408201527f746572656420656d697373696f6e732061756469746f72000000000000000000606082015260800190565b6020808252602e908201527f434c4d383a3a5f6973737565286c696d69746564293a206d73672e73656e646560408201526d72206e6f742074696d656c6f636b60901b606082015260800190565b60208082526033908201527f434c4d383a3a676574546f6b656e52657469726564416d6f756e743a20746f6b604082015272195b925908191bd95cc81b9bdd08195e1a5cdd606a1b606082015260800190565b60208082526027908201527f434c4d383a3a5f6973737565286c696d69746564293a20697373756565206e6f6040820152663a1030b236b4b760c91b606082015260800190565b60208082526029908201527f455243313135353a2073657474696e6720617070726f76616c20737461747573604082015268103337b91039b2b63360b91b606082015260800190565b60208082526029908201527f455243313135353a206163636f756e747320616e6420696473206c656e677468604082015268040dad2e6dac2e8c6d60bb1b606082015260800190565b60208082526030908201527f434c4d383a3a5f69737375653a20697373756572206e6f74206120726567697360408201526f3a32b932b2102922a1903232b0b632b960811b606082015260800190565b60208082526028908201527f455243313135353a2069647320616e6420616d6f756e7473206c656e677468206040820152670dad2e6dac2e8c6d60c31b606082015260800190565b60208082526021908201527f455243313135353a206d696e7420746f20746865207a65726f206164647265736040820152607360f81b606082015260800190565b6020808252603d908201527f434c4d383a3a636f6e73756d65724f724465616c65723a206d73672e73656e6460408201527f6572206e6f74206120636f6e73756d6572206f722061206465616c6572000000606082015260800190565b60208082526024908201527f434c4d383a3a5f69737375653a20746f6b656e54797065496420697320696e76604082015263185b1a5960e21b606082015260800190565b6020808252602f908201527f416363657373436f6e74726f6c3a2063616e206f6e6c792072656e6f756e636560408201526e103937b632b9903337b91039b2b63360891b606082015260800190565b6000602082528251602083015260208301516141a66040840182613335565b5060408301516141b96060840182613220565b5060608301516141cc6080840182613220565b50608083015160a083015260a083015160c083015260c083015160e083015260e08301516101008181850152808501519150506101606101208181860152614218610180860184613267565b9250808601519050601f196101408187860301818801526142398584613267565b9088015187820390920184880152935090506142558382613267565b9695505050505050565b918252602082015260400190565b60006101608d83528c60208401528b604084015260ff8b1660608401528960808401528860a08401528760c08401528660e0840152806101008401526142b5818401876132b2565b90508281036101208401526142ca81866132b2565b90508281036101408401526142df81856132b2565b9e9d5050505050505050505050505050565b60405181810167ffffffffffffffff8111828210171561431057600080fd5b604052919050565b600067ffffffffffffffff82111561432e578081fd5b5060209081020190565b60009081526020902090565b60e01c90565b600060443d101561435a5761118c565b600481823e6308c379a061436e8251614344565b146143785761118c565b6040513d600319016004823e80513d67ffffffffffffffff81602484011181841117156143a8575050505061118c565b828401925082519150808211156143c2575050505061118c565b503d830160208284010111156143da5750505061118c565b601f01601f1916810160200160405291505090565b6001600160a01b038116811461440457600080fd5b50565b6001600160e01b03198116811461440457600080fdfe455243313135353a206275726e20616d6f756e7420657863656564732062616c616e6365ede6574deba8f02ada7888448a497b08844d62e044ed533343a673be3ffcde5f5e1aa547d3dade8c68b013a47ad41c2bcc9b9e4b0765b0fb616780e15786e76a455243313135353a20696e73756666696369656e742062616c616e636520666f72207472616e736665722ab9f1da92e74aaa01eb75a871557505b11dd8d36832a34bb21bbee88b08d860e97dad3dbe5042e7384b1572cf966a15e089576a62b5126c5ef1d184ab18b12ca264697066735822122086ee22b44140859ee74cc78364eb387dc4ed3c5f7c7d5c5eab1a94572441440f64736f6c63430007000033f8890eedd7900ad88da6192fd03dbb69dbeee963b1a0ed738abe49ab3331aaf3",
  "linkReferences": {},
  "deployedLinkReferences": {}
}