{
  "_format": "hh-sol-artifact-1",
  "contractName": "NetEmissionsTokenNetwork",
  "sourceName": "contracts/NetEmissionsTokenNetwork.sol",
  "abi": [
    {
      "inputs": [
        {
          "internalType": "address",
          "name": "_admin",
          "type": "address"
        }
      ],
      "stateMutability": "nonpayable",
      "type": "constructor"
    },
    {
      "anonymous": false,
      "inputs": [
        {
          "indexed": true,
          "internalType": "address",
          "name": "account",
          "type": "address"
        },
        {
          "indexed": true,
          "internalType": "address",
          "name": "operator",
          "type": "address"
        },
        {
          "indexed": false,
          "internalType": "bool",
          "name": "approved",
          "type": "bool"
        }
      ],
      "name": "ApprovalForAll",
      "type": "event"
    },
    {
      "anonymous": false,
      "inputs": [
        {
          "indexed": true,
          "internalType": "address",
          "name": "account",
          "type": "address"
        }
      ],
      "name": "RegisteredConsumer",
      "type": "event"
    },
    {
      "anonymous": false,
      "inputs": [
        {
          "indexed": true,
          "internalType": "address",
          "name": "account",
          "type": "address"
        }
      ],
      "name": "RegisteredDealer",
      "type": "event"
    },
    {
      "anonymous": false,
      "inputs": [
        {
          "indexed": true,
          "internalType": "bytes32",
          "name": "role",
          "type": "bytes32"
        },
        {
          "indexed": true,
          "internalType": "bytes32",
          "name": "previousAdminRole",
          "type": "bytes32"
        },
        {
          "indexed": true,
          "internalType": "bytes32",
          "name": "newAdminRole",
          "type": "bytes32"
        }
      ],
      "name": "RoleAdminChanged",
      "type": "event"
    },
    {
      "anonymous": false,
      "inputs": [
        {
          "indexed": true,
          "internalType": "bytes32",
          "name": "role",
          "type": "bytes32"
        },
        {
          "indexed": true,
          "internalType": "address",
          "name": "account",
          "type": "address"
        },
        {
          "indexed": true,
          "internalType": "address",
          "name": "sender",
          "type": "address"
        }
      ],
      "name": "RoleGranted",
      "type": "event"
    },
    {
      "anonymous": false,
      "inputs": [
        {
          "indexed": true,
          "internalType": "bytes32",
          "name": "role",
          "type": "bytes32"
        },
        {
          "indexed": true,
          "internalType": "address",
          "name": "account",
          "type": "address"
        },
        {
          "indexed": true,
          "internalType": "address",
          "name": "sender",
          "type": "address"
        }
      ],
      "name": "RoleRevoked",
      "type": "event"
    },
    {
      "anonymous": false,
      "inputs": [
        {
          "indexed": false,
          "internalType": "uint256",
          "name": "availableBalance",
          "type": "uint256"
        },
        {
          "indexed": false,
          "internalType": "uint256",
          "name": "retiredBalance",
          "type": "uint256"
        },
        {
          "indexed": false,
          "internalType": "uint256",
          "name": "tokenId",
          "type": "uint256"
        },
        {
          "indexed": false,
          "internalType": "uint8",
          "name": "tokenTypeId",
          "type": "uint8"
        },
        {
          "indexed": true,
          "internalType": "address",
          "name": "issuer",
          "type": "address"
        },
        {
          "indexed": true,
          "internalType": "address",
          "name": "issuee",
          "type": "address"
        },
        {
          "indexed": false,
          "internalType": "uint256",
          "name": "fromDate",
          "type": "uint256"
        },
        {
          "indexed": false,
          "internalType": "uint256",
          "name": "thruDate",
          "type": "uint256"
        },
        {
          "indexed": false,
          "internalType": "uint256",
          "name": "dateCreated",
          "type": "uint256"
        },
        {
          "indexed": false,
          "internalType": "uint256",
          "name": "automaticRetireDate",
          "type": "uint256"
        },
        {
          "indexed": false,
          "internalType": "string",
          "name": "metadata",
          "type": "string"
        },
        {
          "indexed": false,
          "internalType": "string",
          "name": "manifest",
          "type": "string"
        },
        {
          "indexed": false,
          "internalType": "string",
          "name": "description",
          "type": "string"
        }
      ],
      "name": "TokenCreated",
      "type": "event"
    },
    {
      "anonymous": false,
      "inputs": [
        {
          "indexed": true,
          "internalType": "address",
          "name": "account",
          "type": "address"
        },
        {
          "indexed": false,
          "internalType": "uint256",
          "name": "tokenId",
          "type": "uint256"
        },
        {
          "indexed": false,
          "internalType": "uint256",
          "name": "amount",
          "type": "uint256"
        }
      ],
      "name": "TokenRetired",
      "type": "event"
    },
    {
      "anonymous": false,
      "inputs": [
        {
          "indexed": true,
          "internalType": "address",
          "name": "operator",
          "type": "address"
        },
        {
          "indexed": true,
          "internalType": "address",
          "name": "from",
          "type": "address"
        },
        {
          "indexed": true,
          "internalType": "address",
          "name": "to",
          "type": "address"
        },
        {
          "indexed": false,
          "internalType": "uint256[]",
          "name": "ids",
          "type": "uint256[]"
        },
        {
          "indexed": false,
          "internalType": "uint256[]",
          "name": "values",
          "type": "uint256[]"
        }
      ],
      "name": "TransferBatch",
      "type": "event"
    },
    {
      "anonymous": false,
      "inputs": [
        {
          "indexed": true,
          "internalType": "address",
          "name": "operator",
          "type": "address"
        },
        {
          "indexed": true,
          "internalType": "address",
          "name": "from",
          "type": "address"
        },
        {
          "indexed": true,
          "internalType": "address",
          "name": "to",
          "type": "address"
        },
        {
          "indexed": false,
          "internalType": "uint256",
          "name": "id",
          "type": "uint256"
        },
        {
          "indexed": false,
          "internalType": "uint256",
          "name": "value",
          "type": "uint256"
        }
      ],
      "name": "TransferSingle",
      "type": "event"
    },
    {
      "anonymous": false,
      "inputs": [
        {
          "indexed": false,
          "internalType": "string",
          "name": "value",
          "type": "string"
        },
        {
          "indexed": true,
          "internalType": "uint256",
          "name": "id",
          "type": "uint256"
        }
      ],
      "name": "URI",
      "type": "event"
    },
    {
      "anonymous": false,
      "inputs": [
        {
          "indexed": true,
          "internalType": "address",
          "name": "account",
          "type": "address"
        }
      ],
      "name": "UnregisteredConsumer",
      "type": "event"
    },
    {
      "anonymous": false,
      "inputs": [
        {
          "indexed": true,
          "internalType": "address",
          "name": "account",
          "type": "address"
        }
      ],
      "name": "UnregisteredDealer",
      "type": "event"
    },
    {
      "inputs": [],
      "name": "DEFAULT_ADMIN_ROLE",
      "outputs": [
        {
          "internalType": "bytes32",
          "name": "",
          "type": "bytes32"
        }
      ],
      "stateMutability": "view",
      "type": "function"
    },
    {
      "inputs": [],
      "name": "REGISTERED_CONSUMER",
      "outputs": [
        {
          "internalType": "bytes32",
          "name": "",
          "type": "bytes32"
        }
      ],
      "stateMutability": "view",
      "type": "function"
    },
    {
      "inputs": [],
      "name": "REGISTERED_DEALER",
      "outputs": [
        {
          "internalType": "bytes32",
          "name": "",
          "type": "bytes32"
        }
      ],
      "stateMutability": "view",
      "type": "function"
    },
    {
      "inputs": [],
      "name": "REGISTERED_EMISSIONS_AUDITOR",
      "outputs": [
        {
          "internalType": "bytes32",
          "name": "",
          "type": "bytes32"
        }
      ],
      "stateMutability": "view",
      "type": "function"
    },
    {
      "inputs": [],
      "name": "REGISTERED_OFFSET_DEALER",
      "outputs": [
        {
          "internalType": "bytes32",
          "name": "",
          "type": "bytes32"
        }
      ],
      "stateMutability": "view",
      "type": "function"
    },
    {
      "inputs": [],
      "name": "REGISTERED_REC_DEALER",
      "outputs": [
        {
          "internalType": "bytes32",
          "name": "",
          "type": "bytes32"
        }
      ],
      "stateMutability": "view",
      "type": "function"
    },
    {
      "inputs": [],
      "name": "admin",
      "outputs": [
        {
          "internalType": "address",
          "name": "",
          "type": "address"
        }
      ],
      "stateMutability": "view",
      "type": "function"
    },
    {
      "inputs": [
        {
          "internalType": "address",
          "name": "account",
          "type": "address"
        },
        {
          "internalType": "uint256",
          "name": "id",
          "type": "uint256"
        }
      ],
      "name": "balanceOf",
      "outputs": [
        {
          "internalType": "uint256",
          "name": "",
          "type": "uint256"
        }
      ],
      "stateMutability": "view",
      "type": "function"
    },
    {
      "inputs": [
        {
          "internalType": "address[]",
          "name": "accounts",
          "type": "address[]"
        },
        {
          "internalType": "uint256[]",
          "name": "ids",
          "type": "uint256[]"
        }
      ],
      "name": "balanceOfBatch",
      "outputs": [
        {
          "internalType": "uint256[]",
          "name": "",
          "type": "uint256[]"
        }
      ],
      "stateMutability": "view",
      "type": "function"
    },
    {
      "inputs": [
        {
          "internalType": "address",
          "name": "account",
          "type": "address"
        },
        {
          "internalType": "uint256",
          "name": "tokenId",
          "type": "uint256"
        }
      ],
      "name": "getAvailableAndRetired",
      "outputs": [
        {
          "internalType": "uint256",
          "name": "",
          "type": "uint256"
        },
        {
          "internalType": "uint256",
          "name": "",
          "type": "uint256"
        }
      ],
      "stateMutability": "view",
      "type": "function"
    },
    {
      "inputs": [
        {
          "internalType": "uint256",
          "name": "tokenId",
          "type": "uint256"
        }
      ],
      "name": "getHolders",
      "outputs": [
        {
          "internalType": "address[]",
          "name": "",
          "type": "address[]"
        }
      ],
      "stateMutability": "view",
      "type": "function"
    },
    {
      "inputs": [
        {
          "internalType": "uint256",
          "name": "tokenId",
          "type": "uint256"
        }
      ],
      "name": "getIssuer",
      "outputs": [
        {
          "internalType": "address",
          "name": "",
          "type": "address"
        }
      ],
      "stateMutability": "view",
      "type": "function"
    },
    {
      "inputs": [],
      "name": "getNumOfUniqueTokens",
      "outputs": [
        {
          "internalType": "uint256",
          "name": "",
          "type": "uint256"
        }
      ],
      "stateMutability": "view",
      "type": "function"
    },
    {
      "inputs": [
        {
          "internalType": "bytes32",
          "name": "role",
          "type": "bytes32"
        }
      ],
      "name": "getRoleAdmin",
      "outputs": [
        {
          "internalType": "bytes32",
          "name": "",
          "type": "bytes32"
        }
      ],
      "stateMutability": "view",
      "type": "function"
    },
    {
      "inputs": [
        {
          "internalType": "bytes32",
          "name": "role",
          "type": "bytes32"
        },
        {
          "internalType": "uint256",
          "name": "index",
          "type": "uint256"
        }
      ],
      "name": "getRoleMember",
      "outputs": [
        {
          "internalType": "address",
          "name": "",
          "type": "address"
        }
      ],
      "stateMutability": "view",
      "type": "function"
    },
    {
      "inputs": [
        {
          "internalType": "bytes32",
          "name": "role",
          "type": "bytes32"
        }
      ],
      "name": "getRoleMemberCount",
      "outputs": [
        {
          "internalType": "uint256",
          "name": "",
          "type": "uint256"
        }
      ],
      "stateMutability": "view",
      "type": "function"
    },
    {
      "inputs": [
        {
          "internalType": "address",
          "name": "account",
          "type": "address"
        }
      ],
      "name": "getRoles",
      "outputs": [
        {
          "internalType": "bool",
          "name": "",
          "type": "bool"
        },
        {
          "internalType": "bool",
          "name": "",
          "type": "bool"
        },
        {
          "internalType": "bool",
          "name": "",
          "type": "bool"
        },
        {
          "internalType": "bool",
          "name": "",
          "type": "bool"
        },
        {
          "internalType": "bool",
          "name": "",
          "type": "bool"
        }
      ],
      "stateMutability": "view",
      "type": "function"
    },
    {
      "inputs": [
        {
          "internalType": "uint256",
          "name": "tokenId",
          "type": "uint256"
        }
      ],
      "name": "getTokenDetails",
      "outputs": [
        {
          "components": [
            {
              "internalType": "uint256",
              "name": "tokenId",
              "type": "uint256"
            },
            {
              "internalType": "uint8",
              "name": "tokenTypeId",
              "type": "uint8"
            },
            {
              "internalType": "address",
              "name": "issuer",
              "type": "address"
            },
            {
              "internalType": "address",
              "name": "issuee",
              "type": "address"
            },
            {
              "internalType": "uint256",
              "name": "fromDate",
              "type": "uint256"
            },
            {
              "internalType": "uint256",
              "name": "thruDate",
              "type": "uint256"
            },
            {
              "internalType": "uint256",
              "name": "dateCreated",
              "type": "uint256"
            },
            {
              "internalType": "uint256",
              "name": "automaticRetireDate",
              "type": "uint256"
            },
            {
              "internalType": "string",
              "name": "metadata",
              "type": "string"
            },
            {
              "internalType": "string",
              "name": "manifest",
              "type": "string"
            },
            {
              "internalType": "string",
              "name": "description",
              "type": "string"
            }
          ],
          "internalType": "struct NetEmissionsTokenNetwork.Clm8TokenReturnDetails",
          "name": "",
          "type": "tuple"
        }
      ],
      "stateMutability": "view",
      "type": "function"
    },
    {
      "inputs": [
        {
          "internalType": "address",
          "name": "account",
          "type": "address"
        },
        {
          "internalType": "uint256",
          "name": "tokenId",
          "type": "uint256"
        }
      ],
      "name": "getTokenRetiredAmount",
      "outputs": [
        {
          "internalType": "uint256",
          "name": "",
          "type": "uint256"
        }
      ],
      "stateMutability": "view",
      "type": "function"
    },
    {
      "inputs": [
        {
          "internalType": "uint256",
          "name": "tokenId",
          "type": "uint256"
        }
      ],
      "name": "getTokenType",
      "outputs": [
        {
          "internalType": "string",
          "name": "",
          "type": "string"
        }
      ],
      "stateMutability": "view",
      "type": "function"
    },
    {
      "inputs": [
        {
          "internalType": "bytes32",
          "name": "role",
          "type": "bytes32"
        },
        {
          "internalType": "address",
          "name": "account",
          "type": "address"
        }
      ],
      "name": "grantRole",
      "outputs": [],
      "stateMutability": "nonpayable",
      "type": "function"
    },
    {
      "inputs": [
        {
          "internalType": "bytes32",
          "name": "role",
          "type": "bytes32"
        },
        {
          "internalType": "address",
          "name": "account",
          "type": "address"
        }
      ],
      "name": "hasRole",
      "outputs": [
        {
          "internalType": "bool",
          "name": "",
          "type": "bool"
        }
      ],
      "stateMutability": "view",
      "type": "function"
    },
    {
      "inputs": [
        {
          "internalType": "address",
          "name": "account",
          "type": "address"
        },
        {
          "internalType": "address",
          "name": "operator",
          "type": "address"
        }
      ],
      "name": "isApprovedForAll",
      "outputs": [
        {
          "internalType": "bool",
          "name": "",
          "type": "bool"
        }
      ],
      "stateMutability": "view",
      "type": "function"
    },
    {
      "inputs": [
        {
          "internalType": "address",
          "name": "account",
          "type": "address"
        }
      ],
      "name": "isConsumerRegistered",
      "outputs": [
        {
          "internalType": "bool",
          "name": "",
          "type": "bool"
        }
      ],
      "stateMutability": "view",
      "type": "function"
    },
    {
      "inputs": [
        {
          "internalType": "address",
          "name": "account",
          "type": "address"
        }
      ],
      "name": "isDealerRegistered",
      "outputs": [
        {
          "internalType": "bool",
          "name": "",
          "type": "bool"
        }
      ],
      "stateMutability": "view",
      "type": "function"
    },
    {
      "inputs": [
        {
          "internalType": "address",
          "name": "issuee",
          "type": "address"
        },
        {
          "internalType": "uint8",
          "name": "tokenTypeId",
          "type": "uint8"
        },
        {
          "internalType": "uint256",
          "name": "quantity",
          "type": "uint256"
        },
        {
          "internalType": "uint256",
          "name": "fromDate",
          "type": "uint256"
        },
        {
          "internalType": "uint256",
          "name": "thruDate",
          "type": "uint256"
        },
        {
          "internalType": "uint256",
          "name": "automaticRetireDate",
          "type": "uint256"
        },
        {
          "internalType": "string",
          "name": "metadata",
          "type": "string"
        },
        {
          "internalType": "string",
          "name": "manifest",
          "type": "string"
        },
        {
          "internalType": "string",
          "name": "description",
          "type": "string"
        }
      ],
      "name": "issue",
      "outputs": [],
      "stateMutability": "nonpayable",
      "type": "function"
    },
    {
      "inputs": [
        {
          "internalType": "address",
          "name": "issuee",
          "type": "address"
        },
        {
          "internalType": "address",
          "name": "issuer",
          "type": "address"
        },
        {
          "internalType": "uint8",
          "name": "tokenTypeId",
          "type": "uint8"
        },
        {
          "internalType": "uint256",
          "name": "quantity",
          "type": "uint256"
        },
        {
          "internalType": "uint256",
          "name": "fromDate",
          "type": "uint256"
        },
        {
          "internalType": "uint256",
          "name": "thruDate",
          "type": "uint256"
        },
        {
          "internalType": "uint256",
          "name": "automaticRetireDate",
          "type": "uint256"
        },
        {
          "internalType": "string",
          "name": "metadata",
          "type": "string"
        },
        {
          "internalType": "string",
          "name": "manifest",
          "type": "string"
        },
        {
          "internalType": "string",
          "name": "description",
          "type": "string"
        }
      ],
      "name": "issueOnBehalf",
      "outputs": [],
      "stateMutability": "nonpayable",
      "type": "function"
    },
    {
      "inputs": [],
      "name": "limitedMode",
      "outputs": [
        {
          "internalType": "bool",
          "name": "",
          "type": "bool"
        }
      ],
      "stateMutability": "view",
      "type": "function"
    },
    {
      "inputs": [
        {
          "internalType": "address",
          "name": "to",
          "type": "address"
        },
        {
          "internalType": "uint256",
          "name": "tokenId",
          "type": "uint256"
        },
        {
          "internalType": "uint256",
          "name": "quantity",
          "type": "uint256"
        }
      ],
      "name": "mint",
      "outputs": [],
      "stateMutability": "nonpayable",
      "type": "function"
    },
    {
      "inputs": [
        {
          "internalType": "address",
          "name": "account",
          "type": "address"
        }
      ],
      "name": "registerConsumer",
      "outputs": [],
      "stateMutability": "nonpayable",
      "type": "function"
    },
    {
      "inputs": [
        {
          "internalType": "address",
          "name": "account",
          "type": "address"
        },
        {
          "internalType": "uint8",
          "name": "tokenTypeId",
          "type": "uint8"
        }
      ],
      "name": "registerDealer",
      "outputs": [],
      "stateMutability": "nonpayable",
      "type": "function"
    },
    {
      "inputs": [
        {
          "internalType": "bytes32",
          "name": "role",
          "type": "bytes32"
        },
        {
          "internalType": "address",
          "name": "account",
          "type": "address"
        }
      ],
      "name": "renounceRole",
      "outputs": [],
      "stateMutability": "nonpayable",
      "type": "function"
    },
    {
      "inputs": [
        {
          "internalType": "uint256",
          "name": "tokenId",
          "type": "uint256"
        },
        {
          "internalType": "uint256",
          "name": "amount",
          "type": "uint256"
        }
      ],
      "name": "retire",
      "outputs": [],
      "stateMutability": "nonpayable",
      "type": "function"
    },
    {
      "inputs": [
        {
          "internalType": "bytes32",
          "name": "role",
          "type": "bytes32"
        },
        {
          "internalType": "address",
          "name": "account",
          "type": "address"
        }
      ],
      "name": "revokeRole",
      "outputs": [],
      "stateMutability": "nonpayable",
      "type": "function"
    },
    {
      "inputs": [
        {
          "internalType": "address",
          "name": "from",
          "type": "address"
        },
        {
          "internalType": "address",
          "name": "to",
          "type": "address"
        },
        {
          "internalType": "uint256[]",
          "name": "ids",
          "type": "uint256[]"
        },
        {
          "internalType": "uint256[]",
          "name": "amounts",
          "type": "uint256[]"
        },
        {
          "internalType": "bytes",
          "name": "data",
          "type": "bytes"
        }
      ],
      "name": "safeBatchTransferFrom",
      "outputs": [],
      "stateMutability": "nonpayable",
      "type": "function"
    },
    {
      "inputs": [
        {
          "internalType": "address",
          "name": "from",
          "type": "address"
        },
        {
          "internalType": "address",
          "name": "to",
          "type": "address"
        },
        {
          "internalType": "uint256",
          "name": "id",
          "type": "uint256"
        },
        {
          "internalType": "uint256",
          "name": "amount",
          "type": "uint256"
        },
        {
          "internalType": "bytes",
          "name": "data",
          "type": "bytes"
        }
      ],
      "name": "safeTransferFrom",
      "outputs": [],
      "stateMutability": "nonpayable",
      "type": "function"
    },
    {
      "inputs": [],
      "name": "selfDestruct",
      "outputs": [],
      "stateMutability": "nonpayable",
      "type": "function"
    },
    {
      "inputs": [
        {
          "internalType": "address",
          "name": "operator",
          "type": "address"
        },
        {
          "internalType": "bool",
          "name": "approved",
          "type": "bool"
        }
      ],
      "name": "setApprovalForAll",
      "outputs": [],
      "stateMutability": "nonpayable",
      "type": "function"
    },
    {
      "inputs": [
        {
          "internalType": "bool",
          "name": "_limitedMode",
          "type": "bool"
        }
      ],
      "name": "setLimitedMode",
      "outputs": [],
      "stateMutability": "nonpayable",
      "type": "function"
    },
    {
      "inputs": [
        {
          "internalType": "address",
          "name": "_timelock",
          "type": "address"
        }
      ],
      "name": "setTimelock",
      "outputs": [],
      "stateMutability": "nonpayable",
      "type": "function"
    },
    {
      "inputs": [
        {
          "internalType": "bytes4",
          "name": "interfaceId",
          "type": "bytes4"
        }
      ],
      "name": "supportsInterface",
      "outputs": [
        {
          "internalType": "bool",
          "name": "",
          "type": "bool"
        }
      ],
      "stateMutability": "view",
      "type": "function"
    },
    {
      "inputs": [
        {
          "internalType": "address",
          "name": "to",
          "type": "address"
        },
        {
          "internalType": "uint256",
          "name": "tokenId",
          "type": "uint256"
        },
        {
          "internalType": "uint256",
          "name": "value",
          "type": "uint256"
        }
      ],
      "name": "transfer",
      "outputs": [],
      "stateMutability": "nonpayable",
      "type": "function"
    },
    {
      "inputs": [
        {
          "internalType": "address",
          "name": "account",
          "type": "address"
        }
      ],
      "name": "unregisterConsumer",
      "outputs": [],
      "stateMutability": "nonpayable",
      "type": "function"
    },
    {
      "inputs": [
        {
          "internalType": "address",
          "name": "account",
          "type": "address"
        },
        {
          "internalType": "uint8",
          "name": "tokenTypeId",
          "type": "uint8"
        }
      ],
      "name": "unregisterDealer",
      "outputs": [],
      "stateMutability": "nonpayable",
      "type": "function"
    },
    {
      "inputs": [
        {
          "internalType": "uint256",
          "name": "",
          "type": "uint256"
        }
      ],
      "name": "uri",
      "outputs": [
        {
          "internalType": "string",
          "name": "",
          "type": "string"
        }
      ],
      "stateMutability": "view",
      "type": "function"
    }
  ],
  "bytecode": "0x6080604052600880546001600160a01b03191690553480156200002157600080fd5b5060405162004bd138038062004bd183398101604081905262000044916200041a565b604080516020810190915260008152620000656301ffc9a760e01b620001ac565b620000708162000207565b62000082636cdb3d1360e11b620001ac565b620000946303a24d0760e21b620001ac565b50620000d07f5e1aa547d3dade8c68b013a47ad41c2bcc9b9e4b0765b0fb616780e15786e76a60008051602062004bb183398151915262000220565b620000dd60008262000272565b620000f860008051602062004bb18339815191528262000272565b620001247f2ab9f1da92e74aaa01eb75a871557505b11dd8d36832a34bb21bbee88b08d8608262000272565b620001507fede6574deba8f02ada7888448a497b08844d62e044ed533343a673be3ffcde5f8262000272565b6200017c7fe97dad3dbe5042e7384b1572cf966a15e089576a62b5126c5ef1d184ab18b12c8262000272565b6005805460ff196001600160a01b0390931661010002610100600160a81b03199091161791909116905562000481565b6001600160e01b03198082161415620001e25760405162461bcd60e51b8152600401620001d9906200044a565b60405180910390fd5b6001600160e01b0319166000908152602081905260409020805460ff19166001179055565b80516200021c9060039060208401906200037e565b5050565b600082815260046020526040808220600201549051839285917fbd79b86ffe0ab8e8776151514217cd7cacd52c909f66475c3af44e129f0b00ff9190a460009182526004602052604090912060020155565b6200021c828260008281526004602090815260409091206200029f91839062001e29620002f3821b17901c565b156200021c57620002af62000313565b6001600160a01b0316816001600160a01b0316837f2f8788117e7eff1d82e926ec794901d17c78024a50270940304540a733656f0d60405160405180910390a45050565b60006200030a836001600160a01b03841662000317565b90505b92915050565b3390565b600062000325838362000366565b6200035d575081546001818101845560008481526020808220909301849055845484825282860190935260409020919091556200030d565b5060006200030d565b60009081526001919091016020526040902054151590565b828054600181600116156101000203166002900490600052602060002090601f016020900481019282601f10620003c157805160ff1916838001178555620003f1565b82800160010185558215620003f1579182015b82811115620003f1578251825591602001919060010190620003d4565b50620003ff92915062000403565b5090565b5b80821115620003ff576000815560010162000404565b6000602082840312156200042c578081fd5b81516001600160a01b038116811462000443578182fd5b9392505050565b6020808252601c908201527f4552433136353a20696e76616c696420696e7465726661636520696400000000604082015260600190565b61472080620004916000396000f3fe608060405234801561001057600080fd5b506004361061027e5760003560e01c80637f157c9b1161015c578063ca15c873116100ce578063e985e9c511610087578063e985e9c514610595578063f000be98146105a8578063f242432a146105bb578063f851a440146105ce578063fcba7948146105d6578063fd0c4a9a146105de5761027e565b8063ca15c8731461051d578063ce6ccfaf14610530578063d547741f14610554578063dba851b014610567578063ddc3e6eb1461056f578063e2e564f2146105825761027e565b80639cb8a26a116101205780639cb8a26a146104b4578063a0d975a7146104bc578063a217fddf146104cf578063a22cb465146104d7578063bdacb303146104ea578063c1e03728146104fd5761027e565b80637f157c9b1461042d5780639010d07c1461044e57806391d148541461046e57806392089c461461048157806392707869146104945761027e565b806331aa4b20116101f557806353dbe982116101b957806353dbe982146103dc5780635ddb368f146103ef57806369f7ef44146103f757806376aed2e11461040a57806376ce47551461041d57806378e5c592146104255761027e565b806331aa4b201461037057806333781a0e1461038357806336568abe1461039657806344b22fdd146103a95780634e1273f4146103bc5761027e565b806318a50d7e1161024757806318a50d7e146103145780631ef68ef71461031c578063248a9ca314610324578063293a7f2e146103375780632eb2c2d61461034a5780632f2ff15d1461035d5761027e565b8062fdd58e1461028357806301ffc9a7146102ac578063095bcdb6146102cc5780630e89341c146102e1578063156e29f614610301575b600080fd5b610296610291366004613052565b6105f1565b6040516102a391906135e6565b60405180910390f35b6102bf6102ba3660046132e8565b61064d565b6040516102a391906135b2565b6102df6102da36600461307c565b610670565b005b6102f46102ef36600461328b565b610795565b6040516102a391906135ef565b6102df61030f36600461307c565b61082d565b6102966108bc565b6102966108e0565b61029661033236600461328b565b6108f2565b6102df6103453660046132c7565b610907565b6102df610358366004612e26565b610a88565b6102df61036b3660046132a3565b610ca2565b6102df61037e3660046130af565b610cea565b6102bf610391366004612dd7565b610dfd565b6102df6103a43660046132a3565b610e17565b6102df6103b7366004612dd7565b610e59565b6103cf6103ca3660046131a9565b610f5e565b6040516102a39190613571565b6102df6103ea366004612dd7565b61109e565b6102966111a3565b6102bf610405366004612dd7565b6111b5565b6102f461041836600461328b565b611237565b610296611330565b610296611342565b61044061043b366004613052565b611354565b6040516102a392919061445e565b61046161045c3660046132c7565b6113eb565b6040516102a39190613454565b6102bf61047c3660046132a3565b61140a565b61046161048f36600461328b565b611422565b6104a76104a236600461328b565b611445565b6040516102a39190613524565b6102df611510565b6102966104ca366004613052565b61153a565b610296611589565b6102df6104e5366004613017565b61158e565b6102df6104f8366004612dd7565b61165c565b61051061050b36600461328b565b6116a5565b6040516102a39190614386565b61029661052b36600461328b565b6118ff565b61054361053e366004612dd7565b611916565b6040516102a39594939291906135bd565b6102df6105623660046132a3565b6119aa565b6102bf6119e4565b6102df61057d36600461326b565b6119ed565b6102df6105903660046130af565b611a27565b6102bf6105a3366004612df2565b611b47565b6102df6105b6366004612f35565b611b75565b6102df6105c9366004612ed0565b611bce565b610461611d62565b610296611d76565b6102df6105ec3660046130da565b611d88565b60006001600160a01b0383166106225760405162461bcd60e51b8152600401610619906137cd565b60405180910390fd5b5060008181526001602090815260408083206001600160a01b03861684529091529020545b92915050565b6001600160e01b0319811660009081526020819052604090205460ff165b919050565b600061068a6000805160206146618339815191523361140a565b905060006106a66000805160206146ab8339815191523361140a565b905060006106c26000805160206146418339815191523361140a565b905060006106de6000805160206146cb8339815191523361140a565b905083806106e95750825b806106f15750815b806106f95750805b6107155760405162461bcd60e51b815260040161061990614225565b61071e86611e3e565b61073a5760405162461bcd60e51b815260040161061990613de6565b336001600160a01b03881614156107635760405162461bcd60e51b815260040161061990613cee565b61078c33888888604051806040016040528060048152602001630307830360e41b815250611bce565b50505050505050565b60038054604080516020601f60026000196101006001881615020190951694909404938401819004810282018101909252828152606093909290918301828280156108215780601f106107f657610100808354040283529160200191610821565b820191906000526020600020905b81548152906001019060200180831161080457829003601f168201915b50505050509050919050565b61083860003361140a565b6108545760405162461bcd60e51b815260040161061990613a77565b61085d82611e3e565b6108795760405162461bcd60e51b8152600401610619906138e4565b60055460ff161561089c5760405162461bcd60e51b815260040161061990613d44565b6108b783838360405180602001604052806000815250611e60565b505050565b7ff8890eedd7900ad88da6192fd03dbb69dbeee963b1a0ed738abe49ab3331aaf381565b60008051602061464183398151915281565b60009081526004602052604090206002015490565b60006109216000805160206146618339815191523361140a565b9050600061093d6000805160206146ab8339815191523361140a565b905060006109596000805160206146418339815191523361140a565b905060006109756000805160206146cb8339815191523361140a565b905083806109805750825b806109885750815b806109905750805b6109ac5760405162461bcd60e51b815260040161061990614225565b6109b586611e3e565b6109d15760405162461bcd60e51b815260040161061990613869565b6109db33876105f1565b8511156109fa5760405162461bcd60e51b815260040161061990613b63565b610a05338787611f4b565b6000868152600760209081526040808320338452909152902054610a299086612061565b60008781526007602090815260408083203380855292529182902092909255517f8f1b5ebb586d3d169e4ed07db9cd10ce0dd30c7b656171310eae7517c0b53cf990610a78908990899061445e565b60405180910390a2505050505050565b8151835114610aa95760405162461bcd60e51b81526004016106199061419c565b6001600160a01b038416610acf5760405162461bcd60e51b815260040161061990613c14565b610ad7612086565b6001600160a01b0316856001600160a01b03161480610afd5750610afd856105a3612086565b610b195760405162461bcd60e51b815260040161061990613c59565b6000610b23612086565b9050610b3381878787878761208a565b60005b8451811015610c34576000858281518110610b4d57fe5b602002602001015190506000858381518110610b6557fe5b60200260200101519050610bd2816040518060600160405280602a8152602001614681602a91396001600086815260200190815260200160002060008d6001600160a01b03166001600160a01b03168152602001908152602001600020546122039092919063ffffffff16565b60008381526001602090815260408083206001600160a01b038e811685529252808320939093558a1681522054610c099082612061565b60009283526001602081815260408086206001600160a01b038d168752909152909320555001610b36565b50846001600160a01b0316866001600160a01b0316826001600160a01b03167f4a39dc06d4c0dbc64b70af90fd698a233a518aa5d07e595d983b8c0526c8f7fb8787604051610c84929190613584565b60405180910390a4610c9a81878787878761222f565b505050505050565b600082815260046020526040902060020154610cc09061047c612086565b610cdc5760405162461bcd60e51b815260040161061990613735565b610ce6828261233d565b5050565b610cf560003361140a565b610d115760405162461bcd60e51b815260040161061990613a77565b610d1a816123a6565b610d365760405162461bcd60e51b815260040161061990613d96565b8060ff1660011415610d5f57610d5a6000805160206146ab83398151915283610ca2565b610d9b565b8060ff1660021415610d8357610d5a60008051602061464183398151915283610ca2565b610d9b6000805160206146cb83398151915283610ca2565b610dc57ff8890eedd7900ad88da6192fd03dbb69dbeee963b1a0ed738abe49ab3331aaf383610ca2565b6040516001600160a01b038316907fa8377deee15954185683d55effd369508b4935978c8cb2bab790bf04c570181490600090a25050565b60006106476000805160206146618339815191528361140a565b610e1f612086565b6001600160a01b0316816001600160a01b031614610e4f5760405162461bcd60e51b8152600401610619906142c6565b610ce682826123cb565b6000610e736000805160206146ab8339815191523361140a565b90506000610e8f6000805160206146418339815191523361140a565b90506000610eab6000805160206146cb8339815191523361140a565b90508280610eb65750815b80610ebe5750805b610eda5760405162461bcd60e51b815260040161061990613784565b60055460ff1615610f0c57610ef060003361140a565b610f0c5760405162461bcd60e51b815260040161061990613e2c565b610f2460008051602061466183398151915285610ca2565b6040516001600160a01b038516907f69a0adee259d26fe61f4776f7bea7f3a9737c7321256821b985f988545efd31990600090a250505050565b60608151835114610f815760405162461bcd60e51b815260040161061990614103565b6060835167ffffffffffffffff81118015610f9b57600080fd5b50604051908082528060200260200182016040528015610fc5578160200160208202803683370190505b50905060005b84518110156110965760006001600160a01b0316858281518110610feb57fe5b60200260200101516001600160a01b0316141561101a5760405162461bcd60e51b815260040161061990613818565b6001600085838151811061102a57fe5b60200260200101518152602001908152602001600020600086838151811061104e57fe5b60200260200101516001600160a01b03166001600160a01b031681526020019081526020016000205482828151811061108357fe5b6020908102919091010152600101610fcb565b509392505050565b60006110b86000805160206146ab8339815191523361140a565b905060006110d46000805160206146418339815191523361140a565b905060006110f06000805160206146cb8339815191523361140a565b905082806110fb5750815b806111035750805b61111f5760405162461bcd60e51b815260040161061990613784565b60055460ff16156111515761113560003361140a565b6111515760405162461bcd60e51b8152600401610619906139c1565b611169600080516020614661833981519152856119aa565b6040516001600160a01b038516907f03a38088da75ee2d80f6c753f55f8fd17602ae17d8bd0ef44d5e1f28ab5af11f90600090a250505050565b60006111af6009612434565b90505b90565b6000806111d06000805160206146ab8339815191528461140a565b905060006111ec6000805160206146418339815191528561140a565b905060006112086000805160206146cb8339815191528661140a565b905082806112135750815b8061121b5750805b1561122c576001935050505061066b565b506000949350505050565b606061124282611e3e565b61125e5760405162461bcd60e51b815260040161061990613a2d565b600082815260066020526040902060018082015460ff1614156112b657505060408051808201909152601c81527f52656e657761626c6520456e6572677920436572746966696361746500000000602082015261066b565b600181015460ff166002141561130157505060408051808201909152601781527f436172626f6e20456d697373696f6e73204f6666736574000000000000000000602082015261066b565b50506040805180820190915260118152704175646974656420456d697373696f6e7360781b6020820152919050565b6000805160206146cb83398151915281565b60008051602061466183398151915281565b600080600061136385856105f1565b60405163a0d975a760e01b8152909150600090309063a0d975a79061138e908990899060040161350b565b60206040518083038186803b1580156113a657600080fd5b505afa1580156113ba573d6000803e3d6000fd5b505050506040513d601f19601f820116820180604052508101906113de9190613320565b9196919550909350505050565b60008281526004602052604081206114039083612438565b9392505050565b60008281526004602052604081206114039083612444565b60009081526006602052604090206001015461010090046001600160a01b031690565b6000818152600660205260409020600a81015460609190829060ff1667ffffffffffffffff8111801561147757600080fd5b506040519080825280602002602001820160405280156114a1578160200160208202803683370190505b50905060015b600a83015460ff908116908216116110965760ff8082166000908152600b8501602052604090205483516001600160a01b0390911691849160001985019091169081106114f057fe5b6001600160a01b03909216602092830291909101909101526001016114a7565b61151b60003361140a565b6115375760405162461bcd60e51b815260040161061990613a77565b30ff5b600061154582611e3e565b6115615760405162461bcd60e51b815260040161061990613f3f565b5060009081526007602090815260408083206001600160a01b03949094168352929052205490565b600081565b816001600160a01b03166115a0612086565b6001600160a01b031614156115c75760405162461bcd60e51b8152600401610619906140ba565b80600260006115d4612086565b6001600160a01b03908116825260208083019390935260409182016000908120918716808252919093529120805460ff191692151592909217909155611618612086565b6001600160a01b03167f17307eab39ab6107e8899845ad3d59bd9653f200f220920489ca2b5937696c318360405161165091906135b2565b60405180910390a35050565b61166760003361140a565b6116835760405162461bcd60e51b815260040161061990613a77565b600880546001600160a01b0319166001600160a01b0392909216919091179055565b6116ad612bd6565b6116b5612bd6565b60008381526006602081815260408084208054865260018082015460ff811688860152610100908190046001600160a01b039081168986015260028085015490911660608a0152600384015460808a0152600484015460a08a0152600584015460c08a01528387015460e08a0152968a9052948452600790910180548351928116159095026000190190941694909404601f8101839004830285018301909152808452908301828280156117aa5780601f1061177f576101008083540402835291602001916117aa565b820191906000526020600020905b81548152906001019060200180831161178d57829003601f168201915b50505050506101008281019190915260008481526006602090815260409182902060080180548351600260018316159096026000190190911694909404601f8101839004830285018301909352828452919083018282801561184d5780601f106118225761010080835404028352916020019161184d565b820191906000526020600020905b81548152906001019060200180831161183057829003601f168201915b50505050506101208201526000838152600660209081526040918290206009018054835160026001831615610100026000190190921691909104601f81018490048402820184019094528381529290918301828280156118ee5780601f106118c3576101008083540402835291602001916118ee565b820191906000526020600020905b8154815290600101906020018083116118d157829003601f168201915b505050505061014082015292915050565b600081815260046020526040812061064790612459565b60008080808080611927818861140a565b905060006119436000805160206146ab8339815191528961140a565b9050600061195f6000805160206146418339815191528a61140a565b9050600061197b6000805160206146cb8339815191528b61140a565b905060006119976000805160206146618339815191528c61140a565b949b939a50919850965091945092505050565b6000828152600460205260409020600201546119c89061047c612086565b610e4f5760405162461bcd60e51b815260040161061990613b13565b60055460ff1681565b6119f860003361140a565b611a145760405162461bcd60e51b815260040161061990613a77565b6005805460ff1916911515919091179055565b611a3260003361140a565b611a4e5760405162461bcd60e51b815260040161061990613a77565b611a57816123a6565b611a735760405162461bcd60e51b815260040161061990613926565b8060ff1660011415611a9c57611a976000805160206146ab833981519152836119aa565b611ad8565b8060ff1660021415611ac057611a97600080516020614641833981519152836119aa565b611ad86000805160206146cb833981519152836119aa565b611ae1826111b5565b611b0f57611b0f7ff8890eedd7900ad88da6192fd03dbb69dbeee963b1a0ed738abe49ab3331aaf3836119aa565b6040516001600160a01b038316907f98552ded770f1d05a505572f3387c108dbc6b566ea3d49f83cff3d1f1c72a04290600090a25050565b6001600160a01b03918216600090815260026020908152604080832093909416825291909152205460ff1690565b6008546001600160a01b0316331480611b945750611b9460003361140a565b611bb05760405162461bcd60e51b815260040161061990613656565b611bc28a8a8a8a8a8a8a8a8a8a612464565b50505050505050505050565b6001600160a01b038416611bf45760405162461bcd60e51b815260040161061990613c14565b611bfc612086565b6001600160a01b0316856001600160a01b03161480611c225750611c22856105a3612086565b611c3e5760405162461bcd60e51b815260040161061990613978565b6000611c48612086565b9050611c68818787611c5988612930565b611c6288612930565b8761208a565b611caf836040518060600160405280602a8152602001614681602a913960008781526001602090815260408083206001600160a01b038d1684529091529020549190612203565b60008581526001602090815260408083206001600160a01b038b81168552925280832093909355871681522054611ce69084612061565b60008581526001602090815260408083206001600160a01b03808b168086529190935292819020939093559151909188811691908416907fc3d58168c5ae7397731d063d5bbf3d657854427343f4c083240f7aacaa2d0f6290611d4c908990899061445e565b60405180910390a4610c9a818787878787612974565b60055461010090046001600160a01b031681565b6000805160206146ab83398151915281565b6000611da26000805160206146ab8339815191523361140a565b90506000611dbe6000805160206146418339815191523361140a565b90506000611dda6000805160206146cb8339815191523361140a565b90508280611de55750815b80611ded5750805b611e095760405162461bcd60e51b815260040161061990613784565b611e1b8c338d8d8d8d8d8d8d8d612464565b505050505050505050505050565b6000611403836001600160a01b038416612a45565b600081611e4b6009612434565b10611e585750600161066b565b506000919050565b6001600160a01b038416611e865760405162461bcd60e51b8152600401610619906141e4565b6000611e90612086565b9050611ea281600087611c5988612930565b60008481526001602090815260408083206001600160a01b0389168452909152902054611ecf9084612061565b60008581526001602090815260408083206001600160a01b03808b16808652919093528184209490945551908416907fc3d58168c5ae7397731d063d5bbf3d657854427343f4c083240f7aacaa2d0f6290611f2d908990899061445e565b60405180910390a4611f4481600087878787612974565b5050505050565b6001600160a01b038316611f715760405162461bcd60e51b815260040161061990613cab565b6000611f7b612086565b9050611fab81856000611f8d87612930565b611f9687612930565b6040518060200160405280600081525061208a565b611ff28260405180606001604052806024815260200161461d6024913960008681526001602090815260408083206001600160a01b038b1684529091529020549190612203565b60008481526001602090815260408083206001600160a01b03808a16808652919093528184209490945551919291908416907fc3d58168c5ae7397731d063d5bbf3d657854427343f4c083240f7aacaa2d0f6290612053908890889061445e565b60405180910390a450505050565b6000828201838110156114035760405162461bcd60e51b8152600401610619906138ad565b3390565b612098868686868686610c9a565b60005b835181101561078c576000600660008684815181106120b657fe5b602002602001015181526020019081526020016000209050600560009054906101000a900460ff161561217d576001600160a01b0386166120f757506121fb565b600181015460ff16600314612149576008546001600160a01b0389811691161480612128575061212860008961140a565b6121445760405162461bcd60e51b815260040161061990614315565b61217d565b6121616000805160206146cb8339815191528961140a565b61217d5760405162461bcd60e51b815260040161061990613f92565b6001600160a01b038616158015906121af57506121ad868684815181106121a057fe5b60200260200101516105f1565b155b156121f957600a8101805460ff198116600160ff9283160182161791829055166000908152600b82016020526040902080546001600160a01b0319166001600160a01b0388161790555b505b60010161209b565b600081848411156122275760405162461bcd60e51b815260040161061991906135ef565b505050900390565b612241846001600160a01b0316612a8f565b15610c9a5760405163bc197c8160e01b81526001600160a01b0385169063bc197c819061227a9089908990889088908890600401613468565b602060405180830381600087803b15801561229457600080fd5b505af19250505080156122c4575060408051601f3d908101601f191682019092526122c191810190613304565b60015b61230d576122d0614549565b806122db57506122f5565b8060405162461bcd60e51b815260040161061991906135ef565b60405162461bcd60e51b815260040161061990613602565b6001600160e01b0319811663bc197c8160e01b1461078c5760405162461bcd60e51b8152600401610619906136ed565b60008281526004602052604090206123559082611e29565b15610ce657612362612086565b6001600160a01b0316816001600160a01b0316837f2f8788117e7eff1d82e926ec794901d17c78024a50270940304540a733656f0d60405160405180910390a45050565b6000808260ff161180156123be575060038260ff1611155b15611e585750600161066b565b60008281526004602052604090206123e39082612a95565b15610ce6576123f0612086565b6001600160a01b0316816001600160a01b0316837ff6391f5c32d9c69d2a47ea670b442974b53935d1edc7fd64eb21e047a839171b60405160405180910390a45050565b5490565b60006114038383612aaa565b6000611403836001600160a01b038416612aef565b600061064782612434565b61246d886123a6565b6124895760405162461bcd60e51b815260040161061990614282565b60055460ff161561259b578760ff16600114806124a957508760ff166002145b15612556576008546001600160a01b031633146124d85760405162461bcd60e51b815260040161061990613ef1565b6124e360008b61140a565b6124ff5760405162461bcd60e51b815260040161061990614073565b6125176000805160206146ab8339815191528a61140a565b8061253557506125356000805160206146418339815191528a61140a565b6125515760405162461bcd60e51b815260040161061990613bb7565b612596565b8760ff16600314156125965761257a6000805160206146cb8339815191528a61140a565b6125965760405162461bcd60e51b815260040161061990614015565b61265b565b8760ff16600114156125db576125bf6000805160206146ab8339815191528a61140a565b6125965760405162461bcd60e51b81526004016106199061414c565b8760ff166002141561261b576125ff6000805160206146418339815191528a61140a565b6125965760405162461bcd60e51b815260040161061990613ac0565b8760ff166003141561265b5761263f6000805160206146cb8339815191528a61140a565b61265b5760405162461bcd60e51b815260040161061990613e94565b6126656009612b07565b6000600660006126756009612434565b8152602001908152602001600020905061268f6009612434565b8160000181905550888160010160006101000a81548160ff021916908360ff1602179055508a8160020160006101000a8154816001600160a01b0302191690836001600160a01b03160217905550898160010160016101000a8154816001600160a01b0302191690836001600160a01b0316021790555086816003018190555085816004018190555084816006018190555042816005018190555083816007019080519060200190612742929190612c45565b5082516127589060088301906020860190612c45565b50815161276e9060098301906020850190612c45565b506127938b61277d6009612434565b8a60405180602001604052806000815250611e60565b8860ff166003141561281757600281015481546127ba916001600160a01b0316908a611f4b565b8054600090815260076020908152604080832060028501546001600160a01b031684529091529020546127ed9089612061565b8154600090815260076020908152604080832060028601546001600160a01b031684529091529020555b8060020160009054906101000a90046001600160a01b03166001600160a01b03168160010160019054906101000a90046001600160a01b03166001600160a01b03167f99cc3eeb446560c9a2d2483bc5160735ec0fb1851aea3bde32e7a56c30c11da68a600760008660000154815260200190815260200160002060008660020160009054906101000a90046001600160a01b03166001600160a01b03166001600160a01b031681526020019081526020016000205485600001548660010160009054906101000a900460ff168760030154886004015489600601548a600501548b6007018c6008018d60090160405161291b9b9a9998979695949392919061446c565b60405180910390a35050505050505050505050565b60408051600180825281830190925260609182919060208083019080368337019050509050828160008151811061296357fe5b602090810291909101015292915050565b612986846001600160a01b0316612a8f565b15610c9a5760405163f23a6e6160e01b81526001600160a01b0385169063f23a6e61906129bf90899089908890889088906004016134c6565b602060405180830381600087803b1580156129d957600080fd5b505af1925050508015612a09575060408051601f3d908101601f19168201909252612a0691810190613304565b60015b612a15576122d0614549565b6001600160e01b0319811663f23a6e6160e01b1461078c5760405162461bcd60e51b8152600401610619906136ed565b6000612a518383612aef565b612a8757508154600181810184556000848152602080822090930184905584548482528286019093526040902091909155610647565b506000610647565b3b151590565b6000611403836001600160a01b038416612b10565b81546000908210612acd5760405162461bcd60e51b8152600401610619906136ab565b826000018281548110612adc57fe5b9060005260206000200154905092915050565b60009081526001919091016020526040902054151590565b80546001019055565b60008181526001830160205260408120548015612bcc5783546000198083019190810190600090879083908110612b4357fe5b9060005260206000200154905080876000018481548110612b6057fe5b600091825260208083209091019290925582815260018981019092526040902090840190558654879080612b9057fe5b60019003818190600052602060002001600090559055866001016000878152602001908152602001600020600090556001945050505050610647565b6000915050610647565b60405180610160016040528060008152602001600060ff16815260200160006001600160a01b0316815260200160006001600160a01b03168152602001600081526020016000815260200160008152602001600081526020016060815260200160608152602001606081525090565b828054600181600116156101000203166002900490600052602060002090601f016020900481019282601f10612c8657805160ff1916838001178555612cb3565b82800160010185558215612cb3579182015b82811115612cb3578251825591602001919060010190612c98565b50612cbf929150612cc3565b5090565b5b80821115612cbf5760008155600101612cc4565b80356001600160a01b038116811461064757600080fd5b600082601f830112612cff578081fd5b8135612d12612d0d82614517565b6144f0565b818152915060208083019084810181840286018201871015612d3357600080fd5b60005b84811015612d5257813584529282019290820190600101612d36565b505050505092915050565b600082601f830112612d6d578081fd5b813567ffffffffffffffff811115612d83578182fd5b612d96601f8201601f19166020016144f0565b9150808252836020828501011115612dad57600080fd5b8060208401602084013760009082016020015292915050565b803560ff8116811461064757600080fd5b600060208284031215612de8578081fd5b6114038383612cd8565b60008060408385031215612e04578081fd5b612e0e8484612cd8565b9150612e1d8460208501612cd8565b90509250929050565b600080600080600060a08688031215612e3d578081fd5b8535612e48816145ee565b94506020860135612e58816145ee565b9350604086013567ffffffffffffffff80821115612e74578283fd5b612e8089838a01612cef565b94506060880135915080821115612e95578283fd5b612ea189838a01612cef565b93506080880135915080821115612eb6578283fd5b50612ec388828901612d5d565b9150509295509295909350565b600080600080600060a08688031215612ee7578081fd5b612ef18787612cd8565b9450612f008760208801612cd8565b93506040860135925060608601359150608086013567ffffffffffffffff811115612f29578182fd5b612ec388828901612d5d565b6000806000806000806000806000806101408b8d031215612f54578485fd5b612f5e8c8c612cd8565b9950612f6d8c60208d01612cd8565b9850612f7c8c60408d01612dc6565b975060608b0135965060808b0135955060a08b0135945060c08b0135935060e08b013567ffffffffffffffff80821115612fb4578485fd5b612fc08e838f01612d5d565b94506101008d0135915080821115612fd6578384fd5b612fe28e838f01612d5d565b93506101208d0135915080821115612ff8578283fd5b506130058d828e01612d5d565b9150509295989b9194979a5092959850565b60008060408385031215613029578182fd5b6130338484612cd8565b915060208301358015158114613047578182fd5b809150509250929050565b60008060408385031215613064578182fd5b61306e8484612cd8565b946020939093013593505050565b600080600060608486031215613090578081fd5b61309a8585612cd8565b95602085013595506040909401359392505050565b600080604083850312156130c1578182fd5b6130cb8484612cd8565b9150612e1d8460208501612dc6565b60008060008060008060008060006101208a8c0312156130f8578283fd5b6131028b8b612cd8565b98506131118b60208c01612dc6565b975060408a0135965060608a0135955060808a0135945060a08a0135935060c08a013567ffffffffffffffff80821115613149578485fd5b6131558d838e01612d5d565b945060e08c013591508082111561316a578384fd5b6131768d838e01612d5d565b93506101008c013591508082111561318c578283fd5b506131998c828d01612d5d565b9150509295985092959850929598565b600080604083850312156131bb578182fd5b823567ffffffffffffffff808211156131d2578384fd5b818501915085601f8301126131e5578384fd5b81356131f3612d0d82614517565b80828252602080830192508086018a828387028901011115613213578889fd5b8896505b8487101561323d576132298b82612cd8565b845260019690960195928101928101613217565b509096508701359350505080821115613254578283fd5b5061326185828601612cef565b9150509250929050565b60006020828403121561327c578081fd5b81358015158114611403578182fd5b60006020828403121561329c578081fd5b5035919050565b600080604083850312156132b5578182fd5b823591506020830135613047816145ee565b600080604083850312156132d9578182fd5b50508035926020909101359150565b6000602082840312156132f9578081fd5b813561140381614606565b600060208284031215613315578081fd5b815161140381614606565b600060208284031215613331578081fd5b5051919050565b6001600160a01b03169052565b6000815180845260208085019450808401835b8381101561337457815187529582019590820190600101613358565b509495945050505050565b60008151808452815b818110156133a457602081850181015186830182015201613388565b818111156133b55782602083870101525b50601f01601f19169290920160200192915050565b600081546001808216600081146133e8576001811461340657613444565b60028304607f16865260ff1983166020870152604086019350613444565b6002830480875261341686614537565b60005b8281101561343a5781546020828b0101528482019150602081019050613419565b8801602001955050505b50505092915050565b60ff169052565b6001600160a01b0391909116815260200190565b6001600160a01b0386811682528516602082015260a06040820181905260009061349490830186613345565b82810360608401526134a68186613345565b905082810360808401526134ba818561337f565b98975050505050505050565b6001600160a01b03868116825285166020820152604081018490526060810183905260a0608082018190526000906135009083018461337f565b979650505050505050565b6001600160a01b03929092168252602082015260400190565b6020808252825182820181905260009190848201906040850190845b818110156135655783516001600160a01b031683529284019291840191600101613540565b50909695505050505050565b6000602082526114036020830184613345565b6000604082526135976040830185613345565b82810360208401526135a98185613345565b95945050505050565b901515815260200190565b941515855292151560208501529015156040840152151560608301521515608082015260a00190565b90815260200190565b600060208252611403602083018461337f565b60208082526034908201527f455243313135353a207472616e7366657220746f206e6f6e20455243313135356040820152732932b1b2b4bb32b91034b6b83632b6b2b73a32b960611b606082015260800190565b60208082526035908201527f434c4d383a3a69737375654f6e426568616c663a2063616c6c206d757374206360408201527437b6b290333937b6902220a79037b91030b236b4b760591b606082015260800190565b60208082526022908201527f456e756d657261626c655365743a20696e646578206f7574206f6620626f756e604082015261647360f01b606082015260800190565b60208082526028908201527f455243313135353a204552433131353552656365697665722072656a656374656040820152676420746f6b656e7360c01b606082015260800190565b6020808252602f908201527f416363657373436f6e74726f6c3a2073656e646572206d75737420626520616e60408201526e0818591b5a5b881d1bc819dc985b9d608a1b606082015260800190565b60208082526029908201527f434c4d383a3a6f6e6c794465616c65723a206d73672e73656e646572206e6f746040820152681030903232b0b632b960b91b606082015260800190565b6020808252602b908201527f455243313135353a2062616c616e636520717565727920666f7220746865207a60408201526a65726f206164647265737360a81b606082015260800190565b60208082526031908201527f455243313135353a2062617463682062616c616e636520717565727920666f7260408201527020746865207a65726f206164647265737360781b606082015260800190565b60208082526024908201527f434c4d383a3a7265746972653a20746f6b656e496420646f6573206e6f7420656040820152631e1a5cdd60e21b606082015260800190565b6020808252601b908201527f536166654d6174683a206164646974696f6e206f766572666c6f770000000000604082015260600190565b60208082526022908201527f434c4d383a3a6d696e743a20746f6b656e496420646f6573206e6f74206578696040820152611cdd60f21b606082015260800190565b60208082526032908201527f434c4d383a3a756e72656769737465724465616c65723a20746f6b656e54797060408201527119525908191bd95cc81b9bdd08195e1a5cdd60721b606082015260800190565b60208082526029908201527f455243313135353a2063616c6c6572206973206e6f74206f776e6572206e6f7260408201526808185c1c1c9bdd995960ba1b606082015260800190565b60208082526046908201527f434c4d383a3a756e7265676973746572436f6e73756d6572286c696d6974656460408201527f293a206f6e6c792061646d696e2063616e20756e726567697374657220636f6e60608201526573756d65727360d01b608082015260a00190565b6020808252602a908201527f434c4d383a3a676574546f6b656e547970653a20746f6b656e496420646f6573604082015269081b9bdd08195e1a5cdd60b21b606082015260800190565b60208082526029908201527f434c4d383a3a6f6e6c7941646d696e3a206d73672e73656e646572206e6f74206040820152683a34329030b236b4b760b91b606082015260800190565b60208082526033908201527f434c4d383a3a5f69737375653a20697373756572206e6f7420612072656769736040820152723a32b932b21037b33339b2ba103232b0b632b960691b606082015260800190565b60208082526030908201527f416363657373436f6e74726f6c3a2073656e646572206d75737420626520616e60408201526f2061646d696e20746f207265766f6b6560801b606082015260800190565b60208082526034908201527f434c4d383a3a7265746972653a206e6f7420656e6f75676820617661696c61626040820152736c652062616c616e636520746f2072657469726560601b606082015260800190565b60208082526037908201527f434c4d383a3a5f6973737565286c696d69746564293a2070726f706f7365722060408201527f6e6f7420612072656769737465726564206465616c6572000000000000000000606082015260800190565b60208082526025908201527f455243313135353a207472616e7366657220746f20746865207a65726f206164604082015264647265737360d81b606082015260800190565b60208082526032908201527f455243313135353a207472616e736665722063616c6c6572206973206e6f74206040820152711bdddb995c881b9bdc88185c1c1c9bdd995960721b606082015260800190565b60208082526023908201527f455243313135353a206275726e2066726f6d20746865207a65726f206164647260408201526265737360e81b606082015260800190565b60208082526036908201527f434c4d383a3a7472616e736665723a2073656e64657220616e642072656365696040820152757665722063616e6e6f74206265207468652073616d6560501b606082015260800190565b60208082526032908201527f434c4d383a3a6d696e743a2063616e6e6f74206d696e74206e657720746f6b656040820152716e7320696e206c696d69746564206d6f646560701b606082015260800190565b60208082526030908201527f434c4d383a3a72656769737465724465616c65723a20746f6b656e547970654960408201526f1908191bd95cc81b9bdd08195e1a5cdd60821b606082015260800190565b60208082526026908201527f434c4d383a3a7472616e736665723a20746f6b656e496420646f6573206e6f7460408201526508195e1a5cdd60d21b606082015260800190565b60208082526042908201527f434c4d383a3a7265676973746572436f6e73756d6572286c696d69746564293a60408201527f206f6e6c792061646d696e2063616e20726567697374657220636f6e73756d65606082015261727360f01b608082015260a00190565b60208082526037908201527f434c4d383a3a5f69737375653a20697373756572206e6f74206120726567697360408201527f746572656420656d697373696f6e732061756469746f72000000000000000000606082015260800190565b6020808252602e908201527f434c4d383a3a5f6973737565286c696d69746564293a206d73672e73656e646560408201526d72206e6f742074696d656c6f636b60901b606082015260800190565b60208082526033908201527f434c4d383a3a676574546f6b656e52657469726564416d6f756e743a20746f6b604082015272195b925908191bd95cc81b9bdd08195e1a5cdd606a1b606082015260800190565b60208082526058908201527f434c4d383a3a5f6265666f7265546f6b656e5472616e73666572286c696d697460408201527f6564293a206f6e6c7920656d697373696f6e732061756469746f72732063616e60608201527f206973737565206175646974656420656d697373696f6e730000000000000000608082015260a00190565b602080825260409082018190527f434c4d383a3a5f6973737565286c696d69746564293a20697373756572206e6f908201527f742061207265676973746572656420656d697373696f6e732061756469746f72606082015260800190565b60208082526027908201527f434c4d383a3a5f6973737565286c696d69746564293a20697373756565206e6f6040820152663a1030b236b4b760c91b606082015260800190565b60208082526029908201527f455243313135353a2073657474696e6720617070726f76616c20737461747573604082015268103337b91039b2b63360b91b606082015260800190565b60208082526029908201527f455243313135353a206163636f756e747320616e6420696473206c656e677468604082015268040dad2e6dac2e8c6d60bb1b606082015260800190565b60208082526030908201527f434c4d383a3a5f69737375653a20697373756572206e6f74206120726567697360408201526f3a32b932b2102922a1903232b0b632b960811b606082015260800190565b60208082526028908201527f455243313135353a2069647320616e6420616d6f756e7473206c656e677468206040820152670dad2e6dac2e8c6d60c31b606082015260800190565b60208082526021908201527f455243313135353a206d696e7420746f20746865207a65726f206164647265736040820152607360f81b606082015260800190565b6020808252603d908201527f434c4d383a3a636f6e73756d65724f724465616c65723a206d73672e73656e6460408201527f6572206e6f74206120636f6e73756d6572206f722061206465616c6572000000606082015260800190565b60208082526024908201527f434c4d383a3a5f69737375653a20746f6b656e54797065496420697320696e76604082015263185b1a5960e21b606082015260800190565b6020808252602f908201527f416363657373436f6e74726f6c3a2063616e206f6e6c792072656e6f756e636560408201526e103937b632b9903337b91039b2b63360891b606082015260800190565b6020808252604b908201527f434c4d383a3a5f6265666f7265546f6b656e5472616e73666572286c696d697460408201527f6564293a206f6e6c792061646d696e20616e642044414f2063616e207472616e60608201526a7366657220746f6b656e7360a81b608082015260a00190565b6000602082528251602083015260208301516143a5604084018261344d565b5060408301516143b86060840182613338565b5060608301516143cb6080840182613338565b50608083015160a083015260a083015160c083015260c083015160e083015260e0830151610100818185015280850151915050610160610120818186015261441761018086018461337f565b9250808601519050601f19610140818786030181880152614438858461337f565b908801518782039092018488015293509050614454838261337f565b9695505050505050565b918252602082015260400190565b60006101608d83528c60208401528b604084015260ff8b1660608401528960808401528860a08401528760c08401528660e0840152806101008401526144b4818401876133ca565b90508281036101208401526144c981866133ca565b90508281036101408401526144de81856133ca565b9e9d5050505050505050505050505050565b60405181810167ffffffffffffffff8111828210171561450f57600080fd5b604052919050565b600067ffffffffffffffff82111561452d578081fd5b5060209081020190565b60009081526020902090565b60e01c90565b600060443d1015614559576111b2565b600481823e6308c379a061456d8251614543565b14614577576111b2565b6040513d600319016004823e80513d67ffffffffffffffff81602484011181841117156145a757505050506111b2565b828401925082519150808211156145c157505050506111b2565b503d830160208284010111156145d9575050506111b2565b601f01601f1916810160200160405291505090565b6001600160a01b038116811461460357600080fd5b50565b6001600160e01b03198116811461460357600080fdfe455243313135353a206275726e20616d6f756e7420657863656564732062616c616e6365ede6574deba8f02ada7888448a497b08844d62e044ed533343a673be3ffcde5f5e1aa547d3dade8c68b013a47ad41c2bcc9b9e4b0765b0fb616780e15786e76a455243313135353a20696e73756666696369656e742062616c616e636520666f72207472616e736665722ab9f1da92e74aaa01eb75a871557505b11dd8d36832a34bb21bbee88b08d860e97dad3dbe5042e7384b1572cf966a15e089576a62b5126c5ef1d184ab18b12ca264697066735822122042e8251a80b3d06fb7e291e0f7cdf83badcfa3e309bc2271a7178364b6d1642364736f6c63430007000033f8890eedd7900ad88da6192fd03dbb69dbeee963b1a0ed738abe49ab3331aaf3",
  "linkReferences": {},
  "deployedLinkReferences": {}
}