{
  "_format": "hh-sol-artifact-1",
  "contractName": "NetEmissionsTokenNetwork",
  "sourceName": "contracts/NetEmissionsTokenNetwork.sol",
  "abi": [
    {
      "inputs": [],
      "stateMutability": "nonpayable",
      "type": "constructor"
    },
    {
      "anonymous": false,
      "inputs": [
        {
          "indexed": true,
          "internalType": "address",
          "name": "account",
          "type": "address"
        },
        {
          "indexed": true,
          "internalType": "address",
          "name": "operator",
          "type": "address"
        },
        {
          "indexed": false,
          "internalType": "bool",
          "name": "approved",
          "type": "bool"
        }
      ],
      "name": "ApprovalForAll",
      "type": "event"
    },
    {
      "anonymous": false,
      "inputs": [
        {
          "indexed": true,
          "internalType": "address",
          "name": "account",
          "type": "address"
        }
      ],
      "name": "RegisteredDealer",
      "type": "event"
    },
    {
      "anonymous": false,
      "inputs": [
        {
          "indexed": true,
          "internalType": "bytes32",
          "name": "role",
          "type": "bytes32"
        },
        {
          "indexed": true,
          "internalType": "bytes32",
          "name": "previousAdminRole",
          "type": "bytes32"
        },
        {
          "indexed": true,
          "internalType": "bytes32",
          "name": "newAdminRole",
          "type": "bytes32"
        }
      ],
      "name": "RoleAdminChanged",
      "type": "event"
    },
    {
      "anonymous": false,
      "inputs": [
        {
          "indexed": true,
          "internalType": "bytes32",
          "name": "role",
          "type": "bytes32"
        },
        {
          "indexed": true,
          "internalType": "address",
          "name": "account",
          "type": "address"
        },
        {
          "indexed": true,
          "internalType": "address",
          "name": "sender",
          "type": "address"
        }
      ],
      "name": "RoleGranted",
      "type": "event"
    },
    {
      "anonymous": false,
      "inputs": [
        {
          "indexed": true,
          "internalType": "bytes32",
          "name": "role",
          "type": "bytes32"
        },
        {
          "indexed": true,
          "internalType": "address",
          "name": "account",
          "type": "address"
        },
        {
          "indexed": true,
          "internalType": "address",
          "name": "sender",
          "type": "address"
        }
      ],
      "name": "RoleRevoked",
      "type": "event"
    },
    {
      "anonymous": false,
      "inputs": [
        {
          "indexed": false,
          "internalType": "uint256",
          "name": "",
          "type": "uint256"
        }
      ],
      "name": "TokenCreated",
      "type": "event"
    },
    {
      "anonymous": false,
      "inputs": [
        {
          "indexed": true,
          "internalType": "address",
          "name": "operator",
          "type": "address"
        },
        {
          "indexed": true,
          "internalType": "address",
          "name": "from",
          "type": "address"
        },
        {
          "indexed": true,
          "internalType": "address",
          "name": "to",
          "type": "address"
        },
        {
          "indexed": false,
          "internalType": "uint256[]",
          "name": "ids",
          "type": "uint256[]"
        },
        {
          "indexed": false,
          "internalType": "uint256[]",
          "name": "values",
          "type": "uint256[]"
        }
      ],
      "name": "TransferBatch",
      "type": "event"
    },
    {
      "anonymous": false,
      "inputs": [
        {
          "indexed": true,
          "internalType": "address",
          "name": "operator",
          "type": "address"
        },
        {
          "indexed": true,
          "internalType": "address",
          "name": "from",
          "type": "address"
        },
        {
          "indexed": true,
          "internalType": "address",
          "name": "to",
          "type": "address"
        },
        {
          "indexed": false,
          "internalType": "uint256",
          "name": "id",
          "type": "uint256"
        },
        {
          "indexed": false,
          "internalType": "uint256",
          "name": "value",
          "type": "uint256"
        }
      ],
      "name": "TransferSingle",
      "type": "event"
    },
    {
      "anonymous": false,
      "inputs": [
        {
          "indexed": false,
          "internalType": "string",
          "name": "value",
          "type": "string"
        },
        {
          "indexed": true,
          "internalType": "uint256",
          "name": "id",
          "type": "uint256"
        }
      ],
      "name": "URI",
      "type": "event"
    },
    {
      "anonymous": false,
      "inputs": [
        {
          "indexed": true,
          "internalType": "address",
          "name": "account",
          "type": "address"
        }
      ],
      "name": "UnregisteredDealer",
      "type": "event"
    },
    {
      "inputs": [],
      "name": "DEFAULT_ADMIN_ROLE",
      "outputs": [
        {
          "internalType": "bytes32",
          "name": "",
          "type": "bytes32"
        }
      ],
      "stateMutability": "view",
      "type": "function"
    },
    {
      "inputs": [],
      "name": "REGISTERED_CONSUMER",
      "outputs": [
        {
          "internalType": "bytes32",
          "name": "",
          "type": "bytes32"
        }
      ],
      "stateMutability": "view",
      "type": "function"
    },
    {
      "inputs": [],
      "name": "REGISTERED_EMISSIONS_AUDITOR",
      "outputs": [
        {
          "internalType": "bytes32",
          "name": "",
          "type": "bytes32"
        }
      ],
      "stateMutability": "view",
      "type": "function"
    },
    {
      "inputs": [],
      "name": "REGISTERED_OFFSET_DEALER",
      "outputs": [
        {
          "internalType": "bytes32",
          "name": "",
          "type": "bytes32"
        }
      ],
      "stateMutability": "view",
      "type": "function"
    },
    {
      "inputs": [],
      "name": "REGISTERED_REC_DEALER",
      "outputs": [
        {
          "internalType": "bytes32",
          "name": "",
          "type": "bytes32"
        }
      ],
      "stateMutability": "view",
      "type": "function"
    },
    {
      "inputs": [
        {
          "internalType": "address",
          "name": "account",
          "type": "address"
        },
        {
          "internalType": "uint256",
          "name": "id",
          "type": "uint256"
        }
      ],
      "name": "balanceOf",
      "outputs": [
        {
          "internalType": "uint256",
          "name": "",
          "type": "uint256"
        }
      ],
      "stateMutability": "view",
      "type": "function"
    },
    {
      "inputs": [
        {
          "internalType": "address[]",
          "name": "accounts",
          "type": "address[]"
        },
        {
          "internalType": "uint256[]",
          "name": "ids",
          "type": "uint256[]"
        }
      ],
      "name": "balanceOfBatch",
      "outputs": [
        {
          "internalType": "uint256[]",
          "name": "",
          "type": "uint256[]"
        }
      ],
      "stateMutability": "view",
      "type": "function"
    },
    {
      "inputs": [
        {
          "internalType": "address",
          "name": "account",
          "type": "address"
        },
        {
          "internalType": "uint256",
          "name": "tokenId",
          "type": "uint256"
        }
      ],
      "name": "getAvailableAndRetired",
      "outputs": [
        {
          "internalType": "uint256",
          "name": "",
          "type": "uint256"
        },
        {
          "internalType": "uint256",
          "name": "",
          "type": "uint256"
        }
      ],
      "stateMutability": "view",
      "type": "function"
    },
    {
      "inputs": [
        {
          "internalType": "uint256",
          "name": "tokenId",
          "type": "uint256"
        }
      ],
      "name": "getIssuer",
      "outputs": [
        {
          "internalType": "address",
          "name": "",
          "type": "address"
        }
      ],
      "stateMutability": "view",
      "type": "function"
    },
    {
      "inputs": [],
      "name": "getNumOfUniqueTokens",
      "outputs": [
        {
          "internalType": "uint256",
          "name": "",
          "type": "uint256"
        }
      ],
      "stateMutability": "view",
      "type": "function"
    },
    {
      "inputs": [
        {
          "internalType": "bytes32",
          "name": "role",
          "type": "bytes32"
        }
      ],
      "name": "getRoleAdmin",
      "outputs": [
        {
          "internalType": "bytes32",
          "name": "",
          "type": "bytes32"
        }
      ],
      "stateMutability": "view",
      "type": "function"
    },
    {
      "inputs": [
        {
          "internalType": "bytes32",
          "name": "role",
          "type": "bytes32"
        },
        {
          "internalType": "uint256",
          "name": "index",
          "type": "uint256"
        }
      ],
      "name": "getRoleMember",
      "outputs": [
        {
          "internalType": "address",
          "name": "",
          "type": "address"
        }
      ],
      "stateMutability": "view",
      "type": "function"
    },
    {
      "inputs": [
        {
          "internalType": "bytes32",
          "name": "role",
          "type": "bytes32"
        }
      ],
      "name": "getRoleMemberCount",
      "outputs": [
        {
          "internalType": "uint256",
          "name": "",
          "type": "uint256"
        }
      ],
      "stateMutability": "view",
      "type": "function"
    },
    {
      "inputs": [
        {
          "internalType": "address",
          "name": "account",
          "type": "address"
        }
      ],
      "name": "getRoles",
      "outputs": [
        {
          "internalType": "bool",
          "name": "",
          "type": "bool"
        },
        {
          "internalType": "bool",
          "name": "",
          "type": "bool"
        },
        {
          "internalType": "bool",
          "name": "",
          "type": "bool"
        },
        {
          "internalType": "bool",
          "name": "",
          "type": "bool"
        },
        {
          "internalType": "bool",
          "name": "",
          "type": "bool"
        }
      ],
      "stateMutability": "view",
      "type": "function"
    },
    {
      "inputs": [
        {
          "internalType": "uint256",
          "name": "tokenId",
          "type": "uint256"
        }
      ],
      "name": "getTokenDetails",
      "outputs": [
        {
          "components": [
            {
              "internalType": "uint256",
              "name": "tokenId",
              "type": "uint256"
            },
            {
              "internalType": "uint8",
              "name": "tokenTypeId",
              "type": "uint8"
            },
            {
              "internalType": "address",
              "name": "issuer",
              "type": "address"
            },
            {
              "internalType": "address",
              "name": "issuee",
              "type": "address"
            },
            {
              "internalType": "string",
              "name": "uom",
              "type": "string"
            },
            {
              "internalType": "uint256",
              "name": "fromDate",
              "type": "uint256"
            },
            {
              "internalType": "uint256",
              "name": "thruDate",
              "type": "uint256"
            },
            {
              "internalType": "uint256",
              "name": "dateCreated",
              "type": "uint256"
            },
            {
              "internalType": "uint256",
              "name": "automaticRetireDate",
              "type": "uint256"
            },
            {
              "internalType": "string",
              "name": "metadata",
              "type": "string"
            },
            {
              "internalType": "string",
              "name": "manifest",
              "type": "string"
            },
            {
              "internalType": "string",
              "name": "description",
              "type": "string"
            },
            {
              "internalType": "bool",
              "name": "retired",
              "type": "bool"
            },
            {
              "internalType": "uint256",
              "name": "retiredAmount",
              "type": "uint256"
            }
          ],
          "internalType": "struct NetEmissionsTokenNetwork.CarbonTokenDetails",
          "name": "",
          "type": "tuple"
        }
      ],
      "stateMutability": "view",
      "type": "function"
    },
    {
      "inputs": [
        {
          "internalType": "uint256",
          "name": "tokenId",
          "type": "uint256"
        }
      ],
      "name": "getTokenRetiredAmount",
      "outputs": [
        {
          "internalType": "uint256",
          "name": "",
          "type": "uint256"
        }
      ],
      "stateMutability": "view",
      "type": "function"
    },
    {
      "inputs": [
        {
          "internalType": "uint256",
          "name": "tokenId",
          "type": "uint256"
        }
      ],
      "name": "getTokenType",
      "outputs": [
        {
          "internalType": "string",
          "name": "",
          "type": "string"
        }
      ],
      "stateMutability": "view",
      "type": "function"
    },
    {
      "inputs": [
        {
          "internalType": "bytes32",
          "name": "role",
          "type": "bytes32"
        },
        {
          "internalType": "address",
          "name": "account",
          "type": "address"
        }
      ],
      "name": "grantRole",
      "outputs": [],
      "stateMutability": "nonpayable",
      "type": "function"
    },
    {
      "inputs": [
        {
          "internalType": "bytes32",
          "name": "role",
          "type": "bytes32"
        },
        {
          "internalType": "address",
          "name": "account",
          "type": "address"
        }
      ],
      "name": "hasRole",
      "outputs": [
        {
          "internalType": "bool",
          "name": "",
          "type": "bool"
        }
      ],
      "stateMutability": "view",
      "type": "function"
    },
    {
      "inputs": [
        {
          "internalType": "address",
          "name": "account",
          "type": "address"
        },
        {
          "internalType": "address",
          "name": "operator",
          "type": "address"
        }
      ],
      "name": "isApprovedForAll",
      "outputs": [
        {
          "internalType": "bool",
          "name": "",
          "type": "bool"
        }
      ],
      "stateMutability": "view",
      "type": "function"
    },
    {
      "inputs": [
        {
          "internalType": "address",
          "name": "account",
          "type": "address"
        }
      ],
      "name": "isConsumerRegistered",
      "outputs": [
        {
          "internalType": "bool",
          "name": "",
          "type": "bool"
        }
      ],
      "stateMutability": "view",
      "type": "function"
    },
    {
      "inputs": [
        {
          "internalType": "address",
          "name": "account",
          "type": "address"
        }
      ],
      "name": "isDealerRegistered",
      "outputs": [
        {
          "internalType": "bool",
          "name": "",
          "type": "bool"
        }
      ],
      "stateMutability": "view",
      "type": "function"
    },
    {
      "inputs": [
        {
          "internalType": "uint256",
          "name": "tokenId",
          "type": "uint256"
        }
      ],
      "name": "isRetired",
      "outputs": [
        {
          "internalType": "bool",
          "name": "",
          "type": "bool"
        }
      ],
      "stateMutability": "view",
      "type": "function"
    },
    {
      "inputs": [
        {
          "internalType": "address",
          "name": "account",
          "type": "address"
        },
        {
          "internalType": "uint8",
          "name": "tokenTypeId",
          "type": "uint8"
        },
        {
          "internalType": "uint256",
          "name": "quantity",
          "type": "uint256"
        },
        {
          "internalType": "string",
          "name": "uom",
          "type": "string"
        },
        {
          "internalType": "uint256",
          "name": "fromDate",
          "type": "uint256"
        },
        {
          "internalType": "uint256",
          "name": "thruDate",
          "type": "uint256"
        },
        {
          "internalType": "uint256",
          "name": "automaticRetireDate",
          "type": "uint256"
        },
        {
          "internalType": "string",
          "name": "metadata",
          "type": "string"
        },
        {
          "internalType": "string",
          "name": "manifest",
          "type": "string"
        },
        {
          "internalType": "string",
          "name": "description",
          "type": "string"
        }
      ],
      "name": "issue",
      "outputs": [],
      "stateMutability": "nonpayable",
      "type": "function"
    },
    {
      "inputs": [
        {
          "internalType": "address",
          "name": "account",
          "type": "address"
        }
      ],
      "name": "registerConsumer",
      "outputs": [],
      "stateMutability": "nonpayable",
      "type": "function"
    },
    {
      "inputs": [
        {
          "internalType": "address",
          "name": "account",
          "type": "address"
        },
        {
          "internalType": "uint8",
          "name": "tokenTypeId",
          "type": "uint8"
        }
      ],
      "name": "registerDealer",
      "outputs": [],
      "stateMutability": "nonpayable",
      "type": "function"
    },
    {
      "inputs": [
        {
          "internalType": "bytes32",
          "name": "role",
          "type": "bytes32"
        },
        {
          "internalType": "address",
          "name": "account",
          "type": "address"
        }
      ],
      "name": "renounceRole",
      "outputs": [],
      "stateMutability": "nonpayable",
      "type": "function"
    },
    {
      "inputs": [
        {
          "internalType": "uint256",
          "name": "tokenId",
          "type": "uint256"
        },
        {
          "internalType": "uint256",
          "name": "amount",
          "type": "uint256"
        }
      ],
      "name": "retire",
      "outputs": [],
      "stateMutability": "nonpayable",
      "type": "function"
    },
    {
      "inputs": [
        {
          "internalType": "bytes32",
          "name": "role",
          "type": "bytes32"
        },
        {
          "internalType": "address",
          "name": "account",
          "type": "address"
        }
      ],
      "name": "revokeRole",
      "outputs": [],
      "stateMutability": "nonpayable",
      "type": "function"
    },
    {
      "inputs": [
        {
          "internalType": "address",
          "name": "from",
          "type": "address"
        },
        {
          "internalType": "address",
          "name": "to",
          "type": "address"
        },
        {
          "internalType": "uint256[]",
          "name": "ids",
          "type": "uint256[]"
        },
        {
          "internalType": "uint256[]",
          "name": "amounts",
          "type": "uint256[]"
        },
        {
          "internalType": "bytes",
          "name": "data",
          "type": "bytes"
        }
      ],
      "name": "safeBatchTransferFrom",
      "outputs": [],
      "stateMutability": "nonpayable",
      "type": "function"
    },
    {
      "inputs": [
        {
          "internalType": "address",
          "name": "from",
          "type": "address"
        },
        {
          "internalType": "address",
          "name": "to",
          "type": "address"
        },
        {
          "internalType": "uint256",
          "name": "id",
          "type": "uint256"
        },
        {
          "internalType": "uint256",
          "name": "amount",
          "type": "uint256"
        },
        {
          "internalType": "bytes",
          "name": "data",
          "type": "bytes"
        }
      ],
      "name": "safeTransferFrom",
      "outputs": [],
      "stateMutability": "nonpayable",
      "type": "function"
    },
    {
      "inputs": [
        {
          "internalType": "address",
          "name": "operator",
          "type": "address"
        },
        {
          "internalType": "bool",
          "name": "approved",
          "type": "bool"
        }
      ],
      "name": "setApprovalForAll",
      "outputs": [],
      "stateMutability": "nonpayable",
      "type": "function"
    },
    {
      "inputs": [
        {
          "internalType": "bytes4",
          "name": "interfaceId",
          "type": "bytes4"
        }
      ],
      "name": "supportsInterface",
      "outputs": [
        {
          "internalType": "bool",
          "name": "",
          "type": "bool"
        }
      ],
      "stateMutability": "view",
      "type": "function"
    },
    {
      "inputs": [
        {
          "internalType": "address",
          "name": "to",
          "type": "address"
        },
        {
          "internalType": "uint256",
          "name": "tokenId",
          "type": "uint256"
        },
        {
          "internalType": "uint256",
          "name": "value",
          "type": "uint256"
        }
      ],
      "name": "transfer",
      "outputs": [],
      "stateMutability": "nonpayable",
      "type": "function"
    },
    {
      "inputs": [
        {
          "internalType": "address",
          "name": "account",
          "type": "address"
        }
      ],
      "name": "unregisterConsumer",
      "outputs": [],
      "stateMutability": "nonpayable",
      "type": "function"
    },
    {
      "inputs": [
        {
          "internalType": "address",
          "name": "account",
          "type": "address"
        },
        {
          "internalType": "uint8",
          "name": "tokenTypeId",
          "type": "uint8"
        }
      ],
      "name": "unregisterDealer",
      "outputs": [],
      "stateMutability": "nonpayable",
      "type": "function"
    },
    {
      "inputs": [
        {
          "internalType": "uint256",
          "name": "",
          "type": "uint256"
        }
      ],
      "name": "uri",
      "outputs": [
        {
          "internalType": "string",
          "name": "",
          "type": "string"
        }
      ],
      "stateMutability": "view",
      "type": "function"
    }
  ],
  "bytecode": "0x6000600655601c60e09081527f52656e657761626c6520456e657267792043657274696669636174650000000061010052608090815260176101209081527f436172626f6e20456d697373696f6e73204f66667365740000000000000000006101405260a0526101a06040526011610160908152704175646974656420456d697373696f6e7360781b6101805260c0526200009f90600790600362000327565b50348015620000ad57600080fd5b506040805180820190915260098152681b1bd8d85b1a1bdcdd60ba1b6020820152620000e06301ffc9a760e01b620001a7565b620000eb8162000202565b620000fd636cdb3d1360e11b620001a7565b6200010f6303a24d0760e21b620001a7565b506200011d6000336200021b565b620001497f2ab9f1da92e74aaa01eb75a871557505b11dd8d36832a34bb21bbee88b08d860336200021b565b620001757fede6574deba8f02ada7888448a497b08844d62e044ed533343a673be3ffcde5f336200021b565b620001a17fe97dad3dbe5042e7384b1572cf966a15e089576a62b5126c5ef1d184ab18b12c336200021b565b620004c6565b6001600160e01b03198082161415620001dd5760405162461bcd60e51b8152600401620001d4906200048f565b60405180910390fd5b6001600160e01b0319166000908152602081905260409020805460ff19166001179055565b8051620002179060039060208401906200038b565b5050565b62000217828260008281526004602090815260409091206200024891839062001d046200029c821b17901c565b15620002175762000258620002bc565b6001600160a01b0316816001600160a01b0316837f2f8788117e7eff1d82e926ec794901d17c78024a50270940304540a733656f0d60405160405180910390a45050565b6000620002b3836001600160a01b038416620002c0565b90505b92915050565b3390565b6000620002ce83836200030f565b6200030657508154600181810184556000848152602080822090930184905584548482528286019093526040902091909155620002b6565b506000620002b6565b60009081526001919091016020526040902054151590565b82805482825590600052602060002090810192821562000379579160200282015b82811115620003795782518051620003689184916020909101906200038b565b509160200191906001019062000348565b50620003879291506200040c565b5090565b828054600181600116156101000203166002900490600052602060002090601f016020900481019282601f10620003ce57805160ff1916838001178555620003fe565b82800160010185558215620003fe579182015b82811115620003fe578251825591602001919060010190620003e1565b50620003879291506200042d565b808211156200038757600062000423828262000444565b506001016200040c565b5b808211156200038757600081556001016200042e565b50805460018160011615610100020316600290046000825580601f106200046c57506200048c565b601f0160209004906000526020600020908101906200048c91906200042d565b50565b6020808252601c908201527f4552433136353a20696e76616c696420696e7465726661636520696400000000604082015260600190565b61382f80620004d66000396000f3fe608060405234801561001057600080fd5b50600436106102265760003560e01c806376ce475511610130578063b46a08d7116100b8578063d547741f1161007c578063d547741f146104cc578063e2e564f2146104df578063e985e9c5146104f2578063f242432a14610505578063fcba79481461051857610226565b8063b46a08d71461044f578063c1e0372814610462578063ca15c87314610482578063ce6ccfaf14610495578063cf6ebee7146104b957610226565b806391d14854116100ff57806391d14854146103fb57806392089c461461040e5780639258d5c314610421578063a217fddf14610434578063a22cb4651461043c57610226565b806376ce4755146103aa57806378e5c592146103b25780637f157c9b146103ba5780639010d07c146103db57610226565b806331aa4b20116101b35780634e1273f4116101825780634e1273f41461034957806353dbe982146103695780635ddb368f1461037c57806369f7ef441461038457806376aed2e11461039757610226565b806331aa4b20146102fd57806333781a0e1461031057806336568abe1461032357806344b22fdd1461033657610226565b80631ef68ef7116101fa5780631ef68ef7146102a9578063248a9ca3146102b1578063293a7f2e146102c45780632eb2c2d6146102d75780632f2ff15d146102ea57610226565b8062fdd58e1461022b57806301ffc9a714610254578063095bcdb6146102745780630e89341c14610289575b600080fd5b61023e610239366004612828565b610520565b60405161024b9190612cde565b60405180910390f35b610267610262366004612ac3565b61057c565b60405161024b9190612caa565b610287610282366004612852565b61059f565b005b61029c610297366004612a66565b61070f565b60405161024b9190612ce7565b61023e6107a7565b61023e6102bf366004612a66565b6107b9565b6102876102d2366004612aa2565b6107ce565b6102876102e53660046126de565b6108f4565b6102876102f8366004612a7e565b610b06565b61028761030b366004612885565b610b4e565b61026761031e36600461268f565b610c4e565b610287610331366004612a7e565b610c68565b61028761034436600461268f565b610caa565b61035c6103573660046129a4565b610d7d565b60405161024b9190612c69565b61028761037736600461268f565b610ebd565b61023e610f90565b61026761039236600461268f565b610f97565b61029c6103a5366004612a66565b611019565b61023e611107565b61023e611119565b6103cd6103c8366004612828565b61112b565b60405161024b9291906135fd565b6103ee6103e9366004612aa2565b6111c0565b60405161024b9190612bb2565b610267610409366004612a7e565b6111df565b6103ee61041c366004612a66565b6111f7565b61023e61042f366004612a66565b611242565b61023e61127f565b61028761044a3660046127ed565b611284565b61028761045d3660046128b0565b611352565b610475610470366004612a66565b61163f565b60405161024b91906134e1565b61023e610490366004612a66565b611960565b6104a86104a336600461268f565b611977565b60405161024b959493929190612cb5565b6102676104c7366004612a66565b611a0b565b6102876104da366004612a7e565b611a4b565b6102876104ed366004612885565b611a85565b6102676105003660046126aa565b611b7a565b610287610513366004612788565b611ba8565b61023e611cf2565b60006001600160a01b0383166105515760405162461bcd60e51b815260040161054890612ea3565b60405180910390fd5b5060008181526001602090815260408083206001600160a01b03861684529091529020545b92915050565b6001600160e01b0319811660009081526020819052604090205460ff165b919050565b60006105b9600080516020613770833981519152336111df565b905060006105d56000805160206137ba833981519152336111df565b905060006105f1600080516020613750833981519152336111df565b9050600061060d6000805160206137da833981519152336111df565b905083806106185750825b806106205750815b806106285750805b6106445760405162461bcd60e51b815260040161054890612f3f565b61064d86611d19565b6106695760405162461bcd60e51b815260040161054890612fc0565b61067286611a0b565b1561068f5760405162461bcd60e51b8152600401610548906132b6565b61069887611d34565b6106b45760405162461bcd60e51b815260040161054890613042565b336001600160a01b03881614156106dd5760405162461bcd60e51b8152600401610548906133c3565b61070633888888604051806040016040528060048152602001630307830360e41b815250611ba8565b50505050505050565b60038054604080516020601f600260001961010060018816150201909516949094049384018190048102820181019092528281526060939092909183018282801561079b5780601f106107705761010080835404028352916020019161079b565b820191906000526020600020905b81548152906001019060200180831161077e57829003601f168201915b50505050509050919050565b60008051602061375083398151915281565b60009081526004602052604090206002015490565b60006107e8600080516020613770833981519152336111df565b905060006108046000805160206137ba833981519152336111df565b90506000610820600080516020613750833981519152336111df565b9050600061083c6000805160206137da833981519152336111df565b905083806108475750825b8061084f5750815b806108575750805b6108735760405162461bcd60e51b815260040161054890612f3f565b61087c86611d19565b6108985760405162461bcd60e51b815260040161054890612fc0565b6000868152600560205260409020600b015460ff16156108ca5760405162461bcd60e51b81526004016105489061316e565b6000868152600560205260409020600c018054860190556108ec338787611d4e565b505050505050565b81518351146109155760405162461bcd60e51b815260040161054890613409565b6001600160a01b03841661093b5760405162461bcd60e51b8152600401610548906130d7565b610943611e64565b6001600160a01b0316856001600160a01b03161480610969575061096985610500611e64565b6109855760405162461bcd60e51b81526004016105489061311c565b600061098f611e64565b905061099f8187878787876108ec565b60005b8451811015610aa05760008582815181106109b957fe5b6020026020010151905060008583815181106109d157fe5b60200260200101519050610a3e816040518060600160405280602a8152602001613790602a91396001600086815260200190815260200160002060008d6001600160a01b03166001600160a01b0316815260200190815260200160002054611e689092919063ffffffff16565b60008381526001602090815260408083206001600160a01b038e811685529252808320939093558a1681522054610a759082611e94565b60009283526001602081815260408086206001600160a01b038d1687529091529093205550016109a2565b50846001600160a01b0316866001600160a01b0316826001600160a01b03167f4a39dc06d4c0dbc64b70af90fd698a233a518aa5d07e595d983b8c0526c8f7fb8787604051610af0929190612c7c565b60405180910390a46108ec818787878787611eb9565b600082815260046020526040902060020154610b2490610409611e64565b610b405760405162461bcd60e51b815260040161054890612e25565b610b4a8282611fc7565b5050565b610b596000336111df565b610b755760405162461bcd60e51b815260040161054890613301565b610b7e81612030565b610b9a5760405162461bcd60e51b81526004016105489061327f565b8060ff1660011415610bc357610bbe6000805160206137ba83398151915283610b06565b610c0b565b8060ff1660021415610be757610bbe60008051602061375083398151915283610b06565b8060ff1660031415610c0b57610c0b6000805160206137da83398151915283610b06565b610c16600083610b06565b6040516001600160a01b038316907fa8377deee15954185683d55effd369508b4935978c8cb2bab790bf04c570181490600090a25050565b6000610576600080516020613770833981519152836111df565b610c70611e64565b6001600160a01b0316816001600160a01b031614610ca05760405162461bcd60e51b815260040161054890613492565b610b4a8282612056565b6000610cc46000805160206137ba833981519152336111df565b90506000610ce0600080516020613750833981519152336111df565b90506000610cfc6000805160206137da833981519152336111df565b90508280610d075750815b80610d0f5750805b610d2b5760405162461bcd60e51b815260040161054890612e74565b610d4360008051602061377083398151915285610b06565b6040516001600160a01b038516907fa8377deee15954185683d55effd369508b4935978c8cb2bab790bf04c570181490600090a250505050565b60608151835114610da05760405162461bcd60e51b81526004016105489061337a565b6060835167ffffffffffffffff81118015610dba57600080fd5b50604051908082528060200260200182016040528015610de4578160200160208202803683370190505b50905060005b8451811015610eb55760006001600160a01b0316858281518110610e0a57fe5b60200260200101516001600160a01b03161415610e395760405162461bcd60e51b815260040161054890612eee565b60016000858381518110610e4957fe5b602002602001015181526020019081526020016000206000868381518110610e6d57fe5b60200260200101516001600160a01b03166001600160a01b0316815260200190815260200160002054828281518110610ea257fe5b6020908102919091010152600101610dea565b509392505050565b6000610ed76000805160206137ba833981519152336111df565b90506000610ef3600080516020613750833981519152336111df565b90506000610f0f6000805160206137da833981519152336111df565b90508280610f1a5750815b80610f225750805b610f3e5760405162461bcd60e51b815260040161054890612e74565b610f5660008051602061377083398151915285611a4b565b6040516001600160a01b038516907f98552ded770f1d05a505572f3387c108dbc6b566ea3d49f83cff3d1f1c72a04290600090a250505050565b6006545b90565b600080610fb26000805160206137ba833981519152846111df565b90506000610fce600080516020613750833981519152856111df565b90506000610fea6000805160206137da833981519152866111df565b90508280610ff55750815b80610ffd5750805b1561100e576001935050505061059a565b506000949350505050565b606061102482611d19565b6110405760405162461bcd60e51b815260040161054890612fc0565b6000828152600560205260409020600101546007805460609260001960ff918216011690811061106c57fe5b600091825260209182902001805460408051601f60026000196101006001871615020190941693909304928301859004850281018501909152818152928301828280156110fa5780601f106110cf576101008083540402835291602001916110fa565b820191906000526020600020905b8154815290600101906020018083116110dd57829003601f168201915b5093979650505050505050565b6000805160206137da83398151915281565b60008051602061377083398151915281565b600080600061113a8585610520565b604051639258d5c360e01b81529091506000903090639258d5c390611163908890600401612cde565b60206040518083038186803b15801561117b57600080fd5b505afa15801561118f573d6000803e3d6000fd5b505050506040513d601f19601f820116820180604052508101906111b39190612afb565b9196919550909350505050565b60008281526004602052604081206111d890836120bf565b9392505050565b60008281526004602052604081206111d890836120cb565b600061120282611d19565b61121e5760405162461bcd60e51b815260040161054890612fc0565b5060009081526005602052604090206001015461010090046001600160a01b031690565b600061124d82611d19565b6112695760405162461bcd60e51b815260040161054890612fc0565b506000908152600560205260409020600c015490565b600081565b816001600160a01b0316611296611e64565b6001600160a01b031614156112bd5760405162461bcd60e51b815260040161054890613331565b80600260006112ca611e64565b6001600160a01b03908116825260208083019390935260409182016000908120918716808252919093529120805460ff19169215159290921790915561130e611e64565b6001600160a01b03167f17307eab39ab6107e8899845ad3d59bd9653f200f220920489ca2b5937696c31836040516113469190612caa565b60405180910390a35050565b600061136c6000805160206137ba833981519152336111df565b90506000611388600080516020613750833981519152336111df565b905060006113a46000805160206137da833981519152336111df565b905082806113af5750815b806113b75750805b6113d35760405162461bcd60e51b815260040161054890612e74565b600680546001019081905560009081526005602052604090206113f58d612030565b6114115760405162461bcd60e51b815260040161054890613237565b8c60ff1660011415611462576114356000805160206137ba833981519152336111df565b6114515760405162461bcd60e51b815260040161054890612ff0565b600b8101805460ff191690556114f5565b8c60ff16600214156114a257611486600080516020613750833981519152336111df565b6114515760405162461bcd60e51b815260040161054890612d90565b6114ba6000805160206137da833981519152336111df565b6114d65760405162461bcd60e51b8152600401610548906131e8565b600b8101805460ff19166001179055600c81018054909c01909b5560009a5b606060065482600001819055508d8260010160006101000a81548160ff021916908360ff160217905550338260010160016101000a8154816001600160a01b0302191690836001600160a01b031602179055508e8260020160006101000a8154816001600160a01b0302191690836001600160a01b031602179055508b826003019080519060200190611589929190612477565b50600482018b9055600582018a905587516115ad90600884019060208b0190612477565b5086516115c390600984019060208a0190612477565b504260068301556007820189905585516115e690600a8401906020890190612477565b506115f58f6006548f846120e0565b7f5871761b381266e7e47309f0821d5b396364ebb6371d878871cac5393cb93ea86006546040516116269190612cde565b60405180910390a1505050505050505050505050505050565b6116476124f5565b61165082611d19565b61166c5760405162461bcd60e51b815260040161054890612fc0565b60008281526005602090815260409182902082516101c0810184528154815260018083015460ff811683860152610100908190046001600160a01b039081168488015260028086015490911660608501526003850180548851948116159093026000190190921604601f8101869004860283018601909652858252919492936080860193919291908301828280156117455780601f1061171a57610100808354040283529160200191611745565b820191906000526020600020905b81548152906001019060200180831161172857829003601f168201915b5050505050815260200160048201548152602001600582015481526020016006820154815260200160078201548152602001600882018054600181600116156101000203166002900480601f01602080910402602001604051908101604052809291908181526020018280546001816001161561010002031660029004801561180f5780601f106117e45761010080835404028352916020019161180f565b820191906000526020600020905b8154815290600101906020018083116117f257829003601f168201915b505050918352505060098201805460408051602060026001851615610100026000190190941693909304601f81018490048402820184019092528181529382019392918301828280156118a35780601f10611878576101008083540402835291602001916118a3565b820191906000526020600020905b81548152906001019060200180831161188657829003601f168201915b5050509183525050600a8201805460408051602060026001851615610100026000190190941693909304601f81018490048402820184019092528181529382019392918301828280156119375780601f1061190c57610100808354040283529160200191611937565b820191906000526020600020905b81548152906001019060200180831161191a57829003601f168201915b5050509183525050600b82015460ff1615156020820152600c9091015460409091015292915050565b6000818152600460205260408120610576906121cb565b6000808080808061198881886111df565b905060006119a46000805160206137ba833981519152896111df565b905060006119c06000805160206137508339815191528a6111df565b905060006119dc6000805160206137da8339815191528b6111df565b905060006119f86000805160206137708339815191528c6111df565b949b939a50919850965091945092505050565b6000611a1682611d19565b611a325760405162461bcd60e51b815260040161054890612fc0565b506000908152600560205260409020600b015460ff1690565b600082815260046020526040902060020154611a6990610409611e64565b610ca05760405162461bcd60e51b815260040161054890613087565b611a906000336111df565b611aac5760405162461bcd60e51b815260040161054890613301565b611ab581612030565b611ad15760405162461bcd60e51b81526004016105489061327f565b8060ff1660011415611afa57611af56000805160206137ba83398151915283611a4b565b611b42565b8060ff1660021415611b1e57611af560008051602061375083398151915283611a4b565b8060ff1660031415611b4257611b426000805160206137da83398151915283611a4b565b6040516001600160a01b038316907f98552ded770f1d05a505572f3387c108dbc6b566ea3d49f83cff3d1f1c72a04290600090a25050565b6001600160a01b03918216600090815260026020908152604080832093909416825291909152205460ff1690565b6001600160a01b038416611bce5760405162461bcd60e51b8152600401610548906130d7565b6000611bd8611e64565b9050611bf8818787611be9886121d6565b611bf2886121d6565b876108ec565b611c3f836040518060600160405280602a8152602001613790602a913960008781526001602090815260408083206001600160a01b038d1684529091529020549190611e68565b60008581526001602090815260408083206001600160a01b038b81168552925280832093909355871681522054611c769084611e94565b60008581526001602090815260408083206001600160a01b03808b168086529190935292819020939093559151909188811691908416907fc3d58168c5ae7397731d063d5bbf3d657854427343f4c083240f7aacaa2d0f6290611cdc90899089906135fd565b60405180910390a46108ec81878787878761221a565b6000805160206137ba83398151915281565b60006111d8836001600160a01b0384166122eb565b60008160065410611d2c5750600161059a565b506000919050565b6000611d3f82610f97565b80610576575061057682610c4e565b6001600160a01b038316611d745760405162461bcd60e51b8152600401610548906131a5565b6000611d7e611e64565b9050611dae81856000611d90876121d6565b611d99876121d6565b604051806020016040528060008152506108ec565b611df58260405180606001604052806024815260200161372c6024913960008681526001602090815260408083206001600160a01b038b1684529091529020549190611e68565b60008481526001602090815260408083206001600160a01b03808a16808652919093528184209490945551919291908416907fc3d58168c5ae7397731d063d5bbf3d657854427343f4c083240f7aacaa2d0f6290611e5690889088906135fd565b60405180910390a450505050565b3390565b60008184841115611e8c5760405162461bcd60e51b81526004016105489190612ce7565b505050900390565b6000828201838110156111d85760405162461bcd60e51b815260040161054890612f89565b611ecb846001600160a01b0316612335565b156108ec5760405163bc197c8160e01b81526001600160a01b0385169063bc197c8190611f049089908990889088908890600401612bc6565b602060405180830381600087803b158015611f1e57600080fd5b505af1925050508015611f4e575060408051601f3d908101601f19168201909252611f4b91810190612adf565b60015b611f9757611f5a613658565b80611f655750611f7f565b8060405162461bcd60e51b81526004016105489190612ce7565b60405162461bcd60e51b815260040161054890612cfa565b6001600160e01b0319811663bc197c8160e01b146107065760405162461bcd60e51b815260040161054890612ddd565b6000828152600460205260409020611fdf9082611d04565b15610b4a57611fec611e64565b6001600160a01b0316816001600160a01b0316837f2f8788117e7eff1d82e926ec794901d17c78024a50270940304540a733656f0d60405160405180910390a45050565b6000808260ff16118015612049575060075460ff831611155b15611d2c5750600161059a565b600082815260046020526040902061206e908261233b565b15610b4a5761207b611e64565b6001600160a01b0316816001600160a01b0316837ff6391f5c32d9c69d2a47ea670b442974b53935d1edc7fd64eb21e047a839171b60405160405180910390a45050565b60006111d88383612350565b60006111d8836001600160a01b038416612395565b6001600160a01b0384166121065760405162461bcd60e51b815260040161054890613451565b6000612110611e64565b905061212281600087611be9886121d6565b60008481526001602090815260408083206001600160a01b038916845290915290205461214f9084611e94565b60008581526001602090815260408083206001600160a01b03808b16808652919093528184209490945551908416907fc3d58168c5ae7397731d063d5bbf3d657854427343f4c083240f7aacaa2d0f62906121ad90899089906135fd565b60405180910390a46121c48160008787878761221a565b5050505050565b6000610576826123ad565b60408051600180825281830190925260609182919060208083019080368337019050509050828160008151811061220957fe5b602090810291909101015292915050565b61222c846001600160a01b0316612335565b156108ec5760405163f23a6e6160e01b81526001600160a01b0385169063f23a6e61906122659089908990889088908890600401612c24565b602060405180830381600087803b15801561227f57600080fd5b505af19250505080156122af575060408051601f3d908101601f191682019092526122ac91810190612adf565b60015b6122bb57611f5a613658565b6001600160e01b0319811663f23a6e6160e01b146107065760405162461bcd60e51b815260040161054890612ddd565b60006122f78383612395565b61232d57508154600181810184556000848152602080822090930184905584548482528286019093526040902091909155610576565b506000610576565b3b151590565b60006111d8836001600160a01b0384166123b1565b815460009082106123735760405162461bcd60e51b815260040161054890612d4e565b82600001828154811061238257fe5b9060005260206000200154905092915050565b60009081526001919091016020526040902054151590565b5490565b6000818152600183016020526040812054801561246d57835460001980830191908101906000908790839081106123e457fe5b906000526020600020015490508087600001848154811061240157fe5b60009182526020808320909101929092558281526001898101909252604090209084019055865487908061243157fe5b60019003818190600052602060002001600090559055866001016000878152602001908152602001600020600090556001945050505050610576565b6000915050610576565b828054600181600116156101000203166002900490600052602060002090601f016020900481019282601f106124b857805160ff19168380011785556124e5565b828001600101855582156124e5579182015b828111156124e55782518255916020019190600101906124ca565b506124f192915061257b565b5090565b604051806101c0016040528060008152602001600060ff16815260200160006001600160a01b0316815260200160006001600160a01b031681526020016060815260200160008152602001600081526020016000815260200160008152602001606081526020016060815260200160608152602001600015158152602001600081525090565b5b808211156124f1576000815560010161257c565b80356001600160a01b038116811461057657600080fd5b600082601f8301126125b7578081fd5b81356125ca6125c582613632565b61360b565b8181529150602080830190848101818402860182018710156125eb57600080fd5b60005b8481101561260a578135845292820192908201906001016125ee565b505050505092915050565b600082601f830112612625578081fd5b813567ffffffffffffffff81111561263b578182fd5b61264e601f8201601f191660200161360b565b915080825283602082850101111561266557600080fd5b8060208401602084013760009082016020015292915050565b803560ff8116811461057657600080fd5b6000602082840312156126a0578081fd5b6111d88383612590565b600080604083850312156126bc578081fd5b6126c68484612590565b91506126d58460208501612590565b90509250929050565b600080600080600060a086880312156126f5578081fd5b8535612700816136fd565b94506020860135612710816136fd565b9350604086013567ffffffffffffffff8082111561272c578283fd5b61273889838a016125a7565b9450606088013591508082111561274d578283fd5b61275989838a016125a7565b9350608088013591508082111561276e578283fd5b5061277b88828901612615565b9150509295509295909350565b600080600080600060a0868803121561279f578081fd5b6127a98787612590565b94506127b88760208801612590565b93506040860135925060608601359150608086013567ffffffffffffffff8111156127e1578182fd5b61277b88828901612615565b600080604083850312156127ff578182fd5b6128098484612590565b91506020830135801515811461281d578182fd5b809150509250929050565b6000806040838503121561283a578182fd5b6128448484612590565b946020939093013593505050565b600080600060608486031215612866578283fd5b6128708585612590565b95602085013595506040909401359392505050565b60008060408385031215612897578182fd5b6128a18484612590565b91506126d5846020850161267e565b6000806000806000806000806000806101408b8d0312156128cf578788fd5b6128d98c8c612590565b99506128e88c60208d0161267e565b985060408b0135975060608b013567ffffffffffffffff8082111561290b578687fd5b6129178e838f01612615565b985060808d0135975060a08d0135965060c08d0135955060e08d0135915080821115612941578485fd5b61294d8e838f01612615565b94506101008d0135915080821115612963578384fd5b61296f8e838f01612615565b93506101208d0135915080821115612985578283fd5b506129928d828e01612615565b9150509295989b9194979a5092959850565b600080604083850312156129b6578182fd5b823567ffffffffffffffff808211156129cd578384fd5b818501915085601f8301126129e0578384fd5b81356129ee6125c582613632565b80828252602080830192508086018a828387028901011115612a0e578889fd5b8896505b84871015612a3857612a248b82612590565b845260019690960195928101928101612a12565b509096508701359350505080821115612a4f578283fd5b50612a5c858286016125a7565b9150509250929050565b600060208284031215612a77578081fd5b5035919050565b60008060408385031215612a90578182fd5b82359150602083013561281d816136fd565b60008060408385031215612ab4578182fd5b50508035926020909101359150565b600060208284031215612ad4578081fd5b81356111d881613715565b600060208284031215612af0578081fd5b81516111d881613715565b600060208284031215612b0c578081fd5b5051919050565b6001600160a01b03169052565b6000815180845260208085019450808401835b83811015612b4f57815187529582019590820190600101612b33565b509495945050505050565b15159052565b60008151808452815b81811015612b8557602081850181015186830182015201612b69565b81811115612b965782602083870101525b50601f01601f19169290920160200192915050565b60ff169052565b6001600160a01b0391909116815260200190565b6001600160a01b0386811682528516602082015260a060408201819052600090612bf290830186612b20565b8281036060840152612c048186612b20565b90508281036080840152612c188185612b60565b98975050505050505050565b6001600160a01b03868116825285166020820152604081018490526060810183905260a060808201819052600090612c5e90830184612b60565b979650505050505050565b6000602082526111d86020830184612b20565b600060408252612c8f6040830185612b20565b8281036020840152612ca18185612b20565b95945050505050565b901515815260200190565b941515855292151560208501529015156040840152151560608301521515608082015260a00190565b90815260200190565b6000602082526111d86020830184612b60565b60208082526034908201527f455243313135353a207472616e7366657220746f206e6f6e20455243313135356040820152732932b1b2b4bb32b91034b6b83632b6b2b73a32b960611b606082015260800190565b60208082526022908201527f456e756d657261626c655365743a20696e646578206f7574206f6620626f756e604082015261647360f01b606082015260800190565b6020808252602d908201527f596f7520617265206e6f74206120436172626f6e20456d697373696f6e73204f60408201526c333339b2ba103232b0b632b91760991b606082015260800190565b60208082526028908201527f455243313135353a204552433131353552656365697665722072656a656374656040820152676420746f6b656e7360c01b606082015260800190565b6020808252602f908201527f416363657373436f6e74726f6c3a2073656e646572206d75737420626520616e60408201526e0818591b5a5b881d1bc819dc985b9d608a1b606082015260800190565b6020808252601590820152742cb7ba9030b932903737ba1030903232b0b632b91760591b604082015260600190565b6020808252602b908201527f455243313135353a2062616c616e636520717565727920666f7220746865207a60408201526a65726f206164647265737360a81b606082015260800190565b60208082526031908201527f455243313135353a2062617463682062616c616e636520717565727920666f7260408201527020746865207a65726f206164647265737360781b606082015260800190565b6020808252602a908201527f596f75206d75737420626520656974686572206120636f6e73756d6572206f726040820152691030903232b0b632b91760b11b606082015260800190565b6020808252601b908201527f536166654d6174683a206164646974696f6e206f766572666c6f770000000000604082015260600190565b6020808252601690820152751d1bdad95b925908191bd95cc81b9bdd08195e1a5cdd60521b604082015260600190565b60208082526032908201527f596f7520617265206e6f7420612052656e657761626c6520456e65726779204360408201527132b93a34b334b1b0ba32903232b0b632b91760711b606082015260800190565b60208082526025908201527f526563697069656e74206d75737420626520636f6e73756d6572206f7220646560408201526430b632b91760d91b606082015260800190565b60208082526030908201527f416363657373436f6e74726f6c3a2073656e646572206d75737420626520616e60408201526f2061646d696e20746f207265766f6b6560801b606082015260800190565b60208082526025908201527f455243313135353a207472616e7366657220746f20746865207a65726f206164604082015264647265737360d81b606082015260800190565b60208082526032908201527f455243313135353a207472616e736665722063616c6c6572206973206e6f74206040820152711bdddb995c881b9bdc88185c1c1c9bdd995960721b606082015260800190565b60208082526018908201527f746f6b656e20697320616c726561647920726574697265640000000000000000604082015260600190565b60208082526023908201527f455243313135353a206275726e2066726f6d20746865207a65726f206164647260408201526265737360e81b606082015260800190565b6020808252602f908201527f596f7520617265206e6f7420616e204175646974656420456d697373696f6e7360408201526e1020b6b7bab73a103232b0b632b91760891b606082015260800190565b60208082526028908201527f4661696c656420746f2069737375653a20746f6b656e5479706549642069732060408201526734b73b30b634b21760c11b606082015260800190565b60208082526019908201527f546f6b656e207479706520646f6573206e6f7420657869737400000000000000604082015260600190565b6020808252602b908201527f546f6b656e20697320726574697265642e205472616e73666572206973206e6f60408201526a1d081c195c9b5a5d1d195960aa1b606082015260800190565b6020808252601690820152752cb7ba9030b932903737ba103a34329037bbb732b91760511b604082015260600190565b60208082526029908201527f455243313135353a2073657474696e6720617070726f76616c20737461747573604082015268103337b91039b2b63360b91b606082015260800190565b60208082526029908201527f455243313135353a206163636f756e747320616e6420696473206c656e677468604082015268040dad2e6dac2e8c6d60bb1b606082015260800190565b60208082526026908201527f53656e64657220616e642072656365697665722063616e6e6f74206265207468604082015265652073616d6560d01b606082015260800190565b60208082526028908201527f455243313135353a2069647320616e6420616d6f756e7473206c656e677468206040820152670dad2e6dac2e8c6d60c31b606082015260800190565b60208082526021908201527f455243313135353a206d696e7420746f20746865207a65726f206164647265736040820152607360f81b606082015260800190565b6020808252602f908201527f416363657373436f6e74726f6c3a2063616e206f6e6c792072656e6f756e636560408201526e103937b632b9903337b91039b2b63360891b606082015260800190565b6000602082528251602083015260208301516135006040840182612bab565b5060408301516135136060840182612b13565b5060608301516135266080840182612b13565b5060808301516101c08060a08501526135436101e0850183612b60565b915060a085015160c085015260c085015160e085015260e0850151610100818187015280870151915050610120818187015280870151915050601f196101408187860301818801526135958584612b60565b9450808801519250506101608187860301818801526135b48584612b60565b9450808801519250506101808187860301818801526135d38584612b60565b945080880151925050506101a06135ec81870183612b5a565b959095015193019290925250919050565b918252602082015260400190565b60405181810167ffffffffffffffff8111828210171561362a57600080fd5b604052919050565b600067ffffffffffffffff821115613648578081fd5b5060209081020190565b60e01c90565b600060443d101561366857610f94565b600481823e6308c379a061367c8251613652565b1461368657610f94565b6040513d600319016004823e80513d67ffffffffffffffff81602484011181841117156136b65750505050610f94565b828401925082519150808211156136d05750505050610f94565b503d830160208284010111156136e857505050610f94565b601f01601f1916810160200160405291505090565b6001600160a01b038116811461371257600080fd5b50565b6001600160e01b03198116811461371257600080fdfe455243313135353a206275726e20616d6f756e7420657863656564732062616c616e6365ede6574deba8f02ada7888448a497b08844d62e044ed533343a673be3ffcde5f5e1aa547d3dade8c68b013a47ad41c2bcc9b9e4b0765b0fb616780e15786e76a455243313135353a20696e73756666696369656e742062616c616e636520666f72207472616e736665722ab9f1da92e74aaa01eb75a871557505b11dd8d36832a34bb21bbee88b08d860e97dad3dbe5042e7384b1572cf966a15e089576a62b5126c5ef1d184ab18b12ca2646970667358221220d9a97ebd46774965e9159892cdfa6fbf889c6c33bb06005cf9b0b5fb7b7e01db64736f6c63430007000033",
  "linkReferences": {},
  "deployedLinkReferences": {}
}