{
  "address": "0x2F9f3A1070f941a656C11A0D92Bd0bAf70D0550c",
  "abi": [
    {
      "anonymous": false,
      "inputs": [
        {
          "indexed": true,
          "internalType": "address",
          "name": "account",
          "type": "address"
        },
        {
          "indexed": true,
          "internalType": "address",
          "name": "operator",
          "type": "address"
        },
        {
          "indexed": false,
          "internalType": "bool",
          "name": "approved",
          "type": "bool"
        }
      ],
      "name": "ApprovalForAll",
      "type": "event"
    },
    {
      "anonymous": false,
      "inputs": [
        {
          "indexed": false,
          "internalType": "uint8",
          "name": "version",
          "type": "uint8"
        }
      ],
      "name": "Initialized",
      "type": "event"
    },
    {
      "anonymous": false,
      "inputs": [
        {
          "indexed": true,
          "internalType": "address",
          "name": "account",
          "type": "address"
        }
      ],
      "name": "RegisteredConsumer",
      "type": "event"
    },
    {
      "anonymous": false,
      "inputs": [
        {
          "indexed": true,
          "internalType": "address",
          "name": "account",
          "type": "address"
        }
      ],
      "name": "RegisteredDealer",
      "type": "event"
    },
    {
      "anonymous": false,
      "inputs": [
        {
          "indexed": true,
          "internalType": "address",
          "name": "account",
          "type": "address"
        }
      ],
      "name": "RegisteredIndustry",
      "type": "event"
    },
    {
      "anonymous": false,
      "inputs": [
        {
          "indexed": true,
          "internalType": "bytes32",
          "name": "role",
          "type": "bytes32"
        },
        {
          "indexed": true,
          "internalType": "bytes32",
          "name": "previousAdminRole",
          "type": "bytes32"
        },
        {
          "indexed": true,
          "internalType": "bytes32",
          "name": "newAdminRole",
          "type": "bytes32"
        }
      ],
      "name": "RoleAdminChanged",
      "type": "event"
    },
    {
      "anonymous": false,
      "inputs": [
        {
          "indexed": true,
          "internalType": "bytes32",
          "name": "role",
          "type": "bytes32"
        },
        {
          "indexed": true,
          "internalType": "address",
          "name": "account",
          "type": "address"
        },
        {
          "indexed": true,
          "internalType": "address",
          "name": "sender",
          "type": "address"
        }
      ],
      "name": "RoleGranted",
      "type": "event"
    },
    {
      "anonymous": false,
      "inputs": [
        {
          "indexed": true,
          "internalType": "bytes32",
          "name": "role",
          "type": "bytes32"
        },
        {
          "indexed": true,
          "internalType": "address",
          "name": "account",
          "type": "address"
        },
        {
          "indexed": true,
          "internalType": "address",
          "name": "sender",
          "type": "address"
        }
      ],
      "name": "RoleRevoked",
      "type": "event"
    },
    {
      "anonymous": false,
      "inputs": [
        {
          "indexed": false,
          "internalType": "uint256",
          "name": "availableBalance",
          "type": "uint256"
        },
        {
          "indexed": false,
          "internalType": "uint256",
          "name": "retiredBalance",
          "type": "uint256"
        },
        {
          "indexed": false,
          "internalType": "uint256",
          "name": "tokenId",
          "type": "uint256"
        },
        {
          "indexed": false,
          "internalType": "uint8",
          "name": "tokenTypeId",
          "type": "uint8"
        },
        {
          "indexed": true,
          "internalType": "address",
          "name": "issuedBy",
          "type": "address"
        },
        {
          "indexed": true,
          "internalType": "uint160",
          "name": "issuedFrom",
          "type": "uint160"
        },
        {
          "indexed": true,
          "internalType": "address",
          "name": "issuedTo",
          "type": "address"
        },
        {
          "indexed": false,
          "internalType": "uint256",
          "name": "fromDate",
          "type": "uint256"
        },
        {
          "indexed": false,
          "internalType": "uint256",
          "name": "thruDate",
          "type": "uint256"
        },
        {
          "indexed": false,
          "internalType": "uint256",
          "name": "dateCreated",
          "type": "uint256"
        },
        {
          "indexed": false,
          "internalType": "string",
          "name": "metadata",
          "type": "string"
        },
        {
          "indexed": false,
          "internalType": "string",
          "name": "manifest",
          "type": "string"
        },
        {
          "indexed": false,
          "internalType": "string",
          "name": "description",
          "type": "string"
        }
      ],
      "name": "TokenCreated",
      "type": "event"
    },
    {
      "anonymous": false,
      "inputs": [
        {
          "indexed": true,
          "internalType": "address",
          "name": "account",
          "type": "address"
        },
        {
          "indexed": false,
          "internalType": "uint256",
          "name": "tokenId",
          "type": "uint256"
        },
        {
          "indexed": false,
          "internalType": "uint256",
          "name": "amount",
          "type": "uint256"
        }
      ],
      "name": "TokenRetired",
      "type": "event"
    },
    {
      "anonymous": false,
      "inputs": [
        {
          "indexed": true,
          "internalType": "address",
          "name": "operator",
          "type": "address"
        },
        {
          "indexed": true,
          "internalType": "address",
          "name": "from",
          "type": "address"
        },
        {
          "indexed": true,
          "internalType": "address",
          "name": "to",
          "type": "address"
        },
        {
          "indexed": false,
          "internalType": "uint256[]",
          "name": "ids",
          "type": "uint256[]"
        },
        {
          "indexed": false,
          "internalType": "uint256[]",
          "name": "values",
          "type": "uint256[]"
        }
      ],
      "name": "TransferBatch",
      "type": "event"
    },
    {
      "anonymous": false,
      "inputs": [
        {
          "indexed": true,
          "internalType": "address",
          "name": "operator",
          "type": "address"
        },
        {
          "indexed": true,
          "internalType": "address",
          "name": "from",
          "type": "address"
        },
        {
          "indexed": true,
          "internalType": "address",
          "name": "to",
          "type": "address"
        },
        {
          "indexed": false,
          "internalType": "uint256",
          "name": "id",
          "type": "uint256"
        },
        {
          "indexed": false,
          "internalType": "uint256",
          "name": "value",
          "type": "uint256"
        }
      ],
      "name": "TransferSingle",
      "type": "event"
    },
    {
      "anonymous": false,
      "inputs": [
        {
          "indexed": false,
          "internalType": "string",
          "name": "value",
          "type": "string"
        },
        {
          "indexed": true,
          "internalType": "uint256",
          "name": "id",
          "type": "uint256"
        }
      ],
      "name": "URI",
      "type": "event"
    },
    {
      "anonymous": false,
      "inputs": [
        {
          "indexed": true,
          "internalType": "address",
          "name": "account",
          "type": "address"
        }
      ],
      "name": "UnregisteredConsumer",
      "type": "event"
    },
    {
      "anonymous": false,
      "inputs": [
        {
          "indexed": true,
          "internalType": "address",
          "name": "account",
          "type": "address"
        }
      ],
      "name": "UnregisteredDealer",
      "type": "event"
    },
    {
      "anonymous": false,
      "inputs": [
        {
          "indexed": true,
          "internalType": "address",
          "name": "account",
          "type": "address"
        }
      ],
      "name": "UnregisteredIndustry",
      "type": "event"
    },
    {
      "inputs": [],
      "name": "DEFAULT_ADMIN_ROLE",
      "outputs": [
        {
          "internalType": "bytes32",
          "name": "",
          "type": "bytes32"
        }
      ],
      "stateMutability": "view",
      "type": "function"
    },
    {
      "inputs": [],
      "name": "REGISTERED_CONSUMER",
      "outputs": [
        {
          "internalType": "bytes32",
          "name": "",
          "type": "bytes32"
        }
      ],
      "stateMutability": "view",
      "type": "function"
    },
    {
      "inputs": [],
      "name": "REGISTERED_DEALER",
      "outputs": [
        {
          "internalType": "bytes32",
          "name": "",
          "type": "bytes32"
        }
      ],
      "stateMutability": "view",
      "type": "function"
    },
    {
      "inputs": [],
      "name": "REGISTERED_EMISSIONS_AUDITOR",
      "outputs": [
        {
          "internalType": "bytes32",
          "name": "",
          "type": "bytes32"
        }
      ],
      "stateMutability": "view",
      "type": "function"
    },
    {
      "inputs": [],
      "name": "REGISTERED_INDUSTRY",
      "outputs": [
        {
          "internalType": "bytes32",
          "name": "",
          "type": "bytes32"
        }
      ],
      "stateMutability": "view",
      "type": "function"
    },
    {
      "inputs": [],
      "name": "REGISTERED_OFFSET_DEALER",
      "outputs": [
        {
          "internalType": "bytes32",
          "name": "",
          "type": "bytes32"
        }
      ],
      "stateMutability": "view",
      "type": "function"
    },
    {
      "inputs": [],
      "name": "REGISTERED_REC_DEALER",
      "outputs": [
        {
          "internalType": "bytes32",
          "name": "",
          "type": "bytes32"
        }
      ],
      "stateMutability": "view",
      "type": "function"
    },
    {
      "inputs": [
        {
          "internalType": "address",
          "name": "entity",
          "type": "address"
        }
      ],
      "name": "_consumerOrDealer",
      "outputs": [
        {
          "internalType": "bool",
          "name": "",
          "type": "bool"
        }
      ],
      "stateMutability": "view",
      "type": "function"
    },
    {
      "inputs": [],
      "name": "admin",
      "outputs": [
        {
          "internalType": "address",
          "name": "",
          "type": "address"
        }
      ],
      "stateMutability": "view",
      "type": "function"
    },
    {
      "inputs": [
        {
          "internalType": "address",
          "name": "account",
          "type": "address"
        },
        {
          "internalType": "uint256",
          "name": "id",
          "type": "uint256"
        }
      ],
      "name": "balanceOf",
      "outputs": [
        {
          "internalType": "uint256",
          "name": "",
          "type": "uint256"
        }
      ],
      "stateMutability": "view",
      "type": "function"
    },
    {
      "inputs": [
        {
          "internalType": "address[]",
          "name": "accounts",
          "type": "address[]"
        },
        {
          "internalType": "uint256[]",
          "name": "ids",
          "type": "uint256[]"
        }
      ],
      "name": "balanceOfBatch",
      "outputs": [
        {
          "internalType": "uint256[]",
          "name": "",
          "type": "uint256[]"
        }
      ],
      "stateMutability": "view",
      "type": "function"
    },
    {
      "inputs": [
        {
          "internalType": "address",
          "name": "account",
          "type": "address"
        },
        {
          "internalType": "uint256",
          "name": "tokenId",
          "type": "uint256"
        }
      ],
      "name": "getAvailableAndRetired",
      "outputs": [
        {
          "internalType": "uint256",
          "name": "",
          "type": "uint256"
        },
        {
          "internalType": "uint256",
          "name": "",
          "type": "uint256"
        }
      ],
      "stateMutability": "view",
      "type": "function"
    },
    {
      "inputs": [
        {
          "internalType": "uint256",
          "name": "tokenId",
          "type": "uint256"
        }
      ],
      "name": "getIssuedBy",
      "outputs": [
        {
          "internalType": "address",
          "name": "",
          "type": "address"
        }
      ],
      "stateMutability": "view",
      "type": "function"
    },
    {
      "inputs": [
        {
          "internalType": "uint256",
          "name": "tokenId",
          "type": "uint256"
        }
      ],
      "name": "getIssuedFrom",
      "outputs": [
        {
          "internalType": "uint160",
          "name": "",
          "type": "uint160"
        }
      ],
      "stateMutability": "view",
      "type": "function"
    },
    {
      "inputs": [],
      "name": "getNumOfUniqueTokens",
      "outputs": [
        {
          "internalType": "uint256",
          "name": "",
          "type": "uint256"
        }
      ],
      "stateMutability": "view",
      "type": "function"
    },
    {
      "inputs": [
        {
          "internalType": "uint256",
          "name": "tokenId",
          "type": "uint256"
        },
        {
          "internalType": "address",
          "name": "account",
          "type": "address"
        }
      ],
      "name": "getRetiredBalances",
      "outputs": [
        {
          "internalType": "uint256",
          "name": "",
          "type": "uint256"
        }
      ],
      "stateMutability": "view",
      "type": "function"
    },
    {
      "inputs": [
        {
          "internalType": "bytes32",
          "name": "role",
          "type": "bytes32"
        }
      ],
      "name": "getRoleAdmin",
      "outputs": [
        {
          "internalType": "bytes32",
          "name": "",
          "type": "bytes32"
        }
      ],
      "stateMutability": "view",
      "type": "function"
    },
    {
      "inputs": [
        {
          "internalType": "address",
          "name": "account",
          "type": "address"
        }
      ],
      "name": "getRoles",
      "outputs": [
        {
          "components": [
            {
              "internalType": "bool",
              "name": "isAdmin",
              "type": "bool"
            },
            {
              "internalType": "bool",
              "name": "isConsumer",
              "type": "bool"
            },
            {
              "internalType": "bool",
              "name": "isRecDealer",
              "type": "bool"
            },
            {
              "internalType": "bool",
              "name": "isCeoDealer",
              "type": "bool"
            },
            {
              "internalType": "bool",
              "name": "isAeDealer",
              "type": "bool"
            },
            {
              "internalType": "bool",
              "name": "isIndustry",
              "type": "bool"
            }
          ],
          "internalType": "struct NetEmissionsTokenNetwork.RolesInfo",
          "name": "",
          "type": "tuple"
        }
      ],
      "stateMutability": "view",
      "type": "function"
    },
    {
      "inputs": [
        {
          "internalType": "uint256",
          "name": "tokenId",
          "type": "uint256"
        }
      ],
      "name": "getTokenDetails",
      "outputs": [
        {
          "components": [
            {
              "internalType": "uint256",
              "name": "tokenId",
              "type": "uint256"
            },
            {
              "internalType": "uint8",
              "name": "tokenTypeId",
              "type": "uint8"
            },
            {
              "internalType": "address",
              "name": "issuedBy",
              "type": "address"
            },
            {
              "internalType": "uint160",
              "name": "issuedFrom",
              "type": "uint160"
            },
            {
              "internalType": "address",
              "name": "issuedTo",
              "type": "address"
            },
            {
              "internalType": "uint256",
              "name": "fromDate",
              "type": "uint256"
            },
            {
              "internalType": "uint256",
              "name": "thruDate",
              "type": "uint256"
            },
            {
              "internalType": "uint256",
              "name": "dateCreated",
              "type": "uint256"
            },
            {
              "internalType": "string",
              "name": "metadata",
              "type": "string"
            },
            {
              "internalType": "string",
              "name": "manifest",
              "type": "string"
            },
            {
              "internalType": "string",
              "name": "description",
              "type": "string"
            },
            {
              "internalType": "uint256",
              "name": "totalIssued",
              "type": "uint256"
            },
            {
              "internalType": "uint256",
              "name": "totalRetired",
              "type": "uint256"
            }
          ],
          "internalType": "struct NetEmissionsTokenNetwork.CarbonTokenDetails",
          "name": "",
          "type": "tuple"
        }
      ],
      "stateMutability": "view",
      "type": "function"
    },
    {
      "inputs": [
        {
          "internalType": "address",
          "name": "account",
          "type": "address"
        },
        {
          "internalType": "uint256",
          "name": "tokenId",
          "type": "uint256"
        }
      ],
      "name": "getTokenRetiredAmount",
      "outputs": [
        {
          "internalType": "uint256",
          "name": "",
          "type": "uint256"
        }
      ],
      "stateMutability": "view",
      "type": "function"
    },
    {
      "inputs": [
        {
          "internalType": "uint256",
          "name": "tokenId",
          "type": "uint256"
        }
      ],
      "name": "getTokenType",
      "outputs": [
        {
          "internalType": "string",
          "name": "",
          "type": "string"
        }
      ],
      "stateMutability": "view",
      "type": "function"
    },
    {
      "inputs": [
        {
          "internalType": "uint256",
          "name": "tokenId",
          "type": "uint256"
        }
      ],
      "name": "getTokenTypeId",
      "outputs": [
        {
          "internalType": "uint8",
          "name": "",
          "type": "uint8"
        }
      ],
      "stateMutability": "view",
      "type": "function"
    },
    {
      "inputs": [
        {
          "internalType": "address",
          "name": "_from",
          "type": "address"
        },
        {
          "internalType": "address",
          "name": "_to",
          "type": "address"
        },
        {
          "internalType": "uint256[]",
          "name": "_ids",
          "type": "uint256[]"
        },
        {
          "internalType": "uint256[]",
          "name": "_amounts",
          "type": "uint256[]"
        }
      ],
      "name": "getTransferHash",
      "outputs": [
        {
          "internalType": "bytes32",
          "name": "",
          "type": "bytes32"
        }
      ],
      "stateMutability": "view",
      "type": "function"
    },
    {
      "inputs": [
        {
          "internalType": "bytes32",
          "name": "role",
          "type": "bytes32"
        },
        {
          "internalType": "address",
          "name": "account",
          "type": "address"
        }
      ],
      "name": "grantRole",
      "outputs": [],
      "stateMutability": "nonpayable",
      "type": "function"
    },
    {
      "inputs": [
        {
          "internalType": "bytes32",
          "name": "role",
          "type": "bytes32"
        },
        {
          "internalType": "address",
          "name": "account",
          "type": "address"
        }
      ],
      "name": "hasRole",
      "outputs": [
        {
          "internalType": "bool",
          "name": "",
          "type": "bool"
        }
      ],
      "stateMutability": "view",
      "type": "function"
    },
    {
      "inputs": [
        {
          "internalType": "address",
          "name": "_admin",
          "type": "address"
        }
      ],
      "name": "initialize",
      "outputs": [],
      "stateMutability": "nonpayable",
      "type": "function"
    },
    {
      "inputs": [
        {
          "internalType": "address",
          "name": "account",
          "type": "address"
        },
        {
          "internalType": "address",
          "name": "operator",
          "type": "address"
        }
      ],
      "name": "isApprovedForAll",
      "outputs": [
        {
          "internalType": "bool",
          "name": "",
          "type": "bool"
        }
      ],
      "stateMutability": "view",
      "type": "function"
    },
    {
      "inputs": [
        {
          "internalType": "address",
          "name": "auditor",
          "type": "address"
        }
      ],
      "name": "isAuditor",
      "outputs": [
        {
          "internalType": "bool",
          "name": "",
          "type": "bool"
        }
      ],
      "stateMutability": "view",
      "type": "function"
    },
    {
      "inputs": [
        {
          "internalType": "address",
          "name": "account",
          "type": "address"
        }
      ],
      "name": "isConsumerRegistered",
      "outputs": [
        {
          "internalType": "bool",
          "name": "",
          "type": "bool"
        }
      ],
      "stateMutability": "view",
      "type": "function"
    },
    {
      "inputs": [
        {
          "internalType": "address",
          "name": "account",
          "type": "address"
        }
      ],
      "name": "isDealerRegistered",
      "outputs": [
        {
          "internalType": "bool",
          "name": "",
          "type": "bool"
        }
      ],
      "stateMutability": "view",
      "type": "function"
    },
    {
      "inputs": [
        {
          "internalType": "address",
          "name": "industry",
          "type": "address"
        }
      ],
      "name": "isIndustry",
      "outputs": [
        {
          "internalType": "bool",
          "name": "",
          "type": "bool"
        }
      ],
      "stateMutability": "view",
      "type": "function"
    },
    {
      "inputs": [
        {
          "internalType": "uint160",
          "name": "issuedFrom",
          "type": "uint160"
        },
        {
          "internalType": "address",
          "name": "issuedTo",
          "type": "address"
        },
        {
          "internalType": "uint8",
          "name": "tokenTypeId",
          "type": "uint8"
        },
        {
          "internalType": "uint256",
          "name": "quantity",
          "type": "uint256"
        },
        {
          "internalType": "uint256",
          "name": "fromDate",
          "type": "uint256"
        },
        {
          "internalType": "uint256",
          "name": "thruDate",
          "type": "uint256"
        },
        {
          "internalType": "string",
          "name": "metadata",
          "type": "string"
        },
        {
          "internalType": "string",
          "name": "manifest",
          "type": "string"
        },
        {
          "internalType": "string",
          "name": "description",
          "type": "string"
        }
      ],
      "name": "issue",
      "outputs": [],
      "stateMutability": "nonpayable",
      "type": "function"
    },
    {
      "inputs": [
        {
          "internalType": "uint160",
          "name": "issuedFrom",
          "type": "uint160"
        },
        {
          "internalType": "address",
          "name": "issuedTo",
          "type": "address"
        },
        {
          "internalType": "address",
          "name": "trackerAddress",
          "type": "address"
        },
        {
          "internalType": "uint256",
          "name": "trackerId",
          "type": "uint256"
        },
        {
          "internalType": "uint8",
          "name": "tokenTypeId",
          "type": "uint8"
        },
        {
          "internalType": "uint256",
          "name": "quantity",
          "type": "uint256"
        },
        {
          "internalType": "uint256",
          "name": "fromDate",
          "type": "uint256"
        },
        {
          "internalType": "uint256",
          "name": "thruDate",
          "type": "uint256"
        },
        {
          "internalType": "string",
          "name": "metadata",
          "type": "string"
        },
        {
          "internalType": "string",
          "name": "manifest",
          "type": "string"
        },
        {
          "internalType": "string",
          "name": "description",
          "type": "string"
        }
      ],
      "name": "issueAndTrack",
      "outputs": [],
      "stateMutability": "nonpayable",
      "type": "function"
    },
    {
      "inputs": [
        {
          "internalType": "address",
          "name": "issuedBy",
          "type": "address"
        },
        {
          "internalType": "uint160",
          "name": "issuedFrom",
          "type": "uint160"
        },
        {
          "internalType": "address",
          "name": "issuedTo",
          "type": "address"
        },
        {
          "internalType": "uint8",
          "name": "tokenTypeId",
          "type": "uint8"
        },
        {
          "internalType": "uint256",
          "name": "quantity",
          "type": "uint256"
        },
        {
          "internalType": "uint256",
          "name": "fromDate",
          "type": "uint256"
        },
        {
          "internalType": "uint256",
          "name": "thruDate",
          "type": "uint256"
        },
        {
          "internalType": "string",
          "name": "metadata",
          "type": "string"
        },
        {
          "internalType": "string",
          "name": "manifest",
          "type": "string"
        },
        {
          "internalType": "string",
          "name": "description",
          "type": "string"
        }
      ],
      "name": "issueOnBehalf",
      "outputs": [],
      "stateMutability": "nonpayable",
      "type": "function"
    },
    {
      "inputs": [],
      "name": "limitedMode",
      "outputs": [
        {
          "internalType": "bool",
          "name": "",
          "type": "bool"
        }
      ],
      "stateMutability": "view",
      "type": "function"
    },
    {
      "inputs": [
        {
          "internalType": "address",
          "name": "to",
          "type": "address"
        },
        {
          "internalType": "uint256",
          "name": "tokenId",
          "type": "uint256"
        },
        {
          "internalType": "uint256",
          "name": "quantity",
          "type": "uint256"
        }
      ],
      "name": "mint",
      "outputs": [],
      "stateMutability": "nonpayable",
      "type": "function"
    },
    {
      "inputs": [
        {
          "internalType": "address",
          "name": "account",
          "type": "address"
        }
      ],
      "name": "registerConsumer",
      "outputs": [],
      "stateMutability": "nonpayable",
      "type": "function"
    },
    {
      "inputs": [
        {
          "internalType": "address",
          "name": "account",
          "type": "address"
        },
        {
          "internalType": "uint8",
          "name": "tokenTypeId",
          "type": "uint8"
        }
      ],
      "name": "registerDealer",
      "outputs": [],
      "stateMutability": "nonpayable",
      "type": "function"
    },
    {
      "inputs": [
        {
          "internalType": "address",
          "name": "account",
          "type": "address"
        }
      ],
      "name": "registerIndustry",
      "outputs": [],
      "stateMutability": "nonpayable",
      "type": "function"
    },
    {
      "inputs": [
        {
          "internalType": "bytes32",
          "name": "role",
          "type": "bytes32"
        },
        {
          "internalType": "address",
          "name": "account",
          "type": "address"
        }
      ],
      "name": "renounceRole",
      "outputs": [],
      "stateMutability": "nonpayable",
      "type": "function"
    },
    {
      "inputs": [
        {
          "internalType": "uint256",
          "name": "tokenId",
          "type": "uint256"
        },
        {
          "internalType": "uint256",
          "name": "amount",
          "type": "uint256"
        }
      ],
      "name": "retire",
      "outputs": [],
      "stateMutability": "nonpayable",
      "type": "function"
    },
    {
      "inputs": [
        {
          "internalType": "bytes32",
          "name": "role",
          "type": "bytes32"
        },
        {
          "internalType": "address",
          "name": "account",
          "type": "address"
        }
      ],
      "name": "revokeRole",
      "outputs": [],
      "stateMutability": "nonpayable",
      "type": "function"
    },
    {
      "inputs": [
        {
          "internalType": "address",
          "name": "from",
          "type": "address"
        },
        {
          "internalType": "address",
          "name": "to",
          "type": "address"
        },
        {
          "internalType": "uint256[]",
          "name": "ids",
          "type": "uint256[]"
        },
        {
          "internalType": "uint256[]",
          "name": "amounts",
          "type": "uint256[]"
        },
        {
          "internalType": "bytes",
          "name": "data",
          "type": "bytes"
        }
      ],
      "name": "safeBatchTransferFrom",
      "outputs": [],
      "stateMutability": "nonpayable",
      "type": "function"
    },
    {
      "inputs": [
        {
          "internalType": "address",
          "name": "from",
          "type": "address"
        },
        {
          "internalType": "address",
          "name": "to",
          "type": "address"
        },
        {
          "internalType": "uint256",
          "name": "id",
          "type": "uint256"
        },
        {
          "internalType": "uint256",
          "name": "amount",
          "type": "uint256"
        },
        {
          "internalType": "bytes",
          "name": "data",
          "type": "bytes"
        }
      ],
      "name": "safeTransferFrom",
      "outputs": [],
      "stateMutability": "nonpayable",
      "type": "function"
    },
    {
      "inputs": [
        {
          "internalType": "address",
          "name": "operator",
          "type": "address"
        },
        {
          "internalType": "bool",
          "name": "approved",
          "type": "bool"
        }
      ],
      "name": "setApprovalForAll",
      "outputs": [],
      "stateMutability": "nonpayable",
      "type": "function"
    },
    {
      "inputs": [
        {
          "internalType": "bool",
          "name": "_limitedMode",
          "type": "bool"
        }
      ],
      "name": "setLimitedMode",
      "outputs": [],
      "stateMutability": "nonpayable",
      "type": "function"
    },
    {
      "inputs": [
        {
          "internalType": "address",
          "name": "_timelock",
          "type": "address"
        }
      ],
      "name": "setTimelock",
      "outputs": [],
      "stateMutability": "nonpayable",
      "type": "function"
    },
    {
      "inputs": [
        {
          "internalType": "bytes4",
          "name": "interfaceId",
          "type": "bytes4"
        }
      ],
      "name": "supportsInterface",
      "outputs": [
        {
          "internalType": "bool",
          "name": "",
          "type": "bool"
        }
      ],
      "stateMutability": "view",
      "type": "function"
    },
    {
      "inputs": [
        {
          "internalType": "address",
          "name": "to",
          "type": "address"
        },
        {
          "internalType": "uint256",
          "name": "tokenId",
          "type": "uint256"
        },
        {
          "internalType": "uint256",
          "name": "value",
          "type": "uint256"
        }
      ],
      "name": "transfer",
      "outputs": [],
      "stateMutability": "nonpayable",
      "type": "function"
    },
    {
      "inputs": [
        {
          "internalType": "address",
          "name": "account",
          "type": "address"
        }
      ],
      "name": "unregisterConsumer",
      "outputs": [],
      "stateMutability": "nonpayable",
      "type": "function"
    },
    {
      "inputs": [
        {
          "internalType": "address",
          "name": "account",
          "type": "address"
        },
        {
          "internalType": "uint8",
          "name": "tokenTypeId",
          "type": "uint8"
        }
      ],
      "name": "unregisterDealer",
      "outputs": [],
      "stateMutability": "nonpayable",
      "type": "function"
    },
    {
      "inputs": [
        {
          "internalType": "address",
          "name": "account",
          "type": "address"
        }
      ],
      "name": "unregisterIndustry",
      "outputs": [],
      "stateMutability": "nonpayable",
      "type": "function"
    },
    {
      "inputs": [
        {
          "internalType": "uint256",
          "name": "",
          "type": "uint256"
        }
      ],
      "name": "uri",
      "outputs": [
        {
          "internalType": "string",
          "name": "",
          "type": "string"
        }
      ],
      "stateMutability": "view",
      "type": "function"
    },
    {
      "inputs": [
        {
          "internalType": "bytes32",
          "name": "msgHash",
          "type": "bytes32"
        },
        {
          "internalType": "bytes",
          "name": "signature",
          "type": "bytes"
        },
        {
          "internalType": "address",
          "name": "signer",
          "type": "address"
        }
      ],
      "name": "verifySignature",
      "outputs": [
        {
          "internalType": "bool",
          "name": "",
          "type": "bool"
        }
      ],
      "stateMutability": "pure",
      "type": "function"
    }
  ],
  "transactionHash": "0xcab9e8f88c615559452b7583269ae685685e1e6c60ebadb4dd700e9df90a53a4",
  "args": [],
  "numDeployments": 1,
  "solcInputHash": "6c40628b445aa31273e2f5b416a5ed65",
  "bytecode": "0x608060405234801561001057600080fd5b5061595480620000216000396000f3fe608060405234801561001057600080fd5b50600436106103415760003560e01c80637f157c9b116101b8578063ce6ccfaf11610104578063ee042956116100a2578063f984b2341161007c578063f984b23414610876578063fbdf37ea14610889578063fc0bbce31461089e578063fcba7948146108b157610341565b8063ee0429561461081a578063f242432a1461084b578063f851a4401461085e57610341565b8063dba851b0116100de578063dba851b0146107ab578063ddc3e6eb146107b8578063e2e564f2146107cb578063e985e9c5146107de57610341565b8063ce6ccfaf146106f7578063d547741f14610762578063d75cfd581461077557610341565b8063a217fddf11610171578063bdacb3031161014b578063bdacb3031461069e578063c03df970146106b1578063c1e03728146106c4578063c4d66de8146106e457610341565b8063a217fddf1461063f578063a22cb46514610647578063b5ff2c881461065a57610341565b80637f157c9b146105b85780638874cfcc146105e05780638ef5eec3146105f357806391d14854146106065780639e99a45314610619578063a0d975a71461062c57610341565b806331aa4b201161029257806353dbe9821161023057806376aed2e11161020a57806376aed2e11461056857806376ce47551461057b57806378e5c592146105905780637aab1b88146105a557610341565b806353dbe9821461053a5780635ddb368f1461054d57806369f7ef441461055557610341565b806336568abe1161026c57806336568abe146104e157806344b22fdd146104f457806349b90557146105075780634e1273f41461051a57610341565b806331aa4b20146104a857806331cd4199146104bb57806333781a0e146104ce57610341565b8063156e29f6116102ff578063248a9ca3116102d9578063248a9ca31461044c578063293a7f2e1461046f5780632eb2c2d6146104825780632f2ff15d1461049557610341565b8063156e29f61461040f57806318a50d7e146104225780631ef68ef71461043757610341565b8062fdd58e1461034657806301ffc9a71461036c578063033fd9191461038f578063095bcdb6146103a45780630e89341c146103b7578063127d5ad0146103d7575b600080fd5b610359610354366004614a4a565b6108c6565b6040519081526020015b60405180910390f35b61037f61037a366004614c4e565b61095f565b6040519015158152602001610363565b6103a261039d36600461472d565b61098c565b005b6103a26103b2366004614a75565b610a7c565b6103ca6103c5366004614bba565b610b0e565b60405161036391906151c7565b6103fd6103e5366004614bba565b600090815260cc602052604090206001015460ff1690565b60405160ff9091168152602001610363565b6103a261041d366004614a75565b610ba2565b6103596000805160206158bf83398151915281565b61035960008051602061587f83398151915281565b61035961045a366004614bba565b60009081526097602052604090206001015490565b6103a261047d366004614e68565b610cb2565b6103a2610490366004614822565b610e37565b6103a26104a3366004614bd2565b610ece565b6103a26104b6366004614aa9565b610ef3565b61037f6104c9366004614bf6565b611049565b61037f6104dc36600461472d565b6110cc565b6103a26104ef366004614bd2565b6110e6565b6103a261050236600461472d565b611164565b61037f61051536600461472d565b61124e565b61052d610528366004614ad4565b611268565b6040516103639190615186565b6103a261054836600461472d565b6113c9565b6103596114b7565b61037f61056336600461472d565b6114c8565b6103ca610576366004614bba565b611533565b6103596000805160206158ff83398151915281565b61035960008051602061589f83398151915281565b6103596105b336600461479d565b6116f3565b6105cb6105c6366004614a4a565b611768565b60408051928352602083019190915201610363565b6103a26105ee366004614d7d565b61180a565b6103a2610601366004614c86565b61182f565b61037f610614366004614bd2565b611c72565b6103a2610627366004614965565b611c9d565b61035961063a366004614a4a565b611d44565b610359600081565b6103a2610655366004614931565b611ddf565b610686610668366004614bba565b600090815260cc60205260409020600201546001600160a01b031690565b6040516001600160a01b039091168152602001610363565b6103a26106ac36600461472d565b611dea565b6103a26106bf36600461472d565b611e33565b6106d76106d2366004614bba565b611f32565b604051610363919061545c565b6103a26106f236600461472d565b61220e565b61070a61070536600461472d565b612357565b6040516103639190600060c08201905082511515825260208301511515602083015260408301511515604083015260608301511515606083015260808301511515608083015260a0830151151560a083015292915050565b6103a2610770366004614bd2565b61246b565b610359610783366004614bd2565b600091825260cd602090815260408084206001600160a01b0393909316845291905290205490565b60c95461037f9060ff1681565b6103a26107c6366004614ba0565b612490565b6103a26107d9366004614aa9565b6124ca565b61037f6107ec366004614765565b6001600160a01b03918216600090815260666020908152604080832093909416825291909152205460ff1690565b610686610828366004614bba565b600090815260cc602052604090206001015461010090046001600160a01b031690565b6103a26108593660046148cb565b61262f565b60c9546106869061010090046001600160a01b031681565b61037f61088436600461472d565b6126b6565b61035960008051602061585f83398151915281565b61037f6108ac36600461472d565b6126d0565b6103596000805160206158df83398151915281565b60006001600160a01b0383166109375760405162461bcd60e51b815260206004820152602b60248201527f455243313135353a2062616c616e636520717565727920666f7220746865207a60448201526a65726f206164647265737360a81b60648201526084015b60405180910390fd5b5060009081526065602090815260408083206001600160a01b03949094168352929052205490565b60006001600160e01b03198216637965db0b60e01b1480610984575061098482612726565b90505b919050565b60c95460ff1615610a25576109a2600033611c72565b610a205760405162461bcd60e51b815260206004820152604360248201527f434c4d383a3a7265676973746572496e647573747279286c696d69746564293a60448201527f206f6e6c792061646d696e2063616e20726567697374657220696e647573747260648201526269657360e81b608482015260a40161092e565b610a2d565b610a2d61274b565b610a4560008051602061585f833981519152826127c3565b6040516001600160a01b038216907f1230fb0cdc77da02d53e840f6f60d5e7f68646d7d1ccdd890860e05533b62f5390600090a250565b610a85826127cd565b610ae05760405162461bcd60e51b815260206004820152602660248201527f434c4d383a3a7472616e736665723a20746f6b656e496420646f6573206e6f7460448201526508195e1a5cdd60d21b606482015260840161092e565b610b0933848484604051806040016040528060048152602001630307830360e41b81525061262f565b505050565b606060678054610b1d906156bf565b80601f0160208091040260200160405190810160405280929190818152602001828054610b49906156bf565b8015610b965780601f10610b6b57610100808354040283529160200191610b96565b820191906000526020600020905b815481529060010190602001808311610b7957829003601f168201915b50505050509050919050565b610bad600033611c72565b610bc95760405162461bcd60e51b815260040161092e90615222565b610bd2826127cd565b610c295760405162461bcd60e51b815260206004820152602260248201527f434c4d383a3a6d696e743a20746f6b656e496420646f6573206e6f74206578696044820152611cdd60f21b606482015260840161092e565b60c95460ff1615610c975760405162461bcd60e51b815260206004820152603260248201527f434c4d383a3a6d696e743a2063616e6e6f74206d696e74206e657720746f6b656044820152716e7320696e206c696d69746564206d6f646560701b606482015260840161092e565b610b09838383604051806020016040528060008152506127e6565b3360008115610ce057610cc4826126d0565b610ce05760405162461bcd60e51b815260040161092e906153b4565b6001600160a01b03811615610d1457610cf8816126d0565b610d145760405162461bcd60e51b815260040161092e9061526b565b610d1d846127cd565b610d755760405162461bcd60e51b8152602060048201526024808201527f434c4d383a3a7265746972653a20746f6b656e496420646f6573206e6f7420656044820152631e1a5cdd60e21b606482015260840161092e565b610d7f33856108c6565b831115610deb5760405162461bcd60e51b815260206004820152603460248201527f434c4d383a3a7265746972653a206e6f7420656e6f75676820617661696c61626044820152736c652062616c616e636520746f2072657469726560601b606482015260840161092e565b610df633858561290b565b604080518581526020810185905233917f8f1b5ebb586d3d169e4ed07db9cd10ce0dd30c7b656171310eae7517c0b53cf9910160405180910390a250505050565b6001600160a01b038516331480610e535750610e5385336107ec565b610eba5760405162461bcd60e51b815260206004820152603260248201527f455243313135353a207472616e736665722063616c6c6572206973206e6f74206044820152711bdddb995c881b9bdc88185c1c1c9bdd995960721b606482015260840161092e565b610ec78585858585612997565b5050505050565b600082815260976020526040902060010154610ee981612ba1565b610b098383612bae565b610efe600033611c72565b610f1a5760405162461bcd60e51b815260040161092e90615222565b610f2381612c34565b610f885760405162461bcd60e51b815260206004820152603060248201527f434c4d383a3a72656769737465724465616c65723a20746f6b656e547970654960448201526f1908191bd95cc81b9bdd08195e1a5cdd60821b606482015260840161092e565b8060ff1660011415610fb157610fac6000805160206158df83398151915283610ece565b610ff9565b8060ff1660021415610fd557610fac60008051602061587f83398151915283610ece565b8060ff1660031415610ff957610ff96000805160206158ff83398151915283610ece565b6110116000805160206158bf83398151915283610ece565b6040516001600160a01b038316907fa8377deee15954185683d55effd369508b4935978c8cb2bab790bf04c570181490600090a25050565b6000806110a3856040517f19457468657265756d205369676e6564204d6573736167653a0a3332000000006020820152603c8101829052600090605c01604051602081830303815290604052805190602001209050919050565b90506001600160a01b0383166110b98286612c56565b6001600160a01b03161495945050505050565b600061098460008051602061589f83398151915283611c72565b6001600160a01b03811633146111565760405162461bcd60e51b815260206004820152602f60248201527f416363657373436f6e74726f6c3a2063616e206f6e6c792072656e6f756e636560448201526e103937b632b9903337b91039b2b63360891b606482015260840161092e565b6111608282612c72565b5050565b61116c61274b565b60c95460ff16156111ff57611182600033611c72565b6111ff5760405162461bcd60e51b815260206004820152604260248201527f434c4d383a3a7265676973746572436f6e73756d6572286c696d69746564293a60448201527f206f6e6c792061646d696e2063616e20726567697374657220636f6e73756d65606482015261727360f01b608482015260a40161092e565b61121760008051602061589f83398151915282610ece565b6040516001600160a01b038216907f69a0adee259d26fe61f4776f7bea7f3a9737c7321256821b985f988545efd31990600090a250565b60006109846000805160206158ff83398151915283611c72565b606081518351146112cd5760405162461bcd60e51b815260206004820152602960248201527f455243313135353a206163636f756e747320616e6420696473206c656e677468604482015268040dad2e6dac2e8c6d60bb1b606482015260840161092e565b600083516001600160401b038111156112f657634e487b7160e01b600052604160045260246000fd5b60405190808252806020026020018201604052801561131f578160200160208202803683370190505b50905060005b84518110156113c15761138685828151811061135157634e487b7160e01b600052603260045260246000fd5b602002602001015185838151811061137957634e487b7160e01b600052603260045260246000fd5b60200260200101516108c6565b8282815181106113a657634e487b7160e01b600052603260045260246000fd5b60209081029190910101526113ba81615720565b9050611325565b509392505050565b6113d161274b565b60c95460ff1615611468576113e7600033611c72565b6114685760405162461bcd60e51b815260206004820152604660248201527f434c4d383a3a756e7265676973746572436f6e73756d6572286c696d6974656460448201527f293a206f6e6c792061646d696e2063616e20756e726567697374657220636f6e60648201526573756d65727360d01b608482015260a40161092e565b61148060008051602061589f8339815191528261246b565b6040516001600160a01b038216907f03a38088da75ee2d80f6c753f55f8fd17602ae17d8bd0ef44d5e1f28ab5af11f90600090a250565b60006114c260cb5490565b90505b90565b60006114e26000805160206158df83398151915283611c72565b80611500575061150060008051602061587f83398151915283611c72565b8061151e575061151e6000805160206158ff83398151915283611c72565b1561152b57506001610987565b506000919050565b606061153e826127cd565b61159d5760405162461bcd60e51b815260206004820152602a60248201527f434c4d383a3a676574546f6b656e547970653a20746f6b656e496420646f6573604482015269081b9bdd08195e1a5cdd60b21b606482015260840161092e565b600082815260cc6020526040902060018082015460ff1614156115f557505060408051808201909152601c81527f52656e657761626c6520456e65726779204365727469666963617465000000006020820152610987565b600181015460ff166002141561164057505060408051808201909152601781527f436172626f6e20456d697373696f6e73204f66667365740000000000000000006020820152610987565b600181015460ff166003141561167f5750506040805180820190915260118152704175646974656420456d697373696f6e7360781b6020820152610987565b600181015460ff16600414156116bb57505060408051808201909152600e81526d21b0b93137b7102a3930b1b5b2b960911b6020820152610987565b5050604080518082019091526014815273151bdad95b88191bd95cc81b9bdd08195e1a5cdd60621b6020820152610987565b50919050565b6001600160a01b03808516600090815260ce6020908152604080832093871683529290529081205485908590859085906117349063ffffffff166001615631565b604051602001611748959493929190614fb2565b604051602081830303815290604052805190602001209050949350505050565b600080600061177785856108c6565b60405163a0d975a760e01b81526001600160a01b038716600482015260248101869052909150600090309063a0d975a79060440160206040518083038186803b1580156117c357600080fd5b505afa1580156117d7573d6000803e3d6000fd5b505050506040513d601f19601f820116820180604052508101906117fb9190614e50565b919350909150505b9250929050565b61181261274b565b611824338a8a8a8a8a8a8a8a8a612cd9565b505050505050505050565b61183761274b565b6000899050306001600160a01b0316816001600160a01b031663e54a96466040518163ffffffff1660e01b815260040160206040518083038186803b15801561187f57600080fd5b505afa158015611893573d6000803e3d6000fd5b505050506040513d601f19601f820116820180604052508101906118b79190614749565b6001600160a01b0316146119415760405162461bcd60e51b8152602060048201526044602482018190527f434c4d383a3a6973737565416e64547261636b3a20747261636b657241646472908201527f65737320646f6573206e6f742062656c6f6e6720746f206164647265737328746064820152636869732960e01b608482015260a40161092e565b88816001600160a01b03166340e6c9706040518163ffffffff1660e01b815260040160206040518083038186803b15801561197b57600080fd5b505afa15801561198f573d6000803e3d6000fd5b505050506040513d601f19601f820116820180604052508101906119b39190614e50565b1015611a175760405162461bcd60e51b815260206004820152602d60248201527f434c4d383a3a6973737565416e64547261636b3a20747261636b65724964206460448201526c1bd95cc81b9bdd08195e1a5cdd609a1b606482015260840161092e565b611a2f6000805160206158ff83398151915233611c72565b611aa15760405162461bcd60e51b815260206004820152603a60248201527f434c4d383a3a6973737565416e64547261636b3a206d73672e73656e6465722060448201527f6973206e6f7420616e20617070726f7665642061756469746f72000000000000606482015260840161092e565b604080516001808252818301909252600091602080830190803683375050604080516001808252818301909252929350600092915060208083019080368337019050509050611af8338f8e8d8d8d8d8d8d8d612cd9565b60408051602081019091526000815260cb5483600081518110611b2b57634e487b7160e01b600052603260045260246000fd5b6020026020010181815250508982600081518110611b5957634e487b7160e01b600052603260045260246000fd5b60209081029190910101528b611bf857836001600160a01b03166399228cda8f85858d8d876040518763ffffffff1660e01b8152600401611b9f96959493929190615123565b602060405180830381600087803b158015611bb957600080fd5b505af1158015611bcd573d6000803e3d6000fd5b505050506040513d601f19601f82011682018060405250810190611bf19190614e50565b9b50611c61565b6040516363a2485760e01b81526001600160a01b038516906363a2485790611c2e908f90879087908f908f908990600401615561565b600060405180830381600087803b158015611c4857600080fd5b505af1158015611c5c573d6000803e3d6000fd5b505050505b505050505050505050505050505050565b60009182526097602090815260408084206001600160a01b0393909316845291905290205460ff1690565b60ca546001600160a01b0316331480611cbc5750611cbc600033611c72565b611d265760405162461bcd60e51b815260206004820152603560248201527f434c4d383a3a69737375654f6e426568616c663a2063616c6c206d757374206360448201527437b6b290333937b6902220a79037b91030b236b4b760591b606482015260840161092e565b611d388a8a8a8a8a8a8a8a8a8a612cd9565b50505050505050505050565b6000611d4f826127cd565b611db75760405162461bcd60e51b815260206004820152603360248201527f434c4d383a3a676574546f6b656e52657469726564416d6f756e743a20746f6b604482015272195b925908191bd95cc81b9bdd08195e1a5cdd606a1b606482015260840161092e565b50600090815260cd602090815260408083206001600160a01b03949094168352929052205490565b6111603383836133bb565b611df5600033611c72565b611e115760405162461bcd60e51b815260040161092e90615222565b60ca80546001600160a01b0319166001600160a01b0392909216919091179055565b336001600160a01b03821614611e4b57611e4b61274b565b60c95460ff1615611ee357611e61600033611c72565b611ee35760405162461bcd60e51b815260206004820152604760248201527f434c4d383a3a756e7265676973746572496e647573747279286c696d6974656460448201527f293a206f6e6c792061646d696e2063616e20756e726567697374657220696e646064820152667573747269657360c81b608482015260a40161092e565b611efb60008051602061585f8339815191528261246b565b6040516001600160a01b038216907fe2fd90a75c6850a2aeaad25eb28a5176ac5166c6e3e6dfe0284e34a628e90ef290600090a250565b611fbb604051806101a0016040528060008152602001600060ff16815260200160006001600160a01b0316815260200160006001600160a01b0316815260200160006001600160a01b0316815260200160008152602001600081526020016000815260200160608152602001606081526020016060815260200160008152602001600081525090565b600082815260cc602090815260409182902082516101a08101845281548152600182015460ff8116938201939093526001600160a01b036101009384900481169482019490945260028201548416606082015260038201549093166080840152600481015460a0840152600581015460c0840152600681015460e0840152600781018054919284019161204d906156bf565b80601f0160208091040260200160405190810160405280929190818152602001828054612079906156bf565b80156120c65780601f1061209b576101008083540402835291602001916120c6565b820191906000526020600020905b8154815290600101906020018083116120a957829003601f168201915b505050505081526020016008820180546120df906156bf565b80601f016020809104026020016040519081016040528092919081815260200182805461210b906156bf565b80156121585780601f1061212d57610100808354040283529160200191612158565b820191906000526020600020905b81548152906001019060200180831161213b57829003601f168201915b50505050508152602001600982018054612171906156bf565b80601f016020809104026020016040519081016040528092919081815260200182805461219d906156bf565b80156121ea5780601f106121bf576101008083540402835291602001916121ea565b820191906000526020600020905b8154815290600101906020018083116121cd57829003601f168201915b50505050508152602001600a8201548152602001600b820154815250509050919050565b600061221a600161349c565b90508015612232576000805461ff0019166101001790555b61224a60405180602001604052806000815250613521565b61227060008051602061589f8339815191526000805160206158bf833981519152613551565b61227b6000836127c3565b6122936000805160206158bf833981519152836127c3565b6122ab6000805160206158df833981519152836127c3565b6122c360008051602061587f833981519152836127c3565b6122db6000805160206158ff833981519152836127c3565b60c9805460ca80546001600160a01b03191690556001600160a81b0319166101006001600160a01b0385160260ff19161790558015611160576000805461ff0019169055604051600181527f7f26b83ff96e1f2b6a682f133852f6798a09c465da95921460cefb38474024989060200160405180910390a15050565b6040805160c081018252600080825260208201819052918101829052606081018290526080810182905260a08101919091526040805160c081018252600080825260208201819052918101829052606081018290526080810182905260a08101919091526123c6600084611c72565b151581526123e26000805160206158df83398151915284611c72565b1515604082015261240160008051602061587f83398151915284611c72565b151560608201526124206000805160206158ff83398151915284611c72565b1515608082015261243f60008051602061585f83398151915284611c72565b151560a082015261245e60008051602061589f83398151915284611c72565b1515602082015292915050565b60008281526097602052604090206001015461248681612ba1565b610b098383612c72565b61249b600033611c72565b6124b75760405162461bcd60e51b815260040161092e90615222565b60c9805460ff1916911515919091179055565b6124d5600033611c72565b6124f15760405162461bcd60e51b815260040161092e90615222565b6124fa81612c34565b6125615760405162461bcd60e51b815260206004820152603260248201527f434c4d383a3a756e72656769737465724465616c65723a20746f6b656e54797060448201527119525908191bd95cc81b9bdd08195e1a5cdd60721b606482015260840161092e565b8060ff166001141561258a576125856000805160206158df8339815191528361246b565b6125d2565b8060ff16600214156125ae5761258560008051602061587f8339815191528361246b565b8060ff16600314156125d2576125d26000805160206158ff8339815191528361246b565b6125db826114c8565b6125f7576125f76000805160206158bf8339815191528361246b565b6040516001600160a01b038316907f98552ded770f1d05a505572f3387c108dbc6b566ea3d49f83cff3d1f1c72a04290600090a25050565b6001600160a01b03851633148061264b575061264b85336107ec565b6126a95760405162461bcd60e51b815260206004820152602960248201527f455243313135353a2063616c6c6572206973206e6f74206f776e6572206e6f7260448201526808185c1c1c9bdd995960ba1b606482015260840161092e565b610ec7858585858561359c565b600061098460008051602061585f83398151915283611c72565b60006126ea6000805160206158bf83398151915283611c72565b80612708575061270860008051602061589f83398151915283611c72565b8061151e575061151e60008051602061585f83398151915283611c72565b60006001600160e01b03198216637965db0b60e01b14806109845750610984826136cd565b6127636000805160206158bf83398151915233611c72565b6127c15760405162461bcd60e51b815260206004820152602960248201527f434c4d383a3a6f6e6c794465616c65723a206d73672e73656e646572206e6f746044820152681030903232b0b632b960b91b606482015260840161092e565b565b6111608282612bae565b6000816127d960cb5490565b1061152b57506001610987565b6001600160a01b0384166128465760405162461bcd60e51b815260206004820152602160248201527f455243313135353a206d696e7420746f20746865207a65726f206164647265736044820152607360f81b606482015260840161092e565b3360006128528561371d565b9050600061285f8561371d565b905061287083600089858589613776565b60008681526065602090815260408083206001600160a01b038b168452909152812080548792906128a2908490615619565b909155505060408051878152602081018790526001600160a01b03808a1692600092918716917fc3d58168c5ae7397731d063d5bbf3d657854427343f4c083240f7aacaa2d0f62910160405180910390a461290283600089898989613b90565b50505050505050565b612916838383613cfb565b600082815260cc60205260409020600b01546129329082613e8f565b600083815260cc60209081526040808320600b019390935560cd81528282206001600160a01b03871683529052205461296b9082613e8f565b600092835260cd602090815260408085206001600160a01b039096168552949052929091209190915550565b81518351146129f95760405162461bcd60e51b815260206004820152602860248201527f455243313135353a2069647320616e6420616d6f756e7473206c656e677468206044820152670dad2e6dac2e8c6d60c31b606482015260840161092e565b6001600160a01b038416612a1f5760405162461bcd60e51b815260040161092e906152d7565b33612a2e818787878787613776565b60005b8451811015612b33576000858281518110612a5c57634e487b7160e01b600052603260045260246000fd5b602002602001015190506000858381518110612a8857634e487b7160e01b600052603260045260246000fd5b60209081029190910181015160008481526065835260408082206001600160a01b038e168352909352919091205490915081811015612ad95760405162461bcd60e51b815260040161092e9061536a565b60008381526065602090815260408083206001600160a01b038e8116855292528083208585039055908b16825281208054849290612b18908490615619565b9250508190555050505080612b2c90615720565b9050612a31565b50846001600160a01b0316866001600160a01b0316826001600160a01b03167f4a39dc06d4c0dbc64b70af90fd698a233a518aa5d07e595d983b8c0526c8f7fb8787604051612b83929190615199565b60405180910390a4612b99818787878787613ea2565b505050505050565b612bab8133613f6c565b50565b612bb88282611c72565b6111605760008281526097602090815260408083206001600160a01b03851684529091529020805460ff19166001179055612bf03390565b6001600160a01b0316816001600160a01b0316837f2f8788117e7eff1d82e926ec794901d17c78024a50270940304540a733656f0d60405160405180910390a45050565b6000808260ff1611801561151e575060048260ff161161152b57506001610987565b6000806000612c658585613fd0565b915091506113c18161403d565b612c7c8282611c72565b156111605760008281526097602090815260408083206001600160a01b0385168085529252808320805460ff1916905551339285917ff6391f5c32d9c69d2a47ea670b442974b53935d1edc7fd64eb21e047a839171b9190a45050565b612ce287612c34565b612d3a5760405162461bcd60e51b8152602060048201526024808201527f434c4d383a3a5f69737375653a20746f6b656e54797065496420697320696e76604482015263185b1a5960e21b606482015260840161092e565b60c95460ff1615612f8f578660ff1660011480612d5a57508660ff166002145b15612ee45760ca546001600160a01b03163314612dd05760405162461bcd60e51b815260206004820152602e60248201527f434c4d383a3a5f6973737565286c696d69746564293a206d73672e73656e646560448201526d72206e6f742074696d656c6f636b60901b606482015260840161092e565b612ddb600089611c72565b612e375760405162461bcd60e51b815260206004820152602760248201527f434c4d383a3a5f6973737565286c696d69746564293a20697373756565206e6f6044820152663a1030b236b4b760c91b606482015260840161092e565b612e4f6000805160206158df8339815191528b611c72565b80612e6d5750612e6d60008051602061587f8339815191528b611c72565b612edf5760405162461bcd60e51b815260206004820152603760248201527f434c4d383a3a5f6973737565286c696d69746564293a2070726f706f7365722060448201527f6e6f7420612072656769737465726564206465616c6572000000000000000000606482015260840161092e565b612f8a565b8660ff1660031480612ef957508660ff166004145b15612f8a57612f166000805160206158ff8339815191528b611c72565b612f8a576040805162461bcd60e51b81526020600482015260248101919091527f434c4d383a3a5f6973737565286c696d69746564293a20697373756572206e6f60448201527f742061207265676973746572656420656d697373696f6e732061756469746f72606482015260840161092e565b613148565b8660ff166001141561301857612fb36000805160206158df8339815191528b611c72565b612f8a5760405162461bcd60e51b815260206004820152603060248201527f434c4d383a3a5f69737375653a20697373756572206e6f74206120726567697360448201526f3a32b932b2102922a1903232b0b632b960811b606482015260840161092e565b8660ff16600214156130a45761303c60008051602061587f8339815191528b611c72565b612f8a5760405162461bcd60e51b815260206004820152603360248201527f434c4d383a3a5f69737375653a20697373756572206e6f7420612072656769736044820152723a32b932b21037b33339b2ba103232b0b632b960691b606482015260840161092e565b8660ff16600314806130b957508660ff166004145b15613148576130d66000805160206158ff8339815191528b611c72565b6131485760405162461bcd60e51b815260206004820152603760248201527f434c4d383a3a5f69737375653a20697373756572206e6f74206120726567697360448201527f746572656420656d697373696f6e732061756469746f72000000000000000000606482015260840161092e565b61315660cb80546001019055565b600060cc600061316560cb5490565b8152602001908152602001600020905061317e60cb5490565b81556001810180546001600160a01b03808e16610100026001600160a81b031990921660ff8c1617919091179091556002820180548c83166001600160a01b031991821617909155600383018054928c1692909116919091179055600481018690556005810185905542600682015583516132029060078301906020870190614586565b5082516132189060088301906020860190614586565b50815161322e9060098301906020850190614586565b50600a81018790556000600b8201556132608961324a60cb5490565b89604051806020016040528060008152506127e6565b8760ff16600314156132875760038101548154613287916001600160a01b0316908961290b565b8060030160009054906101000a90046001600160a01b03166001600160a01b03168160020160009054906101000a90046001600160a01b03166001600160a01b03168260010160019054906101000a90046001600160a01b03166001600160a01b03167f277df7a34faa63a95e8df4966065d731b45aec92af9a3da4039d7a71fa529e838a60cd60008760000154815260200190815260200160002060008760030160009054906101000a90046001600160a01b03166001600160a01b03166001600160a01b031681526020019081526020016000205486600001548760010160009054906101000a900460ff16886004015489600501548a600601548b6007018c6008018d6009016040516133a69a9998979695949392919061557a565b60405180910390a45050505050505050505050565b816001600160a01b0316836001600160a01b0316141561342f5760405162461bcd60e51b815260206004820152602960248201527f455243313135353a2073657474696e6720617070726f76616c20737461747573604482015268103337b91039b2b63360b91b606482015260840161092e565b6001600160a01b03838116600081815260666020908152604080832094871680845294825291829020805460ff191686151590811790915591519182527f17307eab39ab6107e8899845ad3d59bd9653f200f220920489ca2b5937696c31910160405180910390a3505050565b60008054610100900460ff16156134e3578160ff1660011480156134bf5750303b155b6134db5760405162461bcd60e51b815260040161092e9061531c565b506000610987565b60005460ff80841691161061350a5760405162461bcd60e51b815260040161092e9061531c565b506000805460ff191660ff83161790556001610987565b600054610100900460ff166135485760405162461bcd60e51b815260040161092e90615411565b612bab81614240565b600082815260976020526040808220600101805490849055905190918391839186917fbd79b86ffe0ab8e8776151514217cd7cacd52c909f66475c3af44e129f0b00ff9190a4505050565b6001600160a01b0384166135c25760405162461bcd60e51b815260040161092e906152d7565b3360006135ce8561371d565b905060006135db8561371d565b90506135eb838989858589613776565b60008681526065602090815260408083206001600160a01b038c1684529091529020548581101561362e5760405162461bcd60e51b815260040161092e9061536a565b60008781526065602090815260408083206001600160a01b038d8116855292528083208985039055908a1682528120805488929061366d908490615619565b909155505060408051888152602081018890526001600160a01b03808b16928c821692918816917fc3d58168c5ae7397731d063d5bbf3d657854427343f4c083240f7aacaa2d0f62910160405180910390a4611824848a8a8a8a8a613b90565b60006001600160e01b03198216636cdb3d1360e11b14806136fe57506001600160e01b031982166303a24d0760e21b145b8061098457506301ffc9a760e01b6001600160e01b0319831614610984565b6040805160018082528183019092526060916000919060208083019080368337019050509050828160008151811061376557634e487b7160e01b600052603260045260246000fd5b602090810291909101015292915050565b84846001600160a01b038216156137ac57613790826126d0565b6137ac5760405162461bcd60e51b815260040161092e906153b4565b6001600160a01b038116156137e0576137c4816126d0565b6137e05760405162461bcd60e51b815260040161092e9061526b565b856001600160a01b0316876001600160a01b031614156138735760405162461bcd60e51b815260206004820152604260248201527f434c4d383a3a5f6265666f7265546f6b656e5472616e736665723a2073656e6460448201527f657220616e642072656365697665722063616e6e6f74206265207468652073616064820152616d6560f01b608482015260a40161092e565b6000805b8651811015613a8957600060cc60008984815181106138a657634e487b7160e01b600052603260045260246000fd5b60200260200101518152602001908152602001600020905060c960009054906101000a900460ff1615613a75576001600160a01b0389166138e75750613a77565b60018082015460ff1614806139035750600181015460ff166002145b156139b55760ca546001600160a01b038c81169116148061392a575061392a60008c611c72565b6139b05760405162461bcd60e51b815260206004820152604b60248201527f434c4d383a3a5f6265666f7265546f6b656e5472616e73666572286c696d697460448201527f6564293a206f6e6c792061646d696e20616e642044414f2063616e207472616e60648201526a7366657220746f6b656e7360a81b608482015260a40161092e565b613a75565b600181015460ff1660031415613a75576139dd6000805160206158ff8339815191528c611c72565b613a755760405162461bcd60e51b815260206004820152605860248201527f434c4d383a3a5f6265666f7265546f6b656e5472616e73666572286c696d697460448201527f6564293a206f6e6c7920656d697373696f6e732061756469746f72732063616e60648201527f206973737565206175646974656420656d697373696f6e730000000000000000608482015260a40161092e565b505b80613a8181615720565b915050613877565b508015611824576000613a9e898989896116f3565b9050613aab81868a611049565b613b2c5760405162461bcd60e51b815260206004820152604660248201527f434c4d383a3a5f6265666f7265546f6b656e5472616e736665723a207265636560448201527f69766572277320617070726f76616c207369676e6174757265206973206e6f74606482015265081d985b1a5960d21b608482015260a40161092e565b6001600160a01b03808a16600090815260ce60209081526040808320938c168352929052908120805463ffffffff1691613b658361573b565b91906101000a81548163ffffffff021916908363ffffffff1602179055505050505050505050505050565b6001600160a01b0384163b15612b995760405163f23a6e6160e01b81526001600160a01b0385169063f23a6e6190613bd490899089908890889088906004016150de565b602060405180830381600087803b158015613bee57600080fd5b505af1925050508015613c1e575060408051601f3d908101601f19168201909252613c1b91810190614c6a565b60015b613ccb57613c2a61578b565b806308c379a01415613c645750613c3f6157a2565b80613c4a5750613c66565b8060405162461bcd60e51b815260040161092e91906151c7565b505b60405162461bcd60e51b815260206004820152603460248201527f455243313135353a207472616e7366657220746f206e6f6e20455243313135356044820152732932b1b2b4bb32b91034b6b83632b6b2b73a32b960611b606482015260840161092e565b6001600160e01b0319811663f23a6e6160e01b146129025760405162461bcd60e51b815260040161092e906151da565b6001600160a01b038316613d5d5760405162461bcd60e51b815260206004820152602360248201527f455243313135353a206275726e2066726f6d20746865207a65726f206164647260448201526265737360e81b606482015260840161092e565b336000613d698461371d565b90506000613d768461371d565b9050613d9683876000858560405180602001604052806000815250613776565b60008581526065602090815260408083206001600160a01b038a16845290915290205484811015613e155760405162461bcd60e51b8152602060048201526024808201527f455243313135353a206275726e20616d6f756e7420657863656564732062616c604482015263616e636560e01b606482015260840161092e565b60008681526065602090815260408083206001600160a01b038b81168086529184528285208a8703905582518b81529384018a90529092908816917fc3d58168c5ae7397731d063d5bbf3d657854427343f4c083240f7aacaa2d0f62910160405180910390a4604080516020810190915260009052612902565b6000613e9b8284615619565b9392505050565b6001600160a01b0384163b15612b995760405163bc197c8160e01b81526001600160a01b0385169063bc197c8190613ee69089908990889088908890600401615080565b602060405180830381600087803b158015613f0057600080fd5b505af1925050508015613f30575060408051601f3d908101601f19168201909252613f2d91810190614c6a565b60015b613f3c57613c2a61578b565b6001600160e01b0319811663bc197c8160e01b146129025760405162461bcd60e51b815260040161092e906151da565b613f768282611c72565b61116057613f8e816001600160a01b03166014614270565b613f99836020614270565b604051602001613faa92919061500b565b60408051601f198184030181529082905262461bcd60e51b825261092e916004016151c7565b6000808251604114156140075760208301516040840151606085015160001a613ffb87828585614451565b94509450505050611803565b825160401415614031576020830151604084015161402686838361453e565b935093505050611803565b50600090506002611803565b600081600481111561405f57634e487b7160e01b600052602160045260246000fd5b141561406a57612bab565b600181600481111561408c57634e487b7160e01b600052602160045260246000fd5b14156140da5760405162461bcd60e51b815260206004820152601860248201527f45434453413a20696e76616c6964207369676e61747572650000000000000000604482015260640161092e565b60028160048111156140fc57634e487b7160e01b600052602160045260246000fd5b141561414a5760405162461bcd60e51b815260206004820152601f60248201527f45434453413a20696e76616c6964207369676e6174757265206c656e67746800604482015260640161092e565b600381600481111561416c57634e487b7160e01b600052602160045260246000fd5b14156141c55760405162461bcd60e51b815260206004820152602260248201527f45434453413a20696e76616c6964207369676e6174757265202773272076616c604482015261756560f01b606482015260840161092e565b60048160048111156141e757634e487b7160e01b600052602160045260246000fd5b1415612bab5760405162461bcd60e51b815260206004820152602260248201527f45434453413a20696e76616c6964207369676e6174757265202776272076616c604482015261756560f01b606482015260840161092e565b600054610100900460ff166142675760405162461bcd60e51b815260040161092e90615411565b612bab81614577565b6060600061427f836002615659565b61428a906002615619565b6001600160401b038111156142af57634e487b7160e01b600052604160045260246000fd5b6040519080825280601f01601f1916602001820160405280156142d9576020820181803683370190505b509050600360fc1b8160008151811061430257634e487b7160e01b600052603260045260246000fd5b60200101906001600160f81b031916908160001a905350600f60fb1b8160018151811061433f57634e487b7160e01b600052603260045260246000fd5b60200101906001600160f81b031916908160001a9053506000614363846002615659565b61436e906001615619565b90505b6001811115614402576f181899199a1a9b1b9c1cb0b131b232b360811b85600f16601081106143b057634e487b7160e01b600052603260045260246000fd5b1a60f81b8282815181106143d457634e487b7160e01b600052603260045260246000fd5b60200101906001600160f81b031916908160001a90535060049490941c936143fb816156a8565b9050614371565b508315613e9b5760405162461bcd60e51b815260206004820181905260248201527f537472696e67733a20686578206c656e67746820696e73756666696369656e74604482015260640161092e565b6000807f7fffffffffffffffffffffffffffffff5d576e7357a4501ddfe92f46681b20a08311156144885750600090506003614535565b8460ff16601b141580156144a057508460ff16601c14155b156144b15750600090506004614535565b6040805160008082526020820180845289905260ff881692820192909252606081018690526080810185905260019060a0016020604051602081039080840390855afa158015614505573d6000803e3d6000fd5b5050604051601f1901519150506001600160a01b03811661452e57600060019250925050614535565b9150600090505b94509492505050565b6000806001600160ff1b0383168161455b60ff86901c601b615619565b905061456987828885614451565b935093505050935093915050565b80516111609060679060208401905b828054614592906156bf565b90600052602060002090601f0160209004810192826145b457600085556145fa565b82601f106145cd57805160ff19168380011785556145fa565b828001600101855582156145fa579182015b828111156145fa5782518255916020019190600101906145df565b5061460692915061460a565b5090565b5b80821115614606576000815560010161460b565b803561098781615833565b600082601f83011261463a578081fd5b81356020614647826155f6565b60405161465482826156f4565b8381528281019150858301600585901b87018401881015614673578586fd5b855b8581101561469157813584529284019290840190600101614675565b5090979650505050505050565b8035801515811461098757600080fd5b600082601f8301126146be578081fd5b81356001600160401b038111156146d7576146d7615775565b6040516146ee601f8301601f1916602001826156f4565b818152846020838601011115614702578283fd5b816020850160208301379081016020019190915292915050565b803560ff8116811461098757600080fd5b60006020828403121561473e578081fd5b8135613e9b81615833565b60006020828403121561475a578081fd5b8151613e9b81615833565b60008060408385031215614777578081fd5b823561478281615833565b9150602083013561479281615833565b809150509250929050565b600080600080608085870312156147b2578182fd5b84356147bd81615833565b935060208501356147cd81615833565b925060408501356001600160401b03808211156147e8578384fd5b6147f48883890161462a565b93506060870135915080821115614809578283fd5b506148168782880161462a565b91505092959194509250565b600080600080600060a08688031215614839578081fd5b853561484481615833565b9450602086013561485481615833565b935060408601356001600160401b038082111561486f578283fd5b61487b89838a0161462a565b94506060880135915080821115614890578283fd5b61489c89838a0161462a565b935060808801359150808211156148b1578283fd5b506148be888289016146ae565b9150509295509295909350565b600080600080600060a086880312156148e2578081fd5b85356148ed81615833565b945060208601356148fd81615833565b9350604086013592506060860135915060808601356001600160401b03811115614925578182fd5b6148be888289016146ae565b60008060408385031215614943578182fd5b823561494e81615833565b915061495c6020840161469e565b90509250929050565b6000806000806000806000806000806101408b8d031215614984578788fd5b61498d8b61461f565b995061499b60208c0161461f565b98506149a960408c0161461f565b97506149b760608c0161471c565b965060808b0135955060a08b0135945060c08b0135935060e08b01356001600160401b03808211156149e7578485fd5b6149f38e838f016146ae565b94506101008d0135915080821115614a09578384fd5b614a158e838f016146ae565b93506101208d0135915080821115614a2b578283fd5b50614a388d828e016146ae565b9150509295989b9194979a5092959850565b60008060408385031215614a5c578182fd5b8235614a6781615833565b946020939093013593505050565b600080600060608486031215614a89578081fd5b8335614a9481615833565b95602085013595506040909401359392505050565b60008060408385031215614abb578182fd5b8235614ac681615833565b915061495c6020840161471c565b60008060408385031215614ae6578182fd5b82356001600160401b0380821115614afc578384fd5b818501915085601f830112614b0f578384fd5b81356020614b1c826155f6565b604051614b2982826156f4565b8381528281019150858301600585901b870184018b1015614b48578889fd5b8896505b84871015614b73578035614b5f81615833565b835260019690960195918301918301614b4c565b5096505086013592505080821115614b89578283fd5b50614b968582860161462a565b9150509250929050565b600060208284031215614bb1578081fd5b613e9b8261469e565b600060208284031215614bcb578081fd5b5035919050565b60008060408385031215614be4578182fd5b82359150602083013561479281615833565b600080600060608486031215614c0a578081fd5b8335925060208401356001600160401b03811115614c26578182fd5b614c32868287016146ae565b9250506040840135614c4381615833565b809150509250925092565b600060208284031215614c5f578081fd5b8135613e9b81615848565b600060208284031215614c7b578081fd5b8151613e9b81615848565b60008060008060008060008060008060006101608c8e031215614ca7578485fd5b614cb08c61461f565b9a50614cbe60208d0161461f565b9950614ccc60408d0161461f565b985060608c01359750614ce160808d0161471c565b965060a08c0135955060c08c0135945060e08c013593506001600160401b03806101008e01351115614d11578182fd5b614d228e6101008f01358f016146ae565b9350806101208e01351115614d35578182fd5b614d468e6101208f01358f016146ae565b9250806101408e01351115614d59578182fd5b50614d6b8d6101408e01358e016146ae565b90509295989b509295989b9093969950565b60008060008060008060008060006101208a8c031215614d9b578283fd5b614da48a61461f565b9850614db260208b0161461f565b9750614dc060408b0161471c565b965060608a0135955060808a0135945060a08a0135935060c08a01356001600160401b0380821115614df0578485fd5b614dfc8d838e016146ae565b945060e08c0135915080821115614e11578384fd5b614e1d8d838e016146ae565b93506101008c0135915080821115614e33578283fd5b50614e408c828d016146ae565b9150509295985092959850929598565b600060208284031215614e61578081fd5b5051919050565b60008060408385031215614e7a578182fd5b50508035926020909101359150565b6000815180845260208085019450808401835b83811015614eb857815187529582019590820190600101614e9c565b509495945050505050565b80516000906020808401838315614eb857815187529582019590820190600101614e9c565b60008151808452614f00816020860160208601615678565b601f01601f19169290920160200192915050565b8054600090600181811c9080831680614f2e57607f831692505b6020808410821415614f4e57634e487b7160e01b86526022600452602486fd5b83885260208801828015614f695760018114614f7a57614fa5565b60ff19871682528282019750614fa5565b60008981526020902060005b87811015614f9f57815484820152908601908401614f86565b83019850505b5050505050505092915050565b60006bffffffffffffffffffffffff19808860601b168352808760601b16601484015250614fec614fe66028840187614ec3565b85614ec3565b60e09390931b6001600160e01b03191683525050600401949350505050565b60007f416363657373436f6e74726f6c3a206163636f756e742000000000000000000082528351615043816017850160208801615678565b7001034b99036b4b9b9b4b733903937b6329607d1b6017918401918201528351615074816028840160208801615678565b01602801949350505050565b6001600160a01b0386811682528516602082015260a0604082018190526000906150ac90830186614e89565b82810360608401526150be8186614e89565b905082810360808401526150d28185614ee8565b98975050505050505050565b6001600160a01b03868116825285166020820152604081018490526060810183905260a06080820181905260009061511890830184614ee8565b979650505050505050565b6001600160a01b038716815260c06020820181905260009061514790830188614e89565b82810360408401526151598188614e89565b905085606084015284608084015282810360a08401526151798185614ee8565b9998505050505050505050565b600060208252613e9b6020830184614e89565b6000604082526151ac6040830185614e89565b82810360208401526151be8185614e89565b95945050505050565b600060208252613e9b6020830184614ee8565b60208082526028908201527f455243313135353a204552433131353552656365697665722072656a656374656040820152676420746f6b656e7360c01b606082015260800190565b60208082526029908201527f434c4d383a3a6f6e6c7941646d696e3a206d73672e73656e646572206e6f74206040820152683a34329030b236b4b760b91b606082015260800190565b60208082526046908201527f434c4d383a3a636f6e73756d65724f724465616c65723a20726563697069656e60408201527f74206d75737420626520636f6e73756d65722c206465616c6572206f7220696e60608201526564757374727960d01b608082015260a00190565b60208082526025908201527f455243313135353a207472616e7366657220746f20746865207a65726f206164604082015264647265737360d81b606082015260800190565b6020808252602e908201527f496e697469616c697a61626c653a20636f6e747261637420697320616c72656160408201526d191e481a5b9a5d1a585b1a5e995960921b606082015260800190565b6020808252602a908201527f455243313135353a20696e73756666696369656e742062616c616e636520666f60408201526939103a3930b739b332b960b11b606082015260800190565b60208082526039908201527f434c4d383a3a636f6e73756d65724f724465616c65723a2073656e646572206e60408201527f6f74206120636f6e73756d6572206f722061206465616c657200000000000000606082015260800190565b6020808252602b908201527f496e697469616c697a61626c653a20636f6e7472616374206973206e6f74206960408201526a6e697469616c697a696e6760a81b606082015260800190565b60006020825282516020830152602083015161547d604084018260ff169052565b5060408301516001600160a01b03811660608401525060608301516001600160a01b03811660808401525060808301516001600160a01b03811660a08401525060a083015160c083015260c083015160e083015260e08301516101008181850152808501519150506101a061012081818601526154fe6101c0860184614ee8565b9250808601519050601f1961014081878603018188015261551f8584614ee8565b94508088015192505061016081878603018188015261553e8584614ee8565b908801516101808881019190915290970151929095019190915250929392505050565b600087825260c0602083015261514760c0830188614e89565b60006101408c83528b60208401528a604084015260ff8a1660608401528860808401528760a08401528660c08401528060e08401526155bb81840187614f14565b90508281036101008401526155d08186614f14565b90508281036101208401526155e58185614f14565b9d9c50505050505050505050505050565b60006001600160401b0382111561560f5761560f615775565b5060051b60200190565b6000821982111561562c5761562c61575f565b500190565b600063ffffffff8083168185168083038211156156505761565061575f565b01949350505050565b60008160001904831182151516156156735761567361575f565b500290565b60005b8381101561569357818101518382015260200161567b565b838111156156a2576000848401525b50505050565b6000816156b7576156b761575f565b506000190190565b600181811c908216806156d357607f821691505b602082108114156116ed57634e487b7160e01b600052602260045260246000fd5b601f8201601f191681016001600160401b038111828210171561571957615719615775565b6040525050565b60006000198214156157345761573461575f565b5060010190565b600063ffffffff808316818114156157555761575561575f565b6001019392505050565b634e487b7160e01b600052601160045260246000fd5b634e487b7160e01b600052604160045260246000fd5b600060033d11156114c557600481823e5160e01c90565b600060443d10156157b2576114c5565b6040516003193d81016004833e81513d6001600160401b0381602484011181841117156157e35750505050506114c5565b82850191508151818111156157fd575050505050506114c5565b843d8701016020828501011115615819575050505050506114c5565b615828602082860101876156f4565b509094505050505090565b6001600160a01b0381168114612bab57600080fd5b6001600160e01b031981168114612bab57600080fdfe8305613dd3dbc3e0773e56336f52890c75fc1219c6ed3f363339b8ada04df289ede6574deba8f02ada7888448a497b08844d62e044ed533343a673be3ffcde5f5e1aa547d3dade8c68b013a47ad41c2bcc9b9e4b0765b0fb616780e15786e76af8890eedd7900ad88da6192fd03dbb69dbeee963b1a0ed738abe49ab3331aaf32ab9f1da92e74aaa01eb75a871557505b11dd8d36832a34bb21bbee88b08d860e97dad3dbe5042e7384b1572cf966a15e089576a62b5126c5ef1d184ab18b12ca2646970667358221220cba1ee1087a9a90f25761a910a84d287db79c45373f377dd6a5e00a025fe66ac64736f6c63430008030033",
  "devdoc": {
    "kind": "dev",
    "methods": {
      "_consumerOrDealer(address)": {
        "details": "Returns `true` if hasRole of dealer, industry or consumer"
      },
      "balanceOf(address,uint256)": {
        "details": "See {IERC1155-balanceOf}. Requirements: - `account` cannot be the zero address."
      },
      "balanceOfBatch(address[],uint256[])": {
        "details": "See {IERC1155-balanceOfBatch}. Requirements: - `accounts` and `ids` must have the same length."
      },
      "getIssuedBy(uint256)": {
        "details": "returns issuer of a given tokenId"
      },
      "getIssuedFrom(uint256)": {
        "details": "returns issuer of a given tokenId"
      },
      "getNumOfUniqueTokens()": {
        "details": "returns number of unique tokens"
      },
      "getRoleAdmin(bytes32)": {
        "details": "Returns the admin role that controls `role`. See {grantRole} and {revokeRole}. To change a role's admin, use {_setRoleAdmin}."
      },
      "getRoles(address)": {
        "details": "Helper function for returning tuple of bools of role membership",
        "params": {
          "account": "address to check roles"
        }
      },
      "getTokenDetails(uint256)": {
        "details": "returns the details of a given tokenId, omitting holders",
        "params": {
          "tokenId": "token to check"
        }
      },
      "getTokenRetiredAmount(address,uint256)": {
        "details": "returns the retired amount on a token",
        "params": {
          "tokenId": "token to check"
        }
      },
      "getTokenType(uint256)": {
        "details": "returns the token name for the given token as a string value",
        "params": {
          "tokenId": "token to check"
        }
      },
      "getTransferHash(address,address,uint256[],uint256[])": {
        "details": "Returns keccak256 hash of transaction request including next available nonce for transfer from -> to addresses"
      },
      "grantRole(bytes32,address)": {
        "details": "Grants `role` to `account`. If `account` had not been already granted `role`, emits a {RoleGranted} event. Requirements: - the caller must have ``role``'s admin role."
      },
      "hasRole(bytes32,address)": {
        "details": "Returns `true` if `account` has been granted `role`."
      },
      "isApprovedForAll(address,address)": {
        "details": "See {IERC1155-isApprovedForAll}."
      },
      "isConsumerRegistered(address)": {
        "details": "returns true if Consumers's account is registered",
        "params": {
          "account": "address of the dealer"
        }
      },
      "isDealerRegistered(address)": {
        "details": "returns true if Dealer's account is registered",
        "params": {
          "account": "address of the dealer"
        }
      },
      "issue(uint160,address,uint8,uint256,uint256,uint256,string,string,string)": {
        "details": "External function to mint an amount of a token Only authorized dealer of associated token type can call this function",
        "params": {
          "quantity": "of the token to mint For ex: if one needs 100 full tokens, the caller should set the amount as (100 * 10^4) = 1,000,000 (assuming the token's decimals is set to 4)"
        }
      },
      "issueOnBehalf(address,uint160,address,uint8,uint256,uint256,uint256,string,string,string)": {
        "details": "Issue function for DAO (on limited mode) or admin to manually pass issuer Must be called from Timelock contract through a successful proposal or by admin if limited mode is set to false"
      },
      "mint(address,uint256,uint256)": {
        "details": "mints more of an existing token",
        "params": {
          "quantity": "amount to mint",
          "to": "reciepient of token",
          "tokenId": "token to mint more of"
        }
      },
      "registerConsumer(address)": {
        "details": "returns true if Consumer's account is registered for the given token",
        "params": {
          "account": "address of the consumer"
        }
      },
      "registerDealer(address,uint8)": {
        "details": "Only contract owner can register Dealers",
        "params": {
          "account": "address of the dealer to register"
        }
      },
      "registerIndustry(address)": {
        "details": "msg.sender can volunteer themselves as registered industry or other registered dealer can register Industry"
      },
      "renounceRole(bytes32,address)": {
        "details": "Revokes `role` from the calling account. Roles are often managed via {grantRole} and {revokeRole}: this function's purpose is to provide a mechanism for accounts to lose their privileges if they are compromised (such as when a trusted device is misplaced). If the calling account had been revoked `role`, emits a {RoleRevoked} event. Requirements: - the caller must be `account`."
      },
      "retire(uint256,uint256)": {
        "details": "sets the token to the retire state to disable transfers, mints and burns",
        "params": {
          "tokenId": "token to set in pause state   Only contract owner can pause or resume tokens"
        }
      },
      "revokeRole(bytes32,address)": {
        "details": "Revokes `role` from `account`. If `account` had been granted `role`, emits a {RoleRevoked} event. Requirements: - the caller must have ``role``'s admin role."
      },
      "safeBatchTransferFrom(address,address,uint256[],uint256[],bytes)": {
        "details": "See {IERC1155-safeBatchTransferFrom}."
      },
      "safeTransferFrom(address,address,uint256,uint256,bytes)": {
        "details": "See {IERC1155-safeTransferFrom}."
      },
      "setApprovalForAll(address,bool)": {
        "details": "See {IERC1155-setApprovalForAll}."
      },
      "setLimitedMode(bool)": {
        "details": "turns off or on limited mode",
        "params": {
          "_limitedMode": "boolean value"
        }
      },
      "transfer(address,uint256,uint256)": {
        "details": "transfers the value to the 'to' account for tokenId",
        "params": {
          "to": "recipient address",
          "tokenId": "tokenId for the transfer",
          "value": "amount of transfer Transfer can start only when both parties are registered and the token is not paused Note: Token holders can arbitrarily call safeTransferFrom() without these checks The requires commented out below have been moved to _beforeTokenTransfer hook so that they are always applied to safeTransferFrom (or safeBatch...)"
        }
      },
      "unregisterConsumer(address)": {
        "details": "Only contract owner can unregister Consumers TO-DO clarify the above - function allows any Dealer to unregister consumers. Why would we need to unregister consumers?",
        "params": {
          "account": "address to be unregistered"
        }
      },
      "unregisterDealer(address,uint8)": {
        "details": "Only contract owner can unregister Dealers",
        "params": {
          "account": "address to be unregistered"
        }
      },
      "unregisterIndustry(address)": {
        "details": "msg.sender can unvolunteer themselves as registered industry or other registered dealer can unregister Industry"
      },
      "uri(uint256)": {
        "details": "See {IERC1155MetadataURI-uri}. This implementation returns the same URI for *all* token types. It relies on the token type ID substitution mechanism https://eips.ethereum.org/EIPS/eip-1155#metadata[defined in the EIP]. Clients calling this function must replace the `\\{id\\}` substring with the actual token type ID."
      },
      "verifySignature(bytes32,bytes,address)": {
        "details": "Returns `true` if transfer has been approved by to address reconstruct transferHash and check that it matches the signature"
      }
    },
    "version": 1
  },
  "userdoc": {
    "kind": "user",
    "methods": {},
    "version": 1
  },
  "storageLayout": {
    "storage": [
      {
        "astId": 419,
        "contract": "solidity/NetEmissionsTokenNetwork.sol:NetEmissionsTokenNetwork",
        "label": "_initialized",
        "offset": 0,
        "slot": "0",
        "type": "t_uint8"
      },
      {
        "astId": 422,
        "contract": "solidity/NetEmissionsTokenNetwork.sol:NetEmissionsTokenNetwork",
        "label": "_initializing",
        "offset": 1,
        "slot": "0",
        "type": "t_bool"
      },
      {
        "astId": 3438,
        "contract": "solidity/NetEmissionsTokenNetwork.sol:NetEmissionsTokenNetwork",
        "label": "__gap",
        "offset": 0,
        "slot": "1",
        "type": "t_array(t_uint256)50_storage"
      },
      {
        "astId": 4166,
        "contract": "solidity/NetEmissionsTokenNetwork.sol:NetEmissionsTokenNetwork",
        "label": "__gap",
        "offset": 0,
        "slot": "51",
        "type": "t_array(t_uint256)50_storage"
      },
      {
        "astId": 583,
        "contract": "solidity/NetEmissionsTokenNetwork.sol:NetEmissionsTokenNetwork",
        "label": "_balances",
        "offset": 0,
        "slot": "101",
        "type": "t_mapping(t_uint256,t_mapping(t_address,t_uint256))"
      },
      {
        "astId": 589,
        "contract": "solidity/NetEmissionsTokenNetwork.sol:NetEmissionsTokenNetwork",
        "label": "_operatorApprovals",
        "offset": 0,
        "slot": "102",
        "type": "t_mapping(t_address,t_mapping(t_address,t_bool))"
      },
      {
        "astId": 591,
        "contract": "solidity/NetEmissionsTokenNetwork.sol:NetEmissionsTokenNetwork",
        "label": "_uri",
        "offset": 0,
        "slot": "103",
        "type": "t_string_storage"
      },
      {
        "astId": 1798,
        "contract": "solidity/NetEmissionsTokenNetwork.sol:NetEmissionsTokenNetwork",
        "label": "__gap",
        "offset": 0,
        "slot": "104",
        "type": "t_array(t_uint256)47_storage"
      },
      {
        "astId": 39,
        "contract": "solidity/NetEmissionsTokenNetwork.sol:NetEmissionsTokenNetwork",
        "label": "_roles",
        "offset": 0,
        "slot": "151",
        "type": "t_mapping(t_bytes32,t_struct(RoleData)34_storage)"
      },
      {
        "astId": 338,
        "contract": "solidity/NetEmissionsTokenNetwork.sol:NetEmissionsTokenNetwork",
        "label": "__gap",
        "offset": 0,
        "slot": "152",
        "type": "t_array(t_uint256)49_storage"
      },
      {
        "astId": 6881,
        "contract": "solidity/NetEmissionsTokenNetwork.sol:NetEmissionsTokenNetwork",
        "label": "limitedMode",
        "offset": 0,
        "slot": "201",
        "type": "t_bool"
      },
      {
        "astId": 6883,
        "contract": "solidity/NetEmissionsTokenNetwork.sol:NetEmissionsTokenNetwork",
        "label": "admin",
        "offset": 1,
        "slot": "201",
        "type": "t_address"
      },
      {
        "astId": 6885,
        "contract": "solidity/NetEmissionsTokenNetwork.sol:NetEmissionsTokenNetwork",
        "label": "timelock",
        "offset": 0,
        "slot": "202",
        "type": "t_address"
      },
      {
        "astId": 6945,
        "contract": "solidity/NetEmissionsTokenNetwork.sol:NetEmissionsTokenNetwork",
        "label": "_numOfUniqueTokens",
        "offset": 0,
        "slot": "203",
        "type": "t_struct(Counter)3445_storage"
      },
      {
        "astId": 6950,
        "contract": "solidity/NetEmissionsTokenNetwork.sol:NetEmissionsTokenNetwork",
        "label": "_tokenDetails",
        "offset": 0,
        "slot": "204",
        "type": "t_mapping(t_uint256,t_struct(CarbonTokenDetails)6942_storage)"
      },
      {
        "astId": 6956,
        "contract": "solidity/NetEmissionsTokenNetwork.sol:NetEmissionsTokenNetwork",
        "label": "_retiredBalances",
        "offset": 0,
        "slot": "205",
        "type": "t_mapping(t_uint256,t_mapping(t_address,t_uint256))"
      },
      {
        "astId": 6962,
        "contract": "solidity/NetEmissionsTokenNetwork.sol:NetEmissionsTokenNetwork",
        "label": "carbonTransferNonce",
        "offset": 0,
        "slot": "206",
        "type": "t_mapping(t_address,t_mapping(t_address,t_uint32))"
      }
    ],
    "types": {
      "t_address": {
        "encoding": "inplace",
        "label": "address",
        "numberOfBytes": "20"
      },
      "t_array(t_uint256)47_storage": {
        "base": "t_uint256",
        "encoding": "inplace",
        "label": "uint256[47]",
        "numberOfBytes": "1504"
      },
      "t_array(t_uint256)49_storage": {
        "base": "t_uint256",
        "encoding": "inplace",
        "label": "uint256[49]",
        "numberOfBytes": "1568"
      },
      "t_array(t_uint256)50_storage": {
        "base": "t_uint256",
        "encoding": "inplace",
        "label": "uint256[50]",
        "numberOfBytes": "1600"
      },
      "t_bool": {
        "encoding": "inplace",
        "label": "bool",
        "numberOfBytes": "1"
      },
      "t_bytes32": {
        "encoding": "inplace",
        "label": "bytes32",
        "numberOfBytes": "32"
      },
      "t_mapping(t_address,t_bool)": {
        "encoding": "mapping",
        "key": "t_address",
        "label": "mapping(address => bool)",
        "numberOfBytes": "32",
        "value": "t_bool"
      },
      "t_mapping(t_address,t_mapping(t_address,t_bool))": {
        "encoding": "mapping",
        "key": "t_address",
        "label": "mapping(address => mapping(address => bool))",
        "numberOfBytes": "32",
        "value": "t_mapping(t_address,t_bool)"
      },
      "t_mapping(t_address,t_mapping(t_address,t_uint32))": {
        "encoding": "mapping",
        "key": "t_address",
        "label": "mapping(address => mapping(address => uint32))",
        "numberOfBytes": "32",
        "value": "t_mapping(t_address,t_uint32)"
      },
      "t_mapping(t_address,t_uint256)": {
        "encoding": "mapping",
        "key": "t_address",
        "label": "mapping(address => uint256)",
        "numberOfBytes": "32",
        "value": "t_uint256"
      },
      "t_mapping(t_address,t_uint32)": {
        "encoding": "mapping",
        "key": "t_address",
        "label": "mapping(address => uint32)",
        "numberOfBytes": "32",
        "value": "t_uint32"
      },
      "t_mapping(t_bytes32,t_struct(RoleData)34_storage)": {
        "encoding": "mapping",
        "key": "t_bytes32",
        "label": "mapping(bytes32 => struct AccessControlUpgradeable.RoleData)",
        "numberOfBytes": "32",
        "value": "t_struct(RoleData)34_storage"
      },
      "t_mapping(t_uint256,t_mapping(t_address,t_uint256))": {
        "encoding": "mapping",
        "key": "t_uint256",
        "label": "mapping(uint256 => mapping(address => uint256))",
        "numberOfBytes": "32",
        "value": "t_mapping(t_address,t_uint256)"
      },
      "t_mapping(t_uint256,t_struct(CarbonTokenDetails)6942_storage)": {
        "encoding": "mapping",
        "key": "t_uint256",
        "label": "mapping(uint256 => struct NetEmissionsTokenNetwork.CarbonTokenDetails)",
        "numberOfBytes": "32",
        "value": "t_struct(CarbonTokenDetails)6942_storage"
      },
      "t_string_storage": {
        "encoding": "bytes",
        "label": "string",
        "numberOfBytes": "32"
      },
      "t_struct(CarbonTokenDetails)6942_storage": {
        "encoding": "inplace",
        "label": "struct NetEmissionsTokenNetwork.CarbonTokenDetails",
        "members": [
          {
            "astId": 6917,
            "contract": "solidity/NetEmissionsTokenNetwork.sol:NetEmissionsTokenNetwork",
            "label": "tokenId",
            "offset": 0,
            "slot": "0",
            "type": "t_uint256"
          },
          {
            "astId": 6919,
            "contract": "solidity/NetEmissionsTokenNetwork.sol:NetEmissionsTokenNetwork",
            "label": "tokenTypeId",
            "offset": 0,
            "slot": "1",
            "type": "t_uint8"
          },
          {
            "astId": 6921,
            "contract": "solidity/NetEmissionsTokenNetwork.sol:NetEmissionsTokenNetwork",
            "label": "issuedBy",
            "offset": 1,
            "slot": "1",
            "type": "t_address"
          },
          {
            "astId": 6923,
            "contract": "solidity/NetEmissionsTokenNetwork.sol:NetEmissionsTokenNetwork",
            "label": "issuedFrom",
            "offset": 0,
            "slot": "2",
            "type": "t_uint160"
          },
          {
            "astId": 6925,
            "contract": "solidity/NetEmissionsTokenNetwork.sol:NetEmissionsTokenNetwork",
            "label": "issuedTo",
            "offset": 0,
            "slot": "3",
            "type": "t_address"
          },
          {
            "astId": 6927,
            "contract": "solidity/NetEmissionsTokenNetwork.sol:NetEmissionsTokenNetwork",
            "label": "fromDate",
            "offset": 0,
            "slot": "4",
            "type": "t_uint256"
          },
          {
            "astId": 6929,
            "contract": "solidity/NetEmissionsTokenNetwork.sol:NetEmissionsTokenNetwork",
            "label": "thruDate",
            "offset": 0,
            "slot": "5",
            "type": "t_uint256"
          },
          {
            "astId": 6931,
            "contract": "solidity/NetEmissionsTokenNetwork.sol:NetEmissionsTokenNetwork",
            "label": "dateCreated",
            "offset": 0,
            "slot": "6",
            "type": "t_uint256"
          },
          {
            "astId": 6933,
            "contract": "solidity/NetEmissionsTokenNetwork.sol:NetEmissionsTokenNetwork",
            "label": "metadata",
            "offset": 0,
            "slot": "7",
            "type": "t_string_storage"
          },
          {
            "astId": 6935,
            "contract": "solidity/NetEmissionsTokenNetwork.sol:NetEmissionsTokenNetwork",
            "label": "manifest",
            "offset": 0,
            "slot": "8",
            "type": "t_string_storage"
          },
          {
            "astId": 6937,
            "contract": "solidity/NetEmissionsTokenNetwork.sol:NetEmissionsTokenNetwork",
            "label": "description",
            "offset": 0,
            "slot": "9",
            "type": "t_string_storage"
          },
          {
            "astId": 6939,
            "contract": "solidity/NetEmissionsTokenNetwork.sol:NetEmissionsTokenNetwork",
            "label": "totalIssued",
            "offset": 0,
            "slot": "10",
            "type": "t_uint256"
          },
          {
            "astId": 6941,
            "contract": "solidity/NetEmissionsTokenNetwork.sol:NetEmissionsTokenNetwork",
            "label": "totalRetired",
            "offset": 0,
            "slot": "11",
            "type": "t_uint256"
          }
        ],
        "numberOfBytes": "384"
      },
      "t_struct(Counter)3445_storage": {
        "encoding": "inplace",
        "label": "struct CountersUpgradeable.Counter",
        "members": [
          {
            "astId": 3444,
            "contract": "solidity/NetEmissionsTokenNetwork.sol:NetEmissionsTokenNetwork",
            "label": "_value",
            "offset": 0,
            "slot": "0",
            "type": "t_uint256"
          }
        ],
        "numberOfBytes": "32"
      },
      "t_struct(RoleData)34_storage": {
        "encoding": "inplace",
        "label": "struct AccessControlUpgradeable.RoleData",
        "members": [
          {
            "astId": 31,
            "contract": "solidity/NetEmissionsTokenNetwork.sol:NetEmissionsTokenNetwork",
            "label": "members",
            "offset": 0,
            "slot": "0",
            "type": "t_mapping(t_address,t_bool)"
          },
          {
            "astId": 33,
            "contract": "solidity/NetEmissionsTokenNetwork.sol:NetEmissionsTokenNetwork",
            "label": "adminRole",
            "offset": 0,
            "slot": "1",
            "type": "t_bytes32"
          }
        ],
        "numberOfBytes": "64"
      },
      "t_uint160": {
        "encoding": "inplace",
        "label": "uint160",
        "numberOfBytes": "20"
      },
      "t_uint256": {
        "encoding": "inplace",
        "label": "uint256",
        "numberOfBytes": "32"
      },
      "t_uint32": {
        "encoding": "inplace",
        "label": "uint32",
        "numberOfBytes": "4"
      },
      "t_uint8": {
        "encoding": "inplace",
        "label": "uint8",
        "numberOfBytes": "1"
      }
    }
  }
}